{
  "abi": [
    {
      "inputs": [
        {
          "internalType": "string",
          "name": "_name",
          "type": "string"
        },
        {
          "internalType": "string",
          "name": "_symbol",
          "type": "string"
        },
        {
          "internalType": "address",
          "name": "_layerZeroEndpoint",
          "type": "address"
        },
        {
          "internalType": "uint256",
          "name": "_startMintId",
          "type": "uint256"
        },
        {
          "internalType": "uint256",
          "name": "_endMintId",
          "type": "uint256"
        },
        {
          "internalType": "uint256",
          "name": "_maxTokensPerMint",
          "type": "uint256"
        },
        {
          "internalType": "string",
          "name": "_baseTokenURI",
          "type": "string"
        },
        {
          "internalType": "string",
          "name": "_hiddenURI",
          "type": "string"
        },
        {
          "internalType": "uint256",
          "name": "_tax",
          "type": "uint256"
        },
        {
          "internalType": "address",
          "name": "_taxRecipient",
          "type": "address"
        }
      ],
      "stateMutability": "nonpayable",
      "type": "constructor"
    },
    {
      "inputs": [
        {
          "internalType": "address",
          "name": "operator",
          "type": "address"
        }
      ],
      "name": "OperatorNotAllowed",
      "type": "error"
    },
    {
      "anonymous": false,
      "inputs": [
        {
          "indexed": true,
          "internalType": "address",
          "name": "owner",
          "type": "address"
        },
        {
          "indexed": true,
          "internalType": "address",
          "name": "approved",
          "type": "address"
        },
        {
          "indexed": true,
          "internalType": "uint256",
          "name": "tokenId",
          "type": "uint256"
        }
      ],
      "name": "Approval",
      "type": "event"
    },
    {
      "anonymous": false,
      "inputs": [
        {
          "indexed": true,
          "internalType": "address",
          "name": "owner",
          "type": "address"
        },
        {
          "indexed": true,
          "internalType": "address",
          "name": "operator",
          "type": "address"
        },
        {
          "indexed": false,
          "internalType": "bool",
          "name": "approved",
          "type": "bool"
        }
      ],
      "name": "ApprovalForAll",
      "type": "event"
    },
    {
      "anonymous": false,
      "inputs": [
        {
          "indexed": false,
          "internalType": "bytes32",
          "name": "_hashedPayload",
          "type": "bytes32"
        }
      ],
      "name": "CreditCleared",
      "type": "event"
    },
    {
      "anonymous": false,
      "inputs": [
        {
          "indexed": false,
          "internalType": "bytes32",
          "name": "_hashedPayload",
          "type": "bytes32"
        },
        {
          "indexed": false,
          "internalType": "bytes",
          "name": "_payload",
          "type": "bytes"
        }
      ],
      "name": "CreditStored",
      "type": "event"
    },
    {
      "anonymous": false,
      "inputs": [
        {
          "indexed": false,
          "internalType": "uint16",
          "name": "_srcChainId",
          "type": "uint16"
        },
        {
          "indexed": false,
          "internalType": "bytes",
          "name": "_srcAddress",
          "type": "bytes"
        },
        {
          "indexed": false,
          "internalType": "uint64",
          "name": "_nonce",
          "type": "uint64"
        },
        {
          "indexed": false,
          "internalType": "bytes",
          "name": "_payload",
          "type": "bytes"
        },
        {
          "indexed": false,
          "internalType": "bytes",
          "name": "_reason",
          "type": "bytes"
        }
      ],
      "name": "MessageFailed",
      "type": "event"
    },
    {
      "anonymous": false,
      "inputs": [
        {
          "indexed": true,
          "internalType": "address",
          "name": "previousOwner",
          "type": "address"
        },
        {
          "indexed": true,
          "internalType": "address",
          "name": "newOwner",
          "type": "address"
        }
      ],
      "name": "OwnershipTransferred",
      "type": "event"
    },
    {
      "anonymous": false,
      "inputs": [
        {
          "indexed": true,
          "internalType": "uint16",
          "name": "_srcChainId",
          "type": "uint16"
        },
        {
          "indexed": true,
          "internalType": "bytes",
          "name": "_srcAddress",
          "type": "bytes"
        },
        {
          "indexed": true,
          "internalType": "address",
          "name": "_toAddress",
          "type": "address"
        },
        {
          "indexed": false,
          "internalType": "uint256[]",
          "name": "_tokenIds",
          "type": "uint256[]"
        }
      ],
      "name": "ReceiveFromChain",
      "type": "event"
    },
    {
      "anonymous": false,
      "inputs": [
        {
          "indexed": false,
          "internalType": "uint16",
          "name": "_srcChainId",
          "type": "uint16"
        },
        {
          "indexed": false,
          "internalType": "bytes",
          "name": "_srcAddress",
          "type": "bytes"
        },
        {
          "indexed": false,
          "internalType": "uint64",
          "name": "_nonce",
          "type": "uint64"
        },
        {
          "indexed": false,
          "internalType": "bytes32",
          "name": "_payloadHash",
          "type": "bytes32"
        }
      ],
      "name": "RetryMessageSuccess",
      "type": "event"
    },
    {
      "anonymous": false,
      "inputs": [
        {
          "indexed": true,
          "internalType": "uint16",
          "name": "_dstChainId",
          "type": "uint16"
        },
        {
          "indexed": true,
          "internalType": "address",
          "name": "_from",
          "type": "address"
        },
        {
          "indexed": true,
          "internalType": "bytes",
          "name": "_toAddress",
          "type": "bytes"
        },
        {
          "indexed": false,
          "internalType": "uint256[]",
          "name": "_tokenIds",
          "type": "uint256[]"
        }
      ],
      "name": "SendToChain",
      "type": "event"
    },
    {
      "anonymous": false,
      "inputs": [
        {
          "indexed": false,
          "internalType": "uint16",
          "name": "_dstChainId",
          "type": "uint16"
        },
        {
          "indexed": false,
          "internalType": "uint16",
          "name": "_type",
          "type": "uint16"
        },
        {
          "indexed": false,
          "internalType": "uint256",
          "name": "_minDstGas",
          "type": "uint256"
        }
      ],
      "name": "SetMinDstGas",
      "type": "event"
    },
    {
      "anonymous": false,
      "inputs": [
        {
          "indexed": false,
          "internalType": "address",
          "name": "precrime",
          "type": "address"
        }
      ],
      "name": "SetPrecrime",
      "type": "event"
    },
    {
      "anonymous": false,
      "inputs": [
        {
          "indexed": false,
          "internalType": "uint16",
          "name": "_remoteChainId",
          "type": "uint16"
        },
        {
          "indexed": false,
          "internalType": "bytes",
          "name": "_path",
          "type": "bytes"
        }
      ],
      "name": "SetTrustedRemote",
      "type": "event"
    },
    {
      "anonymous": false,
      "inputs": [
        {
          "indexed": false,
          "internalType": "uint16",
          "name": "_remoteChainId",
          "type": "uint16"
        },
        {
          "indexed": false,
          "internalType": "bytes",
          "name": "_remoteAddress",
          "type": "bytes"
        }
      ],
      "name": "SetTrustedRemoteAddress",
      "type": "event"
    },
    {
      "anonymous": false,
      "inputs": [
        {
          "indexed": true,
          "internalType": "address",
          "name": "from",
          "type": "address"
        },
        {
          "indexed": true,
          "internalType": "address",
          "name": "to",
          "type": "address"
        },
        {
          "indexed": true,
          "internalType": "uint256",
          "name": "tokenId",
          "type": "uint256"
        }
      ],
      "name": "Transfer",
      "type": "event"
    },
    {
      "inputs": [],
      "name": "DEFAULT_PAYLOAD_SIZE_LIMIT",
      "outputs": [
        {
          "internalType": "uint256",
          "name": "",
          "type": "uint256"
        }
      ],
      "stateMutability": "view",
      "type": "function"
    },
    {
      "inputs": [],
      "name": "FUNCTION_TYPE_SEND",
      "outputs": [
        {
          "internalType": "uint16",
          "name": "",
          "type": "uint16"
        }
      ],
      "stateMutability": "view",
      "type": "function"
    },
    {
      "inputs": [],
      "name": "OPERATOR_FILTER_REGISTRY",
      "outputs": [
        {
          "internalType": "contract IOperatorFilterRegistry",
          "name": "",
          "type": "address"
        }
      ],
      "stateMutability": "view",
      "type": "function"
    },
    {
      "inputs": [],
      "name": "_publicSaleStarted",
      "outputs": [
        {
          "internalType": "bool",
          "name": "",
          "type": "bool"
        }
      ],
      "stateMutability": "view",
      "type": "function"
    },
    {
      "inputs": [],
      "name": "_saleStarted",
      "outputs": [
        {
          "internalType": "bool",
          "name": "",
          "type": "bool"
        }
      ],
      "stateMutability": "view",
      "type": "function"
    },
    {
      "inputs": [
        {
          "internalType": "address",
          "name": "operator",
          "type": "address"
        },
        {
          "internalType": "uint256",
          "name": "tokenId",
          "type": "uint256"
        }
      ],
      "name": "approve",
      "outputs": [],
      "stateMutability": "nonpayable",
      "type": "function"
    },
    {
      "inputs": [
        {
          "internalType": "address",
          "name": "owner",
          "type": "address"
        }
      ],
      "name": "balanceOf",
      "outputs": [
        {
          "internalType": "uint256",
          "name": "",
          "type": "uint256"
        }
      ],
      "stateMutability": "view",
      "type": "function"
    },
    {
      "inputs": [
        {
          "internalType": "bytes",
          "name": "_payload",
          "type": "bytes"
        }
      ],
      "name": "clearCredits",
      "outputs": [],
      "stateMutability": "nonpayable",
      "type": "function"
    },
    {
      "inputs": [],
      "name": "contractURI",
      "outputs": [
        {
          "internalType": "string",
          "name": "",
          "type": "string"
        }
      ],
      "stateMutability": "view",
      "type": "function"
    },
    {
      "inputs": [
        {
          "internalType": "uint16",
          "name": "",
          "type": "uint16"
        }
      ],
      "name": "dstChainIdToBatchLimit",
      "outputs": [
        {
          "internalType": "uint256",
          "name": "",
          "type": "uint256"
        }
      ],
      "stateMutability": "view",
      "type": "function"
    },
    {
      "inputs": [
        {
          "internalType": "uint16",
          "name": "",
          "type": "uint16"
        }
      ],
      "name": "dstChainIdToTransferGas",
      "outputs": [
        {
          "internalType": "uint256",
          "name": "",
          "type": "uint256"
        }
      ],
      "stateMutability": "view",
      "type": "function"
    },
    {
      "inputs": [
        {
          "internalType": "uint16",
          "name": "_dstChainId",
          "type": "uint16"
        },
        {
          "internalType": "bytes",
          "name": "_toAddress",
          "type": "bytes"
        },
        {
          "internalType": "uint256[]",
          "name": "_tokenIds",
          "type": "uint256[]"
        },
        {
          "internalType": "bool",
          "name": "_useZro",
          "type": "bool"
        },
        {
          "internalType": "bytes",
          "name": "_adapterParams",
          "type": "bytes"
        }
      ],
      "name": "estimateSendBatchFee",
      "outputs": [
        {
          "internalType": "uint256",
          "name": "nativeFee",
          "type": "uint256"
        },
        {
          "internalType": "uint256",
          "name": "zroFee",
          "type": "uint256"
        }
      ],
      "stateMutability": "view",
      "type": "function"
    },
    {
      "inputs": [
        {
          "internalType": "uint16",
          "name": "_dstChainId",
          "type": "uint16"
        },
        {
          "internalType": "bytes",
          "name": "_toAddress",
          "type": "bytes"
        },
        {
          "internalType": "uint256",
          "name": "_tokenId",
          "type": "uint256"
        },
        {
          "internalType": "bool",
          "name": "_useZro",
          "type": "bool"
        },
        {
          "internalType": "bytes",
          "name": "_adapterParams",
          "type": "bytes"
        }
      ],
      "name": "estimateSendFee",
      "outputs": [
        {
          "internalType": "uint256",
          "name": "nativeFee",
          "type": "uint256"
        },
        {
          "internalType": "uint256",
          "name": "zroFee",
          "type": "uint256"
        }
      ],
      "stateMutability": "view",
      "type": "function"
    },
    {
      "inputs": [
        {
          "internalType": "uint16",
          "name": "",
          "type": "uint16"
        },
        {
          "internalType": "bytes",
          "name": "",
          "type": "bytes"
        },
        {
          "internalType": "uint64",
          "name": "",
          "type": "uint64"
        }
      ],
      "name": "failedMessages",
      "outputs": [
        {
          "internalType": "bytes32",
          "name": "",
          "type": "bytes32"
        }
      ],
      "stateMutability": "view",
      "type": "function"
    },
    {
      "inputs": [],
      "name": "flipPublicSaleStarted",
      "outputs": [],
      "stateMutability": "nonpayable",
      "type": "function"
    },
    {
      "inputs": [],
      "name": "flipRevealed",
      "outputs": [],
      "stateMutability": "nonpayable",
      "type": "function"
    },
    {
      "inputs": [],
      "name": "flipSaleStarted",
      "outputs": [],
      "stateMutability": "nonpayable",
      "type": "function"
    },
    {
      "inputs": [
        {
          "internalType": "uint16",
          "name": "_srcChainId",
          "type": "uint16"
        },
        {
          "internalType": "bytes",
          "name": "_srcAddress",
          "type": "bytes"
        }
      ],
      "name": "forceResumeReceive",
      "outputs": [],
      "stateMutability": "nonpayable",
      "type": "function"
    },
    {
      "inputs": [
        {
          "internalType": "uint256",
          "name": "tokenId",
          "type": "uint256"
        }
      ],
      "name": "getApproved",
      "outputs": [
        {
          "internalType": "address",
          "name": "",
          "type": "address"
        }
      ],
      "stateMutability": "view",
      "type": "function"
    },
    {
      "inputs": [
        {
          "internalType": "uint16",
          "name": "_version",
          "type": "uint16"
        },
        {
          "internalType": "uint16",
          "name": "_chainId",
          "type": "uint16"
        },
        {
          "internalType": "address",
          "name": "",
          "type": "address"
        },
        {
          "internalType": "uint256",
          "name": "_configType",
          "type": "uint256"
        }
      ],
      "name": "getConfig",
      "outputs": [
        {
          "internalType": "bytes",
          "name": "",
          "type": "bytes"
        }
      ],
      "stateMutability": "view",
      "type": "function"
    },
    {
      "inputs": [
        {
          "internalType": "uint16",
          "name": "_remoteChainId",
          "type": "uint16"
        }
      ],
      "name": "getTrustedRemoteAddress",
      "outputs": [
        {
          "internalType": "bytes",
          "name": "",
          "type": "bytes"
        }
      ],
      "stateMutability": "view",
      "type": "function"
    },
    {
      "inputs": [
        {
          "internalType": "address",
          "name": "owner",
          "type": "address"
        },
        {
          "internalType": "address",
          "name": "operator",
          "type": "address"
        }
      ],
      "name": "isApprovedForAll",
      "outputs": [
        {
          "internalType": "bool",
          "name": "",
          "type": "bool"
        }
      ],
      "stateMutability": "view",
      "type": "function"
    },
    {
      "inputs": [
        {
          "internalType": "uint16",
          "name": "_srcChainId",
          "type": "uint16"
        },
        {
          "internalType": "bytes",
          "name": "_srcAddress",
          "type": "bytes"
        }
      ],
      "name": "isTrustedRemote",
      "outputs": [
        {
          "internalType": "bool",
          "name": "",
          "type": "bool"
        }
      ],
      "stateMutability": "view",
      "type": "function"
    },
    {
      "inputs": [],
      "name": "lzEndpoint",
      "outputs": [
        {
          "internalType": "contract ILayerZeroEndpoint",
          "name": "",
          "type": "address"
        }
      ],
      "stateMutability": "view",
      "type": "function"
    },
    {
      "inputs": [
        {
          "internalType": "uint16",
          "name": "_srcChainId",
          "type": "uint16"
        },
        {
          "internalType": "bytes",
          "name": "_srcAddress",
          "type": "bytes"
        },
        {
          "internalType": "uint64",
          "name": "_nonce",
          "type": "uint64"
        },
        {
          "internalType": "bytes",
          "name": "_payload",
          "type": "bytes"
        }
      ],
      "name": "lzReceive",
      "outputs": [],
      "stateMutability": "nonpayable",
      "type": "function"
    },
    {
      "inputs": [],
      "name": "maxMintId",
      "outputs": [
        {
          "internalType": "uint256",
          "name": "",
          "type": "uint256"
        }
      ],
      "stateMutability": "view",
      "type": "function"
    },
    {
      "inputs": [],
      "name": "maxTokensPerMint",
      "outputs": [
        {
          "internalType": "uint256",
          "name": "",
          "type": "uint256"
        }
      ],
      "stateMutability": "view",
      "type": "function"
    },
    {
      "inputs": [],
      "name": "merkleRoot",
      "outputs": [
        {
          "internalType": "bytes32",
          "name": "",
          "type": "bytes32"
        }
      ],
      "stateMutability": "view",
      "type": "function"
    },
    {
      "inputs": [
        {
          "internalType": "uint16",
          "name": "",
          "type": "uint16"
        },
        {
          "internalType": "uint16",
          "name": "",
          "type": "uint16"
        }
      ],
      "name": "minDstGasLookup",
      "outputs": [
        {
          "internalType": "uint256",
          "name": "",
          "type": "uint256"
        }
      ],
      "stateMutability": "view",
      "type": "function"
    },
    {
      "inputs": [],
      "name": "minGasToTransferAndStore",
      "outputs": [
        {
          "internalType": "uint256",
          "name": "",
          "type": "uint256"
        }
      ],
      "stateMutability": "view",
      "type": "function"
    },
    {
      "inputs": [
        {
          "internalType": "uint256",
          "name": "_nbTokens",
          "type": "uint256"
        },
        {
          "internalType": "bytes32[]",
          "name": "_merkleProof",
          "type": "bytes32[]"
        }
      ],
      "name": "mint",
      "outputs": [],
      "stateMutability": "payable",
      "type": "function"
    },
    {
      "inputs": [],
      "name": "name",
      "outputs": [
        {
          "internalType": "string",
          "name": "",
          "type": "string"
        }
      ],
      "stateMutability": "view",
      "type": "function"
    },
    {
      "inputs": [],
      "name": "nextMintId",
      "outputs": [
        {
          "internalType": "uint256",
          "name": "",
          "type": "uint256"
        }
      ],
      "stateMutability": "view",
      "type": "function"
    },
    {
      "inputs": [
        {
          "internalType": "uint16",
          "name": "_srcChainId",
          "type": "uint16"
        },
        {
          "internalType": "bytes",
          "name": "_srcAddress",
          "type": "bytes"
        },
        {
          "internalType": "uint64",
          "name": "_nonce",
          "type": "uint64"
        },
        {
          "internalType": "bytes",
          "name": "_payload",
          "type": "bytes"
        }
      ],
      "name": "nonblockingLzReceive",
      "outputs": [],
      "stateMutability": "nonpayable",
      "type": "function"
    },
    {
      "inputs": [],
      "name": "owner",
      "outputs": [
        {
          "internalType": "address",
          "name": "",
          "type": "address"
        }
      ],
      "stateMutability": "view",
      "type": "function"
    },
    {
      "inputs": [
        {
          "internalType": "uint256",
          "name": "tokenId",
          "type": "uint256"
        }
      ],
      "name": "ownerOf",
      "outputs": [
        {
          "internalType": "address",
          "name": "",
          "type": "address"
        }
      ],
      "stateMutability": "view",
      "type": "function"
    },
    {
      "inputs": [
        {
          "internalType": "uint16",
          "name": "",
          "type": "uint16"
        }
      ],
      "name": "payloadSizeLimitLookup",
      "outputs": [
        {
          "internalType": "uint256",
          "name": "",
          "type": "uint256"
        }
      ],
      "stateMutability": "view",
      "type": "function"
    },
    {
      "inputs": [],
      "name": "precrime",
      "outputs": [
        {
          "internalType": "address",
          "name": "",
          "type": "address"
        }
      ],
      "stateMutability": "view",
      "type": "function"
    },
    {
      "inputs": [],
      "name": "price",
      "outputs": [
        {
          "internalType": "uint256",
          "name": "",
          "type": "uint256"
        }
      ],
      "stateMutability": "view",
      "type": "function"
    },
    {
      "inputs": [
        {
          "internalType": "uint256",
          "name": "_nbTokens",
          "type": "uint256"
        }
      ],
      "name": "publicMint",
      "outputs": [],
      "stateMutability": "payable",
      "type": "function"
    },
    {
      "inputs": [],
      "name": "renounceOwnership",
      "outputs": [],
      "stateMutability": "nonpayable",
      "type": "function"
    },
    {
      "inputs": [
        {
          "internalType": "uint16",
          "name": "_srcChainId",
          "type": "uint16"
        },
        {
          "internalType": "bytes",
          "name": "_srcAddress",
          "type": "bytes"
        },
        {
          "internalType": "uint64",
          "name": "_nonce",
          "type": "uint64"
        },
        {
          "internalType": "bytes",
          "name": "_payload",
          "type": "bytes"
        }
      ],
      "name": "retryMessage",
      "outputs": [],
      "stateMutability": "payable",
      "type": "function"
    },
    {
      "inputs": [
        {
          "internalType": "address",
          "name": "from",
          "type": "address"
        },
        {
          "internalType": "address",
          "name": "to",
          "type": "address"
        },
        {
          "internalType": "uint256",
          "name": "tokenId",
          "type": "uint256"
        }
      ],
      "name": "safeTransferFrom",
      "outputs": [],
      "stateMutability": "nonpayable",
      "type": "function"
    },
    {
      "inputs": [
        {
          "internalType": "address",
          "name": "from",
          "type": "address"
        },
        {
          "internalType": "address",
          "name": "to",
          "type": "address"
        },
        {
          "internalType": "uint256",
          "name": "tokenId",
          "type": "uint256"
        },
        {
          "internalType": "bytes",
          "name": "data",
          "type": "bytes"
        }
      ],
      "name": "safeTransferFrom",
      "outputs": [],
      "stateMutability": "nonpayable",
      "type": "function"
    },
    {
      "inputs": [
        {
          "internalType": "address",
          "name": "_from",
          "type": "address"
        },
        {
          "internalType": "uint16",
          "name": "_dstChainId",
          "type": "uint16"
        },
        {
          "internalType": "bytes",
          "name": "_toAddress",
          "type": "bytes"
        },
        {
          "internalType": "uint256[]",
          "name": "_tokenIds",
          "type": "uint256[]"
        },
        {
          "internalType": "address payable",
          "name": "_refundAddress",
          "type": "address"
        },
        {
          "internalType": "address",
          "name": "_zroPaymentAddress",
          "type": "address"
        },
        {
          "internalType": "bytes",
          "name": "_adapterParams",
          "type": "bytes"
        }
      ],
      "name": "sendBatchFrom",
      "outputs": [],
      "stateMutability": "payable",
      "type": "function"
    },
    {
      "inputs": [
        {
          "internalType": "address",
          "name": "_from",
          "type": "address"
        },
        {
          "internalType": "uint16",
          "name": "_dstChainId",
          "type": "uint16"
        },
        {
          "internalType": "bytes",
          "name": "_toAddress",
          "type": "bytes"
        },
        {
          "internalType": "uint256",
          "name": "_tokenId",
          "type": "uint256"
        },
        {
          "internalType": "address payable",
          "name": "_refundAddress",
          "type": "address"
        },
        {
          "internalType": "address",
          "name": "_zroPaymentAddress",
          "type": "address"
        },
        {
          "internalType": "bytes",
          "name": "_adapterParams",
          "type": "bytes"
        }
      ],
      "name": "sendFrom",
      "outputs": [],
      "stateMutability": "payable",
      "type": "function"
    },
    {
      "inputs": [
        {
          "internalType": "address",
          "name": "operator",
          "type": "address"
        },
        {
          "internalType": "bool",
          "name": "approved",
          "type": "bool"
        }
      ],
      "name": "setApprovalForAll",
      "outputs": [],
      "stateMutability": "nonpayable",
      "type": "function"
    },
    {
      "inputs": [
        {
          "internalType": "string",
          "name": "uri",
          "type": "string"
        }
      ],
      "name": "setBaseURI",
      "outputs": [],
      "stateMutability": "nonpayable",
      "type": "function"
    },
    {
      "inputs": [
        {
          "internalType": "address payable",
          "name": "_beneficiary",
          "type": "address"
        }
      ],
      "name": "setBeneficiary",
      "outputs": [],
      "stateMutability": "nonpayable",
      "type": "function"
    },
    {
      "inputs": [
        {
          "internalType": "uint16",
          "name": "_version",
          "type": "uint16"
        },
        {
          "internalType": "uint16",
          "name": "_chainId",
          "type": "uint16"
        },
        {
          "internalType": "uint256",
          "name": "_configType",
          "type": "uint256"
        },
        {
          "internalType": "bytes",
          "name": "_config",
          "type": "bytes"
        }
      ],
      "name": "setConfig",
      "outputs": [],
      "stateMutability": "nonpayable",
      "type": "function"
    },
    {
      "inputs": [
        {
          "internalType": "string",
          "name": "_contractURI",
          "type": "string"
        }
      ],
      "name": "setContractURI",
      "outputs": [],
      "stateMutability": "nonpayable",
      "type": "function"
    },
    {
      "inputs": [
        {
          "internalType": "uint16",
          "name": "_dstChainId",
          "type": "uint16"
        },
        {
          "internalType": "uint256",
          "name": "_dstChainIdToBatchLimit",
          "type": "uint256"
        }
      ],
      "name": "setDstChainIdToBatchLimit",
      "outputs": [],
      "stateMutability": "nonpayable",
      "type": "function"
    },
    {
      "inputs": [
        {
          "internalType": "uint16",
          "name": "_dstChainId",
          "type": "uint16"
        },
        {
          "internalType": "uint256",
          "name": "_dstChainIdToTransferGas",
          "type": "uint256"
        }
      ],
      "name": "setDstChainIdToTransferGas",
      "outputs": [],
      "stateMutability": "nonpayable",
      "type": "function"
    },
    {
      "inputs": [
        {
          "internalType": "string",
          "name": "_hiddenMetadataUri",
          "type": "string"
        }
      ],
      "name": "setHiddenMetadataUri",
      "outputs": [],
      "stateMutability": "nonpayable",
      "type": "function"
    },
    {
      "inputs": [
        {
          "internalType": "bytes32",
          "name": "_merkleRoot",
          "type": "bytes32"
        }
      ],
      "name": "setMerkleRoot",
      "outputs": [],
      "stateMutability": "nonpayable",
      "type": "function"
    },
    {
      "inputs": [
        {
          "internalType": "uint16",
          "name": "_dstChainId",
          "type": "uint16"
        },
        {
          "internalType": "uint16",
          "name": "_packetType",
          "type": "uint16"
        },
        {
          "internalType": "uint256",
          "name": "_minGas",
          "type": "uint256"
        }
      ],
      "name": "setMinDstGas",
      "outputs": [],
      "stateMutability": "nonpayable",
      "type": "function"
    },
    {
      "inputs": [
        {
          "internalType": "uint256",
          "name": "_minGasToTransferAndStore",
          "type": "uint256"
        }
      ],
      "name": "setMinGasToTransferAndStore",
      "outputs": [],
      "stateMutability": "nonpayable",
      "type": "function"
    },
    {
      "inputs": [
        {
          "internalType": "uint256",
          "name": "_startMintId",
          "type": "uint256"
        },
        {
          "internalType": "uint256",
          "name": "_endMintId",
          "type": "uint256"
        },
        {
          "internalType": "uint256",
          "name": "_maxTokensPerMint",
          "type": "uint256"
        }
      ],
      "name": "setMintRange",
      "outputs": [],
      "stateMutability": "nonpayable",
      "type": "function"
    },
    {
      "inputs": [
        {
          "internalType": "uint16",
          "name": "_dstChainId",
          "type": "uint16"
        },
        {
          "internalType": "uint256",
          "name": "_size",
          "type": "uint256"
        }
      ],
      "name": "setPayloadSizeLimit",
      "outputs": [],
      "stateMutability": "nonpayable",
      "type": "function"
    },
    {
      "inputs": [
        {
          "internalType": "address",
          "name": "_precrime",
          "type": "address"
        }
      ],
      "name": "setPrecrime",
      "outputs": [],
      "stateMutability": "nonpayable",
      "type": "function"
    },
    {
      "inputs": [
        {
          "internalType": "uint256",
          "name": "newPrice",
          "type": "uint256"
        }
      ],
      "name": "setPrice",
      "outputs": [],
      "stateMutability": "nonpayable",
      "type": "function"
    },
    {
      "inputs": [
        {
          "internalType": "uint16",
          "name": "_version",
          "type": "uint16"
        }
      ],
      "name": "setReceiveVersion",
      "outputs": [],
      "stateMutability": "nonpayable",
      "type": "function"
    },
    {
      "inputs": [
        {
          "internalType": "uint16",
          "name": "_version",
          "type": "uint16"
        }
      ],
      "name": "setSendVersion",
      "outputs": [],
      "stateMutability": "nonpayable",
      "type": "function"
    },
    {
      "inputs": [
        {
          "internalType": "uint256",
          "name": "_tax",
          "type": "uint256"
        }
      ],
      "name": "setTax",
      "outputs": [],
      "stateMutability": "nonpayable",
      "type": "function"
    },
    {
      "inputs": [
        {
          "internalType": "address payable",
          "name": "_taxRecipient",
          "type": "address"
        }
      ],
      "name": "setTaxRecipient",
      "outputs": [],
      "stateMutability": "nonpayable",
      "type": "function"
    },
    {
      "inputs": [
        {
          "internalType": "uint16",
          "name": "_srcChainId",
          "type": "uint16"
        },
        {
          "internalType": "bytes",
          "name": "_path",
          "type": "bytes"
        }
      ],
      "name": "setTrustedRemote",
      "outputs": [],
      "stateMutability": "nonpayable",
      "type": "function"
    },
    {
      "inputs": [
        {
          "internalType": "uint16",
          "name": "_remoteChainId",
          "type": "uint16"
        },
        {
          "internalType": "bytes",
          "name": "_remoteAddress",
          "type": "bytes"
        }
      ],
      "name": "setTrustedRemoteAddress",
      "outputs": [],
      "stateMutability": "nonpayable",
      "type": "function"
    },
    {
      "inputs": [
        {
          "internalType": "bytes32",
          "name": "",
          "type": "bytes32"
        }
      ],
      "name": "storedCredits",
      "outputs": [
        {
          "internalType": "uint16",
          "name": "srcChainId",
          "type": "uint16"
        },
        {
          "internalType": "address",
          "name": "toAddress",
          "type": "address"
        },
        {
          "internalType": "uint256",
          "name": "index",
          "type": "uint256"
        },
        {
          "internalType": "bool",
          "name": "creditsRemain",
          "type": "bool"
        }
      ],
      "stateMutability": "view",
      "type": "function"
    },
    {
      "inputs": [
        {
          "internalType": "bytes4",
          "name": "interfaceId",
          "type": "bytes4"
        }
      ],
      "name": "supportsInterface",
      "outputs": [
        {
          "internalType": "bool",
          "name": "",
          "type": "bool"
        }
      ],
      "stateMutability": "view",
      "type": "function"
    },
    {
      "inputs": [],
      "name": "symbol",
      "outputs": [
        {
          "internalType": "string",
          "name": "",
          "type": "string"
        }
      ],
      "stateMutability": "view",
      "type": "function"
    },
    {
      "inputs": [],
      "name": "tax",
      "outputs": [
        {
          "internalType": "uint256",
          "name": "",
          "type": "uint256"
        }
      ],
      "stateMutability": "view",
      "type": "function"
    },
    {
      "inputs": [
        {
          "internalType": "uint256",
          "name": "tokenId",
          "type": "uint256"
        }
      ],
      "name": "tokenURI",
      "outputs": [
        {
          "internalType": "string",
          "name": "",
          "type": "string"
        }
      ],
      "stateMutability": "view",
      "type": "function"
    },
    {
      "inputs": [
        {
          "internalType": "address",
          "name": "from",
          "type": "address"
        },
        {
          "internalType": "address",
          "name": "to",
          "type": "address"
        },
        {
          "internalType": "uint256",
          "name": "tokenId",
          "type": "uint256"
        }
      ],
      "name": "transferFrom",
      "outputs": [],
      "stateMutability": "nonpayable",
      "type": "function"
    },
    {
      "inputs": [
        {
          "internalType": "address",
          "name": "newOwner",
          "type": "address"
        }
      ],
      "name": "transferOwnership",
      "outputs": [],
      "stateMutability": "nonpayable",
      "type": "function"
    },
    {
      "inputs": [
        {
          "internalType": "uint16",
          "name": "",
          "type": "uint16"
        }
      ],
      "name": "trustedRemoteLookup",
      "outputs": [
        {
          "internalType": "bytes",
          "name": "",
          "type": "bytes"
        }
      ],
      "stateMutability": "view",
      "type": "function"
    },
    {
      "inputs": [],
      "name": "withdraw",
      "outputs": [],
      "stateMutability": "nonpayable",
      "type": "function"
    }
  ],
  "bytecode": {
    "object": "0x60a06040526103e860115560006012553480156200001c57600080fd5b5060405162005c0c38038062005c0c8339810160408190526200003f91620003fc565b89898962030d40733cc6cdda760b79bafa08df41ecfa224f810dceb660018585848680806200006e33620002ca565b6001600160a01b03166080525081620000e35760405162461bcd60e51b815260206004820152602d60248201527f4f4e46543732313a206d696e476173546f5472616e73666572416e6453746f7260448201526c065206d757374206265203e203609c1b606482015260840160405180910390fd5b50600655600a620000f5838262000592565b50600b62000104828262000592565b5050506daaeb6d7670e522a718067333cd4e3b156200024c5780156200019a57604051633e9f1edf60e11b81523060048201526001600160a01b03831660248201526daaeb6d7670e522a718067333cd4e90637d3e3dbe906044015b600060405180830381600087803b1580156200017b57600080fd5b505af115801562000190573d6000803e3d6000fd5b505050506200024c565b6001600160a01b03821615620001eb5760405163a0af290360e01b81523060048201526001600160a01b03831660248201526daaeb6d7670e522a718067333cd4e9063a0af29039060440162000160565b604051632210724360e11b81523060048201526daaeb6d7670e522a718067333cd4e90634420e48690602401600060405180830381600087803b1580156200023257600080fd5b505af115801562000247573d6000803e3d6000fd5b505050505b5050600160105550505060138890555060148690556015859055601680546001600160a01b03191633179055601a62000286858262000592565b50601b62000295848262000592565b50601191909155601780546001600160a01b0319166001600160a01b03909216919091179055506200065e9650505050505050565b600080546001600160a01b038381166001600160a01b0319831681178455604051919092169283917f8be0079c531659141344cd1fd0a4f28419497f9722a3daafe3b4186f6b6457e09190a35050565b634e487b7160e01b600052604160045260246000fd5b600082601f8301126200034257600080fd5b81516001600160401b03808211156200035f576200035f6200031a565b604051601f8301601f19908116603f011681019082821181831017156200038a576200038a6200031a565b81604052838152602092508683858801011115620003a757600080fd5b600091505b83821015620003cb5785820183015181830184015290820190620003ac565b600093810190920192909252949350505050565b80516001600160a01b0381168114620003f757600080fd5b919050565b6000806000806000806000806000806101408b8d0312156200041d57600080fd5b8a516001600160401b03808211156200043557600080fd5b620004438e838f0162000330565b9b5060208d01519150808211156200045a57600080fd5b620004688e838f0162000330565b9a506200047860408e01620003df565b995060608d0151985060808d0151975060a08d0151965060c08d0151915080821115620004a457600080fd5b620004b28e838f0162000330565b955060e08d0151915080821115620004c957600080fd5b50620004d88d828e0162000330565b9350506101008b01519150620004f26101208c01620003df565b90509295989b9194979a5092959850565b600181811c908216806200051857607f821691505b6020821081036200053957634e487b7160e01b600052602260045260246000fd5b50919050565b601f8211156200058d57600081815260208120601f850160051c81016020861015620005685750805b601f850160051c820191505b81811015620005895782815560010162000574565b5050505b505050565b81516001600160401b03811115620005ae57620005ae6200031a565b620005c681620005bf845462000503565b846200053f565b602080601f831160018114620005fe5760008415620005e55750858301515b600019600386901b1c1916600185901b17855562000589565b600085815260208120601f198616915b828110156200062f578886015182559484019460019091019084016200060e565b50858210156200064e5787850151600019600388901b60f8161c191681555b5050505050600190811b01905550565b60805161555a620006b260003960008181610c1101528181610e2a0152818161112e01528181611289015281816117910152818161239d01528181612833015281816129690152613b93015261555a6000f3fe6080604052600436106104465760003560e01c806378e3079e11610234578063af3fb21c1161012e578063d1deba1f116100b6578063eb8d72b71161007a578063eb8d72b714610d7a578063f235364114610d9a578063f2fde38b14610dba578063f5ecbdbc14610dda578063fa25f9b614610dfa57600080fd5b8063d1deba1f14610cfc578063df2a5b3b14610d0f578063e1d4c87014610d2f578063e8a3d48514610d45578063e985e9c514610d5a57600080fd5b8063baf3292d116100fd578063baf3292d14610c66578063c446183414610c86578063c87b56dd14610c9c578063cbed8b9c14610cbc578063d12473a514610cdc57600080fd5b8063af3fb21c14610bd7578063b353aaa714610bff578063b88d4fde14610c33578063ba41b0c614610c5357600080fd5b8063950c8a74116101bc578063a035b1fe11610180578063a035b1fe14610b4e578063a22cb46514610b64578063a6c3d16514610b84578063a7afd9c614610ba4578063ab3ffb9314610bc457600080fd5b8063950c8a7414610ac357806395d89b4114610ae357806399c8d55614610af85780639ea5d6b114610b0e5780639f38369a14610b2e57600080fd5b80638cfd8f5c116102035780638cfd8f5c14610a0d5780638da5cb5b14610a455780638ffa1f2a14610a6357806391b7f5ed14610a83578063938e3d7b14610aa357600080fd5b806378e3079e146109995780637cb64759146109b957806387c348bf146109d9578063899d7b38146109f857600080fd5b80633ccfd60b1161034557806351905636116102cd57806366ad5c8a1161029157806366ad5c8a1461090e5780636aa99da31461092e57806370a0823114610944578063715018a6146109645780637533d7881461097957600080fd5b8063519056361461085257806355f804b3146108655780635b8c41e614610885578063600e97f6146108d45780636352211e146108ee57600080fd5b806342842e0e1161031457806342842e0e146107af57806342d65a8d146107cf57806348288190146107ef5780634ac3f4ff146108055780634fdd43cb1461083257600080fd5b80633ccfd60b1461072b5780633d8b38f6146107405780633f1f4fa41461076057806341f434341461078d57600080fd5b80631291e33e116103d35780632a205e3d116103975780632a205e3d146106985780632db11544146106cd5780632e5bb6ff146106e05780632eb4a7ab146107005780633b2c3fb61461071657600080fd5b80631291e33e1461059c57806317465471146105b15780631c31f710146105d557806322a3ecf9146105f557806323b872dd1461067857600080fd5b8063081812fc1161041a578063081812fc146104e4578063095ea7b31461051c5780630b4cad4c1461053c5780630df374831461055c57806310ddb1371461057c57600080fd5b80621d35671461044b57806301ffc9a71461046d57806306fdde03146104a257806307e0db17146104c4575b600080fd5b34801561045757600080fd5b5061046b61046636600461414f565b610e27565b005b34801561047957600080fd5b5061048d6104883660046141f8565b611058565b60405190151581526020015b60405180910390f35b3480156104ae57600080fd5b506104b761107b565b6040516104999190614265565b3480156104d057600080fd5b5061046b6104df366004614278565b61110d565b3480156104f057600080fd5b506105046104ff366004614293565b611196565b6040516001600160a01b039091168152602001610499565b34801561052857600080fd5b5061046b6105373660046142cc565b6111bd565b34801561054857600080fd5b5061046b610557366004614293565b6111d6565b34801561056857600080fd5b5061046b6105773660046142f8565b611249565b34801561058857600080fd5b5061046b610597366004614278565b611268565b3480156105a857600080fd5b5061046b6112c0565b3480156105bd57600080fd5b506105c760155481565b604051908152602001610499565b3480156105e157600080fd5b5061046b6105f0366004614314565b6112dc565b34801561060157600080fd5b50610649610610366004614293565b60096020526000908152604090208054600182015460029092015461ffff821692620100009092046001600160a01b0316919060ff1684565b6040805161ffff90951685526001600160a01b0390931660208501529183015215156060820152608001610499565b34801561068457600080fd5b5061046b610693366004614331565b611306565b3480156106a457600080fd5b506106b86106b336600461444b565b611331565b60408051928352602083019190915201610499565b61046b6106db366004614293565b611357565b3480156106ec57600080fd5b5061046b6106fb366004614293565b6114cf565b34801561070c57600080fd5b506105c760185481565b34801561072257600080fd5b5061046b6114dc565b34801561073757600080fd5b5061046b611503565b34801561074c57600080fd5b5061048d61075b3660046144dd565b611681565b34801561076c57600080fd5b506105c761077b366004614278565b60036020526000908152604090205481565b34801561079957600080fd5b506105046daaeb6d7670e522a718067333cd4e81565b3480156107bb57600080fd5b5061046b6107ca366004614331565b61174d565b3480156107db57600080fd5b5061046b6107ea3660046144dd565b611772565b3480156107fb57600080fd5b506105c760065481565b34801561081157600080fd5b506105c7610820366004614278565b60076020526000908152604090205481565b34801561083e57600080fd5b5061046b61084d36600461452f565b6117f8565b61046b610860366004614577565b61180c565b34801561087157600080fd5b5061046b61088036600461452f565b611823565b34801561089157600080fd5b506105c76108a0366004614630565b6005602090815260009384526040808520845180860184018051928152908401958401959095209452929052825290205481565b3480156108e057600080fd5b50601c5461048d9060ff1681565b3480156108fa57600080fd5b50610504610909366004614293565b611837565b34801561091a57600080fd5b5061046b61092936600461414f565b611897565b34801561093a57600080fd5b506105c760135481565b34801561095057600080fd5b506105c761095f366004614314565b611973565b34801561097057600080fd5b5061046b6119f9565b34801561098557600080fd5b506104b7610994366004614278565b611a0d565b3480156109a557600080fd5b5061046b6109b4366004614314565b611aa7565b3480156109c557600080fd5b5061046b6109d4366004614293565b611ad1565b3480156109e557600080fd5b50601c5461048d90610100900460ff1681565b348015610a0457600080fd5b5061046b611ade565b348015610a1957600080fd5b506105c7610a2836600461468d565b600260209081526000928352604080842090915290825290205481565b348015610a5157600080fd5b506000546001600160a01b0316610504565b348015610a6f57600080fd5b5061046b610a7e3660046146c0565b611b03565b348015610a8f57600080fd5b5061046b610a9e366004614293565b611d4d565b348015610aaf57600080fd5b5061046b610abe36600461452f565b611d5a565b348015610acf57600080fd5b50600454610504906001600160a01b031681565b348015610aef57600080fd5b506104b7611d6e565b348015610b0457600080fd5b506105c760115481565b348015610b1a57600080fd5b5061046b610b293660046142f8565b611d7d565b348015610b3a57600080fd5b506104b7610b49366004614278565b611e00565b348015610b5a57600080fd5b506105c760125481565b348015610b7057600080fd5b5061046b610b7f3660046146f4565b611f16565b348015610b9057600080fd5b5061046b610b9f3660046144dd565b611f2a565b348015610bb057600080fd5b5061046b610bbf36600461472d565b611fb3565b61046b610bd23660046147e2565b611fc9565b348015610be357600080fd5b50610bec600181565b60405161ffff9091168152602001610499565b348015610c0b57600080fd5b506105047f000000000000000000000000000000000000000000000000000000000000000081565b348015610c3f57600080fd5b5061046b610c4e366004614897565b611fd8565b61046b610c61366004614902565b611ffe565b348015610c7257600080fd5b5061046b610c81366004614314565b6121d9565b348015610c9257600080fd5b506105c761271081565b348015610ca857600080fd5b506104b7610cb7366004614293565b612235565b348015610cc857600080fd5b5061046b610cd7366004614980565b61237e565b348015610ce857600080fd5b5061046b610cf73660046142f8565b612413565b61046b610d0a36600461414f565b612497565b348015610d1b57600080fd5b5061046b610d2a3660046149ee565b6126ad565b348015610d3b57600080fd5b506105c760145481565b348015610d5157600080fd5b506104b761275f565b348015610d6657600080fd5b5061048d610d75366004614a2a565b61276c565b348015610d8657600080fd5b5061046b610d953660046144dd565b61279a565b348015610da657600080fd5b506106b8610db5366004614a58565b6127f4565b348015610dc657600080fd5b5061046b610dd5366004614314565b6128bf565b348015610de657600080fd5b506104b7610df5366004614ad5565b612938565b348015610e0657600080fd5b506105c7610e15366004614278565b60086020526000908152604090205481565b337f00000000000000000000000000000000000000000000000000000000000000006001600160a01b031614610ea45760405162461bcd60e51b815260206004820152601e60248201527f4c7a4170703a20696e76616c696420656e64706f696e742063616c6c6572000060448201526064015b60405180910390fd5b61ffff861660009081526001602052604081208054610ec290614b22565b80601f0160208091040260200160405190810160405280929190818152602001828054610eee90614b22565b8015610f3b5780601f10610f1057610100808354040283529160200191610f3b565b820191906000526020600020905b815481529060010190602001808311610f1e57829003601f168201915b50505050509050805186869050148015610f56575060008151115b8015610f7e575080516020820120604051610f749088908890614b5c565b6040518091039020145b610fd95760405162461bcd60e51b815260206004820152602660248201527f4c7a4170703a20696e76616c696420736f757263652073656e64696e6720636f6044820152651b9d1c9858dd60d21b6064820152608401610e9b565b61104f8787878080601f01602080910402602001604051908101604052809392919081815260200183838082843760009201919091525050604080516020601f8a018190048102820181019092528881528a9350915088908890819084018382808284376000920191909152506129eb92505050565b50505050505050565b60006001600160e01b031982161580611075575061107582612a64565b92915050565b6060600a805461108a90614b22565b80601f01602080910402602001604051908101604052809291908181526020018280546110b690614b22565b80156111035780601f106110d857610100808354040283529160200191611103565b820191906000526020600020905b8154815290600101906020018083116110e657829003601f168201915b5050505050905090565b611115612aa4565b6040516307e0db1760e01b815261ffff821660048201527f00000000000000000000000000000000000000000000000000000000000000006001600160a01b0316906307e0db17906024015b600060405180830381600087803b15801561117b57600080fd5b505af115801561118f573d6000803e3d6000fd5b5050505050565b60006111a182612afe565b506000908152600e60205260409020546001600160a01b031690565b816111c781612b4e565b6111d18383612c07565b505050565b6111de612aa4565b600081116112445760405162461bcd60e51b815260206004820152602d60248201527f4f4e46543732313a206d696e476173546f5472616e73666572416e6453746f7260448201526c065206d757374206265203e203609c1b6064820152608401610e9b565b600655565b611251612aa4565b61ffff909116600090815260036020526040902055565b611270612aa4565b6040516310ddb13760e01b815261ffff821660048201527f00000000000000000000000000000000000000000000000000000000000000006001600160a01b0316906310ddb13790602401611161565b6112c8612aa4565b601c805460ff19811660ff90911615179055565b6112e4612aa4565b601680546001600160a01b0319166001600160a01b0392909216919091179055565b826001600160a01b03811633146113205761132033612b4e565b61132b848484612d17565b50505050565b600080611349878761134288612d49565b87876127f4565b915091509550959350505050565b601c5460ff1615156001146113c85760405162461bcd60e51b815260206004820152603160248201527f416476616e6365644f4e46543732313a205075626c69632073616c6520686173604482015270206e6f742073746172746564207965742160781b6064820152608401610e9b565b601c5460ff6101009091041615156001146113f55760405162461bcd60e51b8152600401610e9b90614b6c565b806000036114155760405162461bcd60e51b8152600401610e9b90614bb6565b6015548111156114375760405162461bcd60e51b8152600401610e9b90614bfc565b601454816013546114489190614c83565b11156114665760405162461bcd60e51b8152600401610e9b90614c96565b34601254826114759190614cdd565b11156114935760405162461bcd60e51b8152600401610e9b90614cf4565b60135460005b828110156114c8576114b6336114ae84614d3e565b935083612d94565b806114c081614d3e565b915050611499565b5060135550565b6114d7612aa4565b601155565b6114e4612aa4565b601c805462ff0000198116620100009182900460ff1615909102179055565b6016546001600160a01b031633148061152657506000546001600160a01b031633145b6115895760405162461bcd60e51b815260206004820152602e60248201527f416476616e6365644f4e46543732313a2063616c6c6572206973206e6f74207460448201526d68652062656e656669636961727960901b6064820152608401610e9b565b6016546001600160a01b03166115ef5760405162461bcd60e51b815260206004820152602560248201527f416476616e6365644f4e46543732313a2042656e6566696369617279206e6f74604482015264207365742160d81b6064820152608401610e9b565b6011544790600090612710906116059084614cdd565b61160f9190614d57565b6016549091506001600160a01b03166108fc61162b8385614d79565b6040518115909202916000818181858888f1935050505061164b57600080fd5b6017546040516001600160a01b039091169082156108fc029083906000818181858888f1935050505061167d57600080fd5b5050565b61ffff8316600090815260016020526040812080548291906116a290614b22565b80601f01602080910402602001604051908101604052809291908181526020018280546116ce90614b22565b801561171b5780601f106116f05761010080835404028352916020019161171b565b820191906000526020600020905b8154815290600101906020018083116116fe57829003601f168201915b505050505090508383604051611732929190614b5c565b60405180910390208180519060200120149150509392505050565b826001600160a01b03811633146117675761176733612b4e565b61132b848484612f01565b61177a612aa4565b6040516342d65a8d60e01b81526001600160a01b037f000000000000000000000000000000000000000000000000000000000000000016906342d65a8d906117ca90869086908690600401614db5565b600060405180830381600087803b1580156117e457600080fd5b505af115801561104f573d6000803e3d6000fd5b611800612aa4565b601b61167d8282614e19565b61104f87878761181b88612d49565b878787612f1c565b61182b612aa4565b601a61167d8282614e19565b6000818152600c60205260408120546001600160a01b0316806110755760405162461bcd60e51b8152602060048201526018602482015277115490cdcc8c4e881a5b9d985b1a59081d1bdad95b88125160421b6044820152606401610e9b565b3330146118f55760405162461bcd60e51b815260206004820152602660248201527f4e6f6e626c6f636b696e674c7a4170703a2063616c6c6572206d7573742062656044820152650204c7a4170760d41b6064820152608401610e9b565b61196b8686868080601f01602080910402602001604051908101604052809392919081815260200183838082843760009201919091525050604080516020601f89018190048102820181019092528781528993509150879087908190840183828082843760009201919091525061310392505050565b505050505050565b60006001600160a01b0382166119dd5760405162461bcd60e51b815260206004820152602960248201527f4552433732313a2061646472657373207a65726f206973206e6f7420612076616044820152683634b21037bbb732b960b91b6064820152608401610e9b565b506001600160a01b03166000908152600d602052604090205490565b611a01612aa4565b611a0b600061325a565b565b60016020526000908152604090208054611a2690614b22565b80601f0160208091040260200160405190810160405280929190818152602001828054611a5290614b22565b8015611a9f5780601f10611a7457610100808354040283529160200191611a9f565b820191906000526020600020905b815481529060010190602001808311611a8257829003601f168201915b505050505081565b611aaf612aa4565b601780546001600160a01b0319166001600160a01b0392909216919091179055565b611ad9612aa4565b601855565b611ae6612aa4565b601c805461ff001981166101009182900460ff1615909102179055565b80516020808301919091206000818152600990925260409091206002015460ff16611b705760405162461bcd60e51b815260206004820152601a60248201527f4f4e46543732313a206e6f20637265646974732073746f7265640000000000006044820152606401610e9b565b600082806020019051810190611b869190614f1d565b60008481526009602052604081208054600190910154929450909250611bc29161ffff8216916201000090046001600160a01b031690856132aa565b6000848152600960205260409020600101549091508111611c405760405162461bcd60e51b815260206004820152603260248201527f4f4e46543732313a206e6f7420656e6f7567682067617320746f2070726f636560448201527139b99031b932b234ba103a3930b739b332b960711b6064820152608401610e9b565b81518103611cb75760008381526009602052604080822080546001600160b01b031916815560018101929092556002909101805460ff19169055517fd7be02b8dd0d27bd0517a9cb4d7469ce27df4313821ae5ec1ff69acc594ba23390611caa9085815260200190565b60405180910390a161132b565b60408051608081018252600085815260096020818152848320805461ffff8082168752620100008083046001600160a01b03908116868a019081529989019a8b52600160608a018181529d9098529590945295519651969095166001600160b01b031990951694909417949091160292909217815591519082015591516002909201805460ff1916921515929092179091555050565b611d55612aa4565b601255565b611d62612aa4565b601961167d8282614e19565b6060600b805461108a90614b22565b611d85612aa4565b60008111611de95760405162461bcd60e51b815260206004820152602b60248201527f4f4e46543732313a20647374436861696e4964546f42617463684c696d69742060448201526a06d757374206265203e20360ac1b6064820152608401610e9b565b61ffff909116600090815260076020526040902055565b61ffff8116600090815260016020526040812080546060929190611e2390614b22565b80601f0160208091040260200160405190810160405280929190818152602001828054611e4f90614b22565b8015611e9c5780601f10611e7157610100808354040283529160200191611e9c565b820191906000526020600020905b815481529060010190602001808311611e7f57829003601f168201915b505050505090508051600003611ef45760405162461bcd60e51b815260206004820152601d60248201527f4c7a4170703a206e6f20747275737465642070617468207265636f72640000006044820152606401610e9b565b611f0f600060148351611f079190614d79565b8391906132f6565b9392505050565b81611f2081612b4e565b6111d18383613403565b611f32612aa4565b818130604051602001611f4793929190614fd7565b60408051601f1981840301815291815261ffff8516600090815260016020522090611f729082614e19565b507f8c0400cfe2d1199b1a725c78960bcc2a344d869b80590d0f2bd005db15a572ce838383604051611fa693929190614db5565b60405180910390a1505050565b611fbb612aa4565b601392909255601455601555565b61104f87878787878787612f1c565b836001600160a01b0381163314611ff257611ff233612b4e565b61118f8585858561340e565b601c5460ff61010090910416151560011461202b5760405162461bcd60e51b8152600401610e9b90614b6c565b8260000361204b5760405162461bcd60e51b8152600401610e9b90614bb6565b60155483111561206d5760405162461bcd60e51b8152600401610e9b90614bfc565b6014548360135461207e9190614c83565b111561209c5760405162461bcd60e51b8152600401610e9b90614c96565b34601254846120ab9190614cdd565b11156120c95760405162461bcd60e51b8152600401610e9b90614cf4565b6000612140838380806020026020016040519081016040528093929190818152602001838360200280828437600092019190915250506018546040516bffffffffffffffffffffffff193360601b166020820152909250603401905060405160208183030381529060405280519060200120613440565b90506001811515146121a25760405162461bcd60e51b815260206004820152602560248201527f416476616e6365644f4e46543732313a20496e76616c6964204d65726b6c6520604482015264283937b7b360d91b6064820152608401610e9b565b60135460005b858110156121cf576121bd336114ae84614d3e565b806121c781614d3e565b9150506121a8565b5060135550505050565b6121e1612aa4565b600480546001600160a01b0319166001600160a01b0383169081179091556040519081527f5db758e995a17ec1ad84bdef7e8c3293a0bd6179bcce400dff5d4c3d87db726b9060200160405180910390a150565b606061224082613456565b6122a45760405162461bcd60e51b815260206004820152602f60248201527f4552433732314d657461646174613a2055524920717565727920666f72206e6f60448201526e3732bc34b9ba32b73a103a37b5b2b760891b6064820152608401610e9b565b601c5462010000900460ff1661234657601b80546122c190614b22565b80601f01602080910402602001604051908101604052809291908181526020018280546122ed90614b22565b801561233a5780601f1061230f5761010080835404028352916020019161233a565b820191906000526020600020905b81548152906001019060200180831161231d57829003601f168201915b50505050509050919050565b61234e613473565b61235783613482565b604051602001612368929190614ffd565b6040516020818303038152906040529050919050565b612386612aa4565b6040516332fb62e760e21b81526001600160a01b037f0000000000000000000000000000000000000000000000000000000000000000169063cbed8b9c906123da908890889088908890889060040161502c565b600060405180830381600087803b1580156123f457600080fd5b505af1158015612408573d6000803e3d6000fd5b505050505050505050565b61241b612aa4565b600081116124805760405162461bcd60e51b815260206004820152602c60248201527f4f4e46543732313a20647374436861696e4964546f5472616e7366657247617360448201526b0206d757374206265203e20360a41b6064820152608401610e9b565b61ffff909116600090815260086020526040902055565b61ffff861660009081526005602052604080822090516124ba9088908890614b5c565b90815260408051602092819003830190206001600160401b0387166000908152925290205490508061253a5760405162461bcd60e51b815260206004820152602360248201527f4e6f6e626c6f636b696e674c7a4170703a206e6f2073746f726564206d65737360448201526261676560e81b6064820152608401610e9b565b80838360405161254b929190614b5c565b6040518091039020146125aa5760405162461bcd60e51b815260206004820152602160248201527f4e6f6e626c6f636b696e674c7a4170703a20696e76616c6964207061796c6f616044820152601960fa1b6064820152608401610e9b565b61ffff871660009081526005602052604080822090516125cd9089908990614b5c565b90815260408051602092819003830181206001600160401b038916600090815290845282902093909355601f88018290048202830182019052868252612665918991899089908190840183828082843760009201919091525050604080516020601f8a018190048102820181019092528881528a93509150889088908190840183828082843760009201919091525061310392505050565b7fc264d91f3adc5588250e1551f547752ca0cfa8f6b530d243b9f9f4cab10ea8e5878787878560405161269c959493929190615065565b60405180910390a150505050505050565b6126b5612aa4565b600081116126fd5760405162461bcd60e51b81526020600482015260156024820152744c7a4170703a20696e76616c6964206d696e47617360581b6044820152606401610e9b565b61ffff83811660008181526002602090815260408083209487168084529482529182902085905581519283528201929092529081018290527f9d5c7c0b934da8fefa9c7760c98383778a12dfbfc0c3b3106518f43fb9508ac090606001611fa6565b60198054611a2690614b22565b6001600160a01b039182166000908152600f6020908152604080832093909416825291909152205460ff1690565b6127a2612aa4565b61ffff831660009081526001602052604090206127c08284836150a0565b507ffa41487ad5d6728f0b19276fa1eddc16558578f5109fc39d2dc33c3230470dab838383604051611fa693929190614db5565b6000806000868660405160200161280c92919061519a565b60408051601f198184030181529082905263040a7bb160e41b825291506001600160a01b037f000000000000000000000000000000000000000000000000000000000000000016906340a7bb1090612870908b90309086908b908b906004016151c8565b6040805180830381865afa15801561288c573d6000803e3d6000fd5b505050506040513d601f19601f820116820180604052508101906128b0919061521c565b92509250509550959350505050565b6128c7612aa4565b6001600160a01b03811661292c5760405162461bcd60e51b815260206004820152602660248201527f4f776e61626c653a206e6577206f776e657220697320746865207a65726f206160448201526564647265737360d01b6064820152608401610e9b565b6129358161325a565b50565b604051633d7b2f6f60e21b815261ffff808616600483015284166024820152306044820152606481018290526060907f00000000000000000000000000000000000000000000000000000000000000006001600160a01b03169063f5ecbdbc90608401600060405180830381865afa1580156129b8573d6000803e3d6000fd5b505050506040513d6000823e601f3d908101601f191682016040526129e09190810190615240565b90505b949350505050565b600080612a4e5a60966366ad5c8a60e01b89898989604051602401612a139493929190615274565b60408051601f198184030181529190526020810180516001600160e01b03166001600160e01b03199093169290921790915230929190613514565b915091508161196b5761196b868686868561359e565b60006001600160e01b031982166380ac58cd60e01b1480612a9557506001600160e01b03198216635b5e139f60e01b145b8061107557506110758261363b565b6000546001600160a01b03163314611a0b5760405162461bcd60e51b815260206004820181905260248201527f4f776e61626c653a2063616c6c6572206973206e6f7420746865206f776e65726044820152606401610e9b565b612b0781613456565b6129355760405162461bcd60e51b8152602060048201526018602482015277115490cdcc8c4e881a5b9d985b1a59081d1bdad95b88125160421b6044820152606401610e9b565b6daaeb6d7670e522a718067333cd4e3b1561293557604051633185c44d60e21b81523060048201526001600160a01b03821660248201526daaeb6d7670e522a718067333cd4e9063c617113490604401602060405180830381865afa158015612bbb573d6000803e3d6000fd5b505050506040513d601f19601f82011682018060405250810190612bdf91906152b2565b61293557604051633b79c77360e21b81526001600160a01b0382166004820152602401610e9b565b6000612c1282611837565b9050806001600160a01b0316836001600160a01b031603612c7f5760405162461bcd60e51b815260206004820152602160248201527f4552433732313a20617070726f76616c20746f2063757272656e74206f776e656044820152603960f91b6064820152608401610e9b565b336001600160a01b0382161480612c9b5750612c9b813361276c565b612d0d5760405162461bcd60e51b815260206004820152603d60248201527f4552433732313a20617070726f76652063616c6c6572206973206e6f7420746f60448201527f6b656e206f776e6572206f7220617070726f76656420666f7220616c6c0000006064820152608401610e9b565b6111d18383613670565b612d22335b826136de565b612d3e5760405162461bcd60e51b8152600401610e9b906152cf565b6111d183838361373c565b60408051600180825281830190925260609160009190602080830190803683370190505090508281600081518110612d8357612d8361531c565b602090810291909101015292915050565b6001600160a01b038216612dea5760405162461bcd60e51b815260206004820181905260248201527f4552433732313a206d696e7420746f20746865207a65726f20616464726573736044820152606401610e9b565b612df381613456565b15612e405760405162461bcd60e51b815260206004820152601c60248201527f4552433732313a20746f6b656e20616c7265616479206d696e746564000000006044820152606401610e9b565b612e4981613456565b15612e965760405162461bcd60e51b815260206004820152601c60248201527f4552433732313a20746f6b656e20616c7265616479206d696e746564000000006044820152606401610e9b565b6001600160a01b0382166000818152600d6020908152604080832080546001019055848352600c90915280822080546001600160a01b0319168417905551839291907fddf252ad1be2c89b69c2b068fc378daa952ba7f163c4a11628f55a4df523b3ef908290a45050565b6111d183838360405180602001604052806000815250611fd8565b6000845111612f6d5760405162461bcd60e51b815260206004820152601a60248201527f4c7a4170703a20746f6b656e4964735b5d20697320656d7074790000000000006044820152606401610e9b565b835160011480612f91575061ffff8616600090815260076020526040902054845111155b612ff15760405162461bcd60e51b815260206004820152602b60248201527f4f4e46543732313a2062617463682073697a652065786365656473206473742060448201526a18985d18da081b1a5b5a5d60aa1b6064820152608401610e9b565b60005b8451811015613034576130228888888885815181106130155761301561531c565b60200260200101516138a0565b8061302c81614d3e565b915050612ff4565b506000858560405160200161304a92919061519a565b604051602081830303815290604052905061308f876001848851600860008d61ffff1661ffff1681526020019081526020016000205461308a9190614cdd565b61398b565b61309d878286868634613a6a565b856040516130ab9190615332565b6040518091039020886001600160a01b03168861ffff167fe1b87c47fdeb4f9cbadbca9df3af7aba453bb6e501075d0440d88125b711522a886040516130f1919061534e565b60405180910390a45050505050505050565b6000808280602001905181019061311a9190614f1d565b601482015191935091506000613132888383866132aa565b905082518110156132065784516020808701919091206040805160808101825261ffff808d1682526001600160a01b0380881683870190815283850188815260016060860181815260008981526009909a529887902095518654935190941662010000026001600160b01b03199093169390941692909217178355519082015592516002909301805493151560ff199094169390931790925590517f10e0b70d256bccc84b7027506978bd8b68984a870788b93b479def144c839ad7906131fc9083908990615361565b60405180910390a1505b816001600160a01b03168760405161321e9190615332565b60405180910390208961ffff167f5b821db8a46f8ecbe1941ba2f51cfeea9643268b56631f70d45e2a745d990265866040516130f1919061534e565b600080546001600160a01b038381166001600160a01b0319831681178455604051919092169283917f8be0079c531659141344cd1fd0a4f28419497f9722a3daafe3b4186f6b6457e09190a35050565b6000825b82518110156129e0576006545a106129e0576132e486868584815181106132d7576132d761531c565b6020026020010151613c0f565b806132ee81614d3e565b9150506132ae565b60608161330481601f614c83565b10156133435760405162461bcd60e51b815260206004820152600e60248201526d736c6963655f6f766572666c6f7760901b6044820152606401610e9b565b61334d8284614c83565b845110156133915760405162461bcd60e51b8152602060048201526011602482015270736c6963655f6f75744f66426f756e647360781b6044820152606401610e9b565b6060821580156133b057604051915060008252602082016040526133fa565b6040519150601f8416801560200281840101858101878315602002848b0101015b818310156133e95780518352602092830192016133d1565b5050858452601f01601f1916604052505b50949350505050565b61167d338383613c6f565b61341833836136de565b6134345760405162461bcd60e51b8152600401610e9b906152cf565b61132b84848484613d3d565b60008261344d8584613d70565b14949350505050565b6000908152600c60205260409020546001600160a01b0316151590565b6060601a805461108a90614b22565b6060600061348f83613dbd565b60010190506000816001600160401b038111156134ae576134ae614372565b6040519080825280601f01601f1916602001820160405280156134d8576020820181803683370190505b5090508181016020015b600019016f181899199a1a9b1b9c1cb0b131b232b360811b600a86061a8153600a85049450846134e257509392505050565b6000606060008060008661ffff166001600160401b0381111561353957613539614372565b6040519080825280601f01601f191660200182016040528015613563576020820181803683370190505b50905060008087516020890160008d8df191503d925086831115613585578692505b828152826000602083013e909890975095505050505050565b8180519060200120600560008761ffff1661ffff168152602001908152602001600020856040516135cf9190615332565b9081526040805191829003602090810183206001600160401b0388166000908152915220919091557fe183f33de2837795525b4792ca4cd60535bd77c53b7e7030060bfcf5734d6b0c9061362c908790879087908790879061537a565b60405180910390a15050505050565b60006001600160e01b031982166322bac5d960e01b148061107557506301ffc9a760e01b6001600160e01b0319831614611075565b6000818152600e6020526040902080546001600160a01b0319166001600160a01b03841690811790915581906136a582611837565b6001600160a01b03167f8c5be1e5ebec7d5bd14f71427d1e84f3dd0314c0f7b2291e5b200ac8c7c3b92560405160405180910390a45050565b6000806136ea83611837565b9050806001600160a01b0316846001600160a01b031614806137115750613711818561276c565b806129e35750836001600160a01b031661372a84611196565b6001600160a01b031614949350505050565b826001600160a01b031661374f82611837565b6001600160a01b0316146137755760405162461bcd60e51b8152600401610e9b906153cc565b6001600160a01b0382166137d75760405162461bcd60e51b8152602060048201526024808201527f4552433732313a207472616e7366657220746f20746865207a65726f206164646044820152637265737360e01b6064820152608401610e9b565b826001600160a01b03166137ea82611837565b6001600160a01b0316146138105760405162461bcd60e51b8152600401610e9b906153cc565b6000818152600e6020908152604080832080546001600160a01b03199081169091556001600160a01b03878116808652600d8552838620805460001901905590871680865283862080546001019055868652600c90945282852080549092168417909155905184937fddf252ad1be2c89b69c2b068fc378daa952ba7f163c4a11628f55a4df523b3ef91a4505050565b6138a933612d1c565b61390c5760405162461bcd60e51b815260206004820152602e60248201527f4f4e46543732313a2073656e642063616c6c6572206973206e6f74206f776e6560448201526d1c881b9bdc88185c1c1c9bdd995960921b6064820152608401610e9b565b836001600160a01b031661391f82611837565b6001600160a01b0316146139805760405162461bcd60e51b815260206004820152602260248201527f4f4e46543732313a2073656e642066726f6d20696e636f7272656374206f776e60448201526132b960f11b6064820152608401610e9b565b61132b84308361373c565b600061399683613e95565b61ffff8087166000908152600260209081526040808320938916835292905290812054919250906139c8908490614c83565b905060008111613a1a5760405162461bcd60e51b815260206004820152601a60248201527f4c7a4170703a206d696e4761734c696d6974206e6f74207365740000000000006044820152606401610e9b565b8082101561196b5760405162461bcd60e51b815260206004820152601b60248201527f4c7a4170703a20676173206c696d697420697320746f6f206c6f7700000000006044820152606401610e9b565b61ffff861660009081526001602052604081208054613a8890614b22565b80601f0160208091040260200160405190810160405280929190818152602001828054613ab490614b22565b8015613b015780601f10613ad657610100808354040283529160200191613b01565b820191906000526020600020905b815481529060010190602001808311613ae457829003601f168201915b505050505090508051600003613b725760405162461bcd60e51b815260206004820152603060248201527f4c7a4170703a2064657374696e6174696f6e20636861696e206973206e6f742060448201526f61207472757374656420736f7572636560801b6064820152608401610e9b565b613b7d878751613ef1565b60405162c5803160e81b81526001600160a01b037f0000000000000000000000000000000000000000000000000000000000000000169063c5803100908490613bd4908b9086908c908c908c908c90600401615411565b6000604051808303818588803b158015613bed57600080fd5b505af1158015613c01573d6000803e3d6000fd5b505050505050505050505050565b613c1881613456565b1580613c445750613c2881613456565b8015613c44575030613c3982611837565b6001600160a01b0316145b613c4d57600080fd5b613c5681613456565b613c64576111d18282613f62565b6111d130838361373c565b816001600160a01b0316836001600160a01b031603613cd05760405162461bcd60e51b815260206004820152601960248201527f4552433732313a20617070726f766520746f2063616c6c6572000000000000006044820152606401610e9b565b6001600160a01b038381166000818152600f6020908152604080832094871680845294825291829020805460ff191686151590811790915591519182527f17307eab39ab6107e8899845ad3d59bd9653f200f220920489ca2b5937696c31910160405180910390a3505050565b613d4884848461373c565b613d5484848484613f7c565b61132b5760405162461bcd60e51b8152600401610e9b90615478565b600081815b8451811015613db557613da182868381518110613d9457613d9461531c565b602002602001015161407a565b915080613dad81614d3e565b915050613d75565b509392505050565b60008072184f03e93ff9f4daa797ed6e38ed64bf6a1f0160401b8310613dfc5772184f03e93ff9f4daa797ed6e38ed64bf6a1f0160401b830492506040015b6d04ee2d6d415b85acef81000000008310613e28576d04ee2d6d415b85acef8100000000830492506020015b662386f26fc100008310613e4657662386f26fc10000830492506010015b6305f5e1008310613e5e576305f5e100830492506008015b6127108310613e7257612710830492506004015b60648310613e84576064830492506002015b600a83106110755760010192915050565b6000602282511015613ee95760405162461bcd60e51b815260206004820152601c60248201527f4c7a4170703a20696e76616c69642061646170746572506172616d73000000006044820152606401610e9b565b506022015190565b61ffff821660009081526003602052604081205490819003613f1257506127105b808211156111d15760405162461bcd60e51b815260206004820181905260248201527f4c7a4170703a207061796c6f61642073697a6520697320746f6f206c617267656044820152606401610e9b565b61167d8282604051806020016040528060008152506140a6565b60006001600160a01b0384163b1561407257604051630a85bd0160e11b81526001600160a01b0385169063150b7a0290613fc09033908990889088906004016154ca565b6020604051808303816000875af1925050508015613ffb575060408051601f3d908101601f19168201909252613ff891810190615507565b60015b614058573d808015614029576040519150601f19603f3d011682016040523d82523d6000602084013e61402e565b606091505b5080516000036140505760405162461bcd60e51b8152600401610e9b90615478565b805181602001fd5b6001600160e01b031916630a85bd0160e11b1490506129e3565b5060016129e3565b6000818310614096576000828152602084905260409020611f0f565b5060009182526020526040902090565b6140b08383612d94565b6140bd6000848484613f7c565b6111d15760405162461bcd60e51b8152600401610e9b90615478565b803561ffff811681146140eb57600080fd5b919050565b60008083601f84011261410257600080fd5b5081356001600160401b0381111561411957600080fd5b60208301915083602082850101111561413157600080fd5b9250929050565b80356001600160401b03811681146140eb57600080fd5b6000806000806000806080878903121561416857600080fd5b614171876140d9565b955060208701356001600160401b038082111561418d57600080fd5b6141998a838b016140f0565b90975095508591506141ad60408a01614138565b945060608901359150808211156141c357600080fd5b506141d089828a016140f0565b979a9699509497509295939492505050565b6001600160e01b03198116811461293557600080fd5b60006020828403121561420a57600080fd5b8135611f0f816141e2565b60005b83811015614230578181015183820152602001614218565b50506000910152565b60008151808452614251816020860160208601614215565b601f01601f19169290920160200192915050565b602081526000611f0f6020830184614239565b60006020828403121561428a57600080fd5b611f0f826140d9565b6000602082840312156142a557600080fd5b5035919050565b6001600160a01b038116811461293557600080fd5b80356140eb816142ac565b600080604083850312156142df57600080fd5b82356142ea816142ac565b946020939093013593505050565b6000806040838503121561430b57600080fd5b6142ea836140d9565b60006020828403121561432657600080fd5b8135611f0f816142ac565b60008060006060848603121561434657600080fd5b8335614351816142ac565b92506020840135614361816142ac565b929592945050506040919091013590565b634e487b7160e01b600052604160045260246000fd5b604051601f8201601f191681016001600160401b03811182821017156143b0576143b0614372565b604052919050565b60006001600160401b038211156143d1576143d1614372565b50601f01601f191660200190565b60006143f26143ed846143b8565b614388565b905082815283838301111561440657600080fd5b828260208301376000602084830101529392505050565b600082601f83011261442e57600080fd5b611f0f838335602085016143df565b801515811461293557600080fd5b600080600080600060a0868803121561446357600080fd5b61446c866140d9565b945060208601356001600160401b038082111561448857600080fd5b61449489838a0161441d565b955060408801359450606088013591506144ad8261443d565b909250608087013590808211156144c357600080fd5b506144d08882890161441d565b9150509295509295909350565b6000806000604084860312156144f257600080fd5b6144fb846140d9565b925060208401356001600160401b0381111561451657600080fd5b614522868287016140f0565b9497909650939450505050565b60006020828403121561454157600080fd5b81356001600160401b0381111561455757600080fd5b8201601f8101841361456857600080fd5b6129e3848235602084016143df565b600080600080600080600060e0888a03121561459257600080fd5b873561459d816142ac565b96506145ab602089016140d9565b955060408801356001600160401b03808211156145c757600080fd5b6145d38b838c0161441d565b965060608a0135955060808a013591506145ec826142ac565b90935060a0890135906145fe826142ac565b90925060c0890135908082111561461457600080fd5b506146218a828b0161441d565b91505092959891949750929550565b60008060006060848603121561464557600080fd5b61464e846140d9565b925060208401356001600160401b0381111561466957600080fd5b6146758682870161441d565b92505061468460408501614138565b90509250925092565b600080604083850312156146a057600080fd5b6146a9836140d9565b91506146b7602084016140d9565b90509250929050565b6000602082840312156146d257600080fd5b81356001600160401b038111156146e857600080fd5b6129e38482850161441d565b6000806040838503121561470757600080fd5b8235614712816142ac565b915060208301356147228161443d565b809150509250929050565b60008060006060848603121561474257600080fd5b505081359360208301359350604090920135919050565b60006001600160401b0382111561477257614772614372565b5060051b60200190565b600082601f83011261478d57600080fd5b8135602061479d6143ed83614759565b82815260059290921b840181019181810190868411156147bc57600080fd5b8286015b848110156147d757803583529183019183016147c0565b509695505050505050565b600080600080600080600060e0888a0312156147fd57600080fd5b8735614808816142ac565b9650614816602089016140d9565b955060408801356001600160401b038082111561483257600080fd5b61483e8b838c0161441d565b965060608a013591508082111561485457600080fd5b6148608b838c0161477c565b955060808a01359150614872826142ac565b81945061488160a08b016142c1565b935060c08a013591508082111561461457600080fd5b600080600080608085870312156148ad57600080fd5b84356148b8816142ac565b935060208501356148c8816142ac565b92506040850135915060608501356001600160401b038111156148ea57600080fd5b6148f68782880161441d565b91505092959194509250565b60008060006040848603121561491757600080fd5b8335925060208401356001600160401b038082111561493557600080fd5b818601915086601f83011261494957600080fd5b81358181111561495857600080fd5b8760208260051b850101111561496d57600080fd5b6020830194508093505050509250925092565b60008060008060006080868803121561499857600080fd5b6149a1866140d9565b94506149af602087016140d9565b93506040860135925060608601356001600160401b038111156149d157600080fd5b6149dd888289016140f0565b969995985093965092949392505050565b600080600060608486031215614a0357600080fd5b614a0c846140d9565b9250614a1a602085016140d9565b9150604084013590509250925092565b60008060408385031215614a3d57600080fd5b8235614a48816142ac565b91506020830135614722816142ac565b600080600080600060a08688031215614a7057600080fd5b614a79866140d9565b945060208601356001600160401b0380821115614a9557600080fd5b614aa189838a0161441d565b95506040880135915080821115614ab757600080fd5b614ac389838a0161477c565b9450606088013591506144ad8261443d565b60008060008060808587031215614aeb57600080fd5b614af4856140d9565b9350614b02602086016140d9565b92506040850135614b12816142ac565b9396929550929360600135925050565b600181811c90821680614b3657607f821691505b602082108103614b5657634e487b7160e01b600052602260045260246000fd5b50919050565b8183823760009101908152919050565b6020808252602a908201527f416476616e6365644f4e46543732313a2053616c6520686173206e6f742073746040820152696172746564207965742160b01b606082015260800190565b60208082526026908201527f416476616e6365644f4e46543732313a2043616e6e6f74206d696e74203020746040820152656f6b656e732160d01b606082015260800190565b6020808252604b908201527f416476616e6365644f4e46543732313a20596f752063616e6e6f74206d696e7460408201527f206d6f7265207468616e206d6178546f6b656e735065724d696e7420746f6b6560608201526a6e73206174206f6e63652160a81b608082015260a00190565b634e487b7160e01b600052601160045260246000fd5b8082018082111561107557611075614c6d565b60208082526027908201527f416476616e6365644f4e46543732313a206d6178206d696e74206c696d6974206040820152661c995858da195960ca1b606082015260800190565b808202811582820484141761107557611075614c6d565b6020808252602a908201527f416476616e6365644f4e46543732313a20496e636f6e73697374656e7420616d6040820152696f756e742073656e742160b01b606082015260800190565b600060018201614d5057614d50614c6d565b5060010190565b600082614d7457634e487b7160e01b600052601260045260246000fd5b500490565b8181038181111561107557611075614c6d565b81835281816020850137506000828201602090810191909152601f909101601f19169091010190565b61ffff841681526040602082015260006129e0604083018486614d8c565b601f8211156111d157600081815260208120601f850160051c81016020861015614dfa5750805b601f850160051c820191505b8181101561196b57828155600101614e06565b81516001600160401b03811115614e3257614e32614372565b614e4681614e408454614b22565b84614dd3565b602080601f831160018114614e7b5760008415614e635750858301515b600019600386901b1c1916600185901b17855561196b565b600085815260208120601f198616915b82811015614eaa57888601518255948401946001909101908401614e8b565b5085821015614ec85787850151600019600388901b60f8161c191681555b5050505050600190811b01905550565b600082601f830112614ee957600080fd5b8151614ef76143ed826143b8565b818152846020838601011115614f0c57600080fd5b6129e3826020830160208701614215565b60008060408385031215614f3057600080fd5b82516001600160401b0380821115614f4757600080fd5b614f5386838701614ed8565b9350602091508185015181811115614f6a57600080fd5b85019050601f81018613614f7d57600080fd5b8051614f8b6143ed82614759565b81815260059190911b82018301908381019088831115614faa57600080fd5b928401925b82841015614fc857835182529284019290840190614faf565b80955050505050509250929050565b8284823760609190911b6bffffffffffffffffffffffff19169101908152601401919050565b6000835161500f818460208801614215565b835190830190615023818360208801614215565b01949350505050565b600061ffff80881683528087166020840152508460408301526080606083015261505a608083018486614d8c565b979650505050505050565b61ffff86168152608060208201526000615083608083018688614d8c565b6001600160401b0394909416604083015250606001529392505050565b6001600160401b038311156150b7576150b7614372565b6150cb836150c58354614b22565b83614dd3565b6000601f8411600181146150ff57600085156150e75750838201355b600019600387901b1c1916600186901b17835561118f565b600083815260209020601f19861690835b828110156151305786850135825560209485019460019092019101615110565b508682101561514d5760001960f88860031b161c19848701351681555b505060018560011b0183555050505050565b600081518084526020808501945080840160005b8381101561518f57815187529582019590820190600101615173565b509495945050505050565b6040815260006151ad6040830185614239565b82810360208401526151bf818561515f565b95945050505050565b61ffff861681526001600160a01b038516602082015260a0604082018190526000906151f690830186614239565b841515606084015282810360808401526152108185614239565b98975050505050505050565b6000806040838503121561522f57600080fd5b505080516020909101519092909150565b60006020828403121561525257600080fd5b81516001600160401b0381111561526857600080fd5b6129e384828501614ed8565b61ffff851681526080602082015260006152916080830186614239565b6001600160401b0385166040840152828103606084015261505a8185614239565b6000602082840312156152c457600080fd5b8151611f0f8161443d565b6020808252602d908201527f4552433732313a2063616c6c6572206973206e6f7420746f6b656e206f776e6560408201526c1c881bdc88185c1c1c9bdd9959609a1b606082015260800190565b634e487b7160e01b600052603260045260246000fd5b60008251615344818460208701614215565b9190910192915050565b602081526000611f0f602083018461515f565b8281526040602082015260006129e36040830184614239565b61ffff8616815260a06020820152600061539760a0830187614239565b6001600160401b038616604084015282810360608401526153b88186614239565b905082810360808401526152108185614239565b60208082526025908201527f4552433732313a207472616e736665722066726f6d20696e636f72726563742060408201526437bbb732b960d91b606082015260800190565b61ffff8716815260c06020820152600061542e60c0830188614239565b82810360408401526154408188614239565b6001600160a01b0387811660608601528616608085015283810360a0850152905061546b8185614239565b9998505050505050505050565b60208082526032908201527f4552433732313a207472616e7366657220746f206e6f6e20455243373231526560408201527131b2b4bb32b91034b6b83632b6b2b73a32b960711b606082015260800190565b6001600160a01b03858116825284166020820152604081018390526080606082018190526000906154fd90830184614239565b9695505050505050565b60006020828403121561551957600080fd5b8151611f0f816141e256fea264697066735822122007bd8691e62132f9206a16c1f171ef46090fc91aeb40b7419eae0d372177a61664736f6c63430008110033",
    "linkReferences": {}
  },
  "methodIdentifiers": {
    "DEFAULT_PAYLOAD_SIZE_LIMIT()": "c4461834",
    "FUNCTION_TYPE_SEND()": "af3fb21c",
    "OPERATOR_FILTER_REGISTRY()": "41f43434",
    "_publicSaleStarted()": "600e97f6",
    "_saleStarted()": "87c348bf",
    "approve(address,uint256)": "095ea7b3",
    "balanceOf(address)": "70a08231",
    "clearCredits(bytes)": "8ffa1f2a",
    "contractURI()": "e8a3d485",
    "dstChainIdToBatchLimit(uint16)": "4ac3f4ff",
    "dstChainIdToTransferGas(uint16)": "fa25f9b6",
    "estimateSendBatchFee(uint16,bytes,uint256[],bool,bytes)": "f2353641",
    "estimateSendFee(uint16,bytes,uint256,bool,bytes)": "2a205e3d",
    "failedMessages(uint16,bytes,uint64)": "5b8c41e6",
    "flipPublicSaleStarted()": "1291e33e",
    "flipRevealed()": "3b2c3fb6",
    "flipSaleStarted()": "899d7b38",
    "forceResumeReceive(uint16,bytes)": "42d65a8d",
    "getApproved(uint256)": "081812fc",
    "getConfig(uint16,uint16,address,uint256)": "f5ecbdbc",
    "getTrustedRemoteAddress(uint16)": "9f38369a",
    "isApprovedForAll(address,address)": "e985e9c5",
    "isTrustedRemote(uint16,bytes)": "3d8b38f6",
    "lzEndpoint()": "b353aaa7",
    "lzReceive(uint16,bytes,uint64,bytes)": "001d3567",
    "maxMintId()": "e1d4c870",
    "maxTokensPerMint()": "17465471",
    "merkleRoot()": "2eb4a7ab",
    "minDstGasLookup(uint16,uint16)": "8cfd8f5c",
    "minGasToTransferAndStore()": "48288190",
    "mint(uint256,bytes32[])": "ba41b0c6",
    "name()": "06fdde03",
    "nextMintId()": "6aa99da3",
    "nonblockingLzReceive(uint16,bytes,uint64,bytes)": "66ad5c8a",
    "owner()": "8da5cb5b",
    "ownerOf(uint256)": "6352211e",
    "payloadSizeLimitLookup(uint16)": "3f1f4fa4",
    "precrime()": "950c8a74",
    "price()": "a035b1fe",
    "publicMint(uint256)": "2db11544",
    "renounceOwnership()": "715018a6",
    "retryMessage(uint16,bytes,uint64,bytes)": "d1deba1f",
    "safeTransferFrom(address,address,uint256)": "42842e0e",
    "safeTransferFrom(address,address,uint256,bytes)": "b88d4fde",
    "sendBatchFrom(address,uint16,bytes,uint256[],address,address,bytes)": "ab3ffb93",
    "sendFrom(address,uint16,bytes,uint256,address,address,bytes)": "51905636",
    "setApprovalForAll(address,bool)": "a22cb465",
    "setBaseURI(string)": "55f804b3",
    "setBeneficiary(address)": "1c31f710",
    "setConfig(uint16,uint16,uint256,bytes)": "cbed8b9c",
    "setContractURI(string)": "938e3d7b",
    "setDstChainIdToBatchLimit(uint16,uint256)": "9ea5d6b1",
    "setDstChainIdToTransferGas(uint16,uint256)": "d12473a5",
    "setHiddenMetadataUri(string)": "4fdd43cb",
    "setMerkleRoot(bytes32)": "7cb64759",
    "setMinDstGas(uint16,uint16,uint256)": "df2a5b3b",
    "setMinGasToTransferAndStore(uint256)": "0b4cad4c",
    "setMintRange(uint256,uint256,uint256)": "a7afd9c6",
    "setPayloadSizeLimit(uint16,uint256)": "0df37483",
    "setPrecrime(address)": "baf3292d",
    "setPrice(uint256)": "91b7f5ed",
    "setReceiveVersion(uint16)": "10ddb137",
    "setSendVersion(uint16)": "07e0db17",
    "setTax(uint256)": "2e5bb6ff",
    "setTaxRecipient(address)": "78e3079e",
    "setTrustedRemote(uint16,bytes)": "eb8d72b7",
    "setTrustedRemoteAddress(uint16,bytes)": "a6c3d165",
    "storedCredits(bytes32)": "22a3ecf9",
    "supportsInterface(bytes4)": "01ffc9a7",
    "symbol()": "95d89b41",
    "tax()": "99c8d556",
    "tokenURI(uint256)": "c87b56dd",
    "transferFrom(address,address,uint256)": "23b872dd",
    "transferOwnership(address)": "f2fde38b",
    "trustedRemoteLookup(uint16)": "7533d788",
    "withdraw()": "3ccfd60b"
  },
  "id": 98
}