{
  "abi": [
    {
      "inputs": [
        {
          "internalType": "string",
          "name": "_name",
          "type": "string"
        },
        {
          "internalType": "string",
          "name": "_symbol",
          "type": "string"
        },
        {
          "internalType": "address",
          "name": "_layerZeroEndpoint",
          "type": "address"
        },
        {
          "internalType": "uint256",
          "name": "_startMintId",
          "type": "uint256"
        },
        {
          "internalType": "uint256",
          "name": "_endMintId",
          "type": "uint256"
        },
        {
          "internalType": "uint256",
          "name": "_maxTokensPerMint",
          "type": "uint256"
        },
        {
          "internalType": "string",
          "name": "_baseTokenURI",
          "type": "string"
        },
        {
          "internalType": "string",
          "name": "_hiddenURI",
          "type": "string"
        },
        {
          "internalType": "uint256",
          "name": "_tax",
          "type": "uint256"
        },
        {
          "internalType": "address",
          "name": "_taxRecipient",
          "type": "address"
        }
      ],
      "stateMutability": "nonpayable",
      "type": "constructor"
    },
    {
      "inputs": [
        {
          "internalType": "address",
          "name": "operator",
          "type": "address"
        }
      ],
      "name": "OperatorNotAllowed",
      "type": "error"
    },
    {
      "anonymous": false,
      "inputs": [
        {
          "indexed": true,
          "internalType": "address",
          "name": "owner",
          "type": "address"
        },
        {
          "indexed": true,
          "internalType": "address",
          "name": "approved",
          "type": "address"
        },
        {
          "indexed": true,
          "internalType": "uint256",
          "name": "tokenId",
          "type": "uint256"
        }
      ],
      "name": "Approval",
      "type": "event"
    },
    {
      "anonymous": false,
      "inputs": [
        {
          "indexed": true,
          "internalType": "address",
          "name": "owner",
          "type": "address"
        },
        {
          "indexed": true,
          "internalType": "address",
          "name": "operator",
          "type": "address"
        },
        {
          "indexed": false,
          "internalType": "bool",
          "name": "approved",
          "type": "bool"
        }
      ],
      "name": "ApprovalForAll",
      "type": "event"
    },
    {
      "anonymous": false,
      "inputs": [
        {
          "indexed": false,
          "internalType": "uint16",
          "name": "_srcChainId",
          "type": "uint16"
        },
        {
          "indexed": false,
          "internalType": "bytes",
          "name": "_srcAddress",
          "type": "bytes"
        },
        {
          "indexed": false,
          "internalType": "uint64",
          "name": "_nonce",
          "type": "uint64"
        },
        {
          "indexed": false,
          "internalType": "bytes",
          "name": "_payload",
          "type": "bytes"
        },
        {
          "indexed": false,
          "internalType": "bytes",
          "name": "_reason",
          "type": "bytes"
        }
      ],
      "name": "MessageFailed",
      "type": "event"
    },
    {
      "anonymous": false,
      "inputs": [
        {
          "indexed": true,
          "internalType": "address",
          "name": "previousOwner",
          "type": "address"
        },
        {
          "indexed": true,
          "internalType": "address",
          "name": "newOwner",
          "type": "address"
        }
      ],
      "name": "OwnershipTransferred",
      "type": "event"
    },
    {
      "anonymous": false,
      "inputs": [
        {
          "indexed": true,
          "internalType": "uint16",
          "name": "_srcChainId",
          "type": "uint16"
        },
        {
          "indexed": true,
          "internalType": "bytes",
          "name": "_srcAddress",
          "type": "bytes"
        },
        {
          "indexed": true,
          "internalType": "address",
          "name": "_toAddress",
          "type": "address"
        },
        {
          "indexed": false,
          "internalType": "uint256",
          "name": "_tokenId",
          "type": "uint256"
        },
        {
          "indexed": false,
          "internalType": "uint64",
          "name": "_nonce",
          "type": "uint64"
        }
      ],
      "name": "ReceiveFromChain",
      "type": "event"
    },
    {
      "anonymous": false,
      "inputs": [
        {
          "indexed": false,
          "internalType": "uint16",
          "name": "_srcChainId",
          "type": "uint16"
        },
        {
          "indexed": false,
          "internalType": "bytes",
          "name": "_srcAddress",
          "type": "bytes"
        },
        {
          "indexed": false,
          "internalType": "uint64",
          "name": "_nonce",
          "type": "uint64"
        },
        {
          "indexed": false,
          "internalType": "bytes32",
          "name": "_payloadHash",
          "type": "bytes32"
        }
      ],
      "name": "RetryMessageSuccess",
      "type": "event"
    },
    {
      "anonymous": false,
      "inputs": [
        {
          "indexed": true,
          "internalType": "address",
          "name": "_sender",
          "type": "address"
        },
        {
          "indexed": true,
          "internalType": "uint16",
          "name": "_dstChainId",
          "type": "uint16"
        },
        {
          "indexed": true,
          "internalType": "bytes",
          "name": "_toAddress",
          "type": "bytes"
        },
        {
          "indexed": false,
          "internalType": "uint256",
          "name": "_tokenId",
          "type": "uint256"
        },
        {
          "indexed": false,
          "internalType": "uint64",
          "name": "_nonce",
          "type": "uint64"
        }
      ],
      "name": "SendToChain",
      "type": "event"
    },
    {
      "anonymous": false,
      "inputs": [
        {
          "indexed": false,
          "internalType": "uint16",
          "name": "_dstChainId",
          "type": "uint16"
        },
        {
          "indexed": false,
          "internalType": "uint16",
          "name": "_type",
          "type": "uint16"
        },
        {
          "indexed": false,
          "internalType": "uint256",
          "name": "_minDstGas",
          "type": "uint256"
        }
      ],
      "name": "SetMinDstGas",
      "type": "event"
    },
    {
      "anonymous": false,
      "inputs": [
        {
          "indexed": false,
          "internalType": "address",
          "name": "precrime",
          "type": "address"
        }
      ],
      "name": "SetPrecrime",
      "type": "event"
    },
    {
      "anonymous": false,
      "inputs": [
        {
          "indexed": false,
          "internalType": "uint16",
          "name": "_remoteChainId",
          "type": "uint16"
        },
        {
          "indexed": false,
          "internalType": "bytes",
          "name": "_path",
          "type": "bytes"
        }
      ],
      "name": "SetTrustedRemote",
      "type": "event"
    },
    {
      "anonymous": false,
      "inputs": [
        {
          "indexed": false,
          "internalType": "uint16",
          "name": "_remoteChainId",
          "type": "uint16"
        },
        {
          "indexed": false,
          "internalType": "bytes",
          "name": "_remoteAddress",
          "type": "bytes"
        }
      ],
      "name": "SetTrustedRemoteAddress",
      "type": "event"
    },
    {
      "anonymous": false,
      "inputs": [
        {
          "indexed": true,
          "internalType": "address",
          "name": "from",
          "type": "address"
        },
        {
          "indexed": true,
          "internalType": "address",
          "name": "to",
          "type": "address"
        },
        {
          "indexed": true,
          "internalType": "uint256",
          "name": "tokenId",
          "type": "uint256"
        }
      ],
      "name": "Transfer",
      "type": "event"
    },
    {
      "inputs": [],
      "name": "DEFAULT_PAYLOAD_SIZE_LIMIT",
      "outputs": [
        {
          "internalType": "uint256",
          "name": "",
          "type": "uint256"
        }
      ],
      "stateMutability": "view",
      "type": "function"
    },
    {
      "inputs": [],
      "name": "OPERATOR_FILTER_REGISTRY",
      "outputs": [
        {
          "internalType": "contract IOperatorFilterRegistry",
          "name": "",
          "type": "address"
        }
      ],
      "stateMutability": "view",
      "type": "function"
    },
    {
      "inputs": [],
      "name": "_publicSaleStarted",
      "outputs": [
        {
          "internalType": "bool",
          "name": "",
          "type": "bool"
        }
      ],
      "stateMutability": "view",
      "type": "function"
    },
    {
      "inputs": [],
      "name": "_saleStarted",
      "outputs": [
        {
          "internalType": "bool",
          "name": "",
          "type": "bool"
        }
      ],
      "stateMutability": "view",
      "type": "function"
    },
    {
      "inputs": [
        {
          "internalType": "address",
          "name": "operator",
          "type": "address"
        },
        {
          "internalType": "uint256",
          "name": "tokenId",
          "type": "uint256"
        }
      ],
      "name": "approve",
      "outputs": [],
      "stateMutability": "nonpayable",
      "type": "function"
    },
    {
      "inputs": [
        {
          "internalType": "address",
          "name": "owner",
          "type": "address"
        }
      ],
      "name": "balanceOf",
      "outputs": [
        {
          "internalType": "uint256",
          "name": "",
          "type": "uint256"
        }
      ],
      "stateMutability": "view",
      "type": "function"
    },
    {
      "inputs": [],
      "name": "contractURI",
      "outputs": [
        {
          "internalType": "string",
          "name": "",
          "type": "string"
        }
      ],
      "stateMutability": "view",
      "type": "function"
    },
    {
      "inputs": [
        {
          "internalType": "uint16",
          "name": "_dstChainId",
          "type": "uint16"
        },
        {
          "internalType": "bytes",
          "name": "_toAddress",
          "type": "bytes"
        },
        {
          "internalType": "uint256",
          "name": "_tokenId",
          "type": "uint256"
        },
        {
          "internalType": "bool",
          "name": "_useZro",
          "type": "bool"
        },
        {
          "internalType": "bytes",
          "name": "_adapterParams",
          "type": "bytes"
        }
      ],
      "name": "estimateSendFee",
      "outputs": [
        {
          "internalType": "uint256",
          "name": "nativeFee",
          "type": "uint256"
        },
        {
          "internalType": "uint256",
          "name": "zroFee",
          "type": "uint256"
        }
      ],
      "stateMutability": "view",
      "type": "function"
    },
    {
      "inputs": [
        {
          "internalType": "uint16",
          "name": "",
          "type": "uint16"
        },
        {
          "internalType": "bytes",
          "name": "",
          "type": "bytes"
        },
        {
          "internalType": "uint64",
          "name": "",
          "type": "uint64"
        }
      ],
      "name": "failedMessages",
      "outputs": [
        {
          "internalType": "bytes32",
          "name": "",
          "type": "bytes32"
        }
      ],
      "stateMutability": "view",
      "type": "function"
    },
    {
      "inputs": [],
      "name": "flipPublicSaleStarted",
      "outputs": [],
      "stateMutability": "nonpayable",
      "type": "function"
    },
    {
      "inputs": [],
      "name": "flipRevealed",
      "outputs": [],
      "stateMutability": "nonpayable",
      "type": "function"
    },
    {
      "inputs": [],
      "name": "flipSaleStarted",
      "outputs": [],
      "stateMutability": "nonpayable",
      "type": "function"
    },
    {
      "inputs": [
        {
          "internalType": "uint16",
          "name": "_srcChainId",
          "type": "uint16"
        },
        {
          "internalType": "bytes",
          "name": "_srcAddress",
          "type": "bytes"
        }
      ],
      "name": "forceResumeReceive",
      "outputs": [],
      "stateMutability": "nonpayable",
      "type": "function"
    },
    {
      "inputs": [
        {
          "internalType": "uint256",
          "name": "tokenId",
          "type": "uint256"
        }
      ],
      "name": "getApproved",
      "outputs": [
        {
          "internalType": "address",
          "name": "",
          "type": "address"
        }
      ],
      "stateMutability": "view",
      "type": "function"
    },
    {
      "inputs": [
        {
          "internalType": "uint16",
          "name": "_version",
          "type": "uint16"
        },
        {
          "internalType": "uint16",
          "name": "_chainId",
          "type": "uint16"
        },
        {
          "internalType": "address",
          "name": "",
          "type": "address"
        },
        {
          "internalType": "uint256",
          "name": "_configType",
          "type": "uint256"
        }
      ],
      "name": "getConfig",
      "outputs": [
        {
          "internalType": "bytes",
          "name": "",
          "type": "bytes"
        }
      ],
      "stateMutability": "view",
      "type": "function"
    },
    {
      "inputs": [
        {
          "internalType": "uint16",
          "name": "_remoteChainId",
          "type": "uint16"
        }
      ],
      "name": "getTrustedRemoteAddress",
      "outputs": [
        {
          "internalType": "bytes",
          "name": "",
          "type": "bytes"
        }
      ],
      "stateMutability": "view",
      "type": "function"
    },
    {
      "inputs": [
        {
          "internalType": "address",
          "name": "owner",
          "type": "address"
        },
        {
          "internalType": "address",
          "name": "operator",
          "type": "address"
        }
      ],
      "name": "isApprovedForAll",
      "outputs": [
        {
          "internalType": "bool",
          "name": "",
          "type": "bool"
        }
      ],
      "stateMutability": "view",
      "type": "function"
    },
    {
      "inputs": [
        {
          "internalType": "uint16",
          "name": "_srcChainId",
          "type": "uint16"
        },
        {
          "internalType": "bytes",
          "name": "_srcAddress",
          "type": "bytes"
        }
      ],
      "name": "isTrustedRemote",
      "outputs": [
        {
          "internalType": "bool",
          "name": "",
          "type": "bool"
        }
      ],
      "stateMutability": "view",
      "type": "function"
    },
    {
      "inputs": [],
      "name": "lzEndpoint",
      "outputs": [
        {
          "internalType": "contract ILayerZeroEndpoint",
          "name": "",
          "type": "address"
        }
      ],
      "stateMutability": "view",
      "type": "function"
    },
    {
      "inputs": [
        {
          "internalType": "uint16",
          "name": "_srcChainId",
          "type": "uint16"
        },
        {
          "internalType": "bytes",
          "name": "_srcAddress",
          "type": "bytes"
        },
        {
          "internalType": "uint64",
          "name": "_nonce",
          "type": "uint64"
        },
        {
          "internalType": "bytes",
          "name": "_payload",
          "type": "bytes"
        }
      ],
      "name": "lzReceive",
      "outputs": [],
      "stateMutability": "nonpayable",
      "type": "function"
    },
    {
      "inputs": [],
      "name": "maxMintId",
      "outputs": [
        {
          "internalType": "uint256",
          "name": "",
          "type": "uint256"
        }
      ],
      "stateMutability": "view",
      "type": "function"
    },
    {
      "inputs": [],
      "name": "maxTokensPerMint",
      "outputs": [
        {
          "internalType": "uint256",
          "name": "",
          "type": "uint256"
        }
      ],
      "stateMutability": "view",
      "type": "function"
    },
    {
      "inputs": [],
      "name": "merkleRoot",
      "outputs": [
        {
          "internalType": "bytes32",
          "name": "",
          "type": "bytes32"
        }
      ],
      "stateMutability": "view",
      "type": "function"
    },
    {
      "inputs": [
        {
          "internalType": "uint16",
          "name": "",
          "type": "uint16"
        },
        {
          "internalType": "uint16",
          "name": "",
          "type": "uint16"
        }
      ],
      "name": "minDstGasLookup",
      "outputs": [
        {
          "internalType": "uint256",
          "name": "",
          "type": "uint256"
        }
      ],
      "stateMutability": "view",
      "type": "function"
    },
    {
      "inputs": [
        {
          "internalType": "uint256",
          "name": "_nbTokens",
          "type": "uint256"
        },
        {
          "internalType": "bytes32[]",
          "name": "_merkleProof",
          "type": "bytes32[]"
        }
      ],
      "name": "mint",
      "outputs": [],
      "stateMutability": "payable",
      "type": "function"
    },
    {
      "inputs": [],
      "name": "name",
      "outputs": [
        {
          "internalType": "string",
          "name": "",
          "type": "string"
        }
      ],
      "stateMutability": "view",
      "type": "function"
    },
    {
      "inputs": [],
      "name": "nextMintId",
      "outputs": [
        {
          "internalType": "uint256",
          "name": "",
          "type": "uint256"
        }
      ],
      "stateMutability": "view",
      "type": "function"
    },
    {
      "inputs": [
        {
          "internalType": "uint16",
          "name": "_srcChainId",
          "type": "uint16"
        },
        {
          "internalType": "bytes",
          "name": "_srcAddress",
          "type": "bytes"
        },
        {
          "internalType": "uint64",
          "name": "_nonce",
          "type": "uint64"
        },
        {
          "internalType": "bytes",
          "name": "_payload",
          "type": "bytes"
        }
      ],
      "name": "nonblockingLzReceive",
      "outputs": [],
      "stateMutability": "nonpayable",
      "type": "function"
    },
    {
      "inputs": [],
      "name": "owner",
      "outputs": [
        {
          "internalType": "address",
          "name": "",
          "type": "address"
        }
      ],
      "stateMutability": "view",
      "type": "function"
    },
    {
      "inputs": [
        {
          "internalType": "uint256",
          "name": "tokenId",
          "type": "uint256"
        }
      ],
      "name": "ownerOf",
      "outputs": [
        {
          "internalType": "address",
          "name": "",
          "type": "address"
        }
      ],
      "stateMutability": "view",
      "type": "function"
    },
    {
      "inputs": [
        {
          "internalType": "uint16",
          "name": "",
          "type": "uint16"
        }
      ],
      "name": "payloadSizeLimitLookup",
      "outputs": [
        {
          "internalType": "uint256",
          "name": "",
          "type": "uint256"
        }
      ],
      "stateMutability": "view",
      "type": "function"
    },
    {
      "inputs": [],
      "name": "precrime",
      "outputs": [
        {
          "internalType": "address",
          "name": "",
          "type": "address"
        }
      ],
      "stateMutability": "view",
      "type": "function"
    },
    {
      "inputs": [],
      "name": "price",
      "outputs": [
        {
          "internalType": "uint256",
          "name": "",
          "type": "uint256"
        }
      ],
      "stateMutability": "view",
      "type": "function"
    },
    {
      "inputs": [
        {
          "internalType": "uint256",
          "name": "_nbTokens",
          "type": "uint256"
        }
      ],
      "name": "publicMint",
      "outputs": [],
      "stateMutability": "payable",
      "type": "function"
    },
    {
      "inputs": [],
      "name": "renounceOwnership",
      "outputs": [],
      "stateMutability": "nonpayable",
      "type": "function"
    },
    {
      "inputs": [
        {
          "internalType": "uint16",
          "name": "_srcChainId",
          "type": "uint16"
        },
        {
          "internalType": "bytes",
          "name": "_srcAddress",
          "type": "bytes"
        },
        {
          "internalType": "uint64",
          "name": "_nonce",
          "type": "uint64"
        },
        {
          "internalType": "bytes",
          "name": "_payload",
          "type": "bytes"
        }
      ],
      "name": "retryMessage",
      "outputs": [],
      "stateMutability": "payable",
      "type": "function"
    },
    {
      "inputs": [
        {
          "internalType": "address",
          "name": "from",
          "type": "address"
        },
        {
          "internalType": "address",
          "name": "to",
          "type": "address"
        },
        {
          "internalType": "uint256",
          "name": "tokenId",
          "type": "uint256"
        }
      ],
      "name": "safeTransferFrom",
      "outputs": [],
      "stateMutability": "nonpayable",
      "type": "function"
    },
    {
      "inputs": [
        {
          "internalType": "address",
          "name": "from",
          "type": "address"
        },
        {
          "internalType": "address",
          "name": "to",
          "type": "address"
        },
        {
          "internalType": "uint256",
          "name": "tokenId",
          "type": "uint256"
        },
        {
          "internalType": "bytes",
          "name": "data",
          "type": "bytes"
        }
      ],
      "name": "safeTransferFrom",
      "outputs": [],
      "stateMutability": "nonpayable",
      "type": "function"
    },
    {
      "inputs": [
        {
          "internalType": "address",
          "name": "_from",
          "type": "address"
        },
        {
          "internalType": "uint16",
          "name": "_dstChainId",
          "type": "uint16"
        },
        {
          "internalType": "bytes",
          "name": "_toAddress",
          "type": "bytes"
        },
        {
          "internalType": "uint256",
          "name": "_tokenId",
          "type": "uint256"
        },
        {
          "internalType": "address payable",
          "name": "_refundAddress",
          "type": "address"
        },
        {
          "internalType": "address",
          "name": "_zroPaymentAddress",
          "type": "address"
        },
        {
          "internalType": "bytes",
          "name": "_adapterParams",
          "type": "bytes"
        }
      ],
      "name": "sendFrom",
      "outputs": [],
      "stateMutability": "payable",
      "type": "function"
    },
    {
      "inputs": [
        {
          "internalType": "address",
          "name": "operator",
          "type": "address"
        },
        {
          "internalType": "bool",
          "name": "approved",
          "type": "bool"
        }
      ],
      "name": "setApprovalForAll",
      "outputs": [],
      "stateMutability": "nonpayable",
      "type": "function"
    },
    {
      "inputs": [
        {
          "internalType": "string",
          "name": "uri",
          "type": "string"
        }
      ],
      "name": "setBaseURI",
      "outputs": [],
      "stateMutability": "nonpayable",
      "type": "function"
    },
    {
      "inputs": [
        {
          "internalType": "address payable",
          "name": "_beneficiary",
          "type": "address"
        }
      ],
      "name": "setBeneficiary",
      "outputs": [],
      "stateMutability": "nonpayable",
      "type": "function"
    },
    {
      "inputs": [
        {
          "internalType": "uint16",
          "name": "_version",
          "type": "uint16"
        },
        {
          "internalType": "uint16",
          "name": "_chainId",
          "type": "uint16"
        },
        {
          "internalType": "uint256",
          "name": "_configType",
          "type": "uint256"
        },
        {
          "internalType": "bytes",
          "name": "_config",
          "type": "bytes"
        }
      ],
      "name": "setConfig",
      "outputs": [],
      "stateMutability": "nonpayable",
      "type": "function"
    },
    {
      "inputs": [
        {
          "internalType": "string",
          "name": "_contractURI",
          "type": "string"
        }
      ],
      "name": "setContractURI",
      "outputs": [],
      "stateMutability": "nonpayable",
      "type": "function"
    },
    {
      "inputs": [
        {
          "internalType": "string",
          "name": "_hiddenMetadataUri",
          "type": "string"
        }
      ],
      "name": "setHiddenMetadataUri",
      "outputs": [],
      "stateMutability": "nonpayable",
      "type": "function"
    },
    {
      "inputs": [
        {
          "internalType": "bytes32",
          "name": "_merkleRoot",
          "type": "bytes32"
        }
      ],
      "name": "setMerkleRoot",
      "outputs": [],
      "stateMutability": "nonpayable",
      "type": "function"
    },
    {
      "inputs": [
        {
          "internalType": "uint16",
          "name": "_dstChainId",
          "type": "uint16"
        },
        {
          "internalType": "uint16",
          "name": "_packetType",
          "type": "uint16"
        },
        {
          "internalType": "uint256",
          "name": "_minGas",
          "type": "uint256"
        }
      ],
      "name": "setMinDstGas",
      "outputs": [],
      "stateMutability": "nonpayable",
      "type": "function"
    },
    {
      "inputs": [
        {
          "internalType": "uint256",
          "name": "_startMintId",
          "type": "uint256"
        },
        {
          "internalType": "uint256",
          "name": "_endMintId",
          "type": "uint256"
        },
        {
          "internalType": "uint256",
          "name": "_maxTokensPerMint",
          "type": "uint256"
        }
      ],
      "name": "setMintRange",
      "outputs": [],
      "stateMutability": "nonpayable",
      "type": "function"
    },
    {
      "inputs": [
        {
          "internalType": "uint16",
          "name": "_dstChainId",
          "type": "uint16"
        },
        {
          "internalType": "uint256",
          "name": "_size",
          "type": "uint256"
        }
      ],
      "name": "setPayloadSizeLimit",
      "outputs": [],
      "stateMutability": "nonpayable",
      "type": "function"
    },
    {
      "inputs": [
        {
          "internalType": "address",
          "name": "_precrime",
          "type": "address"
        }
      ],
      "name": "setPrecrime",
      "outputs": [],
      "stateMutability": "nonpayable",
      "type": "function"
    },
    {
      "inputs": [
        {
          "internalType": "uint256",
          "name": "newPrice",
          "type": "uint256"
        }
      ],
      "name": "setPrice",
      "outputs": [],
      "stateMutability": "nonpayable",
      "type": "function"
    },
    {
      "inputs": [
        {
          "internalType": "uint16",
          "name": "_version",
          "type": "uint16"
        }
      ],
      "name": "setReceiveVersion",
      "outputs": [],
      "stateMutability": "nonpayable",
      "type": "function"
    },
    {
      "inputs": [
        {
          "internalType": "uint16",
          "name": "_version",
          "type": "uint16"
        }
      ],
      "name": "setSendVersion",
      "outputs": [],
      "stateMutability": "nonpayable",
      "type": "function"
    },
    {
      "inputs": [
        {
          "internalType": "uint256",
          "name": "_tax",
          "type": "uint256"
        }
      ],
      "name": "setTax",
      "outputs": [],
      "stateMutability": "nonpayable",
      "type": "function"
    },
    {
      "inputs": [
        {
          "internalType": "address payable",
          "name": "_taxRecipient",
          "type": "address"
        }
      ],
      "name": "setTaxRecipient",
      "outputs": [],
      "stateMutability": "nonpayable",
      "type": "function"
    },
    {
      "inputs": [
        {
          "internalType": "uint16",
          "name": "_srcChainId",
          "type": "uint16"
        },
        {
          "internalType": "bytes",
          "name": "_path",
          "type": "bytes"
        }
      ],
      "name": "setTrustedRemote",
      "outputs": [],
      "stateMutability": "nonpayable",
      "type": "function"
    },
    {
      "inputs": [
        {
          "internalType": "uint16",
          "name": "_remoteChainId",
          "type": "uint16"
        },
        {
          "internalType": "bytes",
          "name": "_remoteAddress",
          "type": "bytes"
        }
      ],
      "name": "setTrustedRemoteAddress",
      "outputs": [],
      "stateMutability": "nonpayable",
      "type": "function"
    },
    {
      "inputs": [
        {
          "internalType": "bytes4",
          "name": "interfaceId",
          "type": "bytes4"
        }
      ],
      "name": "supportsInterface",
      "outputs": [
        {
          "internalType": "bool",
          "name": "",
          "type": "bool"
        }
      ],
      "stateMutability": "view",
      "type": "function"
    },
    {
      "inputs": [],
      "name": "symbol",
      "outputs": [
        {
          "internalType": "string",
          "name": "",
          "type": "string"
        }
      ],
      "stateMutability": "view",
      "type": "function"
    },
    {
      "inputs": [],
      "name": "tax",
      "outputs": [
        {
          "internalType": "uint256",
          "name": "",
          "type": "uint256"
        }
      ],
      "stateMutability": "view",
      "type": "function"
    },
    {
      "inputs": [
        {
          "internalType": "uint256",
          "name": "tokenId",
          "type": "uint256"
        }
      ],
      "name": "tokenURI",
      "outputs": [
        {
          "internalType": "string",
          "name": "",
          "type": "string"
        }
      ],
      "stateMutability": "view",
      "type": "function"
    },
    {
      "inputs": [
        {
          "internalType": "address",
          "name": "from",
          "type": "address"
        },
        {
          "internalType": "address",
          "name": "to",
          "type": "address"
        },
        {
          "internalType": "uint256",
          "name": "tokenId",
          "type": "uint256"
        }
      ],
      "name": "transferFrom",
      "outputs": [],
      "stateMutability": "nonpayable",
      "type": "function"
    },
    {
      "inputs": [
        {
          "internalType": "address",
          "name": "newOwner",
          "type": "address"
        }
      ],
      "name": "transferOwnership",
      "outputs": [],
      "stateMutability": "nonpayable",
      "type": "function"
    },
    {
      "inputs": [
        {
          "internalType": "uint16",
          "name": "",
          "type": "uint16"
        }
      ],
      "name": "trustedRemoteLookup",
      "outputs": [
        {
          "internalType": "bytes",
          "name": "",
          "type": "bytes"
        }
      ],
      "stateMutability": "view",
      "type": "function"
    },
    {
      "inputs": [],
      "name": "withdraw",
      "outputs": [],
      "stateMutability": "nonpayable",
      "type": "function"
    }
  ],
  "bytecode": {
    "object": "0x60a060409080825234620008675760006200529780380380916200002482866200086c565b8439820161014083820312620008635782516001600160401b0381116200085f578162000053918501620008a6565b60208401519093906001600160401b0381116200085b578262000078918301620008a6565b91620000868683016200091d565b93606083015191608084015160a08501519060c086015160018060401b038111620008575783620000b9918801620008a6565b60e08701519093906001600160401b038111620006235790620000de918801620008a6565b94620000f461012061010089015198016200091d565b8554336001600160a01b0319808316821789559c6001600160a01b039c939b9390928d929083167f8be0079c531659141344cd1fd0a4f28419497f9722a3daafe3b4186f6b6457e08b80a3166080528051906001600160401b0382116200084357600654600181811c9116801562000838575b602082101462000824579081601f849311620007c2575b50602090601f83116001146200074b5789926200073f575b50508160011b916000199060031b1c1916176006555b8051906001600160401b0382116200072b57600754600181811c9116801562000720575b60208210146200070c579081601f849311620006aa575b50602090601f83116001146200063357889262000627575b50508160011b916000199060031b1c1916176007555b6daaeb6d7670e522a718067333cd4e803b620005b1575b506001600c55600e859055600f55601055601155601280548816331790558051906001600160401b0382116200059d57601654600181811c9116801562000592575b60208210146200057e579081601f8493116200051c575b50602090601f8311600114620004a557849262000499575b50508160011b916000199060031b1c1916176016555b8151916001600160401b0383116200048557601754600181811c911680156200047a575b602082101462000466579081601f8594931162000402575b50602091601f84116001146200038b57926200037f575b50508160011b916000199060031b1c1916176017555b600d5516906013541617601355516148e4908162000933823960805181818161060e0152818161093c01528181610b6b01528181610ea3015281816112ec015281816115af015281816122b20152818161259801528181612d7c01526137480152f35b01519050388062000306565b60178152600080516020620052578339815191529350601f198516905b818110620003e95750908460019594939210620003cf575b505050811b016017556200031c565b015160001960f88460031b161c19169055388080620003c0565b92936020600181928786015181550195019301620003a8565b601783529192509060008051602062005257833981519152601f850160051c810191602086106200045b575b90601f86959493920160051c01905b8181106200044c5750620002ef565b8381558594506001016200043d565b90915081906200042e565b634e487b7160e01b83526022600452602483fd5b90607f1690620002d7565b634e487b7160e01b82526041600452602482fd5b0151905038806200029d565b60168552600080516020620052778339815191529250601f198416855b818110620005035750908460019594939210620004e9575b505050811b01601655620002b3565b015160001960f88460031b161c19169055388080620004da565b92936020600181928786015181550195019301620004c2565b6016855290915060008051602062005277833981519152601f840160051c8101916020851062000573575b90601f859493920160051c01905b81811062000564575062000285565b85815584935060010162000555565b909150819062000547565b634e487b7160e01b84526022600452602484fd5b90607f16906200026e565b634e487b7160e01b83526041600452602483fd5b803b15620006235785809160448e5180948193633e9f1edf60e11b8352306004840152733cc6cdda760b79bafa08df41ecfa224f810dceb660248401525af180156200061957156200022c579094906001600160401b03811162000485578b5293386200022c565b8c513d88823e3d90fd5b8580fd5b015190503880620001ff565b60078952600080516020620052178339815191529250601f198416895b81811062000691575090846001959493921062000677575b505050811b0160075562000215565b015160001960f88460031b161c1916905538808062000668565b9293602060018192878601518155019501930162000650565b6007895290915060008051602062005217833981519152601f840160051c8101916020851062000701575b90601f859493920160051c01905b818110620006f25750620001e7565b898155849350600101620006e3565b9091508190620006d5565b634e487b7160e01b88526022600452602488fd5b90607f1690620001d0565b634e487b7160e01b87526041600452602487fd5b01519050388062000196565b60068a52600080516020620052378339815191529250601f1984168a5b818110620007a957509084600195949392106200078f575b505050811b01600655620001ac565b015160001960f88460031b161c1916905538808062000780565b9293602060018192878601518155019501930162000768565b60068a5290915060008051602062005237833981519152601f840160051c8101916020851062000819575b90601f859493920160051c01905b8181106200080a57506200017e565b8a8155849350600101620007fb565b9091508190620007ed565b634e487b7160e01b89526022600452602489fd5b90607f169062000167565b634e487b7160e01b88526041600452602488fd5b8480fd5b8380fd5b8280fd5b5080fd5b600080fd5b601f909101601f19168101906001600160401b038211908210176200089057604052565b634e487b7160e01b600052604160045260246000fd5b919080601f8401121562000867578251906001600160401b038211620008905760405191602091620008e2601f8301601f19168401856200086c565b818452828287010111620008675760005b8181106200090957508260009394955001015290565b8581018301518482018401528201620008f3565b51906001600160a01b0382168203620008675756fe60806040526004361015610013575b600080fd5b60003560e01c80621d35671461052657806301ffc9a71461051d57806306fdde031461051457806307e0db171461050b578063081812fc14610502578063095ea7b3146104f95780630df37483146104f057806310ddb137146104e75780631291e33e146104de57806317465471146104d55780631c31f710146104cc57806323b872dd146104c35780632a205e3d146104ba5780632db11544146104b15780632e5bb6ff146104a85780632eb4a7ab1461049f5780633b2c3fb6146104965780633ccfd60b1461048d5780633d8b38f6146104845780633f1f4fa41461047b57806341f434341461047257806342842e0e1461046957806342d65a8d146104605780634fdd43cb14610457578063519056361461044e57806355f804b3146104455780635b8c41e61461043c578063600e97f6146104335780636352211e1461042a57806366ad5c8a146104215780636aa99da31461041857806370a082311461040f578063715018a6146104065780637533d788146103fd57806378e3079e146103f45780637cb64759146103eb57806387c348bf146103e2578063899d7b38146103d95780638cfd8f5c146103d05780638da5cb5b146103c757806391b7f5ed146103be578063938e3d7b146103b5578063950c8a74146103ac57806395d89b41146103a357806399c8d5561461039a5780639f38369a14610391578063a035b1fe14610388578063a22cb4651461037f578063a6c3d16514610376578063a7afd9c61461036d578063b353aaa714610364578063b88d4fde1461035b578063ba41b0c614610352578063baf3292d14610349578063c446183414610340578063c87b56dd14610337578063cbed8b9c1461032e578063d1deba1f14610325578063df2a5b3b1461031c578063e1d4c87014610313578063e8a3d4851461030a578063e985e9c514610301578063eb8d72b7146102f8578063f2fde38b146102ef5763f5ecbdbc146102e757600080fd5b61000e612d16565b5061000e612c7b565b5061000e612b16565b5061000e612aad565b5061000e612a05565b5061000e612891565b5061000e61279e565b5061000e61263a565b5061000e612537565b5061000e612517565b5061000e6124f9565b5061000e612480565b5061000e612354565b5061000e6122e1565b5061000e61229b565b5061000e612260565b5061000e6120c2565b5061000e611fc8565b5061000e611fa9565b5061000e611f09565b5061000e611eea565b5061000e611e42565b5061000e611e18565b5061000e611cfd565b5061000e611cce565b5061000e611ca4565b5061000e611c50565b5061000e611c0a565b5061000e611be3565b5061000e611bb4565b5061000e611b63565b5061000e611b0f565b5061000e6119c2565b5061000e61191b565b5061000e6118fc565b5061000e611875565b5061000e611856565b5061000e611832565b5061000e61178b565b5061000e611659565b5061000e6114a2565b5061000e611387565b5061000e6112bf565b5061000e611221565b5061000e6111f7565b5061000e6111c1565b5061000e611164565b5061000e611080565b5061000e611038565b5061000e611019565b5061000e610fea565b5061000e610f33565b5061000e610dc2565b5061000e610c9b565b5061000e610c1e565b5061000e610bff565b5061000e610bc2565b5061000e610b37565b5061000e610aee565b5061000e6109f3565b5061000e6109b1565b5061000e610908565b5061000e610822565b5061000e61071f565b5061000e6105f6565b6004359061ffff8216820361000e57565b6024359061ffff8216820361000e57565b9181601f8401121561000e578235916001600160401b03831161000e576020838186019501011161000e57565b6001600160401b0381160361000e57565b90608060031983011261000e5760043561ffff8116810361000e57916001600160401b039060243582811161000e57816105cb91600401610551565b939093926044356105db8161057e565b9260643591821161000e576105f291600401610551565b9091565b503461000e576106053661058f565b929493919291907f00000000000000000000000000000000000000000000000000000000000000006001600160a01b031633036106c85761068b610693926106999761068461066a6106658a61ffff166000526001602052604060002090565b611af2565b80519081841491826106be575b508161069b575b50613651565b3691610d66565b923691610d66565b92613937565b005b90506106a8368486610d66565b602081519101209060208151910120143861067e565b1515915038610677565b60405162461bcd60e51b815260206004820152601e60248201527f4c7a4170703a20696e76616c696420656e64706f696e742063616c6c657200006044820152606490fd5b6001600160e01b031981160361000e57565b503461000e57602036600319011261000e57602060043561073f8161070d565b6001600160e01b031916801590811561075e575b506040519015158152f35b6380ac58cd60e01b8114915081156107aa575b811561077f575b5038610753565b637bb0080b60e01b811491508115610799575b5038610778565b6301ffc9a760e01b14905038610792565b635b5e139f60e01b81149150610771565b600091031261000e57565b60005b8381106107d95750506000910152565b81810151838201526020016107c9565b90602091610802815180928185528580860191016107c6565b601f01601f1916010190565b90602061081f9281815201906107e9565b90565b503461000e5760008060031936011261090557604051908060065461084681611a22565b808552916001918083169081156108db5750600114610880575b61087c8561087081870382610d1b565b6040519182918261080e565b0390f35b9250600683527ff652222313e28459528d920b65115c16c04f3efc82aaedc97be59f3f377c0d3f5b8284106108c35750505081016020016108708261087c610860565b805460208587018101919091529093019281016108a8565b86955061087c9693506020925061087094915060ff191682840152151560051b8201019293610860565b80fd5b503461000e57600060203660031901126109055761092461052f565b8160018060a01b0361093a818354163314612f44565b7f00000000000000000000000000000000000000000000000000000000000000001691823b156109ad57602461ffff918360405195869485936307e0db1760e01b85521660048401525af180156109a0575b610994575080f35b61099d90610cfb565b80f35b6109a8612e23565b61098c565b5080fd5b503461000e57602036600319011261000e5760206109d0600435613e95565b6040516001600160a01b039091168152f35b6001600160a01b0381160361000e57565b503461000e57604036600319011261000e57600435610a11816109e2565b602435610a1d826147ef565b610a2681613dab565b916001600160a01b038084169082168114610a9f5761069993610a53913314908115610a58575b50613e23565b614476565b6001600160a01b03166000908152600b60205260409020610a999150610a929033905b9060018060a01b0316600052602052604060002090565b5460ff1690565b38610a4d565b60405162461bcd60e51b815260206004820152602160248201527f4552433732313a20617070726f76616c20746f2063757272656e74206f776e656044820152603960f91b6064820152608490fd5b503461000e57604036600319011261000e5761ffff610b0b61052f565b610b2060018060a01b03600054163314612f44565b166000526003602052602435604060002055600080f35b503461000e576000602036600319011261090557610b5361052f565b8160018060a01b03610b69818354163314612f44565b7f00000000000000000000000000000000000000000000000000000000000000001691823b156109ad57602461ffff918360405195869485936310ddb13760e01b85521660048401525af180156109a057610994575080f35b503461000e5760008060031936011261090557610be960018060a01b038254163314612f44565b60185460ff80821615169060ff19161760185580f35b503461000e57600036600319011261000e576020601154604051908152f35b503461000e57602036600319011261000e57600435610c3c816109e2565b6000546001600160a01b039190610c569083163314612f44565b166001600160601b0360a01b6012541617601255600080f35b606090600319011261000e57600435610c87816109e2565b90602435610c94816109e2565b9060443590565b503461000e57610699610cad36610c6f565b91336001600160a01b03821603610cd6575b610cd1610ccc8433614004565b613f27565b61430b565b610cdf336147ef565b610cbf565b50634e487b7160e01b600052604160045260246000fd5b6001600160401b038111610d0e57604052565b610d16610ce4565b604052565b90601f801991011681019081106001600160401b03821117610d0e57604052565b6020906001600160401b038111610d59575b601f01601f19160190565b610d61610ce4565b610d4e565b929192610d7282610d3c565b91610d806040519384610d1b565b82948184528183011161000e578281602093846000960137010152565b9080601f8301121561000e5781602061081f93359101610d66565b8015150361000e57565b503461000e5760031960a03682011261000e57610ddd61052f565b6001600160401b039160243583811161000e57610dfe903690600401610d9d565b9060643592610e0c84610db8565b60843594851161000e57610e9f610e4a9461ffff93610e32610e58983690600401610d9d565b9060409889978851998a916044359060208401612df1565b03601f1981018a5289610d1b565b610e898751988997889763040a7bb160e41b895216600488015230602488015260a0604488015260a48701906107e9565b92151560648601528483030160848501526107e9565b03817f00000000000000000000000000000000000000000000000000000000000000006001600160a01b03165afa918215610f26575b6000918293610ef1575b50519081526020810191909152604090f35b81610f1792945061087c93503d8511610f1f575b610f0f8183610d1b565b810190612e0d565b929091610edf565b503d610f05565b610f2e612e23565b610ed5565b50602036600319011261000e57600435610f68600160ff601854610f5c83838316151514612f8f565b60081c16151514612ff5565b610f73811515613054565b610f816011548211156130af565b600f54610f9b610f91838361317e565b601054101561318b565b610fb2610faa600e54846131e7565b3410156131fa565b6000915b808310610fc65761069982600f55565b90610fd3610fe391613259565b92610fde84336140ef565b613259565b9190610fb6565b503461000e57602036600319011261000e5761101160018060a01b03600054163314612f44565b600435600d55005b503461000e57600036600319011261000e576020601454604051908152f35b503461000e576000806003193601126109055761105f60018060a01b038254163314612f44565b60185462ff000060ff8260101c161560101b169062ff000019161760185580f35b503461000e5760008060031936011261090557601254336001600160a01b039182161490811561111d575b50156110b95761099d613361565b60405162461bcd60e51b815260206004820152603660248201527f416476616e6365644f4e4654313135354761736c6573733a2063616c6c6572206044820152756973206e6f74207468652062656e656669636961727960501b6064820152608490fd5b90508154163314386110ab565b90604060031983011261000e5760043561ffff8116810361000e5791602435906001600160401b03821161000e576105f291600401610551565b503461000e57602061ffff6111b261117b3661112a565b939091166000526001845261119d6111a4604060002060405192838092611a5c565b0382610d1b565b848151910120923691610d66565b82815191012014604051908152f35b503461000e57602036600319011261000e5761ffff6111de61052f565b1660005260036020526020604060002054604051908152f35b503461000e57600036600319011261000e5760206040516daaeb6d7670e522a718067333cd4e8152f35b503461000e5761069961129161123636610c6f565b6001600160a01b03831633141592909190836112b1575b60405193602085018581106001600160401b038211176112a4575b60405260008552611296575b611281610ccc8433614004565b61128c83838361430b565b61463c565b613fe0565b61129f336147ef565b611274565b6112ac610ce4565b611268565b6112ba336147ef565b61124d565b503461000e576112ce3661112a565b9190600092839160018060a01b036112ea818554163314612f44565b7f00000000000000000000000000000000000000000000000000000000000000001690813b15611348578361133695604051968795869485936342d65a8d60e01b85526004850161391c565b03925af180156109a057610994575080f35b8380fd5b602060031982011261000e57600435906001600160401b03821161000e578060238301121561000e5781602461081f93600401359101610d66565b503461000e576113963661134c565b60006113ac60018060a01b038254163314612f44565b81516001600160401b038111611495575b6113d1816113cc601754611a22565b613441565b602080601f831160011461140d57508293829392611402575b50508160011b916000199060031b1c19161760175580f35b0151905038806113ea565b90601f1983169461144060176000527fc624b66cc0138b8fabc209247f72d758e1cf3343756d543badbf24212bed8c1590565b9285905b87821061147d575050836001959610611464575b505050811b0160175580f35b015160001960f88460031b161c19169055388080611458565b80600185968294968601518155019501930190611444565b61149d610ce4565b6113bd565b5060e036600319011261000e576004356114bb816109e2565b6114c3610540565b6001600160401b03919060443583811161000e576114e5903690600401610d9d565b9260643591608435906114f7826109e2565b60a435611503816109e2565b60c43593841161000e578461ffff9361157c926115457f024797cc77ce15dc717112d54fb1df125fdfd8c81344fb046c5e074427ce1543973690600401610d9d565b91611550848b612e65565b6115748b61156660405196879260208401612df1565b03601f198101865285610d1b565b349386613704565b604051630f428ae960e31b815261ffff821660048201523060248201526001600160a01b039661161391906020826044817f00000000000000000000000000000000000000000000000000000000000000008d165afa91821561164c575b600092611618575b506115ec90612e45565b9760405194859416971695839092916001600160401b036020916040840195845216910152565b0390a4005b6115ec91925061163e9060203d8111611645575b6116368183610d1b565b810190612e30565b91906115e2565b503d61162c565b611654612e23565b6115da565b503461000e576116683661134c565b600061167e60018060a01b038254163314612f44565b81516001600160401b038111611767575b6116a38161169e601654611a22565b6134a2565b602080601f83116001146116df575082938293926116d4575b50508160011b916000199060031b1c19161760165580f35b0151905038806116bc565b90601f1983169461171260166000527fd833147d7dc355ba459fc788f669e58cfaf9dc25ddcd0702e87d69c7b512428990565b9285905b87821061174f575050836001959610611736575b505050811b0160165580f35b015160001960f88460031b161c1916905538808061172a565b80600185968294968601518155019501930190611716565b61176f610ce4565b61168f565b90611787602092828151948592016107c6565b0190565b503461000e57606036600319011261000e576117a561052f565b6024356001600160401b03811161000e5761087c9161180060206117d0611821943690600401610d9d565b61ffff604435946117e08661057e565b1660005260058252604060002082604051948386809551938492016107c6565b820190815203019020906001600160401b0316600052602052604060002090565b546040519081529081906020820190565b503461000e57600036600319011261000e57602060ff601854166040519015158152f35b503461000e57602036600319011261000e5760206109d0600435613dab565b503461000e576118843661058f565b91929493903033036118a85761068b6118a292610699973691610d66565b92613aa2565b60405162461bcd60e51b815260206004820152602660248201527f4e6f6e626c6f636b696e674c7a4170703a2063616c6c6572206d7573742062656044820152650204c7a4170760d41b6064820152608490fd5b503461000e57600036600319011261000e576020600f54604051908152f35b503461000e57602036600319011261000e57600435611939816109e2565b6001600160a01b0316801561196a57600052600960205261087c604060002054604051918291829190602083019252565b60405162461bcd60e51b815260206004820152602a60248201527f4552433732313a2062616c616e636520717565727920666f7220746865207a65604482015269726f206164647265737360b01b6064820152608490fd5b503461000e5760008060031936011261090557805481906001600160a01b038116906119ef338314612f44565b6001600160a01b03191682557f8be0079c531659141344cd1fd0a4f28419497f9722a3daafe3b4186f6b6457e08280a380f35b90600182811c92168015611a52575b6020831014611a3c57565b634e487b7160e01b600052602260045260246000fd5b91607f1691611a31565b9060009291805491611a6d83611a22565b918282526001938481169081600014611acf5750600114611a8f575b50505050565b90919394506000526020928360002092846000945b838610611abb575050505001019038808080611a89565b805485870183015294019385908201611aa4565b9294505050602093945060ff191683830152151560051b01019038808080611a89565b90611b0d611b069260405193848092611a5c565b0383610d1b565b565b503461000e57602036600319011261000e5761ffff611b2c61052f565b16600052600160205261087c61119d611b4f604060002060405192838092611a5c565b6040519182916020835260208301906107e9565b503461000e57602036600319011261000e57600435611b81816109e2565b6000546001600160a01b039190611b9b9083163314612f44565b166001600160601b0360a01b6013541617601355600080f35b503461000e57602036600319011261000e57611bdb60018060a01b03600054163314612f44565b600435601455005b503461000e57600036600319011261000e57602060ff60185460081c166040519015158152f35b503461000e5760008060031936011261090557611c3160018060a01b038254163314612f44565b60185461ff0060ff8260081c161560081b169061ff0019161760185580f35b503461000e57604036600319011261000e576020611c9b611c6f61052f565b61ffff611c7a610540565b91166000526002835260406000209061ffff16600052602052604060002090565b54604051908152f35b503461000e57600036600319011261000e576000546040516001600160a01b039091168152602090f35b503461000e57602036600319011261000e57611cf560018060a01b03600054163314612f44565b600435600e55005b503461000e57611d0c3661134c565b6000611d2260018060a01b038254163314612f44565b81516001600160401b038111611e0b575b611d4781611d42601554611a22565b6134f8565b602080601f8311600114611d8357508293829392611d78575b50508160011b916000199060031b1c19161760155580f35b015190503880611d60565b90601f19831694611db660156000527f55f448fdea98c4d29eb340757ef0a66cd03dbb9538908a6a81d96026b71ec47590565b9285905b878210611df3575050836001959610611dda575b505050811b0160155580f35b015160001960f88460031b161c19169055388080611dce565b80600185968294968601518155019501930190611dba565b611e13610ce4565b611d33565b503461000e57600036600319011261000e576004546040516001600160a01b039091168152602090f35b503461000e57600080600319360112610905576040519080600754611e6681611a22565b808552916001918083169081156108db5750600114611e8f5761087c8561087081870382610d1b565b9250600783527fa66cc928b5edb82af9bd49922954155ab7b0942694bea4ce44661d9a8736c6885b828410611ed25750505081016020016108708261087c610860565b80546020858701810191909152909301928101611eb7565b503461000e57600036600319011261000e576020600d54604051908152f35b503461000e57602036600319011261000e5761ffff611f2661052f565b16600052600160205261119d611f46604060002060405192838092611a5c565b805115611f645761087081611f5e61087c935161332f565b90613cab565b60405162461bcd60e51b815260206004820152601d60248201527f4c7a4170703a206e6f20747275737465642070617468207265636f72640000006044820152606490fd5b503461000e57600036600319011261000e576020600e54604051908152f35b503461000e57604036600319011261000e57600435611fe6816109e2565b602435611ff281610db8565b611ffb826147ef565b6001600160a01b0382169133831461207d578161203a61204b9233600052600b60205260406000209060018060a01b0316600052602052604060002090565b9060ff801983541691151516179055565b604051901515815233907f17307eab39ab6107e8899845ad3d59bd9653f200f220920489ca2b5937696c3190602090a3005b60405162461bcd60e51b815260206004820152601960248201527f4552433732313a20617070726f766520746f2063616c6c6572000000000000006044820152606490fd5b503461000e576120d13661112a565b91906000916120ea60018060a01b038454163314612f44565b6040519360208184828801376121156034878481013060601b85820152036014810189520187610d1b565b61ffff8316855260019081815260408620918751916001600160401b038311612253575b61214d836121478654611a22565b8661354e565b80601f84116001146121bd5750918080926121ac9695948a9b7f8c0400cfe2d1199b1a725c78960bcc2a344d869b80590d0f2bd005db15a572ce9b946121b2575b50501b916000199060031b1c19161790555b6040519384938461391c565b0390a180f35b01519250388061218e565b91939498601f1984166121d587600052602060002090565b938a905b82821061223c575050917f8c0400cfe2d1199b1a725c78960bcc2a344d869b80590d0f2bd005db15a572ce999a959391856121ac98969410612223575b505050811b0190556121a0565b015160001960f88460031b161c19169055388080612216565b8088869782949787015181550196019401906121d9565b61225b610ce4565b612139565b503461000e57606036600319011261000e5761228760018060a01b03600054163314612f44565b600435600f55602435601055604435601155005b503461000e57600036600319011261000e576040517f00000000000000000000000000000000000000000000000000000000000000006001600160a01b03168152602090f35b503461000e57608036600319011261000e576004356122ff816109e2565b6024359061230c826109e2565b606435906044356001600160401b03831161000e5761069993612336611291943690600401610d9d565b92336001600160a01b0382160361129657611281610ccc8433614004565b50604036600319011261000e576004356024356001600160401b0380821161000e573660238301121561000e57816004013590811161000e573660248260051b8401011161000e57600161245261244d612458936123c4846123bc60185460ff9060081c1690565b151514612ff5565b6123cf871515613054565b6123dd6011548811156130af565b600f54956123ee610f91898961317e565b6123fd610faa600e548a6131e7565b61244860145491604051602081019061243a8161242c33856014916001600160601b03199060601b1681520190565b03601f198101835282610d1b565b519020936024369201613271565b614784565b151590565b146132d5565b6000915b80831061246c5761069982600f55565b90610fd361247991613259565b919061245c565b503461000e57602036600319011261000e577f5db758e995a17ec1ad84bdef7e8c3293a0bd6179bcce400dff5d4c3d87db726b60206004356124c1816109e2565b6000546001600160a01b0391906124db9083163314612f44565b16806001600160601b0360a01b6004541617600455604051908152a1005b503461000e57600036600319011261000e5760206040516127108152f35b503461000e57602036600319011261000e5761087c611b4f600435613588565b503461000e57608036600319011261000e5761255161052f565b612559610540565b6064356001600160401b03811161000e57612578903690600401610551565b60018060a09493941b03916000948361259687958654163314612f44565b7f00000000000000000000000000000000000000000000000000000000000000001691823b15612636578490612603604051978896879586946332fb62e760e21b865261ffff809216600487015216602485015260443560448501526080606485015260848401916138fb565b03925af18015612629575b612616575080f35b8061262361099d92610cfb565b806107bb565b612631612e23565b61260e565b8480fd5b506126443661058f565b9161ffff8694929616600052600560205261268b81604060002060206040518092878b833787820190815203019020906001600160401b0316600052602052604060002090565b5491821561274d5761273c84836127357fc264d91f3adc5588250e1551f547752ca0cfa8f6b530d243b9f9f4cab10ea8e59a6000612721846127098e8a8f6127489f908f6126ef906126e26127039436908d610d66565b6020815191012014613ba1565b61ffff166000526005602052604060002090565b91613b88565b906001600160401b0316600052602052604060002090565b5561272d36878d610d66565b933691610d66565b9188613aa2565b60405195869586613bf7565b0390a1005b60405162461bcd60e51b815260206004820152602360248201527f4e6f6e626c6f636b696e674c7a4170703a206e6f2073746f726564206d65737360448201526261676560e81b6064820152608490fd5b503461000e57606036600319011261000e576127b861052f565b6127c0610540565b604435916127d960018060a01b03600054163314612f44565b8215612854576127487f9d5c7c0b934da8fefa9c7760c98383778a12dfbfc0c3b3106518f43fb9508ac09361ffff831660005260026020528061282e8560406000209061ffff16600052602052604060002090565b556040519384938460409194939294606082019561ffff80921683521660208201520152565b60405162461bcd60e51b81526020600482015260156024820152744c7a4170703a20696e76616c6964206d696e47617360581b6044820152606490fd5b503461000e57600036600319011261000e576020601054604051908152f35b60405190600082601754916128c483611a22565b8083529260019081811690811561294a57506001146128eb575b50611b0d92500383610d1b565b6017600090815291507fc624b66cc0138b8fabc209247f72d758e1cf3343756d543badbf24212bed8c155b84831061292f5750611b0d9350508101602001386128de565b81935090816020925483858a01015201910190918592612916565b905060209250611b0d94915060ff191682840152151560051b820101386128de565b604051906000826016549161298083611a22565b8083529260019081811690811561294a57506001146129a65750611b0d92500383610d1b565b6016600090815291507fd833147d7dc355ba459fc788f669e58cfaf9dc25ddcd0702e87d69c7b51242895b8483106129ea5750611b0d9350508101602001386128de565b81935090816020925483858a010152019101909185926129d1565b503461000e57600080600319360112610905576040519080601554612a2981611a22565b808552916001918083169081156108db5750600114612a525761087c8561087081870382610d1b565b9250601583527f55f448fdea98c4d29eb340757ef0a66cd03dbb9538908a6a81d96026b71ec4755b828410612a955750505081016020016108708261087c610860565b80546020858701810191909152909301928101612a7a565b503461000e57604036600319011261000e57602060ff612b0a600435612ad2816109e2565b60243590612adf826109e2565b60018060a01b0316600052600b845260406000209060018060a01b0316600052602052604060002090565b54166040519015158152f35b503461000e57612b253661112a565b9190600091612b3e60018060a01b038454163314612f44565b61ffff81168352600160209080825260408520916001600160401b038711612c6e575b612b7587612b6f8554611a22565b8561354e565b8590601f8811600114612bdc57509186808798936121ac957ffa41487ad5d6728f0b19276fa1eddc16558578f5109fc39d2dc33c3230470dab9993612bd1575b501b906000198460031b1c19161790556040519384938461391c565b880135925038612bb5565b90601f198816612bf185600052602060002090565b9288905b828210612c57575050918893917ffa41487ad5d6728f0b19276fa1eddc16558578f5109fc39d2dc33c3230470dab98996121ac969410612c3d575b505082811b0190556121a0565b870135600019600386901b60f8161c191690553880612c30565b808685968294968c01358155019501930190612bf5565b612c76610ce4565b612b61565b503461000e57602036600319011261000e57600435612c99816109e2565b6000546001600160a01b0390612cb29082163314612f44565b811615612cc25761069990613d64565b60405162461bcd60e51b815260206004820152602660248201527f4f776e61626c653a206e6577206f776e657220697320746865207a65726f206160448201526564647265737360d01b6064820152608490fd5b503461000e57608036600319011261000e5761087c612d3361052f565b612d3b610540565b90612d476044356109e2565b604051633d7b2f6f60e21b815261ffff91821660048201529116602482015230604482015260648035908201526000816084817f00000000000000000000000000000000000000000000000000000000000000006001600160a01b03165afa908115612de4575b600091612dc3575b506040519182918261080e565b612dde913d8091833e612dd68183610d1b565b8101906138d6565b38612db6565b612dec612e23565b612dae565b929190612e086020916040865260408601906107e9565b930152565b919082604091031261000e576020825192015190565b506040513d6000823e3d90fd5b9081602091031261000e575161081f8161057e565b612e5d906020604051928284809451938492016107c6565b810103902090565b612e6f8233614004565b15612ee857612e7d82613dab565b6001600160a01b03918216911603612e9857611b0d90614229565b60405162461bcd60e51b815260206004820152602260248201527f4f4e46543732313a2073656e642066726f6d20696e636f7272656374206f776e60448201526132b960f11b6064820152608490fd5b60405162461bcd60e51b815260206004820152602e60248201527f4f4e46543732313a2073656e642063616c6c6572206973206e6f74206f776e6560448201526d1c881b9bdc88185c1c1c9bdd995960921b6064820152608490fd5b15612f4b57565b606460405162461bcd60e51b815260206004820152602060248201527f4f776e61626c653a2063616c6c6572206973206e6f7420746865206f776e65726044820152fd5b15612f9657565b60405162461bcd60e51b815260206004820152603160248201527f416476616e6365644f4e46543732313a205075626c69632073616c6520686173604482015270206e6f742073746172746564207965742160781b6064820152608490fd5b15612ffc57565b60405162461bcd60e51b815260206004820152602a60248201527f416476616e6365644f4e46543732313a2053616c6520686173206e6f742073746044820152696172746564207965742160b01b6064820152608490fd5b1561305b57565b60405162461bcd60e51b815260206004820152602660248201527f416476616e6365644f4e46543732313a2043616e6e6f74206d696e74203020746044820152656f6b656e732160d01b6064820152608490fd5b156130b657565b60405162461bcd60e51b815260206004820152604b60248201527f416476616e6365644f4e46543732313a20596f752063616e6e6f74206d696e7460448201527f206d6f7265207468616e206d6178546f6b656e735065724d696e7420746f6b6560648201526a6e73206174206f6e63652160a81b608482015260a490fd5b50634e487b7160e01b600052601160045260246000fd5b90601f820180921161315a57565b611b0d613135565b906001820180921161315a57565b603001908160301161315a57565b9190820180921161315a57565b1561319257565b60405162461bcd60e51b815260206004820152602760248201527f416476616e6365644f4e46543732313a206d6178206d696e74206c696d6974206044820152661c995858da195960ca1b6064820152608490fd5b8181029291811591840414171561315a57565b1561320157565b60405162461bcd60e51b815260206004820152602a60248201527f416476616e6365644f4e46543732313a20496e636f6e73697374656e7420616d6044820152696f756e742073656e742160b01b6064820152608490fd5b6001906000198114613269570190565b611787613135565b9092916001600160401b0384116132c8575b8360051b604051926020809461329b82850182610d1b565b809781520191810192831161000e57905b8282106132b95750505050565b813581529083019083016132ac565b6132d0610ce4565b613283565b156132dc57565b60405162461bcd60e51b815260206004820152602560248201527f416476616e6365644f4e46543732313a20496e76616c6964204d65726b6c6520604482015264283937b7b360d91b6064820152608490fd5b60131981019190821161315a57565b60001981019190821161315a57565b9190820391821161315a57565b1561000e57565b6012546001600160a01b031680156133d7576000808080611b0d946133b58280808047956133a661339f613397600d548a6131e7565b612710900490565b809861334d565b908282156133ce575bf161335a565b6013546001600160a01b03168282156133ce57f161335a565b506108fc6133af565b60405162461bcd60e51b815260206004820152602560248201527f416476616e6365644f4e46543732313a2042656e6566696369617279206e6f74604482015264207365742160d81b6064820152608490fd5b818110613435575050565b6000815560010161342a565b90601f821161344e575050565b611b0d9160176000527fc624b66cc0138b8fabc209247f72d758e1cf3343756d543badbf24212bed8c15906020601f840160051c83019310613498575b601f0160051c019061342a565b909150819061348b565b90601f82116134af575050565b611b0d9160166000527fd833147d7dc355ba459fc788f669e58cfaf9dc25ddcd0702e87d69c7b5124289906020601f840160051c8301931061349857601f0160051c019061342a565b90601f8211613505575050565b611b0d9160156000527f55f448fdea98c4d29eb340757ef0a66cd03dbb9538908a6a81d96026b71ec475906020601f840160051c8301931061349857601f0160051c019061342a565b9190601f811161355d57505050565b611b0d926000526020600020906020601f840160051c8301931061349857601f0160051c019061342a565b6000818152600860205260409020546001600160a01b0316156135f4576018546135b69060101c60ff161590565b6135eb5761081f6135e59161242c6135d56135cf61296c565b9261469f565b6040519485936020850190611774565b90611774565b5061081f6128b0565b60405162461bcd60e51b815260206004820152602f60248201527f4552433732314d657461646174613a2055524920717565727920666f72206e6f60448201526e3732bc34b9ba32b73a103a37b5b2b760891b6064820152608490fd5b1561365857565b60405162461bcd60e51b815260206004820152602660248201527f4c7a4170703a20696e76616c696420736f757263652073656e64696e6720636f6044820152651b9d1c9858dd60d21b6064820152608490fd5b926136d161081f97959361ffff6136df9416865260c0602087015260c08601906107e9565b9084820360408601526107e9565b6001600160a01b0391821660608401529316608082015280830360a0909101526107e9565b9461372d9193929561ffff81166000526001602052613734604060002060405194858092611a5c565b0384610d1b565b8251156137c757613746855182613825565b7f00000000000000000000000000000000000000000000000000000000000000006001600160a01b031693843b1561000e5760009661379b91604051998a988997889662c5803160e81b8852600488016136ac565b03925af180156137ba575b6137ad5750565b80612623611b0d92610cfb565b6137c2612e23565b6137a6565b60405162461bcd60e51b815260206004820152603060248201527f4c7a4170703a2064657374696e6174696f6e20636861696e206973206e6f742060448201526f61207472757374656420736f7572636560801b6064820152608490fd5b61ffff16600052600360205260406000205490811561388a575b1161384657565b606460405162461bcd60e51b815260206004820152602060248201527f4c7a4170703a207061796c6f61642073697a6520697320746f6f206c617267656044820152fd5b612710915061383f565b81601f8201121561000e5780516138aa81610d3c565b926138b86040519485610d1b565b8184526020828401011161000e5761081f91602080850191016107c6565b9060208282031261000e5781516001600160401b03811161000e5761081f9201613894565b908060209392818452848401376000828201840152601f01601f1916010190565b60409061ffff61081f959316815281602082015201916138fb565b9290915a926040519360208501633356ae4560e11b815261ffff87166024870152608060448701526139a28661399461397360a48301876107e9565b6001600160401b0388166064840152828103602319016084840152886107e9565b03601f198101885287610d1b565b6000918291826139b0613d2b565b9851923090f13d609681116139ea575b8086526000602087013e156139d7575b5050505050565b6139e0946139f2565b38808080806139d0565b5060966139c0565b9193613a8f7fe183f33de2837795525b4792ca4cd60535bd77c53b7e7030060bfcf5734d6b0c95613a9d939561ffff81516020830120961695866000526005602052613a568361180060208b604060002082604051948386809551938492016107c6565b556001600160401b03613a7b604051988998895260a060208a015260a08901906107e9565b9216604087015285820360608701526107e9565b9083820360808501526107e9565b0390a1565b9290815182019060408383031261000e576020830151916001600160401b039081841161000e57613b4861ffff93613b4361129160146040613b108b60207f64e10c37f404d128982dce114f5d233c14c5c7f6d8db93099e3d99dacb9e27ba9c81613b769b01920101613894565b9a015199015160405190966020820190811182821017613b7b575b60405260008152613b3c8a886140ef565b898761457b565b612e45565b9560405193849360018060a01b0316981695839092916001600160401b036020916040840195845216910152565b0390a4565b613b83610ce4565b613b2b565b6020919283604051948593843782019081520301902090565b15613ba857565b60405162461bcd60e51b815260206004820152602160248201527f4e6f6e626c6f636b696e674c7a4170703a20696e76616c6964207061796c6f616044820152601960fa1b6064820152608490fd5b91613c239060609461ffff6001600160401b0394999897991685526080602086015260808501916138fb565b951660408201520152565b15613c3557565b60405162461bcd60e51b815260206004820152600e60248201526d736c6963655f6f766572666c6f7760901b6044820152606490fd5b15613c7257565b60405162461bcd60e51b8152602060048201526011602482015270736c6963655f6f75744f66426f756e647360781b6044820152606490fd5b613cbf82613cb88161314c565b1015613c2e565b613ccc8282511015613c6b565b81613ce4575050604051600081526020810160405290565b60405191601f811691821560051b808486010193838501920101905b808410613d185750508252601f01601f191660405290565b9092835181526020809101930190613d00565b6040519060c082018281106001600160401b03821117613d57575b6040526096825260a0366020840137565b613d5f610ce4565b613d46565b600080546001600160a01b039283166001600160a01b03198216811783559216907f8be0079c531659141344cd1fd0a4f28419497f9722a3daafe3b4186f6b6457e09080a3565b6000908152600860205260409020546001600160a01b03168015613dcc5790565b60405162461bcd60e51b815260206004820152602960248201527f4552433732313a206f776e657220717565727920666f72206e6f6e657869737460448201526832b73a103a37b5b2b760b91b6064820152608490fd5b15613e2a57565b60405162461bcd60e51b815260206004820152603860248201527f4552433732313a20617070726f76652063616c6c6572206973206e6f74206f7760448201527f6e6572206e6f7220617070726f76656420666f7220616c6c00000000000000006064820152608490fd5b6000818152600860205260409020546001600160a01b031615613ecd576000908152600a60205260409020546001600160a01b031690565b60405162461bcd60e51b815260206004820152602c60248201527f4552433732313a20617070726f76656420717565727920666f72206e6f6e657860448201526b34b9ba32b73a103a37b5b2b760a11b6064820152608490fd5b15613f2e57565b60405162461bcd60e51b815260206004820152603160248201527f4552433732313a207472616e736665722063616c6c6572206973206e6f74206f6044820152701ddb995c881b9bdc88185c1c1c9bdd9959607a1b6064820152608490fd5b60809060208152603260208201527f4552433732313a207472616e7366657220746f206e6f6e20455243373231526560408201527131b2b4bb32b91034b6b83632b6b2b73a32b960711b60608201520190565b15613fe757565b60405162461bcd60e51b81528061400060048201613f8d565b0390fd5b6000828152600860205260409020546001600160a01b0316156140955761402a82613dab565b6001600160a01b03828116828216811494909190851561407d575b505050821561405357505090565b6001600160a01b03166000908152600b6020526040902060ff92506140789190610a7b565b541690565b61408a9192939550613e95565b161491388080614045565b60405162461bcd60e51b815260206004820152602c60248201527f4552433732313a206f70657261746f7220717565727920666f72206e6f6e657860448201526b34b9ba32b73a103a37b5b2b760a11b6064820152608490fd5b6001600160a01b0381169081156141e5576000838152600860205260409020546001600160a01b03166141a0576001600160a01b038116600090815260096020526040902061417891906141438154613162565b9055614159846000526008602052604060002090565b80546001600160a01b0319166001600160a01b03909216919091179055565b60007fddf252ad1be2c89b69c2b068fc378daa952ba7f163c4a11628f55a4df523b3ef8180a4565b60405162461bcd60e51b815260206004820152601c60248201527f4552433732313a20746f6b656e20616c7265616479206d696e746564000000006044820152606490fd5b606460405162461bcd60e51b815260206004820152602060248201527f4552433732313a206d696e7420746f20746865207a65726f20616464726573736044820152fd5b61423281613dab565b61423b82614422565b6001600160a01b0316600081815260096020526040812080549192916000198101919082116142a6575b5582825260086020526040822080546001600160a01b03191690557fddf252ad1be2c89b69c2b068fc378daa952ba7f163c4a11628f55a4df523b3ef8280a4565b6142ae613135565b614265565b156142ba57565b60405162461bcd60e51b8152602060048201526024808201527f4552433732313a207472616e7366657220746f20746865207a65726f206164646044820152637265737360e01b6064820152608490fd5b9061431583613dab565b6001600160a01b0383811692909182168390036143cf576143646143a8928216946143418615156142b3565b61434a87614422565b6001600160a01b0316600090815260096020526040902090565b61436e815461333e565b90556001600160a01b03811660009081526009602052604090206143928154613162565b9055614159856000526008602052604060002090565b7fddf252ad1be2c89b69c2b068fc378daa952ba7f163c4a11628f55a4df523b3ef600080a4565b60405162461bcd60e51b815260206004820152602560248201527f4552433732313a207472616e736665722066726f6d20696e636f72726563742060448201526437bbb732b960d91b6064820152608490fd5b6000818152600a6020526040812080546001600160a01b03191690556001600160a01b0361444f83613dab565b167f8c5be1e5ebec7d5bd14f71427d1e84f3dd0314c0f7b2291e5b200ac8c7c3b9258280a4565b6000828152600a6020526040902080546001600160a01b0319166001600160a01b0383161790556001600160a01b03806144af84613dab565b169116907f8c5be1e5ebec7d5bd14f71427d1e84f3dd0314c0f7b2291e5b200ac8c7c3b925600080a4565b9081602091031261000e575161081f8161070d565b61081f939260809260018060a01b0316825260006020830152604082015281606082015201906107e9565b6001600160a01b03918216815291166020820152604081019190915260806060820181905261081f929101906107e9565b3d15614576573d9061455c82610d3c565b9161456a6040519384610d1b565b82523d6000602084013e565b606090565b909190803b15614634576145ad602091600093604051948580948193630a85bd0160e11b998a845233600485016144ef565b03926001600160a01b03165af160009181614604575b506145f6576145d061454b565b805190816145f15760405162461bcd60e51b81528061400060048201613f8d565b602001fd5b6001600160e01b0319161490565b61462691925060203d811161462d575b61461e8183610d1b565b8101906144da565b90386145c3565b503d614614565b505050600190565b92909190823b1561466f576145ad926020926000604051809681958294630a85bd0160e11b9a8b8552336004860161451a565b50505050600190565b908151811015614689570160200190565b634e487b7160e01b600052603260045260246000fd5b801561474857806000908282935b61473457506146bb83610d3c565b926146c96040519485610d1b565b80845281601f196146d983610d3c565b013660208701375b6146eb5750505090565b6146f49061333e565b90600a9061471f61470f614709848406613170565b60ff1690565b60f81b6001600160f81b03191690565b841a61472b8487614678565b530490816146e1565b92614740600a91613259565b9304806146ad565b50604051604081018181106001600160401b03821117614777575b60405260018152600360fc1b602082015290565b61477f610ce4565b614763565b9091906000915b81518310156147d3576020600584901b8301810151918281116147c057600052526147ba604060002092613259565b9161478b565b91600052526147ba604060002092613259565b9150501490565b9081602091031261000e575161081f81610db8565b6daaeb6d7670e522a718067333cd4e803b614808575050565b604051633185c44d60e21b81523060048201526001600160a01b038316602482015290602090829060449082905afa9081156148a1575b600091614873575b50156148505750565b604051633b79c77360e21b81526001600160a01b03919091166004820152602490fd5b614894915060203d811161489a575b61488c8183610d1b565b8101906147da565b38614847565b503d614882565b6148a9612e23565b61483f56fea2646970667358221220c3ae95a0228649701ba70b84309712cbd59e48e3602192bb68b7c440a59cd1ec64736f6c63430008110033a66cc928b5edb82af9bd49922954155ab7b0942694bea4ce44661d9a8736c688f652222313e28459528d920b65115c16c04f3efc82aaedc97be59f3f377c0d3fc624b66cc0138b8fabc209247f72d758e1cf3343756d543badbf24212bed8c15d833147d7dc355ba459fc788f669e58cfaf9dc25ddcd0702e87d69c7b5124289",
    "linkReferences": {}
  },
  "methodIdentifiers": {
    "DEFAULT_PAYLOAD_SIZE_LIMIT()": "c4461834",
    "OPERATOR_FILTER_REGISTRY()": "41f43434",
    "_publicSaleStarted()": "600e97f6",
    "_saleStarted()": "87c348bf",
    "approve(address,uint256)": "095ea7b3",
    "balanceOf(address)": "70a08231",
    "contractURI()": "e8a3d485",
    "estimateSendFee(uint16,bytes,uint256,bool,bytes)": "2a205e3d",
    "failedMessages(uint16,bytes,uint64)": "5b8c41e6",
    "flipPublicSaleStarted()": "1291e33e",
    "flipRevealed()": "3b2c3fb6",
    "flipSaleStarted()": "899d7b38",
    "forceResumeReceive(uint16,bytes)": "42d65a8d",
    "getApproved(uint256)": "081812fc",
    "getConfig(uint16,uint16,address,uint256)": "f5ecbdbc",
    "getTrustedRemoteAddress(uint16)": "9f38369a",
    "isApprovedForAll(address,address)": "e985e9c5",
    "isTrustedRemote(uint16,bytes)": "3d8b38f6",
    "lzEndpoint()": "b353aaa7",
    "lzReceive(uint16,bytes,uint64,bytes)": "001d3567",
    "maxMintId()": "e1d4c870",
    "maxTokensPerMint()": "17465471",
    "merkleRoot()": "2eb4a7ab",
    "minDstGasLookup(uint16,uint16)": "8cfd8f5c",
    "mint(uint256,bytes32[])": "ba41b0c6",
    "name()": "06fdde03",
    "nextMintId()": "6aa99da3",
    "nonblockingLzReceive(uint16,bytes,uint64,bytes)": "66ad5c8a",
    "owner()": "8da5cb5b",
    "ownerOf(uint256)": "6352211e",
    "payloadSizeLimitLookup(uint16)": "3f1f4fa4",
    "precrime()": "950c8a74",
    "price()": "a035b1fe",
    "publicMint(uint256)": "2db11544",
    "renounceOwnership()": "715018a6",
    "retryMessage(uint16,bytes,uint64,bytes)": "d1deba1f",
    "safeTransferFrom(address,address,uint256)": "42842e0e",
    "safeTransferFrom(address,address,uint256,bytes)": "b88d4fde",
    "sendFrom(address,uint16,bytes,uint256,address,address,bytes)": "51905636",
    "setApprovalForAll(address,bool)": "a22cb465",
    "setBaseURI(string)": "55f804b3",
    "setBeneficiary(address)": "1c31f710",
    "setConfig(uint16,uint16,uint256,bytes)": "cbed8b9c",
    "setContractURI(string)": "938e3d7b",
    "setHiddenMetadataUri(string)": "4fdd43cb",
    "setMerkleRoot(bytes32)": "7cb64759",
    "setMinDstGas(uint16,uint16,uint256)": "df2a5b3b",
    "setMintRange(uint256,uint256,uint256)": "a7afd9c6",
    "setPayloadSizeLimit(uint16,uint256)": "0df37483",
    "setPrecrime(address)": "baf3292d",
    "setPrice(uint256)": "91b7f5ed",
    "setReceiveVersion(uint16)": "10ddb137",
    "setSendVersion(uint16)": "07e0db17",
    "setTax(uint256)": "2e5bb6ff",
    "setTaxRecipient(address)": "78e3079e",
    "setTrustedRemote(uint16,bytes)": "eb8d72b7",
    "setTrustedRemoteAddress(uint16,bytes)": "a6c3d165",
    "supportsInterface(bytes4)": "01ffc9a7",
    "symbol()": "95d89b41",
    "tax()": "99c8d556",
    "tokenURI(uint256)": "c87b56dd",
    "transferFrom(address,address,uint256)": "23b872dd",
    "transferOwnership(address)": "f2fde38b",
    "trustedRemoteLookup(uint16)": "7533d788",
    "withdraw()": "3ccfd60b"
  },
  "id": 171
}