{
  "abi": [
    {
      "inputs": [
        {
          "internalType": "string",
          "name": "_name",
          "type": "string"
        },
        {
          "internalType": "string",
          "name": "_symbol",
          "type": "string"
        },
        {
          "internalType": "address",
          "name": "_layerZeroEndpoint",
          "type": "address"
        },
        {
          "internalType": "uint256",
          "name": "_startMintId",
          "type": "uint256"
        },
        {
          "internalType": "uint256",
          "name": "_endMintId",
          "type": "uint256"
        },
        {
          "internalType": "uint256",
          "name": "_maxTokensPerMint",
          "type": "uint256"
        },
        {
          "internalType": "string",
          "name": "_baseTokenURI",
          "type": "string"
        },
        {
          "internalType": "string",
          "name": "_hiddenURI",
          "type": "string"
        },
        {
          "internalType": "address",
          "name": "_stableToken",
          "type": "address"
        },
        {
          "internalType": "uint256",
          "name": "_tax",
          "type": "uint256"
        },
        {
          "internalType": "address",
          "name": "_taxRecipient",
          "type": "address"
        }
      ],
      "stateMutability": "nonpayable",
      "type": "constructor"
    },
    {
      "inputs": [
        {
          "internalType": "address",
          "name": "operator",
          "type": "address"
        }
      ],
      "name": "OperatorNotAllowed",
      "type": "error"
    },
    {
      "anonymous": false,
      "inputs": [
        {
          "indexed": true,
          "internalType": "address",
          "name": "owner",
          "type": "address"
        },
        {
          "indexed": true,
          "internalType": "address",
          "name": "approved",
          "type": "address"
        },
        {
          "indexed": true,
          "internalType": "uint256",
          "name": "tokenId",
          "type": "uint256"
        }
      ],
      "name": "Approval",
      "type": "event"
    },
    {
      "anonymous": false,
      "inputs": [
        {
          "indexed": true,
          "internalType": "address",
          "name": "owner",
          "type": "address"
        },
        {
          "indexed": true,
          "internalType": "address",
          "name": "operator",
          "type": "address"
        },
        {
          "indexed": false,
          "internalType": "bool",
          "name": "approved",
          "type": "bool"
        }
      ],
      "name": "ApprovalForAll",
      "type": "event"
    },
    {
      "anonymous": false,
      "inputs": [
        {
          "indexed": false,
          "internalType": "uint16",
          "name": "_srcChainId",
          "type": "uint16"
        },
        {
          "indexed": false,
          "internalType": "bytes",
          "name": "_srcAddress",
          "type": "bytes"
        },
        {
          "indexed": false,
          "internalType": "uint64",
          "name": "_nonce",
          "type": "uint64"
        },
        {
          "indexed": false,
          "internalType": "bytes",
          "name": "_payload",
          "type": "bytes"
        },
        {
          "indexed": false,
          "internalType": "bytes",
          "name": "_reason",
          "type": "bytes"
        }
      ],
      "name": "MessageFailed",
      "type": "event"
    },
    {
      "anonymous": false,
      "inputs": [
        {
          "indexed": true,
          "internalType": "address",
          "name": "previousOwner",
          "type": "address"
        },
        {
          "indexed": true,
          "internalType": "address",
          "name": "newOwner",
          "type": "address"
        }
      ],
      "name": "OwnershipTransferred",
      "type": "event"
    },
    {
      "anonymous": false,
      "inputs": [
        {
          "indexed": true,
          "internalType": "uint16",
          "name": "_srcChainId",
          "type": "uint16"
        },
        {
          "indexed": true,
          "internalType": "bytes",
          "name": "_srcAddress",
          "type": "bytes"
        },
        {
          "indexed": true,
          "internalType": "address",
          "name": "_toAddress",
          "type": "address"
        },
        {
          "indexed": false,
          "internalType": "uint256",
          "name": "_tokenId",
          "type": "uint256"
        },
        {
          "indexed": false,
          "internalType": "uint64",
          "name": "_nonce",
          "type": "uint64"
        }
      ],
      "name": "ReceiveFromChain",
      "type": "event"
    },
    {
      "anonymous": false,
      "inputs": [
        {
          "indexed": false,
          "internalType": "uint16",
          "name": "_srcChainId",
          "type": "uint16"
        },
        {
          "indexed": false,
          "internalType": "bytes",
          "name": "_srcAddress",
          "type": "bytes"
        },
        {
          "indexed": false,
          "internalType": "uint64",
          "name": "_nonce",
          "type": "uint64"
        },
        {
          "indexed": false,
          "internalType": "bytes32",
          "name": "_payloadHash",
          "type": "bytes32"
        }
      ],
      "name": "RetryMessageSuccess",
      "type": "event"
    },
    {
      "anonymous": false,
      "inputs": [
        {
          "indexed": true,
          "internalType": "address",
          "name": "_sender",
          "type": "address"
        },
        {
          "indexed": true,
          "internalType": "uint16",
          "name": "_dstChainId",
          "type": "uint16"
        },
        {
          "indexed": true,
          "internalType": "bytes",
          "name": "_toAddress",
          "type": "bytes"
        },
        {
          "indexed": false,
          "internalType": "uint256",
          "name": "_tokenId",
          "type": "uint256"
        },
        {
          "indexed": false,
          "internalType": "uint64",
          "name": "_nonce",
          "type": "uint64"
        }
      ],
      "name": "SendToChain",
      "type": "event"
    },
    {
      "anonymous": false,
      "inputs": [
        {
          "indexed": false,
          "internalType": "uint16",
          "name": "_dstChainId",
          "type": "uint16"
        },
        {
          "indexed": false,
          "internalType": "uint16",
          "name": "_type",
          "type": "uint16"
        },
        {
          "indexed": false,
          "internalType": "uint256",
          "name": "_minDstGas",
          "type": "uint256"
        }
      ],
      "name": "SetMinDstGas",
      "type": "event"
    },
    {
      "anonymous": false,
      "inputs": [
        {
          "indexed": false,
          "internalType": "address",
          "name": "precrime",
          "type": "address"
        }
      ],
      "name": "SetPrecrime",
      "type": "event"
    },
    {
      "anonymous": false,
      "inputs": [
        {
          "indexed": false,
          "internalType": "uint16",
          "name": "_remoteChainId",
          "type": "uint16"
        },
        {
          "indexed": false,
          "internalType": "bytes",
          "name": "_path",
          "type": "bytes"
        }
      ],
      "name": "SetTrustedRemote",
      "type": "event"
    },
    {
      "anonymous": false,
      "inputs": [
        {
          "indexed": false,
          "internalType": "uint16",
          "name": "_remoteChainId",
          "type": "uint16"
        },
        {
          "indexed": false,
          "internalType": "bytes",
          "name": "_remoteAddress",
          "type": "bytes"
        }
      ],
      "name": "SetTrustedRemoteAddress",
      "type": "event"
    },
    {
      "anonymous": false,
      "inputs": [
        {
          "indexed": true,
          "internalType": "address",
          "name": "from",
          "type": "address"
        },
        {
          "indexed": true,
          "internalType": "address",
          "name": "to",
          "type": "address"
        },
        {
          "indexed": true,
          "internalType": "uint256",
          "name": "tokenId",
          "type": "uint256"
        }
      ],
      "name": "Transfer",
      "type": "event"
    },
    {
      "inputs": [],
      "name": "DEFAULT_PAYLOAD_SIZE_LIMIT",
      "outputs": [
        {
          "internalType": "uint256",
          "name": "",
          "type": "uint256"
        }
      ],
      "stateMutability": "view",
      "type": "function"
    },
    {
      "inputs": [],
      "name": "OPERATOR_FILTER_REGISTRY",
      "outputs": [
        {
          "internalType": "contract IOperatorFilterRegistry",
          "name": "",
          "type": "address"
        }
      ],
      "stateMutability": "view",
      "type": "function"
    },
    {
      "inputs": [],
      "name": "_claimable",
      "outputs": [
        {
          "internalType": "bool",
          "name": "",
          "type": "bool"
        }
      ],
      "stateMutability": "view",
      "type": "function"
    },
    {
      "inputs": [],
      "name": "_claimableCollection",
      "outputs": [
        {
          "internalType": "contract IERC721",
          "name": "",
          "type": "address"
        }
      ],
      "stateMutability": "view",
      "type": "function"
    },
    {
      "inputs": [],
      "name": "_claimableTokenCount",
      "outputs": [
        {
          "internalType": "uint256",
          "name": "",
          "type": "uint256"
        }
      ],
      "stateMutability": "view",
      "type": "function"
    },
    {
      "inputs": [],
      "name": "_claimedTokenCount",
      "outputs": [
        {
          "internalType": "uint256",
          "name": "",
          "type": "uint256"
        }
      ],
      "stateMutability": "view",
      "type": "function"
    },
    {
      "inputs": [
        {
          "internalType": "uint256",
          "name": "",
          "type": "uint256"
        }
      ],
      "name": "_claimedTokens",
      "outputs": [
        {
          "internalType": "address",
          "name": "",
          "type": "address"
        }
      ],
      "stateMutability": "view",
      "type": "function"
    },
    {
      "inputs": [],
      "name": "_publicSaleStarted",
      "outputs": [
        {
          "internalType": "bool",
          "name": "",
          "type": "bool"
        }
      ],
      "stateMutability": "view",
      "type": "function"
    },
    {
      "inputs": [],
      "name": "_saleStarted",
      "outputs": [
        {
          "internalType": "bool",
          "name": "",
          "type": "bool"
        }
      ],
      "stateMutability": "view",
      "type": "function"
    },
    {
      "inputs": [
        {
          "internalType": "address",
          "name": "operator",
          "type": "address"
        },
        {
          "internalType": "uint256",
          "name": "tokenId",
          "type": "uint256"
        }
      ],
      "name": "approve",
      "outputs": [],
      "stateMutability": "nonpayable",
      "type": "function"
    },
    {
      "inputs": [
        {
          "internalType": "address",
          "name": "owner",
          "type": "address"
        }
      ],
      "name": "balanceOf",
      "outputs": [
        {
          "internalType": "uint256",
          "name": "",
          "type": "uint256"
        }
      ],
      "stateMutability": "view",
      "type": "function"
    },
    {
      "inputs": [
        {
          "internalType": "address",
          "name": "claimer",
          "type": "address"
        },
        {
          "internalType": "uint256",
          "name": "tokenId",
          "type": "uint256"
        }
      ],
      "name": "claim",
      "outputs": [],
      "stateMutability": "nonpayable",
      "type": "function"
    },
    {
      "inputs": [],
      "name": "contractURI",
      "outputs": [
        {
          "internalType": "string",
          "name": "",
          "type": "string"
        }
      ],
      "stateMutability": "view",
      "type": "function"
    },
    {
      "inputs": [
        {
          "internalType": "uint16",
          "name": "_dstChainId",
          "type": "uint16"
        },
        {
          "internalType": "bytes",
          "name": "_toAddress",
          "type": "bytes"
        },
        {
          "internalType": "uint256",
          "name": "_tokenId",
          "type": "uint256"
        },
        {
          "internalType": "bool",
          "name": "_useZro",
          "type": "bool"
        },
        {
          "internalType": "bytes",
          "name": "_adapterParams",
          "type": "bytes"
        }
      ],
      "name": "estimateSendFee",
      "outputs": [
        {
          "internalType": "uint256",
          "name": "nativeFee",
          "type": "uint256"
        },
        {
          "internalType": "uint256",
          "name": "zroFee",
          "type": "uint256"
        }
      ],
      "stateMutability": "view",
      "type": "function"
    },
    {
      "inputs": [
        {
          "internalType": "uint16",
          "name": "",
          "type": "uint16"
        },
        {
          "internalType": "bytes",
          "name": "",
          "type": "bytes"
        },
        {
          "internalType": "uint64",
          "name": "",
          "type": "uint64"
        }
      ],
      "name": "failedMessages",
      "outputs": [
        {
          "internalType": "bytes32",
          "name": "",
          "type": "bytes32"
        }
      ],
      "stateMutability": "view",
      "type": "function"
    },
    {
      "inputs": [],
      "name": "flipPublicSaleStarted",
      "outputs": [],
      "stateMutability": "nonpayable",
      "type": "function"
    },
    {
      "inputs": [],
      "name": "flipRevealed",
      "outputs": [],
      "stateMutability": "nonpayable",
      "type": "function"
    },
    {
      "inputs": [],
      "name": "flipSaleStarted",
      "outputs": [],
      "stateMutability": "nonpayable",
      "type": "function"
    },
    {
      "inputs": [
        {
          "internalType": "uint16",
          "name": "_srcChainId",
          "type": "uint16"
        },
        {
          "internalType": "bytes",
          "name": "_srcAddress",
          "type": "bytes"
        }
      ],
      "name": "forceResumeReceive",
      "outputs": [],
      "stateMutability": "nonpayable",
      "type": "function"
    },
    {
      "inputs": [
        {
          "internalType": "uint256",
          "name": "tokenId",
          "type": "uint256"
        }
      ],
      "name": "getApproved",
      "outputs": [
        {
          "internalType": "address",
          "name": "",
          "type": "address"
        }
      ],
      "stateMutability": "view",
      "type": "function"
    },
    {
      "inputs": [
        {
          "internalType": "uint16",
          "name": "_version",
          "type": "uint16"
        },
        {
          "internalType": "uint16",
          "name": "_chainId",
          "type": "uint16"
        },
        {
          "internalType": "address",
          "name": "",
          "type": "address"
        },
        {
          "internalType": "uint256",
          "name": "_configType",
          "type": "uint256"
        }
      ],
      "name": "getConfig",
      "outputs": [
        {
          "internalType": "bytes",
          "name": "",
          "type": "bytes"
        }
      ],
      "stateMutability": "view",
      "type": "function"
    },
    {
      "inputs": [
        {
          "internalType": "uint16",
          "name": "_remoteChainId",
          "type": "uint16"
        }
      ],
      "name": "getTrustedRemoteAddress",
      "outputs": [
        {
          "internalType": "bytes",
          "name": "",
          "type": "bytes"
        }
      ],
      "stateMutability": "view",
      "type": "function"
    },
    {
      "inputs": [
        {
          "internalType": "address",
          "name": "owner",
          "type": "address"
        },
        {
          "internalType": "address",
          "name": "operator",
          "type": "address"
        }
      ],
      "name": "isApprovedForAll",
      "outputs": [
        {
          "internalType": "bool",
          "name": "",
          "type": "bool"
        }
      ],
      "stateMutability": "view",
      "type": "function"
    },
    {
      "inputs": [
        {
          "internalType": "uint16",
          "name": "_srcChainId",
          "type": "uint16"
        },
        {
          "internalType": "bytes",
          "name": "_srcAddress",
          "type": "bytes"
        }
      ],
      "name": "isTrustedRemote",
      "outputs": [
        {
          "internalType": "bool",
          "name": "",
          "type": "bool"
        }
      ],
      "stateMutability": "view",
      "type": "function"
    },
    {
      "inputs": [],
      "name": "lzEndpoint",
      "outputs": [
        {
          "internalType": "contract ILayerZeroEndpoint",
          "name": "",
          "type": "address"
        }
      ],
      "stateMutability": "view",
      "type": "function"
    },
    {
      "inputs": [
        {
          "internalType": "uint16",
          "name": "_srcChainId",
          "type": "uint16"
        },
        {
          "internalType": "bytes",
          "name": "_srcAddress",
          "type": "bytes"
        },
        {
          "internalType": "uint64",
          "name": "_nonce",
          "type": "uint64"
        },
        {
          "internalType": "bytes",
          "name": "_payload",
          "type": "bytes"
        }
      ],
      "name": "lzReceive",
      "outputs": [],
      "stateMutability": "nonpayable",
      "type": "function"
    },
    {
      "inputs": [],
      "name": "maxMintId",
      "outputs": [
        {
          "internalType": "uint256",
          "name": "",
          "type": "uint256"
        }
      ],
      "stateMutability": "view",
      "type": "function"
    },
    {
      "inputs": [],
      "name": "maxTokensPerMint",
      "outputs": [
        {
          "internalType": "uint256",
          "name": "",
          "type": "uint256"
        }
      ],
      "stateMutability": "view",
      "type": "function"
    },
    {
      "inputs": [],
      "name": "merkleRoot",
      "outputs": [
        {
          "internalType": "bytes32",
          "name": "",
          "type": "bytes32"
        }
      ],
      "stateMutability": "view",
      "type": "function"
    },
    {
      "inputs": [
        {
          "internalType": "uint16",
          "name": "",
          "type": "uint16"
        },
        {
          "internalType": "uint16",
          "name": "",
          "type": "uint16"
        }
      ],
      "name": "minDstGasLookup",
      "outputs": [
        {
          "internalType": "uint256",
          "name": "",
          "type": "uint256"
        }
      ],
      "stateMutability": "view",
      "type": "function"
    },
    {
      "inputs": [
        {
          "internalType": "uint256",
          "name": "_nbTokens",
          "type": "uint256"
        },
        {
          "internalType": "address",
          "name": "minter",
          "type": "address"
        },
        {
          "internalType": "bytes32[]",
          "name": "_merkleProof",
          "type": "bytes32[]"
        }
      ],
      "name": "mintGasless",
      "outputs": [],
      "stateMutability": "nonpayable",
      "type": "function"
    },
    {
      "inputs": [],
      "name": "name",
      "outputs": [
        {
          "internalType": "string",
          "name": "",
          "type": "string"
        }
      ],
      "stateMutability": "view",
      "type": "function"
    },
    {
      "inputs": [],
      "name": "nextMintId",
      "outputs": [
        {
          "internalType": "uint256",
          "name": "",
          "type": "uint256"
        }
      ],
      "stateMutability": "view",
      "type": "function"
    },
    {
      "inputs": [
        {
          "internalType": "uint16",
          "name": "_srcChainId",
          "type": "uint16"
        },
        {
          "internalType": "bytes",
          "name": "_srcAddress",
          "type": "bytes"
        },
        {
          "internalType": "uint64",
          "name": "_nonce",
          "type": "uint64"
        },
        {
          "internalType": "bytes",
          "name": "_payload",
          "type": "bytes"
        }
      ],
      "name": "nonblockingLzReceive",
      "outputs": [],
      "stateMutability": "nonpayable",
      "type": "function"
    },
    {
      "inputs": [],
      "name": "owner",
      "outputs": [
        {
          "internalType": "address",
          "name": "",
          "type": "address"
        }
      ],
      "stateMutability": "view",
      "type": "function"
    },
    {
      "inputs": [
        {
          "internalType": "uint256",
          "name": "tokenId",
          "type": "uint256"
        }
      ],
      "name": "ownerOf",
      "outputs": [
        {
          "internalType": "address",
          "name": "",
          "type": "address"
        }
      ],
      "stateMutability": "view",
      "type": "function"
    },
    {
      "inputs": [
        {
          "internalType": "uint16",
          "name": "",
          "type": "uint16"
        }
      ],
      "name": "payloadSizeLimitLookup",
      "outputs": [
        {
          "internalType": "uint256",
          "name": "",
          "type": "uint256"
        }
      ],
      "stateMutability": "view",
      "type": "function"
    },
    {
      "inputs": [],
      "name": "precrime",
      "outputs": [
        {
          "internalType": "address",
          "name": "",
          "type": "address"
        }
      ],
      "stateMutability": "view",
      "type": "function"
    },
    {
      "inputs": [],
      "name": "price",
      "outputs": [
        {
          "internalType": "uint256",
          "name": "",
          "type": "uint256"
        }
      ],
      "stateMutability": "view",
      "type": "function"
    },
    {
      "inputs": [
        {
          "internalType": "uint256",
          "name": "_nbTokens",
          "type": "uint256"
        },
        {
          "internalType": "address",
          "name": "minter",
          "type": "address"
        }
      ],
      "name": "publicMintGasless",
      "outputs": [],
      "stateMutability": "nonpayable",
      "type": "function"
    },
    {
      "inputs": [],
      "name": "renounceOwnership",
      "outputs": [],
      "stateMutability": "nonpayable",
      "type": "function"
    },
    {
      "inputs": [
        {
          "internalType": "uint16",
          "name": "_srcChainId",
          "type": "uint16"
        },
        {
          "internalType": "bytes",
          "name": "_srcAddress",
          "type": "bytes"
        },
        {
          "internalType": "uint64",
          "name": "_nonce",
          "type": "uint64"
        },
        {
          "internalType": "bytes",
          "name": "_payload",
          "type": "bytes"
        }
      ],
      "name": "retryMessage",
      "outputs": [],
      "stateMutability": "payable",
      "type": "function"
    },
    {
      "inputs": [
        {
          "internalType": "address",
          "name": "from",
          "type": "address"
        },
        {
          "internalType": "address",
          "name": "to",
          "type": "address"
        },
        {
          "internalType": "uint256",
          "name": "tokenId",
          "type": "uint256"
        }
      ],
      "name": "safeTransferFrom",
      "outputs": [],
      "stateMutability": "nonpayable",
      "type": "function"
    },
    {
      "inputs": [
        {
          "internalType": "address",
          "name": "from",
          "type": "address"
        },
        {
          "internalType": "address",
          "name": "to",
          "type": "address"
        },
        {
          "internalType": "uint256",
          "name": "tokenId",
          "type": "uint256"
        },
        {
          "internalType": "bytes",
          "name": "data",
          "type": "bytes"
        }
      ],
      "name": "safeTransferFrom",
      "outputs": [],
      "stateMutability": "nonpayable",
      "type": "function"
    },
    {
      "inputs": [
        {
          "internalType": "address",
          "name": "_from",
          "type": "address"
        },
        {
          "internalType": "uint16",
          "name": "_dstChainId",
          "type": "uint16"
        },
        {
          "internalType": "bytes",
          "name": "_toAddress",
          "type": "bytes"
        },
        {
          "internalType": "uint256",
          "name": "_tokenId",
          "type": "uint256"
        },
        {
          "internalType": "address payable",
          "name": "_refundAddress",
          "type": "address"
        },
        {
          "internalType": "address",
          "name": "_zroPaymentAddress",
          "type": "address"
        },
        {
          "internalType": "bytes",
          "name": "_adapterParams",
          "type": "bytes"
        }
      ],
      "name": "sendFrom",
      "outputs": [],
      "stateMutability": "payable",
      "type": "function"
    },
    {
      "inputs": [
        {
          "internalType": "address",
          "name": "operator",
          "type": "address"
        },
        {
          "internalType": "bool",
          "name": "approved",
          "type": "bool"
        }
      ],
      "name": "setApprovalForAll",
      "outputs": [],
      "stateMutability": "nonpayable",
      "type": "function"
    },
    {
      "inputs": [
        {
          "internalType": "string",
          "name": "uri",
          "type": "string"
        }
      ],
      "name": "setBaseURI",
      "outputs": [],
      "stateMutability": "nonpayable",
      "type": "function"
    },
    {
      "inputs": [
        {
          "internalType": "address payable",
          "name": "_beneficiary",
          "type": "address"
        }
      ],
      "name": "setBeneficiary",
      "outputs": [],
      "stateMutability": "nonpayable",
      "type": "function"
    },
    {
      "inputs": [
        {
          "internalType": "uint16",
          "name": "_version",
          "type": "uint16"
        },
        {
          "internalType": "uint16",
          "name": "_chainId",
          "type": "uint16"
        },
        {
          "internalType": "uint256",
          "name": "_configType",
          "type": "uint256"
        },
        {
          "internalType": "bytes",
          "name": "_config",
          "type": "bytes"
        }
      ],
      "name": "setConfig",
      "outputs": [],
      "stateMutability": "nonpayable",
      "type": "function"
    },
    {
      "inputs": [
        {
          "internalType": "string",
          "name": "_contractURI",
          "type": "string"
        }
      ],
      "name": "setContractURI",
      "outputs": [],
      "stateMutability": "nonpayable",
      "type": "function"
    },
    {
      "inputs": [
        {
          "internalType": "string",
          "name": "_hiddenMetadataUri",
          "type": "string"
        }
      ],
      "name": "setHiddenMetadataUri",
      "outputs": [],
      "stateMutability": "nonpayable",
      "type": "function"
    },
    {
      "inputs": [
        {
          "internalType": "bytes32",
          "name": "_merkleRoot",
          "type": "bytes32"
        }
      ],
      "name": "setMerkleRoot",
      "outputs": [],
      "stateMutability": "nonpayable",
      "type": "function"
    },
    {
      "inputs": [
        {
          "internalType": "uint16",
          "name": "_dstChainId",
          "type": "uint16"
        },
        {
          "internalType": "uint16",
          "name": "_packetType",
          "type": "uint16"
        },
        {
          "internalType": "uint256",
          "name": "_minGas",
          "type": "uint256"
        }
      ],
      "name": "setMinDstGas",
      "outputs": [],
      "stateMutability": "nonpayable",
      "type": "function"
    },
    {
      "inputs": [
        {
          "internalType": "uint256",
          "name": "_startMintId",
          "type": "uint256"
        },
        {
          "internalType": "uint256",
          "name": "_endMintId",
          "type": "uint256"
        },
        {
          "internalType": "uint256",
          "name": "_maxTokensPerMint",
          "type": "uint256"
        }
      ],
      "name": "setMintRange",
      "outputs": [],
      "stateMutability": "nonpayable",
      "type": "function"
    },
    {
      "inputs": [
        {
          "internalType": "uint16",
          "name": "_dstChainId",
          "type": "uint16"
        },
        {
          "internalType": "uint256",
          "name": "_size",
          "type": "uint256"
        }
      ],
      "name": "setPayloadSizeLimit",
      "outputs": [],
      "stateMutability": "nonpayable",
      "type": "function"
    },
    {
      "inputs": [
        {
          "internalType": "address",
          "name": "_precrime",
          "type": "address"
        }
      ],
      "name": "setPrecrime",
      "outputs": [],
      "stateMutability": "nonpayable",
      "type": "function"
    },
    {
      "inputs": [
        {
          "internalType": "uint256",
          "name": "newPrice",
          "type": "uint256"
        }
      ],
      "name": "setPrice",
      "outputs": [],
      "stateMutability": "nonpayable",
      "type": "function"
    },
    {
      "inputs": [
        {
          "internalType": "uint16",
          "name": "_version",
          "type": "uint16"
        }
      ],
      "name": "setReceiveVersion",
      "outputs": [],
      "stateMutability": "nonpayable",
      "type": "function"
    },
    {
      "inputs": [
        {
          "internalType": "uint16",
          "name": "_version",
          "type": "uint16"
        }
      ],
      "name": "setSendVersion",
      "outputs": [],
      "stateMutability": "nonpayable",
      "type": "function"
    },
    {
      "inputs": [
        {
          "internalType": "address",
          "name": "_stableToken",
          "type": "address"
        }
      ],
      "name": "setStableToken",
      "outputs": [],
      "stateMutability": "nonpayable",
      "type": "function"
    },
    {
      "inputs": [
        {
          "internalType": "uint256",
          "name": "_tax",
          "type": "uint256"
        }
      ],
      "name": "setTax",
      "outputs": [],
      "stateMutability": "nonpayable",
      "type": "function"
    },
    {
      "inputs": [
        {
          "internalType": "address payable",
          "name": "_taxRecipient",
          "type": "address"
        }
      ],
      "name": "setTaxRecipient",
      "outputs": [],
      "stateMutability": "nonpayable",
      "type": "function"
    },
    {
      "inputs": [
        {
          "internalType": "uint16",
          "name": "_srcChainId",
          "type": "uint16"
        },
        {
          "internalType": "bytes",
          "name": "_path",
          "type": "bytes"
        }
      ],
      "name": "setTrustedRemote",
      "outputs": [],
      "stateMutability": "nonpayable",
      "type": "function"
    },
    {
      "inputs": [
        {
          "internalType": "uint16",
          "name": "_remoteChainId",
          "type": "uint16"
        },
        {
          "internalType": "bytes",
          "name": "_remoteAddress",
          "type": "bytes"
        }
      ],
      "name": "setTrustedRemoteAddress",
      "outputs": [],
      "stateMutability": "nonpayable",
      "type": "function"
    },
    {
      "inputs": [],
      "name": "stableToken",
      "outputs": [
        {
          "internalType": "contract IERC20",
          "name": "",
          "type": "address"
        }
      ],
      "stateMutability": "view",
      "type": "function"
    },
    {
      "inputs": [
        {
          "internalType": "uint256",
          "name": "claimableTokenCount",
          "type": "uint256"
        },
        {
          "internalType": "address",
          "name": "claimableCollection",
          "type": "address"
        }
      ],
      "name": "startClaim",
      "outputs": [],
      "stateMutability": "nonpayable",
      "type": "function"
    },
    {
      "inputs": [],
      "name": "stopClaim",
      "outputs": [],
      "stateMutability": "nonpayable",
      "type": "function"
    },
    {
      "inputs": [
        {
          "internalType": "bytes4",
          "name": "interfaceId",
          "type": "bytes4"
        }
      ],
      "name": "supportsInterface",
      "outputs": [
        {
          "internalType": "bool",
          "name": "",
          "type": "bool"
        }
      ],
      "stateMutability": "view",
      "type": "function"
    },
    {
      "inputs": [],
      "name": "symbol",
      "outputs": [
        {
          "internalType": "string",
          "name": "",
          "type": "string"
        }
      ],
      "stateMutability": "view",
      "type": "function"
    },
    {
      "inputs": [],
      "name": "tax",
      "outputs": [
        {
          "internalType": "uint256",
          "name": "",
          "type": "uint256"
        }
      ],
      "stateMutability": "view",
      "type": "function"
    },
    {
      "inputs": [
        {
          "internalType": "uint256",
          "name": "tokenId",
          "type": "uint256"
        }
      ],
      "name": "tokenURI",
      "outputs": [
        {
          "internalType": "string",
          "name": "",
          "type": "string"
        }
      ],
      "stateMutability": "view",
      "type": "function"
    },
    {
      "inputs": [
        {
          "internalType": "address",
          "name": "from",
          "type": "address"
        },
        {
          "internalType": "address",
          "name": "to",
          "type": "address"
        },
        {
          "internalType": "uint256",
          "name": "tokenId",
          "type": "uint256"
        }
      ],
      "name": "transferFrom",
      "outputs": [],
      "stateMutability": "nonpayable",
      "type": "function"
    },
    {
      "inputs": [
        {
          "internalType": "address",
          "name": "newOwner",
          "type": "address"
        }
      ],
      "name": "transferOwnership",
      "outputs": [],
      "stateMutability": "nonpayable",
      "type": "function"
    },
    {
      "inputs": [
        {
          "internalType": "uint16",
          "name": "",
          "type": "uint16"
        }
      ],
      "name": "trustedRemoteLookup",
      "outputs": [
        {
          "internalType": "bytes",
          "name": "",
          "type": "bytes"
        }
      ],
      "stateMutability": "view",
      "type": "function"
    },
    {
      "inputs": [],
      "name": "withdraw",
      "outputs": [],
      "stateMutability": "nonpayable",
      "type": "function"
    },
    {
      "stateMutability": "payable",
      "type": "receive"
    }
  ],
  "bytecode": {
    "object": "0x60a08060405234620008e45760009062005e698038038091620000238285620008e9565b833981019061016081830312620008e05780516001600160401b038111620008dc57826200005391830162000923565b60208201516001600160401b038111620006a057836200007591840162000923565b9362000084604084016200099a565b936060840151608085015160a08601519160c087015160018060401b038111620008d85784620000b691890162000923565b60e08801519094906001600160401b038111620008d45790620000db91890162000923565b98620000eb61010089016200099a565b96620001016101406101208b01519a016200099a565b8754336001600160a01b0319821681178a55919b91906001600160a01b03167f8be0079c531659141344cd1fd0a4f28419497f9722a3daafe3b4186f6b6457e08a80a36001600160a01b03166080528051906001600160401b038211620008c057600654600181811c91168015620008b5575b6020821014620008a1579081601f8493116200083f575b50602090601f8311600114620007c8578992620007bc575b50508160011b916000199060031b1c1916176006555b8051906001600160401b038211620007a857600754600181811c911680156200079d575b602082101462000789579081601f84931162000727575b50602090601f8311600114620006b0578892620006a4575b50508160011b916000199060031b1c1916176007555b6daaeb6d7670e522a718067333cd4e3b620005f6575b6001600c55600e859055600f55601055601155601280546001600160a01b031916331790558051906001600160401b038211620005e257601654600181811c91168015620005d7575b6020821014620005c3579081601f84931162000561575b50602090601f8311600114620004ea578492620004de575b50508160011b916000199060031b1c1916176016555b8451906001600160401b038211620004ca57601754600181811c91168015620004bf575b6020821014620004ab57601f811162000454575b50602090601f8311600114620003de5795829394959692620003d2575b50508160011b916000199060031b1c1916176017555b601880546301000000600160b81b03191691811b6301000000600160b81b0316919091179055600d55601380546001600160a01b0319166001600160a01b03929092169190911790556040516154399081620009b082396080518181816106e301528181610a0f01528181610c3e015281816110af01528181611476015281816117a10152818161272f015281816129100152818161314f01526140b10152f35b0151905038806200031b565b60178152601f1983169660008051602062005e2983398151915292915b8881106200043b5750836001959697981062000421575b505050811b0160175562000331565b015160001960f88460031b161c1916905538808062000412565b91926020600181928685015181550194019201620003fb565b6017825260008051602062005e29833981519152601f840160051c81019160208510620004a0575b601f0160051c01905b818110620004945750620002fe565b82815560010162000485565b90915081906200047c565b634e487b7160e01b82526022600452602482fd5b90607f1690620002ea565b634e487b7160e01b81526041600452602490fd5b015190503880620002b0565b6016855260008051602062005e498339815191529250601f198416855b8181106200054857509084600195949392106200052e575b505050811b01601655620002c6565b015160001960f88460031b161c191690553880806200051f565b9293602060018192878601518155019501930162000507565b6016855290915060008051602062005e49833981519152601f840160051c81019160208510620005b8575b90601f859493920160051c01905b818110620005a9575062000298565b8581558493506001016200059a565b90915081906200058c565b634e487b7160e01b84526022600452602484fd5b90607f169062000281565b634e487b7160e01b83526041600452602483fd5b6daaeb6d7670e522a718067333cd4e3b15620006a057604051633e9f1edf60e11b8152306004820152733cc6cdda760b79bafa08df41ecfa224f810dceb660248201528581604481836daaeb6d7670e522a718067333cd4e5af18015620006955762000664575b5062000238565b9094906001600160401b038111620006815760405293386200065d565b634e487b7160e01b82526041600452602482fd5b6040513d88823e3d90fd5b8480fd5b0151905038806200020c565b6007895260008051602062005de98339815191529250601f198416895b8181106200070e5750908460019594939210620006f4575b505050811b0160075562000222565b015160001960f88460031b161c19169055388080620006e5565b92936020600181928786015181550195019301620006cd565b6007895290915060008051602062005de9833981519152601f840160051c810191602085106200077e575b90601f859493920160051c01905b8181106200076f5750620001f4565b89815584935060010162000760565b909150819062000752565b634e487b7160e01b88526022600452602488fd5b90607f1690620001dd565b634e487b7160e01b87526041600452602487fd5b015190503880620001a3565b60068a5260008051602062005e098339815191529250601f1984168a5b8181106200082657509084600195949392106200080c575b505050811b01600655620001b9565b015160001960f88460031b161c19169055388080620007fd565b92936020600181928786015181550195019301620007e5565b60068a5290915060008051602062005e09833981519152601f840160051c8101916020851062000896575b90601f859493920160051c01905b8181106200088757506200018b565b8a815584935060010162000878565b90915081906200086a565b634e487b7160e01b89526022600452602489fd5b90607f169062000174565b634e487b7160e01b88526041600452602488fd5b8680fd5b8580fd5b8380fd5b8280fd5b600080fd5b601f909101601f19168101906001600160401b038211908210176200090d57604052565b634e487b7160e01b600052604160045260246000fd5b919080601f84011215620008e4578251906001600160401b0382116200090d57604051916020916200095f601f8301601f1916840185620008e9565b818452828287010111620008e45760005b8181106200098657508260009394955001015290565b858101830151848201840152820162000970565b51906001600160a01b0382168203620008e45756fe6080604052600436101561001b575b361561001957600080fd5b005b60003560e01c80621d3567146105f657806301ffc9a7146105ed57806306fdde03146105e457806307e0db17146105db578063081812fc146105d2578063095ea7b3146105c95780630df37483146105c057806310ddb137146105b75780631291e33e146105ae578063129559e6146105a5578063174654711461059c5780631c31f710146105935780631e730b571461058a57806323b872dd146105815780632a205e3d146105785780632e5bb6ff1461056f5780632eb4a7ab146105665780633288a0911461055d5780633b2c3fb6146105545780633ccfd60b1461054b5780633d8b38f6146105425780633f1f4fa41461053957806341f434341461053057806342842e0e1461052757806342d65a8d1461051e578063450a4b6d146105155780634fdd43cb1461050c578063519056361461050357806355f804b3146104fa5780635b8c41e6146104f1578063600e97f6146104e85780636352211e146104df57806366ad5c8a146104d65780636aa99da3146104cd57806370a08231146104c4578063715018a6146104bb5780637533d788146104b257806378e3079e146104a95780637cb64759146104a05780637fc071b31461049757806387c348bf1461048e578063899d7b38146104855780638cfd8f5c1461047c5780638da5cb5b1461047357806391b7f5ed1461046a578063938e3d7b14610461578063950c8a741461045857806395d89b411461044f57806399c8d556146104465780639f38369a1461043d578063a035b1fe14610434578063a12f86af1461042b578063a22cb46514610422578063a6c3d16514610419578063a746ec0514610410578063a7afd9c614610407578063a9d75b2b146103fe578063aad3ec96146103f5578063b353aaa7146103ec578063b88d4fde146103e3578063b91c7a8f146103da578063baf3292d146103d1578063c4461834146103c8578063c87b56dd146103bf578063cbed8b9c146103b6578063d1deba1f146103ad578063db1bc87b146103a4578063df2a5b3b1461039b578063e1d4c87014610392578063e8a3d48514610389578063e985e9c514610380578063eb8d72b714610377578063f2fde38b1461036e578063f5ecbdbc146103655763ff6c9bc90361000e576103606131c4565b61000e565b506103606130e9565b5061036061304e565b50610360612ee9565b50610360612e80565b50610360612dd8565b50610360612c64565b50610360612b71565b50610360612b16565b506103606129b2565b506103606128af565b5061036061288f565b50610360612871565b506103606127f8565b506103606127d1565b5061036061275e565b50610360612718565b50610360612561565b50610360612536565b506103606124fb565b506103606124dc565b5061036061233e565b50610360612244565b50610360612225565b50610360612206565b50610360612166565b50610360612147565b5061036061209f565b50610360612075565b50610360611f5a565b50610360611f2b565b50610360611f01565b50610360611ead565b50610360611e67565b50610360611e40565b50610360611dd5565b50610360611da6565b50610360611d55565b50610360611d01565b50610360611bb4565b50610360611b0d565b50610360611aee565b50610360611a67565b50610360611a48565b50610360611a24565b5061036061197d565b5061036061184b565b50610360611694565b50610360611579565b506103606114d6565b50610360611449565b506103606113ab565b50610360611381565b5061036061134b565b506103606112ee565b5061036061120a565b506103606111c2565b5061036061118d565b5061036061116e565b5061036061113f565b50610360610fce565b50610360610e8c565b50610360610e36565b50610360610de5565b50610360610dc6565b50610360610cd2565b50610360610c95565b50610360610c0a565b50610360610bc1565b50610360610ac6565b50610360610a84565b506103606109db565b506103606108f5565b506103606107f2565b506103606106cb565b6004359061ffff8216820361061057565b600080fd5b6024359061ffff8216820361061057565b9181601f84011215610610578235916001600160401b038311610610576020838186019501011161061057565b6001600160401b0381160361061057565b9060806003198301126106105760043561ffff8116810361061057916001600160401b039060243582811161061057816106a091600401610626565b939093926044356106b081610653565b92606435918211610610576106c791600401610626565b9091565b5034610610576106da36610664565b929493919291907f00000000000000000000000000000000000000000000000000000000000000006001600160a01b0316330361079b57610760610768926100199761075961073f61073a8a61ffff166000526001602052604060002090565b611ce4565b8051908184149182610791575b508161076e575b50613fba565b3691610f72565b923691610f72565b926142a0565b905061077b368486610f72565b6020815191012090602081519101201438610753565b151591503861074c565b60405162461bcd60e51b815260206004820152601e60248201527f4c7a4170703a20696e76616c696420656e64706f696e742063616c6c657200006044820152606490fd5b6001600160e01b031981160361061057565b5034610610576020366003190112610610576020600435610812816107e0565b6001600160e01b0319168015908115610831575b506040519015158152f35b6380ac58cd60e01b81149150811561087d575b8115610852575b5038610826565b637bb0080b60e01b81149150811561086c575b503861084b565b6301ffc9a760e01b14905038610865565b635b5e139f60e01b81149150610844565b600091031261061057565b60005b8381106108ac5750506000910152565b818101518382015260200161089c565b906020916108d581518092818552858086019101610899565b601f01601f1916010190565b9060206108f29281815201906108bc565b90565b5034610610576000806003193601126109d857604051908060065461091981611c14565b808552916001918083169081156109ae5750600114610953575b61094f8561094381870382610f27565b604051918291826108e1565b0390f35b9250600683527ff652222313e28459528d920b65115c16c04f3efc82aaedc97be59f3f377c0d3f5b8284106109965750505081016020016109438261094f610933565b8054602085870181019190915290930192810161097b565b86955061094f9693506020925061094394915060ff191682840152151560051b8201019293610933565b80fd5b503461061057600060203660031901126109d8576109f76105ff565b8160018060a01b03610a0d81835416331461334e565b7f00000000000000000000000000000000000000000000000000000000000000001691823b15610a8057602461ffff918360405195869485936307e0db1760e01b85521660048401525af18015610a73575b610a67575080f35b610a7090610eec565b80f35b610a7b61322d565b610a5f565b5080fd5b5034610610576020366003190112610610576020610aa36004356149fa565b6040516001600160a01b039091168152f35b6001600160a01b0381160361061057565b503461061057604036600319011261061057600435610ae481610ab5565b602435610af082615344565b610af981614910565b916001600160a01b038084169082168114610b725761001993610b26913314908115610b2b575b50614988565b614fbc565b6001600160a01b03166000908152600b60205260409020610b6c9150610b659033905b9060018060a01b0316600052602052604060002090565b5460ff1690565b38610b20565b60405162461bcd60e51b815260206004820152602160248201527f4552433732313a20617070726f76616c20746f2063757272656e74206f776e656044820152603960f91b6064820152608490fd5b50346106105760403660031901126106105761ffff610bde6105ff565b610bf360018060a01b0360005416331461334e565b166000526003602052602435604060002055600080f35b503461061057600060203660031901126109d857610c266105ff565b8160018060a01b03610c3c81835416331461334e565b7f00000000000000000000000000000000000000000000000000000000000000001691823b15610a8057602461ffff918360405195869485936310ddb13760e01b85521660048401525af18015610a7357610a67575080f35b5034610610576000806003193601126109d857610cbc60018060a01b03825416331461334e565b60185460ff80821615169060ff19161760185580f35b503461061057604036600319011261061057610019600435602435610cf681610ab5565b610d1573abcc9b596420a9e9172fd5938620e265a0f9df923314613399565b610d92601854610d2c600160ff83161515146133d7565b610d40600160ff8360081c1615151461343c565b610d4b84151561349a565b610d596011548511156134f4565b610d72610d6885600f546135b4565b60105410156135c1565b610d7f600e54151561361c565b60181c6001600160a01b0316151561367d565b610d9a613e8c565b60188054610dc1911c6001600160a01b0316610db884600e546136da565b90833091614770565b613740565b5034610610576000366003190112610610576020601154604051908152f35b503461061057602036600319011261061057600435610e0381610ab5565b6000546001600160a01b039190610e1d908316331461334e565b166001600160601b0360a01b6012541617601255600080f35b503461061057600036600319011261061057601c546040516001600160a01b039091168152602090f35b606090600319011261061057600435610e7881610ab5565b90602435610e8581610ab5565b9060443590565b503461061057610019610e9e36610e60565b91336001600160a01b03821603610ec7575b610ec2610ebd8433614b69565b614a8c565b614e51565b610ed033615344565b610eb0565b50634e487b7160e01b600052604160045260246000fd5b6001600160401b038111610eff57604052565b610f07610ed5565b604052565b604081019081106001600160401b03821117610eff57604052565b90601f801991011681019081106001600160401b03821117610eff57604052565b6020906001600160401b038111610f65575b601f01601f19160190565b610f6d610ed5565b610f5a565b929192610f7e82610f48565b91610f8c6040519384610f27565b829481845281830111610610578281602093846000960137010152565b9080601f83011215610610578160206108f293359101610f72565b8015150361061057565b50346106105760031960a03682011261061057610fe96105ff565b6001600160401b03916024358381116106105761100a903690600401610fa9565b906064359261101884610fc4565b608435948511610610576110ab6110569461ffff9361103e611064983690600401610fa9565b9060409889978851998a9160443590602084016131fb565b03601f1981018a5289610f27565b6110958751988997889763040a7bb160e41b895216600488015230602488015260a0604488015260a48701906108bc565b92151560648601528483030160848501526108bc565b03817f00000000000000000000000000000000000000000000000000000000000000006001600160a01b03165afa918215611132575b60009182936110fd575b50519081526020810191909152604090f35b8161112392945061094f93503d851161112b575b61111b8183610f27565b810190613217565b9290916110eb565b503d611111565b61113a61322d565b6110e1565b50346106105760203660031901126106105761116660018060a01b0360005416331461334e565b600435600d55005b5034610610576000366003190112610610576020601454604051908152f35b503461061057602036600319011261061057600435600052601b602052602060018060a01b0360406000205416604051908152f35b5034610610576000806003193601126109d8576111e960018060a01b03825416331461334e565b60185462ff000060ff8260101c161560101b169062ff000019161760185580f35b5034610610576000806003193601126109d857601254336001600160a01b03918216149081156112a7575b501561124357610a7061399e565b60405162461bcd60e51b815260206004820152603660248201527f416476616e6365644f4e4654313135354761736c6573733a2063616c6c6572206044820152756973206e6f74207468652062656e656669636961727960501b6064820152608490fd5b9050815416331438611235565b9060406003198301126106105760043561ffff811681036106105791602435906001600160401b038211610610576106c791600401610626565b503461061057602061ffff61133c611305366112b4565b939091166000526001845261132761132e604060002060405192838092611c4e565b0382610f27565b848151910120923691610f72565b82815191012014604051908152f35b50346106105760203660031901126106105761ffff6113686105ff565b1660005260036020526020604060002054604051908152f35b50346106105760003660031901126106105760206040516daaeb6d7670e522a718067333cd4e8152f35b50346106105761001961141b6113c036610e60565b6001600160a01b038316331415929091908361143b575b60405193602085018581106001600160401b0382111761142e575b60405260008552611420575b61140b610ebd8433614b69565b611416838383614e51565b615182565b614b45565b61142933615344565b6113fe565b611436610ed5565b6113f2565b61144433615344565b6113d7565b503461061057611458366112b4565b9190600092839160018060a01b0361147481855416331461334e565b7f00000000000000000000000000000000000000000000000000000000000000001690813b156114d257836114c095604051968795869485936342d65a8d60e01b855260048501614285565b03925af18015610a7357610a67575080f35b8380fd5b5034610610576060366003190112610610576024356114f481610ab5565b604435906001600160401b03908183116106105736602384011215610610578260040135918211610610573660248360051b85010111610610576024610019930190600435613778565b602060031982011261061057600435906001600160401b0382116106105780602383011215610610578160246108f293600401359101610f72565b5034610610576115883661153e565b600061159e60018060a01b03825416331461334e565b81516001600160401b038111611687575b6115c3816115be601754611c14565b613aba565b602080601f83116001146115ff575082938293926115f4575b50508160011b916000199060031b1c19161760175580f35b0151905038806115dc565b90601f1983169461163260176000527fc624b66cc0138b8fabc209247f72d758e1cf3343756d543badbf24212bed8c1590565b9285905b87821061166f575050836001959610611656575b505050811b0160175580f35b015160001960f88460031b161c1916905538808061164a565b80600185968294968601518155019501930190611636565b61168f610ed5565b6115af565b5060e0366003190112610610576004356116ad81610ab5565b6116b5610615565b6001600160401b039190604435838111610610576116d7903690600401610fa9565b9260643591608435906116e982610ab5565b60a4356116f581610ab5565b60c435938411610610578461ffff9361176e926117377f024797cc77ce15dc717112d54fb1df125fdfd8c81344fb046c5e074427ce1543973690600401610fa9565b91611742848b61326f565b6117668b611758604051968792602084016131fb565b03601f198101865285610f27565b34938661406d565b604051630f428ae960e31b815261ffff821660048201523060248201526001600160a01b039661180591906020826044817f00000000000000000000000000000000000000000000000000000000000000008d165afa91821561183e575b60009261180a575b506117de9061324f565b9760405194859416971695839092916001600160401b036020916040840195845216910152565b0390a4005b6117de9192506118309060203d8111611837575b6118288183610f27565b81019061323a565b91906117d4565b503d61181e565b61184661322d565b6117cc565b50346106105761185a3661153e565b600061187060018060a01b03825416331461334e565b81516001600160401b038111611959575b61189581611890601654611c14565b613b1b565b602080601f83116001146118d1575082938293926118c6575b50508160011b916000199060031b1c19161760165580f35b0151905038806118ae565b90601f1983169461190460166000527fd833147d7dc355ba459fc788f669e58cfaf9dc25ddcd0702e87d69c7b512428990565b9285905b878210611941575050836001959610611928575b505050811b0160165580f35b015160001960f88460031b161c1916905538808061191c565b80600185968294968601518155019501930190611908565b611961610ed5565b611881565b9061197960209282815194859201610899565b0190565b5034610610576060366003190112610610576119976105ff565b6024356001600160401b0381116106105761094f916119f260206119c2611a13943690600401610fa9565b61ffff604435946119d286610653565b166000526005825260406000208260405194838680955193849201610899565b820190815203019020906001600160401b0316600052602052604060002090565b546040519081529081906020820190565b503461061057600036600319011261061057602060ff601854166040519015158152f35b5034610610576020366003190112610610576020610aa3600435614910565b503461061057611a7636610664565b9192949390303303611a9a57610760611a9492610019973691610f72565b9261440b565b60405162461bcd60e51b815260206004820152602660248201527f4e6f6e626c6f636b696e674c7a4170703a2063616c6c6572206d7573742062656044820152650204c7a4170760d41b6064820152608490fd5b5034610610576000366003190112610610576020600f54604051908152f35b503461061057602036600319011261061057600435611b2b81610ab5565b6001600160a01b03168015611b5c57600052600960205261094f604060002054604051918291829190602083019252565b60405162461bcd60e51b815260206004820152602a60248201527f4552433732313a2062616c616e636520717565727920666f7220746865207a65604482015269726f206164647265737360b01b6064820152608490fd5b5034610610576000806003193601126109d857805481906001600160a01b03811690611be133831461334e565b6001600160a01b03191682557f8be0079c531659141344cd1fd0a4f28419497f9722a3daafe3b4186f6b6457e08280a380f35b90600182811c92168015611c44575b6020831014611c2e57565b634e487b7160e01b600052602260045260246000fd5b91607f1691611c23565b9060009291805491611c5f83611c14565b918282526001938481169081600014611cc15750600114611c81575b50505050565b90919394506000526020928360002092846000945b838610611cad575050505001019038808080611c7b565b805485870183015294019385908201611c96565b9294505050602093945060ff191683830152151560051b01019038808080611c7b565b90611cff611cf89260405193848092611c4e565b0383610f27565b565b50346106105760203660031901126106105761ffff611d1e6105ff565b16600052600160205261094f611327611d41604060002060405192838092611c4e565b6040519182916020835260208301906108bc565b503461061057602036600319011261061057600435611d7381610ab5565b6000546001600160a01b039190611d8d908316331461334e565b166001600160601b0360a01b6013541617601355600080f35b503461061057602036600319011261061057611dcd60018060a01b0360005416331461334e565b600435601455005b503461061057604036600319011261061057602435611df381610ab5565b6000546001600160a01b039190611e0d908316331461334e565b6018805460ff60b81b1916600160b81b179055600435601955601c80546001600160a01b03191692909116919091179055005b503461061057600036600319011261061057602060ff60185460081c166040519015158152f35b5034610610576000806003193601126109d857611e8e60018060a01b03825416331461334e565b60185461ff0060ff8260081c161560081b169061ff0019161760185580f35b5034610610576040366003190112610610576020611ef8611ecc6105ff565b61ffff611ed7610615565b91166000526002835260406000209061ffff16600052602052604060002090565b54604051908152f35b5034610610576000366003190112610610576000546040516001600160a01b039091168152602090f35b503461061057602036600319011261061057611f5260018060a01b0360005416331461334e565b600435600e55005b503461061057611f693661153e565b6000611f7f60018060a01b03825416331461334e565b81516001600160401b038111612068575b611fa481611f9f601554611c14565b613b71565b602080601f8311600114611fe057508293829392611fd5575b50508160011b916000199060031b1c19161760155580f35b015190503880611fbd565b90601f1983169461201360156000527f55f448fdea98c4d29eb340757ef0a66cd03dbb9538908a6a81d96026b71ec47590565b9285905b878210612050575050836001959610612037575b505050811b0160155580f35b015160001960f88460031b161c1916905538808061202b565b80600185968294968601518155019501930190612017565b612070610ed5565b611f90565b5034610610576000366003190112610610576004546040516001600160a01b039091168152602090f35b5034610610576000806003193601126109d85760405190806007546120c381611c14565b808552916001918083169081156109ae57506001146120ec5761094f8561094381870382610f27565b9250600783527fa66cc928b5edb82af9bd49922954155ab7b0942694bea4ce44661d9a8736c6885b82841061212f5750505081016020016109438261094f610933565b80546020858701810191909152909301928101612114565b5034610610576000366003190112610610576020600d54604051908152f35b50346106105760203660031901126106105761ffff6121836105ff565b1660005260016020526113276121a3604060002060405192838092611c4e565b8051156121c157610943816121bb61094f9351613973565b90614614565b60405162461bcd60e51b815260206004820152601d60248201527f4c7a4170703a206e6f20747275737465642070617468207265636f72640000006044820152606490fd5b5034610610576000366003190112610610576020600e54604051908152f35b5034610610576000366003190112610610576020601a54604051908152f35b50346106105760403660031901126106105760043561226281610ab5565b60243561226e81610fc4565b61227782615344565b6001600160a01b038216913383146122f957816122b66122c79233600052600b60205260406000209060018060a01b0316600052602052604060002090565b9060ff801983541691151516179055565b604051901515815233907f17307eab39ab6107e8899845ad3d59bd9653f200f220920489ca2b5937696c3190602090a3005b60405162461bcd60e51b815260206004820152601960248201527f4552433732313a20617070726f766520746f2063616c6c6572000000000000006044820152606490fd5b50346106105761234d366112b4565b919060009161236660018060a01b03845416331461334e565b6040519360208184828801376123916034878481013060601b85820152036014810189520187610f27565b61ffff8316855260019081815260408620918751916001600160401b0383116124cf575b6123c9836123c38654611c14565b86613bc7565b80601f84116001146124395750918080926124289695948a9b7f8c0400cfe2d1199b1a725c78960bcc2a344d869b80590d0f2bd005db15a572ce9b9461242e575b50501b916000199060031b1c19161790555b60405193849384614285565b0390a180f35b01519250388061240a565b91939498601f19841661245187600052602060002090565b938a905b8282106124b8575050917f8c0400cfe2d1199b1a725c78960bcc2a344d869b80590d0f2bd005db15a572ce999a959391856124289896941061249f575b505050811b01905561241c565b015160001960f88460031b161c19169055388080612492565b808886978294978701518155019601940190612455565b6124d7610ed5565b6123b5565b5034610610576000366003190112610610576020601954604051908152f35b50346106105760603660031901126106105761252260018060a01b0360005416331461334e565b600435600f55602435601055604435601155005b50346106105760003660031901126106105760188054604051911c6001600160a01b03168152602090f35b50346106105760403660031901126106105761001960043561258281610ab5565b6126c5816126a66024356125ab73abcc9b596420a9e9172fd5938620e265a0f9df923314613399565b6125c860016125c060185460ff9060b81c1690565b151514613cca565b6125e06125d6600f54613590565b6010541015613d28565b6125f86125ee601a54613590565b6019541015613d83565b601c5461268e90612619906001600160a01b03165b6001600160a01b031690565b6040516331a9108f60e11b81526004810184905290602090829060249082905afa90811561270b575b6000916126dd575b506001600160a01b039061266390821686831614613df4565b61268761267a84600052601b602052604060002090565b546001600160a01b031690565b1615613e40565b612696613e8c565b600052601b602052604060002090565b80546001600160a01b0319166001600160a01b03909216919091179055565b6126d86126d3601a546136ed565b601a55565b613705565b6126fe915060203d8111612704575b6126f68183610f27565b810190613ddf565b3861264a565b503d6126ec565b61271361322d565b612642565b5034610610576000366003190112610610576040517f00000000000000000000000000000000000000000000000000000000000000006001600160a01b03168152602090f35b50346106105760803660031901126106105760043561277c81610ab5565b6024359061278982610ab5565b606435906044356001600160401b03831161061057610019936127b361141b943690600401610fa9565b92336001600160a01b038216036114205761140b610ebd8433614b69565b503461061057600036600319011261061057602060ff60185460b81c166040519015158152f35b5034610610576020366003190112610610577f5db758e995a17ec1ad84bdef7e8c3293a0bd6179bcce400dff5d4c3d87db726b602060043561283981610ab5565b6000546001600160a01b039190612853908316331461334e565b16806001600160601b0360a01b6004541617600455604051908152a1005b50346106105760003660031901126106105760206040516127108152f35b50346106105760203660031901126106105761094f611d41600435613c01565b5034610610576080366003190112610610576128c96105ff565b6128d1610615565b6064356001600160401b038111610610576128f0903690600401610626565b60018060a09493941b03916000948361290e8795865416331461334e565b7f00000000000000000000000000000000000000000000000000000000000000001691823b156129ae57849061297b604051978896879586946332fb62e760e21b865261ffff80921660048701521660248501526044356044850152608060648501526084840191614264565b03925af180156129a1575b61298e575080f35b8061299b610a7092610eec565b8061088e565b6129a961322d565b612986565b8480fd5b506129bc36610664565b9161ffff86949296166000526005602052612a0381604060002060206040518092878b833787820190815203019020906001600160401b0316600052602052604060002090565b54918215612ac557612ab48483612aad7fc264d91f3adc5588250e1551f547752ca0cfa8f6b530d243b9f9f4cab10ea8e59a6000612a9984612a818e8a8f612ac09f908f612a6790612a5a612a7b9436908d610f72565b602081519101201461450a565b61ffff166000526005602052604060002090565b916144f1565b906001600160401b0316600052602052604060002090565b55612aa536878d610f72565b933691610f72565b918861440b565b60405195869586614560565b0390a1005b60405162461bcd60e51b815260206004820152602360248201527f4e6f6e626c6f636b696e674c7a4170703a206e6f2073746f726564206d65737360448201526261676560e81b6064820152608490fd5b503461061057602036600319011261061057600435612b3481610ab5565b612b4960018060a01b0360005416331461334e565b601880546301000000600160b81b03191691811b6301000000600160b81b0316919091179055005b503461061057606036600319011261061057612b8b6105ff565b612b93610615565b60443591612bac60018060a01b0360005416331461334e565b8215612c2757612ac07f9d5c7c0b934da8fefa9c7760c98383778a12dfbfc0c3b3106518f43fb9508ac09361ffff8316600052600260205280612c018560406000209061ffff16600052602052604060002090565b556040519384938460409194939294606082019561ffff80921683521660208201520152565b60405162461bcd60e51b81526020600482015260156024820152744c7a4170703a20696e76616c6964206d696e47617360581b6044820152606490fd5b5034610610576000366003190112610610576020601054604051908152f35b6040519060008260175491612c9783611c14565b80835292600190818116908115612d1d5750600114612cbe575b50611cff92500383610f27565b6017600090815291507fc624b66cc0138b8fabc209247f72d758e1cf3343756d543badbf24212bed8c155b848310612d025750611cff935050810160200138612cb1565b81935090816020925483858a01015201910190918592612ce9565b905060209250611cff94915060ff191682840152151560051b82010138612cb1565b6040519060008260165491612d5383611c14565b80835292600190818116908115612d1d5750600114612d795750611cff92500383610f27565b6016600090815291507fd833147d7dc355ba459fc788f669e58cfaf9dc25ddcd0702e87d69c7b51242895b848310612dbd5750611cff935050810160200138612cb1565b81935090816020925483858a01015201910190918592612da4565b5034610610576000806003193601126109d8576040519080601554612dfc81611c14565b808552916001918083169081156109ae5750600114612e255761094f8561094381870382610f27565b9250601583527f55f448fdea98c4d29eb340757ef0a66cd03dbb9538908a6a81d96026b71ec4755b828410612e685750505081016020016109438261094f610933565b80546020858701810191909152909301928101612e4d565b503461061057604036600319011261061057602060ff612edd600435612ea581610ab5565b60243590612eb282610ab5565b60018060a01b0316600052600b845260406000209060018060a01b0316600052602052604060002090565b54166040519015158152f35b503461061057612ef8366112b4565b9190600091612f1160018060a01b03845416331461334e565b61ffff81168352600160209080825260408520916001600160401b038711613041575b612f4887612f428554611c14565b85613bc7565b8590601f8811600114612faf5750918680879893612428957ffa41487ad5d6728f0b19276fa1eddc16558578f5109fc39d2dc33c3230470dab9993612fa4575b501b906000198460031b1c191617905560405193849384614285565b880135925038612f88565b90601f198816612fc485600052602060002090565b9288905b82821061302a575050918893917ffa41487ad5d6728f0b19276fa1eddc16558578f5109fc39d2dc33c3230470dab9899612428969410613010575b505082811b01905561241c565b870135600019600386901b60f8161c191690553880613003565b808685968294968c01358155019501930190612fc8565b613049610ed5565b612f34565b50346106105760203660031901126106105760043561306c81610ab5565b6000546001600160a01b0390613085908216331461334e565b81161561309557610019906146cd565b60405162461bcd60e51b815260206004820152602660248201527f4f776e61626c653a206e6577206f776e657220697320746865207a65726f206160448201526564647265737360d01b6064820152608490fd5b50346106105760803660031901126106105761094f6131066105ff565b61310e610615565b9061311a604435610ab5565b604051633d7b2f6f60e21b815261ffff91821660048201529116602482015230604482015260648035908201526000816084817f00000000000000000000000000000000000000000000000000000000000000006001600160a01b03165afa9081156131b7575b600091613196575b50604051918291826108e1565b6131b1913d8091833e6131a98183610f27565b81019061423f565b38613189565b6131bf61322d565b613181565b5034610610576000806003193601126109d8576131eb60018060a01b03825416331461334e565b6018805460ff60b81b1916905580f35b9291906132126020916040865260408601906108bc565b930152565b9190826040910312610610576020825192015190565b506040513d6000823e3d90fd5b9081602091031261061057516108f281610653565b61326790602060405192828480945193849201610899565b810103902090565b6132798233614b69565b156132f25761328782614910565b6001600160a01b039182169116036132a257611cff90614d6f565b60405162461bcd60e51b815260206004820152602260248201527f4f4e46543732313a2073656e642066726f6d20696e636f7272656374206f776e60448201526132b960f11b6064820152608490fd5b60405162461bcd60e51b815260206004820152602e60248201527f4f4e46543732313a2073656e642063616c6c6572206973206e6f74206f776e6560448201526d1c881b9bdc88185c1c1c9bdd995960921b6064820152608490fd5b1561335557565b606460405162461bcd60e51b815260206004820152602060248201527f4f776e61626c653a2063616c6c6572206973206e6f7420746865206f776e65726044820152fd5b156133a057565b60405162461bcd60e51b815260206004820152600f60248201526e6f6e6c7947656c61746f52656c617960881b6044820152606490fd5b156133de57565b60405162461bcd60e51b815260206004820152603060248201527f4f4e46543732314761736c6573733a205075626c69632073616c65206861732060448201526f6e6f742073746172746564207965742160801b6064820152608490fd5b1561344357565b60405162461bcd60e51b815260206004820152602960248201527f4f4e46543732314761736c6573733a2053616c6520686173206e6f742073746160448201526872746564207965742160b81b6064820152608490fd5b156134a157565b60405162461bcd60e51b815260206004820152602560248201527f4f4e46543732314761736c6573733a2043616e6e6f74206d696e74203020746f6044820152646b656e732160d81b6064820152608490fd5b156134fb57565b60405162461bcd60e51b815260206004820152604a60248201527f4f4e46543732314761736c6573733a20596f752063616e6e6f74206d696e742060448201527f6d6f7265207468616e206d6178546f6b656e735065724d696e7420746f6b656e60648201526973206174206f6e63652160b01b608482015260a490fd5b50634e487b7160e01b600052601160045260246000fd5b906001820180921161359e57565b611cff613579565b90601f820180921161359e57565b9190820180921161359e57565b156135c857565b60405162461bcd60e51b815260206004820152602660248201527f4f4e46543732314761736c6573733a206d6178206d696e74206c696d69742072604482015265195858da195960d21b6064820152608490fd5b1561362357565b60405162461bcd60e51b815260206004820152602c60248201527f4f4e46543732314761736c6573733a20796f75206e65656420746f207365742060448201526b737461626c6520707269636560a01b6064820152608490fd5b1561368457565b60405162461bcd60e51b815260206004820152602860248201527f4f4e46543732314761736c6573733a206e6f7420737570706f727420737461626044820152673632903a37b5b2b760c11b6064820152608490fd5b8181029291811591840414171561359e57565b60019060001981146136fd570190565b611979613579565b600f54906000905b6001821061371c575050600f55565b909161372a61373a916136ed565b926137358484614c54565b6136ed565b9061370d565b600f54916000915b81831061375757505050600f55565b909192613766613771916136ed565b936137358584614c54565b9190613748565b916001613848613843611cff96610d92946137a873abcc9b596420a9e9172fd5938620e265a0f9df923314613399565b6137c4856137bc60185460ff9060081c1690565b15151461343c565b6137cf88151561349a565b6137dd6011548911156134f4565b6137ec610d6889600f546135b4565b601454604051606089901b6bffffffffffffffffffffffff191660208201908152603482018b9052919261383e92909161383381605481015b03601f198101835282610f27565b51902093369161384e565b6152ee565b151590565b146138b2565b9092916001600160401b0384116138a5575b8360051b604051926020809461387882850182610f27565b809781520191810192831161061057905b8282106138965750505050565b81358152908301908301613889565b6138ad610ed5565b613860565b156138b957565b60405162461bcd60e51b8152602060048201526024808201527f4f4e46543732314761736c6573733a20496e76616c6964204d65726b6c6520506044820152633937b7b360e11b6064820152608490fd5b1561391157565b60405162461bcd60e51b815260206004820152602560248201527f416476616e6365644f4e46543732313a2042656e6566696369617279206e6f74604482015264207365742160d81b6064820152608490fd5b90816020910312610610575190565b60131981019190821161359e57565b60001981019190821161359e57565b9190820391821161359e57565b601254611cff906001600160a01b03906139bb908216151561390a565b60188054901c6001600160a01b03166040516370a0823160e01b815230600482015291602083806024810103818486165afa928315613a96575b600093613a66575b50613a37613a18613a10600d54866136da565b612710900490565b60135490938491613a31906001600160a01b031661260d565b90614714565b60188054613a5e911c6001600160a01b03166012549093906001600160a01b031694613991565b921690614714565b613a8891935060203d8111613a8f575b613a808183610f27565b810190613964565b91386139fd565b503d613a76565b613a9e61322d565b6139f5565b818110613aae575050565b60008155600101613aa3565b90601f8211613ac7575050565b611cff9160176000527fc624b66cc0138b8fabc209247f72d758e1cf3343756d543badbf24212bed8c15906020601f840160051c83019310613b11575b601f0160051c0190613aa3565b9091508190613b04565b90601f8211613b28575050565b611cff9160166000527fd833147d7dc355ba459fc788f669e58cfaf9dc25ddcd0702e87d69c7b5124289906020601f840160051c83019310613b1157601f0160051c0190613aa3565b90601f8211613b7e575050565b611cff9160156000527f55f448fdea98c4d29eb340757ef0a66cd03dbb9538908a6a81d96026b71ec475906020601f840160051c83019310613b1157601f0160051c0190613aa3565b9190601f8111613bd657505050565b611cff926000526020600020906020601f840160051c83019310613b1157601f0160051c0190613aa3565b6000818152600860205260409020546001600160a01b031615613c6d57601854613c2f9060101c60ff161590565b613c64576108f2613c5e91613825613c4e613c48612d3f565b92615225565b6040519485936020850190611966565b90611966565b506108f2612c83565b60405162461bcd60e51b815260206004820152602f60248201527f4552433732314d657461646174613a2055524920717565727920666f72206e6f60448201526e3732bc34b9ba32b73a103a37b5b2b760891b6064820152608490fd5b15613cd157565b60405162461bcd60e51b815260206004820152602960248201527f456c656d656e744f4e46543732313a2053616c6520686173206e6f742073746160448201526872746564207965742160b81b6064820152608490fd5b15613d2f57565b60405162461bcd60e51b815260206004820152602660248201527f456c656d656e744f4e46543732313a206d6178206d696e74206c696d69742072604482015265195858da195960d21b6064820152608490fd5b15613d8a57565b60405162461bcd60e51b815260206004820152602760248201527f456c656d656e744f4e46543732313a206d617820636c61696d206c696d6974206044820152661c995858da195960ca1b6064820152608490fd5b9081602091031261061057516108f281610ab5565b15613dfb57565b60405162461bcd60e51b815260206004820152601c60248201527f456c656d656e744f4e46543732313a206e6f74206f776e6572206f66000000006044820152606490fd5b15613e4757565b60405162461bcd60e51b815260206004820152601f60248201527f456c656d656e744f4e46543732313a20616c726561647920636c61696d6564006044820152606490fd5b611cff601f1936013560471936013560601c60331936013560601c9190918115613fb5576001600160a01b0390811673eeeeeeeeeeeeeeeeeeeeeeeeeeeeeeeeeeeeeeee8103613faa5750814710613f6557600092839283928392165af1613ef2615091565b5015613efa57565b60405162461bcd60e51b815260206004820152603a60248201527f416464726573733a20756e61626c6520746f2073656e642076616c75652c207260448201527f6563697069656e74206d617920686176652072657665727465640000000000006064820152608490fd5b60405162461bcd60e51b815260206004820152601d60248201527f416464726573733a20696e73756666696369656e742062616c616e63650000006044820152606490fd5b611cff939150614714565b505050565b15613fc157565b60405162461bcd60e51b815260206004820152602660248201527f4c7a4170703a20696e76616c696420736f757263652073656e64696e6720636f6044820152651b9d1c9858dd60d21b6064820152608490fd5b9261403a6108f297959361ffff6140489416865260c0602087015260c08601906108bc565b9084820360408601526108bc565b6001600160a01b0391821660608401529316608082015280830360a0909101526108bc565b946140969193929561ffff8116600052600160205261409d604060002060405194858092611c4e565b0384610f27565b825115614130576140af85518261418e565b7f00000000000000000000000000000000000000000000000000000000000000006001600160a01b031693843b156106105760009661410491604051998a988997889662c5803160e81b885260048801614015565b03925af18015614123575b6141165750565b8061299b611cff92610eec565b61412b61322d565b61410f565b60405162461bcd60e51b815260206004820152603060248201527f4c7a4170703a2064657374696e6174696f6e20636861696e206973206e6f742060448201526f61207472757374656420736f7572636560801b6064820152608490fd5b61ffff1660005260036020526040600020549081156141f3575b116141af57565b606460405162461bcd60e51b815260206004820152602060248201527f4c7a4170703a207061796c6f61642073697a6520697320746f6f206c617267656044820152fd5b61271091506141a8565b81601f8201121561061057805161421381610f48565b926142216040519485610f27565b81845260208284010111610610576108f29160208085019101610899565b906020828203126106105781516001600160401b038111610610576108f292016141fd565b908060209392818452848401376000828201840152601f01601f1916010190565b60409061ffff6108f295931681528160208201520191614264565b9290915a926040519360208501633356ae4560e11b815261ffff871660248701526080604487015261430b866142fd6142dc60a48301876108bc565b6001600160401b0388166064840152828103602319016084840152886108bc565b03601f198101885287610f27565b600091829182614319614694565b9851923090f13d60968111614353575b8086526000602087013e15614340575b5050505050565b6143499461435b565b3880808080614339565b506096614329565b91936143f87fe183f33de2837795525b4792ca4cd60535bd77c53b7e7030060bfcf5734d6b0c95614406939561ffff815160208301209616958660005260056020526143bf836119f260208b60406000208260405194838680955193849201610899565b556001600160401b036143e4604051988998895260a060208a015260a08901906108bc565b9216604087015285820360608701526108bc565b9083820360808501526108bc565b0390a1565b92908151820190604083830312610610576020830151916001600160401b0390818411610610576144b161ffff936144ac61141b601460406144798b60207f64e10c37f404d128982dce114f5d233c14c5c7f6d8db93099e3d99dacb9e27ba9c816144df9b019201016141fd565b9a0151990151604051909660208201908111828210176144e4575b604052600081526144a58a88614c54565b89876150c1565b61324f565b9560405193849360018060a01b0316981695839092916001600160401b036020916040840195845216910152565b0390a4565b6144ec610ed5565b614494565b6020919283604051948593843782019081520301902090565b1561451157565b60405162461bcd60e51b815260206004820152602160248201527f4e6f6e626c6f636b696e674c7a4170703a20696e76616c6964207061796c6f616044820152601960fa1b6064820152608490fd5b9161458c9060609461ffff6001600160401b039499989799168552608060208601526080850191614264565b951660408201520152565b1561459e57565b60405162461bcd60e51b815260206004820152600e60248201526d736c6963655f6f766572666c6f7760901b6044820152606490fd5b156145db57565b60405162461bcd60e51b8152602060048201526011602482015270736c6963655f6f75744f66426f756e647360781b6044820152606490fd5b61462882614621816135a6565b1015614597565b61463582825110156145d4565b8161464d575050604051600081526020810160405290565b60405191601f811691821560051b808486010193838501920101905b8084106146815750508252601f01601f191660405290565b9092835181526020809101930190614669565b6040519060c082018281106001600160401b038211176146c0575b6040526096825260a0366020840137565b6146c8610ed5565b6146af565b600080546001600160a01b039283166001600160a01b03198216811783559216907f8be0079c531659141344cd1fd0a4f28419497f9722a3daafe3b4186f6b6457e09080a3565b60405163a9059cbb60e01b60208201526001600160a01b039092166024830152604480830193909352918152611cff91608082016001600160401b03811183821017614763575b60405261483b565b61476b610ed5565b61475b565b6040516323b872dd60e01b60208201526001600160a01b039283166024820152929091166044830152606480830193909352918152611cff9160a082018281106001600160401b038211176147635760405261483b565b9081602091031261061057516108f281610fc4565b156147e357565b60405162461bcd60e51b815260206004820152602a60248201527f5361666545524332303a204552433230206f7065726174696f6e20646964206e6044820152691bdd081cdd58d8d9595960b21b6064820152608490fd5b6040516001600160a01b03919091169161485482610f0c565b6020928383527f5361666545524332303a206c6f772d6c6576656c2063616c6c206661696c656484840152803b156148cb57600082819282876148a69796519301915af16148a0615091565b906151be565b805190816148b357505050565b82611cff936148c69383010191016147c7565b6147dc565b60405162461bcd60e51b815260048101859052601d60248201527f416464726573733a2063616c6c20746f206e6f6e2d636f6e74726163740000006044820152606490fd5b6000908152600860205260409020546001600160a01b031680156149315790565b60405162461bcd60e51b815260206004820152602960248201527f4552433732313a206f776e657220717565727920666f72206e6f6e657869737460448201526832b73a103a37b5b2b760b91b6064820152608490fd5b1561498f57565b60405162461bcd60e51b815260206004820152603860248201527f4552433732313a20617070726f76652063616c6c6572206973206e6f74206f7760448201527f6e6572206e6f7220617070726f76656420666f7220616c6c00000000000000006064820152608490fd5b6000818152600860205260409020546001600160a01b031615614a32576000908152600a60205260409020546001600160a01b031690565b60405162461bcd60e51b815260206004820152602c60248201527f4552433732313a20617070726f76656420717565727920666f72206e6f6e657860448201526b34b9ba32b73a103a37b5b2b760a11b6064820152608490fd5b15614a9357565b60405162461bcd60e51b815260206004820152603160248201527f4552433732313a207472616e736665722063616c6c6572206973206e6f74206f6044820152701ddb995c881b9bdc88185c1c1c9bdd9959607a1b6064820152608490fd5b60809060208152603260208201527f4552433732313a207472616e7366657220746f206e6f6e20455243373231526560408201527131b2b4bb32b91034b6b83632b6b2b73a32b960711b60608201520190565b15614b4c57565b60405162461bcd60e51b815280614b6560048201614af2565b0390fd5b6000828152600860205260409020546001600160a01b031615614bfa57614b8f82614910565b6001600160a01b038281168282168114949091908515614be2575b5050508215614bb857505090565b6001600160a01b03166000908152600b6020526040902060ff9250614bdd9190610b4e565b541690565b614bef91929395506149fa565b161491388080614baa565b60405162461bcd60e51b815260206004820152602c60248201527f4552433732313a206f70657261746f7220717565727920666f72206e6f6e657860448201526b34b9ba32b73a103a37b5b2b760a11b6064820152608490fd5b6001600160a01b038116908115614d2b576000838152600860205260409020546001600160a01b0316614ce6576001600160a01b0381166000908152600960205260409020614cbe9190614ca88154613590565b90556126a6846000526008602052604060002090565b60007fddf252ad1be2c89b69c2b068fc378daa952ba7f163c4a11628f55a4df523b3ef8180a4565b60405162461bcd60e51b815260206004820152601c60248201527f4552433732313a20746f6b656e20616c7265616479206d696e746564000000006044820152606490fd5b606460405162461bcd60e51b815260206004820152602060248201527f4552433732313a206d696e7420746f20746865207a65726f20616464726573736044820152fd5b614d7881614910565b614d8182614f68565b6001600160a01b031660008181526009602052604081208054919291600019810191908211614dec575b5582825260086020526040822080546001600160a01b03191690557fddf252ad1be2c89b69c2b068fc378daa952ba7f163c4a11628f55a4df523b3ef8280a4565b614df4613579565b614dab565b15614e0057565b60405162461bcd60e51b8152602060048201526024808201527f4552433732313a207472616e7366657220746f20746865207a65726f206164646044820152637265737360e01b6064820152608490fd5b90614e5b83614910565b6001600160a01b038381169290918216839003614f1557614eaa614eee92821694614e87861515614df9565b614e9087614f68565b6001600160a01b0316600090815260096020526040902090565b614eb48154613982565b90556001600160a01b0381166000908152600960205260409020614ed88154613590565b90556126a6856000526008602052604060002090565b7fddf252ad1be2c89b69c2b068fc378daa952ba7f163c4a11628f55a4df523b3ef600080a4565b60405162461bcd60e51b815260206004820152602560248201527f4552433732313a207472616e736665722066726f6d20696e636f72726563742060448201526437bbb732b960d91b6064820152608490fd5b6000818152600a6020526040812080546001600160a01b03191690556001600160a01b03614f9583614910565b167f8c5be1e5ebec7d5bd14f71427d1e84f3dd0314c0f7b2291e5b200ac8c7c3b9258280a4565b6000828152600a6020526040902080546001600160a01b0319166001600160a01b0383161790556001600160a01b0380614ff584614910565b169116907f8c5be1e5ebec7d5bd14f71427d1e84f3dd0314c0f7b2291e5b200ac8c7c3b925600080a4565b9081602091031261061057516108f2816107e0565b6108f2939260809260018060a01b0316825260006020830152604082015281606082015201906108bc565b6001600160a01b0391821681529116602082015260408101919091526080606082018190526108f2929101906108bc565b3d156150bc573d906150a282610f48565b916150b06040519384610f27565b82523d6000602084013e565b606090565b909190803b1561517a576150f3602091600093604051948580948193630a85bd0160e11b998a84523360048501615035565b03926001600160a01b03165af16000918161514a575b5061513c57615116615091565b805190816151375760405162461bcd60e51b815280614b6560048201614af2565b602001fd5b6001600160e01b0319161490565b61516c91925060203d8111615173575b6151648183610f27565b810190615020565b9038615109565b503d61515a565b505050600190565b92909190823b156151b5576150f3926020926000604051809681958294630a85bd0160e11b9a8b85523360048601615060565b50505050600190565b909190156151ca575090565b8151156151da5750805190602001fd5b60405162461bcd60e51b815260206004820152908190614b659060248301906108bc565b90815181101561520f570160200190565b634e487b7160e01b600052603260045260246000fd5b80156152d057806000908282935b6152bc575061524183610f48565b9261524f6040519485610f27565b80845281601f1961525f83610f48565b013660208701375b6152715750505090565b61527a90613982565b90600a90603082820681018091116152af575b60f81b6001600160f81b031916841a6152a684876151fe565b53049081615267565b6152b7613579565b61528d565b926152c8600a916136ed565b930480615233565b506040516152dd81610f0c565b60018152600360fc1b602082015290565b9091906000915b815183101561533d576020600584901b83018101519182811161532a57600052526153246040600020926136ed565b916152f5565b91600052526153246040600020926136ed565b9150501490565b6daaeb6d7670e522a718067333cd4e803b61535d575050565b604051633185c44d60e21b81523060048201526001600160a01b038316602482015290602090829060449082905afa9081156153f6575b6000916153c8575b50156153a55750565b604051633b79c77360e21b81526001600160a01b03919091166004820152602490fd5b6153e9915060203d81116153ef575b6153e18183610f27565b8101906147c7565b3861539c565b503d6153d7565b6153fe61322d565b61539456fea26469706673582212205bfa5d01d9f900158b8eebc5b1c69976a27bee2f11d6bc4f923630589725273064736f6c63430008110033a66cc928b5edb82af9bd49922954155ab7b0942694bea4ce44661d9a8736c688f652222313e28459528d920b65115c16c04f3efc82aaedc97be59f3f377c0d3fc624b66cc0138b8fabc209247f72d758e1cf3343756d543badbf24212bed8c15d833147d7dc355ba459fc788f669e58cfaf9dc25ddcd0702e87d69c7b5124289",
    "linkReferences": {}
  },
  "methodIdentifiers": {
    "DEFAULT_PAYLOAD_SIZE_LIMIT()": "c4461834",
    "OPERATOR_FILTER_REGISTRY()": "41f43434",
    "_claimable()": "b91c7a8f",
    "_claimableCollection()": "1e730b57",
    "_claimableTokenCount()": "a746ec05",
    "_claimedTokenCount()": "a12f86af",
    "_claimedTokens(uint256)": "3288a091",
    "_publicSaleStarted()": "600e97f6",
    "_saleStarted()": "87c348bf",
    "approve(address,uint256)": "095ea7b3",
    "balanceOf(address)": "70a08231",
    "claim(address,uint256)": "aad3ec96",
    "contractURI()": "e8a3d485",
    "estimateSendFee(uint16,bytes,uint256,bool,bytes)": "2a205e3d",
    "failedMessages(uint16,bytes,uint64)": "5b8c41e6",
    "flipPublicSaleStarted()": "1291e33e",
    "flipRevealed()": "3b2c3fb6",
    "flipSaleStarted()": "899d7b38",
    "forceResumeReceive(uint16,bytes)": "42d65a8d",
    "getApproved(uint256)": "081812fc",
    "getConfig(uint16,uint16,address,uint256)": "f5ecbdbc",
    "getTrustedRemoteAddress(uint16)": "9f38369a",
    "isApprovedForAll(address,address)": "e985e9c5",
    "isTrustedRemote(uint16,bytes)": "3d8b38f6",
    "lzEndpoint()": "b353aaa7",
    "lzReceive(uint16,bytes,uint64,bytes)": "001d3567",
    "maxMintId()": "e1d4c870",
    "maxTokensPerMint()": "17465471",
    "merkleRoot()": "2eb4a7ab",
    "minDstGasLookup(uint16,uint16)": "8cfd8f5c",
    "mintGasless(uint256,address,bytes32[])": "450a4b6d",
    "name()": "06fdde03",
    "nextMintId()": "6aa99da3",
    "nonblockingLzReceive(uint16,bytes,uint64,bytes)": "66ad5c8a",
    "owner()": "8da5cb5b",
    "ownerOf(uint256)": "6352211e",
    "payloadSizeLimitLookup(uint16)": "3f1f4fa4",
    "precrime()": "950c8a74",
    "price()": "a035b1fe",
    "publicMintGasless(uint256,address)": "129559e6",
    "renounceOwnership()": "715018a6",
    "retryMessage(uint16,bytes,uint64,bytes)": "d1deba1f",
    "safeTransferFrom(address,address,uint256)": "42842e0e",
    "safeTransferFrom(address,address,uint256,bytes)": "b88d4fde",
    "sendFrom(address,uint16,bytes,uint256,address,address,bytes)": "51905636",
    "setApprovalForAll(address,bool)": "a22cb465",
    "setBaseURI(string)": "55f804b3",
    "setBeneficiary(address)": "1c31f710",
    "setConfig(uint16,uint16,uint256,bytes)": "cbed8b9c",
    "setContractURI(string)": "938e3d7b",
    "setHiddenMetadataUri(string)": "4fdd43cb",
    "setMerkleRoot(bytes32)": "7cb64759",
    "setMinDstGas(uint16,uint16,uint256)": "df2a5b3b",
    "setMintRange(uint256,uint256,uint256)": "a7afd9c6",
    "setPayloadSizeLimit(uint16,uint256)": "0df37483",
    "setPrecrime(address)": "baf3292d",
    "setPrice(uint256)": "91b7f5ed",
    "setReceiveVersion(uint16)": "10ddb137",
    "setSendVersion(uint16)": "07e0db17",
    "setStableToken(address)": "db1bc87b",
    "setTax(uint256)": "2e5bb6ff",
    "setTaxRecipient(address)": "78e3079e",
    "setTrustedRemote(uint16,bytes)": "eb8d72b7",
    "setTrustedRemoteAddress(uint16,bytes)": "a6c3d165",
    "stableToken()": "a9d75b2b",
    "startClaim(uint256,address)": "7fc071b3",
    "stopClaim()": "ff6c9bc9",
    "supportsInterface(bytes4)": "01ffc9a7",
    "symbol()": "95d89b41",
    "tax()": "99c8d556",
    "tokenURI(uint256)": "c87b56dd",
    "transferFrom(address,address,uint256)": "23b872dd",
    "transferOwnership(address)": "f2fde38b",
    "trustedRemoteLookup(uint16)": "7533d788",
    "withdraw()": "3ccfd60b"
  },
  "id": 173
}