{
  "abi": [
    {
      "inputs": [
        {
          "internalType": "string",
          "name": "_name",
          "type": "string"
        },
        {
          "internalType": "string",
          "name": "_symbol",
          "type": "string"
        },
        {
          "internalType": "address",
          "name": "_layerZeroEndpoint",
          "type": "address"
        },
        {
          "internalType": "uint256",
          "name": "_startMintId",
          "type": "uint256"
        },
        {
          "internalType": "uint256",
          "name": "_endMintId",
          "type": "uint256"
        },
        {
          "internalType": "uint256",
          "name": "_maxTokensPerMint",
          "type": "uint256"
        },
        {
          "internalType": "string",
          "name": "_baseTokenURI",
          "type": "string"
        },
        {
          "internalType": "string",
          "name": "_hiddenURI",
          "type": "string"
        },
        {
          "internalType": "address",
          "name": "_stableToken",
          "type": "address"
        },
        {
          "internalType": "uint256",
          "name": "_tax",
          "type": "uint256"
        },
        {
          "internalType": "address",
          "name": "_taxRecipient",
          "type": "address"
        }
      ],
      "stateMutability": "nonpayable",
      "type": "constructor"
    },
    {
      "inputs": [
        {
          "internalType": "address",
          "name": "operator",
          "type": "address"
        }
      ],
      "name": "OperatorNotAllowed",
      "type": "error"
    },
    {
      "anonymous": false,
      "inputs": [
        {
          "indexed": true,
          "internalType": "address",
          "name": "owner",
          "type": "address"
        },
        {
          "indexed": true,
          "internalType": "address",
          "name": "approved",
          "type": "address"
        },
        {
          "indexed": true,
          "internalType": "uint256",
          "name": "tokenId",
          "type": "uint256"
        }
      ],
      "name": "Approval",
      "type": "event"
    },
    {
      "anonymous": false,
      "inputs": [
        {
          "indexed": true,
          "internalType": "address",
          "name": "owner",
          "type": "address"
        },
        {
          "indexed": true,
          "internalType": "address",
          "name": "operator",
          "type": "address"
        },
        {
          "indexed": false,
          "internalType": "bool",
          "name": "approved",
          "type": "bool"
        }
      ],
      "name": "ApprovalForAll",
      "type": "event"
    },
    {
      "anonymous": false,
      "inputs": [
        {
          "indexed": false,
          "internalType": "bytes32",
          "name": "_hashedPayload",
          "type": "bytes32"
        }
      ],
      "name": "CreditCleared",
      "type": "event"
    },
    {
      "anonymous": false,
      "inputs": [
        {
          "indexed": false,
          "internalType": "bytes32",
          "name": "_hashedPayload",
          "type": "bytes32"
        },
        {
          "indexed": false,
          "internalType": "bytes",
          "name": "_payload",
          "type": "bytes"
        }
      ],
      "name": "CreditStored",
      "type": "event"
    },
    {
      "anonymous": false,
      "inputs": [
        {
          "indexed": false,
          "internalType": "uint16",
          "name": "_srcChainId",
          "type": "uint16"
        },
        {
          "indexed": false,
          "internalType": "bytes",
          "name": "_srcAddress",
          "type": "bytes"
        },
        {
          "indexed": false,
          "internalType": "uint64",
          "name": "_nonce",
          "type": "uint64"
        },
        {
          "indexed": false,
          "internalType": "bytes",
          "name": "_payload",
          "type": "bytes"
        },
        {
          "indexed": false,
          "internalType": "bytes",
          "name": "_reason",
          "type": "bytes"
        }
      ],
      "name": "MessageFailed",
      "type": "event"
    },
    {
      "anonymous": false,
      "inputs": [
        {
          "indexed": true,
          "internalType": "address",
          "name": "previousOwner",
          "type": "address"
        },
        {
          "indexed": true,
          "internalType": "address",
          "name": "newOwner",
          "type": "address"
        }
      ],
      "name": "OwnershipTransferred",
      "type": "event"
    },
    {
      "anonymous": false,
      "inputs": [
        {
          "indexed": true,
          "internalType": "uint16",
          "name": "_srcChainId",
          "type": "uint16"
        },
        {
          "indexed": true,
          "internalType": "bytes",
          "name": "_srcAddress",
          "type": "bytes"
        },
        {
          "indexed": true,
          "internalType": "address",
          "name": "_toAddress",
          "type": "address"
        },
        {
          "indexed": false,
          "internalType": "uint256[]",
          "name": "_tokenIds",
          "type": "uint256[]"
        }
      ],
      "name": "ReceiveFromChain",
      "type": "event"
    },
    {
      "anonymous": false,
      "inputs": [
        {
          "indexed": false,
          "internalType": "uint16",
          "name": "_srcChainId",
          "type": "uint16"
        },
        {
          "indexed": false,
          "internalType": "bytes",
          "name": "_srcAddress",
          "type": "bytes"
        },
        {
          "indexed": false,
          "internalType": "uint64",
          "name": "_nonce",
          "type": "uint64"
        },
        {
          "indexed": false,
          "internalType": "bytes32",
          "name": "_payloadHash",
          "type": "bytes32"
        }
      ],
      "name": "RetryMessageSuccess",
      "type": "event"
    },
    {
      "anonymous": false,
      "inputs": [
        {
          "indexed": true,
          "internalType": "uint16",
          "name": "_dstChainId",
          "type": "uint16"
        },
        {
          "indexed": true,
          "internalType": "address",
          "name": "_from",
          "type": "address"
        },
        {
          "indexed": true,
          "internalType": "bytes",
          "name": "_toAddress",
          "type": "bytes"
        },
        {
          "indexed": false,
          "internalType": "uint256[]",
          "name": "_tokenIds",
          "type": "uint256[]"
        }
      ],
      "name": "SendToChain",
      "type": "event"
    },
    {
      "anonymous": false,
      "inputs": [
        {
          "indexed": false,
          "internalType": "uint16",
          "name": "_dstChainId",
          "type": "uint16"
        },
        {
          "indexed": false,
          "internalType": "uint16",
          "name": "_type",
          "type": "uint16"
        },
        {
          "indexed": false,
          "internalType": "uint256",
          "name": "_minDstGas",
          "type": "uint256"
        }
      ],
      "name": "SetMinDstGas",
      "type": "event"
    },
    {
      "anonymous": false,
      "inputs": [
        {
          "indexed": false,
          "internalType": "address",
          "name": "precrime",
          "type": "address"
        }
      ],
      "name": "SetPrecrime",
      "type": "event"
    },
    {
      "anonymous": false,
      "inputs": [
        {
          "indexed": false,
          "internalType": "uint16",
          "name": "_remoteChainId",
          "type": "uint16"
        },
        {
          "indexed": false,
          "internalType": "bytes",
          "name": "_path",
          "type": "bytes"
        }
      ],
      "name": "SetTrustedRemote",
      "type": "event"
    },
    {
      "anonymous": false,
      "inputs": [
        {
          "indexed": false,
          "internalType": "uint16",
          "name": "_remoteChainId",
          "type": "uint16"
        },
        {
          "indexed": false,
          "internalType": "bytes",
          "name": "_remoteAddress",
          "type": "bytes"
        }
      ],
      "name": "SetTrustedRemoteAddress",
      "type": "event"
    },
    {
      "anonymous": false,
      "inputs": [
        {
          "indexed": true,
          "internalType": "address",
          "name": "from",
          "type": "address"
        },
        {
          "indexed": true,
          "internalType": "address",
          "name": "to",
          "type": "address"
        },
        {
          "indexed": true,
          "internalType": "uint256",
          "name": "tokenId",
          "type": "uint256"
        }
      ],
      "name": "Transfer",
      "type": "event"
    },
    {
      "inputs": [],
      "name": "DEFAULT_PAYLOAD_SIZE_LIMIT",
      "outputs": [
        {
          "internalType": "uint256",
          "name": "",
          "type": "uint256"
        }
      ],
      "stateMutability": "view",
      "type": "function"
    },
    {
      "inputs": [],
      "name": "FUNCTION_TYPE_SEND",
      "outputs": [
        {
          "internalType": "uint16",
          "name": "",
          "type": "uint16"
        }
      ],
      "stateMutability": "view",
      "type": "function"
    },
    {
      "inputs": [],
      "name": "OPERATOR_FILTER_REGISTRY",
      "outputs": [
        {
          "internalType": "contract IOperatorFilterRegistry",
          "name": "",
          "type": "address"
        }
      ],
      "stateMutability": "view",
      "type": "function"
    },
    {
      "inputs": [],
      "name": "_claimable",
      "outputs": [
        {
          "internalType": "bool",
          "name": "",
          "type": "bool"
        }
      ],
      "stateMutability": "view",
      "type": "function"
    },
    {
      "inputs": [],
      "name": "_claimableCollection",
      "outputs": [
        {
          "internalType": "contract IERC721",
          "name": "",
          "type": "address"
        }
      ],
      "stateMutability": "view",
      "type": "function"
    },
    {
      "inputs": [],
      "name": "_claimableTokenCount",
      "outputs": [
        {
          "internalType": "uint256",
          "name": "",
          "type": "uint256"
        }
      ],
      "stateMutability": "view",
      "type": "function"
    },
    {
      "inputs": [],
      "name": "_claimedTokenCount",
      "outputs": [
        {
          "internalType": "uint256",
          "name": "",
          "type": "uint256"
        }
      ],
      "stateMutability": "view",
      "type": "function"
    },
    {
      "inputs": [
        {
          "internalType": "uint256",
          "name": "",
          "type": "uint256"
        }
      ],
      "name": "_claimedTokens",
      "outputs": [
        {
          "internalType": "address",
          "name": "",
          "type": "address"
        }
      ],
      "stateMutability": "view",
      "type": "function"
    },
    {
      "inputs": [],
      "name": "_publicSaleStarted",
      "outputs": [
        {
          "internalType": "bool",
          "name": "",
          "type": "bool"
        }
      ],
      "stateMutability": "view",
      "type": "function"
    },
    {
      "inputs": [],
      "name": "_saleStarted",
      "outputs": [
        {
          "internalType": "bool",
          "name": "",
          "type": "bool"
        }
      ],
      "stateMutability": "view",
      "type": "function"
    },
    {
      "inputs": [
        {
          "internalType": "address",
          "name": "operator",
          "type": "address"
        },
        {
          "internalType": "uint256",
          "name": "tokenId",
          "type": "uint256"
        }
      ],
      "name": "approve",
      "outputs": [],
      "stateMutability": "nonpayable",
      "type": "function"
    },
    {
      "inputs": [
        {
          "internalType": "address",
          "name": "owner",
          "type": "address"
        }
      ],
      "name": "balanceOf",
      "outputs": [
        {
          "internalType": "uint256",
          "name": "",
          "type": "uint256"
        }
      ],
      "stateMutability": "view",
      "type": "function"
    },
    {
      "inputs": [
        {
          "internalType": "address",
          "name": "claimer",
          "type": "address"
        },
        {
          "internalType": "uint256",
          "name": "tokenId",
          "type": "uint256"
        }
      ],
      "name": "claim",
      "outputs": [],
      "stateMutability": "nonpayable",
      "type": "function"
    },
    {
      "inputs": [
        {
          "internalType": "bytes",
          "name": "_payload",
          "type": "bytes"
        }
      ],
      "name": "clearCredits",
      "outputs": [],
      "stateMutability": "nonpayable",
      "type": "function"
    },
    {
      "inputs": [],
      "name": "contractURI",
      "outputs": [
        {
          "internalType": "string",
          "name": "",
          "type": "string"
        }
      ],
      "stateMutability": "view",
      "type": "function"
    },
    {
      "inputs": [
        {
          "internalType": "uint16",
          "name": "",
          "type": "uint16"
        }
      ],
      "name": "dstChainIdToBatchLimit",
      "outputs": [
        {
          "internalType": "uint256",
          "name": "",
          "type": "uint256"
        }
      ],
      "stateMutability": "view",
      "type": "function"
    },
    {
      "inputs": [
        {
          "internalType": "uint16",
          "name": "",
          "type": "uint16"
        }
      ],
      "name": "dstChainIdToTransferGas",
      "outputs": [
        {
          "internalType": "uint256",
          "name": "",
          "type": "uint256"
        }
      ],
      "stateMutability": "view",
      "type": "function"
    },
    {
      "inputs": [
        {
          "internalType": "uint16",
          "name": "_dstChainId",
          "type": "uint16"
        },
        {
          "internalType": "bytes",
          "name": "_toAddress",
          "type": "bytes"
        },
        {
          "internalType": "uint256[]",
          "name": "_tokenIds",
          "type": "uint256[]"
        },
        {
          "internalType": "bool",
          "name": "_useZro",
          "type": "bool"
        },
        {
          "internalType": "bytes",
          "name": "_adapterParams",
          "type": "bytes"
        }
      ],
      "name": "estimateSendBatchFee",
      "outputs": [
        {
          "internalType": "uint256",
          "name": "nativeFee",
          "type": "uint256"
        },
        {
          "internalType": "uint256",
          "name": "zroFee",
          "type": "uint256"
        }
      ],
      "stateMutability": "view",
      "type": "function"
    },
    {
      "inputs": [
        {
          "internalType": "uint16",
          "name": "_dstChainId",
          "type": "uint16"
        },
        {
          "internalType": "bytes",
          "name": "_toAddress",
          "type": "bytes"
        },
        {
          "internalType": "uint256",
          "name": "_tokenId",
          "type": "uint256"
        },
        {
          "internalType": "bool",
          "name": "_useZro",
          "type": "bool"
        },
        {
          "internalType": "bytes",
          "name": "_adapterParams",
          "type": "bytes"
        }
      ],
      "name": "estimateSendFee",
      "outputs": [
        {
          "internalType": "uint256",
          "name": "nativeFee",
          "type": "uint256"
        },
        {
          "internalType": "uint256",
          "name": "zroFee",
          "type": "uint256"
        }
      ],
      "stateMutability": "view",
      "type": "function"
    },
    {
      "inputs": [
        {
          "internalType": "uint16",
          "name": "",
          "type": "uint16"
        },
        {
          "internalType": "bytes",
          "name": "",
          "type": "bytes"
        },
        {
          "internalType": "uint64",
          "name": "",
          "type": "uint64"
        }
      ],
      "name": "failedMessages",
      "outputs": [
        {
          "internalType": "bytes32",
          "name": "",
          "type": "bytes32"
        }
      ],
      "stateMutability": "view",
      "type": "function"
    },
    {
      "inputs": [],
      "name": "flipLinearPriceIncreaseActive",
      "outputs": [],
      "stateMutability": "nonpayable",
      "type": "function"
    },
    {
      "inputs": [],
      "name": "flipPublicSaleStarted",
      "outputs": [],
      "stateMutability": "nonpayable",
      "type": "function"
    },
    {
      "inputs": [],
      "name": "flipRevealed",
      "outputs": [],
      "stateMutability": "nonpayable",
      "type": "function"
    },
    {
      "inputs": [],
      "name": "flipSaleStarted",
      "outputs": [],
      "stateMutability": "nonpayable",
      "type": "function"
    },
    {
      "inputs": [
        {
          "internalType": "uint16",
          "name": "_srcChainId",
          "type": "uint16"
        },
        {
          "internalType": "bytes",
          "name": "_srcAddress",
          "type": "bytes"
        }
      ],
      "name": "forceResumeReceive",
      "outputs": [],
      "stateMutability": "nonpayable",
      "type": "function"
    },
    {
      "inputs": [
        {
          "internalType": "uint256",
          "name": "tokenId",
          "type": "uint256"
        }
      ],
      "name": "getApproved",
      "outputs": [
        {
          "internalType": "address",
          "name": "",
          "type": "address"
        }
      ],
      "stateMutability": "view",
      "type": "function"
    },
    {
      "inputs": [
        {
          "internalType": "uint16",
          "name": "_version",
          "type": "uint16"
        },
        {
          "internalType": "uint16",
          "name": "_chainId",
          "type": "uint16"
        },
        {
          "internalType": "address",
          "name": "",
          "type": "address"
        },
        {
          "internalType": "uint256",
          "name": "_configType",
          "type": "uint256"
        }
      ],
      "name": "getConfig",
      "outputs": [
        {
          "internalType": "bytes",
          "name": "",
          "type": "bytes"
        }
      ],
      "stateMutability": "view",
      "type": "function"
    },
    {
      "inputs": [
        {
          "internalType": "uint16",
          "name": "_remoteChainId",
          "type": "uint16"
        }
      ],
      "name": "getTrustedRemoteAddress",
      "outputs": [
        {
          "internalType": "bytes",
          "name": "",
          "type": "bytes"
        }
      ],
      "stateMutability": "view",
      "type": "function"
    },
    {
      "inputs": [
        {
          "internalType": "address",
          "name": "owner",
          "type": "address"
        },
        {
          "internalType": "address",
          "name": "operator",
          "type": "address"
        }
      ],
      "name": "isApprovedForAll",
      "outputs": [
        {
          "internalType": "bool",
          "name": "",
          "type": "bool"
        }
      ],
      "stateMutability": "view",
      "type": "function"
    },
    {
      "inputs": [
        {
          "internalType": "uint16",
          "name": "_srcChainId",
          "type": "uint16"
        },
        {
          "internalType": "bytes",
          "name": "_srcAddress",
          "type": "bytes"
        }
      ],
      "name": "isTrustedRemote",
      "outputs": [
        {
          "internalType": "bool",
          "name": "",
          "type": "bool"
        }
      ],
      "stateMutability": "view",
      "type": "function"
    },
    {
      "inputs": [],
      "name": "lzEndpoint",
      "outputs": [
        {
          "internalType": "contract ILayerZeroEndpoint",
          "name": "",
          "type": "address"
        }
      ],
      "stateMutability": "view",
      "type": "function"
    },
    {
      "inputs": [
        {
          "internalType": "uint16",
          "name": "_srcChainId",
          "type": "uint16"
        },
        {
          "internalType": "bytes",
          "name": "_srcAddress",
          "type": "bytes"
        },
        {
          "internalType": "uint64",
          "name": "_nonce",
          "type": "uint64"
        },
        {
          "internalType": "bytes",
          "name": "_payload",
          "type": "bytes"
        }
      ],
      "name": "lzReceive",
      "outputs": [],
      "stateMutability": "nonpayable",
      "type": "function"
    },
    {
      "inputs": [],
      "name": "maxMintId",
      "outputs": [
        {
          "internalType": "uint256",
          "name": "",
          "type": "uint256"
        }
      ],
      "stateMutability": "view",
      "type": "function"
    },
    {
      "inputs": [],
      "name": "maxTokensPerMint",
      "outputs": [
        {
          "internalType": "uint256",
          "name": "",
          "type": "uint256"
        }
      ],
      "stateMutability": "view",
      "type": "function"
    },
    {
      "inputs": [],
      "name": "merkleRoot",
      "outputs": [
        {
          "internalType": "bytes32",
          "name": "",
          "type": "bytes32"
        }
      ],
      "stateMutability": "view",
      "type": "function"
    },
    {
      "inputs": [
        {
          "internalType": "uint16",
          "name": "",
          "type": "uint16"
        },
        {
          "internalType": "uint16",
          "name": "",
          "type": "uint16"
        }
      ],
      "name": "minDstGasLookup",
      "outputs": [
        {
          "internalType": "uint256",
          "name": "",
          "type": "uint256"
        }
      ],
      "stateMutability": "view",
      "type": "function"
    },
    {
      "inputs": [],
      "name": "minGasToTransferAndStore",
      "outputs": [
        {
          "internalType": "uint256",
          "name": "",
          "type": "uint256"
        }
      ],
      "stateMutability": "view",
      "type": "function"
    },
    {
      "inputs": [
        {
          "internalType": "uint256",
          "name": "_nbTokens",
          "type": "uint256"
        },
        {
          "internalType": "address",
          "name": "minter",
          "type": "address"
        },
        {
          "internalType": "bytes32[]",
          "name": "_merkleProof",
          "type": "bytes32[]"
        },
        {
          "internalType": "uint256",
          "name": "wlTokenCount",
          "type": "uint256"
        }
      ],
      "name": "mintGasless",
      "outputs": [],
      "stateMutability": "nonpayable",
      "type": "function"
    },
    {
      "inputs": [],
      "name": "name",
      "outputs": [
        {
          "internalType": "string",
          "name": "",
          "type": "string"
        }
      ],
      "stateMutability": "view",
      "type": "function"
    },
    {
      "inputs": [],
      "name": "nextMintId",
      "outputs": [
        {
          "internalType": "uint256",
          "name": "",
          "type": "uint256"
        }
      ],
      "stateMutability": "view",
      "type": "function"
    },
    {
      "inputs": [
        {
          "internalType": "uint16",
          "name": "_srcChainId",
          "type": "uint16"
        },
        {
          "internalType": "bytes",
          "name": "_srcAddress",
          "type": "bytes"
        },
        {
          "internalType": "uint64",
          "name": "_nonce",
          "type": "uint64"
        },
        {
          "internalType": "bytes",
          "name": "_payload",
          "type": "bytes"
        }
      ],
      "name": "nonblockingLzReceive",
      "outputs": [],
      "stateMutability": "nonpayable",
      "type": "function"
    },
    {
      "inputs": [],
      "name": "owner",
      "outputs": [
        {
          "internalType": "address",
          "name": "",
          "type": "address"
        }
      ],
      "stateMutability": "view",
      "type": "function"
    },
    {
      "inputs": [
        {
          "internalType": "uint256",
          "name": "tokenId",
          "type": "uint256"
        }
      ],
      "name": "ownerOf",
      "outputs": [
        {
          "internalType": "address",
          "name": "",
          "type": "address"
        }
      ],
      "stateMutability": "view",
      "type": "function"
    },
    {
      "inputs": [
        {
          "internalType": "uint16",
          "name": "",
          "type": "uint16"
        }
      ],
      "name": "payloadSizeLimitLookup",
      "outputs": [
        {
          "internalType": "uint256",
          "name": "",
          "type": "uint256"
        }
      ],
      "stateMutability": "view",
      "type": "function"
    },
    {
      "inputs": [],
      "name": "precrime",
      "outputs": [
        {
          "internalType": "address",
          "name": "",
          "type": "address"
        }
      ],
      "stateMutability": "view",
      "type": "function"
    },
    {
      "inputs": [],
      "name": "price",
      "outputs": [
        {
          "internalType": "uint256",
          "name": "",
          "type": "uint256"
        }
      ],
      "stateMutability": "view",
      "type": "function"
    },
    {
      "inputs": [
        {
          "internalType": "uint256",
          "name": "_nbTokens",
          "type": "uint256"
        },
        {
          "internalType": "address",
          "name": "minter",
          "type": "address"
        }
      ],
      "name": "publicMintGasless",
      "outputs": [],
      "stateMutability": "nonpayable",
      "type": "function"
    },
    {
      "inputs": [],
      "name": "renounceOwnership",
      "outputs": [],
      "stateMutability": "nonpayable",
      "type": "function"
    },
    {
      "inputs": [
        {
          "internalType": "uint16",
          "name": "_srcChainId",
          "type": "uint16"
        },
        {
          "internalType": "bytes",
          "name": "_srcAddress",
          "type": "bytes"
        },
        {
          "internalType": "uint64",
          "name": "_nonce",
          "type": "uint64"
        },
        {
          "internalType": "bytes",
          "name": "_payload",
          "type": "bytes"
        }
      ],
      "name": "retryMessage",
      "outputs": [],
      "stateMutability": "payable",
      "type": "function"
    },
    {
      "inputs": [
        {
          "internalType": "address",
          "name": "from",
          "type": "address"
        },
        {
          "internalType": "address",
          "name": "to",
          "type": "address"
        },
        {
          "internalType": "uint256",
          "name": "tokenId",
          "type": "uint256"
        }
      ],
      "name": "safeTransferFrom",
      "outputs": [],
      "stateMutability": "nonpayable",
      "type": "function"
    },
    {
      "inputs": [
        {
          "internalType": "address",
          "name": "from",
          "type": "address"
        },
        {
          "internalType": "address",
          "name": "to",
          "type": "address"
        },
        {
          "internalType": "uint256",
          "name": "tokenId",
          "type": "uint256"
        },
        {
          "internalType": "bytes",
          "name": "data",
          "type": "bytes"
        }
      ],
      "name": "safeTransferFrom",
      "outputs": [],
      "stateMutability": "nonpayable",
      "type": "function"
    },
    {
      "inputs": [
        {
          "internalType": "address",
          "name": "_from",
          "type": "address"
        },
        {
          "internalType": "uint16",
          "name": "_dstChainId",
          "type": "uint16"
        },
        {
          "internalType": "bytes",
          "name": "_toAddress",
          "type": "bytes"
        },
        {
          "internalType": "uint256[]",
          "name": "_tokenIds",
          "type": "uint256[]"
        },
        {
          "internalType": "address payable",
          "name": "_refundAddress",
          "type": "address"
        },
        {
          "internalType": "address",
          "name": "_zroPaymentAddress",
          "type": "address"
        },
        {
          "internalType": "bytes",
          "name": "_adapterParams",
          "type": "bytes"
        }
      ],
      "name": "sendBatchFrom",
      "outputs": [],
      "stateMutability": "payable",
      "type": "function"
    },
    {
      "inputs": [
        {
          "internalType": "address",
          "name": "_from",
          "type": "address"
        },
        {
          "internalType": "uint16",
          "name": "_dstChainId",
          "type": "uint16"
        },
        {
          "internalType": "bytes",
          "name": "_toAddress",
          "type": "bytes"
        },
        {
          "internalType": "uint256",
          "name": "_tokenId",
          "type": "uint256"
        },
        {
          "internalType": "address payable",
          "name": "_refundAddress",
          "type": "address"
        },
        {
          "internalType": "address",
          "name": "_zroPaymentAddress",
          "type": "address"
        },
        {
          "internalType": "bytes",
          "name": "_adapterParams",
          "type": "bytes"
        }
      ],
      "name": "sendFrom",
      "outputs": [],
      "stateMutability": "payable",
      "type": "function"
    },
    {
      "inputs": [
        {
          "internalType": "address",
          "name": "operator",
          "type": "address"
        },
        {
          "internalType": "bool",
          "name": "approved",
          "type": "bool"
        }
      ],
      "name": "setApprovalForAll",
      "outputs": [],
      "stateMutability": "nonpayable",
      "type": "function"
    },
    {
      "inputs": [
        {
          "internalType": "string",
          "name": "uri",
          "type": "string"
        }
      ],
      "name": "setBaseURI",
      "outputs": [],
      "stateMutability": "nonpayable",
      "type": "function"
    },
    {
      "inputs": [
        {
          "internalType": "address payable",
          "name": "_beneficiary",
          "type": "address"
        }
      ],
      "name": "setBeneficiary",
      "outputs": [],
      "stateMutability": "nonpayable",
      "type": "function"
    },
    {
      "inputs": [
        {
          "internalType": "uint16",
          "name": "_version",
          "type": "uint16"
        },
        {
          "internalType": "uint16",
          "name": "_chainId",
          "type": "uint16"
        },
        {
          "internalType": "uint256",
          "name": "_configType",
          "type": "uint256"
        },
        {
          "internalType": "bytes",
          "name": "_config",
          "type": "bytes"
        }
      ],
      "name": "setConfig",
      "outputs": [],
      "stateMutability": "nonpayable",
      "type": "function"
    },
    {
      "inputs": [
        {
          "internalType": "string",
          "name": "_contractURI",
          "type": "string"
        }
      ],
      "name": "setContractURI",
      "outputs": [],
      "stateMutability": "nonpayable",
      "type": "function"
    },
    {
      "inputs": [
        {
          "internalType": "uint16",
          "name": "_dstChainId",
          "type": "uint16"
        },
        {
          "internalType": "uint256",
          "name": "_dstChainIdToBatchLimit",
          "type": "uint256"
        }
      ],
      "name": "setDstChainIdToBatchLimit",
      "outputs": [],
      "stateMutability": "nonpayable",
      "type": "function"
    },
    {
      "inputs": [
        {
          "internalType": "uint16",
          "name": "_dstChainId",
          "type": "uint16"
        },
        {
          "internalType": "uint256",
          "name": "_dstChainIdToTransferGas",
          "type": "uint256"
        }
      ],
      "name": "setDstChainIdToTransferGas",
      "outputs": [],
      "stateMutability": "nonpayable",
      "type": "function"
    },
    {
      "inputs": [
        {
          "internalType": "string",
          "name": "_hiddenMetadataUri",
          "type": "string"
        }
      ],
      "name": "setHiddenMetadataUri",
      "outputs": [],
      "stateMutability": "nonpayable",
      "type": "function"
    },
    {
      "inputs": [
        {
          "internalType": "bytes32",
          "name": "_merkleRoot",
          "type": "bytes32"
        }
      ],
      "name": "setMerkleRoot",
      "outputs": [],
      "stateMutability": "nonpayable",
      "type": "function"
    },
    {
      "inputs": [
        {
          "internalType": "uint16",
          "name": "_dstChainId",
          "type": "uint16"
        },
        {
          "internalType": "uint16",
          "name": "_packetType",
          "type": "uint16"
        },
        {
          "internalType": "uint256",
          "name": "_minGas",
          "type": "uint256"
        }
      ],
      "name": "setMinDstGas",
      "outputs": [],
      "stateMutability": "nonpayable",
      "type": "function"
    },
    {
      "inputs": [
        {
          "internalType": "uint256",
          "name": "_minGasToTransferAndStore",
          "type": "uint256"
        }
      ],
      "name": "setMinGasToTransferAndStore",
      "outputs": [],
      "stateMutability": "nonpayable",
      "type": "function"
    },
    {
      "inputs": [
        {
          "internalType": "uint256",
          "name": "_startMintId",
          "type": "uint256"
        },
        {
          "internalType": "uint256",
          "name": "_endMintId",
          "type": "uint256"
        },
        {
          "internalType": "uint256",
          "name": "_maxTokensPerMint",
          "type": "uint256"
        }
      ],
      "name": "setMintRange",
      "outputs": [],
      "stateMutability": "nonpayable",
      "type": "function"
    },
    {
      "inputs": [
        {
          "internalType": "uint16",
          "name": "_dstChainId",
          "type": "uint16"
        },
        {
          "internalType": "uint256",
          "name": "_size",
          "type": "uint256"
        }
      ],
      "name": "setPayloadSizeLimit",
      "outputs": [],
      "stateMutability": "nonpayable",
      "type": "function"
    },
    {
      "inputs": [
        {
          "internalType": "address",
          "name": "_precrime",
          "type": "address"
        }
      ],
      "name": "setPrecrime",
      "outputs": [],
      "stateMutability": "nonpayable",
      "type": "function"
    },
    {
      "inputs": [
        {
          "internalType": "uint256",
          "name": "newPrice",
          "type": "uint256"
        }
      ],
      "name": "setPrice",
      "outputs": [],
      "stateMutability": "nonpayable",
      "type": "function"
    },
    {
      "inputs": [
        {
          "internalType": "uint16",
          "name": "_version",
          "type": "uint16"
        }
      ],
      "name": "setReceiveVersion",
      "outputs": [],
      "stateMutability": "nonpayable",
      "type": "function"
    },
    {
      "inputs": [
        {
          "internalType": "uint16",
          "name": "_version",
          "type": "uint16"
        }
      ],
      "name": "setSendVersion",
      "outputs": [],
      "stateMutability": "nonpayable",
      "type": "function"
    },
    {
      "inputs": [
        {
          "internalType": "address",
          "name": "_stableToken",
          "type": "address"
        }
      ],
      "name": "setStableToken",
      "outputs": [],
      "stateMutability": "nonpayable",
      "type": "function"
    },
    {
      "inputs": [
        {
          "internalType": "uint256",
          "name": "_tax",
          "type": "uint256"
        }
      ],
      "name": "setTax",
      "outputs": [],
      "stateMutability": "nonpayable",
      "type": "function"
    },
    {
      "inputs": [
        {
          "internalType": "address payable",
          "name": "_taxRecipient",
          "type": "address"
        }
      ],
      "name": "setTaxRecipient",
      "outputs": [],
      "stateMutability": "nonpayable",
      "type": "function"
    },
    {
      "inputs": [
        {
          "internalType": "uint16",
          "name": "_srcChainId",
          "type": "uint16"
        },
        {
          "internalType": "bytes",
          "name": "_path",
          "type": "bytes"
        }
      ],
      "name": "setTrustedRemote",
      "outputs": [],
      "stateMutability": "nonpayable",
      "type": "function"
    },
    {
      "inputs": [
        {
          "internalType": "uint16",
          "name": "_remoteChainId",
          "type": "uint16"
        },
        {
          "internalType": "bytes",
          "name": "_remoteAddress",
          "type": "bytes"
        }
      ],
      "name": "setTrustedRemoteAddress",
      "outputs": [],
      "stateMutability": "nonpayable",
      "type": "function"
    },
    {
      "inputs": [],
      "name": "stableToken",
      "outputs": [
        {
          "internalType": "contract IERC20",
          "name": "",
          "type": "address"
        }
      ],
      "stateMutability": "view",
      "type": "function"
    },
    {
      "inputs": [
        {
          "internalType": "uint256",
          "name": "claimableTokenCount",
          "type": "uint256"
        },
        {
          "internalType": "address",
          "name": "claimableCollection",
          "type": "address"
        }
      ],
      "name": "startClaim",
      "outputs": [],
      "stateMutability": "nonpayable",
      "type": "function"
    },
    {
      "inputs": [],
      "name": "stopClaim",
      "outputs": [],
      "stateMutability": "nonpayable",
      "type": "function"
    },
    {
      "inputs": [
        {
          "internalType": "bytes32",
          "name": "",
          "type": "bytes32"
        }
      ],
      "name": "storedCredits",
      "outputs": [
        {
          "internalType": "uint16",
          "name": "srcChainId",
          "type": "uint16"
        },
        {
          "internalType": "address",
          "name": "toAddress",
          "type": "address"
        },
        {
          "internalType": "uint256",
          "name": "index",
          "type": "uint256"
        },
        {
          "internalType": "bool",
          "name": "creditsRemain",
          "type": "bool"
        }
      ],
      "stateMutability": "view",
      "type": "function"
    },
    {
      "inputs": [
        {
          "internalType": "bytes4",
          "name": "interfaceId",
          "type": "bytes4"
        }
      ],
      "name": "supportsInterface",
      "outputs": [
        {
          "internalType": "bool",
          "name": "",
          "type": "bool"
        }
      ],
      "stateMutability": "view",
      "type": "function"
    },
    {
      "inputs": [],
      "name": "symbol",
      "outputs": [
        {
          "internalType": "string",
          "name": "",
          "type": "string"
        }
      ],
      "stateMutability": "view",
      "type": "function"
    },
    {
      "inputs": [],
      "name": "tax",
      "outputs": [
        {
          "internalType": "uint256",
          "name": "",
          "type": "uint256"
        }
      ],
      "stateMutability": "view",
      "type": "function"
    },
    {
      "inputs": [
        {
          "internalType": "uint256",
          "name": "tokenId",
          "type": "uint256"
        }
      ],
      "name": "tokenURI",
      "outputs": [
        {
          "internalType": "string",
          "name": "",
          "type": "string"
        }
      ],
      "stateMutability": "view",
      "type": "function"
    },
    {
      "inputs": [
        {
          "internalType": "address",
          "name": "from",
          "type": "address"
        },
        {
          "internalType": "address",
          "name": "to",
          "type": "address"
        },
        {
          "internalType": "uint256",
          "name": "tokenId",
          "type": "uint256"
        }
      ],
      "name": "transferFrom",
      "outputs": [],
      "stateMutability": "nonpayable",
      "type": "function"
    },
    {
      "inputs": [
        {
          "internalType": "address",
          "name": "newOwner",
          "type": "address"
        }
      ],
      "name": "transferOwnership",
      "outputs": [],
      "stateMutability": "nonpayable",
      "type": "function"
    },
    {
      "inputs": [
        {
          "internalType": "uint16",
          "name": "",
          "type": "uint16"
        }
      ],
      "name": "trustedRemoteLookup",
      "outputs": [
        {
          "internalType": "bytes",
          "name": "",
          "type": "bytes"
        }
      ],
      "stateMutability": "view",
      "type": "function"
    },
    {
      "inputs": [],
      "name": "withdraw",
      "outputs": [],
      "stateMutability": "nonpayable",
      "type": "function"
    },
    {
      "stateMutability": "payable",
      "type": "receive"
    }
  ],
  "bytecode": {
    "object": "0x60a06040526103e860115560006012553480156200001c57600080fd5b50604051620069b5380380620069b58339810160408190526200003f9162000444565b8a8a8a8a8a8a8a8a8a8a8a8a8a8a62030d40733cc6cdda760b79bafa08df41ecfa224f810dceb66001858584868080620000793362000312565b6001600160a01b03166080525081620000ee5760405162461bcd60e51b815260206004820152602d60248201527f4f4e46543732313a206d696e476173546f5472616e73666572416e6453746f7260448201526c065206d757374206265203e203609c1b606482015260840160405180910390fd5b50600655600a62000100838262000601565b50600b6200010f828262000601565b5050506daaeb6d7670e522a718067333cd4e3b1562000257578015620001a557604051633e9f1edf60e11b81523060048201526001600160a01b03831660248201526daaeb6d7670e522a718067333cd4e90637d3e3dbe906044015b600060405180830381600087803b1580156200018657600080fd5b505af11580156200019b573d6000803e3d6000fd5b5050505062000257565b6001600160a01b03821615620001f65760405163a0af290360e01b81523060048201526001600160a01b03831660248201526daaeb6d7670e522a718067333cd4e9063a0af2903906044016200016b565b604051632210724360e11b81523060048201526daaeb6d7670e522a718067333cd4e90634420e48690602401600060405180830381600087803b1580156200023d57600080fd5b505af115801562000252573d6000803e3d6000fd5b505050505b5050600160105550505060138990555060148790556015869055601680546001600160a01b03191633179055601a62000291868262000601565b50601b620002a0858262000601565b5082601e60006101000a8154816001600160a01b0302191690836001600160a01b031602179055508160118190555080601760006101000a8154816001600160a01b0302191690836001600160a01b0316021790555050505050505050505050505050505050505050505050620006cd565b600080546001600160a01b038381166001600160a01b0319831681178455604051919092169283917f8be0079c531659141344cd1fd0a4f28419497f9722a3daafe3b4186f6b6457e09190a35050565b634e487b7160e01b600052604160045260246000fd5b600082601f8301126200038a57600080fd5b81516001600160401b0380821115620003a757620003a762000362565b604051601f8301601f19908116603f01168101908282118183101715620003d257620003d262000362565b81604052838152602092508683858801011115620003ef57600080fd5b600091505b83821015620004135785820183015181830184015290820190620003f4565b600093810190920192909252949350505050565b80516001600160a01b03811681146200043f57600080fd5b919050565b60008060008060008060008060008060006101608c8e0312156200046757600080fd5b8b516001600160401b038111156200047e57600080fd5b6200048c8e828f0162000378565b60208e0151909c5090506001600160401b03811115620004ab57600080fd5b620004b98e828f0162000378565b9a5050620004ca60408d0162000427565b985060608c0151975060808c0151965060a08c0151955060c08c015160018060401b03811115620004fa57600080fd5b620005088e828f0162000378565b60e08e015190965090506001600160401b038111156200052757600080fd5b620005358e828f0162000378565b945050620005476101008d0162000427565b92506101208c01519150620005606101408d0162000427565b90509295989b509295989b9093969950565b600181811c908216806200058757607f821691505b602082108103620005a857634e487b7160e01b600052602260045260246000fd5b50919050565b601f821115620005fc57600081815260208120601f850160051c81016020861015620005d75750805b601f850160051c820191505b81811015620005f857828155600101620005e3565b5050505b505050565b81516001600160401b038111156200061d576200061d62000362565b62000635816200062e845462000572565b84620005ae565b602080601f8311600181146200066d5760008415620006545750858301515b600019600386901b1c1916600185901b178555620005f8565b600085815260208120601f198616915b828110156200069e578886015182559484019460019091019084016200067d565b5085821015620006bd5787850151600019600388901b60f8161c191681555b5050505050600190811b01905550565b6080516162946200072160003960008181610d8401528181611015015281816113190152818161147401528181611adc0152818161284901528181612d320152818161316501526145ca01526162946000f3fe6080604052600436106104c35760003560e01c806387c348bf11610276578063b353aaa71161014f578063df2a5b3b116100c1578063f235364111610085578063f235364114610f50578063f2e5b1c114610f70578063f2fde38b14610f90578063f5ecbdbc14610fb0578063fa25f9b614610fd0578063ff6c9bc914610ffd57600080fd5b8063df2a5b3b14610ec5578063e1d4c87014610ee5578063e8a3d48514610efb578063e985e9c514610f10578063eb8d72b714610f3057600080fd5b8063c87b56dd11610113578063c87b56dd14610e1d578063cbed8b9c14610e3d578063d12473a514610e5d578063d1deba1f14610e7d578063da323b7914610e90578063db1bc87b14610ea557600080fd5b8063b353aaa714610d72578063b88d4fde14610da6578063b91c7a8f14610dc6578063baf3292d14610de7578063c446183414610e0757600080fd5b80639f38369a116101e8578063a746ec05116101ac578063a746ec0514610cc1578063a7afd9c614610cd7578063a9d75b2b14610cf7578063aad3ec9614610d17578063ab3ffb9314610d37578063af3fb21c14610d4a57600080fd5b80639f38369a14610c35578063a035b1fe14610c55578063a12f86af14610c6b578063a22cb46514610c81578063a6c3d16514610ca157600080fd5b806391b7f5ed1161023a57806391b7f5ed14610b8a578063938e3d7b14610baa578063950c8a7414610bca57806395d89b4114610bea57806399c8d55614610bff5780639ea5d6b114610c1557600080fd5b806387c348bf14610ae0578063899d7b3814610aff5780638cfd8f5c14610b145780638da5cb5b14610b4c5780638ffa1f2a14610b6a57600080fd5b80633ccfd60b116103a85780635b8c41e61161031a57806370a08231116102de57806370a0823114610a2b578063715018a614610a4b5780637533d78814610a6057806378e3079e14610a805780637cb6475914610aa05780637fc071b314610ac057600080fd5b80635b8c41e61461096c578063600e97f6146109bb5780636352211e146109d557806366ad5c8a146109f55780636aa99da314610a1557600080fd5b806342d65a8d1161036c57806342d65a8d146108b657806348288190146108d65780634ac3f4ff146108ec5780634fdd43cb14610919578063519056361461093957806355f804b31461094c57600080fd5b80633ccfd60b146108125780633d8b38f6146108275780633f1f4fa41461084757806341f434341461087457806342842e0e1461089657600080fd5b8063129559e61161044157806323b872dd1161040557806323b872dd1461073c5780632a205e3d1461075c5780632e5bb6ff146107915780632eb4a7ab146107b15780633288a091146107c75780633b2c3fb6146107fd57600080fd5b8063129559e61461063557806317465471146106555780631c31f710146106795780631e730b571461069957806322a3ecf9146106b957600080fd5b8063095ea7b311610488578063095ea7b3146105a05780630b4cad4c146105c05780630df37483146105e057806310ddb137146106005780631291e33e1461062057600080fd5b80621d3567146104cf57806301ffc9a7146104f157806306fdde031461052657806307e0db1714610548578063081812fc1461056857600080fd5b366104ca57005b600080fd5b3480156104db57600080fd5b506104ef6104ea366004614e27565b611012565b005b3480156104fd57600080fd5b5061051161050c366004614ed0565b611243565b60405190151581526020015b60405180910390f35b34801561053257600080fd5b5061053b611266565b60405161051d9190614f3d565b34801561055457600080fd5b506104ef610563366004614f50565b6112f8565b34801561057457600080fd5b50610588610583366004614f6b565b611381565b6040516001600160a01b03909116815260200161051d565b3480156105ac57600080fd5b506104ef6105bb366004614fa4565b6113a8565b3480156105cc57600080fd5b506104ef6105db366004614f6b565b6113c1565b3480156105ec57600080fd5b506104ef6105fb366004614fd0565b611434565b34801561060c57600080fd5b506104ef61061b366004614f50565b611453565b34801561062c57600080fd5b506104ef6114ab565b34801561064157600080fd5b506104ef610650366004614fec565b6114c7565b34801561066157600080fd5b5061066b60155481565b60405190815260200161051d565b34801561068557600080fd5b506104ef61069436600461501c565b611751565b3480156106a557600080fd5b50602254610588906001600160a01b031681565b3480156106c557600080fd5b5061070d6106d4366004614f6b565b60096020526000908152604090208054600182015460029092015461ffff821692620100009092046001600160a01b0316919060ff1684565b6040805161ffff90951685526001600160a01b039093166020850152918301521515606082015260800161051d565b34801561074857600080fd5b506104ef610757366004615039565b61177b565b34801561076857600080fd5b5061077c610777366004615153565b6117a6565b6040805192835260208301919091520161051d565b34801561079d57600080fd5b506104ef6107ac366004614f6b565b6117cc565b3480156107bd57600080fd5b5061066b60185481565b3480156107d357600080fd5b506105886107e2366004614f6b565b6021602052600090815260409020546001600160a01b031681565b34801561080957600080fd5b506104ef6117d9565b34801561081e57600080fd5b506104ef611800565b34801561083357600080fd5b506105116108423660046151e5565b6119cc565b34801561085357600080fd5b5061066b610862366004614f50565b60036020526000908152604090205481565b34801561088057600080fd5b506105886daaeb6d7670e522a718067333cd4e81565b3480156108a257600080fd5b506104ef6108b1366004615039565b611a98565b3480156108c257600080fd5b506104ef6108d13660046151e5565b611abd565b3480156108e257600080fd5b5061066b60065481565b3480156108f857600080fd5b5061066b610907366004614f50565b60076020526000908152604090205481565b34801561092557600080fd5b506104ef610934366004615237565b611b43565b6104ef61094736600461527f565b611b57565b34801561095857600080fd5b506104ef610967366004615237565b611b6e565b34801561097857600080fd5b5061066b610987366004615338565b6005602090815260009384526040808520845180860184018051928152908401958401959095209452929052825290205481565b3480156109c757600080fd5b50601c546105119060ff1681565b3480156109e157600080fd5b506105886109f0366004614f6b565b611b82565b348015610a0157600080fd5b506104ef610a10366004614e27565b611be2565b348015610a2157600080fd5b5061066b60135481565b348015610a3757600080fd5b5061066b610a4636600461501c565b611cbe565b348015610a5757600080fd5b506104ef611d44565b348015610a6c57600080fd5b5061053b610a7b366004614f50565b611d58565b348015610a8c57600080fd5b506104ef610a9b36600461501c565b611df2565b348015610aac57600080fd5b506104ef610abb366004614f6b565b611e1c565b348015610acc57600080fd5b506104ef610adb366004614fec565b611e29565b348015610aec57600080fd5b50601c5461051190610100900460ff1681565b348015610b0b57600080fd5b506104ef611e6d565b348015610b2057600080fd5b5061066b610b2f366004615395565b600260209081526000928352604080842090915290825290205481565b348015610b5857600080fd5b506000546001600160a01b0316610588565b348015610b7657600080fd5b506104ef610b853660046153c8565b611e92565b348015610b9657600080fd5b506104ef610ba5366004614f6b565b6120dc565b348015610bb657600080fd5b506104ef610bc5366004615237565b6120e9565b348015610bd657600080fd5b50600454610588906001600160a01b031681565b348015610bf657600080fd5b5061053b6120fd565b348015610c0b57600080fd5b5061066b60115481565b348015610c2157600080fd5b506104ef610c30366004614fd0565b61210c565b348015610c4157600080fd5b5061053b610c50366004614f50565b61218f565b348015610c6157600080fd5b5061066b60125481565b348015610c7757600080fd5b5061066b60205481565b348015610c8d57600080fd5b506104ef610c9c3660046153fc565b6122a5565b348015610cad57600080fd5b506104ef610cbc3660046151e5565b6122b9565b348015610ccd57600080fd5b5061066b601f5481565b348015610ce357600080fd5b506104ef610cf236600461542a565b612342565b348015610d0357600080fd5b50601e54610588906001600160a01b031681565b348015610d2357600080fd5b506104ef610d32366004614fa4565b612358565b6104ef610d453660046154df565b612650565b348015610d5657600080fd5b50610d5f600181565b60405161ffff909116815260200161051d565b348015610d7e57600080fd5b506105887f000000000000000000000000000000000000000000000000000000000000000081565b348015610db257600080fd5b506104ef610dc1366004615594565b61265f565b348015610dd257600080fd5b50601e5461051190600160a01b900460ff1681565b348015610df357600080fd5b506104ef610e0236600461501c565b612685565b348015610e1357600080fd5b5061066b61271081565b348015610e2957600080fd5b5061053b610e38366004614f6b565b6126e1565b348015610e4957600080fd5b506104ef610e583660046155ff565b61282a565b348015610e6957600080fd5b506104ef610e78366004614fd0565b6128bf565b6104ef610e8b366004614e27565b612943565b348015610e9c57600080fd5b506104ef612b59565b348015610eb157600080fd5b506104ef610ec036600461501c565b612b82565b348015610ed157600080fd5b506104ef610ee036600461566d565b612bac565b348015610ef157600080fd5b5061066b60145481565b348015610f0757600080fd5b5061053b612c5e565b348015610f1c57600080fd5b50610511610f2b3660046156a9565b612c6b565b348015610f3c57600080fd5b506104ef610f4b3660046151e5565b612c99565b348015610f5c57600080fd5b5061077c610f6b3660046156d7565b612cf3565b348015610f7c57600080fd5b506104ef610f8b366004615754565b612dbe565b348015610f9c57600080fd5b506104ef610fab36600461501c565b6130bb565b348015610fbc57600080fd5b5061053b610fcb3660046157e7565b613134565b348015610fdc57600080fd5b5061066b610feb366004614f50565b60086020526000908152604090205481565b34801561100957600080fd5b506104ef6131e7565b337f00000000000000000000000000000000000000000000000000000000000000006001600160a01b03161461108f5760405162461bcd60e51b815260206004820152601e60248201527f4c7a4170703a20696e76616c696420656e64706f696e742063616c6c6572000060448201526064015b60405180910390fd5b61ffff8616600090815260016020526040812080546110ad90615834565b80601f01602080910402602001604051908101604052809291908181526020018280546110d990615834565b80156111265780601f106110fb57610100808354040283529160200191611126565b820191906000526020600020905b81548152906001019060200180831161110957829003601f168201915b50505050509050805186869050148015611141575060008151115b801561116957508051602082012060405161115f908890889061586e565b6040518091039020145b6111c45760405162461bcd60e51b815260206004820152602660248201527f4c7a4170703a20696e76616c696420736f757263652073656e64696e6720636f6044820152651b9d1c9858dd60d21b6064820152608401611086565b61123a8787878080601f01602080910402602001604051908101604052809392919081815260200183838082843760009201919091525050604080516020601f8a018190048102820181019092528881528a9350915088908890819084018382808284376000920191909152506131fe92505050565b50505050505050565b60006001600160e01b031982161580611260575061126082613277565b92915050565b6060600a805461127590615834565b80601f01602080910402602001604051908101604052809291908181526020018280546112a190615834565b80156112ee5780601f106112c3576101008083540402835291602001916112ee565b820191906000526020600020905b8154815290600101906020018083116112d157829003601f168201915b5050505050905090565b6113006132b7565b6040516307e0db1760e01b815261ffff821660048201527f00000000000000000000000000000000000000000000000000000000000000006001600160a01b0316906307e0db17906024015b600060405180830381600087803b15801561136657600080fd5b505af115801561137a573d6000803e3d6000fd5b5050505050565b600061138c82613311565b506000908152600e60205260409020546001600160a01b031690565b816113b281613361565b6113bc838361341a565b505050565b6113c96132b7565b6000811161142f5760405162461bcd60e51b815260206004820152602d60248201527f4f4e46543732313a206d696e476173546f5472616e73666572416e6453746f7260448201526c065206d757374206265203e203609c1b6064820152608401611086565b600655565b61143c6132b7565b61ffff909116600090815260036020526040902055565b61145b6132b7565b6040516310ddb13760e01b815261ffff821660048201527f00000000000000000000000000000000000000000000000000000000000000006001600160a01b0316906310ddb1379060240161134c565b6114b36132b7565b601c805460ff19811660ff90911615179055565b73abcc9b596420a9e9172fd5938620e265a0f9df9233146114fa5760405162461bcd60e51b81526004016110869061587e565b601c5460ff16151560011461156a5760405162461bcd60e51b815260206004820152603060248201527f4f4e46543732314761736c6573733a205075626c69632073616c65206861732060448201526f6e6f742073746172746564207965742160801b6064820152608401611086565b601c5460ff6101009091041615156001146115975760405162461bcd60e51b8152600401611086906158a7565b816000036115b75760405162461bcd60e51b8152600401611086906158f0565b6015548211156115d95760405162461bcd60e51b815260040161108690615935565b601454826013546115ea91906159bb565b11156116085760405162461bcd60e51b8152600401611086906159ce565b60006012541161166f5760405162461bcd60e51b815260206004820152602c60248201527f4f4e46543732314761736c6573733a20796f75206e65656420746f207365742060448201526b737461626c6520707269636560a01b6064820152608401611086565b601e546001600160a01b03166116d85760405162461bcd60e51b815260206004820152602860248201527f4f4e46543732314761736c6573733a206e6f7420737570706f727420737461626044820152673632903a37b5b2b760c11b6064820152608401611086565b6116e061352a565b6004821080156116fe5750601c546301000000900460ff1615156001145b156117305761172b813060125460036117179190615a14565b601e546001600160a01b0316929190613555565b611743565b6117438130846012546117179190615a14565b61174d81836135c0565b5050565b6117596132b7565b601680546001600160a01b0319166001600160a01b0392909216919091179055565b826001600160a01b03811633146117955761179533613361565b6117a08484846135fd565b50505050565b6000806117be87876117b78861362f565b8787612cf3565b915091509550959350505050565b6117d46132b7565b601155565b6117e16132b7565b601c805462ff0000198116620100009182900460ff1615909102179055565b6016546001600160a01b031633148061182357506000546001600160a01b031633145b61188d5760405162461bcd60e51b815260206004820152603560248201527f416476616e6365644f4e46543732314761736c6573733a2063616c6c6572206960448201527473206e6f74207468652062656e656669636961727960581b6064820152608401611086565b6016546001600160a01b03166118f35760405162461bcd60e51b815260206004820152602560248201527f416476616e6365644f4e46543732313a2042656e6566696369617279206e6f74604482015264207365742160d81b6064820152608401611086565b601e546040516370a0823160e01b81523060048201526000916001600160a01b0316906370a0823190602401602060405180830381865afa15801561193c573d6000803e3d6000fd5b505050506040513d601f19601f820116820180604052508101906119609190615a2b565b90506000612710601154836119759190615a14565b61197f9190615a44565b601754601e5491925061199f916001600160a01b0390811691168361367a565b60165461174d906001600160a01b03166119b98385615a66565b601e546001600160a01b0316919061367a565b61ffff8316600090815260016020526040812080548291906119ed90615834565b80601f0160208091040260200160405190810160405280929190818152602001828054611a1990615834565b8015611a665780601f10611a3b57610100808354040283529160200191611a66565b820191906000526020600020905b815481529060010190602001808311611a4957829003601f168201915b505050505090508383604051611a7d92919061586e565b60405180910390208180519060200120149150509392505050565b826001600160a01b0381163314611ab257611ab233613361565b6117a08484846136aa565b611ac56132b7565b6040516342d65a8d60e01b81526001600160a01b037f000000000000000000000000000000000000000000000000000000000000000016906342d65a8d90611b1590869086908690600401615aa2565b600060405180830381600087803b158015611b2f57600080fd5b505af115801561123a573d6000803e3d6000fd5b611b4b6132b7565b601b61174d8282615b06565b61123a878787611b668861362f565b8787876136c5565b611b766132b7565b601a61174d8282615b06565b6000818152600c60205260408120546001600160a01b0316806112605760405162461bcd60e51b8152602060048201526018602482015277115490cdcc8c4e881a5b9d985b1a59081d1bdad95b88125160421b6044820152606401611086565b333014611c405760405162461bcd60e51b815260206004820152602660248201527f4e6f6e626c6f636b696e674c7a4170703a2063616c6c6572206d7573742062656044820152650204c7a4170760d41b6064820152608401611086565b611cb68686868080601f01602080910402602001604051908101604052809392919081815260200183838082843760009201919091525050604080516020601f8901819004810282018101909252878152899350915087908790819084018382808284376000920191909152506138ac92505050565b505050505050565b60006001600160a01b038216611d285760405162461bcd60e51b815260206004820152602960248201527f4552433732313a2061646472657373207a65726f206973206e6f7420612076616044820152683634b21037bbb732b960b91b6064820152608401611086565b506001600160a01b03166000908152600d602052604090205490565b611d4c6132b7565b611d566000613a03565b565b60016020526000908152604090208054611d7190615834565b80601f0160208091040260200160405190810160405280929190818152602001828054611d9d90615834565b8015611dea5780601f10611dbf57610100808354040283529160200191611dea565b820191906000526020600020905b815481529060010190602001808311611dcd57829003601f168201915b505050505081565b611dfa6132b7565b601780546001600160a01b0319166001600160a01b0392909216919091179055565b611e246132b7565b601855565b611e316132b7565b601e805460ff60a01b1916600160a01b179055601f91909155602280546001600160a01b039092166001600160a01b0319909216919091179055565b611e756132b7565b601c805461ff001981166101009182900460ff1615909102179055565b80516020808301919091206000818152600990925260409091206002015460ff16611eff5760405162461bcd60e51b815260206004820152601a60248201527f4f4e46543732313a206e6f20637265646974732073746f7265640000000000006044820152606401611086565b600082806020019051810190611f159190615c0a565b60008481526009602052604081208054600190910154929450909250611f519161ffff8216916201000090046001600160a01b03169085613a53565b6000848152600960205260409020600101549091508111611fcf5760405162461bcd60e51b815260206004820152603260248201527f4f4e46543732313a206e6f7420656e6f7567682067617320746f2070726f636560448201527139b99031b932b234ba103a3930b739b332b960711b6064820152608401611086565b815181036120465760008381526009602052604080822080546001600160b01b031916815560018101929092556002909101805460ff19169055517fd7be02b8dd0d27bd0517a9cb4d7469ce27df4313821ae5ec1ff69acc594ba233906120399085815260200190565b60405180910390a16117a0565b60408051608081018252600085815260096020818152848320805461ffff8082168752620100008083046001600160a01b03908116868a019081529989019a8b52600160608a018181529d9098529590945295519651969095166001600160b01b031990951694909417949091160292909217815591519082015591516002909201805460ff1916921515929092179091555050565b6120e46132b7565b601255565b6120f16132b7565b601961174d8282615b06565b6060600b805461127590615834565b6121146132b7565b600081116121785760405162461bcd60e51b815260206004820152602b60248201527f4f4e46543732313a20647374436861696e4964546f42617463684c696d69742060448201526a06d757374206265203e20360ac1b6064820152608401611086565b61ffff909116600090815260076020526040902055565b61ffff81166000908152600160205260408120805460609291906121b290615834565b80601f01602080910402602001604051908101604052809291908181526020018280546121de90615834565b801561222b5780601f106122005761010080835404028352916020019161222b565b820191906000526020600020905b81548152906001019060200180831161220e57829003601f168201915b5050505050905080516000036122835760405162461bcd60e51b815260206004820152601d60248201527f4c7a4170703a206e6f20747275737465642070617468207265636f72640000006044820152606401611086565b61229e6000601483516122969190615a66565b839190613a9f565b9392505050565b816122af81613361565b6113bc8383613bac565b6122c16132b7565b8181306040516020016122d693929190615cc4565b60408051601f1981840301815291815261ffff85166000908152600160205220906123019082615b06565b507f8c0400cfe2d1199b1a725c78960bcc2a344d869b80590d0f2bd005db15a572ce83838360405161233593929190615aa2565b60405180910390a1505050565b61234a6132b7565b601392909255601455601555565b73abcc9b596420a9e9172fd5938620e265a0f9df92331461238b5760405162461bcd60e51b81526004016110869061587e565b601e54600160a01b900460ff1615156001146123fb5760405162461bcd60e51b815260206004820152602960248201527f456c656d656e744f4e46543732313a2053616c6520686173206e6f742073746160448201526872746564207965742160b81b6064820152608401611086565b60145460135461240c9060016159bb565b11156124695760405162461bcd60e51b815260206004820152602660248201527f456c656d656e744f4e46543732313a206d6178206d696e74206c696d69742072604482015265195858da195960d21b6064820152608401611086565b601f5460205461247a9060016159bb565b11156124d85760405162461bcd60e51b815260206004820152602760248201527f456c656d656e744f4e46543732313a206d617820636c61696d206c696d6974206044820152661c995858da195960ca1b6064820152608401611086565b6022546040516331a9108f60e11b8152600481018390526001600160a01b03848116921690636352211e90602401602060405180830381865afa158015612523573d6000803e3d6000fd5b505050506040513d601f19601f820116820180604052508101906125479190615cea565b6001600160a01b03161461259d5760405162461bcd60e51b815260206004820152601c60248201527f456c656d656e744f4e46543732313a206e6f74206f776e6572206f66000000006044820152606401611086565b6000818152602160205260409020546001600160a01b0316156126025760405162461bcd60e51b815260206004820152601f60248201527f456c656d656e744f4e46543732313a20616c726561647920636c61696d6564006044820152606401611086565b61260a61352a565b6000818152602160209081526040822080546001600160a01b0319166001600160a01b038616179055805490919061264190615d07565b9091555061174d8260016135c0565b61123a878787878787876136c5565b836001600160a01b03811633146126795761267933613361565b61137a85858585613bb7565b61268d6132b7565b600480546001600160a01b0319166001600160a01b0383169081179091556040519081527f5db758e995a17ec1ad84bdef7e8c3293a0bd6179bcce400dff5d4c3d87db726b9060200160405180910390a150565b60606126ec82613be9565b6127505760405162461bcd60e51b815260206004820152602f60248201527f4552433732314d657461646174613a2055524920717565727920666f72206e6f60448201526e3732bc34b9ba32b73a103a37b5b2b760891b6064820152608401611086565b601c5462010000900460ff166127f257601b805461276d90615834565b80601f016020809104026020016040519081016040528092919081815260200182805461279990615834565b80156127e65780601f106127bb576101008083540402835291602001916127e6565b820191906000526020600020905b8154815290600101906020018083116127c957829003601f168201915b50505050509050919050565b6127fa613c06565b61280383613c15565b604051602001612814929190615d20565b6040516020818303038152906040529050919050565b6128326132b7565b6040516332fb62e760e21b81526001600160a01b037f0000000000000000000000000000000000000000000000000000000000000000169063cbed8b9c906128869088908890889088908890600401615d4f565b600060405180830381600087803b1580156128a057600080fd5b505af11580156128b4573d6000803e3d6000fd5b505050505050505050565b6128c76132b7565b6000811161292c5760405162461bcd60e51b815260206004820152602c60248201527f4f4e46543732313a20647374436861696e4964546f5472616e7366657247617360448201526b0206d757374206265203e20360a41b6064820152608401611086565b61ffff909116600090815260086020526040902055565b61ffff86166000908152600560205260408082209051612966908890889061586e565b90815260408051602092819003830190206001600160401b038716600090815292529020549050806129e65760405162461bcd60e51b815260206004820152602360248201527f4e6f6e626c6f636b696e674c7a4170703a206e6f2073746f726564206d65737360448201526261676560e81b6064820152608401611086565b8083836040516129f792919061586e565b604051809103902014612a565760405162461bcd60e51b815260206004820152602160248201527f4e6f6e626c6f636b696e674c7a4170703a20696e76616c6964207061796c6f616044820152601960fa1b6064820152608401611086565b61ffff87166000908152600560205260408082209051612a79908990899061586e565b90815260408051602092819003830181206001600160401b038916600090815290845282902093909355601f88018290048202830182019052868252612b11918991899089908190840183828082843760009201919091525050604080516020601f8a018190048102820181019092528881528a9350915088908890819084018382808284376000920191909152506138ac92505050565b7fc264d91f3adc5588250e1551f547752ca0cfa8f6b530d243b9f9f4cab10ea8e58787878785604051612b48959493929190615d7d565b60405180910390a150505050505050565b612b616132b7565b601c805463ff00000019811663010000009182900460ff1615909102179055565b612b8a6132b7565b601e80546001600160a01b0319166001600160a01b0392909216919091179055565b612bb46132b7565b60008111612bfc5760405162461bcd60e51b81526020600482015260156024820152744c7a4170703a20696e76616c6964206d696e47617360581b6044820152606401611086565b61ffff83811660008181526002602090815260408083209487168084529482529182902085905581519283528201929092529081018290527f9d5c7c0b934da8fefa9c7760c98383778a12dfbfc0c3b3106518f43fb9508ac090606001612335565b60198054611d7190615834565b6001600160a01b039182166000908152600f6020908152604080832093909416825291909152205460ff1690565b612ca16132b7565b61ffff83166000908152600160205260409020612cbf828483615db8565b507ffa41487ad5d6728f0b19276fa1eddc16558578f5109fc39d2dc33c3230470dab83838360405161233593929190615aa2565b60008060008686604051602001612d0b929190615eb2565b60408051601f198184030181529082905263040a7bb160e41b825291506001600160a01b037f000000000000000000000000000000000000000000000000000000000000000016906340a7bb1090612d6f908b90309086908b908b90600401615ee0565b6040805180830381865afa158015612d8b573d6000803e3d6000fd5b505050506040513d601f19601f82011682018060405250810190612daf9190615f34565b92509250509550959350505050565b73abcc9b596420a9e9172fd5938620e265a0f9df923314612df15760405162461bcd60e51b81526004016110869061587e565b601c5460ff610100909104161515600114612e1e5760405162461bcd60e51b8152600401611086906158a7565b84600003612e3e5760405162461bcd60e51b8152600401611086906158f0565b601554851115612e605760405162461bcd60e51b815260040161108690615935565b60145485601354612e7191906159bb565b1115612e8f5760405162461bcd60e51b8152600401611086906159ce565b6001600160a01b0384166000908152601d60205260409020548190612eb990879061ffff166159bb565b1115612f2d5760405162461bcd60e51b815260206004820152603d60248201527f4f4e46543732314761736c6573733a2063616e6e6f74206d696e74206d6f726560448201527f207468616e20796f75722077686974656c697374656420616d6f756e740000006064820152608401611086565b6000612fac848480806020026020016040519081016040528093929190818152602001838360200280828437600092019190915250506018546040516bffffffffffffffffffffffff1960608c901b16602082015260348101889052909250605401905060405160208183030381529060405280519060200120613ca7565b905060018115151461300c5760405162461bcd60e51b8152602060048201526024808201527f4f4e46543732314761736c6573733a20496e76616c6964204d65726b6c6520506044820152633937b7b360e11b6064820152608401611086565b61301461352a565b6004861080156130325750601c546301000000900460ff1615156001145b156130505761304b853060125460036117179190615a14565b613063565b6130638530886012546117179190615a14565b61306d85876135c0565b6001600160a01b0385166000908152601d60205260408120805488929061309990849061ffff16615f58565b92506101000a81548161ffff021916908361ffff160217905550505050505050565b6130c36132b7565b6001600160a01b0381166131285760405162461bcd60e51b815260206004820152602660248201527f4f776e61626c653a206e6577206f776e657220697320746865207a65726f206160448201526564647265737360d01b6064820152608401611086565b61313181613a03565b50565b604051633d7b2f6f60e21b815261ffff808616600483015284166024820152306044820152606481018290526060907f00000000000000000000000000000000000000000000000000000000000000006001600160a01b03169063f5ecbdbc90608401600060405180830381865afa1580156131b4573d6000803e3d6000fd5b505050506040513d6000823e601f3d908101601f191682016040526131dc9190810190615f7a565b90505b949350505050565b6131ef6132b7565b601e805460ff60a01b19169055565b6000806132615a60966366ad5c8a60e01b898989896040516024016132269493929190615fae565b60408051601f198184030181529190526020810180516001600160e01b03166001600160e01b03199093169290921790915230929190613cbd565b9150915081611cb657611cb68686868685613d47565b60006001600160e01b031982166380ac58cd60e01b14806132a857506001600160e01b03198216635b5e139f60e01b145b80611260575061126082613de4565b6000546001600160a01b03163314611d565760405162461bcd60e51b815260206004820181905260248201527f4f776e61626c653a2063616c6c6572206973206e6f7420746865206f776e65726044820152606401611086565b61331a81613be9565b6131315760405162461bcd60e51b8152602060048201526018602482015277115490cdcc8c4e881a5b9d985b1a59081d1bdad95b88125160421b6044820152606401611086565b6daaeb6d7670e522a718067333cd4e3b1561313157604051633185c44d60e21b81523060048201526001600160a01b03821660248201526daaeb6d7670e522a718067333cd4e9063c617113490604401602060405180830381865afa1580156133ce573d6000803e3d6000fd5b505050506040513d601f19601f820116820180604052508101906133f29190615fec565b61313157604051633b79c77360e21b81526001600160a01b0382166004820152602401611086565b600061342582611b82565b9050806001600160a01b0316836001600160a01b0316036134925760405162461bcd60e51b815260206004820152602160248201527f4552433732313a20617070726f76616c20746f2063757272656e74206f776e656044820152603960f91b6064820152608401611086565b336001600160a01b03821614806134ae57506134ae8133612c6b565b6135205760405162461bcd60e51b815260206004820152603d60248201527f4552433732313a20617070726f76652063616c6c6572206973206e6f7420746f60448201527f6b656e206f776e6572206f7220617070726f76656420666f7220616c6c0000006064820152608401611086565b6113bc8383613e19565b611d5636604719013560601c36601f19013536603319013560601c6001600160a01b03169190613e87565b6040516001600160a01b03808516602483015283166044820152606481018290526117a09085906323b872dd60e01b906084015b60408051601f198184030181529190526020810180516001600160e01b03166001600160e01b031990931692909217909152613ed6565b60135460005b828110156135f5576135e3846135db84615d07565b935083613fa8565b806135ed81615d07565b9150506135c6565b506013555050565b613608335b82614115565b6136245760405162461bcd60e51b815260040161108690616009565b6113bc838383614173565b6040805160018082528183019092526060916000919060208083019080368337019050509050828160008151811061366957613669616056565b602090810291909101015292915050565b6040516001600160a01b0383166024820152604481018290526113bc90849063a9059cbb60e01b90606401613589565b6113bc8383836040518060200160405280600081525061265f565b60008451116137165760405162461bcd60e51b815260206004820152601a60248201527f4c7a4170703a20746f6b656e4964735b5d20697320656d7074790000000000006044820152606401611086565b83516001148061373a575061ffff8616600090815260076020526040902054845111155b61379a5760405162461bcd60e51b815260206004820152602b60248201527f4f4e46543732313a2062617463682073697a652065786365656473206473742060448201526a18985d18da081b1a5b5a5d60aa1b6064820152608401611086565b60005b84518110156137dd576137cb8888888885815181106137be576137be616056565b60200260200101516142d7565b806137d581615d07565b91505061379d565b50600085856040516020016137f3929190615eb2565b6040516020818303038152906040529050613838876001848851600860008d61ffff1661ffff168152602001908152602001600020546138339190615a14565b6143c2565b6138468782868686346144a1565b85604051613854919061606c565b6040518091039020886001600160a01b03168861ffff167fe1b87c47fdeb4f9cbadbca9df3af7aba453bb6e501075d0440d88125b711522a8860405161389a9190616088565b60405180910390a45050505050505050565b600080828060200190518101906138c39190615c0a565b6014820151919350915060006138db88838386613a53565b905082518110156139af5784516020808701919091206040805160808101825261ffff808d1682526001600160a01b0380881683870190815283850188815260016060860181815260008981526009909a529887902095518654935190941662010000026001600160b01b03199093169390941692909217178355519082015592516002909301805493151560ff199094169390931790925590517f10e0b70d256bccc84b7027506978bd8b68984a870788b93b479def144c839ad7906139a5908390899061609b565b60405180910390a1505b816001600160a01b0316876040516139c7919061606c565b60405180910390208961ffff167f5b821db8a46f8ecbe1941ba2f51cfeea9643268b56631f70d45e2a745d9902658660405161389a9190616088565b600080546001600160a01b038381166001600160a01b0319831681178455604051919092169283917f8be0079c531659141344cd1fd0a4f28419497f9722a3daafe3b4186f6b6457e09190a35050565b6000825b82518110156131dc576006545a106131dc57613a8d8686858481518110613a8057613a80616056565b6020026020010151614646565b80613a9781615d07565b915050613a57565b606081613aad81601f6159bb565b1015613aec5760405162461bcd60e51b815260206004820152600e60248201526d736c6963655f6f766572666c6f7760901b6044820152606401611086565b613af682846159bb565b84511015613b3a5760405162461bcd60e51b8152602060048201526011602482015270736c6963655f6f75744f66426f756e647360781b6044820152606401611086565b606082158015613b595760405191506000825260208201604052613ba3565b6040519150601f8416801560200281840101858101878315602002848b0101015b81831015613b92578051835260209283019201613b7a565b5050858452601f01601f1916604052505b50949350505050565b61174d3383836146a6565b613bc13383614115565b613bdd5760405162461bcd60e51b815260040161108690616009565b6117a084848484614774565b6000908152600c60205260409020546001600160a01b0316151590565b6060601a805461127590615834565b60606000613c22836147a7565b60010190506000816001600160401b03811115613c4157613c4161507a565b6040519080825280601f01601f191660200182016040528015613c6b576020820181803683370190505b5090508181016020015b600019016f181899199a1a9b1b9c1cb0b131b232b360811b600a86061a8153600a8504945084613c7557509392505050565b600082613cb4858461487f565b14949350505050565b6000606060008060008661ffff166001600160401b03811115613ce257613ce261507a565b6040519080825280601f01601f191660200182016040528015613d0c576020820181803683370190505b50905060008087516020890160008d8df191503d925086831115613d2e578692505b828152826000602083013e909890975095505050505050565b8180519060200120600560008761ffff1661ffff16815260200190815260200160002085604051613d78919061606c565b9081526040805191829003602090810183206001600160401b0388166000908152915220919091557fe183f33de2837795525b4792ca4cd60535bd77c53b7e7030060bfcf5734d6b0c90613dd590879087908790879087906160b4565b60405180910390a15050505050565b60006001600160e01b031982166322bac5d960e01b148061126057506301ffc9a760e01b6001600160e01b0319831614611260565b6000818152600e6020526040902080546001600160a01b0319166001600160a01b0384169081179091558190613e4e82611b82565b6001600160a01b03167f8c5be1e5ebec7d5bd14f71427d1e84f3dd0314c0f7b2291e5b200ac8c7c3b92560405160405180910390a45050565b80600003613e9457505050565b6001600160a01b03831673eeeeeeeeeeeeeeeeeeeeeeeeeeeeeeeeeeeeeeee14613ecc576113bc6001600160a01b038416838361367a565b6113bc82826148cc565b6000613f2b826040518060400160405280602081526020017f5361666545524332303a206c6f772d6c6576656c2063616c6c206661696c6564815250856001600160a01b03166149e59092919063ffffffff16565b8051909150156113bc5780806020019051810190613f499190615fec565b6113bc5760405162461bcd60e51b815260206004820152602a60248201527f5361666545524332303a204552433230206f7065726174696f6e20646964206e6044820152691bdd081cdd58d8d9595960b21b6064820152608401611086565b6001600160a01b038216613ffe5760405162461bcd60e51b815260206004820181905260248201527f4552433732313a206d696e7420746f20746865207a65726f20616464726573736044820152606401611086565b61400781613be9565b156140545760405162461bcd60e51b815260206004820152601c60248201527f4552433732313a20746f6b656e20616c7265616479206d696e746564000000006044820152606401611086565b61405d81613be9565b156140aa5760405162461bcd60e51b815260206004820152601c60248201527f4552433732313a20746f6b656e20616c7265616479206d696e746564000000006044820152606401611086565b6001600160a01b0382166000818152600d6020908152604080832080546001019055848352600c90915280822080546001600160a01b0319168417905551839291907fddf252ad1be2c89b69c2b068fc378daa952ba7f163c4a11628f55a4df523b3ef908290a45050565b60008061412183611b82565b9050806001600160a01b0316846001600160a01b0316148061414857506141488185612c6b565b806131df5750836001600160a01b031661416184611381565b6001600160a01b031614949350505050565b826001600160a01b031661418682611b82565b6001600160a01b0316146141ac5760405162461bcd60e51b815260040161108690616106565b6001600160a01b03821661420e5760405162461bcd60e51b8152602060048201526024808201527f4552433732313a207472616e7366657220746f20746865207a65726f206164646044820152637265737360e01b6064820152608401611086565b826001600160a01b031661422182611b82565b6001600160a01b0316146142475760405162461bcd60e51b815260040161108690616106565b6000818152600e6020908152604080832080546001600160a01b03199081169091556001600160a01b03878116808652600d8552838620805460001901905590871680865283862080546001019055868652600c90945282852080549092168417909155905184937fddf252ad1be2c89b69c2b068fc378daa952ba7f163c4a11628f55a4df523b3ef91a4505050565b6142e033613602565b6143435760405162461bcd60e51b815260206004820152602e60248201527f4f4e46543732313a2073656e642063616c6c6572206973206e6f74206f776e6560448201526d1c881b9bdc88185c1c1c9bdd995960921b6064820152608401611086565b836001600160a01b031661435682611b82565b6001600160a01b0316146143b75760405162461bcd60e51b815260206004820152602260248201527f4f4e46543732313a2073656e642066726f6d20696e636f7272656374206f776e60448201526132b960f11b6064820152608401611086565b6117a0843083614173565b60006143cd836149f4565b61ffff8087166000908152600260209081526040808320938916835292905290812054919250906143ff9084906159bb565b9050600081116144515760405162461bcd60e51b815260206004820152601a60248201527f4c7a4170703a206d696e4761734c696d6974206e6f74207365740000000000006044820152606401611086565b80821015611cb65760405162461bcd60e51b815260206004820152601b60248201527f4c7a4170703a20676173206c696d697420697320746f6f206c6f7700000000006044820152606401611086565b61ffff8616600090815260016020526040812080546144bf90615834565b80601f01602080910402602001604051908101604052809291908181526020018280546144eb90615834565b80156145385780601f1061450d57610100808354040283529160200191614538565b820191906000526020600020905b81548152906001019060200180831161451b57829003601f168201915b5050505050905080516000036145a95760405162461bcd60e51b815260206004820152603060248201527f4c7a4170703a2064657374696e6174696f6e20636861696e206973206e6f742060448201526f61207472757374656420736f7572636560801b6064820152608401611086565b6145b4878751614a50565b60405162c5803160e81b81526001600160a01b037f0000000000000000000000000000000000000000000000000000000000000000169063c580310090849061460b908b9086908c908c908c908c9060040161614b565b6000604051808303818588803b15801561462457600080fd5b505af1158015614638573d6000803e3d6000fd5b505050505050505050505050565b61464f81613be9565b158061467b575061465f81613be9565b801561467b57503061467082611b82565b6001600160a01b0316145b61468457600080fd5b61468d81613be9565b61469b576113bc8282614ac1565b6113bc308383614173565b816001600160a01b0316836001600160a01b0316036147075760405162461bcd60e51b815260206004820152601960248201527f4552433732313a20617070726f766520746f2063616c6c6572000000000000006044820152606401611086565b6001600160a01b038381166000818152600f6020908152604080832094871680845294825291829020805460ff191686151590811790915591519182527f17307eab39ab6107e8899845ad3d59bd9653f200f220920489ca2b5937696c31910160405180910390a3505050565b61477f848484614173565b61478b84848484614adb565b6117a05760405162461bcd60e51b8152600401611086906161b2565b60008072184f03e93ff9f4daa797ed6e38ed64bf6a1f0160401b83106147e65772184f03e93ff9f4daa797ed6e38ed64bf6a1f0160401b830492506040015b6d04ee2d6d415b85acef81000000008310614812576d04ee2d6d415b85acef8100000000830492506020015b662386f26fc10000831061483057662386f26fc10000830492506010015b6305f5e1008310614848576305f5e100830492506008015b612710831061485c57612710830492506004015b6064831061486e576064830492506002015b600a83106112605760010192915050565b600081815b84518110156148c4576148b0828683815181106148a3576148a3616056565b6020026020010151614bd9565b9150806148bc81615d07565b915050614884565b509392505050565b8047101561491c5760405162461bcd60e51b815260206004820152601d60248201527f416464726573733a20696e73756666696369656e742062616c616e63650000006044820152606401611086565b6000826001600160a01b03168260405160006040518083038185875af1925050503d8060008114614969576040519150601f19603f3d011682016040523d82523d6000602084013e61496e565b606091505b50509050806113bc5760405162461bcd60e51b815260206004820152603a60248201527f416464726573733a20756e61626c6520746f2073656e642076616c75652c207260448201527f6563697069656e74206d617920686176652072657665727465640000000000006064820152608401611086565b60606131df8484600085614c05565b6000602282511015614a485760405162461bcd60e51b815260206004820152601c60248201527f4c7a4170703a20696e76616c69642061646170746572506172616d73000000006044820152606401611086565b506022015190565b61ffff821660009081526003602052604081205490819003614a7157506127105b808211156113bc5760405162461bcd60e51b815260206004820181905260248201527f4c7a4170703a207061796c6f61642073697a6520697320746f6f206c617267656044820152606401611086565b61174d828260405180602001604052806000815250614ce0565b60006001600160a01b0384163b15614bd157604051630a85bd0160e11b81526001600160a01b0385169063150b7a0290614b1f903390899088908890600401616204565b6020604051808303816000875af1925050508015614b5a575060408051601f3d908101601f19168201909252614b5791810190616241565b60015b614bb7573d808015614b88576040519150601f19603f3d011682016040523d82523d6000602084013e614b8d565b606091505b508051600003614baf5760405162461bcd60e51b8152600401611086906161b2565b805181602001fd5b6001600160e01b031916630a85bd0160e11b1490506131df565b5060016131df565b6000818310614bf557600082815260208490526040902061229e565b5060009182526020526040902090565b606082471015614c665760405162461bcd60e51b815260206004820152602660248201527f416464726573733a20696e73756666696369656e742062616c616e636520666f6044820152651c8818d85b1b60d21b6064820152608401611086565b600080866001600160a01b03168587604051614c82919061606c565b60006040518083038185875af1925050503d8060008114614cbf576040519150601f19603f3d011682016040523d82523d6000602084013e614cc4565b606091505b5091509150614cd587838387614d13565b979650505050505050565b614cea8383613fa8565b614cf76000848484614adb565b6113bc5760405162461bcd60e51b8152600401611086906161b2565b60608315614d82578251600003614d7b576001600160a01b0385163b614d7b5760405162461bcd60e51b815260206004820152601d60248201527f416464726573733a2063616c6c20746f206e6f6e2d636f6e74726163740000006044820152606401611086565b50816131df565b6131df8383815115614d975781518083602001fd5b8060405162461bcd60e51b81526004016110869190614f3d565b803561ffff81168114614dc357600080fd5b919050565b60008083601f840112614dda57600080fd5b5081356001600160401b03811115614df157600080fd5b602083019150836020828501011115614e0957600080fd5b9250929050565b80356001600160401b0381168114614dc357600080fd5b60008060008060008060808789031215614e4057600080fd5b614e4987614db1565b955060208701356001600160401b0380821115614e6557600080fd5b614e718a838b01614dc8565b9097509550859150614e8560408a01614e10565b94506060890135915080821115614e9b57600080fd5b50614ea889828a01614dc8565b979a9699509497509295939492505050565b6001600160e01b03198116811461313157600080fd5b600060208284031215614ee257600080fd5b813561229e81614eba565b60005b83811015614f08578181015183820152602001614ef0565b50506000910152565b60008151808452614f29816020860160208601614eed565b601f01601f19169290920160200192915050565b60208152600061229e6020830184614f11565b600060208284031215614f6257600080fd5b61229e82614db1565b600060208284031215614f7d57600080fd5b5035919050565b6001600160a01b038116811461313157600080fd5b8035614dc381614f84565b60008060408385031215614fb757600080fd5b8235614fc281614f84565b946020939093013593505050565b60008060408385031215614fe357600080fd5b614fc283614db1565b60008060408385031215614fff57600080fd5b82359150602083013561501181614f84565b809150509250929050565b60006020828403121561502e57600080fd5b813561229e81614f84565b60008060006060848603121561504e57600080fd5b833561505981614f84565b9250602084013561506981614f84565b929592945050506040919091013590565b634e487b7160e01b600052604160045260246000fd5b604051601f8201601f191681016001600160401b03811182821017156150b8576150b861507a565b604052919050565b60006001600160401b038211156150d9576150d961507a565b50601f01601f191660200190565b60006150fa6150f5846150c0565b615090565b905082815283838301111561510e57600080fd5b828260208301376000602084830101529392505050565b600082601f83011261513657600080fd5b61229e838335602085016150e7565b801515811461313157600080fd5b600080600080600060a0868803121561516b57600080fd5b61517486614db1565b945060208601356001600160401b038082111561519057600080fd5b61519c89838a01615125565b955060408801359450606088013591506151b582615145565b909250608087013590808211156151cb57600080fd5b506151d888828901615125565b9150509295509295909350565b6000806000604084860312156151fa57600080fd5b61520384614db1565b925060208401356001600160401b0381111561521e57600080fd5b61522a86828701614dc8565b9497909650939450505050565b60006020828403121561524957600080fd5b81356001600160401b0381111561525f57600080fd5b8201601f8101841361527057600080fd5b6131df848235602084016150e7565b600080600080600080600060e0888a03121561529a57600080fd5b87356152a581614f84565b96506152b360208901614db1565b955060408801356001600160401b03808211156152cf57600080fd5b6152db8b838c01615125565b965060608a0135955060808a013591506152f482614f84565b90935060a08901359061530682614f84565b90925060c0890135908082111561531c57600080fd5b506153298a828b01615125565b91505092959891949750929550565b60008060006060848603121561534d57600080fd5b61535684614db1565b925060208401356001600160401b0381111561537157600080fd5b61537d86828701615125565b92505061538c60408501614e10565b90509250925092565b600080604083850312156153a857600080fd5b6153b183614db1565b91506153bf60208401614db1565b90509250929050565b6000602082840312156153da57600080fd5b81356001600160401b038111156153f057600080fd5b6131df84828501615125565b6000806040838503121561540f57600080fd5b823561541a81614f84565b9150602083013561501181615145565b60008060006060848603121561543f57600080fd5b505081359360208301359350604090920135919050565b60006001600160401b0382111561546f5761546f61507a565b5060051b60200190565b600082601f83011261548a57600080fd5b8135602061549a6150f583615456565b82815260059290921b840181019181810190868411156154b957600080fd5b8286015b848110156154d457803583529183019183016154bd565b509695505050505050565b600080600080600080600060e0888a0312156154fa57600080fd5b873561550581614f84565b965061551360208901614db1565b955060408801356001600160401b038082111561552f57600080fd5b61553b8b838c01615125565b965060608a013591508082111561555157600080fd5b61555d8b838c01615479565b955060808a0135915061556f82614f84565b81945061557e60a08b01614f99565b935060c08a013591508082111561531c57600080fd5b600080600080608085870312156155aa57600080fd5b84356155b581614f84565b935060208501356155c581614f84565b92506040850135915060608501356001600160401b038111156155e757600080fd5b6155f387828801615125565b91505092959194509250565b60008060008060006080868803121561561757600080fd5b61562086614db1565b945061562e60208701614db1565b93506040860135925060608601356001600160401b0381111561565057600080fd5b61565c88828901614dc8565b969995985093965092949392505050565b60008060006060848603121561568257600080fd5b61568b84614db1565b925061569960208501614db1565b9150604084013590509250925092565b600080604083850312156156bc57600080fd5b82356156c781614f84565b9150602083013561501181614f84565b600080600080600060a086880312156156ef57600080fd5b6156f886614db1565b945060208601356001600160401b038082111561571457600080fd5b61572089838a01615125565b9550604088013591508082111561573657600080fd5b61574289838a01615479565b9450606088013591506151b582615145565b60008060008060006080868803121561576c57600080fd5b85359450602086013561577e81614f84565b935060408601356001600160401b038082111561579a57600080fd5b818801915088601f8301126157ae57600080fd5b8135818111156157bd57600080fd5b8960208260051b85010111156157d257600080fd5b96999598505060200195606001359392505050565b600080600080608085870312156157fd57600080fd5b61580685614db1565b935061581460208601614db1565b9250604085013561582481614f84565b9396929550929360600135925050565b600181811c9082168061584857607f821691505b60208210810361586857634e487b7160e01b600052602260045260246000fd5b50919050565b8183823760009101908152919050565b6020808252600f908201526e6f6e6c7947656c61746f52656c617960881b604082015260600190565b60208082526029908201527f4f4e46543732314761736c6573733a2053616c6520686173206e6f742073746160408201526872746564207965742160b81b606082015260800190565b60208082526025908201527f4f4e46543732314761736c6573733a2043616e6e6f74206d696e74203020746f6040820152646b656e732160d81b606082015260800190565b6020808252604a908201527f4f4e46543732314761736c6573733a20596f752063616e6e6f74206d696e742060408201527f6d6f7265207468616e206d6178546f6b656e735065724d696e7420746f6b656e60608201526973206174206f6e63652160b01b608082015260a00190565b634e487b7160e01b600052601160045260246000fd5b80820180821115611260576112606159a5565b60208082526026908201527f4f4e46543732314761736c6573733a206d6178206d696e74206c696d69742072604082015265195858da195960d21b606082015260800190565b8082028115828204841417611260576112606159a5565b600060208284031215615a3d57600080fd5b5051919050565b600082615a6157634e487b7160e01b600052601260045260246000fd5b500490565b81810381811115611260576112606159a5565b81835281816020850137506000828201602090810191909152601f909101601f19169091010190565b61ffff841681526040602082015260006131dc604083018486615a79565b601f8211156113bc57600081815260208120601f850160051c81016020861015615ae75750805b601f850160051c820191505b81811015611cb657828155600101615af3565b81516001600160401b03811115615b1f57615b1f61507a565b615b3381615b2d8454615834565b84615ac0565b602080601f831160018114615b685760008415615b505750858301515b600019600386901b1c1916600185901b178555611cb6565b600085815260208120601f198616915b82811015615b9757888601518255948401946001909101908401615b78565b5085821015615bb55787850151600019600388901b60f8161c191681555b5050505050600190811b01905550565b600082601f830112615bd657600080fd5b8151615be46150f5826150c0565b818152846020838601011115615bf957600080fd5b6131df826020830160208701614eed565b60008060408385031215615c1d57600080fd5b82516001600160401b0380821115615c3457600080fd5b615c4086838701615bc5565b9350602091508185015181811115615c5757600080fd5b85019050601f81018613615c6a57600080fd5b8051615c786150f582615456565b81815260059190911b82018301908381019088831115615c9757600080fd5b928401925b82841015615cb557835182529284019290840190615c9c565b80955050505050509250929050565b8284823760609190911b6bffffffffffffffffffffffff19169101908152601401919050565b600060208284031215615cfc57600080fd5b815161229e81614f84565b600060018201615d1957615d196159a5565b5060010190565b60008351615d32818460208801614eed565b835190830190615d46818360208801614eed565b01949350505050565b600061ffff808816835280871660208401525084604083015260806060830152614cd5608083018486615a79565b61ffff86168152608060208201526000615d9b608083018688615a79565b6001600160401b0394909416604083015250606001529392505050565b6001600160401b03831115615dcf57615dcf61507a565b615de383615ddd8354615834565b83615ac0565b6000601f841160018114615e175760008515615dff5750838201355b600019600387901b1c1916600186901b17835561137a565b600083815260209020601f19861690835b82811015615e485786850135825560209485019460019092019101615e28565b5086821015615e655760001960f88860031b161c19848701351681555b505060018560011b0183555050505050565b600081518084526020808501945080840160005b83811015615ea757815187529582019590820190600101615e8b565b509495945050505050565b604081526000615ec56040830185614f11565b8281036020840152615ed78185615e77565b95945050505050565b61ffff861681526001600160a01b038516602082015260a060408201819052600090615f0e90830186614f11565b84151560608401528281036080840152615f288185614f11565b98975050505050505050565b60008060408385031215615f4757600080fd5b505080516020909101519092909150565b61ffff818116838216019080821115615f7357615f736159a5565b5092915050565b600060208284031215615f8c57600080fd5b81516001600160401b03811115615fa257600080fd5b6131df84828501615bc5565b61ffff85168152608060208201526000615fcb6080830186614f11565b6001600160401b03851660408401528281036060840152614cd58185614f11565b600060208284031215615ffe57600080fd5b815161229e81615145565b6020808252602d908201527f4552433732313a2063616c6c6572206973206e6f7420746f6b656e206f776e6560408201526c1c881bdc88185c1c1c9bdd9959609a1b606082015260800190565b634e487b7160e01b600052603260045260246000fd5b6000825161607e818460208701614eed565b9190910192915050565b60208152600061229e6020830184615e77565b8281526040602082015260006131df6040830184614f11565b61ffff8616815260a0602082015260006160d160a0830187614f11565b6001600160401b038616604084015282810360608401526160f28186614f11565b90508281036080840152615f288185614f11565b60208082526025908201527f4552433732313a207472616e736665722066726f6d20696e636f72726563742060408201526437bbb732b960d91b606082015260800190565b61ffff8716815260c06020820152600061616860c0830188614f11565b828103604084015261617a8188614f11565b6001600160a01b0387811660608601528616608085015283810360a085015290506161a58185614f11565b9998505050505050505050565b60208082526032908201527f4552433732313a207472616e7366657220746f206e6f6e20455243373231526560408201527131b2b4bb32b91034b6b83632b6b2b73a32b960711b606082015260800190565b6001600160a01b038581168252841660208201526040810183905260806060820181905260009061623790830184614f11565b9695505050505050565b60006020828403121561625357600080fd5b815161229e81614eba56fea26469706673582212209e5f551ab412835ccf2289c07a71766b6cfa0c736e8e3e305c324fa21def3ecb64736f6c63430008110033",
    "linkReferences": {}
  },
  "methodIdentifiers": {
    "DEFAULT_PAYLOAD_SIZE_LIMIT()": "c4461834",
    "FUNCTION_TYPE_SEND()": "af3fb21c",
    "OPERATOR_FILTER_REGISTRY()": "41f43434",
    "_claimable()": "b91c7a8f",
    "_claimableCollection()": "1e730b57",
    "_claimableTokenCount()": "a746ec05",
    "_claimedTokenCount()": "a12f86af",
    "_claimedTokens(uint256)": "3288a091",
    "_publicSaleStarted()": "600e97f6",
    "_saleStarted()": "87c348bf",
    "approve(address,uint256)": "095ea7b3",
    "balanceOf(address)": "70a08231",
    "claim(address,uint256)": "aad3ec96",
    "clearCredits(bytes)": "8ffa1f2a",
    "contractURI()": "e8a3d485",
    "dstChainIdToBatchLimit(uint16)": "4ac3f4ff",
    "dstChainIdToTransferGas(uint16)": "fa25f9b6",
    "estimateSendBatchFee(uint16,bytes,uint256[],bool,bytes)": "f2353641",
    "estimateSendFee(uint16,bytes,uint256,bool,bytes)": "2a205e3d",
    "failedMessages(uint16,bytes,uint64)": "5b8c41e6",
    "flipLinearPriceIncreaseActive()": "da323b79",
    "flipPublicSaleStarted()": "1291e33e",
    "flipRevealed()": "3b2c3fb6",
    "flipSaleStarted()": "899d7b38",
    "forceResumeReceive(uint16,bytes)": "42d65a8d",
    "getApproved(uint256)": "081812fc",
    "getConfig(uint16,uint16,address,uint256)": "f5ecbdbc",
    "getTrustedRemoteAddress(uint16)": "9f38369a",
    "isApprovedForAll(address,address)": "e985e9c5",
    "isTrustedRemote(uint16,bytes)": "3d8b38f6",
    "lzEndpoint()": "b353aaa7",
    "lzReceive(uint16,bytes,uint64,bytes)": "001d3567",
    "maxMintId()": "e1d4c870",
    "maxTokensPerMint()": "17465471",
    "merkleRoot()": "2eb4a7ab",
    "minDstGasLookup(uint16,uint16)": "8cfd8f5c",
    "minGasToTransferAndStore()": "48288190",
    "mintGasless(uint256,address,bytes32[],uint256)": "f2e5b1c1",
    "name()": "06fdde03",
    "nextMintId()": "6aa99da3",
    "nonblockingLzReceive(uint16,bytes,uint64,bytes)": "66ad5c8a",
    "owner()": "8da5cb5b",
    "ownerOf(uint256)": "6352211e",
    "payloadSizeLimitLookup(uint16)": "3f1f4fa4",
    "precrime()": "950c8a74",
    "price()": "a035b1fe",
    "publicMintGasless(uint256,address)": "129559e6",
    "renounceOwnership()": "715018a6",
    "retryMessage(uint16,bytes,uint64,bytes)": "d1deba1f",
    "safeTransferFrom(address,address,uint256)": "42842e0e",
    "safeTransferFrom(address,address,uint256,bytes)": "b88d4fde",
    "sendBatchFrom(address,uint16,bytes,uint256[],address,address,bytes)": "ab3ffb93",
    "sendFrom(address,uint16,bytes,uint256,address,address,bytes)": "51905636",
    "setApprovalForAll(address,bool)": "a22cb465",
    "setBaseURI(string)": "55f804b3",
    "setBeneficiary(address)": "1c31f710",
    "setConfig(uint16,uint16,uint256,bytes)": "cbed8b9c",
    "setContractURI(string)": "938e3d7b",
    "setDstChainIdToBatchLimit(uint16,uint256)": "9ea5d6b1",
    "setDstChainIdToTransferGas(uint16,uint256)": "d12473a5",
    "setHiddenMetadataUri(string)": "4fdd43cb",
    "setMerkleRoot(bytes32)": "7cb64759",
    "setMinDstGas(uint16,uint16,uint256)": "df2a5b3b",
    "setMinGasToTransferAndStore(uint256)": "0b4cad4c",
    "setMintRange(uint256,uint256,uint256)": "a7afd9c6",
    "setPayloadSizeLimit(uint16,uint256)": "0df37483",
    "setPrecrime(address)": "baf3292d",
    "setPrice(uint256)": "91b7f5ed",
    "setReceiveVersion(uint16)": "10ddb137",
    "setSendVersion(uint16)": "07e0db17",
    "setStableToken(address)": "db1bc87b",
    "setTax(uint256)": "2e5bb6ff",
    "setTaxRecipient(address)": "78e3079e",
    "setTrustedRemote(uint16,bytes)": "eb8d72b7",
    "setTrustedRemoteAddress(uint16,bytes)": "a6c3d165",
    "stableToken()": "a9d75b2b",
    "startClaim(uint256,address)": "7fc071b3",
    "stopClaim()": "ff6c9bc9",
    "storedCredits(bytes32)": "22a3ecf9",
    "supportsInterface(bytes4)": "01ffc9a7",
    "symbol()": "95d89b41",
    "tax()": "99c8d556",
    "tokenURI(uint256)": "c87b56dd",
    "transferFrom(address,address,uint256)": "23b872dd",
    "transferOwnership(address)": "f2fde38b",
    "trustedRemoteLookup(uint16)": "7533d788",
    "withdraw()": "3ccfd60b"
  },
  "id": 100
}