{
  "abi": [
    {
      "inputs": [
        {
          "internalType": "string",
          "name": "_name",
          "type": "string"
        },
        {
          "internalType": "string",
          "name": "_symbol",
          "type": "string"
        },
        {
          "internalType": "address",
          "name": "_layerZeroEndpoint",
          "type": "address"
        },
        {
          "internalType": "uint256",
          "name": "_startMintId",
          "type": "uint256"
        },
        {
          "internalType": "uint256",
          "name": "_endMintId",
          "type": "uint256"
        }
      ],
      "stateMutability": "nonpayable",
      "type": "constructor"
    },
    {
      "inputs": [
        {
          "internalType": "address",
          "name": "operator",
          "type": "address"
        }
      ],
      "name": "OperatorNotAllowed",
      "type": "error"
    },
    {
      "anonymous": false,
      "inputs": [
        {
          "indexed": true,
          "internalType": "address",
          "name": "owner",
          "type": "address"
        },
        {
          "indexed": true,
          "internalType": "address",
          "name": "approved",
          "type": "address"
        },
        {
          "indexed": true,
          "internalType": "uint256",
          "name": "tokenId",
          "type": "uint256"
        }
      ],
      "name": "Approval",
      "type": "event"
    },
    {
      "anonymous": false,
      "inputs": [
        {
          "indexed": true,
          "internalType": "address",
          "name": "owner",
          "type": "address"
        },
        {
          "indexed": true,
          "internalType": "address",
          "name": "operator",
          "type": "address"
        },
        {
          "indexed": false,
          "internalType": "bool",
          "name": "approved",
          "type": "bool"
        }
      ],
      "name": "ApprovalForAll",
      "type": "event"
    },
    {
      "anonymous": false,
      "inputs": [
        {
          "indexed": false,
          "internalType": "uint16",
          "name": "_srcChainId",
          "type": "uint16"
        },
        {
          "indexed": false,
          "internalType": "bytes",
          "name": "_srcAddress",
          "type": "bytes"
        },
        {
          "indexed": false,
          "internalType": "uint64",
          "name": "_nonce",
          "type": "uint64"
        },
        {
          "indexed": false,
          "internalType": "bytes",
          "name": "_payload",
          "type": "bytes"
        },
        {
          "indexed": false,
          "internalType": "bytes",
          "name": "_reason",
          "type": "bytes"
        }
      ],
      "name": "MessageFailed",
      "type": "event"
    },
    {
      "anonymous": false,
      "inputs": [
        {
          "indexed": true,
          "internalType": "address",
          "name": "previousOwner",
          "type": "address"
        },
        {
          "indexed": true,
          "internalType": "address",
          "name": "newOwner",
          "type": "address"
        }
      ],
      "name": "OwnershipTransferred",
      "type": "event"
    },
    {
      "anonymous": false,
      "inputs": [
        {
          "indexed": true,
          "internalType": "uint16",
          "name": "_srcChainId",
          "type": "uint16"
        },
        {
          "indexed": true,
          "internalType": "bytes",
          "name": "_srcAddress",
          "type": "bytes"
        },
        {
          "indexed": true,
          "internalType": "address",
          "name": "_toAddress",
          "type": "address"
        },
        {
          "indexed": false,
          "internalType": "uint256",
          "name": "_tokenId",
          "type": "uint256"
        },
        {
          "indexed": false,
          "internalType": "uint64",
          "name": "_nonce",
          "type": "uint64"
        }
      ],
      "name": "ReceiveFromChain",
      "type": "event"
    },
    {
      "anonymous": false,
      "inputs": [
        {
          "indexed": false,
          "internalType": "uint16",
          "name": "_srcChainId",
          "type": "uint16"
        },
        {
          "indexed": false,
          "internalType": "bytes",
          "name": "_srcAddress",
          "type": "bytes"
        },
        {
          "indexed": false,
          "internalType": "uint64",
          "name": "_nonce",
          "type": "uint64"
        },
        {
          "indexed": false,
          "internalType": "bytes32",
          "name": "_payloadHash",
          "type": "bytes32"
        }
      ],
      "name": "RetryMessageSuccess",
      "type": "event"
    },
    {
      "anonymous": false,
      "inputs": [
        {
          "indexed": true,
          "internalType": "address",
          "name": "_sender",
          "type": "address"
        },
        {
          "indexed": true,
          "internalType": "uint16",
          "name": "_dstChainId",
          "type": "uint16"
        },
        {
          "indexed": true,
          "internalType": "bytes",
          "name": "_toAddress",
          "type": "bytes"
        },
        {
          "indexed": false,
          "internalType": "uint256",
          "name": "_tokenId",
          "type": "uint256"
        },
        {
          "indexed": false,
          "internalType": "uint64",
          "name": "_nonce",
          "type": "uint64"
        }
      ],
      "name": "SendToChain",
      "type": "event"
    },
    {
      "anonymous": false,
      "inputs": [
        {
          "indexed": false,
          "internalType": "uint16",
          "name": "_dstChainId",
          "type": "uint16"
        },
        {
          "indexed": false,
          "internalType": "uint16",
          "name": "_type",
          "type": "uint16"
        },
        {
          "indexed": false,
          "internalType": "uint256",
          "name": "_minDstGas",
          "type": "uint256"
        }
      ],
      "name": "SetMinDstGas",
      "type": "event"
    },
    {
      "anonymous": false,
      "inputs": [
        {
          "indexed": false,
          "internalType": "address",
          "name": "precrime",
          "type": "address"
        }
      ],
      "name": "SetPrecrime",
      "type": "event"
    },
    {
      "anonymous": false,
      "inputs": [
        {
          "indexed": false,
          "internalType": "uint16",
          "name": "_remoteChainId",
          "type": "uint16"
        },
        {
          "indexed": false,
          "internalType": "bytes",
          "name": "_path",
          "type": "bytes"
        }
      ],
      "name": "SetTrustedRemote",
      "type": "event"
    },
    {
      "anonymous": false,
      "inputs": [
        {
          "indexed": false,
          "internalType": "uint16",
          "name": "_remoteChainId",
          "type": "uint16"
        },
        {
          "indexed": false,
          "internalType": "bytes",
          "name": "_remoteAddress",
          "type": "bytes"
        }
      ],
      "name": "SetTrustedRemoteAddress",
      "type": "event"
    },
    {
      "anonymous": false,
      "inputs": [
        {
          "indexed": true,
          "internalType": "address",
          "name": "from",
          "type": "address"
        },
        {
          "indexed": true,
          "internalType": "address",
          "name": "to",
          "type": "address"
        },
        {
          "indexed": true,
          "internalType": "uint256",
          "name": "tokenId",
          "type": "uint256"
        }
      ],
      "name": "Transfer",
      "type": "event"
    },
    {
      "inputs": [],
      "name": "DEFAULT_PAYLOAD_SIZE_LIMIT",
      "outputs": [
        {
          "internalType": "uint256",
          "name": "",
          "type": "uint256"
        }
      ],
      "stateMutability": "view",
      "type": "function"
    },
    {
      "inputs": [],
      "name": "OPERATOR_FILTER_REGISTRY",
      "outputs": [
        {
          "internalType": "contract IOperatorFilterRegistry",
          "name": "",
          "type": "address"
        }
      ],
      "stateMutability": "view",
      "type": "function"
    },
    {
      "inputs": [
        {
          "internalType": "address",
          "name": "operator",
          "type": "address"
        },
        {
          "internalType": "uint256",
          "name": "tokenId",
          "type": "uint256"
        }
      ],
      "name": "approve",
      "outputs": [],
      "stateMutability": "nonpayable",
      "type": "function"
    },
    {
      "inputs": [
        {
          "internalType": "address",
          "name": "owner",
          "type": "address"
        }
      ],
      "name": "balanceOf",
      "outputs": [
        {
          "internalType": "uint256",
          "name": "",
          "type": "uint256"
        }
      ],
      "stateMutability": "view",
      "type": "function"
    },
    {
      "inputs": [
        {
          "internalType": "uint16",
          "name": "_dstChainId",
          "type": "uint16"
        },
        {
          "internalType": "bytes",
          "name": "_toAddress",
          "type": "bytes"
        },
        {
          "internalType": "uint256",
          "name": "_tokenId",
          "type": "uint256"
        },
        {
          "internalType": "bool",
          "name": "_useZro",
          "type": "bool"
        },
        {
          "internalType": "bytes",
          "name": "_adapterParams",
          "type": "bytes"
        }
      ],
      "name": "estimateSendFee",
      "outputs": [
        {
          "internalType": "uint256",
          "name": "nativeFee",
          "type": "uint256"
        },
        {
          "internalType": "uint256",
          "name": "zroFee",
          "type": "uint256"
        }
      ],
      "stateMutability": "view",
      "type": "function"
    },
    {
      "inputs": [
        {
          "internalType": "uint16",
          "name": "",
          "type": "uint16"
        },
        {
          "internalType": "bytes",
          "name": "",
          "type": "bytes"
        },
        {
          "internalType": "uint64",
          "name": "",
          "type": "uint64"
        }
      ],
      "name": "failedMessages",
      "outputs": [
        {
          "internalType": "bytes32",
          "name": "",
          "type": "bytes32"
        }
      ],
      "stateMutability": "view",
      "type": "function"
    },
    {
      "inputs": [
        {
          "internalType": "uint16",
          "name": "_srcChainId",
          "type": "uint16"
        },
        {
          "internalType": "bytes",
          "name": "_srcAddress",
          "type": "bytes"
        }
      ],
      "name": "forceResumeReceive",
      "outputs": [],
      "stateMutability": "nonpayable",
      "type": "function"
    },
    {
      "inputs": [
        {
          "internalType": "uint256",
          "name": "tokenId",
          "type": "uint256"
        }
      ],
      "name": "getApproved",
      "outputs": [
        {
          "internalType": "address",
          "name": "",
          "type": "address"
        }
      ],
      "stateMutability": "view",
      "type": "function"
    },
    {
      "inputs": [
        {
          "internalType": "uint16",
          "name": "_version",
          "type": "uint16"
        },
        {
          "internalType": "uint16",
          "name": "_chainId",
          "type": "uint16"
        },
        {
          "internalType": "address",
          "name": "",
          "type": "address"
        },
        {
          "internalType": "uint256",
          "name": "_configType",
          "type": "uint256"
        }
      ],
      "name": "getConfig",
      "outputs": [
        {
          "internalType": "bytes",
          "name": "",
          "type": "bytes"
        }
      ],
      "stateMutability": "view",
      "type": "function"
    },
    {
      "inputs": [
        {
          "internalType": "uint16",
          "name": "_remoteChainId",
          "type": "uint16"
        }
      ],
      "name": "getTrustedRemoteAddress",
      "outputs": [
        {
          "internalType": "bytes",
          "name": "",
          "type": "bytes"
        }
      ],
      "stateMutability": "view",
      "type": "function"
    },
    {
      "inputs": [
        {
          "internalType": "address",
          "name": "owner",
          "type": "address"
        },
        {
          "internalType": "address",
          "name": "operator",
          "type": "address"
        }
      ],
      "name": "isApprovedForAll",
      "outputs": [
        {
          "internalType": "bool",
          "name": "",
          "type": "bool"
        }
      ],
      "stateMutability": "view",
      "type": "function"
    },
    {
      "inputs": [
        {
          "internalType": "uint16",
          "name": "_srcChainId",
          "type": "uint16"
        },
        {
          "internalType": "bytes",
          "name": "_srcAddress",
          "type": "bytes"
        }
      ],
      "name": "isTrustedRemote",
      "outputs": [
        {
          "internalType": "bool",
          "name": "",
          "type": "bool"
        }
      ],
      "stateMutability": "view",
      "type": "function"
    },
    {
      "inputs": [],
      "name": "lzEndpoint",
      "outputs": [
        {
          "internalType": "contract ILayerZeroEndpoint",
          "name": "",
          "type": "address"
        }
      ],
      "stateMutability": "view",
      "type": "function"
    },
    {
      "inputs": [
        {
          "internalType": "uint16",
          "name": "_srcChainId",
          "type": "uint16"
        },
        {
          "internalType": "bytes",
          "name": "_srcAddress",
          "type": "bytes"
        },
        {
          "internalType": "uint64",
          "name": "_nonce",
          "type": "uint64"
        },
        {
          "internalType": "bytes",
          "name": "_payload",
          "type": "bytes"
        }
      ],
      "name": "lzReceive",
      "outputs": [],
      "stateMutability": "nonpayable",
      "type": "function"
    },
    {
      "inputs": [],
      "name": "maxMintId",
      "outputs": [
        {
          "internalType": "uint256",
          "name": "",
          "type": "uint256"
        }
      ],
      "stateMutability": "view",
      "type": "function"
    },
    {
      "inputs": [
        {
          "internalType": "uint16",
          "name": "",
          "type": "uint16"
        },
        {
          "internalType": "uint16",
          "name": "",
          "type": "uint16"
        }
      ],
      "name": "minDstGasLookup",
      "outputs": [
        {
          "internalType": "uint256",
          "name": "",
          "type": "uint256"
        }
      ],
      "stateMutability": "view",
      "type": "function"
    },
    {
      "inputs": [],
      "name": "mint",
      "outputs": [],
      "stateMutability": "payable",
      "type": "function"
    },
    {
      "inputs": [],
      "name": "name",
      "outputs": [
        {
          "internalType": "string",
          "name": "",
          "type": "string"
        }
      ],
      "stateMutability": "view",
      "type": "function"
    },
    {
      "inputs": [],
      "name": "nextMintId",
      "outputs": [
        {
          "internalType": "uint256",
          "name": "",
          "type": "uint256"
        }
      ],
      "stateMutability": "view",
      "type": "function"
    },
    {
      "inputs": [
        {
          "internalType": "uint16",
          "name": "_srcChainId",
          "type": "uint16"
        },
        {
          "internalType": "bytes",
          "name": "_srcAddress",
          "type": "bytes"
        },
        {
          "internalType": "uint64",
          "name": "_nonce",
          "type": "uint64"
        },
        {
          "internalType": "bytes",
          "name": "_payload",
          "type": "bytes"
        }
      ],
      "name": "nonblockingLzReceive",
      "outputs": [],
      "stateMutability": "nonpayable",
      "type": "function"
    },
    {
      "inputs": [],
      "name": "owner",
      "outputs": [
        {
          "internalType": "address",
          "name": "",
          "type": "address"
        }
      ],
      "stateMutability": "view",
      "type": "function"
    },
    {
      "inputs": [
        {
          "internalType": "uint256",
          "name": "tokenId",
          "type": "uint256"
        }
      ],
      "name": "ownerOf",
      "outputs": [
        {
          "internalType": "address",
          "name": "",
          "type": "address"
        }
      ],
      "stateMutability": "view",
      "type": "function"
    },
    {
      "inputs": [
        {
          "internalType": "uint16",
          "name": "",
          "type": "uint16"
        }
      ],
      "name": "payloadSizeLimitLookup",
      "outputs": [
        {
          "internalType": "uint256",
          "name": "",
          "type": "uint256"
        }
      ],
      "stateMutability": "view",
      "type": "function"
    },
    {
      "inputs": [],
      "name": "precrime",
      "outputs": [
        {
          "internalType": "address",
          "name": "",
          "type": "address"
        }
      ],
      "stateMutability": "view",
      "type": "function"
    },
    {
      "inputs": [],
      "name": "renounceOwnership",
      "outputs": [],
      "stateMutability": "nonpayable",
      "type": "function"
    },
    {
      "inputs": [
        {
          "internalType": "uint16",
          "name": "_srcChainId",
          "type": "uint16"
        },
        {
          "internalType": "bytes",
          "name": "_srcAddress",
          "type": "bytes"
        },
        {
          "internalType": "uint64",
          "name": "_nonce",
          "type": "uint64"
        },
        {
          "internalType": "bytes",
          "name": "_payload",
          "type": "bytes"
        }
      ],
      "name": "retryMessage",
      "outputs": [],
      "stateMutability": "payable",
      "type": "function"
    },
    {
      "inputs": [
        {
          "internalType": "address",
          "name": "from",
          "type": "address"
        },
        {
          "internalType": "address",
          "name": "to",
          "type": "address"
        },
        {
          "internalType": "uint256",
          "name": "tokenId",
          "type": "uint256"
        }
      ],
      "name": "safeTransferFrom",
      "outputs": [],
      "stateMutability": "nonpayable",
      "type": "function"
    },
    {
      "inputs": [
        {
          "internalType": "address",
          "name": "from",
          "type": "address"
        },
        {
          "internalType": "address",
          "name": "to",
          "type": "address"
        },
        {
          "internalType": "uint256",
          "name": "tokenId",
          "type": "uint256"
        },
        {
          "internalType": "bytes",
          "name": "data",
          "type": "bytes"
        }
      ],
      "name": "safeTransferFrom",
      "outputs": [],
      "stateMutability": "nonpayable",
      "type": "function"
    },
    {
      "inputs": [
        {
          "internalType": "address",
          "name": "_from",
          "type": "address"
        },
        {
          "internalType": "uint16",
          "name": "_dstChainId",
          "type": "uint16"
        },
        {
          "internalType": "bytes",
          "name": "_toAddress",
          "type": "bytes"
        },
        {
          "internalType": "uint256",
          "name": "_tokenId",
          "type": "uint256"
        },
        {
          "internalType": "address payable",
          "name": "_refundAddress",
          "type": "address"
        },
        {
          "internalType": "address",
          "name": "_zroPaymentAddress",
          "type": "address"
        },
        {
          "internalType": "bytes",
          "name": "_adapterParams",
          "type": "bytes"
        }
      ],
      "name": "sendFrom",
      "outputs": [],
      "stateMutability": "payable",
      "type": "function"
    },
    {
      "inputs": [
        {
          "internalType": "address",
          "name": "operator",
          "type": "address"
        },
        {
          "internalType": "bool",
          "name": "approved",
          "type": "bool"
        }
      ],
      "name": "setApprovalForAll",
      "outputs": [],
      "stateMutability": "nonpayable",
      "type": "function"
    },
    {
      "inputs": [
        {
          "internalType": "uint16",
          "name": "_version",
          "type": "uint16"
        },
        {
          "internalType": "uint16",
          "name": "_chainId",
          "type": "uint16"
        },
        {
          "internalType": "uint256",
          "name": "_configType",
          "type": "uint256"
        },
        {
          "internalType": "bytes",
          "name": "_config",
          "type": "bytes"
        }
      ],
      "name": "setConfig",
      "outputs": [],
      "stateMutability": "nonpayable",
      "type": "function"
    },
    {
      "inputs": [
        {
          "internalType": "uint16",
          "name": "_dstChainId",
          "type": "uint16"
        },
        {
          "internalType": "uint16",
          "name": "_packetType",
          "type": "uint16"
        },
        {
          "internalType": "uint256",
          "name": "_minGas",
          "type": "uint256"
        }
      ],
      "name": "setMinDstGas",
      "outputs": [],
      "stateMutability": "nonpayable",
      "type": "function"
    },
    {
      "inputs": [
        {
          "internalType": "uint16",
          "name": "_dstChainId",
          "type": "uint16"
        },
        {
          "internalType": "uint256",
          "name": "_size",
          "type": "uint256"
        }
      ],
      "name": "setPayloadSizeLimit",
      "outputs": [],
      "stateMutability": "nonpayable",
      "type": "function"
    },
    {
      "inputs": [
        {
          "internalType": "address",
          "name": "_precrime",
          "type": "address"
        }
      ],
      "name": "setPrecrime",
      "outputs": [],
      "stateMutability": "nonpayable",
      "type": "function"
    },
    {
      "inputs": [
        {
          "internalType": "uint16",
          "name": "_version",
          "type": "uint16"
        }
      ],
      "name": "setReceiveVersion",
      "outputs": [],
      "stateMutability": "nonpayable",
      "type": "function"
    },
    {
      "inputs": [
        {
          "internalType": "uint16",
          "name": "_version",
          "type": "uint16"
        }
      ],
      "name": "setSendVersion",
      "outputs": [],
      "stateMutability": "nonpayable",
      "type": "function"
    },
    {
      "inputs": [
        {
          "internalType": "uint16",
          "name": "_srcChainId",
          "type": "uint16"
        },
        {
          "internalType": "bytes",
          "name": "_path",
          "type": "bytes"
        }
      ],
      "name": "setTrustedRemote",
      "outputs": [],
      "stateMutability": "nonpayable",
      "type": "function"
    },
    {
      "inputs": [
        {
          "internalType": "uint16",
          "name": "_remoteChainId",
          "type": "uint16"
        },
        {
          "internalType": "bytes",
          "name": "_remoteAddress",
          "type": "bytes"
        }
      ],
      "name": "setTrustedRemoteAddress",
      "outputs": [],
      "stateMutability": "nonpayable",
      "type": "function"
    },
    {
      "inputs": [
        {
          "internalType": "bytes4",
          "name": "interfaceId",
          "type": "bytes4"
        }
      ],
      "name": "supportsInterface",
      "outputs": [
        {
          "internalType": "bool",
          "name": "",
          "type": "bool"
        }
      ],
      "stateMutability": "view",
      "type": "function"
    },
    {
      "inputs": [],
      "name": "symbol",
      "outputs": [
        {
          "internalType": "string",
          "name": "",
          "type": "string"
        }
      ],
      "stateMutability": "view",
      "type": "function"
    },
    {
      "inputs": [
        {
          "internalType": "uint256",
          "name": "tokenId",
          "type": "uint256"
        }
      ],
      "name": "tokenURI",
      "outputs": [
        {
          "internalType": "string",
          "name": "",
          "type": "string"
        }
      ],
      "stateMutability": "view",
      "type": "function"
    },
    {
      "inputs": [
        {
          "internalType": "address",
          "name": "from",
          "type": "address"
        },
        {
          "internalType": "address",
          "name": "to",
          "type": "address"
        },
        {
          "internalType": "uint256",
          "name": "tokenId",
          "type": "uint256"
        }
      ],
      "name": "transferFrom",
      "outputs": [],
      "stateMutability": "nonpayable",
      "type": "function"
    },
    {
      "inputs": [
        {
          "internalType": "address",
          "name": "newOwner",
          "type": "address"
        }
      ],
      "name": "transferOwnership",
      "outputs": [],
      "stateMutability": "nonpayable",
      "type": "function"
    },
    {
      "inputs": [
        {
          "internalType": "uint16",
          "name": "",
          "type": "uint16"
        }
      ],
      "name": "trustedRemoteLookup",
      "outputs": [
        {
          "internalType": "bytes",
          "name": "",
          "type": "bytes"
        }
      ],
      "stateMutability": "view",
      "type": "function"
    }
  ],
  "bytecode": {
    "object": "0x60a060409080825234620004655762003c6f80380380916200002282856200046a565b833981019060a081830312620004655780516001600160401b039081811162000465578362000053918401620004a4565b906020938484015190828211620004655762000071918501620004a4565b838601516001600160a01b03808216969094929091879003620004655760806060870151960151966000958654903360018060a01b031983161788553391167f8be0079c531659141344cd1fd0a4f28419497f9722a3daafe3b4186f6b6457e08880a36080528251908482116200045157600654916001948584811c9416801562000446575b858510146200034d578190601f94858111620003f2575b5085908583116001146200038c57899262000380575b5050600019600383901b1c191690851b176006555b8051928584116200036c576007548581811c9116801562000361575b828210146200034d5783811162000304575b50809284116001146200029a575092829391839287946200028e575b50501b916000199060031b1c1916176007555b6daaeb6d7670e522a718067333cd4e803b6200020c575b505050600c55600d555161375390816200051c823960805181818161046a01528181610798015281816109c701528181610cf201528181610f2601528181611093015281816119a701528181611c300152818161221701526125050152f35b803b156200028a57908280926044885180968193633e9f1edf60e11b8352306004840152733cc6cdda760b79bafa08df41ecfa224f810dceb660248401525af18015620002805715620001ad5782116200026c57508352388080620001ad565b634e487b7160e01b81526041600452602490fd5b86513d84823e3d90fd5b8280fd5b01519250388062000183565b919083601f198116600789528489209489905b88838310620002e95750505010620002cf575b505050811b0160075562000196565b015160001960f88460031b161c19169055388080620002c0565b858701518855909601959485019487935090810190620002ad565b600788528188208480870160051c82019284881062000343575b0160051c019086905b8281106200033757505062000167565b89815501869062000327565b925081926200031e565b634e487b7160e01b88526022600452602488fd5b90607f169062000155565b634e487b7160e01b87526041600452602487fd5b01519050388062000124565b60068a52868a208894509190601f1984168b5b89828210620003db5750508411620003c1575b505050811b0160065562000139565b015160001960f88460031b161c19169055388080620003b2565b8385015186558b979095019493840193016200039f565b909150600689528589208580850160051c8201928886106200043c575b918991869594930160051c01915b8281106200042d5750506200010e565b8b81558594508991016200041d565b925081926200040f565b93607f1693620000f7565b634e487b7160e01b86526041600452602486fd5b600080fd5b601f909101601f19168101906001600160401b038211908210176200048e57604052565b634e487b7160e01b600052604160045260246000fd5b919080601f8401121562000465578251906001600160401b0382116200048e5760405191602091620004e0601f8301601f19168401856200046a565b818452828287010111620004655760005b8181106200050757508260009394955001015290565b8581018301518482018401528201620004f156fe60806040526004361015610013575b600080fd5b60003560e01c80621d35671461038257806301ffc9a71461037957806306fdde031461037057806307e0db1714610367578063081812fc1461035e578063095ea7b3146103555780630df374831461034c57806310ddb137146103435780631249c58b1461033a57806323b872dd146103315780632a205e3d146103285780633d8b38f61461031f5780633f1f4fa41461031657806341f434341461030d57806342842e0e1461030457806342d65a8d146102fb57806351905636146102f25780635b8c41e6146102e95780636352211e146102e057806366ad5c8a146102d75780636aa99da3146102ce57806370a08231146102c5578063715018a6146102bc5780637533d788146102b35780638cfd8f5c146102aa5780638da5cb5b146102a1578063950c8a741461029857806395d89b411461028f5780639f38369a14610286578063a22cb4651461027d578063a6c3d16514610274578063b353aaa71461026b578063b88d4fde14610262578063baf3292d14610259578063c446183414610250578063c87b56dd14610247578063cbed8b9c1461023e578063d1deba1f14610235578063df2a5b3b1461022c578063e1d4c87014610223578063e985e9c51461021a578063eb8d72b714610211578063f2fde38b146102085763f5ecbdbc1461020057600080fd5b61000e6121b1565b5061000e612116565b5061000e611fb1565b5061000e611f48565b5061000e611f29565b5061000e611e36565b5061000e611cd2565b5061000e611bcf565b5061000e611ae5565b5061000e611ac7565b5061000e611a49565b5061000e6119d6565b5061000e611990565b5061000e6117f2565b5061000e6116f8565b5061000e611658565b5061000e6115b0565b5061000e611586565b5061000e61155c565b5061000e611508565b5061000e6114b4565b5061000e611367565b5061000e6112c0565b5061000e6112a1565b5061000e61121a565b5061000e6111fb565b5061000e611154565b5061000e610f86565b5061000e610ef9565b5061000e610e79565b5061000e610e4f565b5061000e610e19565b5061000e610dbc565b5061000e610c11565b5061000e610acf565b5061000e610a1e565b5061000e610993565b5061000e61094a565b5061000e61084f565b5061000e61080d565b5061000e610764565b5061000e61067e565b5061000e61057b565b5061000e610452565b6004359061ffff8216820361000e57565b6024359061ffff8216820361000e57565b9181601f8401121561000e578235916001600160401b03831161000e576020838186019501011161000e57565b6001600160401b0381160361000e57565b90608060031983011261000e5760043561ffff8116810361000e57916001600160401b039060243582811161000e5781610427916004016103ad565b93909392604435610437816103da565b9260643591821161000e5761044e916004016103ad565b9091565b503461000e57610461366103eb565b929493919291907f00000000000000000000000000000000000000000000000000000000000000006001600160a01b03163303610524576104e76104ef926104f5976104e06104c66104c18a61ffff166000526001602052604060002090565b611497565b805190818414918261051a575b50816104f7575b5061240e565b3691610bb5565b923691610bb5565b926127b9565b005b9050610504368486610bb5565b60208151910120906020815191012014386104da565b15159150386104d3565b60405162461bcd60e51b815260206004820152601e60248201527f4c7a4170703a20696e76616c696420656e64706f696e742063616c6c657200006044820152606490fd5b6001600160e01b031981160361000e57565b503461000e57602036600319011261000e57602060043561059b81610569565b6001600160e01b03191680159081156105ba575b506040519015158152f35b6380ac58cd60e01b811491508115610606575b81156105db575b50386105af565b637bb0080b60e01b8114915081156105f5575b50386105d4565b6301ffc9a760e01b149050386105ee565b635b5e139f60e01b811491506105cd565b600091031261000e57565b60005b8381106106355750506000910152565b8181015183820152602001610625565b9060209161065e81518092818552858086019101610622565b601f01601f1916010190565b90602061067b928181520190610645565b90565b503461000e576000806003193601126107615760405190806006546106a2816113c7565b8085529160019180831690811561073757506001146106dc575b6106d8856106cc81870382610b6a565b6040519182918261066a565b0390f35b9250600683527ff652222313e28459528d920b65115c16c04f3efc82aaedc97be59f3f377c0d3f5b82841061071f5750505081016020016106cc826106d86106bc565b80546020858701810191909152909301928101610704565b8695506106d8969350602092506106cc94915060ff191682840152151560051b82010192936106bc565b80fd5b503461000e57600060203660031901126107615761078061038b565b8160018060a01b036107968183541633146126b8565b7f00000000000000000000000000000000000000000000000000000000000000001691823b1561080957602461ffff918360405195869485936307e0db1760e01b85521660048401525af180156107fc575b6107f0575080f35b6107f990610b2f565b80f35b6108046122be565b6107e8565b5080fd5b503461000e57602036600319011261000e57602061082c600435612d3a565b6040516001600160a01b039091168152f35b6001600160a01b0381160361000e57565b503461000e57604036600319011261000e5760043561086d8161083e565b6024356108798261365e565b61088281612c50565b916001600160a01b0380841690821681146108fb576104f5936108af9133149081156108b4575b50612cc8565b61333b565b6001600160a01b03166000908152600b602052604090206108f591506108ee9033905b9060018060a01b0316600052602052604060002090565b5460ff1690565b386108a9565b60405162461bcd60e51b815260206004820152602160248201527f4552433732313a20617070726f76616c20746f2063757272656e74206f776e656044820152603960f91b6064820152608490fd5b503461000e57604036600319011261000e5761ffff61096761038b565b61097c60018060a01b036000541633146126b8565b166000526003602052602435604060002055600080f35b503461000e5760006020366003190112610761576109af61038b565b8160018060a01b036109c58183541633146126b8565b7f00000000000000000000000000000000000000000000000000000000000000001691823b1561080957602461ffff918360405195869485936310ddb13760e01b85521660048401525af180156107fc576107f0575080f35b50600036600319011261000e57600c54600d548111610a4d5780610a446104f5926123f6565b600c5533612f94565b60405162461bcd60e51b815260206004820152602860248201527f556e6976657273616c4f4e46543732313a206d6178206d696e74206c696d6974604482015267081c995858da195960c21b6064820152608490fd5b606090600319011261000e57600435610abb8161083e565b90602435610ac88161083e565b9060443590565b503461000e576104f5610ae136610aa3565b91336001600160a01b03821603610b0a575b610b05610b008433612ea9565b612dcc565b6131d0565b610b133361365e565b610af3565b50634e487b7160e01b600052604160045260246000fd5b6001600160401b038111610b4257604052565b610b4a610b18565b604052565b602081019081106001600160401b03821117610b4257604052565b90601f801991011681019081106001600160401b03821117610b4257604052565b6020906001600160401b038111610ba8575b601f01601f19160190565b610bb0610b18565b610b9d565b929192610bc182610b8b565b91610bcf6040519384610b6a565b82948184528183011161000e578281602093846000960137010152565b9080601f8301121561000e5781602061067b93359101610bb5565b8015150361000e57565b503461000e5760031960a03682011261000e57610c2c61038b565b6001600160401b039160243583811161000e57610c4d903690600401610bec565b9060643592610c5b84610c07565b60843594851161000e57610cee610c999461ffff93610c81610ca7983690600401610bec565b9060409889978851998a91604435906020840161228c565b03601f1981018a5289610b6a565b610cd88751988997889763040a7bb160e41b895216600488015230602488015260a0604488015260a4870190610645565b9215156064860152848303016084850152610645565b03817f00000000000000000000000000000000000000000000000000000000000000006001600160a01b03165afa918215610d75575b6000918293610d40575b50519081526020810191909152604090f35b81610d669294506106d893503d8511610d6e575b610d5e8183610b6a565b8101906122a8565b929091610d2e565b503d610d54565b610d7d6122be565b610d24565b90604060031983011261000e5760043561ffff8116810361000e5791602435906001600160401b03821161000e5761044e916004016103ad565b503461000e57602061ffff610e0a610dd336610d82565b9390911660005260018452610df5610dfc604060002060405192838092611401565b0382610b6a565b848151910120923691610bb5565b82815191012014604051908152f35b503461000e57602036600319011261000e5761ffff610e3661038b565b1660005260036020526020604060002054604051908152f35b503461000e57600036600319011261000e5760206040516daaeb6d7670e522a718067333cd4e8152f35b503461000e576104f5610ed8610e8e36610aa3565b6001600160a01b0383163314159290919083610eeb575b60405193610eb285610b4f565b60008552610edd575b610ec8610b008433612ea9565b610ed38383836131d0565b613501565b612e85565b610ee63361365e565b610ebb565b610ef43361365e565b610ea5565b503461000e57610f0836610d82565b9190600092839160018060a01b03610f248185541633146126b8565b7f00000000000000000000000000000000000000000000000000000000000000001690813b15610f825783610f7095604051968795869485936342d65a8d60e01b855260048501612724565b03925af180156107fc576107f0575080f35b8380fd5b5060e036600319011261000e57600435610f9f8161083e565b610fa761039c565b6001600160401b03919060443583811161000e57610fc9903690600401610bec565b926064359160843590610fdb8261083e565b60a435610fe78161083e565b60c43593841161000e578461ffff93611060926110297f024797cc77ce15dc717112d54fb1df125fdfd8c81344fb046c5e074427ce1543973690600401610bec565b91611034848b612300565b6110588b61104a6040519687926020840161228c565b03601f198101865285610b6a565b3493866124c1565b604051630f428ae960e31b815261ffff821660048201523060248201526001600160a01b03966110f791906020826044817f00000000000000000000000000000000000000000000000000000000000000008d165afa918215611130575b6000926110fc575b506110d0906122e0565b9760405194859416971695839092916001600160401b036020916040840195845216910152565b0390a4005b6110d09192506111229060203d8111611129575b61111a8183610b6a565b8101906122cb565b91906110c6565b503d611110565b6111386122be565b6110be565b9061115060209282815194859201610622565b0190565b503461000e57606036600319011261000e5761116e61038b565b6024356001600160401b03811161000e576106d8916111c960206111996111ea943690600401610bec565b61ffff604435946111a9866103da565b166000526005825260406000208260405194838680955193849201610622565b820190815203019020906001600160401b0316600052602052604060002090565b546040519081529081906020820190565b503461000e57602036600319011261000e57602061082c600435612c50565b503461000e57611229366103eb565b919294939030330361124d576104e7611247926104f5973691610bb5565b92612924565b60405162461bcd60e51b815260206004820152602660248201527f4e6f6e626c6f636b696e674c7a4170703a2063616c6c6572206d7573742062656044820152650204c7a4170760d41b6064820152608490fd5b503461000e57600036600319011261000e576020600c54604051908152f35b503461000e57602036600319011261000e576004356112de8161083e565b6001600160a01b0316801561130f5760005260096020526106d8604060002054604051918291829190602083019252565b60405162461bcd60e51b815260206004820152602a60248201527f4552433732313a2062616c616e636520717565727920666f7220746865207a65604482015269726f206164647265737360b01b6064820152608490fd5b503461000e5760008060031936011261076157805481906001600160a01b038116906113943383146126b8565b6001600160a01b03191682557f8be0079c531659141344cd1fd0a4f28419497f9722a3daafe3b4186f6b6457e08280a380f35b90600182811c921680156113f7575b60208310146113e157565b634e487b7160e01b600052602260045260246000fd5b91607f16916113d6565b9060009291805491611412836113c7565b9182825260019384811690816000146114745750600114611434575b50505050565b90919394506000526020928360002092846000945b83861061146057505050500101903880808061142e565b805485870183015294019385908201611449565b9294505050602093945060ff191683830152151560051b0101903880808061142e565b906114b26114ab9260405193848092611401565b0383610b6a565b565b503461000e57602036600319011261000e5761ffff6114d161038b565b1660005260016020526106d8610df56114f4604060002060405192838092611401565b604051918291602083526020830190610645565b503461000e57604036600319011261000e57602061155361152761038b565b61ffff61153261039c565b91166000526002835260406000209061ffff16600052602052604060002090565b54604051908152f35b503461000e57600036600319011261000e576000546040516001600160a01b039091168152602090f35b503461000e57600036600319011261000e576004546040516001600160a01b039091168152602090f35b503461000e576000806003193601126107615760405190806007546115d4816113c7565b8085529160019180831690811561073757506001146115fd576106d8856106cc81870382610b6a565b9250600783527fa66cc928b5edb82af9bd49922954155ab7b0942694bea4ce44661d9a8736c6885b8284106116405750505081016020016106cc826106d86106bc565b80546020858701810191909152909301928101611625565b503461000e57602036600319011261000e5761ffff61167561038b565b166000526001602052610df5611695604060002060405192838092611401565b8051156116b3576106cc816116ad6106d89351612793565b90612b1f565b60405162461bcd60e51b815260206004820152601d60248201527f4c7a4170703a206e6f20747275737465642070617468207265636f72640000006044820152606490fd5b503461000e57604036600319011261000e576004356117168161083e565b60243561172281610c07565b61172b8261365e565b6001600160a01b038216913383146117ad578161176a61177b9233600052600b60205260406000209060018060a01b0316600052602052604060002090565b9060ff801983541691151516179055565b604051901515815233907f17307eab39ab6107e8899845ad3d59bd9653f200f220920489ca2b5937696c3190602090a3005b60405162461bcd60e51b815260206004820152601960248201527f4552433732313a20617070726f766520746f2063616c6c6572000000000000006044820152606490fd5b503461000e5761180136610d82565b919060009161181a60018060a01b0384541633146126b8565b6040519360208184828801376118456034878481013060601b85820152036014810189520187610b6a565b61ffff8316855260019081815260408620918751916001600160401b038311611983575b61187d8361187786546113c7565b8661273f565b80601f84116001146118ed5750918080926118dc9695948a9b7f8c0400cfe2d1199b1a725c78960bcc2a344d869b80590d0f2bd005db15a572ce9b946118e2575b50501b916000199060031b1c19161790555b60405193849384612724565b0390a180f35b0151925038806118be565b91939498601f19841661190587600052602060002090565b938a905b82821061196c575050917f8c0400cfe2d1199b1a725c78960bcc2a344d869b80590d0f2bd005db15a572ce999a959391856118dc98969410611953575b505050811b0190556118d0565b015160001960f88460031b161c19169055388080611946565b808886978294978701518155019601940190611909565b61198b610b18565b611869565b503461000e57600036600319011261000e576040517f00000000000000000000000000000000000000000000000000000000000000006001600160a01b03168152602090f35b503461000e57608036600319011261000e576004356119f48161083e565b60243590611a018261083e565b606435906044356001600160401b03831161000e576104f593611a2b610ed8943690600401610bec565b92336001600160a01b03821603610edd57610ec8610b008433612ea9565b503461000e57602036600319011261000e577f5db758e995a17ec1ad84bdef7e8c3293a0bd6179bcce400dff5d4c3d87db726b6020600435611a8a8161083e565b6000546001600160a01b039190611aa490831633146126b8565b16806bffffffffffffffffffffffff60a01b6004541617600455604051908152a1005b503461000e57600036600319011261000e5760206040516127108152f35b503461000e57602036600319011261000e576004356000818152600860205260409020546001600160a01b031615611b7257611b1f612b9f565b805115611b60576106cc611b4c91611b52611b3c6106d895613564565b604051948593602085019061113d565b9061113d565b03601f198101835282610b6a565b50506106d8611b6d612b9f565b6106cc565b60405162461bcd60e51b815260206004820152602f60248201527f4552433732314d657461646174613a2055524920717565727920666f72206e6f60448201526e3732bc34b9ba32b73a103a37b5b2b760891b6064820152608490fd5b503461000e57608036600319011261000e57611be961038b565b611bf161039c565b6064356001600160401b03811161000e57611c109036906004016103ad565b60018060a09493941b039160009483611c2e879586541633146126b8565b7f00000000000000000000000000000000000000000000000000000000000000001691823b15611cce578490611c9b604051978896879586946332fb62e760e21b865261ffff80921660048701521660248501526044356044850152608060648501526084840191612703565b03925af18015611cc1575b611cae575080f35b80611cbb6107f992610b2f565b80610617565b611cc96122be565b611ca6565b8480fd5b50611cdc366103eb565b9161ffff86949296166000526005602052611d2381604060002060206040518092878b833787820190815203019020906001600160401b0316600052602052604060002090565b54918215611de557611dd48483611dcd7fc264d91f3adc5588250e1551f547752ca0cfa8f6b530d243b9f9f4cab10ea8e59a6000611db984611da18e8a8f611de09f908f611d8790611d7a611d9b9436908d610bb5565b60208151910120146129eb565b61ffff166000526005602052604060002090565b916129d2565b906001600160401b0316600052602052604060002090565b55611dc536878d610bb5565b933691610bb5565b9188612924565b60405195869586612a41565b0390a1005b60405162461bcd60e51b815260206004820152602360248201527f4e6f6e626c6f636b696e674c7a4170703a206e6f2073746f726564206d65737360448201526261676560e81b6064820152608490fd5b503461000e57606036600319011261000e57611e5061038b565b611e5861039c565b60443591611e7160018060a01b036000541633146126b8565b8215611eec57611de07f9d5c7c0b934da8fefa9c7760c98383778a12dfbfc0c3b3106518f43fb9508ac09361ffff8316600052600260205280611ec68560406000209061ffff16600052602052604060002090565b556040519384938460409194939294606082019561ffff80921683521660208201520152565b60405162461bcd60e51b81526020600482015260156024820152744c7a4170703a20696e76616c6964206d696e47617360581b6044820152606490fd5b503461000e57600036600319011261000e576020600d54604051908152f35b503461000e57604036600319011261000e57602060ff611fa5600435611f6d8161083e565b60243590611f7a8261083e565b60018060a01b0316600052600b845260406000209060018060a01b0316600052602052604060002090565b54166040519015158152f35b503461000e57611fc036610d82565b9190600091611fd960018060a01b0384541633146126b8565b61ffff81168352600160209080825260408520916001600160401b038711612109575b6120108761200a85546113c7565b8561273f565b8590601f881160011461207757509186808798936118dc957ffa41487ad5d6728f0b19276fa1eddc16558578f5109fc39d2dc33c3230470dab999361206c575b501b906000198460031b1c191617905560405193849384612724565b880135925038612050565b90601f19881661208c85600052602060002090565b9288905b8282106120f2575050918893917ffa41487ad5d6728f0b19276fa1eddc16558578f5109fc39d2dc33c3230470dab98996118dc9694106120d8575b505082811b0190556118d0565b870135600019600386901b60f8161c1916905538806120cb565b808685968294968c01358155019501930190612090565b612111610b18565b611ffc565b503461000e57602036600319011261000e576004356121348161083e565b6000546001600160a01b039061214d90821633146126b8565b81161561215d576104f590612c09565b60405162461bcd60e51b815260206004820152602660248201527f4f776e61626c653a206e6577206f776e657220697320746865207a65726f206160448201526564647265737360d01b6064820152608490fd5b503461000e57608036600319011261000e576106d86121ce61038b565b6121d661039c565b906121e260443561083e565b604051633d7b2f6f60e21b815261ffff91821660048201529116602482015230604482015260648035908201526000816084817f00000000000000000000000000000000000000000000000000000000000000006001600160a01b03165afa90811561227f575b60009161225e575b506040519182918261066a565b612279913d8091833e6122718183610b6a565b810190612693565b38612251565b6122876122be565b612249565b9291906122a3602091604086526040860190610645565b930152565b919082604091031261000e576020825192015190565b506040513d6000823e3d90fd5b9081602091031261000e575161067b816103da565b6122f890602060405192828480945193849201610622565b810103902090565b61230a8233612ea9565b156123835761231882612c50565b6001600160a01b03918216911603612333576114b2906130ee565b60405162461bcd60e51b815260206004820152602260248201527f4f4e46543732313a2073656e642066726f6d20696e636f7272656374206f776e60448201526132b960f11b6064820152608490fd5b60405162461bcd60e51b815260206004820152602e60248201527f4f4e46543732313a2073656e642063616c6c6572206973206e6f74206f776e6560448201526d1c881b9bdc88185c1c1c9bdd995960921b6064820152608490fd5b50634e487b7160e01b600052601160045260246000fd5b6001906000198114612406570190565b6111506123df565b1561241557565b60405162461bcd60e51b815260206004820152602660248201527f4c7a4170703a20696e76616c696420736f757263652073656e64696e6720636f6044820152651b9d1c9858dd60d21b6064820152608490fd5b9261248e61067b97959361ffff61249c9416865260c0602087015260c0860190610645565b908482036040860152610645565b6001600160a01b0391821660608401529316608082015280830360a090910152610645565b946124ea9193929561ffff811660005260016020526124f1604060002060405194858092611401565b0384610b6a565b825115612584576125038551826125e2565b7f00000000000000000000000000000000000000000000000000000000000000006001600160a01b031693843b1561000e5760009661255891604051998a988997889662c5803160e81b885260048801612469565b03925af18015612577575b61256a5750565b80611cbb6114b292610b2f565b61257f6122be565b612563565b60405162461bcd60e51b815260206004820152603060248201527f4c7a4170703a2064657374696e6174696f6e20636861696e206973206e6f742060448201526f61207472757374656420736f7572636560801b6064820152608490fd5b61ffff166000526003602052604060002054908115612647575b1161260357565b606460405162461bcd60e51b815260206004820152602060248201527f4c7a4170703a207061796c6f61642073697a6520697320746f6f206c617267656044820152fd5b61271091506125fc565b81601f8201121561000e57805161266781610b8b565b926126756040519485610b6a565b8184526020828401011161000e5761067b9160208085019101610622565b9060208282031261000e5781516001600160401b03811161000e5761067b9201612651565b156126bf57565b606460405162461bcd60e51b815260206004820152602060248201527f4f776e61626c653a2063616c6c6572206973206e6f7420746865206f776e65726044820152fd5b908060209392818452848401376000828201840152601f01601f1916010190565b60409061ffff61067b95931681528160208201520191612703565b90601f811161274d57505050565b600091825260208220906020601f850160051c83019410612789575b601f0160051c01915b82811061277e57505050565b818155600101612772565b9092508290612769565b6013198101919082116127a257565b6114b26123df565b6000198101919082116127a257565b9290915a926040519360208501633356ae4560e11b815261ffff8716602487015260806044870152612824866128166127f560a4830187610645565b6001600160401b038816606484015282810360231901608484015288610645565b03601f198101885287610b6a565b600091829182612832612bd0565b9851923090f13d6096811161286c575b8086526000602087013e15612859575b5050505050565b61286294612874565b3880808080612852565b506096612842565b91936129117fe183f33de2837795525b4792ca4cd60535bd77c53b7e7030060bfcf5734d6b0c9561291f939561ffff815160208301209616958660005260056020526128d8836111c960208b60406000208260405194838680955193849201610622565b556001600160401b036128fd604051988998895260a060208a015260a0890190610645565b921660408701528582036060870152610645565b908382036080850152610645565b0390a1565b9290815182019060408383031261000e576020830151906001600160401b03821161000e576129cd61299f6014604061298961ffff966020807f64e10c37f404d128982dce114f5d233c14c5c7f6d8db93099e3d99dacb9e27ba9a01918b0101612651565b9701519601519261299a8785612f94565b6122e0565b9560405193849360018060a01b0316981695839092916001600160401b036020916040840195845216910152565b0390a4565b6020919283604051948593843782019081520301902090565b156129f257565b60405162461bcd60e51b815260206004820152602160248201527f4e6f6e626c6f636b696e674c7a4170703a20696e76616c6964207061796c6f616044820152601960fa1b6064820152608490fd5b91612a6d9060609461ffff6001600160401b039499989799168552608060208601526080850191612703565b951660408201520152565b90601f82018092116127a257565b90600182018092116127a257565b60300190816030116127a257565b15612aa957565b60405162461bcd60e51b815260206004820152600e60248201526d736c6963655f6f766572666c6f7760901b6044820152606490fd5b15612ae657565b60405162461bcd60e51b8152602060048201526011602482015270736c6963655f6f75744f66426f756e647360781b6044820152606490fd5b612b3382612b2c81612a78565b1015612aa2565b612b408282511015612adf565b81612b58575050604051600081526020810160405290565b60405191601f811691821560051b808486010193838501920101905b808410612b8c5750508252601f01601f191660405290565b9092835181526020809101930190612b74565b60405190602082018281106001600160401b03821117612bc3575b60405260008252565b612bcb610b18565b612bba565b6040519060c082018281106001600160401b03821117612bfc575b6040526096825260a0366020840137565b612c04610b18565b612beb565b600080546001600160a01b039283166001600160a01b03198216811783559216907f8be0079c531659141344cd1fd0a4f28419497f9722a3daafe3b4186f6b6457e09080a3565b6000908152600860205260409020546001600160a01b03168015612c715790565b60405162461bcd60e51b815260206004820152602960248201527f4552433732313a206f776e657220717565727920666f72206e6f6e657869737460448201526832b73a103a37b5b2b760b91b6064820152608490fd5b15612ccf57565b60405162461bcd60e51b815260206004820152603860248201527f4552433732313a20617070726f76652063616c6c6572206973206e6f74206f7760448201527f6e6572206e6f7220617070726f76656420666f7220616c6c00000000000000006064820152608490fd5b6000818152600860205260409020546001600160a01b031615612d72576000908152600a60205260409020546001600160a01b031690565b60405162461bcd60e51b815260206004820152602c60248201527f4552433732313a20617070726f76656420717565727920666f72206e6f6e657860448201526b34b9ba32b73a103a37b5b2b760a11b6064820152608490fd5b15612dd357565b60405162461bcd60e51b815260206004820152603160248201527f4552433732313a207472616e736665722063616c6c6572206973206e6f74206f6044820152701ddb995c881b9bdc88185c1c1c9bdd9959607a1b6064820152608490fd5b60809060208152603260208201527f4552433732313a207472616e7366657220746f206e6f6e20455243373231526560408201527131b2b4bb32b91034b6b83632b6b2b73a32b960711b60608201520190565b15612e8c57565b60405162461bcd60e51b815280612ea560048201612e32565b0390fd5b6000828152600860205260409020546001600160a01b031615612f3a57612ecf82612c50565b6001600160a01b038281168282168114949091908515612f22575b5050508215612ef857505090565b6001600160a01b03166000908152600b6020526040902060ff9250612f1d91906108d7565b541690565b612f2f9192939550612d3a565b161491388080612eea565b60405162461bcd60e51b815260206004820152602c60248201527f4552433732313a206f70657261746f7220717565727920666f72206e6f6e657860448201526b34b9ba32b73a103a37b5b2b760a11b6064820152608490fd5b90604051612fa181610b4f565b600081526001600160a01b0383169182156130aa576000818152600860205260409020546001600160a01b0316613065578381610ed894612ff76114b29760018060a01b03166000526009602052604060002090565b6130018154612a86565b905561303a8361301b846000526008602052604060002090565b80546001600160a01b0319166001600160a01b03909216919091179055565b60007fddf252ad1be2c89b69c2b068fc378daa952ba7f163c4a11628f55a4df523b3ef8180a4613440565b60405162461bcd60e51b815260206004820152601c60248201527f4552433732313a20746f6b656e20616c7265616479206d696e746564000000006044820152606490fd5b606460405162461bcd60e51b815260206004820152602060248201527f4552433732313a206d696e7420746f20746865207a65726f20616464726573736044820152fd5b6130f781612c50565b613100826132e7565b6001600160a01b03166000818152600960205260408120805491929160001981019190821161316b575b5582825260086020526040822080546001600160a01b03191690557fddf252ad1be2c89b69c2b068fc378daa952ba7f163c4a11628f55a4df523b3ef8280a4565b6131736123df565b61312a565b1561317f57565b60405162461bcd60e51b8152602060048201526024808201527f4552433732313a207472616e7366657220746f20746865207a65726f206164646044820152637265737360e01b6064820152608490fd5b906131da83612c50565b6001600160a01b0383811692909182168390036132945761322961326d92821694613206861515613178565b61320f876132e7565b6001600160a01b0316600090815260096020526040902090565b61323381546127aa565b90556001600160a01b03811660009081526009602052604090206132578154612a86565b905561301b856000526008602052604060002090565b7fddf252ad1be2c89b69c2b068fc378daa952ba7f163c4a11628f55a4df523b3ef600080a4565b60405162461bcd60e51b815260206004820152602560248201527f4552433732313a207472616e736665722066726f6d20696e636f72726563742060448201526437bbb732b960d91b6064820152608490fd5b6000818152600a6020526040812080546001600160a01b03191690556001600160a01b0361331483612c50565b167f8c5be1e5ebec7d5bd14f71427d1e84f3dd0314c0f7b2291e5b200ac8c7c3b9258280a4565b6000828152600a6020526040902080546001600160a01b0319166001600160a01b0383161790556001600160a01b038061337484612c50565b169116907f8c5be1e5ebec7d5bd14f71427d1e84f3dd0314c0f7b2291e5b200ac8c7c3b925600080a4565b9081602091031261000e575161067b81610569565b61067b939260809260018060a01b031682526000602083015260408201528160608201520190610645565b6001600160a01b03918216815291166020820152604081019190915260806060820181905261067b92910190610645565b3d1561343b573d9061342182610b8b565b9161342f6040519384610b6a565b82523d6000602084013e565b606090565b909190803b156134f957613472602091600093604051948580948193630a85bd0160e11b998a845233600485016133b4565b03926001600160a01b03165af1600091816134c9575b506134bb57613495613410565b805190816134b65760405162461bcd60e51b815280612ea560048201612e32565b602001fd5b6001600160e01b0319161490565b6134eb91925060203d81116134f2575b6134e38183610b6a565b81019061339f565b9038613488565b503d6134d9565b505050600190565b92909190823b1561353457613472926020926000604051809681958294630a85bd0160e11b9a8b855233600486016133df565b50505050600190565b90815181101561354e570160200190565b634e487b7160e01b600052603260045260246000fd5b801561360d57806000908282935b6135f9575061358083610b8b565b9261358e6040519485610b6a565b80845281601f1961359e83610b8b565b013660208701375b6135b05750505090565b6135b9906127aa565b90600a906135e46135d46135ce848406612a94565b60ff1690565b60f81b6001600160f81b03191690565b841a6135f0848761353d565b530490816135a6565b92613605600a916123f6565b930480613572565b50604051604081018181106001600160401b0382111761363c575b60405260018152600360fc1b602082015290565b613644610b18565b613628565b9081602091031261000e575161067b81610c07565b6daaeb6d7670e522a718067333cd4e803b613677575050565b604051633185c44d60e21b81523060048201526001600160a01b038316602482015290602090829060449082905afa908115613710575b6000916136e2575b50156136bf5750565b604051633b79c77360e21b81526001600160a01b03919091166004820152602490fd5b613703915060203d8111613709575b6136fb8183610b6a565b810190613649565b386136b6565b503d6136f1565b6137186122be565b6136ae56fea2646970667358221220f09220d7add2464ec53999c3d96604cdbe745121849740af25a8d884020670af64736f6c63430008110033",
    "linkReferences": {}
  },
  "methodIdentifiers": {
    "DEFAULT_PAYLOAD_SIZE_LIMIT()": "c4461834",
    "OPERATOR_FILTER_REGISTRY()": "41f43434",
    "approve(address,uint256)": "095ea7b3",
    "balanceOf(address)": "70a08231",
    "estimateSendFee(uint16,bytes,uint256,bool,bytes)": "2a205e3d",
    "failedMessages(uint16,bytes,uint64)": "5b8c41e6",
    "forceResumeReceive(uint16,bytes)": "42d65a8d",
    "getApproved(uint256)": "081812fc",
    "getConfig(uint16,uint16,address,uint256)": "f5ecbdbc",
    "getTrustedRemoteAddress(uint16)": "9f38369a",
    "isApprovedForAll(address,address)": "e985e9c5",
    "isTrustedRemote(uint16,bytes)": "3d8b38f6",
    "lzEndpoint()": "b353aaa7",
    "lzReceive(uint16,bytes,uint64,bytes)": "001d3567",
    "maxMintId()": "e1d4c870",
    "minDstGasLookup(uint16,uint16)": "8cfd8f5c",
    "mint()": "1249c58b",
    "name()": "06fdde03",
    "nextMintId()": "6aa99da3",
    "nonblockingLzReceive(uint16,bytes,uint64,bytes)": "66ad5c8a",
    "owner()": "8da5cb5b",
    "ownerOf(uint256)": "6352211e",
    "payloadSizeLimitLookup(uint16)": "3f1f4fa4",
    "precrime()": "950c8a74",
    "renounceOwnership()": "715018a6",
    "retryMessage(uint16,bytes,uint64,bytes)": "d1deba1f",
    "safeTransferFrom(address,address,uint256)": "42842e0e",
    "safeTransferFrom(address,address,uint256,bytes)": "b88d4fde",
    "sendFrom(address,uint16,bytes,uint256,address,address,bytes)": "51905636",
    "setApprovalForAll(address,bool)": "a22cb465",
    "setConfig(uint16,uint16,uint256,bytes)": "cbed8b9c",
    "setMinDstGas(uint16,uint16,uint256)": "df2a5b3b",
    "setPayloadSizeLimit(uint16,uint256)": "0df37483",
    "setPrecrime(address)": "baf3292d",
    "setReceiveVersion(uint16)": "10ddb137",
    "setSendVersion(uint16)": "07e0db17",
    "setTrustedRemote(uint16,bytes)": "eb8d72b7",
    "setTrustedRemoteAddress(uint16,bytes)": "a6c3d165",
    "supportsInterface(bytes4)": "01ffc9a7",
    "symbol()": "95d89b41",
    "tokenURI(uint256)": "c87b56dd",
    "transferFrom(address,address,uint256)": "23b872dd",
    "transferOwnership(address)": "f2fde38b",
    "trustedRemoteLookup(uint16)": "7533d788"
  },
  "id": 180
}