{
  "abi": [
    {
      "inputs": [
        {
          "internalType": "string",
          "name": "_name",
          "type": "string"
        },
        {
          "internalType": "string",
          "name": "_symbol",
          "type": "string"
        },
        {
          "internalType": "address",
          "name": "_layerZeroEndpoint",
          "type": "address"
        },
        {
          "internalType": "uint256",
          "name": "_startMintId",
          "type": "uint256"
        },
        {
          "internalType": "uint256",
          "name": "_endMintId",
          "type": "uint256"
        }
      ],
      "stateMutability": "nonpayable",
      "type": "constructor"
    },
    {
      "inputs": [
        {
          "internalType": "address",
          "name": "operator",
          "type": "address"
        }
      ],
      "name": "OperatorNotAllowed",
      "type": "error"
    },
    {
      "anonymous": false,
      "inputs": [
        {
          "indexed": true,
          "internalType": "address",
          "name": "owner",
          "type": "address"
        },
        {
          "indexed": true,
          "internalType": "address",
          "name": "approved",
          "type": "address"
        },
        {
          "indexed": true,
          "internalType": "uint256",
          "name": "tokenId",
          "type": "uint256"
        }
      ],
      "name": "Approval",
      "type": "event"
    },
    {
      "anonymous": false,
      "inputs": [
        {
          "indexed": true,
          "internalType": "address",
          "name": "owner",
          "type": "address"
        },
        {
          "indexed": true,
          "internalType": "address",
          "name": "operator",
          "type": "address"
        },
        {
          "indexed": false,
          "internalType": "bool",
          "name": "approved",
          "type": "bool"
        }
      ],
      "name": "ApprovalForAll",
      "type": "event"
    },
    {
      "anonymous": false,
      "inputs": [
        {
          "indexed": false,
          "internalType": "bytes32",
          "name": "_hashedPayload",
          "type": "bytes32"
        }
      ],
      "name": "CreditCleared",
      "type": "event"
    },
    {
      "anonymous": false,
      "inputs": [
        {
          "indexed": false,
          "internalType": "bytes32",
          "name": "_hashedPayload",
          "type": "bytes32"
        },
        {
          "indexed": false,
          "internalType": "bytes",
          "name": "_payload",
          "type": "bytes"
        }
      ],
      "name": "CreditStored",
      "type": "event"
    },
    {
      "anonymous": false,
      "inputs": [
        {
          "indexed": false,
          "internalType": "uint16",
          "name": "_srcChainId",
          "type": "uint16"
        },
        {
          "indexed": false,
          "internalType": "bytes",
          "name": "_srcAddress",
          "type": "bytes"
        },
        {
          "indexed": false,
          "internalType": "uint64",
          "name": "_nonce",
          "type": "uint64"
        },
        {
          "indexed": false,
          "internalType": "bytes",
          "name": "_payload",
          "type": "bytes"
        },
        {
          "indexed": false,
          "internalType": "bytes",
          "name": "_reason",
          "type": "bytes"
        }
      ],
      "name": "MessageFailed",
      "type": "event"
    },
    {
      "anonymous": false,
      "inputs": [
        {
          "indexed": true,
          "internalType": "address",
          "name": "previousOwner",
          "type": "address"
        },
        {
          "indexed": true,
          "internalType": "address",
          "name": "newOwner",
          "type": "address"
        }
      ],
      "name": "OwnershipTransferred",
      "type": "event"
    },
    {
      "anonymous": false,
      "inputs": [
        {
          "indexed": true,
          "internalType": "uint16",
          "name": "_srcChainId",
          "type": "uint16"
        },
        {
          "indexed": true,
          "internalType": "bytes",
          "name": "_srcAddress",
          "type": "bytes"
        },
        {
          "indexed": true,
          "internalType": "address",
          "name": "_toAddress",
          "type": "address"
        },
        {
          "indexed": false,
          "internalType": "uint256[]",
          "name": "_tokenIds",
          "type": "uint256[]"
        }
      ],
      "name": "ReceiveFromChain",
      "type": "event"
    },
    {
      "anonymous": false,
      "inputs": [
        {
          "indexed": false,
          "internalType": "uint16",
          "name": "_srcChainId",
          "type": "uint16"
        },
        {
          "indexed": false,
          "internalType": "bytes",
          "name": "_srcAddress",
          "type": "bytes"
        },
        {
          "indexed": false,
          "internalType": "uint64",
          "name": "_nonce",
          "type": "uint64"
        },
        {
          "indexed": false,
          "internalType": "bytes32",
          "name": "_payloadHash",
          "type": "bytes32"
        }
      ],
      "name": "RetryMessageSuccess",
      "type": "event"
    },
    {
      "anonymous": false,
      "inputs": [
        {
          "indexed": true,
          "internalType": "uint16",
          "name": "_dstChainId",
          "type": "uint16"
        },
        {
          "indexed": true,
          "internalType": "address",
          "name": "_from",
          "type": "address"
        },
        {
          "indexed": true,
          "internalType": "bytes",
          "name": "_toAddress",
          "type": "bytes"
        },
        {
          "indexed": false,
          "internalType": "uint256[]",
          "name": "_tokenIds",
          "type": "uint256[]"
        }
      ],
      "name": "SendToChain",
      "type": "event"
    },
    {
      "anonymous": false,
      "inputs": [
        {
          "indexed": false,
          "internalType": "uint16",
          "name": "_dstChainId",
          "type": "uint16"
        },
        {
          "indexed": false,
          "internalType": "uint16",
          "name": "_type",
          "type": "uint16"
        },
        {
          "indexed": false,
          "internalType": "uint256",
          "name": "_minDstGas",
          "type": "uint256"
        }
      ],
      "name": "SetMinDstGas",
      "type": "event"
    },
    {
      "anonymous": false,
      "inputs": [
        {
          "indexed": false,
          "internalType": "address",
          "name": "precrime",
          "type": "address"
        }
      ],
      "name": "SetPrecrime",
      "type": "event"
    },
    {
      "anonymous": false,
      "inputs": [
        {
          "indexed": false,
          "internalType": "uint16",
          "name": "_remoteChainId",
          "type": "uint16"
        },
        {
          "indexed": false,
          "internalType": "bytes",
          "name": "_path",
          "type": "bytes"
        }
      ],
      "name": "SetTrustedRemote",
      "type": "event"
    },
    {
      "anonymous": false,
      "inputs": [
        {
          "indexed": false,
          "internalType": "uint16",
          "name": "_remoteChainId",
          "type": "uint16"
        },
        {
          "indexed": false,
          "internalType": "bytes",
          "name": "_remoteAddress",
          "type": "bytes"
        }
      ],
      "name": "SetTrustedRemoteAddress",
      "type": "event"
    },
    {
      "anonymous": false,
      "inputs": [
        {
          "indexed": true,
          "internalType": "address",
          "name": "from",
          "type": "address"
        },
        {
          "indexed": true,
          "internalType": "address",
          "name": "to",
          "type": "address"
        },
        {
          "indexed": true,
          "internalType": "uint256",
          "name": "tokenId",
          "type": "uint256"
        }
      ],
      "name": "Transfer",
      "type": "event"
    },
    {
      "inputs": [],
      "name": "DEFAULT_PAYLOAD_SIZE_LIMIT",
      "outputs": [
        {
          "internalType": "uint256",
          "name": "",
          "type": "uint256"
        }
      ],
      "stateMutability": "view",
      "type": "function"
    },
    {
      "inputs": [],
      "name": "FUNCTION_TYPE_SEND",
      "outputs": [
        {
          "internalType": "uint16",
          "name": "",
          "type": "uint16"
        }
      ],
      "stateMutability": "view",
      "type": "function"
    },
    {
      "inputs": [],
      "name": "OPERATOR_FILTER_REGISTRY",
      "outputs": [
        {
          "internalType": "contract IOperatorFilterRegistry",
          "name": "",
          "type": "address"
        }
      ],
      "stateMutability": "view",
      "type": "function"
    },
    {
      "inputs": [
        {
          "internalType": "address",
          "name": "operator",
          "type": "address"
        },
        {
          "internalType": "uint256",
          "name": "tokenId",
          "type": "uint256"
        }
      ],
      "name": "approve",
      "outputs": [],
      "stateMutability": "nonpayable",
      "type": "function"
    },
    {
      "inputs": [
        {
          "internalType": "address",
          "name": "owner",
          "type": "address"
        }
      ],
      "name": "balanceOf",
      "outputs": [
        {
          "internalType": "uint256",
          "name": "",
          "type": "uint256"
        }
      ],
      "stateMutability": "view",
      "type": "function"
    },
    {
      "inputs": [
        {
          "internalType": "bytes",
          "name": "_payload",
          "type": "bytes"
        }
      ],
      "name": "clearCredits",
      "outputs": [],
      "stateMutability": "nonpayable",
      "type": "function"
    },
    {
      "inputs": [
        {
          "internalType": "uint16",
          "name": "",
          "type": "uint16"
        }
      ],
      "name": "dstChainIdToBatchLimit",
      "outputs": [
        {
          "internalType": "uint256",
          "name": "",
          "type": "uint256"
        }
      ],
      "stateMutability": "view",
      "type": "function"
    },
    {
      "inputs": [
        {
          "internalType": "uint16",
          "name": "",
          "type": "uint16"
        }
      ],
      "name": "dstChainIdToTransferGas",
      "outputs": [
        {
          "internalType": "uint256",
          "name": "",
          "type": "uint256"
        }
      ],
      "stateMutability": "view",
      "type": "function"
    },
    {
      "inputs": [
        {
          "internalType": "uint16",
          "name": "_dstChainId",
          "type": "uint16"
        },
        {
          "internalType": "bytes",
          "name": "_toAddress",
          "type": "bytes"
        },
        {
          "internalType": "uint256[]",
          "name": "_tokenIds",
          "type": "uint256[]"
        },
        {
          "internalType": "bool",
          "name": "_useZro",
          "type": "bool"
        },
        {
          "internalType": "bytes",
          "name": "_adapterParams",
          "type": "bytes"
        }
      ],
      "name": "estimateSendBatchFee",
      "outputs": [
        {
          "internalType": "uint256",
          "name": "nativeFee",
          "type": "uint256"
        },
        {
          "internalType": "uint256",
          "name": "zroFee",
          "type": "uint256"
        }
      ],
      "stateMutability": "view",
      "type": "function"
    },
    {
      "inputs": [
        {
          "internalType": "uint16",
          "name": "_dstChainId",
          "type": "uint16"
        },
        {
          "internalType": "bytes",
          "name": "_toAddress",
          "type": "bytes"
        },
        {
          "internalType": "uint256",
          "name": "_tokenId",
          "type": "uint256"
        },
        {
          "internalType": "bool",
          "name": "_useZro",
          "type": "bool"
        },
        {
          "internalType": "bytes",
          "name": "_adapterParams",
          "type": "bytes"
        }
      ],
      "name": "estimateSendFee",
      "outputs": [
        {
          "internalType": "uint256",
          "name": "nativeFee",
          "type": "uint256"
        },
        {
          "internalType": "uint256",
          "name": "zroFee",
          "type": "uint256"
        }
      ],
      "stateMutability": "view",
      "type": "function"
    },
    {
      "inputs": [
        {
          "internalType": "uint16",
          "name": "",
          "type": "uint16"
        },
        {
          "internalType": "bytes",
          "name": "",
          "type": "bytes"
        },
        {
          "internalType": "uint64",
          "name": "",
          "type": "uint64"
        }
      ],
      "name": "failedMessages",
      "outputs": [
        {
          "internalType": "bytes32",
          "name": "",
          "type": "bytes32"
        }
      ],
      "stateMutability": "view",
      "type": "function"
    },
    {
      "inputs": [
        {
          "internalType": "uint16",
          "name": "_srcChainId",
          "type": "uint16"
        },
        {
          "internalType": "bytes",
          "name": "_srcAddress",
          "type": "bytes"
        }
      ],
      "name": "forceResumeReceive",
      "outputs": [],
      "stateMutability": "nonpayable",
      "type": "function"
    },
    {
      "inputs": [
        {
          "internalType": "uint256",
          "name": "tokenId",
          "type": "uint256"
        }
      ],
      "name": "getApproved",
      "outputs": [
        {
          "internalType": "address",
          "name": "",
          "type": "address"
        }
      ],
      "stateMutability": "view",
      "type": "function"
    },
    {
      "inputs": [
        {
          "internalType": "uint16",
          "name": "_version",
          "type": "uint16"
        },
        {
          "internalType": "uint16",
          "name": "_chainId",
          "type": "uint16"
        },
        {
          "internalType": "address",
          "name": "",
          "type": "address"
        },
        {
          "internalType": "uint256",
          "name": "_configType",
          "type": "uint256"
        }
      ],
      "name": "getConfig",
      "outputs": [
        {
          "internalType": "bytes",
          "name": "",
          "type": "bytes"
        }
      ],
      "stateMutability": "view",
      "type": "function"
    },
    {
      "inputs": [
        {
          "internalType": "uint16",
          "name": "_remoteChainId",
          "type": "uint16"
        }
      ],
      "name": "getTrustedRemoteAddress",
      "outputs": [
        {
          "internalType": "bytes",
          "name": "",
          "type": "bytes"
        }
      ],
      "stateMutability": "view",
      "type": "function"
    },
    {
      "inputs": [
        {
          "internalType": "address",
          "name": "owner",
          "type": "address"
        },
        {
          "internalType": "address",
          "name": "operator",
          "type": "address"
        }
      ],
      "name": "isApprovedForAll",
      "outputs": [
        {
          "internalType": "bool",
          "name": "",
          "type": "bool"
        }
      ],
      "stateMutability": "view",
      "type": "function"
    },
    {
      "inputs": [
        {
          "internalType": "uint16",
          "name": "_srcChainId",
          "type": "uint16"
        },
        {
          "internalType": "bytes",
          "name": "_srcAddress",
          "type": "bytes"
        }
      ],
      "name": "isTrustedRemote",
      "outputs": [
        {
          "internalType": "bool",
          "name": "",
          "type": "bool"
        }
      ],
      "stateMutability": "view",
      "type": "function"
    },
    {
      "inputs": [],
      "name": "lzEndpoint",
      "outputs": [
        {
          "internalType": "contract ILayerZeroEndpoint",
          "name": "",
          "type": "address"
        }
      ],
      "stateMutability": "view",
      "type": "function"
    },
    {
      "inputs": [
        {
          "internalType": "uint16",
          "name": "_srcChainId",
          "type": "uint16"
        },
        {
          "internalType": "bytes",
          "name": "_srcAddress",
          "type": "bytes"
        },
        {
          "internalType": "uint64",
          "name": "_nonce",
          "type": "uint64"
        },
        {
          "internalType": "bytes",
          "name": "_payload",
          "type": "bytes"
        }
      ],
      "name": "lzReceive",
      "outputs": [],
      "stateMutability": "nonpayable",
      "type": "function"
    },
    {
      "inputs": [],
      "name": "maxMintId",
      "outputs": [
        {
          "internalType": "uint256",
          "name": "",
          "type": "uint256"
        }
      ],
      "stateMutability": "view",
      "type": "function"
    },
    {
      "inputs": [
        {
          "internalType": "uint16",
          "name": "",
          "type": "uint16"
        },
        {
          "internalType": "uint16",
          "name": "",
          "type": "uint16"
        }
      ],
      "name": "minDstGasLookup",
      "outputs": [
        {
          "internalType": "uint256",
          "name": "",
          "type": "uint256"
        }
      ],
      "stateMutability": "view",
      "type": "function"
    },
    {
      "inputs": [],
      "name": "minGasToTransferAndStore",
      "outputs": [
        {
          "internalType": "uint256",
          "name": "",
          "type": "uint256"
        }
      ],
      "stateMutability": "view",
      "type": "function"
    },
    {
      "inputs": [],
      "name": "mint",
      "outputs": [],
      "stateMutability": "payable",
      "type": "function"
    },
    {
      "inputs": [],
      "name": "name",
      "outputs": [
        {
          "internalType": "string",
          "name": "",
          "type": "string"
        }
      ],
      "stateMutability": "view",
      "type": "function"
    },
    {
      "inputs": [],
      "name": "nextMintId",
      "outputs": [
        {
          "internalType": "uint256",
          "name": "",
          "type": "uint256"
        }
      ],
      "stateMutability": "view",
      "type": "function"
    },
    {
      "inputs": [
        {
          "internalType": "uint16",
          "name": "_srcChainId",
          "type": "uint16"
        },
        {
          "internalType": "bytes",
          "name": "_srcAddress",
          "type": "bytes"
        },
        {
          "internalType": "uint64",
          "name": "_nonce",
          "type": "uint64"
        },
        {
          "internalType": "bytes",
          "name": "_payload",
          "type": "bytes"
        }
      ],
      "name": "nonblockingLzReceive",
      "outputs": [],
      "stateMutability": "nonpayable",
      "type": "function"
    },
    {
      "inputs": [],
      "name": "owner",
      "outputs": [
        {
          "internalType": "address",
          "name": "",
          "type": "address"
        }
      ],
      "stateMutability": "view",
      "type": "function"
    },
    {
      "inputs": [
        {
          "internalType": "uint256",
          "name": "tokenId",
          "type": "uint256"
        }
      ],
      "name": "ownerOf",
      "outputs": [
        {
          "internalType": "address",
          "name": "",
          "type": "address"
        }
      ],
      "stateMutability": "view",
      "type": "function"
    },
    {
      "inputs": [
        {
          "internalType": "uint16",
          "name": "",
          "type": "uint16"
        }
      ],
      "name": "payloadSizeLimitLookup",
      "outputs": [
        {
          "internalType": "uint256",
          "name": "",
          "type": "uint256"
        }
      ],
      "stateMutability": "view",
      "type": "function"
    },
    {
      "inputs": [],
      "name": "precrime",
      "outputs": [
        {
          "internalType": "address",
          "name": "",
          "type": "address"
        }
      ],
      "stateMutability": "view",
      "type": "function"
    },
    {
      "inputs": [],
      "name": "renounceOwnership",
      "outputs": [],
      "stateMutability": "nonpayable",
      "type": "function"
    },
    {
      "inputs": [
        {
          "internalType": "uint16",
          "name": "_srcChainId",
          "type": "uint16"
        },
        {
          "internalType": "bytes",
          "name": "_srcAddress",
          "type": "bytes"
        },
        {
          "internalType": "uint64",
          "name": "_nonce",
          "type": "uint64"
        },
        {
          "internalType": "bytes",
          "name": "_payload",
          "type": "bytes"
        }
      ],
      "name": "retryMessage",
      "outputs": [],
      "stateMutability": "payable",
      "type": "function"
    },
    {
      "inputs": [
        {
          "internalType": "address",
          "name": "from",
          "type": "address"
        },
        {
          "internalType": "address",
          "name": "to",
          "type": "address"
        },
        {
          "internalType": "uint256",
          "name": "tokenId",
          "type": "uint256"
        }
      ],
      "name": "safeTransferFrom",
      "outputs": [],
      "stateMutability": "nonpayable",
      "type": "function"
    },
    {
      "inputs": [
        {
          "internalType": "address",
          "name": "from",
          "type": "address"
        },
        {
          "internalType": "address",
          "name": "to",
          "type": "address"
        },
        {
          "internalType": "uint256",
          "name": "tokenId",
          "type": "uint256"
        },
        {
          "internalType": "bytes",
          "name": "data",
          "type": "bytes"
        }
      ],
      "name": "safeTransferFrom",
      "outputs": [],
      "stateMutability": "nonpayable",
      "type": "function"
    },
    {
      "inputs": [
        {
          "internalType": "address",
          "name": "_from",
          "type": "address"
        },
        {
          "internalType": "uint16",
          "name": "_dstChainId",
          "type": "uint16"
        },
        {
          "internalType": "bytes",
          "name": "_toAddress",
          "type": "bytes"
        },
        {
          "internalType": "uint256[]",
          "name": "_tokenIds",
          "type": "uint256[]"
        },
        {
          "internalType": "address payable",
          "name": "_refundAddress",
          "type": "address"
        },
        {
          "internalType": "address",
          "name": "_zroPaymentAddress",
          "type": "address"
        },
        {
          "internalType": "bytes",
          "name": "_adapterParams",
          "type": "bytes"
        }
      ],
      "name": "sendBatchFrom",
      "outputs": [],
      "stateMutability": "payable",
      "type": "function"
    },
    {
      "inputs": [
        {
          "internalType": "address",
          "name": "_from",
          "type": "address"
        },
        {
          "internalType": "uint16",
          "name": "_dstChainId",
          "type": "uint16"
        },
        {
          "internalType": "bytes",
          "name": "_toAddress",
          "type": "bytes"
        },
        {
          "internalType": "uint256",
          "name": "_tokenId",
          "type": "uint256"
        },
        {
          "internalType": "address payable",
          "name": "_refundAddress",
          "type": "address"
        },
        {
          "internalType": "address",
          "name": "_zroPaymentAddress",
          "type": "address"
        },
        {
          "internalType": "bytes",
          "name": "_adapterParams",
          "type": "bytes"
        }
      ],
      "name": "sendFrom",
      "outputs": [],
      "stateMutability": "payable",
      "type": "function"
    },
    {
      "inputs": [
        {
          "internalType": "address",
          "name": "operator",
          "type": "address"
        },
        {
          "internalType": "bool",
          "name": "approved",
          "type": "bool"
        }
      ],
      "name": "setApprovalForAll",
      "outputs": [],
      "stateMutability": "nonpayable",
      "type": "function"
    },
    {
      "inputs": [
        {
          "internalType": "uint16",
          "name": "_version",
          "type": "uint16"
        },
        {
          "internalType": "uint16",
          "name": "_chainId",
          "type": "uint16"
        },
        {
          "internalType": "uint256",
          "name": "_configType",
          "type": "uint256"
        },
        {
          "internalType": "bytes",
          "name": "_config",
          "type": "bytes"
        }
      ],
      "name": "setConfig",
      "outputs": [],
      "stateMutability": "nonpayable",
      "type": "function"
    },
    {
      "inputs": [
        {
          "internalType": "uint16",
          "name": "_dstChainId",
          "type": "uint16"
        },
        {
          "internalType": "uint256",
          "name": "_dstChainIdToBatchLimit",
          "type": "uint256"
        }
      ],
      "name": "setDstChainIdToBatchLimit",
      "outputs": [],
      "stateMutability": "nonpayable",
      "type": "function"
    },
    {
      "inputs": [
        {
          "internalType": "uint16",
          "name": "_dstChainId",
          "type": "uint16"
        },
        {
          "internalType": "uint256",
          "name": "_dstChainIdToTransferGas",
          "type": "uint256"
        }
      ],
      "name": "setDstChainIdToTransferGas",
      "outputs": [],
      "stateMutability": "nonpayable",
      "type": "function"
    },
    {
      "inputs": [
        {
          "internalType": "uint16",
          "name": "_dstChainId",
          "type": "uint16"
        },
        {
          "internalType": "uint16",
          "name": "_packetType",
          "type": "uint16"
        },
        {
          "internalType": "uint256",
          "name": "_minGas",
          "type": "uint256"
        }
      ],
      "name": "setMinDstGas",
      "outputs": [],
      "stateMutability": "nonpayable",
      "type": "function"
    },
    {
      "inputs": [
        {
          "internalType": "uint256",
          "name": "_minGasToTransferAndStore",
          "type": "uint256"
        }
      ],
      "name": "setMinGasToTransferAndStore",
      "outputs": [],
      "stateMutability": "nonpayable",
      "type": "function"
    },
    {
      "inputs": [
        {
          "internalType": "uint16",
          "name": "_dstChainId",
          "type": "uint16"
        },
        {
          "internalType": "uint256",
          "name": "_size",
          "type": "uint256"
        }
      ],
      "name": "setPayloadSizeLimit",
      "outputs": [],
      "stateMutability": "nonpayable",
      "type": "function"
    },
    {
      "inputs": [
        {
          "internalType": "address",
          "name": "_precrime",
          "type": "address"
        }
      ],
      "name": "setPrecrime",
      "outputs": [],
      "stateMutability": "nonpayable",
      "type": "function"
    },
    {
      "inputs": [
        {
          "internalType": "uint16",
          "name": "_version",
          "type": "uint16"
        }
      ],
      "name": "setReceiveVersion",
      "outputs": [],
      "stateMutability": "nonpayable",
      "type": "function"
    },
    {
      "inputs": [
        {
          "internalType": "uint16",
          "name": "_version",
          "type": "uint16"
        }
      ],
      "name": "setSendVersion",
      "outputs": [],
      "stateMutability": "nonpayable",
      "type": "function"
    },
    {
      "inputs": [
        {
          "internalType": "uint16",
          "name": "_srcChainId",
          "type": "uint16"
        },
        {
          "internalType": "bytes",
          "name": "_path",
          "type": "bytes"
        }
      ],
      "name": "setTrustedRemote",
      "outputs": [],
      "stateMutability": "nonpayable",
      "type": "function"
    },
    {
      "inputs": [
        {
          "internalType": "uint16",
          "name": "_remoteChainId",
          "type": "uint16"
        },
        {
          "internalType": "bytes",
          "name": "_remoteAddress",
          "type": "bytes"
        }
      ],
      "name": "setTrustedRemoteAddress",
      "outputs": [],
      "stateMutability": "nonpayable",
      "type": "function"
    },
    {
      "inputs": [
        {
          "internalType": "bytes32",
          "name": "",
          "type": "bytes32"
        }
      ],
      "name": "storedCredits",
      "outputs": [
        {
          "internalType": "uint16",
          "name": "srcChainId",
          "type": "uint16"
        },
        {
          "internalType": "address",
          "name": "toAddress",
          "type": "address"
        },
        {
          "internalType": "uint256",
          "name": "index",
          "type": "uint256"
        },
        {
          "internalType": "bool",
          "name": "creditsRemain",
          "type": "bool"
        }
      ],
      "stateMutability": "view",
      "type": "function"
    },
    {
      "inputs": [
        {
          "internalType": "bytes4",
          "name": "interfaceId",
          "type": "bytes4"
        }
      ],
      "name": "supportsInterface",
      "outputs": [
        {
          "internalType": "bool",
          "name": "",
          "type": "bool"
        }
      ],
      "stateMutability": "view",
      "type": "function"
    },
    {
      "inputs": [],
      "name": "symbol",
      "outputs": [
        {
          "internalType": "string",
          "name": "",
          "type": "string"
        }
      ],
      "stateMutability": "view",
      "type": "function"
    },
    {
      "inputs": [
        {
          "internalType": "uint256",
          "name": "tokenId",
          "type": "uint256"
        }
      ],
      "name": "tokenURI",
      "outputs": [
        {
          "internalType": "string",
          "name": "",
          "type": "string"
        }
      ],
      "stateMutability": "view",
      "type": "function"
    },
    {
      "inputs": [
        {
          "internalType": "address",
          "name": "from",
          "type": "address"
        },
        {
          "internalType": "address",
          "name": "to",
          "type": "address"
        },
        {
          "internalType": "uint256",
          "name": "tokenId",
          "type": "uint256"
        }
      ],
      "name": "transferFrom",
      "outputs": [],
      "stateMutability": "nonpayable",
      "type": "function"
    },
    {
      "inputs": [
        {
          "internalType": "address",
          "name": "newOwner",
          "type": "address"
        }
      ],
      "name": "transferOwnership",
      "outputs": [],
      "stateMutability": "nonpayable",
      "type": "function"
    },
    {
      "inputs": [
        {
          "internalType": "uint16",
          "name": "",
          "type": "uint16"
        }
      ],
      "name": "trustedRemoteLookup",
      "outputs": [
        {
          "internalType": "bytes",
          "name": "",
          "type": "bytes"
        }
      ],
      "stateMutability": "view",
      "type": "function"
    }
  ],
  "bytecode": {
    "object": "0x60a06040523480156200001157600080fd5b5060405162004e3c38038062004e3c83398101604081905262000034916200036f565b84848462030d40733cc6cdda760b79bafa08df41ecfa224f810dceb6600185858486808062000063336200025a565b6001600160a01b03166080525081620000d85760405162461bcd60e51b815260206004820152602d60248201527f4f4e46543732313a206d696e476173546f5472616e73666572416e6453746f7260448201526c065206d757374206265203e203609c1b606482015260840160405180910390fd5b50600655600a620000ea83826200049c565b50600b620000f982826200049c565b5050506daaeb6d7670e522a718067333cd4e3b15620002415780156200018f57604051633e9f1edf60e11b81523060048201526001600160a01b03831660248201526daaeb6d7670e522a718067333cd4e90637d3e3dbe906044015b600060405180830381600087803b1580156200017057600080fd5b505af115801562000185573d6000803e3d6000fd5b5050505062000241565b6001600160a01b03821615620001e05760405163a0af290360e01b81523060048201526001600160a01b03831660248201526daaeb6d7670e522a718067333cd4e9063a0af29039060440162000155565b604051632210724360e11b81523060048201526daaeb6d7670e522a718067333cd4e90634420e48690602401600060405180830381600087803b1580156200022757600080fd5b505af11580156200023c573d6000803e3d6000fd5b505050505b5050506010949094555050601155506200056892505050565b600080546001600160a01b038381166001600160a01b0319831681178455604051919092169283917f8be0079c531659141344cd1fd0a4f28419497f9722a3daafe3b4186f6b6457e09190a35050565b634e487b7160e01b600052604160045260246000fd5b600082601f830112620002d257600080fd5b81516001600160401b0380821115620002ef57620002ef620002aa565b604051601f8301601f19908116603f011681019082821181831017156200031a576200031a620002aa565b816040528381526020925086838588010111156200033757600080fd5b600091505b838210156200035b57858201830151818301840152908201906200033c565b600093810190920192909252949350505050565b600080600080600060a086880312156200038857600080fd5b85516001600160401b0380821115620003a057600080fd5b620003ae89838a01620002c0565b96506020880151915080821115620003c557600080fd5b50620003d488828901620002c0565b604088015190955090506001600160a01b0381168114620003f457600080fd5b6060870151608090970151959894975095949392505050565b600181811c908216806200042257607f821691505b6020821081036200044357634e487b7160e01b600052602260045260246000fd5b50919050565b601f8211156200049757600081815260208120601f850160051c81016020861015620004725750805b601f850160051c820191505b8181101562000493578281556001016200047e565b5050505b505050565b81516001600160401b03811115620004b857620004b8620002aa565b620004d081620004c984546200040d565b8462000449565b602080601f831160018114620005085760008415620004ef5750858301515b600019600386901b1c1916600185901b17855562000493565b600085815260208120601f198616915b82811015620005395788860151825594840194600190910190840162000518565b5085821015620005585787850151600019600388901b60f8161c191681555b5050505050600190811b01905550565b608051614880620005bc6000396000818161090a01528181610afb01528181610dff01528181610f5a0152818161117b01528181611a1b01528181611ea401528181611fd701526130c001526148806000f3fe60806040526004361061034f5760003560e01c80637533d788116101c6578063baf3292d116100f7578063e1d4c87011610095578063f23536411161006f578063f235364114610a6b578063f2fde38b14610a8b578063f5ecbdbc14610aab578063fa25f9b614610acb57600080fd5b8063e1d4c87014610a15578063e985e9c514610a2b578063eb8d72b714610a4b57600080fd5b8063cbed8b9c116100d1578063cbed8b9c146109a2578063d12473a5146109c2578063d1deba1f146109e2578063df2a5b3b146109f557600080fd5b8063baf3292d1461094c578063c44618341461096c578063c87b56dd1461098257600080fd5b80639f38369a11610164578063ab3ffb931161013e578063ab3ffb93146108bd578063af3fb21c146108d0578063b353aaa7146108f8578063b88d4fde1461092c57600080fd5b80639f38369a1461085d578063a22cb4651461087d578063a6c3d1651461089d57600080fd5b80638ffa1f2a116101a05780638ffa1f2a146107e8578063950c8a741461080857806395d89b41146108285780639ea5d6b11461083d57600080fd5b80637533d788146107725780638cfd8f5c146107925780638da5cb5b146107ca57600080fd5b80633d8b38f6116102a0578063519056361161023e57806366ad5c8a1161021857806366ad5c8a146107075780636aa99da31461072757806370a082311461073d578063715018a61461075d57600080fd5b806351905636146106855780635b8c41e6146106985780636352211e146106e757600080fd5b806342842e0e1161027a57806342842e0e1461060257806342d65a8d1461062257806348288190146106425780634ac3f4ff1461065857600080fd5b80633d8b38f6146105855780633f1f4fa4146105a557806341f43434146105e057600080fd5b80630b4cad4c1161030d5780631249c58b116102e75780631249c58b146104a557806322a3ecf9146104ad57806323b872dd146105305780632a205e3d1461055057600080fd5b80630b4cad4c146104455780630df374831461046557806310ddb1371461048557600080fd5b80621d35671461035457806301ffc9a71461037657806306fdde03146103ab57806307e0db17146103cd578063081812fc146103ed578063095ea7b314610425575b600080fd5b34801561036057600080fd5b5061037461036f366004613723565b610af8565b005b34801561038257600080fd5b506103966103913660046137cc565b610d29565b60405190151581526020015b60405180910390f35b3480156103b757600080fd5b506103c0610d4c565b6040516103a29190613839565b3480156103d957600080fd5b506103746103e836600461384c565b610dde565b3480156103f957600080fd5b5061040d610408366004613867565b610e67565b6040516001600160a01b0390911681526020016103a2565b34801561043157600080fd5b506103746104403660046138a0565b610e8e565b34801561045157600080fd5b50610374610460366004613867565b610ea7565b34801561047157600080fd5b506103746104803660046138cc565b610f1a565b34801561049157600080fd5b506103746104a036600461384c565b610f39565b610374610f91565b3480156104b957600080fd5b506105016104c8366004613867565b60096020526000908152604090208054600182015460029092015461ffff821692620100009092046001600160a01b0316919060ff1684565b6040805161ffff90951685526001600160a01b03909316602085015291830152151560608201526080016103a2565b34801561053c57600080fd5b5061037461054b3660046138e8565b61101a565b34801561055c57600080fd5b5061057061056b3660046139fa565b611045565b604080519283526020830191909152016103a2565b34801561059157600080fd5b506103966105a0366004613a8c565b61106b565b3480156105b157600080fd5b506105d26105c036600461384c565b60036020526000908152604090205481565b6040519081526020016103a2565b3480156105ec57600080fd5b5061040d6daaeb6d7670e522a718067333cd4e81565b34801561060e57600080fd5b5061037461061d3660046138e8565b611137565b34801561062e57600080fd5b5061037461063d366004613a8c565b61115c565b34801561064e57600080fd5b506105d260065481565b34801561066457600080fd5b506105d261067336600461384c565b60076020526000908152604090205481565b610374610693366004613ade565b6111e2565b3480156106a457600080fd5b506105d26106b3366004613b97565b6005602090815260009384526040808520845180860184018051928152908401958401959095209452929052825290205481565b3480156106f357600080fd5b5061040d610702366004613867565b6111f9565b34801561071357600080fd5b50610374610722366004613723565b611259565b34801561073357600080fd5b506105d260105481565b34801561074957600080fd5b506105d2610758366004613bf4565b611335565b34801561076957600080fd5b506103746113bb565b34801561077e57600080fd5b506103c061078d36600461384c565b6113cf565b34801561079e57600080fd5b506105d26107ad366004613c11565b600260209081526000928352604080842090915290825290205481565b3480156107d657600080fd5b506000546001600160a01b031661040d565b3480156107f457600080fd5b50610374610803366004613c44565b611469565b34801561081457600080fd5b5060045461040d906001600160a01b031681565b34801561083457600080fd5b506103c06116b3565b34801561084957600080fd5b506103746108583660046138cc565b6116c2565b34801561086957600080fd5b506103c061087836600461384c565b611745565b34801561088957600080fd5b50610374610898366004613c78565b61185b565b3480156108a957600080fd5b506103746108b8366004613a8c565b61186f565b6103746108cb366004613d3a565b6118f8565b3480156108dc57600080fd5b506108e5600181565b60405161ffff90911681526020016103a2565b34801561090457600080fd5b5061040d7f000000000000000000000000000000000000000000000000000000000000000081565b34801561093857600080fd5b50610374610947366004613def565b611907565b34801561095857600080fd5b50610374610967366004613bf4565b61192d565b34801561097857600080fd5b506105d261271081565b34801561098e57600080fd5b506103c061099d366004613867565b611989565b3480156109ae57600080fd5b506103746109bd366004613e5a565b6119fc565b3480156109ce57600080fd5b506103746109dd3660046138cc565b611a91565b6103746109f0366004613723565b611b15565b348015610a0157600080fd5b50610374610a10366004613ec8565b611d2b565b348015610a2157600080fd5b506105d260115481565b348015610a3757600080fd5b50610396610a46366004613f04565b611ddd565b348015610a5757600080fd5b50610374610a66366004613a8c565b611e0b565b348015610a7757600080fd5b50610570610a86366004613f32565b611e65565b348015610a9757600080fd5b50610374610aa6366004613bf4565b611f30565b348015610ab757600080fd5b506103c0610ac6366004613faf565b611fa6565b348015610ad757600080fd5b506105d2610ae636600461384c565b60086020526000908152604090205481565b337f00000000000000000000000000000000000000000000000000000000000000006001600160a01b031614610b755760405162461bcd60e51b815260206004820152601e60248201527f4c7a4170703a20696e76616c696420656e64706f696e742063616c6c6572000060448201526064015b60405180910390fd5b61ffff861660009081526001602052604081208054610b9390613ffc565b80601f0160208091040260200160405190810160405280929190818152602001828054610bbf90613ffc565b8015610c0c5780601f10610be157610100808354040283529160200191610c0c565b820191906000526020600020905b815481529060010190602001808311610bef57829003601f168201915b50505050509050805186869050148015610c27575060008151115b8015610c4f575080516020820120604051610c459088908890614036565b6040518091039020145b610caa5760405162461bcd60e51b815260206004820152602660248201527f4c7a4170703a20696e76616c696420736f757263652073656e64696e6720636f6044820152651b9d1c9858dd60d21b6064820152608401610b6c565b610d208787878080601f01602080910402602001604051908101604052809392919081815260200183838082843760009201919091525050604080516020601f8a018190048102820181019092528881528a93509150889088908190840183828082843760009201919091525061205992505050565b50505050505050565b60006001600160e01b031982161580610d465750610d46826120d2565b92915050565b6060600a8054610d5b90613ffc565b80601f0160208091040260200160405190810160405280929190818152602001828054610d8790613ffc565b8015610dd45780601f10610da957610100808354040283529160200191610dd4565b820191906000526020600020905b815481529060010190602001808311610db757829003601f168201915b5050505050905090565b610de6612112565b6040516307e0db1760e01b815261ffff821660048201527f00000000000000000000000000000000000000000000000000000000000000006001600160a01b0316906307e0db17906024015b600060405180830381600087803b158015610e4c57600080fd5b505af1158015610e60573d6000803e3d6000fd5b5050505050565b6000610e728261216c565b506000908152600e60205260409020546001600160a01b031690565b81610e98816121bc565b610ea28383612275565b505050565b610eaf612112565b60008111610f155760405162461bcd60e51b815260206004820152602d60248201527f4f4e46543732313a206d696e476173546f5472616e73666572416e6453746f7260448201526c065206d757374206265203e203609c1b6064820152608401610b6c565b600655565b610f22612112565b61ffff909116600090815260036020526040902055565b610f41612112565b6040516310ddb13760e01b815261ffff821660048201527f00000000000000000000000000000000000000000000000000000000000000006001600160a01b0316906310ddb13790602401610e32565b6011546010541115610ff65760405162461bcd60e51b815260206004820152602860248201527f556e6976657273616c4f4e46543732313a206d6178206d696e74206c696d6974604482015267081c995858da195960c21b6064820152608401610b6c565b6010805490819060006110088361405c565b91905055506110173382612385565b50565b826001600160a01b038116331461103457611034336121bc565b61103f8484846123a3565b50505050565b60008061105d8787611056886123d5565b8787611e65565b915091509550959350505050565b61ffff83166000908152600160205260408120805482919061108c90613ffc565b80601f01602080910402602001604051908101604052809291908181526020018280546110b890613ffc565b80156111055780601f106110da57610100808354040283529160200191611105565b820191906000526020600020905b8154815290600101906020018083116110e857829003601f168201915b50505050509050838360405161111c929190614036565b60405180910390208180519060200120149150509392505050565b826001600160a01b038116331461115157611151336121bc565b61103f848484612420565b611164612112565b6040516342d65a8d60e01b81526001600160a01b037f000000000000000000000000000000000000000000000000000000000000000016906342d65a8d906111b49086908690869060040161409e565b600060405180830381600087803b1580156111ce57600080fd5b505af1158015610d20573d6000803e3d6000fd5b610d208787876111f1886123d5565b87878761243b565b6000818152600c60205260408120546001600160a01b031680610d465760405162461bcd60e51b8152602060048201526018602482015277115490cdcc8c4e881a5b9d985b1a59081d1bdad95b88125160421b6044820152606401610b6c565b3330146112b75760405162461bcd60e51b815260206004820152602660248201527f4e6f6e626c6f636b696e674c7a4170703a2063616c6c6572206d7573742062656044820152650204c7a4170760d41b6064820152608401610b6c565b61132d8686868080601f01602080910402602001604051908101604052809392919081815260200183838082843760009201919091525050604080516020601f89018190048102820181019092528781528993509150879087908190840183828082843760009201919091525061262292505050565b505050505050565b60006001600160a01b03821661139f5760405162461bcd60e51b815260206004820152602960248201527f4552433732313a2061646472657373207a65726f206973206e6f7420612076616044820152683634b21037bbb732b960b91b6064820152608401610b6c565b506001600160a01b03166000908152600d602052604090205490565b6113c3612112565b6113cd6000612779565b565b600160205260009081526040902080546113e890613ffc565b80601f016020809104026020016040519081016040528092919081815260200182805461141490613ffc565b80156114615780601f1061143657610100808354040283529160200191611461565b820191906000526020600020905b81548152906001019060200180831161144457829003601f168201915b505050505081565b80516020808301919091206000818152600990925260409091206002015460ff166114d65760405162461bcd60e51b815260206004820152601a60248201527f4f4e46543732313a206e6f20637265646974732073746f7265640000000000006044820152606401610b6c565b6000828060200190518101906114ec9190614101565b600084815260096020526040812080546001909101549294509092506115289161ffff8216916201000090046001600160a01b031690856127c9565b60008481526009602052604090206001015490915081116115a65760405162461bcd60e51b815260206004820152603260248201527f4f4e46543732313a206e6f7420656e6f7567682067617320746f2070726f636560448201527139b99031b932b234ba103a3930b739b332b960711b6064820152608401610b6c565b8151810361161d5760008381526009602052604080822080546001600160b01b031916815560018101929092556002909101805460ff19169055517fd7be02b8dd0d27bd0517a9cb4d7469ce27df4313821ae5ec1ff69acc594ba233906116109085815260200190565b60405180910390a161103f565b60408051608081018252600085815260096020818152848320805461ffff8082168752620100008083046001600160a01b03908116868a019081529989019a8b52600160608a018181529d9098529590945295519651969095166001600160b01b031990951694909417949091160292909217815591519082015591516002909201805460ff1916921515929092179091555050565b6060600b8054610d5b90613ffc565b6116ca612112565b6000811161172e5760405162461bcd60e51b815260206004820152602b60248201527f4f4e46543732313a20647374436861696e4964546f42617463684c696d69742060448201526a06d757374206265203e20360ac1b6064820152608401610b6c565b61ffff909116600090815260076020526040902055565b61ffff811660009081526001602052604081208054606092919061176890613ffc565b80601f016020809104026020016040519081016040528092919081815260200182805461179490613ffc565b80156117e15780601f106117b6576101008083540402835291602001916117e1565b820191906000526020600020905b8154815290600101906020018083116117c457829003601f168201915b5050505050905080516000036118395760405162461bcd60e51b815260206004820152601d60248201527f4c7a4170703a206e6f20747275737465642070617468207265636f72640000006044820152606401610b6c565b61185460006014835161184c91906141bb565b839190612815565b9392505050565b81611865816121bc565b610ea28383612922565b611877612112565b81813060405160200161188c939291906141ce565b60408051601f1981840301815291815261ffff85166000908152600160205220906118b7908261423a565b507f8c0400cfe2d1199b1a725c78960bcc2a344d869b80590d0f2bd005db15a572ce8383836040516118eb9392919061409e565b60405180910390a1505050565b610d208787878787878761243b565b836001600160a01b038116331461192157611921336121bc565b610e608585858561292d565b611935612112565b600480546001600160a01b0319166001600160a01b0383169081179091556040519081527f5db758e995a17ec1ad84bdef7e8c3293a0bd6179bcce400dff5d4c3d87db726b9060200160405180910390a150565b60606119948261216c565b60006119ab60408051602081019091526000815290565b905060008151116119cb5760405180602001604052806000815250611854565b806119d58461295f565b6040516020016119e69291906142f9565b6040516020818303038152906040529392505050565b611a04612112565b6040516332fb62e760e21b81526001600160a01b037f0000000000000000000000000000000000000000000000000000000000000000169063cbed8b9c90611a589088908890889088908890600401614328565b600060405180830381600087803b158015611a7257600080fd5b505af1158015611a86573d6000803e3d6000fd5b505050505050505050565b611a99612112565b60008111611afe5760405162461bcd60e51b815260206004820152602c60248201527f4f4e46543732313a20647374436861696e4964546f5472616e7366657247617360448201526b0206d757374206265203e20360a41b6064820152608401610b6c565b61ffff909116600090815260086020526040902055565b61ffff86166000908152600560205260408082209051611b389088908890614036565b90815260408051602092819003830190206001600160401b03871660009081529252902054905080611bb85760405162461bcd60e51b815260206004820152602360248201527f4e6f6e626c6f636b696e674c7a4170703a206e6f2073746f726564206d65737360448201526261676560e81b6064820152608401610b6c565b808383604051611bc9929190614036565b604051809103902014611c285760405162461bcd60e51b815260206004820152602160248201527f4e6f6e626c6f636b696e674c7a4170703a20696e76616c6964207061796c6f616044820152601960fa1b6064820152608401610b6c565b61ffff87166000908152600560205260408082209051611c4b9089908990614036565b90815260408051602092819003830181206001600160401b038916600090815290845282902093909355601f88018290048202830182019052868252611ce3918991899089908190840183828082843760009201919091525050604080516020601f8a018190048102820181019092528881528a93509150889088908190840183828082843760009201919091525061262292505050565b7fc264d91f3adc5588250e1551f547752ca0cfa8f6b530d243b9f9f4cab10ea8e58787878785604051611d1a959493929190614361565b60405180910390a150505050505050565b611d33612112565b60008111611d7b5760405162461bcd60e51b81526020600482015260156024820152744c7a4170703a20696e76616c6964206d696e47617360581b6044820152606401610b6c565b61ffff83811660008181526002602090815260408083209487168084529482529182902085905581519283528201929092529081018290527f9d5c7c0b934da8fefa9c7760c98383778a12dfbfc0c3b3106518f43fb9508ac0906060016118eb565b6001600160a01b039182166000908152600f6020908152604080832093909416825291909152205460ff1690565b611e13612112565b61ffff83166000908152600160205260409020611e3182848361439c565b507ffa41487ad5d6728f0b19276fa1eddc16558578f5109fc39d2dc33c3230470dab8383836040516118eb9392919061409e565b60008060008686604051602001611e7d929190614496565b60408051601f198184030181529082905263040a7bb160e41b825291506001600160a01b037f000000000000000000000000000000000000000000000000000000000000000016906340a7bb1090611ee1908b90309086908b908b906004016144c4565b6040805180830381865afa158015611efd573d6000803e3d6000fd5b505050506040513d601f19601f82011682018060405250810190611f219190614518565b92509250509550959350505050565b611f38612112565b6001600160a01b038116611f9d5760405162461bcd60e51b815260206004820152602660248201527f4f776e61626c653a206e6577206f776e657220697320746865207a65726f206160448201526564647265737360d01b6064820152608401610b6c565b61101781612779565b604051633d7b2f6f60e21b815261ffff808616600483015284166024820152306044820152606481018290526060907f00000000000000000000000000000000000000000000000000000000000000006001600160a01b03169063f5ecbdbc90608401600060405180830381865afa158015612026573d6000803e3d6000fd5b505050506040513d6000823e601f3d908101601f1916820160405261204e919081019061453c565b90505b949350505050565b6000806120bc5a60966366ad5c8a60e01b898989896040516024016120819493929190614570565b60408051601f198184030181529190526020810180516001600160e01b03166001600160e01b031990931692909217909152309291906129f1565b915091508161132d5761132d8686868685612a7b565b60006001600160e01b031982166380ac58cd60e01b148061210357506001600160e01b03198216635b5e139f60e01b145b80610d465750610d4682612b18565b6000546001600160a01b031633146113cd5760405162461bcd60e51b815260206004820181905260248201527f4f776e61626c653a2063616c6c6572206973206e6f7420746865206f776e65726044820152606401610b6c565b61217581612b4d565b6110175760405162461bcd60e51b8152602060048201526018602482015277115490cdcc8c4e881a5b9d985b1a59081d1bdad95b88125160421b6044820152606401610b6c565b6daaeb6d7670e522a718067333cd4e3b1561101757604051633185c44d60e21b81523060048201526001600160a01b03821660248201526daaeb6d7670e522a718067333cd4e9063c617113490604401602060405180830381865afa158015612229573d6000803e3d6000fd5b505050506040513d601f19601f8201168201806040525081019061224d91906145ae565b61101757604051633b79c77360e21b81526001600160a01b0382166004820152602401610b6c565b6000612280826111f9565b9050806001600160a01b0316836001600160a01b0316036122ed5760405162461bcd60e51b815260206004820152602160248201527f4552433732313a20617070726f76616c20746f2063757272656e74206f776e656044820152603960f91b6064820152608401610b6c565b336001600160a01b038216148061230957506123098133611ddd565b61237b5760405162461bcd60e51b815260206004820152603d60248201527f4552433732313a20617070726f76652063616c6c6572206973206e6f7420746f60448201527f6b656e206f776e6572206f7220617070726f76656420666f7220616c6c0000006064820152608401610b6c565b610ea28383612b6a565b61239f828260405180602001604052806000815250612bd8565b5050565b6123ae335b82612c0b565b6123ca5760405162461bcd60e51b8152600401610b6c906145cb565b610ea2838383612c69565b6040805160018082528183019092526060916000919060208083019080368337019050509050828160008151811061240f5761240f614618565b602090810291909101015292915050565b610ea283838360405180602001604052806000815250611907565b600084511161248c5760405162461bcd60e51b815260206004820152601a60248201527f4c7a4170703a20746f6b656e4964735b5d20697320656d7074790000000000006044820152606401610b6c565b8351600114806124b0575061ffff8616600090815260076020526040902054845111155b6125105760405162461bcd60e51b815260206004820152602b60248201527f4f4e46543732313a2062617463682073697a652065786365656473206473742060448201526a18985d18da081b1a5b5a5d60aa1b6064820152608401610b6c565b60005b84518110156125535761254188888888858151811061253457612534614618565b6020026020010151612dcd565b8061254b8161405c565b915050612513565b5060008585604051602001612569929190614496565b60405160208183030381529060405290506125ae876001848851600860008d61ffff1661ffff168152602001908152602001600020546125a9919061462e565b612eb8565b6125bc878286868634612f97565b856040516125ca9190614645565b6040518091039020886001600160a01b03168861ffff167fe1b87c47fdeb4f9cbadbca9df3af7aba453bb6e501075d0440d88125b711522a886040516126109190614661565b60405180910390a45050505050505050565b600080828060200190518101906126399190614101565b601482015191935091506000612651888383866127c9565b905082518110156127255784516020808701919091206040805160808101825261ffff808d1682526001600160a01b0380881683870190815283850188815260016060860181815260008981526009909a529887902095518654935190941662010000026001600160b01b03199093169390941692909217178355519082015592516002909301805493151560ff199094169390931790925590517f10e0b70d256bccc84b7027506978bd8b68984a870788b93b479def144c839ad79061271b9083908990614674565b60405180910390a1505b816001600160a01b03168760405161273d9190614645565b60405180910390208961ffff167f5b821db8a46f8ecbe1941ba2f51cfeea9643268b56631f70d45e2a745d990265866040516126109190614661565b600080546001600160a01b038381166001600160a01b0319831681178455604051919092169283917f8be0079c531659141344cd1fd0a4f28419497f9722a3daafe3b4186f6b6457e09190a35050565b6000825b825181101561204e576006545a1061204e5761280386868584815181106127f6576127f6614618565b602002602001015161313c565b8061280d8161405c565b9150506127cd565b60608161282381601f61468d565b10156128625760405162461bcd60e51b815260206004820152600e60248201526d736c6963655f6f766572666c6f7760901b6044820152606401610b6c565b61286c828461468d565b845110156128b05760405162461bcd60e51b8152602060048201526011602482015270736c6963655f6f75744f66426f756e647360781b6044820152606401610b6c565b6060821580156128cf5760405191506000825260208201604052612919565b6040519150601f8416801560200281840101858101878315602002848b0101015b818310156129085780518352602092830192016128f0565b5050858452601f01601f1916604052505b50949350505050565b61239f33838361319c565b6129373383612c0b565b6129535760405162461bcd60e51b8152600401610b6c906145cb565b61103f8484848461326a565b6060600061296c8361329d565b60010190506000816001600160401b0381111561298b5761298b613929565b6040519080825280601f01601f1916602001820160405280156129b5576020820181803683370190505b5090508181016020015b600019016f181899199a1a9b1b9c1cb0b131b232b360811b600a86061a8153600a85049450846129bf57509392505050565b6000606060008060008661ffff166001600160401b03811115612a1657612a16613929565b6040519080825280601f01601f191660200182016040528015612a40576020820181803683370190505b50905060008087516020890160008d8df191503d925086831115612a62578692505b828152826000602083013e909890975095505050505050565b8180519060200120600560008761ffff1661ffff16815260200190815260200160002085604051612aac9190614645565b9081526040805191829003602090810183206001600160401b0388166000908152915220919091557fe183f33de2837795525b4792ca4cd60535bd77c53b7e7030060bfcf5734d6b0c90612b0990879087908790879087906146a0565b60405180910390a15050505050565b60006001600160e01b031982166322bac5d960e01b1480610d4657506301ffc9a760e01b6001600160e01b0319831614610d46565b6000908152600c60205260409020546001600160a01b0316151590565b6000818152600e6020526040902080546001600160a01b0319166001600160a01b0384169081179091558190612b9f826111f9565b6001600160a01b03167f8c5be1e5ebec7d5bd14f71427d1e84f3dd0314c0f7b2291e5b200ac8c7c3b92560405160405180910390a45050565b612be28383613375565b612bef60008484846134e2565b610ea25760405162461bcd60e51b8152600401610b6c906146f2565b600080612c17836111f9565b9050806001600160a01b0316846001600160a01b03161480612c3e5750612c3e8185611ddd565b806120515750836001600160a01b0316612c5784610e67565b6001600160a01b031614949350505050565b826001600160a01b0316612c7c826111f9565b6001600160a01b031614612ca25760405162461bcd60e51b8152600401610b6c90614744565b6001600160a01b038216612d045760405162461bcd60e51b8152602060048201526024808201527f4552433732313a207472616e7366657220746f20746865207a65726f206164646044820152637265737360e01b6064820152608401610b6c565b826001600160a01b0316612d17826111f9565b6001600160a01b031614612d3d5760405162461bcd60e51b8152600401610b6c90614744565b6000818152600e6020908152604080832080546001600160a01b03199081169091556001600160a01b03878116808652600d8552838620805460001901905590871680865283862080546001019055868652600c90945282852080549092168417909155905184937fddf252ad1be2c89b69c2b068fc378daa952ba7f163c4a11628f55a4df523b3ef91a4505050565b612dd6336123a8565b612e395760405162461bcd60e51b815260206004820152602e60248201527f4f4e46543732313a2073656e642063616c6c6572206973206e6f74206f776e6560448201526d1c881b9bdc88185c1c1c9bdd995960921b6064820152608401610b6c565b836001600160a01b0316612e4c826111f9565b6001600160a01b031614612ead5760405162461bcd60e51b815260206004820152602260248201527f4f4e46543732313a2073656e642066726f6d20696e636f7272656374206f776e60448201526132b960f11b6064820152608401610b6c565b61103f843083612c69565b6000612ec3836135e0565b61ffff808716600090815260026020908152604080832093891683529290529081205491925090612ef590849061468d565b905060008111612f475760405162461bcd60e51b815260206004820152601a60248201527f4c7a4170703a206d696e4761734c696d6974206e6f74207365740000000000006044820152606401610b6c565b8082101561132d5760405162461bcd60e51b815260206004820152601b60248201527f4c7a4170703a20676173206c696d697420697320746f6f206c6f7700000000006044820152606401610b6c565b61ffff861660009081526001602052604081208054612fb590613ffc565b80601f0160208091040260200160405190810160405280929190818152602001828054612fe190613ffc565b801561302e5780601f106130035761010080835404028352916020019161302e565b820191906000526020600020905b81548152906001019060200180831161301157829003601f168201915b50505050509050805160000361309f5760405162461bcd60e51b815260206004820152603060248201527f4c7a4170703a2064657374696e6174696f6e20636861696e206973206e6f742060448201526f61207472757374656420736f7572636560801b6064820152608401610b6c565b6130aa87875161363c565b60405162c5803160e81b81526001600160a01b037f0000000000000000000000000000000000000000000000000000000000000000169063c5803100908490613101908b9086908c908c908c908c90600401614789565b6000604051808303818588803b15801561311a57600080fd5b505af115801561312e573d6000803e3d6000fd5b505050505050505050505050565b61314581612b4d565b1580613171575061315581612b4d565b8015613171575030613166826111f9565b6001600160a01b0316145b61317a57600080fd5b61318381612b4d565b61319157610ea28282612385565b610ea2308383612c69565b816001600160a01b0316836001600160a01b0316036131fd5760405162461bcd60e51b815260206004820152601960248201527f4552433732313a20617070726f766520746f2063616c6c6572000000000000006044820152606401610b6c565b6001600160a01b038381166000818152600f6020908152604080832094871680845294825291829020805460ff191686151590811790915591519182527f17307eab39ab6107e8899845ad3d59bd9653f200f220920489ca2b5937696c31910160405180910390a3505050565b613275848484612c69565b613281848484846134e2565b61103f5760405162461bcd60e51b8152600401610b6c906146f2565b60008072184f03e93ff9f4daa797ed6e38ed64bf6a1f0160401b83106132dc5772184f03e93ff9f4daa797ed6e38ed64bf6a1f0160401b830492506040015b6d04ee2d6d415b85acef81000000008310613308576d04ee2d6d415b85acef8100000000830492506020015b662386f26fc10000831061332657662386f26fc10000830492506010015b6305f5e100831061333e576305f5e100830492506008015b612710831061335257612710830492506004015b60648310613364576064830492506002015b600a8310610d465760010192915050565b6001600160a01b0382166133cb5760405162461bcd60e51b815260206004820181905260248201527f4552433732313a206d696e7420746f20746865207a65726f20616464726573736044820152606401610b6c565b6133d481612b4d565b156134215760405162461bcd60e51b815260206004820152601c60248201527f4552433732313a20746f6b656e20616c7265616479206d696e746564000000006044820152606401610b6c565b61342a81612b4d565b156134775760405162461bcd60e51b815260206004820152601c60248201527f4552433732313a20746f6b656e20616c7265616479206d696e746564000000006044820152606401610b6c565b6001600160a01b0382166000818152600d6020908152604080832080546001019055848352600c90915280822080546001600160a01b0319168417905551839291907fddf252ad1be2c89b69c2b068fc378daa952ba7f163c4a11628f55a4df523b3ef908290a45050565b60006001600160a01b0384163b156135d857604051630a85bd0160e11b81526001600160a01b0385169063150b7a02906135269033908990889088906004016147f0565b6020604051808303816000875af1925050508015613561575060408051601f3d908101601f1916820190925261355e9181019061482d565b60015b6135be573d80801561358f576040519150601f19603f3d011682016040523d82523d6000602084013e613594565b606091505b5080516000036135b65760405162461bcd60e51b8152600401610b6c906146f2565b805181602001fd5b6001600160e01b031916630a85bd0160e11b149050612051565b506001612051565b60006022825110156136345760405162461bcd60e51b815260206004820152601c60248201527f4c7a4170703a20696e76616c69642061646170746572506172616d73000000006044820152606401610b6c565b506022015190565b61ffff82166000908152600360205260408120549081900361365d57506127105b80821115610ea25760405162461bcd60e51b815260206004820181905260248201527f4c7a4170703a207061796c6f61642073697a6520697320746f6f206c617267656044820152606401610b6c565b803561ffff811681146136bf57600080fd5b919050565b60008083601f8401126136d657600080fd5b5081356001600160401b038111156136ed57600080fd5b60208301915083602082850101111561370557600080fd5b9250929050565b80356001600160401b03811681146136bf57600080fd5b6000806000806000806080878903121561373c57600080fd5b613745876136ad565b955060208701356001600160401b038082111561376157600080fd5b61376d8a838b016136c4565b909750955085915061378160408a0161370c565b9450606089013591508082111561379757600080fd5b506137a489828a016136c4565b979a9699509497509295939492505050565b6001600160e01b03198116811461101757600080fd5b6000602082840312156137de57600080fd5b8135611854816137b6565b60005b838110156138045781810151838201526020016137ec565b50506000910152565b600081518084526138258160208601602086016137e9565b601f01601f19169290920160200192915050565b602081526000611854602083018461380d565b60006020828403121561385e57600080fd5b611854826136ad565b60006020828403121561387957600080fd5b5035919050565b6001600160a01b038116811461101757600080fd5b80356136bf81613880565b600080604083850312156138b357600080fd5b82356138be81613880565b946020939093013593505050565b600080604083850312156138df57600080fd5b6138be836136ad565b6000806000606084860312156138fd57600080fd5b833561390881613880565b9250602084013561391881613880565b929592945050506040919091013590565b634e487b7160e01b600052604160045260246000fd5b604051601f8201601f191681016001600160401b038111828210171561396757613967613929565b604052919050565b60006001600160401b0382111561398857613988613929565b50601f01601f191660200190565b600082601f8301126139a757600080fd5b81356139ba6139b58261396f565b61393f565b8181528460208386010111156139cf57600080fd5b816020850160208301376000918101602001919091529392505050565b801515811461101757600080fd5b600080600080600060a08688031215613a1257600080fd5b613a1b866136ad565b945060208601356001600160401b0380821115613a3757600080fd5b613a4389838a01613996565b95506040880135945060608801359150613a5c826139ec565b90925060808701359080821115613a7257600080fd5b50613a7f88828901613996565b9150509295509295909350565b600080600060408486031215613aa157600080fd5b613aaa846136ad565b925060208401356001600160401b03811115613ac557600080fd5b613ad1868287016136c4565b9497909650939450505050565b600080600080600080600060e0888a031215613af957600080fd5b8735613b0481613880565b9650613b12602089016136ad565b955060408801356001600160401b0380821115613b2e57600080fd5b613b3a8b838c01613996565b965060608a0135955060808a01359150613b5382613880565b90935060a089013590613b6582613880565b90925060c08901359080821115613b7b57600080fd5b50613b888a828b01613996565b91505092959891949750929550565b600080600060608486031215613bac57600080fd5b613bb5846136ad565b925060208401356001600160401b03811115613bd057600080fd5b613bdc86828701613996565b925050613beb6040850161370c565b90509250925092565b600060208284031215613c0657600080fd5b813561185481613880565b60008060408385031215613c2457600080fd5b613c2d836136ad565b9150613c3b602084016136ad565b90509250929050565b600060208284031215613c5657600080fd5b81356001600160401b03811115613c6c57600080fd5b61205184828501613996565b60008060408385031215613c8b57600080fd5b8235613c9681613880565b91506020830135613ca6816139ec565b809150509250929050565b60006001600160401b03821115613cca57613cca613929565b5060051b60200190565b600082601f830112613ce557600080fd5b81356020613cf56139b583613cb1565b82815260059290921b84018101918181019086841115613d1457600080fd5b8286015b84811015613d2f5780358352918301918301613d18565b509695505050505050565b600080600080600080600060e0888a031215613d5557600080fd5b8735613d6081613880565b9650613d6e602089016136ad565b955060408801356001600160401b0380821115613d8a57600080fd5b613d968b838c01613996565b965060608a0135915080821115613dac57600080fd5b613db88b838c01613cd4565b955060808a01359150613dca82613880565b819450613dd960a08b01613895565b935060c08a0135915080821115613b7b57600080fd5b60008060008060808587031215613e0557600080fd5b8435613e1081613880565b93506020850135613e2081613880565b92506040850135915060608501356001600160401b03811115613e4257600080fd5b613e4e87828801613996565b91505092959194509250565b600080600080600060808688031215613e7257600080fd5b613e7b866136ad565b9450613e89602087016136ad565b93506040860135925060608601356001600160401b03811115613eab57600080fd5b613eb7888289016136c4565b969995985093965092949392505050565b600080600060608486031215613edd57600080fd5b613ee6846136ad565b9250613ef4602085016136ad565b9150604084013590509250925092565b60008060408385031215613f1757600080fd5b8235613f2281613880565b91506020830135613ca681613880565b600080600080600060a08688031215613f4a57600080fd5b613f53866136ad565b945060208601356001600160401b0380821115613f6f57600080fd5b613f7b89838a01613996565b95506040880135915080821115613f9157600080fd5b613f9d89838a01613cd4565b945060608801359150613a5c826139ec565b60008060008060808587031215613fc557600080fd5b613fce856136ad565b9350613fdc602086016136ad565b92506040850135613fec81613880565b9396929550929360600135925050565b600181811c9082168061401057607f821691505b60208210810361403057634e487b7160e01b600052602260045260246000fd5b50919050565b8183823760009101908152919050565b634e487b7160e01b600052601160045260246000fd5b60006001820161406e5761406e614046565b5060010190565b81835281816020850137506000828201602090810191909152601f909101601f19169091010190565b61ffff8416815260406020820152600061204e604083018486614075565b600082601f8301126140cd57600080fd5b81516140db6139b58261396f565b8181528460208386010111156140f057600080fd5b6120518260208301602087016137e9565b6000806040838503121561411457600080fd5b82516001600160401b038082111561412b57600080fd5b614137868387016140bc565b935060209150818501518181111561414e57600080fd5b85019050601f8101861361416157600080fd5b805161416f6139b582613cb1565b81815260059190911b8201830190838101908883111561418e57600080fd5b928401925b828410156141ac57835182529284019290840190614193565b80955050505050509250929050565b81810381811115610d4657610d46614046565b8284823760609190911b6bffffffffffffffffffffffff19169101908152601401919050565b601f821115610ea257600081815260208120601f850160051c8101602086101561421b5750805b601f850160051c820191505b8181101561132d57828155600101614227565b81516001600160401b0381111561425357614253613929565b614267816142618454613ffc565b846141f4565b602080601f83116001811461429c57600084156142845750858301515b600019600386901b1c1916600185901b17855561132d565b600085815260208120601f198616915b828110156142cb578886015182559484019460019091019084016142ac565b50858210156142e95787850151600019600388901b60f8161c191681555b5050505050600190811b01905550565b6000835161430b8184602088016137e9565b83519083019061431f8183602088016137e9565b01949350505050565b600061ffff808816835280871660208401525084604083015260806060830152614356608083018486614075565b979650505050505050565b61ffff8616815260806020820152600061437f608083018688614075565b6001600160401b0394909416604083015250606001529392505050565b6001600160401b038311156143b3576143b3613929565b6143c7836143c18354613ffc565b836141f4565b6000601f8411600181146143fb57600085156143e35750838201355b600019600387901b1c1916600186901b178355610e60565b600083815260209020601f19861690835b8281101561442c578685013582556020948501946001909201910161440c565b50868210156144495760001960f88860031b161c19848701351681555b505060018560011b0183555050505050565b600081518084526020808501945080840160005b8381101561448b5781518752958201959082019060010161446f565b509495945050505050565b6040815260006144a9604083018561380d565b82810360208401526144bb818561445b565b95945050505050565b61ffff861681526001600160a01b038516602082015260a0604082018190526000906144f29083018661380d565b8415156060840152828103608084015261450c818561380d565b98975050505050505050565b6000806040838503121561452b57600080fd5b505080516020909101519092909150565b60006020828403121561454e57600080fd5b81516001600160401b0381111561456457600080fd5b612051848285016140bc565b61ffff8516815260806020820152600061458d608083018661380d565b6001600160401b03851660408401528281036060840152614356818561380d565b6000602082840312156145c057600080fd5b8151611854816139ec565b6020808252602d908201527f4552433732313a2063616c6c6572206973206e6f7420746f6b656e206f776e6560408201526c1c881bdc88185c1c1c9bdd9959609a1b606082015260800190565b634e487b7160e01b600052603260045260246000fd5b8082028115828204841417610d4657610d46614046565b600082516146578184602087016137e9565b9190910192915050565b602081526000611854602083018461445b565b828152604060208201526000612051604083018461380d565b80820180821115610d4657610d46614046565b61ffff8616815260a0602082015260006146bd60a083018761380d565b6001600160401b038616604084015282810360608401526146de818661380d565b9050828103608084015261450c818561380d565b60208082526032908201527f4552433732313a207472616e7366657220746f206e6f6e20455243373231526560408201527131b2b4bb32b91034b6b83632b6b2b73a32b960711b606082015260800190565b60208082526025908201527f4552433732313a207472616e736665722066726f6d20696e636f72726563742060408201526437bbb732b960d91b606082015260800190565b61ffff8716815260c0602082015260006147a660c083018861380d565b82810360408401526147b8818861380d565b6001600160a01b0387811660608601528616608085015283810360a085015290506147e3818561380d565b9998505050505050505050565b6001600160a01b03858116825284166020820152604081018390526080606082018190526000906148239083018461380d565b9695505050505050565b60006020828403121561483f57600080fd5b8151611854816137b656fea2646970667358221220bff4169f4cf1c5e787a7e2eb8d1393a20117acc12e44317fbc16bd4c7e80609464736f6c63430008110033",
    "linkReferences": {}
  },
  "methodIdentifiers": {
    "DEFAULT_PAYLOAD_SIZE_LIMIT()": "c4461834",
    "FUNCTION_TYPE_SEND()": "af3fb21c",
    "OPERATOR_FILTER_REGISTRY()": "41f43434",
    "approve(address,uint256)": "095ea7b3",
    "balanceOf(address)": "70a08231",
    "clearCredits(bytes)": "8ffa1f2a",
    "dstChainIdToBatchLimit(uint16)": "4ac3f4ff",
    "dstChainIdToTransferGas(uint16)": "fa25f9b6",
    "estimateSendBatchFee(uint16,bytes,uint256[],bool,bytes)": "f2353641",
    "estimateSendFee(uint16,bytes,uint256,bool,bytes)": "2a205e3d",
    "failedMessages(uint16,bytes,uint64)": "5b8c41e6",
    "forceResumeReceive(uint16,bytes)": "42d65a8d",
    "getApproved(uint256)": "081812fc",
    "getConfig(uint16,uint16,address,uint256)": "f5ecbdbc",
    "getTrustedRemoteAddress(uint16)": "9f38369a",
    "isApprovedForAll(address,address)": "e985e9c5",
    "isTrustedRemote(uint16,bytes)": "3d8b38f6",
    "lzEndpoint()": "b353aaa7",
    "lzReceive(uint16,bytes,uint64,bytes)": "001d3567",
    "maxMintId()": "e1d4c870",
    "minDstGasLookup(uint16,uint16)": "8cfd8f5c",
    "minGasToTransferAndStore()": "48288190",
    "mint()": "1249c58b",
    "name()": "06fdde03",
    "nextMintId()": "6aa99da3",
    "nonblockingLzReceive(uint16,bytes,uint64,bytes)": "66ad5c8a",
    "owner()": "8da5cb5b",
    "ownerOf(uint256)": "6352211e",
    "payloadSizeLimitLookup(uint16)": "3f1f4fa4",
    "precrime()": "950c8a74",
    "renounceOwnership()": "715018a6",
    "retryMessage(uint16,bytes,uint64,bytes)": "d1deba1f",
    "safeTransferFrom(address,address,uint256)": "42842e0e",
    "safeTransferFrom(address,address,uint256,bytes)": "b88d4fde",
    "sendBatchFrom(address,uint16,bytes,uint256[],address,address,bytes)": "ab3ffb93",
    "sendFrom(address,uint16,bytes,uint256,address,address,bytes)": "51905636",
    "setApprovalForAll(address,bool)": "a22cb465",
    "setConfig(uint16,uint16,uint256,bytes)": "cbed8b9c",
    "setDstChainIdToBatchLimit(uint16,uint256)": "9ea5d6b1",
    "setDstChainIdToTransferGas(uint16,uint256)": "d12473a5",
    "setMinDstGas(uint16,uint16,uint256)": "df2a5b3b",
    "setMinGasToTransferAndStore(uint256)": "0b4cad4c",
    "setPayloadSizeLimit(uint16,uint256)": "0df37483",
    "setPrecrime(address)": "baf3292d",
    "setReceiveVersion(uint16)": "10ddb137",
    "setSendVersion(uint16)": "07e0db17",
    "setTrustedRemote(uint16,bytes)": "eb8d72b7",
    "setTrustedRemoteAddress(uint16,bytes)": "a6c3d165",
    "storedCredits(bytes32)": "22a3ecf9",
    "supportsInterface(bytes4)": "01ffc9a7",
    "symbol()": "95d89b41",
    "tokenURI(uint256)": "c87b56dd",
    "transferFrom(address,address,uint256)": "23b872dd",
    "transferOwnership(address)": "f2fde38b",
    "trustedRemoteLookup(uint16)": "7533d788"
  },
  "id": 104
}