{
  "abi": [
    {
      "inputs": [],
      "stateMutability": "nonpayable",
      "type": "constructor"
    },
    {
      "anonymous": false,
      "inputs": [
        {
          "indexed": true,
          "internalType": "address",
          "name": "owner",
          "type": "address"
        },
        {
          "indexed": true,
          "internalType": "address",
          "name": "spender",
          "type": "address"
        },
        {
          "indexed": false,
          "internalType": "uint256",
          "name": "value",
          "type": "uint256"
        }
      ],
      "name": "Approval",
      "type": "event"
    },
    {
      "anonymous": false,
      "inputs": [
        {
          "indexed": true,
          "internalType": "address",
          "name": "from",
          "type": "address"
        },
        {
          "indexed": true,
          "internalType": "address",
          "name": "to",
          "type": "address"
        },
        {
          "indexed": false,
          "internalType": "uint256",
          "name": "value",
          "type": "uint256"
        }
      ],
      "name": "Transfer",
      "type": "event"
    },
    {
      "inputs": [],
      "name": "DOMAIN_SEPARATOR",
      "outputs": [
        {
          "internalType": "bytes32",
          "name": "",
          "type": "bytes32"
        }
      ],
      "stateMutability": "view",
      "type": "function"
    },
    {
      "inputs": [],
      "name": "PERMIT_TYPEHASH",
      "outputs": [
        {
          "internalType": "bytes32",
          "name": "",
          "type": "bytes32"
        }
      ],
      "stateMutability": "view",
      "type": "function"
    },
    {
      "inputs": [
        {
          "internalType": "address",
          "name": "",
          "type": "address"
        },
        {
          "internalType": "address",
          "name": "",
          "type": "address"
        }
      ],
      "name": "allowance",
      "outputs": [
        {
          "internalType": "uint256",
          "name": "",
          "type": "uint256"
        }
      ],
      "stateMutability": "view",
      "type": "function"
    },
    {
      "inputs": [
        {
          "internalType": "address",
          "name": "spender",
          "type": "address"
        },
        {
          "internalType": "uint256",
          "name": "value",
          "type": "uint256"
        }
      ],
      "name": "approve",
      "outputs": [
        {
          "internalType": "bool",
          "name": "",
          "type": "bool"
        }
      ],
      "stateMutability": "nonpayable",
      "type": "function"
    },
    {
      "inputs": [
        {
          "internalType": "address",
          "name": "",
          "type": "address"
        }
      ],
      "name": "balanceOf",
      "outputs": [
        {
          "internalType": "uint256",
          "name": "",
          "type": "uint256"
        }
      ],
      "stateMutability": "view",
      "type": "function"
    },
    {
      "inputs": [],
      "name": "decimals",
      "outputs": [
        {
          "internalType": "uint256",
          "name": "",
          "type": "uint256"
        }
      ],
      "stateMutability": "view",
      "type": "function"
    },
    {
      "inputs": [
        {
          "internalType": "address",
          "name": "spender",
          "type": "address"
        },
        {
          "internalType": "uint256",
          "name": "subtractedValue",
          "type": "uint256"
        }
      ],
      "name": "decreaseAllowance",
      "outputs": [
        {
          "internalType": "bool",
          "name": "",
          "type": "bool"
        }
      ],
      "stateMutability": "nonpayable",
      "type": "function"
    },
    {
      "inputs": [
        {
          "internalType": "address",
          "name": "spender",
          "type": "address"
        },
        {
          "internalType": "uint256",
          "name": "addedValue",
          "type": "uint256"
        }
      ],
      "name": "increaseAllowance",
      "outputs": [
        {
          "internalType": "bool",
          "name": "",
          "type": "bool"
        }
      ],
      "stateMutability": "nonpayable",
      "type": "function"
    },
    {
      "inputs": [
        {
          "internalType": "address",
          "name": "to",
          "type": "address"
        },
        {
          "internalType": "uint256",
          "name": "amount",
          "type": "uint256"
        }
      ],
      "name": "mint",
      "outputs": [],
      "stateMutability": "nonpayable",
      "type": "function"
    },
    {
      "inputs": [],
      "name": "name",
      "outputs": [
        {
          "internalType": "string",
          "name": "",
          "type": "string"
        }
      ],
      "stateMutability": "view",
      "type": "function"
    },
    {
      "inputs": [
        {
          "internalType": "address",
          "name": "",
          "type": "address"
        }
      ],
      "name": "nonces",
      "outputs": [
        {
          "internalType": "uint256",
          "name": "",
          "type": "uint256"
        }
      ],
      "stateMutability": "view",
      "type": "function"
    },
    {
      "inputs": [
        {
          "internalType": "address",
          "name": "owner",
          "type": "address"
        },
        {
          "internalType": "address",
          "name": "spender",
          "type": "address"
        },
        {
          "internalType": "uint256",
          "name": "value",
          "type": "uint256"
        },
        {
          "internalType": "uint256",
          "name": "deadline",
          "type": "uint256"
        },
        {
          "internalType": "uint8",
          "name": "v",
          "type": "uint8"
        },
        {
          "internalType": "bytes32",
          "name": "r",
          "type": "bytes32"
        },
        {
          "internalType": "bytes32",
          "name": "s",
          "type": "bytes32"
        }
      ],
      "name": "permit",
      "outputs": [],
      "stateMutability": "nonpayable",
      "type": "function"
    },
    {
      "inputs": [],
      "name": "symbol",
      "outputs": [
        {
          "internalType": "string",
          "name": "",
          "type": "string"
        }
      ],
      "stateMutability": "view",
      "type": "function"
    },
    {
      "inputs": [],
      "name": "totalSupply",
      "outputs": [
        {
          "internalType": "uint256",
          "name": "",
          "type": "uint256"
        }
      ],
      "stateMutability": "view",
      "type": "function"
    },
    {
      "inputs": [
        {
          "internalType": "address",
          "name": "to",
          "type": "address"
        },
        {
          "internalType": "uint256",
          "name": "value",
          "type": "uint256"
        }
      ],
      "name": "transfer",
      "outputs": [
        {
          "internalType": "bool",
          "name": "",
          "type": "bool"
        }
      ],
      "stateMutability": "nonpayable",
      "type": "function"
    },
    {
      "inputs": [
        {
          "internalType": "address",
          "name": "from",
          "type": "address"
        },
        {
          "internalType": "address",
          "name": "to",
          "type": "address"
        },
        {
          "internalType": "uint256",
          "name": "value",
          "type": "uint256"
        }
      ],
      "name": "transferFrom",
      "outputs": [
        {
          "internalType": "bool",
          "name": "",
          "type": "bool"
        }
      ],
      "stateMutability": "nonpayable",
      "type": "function"
    }
  ],
  "bytecode": {
    "object": "0x60806040523480156200001157600080fd5b50604051806040016040528060048152602001635553444360e01b815250604051806040016040528060038152602001621d5cd960ea1b81525081600090816200005c9190620001d2565b5060016200006b8282620001d2565b5060405146907f8b73c3c69bb8fe3d512ecc4cf759cc79239f7b179b0ffacaa9a75d522b39400f90620000a1906000906200029e565b60408051918290038220828201825260018352603160f81b6020938401528151928301939093528101919091527fc89efdaa54c0f20c7adf612882df0950f5a951637e0307cdcb4c672f298b8bc66060820152608081018290523060a082015260c00160408051601f19818403018152919052805160209091012060025550506012600355506200031c565b634e487b7160e01b600052604160045260246000fd5b600181811c908216806200015857607f821691505b6020821081036200017957634e487b7160e01b600052602260045260246000fd5b50919050565b601f821115620001cd57600081815260208120601f850160051c81016020861015620001a85750805b601f850160051c820191505b81811015620001c957828155600101620001b4565b5050505b505050565b81516001600160401b03811115620001ee57620001ee6200012d565b6200020681620001ff845462000143565b846200017f565b602080601f8311600181146200023e5760008415620002255750858301515b600019600386901b1c1916600185901b178555620001c9565b600085815260208120601f198616915b828110156200026f578886015182559484019460019091019084016200024e565b50858210156200028e5787850151600019600388901b60f8161c191681555b5050505050600190811b01905550565b6000808354620002ae8162000143565b60018281168015620002c95760018114620002df5762000310565b60ff198416875282151583028701945062000310565b8760005260208060002060005b85811015620003075781548a820152908401908201620002ec565b50505082870194505b50929695505050505050565b610adc806200032c6000396000f3fe608060405234801561001057600080fd5b50600436106101005760003560e01c806340c10f1911610097578063a457c2d711610066578063a457c2d714610219578063a9059cbb1461022c578063d505accf1461023f578063dd62ed3e1461025257600080fd5b806340c10f19146101bc57806370a08231146101d15780637ecebe00146101f157806395d89b411461021157600080fd5b806330adf81f116100d357806330adf81f14610170578063313ce567146101975780633644e515146101a057806339509351146101a957600080fd5b806306fdde0314610105578063095ea7b31461012357806318160ddd1461014657806323b872dd1461015d575b600080fd5b61010d61027d565b60405161011a9190610861565b60405180910390f35b6101366101313660046108cb565b61030b565b604051901515815260200161011a565b61014f60045481565b60405190815260200161011a565b61013661016b3660046108f5565b610322565b61014f7f6e71edae12b1b97f4d1f60370fef10105fa2faae0126114a169c64845d6126c981565b61014f60035481565b61014f60025481565b6101366101b73660046108cb565b6103b6565b6101cf6101ca3660046108cb565b6103f1565b005b61014f6101df366004610931565b60056020526000908152604090205481565b61014f6101ff366004610931565b60076020526000908152604090205481565b61010d6103ff565b6101366102273660046108cb565b61040c565b61013661023a3660046108cb565b61045b565b6101cf61024d36600461094c565b610468565b61014f6102603660046109bf565b600660209081526000928352604080842090915290825290205481565b6000805461028a906109f2565b80601f01602080910402602001604051908101604052809291908181526020018280546102b6906109f2565b80156103035780601f106102d857610100808354040283529160200191610303565b820191906000526020600020905b8154815290600101906020018083116102e657829003601f168201915b505050505081565b600061031833848461067e565b5060015b92915050565b6001600160a01b0383166000908152600660209081526040808320338452909152812054600019146103a1576001600160a01b038416600090815260066020908152604080832033845290915290205461037c90836106e0565b6001600160a01b03851660009081526006602090815260408083203384529091529020555b6103ac8484846106f3565b5060019392505050565b3360008181526006602090815260408083206001600160a01b038716845290915281205490916103189185906103ec9086610799565b61067e565b6103fb82826107a5565b5050565b6001805461028a906109f2565b600061031833846103ec85604051806060016040528060258152602001610a82602591393360009081526006602090815260408083206001600160a01b038d1684529091529020549190610835565b60006103183384846106f3565b428410156104af5760405162461bcd60e51b815260206004820152600f60248201526e109c9a5919d94e8811561412549151608a1b60448201526064015b60405180910390fd5b6002546001600160a01b038816600090815260076020526040812080549192917f6e71edae12b1b97f4d1f60370fef10105fa2faae0126114a169c64845d6126c9918b918b918b91908761050283610a42565b909155506040805160208101969096526001600160a01b0394851690860152929091166060840152608083015260a082015260c0810187905260e0016040516020818303038152906040528051906020012060405160200161057b92919061190160f01b81526002810192909252602282015260420190565b60408051601f198184030181528282528051602091820120600080855291840180845281905260ff88169284019290925260608301869052608083018590529092509060019060a0016020604051602081039080840390855afa1580156105e6573d6000803e3d6000fd5b5050604051601f1901519150506001600160a01b0381161580159061061c5750886001600160a01b0316816001600160a01b0316145b6106685760405162461bcd60e51b815260206004820152601960248201527f4272696467653a20494e56414c49445f5349474e41545552450000000000000060448201526064016104a6565b61067389898961067e565b505050505050505050565b6001600160a01b0383811660008181526006602090815260408083209487168084529482529182902085905590518481527f8c5be1e5ebec7d5bd14f71427d1e84f3dd0314c0f7b2291e5b200ac8c7c3b92591015b60405180910390a3505050565b60006106ec8284610a5b565b9392505050565b6001600160a01b03831660009081526005602052604090205461071690826106e0565b6001600160a01b0380851660009081526005602052604080822093909355908416815220546107459082610799565b6001600160a01b0380841660008181526005602052604090819020939093559151908516907fddf252ad1be2c89b69c2b068fc378daa952ba7f163c4a11628f55a4df523b3ef906106d39085815260200190565b60006106ec8284610a6e565b6004546107b29082610799565b6004556001600160a01b0382166000908152600560205260409020546107d89082610799565b6001600160a01b0383166000818152600560205260408082209390935591519091907fddf252ad1be2c89b69c2b068fc378daa952ba7f163c4a11628f55a4df523b3ef906108299085815260200190565b60405180910390a35050565b600081848411156108595760405162461bcd60e51b81526004016104a69190610861565b505050900390565b600060208083528351808285015260005b8181101561088e57858101830151858201604001528201610872565b506000604082860101526040601f19601f8301168501019250505092915050565b80356001600160a01b03811681146108c657600080fd5b919050565b600080604083850312156108de57600080fd5b6108e7836108af565b946020939093013593505050565b60008060006060848603121561090a57600080fd5b610913846108af565b9250610921602085016108af565b9150604084013590509250925092565b60006020828403121561094357600080fd5b6106ec826108af565b600080600080600080600060e0888a03121561096757600080fd5b610970886108af565b965061097e602089016108af565b95506040880135945060608801359350608088013560ff811681146109a257600080fd5b9699959850939692959460a0840135945060c09093013592915050565b600080604083850312156109d257600080fd5b6109db836108af565b91506109e9602084016108af565b90509250929050565b600181811c90821680610a0657607f821691505b602082108103610a2657634e487b7160e01b600052602260045260246000fd5b50919050565b634e487b7160e01b600052601160045260246000fd5b600060018201610a5457610a54610a2c565b5060010190565b8181038181111561031c5761031c610a2c565b8082018082111561031c5761031c610a2c56fe45524332303a2064656372656173656420616c6c6f77616e63652062656c6f77207a65726fa2646970667358221220882eed3bff6dad1855e862a14f842e4aefa818560fd0720b8a691a1c2071270464736f6c63430008110033",
    "linkReferences": {}
  },
  "methodIdentifiers": {
    "DOMAIN_SEPARATOR()": "3644e515",
    "PERMIT_TYPEHASH()": "30adf81f",
    "allowance(address,address)": "dd62ed3e",
    "approve(address,uint256)": "095ea7b3",
    "balanceOf(address)": "70a08231",
    "decimals()": "313ce567",
    "decreaseAllowance(address,uint256)": "a457c2d7",
    "increaseAllowance(address,uint256)": "39509351",
    "mint(address,uint256)": "40c10f19",
    "name()": "06fdde03",
    "nonces(address)": "7ecebe00",
    "permit(address,address,uint256,uint256,uint8,bytes32,bytes32)": "d505accf",
    "symbol()": "95d89b41",
    "totalSupply()": "18160ddd",
    "transfer(address,uint256)": "a9059cbb",
    "transferFrom(address,address,uint256)": "23b872dd"
  },
  "id": 44
}