{
  "abi": [
    {
      "inputs": [],
      "stateMutability": "nonpayable",
      "type": "constructor"
    },
    {
      "anonymous": false,
      "inputs": [
        {
          "indexed": true,
          "internalType": "address",
          "name": "owner",
          "type": "address"
        },
        {
          "indexed": true,
          "internalType": "address",
          "name": "spender",
          "type": "address"
        },
        {
          "indexed": false,
          "internalType": "uint256",
          "name": "value",
          "type": "uint256"
        }
      ],
      "name": "Approval",
      "type": "event"
    },
    {
      "anonymous": false,
      "inputs": [
        {
          "indexed": true,
          "internalType": "address",
          "name": "from",
          "type": "address"
        },
        {
          "indexed": true,
          "internalType": "address",
          "name": "to",
          "type": "address"
        },
        {
          "indexed": false,
          "internalType": "uint256",
          "name": "value",
          "type": "uint256"
        }
      ],
      "name": "Transfer",
      "type": "event"
    },
    {
      "inputs": [],
      "name": "DOMAIN_SEPARATOR",
      "outputs": [
        {
          "internalType": "bytes32",
          "name": "",
          "type": "bytes32"
        }
      ],
      "stateMutability": "view",
      "type": "function"
    },
    {
      "inputs": [],
      "name": "PERMIT_TYPEHASH",
      "outputs": [
        {
          "internalType": "bytes32",
          "name": "",
          "type": "bytes32"
        }
      ],
      "stateMutability": "view",
      "type": "function"
    },
    {
      "inputs": [
        {
          "internalType": "address",
          "name": "",
          "type": "address"
        },
        {
          "internalType": "address",
          "name": "",
          "type": "address"
        }
      ],
      "name": "allowance",
      "outputs": [
        {
          "internalType": "uint256",
          "name": "",
          "type": "uint256"
        }
      ],
      "stateMutability": "view",
      "type": "function"
    },
    {
      "inputs": [
        {
          "internalType": "address",
          "name": "spender",
          "type": "address"
        },
        {
          "internalType": "uint256",
          "name": "value",
          "type": "uint256"
        }
      ],
      "name": "approve",
      "outputs": [
        {
          "internalType": "bool",
          "name": "",
          "type": "bool"
        }
      ],
      "stateMutability": "nonpayable",
      "type": "function"
    },
    {
      "inputs": [
        {
          "internalType": "address",
          "name": "",
          "type": "address"
        }
      ],
      "name": "balanceOf",
      "outputs": [
        {
          "internalType": "uint256",
          "name": "",
          "type": "uint256"
        }
      ],
      "stateMutability": "view",
      "type": "function"
    },
    {
      "inputs": [],
      "name": "decimals",
      "outputs": [
        {
          "internalType": "uint256",
          "name": "",
          "type": "uint256"
        }
      ],
      "stateMutability": "view",
      "type": "function"
    },
    {
      "inputs": [
        {
          "internalType": "address",
          "name": "spender",
          "type": "address"
        },
        {
          "internalType": "uint256",
          "name": "subtractedValue",
          "type": "uint256"
        }
      ],
      "name": "decreaseAllowance",
      "outputs": [
        {
          "internalType": "bool",
          "name": "",
          "type": "bool"
        }
      ],
      "stateMutability": "nonpayable",
      "type": "function"
    },
    {
      "inputs": [
        {
          "internalType": "address",
          "name": "spender",
          "type": "address"
        },
        {
          "internalType": "uint256",
          "name": "addedValue",
          "type": "uint256"
        }
      ],
      "name": "increaseAllowance",
      "outputs": [
        {
          "internalType": "bool",
          "name": "",
          "type": "bool"
        }
      ],
      "stateMutability": "nonpayable",
      "type": "function"
    },
    {
      "inputs": [
        {
          "internalType": "address",
          "name": "to",
          "type": "address"
        },
        {
          "internalType": "uint256",
          "name": "amount",
          "type": "uint256"
        }
      ],
      "name": "mint",
      "outputs": [],
      "stateMutability": "nonpayable",
      "type": "function"
    },
    {
      "inputs": [],
      "name": "name",
      "outputs": [
        {
          "internalType": "string",
          "name": "",
          "type": "string"
        }
      ],
      "stateMutability": "view",
      "type": "function"
    },
    {
      "inputs": [
        {
          "internalType": "address",
          "name": "",
          "type": "address"
        }
      ],
      "name": "nonces",
      "outputs": [
        {
          "internalType": "uint256",
          "name": "",
          "type": "uint256"
        }
      ],
      "stateMutability": "view",
      "type": "function"
    },
    {
      "inputs": [
        {
          "internalType": "address",
          "name": "owner",
          "type": "address"
        },
        {
          "internalType": "address",
          "name": "spender",
          "type": "address"
        },
        {
          "internalType": "uint256",
          "name": "value",
          "type": "uint256"
        },
        {
          "internalType": "uint256",
          "name": "deadline",
          "type": "uint256"
        },
        {
          "internalType": "uint8",
          "name": "v",
          "type": "uint8"
        },
        {
          "internalType": "bytes32",
          "name": "r",
          "type": "bytes32"
        },
        {
          "internalType": "bytes32",
          "name": "s",
          "type": "bytes32"
        }
      ],
      "name": "permit",
      "outputs": [],
      "stateMutability": "nonpayable",
      "type": "function"
    },
    {
      "inputs": [],
      "name": "symbol",
      "outputs": [
        {
          "internalType": "string",
          "name": "",
          "type": "string"
        }
      ],
      "stateMutability": "view",
      "type": "function"
    },
    {
      "inputs": [],
      "name": "totalSupply",
      "outputs": [
        {
          "internalType": "uint256",
          "name": "",
          "type": "uint256"
        }
      ],
      "stateMutability": "view",
      "type": "function"
    },
    {
      "inputs": [
        {
          "internalType": "address",
          "name": "to",
          "type": "address"
        },
        {
          "internalType": "uint256",
          "name": "value",
          "type": "uint256"
        }
      ],
      "name": "transfer",
      "outputs": [
        {
          "internalType": "bool",
          "name": "",
          "type": "bool"
        }
      ],
      "stateMutability": "nonpayable",
      "type": "function"
    },
    {
      "inputs": [
        {
          "internalType": "address",
          "name": "from",
          "type": "address"
        },
        {
          "internalType": "address",
          "name": "to",
          "type": "address"
        },
        {
          "internalType": "uint256",
          "name": "value",
          "type": "uint256"
        }
      ],
      "name": "transferFrom",
      "outputs": [
        {
          "internalType": "bool",
          "name": "",
          "type": "bool"
        }
      ],
      "stateMutability": "nonpayable",
      "type": "function"
    }
  ],
  "bytecode": {
    "object": "0x608060409080825234620003f7576200001881620003fc565b600481526020635553444360e01b818301528251916200003883620003fc565b6003808452621d5cd960ea1b8484015281516001600160401b0394919391858211620003e157600091806200006e845462000418565b95601f9687811162000390575b508590878311600114620003295785926200031d575b50508160011b9160001990881b1c19161782555b8051868111620003095780600192620000bf845462000418565b878111620002b6575b5085908783116001146200025357859262000247575b505060001982881b1c191690821b1781555b86519382835491620001028362000418565b808852868801938786821691826000146200022c575050600114620001f0575b5086601f199203011685019480861088871117620001dc578589525190209383906200014e81620003fc565b82815201603160f81b8152208651928301937f8b73c3c69bb8fe3d512ecc4cf759cc79239f7b179b0ffacaa9a75d522b39400f85528784015260608301524660808301523060a083015260a0825260c082019482861090861117620001c8575083601294955251902060025555610b069081620004568239f35b634e487b7160e01b81526041600452602490fd5b634e487b7160e01b84526041600452602484fd5b86919250858052818620908587925b8284106200021557505050870101903862000122565b8054848c01860152899490930192879101620001ff565b915092935060ff19168452151560051b870101903862000122565b015190503880620000de565b8486528686208594509190601f198416875b898282106200029f575050841162000286575b505050811b018155620000f0565b0151600019838a1b60f8161c1916905538808062000278565b838501518655889790950194938401930162000265565b9091508385528585208780850160051c820192888610620002ff575b918691869594930160051c01915b828110620002f0575050620000c8565b878155859450869101620002e0565b92508192620002d2565b634e487b7160e01b83526041600452602483fd5b01519050388062000091565b8580528686209250601f198416865b888282106200037957505090846001959493921062000360575b505050811b018255620000a5565b0151600019838a1b60f8161c1916905538808062000352565b600185968293968601518155019501930162000338565b9091508480528585208780850160051c820192888610620003d7575b9085949392910160051c01905b818110620003c857506200007b565b868155849350600101620003b9565b92508192620003ac565b634e487b7160e01b600052604160045260246000fd5b600080fd5b604081019081106001600160401b03821117620003e157604052565b90600182811c921680156200044a575b60208310146200043457565b634e487b7160e01b600052602260045260246000fd5b91607f16916200042856fe608060408181526004918236101561001657600080fd5b600092833560e01c91826306fdde031461085f57508163095ea7b31461083557816318160ddd1461081757816323b872dd1461076657816330adf81f1461072b578163313ce5671461070c5781633644e515146106ed578163395093511461068657816340c10f19146105d657816370a082311461059e5781637ecebe001461056657816395d89b4114610462578163a457c2d714610387578163a9059cbb14610356578163d505accf14610120575063dd62ed3e146100d557600080fd5b3461011c578060031936011261011c57806020926100f161099d565b6100f96109b8565b6001600160a01b0391821683526006865283832091168252845220549051908152f35b5080fd5b8391503461011c5760e036600319011261011c5761013c61099d565b6101446109b8565b906044359260643560843560ff81168091036103525742821061031d576002546001600160a01b03858116808a5260076020528a8a208054919592949193919290600019851461030a57908493929160018e960190558451938760208601967f6e71edae12b1b97f4d1f60370fef10105fa2faae0126114a169c64845d6126c98852860152868b1660608601528b608086015260a085015260c084015260c0835260e0830167ffffffffffffffff94848210868311176102f757818e528451902061010085019261190160f01b845261010286015261012285015260428152610160840194818610908611176102e457848d52519020835261018082015260a4356101a082015260c4356101c090910152878052602090889060809060015afa156102da578651169081151591826102d0575b50501561028d575061028a9394506109ce565b80f35b606490602087519162461bcd60e51b8352820152601960248201527f4272696467653a20494e56414c49445f5349474e4154555245000000000000006044820152fd5b1490508780610277565b87513d88823e3d90fd5b634e487b7160e01b8c526041885260248cfd5b634e487b7160e01b8d526041895260248dfd5b634e487b7160e01b8c526011885260248cfd5b875162461bcd60e51b8152602081850152600f60248201526e109c9a5919d94e8811561412549151608a1b6044820152606490fd5b8680fd5b50503461011c578060031936011261011c5760209061038061037661099d565b6024359033610a25565b5160018152f35b82843461045f578160031936011261045f576103a161099d565b9260243591338152600660205283812060018060a01b03861682526020528381205491845191606083019083821067ffffffffffffffff83111761044c57508552602582527f45524332303a2064656372656173656420616c6c6f77616e63652062656c6f77602083015264207a65726f60d81b858301528284116104305760208561038086860389336109ce565b610448855192839262461bcd60e51b84528301610954565b0390fd5b634e487b7160e01b815260418352602490fd5b80fd5b9190503461056257826003193601126105625780519183600180549182821c928281168015610558575b6020958686108214610545575084885290811561052357506001146104cb575b6104c786866104bd828b038361091c565b5191829182610954565b0390f35b9295508083527fb10e2d527612073b26eecdfd717e6a320cf44b4afac2b0732d9fcbe2b7fa0cf65b82841061051057505050826104c7946104bd9282010194386104ac565b80548685018801529286019281016104f3565b60ff191687860152505050151560051b83010192506104bd826104c7386104ac565b634e487b7160e01b845260229052602483fd5b93607f169361048c565b8280fd5b50503461011c57602036600319011261011c5760209181906001600160a01b0361058e61099d565b1681526007845220549051908152f35b50503461011c57602036600319011261011c5760209181906001600160a01b036105c661099d565b1681526005845220549051908152f35b919050346105625780600319360112610562576105f161099d565b906024359183548381018091116106735784556001600160a01b03168085526005602052818520549093838201918210610660575084927fddf252ad1be2c89b69c2b068fc378daa952ba7f163c4a11628f55a4df523b3ef92602092868652600584528186205551908152a380f35b634e487b7160e01b865260119052602485fd5b634e487b7160e01b865260118552602486fd5b82843461045f578160031936011261045f576106a061099d565b338252600660209081528383206001600160a01b03831684529052828220546024358101929083106106da576020846103808585336109ce565b634e487b7160e01b815260118552602490fd5b50503461011c578160031936011261011c576020906002549051908152f35b50503461011c578160031936011261011c576020906003549051908152f35b50503461011c578160031936011261011c57602090517f6e71edae12b1b97f4d1f60370fef10105fa2faae0126114a169c64845d6126c98152f35b83833461011c57606036600319011261011c5761078161099d565b6107896109b8565b6001600160a01b0382168085526006602090815284862033875281528486205490956044359492916001016107c6575b5050906103809291610a25565b8181526006875285812033825287528581205491858303928311610804578152600687528581203382528752859020559394508493610380876107b9565b634e487b7160e01b825260118952602482fd5b90503461056257826003193601126105625760209250549051908152f35b50503461011c578060031936011261011c5760209061038061085561099d565b60243590336109ce565b929150346109185783600319360112610918578354600181811c918690828116801561090e575b6020958686108214610545575084885290811561052357506001146108b6576104c786866104bd828b038361091c565b8080949750527f290decd9548b62a8d60345a988386fc84ba6bc95484008f6362f93160ef3e5635b8284106108fb57505050826104c7946104bd9282010194386104ac565b80548685018801529286019281016108de565b93607f1693610886565b8380fd5b90601f8019910116810190811067ffffffffffffffff82111761093e57604052565b634e487b7160e01b600052604160045260246000fd5b6020808252825181830181905290939260005b82811061098957505060409293506000838284010152601f8019910116010190565b818101860151848201604001528501610967565b600435906001600160a01b03821682036109b357565b600080fd5b602435906001600160a01b03821682036109b357565b909160207f8c5be1e5ebec7d5bd14f71427d1e84f3dd0314c0f7b2291e5b200ac8c7c3b9259160018060a01b03809416938460005260068352604060002095169485600052825280604060002055604051908152a3565b909160018060a01b038092169160009383855260056020526040852054838103908111610abc57848652600560205260408620551692838152604081205490828201809211610aa85791602091604084877fddf252ad1be2c89b69c2b068fc378daa952ba7f163c4a11628f55a4df523b3ef9652600585522055604051908152a3565b634e487b7160e01b81526011600452602490fd5b634e487b7160e01b86526011600452602486fdfea2646970667358221220713d23aff97a3fe84d25ccb9701f217d22480ed77663972ded5bf1e58b7fa98d64736f6c63430008110033",
    "linkReferences": {}
  },
  "methodIdentifiers": {
    "DOMAIN_SEPARATOR()": "3644e515",
    "PERMIT_TYPEHASH()": "30adf81f",
    "allowance(address,address)": "dd62ed3e",
    "approve(address,uint256)": "095ea7b3",
    "balanceOf(address)": "70a08231",
    "decimals()": "313ce567",
    "decreaseAllowance(address,uint256)": "a457c2d7",
    "increaseAllowance(address,uint256)": "39509351",
    "mint(address,uint256)": "40c10f19",
    "name()": "06fdde03",
    "nonces(address)": "7ecebe00",
    "permit(address,address,uint256,uint256,uint8,bytes32,bytes32)": "d505accf",
    "symbol()": "95d89b41",
    "totalSupply()": "18160ddd",
    "transfer(address,uint256)": "a9059cbb",
    "transferFrom(address,address,uint256)": "23b872dd"
  },
  "id": 86
}