{
  "abi": [
    {
      "inputs": [
        {
          "internalType": "address",
          "name": "_layerZeroEndpoint",
          "type": "address"
        },
        {
          "internalType": "address",
          "name": "_router",
          "type": "address"
        }
      ],
      "stateMutability": "nonpayable",
      "type": "constructor"
    },
    {
      "anonymous": false,
      "inputs": [
        {
          "indexed": true,
          "internalType": "address",
          "name": "previousOwner",
          "type": "address"
        },
        {
          "indexed": true,
          "internalType": "address",
          "name": "newOwner",
          "type": "address"
        }
      ],
      "name": "OwnershipTransferred",
      "type": "event"
    },
    {
      "anonymous": false,
      "inputs": [
        {
          "indexed": false,
          "internalType": "uint8",
          "name": "msgType",
          "type": "uint8"
        },
        {
          "indexed": false,
          "internalType": "uint64",
          "name": "nonce",
          "type": "uint64"
        }
      ],
      "name": "SendMsg",
      "type": "event"
    },
    {
      "inputs": [
        {
          "internalType": "address",
          "name": "token",
          "type": "address"
        },
        {
          "internalType": "address",
          "name": "spender",
          "type": "address"
        },
        {
          "internalType": "uint256",
          "name": "amount",
          "type": "uint256"
        }
      ],
      "name": "approveTokenSpender",
      "outputs": [],
      "stateMutability": "nonpayable",
      "type": "function"
    },
    {
      "inputs": [
        {
          "internalType": "uint16",
          "name": "",
          "type": "uint16"
        }
      ],
      "name": "bridgeLookup",
      "outputs": [
        {
          "internalType": "bytes",
          "name": "",
          "type": "bytes"
        }
      ],
      "stateMutability": "view",
      "type": "function"
    },
    {
      "inputs": [
        {
          "internalType": "uint16",
          "name": "_srcChainId",
          "type": "uint16"
        },
        {
          "internalType": "bytes",
          "name": "_srcAddress",
          "type": "bytes"
        }
      ],
      "name": "forceResumeReceive",
      "outputs": [],
      "stateMutability": "nonpayable",
      "type": "function"
    },
    {
      "inputs": [
        {
          "internalType": "uint16",
          "name": "",
          "type": "uint16"
        },
        {
          "internalType": "uint8",
          "name": "",
          "type": "uint8"
        }
      ],
      "name": "gasLookup",
      "outputs": [
        {
          "internalType": "uint256",
          "name": "",
          "type": "uint256"
        }
      ],
      "stateMutability": "view",
      "type": "function"
    },
    {
      "inputs": [],
      "name": "layerZeroEndpoint",
      "outputs": [
        {
          "internalType": "contract ILayerZeroEndpoint",
          "name": "",
          "type": "address"
        }
      ],
      "stateMutability": "view",
      "type": "function"
    },
    {
      "inputs": [
        {
          "internalType": "uint16",
          "name": "_srcChainId",
          "type": "uint16"
        },
        {
          "internalType": "bytes",
          "name": "_srcAddress",
          "type": "bytes"
        },
        {
          "internalType": "uint64",
          "name": "_nonce",
          "type": "uint64"
        },
        {
          "internalType": "bytes",
          "name": "_payload",
          "type": "bytes"
        }
      ],
      "name": "lzReceive",
      "outputs": [],
      "stateMutability": "nonpayable",
      "type": "function"
    },
    {
      "inputs": [],
      "name": "owner",
      "outputs": [
        {
          "internalType": "address",
          "name": "",
          "type": "address"
        }
      ],
      "stateMutability": "view",
      "type": "function"
    },
    {
      "inputs": [
        {
          "internalType": "uint16",
          "name": "_chainId",
          "type": "uint16"
        },
        {
          "internalType": "uint8",
          "name": "_functionType",
          "type": "uint8"
        },
        {
          "internalType": "bytes",
          "name": "_toAddress",
          "type": "bytes"
        },
        {
          "internalType": "bytes",
          "name": "_transferAndCallPayload",
          "type": "bytes"
        },
        {
          "components": [
            {
              "internalType": "uint256",
              "name": "dstGasForCall",
              "type": "uint256"
            },
            {
              "internalType": "uint256",
              "name": "dstNativeAmount",
              "type": "uint256"
            },
            {
              "internalType": "bytes",
              "name": "dstNativeAddr",
              "type": "bytes"
            }
          ],
          "internalType": "struct IStargateRouter.lzTxObj",
          "name": "_lzTxParams",
          "type": "tuple"
        }
      ],
      "name": "quoteLayerZeroFee",
      "outputs": [
        {
          "internalType": "uint256",
          "name": "",
          "type": "uint256"
        },
        {
          "internalType": "uint256",
          "name": "",
          "type": "uint256"
        }
      ],
      "stateMutability": "view",
      "type": "function"
    },
    {
      "inputs": [
        {
          "internalType": "uint16",
          "name": "_chainId",
          "type": "uint16"
        },
        {
          "internalType": "uint256",
          "name": "_srcPoolId",
          "type": "uint256"
        },
        {
          "internalType": "uint256",
          "name": "_dstPoolId",
          "type": "uint256"
        },
        {
          "internalType": "address payable",
          "name": "_refundAddress",
          "type": "address"
        },
        {
          "components": [
            {
              "internalType": "uint256",
              "name": "credits",
              "type": "uint256"
            },
            {
              "internalType": "uint256",
              "name": "idealBalance",
              "type": "uint256"
            }
          ],
          "internalType": "struct Pool.CreditObj",
          "name": "_c",
          "type": "tuple"
        },
        {
          "internalType": "uint256",
          "name": "_amountSD",
          "type": "uint256"
        },
        {
          "internalType": "bytes",
          "name": "_to",
          "type": "bytes"
        },
        {
          "components": [
            {
              "internalType": "uint256",
              "name": "dstGasForCall",
              "type": "uint256"
            },
            {
              "internalType": "uint256",
              "name": "dstNativeAmount",
              "type": "uint256"
            },
            {
              "internalType": "bytes",
              "name": "dstNativeAddr",
              "type": "bytes"
            }
          ],
          "internalType": "struct IStargateRouter.lzTxObj",
          "name": "_lzTxParams",
          "type": "tuple"
        }
      ],
      "name": "redeemLocal",
      "outputs": [],
      "stateMutability": "payable",
      "type": "function"
    },
    {
      "inputs": [
        {
          "internalType": "uint16",
          "name": "_chainId",
          "type": "uint16"
        },
        {
          "internalType": "address payable",
          "name": "_refundAddress",
          "type": "address"
        },
        {
          "components": [
            {
              "internalType": "uint256",
              "name": "credits",
              "type": "uint256"
            },
            {
              "internalType": "uint256",
              "name": "idealBalance",
              "type": "uint256"
            }
          ],
          "internalType": "struct Pool.CreditObj",
          "name": "_c",
          "type": "tuple"
        },
        {
          "components": [
            {
              "internalType": "uint256",
              "name": "dstGasForCall",
              "type": "uint256"
            },
            {
              "internalType": "uint256",
              "name": "dstNativeAmount",
              "type": "uint256"
            },
            {
              "internalType": "bytes",
              "name": "dstNativeAddr",
              "type": "bytes"
            }
          ],
          "internalType": "struct IStargateRouter.lzTxObj",
          "name": "_lzTxParams",
          "type": "tuple"
        },
        {
          "internalType": "bytes",
          "name": "_payload",
          "type": "bytes"
        }
      ],
      "name": "redeemLocalCallback",
      "outputs": [],
      "stateMutability": "payable",
      "type": "function"
    },
    {
      "inputs": [],
      "name": "renounceOwnership",
      "outputs": [],
      "stateMutability": "nonpayable",
      "type": "function"
    },
    {
      "inputs": [],
      "name": "router",
      "outputs": [
        {
          "internalType": "contract Router",
          "name": "",
          "type": "address"
        }
      ],
      "stateMutability": "view",
      "type": "function"
    },
    {
      "inputs": [
        {
          "internalType": "uint16",
          "name": "_chainId",
          "type": "uint16"
        },
        {
          "internalType": "uint256",
          "name": "_srcPoolId",
          "type": "uint256"
        },
        {
          "internalType": "uint256",
          "name": "_dstPoolId",
          "type": "uint256"
        },
        {
          "internalType": "address payable",
          "name": "_refundAddress",
          "type": "address"
        },
        {
          "components": [
            {
              "internalType": "uint256",
              "name": "credits",
              "type": "uint256"
            },
            {
              "internalType": "uint256",
              "name": "idealBalance",
              "type": "uint256"
            }
          ],
          "internalType": "struct Pool.CreditObj",
          "name": "_c",
          "type": "tuple"
        }
      ],
      "name": "sendCredits",
      "outputs": [],
      "stateMutability": "payable",
      "type": "function"
    },
    {
      "inputs": [
        {
          "internalType": "uint16",
          "name": "_chainId",
          "type": "uint16"
        },
        {
          "internalType": "bytes",
          "name": "_bridgeAddress",
          "type": "bytes"
        }
      ],
      "name": "setBridge",
      "outputs": [],
      "stateMutability": "nonpayable",
      "type": "function"
    },
    {
      "inputs": [
        {
          "internalType": "uint16",
          "name": "_version",
          "type": "uint16"
        },
        {
          "internalType": "uint16",
          "name": "_chainId",
          "type": "uint16"
        },
        {
          "internalType": "uint256",
          "name": "_configType",
          "type": "uint256"
        },
        {
          "internalType": "bytes",
          "name": "_config",
          "type": "bytes"
        }
      ],
      "name": "setConfig",
      "outputs": [],
      "stateMutability": "nonpayable",
      "type": "function"
    },
    {
      "inputs": [
        {
          "internalType": "uint16",
          "name": "_chainId",
          "type": "uint16"
        },
        {
          "internalType": "uint8",
          "name": "_functionType",
          "type": "uint8"
        },
        {
          "internalType": "uint256",
          "name": "_gasAmount",
          "type": "uint256"
        }
      ],
      "name": "setGasAmount",
      "outputs": [],
      "stateMutability": "nonpayable",
      "type": "function"
    },
    {
      "inputs": [
        {
          "internalType": "uint16",
          "name": "version",
          "type": "uint16"
        }
      ],
      "name": "setReceiveVersion",
      "outputs": [],
      "stateMutability": "nonpayable",
      "type": "function"
    },
    {
      "inputs": [
        {
          "internalType": "uint16",
          "name": "version",
          "type": "uint16"
        }
      ],
      "name": "setSendVersion",
      "outputs": [],
      "stateMutability": "nonpayable",
      "type": "function"
    },
    {
      "inputs": [
        {
          "internalType": "bool",
          "name": "enable",
          "type": "bool"
        }
      ],
      "name": "setUseLayerZeroToken",
      "outputs": [],
      "stateMutability": "nonpayable",
      "type": "function"
    },
    {
      "inputs": [
        {
          "internalType": "uint16",
          "name": "_chainId",
          "type": "uint16"
        },
        {
          "internalType": "uint256",
          "name": "_srcPoolId",
          "type": "uint256"
        },
        {
          "internalType": "uint256",
          "name": "_dstPoolId",
          "type": "uint256"
        },
        {
          "internalType": "address payable",
          "name": "_refundAddress",
          "type": "address"
        },
        {
          "components": [
            {
              "internalType": "uint256",
              "name": "credits",
              "type": "uint256"
            },
            {
              "internalType": "uint256",
              "name": "idealBalance",
              "type": "uint256"
            }
          ],
          "internalType": "struct Pool.CreditObj",
          "name": "_c",
          "type": "tuple"
        },
        {
          "components": [
            {
              "internalType": "uint256",
              "name": "amount",
              "type": "uint256"
            },
            {
              "internalType": "uint256",
              "name": "eqFee",
              "type": "uint256"
            },
            {
              "internalType": "uint256",
              "name": "eqReward",
              "type": "uint256"
            },
            {
              "internalType": "uint256",
              "name": "lpFee",
              "type": "uint256"
            },
            {
              "internalType": "uint256",
              "name": "protocolFee",
              "type": "uint256"
            },
            {
              "internalType": "uint256",
              "name": "lkbRemove",
              "type": "uint256"
            }
          ],
          "internalType": "struct Pool.SwapObj",
          "name": "_s",
          "type": "tuple"
        },
        {
          "components": [
            {
              "internalType": "uint256",
              "name": "dstGasForCall",
              "type": "uint256"
            },
            {
              "internalType": "uint256",
              "name": "dstNativeAmount",
              "type": "uint256"
            },
            {
              "internalType": "bytes",
              "name": "dstNativeAddr",
              "type": "bytes"
            }
          ],
          "internalType": "struct IStargateRouter.lzTxObj",
          "name": "_lzTxParams",
          "type": "tuple"
        },
        {
          "internalType": "bytes",
          "name": "_to",
          "type": "bytes"
        },
        {
          "internalType": "bytes",
          "name": "_payload",
          "type": "bytes"
        }
      ],
      "name": "swap",
      "outputs": [],
      "stateMutability": "payable",
      "type": "function"
    },
    {
      "inputs": [
        {
          "internalType": "address",
          "name": "newOwner",
          "type": "address"
        }
      ],
      "name": "transferOwnership",
      "outputs": [],
      "stateMutability": "nonpayable",
      "type": "function"
    },
    {
      "inputs": [],
      "name": "useLayerZeroToken",
      "outputs": [
        {
          "internalType": "bool",
          "name": "",
          "type": "bool"
        }
      ],
      "stateMutability": "view",
      "type": "function"
    }
  ],
  "bytecode": {
    "object": "0x60c0346200021057601f62002c4738819003918201601f19168301916001600160401b038311848410176200021557808492604094855283398101031262000210576200005a602062000052836200022b565b92016200022b565b60008054336001600160a01b0319821681178355604051946001600160a01b03949385939192918416907f8be0079c531659141344cd1fd0a4f28419497f9722a3daafe3b4186f6b6457e09080a316928315620001bb575016908115620001765760805260a052604051612a0690816200024182396080518181816103ad015281816108b80152818161091b01528181610af901528181610cdd01528181610e7f01528181611526015281816120ba0152818161269c015281816127b401526128c7015260a05181818161043901528181610489015281816104bb0152818161050b015281816105af015281816106410152818161074801528181610c39015281816112e9015281816113c90152818161175e0152611d190152f35b60405162461bcd60e51b815260206004820152601f60248201527f53746172676174653a205f726f757465722063616e6e6f7420626520307830006044820152606490fd5b62461bcd60e51b815260206004820152602a60248201527f53746172676174653a205f6c617965725a65726f456e64706f696e742063616e60448201526906e6f74206265203078360b41b6064820152608490fd5b600080fd5b634e487b7160e01b600052604160045260246000fd5b51906001600160a01b0382168203620002105756fe60806040526004361015610013575b600080fd5b60003560e01c80621d3567146101ca57806302422054146101c157806307968db1146101b857806307e0db17146101af5780630a512369146101a657806310ddb1371461019d5780633cef94b91461019457806342d65a8d1461018b57806343b180091461018257806351156e7314610179578063715018a6146101705780638c7ae0fc146101675780638da5cb5b1461015e5780638e3b5d6a1461015557806396aae4af1461014c578063be9d40ac14610143578063c213dc2b1461013a578063cbed8b9c14610131578063d7d3c3b914610128578063f2fde38b1461011f578063f887ea40146101165763fc8691081461010e57600080fd5b61000e61178d565b5061000e611747565b5061000e61167b565b5061000e6115c2565b5061000e6114c5565b5061000e61147d565b5061000e611394565b5061000e61127c565b5061000e611232565b5061000e6110e2565b5061000e6110be565b5061000e611097565b5061000e610ff8565b5061000e610ef0565b5061000e610e53565b5061000e610bb1565b5061000e610ac5565b5061000e610a28565b5061000e6108e7565b5061000e6108a1565b5061000e61083f565b5061000e61033c565b6004359061ffff8216820361000e57565b6024359061ffff8216820361000e57565b50634e487b7160e01b600052604160045260246000fd5b6001600160401b03811161021f57604052565b6102276101f5565b604052565b604081019081106001600160401b0382111761021f57604052565b606081019081106001600160401b0382111761021f57604052565b60c081019081106001600160401b0382111761021f57604052565b90601f801991011681019081106001600160401b0382111761021f57604052565b604051906102ab8261022c565b565b604051906102ab82610262565b6020906001600160401b0381116102d7575b601f01601f19160190565b6102df6101f5565b6102cc565b81601f8201121561000e578035906102fb826102ba565b92610309604051948561027d565b8284526020838301011161000e57816000926020809301838601378301015290565b6001600160401b0381160361000e57565b503461000e57608036600319011261000e576103566101d3565b6001600160401b039060243582811161000e576103779036906004016102e4565b91604435906103858261032b565b60643590811161000e5761039d9036906004016102e4565b926001600160a01b03906103d4337f000000000000000000000000000000000000000000000000000000000000000084161461185d565b80516103f66103f18661ffff166000526001602052604060002090565b6118c6565b14806107fa575b610406906118d3565b60208501805160ff1660018103610583575061042c906020876014979851010190611b49565b9a0151949a9499929550907f000000000000000000000000000000000000000000000000000000000000000088163b1561000e576000848c6104836040519485938493632863ea0160e21b85528b600486016119dd565b0381838c7f0000000000000000000000000000000000000000000000000000000000000000165af18015610576575b610563575b50867f0000000000000000000000000000000000000000000000000000000000000000163b1561000e576000988995610507946040519c8d9b8c9a8b99632f92555560e01b8b5260048b01611c4a565b03927f0000000000000000000000000000000000000000000000000000000000000000165af18015610556575b61053d575b505b005b8061054a6105509261020c565b80610896565b38610539565b61055e611a0d565b610534565b8061054a6105709261020c565b386104b7565b61057e611a0d565b6104b2565b6002819695939294961460001461060b575050506020846105a993949551010190611b1c565b949092507f00000000000000000000000000000000000000000000000000000000000000001690813b1561000e57600080946105fb60405197889687958694632863ea0160e21b8652600486016119dd565b03925af180156105565761053d57005b6003819792949395971460001461071e5750601492916020826106319351010190611a6b565b90949a95509891969092980151907f00000000000000000000000000000000000000000000000000000000000000001695863b1561000e5761068f8a8a9260405180938192632863ea0160e21b835260009e8f958c600486016119dd565b0381838c5af18015610711575b6106fe575b50863b156106fa5791889493916106cf936040519b8c9a8b998a98630fee425360e31b8a5260048a01611ac6565b03925af180156106ed575b6106e057005b8061054a61053b9261020c565b6106f5611a0d565b6106da565b8880fd5b8061054a61070b9261020c565b386106a1565b610719611a0d565b61069c565b9495929490919060041461072e57005b60208261073e9351010190611989565b92979450909492977f00000000000000000000000000000000000000000000000000000000000000001694853b1561000e57604051632863ea0160e21b81526000989189908290819061079790868f8b600486016119dd565b0381838b5af180156107ed575b6107da575b50853b156107d657916106cf918894936040519a8b998a988997630403bce560e01b895260048901611a1a565b8780fd5b8061054a6107e79261020c565b386107a9565b6107f5611a0d565b6107a4565b50610406815160208301206108256108208761ffff166000526001602052604060002090565b611146565b602081519101201490506103fd565b60ff81160361000e57565b503461000e57604036600319011261000e57602061088d61085e6101d3565b61ffff6024359161086e83610834565b166000526002835260406000209060ff16600052602052604060002090565b54604051908152f35b600091031261000e57565b503461000e57600036600319011261000e576040517f00000000000000000000000000000000000000000000000000000000000000006001600160a01b03168152602090f35b503461000e5760006020366003190112610990576109036101d3565b8160018060a01b03610919818354163314612202565b7f00000000000000000000000000000000000000000000000000000000000000001691823b1561098c57602461ffff918360405195869485936307e0db1760e01b85521660048401525af1801561097f575b610973575080f35b61097c9061020c565b80f35b610987611a0d565b61096b565b5080fd5b80fd5b9181601f8401121561000e578235916001600160401b03831161000e576020838186019501011161000e57565b91909160608184031261000e57604051906001600160401b03906060830182811184821017610a1b575b60405282948135845260208201356020850152604082013592831161000e57604092610a1692016102e4565b910152565b610a236101f5565b6109ea565b503461000e5760a036600319011261000e57610a426101d3565b60243590610a4f82610834565b6001600160401b039160443583811161000e57610a70903690600401610993565b60649291923585811161000e57610a8b903690600401610993565b93909260843596871161000e57610aa9610aaf9736906004016109c0565b95611ff7565b60408051928352602083019190915290f35b0390f35b503461000e576000602036600319011261099057610ae16101d3565b8160018060a01b03610af7818354163314612202565b7f00000000000000000000000000000000000000000000000000000000000000001691823b1561098c57602461ffff918360405195869485936310ddb13760e01b85521660048401525af1801561097f57610973575080f35b6001600160a01b0381160361000e57565b604090608319011261000e5760405190610b7a8261022c565b608435825260a4356020830152565b604090604319011261000e5760405190610ba28261022c565b60443582526064356020830152565b5061012036600319011261000e57610bc76101d3565b606435610bd381610b50565b610bdc36610b61565b9060e435926001600160401b039384811161000e57610bff903690600401610993565b93906101043595861161000e57610cb8610cbe92610caa610c27610c919936906004016109c0565b6001600160a01b0398909490610c60337f00000000000000000000000000000000000000000000000000000000000000008c1614611cb8565b6040519a8b946004602087015260243560408701526044356060870152608086019060208091805184520151910152565b60c43560c085015260e080850152610100840191611dd4565b03601f19810188528761027d565b82612376565b604051630f428ae960e31b815261ffff831660048201523060248201527f000000000000000000000000000000000000000000000000000000000000000090941693610d289060208180604481015b0381895afa908115610e08575b600091610dda575b5061254c565b92610d418361ffff166000526001602052604060002090565b94803b1561000e576000805160206129b183398151915296610db596610d816000956040519788968795869562c5803160e81b875230936004880161256c565b039134905af18015610dcd575b610dba575b5060408051600481526001600160401b03909216602083015290918291820190565b0390a1005b8061054a610dc79261020c565b38610d93565b610dd5611a0d565b610d8e565b610dfb915060203d8111610e01575b610df3818361027d565b810190612520565b38610d22565b503d610de9565b610e10611a0d565b610d1a565b90604060031983011261000e5760043561ffff8116810361000e5791602435906001600160401b03821161000e57610e4f91600401610993565b9091565b503461000e57610e6236610e15565b91600092839160018060a01b03610e7d818554163314612202565b7f00000000000000000000000000000000000000000000000000000000000000001690813b15610eec578361ffff91610eda604051978896879586946342d65a8d60e01b8652166004850152604060248501526044840191611dd4565b03925af1801561097f57610973575080f35b8380fd5b503461000e57610eff36610e15565b61ffff600093610f1960018060a01b038654163314612202565b16918284526001602052610f30604085205461110c565b610f485761097c9284526001602052604084206122a1565b60405162461bcd60e51b815260206004820152601d60248201527f53746172676174653a2042726964676520616c726561647920736574210000006044820152606490fd5b60c09060c319011261000e576040519060c082018281106001600160401b03821117610feb575b6040528160c435815260e435602082015261010435604082015261012435606082015261014435608082015260a061016435910152565b610ff36101f5565b610fb4565b506101e036600319011261000e5761100e6101d3565b60643561101a81610b50565b61102336610b61565b9161102d36610f8d565b6001600160401b03936101843585811161000e5761104f9036906004016109c0565b6101a43586811161000e57611068903690600401610993565b9390926101c43597881161000e5761108761053b983690600401610993565b9790966044359060243590611d03565b503461000e576000806003193601126109905761097c60018060a01b038254163314612202565b503461000e57600036600319011261000e57602060ff600354166040519015158152f35b503461000e57600036600319011261000e576000546040516001600160a01b039091168152602090f35b90600182811c9216801561113c575b602083101461112657565b634e487b7160e01b600052602260045260246000fd5b91607f169161111b565b906040519182600082549261115a8461110c565b9081845260019485811690816000146111c75750600114611184575b50506102ab9250038361027d565b9093915060005260209081600020936000915b8183106111af5750506102ab93508201013880611176565b85548884018501529485019487945091830191611197565b9150506102ab94506020925060ff191682840152151560051b8201013880611176565b60005b8381106111fd5750506000910152565b81810151838201526020016111ed565b90602091611226815180928185528580860191016111ea565b601f01601f1916010190565b503461000e57602036600319011261000e5761ffff61124f6101d3565b166000526001602052610ac16112686040600020611146565b60405191829160208352602083019061120d565b5060c036600319011261000e576112916101d3565b6024359061129e82610b50565b6112a736610b89565b90608435926001600160401b039384811161000e576112ca9036906004016109c0565b9160a43585811161000e576112e39036906004016102e4565b611317337f00000000000000000000000000000000000000000000000000000000000000006001600160a01b031614611cb8565b805181019460c08287031261000e576113336020830151610834565b604082015195606083015191608084015160a08501519060c08601519a8b1161000e5761137161138f96602061053b9d816113819801920101611947565b926040519a8b9660208801611df5565b03601f19810186528561027d565b612672565b5060c036600319011261000e5761053b6113ac6101d3565b606435906113b982610b50565b6113c236610b61565b916113f7337f00000000000000000000000000000000000000000000000000000000000000006001600160a01b031614611cb8565b611429604051936002602086015260243560408601526044356060860152608085019060208091805184520151910152565b60a0835261143683610262565b6040519161144383610247565b600083526000602084015260405161145a8161022c565b6002815261060f60f31b6020820152604084015261278a565b8015150361000e57565b503461000e57602036600319011261000e5760043561149b81611473565b6114b060018060a01b03600054163314612202565b60ff8019600354169115151617600355600080f35b503461000e57608036600319011261000e576114df6101d3565b6114e76101e4565b6064356001600160401b03811161000e57611506903690600401610993565b60018060a09493941b03916000948361152487958654163314612202565b7f00000000000000000000000000000000000000000000000000000000000000001691823b156115be578490611591604051978896879586946332fb62e760e21b865261ffff80921660048701521660248501526044356044850152608060648501526084840191611dd4565b03925af180156115b1575b6115a4575080f35b8061054a61097c9261020c565b6115b9611a0d565b61159c565b8480fd5b503461000e57606036600319011261000e576004356115e081610b50565b602435906115ed82610b50565b602060018060a01b036044600094611609838754163314612202565b8583604051968795869463095ea7b360e01b865216600485015284356024850152165af1801561166e575b61163c575080f35b6020813d8211611666575b816116546020938361027d565b8101031261098c5761097c9051611473565b3d9150611647565b611676611a0d565b611634565b503461000e57602036600319011261000e5760043561169981610b50565b6000805490916001600160a01b03808316916116b6338414612202565b169182156116f3576001600160a01b031916821783557f8be0079c531659141344cd1fd0a4f28419497f9722a3daafe3b4186f6b6457e08380a380f35b60405162461bcd60e51b815260206004820152602660248201527f4f776e61626c653a206e6577206f776e657220697320746865207a65726f206160448201526564647265737360d01b6064820152608490fd5b503461000e57600036600319011261000e576040517f00000000000000000000000000000000000000000000000000000000000000006001600160a01b03168152602090f35b503461000e57606036600319011261000e576117a76101d3565b602435906117b482610834565b6117c960018060a01b03600054163314612202565b60ff821660018110159081611851575b501561180c5761ffff1660005260026020526118096044359160406000209060ff16600052602052604060002090565b55005b60405162461bcd60e51b815260206004820152601f60248201527f53746172676174653a20696e76616c6964205f66756e6374696f6e54797065006044820152606490fd5b600491501115386117d9565b1561186457565b60405162461bcd60e51b815260206004820152603460248201527f53746172676174653a206f6e6c79204c617965725a65726f20656e64706f696e604482015273742063616e2063616c6c206c7a5265636569766560601b6064820152608490fd5b6118d0905461110c565b90565b156118da57565b60405162461bcd60e51b815260206004820152601f60248201527f53746172676174653a2062726964676520646f6573206e6f74206d61746368006044820152606490fd5b919082604091031261000e576040516119378161022c565b6020808294805184520151910152565b81601f8201121561000e57805161195d816102ba565b9261196b604051948561027d565b8184526020828401011161000e576118d091602080850191016111ea565b9160e08383031261000e57825161199f81610834565b926020810151926040820151926119b9826060850161191f565b9260a08101519260c08201516001600160401b03811161000e576118d09201611947565b6102ab9360609296959361ffff60a084019816835260208301526040820152019060208091805184520151910152565b506040513d6000823e3d90fd5b9390611a486118d098969361ffff6001600160401b039399969916875260e0602088015260e087019061120d565b961660408501526060840152608083015260a082015260c081840391015261120d565b906101008282031261000e578151611a8281610834565b92602083015192604081015192611a9c816060840161191f565b9260a08301519260c08101519260e08201516001600160401b03811161000e576118d09201611947565b9491611af46001600160401b039161ffff60e099969c9b9a97941688526101008060208a015288019061120d565b99166040860152606085015260808401526001600160a01b031660a083015260c08201520152565b60a08183031261000e578051611b3181610834565b926118d060208301519360606040850151940161191f565b90818103926101c0841261000e578251611b6281610834565b9360208401519360408101519360608201519360c0611b84836080860161191f565b9460bf19011261000e57604051611b9a81610262565b60c0840151815260e0840151602082015261010084015160408201526101208401516060820152610140840151608082015261016084015160a082015292610180810151926001600160401b039384811161000e5781611bfb918401611947565b936101a083015190811161000e576118d09201611947565b60a0809180518452602081015160208501526040810151604085015260608101516060850152608081015160808501520151910152565b9591936001600160401b03611c7c6118d09b99959a9661ffff611caa9995168a526101c08060208c01528a019061120d565b991660408801526060870152608086015260a08501526001600160a01b031660c084015260e0830190611c13565b6101a081840391015261120d565b15611cbf57565b606460405162461bcd60e51b815260206004820152602060248201527f53746172676174653a2063616c6c6572206d75737420626520526f757465722e6044820152fd5b99919895979296929590949093919291611d47337f00000000000000000000000000000000000000000000000000000000000000006001600160a01b031614611cb8565b88516040519a8b97602089016001905260408901526060880152608087015260a08601611d7d9160208091805184520151910152565b60e08501611d8a91611c13565b6101c094856101a08601526101e0850190611da492611dd4565b90601f1994858584030190850152611dbb92611dd4565b039081018452611dcb908461027d565b6102ab9361289d565b908060209392818452848401376000828201840152601f01601f1916010190565b9391926118d0969593611e24926003875260208701526040860152606085019060208091805184520151910152565b60a083015260c0820152610100908160e0820152019061120d565b60405190602082018281106001600160401b03821117611e63575b60405260008252565b611e6b6101f5565b611e5a565b60e090611ea16118d09593600483526000602084015260006040840152606083019060208091805184520151910152565b600060a08201528160c08201520191611dd4565b611ee36118d09492600383526000602084015260006040840152606083019060208091805184520151910152565b600060a0820152600060c0820152610100908160e08201520191611dd4565b91906102ab90606060a0850194600281526000602082015260006040820152019060208091805184520151910152565b94929093611f7c611f8e93611f726118d0999760018a52600060208b0152600060408b0152600060608b015260808a019060208091805184520151910152565b60c0880190611c13565b6101c080610180880152860191611dd4565b926101a0818503910152611dd4565b919082604091031261000e576020825192015190565b91926118d0959361ffff611fe29316845260018060a01b0316602084015260a0604084015260a083019061120d565b9215156060820152608081840391015261120d565b96959291949093612006611e3f565b5061200f61029e565b92600196878552602097808987015260ff88168181146000146121325750936120819360409993612073936120899998976120486102ad565b908082528088830152808e83015280606083015280608083015260a08201528c519889978801611f32565b03601f19810183528261027d565b925b866124a7565b936120b661209960035460ff1690565b958451968794859463040a7bb160e41b8652309060048701611fb3565b03817f00000000000000000000000000000000000000000000000000000000000000006001600160a01b03165afa918215612125575b60009081936120fa57509190565b9050610e4f91925060403d811161211e575b612116818361027d565b810190611f9d565b503d61210c565b61212d611a0d565b6120ec565b9294505091506002811460001461216657505050906120899161216060409561207387519384928301611f02565b92612083565b6003810361218b57506040956120736120899594936121609389519586948501611eb5565b90939291906004036121b157604095612073612160926120899689519586948501611e70565b60405162461bcd60e51b815260206004820152602360248201527f53746172676174653a20756e737570706f727465642066756e6374696f6e207460448201526279706560e81b6064820152608490fd5b1561220957565b606460405162461bcd60e51b815260206004820152602060248201527f4f776e61626c653a2063616c6c6572206973206e6f7420746865206f776e65726044820152fd5b90601f811161225b57505050565b600091825260208220906020601f850160051c83019410612297575b601f0160051c01915b82811061228c57505050565b818155600101612280565b9092508290612277565b9092916001600160401b038111612369575b6122c7816122c1845461110c565b8461224d565b6000601f821160011461230157819293946000926122f6575b50508160011b916000199060031b1c1916179055565b0135905038806122e0565b601f1982169461231684600052602060002090565b91805b878110612351575083600195969710612337575b505050811b019055565b0135600019600384901b60f8161c1916905538808061232d565b90926020600181928686013581550194019101612319565b6123716101f5565b6122b3565b90600060206123a660408085019361ffff6014865101519716815260028452206004600052602052604060002090565b54928051840180941161240a575b01928351151590816123f7575b50156123d4576118d092519051916124db565b50905060405190600160f01b60208301526022820152602281526118d081610247565b6001600160a01b031615159050386123c1565b612412612535565b6123b4565b90600060206123a660408085019361ffff6014865101519716815260028452206003600052602052604060002090565b90600060206123a660408085019361ffff6014865101519716815260028452206002600052602052604060002090565b90600060206123a660408085019361ffff6014865101519716815260028452206001600052602052604060002090565b919060206123a660009260408086019461ffff6014875101519816815260028552209060ff16600052602052604060002090565b6062906118d09293604051948592600160f11b60208501526022840152604283015261251081518092602086860191016111ea565b810103604281018452018261027d565b9081602091031261000e57516118d08161032b565b50634e487b7160e01b600052601160045260246000fd5b9060016001600160401b038093160191821161256457565b6102ab612535565b929061ffff90979694959716835260209160c08385015260009281546125918161110c565b928360c088015260019182811690816000146126415750600114612600575b50505050956125e36125d1836118d09899866125f39603604088015261120d565b6001600160a01b039096166060850152565b6001600160a01b03166080830152565b60a081840391015261120d565b6000908152828120949550935b83851061262d5750505050820160e001906125e36125d1826125f36125b0565b805487860160e0015293820193810161260d565b60ff191660e08981019190915294151560051b880190940195506125e393506125d192508491506125f390506125b0565b9161267d9083612417565b604051630f428ae960e31b815261ffff841660048201523060248201527f00000000000000000000000000000000000000000000000000000000000000006001600160a01b03169391906126d8906020818060448101610d0d565b926126f18361ffff166000526001602052604060002090565b94803b1561000e576000805160206129b183398151915296612765966127316000956040519788968795869562c5803160e81b875230936004880161256c565b039134905af1801561277d575b61276a575b5060408051600381526001600160401b03909216602083015290918291820190565b0390a1565b8061054a6127779261020c565b38612743565b612785611a0d565b61273e565b916127959083612447565b604051630f428ae960e31b815261ffff841660048201523060248201527f00000000000000000000000000000000000000000000000000000000000000006001600160a01b03169391906127f0906020818060448101610d0d565b926128098361ffff166000526001602052604060002090565b94803b1561000e576000805160206129b183398151915296612765966128496000956040519788968795869562c5803160e81b875230936004880161256c565b039134905af18015612890575b61287d575b5060408051600281526001600160401b03909216602083015290918291820190565b8061054a61288a9261020c565b3861285b565b612898611a0d565b612856565b916128a89083612477565b604051630f428ae960e31b815261ffff841660048201523060248201527f00000000000000000000000000000000000000000000000000000000000000006001600160a01b0316939190612903906020818060448101610d0d565b9261291c8361ffff166000526001602052604060002090565b94803b1561000e576000805160206129b1833981519152966127659661295c6000956040519788968795869562c5803160e81b875230936004880161256c565b039134905af180156129a3575b612990575b5060408051600181526001600160401b03909216602083015290918291820190565b8061054a61299d9261020c565b3861296e565b6129ab611a0d565b61296956fe8d3ee0df6a4b7e82a7f20a763f1c6826e6176323e655af64f32318827d2112d4a2646970667358221220da3fb216016fa2ed3ce16c702d45bc3e6e967864ac795334a311c6eb5598327464736f6c63430008110033",
    "linkReferences": {}
  },
  "methodIdentifiers": {
    "approveTokenSpender(address,address,uint256)": "d7d3c3b9",
    "bridgeLookup(uint16)": "8e3b5d6a",
    "forceResumeReceive(uint16,bytes)": "42d65a8d",
    "gasLookup(uint16,uint8)": "02422054",
    "layerZeroEndpoint()": "07968db1",
    "lzReceive(uint16,bytes,uint64,bytes)": "001d3567",
    "owner()": "8da5cb5b",
    "quoteLayerZeroFee(uint16,uint8,bytes,bytes,(uint256,uint256,bytes))": "0a512369",
    "redeemLocal(uint16,uint256,uint256,address,(uint256,uint256),uint256,bytes,(uint256,uint256,bytes))": "3cef94b9",
    "redeemLocalCallback(uint16,address,(uint256,uint256),(uint256,uint256,bytes),bytes)": "96aae4af",
    "renounceOwnership()": "715018a6",
    "router()": "f887ea40",
    "sendCredits(uint16,uint256,uint256,address,(uint256,uint256))": "be9d40ac",
    "setBridge(uint16,bytes)": "43b18009",
    "setConfig(uint16,uint16,uint256,bytes)": "cbed8b9c",
    "setGasAmount(uint16,uint8,uint256)": "fc869108",
    "setReceiveVersion(uint16)": "10ddb137",
    "setSendVersion(uint16)": "07e0db17",
    "setUseLayerZeroToken(bool)": "c213dc2b",
    "swap(uint16,uint256,uint256,address,(uint256,uint256),(uint256,uint256,uint256,uint256,uint256,uint256),(uint256,uint256,bytes),bytes,bytes)": "51156e73",
    "transferOwnership(address)": "f2fde38b",
    "useLayerZeroToken()": "8c7ae0fc"
  },
  "id": 144
}