{
  "abi": [
    {
      "inputs": [
        {
          "internalType": "address",
          "name": "_layerZeroEndpoint",
          "type": "address"
        },
        {
          "internalType": "address",
          "name": "_router",
          "type": "address"
        }
      ],
      "stateMutability": "nonpayable",
      "type": "constructor"
    },
    {
      "anonymous": false,
      "inputs": [
        {
          "indexed": true,
          "internalType": "address",
          "name": "previousOwner",
          "type": "address"
        },
        {
          "indexed": true,
          "internalType": "address",
          "name": "newOwner",
          "type": "address"
        }
      ],
      "name": "OwnershipTransferred",
      "type": "event"
    },
    {
      "anonymous": false,
      "inputs": [
        {
          "indexed": false,
          "internalType": "uint8",
          "name": "msgType",
          "type": "uint8"
        },
        {
          "indexed": false,
          "internalType": "uint64",
          "name": "nonce",
          "type": "uint64"
        }
      ],
      "name": "SendMsg",
      "type": "event"
    },
    {
      "inputs": [
        {
          "internalType": "address",
          "name": "token",
          "type": "address"
        },
        {
          "internalType": "address",
          "name": "spender",
          "type": "address"
        },
        {
          "internalType": "uint256",
          "name": "amount",
          "type": "uint256"
        }
      ],
      "name": "approveTokenSpender",
      "outputs": [],
      "stateMutability": "nonpayable",
      "type": "function"
    },
    {
      "inputs": [
        {
          "internalType": "uint16",
          "name": "",
          "type": "uint16"
        }
      ],
      "name": "bridgeLookup",
      "outputs": [
        {
          "internalType": "bytes",
          "name": "",
          "type": "bytes"
        }
      ],
      "stateMutability": "view",
      "type": "function"
    },
    {
      "inputs": [
        {
          "internalType": "uint16",
          "name": "_srcChainId",
          "type": "uint16"
        },
        {
          "internalType": "bytes",
          "name": "_srcAddress",
          "type": "bytes"
        }
      ],
      "name": "forceResumeReceive",
      "outputs": [],
      "stateMutability": "nonpayable",
      "type": "function"
    },
    {
      "inputs": [
        {
          "internalType": "uint16",
          "name": "",
          "type": "uint16"
        },
        {
          "internalType": "uint8",
          "name": "",
          "type": "uint8"
        }
      ],
      "name": "gasLookup",
      "outputs": [
        {
          "internalType": "uint256",
          "name": "",
          "type": "uint256"
        }
      ],
      "stateMutability": "view",
      "type": "function"
    },
    {
      "inputs": [],
      "name": "layerZeroEndpoint",
      "outputs": [
        {
          "internalType": "contract ILayerZeroEndpoint",
          "name": "",
          "type": "address"
        }
      ],
      "stateMutability": "view",
      "type": "function"
    },
    {
      "inputs": [
        {
          "internalType": "uint16",
          "name": "_srcChainId",
          "type": "uint16"
        },
        {
          "internalType": "bytes",
          "name": "_srcAddress",
          "type": "bytes"
        },
        {
          "internalType": "uint64",
          "name": "_nonce",
          "type": "uint64"
        },
        {
          "internalType": "bytes",
          "name": "_payload",
          "type": "bytes"
        }
      ],
      "name": "lzReceive",
      "outputs": [],
      "stateMutability": "nonpayable",
      "type": "function"
    },
    {
      "inputs": [],
      "name": "owner",
      "outputs": [
        {
          "internalType": "address",
          "name": "",
          "type": "address"
        }
      ],
      "stateMutability": "view",
      "type": "function"
    },
    {
      "inputs": [
        {
          "internalType": "uint16",
          "name": "_chainId",
          "type": "uint16"
        },
        {
          "internalType": "uint8",
          "name": "_functionType",
          "type": "uint8"
        },
        {
          "internalType": "bytes",
          "name": "_toAddress",
          "type": "bytes"
        },
        {
          "internalType": "bytes",
          "name": "_transferAndCallPayload",
          "type": "bytes"
        },
        {
          "components": [
            {
              "internalType": "uint256",
              "name": "dstGasForCall",
              "type": "uint256"
            },
            {
              "internalType": "uint256",
              "name": "dstNativeAmount",
              "type": "uint256"
            },
            {
              "internalType": "bytes",
              "name": "dstNativeAddr",
              "type": "bytes"
            }
          ],
          "internalType": "struct IStargateRouter.lzTxObj",
          "name": "_lzTxParams",
          "type": "tuple"
        }
      ],
      "name": "quoteLayerZeroFee",
      "outputs": [
        {
          "internalType": "uint256",
          "name": "",
          "type": "uint256"
        },
        {
          "internalType": "uint256",
          "name": "",
          "type": "uint256"
        }
      ],
      "stateMutability": "view",
      "type": "function"
    },
    {
      "inputs": [
        {
          "internalType": "uint16",
          "name": "_chainId",
          "type": "uint16"
        },
        {
          "internalType": "uint256",
          "name": "_srcPoolId",
          "type": "uint256"
        },
        {
          "internalType": "uint256",
          "name": "_dstPoolId",
          "type": "uint256"
        },
        {
          "internalType": "address payable",
          "name": "_refundAddress",
          "type": "address"
        },
        {
          "components": [
            {
              "internalType": "uint256",
              "name": "credits",
              "type": "uint256"
            },
            {
              "internalType": "uint256",
              "name": "idealBalance",
              "type": "uint256"
            }
          ],
          "internalType": "struct Pool.CreditObj",
          "name": "_c",
          "type": "tuple"
        },
        {
          "internalType": "uint256",
          "name": "_amountSD",
          "type": "uint256"
        },
        {
          "internalType": "bytes",
          "name": "_to",
          "type": "bytes"
        },
        {
          "components": [
            {
              "internalType": "uint256",
              "name": "dstGasForCall",
              "type": "uint256"
            },
            {
              "internalType": "uint256",
              "name": "dstNativeAmount",
              "type": "uint256"
            },
            {
              "internalType": "bytes",
              "name": "dstNativeAddr",
              "type": "bytes"
            }
          ],
          "internalType": "struct IStargateRouter.lzTxObj",
          "name": "_lzTxParams",
          "type": "tuple"
        }
      ],
      "name": "redeemLocal",
      "outputs": [],
      "stateMutability": "payable",
      "type": "function"
    },
    {
      "inputs": [
        {
          "internalType": "uint16",
          "name": "_chainId",
          "type": "uint16"
        },
        {
          "internalType": "address payable",
          "name": "_refundAddress",
          "type": "address"
        },
        {
          "components": [
            {
              "internalType": "uint256",
              "name": "credits",
              "type": "uint256"
            },
            {
              "internalType": "uint256",
              "name": "idealBalance",
              "type": "uint256"
            }
          ],
          "internalType": "struct Pool.CreditObj",
          "name": "_c",
          "type": "tuple"
        },
        {
          "components": [
            {
              "internalType": "uint256",
              "name": "dstGasForCall",
              "type": "uint256"
            },
            {
              "internalType": "uint256",
              "name": "dstNativeAmount",
              "type": "uint256"
            },
            {
              "internalType": "bytes",
              "name": "dstNativeAddr",
              "type": "bytes"
            }
          ],
          "internalType": "struct IStargateRouter.lzTxObj",
          "name": "_lzTxParams",
          "type": "tuple"
        },
        {
          "internalType": "bytes",
          "name": "_payload",
          "type": "bytes"
        }
      ],
      "name": "redeemLocalCallback",
      "outputs": [],
      "stateMutability": "payable",
      "type": "function"
    },
    {
      "inputs": [],
      "name": "renounceOwnership",
      "outputs": [],
      "stateMutability": "nonpayable",
      "type": "function"
    },
    {
      "inputs": [],
      "name": "router",
      "outputs": [
        {
          "internalType": "contract Router",
          "name": "",
          "type": "address"
        }
      ],
      "stateMutability": "view",
      "type": "function"
    },
    {
      "inputs": [
        {
          "internalType": "uint16",
          "name": "_chainId",
          "type": "uint16"
        },
        {
          "internalType": "uint256",
          "name": "_srcPoolId",
          "type": "uint256"
        },
        {
          "internalType": "uint256",
          "name": "_dstPoolId",
          "type": "uint256"
        },
        {
          "internalType": "address payable",
          "name": "_refundAddress",
          "type": "address"
        },
        {
          "components": [
            {
              "internalType": "uint256",
              "name": "credits",
              "type": "uint256"
            },
            {
              "internalType": "uint256",
              "name": "idealBalance",
              "type": "uint256"
            }
          ],
          "internalType": "struct Pool.CreditObj",
          "name": "_c",
          "type": "tuple"
        }
      ],
      "name": "sendCredits",
      "outputs": [],
      "stateMutability": "payable",
      "type": "function"
    },
    {
      "inputs": [
        {
          "internalType": "uint16",
          "name": "_chainId",
          "type": "uint16"
        },
        {
          "internalType": "bytes",
          "name": "_bridgeAddress",
          "type": "bytes"
        }
      ],
      "name": "setBridge",
      "outputs": [],
      "stateMutability": "nonpayable",
      "type": "function"
    },
    {
      "inputs": [
        {
          "internalType": "uint16",
          "name": "_version",
          "type": "uint16"
        },
        {
          "internalType": "uint16",
          "name": "_chainId",
          "type": "uint16"
        },
        {
          "internalType": "uint256",
          "name": "_configType",
          "type": "uint256"
        },
        {
          "internalType": "bytes",
          "name": "_config",
          "type": "bytes"
        }
      ],
      "name": "setConfig",
      "outputs": [],
      "stateMutability": "nonpayable",
      "type": "function"
    },
    {
      "inputs": [
        {
          "internalType": "uint16",
          "name": "_chainId",
          "type": "uint16"
        },
        {
          "internalType": "uint8",
          "name": "_functionType",
          "type": "uint8"
        },
        {
          "internalType": "uint256",
          "name": "_gasAmount",
          "type": "uint256"
        }
      ],
      "name": "setGasAmount",
      "outputs": [],
      "stateMutability": "nonpayable",
      "type": "function"
    },
    {
      "inputs": [
        {
          "internalType": "uint16",
          "name": "version",
          "type": "uint16"
        }
      ],
      "name": "setReceiveVersion",
      "outputs": [],
      "stateMutability": "nonpayable",
      "type": "function"
    },
    {
      "inputs": [
        {
          "internalType": "uint16",
          "name": "version",
          "type": "uint16"
        }
      ],
      "name": "setSendVersion",
      "outputs": [],
      "stateMutability": "nonpayable",
      "type": "function"
    },
    {
      "inputs": [
        {
          "internalType": "bool",
          "name": "enable",
          "type": "bool"
        }
      ],
      "name": "setUseLayerZeroToken",
      "outputs": [],
      "stateMutability": "nonpayable",
      "type": "function"
    },
    {
      "inputs": [
        {
          "internalType": "uint16",
          "name": "_chainId",
          "type": "uint16"
        },
        {
          "internalType": "uint256",
          "name": "_srcPoolId",
          "type": "uint256"
        },
        {
          "internalType": "uint256",
          "name": "_dstPoolId",
          "type": "uint256"
        },
        {
          "internalType": "address payable",
          "name": "_refundAddress",
          "type": "address"
        },
        {
          "components": [
            {
              "internalType": "uint256",
              "name": "credits",
              "type": "uint256"
            },
            {
              "internalType": "uint256",
              "name": "idealBalance",
              "type": "uint256"
            }
          ],
          "internalType": "struct Pool.CreditObj",
          "name": "_c",
          "type": "tuple"
        },
        {
          "components": [
            {
              "internalType": "uint256",
              "name": "amount",
              "type": "uint256"
            },
            {
              "internalType": "uint256",
              "name": "eqFee",
              "type": "uint256"
            },
            {
              "internalType": "uint256",
              "name": "eqReward",
              "type": "uint256"
            },
            {
              "internalType": "uint256",
              "name": "lpFee",
              "type": "uint256"
            },
            {
              "internalType": "uint256",
              "name": "protocolFee",
              "type": "uint256"
            },
            {
              "internalType": "uint256",
              "name": "lkbRemove",
              "type": "uint256"
            }
          ],
          "internalType": "struct Pool.SwapObj",
          "name": "_s",
          "type": "tuple"
        },
        {
          "components": [
            {
              "internalType": "uint256",
              "name": "dstGasForCall",
              "type": "uint256"
            },
            {
              "internalType": "uint256",
              "name": "dstNativeAmount",
              "type": "uint256"
            },
            {
              "internalType": "bytes",
              "name": "dstNativeAddr",
              "type": "bytes"
            }
          ],
          "internalType": "struct IStargateRouter.lzTxObj",
          "name": "_lzTxParams",
          "type": "tuple"
        },
        {
          "internalType": "bytes",
          "name": "_to",
          "type": "bytes"
        },
        {
          "internalType": "bytes",
          "name": "_payload",
          "type": "bytes"
        }
      ],
      "name": "swap",
      "outputs": [],
      "stateMutability": "payable",
      "type": "function"
    },
    {
      "inputs": [
        {
          "internalType": "address",
          "name": "newOwner",
          "type": "address"
        }
      ],
      "name": "transferOwnership",
      "outputs": [],
      "stateMutability": "nonpayable",
      "type": "function"
    },
    {
      "inputs": [],
      "name": "useLayerZeroToken",
      "outputs": [
        {
          "internalType": "bool",
          "name": "",
          "type": "bool"
        }
      ],
      "stateMutability": "view",
      "type": "function"
    }
  ],
  "bytecode": {
    "object": "0x60c06040523480156200001157600080fd5b5060405162002efd38038062002efd83398101604081905262000034916200018b565b6200003f336200011e565b6001600160a01b038216620000ae5760405162461bcd60e51b815260206004820152602a60248201527f53746172676174653a205f6c617965725a65726f456e64706f696e742063616e60448201526906e6f74206265203078360b41b60648201526084015b60405180910390fd5b6001600160a01b038116620001065760405162461bcd60e51b815260206004820152601f60248201527f53746172676174653a205f726f757465722063616e6e6f7420626520307830006044820152606401620000a5565b6001600160a01b039182166080521660a052620001c3565b600080546001600160a01b038381166001600160a01b0319831681178455604051919092169283917f8be0079c531659141344cd1fd0a4f28419497f9722a3daafe3b4186f6b6457e09190a35050565b80516001600160a01b03811681146200018657600080fd5b919050565b600080604083850312156200019f57600080fd5b620001aa836200016e565b9150620001ba602084016200016e565b90509250929050565b60805160a051612c8f6200026e6000396000818161040f015281816105de0152818161066201528181610729015281816107f40152818161088b01528181610943015281816109da01528181610d9701528181610f5201528181611093015261114e0152600081816101b80152818161045c01528181610a7d01528181610c8001528181610d5501528181610e3e015281816112390152818161157d01526116200152612c8f6000f3fe6080604052600436106101345760003560e01c80638c7ae0fc116100ab578063c213dc2b1161006f578063c213dc2b1461037d578063cbed8b9c1461039d578063d7d3c3b9146103bd578063f2fde38b146103dd578063f887ea40146103fd578063fc8691081461043157600080fd5b80638c7ae0fc146102e25780638da5cb5b1461030c5780638e3b5d6a1461032a57806396aae4af14610357578063be9d40ac1461036a57600080fd5b806310ddb137116100fd57806310ddb137146102475780633cef94b91461026757806342d65a8d1461027a57806343b180091461029a57806351156e73146102ba578063715018a6146102cd57600080fd5b80621d356714610139578063024220541461015b57806307968db1146101a657806307e0db17146101f25780630a51236914610212575b600080fd5b34801561014557600080fd5b506101596101543660046118b9565b610451565b005b34801561016757600080fd5b50610193610176366004611950565b600260209081526000928352604080842090915290825290205481565b6040519081526020015b60405180910390f35b3480156101b257600080fd5b506101da7f000000000000000000000000000000000000000000000000000000000000000081565b6040516001600160a01b03909116815260200161019d565b3480156101fe57600080fd5b5061015961020d366004611987565b610a5c565b34801561021e57600080fd5b5061023261022d366004611a62565b610ade565b6040805192835260208301919091520161019d565b34801561025357600080fd5b50610159610262366004611987565b610d34565b610159610275366004611b68565b610d8c565b34801561028657600080fd5b50610159610295366004611c23565b610e1f565b3480156102a657600080fd5b506101596102b5366004611c23565b610eae565b6101596102c8366004611cee565b610f47565b3480156102d957600080fd5b50610159610fe4565b3480156102ee57600080fd5b506003546102fc9060ff1681565b604051901515815260200161019d565b34801561031857600080fd5b506000546001600160a01b03166101da565b34801561033657600080fd5b5061034a610345366004611987565b610fee565b60405161019d9190611e36565b610159610365366004611e49565b611088565b610159610378366004611ee1565b611143565b34801561038957600080fd5b50610159610398366004611f49565b6111ff565b3480156103a957600080fd5b506101596103b8366004611f6d565b61121a565b3480156103c957600080fd5b506101596103d8366004611fdb565b6112af565b3480156103e957600080fd5b506101596103f836600461201c565b61132a565b34801561040957600080fd5b506101da7f000000000000000000000000000000000000000000000000000000000000000081565b34801561043d57600080fd5b5061015961044c366004612039565b6113a3565b336001600160a01b037f000000000000000000000000000000000000000000000000000000000000000016146104eb5760405162461bcd60e51b815260206004820152603460248201527f53746172676174653a206f6e6c79204c617965725a65726f20656e64706f696e604482015273742063616e2063616c6c206c7a5265636569766560601b60648201526084015b60405180910390fd5b61ffff84166000908152600160205260409020805461050990612067565b90508351148015610548575061ffff841660009081526001602052604090819020905161053691906120a1565b60405180910390208380519060200120145b6105945760405162461bcd60e51b815260206004820152601f60248201527f53746172676174653a2062726964676520646f6573206e6f74206d617463680060448201526064016104e2565b602081015160001960ff8216016106fb576000806000806000806000888060200190518101906105c49190612194565b9750975097509750975097509750506000601483015190507f00000000000000000000000000000000000000000000000000000000000000006001600160a01b031663a18fa8048e8a8a896040518563ffffffff1660e01b815260040161062e949392919061229b565b600060405180830381600087803b15801561064857600080fd5b505af115801561065c573d6000803e3d6000fd5b505050507f00000000000000000000000000000000000000000000000000000000000000006001600160a01b0316632f9255558e8e8e8c8c8c888c8b6040518a63ffffffff1660e01b81526004016106bc999897969594939291906122ce565b600060405180830381600087803b1580156106d657600080fd5b505af11580156106ea573d6000803e3d6000fd5b505050505050505050505050610a55565b60011960ff8216016107b3576000806000848060200190518101906107209190612386565b935093509350507f00000000000000000000000000000000000000000000000000000000000000006001600160a01b031663a18fa804898585856040518563ffffffff1660e01b8152600401610779949392919061229b565b600060405180830381600087803b15801561079357600080fd5b505af11580156107a7573d6000803e3d6000fd5b50505050505050610a55565b60021960ff82160161090e57600080600080600080878060200190518101906107dc91906123d0565b965096509650965096509650506000601482015190507f00000000000000000000000000000000000000000000000000000000000000006001600160a01b031663a18fa8048d8989896040518563ffffffff1660e01b8152600401610844949392919061229b565b600060405180830381600087803b15801561085e57600080fd5b505af1158015610872573d6000803e3d6000fd5b5050604051630fee425360e31b81526001600160a01b037f0000000000000000000000000000000000000000000000000000000000000000169250637f72129891506108d0908f908f908f908d908d9089908d908d9060040161244a565b600060405180830381600087803b1580156108ea57600080fd5b505af11580156108fe573d6000803e3d6000fd5b5050505050505050505050610a55565b60031960ff821601610a555760008060008060008680602001905181019061093691906124ad565b95509550955095509550507f00000000000000000000000000000000000000000000000000000000000000006001600160a01b031663a18fa8048b8787876040518563ffffffff1660e01b8152600401610993949392919061229b565b600060405180830381600087803b1580156109ad57600080fd5b505af11580156109c1573d6000803e3d6000fd5b5050604051630403bce560e01b81526001600160a01b037f0000000000000000000000000000000000000000000000000000000000000000169250630403bce59150610a1d908d908d908d908b908b908a908a9060040161252a565b600060405180830381600087803b158015610a3757600080fd5b505af1158015610a4b573d6000803e3d6000fd5b5050505050505050505b5050505050565b610a64611434565b6040516307e0db1760e01b815261ffff821660048201527f00000000000000000000000000000000000000000000000000000000000000006001600160a01b0316906307e0db17906024015b600060405180830381600087803b158015610aca57600080fd5b505af1158015610a55573d6000803e3d6000fd5b6040805160208082018352600080835283518085019094526001808552918401919091529182919060001960ff8b1601610b865760006040518060c001604052806001815260200160018152602001600181526020016001815260200160018152602001600181525090506001600080600085858f8f8f8f604051602001610b6f9a999897969594939291906125b1565b604051602081830303815290604052925050610c6f565b60011960ff8b1601610bc157600260008083604051602001610bab9493929190612666565b6040516020818303038152906040529150610c6f565b60021960ff8b1601610bef576003600080836000808e8e604051602001610bab989796959493929190612697565b60031960ff8b1601610c1b5760046000808360008d8d604051602001610bab97969594939291906126ff565b60405162461bcd60e51b815260206004820152602360248201527f53746172676174653a20756e737570706f727465642066756e6374696f6e207460448201526279706560e81b60648201526084016104e2565b6000610c7c8c8c8861148e565b90507f00000000000000000000000000000000000000000000000000000000000000006001600160a01b03166340a7bb108d3086600360009054906101000a900460ff16866040518663ffffffff1660e01b8152600401610ce195949392919061275b565b6040805180830381865afa158015610cfd573d6000803e3d6000fd5b505050506040513d601f19601f82011682018060405250810190610d2191906127af565b9450945050505097509795505050505050565b610d3c611434565b6040516310ddb13760e01b815261ffff821660048201527f00000000000000000000000000000000000000000000000000000000000000006001600160a01b0316906310ddb13790602401610ab0565b336001600160a01b037f00000000000000000000000000000000000000000000000000000000000000001614610dd45760405162461bcd60e51b81526004016104e2906127d3565b60006004898988888888604051602001610df49796959493929190612808565b6040516020818303038152906040529050610e138a6004898585611543565b50505050505050505050565b610e27611434565b6040516342d65a8d60e01b81526001600160a01b037f000000000000000000000000000000000000000000000000000000000000000016906342d65a8d90610e779086908690869060040161284e565b600060405180830381600087803b158015610e9157600080fd5b505af1158015610ea5573d6000803e3d6000fd5b50505050505050565b610eb6611434565b61ffff831660009081526001602052604090208054610ed490612067565b159050610f235760405162461bcd60e51b815260206004820152601d60248201527f53746172676174653a2042726964676520616c7265616479207365742100000060448201526064016104e2565b61ffff83166000908152600160205260409020610f418284836128b7565b50505050565b336001600160a01b037f00000000000000000000000000000000000000000000000000000000000000001614610f8f5760405162461bcd60e51b81526004016104e2906127d3565b8451604051600091610fb7916001918e918e91908d908d908c908c908c908c90602001612976565b6040516020818303038152906040529050610fd68c60018b8985611543565b505050505050505050505050565b610fec611434565b565b6001602052600090815260409020805461100790612067565b80601f016020809104026020016040519081016040528092919081815260200182805461103390612067565b80156110805780601f1061105557610100808354040283529160200191611080565b820191906000526020600020905b81548152906001019060200180831161106357829003601f168201915b505050505081565b336001600160a01b037f000000000000000000000000000000000000000000000000000000000000000016146110d05760405162461bcd60e51b81526004016104e2906127d3565b60606000806000806000868060200190518101906110ee91906129aa565b9550955095509550955050600384868b8686866040516020016111179796959493929190612a07565b6040516020818303038152906040529550505050505061113b866003878685611543565b505050505050565b336001600160a01b037f0000000000000000000000000000000000000000000000000000000000000000161461118b5760405162461bcd60e51b81526004016104e2906127d3565b600060028585846040516020016111a59493929190612a53565b604051602081830303815290604052905060006040518060600160405280600081526020016000815260200160405180604001604052806002815260200161060f60f31b8152508152509050610ea5876002868486611543565b611207611434565b6003805460ff1916911515919091179055565b611222611434565b6040516332fb62e760e21b81526001600160a01b037f0000000000000000000000000000000000000000000000000000000000000000169063cbed8b9c906112769088908890889088908890600401612a80565b600060405180830381600087803b15801561129057600080fd5b505af11580156112a4573d6000803e3d6000fd5b505050505050505050565b6112b7611434565b60405163095ea7b360e01b81526001600160a01b0383811660048301526024820183905284169063095ea7b3906044016020604051808303816000875af1158015611306573d6000803e3d6000fd5b505050506040513d601f19601f82011682018060405250810190610f419190612ab9565b611332611434565b6001600160a01b0381166113975760405162461bcd60e51b815260206004820152602660248201527f4f776e61626c653a206e6577206f776e657220697320746865207a65726f206160448201526564647265737360d01b60648201526084016104e2565b6113a0816116e5565b50565b6113ab611434565b60018260ff16101580156113c3575060048260ff1611155b61140f5760405162461bcd60e51b815260206004820152601f60248201527f53746172676174653a20696e76616c6964205f66756e6374696f6e547970650060448201526064016104e2565b61ffff909216600090815260026020908152604080832060ff90941683529290522055565b6000546001600160a01b03163314610fec5760405162461bcd60e51b815260206004820181905260248201527f4f776e61626c653a2063616c6c6572206973206e6f7420746865206f776e657260448201526064016104e2565b60408082015160140151825161ffff861660009081526002602090815284822060ff8816835290529283205460609384939290916114cb91611735565b9050600085602001511180156114e957506001600160a01b03821615155b1561150857611501818660200151876040015161174a565b9250611538565b6115358160408051600160f01b602082015260228082019390935281518082039093018352604201905290565b92505b509095945050505050565b600061155086868561148e565b604051630f428ae960e31b815261ffff881660048201523060248201529091506000906001600160a01b037f00000000000000000000000000000000000000000000000000000000000000001690637a14574890604401602060405180830381865afa1580156115c4573d6000803e3d6000fd5b505050506040513d601f19601f820116820180604052508101906115e89190612ad6565b6115f3906001612b09565b61ffff881660009081526001602052604090819020905162c5803160e81b81529192506001600160a01b037f0000000000000000000000000000000000000000000000000000000000000000169163c580310091349161165f918c9189908c9030908b90600401612b30565b6000604051808303818588803b15801561167857600080fd5b505af115801561168c573d6000803e3d6000fd5b50506040805160ff8b1681526001600160401b03861660208201527f8d3ee0df6a4b7e82a7f20a763f1c6826e6176323e655af64f32318827d2112d494500191506116d49050565b60405180910390a150505050505050565b600080546001600160a01b038381166001600160a01b0319831681178455604051919092169283917f8be0079c531659141344cd1fd0a4f28419497f9722a3daafe3b4186f6b6457e09190a35050565b60006117418284612c08565b90505b92915050565b604051606090600290611767908290879087908790602001612c1b565b6040516020818303038152906040529150509392505050565b803561ffff8116811461179257600080fd5b919050565b634e487b7160e01b600052604160045260246000fd5b604080519081016001600160401b03811182821017156117cf576117cf611797565b60405290565b60405160c081016001600160401b03811182821017156117cf576117cf611797565b604051601f8201601f191681016001600160401b038111828210171561181f5761181f611797565b604052919050565b60006001600160401b0382111561184057611840611797565b50601f01601f191660200190565b600082601f83011261185f57600080fd5b813561187261186d82611827565b6117f7565b81815284602083860101111561188757600080fd5b816020850160208301376000918101602001919091529392505050565b6001600160401b03811681146113a057600080fd5b600080600080608085870312156118cf57600080fd5b6118d885611780565b935060208501356001600160401b03808211156118f457600080fd5b6119008883890161184e565b945060408701359150611912826118a4565b9092506060860135908082111561192857600080fd5b506119358782880161184e565b91505092959194509250565b60ff811681146113a057600080fd5b6000806040838503121561196357600080fd5b61196c83611780565b9150602083013561197c81611941565b809150509250929050565b60006020828403121561199957600080fd5b61174182611780565b60008083601f8401126119b457600080fd5b5081356001600160401b038111156119cb57600080fd5b6020830191508360208285010111156119e357600080fd5b9250929050565b6000606082840312156119fc57600080fd5b604051606081016001600160401b038282108183111715611a1f57611a1f611797565b8160405282935084358352602085013560208401526040850135915080821115611a4857600080fd5b50611a558582860161184e565b6040830152505092915050565b600080600080600080600060a0888a031215611a7d57600080fd5b611a8688611780565b96506020880135611a9681611941565b955060408801356001600160401b0380821115611ab257600080fd5b611abe8b838c016119a2565b909750955060608a0135915080821115611ad757600080fd5b611ae38b838c016119a2565b909550935060808a0135915080821115611afc57600080fd5b50611b098a828b016119ea565b91505092959891949750929550565b6001600160a01b03811681146113a057600080fd5b803561179281611b18565b600060408284031215611b4a57600080fd5b611b526117ad565b9050813581526020820135602082015292915050565b60008060008060008060008060006101208a8c031215611b8757600080fd5b611b908a611780565b985060208a0135975060408a0135965060608a0135611bae81611b18565b9550611bbd8b60808c01611b38565b945060c08a0135935060e08a01356001600160401b0380821115611be057600080fd5b611bec8d838e016119a2565b90955093506101008c0135915080821115611c0657600080fd5b50611c138c828d016119ea565b9150509295985092959850929598565b600080600060408486031215611c3857600080fd5b611c4184611780565b925060208401356001600160401b03811115611c5c57600080fd5b611c68868287016119a2565b9497909650939450505050565b600060c08284031215611c8757600080fd5b60405160c081018181106001600160401b0382111715611ca957611ca9611797565b8060405250809150823581526020830135602082015260408301356040820152606083013560608201526080830135608082015260a083013560a08201525092915050565b60008060008060008060008060008060006101e08c8e031215611d1057600080fd5b611d198c611780565b9a5060208c0135995060408c01359850611d3560608d01611b2d565b9750611d448d60808e01611b38565b9650611d538d60c08e01611c75565b95506001600160401b03806101808e01351115611d6f57600080fd5b611d808e6101808f01358f016119ea565b9550806101a08e01351115611d9457600080fd5b611da58e6101a08f01358f016119a2565b90955093506101c08d0135811015611dbc57600080fd5b50611dce8d6101c08e01358e016119a2565b81935080925050509295989b509295989b9093969950565b60005b83811015611e01578181015183820152602001611de9565b50506000910152565b60008151808452611e22816020860160208601611de6565b601f01601f19169290920160200192915050565b6020815260006117416020830184611e0a565b600080600080600060c08688031215611e6157600080fd5b611e6a86611780565b94506020860135611e7a81611b18565b9350611e898760408801611b38565b925060808601356001600160401b0380821115611ea557600080fd5b611eb189838a016119ea565b935060a0880135915080821115611ec757600080fd5b50611ed48882890161184e565b9150509295509295909350565b600080600080600060c08688031215611ef957600080fd5b611f0286611780565b945060208601359350604086013592506060860135611f2081611b18565b9150611f2f8760808801611b38565b90509295509295909350565b80151581146113a057600080fd5b600060208284031215611f5b57600080fd5b8135611f6681611f3b565b9392505050565b600080600080600060808688031215611f8557600080fd5b611f8e86611780565b9450611f9c60208701611780565b93506040860135925060608601356001600160401b03811115611fbe57600080fd5b611fca888289016119a2565b969995985093965092949392505050565b600080600060608486031215611ff057600080fd5b8335611ffb81611b18565b9250602084013561200b81611b18565b929592945050506040919091013590565b60006020828403121561202e57600080fd5b8135611f6681611b18565b60008060006060848603121561204e57600080fd5b61205784611780565b9250602084013561200b81611941565b600181811c9082168061207b57607f821691505b60208210810361209b57634e487b7160e01b600052602260045260246000fd5b50919050565b60008083546120af81612067565b600182811680156120c757600181146120dc5761210b565b60ff198416875282151583028701945061210b565b8760005260208060002060005b858110156121025781548a8201529084019082016120e9565b50505082870194505b50929695505050505050565b60006040828403121561212957600080fd5b6121316117ad565b9050815181526020820151602082015292915050565b600082601f83011261215857600080fd5b815161216661186d82611827565b81815284602083860101111561217b57600080fd5b61218c826020830160208701611de6565b949350505050565b600080600080600080600080888a036101c08112156121b257600080fd5b89516121bd81611941565b8099505060208a0151975060408a0151965060608a015195506121e38b60808c01612117565b945060c060bf19820112156121f757600080fd5b506122006117d5565b60c08a0151815260e08a015160208201526101008a015160408201526101208a015160608201526101408a015160808201526101608a015160a08201526101808a01519093506001600160401b038082111561225b57600080fd5b6122678c838d01612147565b93506101a08b015191508082111561227e57600080fd5b5061228b8b828c01612147565b9150509295985092959890939650565b61ffff8516815260208082018590526040820184905282516060830152820151608082015260a081015b95945050505050565b60006101c061ffff8c1683528060208401526122ec8184018c611e0a565b6001600160401b038b166040850152606084018a90526080840189905260a084018890526001600160a01b03871660c0850152905061236360e0840186805182526020810151602083015260408101516040830152606081015160608301526080810151608083015260a081015160a08301525050565b8281036101a08401526123768185611e0a565b9c9b505050505050505050505050565b60008060008060a0858703121561239c57600080fd5b84516123a781611941565b60208601516040870151919550935091506123c58660608701612117565b905092959194509250565b6000806000806000806000610100888a0312156123ec57600080fd5b87516123f781611941565b602089015160408a0151919850965094506124158960608a01612117565b935060a0880151925060c0880151915060e08801516001600160401b0381111561243e57600080fd5b611b098a828b01612147565b600061010061ffff8b1683528060208401526124688184018b611e0a565b6001600160401b039990991660408401525050606081019590955260808501939093526001600160a01b039190911660a084015260c083015260e09091015292915050565b60008060008060008060e087890312156124c657600080fd5b86516124d181611941565b60208801516040890151919750955093506124ef8860608901612117565b925060a0870151915060c08701516001600160401b0381111561251157600080fd5b61251d89828a01612147565b9150509295509295509295565b61ffff8816815260e06020820152600061254760e0830189611e0a565b6001600160401b03881660408401528660608401528560808401528460a084015282810360c084015261257a8185611e0a565b9a9950505050505050505050565b81835281816020850137506000828201602090810191909152601f909101601f19169091010190565b60006101c060ff8d16835260ff8c16602084015260ff8b16604084015260ff8a1660608401526125ee608084018a80518252602090810151910152565b875160c0840152602088015160e084015260408801516101008401526060880151610120840152608088015161014084015260a08801516101608401528061018084015261263f8184018789612588565b90508281036101a0840152612655818587612588565b9d9c50505050505050505050505050565b60ff858116825284811660208301528316604082015260a081016122c5606083018480518252602090810151910152565b600061010060ff8b16835260ff8a16602084015260ff891660408401526126cb606084018980518252602090810151910152565b60ff871660a084015260ff861660c08401528060e08401526126f08184018587612588565b9b9a5050505050505050505050565b60ff8816815260ff8716602082015260ff8616604082015261272e606082018680518252602090810151910152565b60ff841660a082015260e060c0820152600061274e60e083018486612588565b9998505050505050505050565b61ffff861681526001600160a01b038516602082015260a06040820181905260009061278990830186611e0a565b841515606084015282810360808401526127a38185611e0a565b98975050505050505050565b600080604083850312156127c257600080fd5b505080516020909101519092909150565b6020808252818101527f53746172676174653a2063616c6c6572206d75737420626520526f757465722e604082015260600190565b60ff88168152866020820152856040820152612831606082018680518252602090810151910152565b8360a082015260e060c0820152600061274e60e083018486612588565b61ffff841681526040602082015260006122c5604083018486612588565b601f8211156128b257600081815260208120601f850160051c810160208610156128935750805b601f850160051c820191505b8181101561113b5782815560010161289f565b505050565b6001600160401b038311156128ce576128ce611797565b6128e2836128dc8354612067565b8361286c565b6000601f84116001811461291657600085156128fe5750838201355b600019600387901b1c1916600186901b178355610a55565b600083815260209020601f19861690835b828110156129475786850135825560209485019460019092019101612927565b50868210156129645760001960f88860031b161c19848701351681555b505060018560011b0183555050505050565b60006101c060ff8d1683528b60208401528a60408401528960608401526125ee608084018a80518252602090810151910152565b60008060008060008060c087890312156129c357600080fd5b86516129ce81611941565b809650506020870151945060408701519350606087015192506080870151915060a08701516001600160401b0381111561251157600080fd5b600061010060ff8a168352886020840152876040840152612a35606084018880518252602090810151910152565b8560a08401528460c08401528060e084015261257a81840185611e0a565b60ff8516815260208082018590526040820184905282516060830152820151608082015260a081016122c5565b600061ffff808816835280871660208401525084604083015260806060830152612aae608083018486612588565b979650505050505050565b600060208284031215612acb57600080fd5b8151611f6681611f3b565b600060208284031215612ae857600080fd5b8151611f66816118a4565b634e487b7160e01b600052601160045260246000fd5b6001600160401b03818116838216019080821115612b2957612b29612af3565b5092915050565b61ffff871681526000602060c08184015260008854612b4e81612067565b8060c087015260e0600180841660008114612b705760018114612b8a57612bb8565b60ff1985168984015283151560051b890183019550612bb8565b8d6000528660002060005b85811015612bb05781548b8201860152908301908801612b95565b8a0184019650505b50505050508381036040850152612bcf8189611e0a565b915050612be760608401876001600160a01b03169052565b6001600160a01b038516608084015282810360a084015261274e8185611e0a565b8082018082111561174457611744612af3565b61ffff60f01b8560f01b16815283600282015282602282015260008251612c49816042850160208701611de6565b919091016042019594505050505056fea26469706673582212208b42f2f4065e361953ae9e8e22652dca39d3b59758decad856a4104f6d458d0f64736f6c63430008110033",
    "linkReferences": {}
  },
  "methodIdentifiers": {
    "approveTokenSpender(address,address,uint256)": "d7d3c3b9",
    "bridgeLookup(uint16)": "8e3b5d6a",
    "forceResumeReceive(uint16,bytes)": "42d65a8d",
    "gasLookup(uint16,uint8)": "02422054",
    "layerZeroEndpoint()": "07968db1",
    "lzReceive(uint16,bytes,uint64,bytes)": "001d3567",
    "owner()": "8da5cb5b",
    "quoteLayerZeroFee(uint16,uint8,bytes,bytes,(uint256,uint256,bytes))": "0a512369",
    "redeemLocal(uint16,uint256,uint256,address,(uint256,uint256),uint256,bytes,(uint256,uint256,bytes))": "3cef94b9",
    "redeemLocalCallback(uint16,address,(uint256,uint256),(uint256,uint256,bytes),bytes)": "96aae4af",
    "renounceOwnership()": "715018a6",
    "router()": "f887ea40",
    "sendCredits(uint16,uint256,uint256,address,(uint256,uint256))": "be9d40ac",
    "setBridge(uint16,bytes)": "43b18009",
    "setConfig(uint16,uint16,uint256,bytes)": "cbed8b9c",
    "setGasAmount(uint16,uint8,uint256)": "fc869108",
    "setReceiveVersion(uint16)": "10ddb137",
    "setSendVersion(uint16)": "07e0db17",
    "setUseLayerZeroToken(bool)": "c213dc2b",
    "swap(uint16,uint256,uint256,address,(uint256,uint256),(uint256,uint256,uint256,uint256,uint256,uint256),(uint256,uint256,bytes),bytes,bytes)": "51156e73",
    "transferOwnership(address)": "f2fde38b",
    "useLayerZeroToken()": "8c7ae0fc"
  },
  "id": 61
}