{
  "abi": [
    {
      "inputs": [
        {
          "internalType": "uint256",
          "name": "_endTimestamp",
          "type": "uint256"
        },
        {
          "internalType": "uint256",
          "name": "_maximumAmountToClaim",
          "type": "uint256"
        },
        {
          "internalType": "address",
          "name": "_omniXToken",
          "type": "address"
        },
        {
          "internalType": "string",
          "name": "domain",
          "type": "string"
        },
        {
          "internalType": "string",
          "name": "domainVersion",
          "type": "string"
        },
        {
          "internalType": "address",
          "name": "_transferManagerERC721",
          "type": "address"
        },
        {
          "internalType": "address",
          "name": "_transferManagerERC1155",
          "type": "address"
        },
        {
          "internalType": "address",
          "name": "_mainStrategy",
          "type": "address"
        },
        {
          "internalType": "address",
          "name": "_weth",
          "type": "address"
        }
      ],
      "stateMutability": "nonpayable",
      "type": "constructor"
    },
    {
      "anonymous": false,
      "inputs": [
        {
          "indexed": true,
          "internalType": "address",
          "name": "user",
          "type": "address"
        },
        {
          "indexed": false,
          "internalType": "uint256",
          "name": "amount",
          "type": "uint256"
        }
      ],
      "name": "AirdropRewardsClaim",
      "type": "event"
    },
    {
      "anonymous": false,
      "inputs": [
        {
          "indexed": false,
          "internalType": "bytes32",
          "name": "merkleRoot",
          "type": "bytes32"
        }
      ],
      "name": "MerkleRootSet",
      "type": "event"
    },
    {
      "anonymous": false,
      "inputs": [
        {
          "indexed": false,
          "internalType": "uint256",
          "name": "endTimestamp",
          "type": "uint256"
        }
      ],
      "name": "NewEndTimestamp",
      "type": "event"
    },
    {
      "anonymous": false,
      "inputs": [
        {
          "indexed": true,
          "internalType": "address",
          "name": "previousOwner",
          "type": "address"
        },
        {
          "indexed": true,
          "internalType": "address",
          "name": "newOwner",
          "type": "address"
        }
      ],
      "name": "OwnershipTransferred",
      "type": "event"
    },
    {
      "anonymous": false,
      "inputs": [
        {
          "indexed": false,
          "internalType": "address",
          "name": "account",
          "type": "address"
        }
      ],
      "name": "Paused",
      "type": "event"
    },
    {
      "anonymous": false,
      "inputs": [
        {
          "indexed": false,
          "internalType": "uint256",
          "name": "amount",
          "type": "uint256"
        }
      ],
      "name": "TokensWithdrawn",
      "type": "event"
    },
    {
      "anonymous": false,
      "inputs": [
        {
          "indexed": false,
          "internalType": "address",
          "name": "account",
          "type": "address"
        }
      ],
      "name": "Unpaused",
      "type": "event"
    },
    {
      "inputs": [],
      "name": "MAIN_STRATEGY",
      "outputs": [
        {
          "internalType": "address",
          "name": "",
          "type": "address"
        }
      ],
      "stateMutability": "view",
      "type": "function"
    },
    {
      "inputs": [],
      "name": "MAXIMUM_AMOUNT_TO_CLAIM",
      "outputs": [
        {
          "internalType": "uint256",
          "name": "",
          "type": "uint256"
        }
      ],
      "stateMutability": "view",
      "type": "function"
    },
    {
      "inputs": [],
      "name": "TRANSFER_MANAGER_ERC1155",
      "outputs": [
        {
          "internalType": "address",
          "name": "",
          "type": "address"
        }
      ],
      "stateMutability": "view",
      "type": "function"
    },
    {
      "inputs": [],
      "name": "TRANSFER_MANAGER_ERC721",
      "outputs": [
        {
          "internalType": "address",
          "name": "",
          "type": "address"
        }
      ],
      "stateMutability": "view",
      "type": "function"
    },
    {
      "inputs": [],
      "name": "WETH",
      "outputs": [
        {
          "internalType": "address",
          "name": "",
          "type": "address"
        }
      ],
      "stateMutability": "view",
      "type": "function"
    },
    {
      "inputs": [
        {
          "internalType": "address",
          "name": "user",
          "type": "address"
        },
        {
          "internalType": "uint256",
          "name": "amount",
          "type": "uint256"
        },
        {
          "internalType": "bytes32[]",
          "name": "merkleProof",
          "type": "bytes32[]"
        }
      ],
      "name": "canClaim",
      "outputs": [
        {
          "internalType": "bool",
          "name": "",
          "type": "bool"
        }
      ],
      "stateMutability": "view",
      "type": "function"
    },
    {
      "inputs": [
        {
          "internalType": "uint256",
          "name": "amount",
          "type": "uint256"
        },
        {
          "internalType": "bytes32[]",
          "name": "merkleProof",
          "type": "bytes32[]"
        },
        {
          "components": [
            {
              "internalType": "bool",
              "name": "isOrderAsk",
              "type": "bool"
            },
            {
              "internalType": "address",
              "name": "signer",
              "type": "address"
            },
            {
              "internalType": "address",
              "name": "collection",
              "type": "address"
            },
            {
              "internalType": "uint256",
              "name": "price",
              "type": "uint256"
            },
            {
              "internalType": "uint256",
              "name": "tokenId",
              "type": "uint256"
            },
            {
              "internalType": "uint256",
              "name": "amount",
              "type": "uint256"
            },
            {
              "internalType": "address",
              "name": "strategy",
              "type": "address"
            },
            {
              "internalType": "address",
              "name": "currency",
              "type": "address"
            },
            {
              "internalType": "uint256",
              "name": "nonce",
              "type": "uint256"
            },
            {
              "internalType": "uint256",
              "name": "startTime",
              "type": "uint256"
            },
            {
              "internalType": "uint256",
              "name": "endTime",
              "type": "uint256"
            },
            {
              "internalType": "bytes",
              "name": "params",
              "type": "bytes"
            },
            {
              "internalType": "bytes",
              "name": "signature",
              "type": "bytes"
            }
          ],
          "internalType": "struct OrderTypes.MakerOrder",
          "name": "makerAsk",
          "type": "tuple"
        },
        {
          "internalType": "bool",
          "name": "isERC721",
          "type": "bool"
        }
      ],
      "name": "claim",
      "outputs": [],
      "stateMutability": "nonpayable",
      "type": "function"
    },
    {
      "inputs": [],
      "name": "endTimestamp",
      "outputs": [
        {
          "internalType": "uint256",
          "name": "",
          "type": "uint256"
        }
      ],
      "stateMutability": "view",
      "type": "function"
    },
    {
      "inputs": [
        {
          "internalType": "address",
          "name": "",
          "type": "address"
        }
      ],
      "name": "hasClaimed",
      "outputs": [
        {
          "internalType": "bool",
          "name": "",
          "type": "bool"
        }
      ],
      "stateMutability": "view",
      "type": "function"
    },
    {
      "inputs": [],
      "name": "isMerkleRootSet",
      "outputs": [
        {
          "internalType": "bool",
          "name": "",
          "type": "bool"
        }
      ],
      "stateMutability": "view",
      "type": "function"
    },
    {
      "inputs": [],
      "name": "merkleRoot",
      "outputs": [
        {
          "internalType": "bytes32",
          "name": "",
          "type": "bytes32"
        }
      ],
      "stateMutability": "view",
      "type": "function"
    },
    {
      "inputs": [],
      "name": "omniXToken",
      "outputs": [
        {
          "internalType": "contract IERC20",
          "name": "",
          "type": "address"
        }
      ],
      "stateMutability": "view",
      "type": "function"
    },
    {
      "inputs": [],
      "name": "owner",
      "outputs": [
        {
          "internalType": "address",
          "name": "",
          "type": "address"
        }
      ],
      "stateMutability": "view",
      "type": "function"
    },
    {
      "inputs": [],
      "name": "pauseAirdrop",
      "outputs": [],
      "stateMutability": "nonpayable",
      "type": "function"
    },
    {
      "inputs": [],
      "name": "paused",
      "outputs": [
        {
          "internalType": "bool",
          "name": "",
          "type": "bool"
        }
      ],
      "stateMutability": "view",
      "type": "function"
    },
    {
      "inputs": [],
      "name": "renounceOwnership",
      "outputs": [],
      "stateMutability": "nonpayable",
      "type": "function"
    },
    {
      "inputs": [
        {
          "internalType": "bytes32",
          "name": "_merkleRoot",
          "type": "bytes32"
        }
      ],
      "name": "setMerkleRoot",
      "outputs": [],
      "stateMutability": "nonpayable",
      "type": "function"
    },
    {
      "inputs": [
        {
          "internalType": "address",
          "name": "newOwner",
          "type": "address"
        }
      ],
      "name": "transferOwnership",
      "outputs": [],
      "stateMutability": "nonpayable",
      "type": "function"
    },
    {
      "inputs": [],
      "name": "unpauseAirdrop",
      "outputs": [],
      "stateMutability": "nonpayable",
      "type": "function"
    },
    {
      "inputs": [
        {
          "internalType": "uint256",
          "name": "newEndTimestamp",
          "type": "uint256"
        }
      ],
      "name": "updateEndTimestamp",
      "outputs": [],
      "stateMutability": "nonpayable",
      "type": "function"
    },
    {
      "inputs": [],
      "name": "withdrawTokenRewards",
      "outputs": [],
      "stateMutability": "nonpayable",
      "type": "function"
    }
  ],
  "bytecode": {
    "object": "0x6102006040523480156200001257600080fd5b50604051620021fd380380620021fd83398101604081905262000035916200024e565b855160208088019190912086518783012060e08290526101008190524660a0818152604080517f8b73c3c69bb8fe3d512ecc4cf759cc79239f7b179b0ffacaa9a75d522b39400f818801819052818301969096526060810194909452608080850193909352308483018190528151808603909301835260c094850190915281519190950120905291909152610120526000805460ff1916905560018055620000dd336200011a565b6004989098556101e0969096526001600160a01b03948516610140529084166101805283166101a052505090811661016052166101c0526200032a565b600280546001600160a01b038381166001600160a01b0319831681179093556040519116919082907f8be0079c531659141344cd1fd0a4f28419497f9722a3daafe3b4186f6b6457e090600090a35050565b80516001600160a01b03811681146200018457600080fd5b919050565b634e487b7160e01b600052604160045260246000fd5b600082601f830112620001b157600080fd5b81516001600160401b0380821115620001ce57620001ce62000189565b604051601f8301601f19908116603f01168101908282118183101715620001f957620001f962000189565b816040528381526020925086838588010111156200021657600080fd5b600091505b838210156200023a57858201830151818301840152908201906200021b565b600093810190920192909252949350505050565b60008060008060008060008060006101208a8c0312156200026e57600080fd5b8951985060208a015197506200028760408b016200016c565b60608b01519097506001600160401b0380821115620002a557600080fd5b620002b38d838e016200019f565b975060808c0151915080821115620002ca57600080fd5b50620002d98c828d016200019f565b955050620002ea60a08b016200016c565b9350620002fa60c08b016200016c565b92506200030a60e08b016200016c565b91506200031b6101008b016200016c565b90509295985092959850929598565b60805160a05160c05160e05161010051610120516101405161016051610180516101a0516101c0516101e051611e09620003f4600039600081816102c401526106740152600081816102630152610f0401526000818161016701526109d701526000818161028a015261091401526000818161020f0152610f510152600081816102eb015281816103d1015281816104530152610b4e015260006113b901526000611408015260006113e30152600061133c01526000611366015260006113900152611e096000f3fe608060405234801561001057600080fd5b50600436106101375760003560e01c80638da5cb5b116100b8578063bd69ba501161007c578063bd69ba50146102bf578063bf5f3aef146102e6578063c6afd5bb1461030d578063dc38bdb514610315578063e96ad3ad14610328578063f2fde38b1461033057600080fd5b80638da5cb5b14610244578063a85adeab14610255578063ad5c46481461025e578063b1357ddd14610285578063b734da09146102ac57600080fd5b80636e1613fb116100ff5780636e1613fb146101cc578063715018a6146101df57806373b2e80e146101e75780637a6d39c61461020a5780637cb647591461023157600080fd5b806315618acd1461013c5780632eb4a7ab1461014657806338928956146101625780635c975abb146101a15780635ff10e39146101b8575b600080fd5b610144610343565b005b61014f60035481565b6040519081526020015b60405180910390f35b6101897f000000000000000000000000000000000000000000000000000000000000000081565b6040516001600160a01b039091168152602001610159565b60005460ff165b6040519015158152602001610159565b6002546101a890600160a01b900460ff1681565b6101446101da3660046118a8565b6104b1565b610144610549565b6101a86101f53660046118dd565b60056020526000908152604090205460ff1681565b6101897f000000000000000000000000000000000000000000000000000000000000000081565b61014461023f3660046118a8565b61055d565b6002546001600160a01b0316610189565b61014f60045481565b6101897f000000000000000000000000000000000000000000000000000000000000000081565b6101897f000000000000000000000000000000000000000000000000000000000000000081565b6101446102ba366004611956565b610609565b61014f7f000000000000000000000000000000000000000000000000000000000000000081565b6101897f000000000000000000000000000000000000000000000000000000000000000081565b610144610bc5565b6101a86103233660046119e4565b610bdd565b610144610c7e565b61014461033e3660046118dd565b610c96565b61034b610d0f565b60045461035b9062015180611a54565b42116103b95760405162461bcd60e51b815260206004820152602260248201527f4f776e65723a20546f6f206561726c7920746f2072656d6f7665207265776172604482015261647360f01b60648201526084015b60405180910390fd5b6040516370a0823160e01b81523060048201526000907f00000000000000000000000000000000000000000000000000000000000000006001600160a01b0316906370a0823190602401602060405180830381865afa158015610420573d6000803e3d6000fd5b505050506040513d601f19601f820116820180604052508101906104449190611a67565b905061047a6001600160a01b037f0000000000000000000000000000000000000000000000000000000000000000163383610d69565b6040518181527f9c6393f251205f9e03559951cab4c9ae71767b6174f77944a5b0c2fa51fbda9f906020015b60405180910390a150565b6104b9610d0f565b806104c74262278d00611a54565b116105145760405162461bcd60e51b815260206004820152601c60248201527f4f776e65723a204e65772074696d657374616d7020746f6f206661720000000060448201526064016103b0565b60048190556040518181527fac7d83845fcc6871010ded05a8cb9bddee5cc49fdb8f2d24b96141d401b6bfed906020016104a6565b610551610d0f565b61055b6000610dc0565b565b610565610d0f565b600254600160a01b900460ff16156105bf5760405162461bcd60e51b815260206004820152601e60248201527f4f776e65723a204d65726b6c6520726f6f7420616c726561647920736574000060448201526064016103b0565b6002805460ff60a01b1916600160a01b17905560038190556040517f42cbc405e4dbf1b691e85b9a34b08ecfcf7a9ad9078bf4d645ccfa1fac11c10b906104a69083815260200190565b610611610e12565b610619610e58565b600254600160a01b900460ff166106725760405162461bcd60e51b815260206004820152601c60248201527f41697264726f703a204d65726b6c6520726f6f74206e6f74207365740000000060448201526064016103b0565b7f00000000000000000000000000000000000000000000000000000000000000008511156106e25760405162461bcd60e51b815260206004820152601860248201527f41697264726f703a20416d6f756e7420746f6f2068696768000000000000000060448201526064016103b0565b6004544211156107345760405162461bcd60e51b815260206004820152601a60248201527f41697264726f703a20546f6f206c61746520746f20636c61696d00000000000060448201526064016103b0565b3360009081526005602052604090205460ff16156107945760405162461bcd60e51b815260206004820152601860248201527f41697264726f703a20416c726561647920636c61696d6564000000000000000060448201526064016103b0565b61079d82610eb1565b6107f95760405162461bcd60e51b815260206004820152602760248201527f41697264726f703a204f72646572206e6f7420656c696769626c6520666f7220604482015266061697264726f760cc1b60648201526084016103b0565b600061080c61080784611b4d565b610f92565b90506000610819826110a6565b905061082b60408501602086016118dd565b6001600160a01b031661088b610845610180870187611c56565b8080601f01602080910402602001604051908101604052809392919081815260200183838082843760009201919091525061088592508691506110f49050565b90611147565b6001600160a01b0316146108e15760405162461bcd60e51b815260206004820152601a60248201527f41697264726f703a205369676e617475726520696e76616c696400000000000060448201526064016103b0565b82156109aa576108f760608501604086016118dd565b60405163e985e9c560e01b81523360048201526001600160a01b037f000000000000000000000000000000000000000000000000000000000000000081166024830152919091169063e985e9c590604401602060405180830381865afa158015610965573d6000803e3d6000fd5b505050506040513d601f19601f820116820180604052508101906109899190611c9d565b6109a55760405162461bcd60e51b81526004016103b090611cba565b610a68565b6109ba60608501604086016118dd565b60405163e985e9c560e01b81523360048201526001600160a01b037f000000000000000000000000000000000000000000000000000000000000000081166024830152919091169063e985e9c590604401602060405180830381865afa158015610a28573d6000803e3d6000fd5b505050506040513d601f19601f82011682018060405250810190610a4c9190611c9d565b610a685760405162461bcd60e51b81526004016103b090611cba565b6040516bffffffffffffffffffffffff193360601b16602082015260348101889052600090605401604051602081830303815290604052805190602001209050610ae987878080602002602001604051908101604052809392919081815260200183836020028082843760009201919091525050600354915084905061116b565b610b2e5760405162461bcd60e51b815260206004820152601660248201527520b4b9323937b81d1024b73b30b634b210383937b7b360511b60448201526064016103b0565b336000818152600560205260409020805460ff19166001179055610b7d907f00000000000000000000000000000000000000000000000000000000000000006001600160a01b0316908a610d69565b60405188815233907f19552fadade1a47d8fa44f6487230cfff67275de6e68fbfba65171532768fd7d9060200160405180910390a2505050610bbe60018055565b5050505050565b610bcd610d0f565b610bd5610e12565b61055b611181565b60006004544211610c72576040516bffffffffffffffffffffffff19606087901b16602082015260348101859052600090605401604051602081830303815290604052805190602001209050610c6a84848080602002602001604051908101604052809392919081815260200183836020028082843760009201919091525050600354915084905061116b565b915050610c76565b5060005b949350505050565b610c86610d0f565b610c8e6111db565b61055b611224565b610c9e610d0f565b6001600160a01b038116610d035760405162461bcd60e51b815260206004820152602660248201527f4f776e61626c653a206e6577206f776e657220697320746865207a65726f206160448201526564647265737360d01b60648201526084016103b0565b610d0c81610dc0565b50565b6002546001600160a01b0316331461055b5760405162461bcd60e51b815260206004820181905260248201527f4f776e61626c653a2063616c6c6572206973206e6f7420746865206f776e657260448201526064016103b0565b604080516001600160a01b038416602482015260448082018490528251808303909101815260649091019091526020810180516001600160e01b031663a9059cbb60e01b179052610dbb90849061125d565b505050565b600280546001600160a01b038381166001600160a01b0319831681179093556040519116919082907f8be0079c531659141344cd1fd0a4f28419497f9722a3daafe3b4186f6b6457e090600090a35050565b60005460ff161561055b5760405162461bcd60e51b815260206004820152601060248201526f14185d5cd8589b194e881c185d5cd95960821b60448201526064016103b0565b600260015403610eaa5760405162461bcd60e51b815260206004820152601f60248201527f5265656e7472616e637947756172643a207265656e7472616e742063616c6c0060448201526064016103b0565b6002600155565b6000610ec06020830183611cfe565b8015610ee3575033610ed860408401602085016118dd565b6001600160a01b0316145b8015610ef3575060008260a00135115b8015610f4057506001600160a01b037f000000000000000000000000000000000000000000000000000000000000000016610f35610100840160e085016118dd565b6001600160a01b0316145b8015610f8c57506001600160a01b037f000000000000000000000000000000000000000000000000000000000000000016610f8160e0840160c085016118dd565b6001600160a01b0316145b92915050565b6000807f5ecbfd19307447ee7e4f336494603909c6ececa499f9a16b338a0639daa8ea2f60001b836000015184602001518560400151866060015187608001518860a001518960c001518a60e001518b61010001518c61012001518d61014001518e6101600151805190602001206040516020016110879d9c9b9a999897969594939291909c8d529a151560208d01526001600160a01b03998a1660408d015297891660608c015260808b019690965260a08a019490945260c0890192909252851660e08801529093166101008601526101208501929092526101408401919091526101608301526101808201526101a00190565b60408051601f1981840301815291905280516020909101209392505050565b6000610f8c6110b361132f565b8360405161190160f01b6020820152602281018390526042810182905260009060620160405160208183030381529060405280519060200120905092915050565b6040517f19457468657265756d205369676e6564204d6573736167653a0a3332000000006020820152603c8101829052600090605c01604051602081830303815290604052805190602001209050919050565b60008060006111568585611456565b915091506111638161149b565b509392505050565b60008261117885846115e5565b14949350505050565b611189610e12565b6000805460ff191660011790557f62e78cea01bee320cd4e420270b5ea74000d11b0c9f74754ebdbfc544b05a2586111be3390565b6040516001600160a01b03909116815260200160405180910390a1565b60005460ff1661055b5760405162461bcd60e51b815260206004820152601460248201527314185d5cd8589b194e881b9bdd081c185d5cd95960621b60448201526064016103b0565b61122c6111db565b6000805460ff191690557f5db9ee0a495bf2e6ff9c91a7834c1ba4fdd244a5e8aa4e537bd38aeae4b073aa336111be565b60006112b2826040518060400160405280602081526020017f5361666545524332303a206c6f772d6c6576656c2063616c6c206661696c6564815250856001600160a01b031661162a9092919063ffffffff16565b805190915015610dbb57808060200190518101906112d09190611c9d565b610dbb5760405162461bcd60e51b815260206004820152602a60248201527f5361666545524332303a204552433230206f7065726174696f6e20646964206e6044820152691bdd081cdd58d8d9595960b21b60648201526084016103b0565b6000306001600160a01b037f00000000000000000000000000000000000000000000000000000000000000001614801561138857507f000000000000000000000000000000000000000000000000000000000000000046145b156113b257507f000000000000000000000000000000000000000000000000000000000000000090565b50604080517f00000000000000000000000000000000000000000000000000000000000000006020808301919091527f0000000000000000000000000000000000000000000000000000000000000000828401527f000000000000000000000000000000000000000000000000000000000000000060608301524660808301523060a0808401919091528351808403909101815260c0909201909252805191012090565b600080825160410361148c5760208301516040840151606085015160001a61148087828585611639565b94509450505050611494565b506000905060025b9250929050565b60008160048111156114af576114af611d1b565b036114b75750565b60018160048111156114cb576114cb611d1b565b036115185760405162461bcd60e51b815260206004820152601860248201527f45434453413a20696e76616c6964207369676e6174757265000000000000000060448201526064016103b0565b600281600481111561152c5761152c611d1b565b036115795760405162461bcd60e51b815260206004820152601f60248201527f45434453413a20696e76616c6964207369676e6174757265206c656e6774680060448201526064016103b0565b600381600481111561158d5761158d611d1b565b03610d0c5760405162461bcd60e51b815260206004820152602260248201527f45434453413a20696e76616c6964207369676e6174757265202773272076616c604482015261756560f01b60648201526084016103b0565b600081815b8451811015611163576116168286838151811061160957611609611d31565b60200260200101516116fd565b91508061162281611d47565b9150506115ea565b6060610c76848460008561172f565b6000807f7fffffffffffffffffffffffffffffff5d576e7357a4501ddfe92f46681b20a083111561167057506000905060036116f4565b6040805160008082526020820180845289905260ff881692820192909252606081018690526080810185905260019060a0016020604051602081039080840390855afa1580156116c4573d6000803e3d6000fd5b5050604051601f1901519150506001600160a01b0381166116ed576000600192509250506116f4565b9150600090505b94509492505050565b6000818310611719576000828152602084905260409020611728565b60008381526020839052604090205b9392505050565b6060824710156117905760405162461bcd60e51b815260206004820152602660248201527f416464726573733a20696e73756666696369656e742062616c616e636520666f6044820152651c8818d85b1b60d21b60648201526084016103b0565b600080866001600160a01b031685876040516117ac9190611d84565b60006040518083038185875af1925050503d80600081146117e9576040519150601f19603f3d011682016040523d82523d6000602084013e6117ee565b606091505b50915091506117ff8783838761180a565b979650505050505050565b60608315611879578251600003611872576001600160a01b0385163b6118725760405162461bcd60e51b815260206004820152601d60248201527f416464726573733a2063616c6c20746f206e6f6e2d636f6e747261637400000060448201526064016103b0565b5081610c76565b610c76838381511561188e5781518083602001fd5b8060405162461bcd60e51b81526004016103b09190611da0565b6000602082840312156118ba57600080fd5b5035919050565b80356001600160a01b03811681146118d857600080fd5b919050565b6000602082840312156118ef57600080fd5b611728826118c1565b60008083601f84011261190a57600080fd5b50813567ffffffffffffffff81111561192257600080fd5b6020830191508360208260051b850101111561149457600080fd5b8015158114610d0c57600080fd5b80356118d88161193d565b60008060008060006080868803121561196e57600080fd5b85359450602086013567ffffffffffffffff8082111561198d57600080fd5b61199989838a016118f8565b909650945060408801359150808211156119b257600080fd5b5086016101a081890312156119c657600080fd5b915060608601356119d68161193d565b809150509295509295909350565b600080600080606085870312156119fa57600080fd5b611a03856118c1565b935060208501359250604085013567ffffffffffffffff811115611a2657600080fd5b611a32878288016118f8565b95989497509550505050565b634e487b7160e01b600052601160045260246000fd5b80820180821115610f8c57610f8c611a3e565b600060208284031215611a7957600080fd5b5051919050565b634e487b7160e01b600052604160045260246000fd5b6040516101a0810167ffffffffffffffff81118282101715611aba57611aba611a80565b60405290565b600082601f830112611ad157600080fd5b813567ffffffffffffffff80821115611aec57611aec611a80565b604051601f8301601f19908116603f01168101908282118183101715611b1457611b14611a80565b81604052838152866020858801011115611b2d57600080fd5b836020870160208301376000602085830101528094505050505092915050565b60006101a08236031215611b6057600080fd5b611b68611a96565b611b718361194b565b8152611b7f602084016118c1565b6020820152611b90604084016118c1565b6040820152606083013560608201526080830135608082015260a083013560a0820152611bbf60c084016118c1565b60c0820152611bd060e084016118c1565b60e08201526101008381013590820152610120808401359082015261014080840135908201526101608084013567ffffffffffffffff80821115611c1357600080fd5b611c1f36838801611ac0565b83850152610180925082860135915080821115611c3b57600080fd5b50611c4836828701611ac0565b918301919091525092915050565b6000808335601e19843603018112611c6d57600080fd5b83018035915067ffffffffffffffff821115611c8857600080fd5b60200191503681900382131561149457600080fd5b600060208284031215611caf57600080fd5b81516117288161193d565b60208082526024908201527f41697264726f703a20436f6c6c656374696f6e206d75737420626520617070726040820152631bdd995960e21b606082015260800190565b600060208284031215611d1057600080fd5b81356117288161193d565b634e487b7160e01b600052602160045260246000fd5b634e487b7160e01b600052603260045260246000fd5b600060018201611d5957611d59611a3e565b5060010190565b60005b83811015611d7b578181015183820152602001611d63565b50506000910152565b60008251611d96818460208701611d60565b9190910192915050565b6020815260008251806020840152611dbf816040850160208701611d60565b601f01601f1916919091016040019291505056fea264697066735822122040ef7bbdf2aa131554dd13a3364a398ea51d0c767141ec6a9a823d811d60727b64736f6c63430008110033",
    "linkReferences": {}
  },
  "methodIdentifiers": {
    "MAIN_STRATEGY()": "7a6d39c6",
    "MAXIMUM_AMOUNT_TO_CLAIM()": "bd69ba50",
    "TRANSFER_MANAGER_ERC1155()": "38928956",
    "TRANSFER_MANAGER_ERC721()": "b1357ddd",
    "WETH()": "ad5c4648",
    "canClaim(address,uint256,bytes32[])": "dc38bdb5",
    "claim(uint256,bytes32[],(bool,address,address,uint256,uint256,uint256,address,address,uint256,uint256,uint256,bytes,bytes),bool)": "b734da09",
    "endTimestamp()": "a85adeab",
    "hasClaimed(address)": "73b2e80e",
    "isMerkleRootSet()": "5ff10e39",
    "merkleRoot()": "2eb4a7ab",
    "omniXToken()": "bf5f3aef",
    "owner()": "8da5cb5b",
    "pauseAirdrop()": "c6afd5bb",
    "paused()": "5c975abb",
    "renounceOwnership()": "715018a6",
    "setMerkleRoot(bytes32)": "7cb64759",
    "transferOwnership(address)": "f2fde38b",
    "unpauseAirdrop()": "e96ad3ad",
    "updateEndTimestamp(uint256)": "6e1613fb",
    "withdrawTokenRewards()": "15618acd"
  },
  "id": 58
}