{
  "abi": [
    {
      "inputs": [
        {
          "internalType": "uint16",
          "name": "_chainId",
          "type": "uint16"
        }
      ],
      "stateMutability": "nonpayable",
      "type": "constructor"
    },
    {
      "anonymous": false,
      "inputs": [
        {
          "indexed": false,
          "internalType": "uint16",
          "name": "srcChainId",
          "type": "uint16"
        },
        {
          "indexed": false,
          "internalType": "bytes",
          "name": "srcAddress",
          "type": "bytes"
        },
        {
          "indexed": false,
          "internalType": "uint64",
          "name": "nonce",
          "type": "uint64"
        },
        {
          "indexed": false,
          "internalType": "address",
          "name": "dstAddress",
          "type": "address"
        }
      ],
      "name": "PayloadCleared",
      "type": "event"
    },
    {
      "anonymous": false,
      "inputs": [
        {
          "indexed": false,
          "internalType": "uint16",
          "name": "srcChainId",
          "type": "uint16"
        },
        {
          "indexed": false,
          "internalType": "bytes",
          "name": "srcAddress",
          "type": "bytes"
        },
        {
          "indexed": false,
          "internalType": "address",
          "name": "dstAddress",
          "type": "address"
        },
        {
          "indexed": false,
          "internalType": "uint64",
          "name": "nonce",
          "type": "uint64"
        },
        {
          "indexed": false,
          "internalType": "bytes",
          "name": "payload",
          "type": "bytes"
        },
        {
          "indexed": false,
          "internalType": "bytes",
          "name": "reason",
          "type": "bytes"
        }
      ],
      "name": "PayloadStored",
      "type": "event"
    },
    {
      "anonymous": false,
      "inputs": [
        {
          "indexed": false,
          "internalType": "uint16",
          "name": "chainId",
          "type": "uint16"
        },
        {
          "indexed": false,
          "internalType": "bytes",
          "name": "srcAddress",
          "type": "bytes"
        }
      ],
      "name": "UaForceResumeReceive",
      "type": "event"
    },
    {
      "anonymous": false,
      "inputs": [
        {
          "indexed": true,
          "internalType": "address",
          "name": "to",
          "type": "address"
        },
        {
          "indexed": true,
          "internalType": "uint256",
          "name": "quantity",
          "type": "uint256"
        }
      ],
      "name": "ValueTransferFailed",
      "type": "event"
    },
    {
      "inputs": [],
      "name": "blockNextMsg",
      "outputs": [],
      "stateMutability": "nonpayable",
      "type": "function"
    },
    {
      "inputs": [],
      "name": "defaultAdapterParams",
      "outputs": [
        {
          "internalType": "bytes",
          "name": "",
          "type": "bytes"
        }
      ],
      "stateMutability": "view",
      "type": "function"
    },
    {
      "inputs": [
        {
          "internalType": "uint16",
          "name": "_dstChainId",
          "type": "uint16"
        },
        {
          "internalType": "address",
          "name": "_userApplication",
          "type": "address"
        },
        {
          "internalType": "bytes",
          "name": "_payload",
          "type": "bytes"
        },
        {
          "internalType": "bool",
          "name": "_payInZRO",
          "type": "bool"
        },
        {
          "internalType": "bytes",
          "name": "_adapterParams",
          "type": "bytes"
        }
      ],
      "name": "estimateFees",
      "outputs": [
        {
          "internalType": "uint256",
          "name": "nativeFee",
          "type": "uint256"
        },
        {
          "internalType": "uint256",
          "name": "zroFee",
          "type": "uint256"
        }
      ],
      "stateMutability": "view",
      "type": "function"
    },
    {
      "inputs": [
        {
          "internalType": "uint16",
          "name": "_srcChainId",
          "type": "uint16"
        },
        {
          "internalType": "bytes",
          "name": "_path",
          "type": "bytes"
        }
      ],
      "name": "forceResumeReceive",
      "outputs": [],
      "stateMutability": "nonpayable",
      "type": "function"
    },
    {
      "inputs": [],
      "name": "getChainId",
      "outputs": [
        {
          "internalType": "uint16",
          "name": "",
          "type": "uint16"
        }
      ],
      "stateMutability": "view",
      "type": "function"
    },
    {
      "inputs": [
        {
          "internalType": "uint16",
          "name": "",
          "type": "uint16"
        },
        {
          "internalType": "uint16",
          "name": "",
          "type": "uint16"
        },
        {
          "internalType": "address",
          "name": "",
          "type": "address"
        },
        {
          "internalType": "uint256",
          "name": "",
          "type": "uint256"
        }
      ],
      "name": "getConfig",
      "outputs": [
        {
          "internalType": "bytes",
          "name": "",
          "type": "bytes"
        }
      ],
      "stateMutability": "pure",
      "type": "function"
    },
    {
      "inputs": [
        {
          "internalType": "uint16",
          "name": "_chainID",
          "type": "uint16"
        },
        {
          "internalType": "bytes",
          "name": "_path",
          "type": "bytes"
        }
      ],
      "name": "getInboundNonce",
      "outputs": [
        {
          "internalType": "uint64",
          "name": "",
          "type": "uint64"
        }
      ],
      "stateMutability": "view",
      "type": "function"
    },
    {
      "inputs": [
        {
          "internalType": "uint16",
          "name": "_srcChainId",
          "type": "uint16"
        },
        {
          "internalType": "bytes",
          "name": "_srcAddress",
          "type": "bytes"
        }
      ],
      "name": "getLengthOfQueue",
      "outputs": [
        {
          "internalType": "uint256",
          "name": "",
          "type": "uint256"
        }
      ],
      "stateMutability": "view",
      "type": "function"
    },
    {
      "inputs": [
        {
          "internalType": "uint16",
          "name": "_chainID",
          "type": "uint16"
        },
        {
          "internalType": "address",
          "name": "_srcAddress",
          "type": "address"
        }
      ],
      "name": "getOutboundNonce",
      "outputs": [
        {
          "internalType": "uint64",
          "name": "",
          "type": "uint64"
        }
      ],
      "stateMutability": "view",
      "type": "function"
    },
    {
      "inputs": [
        {
          "internalType": "address",
          "name": "",
          "type": "address"
        }
      ],
      "name": "getReceiveLibraryAddress",
      "outputs": [
        {
          "internalType": "address",
          "name": "",
          "type": "address"
        }
      ],
      "stateMutability": "view",
      "type": "function"
    },
    {
      "inputs": [
        {
          "internalType": "address",
          "name": "",
          "type": "address"
        }
      ],
      "name": "getReceiveVersion",
      "outputs": [
        {
          "internalType": "uint16",
          "name": "",
          "type": "uint16"
        }
      ],
      "stateMutability": "pure",
      "type": "function"
    },
    {
      "inputs": [
        {
          "internalType": "address",
          "name": "",
          "type": "address"
        }
      ],
      "name": "getSendLibraryAddress",
      "outputs": [
        {
          "internalType": "address",
          "name": "",
          "type": "address"
        }
      ],
      "stateMutability": "view",
      "type": "function"
    },
    {
      "inputs": [
        {
          "internalType": "address",
          "name": "",
          "type": "address"
        }
      ],
      "name": "getSendVersion",
      "outputs": [
        {
          "internalType": "uint16",
          "name": "",
          "type": "uint16"
        }
      ],
      "stateMutability": "pure",
      "type": "function"
    },
    {
      "inputs": [
        {
          "internalType": "uint16",
          "name": "_srcChainId",
          "type": "uint16"
        },
        {
          "internalType": "bytes",
          "name": "_path",
          "type": "bytes"
        }
      ],
      "name": "hasStoredPayload",
      "outputs": [
        {
          "internalType": "bool",
          "name": "",
          "type": "bool"
        }
      ],
      "stateMutability": "view",
      "type": "function"
    },
    {
      "inputs": [
        {
          "internalType": "uint16",
          "name": "",
          "type": "uint16"
        },
        {
          "internalType": "bytes",
          "name": "",
          "type": "bytes"
        }
      ],
      "name": "inboundNonce",
      "outputs": [
        {
          "internalType": "uint64",
          "name": "",
          "type": "uint64"
        }
      ],
      "stateMutability": "view",
      "type": "function"
    },
    {
      "inputs": [],
      "name": "isReceivingPayload",
      "outputs": [
        {
          "internalType": "bool",
          "name": "",
          "type": "bool"
        }
      ],
      "stateMutability": "view",
      "type": "function"
    },
    {
      "inputs": [],
      "name": "isSendingPayload",
      "outputs": [
        {
          "internalType": "bool",
          "name": "",
          "type": "bool"
        }
      ],
      "stateMutability": "view",
      "type": "function"
    },
    {
      "inputs": [
        {
          "internalType": "address",
          "name": "",
          "type": "address"
        }
      ],
      "name": "lzEndpointLookup",
      "outputs": [
        {
          "internalType": "address",
          "name": "",
          "type": "address"
        }
      ],
      "stateMutability": "view",
      "type": "function"
    },
    {
      "inputs": [],
      "name": "mockChainId",
      "outputs": [
        {
          "internalType": "uint16",
          "name": "",
          "type": "uint16"
        }
      ],
      "stateMutability": "view",
      "type": "function"
    },
    {
      "inputs": [
        {
          "internalType": "uint16",
          "name": "",
          "type": "uint16"
        },
        {
          "internalType": "bytes",
          "name": "",
          "type": "bytes"
        },
        {
          "internalType": "uint256",
          "name": "",
          "type": "uint256"
        }
      ],
      "name": "msgsToDeliver",
      "outputs": [
        {
          "internalType": "address",
          "name": "dstAddress",
          "type": "address"
        },
        {
          "internalType": "uint64",
          "name": "nonce",
          "type": "uint64"
        },
        {
          "internalType": "bytes",
          "name": "payload",
          "type": "bytes"
        }
      ],
      "stateMutability": "view",
      "type": "function"
    },
    {
      "inputs": [],
      "name": "nextMsgBlocked",
      "outputs": [
        {
          "internalType": "bool",
          "name": "",
          "type": "bool"
        }
      ],
      "stateMutability": "view",
      "type": "function"
    },
    {
      "inputs": [],
      "name": "oracleFee",
      "outputs": [
        {
          "internalType": "uint256",
          "name": "",
          "type": "uint256"
        }
      ],
      "stateMutability": "view",
      "type": "function"
    },
    {
      "inputs": [
        {
          "internalType": "uint16",
          "name": "",
          "type": "uint16"
        },
        {
          "internalType": "address",
          "name": "",
          "type": "address"
        }
      ],
      "name": "outboundNonce",
      "outputs": [
        {
          "internalType": "uint64",
          "name": "",
          "type": "uint64"
        }
      ],
      "stateMutability": "view",
      "type": "function"
    },
    {
      "inputs": [],
      "name": "protocolFeeConfig",
      "outputs": [
        {
          "internalType": "uint256",
          "name": "zroFee",
          "type": "uint256"
        },
        {
          "internalType": "uint256",
          "name": "nativeBP",
          "type": "uint256"
        }
      ],
      "stateMutability": "view",
      "type": "function"
    },
    {
      "inputs": [
        {
          "internalType": "uint16",
          "name": "_srcChainId",
          "type": "uint16"
        },
        {
          "internalType": "bytes",
          "name": "_path",
          "type": "bytes"
        },
        {
          "internalType": "address",
          "name": "_dstAddress",
          "type": "address"
        },
        {
          "internalType": "uint64",
          "name": "_nonce",
          "type": "uint64"
        },
        {
          "internalType": "uint256",
          "name": "_gasLimit",
          "type": "uint256"
        },
        {
          "internalType": "bytes",
          "name": "_payload",
          "type": "bytes"
        }
      ],
      "name": "receivePayload",
      "outputs": [],
      "stateMutability": "nonpayable",
      "type": "function"
    },
    {
      "inputs": [],
      "name": "relayerFeeConfig",
      "outputs": [
        {
          "internalType": "uint128",
          "name": "dstPriceRatio",
          "type": "uint128"
        },
        {
          "internalType": "uint128",
          "name": "dstGasPriceInWei",
          "type": "uint128"
        },
        {
          "internalType": "uint128",
          "name": "dstNativeAmtCap",
          "type": "uint128"
        },
        {
          "internalType": "uint64",
          "name": "baseGas",
          "type": "uint64"
        },
        {
          "internalType": "uint64",
          "name": "gasPerByte",
          "type": "uint64"
        }
      ],
      "stateMutability": "view",
      "type": "function"
    },
    {
      "inputs": [
        {
          "internalType": "uint16",
          "name": "_srcChainId",
          "type": "uint16"
        },
        {
          "internalType": "bytes",
          "name": "_path",
          "type": "bytes"
        },
        {
          "internalType": "bytes",
          "name": "_payload",
          "type": "bytes"
        }
      ],
      "name": "retryPayload",
      "outputs": [],
      "stateMutability": "nonpayable",
      "type": "function"
    },
    {
      "inputs": [
        {
          "internalType": "uint16",
          "name": "_chainId",
          "type": "uint16"
        },
        {
          "internalType": "bytes",
          "name": "_path",
          "type": "bytes"
        },
        {
          "internalType": "bytes",
          "name": "_payload",
          "type": "bytes"
        },
        {
          "internalType": "address payable",
          "name": "_refundAddress",
          "type": "address"
        },
        {
          "internalType": "address",
          "name": "_zroPaymentAddress",
          "type": "address"
        },
        {
          "internalType": "bytes",
          "name": "_adapterParams",
          "type": "bytes"
        }
      ],
      "name": "send",
      "outputs": [],
      "stateMutability": "payable",
      "type": "function"
    },
    {
      "inputs": [
        {
          "internalType": "uint16",
          "name": "",
          "type": "uint16"
        },
        {
          "internalType": "uint16",
          "name": "",
          "type": "uint16"
        },
        {
          "internalType": "uint256",
          "name": "",
          "type": "uint256"
        },
        {
          "internalType": "bytes",
          "name": "",
          "type": "bytes"
        }
      ],
      "name": "setConfig",
      "outputs": [],
      "stateMutability": "nonpayable",
      "type": "function"
    },
    {
      "inputs": [
        {
          "internalType": "bytes",
          "name": "_adapterParams",
          "type": "bytes"
        }
      ],
      "name": "setDefaultAdapterParams",
      "outputs": [],
      "stateMutability": "nonpayable",
      "type": "function"
    },
    {
      "inputs": [
        {
          "internalType": "address",
          "name": "destAddr",
          "type": "address"
        },
        {
          "internalType": "address",
          "name": "lzEndpointAddr",
          "type": "address"
        }
      ],
      "name": "setDestLzEndpoint",
      "outputs": [],
      "stateMutability": "nonpayable",
      "type": "function"
    },
    {
      "inputs": [
        {
          "internalType": "uint256",
          "name": "_oracleFee",
          "type": "uint256"
        }
      ],
      "name": "setOracleFee",
      "outputs": [],
      "stateMutability": "nonpayable",
      "type": "function"
    },
    {
      "inputs": [
        {
          "internalType": "uint256",
          "name": "_zroFee",
          "type": "uint256"
        },
        {
          "internalType": "uint256",
          "name": "_nativeBP",
          "type": "uint256"
        }
      ],
      "name": "setProtocolFee",
      "outputs": [],
      "stateMutability": "nonpayable",
      "type": "function"
    },
    {
      "inputs": [
        {
          "internalType": "uint16",
          "name": "",
          "type": "uint16"
        }
      ],
      "name": "setReceiveVersion",
      "outputs": [],
      "stateMutability": "nonpayable",
      "type": "function"
    },
    {
      "inputs": [
        {
          "internalType": "uint128",
          "name": "_dstPriceRatio",
          "type": "uint128"
        },
        {
          "internalType": "uint128",
          "name": "_dstGasPriceInWei",
          "type": "uint128"
        },
        {
          "internalType": "uint128",
          "name": "_dstNativeAmtCap",
          "type": "uint128"
        },
        {
          "internalType": "uint64",
          "name": "_baseGas",
          "type": "uint64"
        },
        {
          "internalType": "uint64",
          "name": "_gasPerByte",
          "type": "uint64"
        }
      ],
      "name": "setRelayerPrice",
      "outputs": [],
      "stateMutability": "nonpayable",
      "type": "function"
    },
    {
      "inputs": [
        {
          "internalType": "uint16",
          "name": "",
          "type": "uint16"
        }
      ],
      "name": "setSendVersion",
      "outputs": [],
      "stateMutability": "nonpayable",
      "type": "function"
    },
    {
      "inputs": [
        {
          "internalType": "uint16",
          "name": "",
          "type": "uint16"
        },
        {
          "internalType": "bytes",
          "name": "",
          "type": "bytes"
        }
      ],
      "name": "storedPayload",
      "outputs": [
        {
          "internalType": "uint64",
          "name": "payloadLength",
          "type": "uint64"
        },
        {
          "internalType": "address",
          "name": "dstAddress",
          "type": "address"
        },
        {
          "internalType": "bytes32",
          "name": "payloadHash",
          "type": "bytes32"
        }
      ],
      "stateMutability": "view",
      "type": "function"
    }
  ],
  "bytecode": {
    "object": "0x608034620002b557601f1962002b0038819003601f810183168401936001600160401b03929091828610848711176200029f5780839260409788528339602092839181010312620002b557519061ffff8216809203620002b55761ffff199161010183600c541617600c55600192835416178255845160a08101818110858211176200029f5786526402540be40080825282820152678ac7230489e8000086820152606460608201526080018290527402540be400000000000000000000000002540be4006002557801000000000000006400000000000000008ac7230489e80000600355845180860190848211818310176200029f5782918752670de0b6b3a7640000908181526103e89283910152600455600555662386f26fc100006006558451600160f01b8282015262030d4060228201526022815260608101818110858211176200029f57865280519384116200029f576007548381811c9116801562000294575b838210146200027e57601f81116200022f575b5081601f8511600114620001c4575083945090839291600094620001b8575b50501b916000199060031b1c1916176007555b516128459081620002bb8239f35b01519250388062000197565b929484908116600760005284600020946000905b88838310620002145750505010620001fa575b505050811b01600755620001aa565b015160001960f88460031b161c19169055388080620001eb565b858701518855909601959485019487935090810190620001d8565b600760005282600020601f860160051c81019184871062000273575b601f0160051c019084905b8281106200026657505062000178565b6000815501849062000256565b90915081906200024b565b634e487b7160e01b600052602260045260246000fd5b90607f169062000165565b634e487b7160e01b600052604160045260246000fd5b600080fdfe60806040526004361015610013575b600080fd5b60003560e01c806307d3277f146102ca57806307e0db17146102b8578063096568f6146101e95780630eaf6ea6146102c157806310ddb137146102b857806312a9ee6b146102af578063240de277146102a6578063272bd3841461029d5780632c365e25146102945780633408e470146101e05780633e0dd83e1461028b57806340a7bb101461028257806342d65a8d1461027957806371ba2fd61461024c57806376a386dc146102705780637a1457481461023a5780637f6df8e614610267578063907c5e7e1461025e5780639924d33b146102555780639c729da11461024c578063aaff5f1614610243578063b20864991461023a578063b6d9ef6014610231578063c08f15a114610228578063c2fa48131461021f578063c580310014610216578063c81b383a1461020d578063ca066b3514610204578063cbed8b9c146101fb578063d23104f1146101f2578063da1a7c9a146101e9578063db14f305146101e0578063e97a448a146101d7578063f5ecbdbc146101ce578063f9cd3ceb146101c5578063fbba623b146101bc5763fdc07c70146101b457600080fd5b61000e6119e5565b5061000e6118d6565b5061000e6118b7565b5061000e611843565b5061000e61181e565b5061000e610a3f565b5061000e61035b565b5061000e6117f9565b5061000e6117b6565b5061000e61178e565b5061000e61174e565b5061000e61147b565b5061000e61106e565b5061000e61100f565b5061000e610ff5565b5061000e610cef565b5061000e610e3f565b5061000e610c1d565b5061000e610deb565b5061000e610d94565b5061000e610d54565b5061000e610c7e565b5061000e610b0e565b5061000e610a89565b5061000e610a62565b5061000e610998565b5061000e610886565b5061000e61083e565b5061000e61078c565b5061000e61032e565b5061000e6103ee565b5061000e6102de565b600091031261000e57565b503461000e57600036600319011261000e5760045460055460408051928352602083019190915290f35b0390f35b6004359061ffff8216820361000e57565b6024359061ffff8216820361000e57565b503461000e57602036600319011261000e5761034861030c565b005b6001600160a01b0381160361000e57565b503461000e57602036600319011261000e5761037860043561034a565b602060405160018152f35b9181601f8401121561000e578235916001600160401b03831161000e576020838186019501011161000e57565b90604060031983011261000e5760043561ffff8116810361000e5791602435906001600160401b03821161000e576103ea91600401610383565b9091565b503461000e576020600161ffff82610405366103b0565b93909116600052600a8252604060002083604051948593843782019081520301902001541515604051908152f35b50634e487b7160e01b600052604160045260246000fd5b6001600160401b03811161045d57604052565b610465610433565b604052565b90601f801991011681019081106001600160401b0382111761045d57604052565b60405190606082018281106001600160401b0382111761045d57604052565b6020906001600160401b0381116104c7575b601f01601f19160190565b6104cf610433565b6104bc565b9291926104e0826104aa565b916104ee604051938461046a565b82948184528183011161000e578281602093846000960137010152565b9080601f8301121561000e57816020610526933591016104d4565b90565b60005b83811061053c5750506000910152565b818101518382015260200161052c565b50634e487b7160e01b600052603260045260246000fd5b805415610579575b600052602060002090600090565b61058161054c565b61056b565b80548210156105a3575b60005260206000209060011b0190600090565b6105ab61054c565b610590565b90600182811c921680156105e0575b60208310146105ca57565b634e487b7160e01b600052602260045260246000fd5b91607f16916105bf565b60405190600082600754916105fe836105b0565b808352926001908181169081156106745750600114610627575b506106259250038361046a565b565b6007600090815291506000805160206127f08339815191525b8483106106595750610625935050810160200138610618565b81935090816020925483858a01015201910190918592610640565b90506020925061062594915060ff191682840152151560051b82010138610618565b90604051918260008254926106aa846105b0565b90818452600194858116908160001461071757506001146106d4575b50506106259250038361046a565b9093915060005260209081600020936000915b8183106106ff575050610625935082010138806106c6565b855488840185015294850194879450918301916106e7565b91505061062594506020925060ff191682840152151560051b82010138806106c6565b9060209161075381518092818552858086019101610529565b601f01601f1916010190565b6001600160401b03610526949360609360018060a01b03168352166020820152816040820152019061073a565b503461000e57606036600319011261000e576107a661030c565b6001600160401b039060243582811161000e5760206107cc6107f392369060040161050b565b61ffff6044359416600052600b825260406000208260405194838680955193849201610529565b82019081520301902090815481101561000e5761080f91610586565b5090610308610822600184549401610696565b60405193849360a082901c16906001600160a01b03168461075f565b503461000e57604036600319011261000e57600480359055602435600555005b50634e487b7160e01b600052600060045260246000fd5b90602061052692818152019061073a565b503461000e576000806003193601126109535760405190806007546108aa816105b0565b8085529160019180831690811561092957506001146108e0575b610308856108d48187038261046a565b60405191829182610875565b9250600783526000805160206127f08339815191525b8284106109115750505081016020016108d4826103086108c4565b805460208587018101919091529093019281016108f6565b869550610308969350602092506108d494915060ff191682840152151560051b82010192936108c4565b80fd5b604435906001600160801b038216820361000e57565b606435906001600160401b038216820361000e57565b608435906001600160401b038216820361000e57565b503461000e5760a036600319011261000e576004356001600160801b0380821680920361000e5760243590808216820361000e57610348926109d8610956565b916109e161096c565b916109ea610982565b608095861b6fffffffffffffffffffffffffffffffff1916919091176002556001600160c01b039190931616921b67ffffffffffffffff60801b169190911760c09190911b6001600160c01b03191617600355565b503461000e57600036600319011261000e57602061ffff60015416604051908152f35b503461000e57600036600319011261000e57602060ff60015460101c166040519015158152f35b503461000e5760a036600319011261000e57610aa361030c565b50610aaf60243561034a565b6001600160401b0360443581811161000e57610acf90369060040161050b565b606435801515810361000e5760843592831161000e57610af6610afc93369060040161050b565b916122c7565b60408051928352602083019190915290f35b503461000e57610b1d366103b0565b9061ffff8316600052600a6020526040600020602060405180928585833785820190815203019020926001840193610b57855415156123ff565b805460401c6001600160a01b03163303610bd857805467ffffffffffffffff1916815561034894600091610b9e905b805468010000000000000000600160e01b0319169055565b557f23d2684f396e92a6e2ff2d16f98e6fea00d50cb27a64b531bc0748f730211f9860405180610bd0868686846124d6565b0390a161263b565b60405162461bcd60e51b815260206004820152601d60248201527f4c617965725a65726f4d6f636b3a20696e76616c69642063616c6c65720000006044820152606490fd5b503461000e57602036600319011261000e57610c3a60043561034a565b6020604051308152f35b90604060031983011261000e5760043561ffff8116810361000e5791602435906001600160401b03821161000e576105269160040161050b565b503461000e576060610cb8602061ffff610c9736610c44565b9116600052600a825260406000208260405194838680955193849201610529565b8201908152030190208054600190910154604080516001600160401b038416815292811c6001600160a01b03166020840152820152f35b503461000e57604036600319011261000e5760206001600160401b03610d4a610d1661030c565b61ffff60243591610d268361034a565b166000526009845260406000209060018060a01b0316600052602052604060002090565b5416604051908152f35b503461000e57602061ffff81610d69366103b0565b93909116600052600b8252604060002083604051948593843782019081520301902054604051908152f35b503461000e57600036600319011261000e5760a0600254600354604051916001600160801b0390818116845260801c6020840152811660408301526001600160401b038160801c16606083015260c01c6080820152f35b503461000e5760206001600160401b03610e2c8261ffff610e0b36610c44565b91166000526008825260406000208260405194838680955193849201610529565b8201908152030190205416604051908152f35b503461000e57606036600319011261000e57610e5961030c565b6001600160401b0360243581811161000e57610e79903690600401610383565b9260443583811161000e57610e92903690600401610383565b610eb4610ead8461ffff16600052600a602052604060002090565b8786611dfd565b90610f026001830196610ee18854610ecd8115156123ff565b855492831685149081610fda575b5061244a565b835467ffffffffffffffff1916845560401c6001600160a01b031692610b86565b60009687809755610f3b610f2e610f278761ffff166000526008602052604060002090565b8389611dfd565b546001600160401b031690565b91833b15610fd6577f612434f39581c8e7d99746c9c20c6eb0ce8c0eb99f007c5719d620841370957d978787610f8b8594610faa99886040519788968796621d356760e01b885260048801611e83565b038183885af18015610fc9575b610fb0575b5060405195869586612496565b0390a180f35b80610fbd610fc39261044a565b806102d3565b38610f9d565b610fd1611cc2565b610f98565b8780fd5b9050610fe73686896104d4565b602081519101201438610edb565b503461000e57602036600319011261000e57600435600655005b503461000e57604036600319011261000e576103486004356110308161034a565b6024359061103d8261034a565b6001600160a01b03908116600090815260208190526040902080546001600160a01b03191692909116919091179055565b503461000e5760c036600319011261000e5761108861030c565b6001600160401b0360243581811161000e576110a8903690600401610383565b919092604435926110b88461034a565b6110c061096c565b9460a43584811161000e576110d9903690600401610383565b9290936110fe6110f78261ffff16600052600a602052604060002090565b8385611dfd565b956111688161112561111e8561ffff166000526008602052604060002090565b8688611dfd565b61115e61114161113c83546001600160401b031690565b611b76565b825467ffffffffffffffff19166001600160401b03821617909255565b16828b1614611e16565b6001968701541561125957506111d19493926111ca9261119961119f9361ffff16600052600b602052604060002090565b91611dfd565b966111ba6111ab61048b565b6001600160a01b039098168852565b6001600160401b03166020870152565b36916104d4565b604083015282541561124f576111e78284612101565b6000815b611204575b50506111fe61034892610563565b90611fc4565b61120e8454611b9b565b81101561124a578061123f6112266112449387610586565b5061123961123384612146565b88610586565b9061225c565b612136565b816111eb565b6111f0565b5061034891612101565b9095611270909892959397985460ff9060101c1690565b1561137657907f0f9e4d95b62f08222d612b5ab92039cd8fbbbea550a95e8df9f927436bbdf5db9761134d611362969594936112ad3687876104d4565b602081519101206112d16112bf61048b565b92881683906001600160401b03169052565b6001600160a01b038416602083015260408201526113076113008a61ffff16600052600a602052604060002090565b888c611dfd565b8151815460208401516001600160401b039092166001600160e01b031990911617604091821b68010000000000000000600160e01b031617825590910151600190910155565b611355611bbf565b9460405198899889611ec3565b0390a161034862ff00001960015416600155565b9291906001600160a01b038816803b1561000e5760008683928a838b6113b38a8a604051998a9889978896621d356760e01b885260048801611e83565b0392608435f19081611468575b50610348577f0f9e4d95b62f08222d612b5ab92039cd8fbbbea550a95e8df9f927436bbdf5db976113629561145c6113f6611bf0565b966114023688886104d4565b6020815191012061142661141461048b565b92891683906001600160401b03169052565b6001600160a01b038516602083015260408201526113076114558b61ffff16600052600a602052604060002090565b848d611dfd565b60405198899889611ec3565b80610fbd6114759261044a565b386113c0565b5060c036600319011261000e5761149061030c565b6001600160401b0360243581811161000e576114b090369060040161050b565b60443582811161000e576114c8903690600401610383565b606494919435936114d88561034a565b608435906114e58261034a565b60a43590811161000e578287913690600401906115019161050b565b95805160281461151090611a2e565b6014015195600160a01b60019003809881928261153f8b60018060a01b03166000526000602052604060002090565b546001600160a01b031616986115568a1515611a8f565b815115156000146115e46115d561113c9f61166a9b6116159a61160797611597936116019761173957611592919c8d945b1615159236916104d4565b6122c7565b50936115a585341015611b01565b6115be339161ffff166000526009602052604060002090565b9060018060a01b0316600052602052604060002090565b9e8f546001600160401b031690565b8e5467ffffffffffffffff19166001600160401b03821617909e55565b34611bb2565b80611714575b505050611d4a565b908093509891986116c9575b505050604051926111ca8461165c883360208401906028926bffffffffffffffffffffffff19809260601b16835260601b1660148201520190565b03601f19810186528561046a565b60015461ffff16833b1561000e5761169e600096928793604051998a988997889663c2fa481360e01b885260048801611c6c565b03925af180156116bc575b6116af57005b80610fbd6103489261044a565b6116c4611cc2565b6116a9565b16600080808085855af16116db611bf0565b50156116e8575b80611621565b7f2c7a964ca3de5ec1d42d9822f9bbd0eb142a59cc9f855e9d93813b773192c7a3600080a338806116e2565b600080809392611731958294165af161172b611bf0565b50611c20565b87388061160d565b61159291506117466105ea565b9c8d94611587565b503461000e57602036600319011261000e57602060043561176e8161034a565b60018060a01b038091166000526000825260406000205416604051908152f35b503461000e57600036600319011261000e576020600260ff600c5460081c1614604051908152f35b503461000e57608036600319011261000e576117d061030c565b506117d961031d565b506064356001600160401b03811161000e5761034890369060040161050b565b503461000e57600036600319011261000e576001805462ff0000191662010000179055005b503461000e57600036600319011261000e576020600260ff600c541614604051908152f35b503461000e57608036600319011261000e5761185d61030c565b5061186661031d565b5061187260443561034a565b610308604051602081018181106001600160401b038211176118aa575b6040526000815260405191829160208352602083019061073a565b6118b2610433565b61188f565b503461000e57600036600319011261000e576020600654604051908152f35b503461000e5760208060031936011261000e576001600160401b0360043581811161000e5761190990369060040161050b565b9182519182116119d8575b611928826119236007546105b0565b611f3b565b80601f831160011461196357508192600092611958575b5050600019600383901b1c191660019190911b17600755005b01519050388061193f565b90601f1983169361198460076000526000805160206127f083398151915290565b926000905b8682106119c057505083600195106119a7575b505050811b01600755005b015160001960f88460031b161c1916905538808061199c565b80600185968294968601518155019501930190611989565b6119e0610433565b611914565b503461000e5760206001600160401b0361ffff82611a02366103b0565b939091166000526008825260406000208360405194859384378201908152030190205416604051908152f35b15611a3557565b60405162461bcd60e51b815260206004820152602c60248201527f4c617965725a65726f4d6f636b3a20696e636f72726563742072656d6f74652060448201526b616464726573732073697a6560a01b6064820152608490fd5b15611a9657565b60405162461bcd60e51b815260206004820152603760248201527f4c617965725a65726f4d6f636b3a2064657374696e6174696f6e204c6179657260448201527f5a65726f20456e64706f696e74206e6f7420666f756e640000000000000000006064820152608490fd5b15611b0857565b60405162461bcd60e51b815260206004820152602960248201527f4c617965725a65726f4d6f636b3a206e6f7420656e6f756768206e617469766560448201526820666f72206665657360b81b6064820152608490fd5b50634e487b7160e01b600052601160045260246000fd5b6001906001600160401b03809116908114611b8f570190565b611b97611b5f565b0190565b600019810191908211611baa57565b610625611b5f565b91908203918211611baa57565b60405190602082018281106001600160401b03821117611be3575b60405260008252565b611beb610433565b611bda565b3d15611c1b573d90611c01826104aa565b91611c0f604051938461046a565b82523d6000602084013e565b606090565b15611c2757565b60405162461bcd60e51b815260206004820152601f60248201527f4c617965725a65726f4d6f636b3a206661696c656420746f20726566756e64006044820152606490fd5b92949193611c98610526979561ffff6001600160401b039416865260c0602087015260c086019061073a565b6001600160a01b039096166040850152166060830152608082015280830360a0919091015261073a565b506040513d6000823e3d90fd5b15611cd657565b60405162461bcd60e51b8152602060048201526012602482015271556e737570706f727465642074785479706560701b6044820152606490fd5b15611d1757565b60405162461bcd60e51b815260206004820152600b60248201526a47617320746f6f206c6f7760a81b6044820152606490fd5b600080825160228114908115611df2575b5015611db557600283015193602284015193600261ffff8716600181148015611dac575b611d8890611ccf565b611d93871515611d10565b14611d9b5750565b925090506056604283015192015190565b50808214611d7f565b60405162461bcd60e51b8152602060048201526015602482015274496e76616c69642061646170746572506172616d7360581b6044820152606490fd5b604291501138611d5b565b6020919283604051948593843782019081520301902090565b15611e1d57565b60405162461bcd60e51b815260206004820152601a60248201527f4c617965725a65726f4d6f636b3a2077726f6e67206e6f6e63650000000000006044820152606490fd5b908060209392818452848401376000828201840152601f01601f1916010190565b91611eaf906105269795969461ffff6001600160401b0394168552608060208601526080850191611e62565b941660408201526060818503910152611e62565b969294611ef3610526999793611f169761ffff6001600160401b0395168b5260c060208c015260c08b0191611e62565b6001600160a01b0390951660408901521660608701528583036080870152611e62565b9160a081840391015261073a565b818110611f2f575050565b60008155600101611f24565b90601f8211611f48575050565b6106259160076000526000805160206127f0833981519152906020601f840160051c83019310611f80575b601f0160051c0190611f24565b9091508190611f73565b9190601f8111611f9957505050565b610625926000526020600020906020601f840160051c83019310611f8057601f0160051c0190611f24565b906120f4575b815181546001600160a01b0319166001600160a01b0391909116178155602082810151825467ffffffffffffffff60a01b191660a09190911b67ffffffffffffffff60a01b161782556001600160401b03906040600180940194015180519283116120e7575b6120448361203e87546105b0565b87611f8a565b81601f841160011461207d5750928293918392600094612072575b50501b916000199060031b1c1916179055565b01519250388061205f565b919083601f19811661209488600052602060002090565b946000905b888383106120cd57505050106120b4575b505050811b019055565b015160001960f88460031b161c191690553880806120aa565b858701518855909601959485019487935090810190612099565b6120ef610433565b612030565b6120fc61085e565b611fca565b906111fe6106259280549068010000000000000000821015612129575b600182018155610586565b612131610433565b61211e565b6001906000198114611b8f570190565b9060018201809211611baa57565b91908201809211611baa57565b9190918281146122575761217583546105b0565b6001600160401b03811161224a575b6121988161219284546105b0565b84611f8a565b600093601f82116001146121d45793819293946000926121c9575b50508160011b916000199060031b1c1916179055565b0154905038806121b3565b6121e8601f19831691600052602060002090565b946121f884600052602060002090565b91815b8181106122325750958360019596971061221957505050811b019055565b015460001960f88460031b161c191690553880806120aa565b878301548455600193840193909201916020016121fb565b612252610433565b612184565b509050565b906122ba575b81810361226d575050565b815481546001600160a01b039091166001600160a01b0319821681178355835467ffffffffffffffff60a01b166001600160e01b0319909216171781556106259160019081019101612161565b6122c261085e565b612262565b8251919260009283929190156123ed576122e490915b5191611d4a565b50600261ffff6000959493959316146123ce575b50600254908160801c90600354948560801c6001600160401b03169061231d91612154565b6123279083612585565b61233091612154565b916001600160801b0316918261234591612585565b6402540be40090049360c01c61235a916127d1565b90612364916127d1565b6402540be4006001600160801b03909116046001600160801b031661238891612585565b61239191612154565b92600654916123a183868461273a565b91156123bf57506123bc92936123b79194612154565b612154565b91565b936123bc93506123b791612154565b90506123e7816001600160801b03600354161015612776565b386122f8565b506122e46123f96105ea565b916122dd565b1561240657565b606460405162461bcd60e51b815260206004820152602060248201527f4c617965725a65726f4d6f636b3a206e6f2073746f726564207061796c6f61646044820152fd5b1561245157565b60405162461bcd60e51b815260206004820152601e60248201527f4c617965725a65726f4d6f636b3a20696e76616c6964207061796c6f616400006044820152606490fd5b939594916124c19060609461ffff6001600160401b0394168752608060208801526080870191611e62565b951660408401526001600160a01b0316910152565b60409061ffff61052695931681528160208201520191611e62565b906040516040612535600160608401956001600160401b03968581108882111761253a575b845284968154838060a01b038116875260a01c16602086015201610696565b910152565b612542610433565b612516565b9161257190610526969461ffff6001600160401b0394168552608060208601526080850191611e62565b93166040820152606081840391015261073a565b81810292918115918404141715611baa57565b8054801561262557600019019060016125b18383610586565b612618575b60008155016125c581546105b0565b90816125d057505055565b601f82116001146125e357600091505555565b61260561261592826000526001601f6020600020920160051c82019101611f24565b6000908082528160208120915555565b55565b61262061085e565b6125b6565b634e487b7160e01b600052603160045260246000fd5b9092919261266161265a8361ffff16600052600b602052604060002090565b8583611dfd565b925b835480156127325761268061267a61268692611b9b565b86610586565b506124f1565b80516126a89061269c906001600160a01b031681565b6001600160a01b031690565b906126bd60208201516001600160401b031690565b9160408092015190803b1561000e576126f393878a88955196879586948593621d356760e01b85526000998a9660048701612547565b03925af18015612725575b612712575b5061270d84612598565b612663565b80610fbd61271f9261044a565b38612703565b61272d611cc2565b6126fe565b509350505050565b9091901561274a57505060045490565b81612765916127109301809111612769575b60055490612585565b0490565b612771611b5f565b61275c565b1561277d57565b60405162461bcd60e51b815260206004820152602660248201527f4c617965725a65726f4d6f636b3a206473744e6174697665416d7420746f6f2060448201526503630b933b2960d51b6064820152608490fd5b9190916001600160801b0380809416911602918216918203611baa5756fea66cc928b5edb82af9bd49922954155ab7b0942694bea4ce44661d9a8736c688a26469706673582212206911c0bf3369284feae95020034b6971951816d8edb90fdf8dd2a7519f17c7a764736f6c63430008110033",
    "linkReferences": {}
  },
  "methodIdentifiers": {
    "blockNextMsg()": "d23104f1",
    "defaultAdapterParams()": "272bd384",
    "estimateFees(uint16,address,bytes,bool,bytes)": "40a7bb10",
    "forceResumeReceive(uint16,bytes)": "42d65a8d",
    "getChainId()": "3408e470",
    "getConfig(uint16,uint16,address,uint256)": "f5ecbdbc",
    "getInboundNonce(uint16,bytes)": "fdc07c70",
    "getLengthOfQueue(uint16,bytes)": "7f6df8e6",
    "getOutboundNonce(uint16,address)": "7a145748",
    "getReceiveLibraryAddress(address)": "71ba2fd6",
    "getReceiveVersion(address)": "da1a7c9a",
    "getSendLibraryAddress(address)": "9c729da1",
    "getSendVersion(address)": "096568f6",
    "hasStoredPayload(uint16,bytes)": "0eaf6ea6",
    "inboundNonce(uint16,bytes)": "9924d33b",
    "isReceivingPayload()": "ca066b35",
    "isSendingPayload()": "e97a448a",
    "lzEndpointLookup(address)": "c81b383a",
    "mockChainId()": "db14f305",
    "msgsToDeliver(uint16,bytes,uint256)": "12a9ee6b",
    "nextMsgBlocked()": "3e0dd83e",
    "oracleFee()": "f9cd3ceb",
    "outboundNonce(uint16,address)": "b2086499",
    "protocolFeeConfig()": "07d3277f",
    "receivePayload(uint16,bytes,address,uint64,uint256,bytes)": "c2fa4813",
    "relayerFeeConfig()": "907c5e7e",
    "retryPayload(uint16,bytes,bytes)": "aaff5f16",
    "send(uint16,bytes,bytes,address,address,bytes)": "c5803100",
    "setConfig(uint16,uint16,uint256,bytes)": "cbed8b9c",
    "setDefaultAdapterParams(bytes)": "fbba623b",
    "setDestLzEndpoint(address,address)": "c08f15a1",
    "setOracleFee(uint256)": "b6d9ef60",
    "setProtocolFee(uint256,uint256)": "240de277",
    "setReceiveVersion(uint16)": "10ddb137",
    "setRelayerPrice(uint128,uint128,uint128,uint64,uint64)": "2c365e25",
    "setSendVersion(uint16)": "07e0db17",
    "storedPayload(uint16,bytes)": "76a386dc"
  },
  "id": 85
}