{
  "abi": [
    {
      "inputs": [
        {
          "internalType": "string",
          "name": "_name",
          "type": "string"
        },
        {
          "internalType": "string",
          "name": "_symbol",
          "type": "string"
        }
      ],
      "stateMutability": "nonpayable",
      "type": "constructor"
    },
    {
      "anonymous": false,
      "inputs": [
        {
          "indexed": true,
          "internalType": "address",
          "name": "owner",
          "type": "address"
        },
        {
          "indexed": true,
          "internalType": "address",
          "name": "spender",
          "type": "address"
        },
        {
          "indexed": false,
          "internalType": "uint256",
          "name": "value",
          "type": "uint256"
        }
      ],
      "name": "Approval",
      "type": "event"
    },
    {
      "anonymous": false,
      "inputs": [
        {
          "indexed": true,
          "internalType": "address",
          "name": "from",
          "type": "address"
        },
        {
          "indexed": true,
          "internalType": "address",
          "name": "to",
          "type": "address"
        },
        {
          "indexed": false,
          "internalType": "uint256",
          "name": "value",
          "type": "uint256"
        }
      ],
      "name": "Transfer",
      "type": "event"
    },
    {
      "inputs": [],
      "name": "DOMAIN_SEPARATOR",
      "outputs": [
        {
          "internalType": "bytes32",
          "name": "",
          "type": "bytes32"
        }
      ],
      "stateMutability": "view",
      "type": "function"
    },
    {
      "inputs": [],
      "name": "PERMIT_TYPEHASH",
      "outputs": [
        {
          "internalType": "bytes32",
          "name": "",
          "type": "bytes32"
        }
      ],
      "stateMutability": "view",
      "type": "function"
    },
    {
      "inputs": [
        {
          "internalType": "address",
          "name": "",
          "type": "address"
        },
        {
          "internalType": "address",
          "name": "",
          "type": "address"
        }
      ],
      "name": "allowance",
      "outputs": [
        {
          "internalType": "uint256",
          "name": "",
          "type": "uint256"
        }
      ],
      "stateMutability": "view",
      "type": "function"
    },
    {
      "inputs": [
        {
          "internalType": "address",
          "name": "spender",
          "type": "address"
        },
        {
          "internalType": "uint256",
          "name": "value",
          "type": "uint256"
        }
      ],
      "name": "approve",
      "outputs": [
        {
          "internalType": "bool",
          "name": "",
          "type": "bool"
        }
      ],
      "stateMutability": "nonpayable",
      "type": "function"
    },
    {
      "inputs": [
        {
          "internalType": "address",
          "name": "",
          "type": "address"
        }
      ],
      "name": "balanceOf",
      "outputs": [
        {
          "internalType": "uint256",
          "name": "",
          "type": "uint256"
        }
      ],
      "stateMutability": "view",
      "type": "function"
    },
    {
      "inputs": [],
      "name": "decimals",
      "outputs": [
        {
          "internalType": "uint256",
          "name": "",
          "type": "uint256"
        }
      ],
      "stateMutability": "view",
      "type": "function"
    },
    {
      "inputs": [
        {
          "internalType": "address",
          "name": "spender",
          "type": "address"
        },
        {
          "internalType": "uint256",
          "name": "subtractedValue",
          "type": "uint256"
        }
      ],
      "name": "decreaseAllowance",
      "outputs": [
        {
          "internalType": "bool",
          "name": "",
          "type": "bool"
        }
      ],
      "stateMutability": "nonpayable",
      "type": "function"
    },
    {
      "inputs": [
        {
          "internalType": "address",
          "name": "spender",
          "type": "address"
        },
        {
          "internalType": "uint256",
          "name": "addedValue",
          "type": "uint256"
        }
      ],
      "name": "increaseAllowance",
      "outputs": [
        {
          "internalType": "bool",
          "name": "",
          "type": "bool"
        }
      ],
      "stateMutability": "nonpayable",
      "type": "function"
    },
    {
      "inputs": [],
      "name": "name",
      "outputs": [
        {
          "internalType": "string",
          "name": "",
          "type": "string"
        }
      ],
      "stateMutability": "view",
      "type": "function"
    },
    {
      "inputs": [
        {
          "internalType": "address",
          "name": "",
          "type": "address"
        }
      ],
      "name": "nonces",
      "outputs": [
        {
          "internalType": "uint256",
          "name": "",
          "type": "uint256"
        }
      ],
      "stateMutability": "view",
      "type": "function"
    },
    {
      "inputs": [
        {
          "internalType": "address",
          "name": "owner",
          "type": "address"
        },
        {
          "internalType": "address",
          "name": "spender",
          "type": "address"
        },
        {
          "internalType": "uint256",
          "name": "value",
          "type": "uint256"
        },
        {
          "internalType": "uint256",
          "name": "deadline",
          "type": "uint256"
        },
        {
          "internalType": "uint8",
          "name": "v",
          "type": "uint8"
        },
        {
          "internalType": "bytes32",
          "name": "r",
          "type": "bytes32"
        },
        {
          "internalType": "bytes32",
          "name": "s",
          "type": "bytes32"
        }
      ],
      "name": "permit",
      "outputs": [],
      "stateMutability": "nonpayable",
      "type": "function"
    },
    {
      "inputs": [],
      "name": "symbol",
      "outputs": [
        {
          "internalType": "string",
          "name": "",
          "type": "string"
        }
      ],
      "stateMutability": "view",
      "type": "function"
    },
    {
      "inputs": [],
      "name": "totalSupply",
      "outputs": [
        {
          "internalType": "uint256",
          "name": "",
          "type": "uint256"
        }
      ],
      "stateMutability": "view",
      "type": "function"
    },
    {
      "inputs": [
        {
          "internalType": "address",
          "name": "to",
          "type": "address"
        },
        {
          "internalType": "uint256",
          "name": "value",
          "type": "uint256"
        }
      ],
      "name": "transfer",
      "outputs": [
        {
          "internalType": "bool",
          "name": "",
          "type": "bool"
        }
      ],
      "stateMutability": "nonpayable",
      "type": "function"
    },
    {
      "inputs": [
        {
          "internalType": "address",
          "name": "from",
          "type": "address"
        },
        {
          "internalType": "address",
          "name": "to",
          "type": "address"
        },
        {
          "internalType": "uint256",
          "name": "value",
          "type": "uint256"
        }
      ],
      "name": "transferFrom",
      "outputs": [
        {
          "internalType": "bool",
          "name": "",
          "type": "bool"
        }
      ],
      "stateMutability": "nonpayable",
      "type": "function"
    }
  ],
  "bytecode": {
    "object": "0x60806040523480156200001157600080fd5b5060405162000e4738038062000e478339810160408190526200003491620001d4565b6000620000428382620002cd565b506001620000518282620002cd565b5060405146907f8b73c3c69bb8fe3d512ecc4cf759cc79239f7b179b0ffacaa9a75d522b39400f90620000879060009062000399565b60408051918290038220828201825260018352603160f81b6020938401528151928301939093528101919091527fc89efdaa54c0f20c7adf612882df0950f5a951637e0307cdcb4c672f298b8bc66060820152608081018290523060a082015260c0016040516020818303038152906040528051906020012060028190555050505062000417565b634e487b7160e01b600052604160045260246000fd5b600082601f8301126200013757600080fd5b81516001600160401b03808211156200015457620001546200010f565b604051601f8301601f19908116603f011681019082821181831017156200017f576200017f6200010f565b816040528381526020925086838588010111156200019c57600080fd5b600091505b83821015620001c05785820183015181830184015290820190620001a1565b600093810190920192909252949350505050565b60008060408385031215620001e857600080fd5b82516001600160401b03808211156200020057600080fd5b6200020e8683870162000125565b935060208501519150808211156200022557600080fd5b50620002348582860162000125565b9150509250929050565b600181811c908216806200025357607f821691505b6020821081036200027457634e487b7160e01b600052602260045260246000fd5b50919050565b601f821115620002c857600081815260208120601f850160051c81016020861015620002a35750805b601f850160051c820191505b81811015620002c457828155600101620002af565b5050505b505050565b81516001600160401b03811115620002e957620002e96200010f565b6200030181620002fa84546200023e565b846200027a565b602080601f831160018114620003395760008415620003205750858301515b600019600386901b1c1916600185901b178555620002c4565b600085815260208120601f198616915b828110156200036a5788860151825594840194600190910190840162000349565b5085821015620003895787850151600019600388901b60f8161c191681555b5050505050600190811b01905550565b6000808354620003a9816200023e565b60018281168015620003c45760018114620003da576200040b565b60ff19841687528215158302870194506200040b565b8760005260208060002060005b85811015620004025781548a820152908401908201620003e7565b50505082870194505b50929695505050505050565b610a2080620004276000396000f3fe608060405234801561001057600080fd5b50600436106100f55760003560e01c80633950935111610097578063a457c2d711610066578063a457c2d7146101f9578063a9059cbb1461020c578063d505accf1461021f578063dd62ed3e1461023457600080fd5b8063395093511461019e57806370a08231146101b15780637ecebe00146101d157806395d89b41146101f157600080fd5b806323b872dd116100d357806323b872dd1461015257806330adf81f14610165578063313ce5671461018c5780633644e5151461019557600080fd5b806306fdde03146100fa578063095ea7b31461011857806318160ddd1461013b575b600080fd5b61010261025f565b60405161010f91906107a5565b60405180910390f35b61012b61012636600461080f565b6102ed565b604051901515815260200161010f565b61014460045481565b60405190815260200161010f565b61012b610160366004610839565b610304565b6101447f6e71edae12b1b97f4d1f60370fef10105fa2faae0126114a169c64845d6126c981565b61014460035481565b61014460025481565b61012b6101ac36600461080f565b610398565b6101446101bf366004610875565b60056020526000908152604090205481565b6101446101df366004610875565b60076020526000908152604090205481565b6101026103d3565b61012b61020736600461080f565b6103e0565b61012b61021a36600461080f565b61042f565b61023261022d366004610890565b61043c565b005b610144610242366004610903565b600660209081526000928352604080842090915290825290205481565b6000805461026c90610936565b80601f016020809104026020016040519081016040528092919081815260200182805461029890610936565b80156102e55780601f106102ba576101008083540402835291602001916102e5565b820191906000526020600020905b8154815290600101906020018083116102c857829003601f168201915b505050505081565b60006102fa338484610652565b5060015b92915050565b6001600160a01b038316600090815260066020908152604080832033845290915281205460001914610383576001600160a01b038416600090815260066020908152604080832033845290915290205461035e90836106b4565b6001600160a01b03851660009081526006602090815260408083203384529091529020555b61038e8484846106c7565b5060019392505050565b3360008181526006602090815260408083206001600160a01b038716845290915281205490916102fa9185906103ce908661076d565b610652565b6001805461026c90610936565b60006102fa33846103ce856040518060600160405280602581526020016109c6602591393360009081526006602090815260408083206001600160a01b038d1684529091529020549190610779565b60006102fa3384846106c7565b428410156104835760405162461bcd60e51b815260206004820152600f60248201526e109c9a5919d94e8811561412549151608a1b60448201526064015b60405180910390fd5b6002546001600160a01b038816600090815260076020526040812080549192917f6e71edae12b1b97f4d1f60370fef10105fa2faae0126114a169c64845d6126c9918b918b918b9190876104d683610986565b909155506040805160208101969096526001600160a01b0394851690860152929091166060840152608083015260a082015260c0810187905260e0016040516020818303038152906040528051906020012060405160200161054f92919061190160f01b81526002810192909252602282015260420190565b60408051601f198184030181528282528051602091820120600080855291840180845281905260ff88169284019290925260608301869052608083018590529092509060019060a0016020604051602081039080840390855afa1580156105ba573d6000803e3d6000fd5b5050604051601f1901519150506001600160a01b038116158015906105f05750886001600160a01b0316816001600160a01b0316145b61063c5760405162461bcd60e51b815260206004820152601960248201527f4272696467653a20494e56414c49445f5349474e415455524500000000000000604482015260640161047a565b610647898989610652565b505050505050505050565b6001600160a01b0383811660008181526006602090815260408083209487168084529482529182902085905590518481527f8c5be1e5ebec7d5bd14f71427d1e84f3dd0314c0f7b2291e5b200ac8c7c3b92591015b60405180910390a3505050565b60006106c0828461099f565b9392505050565b6001600160a01b0383166000908152600560205260409020546106ea90826106b4565b6001600160a01b038085166000908152600560205260408082209390935590841681522054610719908261076d565b6001600160a01b0380841660008181526005602052604090819020939093559151908516907fddf252ad1be2c89b69c2b068fc378daa952ba7f163c4a11628f55a4df523b3ef906106a79085815260200190565b60006106c082846109b2565b6000818484111561079d5760405162461bcd60e51b815260040161047a91906107a5565b505050900390565b600060208083528351808285015260005b818110156107d2578581018301518582016040015282016107b6565b506000604082860101526040601f19601f8301168501019250505092915050565b80356001600160a01b038116811461080a57600080fd5b919050565b6000806040838503121561082257600080fd5b61082b836107f3565b946020939093013593505050565b60008060006060848603121561084e57600080fd5b610857846107f3565b9250610865602085016107f3565b9150604084013590509250925092565b60006020828403121561088757600080fd5b6106c0826107f3565b600080600080600080600060e0888a0312156108ab57600080fd5b6108b4886107f3565b96506108c2602089016107f3565b95506040880135945060608801359350608088013560ff811681146108e657600080fd5b9699959850939692959460a0840135945060c09093013592915050565b6000806040838503121561091657600080fd5b61091f836107f3565b915061092d602084016107f3565b90509250929050565b600181811c9082168061094a57607f821691505b60208210810361096a57634e487b7160e01b600052602260045260246000fd5b50919050565b634e487b7160e01b600052601160045260246000fd5b60006001820161099857610998610970565b5060010190565b818103818111156102fe576102fe610970565b808201808211156102fe576102fe61097056fe45524332303a2064656372656173656420616c6c6f77616e63652062656c6f77207a65726fa2646970667358221220fd25504ce789e6f7b81705c68c535c4f369da441e5f3d522e323e275a078545464736f6c63430008110033",
    "linkReferences": {}
  },
  "methodIdentifiers": {
    "DOMAIN_SEPARATOR()": "3644e515",
    "PERMIT_TYPEHASH()": "30adf81f",
    "allowance(address,address)": "dd62ed3e",
    "approve(address,uint256)": "095ea7b3",
    "balanceOf(address)": "70a08231",
    "decimals()": "313ce567",
    "decreaseAllowance(address,uint256)": "a457c2d7",
    "increaseAllowance(address,uint256)": "39509351",
    "name()": "06fdde03",
    "nonces(address)": "7ecebe00",
    "permit(address,address,uint256,uint256,uint8,bytes32,bytes32)": "d505accf",
    "symbol()": "95d89b41",
    "totalSupply()": "18160ddd",
    "transfer(address,uint256)": "a9059cbb",
    "transferFrom(address,address,uint256)": "23b872dd"
  },
  "id": 63
}