{
  "abi": [
    {
      "inputs": [
        {
          "internalType": "string",
          "name": "_name",
          "type": "string"
        },
        {
          "internalType": "string",
          "name": "_symbol",
          "type": "string"
        }
      ],
      "stateMutability": "nonpayable",
      "type": "constructor"
    },
    {
      "anonymous": false,
      "inputs": [
        {
          "indexed": true,
          "internalType": "address",
          "name": "owner",
          "type": "address"
        },
        {
          "indexed": true,
          "internalType": "address",
          "name": "spender",
          "type": "address"
        },
        {
          "indexed": false,
          "internalType": "uint256",
          "name": "value",
          "type": "uint256"
        }
      ],
      "name": "Approval",
      "type": "event"
    },
    {
      "anonymous": false,
      "inputs": [
        {
          "indexed": true,
          "internalType": "address",
          "name": "from",
          "type": "address"
        },
        {
          "indexed": true,
          "internalType": "address",
          "name": "to",
          "type": "address"
        },
        {
          "indexed": false,
          "internalType": "uint256",
          "name": "value",
          "type": "uint256"
        }
      ],
      "name": "Transfer",
      "type": "event"
    },
    {
      "inputs": [],
      "name": "DOMAIN_SEPARATOR",
      "outputs": [
        {
          "internalType": "bytes32",
          "name": "",
          "type": "bytes32"
        }
      ],
      "stateMutability": "view",
      "type": "function"
    },
    {
      "inputs": [],
      "name": "PERMIT_TYPEHASH",
      "outputs": [
        {
          "internalType": "bytes32",
          "name": "",
          "type": "bytes32"
        }
      ],
      "stateMutability": "view",
      "type": "function"
    },
    {
      "inputs": [
        {
          "internalType": "address",
          "name": "",
          "type": "address"
        },
        {
          "internalType": "address",
          "name": "",
          "type": "address"
        }
      ],
      "name": "allowance",
      "outputs": [
        {
          "internalType": "uint256",
          "name": "",
          "type": "uint256"
        }
      ],
      "stateMutability": "view",
      "type": "function"
    },
    {
      "inputs": [
        {
          "internalType": "address",
          "name": "spender",
          "type": "address"
        },
        {
          "internalType": "uint256",
          "name": "value",
          "type": "uint256"
        }
      ],
      "name": "approve",
      "outputs": [
        {
          "internalType": "bool",
          "name": "",
          "type": "bool"
        }
      ],
      "stateMutability": "nonpayable",
      "type": "function"
    },
    {
      "inputs": [
        {
          "internalType": "address",
          "name": "",
          "type": "address"
        }
      ],
      "name": "balanceOf",
      "outputs": [
        {
          "internalType": "uint256",
          "name": "",
          "type": "uint256"
        }
      ],
      "stateMutability": "view",
      "type": "function"
    },
    {
      "inputs": [],
      "name": "decimals",
      "outputs": [
        {
          "internalType": "uint256",
          "name": "",
          "type": "uint256"
        }
      ],
      "stateMutability": "view",
      "type": "function"
    },
    {
      "inputs": [
        {
          "internalType": "address",
          "name": "spender",
          "type": "address"
        },
        {
          "internalType": "uint256",
          "name": "subtractedValue",
          "type": "uint256"
        }
      ],
      "name": "decreaseAllowance",
      "outputs": [
        {
          "internalType": "bool",
          "name": "",
          "type": "bool"
        }
      ],
      "stateMutability": "nonpayable",
      "type": "function"
    },
    {
      "inputs": [
        {
          "internalType": "address",
          "name": "spender",
          "type": "address"
        },
        {
          "internalType": "uint256",
          "name": "addedValue",
          "type": "uint256"
        }
      ],
      "name": "increaseAllowance",
      "outputs": [
        {
          "internalType": "bool",
          "name": "",
          "type": "bool"
        }
      ],
      "stateMutability": "nonpayable",
      "type": "function"
    },
    {
      "inputs": [],
      "name": "name",
      "outputs": [
        {
          "internalType": "string",
          "name": "",
          "type": "string"
        }
      ],
      "stateMutability": "view",
      "type": "function"
    },
    {
      "inputs": [
        {
          "internalType": "address",
          "name": "",
          "type": "address"
        }
      ],
      "name": "nonces",
      "outputs": [
        {
          "internalType": "uint256",
          "name": "",
          "type": "uint256"
        }
      ],
      "stateMutability": "view",
      "type": "function"
    },
    {
      "inputs": [
        {
          "internalType": "address",
          "name": "owner",
          "type": "address"
        },
        {
          "internalType": "address",
          "name": "spender",
          "type": "address"
        },
        {
          "internalType": "uint256",
          "name": "value",
          "type": "uint256"
        },
        {
          "internalType": "uint256",
          "name": "deadline",
          "type": "uint256"
        },
        {
          "internalType": "uint8",
          "name": "v",
          "type": "uint8"
        },
        {
          "internalType": "bytes32",
          "name": "r",
          "type": "bytes32"
        },
        {
          "internalType": "bytes32",
          "name": "s",
          "type": "bytes32"
        }
      ],
      "name": "permit",
      "outputs": [],
      "stateMutability": "nonpayable",
      "type": "function"
    },
    {
      "inputs": [],
      "name": "symbol",
      "outputs": [
        {
          "internalType": "string",
          "name": "",
          "type": "string"
        }
      ],
      "stateMutability": "view",
      "type": "function"
    },
    {
      "inputs": [],
      "name": "totalSupply",
      "outputs": [
        {
          "internalType": "uint256",
          "name": "",
          "type": "uint256"
        }
      ],
      "stateMutability": "view",
      "type": "function"
    },
    {
      "inputs": [
        {
          "internalType": "address",
          "name": "to",
          "type": "address"
        },
        {
          "internalType": "uint256",
          "name": "value",
          "type": "uint256"
        }
      ],
      "name": "transfer",
      "outputs": [
        {
          "internalType": "bool",
          "name": "",
          "type": "bool"
        }
      ],
      "stateMutability": "nonpayable",
      "type": "function"
    },
    {
      "inputs": [
        {
          "internalType": "address",
          "name": "from",
          "type": "address"
        },
        {
          "internalType": "address",
          "name": "to",
          "type": "address"
        },
        {
          "internalType": "uint256",
          "name": "value",
          "type": "uint256"
        }
      ],
      "name": "transferFrom",
      "outputs": [
        {
          "internalType": "bool",
          "name": "",
          "type": "bool"
        }
      ],
      "stateMutability": "nonpayable",
      "type": "function"
    }
  ],
  "bytecode": {
    "object": "0x6080604090808252346200041b5762000f44803803809162000022828562000420565b8339810182828203126200041b5781516001600160401b0393908481116200041b57826200005291850162000444565b92602092838201518681116200041b576200006e920162000444565b928051908582116200040557600091806200008a8454620004bb565b92601f93848111620003b4575b5086908483116001146200034c57859262000340575b50508160011b916000199060031b1c19161782555b8451908682116200032c578190600196620000de8854620004bb565b828111620002d7575b50869183116001146200027357849262000267575b5050600019600383901b1c191690851b1784555b815181549082816200012284620004bb565b9182825287820194888a821691826000146200024a57505060011462000209575b620001519250038262000420565b51902093825183810181811088821117620001f557908591855282815201603160f81b8152208251938401947f8b73c3c69bb8fe3d512ecc4cf759cc79239f7b179b0ffacaa9a75d522b39400f86528385015260608401524660808401523060a084015260a0835260c083019483861090861117620001e15750839052519020600255610a4b9081620004f98239f35b634e487b7160e01b81526041600452602490fd5b634e487b7160e01b84526041600452602484fd5b505083805281868086208987915b8583106200023057505062000151935082010162000143565b809192945054838588010152019101879089859362000217565b60ff191687526200015194151560051b8401019150620001439050565b015190503880620000fc565b8785528685208894509190601f198416865b89828210620002c05750508411620002a6575b505050811b01845562000110565b015160001960f88460031b161c1916905538808062000298565b8385015186558b9790950194938401930162000285565b909192508785528685208380860160051c82019289871062000322575b9186958b929594930160051c01915b82811062000313575050620000e7565b8781558695508a910162000303565b92508192620002f4565b634e487b7160e01b83526041600452602483fd5b015190503880620000ad565b8580528786209250601f198416865b898282106200039d57505090846001959493921062000383575b505050811b018255620000c2565b015160001960f88460031b161c1916905538808062000375565b60018596829396860151815501950193016200035b565b9091508480528685208480850160051c820192898610620003fb575b9085949392910160051c01905b818110620003ec575062000097565b868155849350600101620003dd565b92508192620003d0565b634e487b7160e01b600052604160045260246000fd5b600080fd5b601f909101601f19168101906001600160401b038211908210176200040557604052565b919080601f840112156200041b578251906001600160401b03821162000405576040519160209162000480601f8301601f191684018562000420565b8184528282870101116200041b5760005b818110620004a757508260009394955001015290565b858101830151848201840152820162000491565b90600182811c92168015620004ed575b6020831014620004d757565b634e487b7160e01b600052602260045260246000fd5b91607f1691620004cb56fe608060408181526004918236101561001657600080fd5b600092833560e01c91826306fdde03146107a457508163095ea7b31461077a57816318160ddd1461075c57816323b872dd146106ab57816330adf81f14610670578163313ce567146106515781633644e5151461063257816339509351146105cb57816370a08231146105935781637ecebe001461055b57816395d89b4114610457578163a457c2d71461037c578163a9059cbb1461034b578163d505accf14610115575063dd62ed3e146100ca57600080fd5b34610111578060031936011261011157806020926100e66108e2565b6100ee6108fd565b6001600160a01b0391821683526006865283832091168252845220549051908152f35b5080fd5b839150346101115760e0366003190112610111576101316108e2565b6101396108fd565b906044359260643560843560ff811680910361034757428210610312576002546001600160a01b03858116808a5260076020528a8a20805491959294919391929060001985146102ff57908493929160018e960190558451938760208601967f6e71edae12b1b97f4d1f60370fef10105fa2faae0126114a169c64845d6126c98852860152868b1660608601528b608086015260a085015260c084015260c0835260e0830167ffffffffffffffff94848210868311176102ec57818e528451902061010085019261190160f01b845261010286015261012285015260428152610160840194818610908611176102d957848d52519020835261018082015260a4356101a082015260c4356101c090910152878052602090889060809060015afa156102cf578651169081151591826102c5575b505015610282575061027f939450610913565b80f35b606490602087519162461bcd60e51b8352820152601960248201527f4272696467653a20494e56414c49445f5349474e4154555245000000000000006044820152fd5b149050878061026c565b87513d88823e3d90fd5b634e487b7160e01b8c526041885260248cfd5b634e487b7160e01b8d526041895260248dfd5b634e487b7160e01b8c526011885260248cfd5b875162461bcd60e51b8152602081850152600f60248201526e109c9a5919d94e8811561412549151608a1b6044820152606490fd5b8680fd5b50503461011157806003193601126101115760209061037561036b6108e2565b602435903361096a565b5160018152f35b8284346104545781600319360112610454576103966108e2565b9260243591338152600660205283812060018060a01b03861682526020528381205491845191606083019083821067ffffffffffffffff83111761044157508552602582527f45524332303a2064656372656173656420616c6c6f77616e63652062656c6f77602083015264207a65726f60d81b85830152828411610425576020856103758686038933610913565b61043d855192839262461bcd60e51b84528301610899565b0390fd5b634e487b7160e01b815260418352602490fd5b80fd5b9190503461055757826003193601126105575780519183600180549182821c92828116801561054d575b602095868610821461053a575084885290811561051857506001146104c0575b6104bc86866104b2828b0383610861565b5191829182610899565b0390f35b9295508083527fb10e2d527612073b26eecdfd717e6a320cf44b4afac2b0732d9fcbe2b7fa0cf65b82841061050557505050826104bc946104b29282010194386104a1565b80548685018801529286019281016104e8565b60ff191687860152505050151560051b83010192506104b2826104bc386104a1565b634e487b7160e01b845260229052602483fd5b93607f1693610481565b8280fd5b5050346101115760203660031901126101115760209181906001600160a01b036105836108e2565b1681526007845220549051908152f35b5050346101115760203660031901126101115760209181906001600160a01b036105bb6108e2565b1681526005845220549051908152f35b8284346104545781600319360112610454576105e56108e2565b338252600660209081528383206001600160a01b038316845290528282205460243581019290831061061f57602084610375858533610913565b634e487b7160e01b815260118552602490fd5b5050346101115781600319360112610111576020906002549051908152f35b5050346101115781600319360112610111576020906003549051908152f35b505034610111578160031936011261011157602090517f6e71edae12b1b97f4d1f60370fef10105fa2faae0126114a169c64845d6126c98152f35b838334610111576060366003190112610111576106c66108e2565b6106ce6108fd565b6001600160a01b03821680855260066020908152848620338752815284862054909560443594929160010161070b575b505090610375929161096a565b8181526006875285812033825287528581205491858303928311610749578152600687528581203382528752859020559394508493610375876106fe565b634e487b7160e01b825260118952602482fd5b90503461055757826003193601126105575760209250549051908152f35b50503461011157806003193601126101115760209061037561079a6108e2565b6024359033610913565b9291503461085d578360031936011261085d578354600181811c9186908281168015610853575b602095868610821461053a575084885290811561051857506001146107fb576104bc86866104b2828b0383610861565b8080949750527f290decd9548b62a8d60345a988386fc84ba6bc95484008f6362f93160ef3e5635b82841061084057505050826104bc946104b29282010194386104a1565b8054868501880152928601928101610823565b93607f16936107cb565b8380fd5b90601f8019910116810190811067ffffffffffffffff82111761088357604052565b634e487b7160e01b600052604160045260246000fd5b6020808252825181830181905290939260005b8281106108ce57505060409293506000838284010152601f8019910116010190565b8181018601518482016040015285016108ac565b600435906001600160a01b03821682036108f857565b600080fd5b602435906001600160a01b03821682036108f857565b909160207f8c5be1e5ebec7d5bd14f71427d1e84f3dd0314c0f7b2291e5b200ac8c7c3b9259160018060a01b03809416938460005260068352604060002095169485600052825280604060002055604051908152a3565b909160018060a01b038092169160009383855260056020526040852054838103908111610a01578486526005602052604086205516928381526040812054908282018092116109ed5791602091604084877fddf252ad1be2c89b69c2b068fc378daa952ba7f163c4a11628f55a4df523b3ef9652600585522055604051908152a3565b634e487b7160e01b81526011600452602490fd5b634e487b7160e01b86526011600452602486fdfea26469706673582212205e91c7bd74f8f15771e24d7c6e37abeb77932956d7df8bca88a1d7cdc5ca155d64736f6c63430008110033",
    "linkReferences": {}
  },
  "methodIdentifiers": {
    "DOMAIN_SEPARATOR()": "3644e515",
    "PERMIT_TYPEHASH()": "30adf81f",
    "allowance(address,address)": "dd62ed3e",
    "approve(address,uint256)": "095ea7b3",
    "balanceOf(address)": "70a08231",
    "decimals()": "313ce567",
    "decreaseAllowance(address,uint256)": "a457c2d7",
    "increaseAllowance(address,uint256)": "39509351",
    "name()": "06fdde03",
    "nonces(address)": "7ecebe00",
    "permit(address,address,uint256,uint256,uint8,bytes32,bytes32)": "d505accf",
    "symbol()": "95d89b41",
    "totalSupply()": "18160ddd",
    "transfer(address,uint256)": "a9059cbb",
    "transferFrom(address,address,uint256)": "23b872dd"
  },
  "id": 146
}