{
  "abi": [
    {
      "inputs": [
        {
          "internalType": "address",
          "name": "_lzEndpoint",
          "type": "address"
        }
      ],
      "stateMutability": "nonpayable",
      "type": "constructor"
    },
    {
      "inputs": [],
      "name": "NoZeroAddress",
      "type": "error"
    },
    {
      "anonymous": false,
      "inputs": [
        {
          "indexed": false,
          "internalType": "address",
          "name": "ercAddress",
          "type": "address"
        },
        {
          "indexed": false,
          "internalType": "address",
          "name": "toAddress",
          "type": "address"
        },
        {
          "indexed": false,
          "internalType": "uint256",
          "name": "tokenId",
          "type": "uint256"
        },
        {
          "indexed": false,
          "internalType": "uint256",
          "name": "amount",
          "type": "uint256"
        },
        {
          "indexed": false,
          "internalType": "bytes",
          "name": "payload",
          "type": "bytes"
        },
        {
          "indexed": false,
          "internalType": "address",
          "name": "onftaddress",
          "type": "address"
        }
      ],
      "name": "LzReceive",
      "type": "event"
    },
    {
      "anonymous": false,
      "inputs": [
        {
          "indexed": false,
          "internalType": "uint16",
          "name": "_srcChainId",
          "type": "uint16"
        },
        {
          "indexed": false,
          "internalType": "bytes",
          "name": "_srcAddress",
          "type": "bytes"
        },
        {
          "indexed": false,
          "internalType": "uint64",
          "name": "_nonce",
          "type": "uint64"
        },
        {
          "indexed": false,
          "internalType": "bytes",
          "name": "_payload",
          "type": "bytes"
        }
      ],
      "name": "MessageFailed",
      "type": "event"
    },
    {
      "anonymous": false,
      "inputs": [
        {
          "indexed": true,
          "internalType": "address",
          "name": "previousOwner",
          "type": "address"
        },
        {
          "indexed": true,
          "internalType": "address",
          "name": "newOwner",
          "type": "address"
        }
      ],
      "name": "OwnershipTransferred",
      "type": "event"
    },
    {
      "anonymous": false,
      "inputs": [
        {
          "indexed": false,
          "internalType": "address",
          "name": "account",
          "type": "address"
        }
      ],
      "name": "Paused",
      "type": "event"
    },
    {
      "anonymous": false,
      "inputs": [
        {
          "indexed": true,
          "internalType": "uint16",
          "name": "_srcChainId",
          "type": "uint16"
        },
        {
          "indexed": true,
          "internalType": "bytes",
          "name": "_srcAddress",
          "type": "bytes"
        },
        {
          "indexed": true,
          "internalType": "address",
          "name": "_toAddress",
          "type": "address"
        },
        {
          "indexed": false,
          "internalType": "uint256",
          "name": "_tokenId",
          "type": "uint256"
        },
        {
          "indexed": false,
          "internalType": "uint64",
          "name": "_nonce",
          "type": "uint64"
        }
      ],
      "name": "ReceiveFromChain",
      "type": "event"
    },
    {
      "anonymous": false,
      "inputs": [
        {
          "indexed": true,
          "internalType": "address",
          "name": "_sender",
          "type": "address"
        },
        {
          "indexed": true,
          "internalType": "uint16",
          "name": "_dstChainId",
          "type": "uint16"
        },
        {
          "indexed": true,
          "internalType": "bytes",
          "name": "_toAddress",
          "type": "bytes"
        },
        {
          "indexed": false,
          "internalType": "uint256",
          "name": "_tokenId",
          "type": "uint256"
        },
        {
          "indexed": false,
          "internalType": "uint64",
          "name": "_nonce",
          "type": "uint64"
        }
      ],
      "name": "SendToChain",
      "type": "event"
    },
    {
      "anonymous": false,
      "inputs": [
        {
          "indexed": false,
          "internalType": "uint16",
          "name": "_dstChainId",
          "type": "uint16"
        },
        {
          "indexed": false,
          "internalType": "uint16",
          "name": "_type",
          "type": "uint16"
        },
        {
          "indexed": false,
          "internalType": "uint256",
          "name": "_minDstGas",
          "type": "uint256"
        }
      ],
      "name": "SetMinDstGas",
      "type": "event"
    },
    {
      "anonymous": false,
      "inputs": [
        {
          "indexed": false,
          "internalType": "address",
          "name": "precrime",
          "type": "address"
        }
      ],
      "name": "SetPrecrime",
      "type": "event"
    },
    {
      "anonymous": false,
      "inputs": [
        {
          "indexed": false,
          "internalType": "uint16",
          "name": "_remoteChainId",
          "type": "uint16"
        },
        {
          "indexed": false,
          "internalType": "bytes",
          "name": "_path",
          "type": "bytes"
        }
      ],
      "name": "SetTrustedRemote",
      "type": "event"
    },
    {
      "anonymous": false,
      "inputs": [
        {
          "indexed": false,
          "internalType": "uint16",
          "name": "_remoteChainId",
          "type": "uint16"
        },
        {
          "indexed": false,
          "internalType": "bytes",
          "name": "_remoteAddress",
          "type": "bytes"
        }
      ],
      "name": "SetTrustedRemoteAddress",
      "type": "event"
    },
    {
      "anonymous": false,
      "inputs": [
        {
          "indexed": false,
          "internalType": "address",
          "name": "account",
          "type": "address"
        }
      ],
      "name": "Unpaused",
      "type": "event"
    },
    {
      "inputs": [
        {
          "internalType": "address",
          "name": "",
          "type": "address"
        }
      ],
      "name": "collectionLockedCounter",
      "outputs": [
        {
          "internalType": "uint256",
          "name": "",
          "type": "uint256"
        }
      ],
      "stateMutability": "view",
      "type": "function"
    },
    {
      "inputs": [
        {
          "internalType": "uint16",
          "name": "",
          "type": "uint16"
        },
        {
          "internalType": "bytes",
          "name": "",
          "type": "bytes"
        },
        {
          "internalType": "uint256",
          "name": "",
          "type": "uint256"
        }
      ],
      "name": "failedMessages",
      "outputs": [
        {
          "internalType": "bytes32",
          "name": "",
          "type": "bytes32"
        }
      ],
      "stateMutability": "view",
      "type": "function"
    },
    {
      "inputs": [
        {
          "internalType": "uint16",
          "name": "_srcChainId",
          "type": "uint16"
        },
        {
          "internalType": "bytes",
          "name": "_srcAddress",
          "type": "bytes"
        }
      ],
      "name": "forceResumeReceive",
      "outputs": [],
      "stateMutability": "nonpayable",
      "type": "function"
    },
    {
      "inputs": [
        {
          "internalType": "uint16",
          "name": "_version",
          "type": "uint16"
        },
        {
          "internalType": "uint16",
          "name": "_chainId",
          "type": "uint16"
        },
        {
          "internalType": "address",
          "name": "",
          "type": "address"
        },
        {
          "internalType": "uint256",
          "name": "_configType",
          "type": "uint256"
        }
      ],
      "name": "getConfig",
      "outputs": [
        {
          "internalType": "bytes",
          "name": "",
          "type": "bytes"
        }
      ],
      "stateMutability": "view",
      "type": "function"
    },
    {
      "inputs": [
        {
          "internalType": "uint16",
          "name": "_remoteChainId",
          "type": "uint16"
        }
      ],
      "name": "getTrustedRemoteAddress",
      "outputs": [
        {
          "internalType": "bytes",
          "name": "",
          "type": "bytes"
        }
      ],
      "stateMutability": "view",
      "type": "function"
    },
    {
      "inputs": [
        {
          "internalType": "uint16",
          "name": "_srcChainId",
          "type": "uint16"
        },
        {
          "internalType": "bytes",
          "name": "_srcAddress",
          "type": "bytes"
        }
      ],
      "name": "isTrustedRemote",
      "outputs": [
        {
          "internalType": "bool",
          "name": "",
          "type": "bool"
        }
      ],
      "stateMutability": "view",
      "type": "function"
    },
    {
      "inputs": [],
      "name": "lzEndpoint",
      "outputs": [
        {
          "internalType": "contract ILayerZeroEndpoint",
          "name": "",
          "type": "address"
        }
      ],
      "stateMutability": "view",
      "type": "function"
    },
    {
      "inputs": [
        {
          "internalType": "uint16",
          "name": "_srcChainId",
          "type": "uint16"
        },
        {
          "internalType": "bytes",
          "name": "_srcAddress",
          "type": "bytes"
        },
        {
          "internalType": "uint64",
          "name": "_nonce",
          "type": "uint64"
        },
        {
          "internalType": "bytes",
          "name": "_payload",
          "type": "bytes"
        }
      ],
      "name": "lzReceive",
      "outputs": [],
      "stateMutability": "nonpayable",
      "type": "function"
    },
    {
      "inputs": [
        {
          "internalType": "uint16",
          "name": "",
          "type": "uint16"
        },
        {
          "internalType": "uint16",
          "name": "",
          "type": "uint16"
        }
      ],
      "name": "minDstGasLookup",
      "outputs": [
        {
          "internalType": "uint256",
          "name": "",
          "type": "uint256"
        }
      ],
      "stateMutability": "view",
      "type": "function"
    },
    {
      "inputs": [
        {
          "internalType": "uint16",
          "name": "_srcChainId",
          "type": "uint16"
        },
        {
          "internalType": "bytes",
          "name": "_srcAddress",
          "type": "bytes"
        },
        {
          "internalType": "uint64",
          "name": "_nonce",
          "type": "uint64"
        },
        {
          "internalType": "bytes",
          "name": "_payload",
          "type": "bytes"
        }
      ],
      "name": "nonblockingLzReceive",
      "outputs": [],
      "stateMutability": "nonpayable",
      "type": "function"
    },
    {
      "inputs": [
        {
          "internalType": "address",
          "name": "",
          "type": "address"
        },
        {
          "internalType": "address",
          "name": "",
          "type": "address"
        },
        {
          "internalType": "uint256[]",
          "name": "",
          "type": "uint256[]"
        },
        {
          "internalType": "uint256[]",
          "name": "",
          "type": "uint256[]"
        },
        {
          "internalType": "bytes",
          "name": "",
          "type": "bytes"
        }
      ],
      "name": "onERC1155BatchReceived",
      "outputs": [
        {
          "internalType": "bytes4",
          "name": "",
          "type": "bytes4"
        }
      ],
      "stateMutability": "nonpayable",
      "type": "function"
    },
    {
      "inputs": [
        {
          "internalType": "address",
          "name": "",
          "type": "address"
        },
        {
          "internalType": "address",
          "name": "",
          "type": "address"
        },
        {
          "internalType": "uint256",
          "name": "",
          "type": "uint256"
        },
        {
          "internalType": "uint256",
          "name": "",
          "type": "uint256"
        },
        {
          "internalType": "bytes",
          "name": "",
          "type": "bytes"
        }
      ],
      "name": "onERC1155Received",
      "outputs": [
        {
          "internalType": "bytes4",
          "name": "",
          "type": "bytes4"
        }
      ],
      "stateMutability": "nonpayable",
      "type": "function"
    },
    {
      "inputs": [
        {
          "internalType": "address",
          "name": "",
          "type": "address"
        }
      ],
      "name": "originAddresses",
      "outputs": [
        {
          "internalType": "address",
          "name": "",
          "type": "address"
        }
      ],
      "stateMutability": "view",
      "type": "function"
    },
    {
      "inputs": [],
      "name": "owner",
      "outputs": [
        {
          "internalType": "address",
          "name": "",
          "type": "address"
        }
      ],
      "stateMutability": "view",
      "type": "function"
    },
    {
      "inputs": [],
      "name": "paused",
      "outputs": [
        {
          "internalType": "bool",
          "name": "",
          "type": "bool"
        }
      ],
      "stateMutability": "view",
      "type": "function"
    },
    {
      "inputs": [
        {
          "internalType": "address",
          "name": "",
          "type": "address"
        }
      ],
      "name": "persistentAddresses",
      "outputs": [
        {
          "internalType": "address",
          "name": "",
          "type": "address"
        }
      ],
      "stateMutability": "view",
      "type": "function"
    },
    {
      "inputs": [],
      "name": "precrime",
      "outputs": [
        {
          "internalType": "address",
          "name": "",
          "type": "address"
        }
      ],
      "stateMutability": "view",
      "type": "function"
    },
    {
      "inputs": [],
      "name": "renounceOwnership",
      "outputs": [],
      "stateMutability": "nonpayable",
      "type": "function"
    },
    {
      "inputs": [
        {
          "internalType": "uint16",
          "name": "_srcChainId",
          "type": "uint16"
        },
        {
          "internalType": "bytes",
          "name": "_srcAddress",
          "type": "bytes"
        },
        {
          "internalType": "uint64",
          "name": "_nonce",
          "type": "uint64"
        },
        {
          "internalType": "bytes",
          "name": "_payload",
          "type": "bytes"
        }
      ],
      "name": "retryMessage",
      "outputs": [],
      "stateMutability": "payable",
      "type": "function"
    },
    {
      "inputs": [
        {
          "internalType": "uint16",
          "name": "_version",
          "type": "uint16"
        },
        {
          "internalType": "uint16",
          "name": "_chainId",
          "type": "uint16"
        },
        {
          "internalType": "uint256",
          "name": "_configType",
          "type": "uint256"
        },
        {
          "internalType": "bytes",
          "name": "_config",
          "type": "bytes"
        }
      ],
      "name": "setConfig",
      "outputs": [],
      "stateMutability": "nonpayable",
      "type": "function"
    },
    {
      "inputs": [
        {
          "internalType": "uint16",
          "name": "_dstChainId",
          "type": "uint16"
        },
        {
          "internalType": "uint16",
          "name": "_packetType",
          "type": "uint16"
        },
        {
          "internalType": "uint256",
          "name": "_minGas",
          "type": "uint256"
        }
      ],
      "name": "setMinDstGas",
      "outputs": [],
      "stateMutability": "nonpayable",
      "type": "function"
    },
    {
      "inputs": [
        {
          "internalType": "address",
          "name": "_precrime",
          "type": "address"
        }
      ],
      "name": "setPrecrime",
      "outputs": [],
      "stateMutability": "nonpayable",
      "type": "function"
    },
    {
      "inputs": [
        {
          "internalType": "uint16",
          "name": "_version",
          "type": "uint16"
        }
      ],
      "name": "setReceiveVersion",
      "outputs": [],
      "stateMutability": "nonpayable",
      "type": "function"
    },
    {
      "inputs": [
        {
          "internalType": "uint16",
          "name": "_version",
          "type": "uint16"
        }
      ],
      "name": "setSendVersion",
      "outputs": [],
      "stateMutability": "nonpayable",
      "type": "function"
    },
    {
      "inputs": [
        {
          "internalType": "uint16",
          "name": "_srcChainId",
          "type": "uint16"
        },
        {
          "internalType": "bytes",
          "name": "_path",
          "type": "bytes"
        }
      ],
      "name": "setTrustedRemote",
      "outputs": [],
      "stateMutability": "nonpayable",
      "type": "function"
    },
    {
      "inputs": [
        {
          "internalType": "uint16",
          "name": "_remoteChainId",
          "type": "uint16"
        },
        {
          "internalType": "bytes",
          "name": "_remoteAddress",
          "type": "bytes"
        }
      ],
      "name": "setTrustedRemoteAddress",
      "outputs": [],
      "stateMutability": "nonpayable",
      "type": "function"
    },
    {
      "inputs": [
        {
          "internalType": "bytes4",
          "name": "interfaceId",
          "type": "bytes4"
        }
      ],
      "name": "supportsInterface",
      "outputs": [
        {
          "internalType": "bool",
          "name": "",
          "type": "bool"
        }
      ],
      "stateMutability": "view",
      "type": "function"
    },
    {
      "inputs": [
        {
          "internalType": "address",
          "name": "newOwner",
          "type": "address"
        }
      ],
      "name": "transferOwnership",
      "outputs": [],
      "stateMutability": "nonpayable",
      "type": "function"
    },
    {
      "inputs": [
        {
          "internalType": "uint16",
          "name": "",
          "type": "uint16"
        }
      ],
      "name": "trustedRemoteLookup",
      "outputs": [
        {
          "internalType": "bytes",
          "name": "",
          "type": "bytes"
        }
      ],
      "stateMutability": "view",
      "type": "function"
    },
    {
      "inputs": [
        {
          "internalType": "address",
          "name": "_persistentAddress",
          "type": "address"
        },
        {
          "internalType": "uint256",
          "name": "_tokenId",
          "type": "uint256"
        },
        {
          "internalType": "uint256",
          "name": "_amount",
          "type": "uint256"
        }
      ],
      "name": "withdraw",
      "outputs": [],
      "stateMutability": "nonpayable",
      "type": "function"
    },
    {
      "inputs": [
        {
          "internalType": "uint16",
          "name": "_dstChainId",
          "type": "uint16"
        },
        {
          "internalType": "address",
          "name": "_toAddress",
          "type": "address"
        },
        {
          "internalType": "address",
          "name": "_erc1155Address",
          "type": "address"
        },
        {
          "internalType": "uint256",
          "name": "_tokenId",
          "type": "uint256"
        },
        {
          "internalType": "uint256",
          "name": "_amount",
          "type": "uint256"
        },
        {
          "internalType": "bytes",
          "name": "_adapterParams",
          "type": "bytes"
        }
      ],
      "name": "wrap",
      "outputs": [],
      "stateMutability": "payable",
      "type": "function"
    }
  ],
  "bytecode": {
    "object": "0x60a0346100ed57601f620045bb38819003918201601f19168301916001600160401b038311848410176100f2578084926020946040528339810103126100ed57516001600160a01b0390818116908190036100ed576000543360018060a01b0319821617600055604051923391167f8be0079c531659141344cd1fd0a4f28419497f9722a3daafe3b4186f6b6457e0600080a360805260ff19600554166005556144b290816200010982396080518181816103be015281816105810152818161063b015281816107f50152818161139f0152818161186001528181611c6b0152818161221001526124eb0152f35b600080fd5b634e487b7160e01b600052604160045260246000fdfe6080604052600436101562000014575b600080fd5b60003560e01c80621d356714620002da57806301ffc9a714620002cf57806307e0db1714620002c457806310ddb13714620002b957806315d4901e14620002ae578063227fecb014620002a35780633d8b38f6146200029857806342d65a8d146200028d5780635c975abb146200028257806366ad5c8a1462000277578063715018a6146200026c5780637533d78814620002615780638cfd8f5c14620002565780638da5cb5b146200024b5780638ee749121462000240578063950c8a741462000235578063980f6f3b146200022a5780639f38369a146200021f578063a6c3d1651462000214578063b353aaa71462000209578063b5c5f67214620001fe578063baf3292d14620001f3578063bc197c8114620001e8578063c7fb871e14620001dd578063cbed8b9c14620001d2578063d1deba1f14620001c7578063df2a5b3b14620001bc578063eb8d72b714620001b1578063f23a6e6114620001a6578063f2fde38b146200019b5763f5ecbdbc146200019157600080fd5b6200000f620021a1565b506200000f620020fd565b506200000f6200209a565b506200000f62001f1c565b506200000f62001e1e565b506200000f62001cdd565b506200000f62001bff565b506200000f62001bbb565b506200000f62001b1f565b506200000f62001a1d565b506200000f6200188f565b506200000f62001847565b506200000f6200168e565b506200000f620015cc565b506200000f620011ef565b506200000f620011c3565b506200000f62001120565b506200000f620010cc565b506200000f62001071565b506200000f6200101b565b506200000f62000e69565b506200000f62000973565b506200000f62000866565b506200000f620007c3565b506200000f62000770565b506200000f620006e9565b506200000f620006a7565b506200000f62000601565b506200000f62000547565b506200000f620004cf565b506200000f62000350565b6004359061ffff821682036200000f57565b6024359061ffff821682036200000f57565b9181601f840112156200000f578235916001600160401b0383116200000f57602083818601950101116200000f57565b604435906001600160401b03821682036200000f57565b50346200000f5760803660031901126200000f576200036e620002e5565b6001600160401b03906024358281116200000f576200039290369060040162000309565b92906200039e62000339565b916064359081116200000f57620003ba90369060040162000309565b91907f00000000000000000000000000000000000000000000000000000000000000006001600160a01b031633036200048a5762000447620004509262000457976200043f620004226200041c8a61ffff166000526001602052604060002090565b62000f0a565b80519081841491826200047f575b508162000459575b5062002406565b369162000916565b92369162000916565b9262002878565b005b90506200046836848662000916565b602081519101209060208151910120143862000438565b151591503862000430565b60405162461bcd60e51b815260206004820152601e60248201527f4c7a4170703a20696e76616c696420656e64706f696e742063616c6c657200006044820152606490fd5b50346200000f5760203660031901126200000f5760043563ffffffff60e01b81168091036200000f57602090632dca994960e01b811490811562000519575b506040519015158152f35b630271189760e51b81149150811562000535575b50386200050e565b6301ffc9a760e01b149050386200052d565b50346200000f5760006020366003190112620005fe5762000567620002e5565b8160018060a01b036200057f8183541633146200260d565b7f00000000000000000000000000000000000000000000000000000000000000001691823b15620005fa57602461ffff918360405195869485936307e0db1760e01b85521660048401525af18015620005ea575b620005dc575080f35b620005e790620008a3565b80f35b620005f462002290565b620005d3565b5080fd5b80fd5b50346200000f5760006020366003190112620005fe5762000621620002e5565b8160018060a01b03620006398183541633146200260d565b7f00000000000000000000000000000000000000000000000000000000000000001691823b15620005fa57602461ffff918360405195869485936310ddb13760e01b85521660048401525af18015620005ea57620005dc575080f35b6001600160a01b038116036200000f57565b50346200000f5760203660031901126200000f57600435620006c98162000695565b60018060a01b031660005260086020526020604060002054604051908152f35b50346200000f5760203660031901126200000f5760206004356200070d8162000695565b60018060a01b038091166000526006825260406000205416604051908152f35b9060406003198301126200000f5760043561ffff811681036200000f5791602435906001600160401b0382116200000f576200076c9160040162000309565b9091565b50346200000f57602061ffff620007b46200078b366200072d565b9390911660005260018452620007a5604060002062000f0a565b84815191012092369162000916565b82815191012014604051908152f35b50346200000f57620007d5366200072d565b9190600092839160018060a01b03620007f38185541633146200260d565b7f00000000000000000000000000000000000000000000000000000000000000001690813b156200085657836200084295604051968795869485936342d65a8d60e01b8552600485016200267a565b03925af18015620005ea57620005dc575080f35b8380fd5b60009103126200000f57565b50346200000f5760003660031901126200000f57602060ff600554166040519015158152f35b50634e487b7160e01b600052604160045260246000fd5b6001600160401b038111620008b757604052565b620008c16200088c565b604052565b90601f801991011681019081106001600160401b03821117620008b757604052565b6020906001600160401b03811162000906575b601f01601f19160190565b620009106200088c565b620008fb565b9291926200092482620008e8565b91620009346040519384620008c6565b8294818452818301116200000f578281602093846000960137010152565b9080601f830112156200000f57816020620009709335910162000916565b90565b50346200000f5760803660031901126200000f5762000991620002e5565b506024356001600160401b038082116200000f57620009b66004923690840162000952565b50620009c162000339565b506064358181116200000f57620009dc903690840162000952565b9130330362000e2557620009fa60208451850101602085016200293b565b6001600160a01b039485166000818152600660205260408120949995871698919796939594929392839062000a37905b546001600160a01b031690565b1662000c3657506040518091611964808301918383109083111762000c26575b62002b19833903906000f0801562000c16575b16803b156200000f5760408051630ab714fb60e11b81526001600160a01b038916878201908152602081018790529182018490529060009082908190606001038183865af1801562000c06575b62000bef575b50803b156200000f577ff0cde0d230e690f044f39c8fc8e8191a7090e891599864fd39eb0a8f899b345e9760008562000bbc9762000b0e6040519485938493634312207160e11b8552840162002996565b038183865af1801562000bdf575b62000bc1575b506001600160a01b038616600090815260066020526040902062000b629082905b80546001600160a01b0319166001600160a01b03909216919091179055565b6001600160a01b038116600090815260076020526040902062000b8790879062000b43565b6001600160a01b038116600090815260086020526040902062000bab815462002707565b9055925b60405196879687620029af565b0390a1005b8062000bd162000bd892620008a3565b806200085a565b3862000b22565b62000be962002290565b62000b1c565b8062000bd162000bff92620008a3565b3862000abd565b62000c1062002290565b62000ab7565b62000c2062002290565b62000a6a565b62000c306200088c565b62000a57565b989293949591505062000c7362000c6762000c6762000a2a8960018060a01b03166000526006602052604060002090565b6001600160a01b031690565b88813b15620005fe5760408051630ab714fb60e11b81526001600160a01b038b16858201908152602081018a905291820187905292839182908490829060600103925af1801562000e15575b62000dfe575b5062000cef62000c6762000c6762000a2a8960018060a01b03166000526006602052604060002090565b90813b1562000dfa57978594939262000d469262000bbc97837ff0cde0d230e690f044f39c8fc8e8191a7090e891599864fd39eb0a8f899b345e9c60405196879586948593634312207160e11b8552840162002996565b03925af1801562000dea575b62000dd3575b506001600160a01b038516600090815260066020526040902062000d9b9062000d819062000a2a565b6001600160a01b0316600090815260086020526040902090565b62000da7815462002707565b90556001600160a01b038516600090815260066020526040902062000dcc9062000a2a565b9262000baf565b8062000bd162000de392620008a3565b3862000d58565b62000df462002290565b62000d52565b8880fd5b8062000bd162000e0e92620008a3565b3862000cc5565b62000e1f62002290565b62000cbf565b60649060206040519162461bcd60e51b8352820152602060248201527f4c7a52656365697665723a2063616c6c6572206d757374206265204c7a4170706044820152fd5b50346200000f57600080600319360112620005fe57805481906001600160a01b0381169062000e9a3383146200260d565b6001600160a01b03191682557f8be0079c531659141344cd1fd0a4f28419497f9722a3daafe3b4186f6b6457e08280a380f35b90600182811c9216801562000eff575b602083101462000ee957565b634e487b7160e01b600052602260045260246000fd5b91607f169162000edd565b906040519182600082549262000f208462000ecd565b90818452600194858116908160001462000f97575060011462000f50575b505062000f4e92500383620008c6565b565b9093915060005260209081600020936000915b81831062000f7e57505062000f4e9350820101388062000f3e565b8554888401850152948501948794509183019162000f63565b91505062000f4e94506020925060ff191682840152151560051b820101388062000f3e565b60005b83811062000fd05750506000910152565b818101518382015260200162000fbf565b9060209162000ffc8151809281855285808601910162000fbc565b601f01601f1916010190565b9060206200097092818152019062000fe1565b50346200000f5760203660031901126200000f5761ffff6200103c620002e5565b1660005260016020526200106d62001058604060002062000f0a565b60405191829160208352602083019062000fe1565b0390f35b50346200000f5760403660031901126200000f576020620010c362001095620002e5565b61ffff620010a2620002f7565b91166000526002835260406000209061ffff16600052602052604060002090565b54604051908152f35b50346200000f5760003660031901126200000f576000546040516001600160a01b039091168152602090f35b6020906200111492826040519483868095519384920162000fbc565b82019081520301902090565b50346200000f5760603660031901126200000f576200113e620002e5565b6024356001600160401b0381116200000f576200106d9161ffff6200116c620011b293369060040162000952565b91166000526004602052604060002090602062001193604051928381519384920162000fbc565b8101918252602081604435930301902090600052602052604060002090565b546040519081529081906020820190565b50346200000f5760003660031901126200000f576003546040516001600160a01b039091168152602090f35b5060c03660031901126200000f5762001207620002e5565b602435620012158162000695565b604435620012238162000695565b60a435926064356084356001600160401b0386116200000f576200124d6004963690880162000952565b936001600160a01b0391828216918215620015bb576001600160a01b03811660009081526007602052604081206200128a9062000c679062000a2a565b156200148a57506001600160a01b03166000908152600760205260409020620012b39062000a2a565b6040516303a24d0760e21b8152808a01868152919491600090829081906020010381875afa9081156200147a575b60009162001454575b5097833b156200000f5760408051637a94c56560e11b815233818d0190815260208101899052808301869052620004579c620013dd996200139b9994988d9892956200137c9590946200136d94939260009183919082908490829060600103925af1801562001444575b6200142d575b505b89519e8f978895602087016200231f565b03601f198101845283620008c6565b845163040a7bb160e41b81529586948593849330908c90860162002372565b03917f0000000000000000000000000000000000000000000000000000000000000000165afa9081156200141d575b600091620013e7575b50341015620023b9565b34923391620024c1565b6200140d915060403d811162001415575b620014048183620008c6565b8101906200235b565b5038620013d3565b503d620013f8565b6200142762002290565b620013ca565b8062000bd16200143d92620008a3565b386200135a565b6200144e62002290565b62001354565b62001473913d8091833e6200146a8183620008c6565b810190620022f6565b38620012ea565b6200148462002290565b620012e1565b909793949792803b15620005fa5793896200137c6040956200136d8686620004579f8f988f9a996200139b9d620013dd9f9b838f6200154796620015138692519485938493637921219560e11b8552309033908601929060c0949260018060a01b0380921685521660208401526040830152606082015260a06080820152600060a08201520190565b038183865af18015620015ab575b62001594575b508d516303a24d0760e21b81528a81019283529384928391829160200190565b03915afa91821562001584575b809262001565575b50509d6200135c565b6200157c92503d8091833e6200146a8183620008c6565b38806200155c565b6200158e62002290565b62001554565b8062000bd1620015a492620008a3565b3862001527565b620015b562002290565b62001521565b60405163ddbadd5f60e01b81528990fd5b50346200000f5760203660031901126200000f5761ffff620015ed620002e5565b16600052600160205262001605604060002062000f0a565b80511562001649576200162c816200106d92519060131982019182116200163957620027ae565b6040519182918262001008565b62001643620026f0565b620027ae565b60405162461bcd60e51b815260206004820152601d60248201527f4c7a4170703a206e6f20747275737465642070617468207265636f72640000006044820152606490fd5b50346200000f57620016a0366200072d565b9190600091620016bb60018060a01b0384541633146200260d565b604051936020818482880137620016e86034878481013060601b85820152036014810189520187620008c6565b61ffff8316855260019081815260408620918751916001600160401b03831162001837575b62001725836200171e865462000ecd565b8662002697565b80601f84116001146200179a575091808092620017889695948a9b7f8c0400cfe2d1199b1a725c78960bcc2a344d869b80590d0f2bd005db15a572ce9b946200178e575b50501b916000199060031b1c19161790555b604051938493846200267a565b0390a180f35b01519250388062001769565b91939498601f198416620017b387600052602060002090565b938a905b8282106200181f575050917f8c0400cfe2d1199b1a725c78960bcc2a344d869b80590d0f2bd005db15a572ce999a95939185620017889896941062001805575b505050811b0190556200177b565b015160001960f88460031b161c19169055388080620017f7565b808886978294978701518155019601940190620017b7565b620018416200088c565b6200170d565b50346200000f5760003660031901126200000f576040517f00000000000000000000000000000000000000000000000000000000000000006001600160a01b03168152602090f35b50346200000f5760603660031901126200000f57600435620018b18162000695565b6001600160a01b038082166000908152600760205260409020604435926024359290918190620018e19062000a2a565b161562001a0b578116803b156200000f57604051637a94c56560e11b8152336004820152602481018490526044810185905260009485939092620019629262000c6792839262000a2a929088908290606490829084905af18015620019fb575b620019e4575b506001600160a01b0316600090815260076020526040902090565b803b15620019e057604051637921219560e11b81523060048201523360248201526044810194909452606484019190915260a06084840152600060a4840152829081838160c481015b03925af18015620019d0575b620019c0575080f35b8062000bd1620005e792620008a3565b620019da62002290565b620019b7565b8280fd5b8062000bd1620019f492620008a3565b3862001947565b62001a0562002290565b62001941565b60405163ddbadd5f60e01b8152600490fd5b50346200000f5760203660031901126200000f577f5db758e995a17ec1ad84bdef7e8c3293a0bd6179bcce400dff5d4c3d87db726b602060043562001a628162000695565b6000546001600160a01b03919062001a7e90831633146200260d565b16806bffffffffffffffffffffffff60a01b6003541617600355604051908152a1005b9080601f830112156200000f578135906001600160401b03821162001b0f575b8160051b6040519360209362001ada85840187620008c6565b855283808601928201019283116200000f578301905b82821062001aff575050505090565b8135815290830190830162001af0565b62001b196200088c565b62001ac1565b50346200000f5760a03660031901126200000f5762001b4060043562000695565b62001b4d60243562000695565b6001600160401b036044358181116200000f5762001b7090369060040162001aa1565b506064358181116200000f5762001b8c90369060040162001aa1565b506084359081116200000f5762001ba890369060040162000952565b5060405163bc197c8160e01b8152602090f35b50346200000f5760203660031901126200000f57602060043562001bdf8162000695565b60018060a01b038091166000526007825260406000205416604051908152f35b50346200000f5760803660031901126200000f5762001c1d620002e5565b62001c27620002f7565b6064356001600160401b0381116200000f5762001c4990369060040162000309565b60018060a09493941b03916000948362001c69879586541633146200260d565b7f00000000000000000000000000000000000000000000000000000000000000001691823b1562001cd9578490620019ab604051978896879586946332fb62e760e21b865261ffff8092166004870152166024850152604435604485015260806064850152608484019162002659565b8480fd5b5060803660031901126200000f5762001cf5620002e5565b6001600160401b036024358181116200000f5762001d1890369060040162000952565b62001d2262000339565b916064359081116200000f5762001d3e90369060040162000309565b91909362001daf62001d868562001d6e62001d678561ffff166000526004602052604060002090565b86620010f8565b906001600160401b0316600052602052604060002090565b5462001d94811515620029f4565b62001da136868962000916565b602081519101201462002a41565b60009485938462001dde8762001d6e62001dd78761ffff166000526004602052604060002090565b88620010f8565b55303b1562001cd95762001e08916040519687958695633356ae4560e11b87526004870162002a8e565b038183305af18015620019d057620019c0575080f35b50346200000f5760603660031901126200000f5762001e3c620002e5565b62001e46620002f7565b6044359162001e6160018060a01b036000541633146200260d565b821562001edf5762000bbc7f9d5c7c0b934da8fefa9c7760c98383778a12dfbfc0c3b3106518f43fb9508ac09361ffff831660005260026020528062001eb98560406000209061ffff16600052602052604060002090565b556040519384938460409194939294606082019561ffff80921683521660208201520152565b60405162461bcd60e51b81526020600482015260156024820152744c7a4170703a20696e76616c6964206d696e47617360581b6044820152606490fd5b50346200000f5762001f2e366200072d565b919060009162001f4960018060a01b0384541633146200260d565b61ffff81168352600160209080825260408520916001600160401b0387116200208a575b62001f858762001f7e855462000ecd565b8562002697565b8590601f881160011462001ff1575091868087989362001788957ffa41487ad5d6728f0b19276fa1eddc16558578f5109fc39d2dc33c3230470dab999362001fe5575b501b906000198460031b1c1916179055604051938493846200267a565b88013592503862001fc8565b90601f1988166200200785600052602060002090565b9288905b82821062002072575050918893917ffa41487ad5d6728f0b19276fa1eddc16558578f5109fc39d2dc33c3230470dab98996200178896941062002057575b505082811b0190556200177b565b870135600019600386901b60f8161c19169055388062002049565b808685968294968c013581550195019301906200200b565b620020946200088c565b62001f6d565b50346200000f5760a03660031901126200000f57620020bb60043562000695565b620020c860243562000695565b6084356001600160401b0381116200000f57620020ea90369060040162000952565b5060405163f23a6e6160e01b8152602090f35b50346200000f5760203660031901126200000f576004356200211f8162000695565b6000546001600160a01b03906200213a90821633146200260d565b8116156200214d57620004579062002ad1565b60405162461bcd60e51b815260206004820152602660248201527f4f776e61626c653a206e6577206f776e657220697320746865207a65726f206160448201526564647265737360d01b6064820152608490fd5b50346200000f5760803660031901126200000f576200106d620021c3620002e5565b620021cd620002f7565b90620021db60443562000695565b604051633d7b2f6f60e21b815261ffff91821660048201529116602482015230604482015260648035908201526000816084817f00000000000000000000000000000000000000000000000000000000000000006001600160a01b03165afa90811562002280575b6000916200225a575b506040519182918262001008565b62002279913d8091833e620022708183620008c6565b810190620025d2565b386200224c565b6200228a62002290565b62002243565b506040513d6000823e3d90fd5b90929192620022ac81620008e8565b91620022bc6040519384620008c6565b8294828452828201116200000f57602062000f4e93019062000fbc565b9080601f830112156200000f57815162000970926020016200229d565b906020828203126200000f5781516001600160401b0381116200000f57620009709201620022d9565b6001600160a01b0391821681529116602082015260a06040820181905292949392608092620023519183019062000fe1565b9460608201520152565b91908260409103126200000f576020825192015190565b9262000970949261ffff620023a39316855260018060a01b0316602085015260a0604085015260a084019062000fe1565b9160006060820152608081840391015262000fe1565b15620023c157565b60405162461bcd60e51b815260206004820152601760248201527f496e73756666696369656e742066656520616d6f756e740000000000000000006044820152606490fd5b156200240e57565b60405162461bcd60e51b815260206004820152602660248201527f4c7a4170703a20696e76616c696420736f757263652073656e64696e6720636f6044820152651b9d1c9858dd60d21b6064820152608490fd5b91926200248b62000970969461ffff6200249a9416855260c0602086015260c085019062000fe1565b90838203604085015262000fe1565b6001600160a01b0390931660608201526000608082015280830360a0919091015262000fe1565b90919361ffff82166000526001602052620024e0604060002062000f0a565b9081511562002574577f00000000000000000000000000000000000000000000000000000000000000006001600160a01b031692833b156200000f57620025406000966040519889978896879562c5803160e81b87526004870162002462565b03925af1801562002564575b620025545750565b8062000bd162000f4e92620008a3565b6200256e62002290565b6200254c565b60405162461bcd60e51b815260206004820152603060248201527f4c7a4170703a2064657374696e6174696f6e20636861696e206973206e6f742060448201526f61207472757374656420736f7572636560801b6064820152608490fd5b6020818303126200000f578051906001600160401b0382116200000f57019080601f830112156200000f57815162000970926020016200229d565b156200261557565b606460405162461bcd60e51b815260206004820152602060248201527f4f776e61626c653a2063616c6c6572206973206e6f7420746865206f776e65726044820152fd5b908060209392818452848401376000828201840152601f01601f1916010190565b60409061ffff620009709593168152816020820152019162002659565b90601f8111620026a657505050565b600091825260208220906020601f850160051c83019410620026e5575b601f0160051c01915b828110620026d957505050565b818155600101620026cc565b9092508290620026c3565b50634e487b7160e01b600052601160045260246000fd5b90600182018092116200271657565b62000f4e620026f0565b90601f82018092116200271657565b156200273757565b60405162461bcd60e51b815260206004820152600e60248201526d736c6963655f6f766572666c6f7760901b6044820152606490fd5b156200277557565b60405162461bcd60e51b8152602060048201526011602482015270736c6963655f6f75744f66426f756e647360781b6044820152606490fd5b620027c682620027be8162002720565b10156200272f565b620027d582825110156200276d565b81620027ee575050604051600081526020810160405290565b60405191601f811691821560051b808486010193838501920101905b808410620028235750508252601f01601f191660405290565b90928351815260208091019301906200280a565b906200286362000970959361ffff6001600160401b039316845260806020850152608084019062000fe1565b93166040820152606081840391015262000fe1565b9091303b156200000f57604051633356ae4560e11b815260008180620028a5888689896004860162002837565b038183305af1908162002929575b506200292357836200291e917fe6f254030bcb01ffd20558175c13fcaed6d1520be7becee4c961b65f79243b0d95516020830120620029108262001d6e620029098861ffff166000526004602052604060002090565b89620010f8565b556040519485948562002837565b0390a1565b50505050565b6200293490620008a3565b38620028b3565b9160a0838303126200000f578251620029548162000695565b926020810151620029658162000695565b926040820151906001600160401b0382116200000f5762002988918301620022d9565b916080606083015192015190565b6040906200097093928152816020820152019062000fe1565b949093620029ed929360a095989798600180881b03958680921689521660208801526040870152606086015260c0608086015260c085019062000fe1565b9416910152565b15620029fc57565b60405162461bcd60e51b815260206004820152601d60248201527f4c7a52656365697665723a206e6f2073746f726564206d6573736167650000006044820152606490fd5b1562002a4957565b60405162461bcd60e51b815260206004820152601b60248201527f4c7a52656365697665723a20696e76616c6964207061796c6f616400000000006044820152606490fd5b9062002abc620009709694959361ffff6001600160401b039316845260806020850152608084019062000fe1565b94166040820152606081850391015262002659565b600080546001600160a01b039283166001600160a01b03198216811783559216907f8be0079c531659141344cd1fd0a4f28419497f9722a3daafe3b4186f6b6457e09080a356fe60803461011d57602081016001600160401b038111828210176101075760405260008091526002546001908181811c911680156100fd575b60208210146100e957601f81116100a2575b600283905560038054336001600160a01b03198216811790925560405191906001600160a01b03167f8be0079c531659141344cd1fd0a4f28419497f9722a3daafe3b4186f6b6457e08680a36118419081620001238239f35b60028352601f0160051c7f405787fa12a823e0f2b7631cc41b3ba8828b3321ca811111fa75cd3aa3bb5ace908101905b8181106100df5750610049565b83815582016100d2565b634e487b7160e01b83526022600452602483fd5b90607f1690610037565b634e487b7160e01b600052604160045260246000fd5b600080fdfe60406080815260048036101561001457600080fd5b600090813560e01c8062fdd58e1461123457806301ffc9a7146111c55780630e89341c146111885780631233ce8d14611188578063156e29f614610fc05780632eb2c2d614610c5a5780634e1273f414610ab7578063715018a614610a54578063862440e2146107975780638da5cb5b1461076e578063a22cb4651461068d578063e985e9c51461063f578063f242432a146102ea578063f2fde38b1461021c5763f5298aca146100c457600080fd5b34610218576100d236611409565b909160018060a01b03906100eb82600354163314611542565b169283156101c9576100fc836117d5565b50610106826117d5565b508486516101138161130f565b528285526020908582528686208587528252868620549083821061017a575091859691817fc3d58168c5ae7397731d063d5bbf3d657854427343f4c083240f7aacaa2d0f6294868952888352848920888a528352038388205582519485528401523392a480f35b875162461bcd60e51b81529081018390526024808201527f455243313135353a206275726e20616d6f756e7420657863656564732062616c604482015263616e636560e01b6064820152608490fd5b608490602087519162461bcd60e51b8352820152602360248201527f455243313135353a206275726e2066726f6d20746865207a65726f206164647260448201526265737360e81b6064820152fd5b5080fd5b508290346102e65760203660031901126102e657610238611264565b6003546001600160a01b03808216939192610254338614611542565b169384156102945750506001600160a01b03191682176003557f8be0079c531659141344cd1fd0a4f28419497f9722a3daafe3b4186f6b6457e08380a380f35b906020608492519162461bcd60e51b8352820152602660248201527f4f776e61626c653a206e6577206f776e657220697320746865207a65726f206160448201526564647265737360d01b6064820152fd5b8280fd5b5082346102e65760a03660031901126102e657610305611264565b61030d61127f565b906044359060643560843567ffffffffffffffff811161063b5761033490369088016114f0565b926001600160a01b0392831692338414801561061d575b156105c857908894939291861690610364821515611662565b61036d816117d5565b50610377836117d5565b508086526020968688528887208588528852838988205461039a828210156116bc565b838952888a528a8920878a528a52038988205581875286885288872083885288528887206103c985825461171b565b905582858a51848152868b8201527fc3d58168c5ae7397731d063d5bbf3d657854427343f4c083240f7aacaa2d0f628c3392a43b610405578580f35b889587946104468a519788968795869463f23a6e6160e01b9c8d8752339087015260248601526044850152606484015260a0608484015260a4830190611295565b03925af1869181610599575b50610524575050600190610464611748565b6308c379a0146104f1575b506104845750505b8180808381808080808580f35b5162461bcd60e51b8152915081906104ed90820160809060208152603460208201527f455243313135353a207472616e7366657220746f206e6f6e20455243313135356040820152732932b1b2b4bb32b91034b6b83632b6b2b73a32b960611b60608201520190565b0390fd5b6104f9611766565b80610504575061046f565b6104ed8591855193849362461bcd60e51b85528401526024830190611295565b6001600160e01b03191603905061053c575050610477565b5162461bcd60e51b8152915081906104ed90820160809060208152602860208201527f455243313135353a204552433131353552656365697665722072656a656374656040820152676420746f6b656e7360c01b60608201520190565b6105ba919250843d86116105c1575b6105b28183611341565b810190611728565b9087610452565b503d6105a8565b865162461bcd60e51b81526020818a0152602960248201527f455243313135353a2063616c6c6572206973206e6f74206f776e6572206e6f7260448201526808185c1c1c9bdd995960ba1b6064820152608490fd5b508389526001602052868920338a5260205260ff878a20541661034b565b8780fd5b82843461021857806003193601126102185760ff8160209361065f611264565b61066761127f565b6001600160a01b0391821683526001875283832091168252855220549151911615158152f35b5082346102e657806003193601126102e6576106a7611264565b906024359182151580930361076a576001600160a01b0316923384146107165750338452600160205280842083855260205280842060ff1981541660ff8416179055519081527f17307eab39ab6107e8899845ad3d59bd9653f200f220920489ca2b5937696c3160203392a380f35b6020608492519162461bcd60e51b8352820152602960248201527f455243313135353a2073657474696e6720617070726f76616c20737461747573604482015268103337b91039b2b63360b91b6064820152fd5b8480fd5b82843461021857816003193601126102185760035490516001600160a01b039091168152602090f35b503461021857826003193601126102185767ffffffffffffffff602435818111610a505736602382011215610a50576107d990369060248186013591016114a9565b936107ef60018060a01b03600354163314611542565b845190828211610a3d576108046002546112d5565b91601f928381116109dd575b5080602084821160011461095a57879161094f575b508160011b916000199060031b1c1916176002555b8335855283602052842092855192831161093c575061085983546112d5565b8181116108fa575b50602090821160011461089b57839482939492610890575b50508160011b916000199060031b1c191617905580f35b015190503880610879565b82845280842090601f198316855b8181106108e2575095836001959697106108c9575b505050811b01905580f35b015160001960f88460031b161c191690553880806108be565b9192602060018192868b0151815501940192016108a9565b838552602085208280850160051c82019260208610610933575b0160051c01905b8181106109285750610861565b85815560010161091b565b92508192610914565b634e487b7160e01b855260419052602484fd5b905087015138610825565b600288527f405787fa12a823e0f2b7631cc41b3ba8828b3321ca811111fa75cd3aa3bb5ace9150601f198316885b8a8282106109c557505090836001949392106109ac575b5050811b0160025561083a565b89015160001960f88460031b161c19169055388061099f565b60018495602093958493015181550194019201610988565b600287527f405787fa12a823e0f2b7631cc41b3ba8828b3321ca811111fa75cd3aa3bb5ace8480840160051c82019260208510610a34575b0160051c01905b818110610a295750610810565b878155600101610a1c565b92508192610a15565b634e487b7160e01b855260418452602485fd5b8380fd5b8234610ab45780600319360112610ab45760035481906001600160a01b03811690610a80338314611542565b6001600160a01b0319166003557f8be0079c531659141344cd1fd0a4f28419497f9722a3daafe3b4186f6b6457e08280a380f35b80fd5b508290346102e657816003193601126102e657803567ffffffffffffffff80821161076a573660238301121561076a578183013590610af582611433565b92610b0286519485611341565b82845260209260248486019160051b83010191368311610c5657602401905b828210610c3357505050602435908111610c2f57610b42903690850161144b565b928251845103610bdc5750815194610b5986611433565b95610b6686519788611341565b808752610b75601f1991611433565b0136838801375b8251811015610bc657610bc190610bb16001600160a01b03610b9e8387611638565b5116610baa8388611638565b519061158d565b610bbb8289611638565b52611613565b610b7c565b845182815280610bd88185018961150e565b0390f35b60849185519162461bcd60e51b8352820152602960248201527f455243313135353a206163636f756e747320616e6420696473206c656e677468604482015268040dad2e6dac2e8c6d60bb1b6064820152fd5b8580fd5b81356001600160a01b0381168103610c52578152908401908401610b21565b8980fd5b8880fd5b508290346102e6576003199160a036840112610a5057610c78611264565b92610c8161127f565b9367ffffffffffffffff9360443585811161063b57610ca3903690830161144b565b90606435868111610c5657610cbb903690830161144b565b95608435908111610c5657610cd390369083016114f0565b936001600160a01b03938416933385148015610fa2575b15610f44578351885103610ef057881694610d06861515611662565b895b8a8551821015610d8c579089610d808a610d8794610d3185610d2a818d611638565b5195611638565b51938082526020908282528383208d84528252858d8585205490610d57838310156116bc565b838652858552868620908652845203848420558252818152828220908d8352522091825461171b565b9055611613565b610d08565b50509094939596929197848789518a81527f4a39dc06d4c0dbc64b70af90fd698a233a518aa5d07e595d983b8c0526c8f7fb610dca8c83018861150e565b91808303602082015280610ddf33948b61150e565b0390a43b610deb578880f35b8651948593849363bc197c8160e01b98898652338c87015260248601526044850160a0905260a48501610e1d9161150e565b82858203016064860152610e309161150e565b90838203016084840152610e4391611295565b0381885a94602095f1859181610ed0575b50610eba5750506001610e65611748565b6308c379a014610e83575b6104845750505b81808080808080808880f35b610e8b611766565b80610e965750610e70565b90506104ed91602094505193849362461bcd60e51b85528401526024830190611295565b6001600160e01b0319160361053c575050610e77565b610ee991925060203d81116105c1576105b28183611341565b9086610e54565b865162461bcd60e51b8152602081850152602860248201527f455243313135353a2069647320616e6420616d6f756e7473206c656e677468206044820152670dad2e6dac2e8c6d60c31b6064820152608490fd5b865162461bcd60e51b8152602081850152603260248201527f455243313135353a207472616e736665722063616c6c6572206973206e6f74206044820152711bdddb995c881b9bdc88185c1c1c9bdd995960721b6064820152608490fd5b50848a526001602052868a20338b5260205260ff878b205416610cea565b5082346102e657610fd036611409565b9060018060a01b03610fe781600354163314611542565b845190610ff38261130f565b8782528416801561113b5790829161100b89946117d5565b50611015856117d5565b50828452602095848752878520828652875287852061103587825461171b565b905581858951868152888a8201527fc3d58168c5ae7397731d063d5bbf3d657854427343f4c083240f7aacaa2d0f628b3392a43b611071578380f35b87946110b494879489519687958694859363f23a6e6160e01b9b8c865233908601528560248601526044850152606484015260a0608484015260a4830190611295565b03925af186918161111c575b506111045750506001906110d2611748565b6308c379a0146110f1575b506104845750505b81808080848180808380f35b6110f9611766565b8061050457506110dd565b6001600160e01b03191603905061053c5750506110e5565b611134919250843d86116105c1576105b28183611341565b90876110c0565b855162461bcd60e51b8152602081890152602160248201527f455243313135353a206d696e7420746f20746865207a65726f206164647265736044820152607360f81b6064820152608490fd5b508290346102e65760203660031901126102e65781610bd893826111b29335825260205220611363565b9051918291602083526020830190611295565b508290346102e65760203660031901126102e657359063ffffffff60e01b82168092036102e65760209250636cdb3d1360e11b8214918215611223575b8215611212575b50519015158152f35b6301ffc9a760e01b14915083611209565b6303a24d0760e21b81149250611202565b82843461021857806003193601126102185760209061125d611254611264565b6024359061158d565b9051908152f35b600435906001600160a01b038216820361127a57565b600080fd5b602435906001600160a01b038216820361127a57565b919082519283825260005b8481106112c1575050826000602080949584010152601f8019910116010190565b6020818301810151848301820152016112a0565b90600182811c92168015611305575b60208310146112ef57565b634e487b7160e01b600052602260045260246000fd5b91607f16916112e4565b6020810190811067ffffffffffffffff82111761132b57604052565b634e487b7160e01b600052604160045260246000fd5b90601f8019910116810190811067ffffffffffffffff82111761132b57604052565b9060405191826000825492611377846112d5565b9081845260019485811690816000146113e657506001146113a3575b50506113a192500383611341565b565b9093915060005260209081600020936000915b8183106113ce5750506113a193508201013880611393565b855488840185015294850194879450918301916113b6565b9150506113a194506020925060ff191682840152151560051b8201013880611393565b606090600319011261127a576004356001600160a01b038116810361127a57906024359060443590565b67ffffffffffffffff811161132b5760051b60200190565b81601f8201121561127a5780359161146283611433565b926114706040519485611341565b808452602092838086019260051b82010192831161127a578301905b82821061149a575050505090565b8135815290830190830161148c565b92919267ffffffffffffffff821161132b57604051916114d3601f8201601f191660200184611341565b82948184528183011161127a578281602093846000960137010152565b9080601f8301121561127a5781602061150b933591016114a9565b90565b90815180825260208080930193019160005b82811061152e575050505090565b835185529381019392810192600101611520565b1561154957565b606460405162461bcd60e51b815260206004820152602060248201527f4f776e61626c653a2063616c6c6572206973206e6f7420746865206f776e65726044820152fd5b6001600160a01b03169081156115ba57600052600060205260406000209060005260205260406000205490565b60405162461bcd60e51b815260206004820152602b60248201527f455243313135353a2062616c616e636520717565727920666f7220746865207a60448201526a65726f206164647265737360a81b6064820152608490fd5b60001981146116225760010190565b634e487b7160e01b600052601160045260246000fd5b805182101561164c5760209160051b010190565b634e487b7160e01b600052603260045260246000fd5b1561166957565b60405162461bcd60e51b815260206004820152602560248201527f455243313135353a207472616e7366657220746f20746865207a65726f206164604482015264647265737360d81b6064820152608490fd5b156116c357565b60405162461bcd60e51b815260206004820152602a60248201527f455243313135353a20696e73756666696369656e742062616c616e636520666f60448201526939103a3930b739b332b960b11b6064820152608490fd5b9190820180921161162257565b9081602091031261127a57516001600160e01b03198116810361127a5790565b60009060033d1161175557565b905060046000803e60005160e01c90565b600060443d1061150b57604051600319913d83016004833e815167ffffffffffffffff918282113d6024840111176117c4578184019485519384116117cc573d850101602084870101116117c4575061150b92910160200190611341565b949350505050565b50949350505050565b604051906040820182811067ffffffffffffffff82111761132b576040526001825260208201602036823782511561164c57529056fea26469706673582212205d66479d570e2b9dcb07c647919ead5193224effc04a218dd01bbc796078159464736f6c63430008110033a26469706673582212207c2d7e9d00b4718075938822dd8665142ec2701ae9e9b00b4d1b25bc17d7ac1a64736f6c63430008110033",
    "linkReferences": {}
  },
  "methodIdentifiers": {
    "collectionLockedCounter(address)": "15d4901e",
    "failedMessages(uint16,bytes,uint256)": "8ee74912",
    "forceResumeReceive(uint16,bytes)": "42d65a8d",
    "getConfig(uint16,uint16,address,uint256)": "f5ecbdbc",
    "getTrustedRemoteAddress(uint16)": "9f38369a",
    "isTrustedRemote(uint16,bytes)": "3d8b38f6",
    "lzEndpoint()": "b353aaa7",
    "lzReceive(uint16,bytes,uint64,bytes)": "001d3567",
    "minDstGasLookup(uint16,uint16)": "8cfd8f5c",
    "nonblockingLzReceive(uint16,bytes,uint64,bytes)": "66ad5c8a",
    "onERC1155BatchReceived(address,address,uint256[],uint256[],bytes)": "bc197c81",
    "onERC1155Received(address,address,uint256,uint256,bytes)": "f23a6e61",
    "originAddresses(address)": "c7fb871e",
    "owner()": "8da5cb5b",
    "paused()": "5c975abb",
    "persistentAddresses(address)": "227fecb0",
    "precrime()": "950c8a74",
    "renounceOwnership()": "715018a6",
    "retryMessage(uint16,bytes,uint64,bytes)": "d1deba1f",
    "setConfig(uint16,uint16,uint256,bytes)": "cbed8b9c",
    "setMinDstGas(uint16,uint16,uint256)": "df2a5b3b",
    "setPrecrime(address)": "baf3292d",
    "setReceiveVersion(uint16)": "10ddb137",
    "setSendVersion(uint16)": "07e0db17",
    "setTrustedRemote(uint16,bytes)": "eb8d72b7",
    "setTrustedRemoteAddress(uint16,bytes)": "a6c3d165",
    "supportsInterface(bytes4)": "01ffc9a7",
    "transferOwnership(address)": "f2fde38b",
    "trustedRemoteLookup(uint16)": "7533d788",
    "withdraw(address,uint256,uint256)": "b5c5f672",
    "wrap(uint16,address,address,uint256,uint256,bytes)": "980f6f3b"
  },
  "id": 1
}