{
  "abi": [
    {
      "inputs": [
        {
          "internalType": "address",
          "name": "_lzEndpoint",
          "type": "address"
        }
      ],
      "stateMutability": "nonpayable",
      "type": "constructor"
    },
    {
      "inputs": [],
      "name": "NoZeroAddress",
      "type": "error"
    },
    {
      "anonymous": false,
      "inputs": [
        {
          "indexed": false,
          "internalType": "address",
          "name": "ercAddress",
          "type": "address"
        },
        {
          "indexed": false,
          "internalType": "address",
          "name": "toAddress",
          "type": "address"
        },
        {
          "indexed": false,
          "internalType": "uint256",
          "name": "tokenId",
          "type": "uint256"
        },
        {
          "indexed": false,
          "internalType": "uint256",
          "name": "amount",
          "type": "uint256"
        },
        {
          "indexed": false,
          "internalType": "bytes",
          "name": "payload",
          "type": "bytes"
        },
        {
          "indexed": false,
          "internalType": "address",
          "name": "onftaddress",
          "type": "address"
        }
      ],
      "name": "LzReceive",
      "type": "event"
    },
    {
      "anonymous": false,
      "inputs": [
        {
          "indexed": false,
          "internalType": "uint16",
          "name": "_srcChainId",
          "type": "uint16"
        },
        {
          "indexed": false,
          "internalType": "bytes",
          "name": "_srcAddress",
          "type": "bytes"
        },
        {
          "indexed": false,
          "internalType": "uint64",
          "name": "_nonce",
          "type": "uint64"
        },
        {
          "indexed": false,
          "internalType": "bytes",
          "name": "_payload",
          "type": "bytes"
        }
      ],
      "name": "MessageFailed",
      "type": "event"
    },
    {
      "anonymous": false,
      "inputs": [
        {
          "indexed": true,
          "internalType": "address",
          "name": "previousOwner",
          "type": "address"
        },
        {
          "indexed": true,
          "internalType": "address",
          "name": "newOwner",
          "type": "address"
        }
      ],
      "name": "OwnershipTransferred",
      "type": "event"
    },
    {
      "anonymous": false,
      "inputs": [
        {
          "indexed": false,
          "internalType": "address",
          "name": "account",
          "type": "address"
        }
      ],
      "name": "Paused",
      "type": "event"
    },
    {
      "anonymous": false,
      "inputs": [
        {
          "indexed": true,
          "internalType": "uint16",
          "name": "_srcChainId",
          "type": "uint16"
        },
        {
          "indexed": true,
          "internalType": "bytes",
          "name": "_srcAddress",
          "type": "bytes"
        },
        {
          "indexed": true,
          "internalType": "address",
          "name": "_toAddress",
          "type": "address"
        },
        {
          "indexed": false,
          "internalType": "uint256",
          "name": "_tokenId",
          "type": "uint256"
        },
        {
          "indexed": false,
          "internalType": "uint64",
          "name": "_nonce",
          "type": "uint64"
        }
      ],
      "name": "ReceiveFromChain",
      "type": "event"
    },
    {
      "anonymous": false,
      "inputs": [
        {
          "indexed": true,
          "internalType": "address",
          "name": "_sender",
          "type": "address"
        },
        {
          "indexed": true,
          "internalType": "uint16",
          "name": "_dstChainId",
          "type": "uint16"
        },
        {
          "indexed": true,
          "internalType": "bytes",
          "name": "_toAddress",
          "type": "bytes"
        },
        {
          "indexed": false,
          "internalType": "uint256",
          "name": "_tokenId",
          "type": "uint256"
        },
        {
          "indexed": false,
          "internalType": "uint64",
          "name": "_nonce",
          "type": "uint64"
        }
      ],
      "name": "SendToChain",
      "type": "event"
    },
    {
      "anonymous": false,
      "inputs": [
        {
          "indexed": false,
          "internalType": "uint16",
          "name": "_dstChainId",
          "type": "uint16"
        },
        {
          "indexed": false,
          "internalType": "uint16",
          "name": "_type",
          "type": "uint16"
        },
        {
          "indexed": false,
          "internalType": "uint256",
          "name": "_minDstGas",
          "type": "uint256"
        }
      ],
      "name": "SetMinDstGas",
      "type": "event"
    },
    {
      "anonymous": false,
      "inputs": [
        {
          "indexed": false,
          "internalType": "address",
          "name": "precrime",
          "type": "address"
        }
      ],
      "name": "SetPrecrime",
      "type": "event"
    },
    {
      "anonymous": false,
      "inputs": [
        {
          "indexed": false,
          "internalType": "uint16",
          "name": "_remoteChainId",
          "type": "uint16"
        },
        {
          "indexed": false,
          "internalType": "bytes",
          "name": "_path",
          "type": "bytes"
        }
      ],
      "name": "SetTrustedRemote",
      "type": "event"
    },
    {
      "anonymous": false,
      "inputs": [
        {
          "indexed": false,
          "internalType": "uint16",
          "name": "_remoteChainId",
          "type": "uint16"
        },
        {
          "indexed": false,
          "internalType": "bytes",
          "name": "_remoteAddress",
          "type": "bytes"
        }
      ],
      "name": "SetTrustedRemoteAddress",
      "type": "event"
    },
    {
      "anonymous": false,
      "inputs": [
        {
          "indexed": false,
          "internalType": "address",
          "name": "account",
          "type": "address"
        }
      ],
      "name": "Unpaused",
      "type": "event"
    },
    {
      "inputs": [
        {
          "internalType": "address",
          "name": "",
          "type": "address"
        }
      ],
      "name": "collectionLockedCounter",
      "outputs": [
        {
          "internalType": "uint256",
          "name": "",
          "type": "uint256"
        }
      ],
      "stateMutability": "view",
      "type": "function"
    },
    {
      "inputs": [
        {
          "internalType": "uint16",
          "name": "",
          "type": "uint16"
        },
        {
          "internalType": "bytes",
          "name": "",
          "type": "bytes"
        },
        {
          "internalType": "uint256",
          "name": "",
          "type": "uint256"
        }
      ],
      "name": "failedMessages",
      "outputs": [
        {
          "internalType": "bytes32",
          "name": "",
          "type": "bytes32"
        }
      ],
      "stateMutability": "view",
      "type": "function"
    },
    {
      "inputs": [
        {
          "internalType": "uint16",
          "name": "_srcChainId",
          "type": "uint16"
        },
        {
          "internalType": "bytes",
          "name": "_srcAddress",
          "type": "bytes"
        }
      ],
      "name": "forceResumeReceive",
      "outputs": [],
      "stateMutability": "nonpayable",
      "type": "function"
    },
    {
      "inputs": [
        {
          "internalType": "uint16",
          "name": "_version",
          "type": "uint16"
        },
        {
          "internalType": "uint16",
          "name": "_chainId",
          "type": "uint16"
        },
        {
          "internalType": "address",
          "name": "",
          "type": "address"
        },
        {
          "internalType": "uint256",
          "name": "_configType",
          "type": "uint256"
        }
      ],
      "name": "getConfig",
      "outputs": [
        {
          "internalType": "bytes",
          "name": "",
          "type": "bytes"
        }
      ],
      "stateMutability": "view",
      "type": "function"
    },
    {
      "inputs": [
        {
          "internalType": "uint16",
          "name": "_remoteChainId",
          "type": "uint16"
        }
      ],
      "name": "getTrustedRemoteAddress",
      "outputs": [
        {
          "internalType": "bytes",
          "name": "",
          "type": "bytes"
        }
      ],
      "stateMutability": "view",
      "type": "function"
    },
    {
      "inputs": [
        {
          "internalType": "uint16",
          "name": "_srcChainId",
          "type": "uint16"
        },
        {
          "internalType": "bytes",
          "name": "_srcAddress",
          "type": "bytes"
        }
      ],
      "name": "isTrustedRemote",
      "outputs": [
        {
          "internalType": "bool",
          "name": "",
          "type": "bool"
        }
      ],
      "stateMutability": "view",
      "type": "function"
    },
    {
      "inputs": [],
      "name": "lzEndpoint",
      "outputs": [
        {
          "internalType": "contract ILayerZeroEndpoint",
          "name": "",
          "type": "address"
        }
      ],
      "stateMutability": "view",
      "type": "function"
    },
    {
      "inputs": [
        {
          "internalType": "uint16",
          "name": "_srcChainId",
          "type": "uint16"
        },
        {
          "internalType": "bytes",
          "name": "_srcAddress",
          "type": "bytes"
        },
        {
          "internalType": "uint64",
          "name": "_nonce",
          "type": "uint64"
        },
        {
          "internalType": "bytes",
          "name": "_payload",
          "type": "bytes"
        }
      ],
      "name": "lzReceive",
      "outputs": [],
      "stateMutability": "nonpayable",
      "type": "function"
    },
    {
      "inputs": [
        {
          "internalType": "uint16",
          "name": "",
          "type": "uint16"
        },
        {
          "internalType": "uint16",
          "name": "",
          "type": "uint16"
        }
      ],
      "name": "minDstGasLookup",
      "outputs": [
        {
          "internalType": "uint256",
          "name": "",
          "type": "uint256"
        }
      ],
      "stateMutability": "view",
      "type": "function"
    },
    {
      "inputs": [
        {
          "internalType": "uint16",
          "name": "_srcChainId",
          "type": "uint16"
        },
        {
          "internalType": "bytes",
          "name": "_srcAddress",
          "type": "bytes"
        },
        {
          "internalType": "uint64",
          "name": "_nonce",
          "type": "uint64"
        },
        {
          "internalType": "bytes",
          "name": "_payload",
          "type": "bytes"
        }
      ],
      "name": "nonblockingLzReceive",
      "outputs": [],
      "stateMutability": "nonpayable",
      "type": "function"
    },
    {
      "inputs": [
        {
          "internalType": "address",
          "name": "",
          "type": "address"
        },
        {
          "internalType": "address",
          "name": "",
          "type": "address"
        },
        {
          "internalType": "uint256[]",
          "name": "",
          "type": "uint256[]"
        },
        {
          "internalType": "uint256[]",
          "name": "",
          "type": "uint256[]"
        },
        {
          "internalType": "bytes",
          "name": "",
          "type": "bytes"
        }
      ],
      "name": "onERC1155BatchReceived",
      "outputs": [
        {
          "internalType": "bytes4",
          "name": "",
          "type": "bytes4"
        }
      ],
      "stateMutability": "nonpayable",
      "type": "function"
    },
    {
      "inputs": [
        {
          "internalType": "address",
          "name": "",
          "type": "address"
        },
        {
          "internalType": "address",
          "name": "",
          "type": "address"
        },
        {
          "internalType": "uint256",
          "name": "",
          "type": "uint256"
        },
        {
          "internalType": "uint256",
          "name": "",
          "type": "uint256"
        },
        {
          "internalType": "bytes",
          "name": "",
          "type": "bytes"
        }
      ],
      "name": "onERC1155Received",
      "outputs": [
        {
          "internalType": "bytes4",
          "name": "",
          "type": "bytes4"
        }
      ],
      "stateMutability": "nonpayable",
      "type": "function"
    },
    {
      "inputs": [
        {
          "internalType": "address",
          "name": "",
          "type": "address"
        }
      ],
      "name": "originAddresses",
      "outputs": [
        {
          "internalType": "address",
          "name": "",
          "type": "address"
        }
      ],
      "stateMutability": "view",
      "type": "function"
    },
    {
      "inputs": [],
      "name": "owner",
      "outputs": [
        {
          "internalType": "address",
          "name": "",
          "type": "address"
        }
      ],
      "stateMutability": "view",
      "type": "function"
    },
    {
      "inputs": [],
      "name": "paused",
      "outputs": [
        {
          "internalType": "bool",
          "name": "",
          "type": "bool"
        }
      ],
      "stateMutability": "view",
      "type": "function"
    },
    {
      "inputs": [
        {
          "internalType": "address",
          "name": "",
          "type": "address"
        }
      ],
      "name": "persistentAddresses",
      "outputs": [
        {
          "internalType": "address",
          "name": "",
          "type": "address"
        }
      ],
      "stateMutability": "view",
      "type": "function"
    },
    {
      "inputs": [],
      "name": "precrime",
      "outputs": [
        {
          "internalType": "address",
          "name": "",
          "type": "address"
        }
      ],
      "stateMutability": "view",
      "type": "function"
    },
    {
      "inputs": [],
      "name": "renounceOwnership",
      "outputs": [],
      "stateMutability": "nonpayable",
      "type": "function"
    },
    {
      "inputs": [
        {
          "internalType": "uint16",
          "name": "_srcChainId",
          "type": "uint16"
        },
        {
          "internalType": "bytes",
          "name": "_srcAddress",
          "type": "bytes"
        },
        {
          "internalType": "uint64",
          "name": "_nonce",
          "type": "uint64"
        },
        {
          "internalType": "bytes",
          "name": "_payload",
          "type": "bytes"
        }
      ],
      "name": "retryMessage",
      "outputs": [],
      "stateMutability": "payable",
      "type": "function"
    },
    {
      "inputs": [
        {
          "internalType": "uint16",
          "name": "_version",
          "type": "uint16"
        },
        {
          "internalType": "uint16",
          "name": "_chainId",
          "type": "uint16"
        },
        {
          "internalType": "uint256",
          "name": "_configType",
          "type": "uint256"
        },
        {
          "internalType": "bytes",
          "name": "_config",
          "type": "bytes"
        }
      ],
      "name": "setConfig",
      "outputs": [],
      "stateMutability": "nonpayable",
      "type": "function"
    },
    {
      "inputs": [
        {
          "internalType": "uint16",
          "name": "_dstChainId",
          "type": "uint16"
        },
        {
          "internalType": "uint16",
          "name": "_packetType",
          "type": "uint16"
        },
        {
          "internalType": "uint256",
          "name": "_minGas",
          "type": "uint256"
        }
      ],
      "name": "setMinDstGas",
      "outputs": [],
      "stateMutability": "nonpayable",
      "type": "function"
    },
    {
      "inputs": [
        {
          "internalType": "address",
          "name": "_precrime",
          "type": "address"
        }
      ],
      "name": "setPrecrime",
      "outputs": [],
      "stateMutability": "nonpayable",
      "type": "function"
    },
    {
      "inputs": [
        {
          "internalType": "uint16",
          "name": "_version",
          "type": "uint16"
        }
      ],
      "name": "setReceiveVersion",
      "outputs": [],
      "stateMutability": "nonpayable",
      "type": "function"
    },
    {
      "inputs": [
        {
          "internalType": "uint16",
          "name": "_version",
          "type": "uint16"
        }
      ],
      "name": "setSendVersion",
      "outputs": [],
      "stateMutability": "nonpayable",
      "type": "function"
    },
    {
      "inputs": [
        {
          "internalType": "uint16",
          "name": "_srcChainId",
          "type": "uint16"
        },
        {
          "internalType": "bytes",
          "name": "_path",
          "type": "bytes"
        }
      ],
      "name": "setTrustedRemote",
      "outputs": [],
      "stateMutability": "nonpayable",
      "type": "function"
    },
    {
      "inputs": [
        {
          "internalType": "uint16",
          "name": "_remoteChainId",
          "type": "uint16"
        },
        {
          "internalType": "bytes",
          "name": "_remoteAddress",
          "type": "bytes"
        }
      ],
      "name": "setTrustedRemoteAddress",
      "outputs": [],
      "stateMutability": "nonpayable",
      "type": "function"
    },
    {
      "inputs": [
        {
          "internalType": "bytes4",
          "name": "interfaceId",
          "type": "bytes4"
        }
      ],
      "name": "supportsInterface",
      "outputs": [
        {
          "internalType": "bool",
          "name": "",
          "type": "bool"
        }
      ],
      "stateMutability": "view",
      "type": "function"
    },
    {
      "inputs": [
        {
          "internalType": "address",
          "name": "newOwner",
          "type": "address"
        }
      ],
      "name": "transferOwnership",
      "outputs": [],
      "stateMutability": "nonpayable",
      "type": "function"
    },
    {
      "inputs": [
        {
          "internalType": "uint16",
          "name": "",
          "type": "uint16"
        }
      ],
      "name": "trustedRemoteLookup",
      "outputs": [
        {
          "internalType": "bytes",
          "name": "",
          "type": "bytes"
        }
      ],
      "stateMutability": "view",
      "type": "function"
    },
    {
      "inputs": [
        {
          "internalType": "address",
          "name": "_persistentAddress",
          "type": "address"
        },
        {
          "internalType": "uint256",
          "name": "_tokenId",
          "type": "uint256"
        },
        {
          "internalType": "uint256",
          "name": "_amount",
          "type": "uint256"
        }
      ],
      "name": "withdraw",
      "outputs": [],
      "stateMutability": "nonpayable",
      "type": "function"
    },
    {
      "inputs": [
        {
          "internalType": "uint16",
          "name": "_dstChainId",
          "type": "uint16"
        },
        {
          "internalType": "address",
          "name": "_toAddress",
          "type": "address"
        },
        {
          "internalType": "address",
          "name": "_erc1155Address",
          "type": "address"
        },
        {
          "internalType": "uint256",
          "name": "_tokenId",
          "type": "uint256"
        },
        {
          "internalType": "uint256",
          "name": "_amount",
          "type": "uint256"
        },
        {
          "internalType": "bytes",
          "name": "_adapterParams",
          "type": "bytes"
        }
      ],
      "name": "wrap",
      "outputs": [],
      "stateMutability": "payable",
      "type": "function"
    }
  ],
  "bytecode": {
    "object": "0x60a06040523480156200001157600080fd5b5060405162004de138038062004de18339810160408190526200003491620000af565b808062000041336200005f565b6001600160a01b031660805250506005805460ff19169055620000e1565b600080546001600160a01b038381166001600160a01b0319831681178455604051919092169283917f8be0079c531659141344cd1fd0a4f28419497f9722a3daafe3b4186f6b6457e09190a35050565b600060208284031215620000c257600080fd5b81516001600160a01b0381168114620000da57600080fd5b9392505050565b608051614cac620001356000396000818161055c0152818161074f015281816109df01528181610a6c01528181610b9c01528181610f8a015281816113910152818161177a0152611e5a0152614cac6000f3fe608060405260043610620001fe5760003560e01c8063950c8a741162000117578063c7fb871e11620000a1578063eb8d72b7116200006c578063eb8d72b714620006ad578063f23a6e6114620006d2578063f2fde38b1462000702578063f5ecbdbc146200072757600080fd5b8063c7fb871e1462000612578063cbed8b9c146200064c578063d1deba1f1462000671578063df2a5b3b146200068857600080fd5b8063b353aaa711620000e2578063b353aaa71462000548578063b5c5f672146200057e578063baf3292d14620005a3578063bc197c8114620005c857600080fd5b8063950c8a7414620004c5578063980f6f3b14620004e75780639f38369a14620004fe578063a6c3d165146200052357600080fd5b806342d65a8d11620001995780637533d78811620001645780637533d78814620003e25780638cfd8f5c14620004165780638da5cb5b14620004525780638ee74912146200047257600080fd5b806342d65a8d14620003665780635c975abb146200038b57806366ad5c8a14620003a5578063715018a614620003ca57600080fd5b806310ddb13711620001da57806310ddb137146200028957806315d4901e14620002ae578063227fecb014620002ee5780633d8b38f6146200034157600080fd5b80621d3567146200020357806301ffc9a7146200022a57806307e0db171462000264575b600080fd5b3480156200021057600080fd5b5062000228620002223660046200207c565b6200074c565b005b3480156200023757600080fd5b506200024f620002493660046200211a565b6200098e565b60405190151581526020015b60405180910390f35b3480156200027157600080fd5b50620002286200028336600462002146565b620009bc565b3480156200029657600080fd5b5062000228620002a836600462002146565b62000a49565b348015620002bb57600080fd5b50620002df620002cd3660046200217a565b60086020526000908152604090205481565b6040519081526020016200025b565b348015620002fb57600080fd5b50620003286200030d3660046200217a565b6006602052600090815260409020546001600160a01b031681565b6040516001600160a01b0390911681526020016200025b565b3480156200034e57600080fd5b506200024f620003603660046200219a565b62000aa4565b3480156200037357600080fd5b5062000228620003853660046200219a565b62000b7b565b3480156200039857600080fd5b5060055460ff166200024f565b348015620003b257600080fd5b5062000228620003c4366004620022c1565b62000c07565b348015620003d757600080fd5b506200022862000c6c565b348015620003ef57600080fd5b50620004076200040136600462002146565b62000c84565b6040516200025b9190620023a4565b3480156200042357600080fd5b50620002df62000435366004620023b9565b600260209081526000928352604080842090915290825290205481565b3480156200045f57600080fd5b506000546001600160a01b031662000328565b3480156200047f57600080fd5b50620002df62000491366004620023f1565b6004602090815260009384526040808520845180860184018051928152908401958401959095209452929052825290205481565b348015620004d257600080fd5b5060035462000328906001600160a01b031681565b62000228620004f83660046200244d565b62000d26565b3480156200050b57600080fd5b50620004076200051d36600462002146565b6200107e565b3480156200053057600080fd5b5062000228620005423660046200219a565b6200119b565b3480156200055557600080fd5b50620003287f000000000000000000000000000000000000000000000000000000000000000081565b3480156200058b57600080fd5b50620002286200059d366004620024db565b6200122c565b348015620005b057600080fd5b5062000228620005c23660046200217a565b62001312565b348015620005d557600080fd5b50620005f8620005e73660046200259b565b63bc197c8160e01b95945050505050565b6040516001600160e01b031990911681526020016200025b565b3480156200061f57600080fd5b5062000328620006313660046200217a565b6007602052600090815260409020546001600160a01b031681565b3480156200065957600080fd5b50620002286200066b36600462002656565b62001370565b6200022862000682366004620026cc565b6200140b565b3480156200069557600080fd5b5062000228620006a736600462002751565b620015b3565b348015620006ba57600080fd5b5062000228620006cc3660046200219a565b6200166a565b348015620006df57600080fd5b50620005f8620006f136600462002792565b63f23a6e6160e01b95945050505050565b3480156200070f57600080fd5b5062000228620007213660046200217a565b620016ca565b3480156200073457600080fd5b50620004076200074636600462002802565b62001749565b337f00000000000000000000000000000000000000000000000000000000000000006001600160a01b031614620007ca5760405162461bcd60e51b815260206004820152601e60248201527f4c7a4170703a20696e76616c696420656e64706f696e742063616c6c6572000060448201526064015b60405180910390fd5b61ffff861660009081526001602052604081208054620007ea9062002856565b80601f0160208091040260200160405190810160405280929190818152602001828054620008189062002856565b8015620008695780601f106200083d5761010080835404028352916020019162000869565b820191906000526020600020905b8154815290600101906020018083116200084b57829003601f168201915b5050505050905080518686905014801562000885575060008151115b8015620008b0575080516020820120604051620008a6908890889062002892565b6040518091039020145b6200090d5760405162461bcd60e51b815260206004820152602660248201527f4c7a4170703a20696e76616c696420736f757263652073656e64696e6720636f6044820152651b9d1c9858dd60d21b6064820152608401620007c1565b620009858787878080601f01602080910402602001604051908101604052809392919081815260200183838082843760009201919091525050604080516020601f8a018190048102820181019092528881528a935091508890889081908401838280828437600092019190915250620017fd92505050565b50505050505050565b60006001600160e01b03198216632dca994960e01b1480620009b65750620009b682620018f8565b92915050565b620009c66200192f565b6040516307e0db1760e01b815261ffff821660048201527f00000000000000000000000000000000000000000000000000000000000000006001600160a01b0316906307e0db17906024015b600060405180830381600087803b15801562000a2d57600080fd5b505af115801562000a42573d6000803e3d6000fd5b5050505050565b62000a536200192f565b6040516310ddb13760e01b815261ffff821660048201527f00000000000000000000000000000000000000000000000000000000000000006001600160a01b0316906310ddb1379060240162000a12565b61ffff83166000908152600160205260408120805482919062000ac79062002856565b80601f016020809104026020016040519081016040528092919081815260200182805462000af59062002856565b801562000b465780601f1062000b1a5761010080835404028352916020019162000b46565b820191906000526020600020905b81548152906001019060200180831162000b2857829003601f168201915b50505050509050838360405162000b5f92919062002892565b60405180910390208180519060200120149150505b9392505050565b62000b856200192f565b6040516342d65a8d60e01b81526001600160a01b037f000000000000000000000000000000000000000000000000000000000000000016906342d65a8d9062000bd790869086908690600401620028cb565b600060405180830381600087803b15801562000bf257600080fd5b505af115801562000985573d6000803e3d6000fd5b33301462000c585760405162461bcd60e51b815260206004820181905260248201527f4c7a52656365697665723a2063616c6c6572206d757374206265204c7a4170706044820152606401620007c1565b62000c66848484846200198b565b50505050565b62000c766200192f565b62000c82600062001ce2565b565b6001602052600090815260409020805462000c9f9062002856565b80601f016020809104026020016040519081016040528092919081815260200182805462000ccd9062002856565b801562000d1e5780601f1062000cf25761010080835404028352916020019162000d1e565b820191906000526020600020905b81548152906001019060200180831162000d0057829003601f168201915b505050505081565b6001600160a01b03841662000d4e5760405163ddbadd5f60e01b815260040160405180910390fd5b6001600160a01b03848116600090815260076020526040812054606092161562000e6557506001600160a01b03858116600081815260076020526040908190205490516303a24d0760e21b815260048101889052921691630e89341c90602401600060405180830381865afa15801562000dcc573d6000803e3d6000fd5b505050506040513d6000823e601f3d908101601f1916820160405262000df6919081019062002944565b604051637a94c56560e11b81529092506001600160a01b0387169063f5298aca9062000e2b9033908990899060040162002984565b600060405180830381600087803b15801562000e4657600080fd5b505af115801562000e5b573d6000803e3d6000fd5b5050505062000f43565b50604051637921219560e11b815285906001600160a01b0382169063f242432a9062000e9c90339030908a908a90600401620029a5565b600060405180830381600087803b15801562000eb757600080fd5b505af115801562000ecc573d6000803e3d6000fd5b50506040516303a24d0760e21b8152600481018890526001600160a01b0389169250630e89341c9150602401600060405180830381865afa15801562000f16573d6000803e3d6000fd5b505050506040513d6000823e601f3d908101601f1916820160405262000f40919081019062002944565b91505b6000818884888860405160200162000f60959493929190620029dd565b60408051601f198184030181529082905263040a7bb160e41b825291506000906001600160a01b037f000000000000000000000000000000000000000000000000000000000000000016906340a7bb109062000fc9908d903090879087908c9060040162002a1f565b6040805180830381865afa15801562000fe6573d6000803e3d6000fd5b505050506040513d601f19601f820116820180604052508101906200100c919062002a77565b50905080341015620010615760405162461bcd60e51b815260206004820152601760248201527f496e73756666696369656e742066656520616d6f756e740000000000000000006044820152606401620007c1565b620010728a83336000893462001d32565b50505050505050505050565b61ffff8116600090815260016020526040812080546060929190620010a39062002856565b80601f0160208091040260200160405190810160405280929190818152602001828054620010d19062002856565b8015620011225780601f10620010f65761010080835404028352916020019162001122565b820191906000526020600020905b8154815290600101906020018083116200110457829003601f168201915b5050505050905080516000036200117c5760405162461bcd60e51b815260206004820152601d60248201527f4c7a4170703a206e6f20747275737465642070617468207265636f72640000006044820152606401620007c1565b62000b7460006014835162001192919062002ab2565b83919062001eda565b620011a56200192f565b818130604051602001620011bc9392919062002ac8565b60408051601f1981840301815291815261ffff8516600090815260016020522090620011e9908262002b41565b507f8c0400cfe2d1199b1a725c78960bcc2a344d869b80590d0f2bd005db15a572ce8383836040516200121f93929190620028cb565b60405180910390a1505050565b6001600160a01b0383811660009081526007602052604090205416620012655760405163ddbadd5f60e01b815260040160405180910390fd5b604051637a94c56560e11b81526001600160a01b0384169063f5298aca90620012979033908690869060040162002984565b600060405180830381600087803b158015620012b257600080fd5b505af1158015620012c7573d6000803e3d6000fd5b5050506001600160a01b0380851660009081526007602052604090819020549051637921219560e11b81529116915063f242432a9062000bd7903090339087908790600401620029a5565b6200131c6200192f565b600380546001600160a01b0319166001600160a01b0383169081179091556040519081527f5db758e995a17ec1ad84bdef7e8c3293a0bd6179bcce400dff5d4c3d87db726b9060200160405180910390a150565b6200137a6200192f565b6040516332fb62e760e21b81526001600160a01b037f0000000000000000000000000000000000000000000000000000000000000000169063cbed8b9c90620013d0908890889088908890889060040162002c0d565b600060405180830381600087803b158015620013eb57600080fd5b505af115801562001400573d6000803e3d6000fd5b505050505050505050565b61ffff851660009081526004602052604080822090516200142e90879062002c3d565b90815260408051602092819003830190206001600160401b03871660009081529252902054905080620014a45760405162461bcd60e51b815260206004820152601d60248201527f4c7a52656365697665723a206e6f2073746f726564206d6573736167650000006044820152606401620007c1565b808383604051620014b792919062002892565b6040518091039020146200150e5760405162461bcd60e51b815260206004820152601b60248201527f4c7a52656365697665723a20696e76616c6964207061796c6f616400000000006044820152606401620007c1565b61ffff861660009081526004602052604080822090516200153190889062002c3d565b9081526040805191829003602090810183206001600160401b038916600090815291522091909155633356ae4560e11b815230906366ad5c8a9062001583908990899089908990899060040162002c5b565b600060405180830381600087803b1580156200159e57600080fd5b505af115801562001072573d6000803e3d6000fd5b620015bd6200192f565b60008111620016075760405162461bcd60e51b81526020600482015260156024820152744c7a4170703a20696e76616c6964206d696e47617360581b6044820152606401620007c1565b61ffff83811660008181526002602090815260408083209487168084529482529182902085905581519283528201929092529081018290527f9d5c7c0b934da8fefa9c7760c98383778a12dfbfc0c3b3106518f43fb9508ac0906060016200121f565b620016746200192f565b61ffff831660009081526001602052604090206200169482848362002c9e565b507ffa41487ad5d6728f0b19276fa1eddc16558578f5109fc39d2dc33c3230470dab8383836040516200121f93929190620028cb565b620016d46200192f565b6001600160a01b0381166200173b5760405162461bcd60e51b815260206004820152602660248201527f4f776e61626c653a206e6577206f776e657220697320746865207a65726f206160448201526564647265737360d01b6064820152608401620007c1565b620017468162001ce2565b50565b604051633d7b2f6f60e21b815261ffff808616600483015284166024820152306044820152606481018290526060907f00000000000000000000000000000000000000000000000000000000000000006001600160a01b03169063f5ecbdbc90608401600060405180830381865afa158015620017ca573d6000803e3d6000fd5b505050506040513d6000823e601f3d908101601f19168201604052620017f4919081019062002d6a565b95945050505050565b604051633356ae4560e11b815230906366ad5c8a906200182890879087908790879060040162002db7565b600060405180830381600087803b1580156200184357600080fd5b505af192505050801562001855575060015b62000c66578080519060200120600460008661ffff1661ffff168152602001908152602001600020846040516200188d919062002c3d565b9081526040805191829003602090810183206001600160401b0387166000908152915220919091557fe6f254030bcb01ffd20558175c13fcaed6d1520be7becee4c961b65f79243b0d90620018ea90869086908690869062002db7565b60405180910390a162000c66565b60006001600160e01b03198216630271189760e51b1480620009b657506301ffc9a760e01b6001600160e01b0319831614620009b6565b6000546001600160a01b0316331462000c825760405162461bcd60e51b815260206004820181905260248201527f4f776e61626c653a2063616c6c6572206973206e6f7420746865206f776e65726044820152606401620007c1565b600080600080600085806020019051810190620019a9919062002df9565b6001600160a01b03808616600090815260066020526040812054969b50949950929750909550935090911662001b45576000604051620019e99062001ff3565b604051809103906000f08015801562001a06573d6000803e3d6000fd5b50604051630ab714fb60e11b81529091506001600160a01b0382169063156e29f69062001a3c9089908890889060040162002984565b600060405180830381600087803b15801562001a5757600080fd5b505af115801562001a6c573d6000803e3d6000fd5b5050604051634312207160e11b81526001600160a01b038416925063862440e2915062001aa0908790899060040162002e77565b600060405180830381600087803b15801562001abb57600080fd5b505af115801562001ad0573d6000803e3d6000fd5b5050506001600160a01b03808916600081815260066020908152604080832080549588166001600160a01b0319968716811790915583526007825280832080549095169093179093556008909252812080546001935090919062001b3690849062002e92565b9091555090915062001c939050565b6001600160a01b0380871660009081526006602052604090819020549051630ab714fb60e11b815291169063156e29f69062001b8a9088908790879060040162002984565b600060405180830381600087803b15801562001ba557600080fd5b505af115801562001bba573d6000803e3d6000fd5b5050506001600160a01b0380881660009081526006602052604090819020549051634312207160e11b81529116915063862440e29062001c01908690889060040162002e77565b600060405180830381600087803b15801562001c1c57600080fd5b505af115801562001c31573d6000803e3d6000fd5b505050506001600160a01b0386811660009081526006602090815260408083205490931682526008905290812080546001929062001c7190849062002e92565b9091555050506001600160a01b03808616600090815260066020526040902054165b7ff0cde0d230e690f044f39c8fc8e8191a7090e891599864fd39eb0a8f899b345e868685858b8660405162001cce9695949392919062002ea8565b60405180910390a150505050505050505050565b600080546001600160a01b038381166001600160a01b0319831681178455604051919092169283917f8be0079c531659141344cd1fd0a4f28419497f9722a3daafe3b4186f6b6457e09190a35050565b61ffff86166000908152600160205260408120805462001d529062002856565b80601f016020809104026020016040519081016040528092919081815260200182805462001d809062002856565b801562001dd15780601f1062001da55761010080835404028352916020019162001dd1565b820191906000526020600020905b81548152906001019060200180831162001db357829003601f168201915b50505050509050805160000362001e445760405162461bcd60e51b815260206004820152603060248201527f4c7a4170703a2064657374696e6174696f6e20636861696e206973206e6f742060448201526f61207472757374656420736f7572636560801b6064820152608401620007c1565b60405162c5803160e81b81526001600160a01b037f0000000000000000000000000000000000000000000000000000000000000000169063c580310090849062001e9d908b9086908c908c908c908c9060040162002ef6565b6000604051808303818588803b15801562001eb757600080fd5b505af115801562001ecc573d6000803e3d6000fd5b505050505050505050505050565b60608162001eea81601f62002e92565b101562001f2b5760405162461bcd60e51b815260206004820152600e60248201526d736c6963655f6f766572666c6f7760901b6044820152606401620007c1565b62001f37828462002e92565b8451101562001f7d5760405162461bcd60e51b8152602060048201526011602482015270736c6963655f6f75744f66426f756e647360781b6044820152606401620007c1565b60608215801562001f9e576040519150600082526020820160405262001fea565b6040519150601f8416801560200281840101858101878315602002848b0101015b8183101562001fd957805183526020928301920162001fbf565b5050858452601f01601f1916604052505b50949350505050565b611d138062002f6483390190565b803561ffff811681146200201457600080fd5b919050565b60008083601f8401126200202c57600080fd5b5081356001600160401b038111156200204457600080fd5b6020830191508360208285010111156200205d57600080fd5b9250929050565b80356001600160401b03811681146200201457600080fd5b600080600080600080608087890312156200209657600080fd5b620020a18762002001565b955060208701356001600160401b0380821115620020be57600080fd5b620020cc8a838b0162002019565b9097509550859150620020e260408a0162002064565b94506060890135915080821115620020f957600080fd5b506200210889828a0162002019565b979a9699509497509295939492505050565b6000602082840312156200212d57600080fd5b81356001600160e01b03198116811462000b7457600080fd5b6000602082840312156200215957600080fd5b62000b748262002001565b6001600160a01b03811681146200174657600080fd5b6000602082840312156200218d57600080fd5b813562000b748162002164565b600080600060408486031215620021b057600080fd5b620021bb8462002001565b925060208401356001600160401b03811115620021d757600080fd5b620021e58682870162002019565b9497909650939450505050565b634e487b7160e01b600052604160045260246000fd5b604051601f8201601f191681016001600160401b0381118282101715620022335762002233620021f2565b604052919050565b60006001600160401b03821115620022575762002257620021f2565b50601f01601f191660200190565b600082601f8301126200227757600080fd5b81356200228e62002288826200223b565b62002208565b818152846020838601011115620022a457600080fd5b816020850160208301376000918101602001919091529392505050565b60008060008060808587031215620022d857600080fd5b620022e38562002001565b935060208501356001600160401b03808211156200230057600080fd5b6200230e8883890162002265565b94506200231e6040880162002064565b935060608701359150808211156200233557600080fd5b50620023448782880162002265565b91505092959194509250565b60005b838110156200236d57818101518382015260200162002353565b50506000910152565b600081518084526200239081602086016020860162002350565b601f01601f19169290920160200192915050565b60208152600062000b74602083018462002376565b60008060408385031215620023cd57600080fd5b620023d88362002001565b9150620023e86020840162002001565b90509250929050565b6000806000606084860312156200240757600080fd5b620024128462002001565b925060208401356001600160401b038111156200242e57600080fd5b6200243c8682870162002265565b925050604084013590509250925092565b60008060008060008060c087890312156200246757600080fd5b620024728762002001565b95506020870135620024848162002164565b94506040870135620024968162002164565b9350606087013592506080870135915060a08701356001600160401b03811115620024c057600080fd5b620024ce89828a0162002265565b9150509295509295509295565b600080600060608486031215620024f157600080fd5b8335620024fe8162002164565b95602085013595506040909401359392505050565b600082601f8301126200252557600080fd5b813560206001600160401b03821115620025435762002543620021f2565b8160051b6200255482820162002208565b92835284810182019282810190878511156200256f57600080fd5b83870192505b84831015620025905782358252918301919083019062002575565b979650505050505050565b600080600080600060a08688031215620025b457600080fd5b8535620025c18162002164565b94506020860135620025d38162002164565b935060408601356001600160401b0380821115620025f057600080fd5b620025fe89838a0162002513565b945060608801359150808211156200261557600080fd5b6200262389838a0162002513565b935060808801359150808211156200263a57600080fd5b50620026498882890162002265565b9150509295509295909350565b6000806000806000608086880312156200266f57600080fd5b6200267a8662002001565b94506200268a6020870162002001565b93506040860135925060608601356001600160401b03811115620026ad57600080fd5b620026bb8882890162002019565b969995985093965092949392505050565b600080600080600060808688031215620026e557600080fd5b620026f08662002001565b945060208601356001600160401b03808211156200270d57600080fd5b6200271b89838a0162002265565b95506200272b6040890162002064565b945060608801359150808211156200274257600080fd5b50620026bb8882890162002019565b6000806000606084860312156200276757600080fd5b620027728462002001565b9250620027826020850162002001565b9150604084013590509250925092565b600080600080600060a08688031215620027ab57600080fd5b8535620027b88162002164565b94506020860135620027ca8162002164565b9350604086013592506060860135915060808601356001600160401b03811115620027f457600080fd5b620026498882890162002265565b600080600080608085870312156200281957600080fd5b620028248562002001565b9350620028346020860162002001565b92506040850135620028468162002164565b9396929550929360600135925050565b600181811c908216806200286b57607f821691505b6020821081036200288c57634e487b7160e01b600052602260045260246000fd5b50919050565b8183823760009101908152919050565b81835281816020850137506000828201602090810191909152601f909101601f19169091010190565b61ffff84168152604060208201526000620017f4604083018486620028a2565b6000620028fc62002288846200223b565b90508281528383830111156200291157600080fd5b62000b7483602083018462002350565b600082601f8301126200293357600080fd5b62000b7483835160208501620028eb565b6000602082840312156200295757600080fd5b81516001600160401b038111156200296e57600080fd5b6200297c8482850162002921565b949350505050565b6001600160a01b039390931683526020830191909152604082015260600190565b6001600160a01b0394851681529290931660208301526040820152606081019190915260a06080820181905260009082015260c00190565b6001600160a01b0386811682528516602082015260a06040820181905260009062002a0b9083018662002376565b606083019490945250608001529392505050565b61ffff861681526001600160a01b038516602082015260a06040820181905260009062002a4f9083018662002376565b8415156060840152828103608084015262002a6b818562002376565b98975050505050505050565b6000806040838503121562002a8b57600080fd5b505080516020909101519092909150565b634e487b7160e01b600052601160045260246000fd5b81810381811115620009b657620009b662002a9c565b8284823760609190911b6bffffffffffffffffffffffff19169101908152601401919050565b601f82111562002b3c57600081815260208120601f850160051c8101602086101562002b175750805b601f850160051c820191505b8181101562002b385782815560010162002b23565b5050505b505050565b81516001600160401b0381111562002b5d5762002b5d620021f2565b62002b758162002b6e845462002856565b8462002aee565b602080601f83116001811462002bad576000841562002b945750858301515b600019600386901b1c1916600185901b17855562002b38565b600085815260208120601f198616915b8281101562002bde5788860151825594840194600190910190840162002bbd565b508582101562002bfd5787850151600019600388901b60f8161c191681555b5050505050600190811b01905550565b600061ffff80881683528087166020840152508460408301526080606083015262002590608083018486620028a2565b6000825162002c5181846020870162002350565b9190910192915050565b61ffff8616815260806020820152600062002c7a608083018762002376565b6001600160401b0386166040840152828103606084015262002a6b818587620028a2565b6001600160401b0383111562002cb85762002cb8620021f2565b62002cd08362002cc9835462002856565b8362002aee565b6000601f84116001811462002d07576000851562002cee5750838201355b600019600387901b1c1916600186901b17835562000a42565b600083815260209020601f19861690835b8281101562002d3a578685013582556020948501946001909201910162002d18565b508682101562002d585760001960f88860031b161c19848701351681555b505060018560011b0183555050505050565b60006020828403121562002d7d57600080fd5b81516001600160401b0381111562002d9457600080fd5b8201601f8101841362002da657600080fd5b6200297c84825160208401620028eb565b61ffff8516815260806020820152600062002dd6608083018662002376565b6001600160401b0385166040840152828103606084015262002590818562002376565b600080600080600060a0868803121562002e1257600080fd5b855162002e1f8162002164565b602087015190955062002e328162002164565b60408701519094506001600160401b0381111562002e4f57600080fd5b62002e5d8882890162002921565b606088015160809098015196999598509695949350505050565b8281526040602082015260006200297c604083018462002376565b80820180821115620009b657620009b662002a9c565b600060018060a01b038089168352808816602084015286604084015285606084015260c0608084015262002ee060c084018662002376565b915080841660a084015250979650505050505050565b61ffff8716815260c06020820152600062002f1560c083018862002376565b828103604084015262002f29818862002376565b6001600160a01b0387811660608601528616608085015283810360a0850152905062002f56818562002376565b999850505050505050505056fe60806040523480156200001157600080fd5b506040805160208101909152600081526200002c816200003e565b50620000383362000050565b62000213565b60026200004c828262000147565b5050565b600380546001600160a01b038381166001600160a01b0319831681179093556040519116919082907f8be0079c531659141344cd1fd0a4f28419497f9722a3daafe3b4186f6b6457e090600090a35050565b634e487b7160e01b600052604160045260246000fd5b600181811c90821680620000cd57607f821691505b602082108103620000ee57634e487b7160e01b600052602260045260246000fd5b50919050565b601f8211156200014257600081815260208120601f850160051c810160208610156200011d5750805b601f850160051c820191505b818110156200013e5782815560010162000129565b5050505b505050565b81516001600160401b03811115620001635762000163620000a2565b6200017b81620001748454620000b8565b84620000f4565b602080601f831160018114620001b357600084156200019a5750858301515b600019600386901b1c1916600185901b1785556200013e565b600085815260208120601f198616915b82811015620001e457888601518255948401946001909101908401620001c3565b5085821015620002035787850151600019600388901b60f8161c191681555b5050505050600190811b01905550565b611af080620002236000396000f3fe608060405234801561001057600080fd5b50600436106100f45760003560e01c8063715018a611610097578063e985e9c511610066578063e985e9c514610206578063f242432a14610242578063f2fde38b14610255578063f5298aca1461026857600080fd5b8063715018a6146101bd578063862440e2146101c55780638da5cb5b146101d8578063a22cb465146101f357600080fd5b80631233ce8d116100d35780631233ce8d14610162578063156e29f6146101755780632eb2c2d61461018a5780634e1273f41461019d57600080fd5b8062fdd58e146100f957806301ffc9a71461011f5780630e89341c14610142575b600080fd5b61010c610107366004611107565b61027b565b6040519081526020015b60405180910390f35b61013261012d366004611147565b610314565b6040519015158152602001610116565b61015561015036600461116b565b610364565b60405161011691906111ca565b61015561017036600461116b565b610406565b6101886101833660046111dd565b6104a0565b005b610188610198366004611366565b6104c8565b6101b06101ab366004611410565b610514565b6040516101169190611516565b61018861063e565b6101886101d3366004611529565b610652565b6003546040516001600160a01b039091168152602001610116565b61018861020136600461157a565b61067b565b6101326102143660046115b6565b6001600160a01b03918216600090815260016020908152604080832093909416825291909152205460ff1690565b6101886102503660046115e9565b61068a565b61018861026336600461164e565b6106cf565b6101886102763660046111dd565b610748565b60006001600160a01b0383166102eb5760405162461bcd60e51b815260206004820152602a60248201527f455243313135353a2061646472657373207a65726f206973206e6f742061207660448201526930b634b21037bbb732b960b11b60648201526084015b60405180910390fd5b506000818152602081815260408083206001600160a01b03861684529091529020545b92915050565b60006001600160e01b03198216636cdb3d1360e11b148061034557506001600160e01b031982166303a24d0760e21b145b8061030e57506301ffc9a760e01b6001600160e01b031983161461030e565b600081815260046020526040902080546060919061038190611669565b80601f01602080910402602001604051908101604052809291908181526020018280546103ad90611669565b80156103fa5780601f106103cf576101008083540402835291602001916103fa565b820191906000526020600020905b8154815290600101906020018083116103dd57829003601f168201915b50505050509050919050565b6004602052600090815260409020805461041f90611669565b80601f016020809104026020016040519081016040528092919081815260200182805461044b90611669565b80156104985780601f1061046d57610100808354040283529160200191610498565b820191906000526020600020905b81548152906001019060200180831161047b57829003601f168201915b505050505081565b6104a861075b565b6104c3838383604051806020016040528060008152506107b5565b505050565b6001600160a01b0385163314806104e457506104e48533610214565b6105005760405162461bcd60e51b81526004016102e2906116a3565b61050d85858585856108c9565b5050505050565b606081518351146105795760405162461bcd60e51b815260206004820152602960248201527f455243313135353a206163636f756e747320616e6420696473206c656e677468604482015268040dad2e6dac2e8c6d60bb1b60648201526084016102e2565b6000835167ffffffffffffffff81111561059557610595611210565b6040519080825280602002602001820160405280156105be578160200160208202803683370190505b50905060005b8451811015610636576106098582815181106105e2576105e26116f1565b60200260200101518583815181106105fc576105fc6116f1565b602002602001015161027b565b82828151811061061b5761061b6116f1565b602090810291909101015261062f8161171d565b90506105c4565b509392505050565b61064661075b565b6106506000610aa6565b565b61065a61075b565b61066381610af8565b60008281526004602052604090206104c3828261177c565b610686338383610b04565b5050565b6001600160a01b0385163314806106a657506106a68533610214565b6106c25760405162461bcd60e51b81526004016102e2906116a3565b61050d8585858585610be4565b6106d761075b565b6001600160a01b03811661073c5760405162461bcd60e51b815260206004820152602660248201527f4f776e61626c653a206e6577206f776e657220697320746865207a65726f206160448201526564647265737360d01b60648201526084016102e2565b61074581610aa6565b50565b61075061075b565b6104c3838383610d0e565b6003546001600160a01b031633146106505760405162461bcd60e51b815260206004820181905260248201527f4f776e61626c653a2063616c6c6572206973206e6f7420746865206f776e657260448201526064016102e2565b6001600160a01b0384166108155760405162461bcd60e51b815260206004820152602160248201527f455243313135353a206d696e7420746f20746865207a65726f206164647265736044820152607360f81b60648201526084016102e2565b33600061082185610e8a565b9050600061082e85610e8a565b90506000868152602081815260408083206001600160a01b038b1684529091528120805487929061086090849061183c565b909155505060408051878152602081018790526001600160a01b03808a1692600092918716917fc3d58168c5ae7397731d063d5bbf3d657854427343f4c083240f7aacaa2d0f62910160405180910390a46108c083600089898989610ed5565b50505050505050565b815183511461092b5760405162461bcd60e51b815260206004820152602860248201527f455243313135353a2069647320616e6420616d6f756e7473206c656e677468206044820152670dad2e6dac2e8c6d60c31b60648201526084016102e2565b6001600160a01b0384166109515760405162461bcd60e51b81526004016102e29061184f565b3360005b8451811015610a38576000858281518110610972576109726116f1565b602002602001015190506000858381518110610990576109906116f1565b602090810291909101810151600084815280835260408082206001600160a01b038e1683529093529190912054909150818110156109e05760405162461bcd60e51b81526004016102e290611894565b6000838152602081815260408083206001600160a01b038e8116855292528083208585039055908b16825281208054849290610a1d90849061183c565b9250508190555050505080610a319061171d565b9050610955565b50846001600160a01b0316866001600160a01b0316826001600160a01b03167f4a39dc06d4c0dbc64b70af90fd698a233a518aa5d07e595d983b8c0526c8f7fb8787604051610a889291906118de565b60405180910390a4610a9e818787878787611030565b505050505050565b600380546001600160a01b038381166001600160a01b0319831681179093556040519116919082907f8be0079c531659141344cd1fd0a4f28419497f9722a3daafe3b4186f6b6457e090600090a35050565b6002610686828261177c565b816001600160a01b0316836001600160a01b031603610b775760405162461bcd60e51b815260206004820152602960248201527f455243313135353a2073657474696e6720617070726f76616c20737461747573604482015268103337b91039b2b63360b91b60648201526084016102e2565b6001600160a01b03838116600081815260016020908152604080832094871680845294825291829020805460ff191686151590811790915591519182527f17307eab39ab6107e8899845ad3d59bd9653f200f220920489ca2b5937696c31910160405180910390a3505050565b6001600160a01b038416610c0a5760405162461bcd60e51b81526004016102e29061184f565b336000610c1685610e8a565b90506000610c2385610e8a565b90506000868152602081815260408083206001600160a01b038c16845290915290205485811015610c665760405162461bcd60e51b81526004016102e290611894565b6000878152602081815260408083206001600160a01b038d8116855292528083208985039055908a16825281208054889290610ca390849061183c565b909155505060408051888152602081018890526001600160a01b03808b16928c821692918816917fc3d58168c5ae7397731d063d5bbf3d657854427343f4c083240f7aacaa2d0f62910160405180910390a4610d03848a8a8a8a8a610ed5565b505050505050505050565b6001600160a01b038316610d705760405162461bcd60e51b815260206004820152602360248201527f455243313135353a206275726e2066726f6d20746865207a65726f206164647260448201526265737360e81b60648201526084016102e2565b336000610d7c84610e8a565b90506000610d8984610e8a565b60408051602080820183526000918290528882528181528282206001600160a01b038b1683529052205490915084811015610e125760405162461bcd60e51b8152602060048201526024808201527f455243313135353a206275726e20616d6f756e7420657863656564732062616c604482015263616e636560e01b60648201526084016102e2565b6000868152602081815260408083206001600160a01b038b81168086529184528285208a8703905582518b81529384018a90529092908816917fc3d58168c5ae7397731d063d5bbf3d657854427343f4c083240f7aacaa2d0f62910160405180910390a46040805160208101909152600090526108c0565b60408051600180825281830190925260609160009190602080830190803683370190505090508281600081518110610ec457610ec46116f1565b602090810291909101015292915050565b6001600160a01b0384163b15610a9e5760405163f23a6e6160e01b81526001600160a01b0385169063f23a6e6190610f19908990899088908890889060040161190c565b6020604051808303816000875af1925050508015610f54575060408051601f3d908101601f19168201909252610f5191810190611951565b60015b61100057610f6061196e565b806308c379a003610f995750610f7461198a565b80610f7f5750610f9b565b8060405162461bcd60e51b81526004016102e291906111ca565b505b60405162461bcd60e51b815260206004820152603460248201527f455243313135353a207472616e7366657220746f206e6f6e2d455243313135356044820152732932b1b2b4bb32b91034b6b83632b6b2b73a32b960611b60648201526084016102e2565b6001600160e01b0319811663f23a6e6160e01b146108c05760405162461bcd60e51b81526004016102e290611a14565b6001600160a01b0384163b15610a9e5760405163bc197c8160e01b81526001600160a01b0385169063bc197c81906110749089908990889088908890600401611a5c565b6020604051808303816000875af19250505080156110af575060408051601f3d908101601f191682019092526110ac91810190611951565b60015b6110bb57610f6061196e565b6001600160e01b0319811663bc197c8160e01b146108c05760405162461bcd60e51b81526004016102e290611a14565b80356001600160a01b038116811461110257600080fd5b919050565b6000806040838503121561111a57600080fd5b611123836110eb565b946020939093013593505050565b6001600160e01b03198116811461074557600080fd5b60006020828403121561115957600080fd5b813561116481611131565b9392505050565b60006020828403121561117d57600080fd5b5035919050565b6000815180845260005b818110156111aa5760208185018101518683018201520161118e565b506000602082860101526020601f19601f83011685010191505092915050565b6020815260006111646020830184611184565b6000806000606084860312156111f257600080fd5b6111fb846110eb565b95602085013595506040909401359392505050565b634e487b7160e01b600052604160045260246000fd5b601f8201601f1916810167ffffffffffffffff8111828210171561124c5761124c611210565b6040525050565b600067ffffffffffffffff82111561126d5761126d611210565b5060051b60200190565b600082601f83011261128857600080fd5b8135602061129582611253565b6040516112a28282611226565b83815260059390931b85018201928281019150868411156112c257600080fd5b8286015b848110156112dd57803583529183019183016112c6565b509695505050505050565b600067ffffffffffffffff83111561130257611302611210565b604051611319601f8501601f191660200182611226565b80915083815284848401111561132e57600080fd5b83836020830137600060208583010152509392505050565b600082601f83011261135757600080fd5b611164838335602085016112e8565b600080600080600060a0868803121561137e57600080fd5b611387866110eb565b9450611395602087016110eb565b9350604086013567ffffffffffffffff808211156113b257600080fd5b6113be89838a01611277565b945060608801359150808211156113d457600080fd5b6113e089838a01611277565b935060808801359150808211156113f657600080fd5b5061140388828901611346565b9150509295509295909350565b6000806040838503121561142357600080fd5b823567ffffffffffffffff8082111561143b57600080fd5b818501915085601f83011261144f57600080fd5b8135602061145c82611253565b6040516114698282611226565b83815260059390931b850182019282810191508984111561148957600080fd5b948201945b838610156114ae5761149f866110eb565b8252948201949082019061148e565b965050860135925050808211156114c457600080fd5b506114d185828601611277565b9150509250929050565b600081518084526020808501945080840160005b8381101561150b578151875295820195908201906001016114ef565b509495945050505050565b60208152600061116460208301846114db565b6000806040838503121561153c57600080fd5b82359150602083013567ffffffffffffffff81111561155a57600080fd5b8301601f8101851361156b57600080fd5b6114d1858235602084016112e8565b6000806040838503121561158d57600080fd5b611596836110eb565b9150602083013580151581146115ab57600080fd5b809150509250929050565b600080604083850312156115c957600080fd5b6115d2836110eb565b91506115e0602084016110eb565b90509250929050565b600080600080600060a0868803121561160157600080fd5b61160a866110eb565b9450611618602087016110eb565b93506040860135925060608601359150608086013567ffffffffffffffff81111561164257600080fd5b61140388828901611346565b60006020828403121561166057600080fd5b611164826110eb565b600181811c9082168061167d57607f821691505b60208210810361169d57634e487b7160e01b600052602260045260246000fd5b50919050565b6020808252602e908201527f455243313135353a2063616c6c6572206973206e6f7420746f6b656e206f776e60408201526d195c881bdc88185c1c1c9bdd995960921b606082015260800190565b634e487b7160e01b600052603260045260246000fd5b634e487b7160e01b600052601160045260246000fd5b60006001820161172f5761172f611707565b5060010190565b601f8211156104c357600081815260208120601f850160051c8101602086101561175d5750805b601f850160051c820191505b81811015610a9e57828155600101611769565b815167ffffffffffffffff81111561179657611796611210565b6117aa816117a48454611669565b84611736565b602080601f8311600181146117df57600084156117c75750858301515b600019600386901b1c1916600185901b178555610a9e565b600085815260208120601f198616915b8281101561180e578886015182559484019460019091019084016117ef565b508582101561182c5787850151600019600388901b60f8161c191681555b5050505050600190811b01905550565b8082018082111561030e5761030e611707565b60208082526025908201527f455243313135353a207472616e7366657220746f20746865207a65726f206164604082015264647265737360d81b606082015260800190565b6020808252602a908201527f455243313135353a20696e73756666696369656e742062616c616e636520666f60408201526939103a3930b739b332b960b11b606082015260800190565b6040815260006118f160408301856114db565b828103602084015261190381856114db565b95945050505050565b6001600160a01b03868116825285166020820152604081018490526060810183905260a06080820181905260009061194690830184611184565b979650505050505050565b60006020828403121561196357600080fd5b815161116481611131565b600060033d11156119875760046000803e5060005160e01c5b90565b600060443d10156119985790565b6040516003193d81016004833e81513d67ffffffffffffffff81602484011181841117156119c857505050505090565b82850191508151818111156119e05750505050505090565b843d87010160208285010111156119fa5750505050505090565b611a0960208286010187611226565b509095945050505050565b60208082526028908201527f455243313135353a204552433131353552656365697665722072656a656374656040820152676420746f6b656e7360c01b606082015260800190565b6001600160a01b0386811682528516602082015260a060408201819052600090611a88908301866114db565b8281036060840152611a9a81866114db565b90508281036080840152611aae8185611184565b9897505050505050505056fea26469706673582212200c00329267748866e39b6fc428928ca1f7aa4281872d4849981410c2fed8393264736f6c63430008110033a2646970667358221220a9a6d0649afa78cb4c17268441c95b56d9efa46e49c6e9ee3b0c2763900cf4ce64736f6c63430008110033",
    "linkReferences": {}
  },
  "methodIdentifiers": {
    "collectionLockedCounter(address)": "15d4901e",
    "failedMessages(uint16,bytes,uint256)": "8ee74912",
    "forceResumeReceive(uint16,bytes)": "42d65a8d",
    "getConfig(uint16,uint16,address,uint256)": "f5ecbdbc",
    "getTrustedRemoteAddress(uint16)": "9f38369a",
    "isTrustedRemote(uint16,bytes)": "3d8b38f6",
    "lzEndpoint()": "b353aaa7",
    "lzReceive(uint16,bytes,uint64,bytes)": "001d3567",
    "minDstGasLookup(uint16,uint16)": "8cfd8f5c",
    "nonblockingLzReceive(uint16,bytes,uint64,bytes)": "66ad5c8a",
    "onERC1155BatchReceived(address,address,uint256[],uint256[],bytes)": "bc197c81",
    "onERC1155Received(address,address,uint256,uint256,bytes)": "f23a6e61",
    "originAddresses(address)": "c7fb871e",
    "owner()": "8da5cb5b",
    "paused()": "5c975abb",
    "persistentAddresses(address)": "227fecb0",
    "precrime()": "950c8a74",
    "renounceOwnership()": "715018a6",
    "retryMessage(uint16,bytes,uint64,bytes)": "d1deba1f",
    "setConfig(uint16,uint16,uint256,bytes)": "cbed8b9c",
    "setMinDstGas(uint16,uint16,uint256)": "df2a5b3b",
    "setPrecrime(address)": "baf3292d",
    "setReceiveVersion(uint16)": "10ddb137",
    "setSendVersion(uint16)": "07e0db17",
    "setTrustedRemote(uint16,bytes)": "eb8d72b7",
    "setTrustedRemoteAddress(uint16,bytes)": "a6c3d165",
    "supportsInterface(bytes4)": "01ffc9a7",
    "transferOwnership(address)": "f2fde38b",
    "trustedRemoteLookup(uint16)": "7533d788",
    "withdraw(address,uint256,uint256)": "b5c5f672",
    "wrap(uint16,address,address,uint256,uint256,bytes)": "980f6f3b"
  },
  "id": 1
}