{
  "abi": [
    {
      "inputs": [],
      "stateMutability": "nonpayable",
      "type": "constructor"
    },
    {
      "anonymous": false,
      "inputs": [
        {
          "indexed": true,
          "internalType": "address",
          "name": "account",
          "type": "address"
        },
        {
          "indexed": true,
          "internalType": "address",
          "name": "operator",
          "type": "address"
        },
        {
          "indexed": false,
          "internalType": "bool",
          "name": "approved",
          "type": "bool"
        }
      ],
      "name": "ApprovalForAll",
      "type": "event"
    },
    {
      "anonymous": false,
      "inputs": [
        {
          "indexed": true,
          "internalType": "address",
          "name": "previousOwner",
          "type": "address"
        },
        {
          "indexed": true,
          "internalType": "address",
          "name": "newOwner",
          "type": "address"
        }
      ],
      "name": "OwnershipTransferred",
      "type": "event"
    },
    {
      "anonymous": false,
      "inputs": [
        {
          "indexed": true,
          "internalType": "address",
          "name": "operator",
          "type": "address"
        },
        {
          "indexed": true,
          "internalType": "address",
          "name": "from",
          "type": "address"
        },
        {
          "indexed": true,
          "internalType": "address",
          "name": "to",
          "type": "address"
        },
        {
          "indexed": false,
          "internalType": "uint256[]",
          "name": "ids",
          "type": "uint256[]"
        },
        {
          "indexed": false,
          "internalType": "uint256[]",
          "name": "values",
          "type": "uint256[]"
        }
      ],
      "name": "TransferBatch",
      "type": "event"
    },
    {
      "anonymous": false,
      "inputs": [
        {
          "indexed": true,
          "internalType": "address",
          "name": "operator",
          "type": "address"
        },
        {
          "indexed": true,
          "internalType": "address",
          "name": "from",
          "type": "address"
        },
        {
          "indexed": true,
          "internalType": "address",
          "name": "to",
          "type": "address"
        },
        {
          "indexed": false,
          "internalType": "uint256",
          "name": "id",
          "type": "uint256"
        },
        {
          "indexed": false,
          "internalType": "uint256",
          "name": "value",
          "type": "uint256"
        }
      ],
      "name": "TransferSingle",
      "type": "event"
    },
    {
      "anonymous": false,
      "inputs": [
        {
          "indexed": false,
          "internalType": "string",
          "name": "value",
          "type": "string"
        },
        {
          "indexed": true,
          "internalType": "uint256",
          "name": "id",
          "type": "uint256"
        }
      ],
      "name": "URI",
      "type": "event"
    },
    {
      "inputs": [
        {
          "internalType": "uint256",
          "name": "",
          "type": "uint256"
        }
      ],
      "name": "_uris",
      "outputs": [
        {
          "internalType": "string",
          "name": "",
          "type": "string"
        }
      ],
      "stateMutability": "view",
      "type": "function"
    },
    {
      "inputs": [
        {
          "internalType": "address",
          "name": "account",
          "type": "address"
        },
        {
          "internalType": "uint256",
          "name": "id",
          "type": "uint256"
        }
      ],
      "name": "balanceOf",
      "outputs": [
        {
          "internalType": "uint256",
          "name": "",
          "type": "uint256"
        }
      ],
      "stateMutability": "view",
      "type": "function"
    },
    {
      "inputs": [
        {
          "internalType": "address[]",
          "name": "accounts",
          "type": "address[]"
        },
        {
          "internalType": "uint256[]",
          "name": "ids",
          "type": "uint256[]"
        }
      ],
      "name": "balanceOfBatch",
      "outputs": [
        {
          "internalType": "uint256[]",
          "name": "",
          "type": "uint256[]"
        }
      ],
      "stateMutability": "view",
      "type": "function"
    },
    {
      "inputs": [
        {
          "internalType": "address",
          "name": "account",
          "type": "address"
        },
        {
          "internalType": "uint256",
          "name": "id",
          "type": "uint256"
        },
        {
          "internalType": "uint256",
          "name": "value",
          "type": "uint256"
        }
      ],
      "name": "burn",
      "outputs": [],
      "stateMutability": "nonpayable",
      "type": "function"
    },
    {
      "inputs": [
        {
          "internalType": "address",
          "name": "account",
          "type": "address"
        },
        {
          "internalType": "address",
          "name": "operator",
          "type": "address"
        }
      ],
      "name": "isApprovedForAll",
      "outputs": [
        {
          "internalType": "bool",
          "name": "",
          "type": "bool"
        }
      ],
      "stateMutability": "view",
      "type": "function"
    },
    {
      "inputs": [
        {
          "internalType": "address",
          "name": "account",
          "type": "address"
        },
        {
          "internalType": "uint256",
          "name": "id",
          "type": "uint256"
        },
        {
          "internalType": "uint256",
          "name": "amount",
          "type": "uint256"
        }
      ],
      "name": "mint",
      "outputs": [],
      "stateMutability": "nonpayable",
      "type": "function"
    },
    {
      "inputs": [],
      "name": "owner",
      "outputs": [
        {
          "internalType": "address",
          "name": "",
          "type": "address"
        }
      ],
      "stateMutability": "view",
      "type": "function"
    },
    {
      "inputs": [],
      "name": "renounceOwnership",
      "outputs": [],
      "stateMutability": "nonpayable",
      "type": "function"
    },
    {
      "inputs": [
        {
          "internalType": "address",
          "name": "from",
          "type": "address"
        },
        {
          "internalType": "address",
          "name": "to",
          "type": "address"
        },
        {
          "internalType": "uint256[]",
          "name": "ids",
          "type": "uint256[]"
        },
        {
          "internalType": "uint256[]",
          "name": "amounts",
          "type": "uint256[]"
        },
        {
          "internalType": "bytes",
          "name": "data",
          "type": "bytes"
        }
      ],
      "name": "safeBatchTransferFrom",
      "outputs": [],
      "stateMutability": "nonpayable",
      "type": "function"
    },
    {
      "inputs": [
        {
          "internalType": "address",
          "name": "from",
          "type": "address"
        },
        {
          "internalType": "address",
          "name": "to",
          "type": "address"
        },
        {
          "internalType": "uint256",
          "name": "id",
          "type": "uint256"
        },
        {
          "internalType": "uint256",
          "name": "amount",
          "type": "uint256"
        },
        {
          "internalType": "bytes",
          "name": "data",
          "type": "bytes"
        }
      ],
      "name": "safeTransferFrom",
      "outputs": [],
      "stateMutability": "nonpayable",
      "type": "function"
    },
    {
      "inputs": [
        {
          "internalType": "address",
          "name": "operator",
          "type": "address"
        },
        {
          "internalType": "bool",
          "name": "approved",
          "type": "bool"
        }
      ],
      "name": "setApprovalForAll",
      "outputs": [],
      "stateMutability": "nonpayable",
      "type": "function"
    },
    {
      "inputs": [
        {
          "internalType": "uint256",
          "name": "_tokenId",
          "type": "uint256"
        },
        {
          "internalType": "string",
          "name": "newuri",
          "type": "string"
        }
      ],
      "name": "setURI",
      "outputs": [],
      "stateMutability": "nonpayable",
      "type": "function"
    },
    {
      "inputs": [
        {
          "internalType": "bytes4",
          "name": "interfaceId",
          "type": "bytes4"
        }
      ],
      "name": "supportsInterface",
      "outputs": [
        {
          "internalType": "bool",
          "name": "",
          "type": "bool"
        }
      ],
      "stateMutability": "view",
      "type": "function"
    },
    {
      "inputs": [
        {
          "internalType": "address",
          "name": "newOwner",
          "type": "address"
        }
      ],
      "name": "transferOwnership",
      "outputs": [],
      "stateMutability": "nonpayable",
      "type": "function"
    },
    {
      "inputs": [
        {
          "internalType": "uint256",
          "name": "_tokenId",
          "type": "uint256"
        }
      ],
      "name": "uri",
      "outputs": [
        {
          "internalType": "string",
          "name": "",
          "type": "string"
        }
      ],
      "stateMutability": "view",
      "type": "function"
    }
  ],
  "bytecode": {
    "object": "0x60803461011d57602081016001600160401b038111828210176101075760405260008091526002546001908181811c911680156100fd575b60208210146100e957601f81116100a2575b600283905560038054336001600160a01b03198216811790925560405191906001600160a01b03167f8be0079c531659141344cd1fd0a4f28419497f9722a3daafe3b4186f6b6457e08680a36118419081620001238239f35b60028352601f0160051c7f405787fa12a823e0f2b7631cc41b3ba8828b3321ca811111fa75cd3aa3bb5ace908101905b8181106100df5750610049565b83815582016100d2565b634e487b7160e01b83526022600452602483fd5b90607f1690610037565b634e487b7160e01b600052604160045260246000fd5b600080fdfe60406080815260048036101561001457600080fd5b600090813560e01c8062fdd58e1461123457806301ffc9a7146111c55780630e89341c146111885780631233ce8d14611188578063156e29f614610fc05780632eb2c2d614610c5a5780634e1273f414610ab7578063715018a614610a54578063862440e2146107975780638da5cb5b1461076e578063a22cb4651461068d578063e985e9c51461063f578063f242432a146102ea578063f2fde38b1461021c5763f5298aca146100c457600080fd5b34610218576100d236611409565b909160018060a01b03906100eb82600354163314611542565b169283156101c9576100fc836117d5565b50610106826117d5565b508486516101138161130f565b528285526020908582528686208587528252868620549083821061017a575091859691817fc3d58168c5ae7397731d063d5bbf3d657854427343f4c083240f7aacaa2d0f6294868952888352848920888a528352038388205582519485528401523392a480f35b875162461bcd60e51b81529081018390526024808201527f455243313135353a206275726e20616d6f756e7420657863656564732062616c604482015263616e636560e01b6064820152608490fd5b608490602087519162461bcd60e51b8352820152602360248201527f455243313135353a206275726e2066726f6d20746865207a65726f206164647260448201526265737360e81b6064820152fd5b5080fd5b508290346102e65760203660031901126102e657610238611264565b6003546001600160a01b03808216939192610254338614611542565b169384156102945750506001600160a01b03191682176003557f8be0079c531659141344cd1fd0a4f28419497f9722a3daafe3b4186f6b6457e08380a380f35b906020608492519162461bcd60e51b8352820152602660248201527f4f776e61626c653a206e6577206f776e657220697320746865207a65726f206160448201526564647265737360d01b6064820152fd5b8280fd5b5082346102e65760a03660031901126102e657610305611264565b61030d61127f565b906044359060643560843567ffffffffffffffff811161063b5761033490369088016114f0565b926001600160a01b0392831692338414801561061d575b156105c857908894939291861690610364821515611662565b61036d816117d5565b50610377836117d5565b508086526020968688528887208588528852838988205461039a828210156116bc565b838952888a528a8920878a528a52038988205581875286885288872083885288528887206103c985825461171b565b905582858a51848152868b8201527fc3d58168c5ae7397731d063d5bbf3d657854427343f4c083240f7aacaa2d0f628c3392a43b610405578580f35b889587946104468a519788968795869463f23a6e6160e01b9c8d8752339087015260248601526044850152606484015260a0608484015260a4830190611295565b03925af1869181610599575b50610524575050600190610464611748565b6308c379a0146104f1575b506104845750505b8180808381808080808580f35b5162461bcd60e51b8152915081906104ed90820160809060208152603460208201527f455243313135353a207472616e7366657220746f206e6f6e20455243313135356040820152732932b1b2b4bb32b91034b6b83632b6b2b73a32b960611b60608201520190565b0390fd5b6104f9611766565b80610504575061046f565b6104ed8591855193849362461bcd60e51b85528401526024830190611295565b6001600160e01b03191603905061053c575050610477565b5162461bcd60e51b8152915081906104ed90820160809060208152602860208201527f455243313135353a204552433131353552656365697665722072656a656374656040820152676420746f6b656e7360c01b60608201520190565b6105ba919250843d86116105c1575b6105b28183611341565b810190611728565b9087610452565b503d6105a8565b865162461bcd60e51b81526020818a0152602960248201527f455243313135353a2063616c6c6572206973206e6f74206f776e6572206e6f7260448201526808185c1c1c9bdd995960ba1b6064820152608490fd5b508389526001602052868920338a5260205260ff878a20541661034b565b8780fd5b82843461021857806003193601126102185760ff8160209361065f611264565b61066761127f565b6001600160a01b0391821683526001875283832091168252855220549151911615158152f35b5082346102e657806003193601126102e6576106a7611264565b906024359182151580930361076a576001600160a01b0316923384146107165750338452600160205280842083855260205280842060ff1981541660ff8416179055519081527f17307eab39ab6107e8899845ad3d59bd9653f200f220920489ca2b5937696c3160203392a380f35b6020608492519162461bcd60e51b8352820152602960248201527f455243313135353a2073657474696e6720617070726f76616c20737461747573604482015268103337b91039b2b63360b91b6064820152fd5b8480fd5b82843461021857816003193601126102185760035490516001600160a01b039091168152602090f35b503461021857826003193601126102185767ffffffffffffffff602435818111610a505736602382011215610a50576107d990369060248186013591016114a9565b936107ef60018060a01b03600354163314611542565b845190828211610a3d576108046002546112d5565b91601f928381116109dd575b5080602084821160011461095a57879161094f575b508160011b916000199060031b1c1916176002555b8335855283602052842092855192831161093c575061085983546112d5565b8181116108fa575b50602090821160011461089b57839482939492610890575b50508160011b916000199060031b1c191617905580f35b015190503880610879565b82845280842090601f198316855b8181106108e2575095836001959697106108c9575b505050811b01905580f35b015160001960f88460031b161c191690553880806108be565b9192602060018192868b0151815501940192016108a9565b838552602085208280850160051c82019260208610610933575b0160051c01905b8181106109285750610861565b85815560010161091b565b92508192610914565b634e487b7160e01b855260419052602484fd5b905087015138610825565b600288527f405787fa12a823e0f2b7631cc41b3ba8828b3321ca811111fa75cd3aa3bb5ace9150601f198316885b8a8282106109c557505090836001949392106109ac575b5050811b0160025561083a565b89015160001960f88460031b161c19169055388061099f565b60018495602093958493015181550194019201610988565b600287527f405787fa12a823e0f2b7631cc41b3ba8828b3321ca811111fa75cd3aa3bb5ace8480840160051c82019260208510610a34575b0160051c01905b818110610a295750610810565b878155600101610a1c565b92508192610a15565b634e487b7160e01b855260418452602485fd5b8380fd5b8234610ab45780600319360112610ab45760035481906001600160a01b03811690610a80338314611542565b6001600160a01b0319166003557f8be0079c531659141344cd1fd0a4f28419497f9722a3daafe3b4186f6b6457e08280a380f35b80fd5b508290346102e657816003193601126102e657803567ffffffffffffffff80821161076a573660238301121561076a578183013590610af582611433565b92610b0286519485611341565b82845260209260248486019160051b83010191368311610c5657602401905b828210610c3357505050602435908111610c2f57610b42903690850161144b565b928251845103610bdc5750815194610b5986611433565b95610b6686519788611341565b808752610b75601f1991611433565b0136838801375b8251811015610bc657610bc190610bb16001600160a01b03610b9e8387611638565b5116610baa8388611638565b519061158d565b610bbb8289611638565b52611613565b610b7c565b845182815280610bd88185018961150e565b0390f35b60849185519162461bcd60e51b8352820152602960248201527f455243313135353a206163636f756e747320616e6420696473206c656e677468604482015268040dad2e6dac2e8c6d60bb1b6064820152fd5b8580fd5b81356001600160a01b0381168103610c52578152908401908401610b21565b8980fd5b8880fd5b508290346102e6576003199160a036840112610a5057610c78611264565b92610c8161127f565b9367ffffffffffffffff9360443585811161063b57610ca3903690830161144b565b90606435868111610c5657610cbb903690830161144b565b95608435908111610c5657610cd390369083016114f0565b936001600160a01b03938416933385148015610fa2575b15610f44578351885103610ef057881694610d06861515611662565b895b8a8551821015610d8c579089610d808a610d8794610d3185610d2a818d611638565b5195611638565b51938082526020908282528383208d84528252858d8585205490610d57838310156116bc565b838652858552868620908652845203848420558252818152828220908d8352522091825461171b565b9055611613565b610d08565b50509094939596929197848789518a81527f4a39dc06d4c0dbc64b70af90fd698a233a518aa5d07e595d983b8c0526c8f7fb610dca8c83018861150e565b91808303602082015280610ddf33948b61150e565b0390a43b610deb578880f35b8651948593849363bc197c8160e01b98898652338c87015260248601526044850160a0905260a48501610e1d9161150e565b82858203016064860152610e309161150e565b90838203016084840152610e4391611295565b0381885a94602095f1859181610ed0575b50610eba5750506001610e65611748565b6308c379a014610e83575b6104845750505b81808080808080808880f35b610e8b611766565b80610e965750610e70565b90506104ed91602094505193849362461bcd60e51b85528401526024830190611295565b6001600160e01b0319160361053c575050610e77565b610ee991925060203d81116105c1576105b28183611341565b9086610e54565b865162461bcd60e51b8152602081850152602860248201527f455243313135353a2069647320616e6420616d6f756e7473206c656e677468206044820152670dad2e6dac2e8c6d60c31b6064820152608490fd5b865162461bcd60e51b8152602081850152603260248201527f455243313135353a207472616e736665722063616c6c6572206973206e6f74206044820152711bdddb995c881b9bdc88185c1c1c9bdd995960721b6064820152608490fd5b50848a526001602052868a20338b5260205260ff878b205416610cea565b5082346102e657610fd036611409565b9060018060a01b03610fe781600354163314611542565b845190610ff38261130f565b8782528416801561113b5790829161100b89946117d5565b50611015856117d5565b50828452602095848752878520828652875287852061103587825461171b565b905581858951868152888a8201527fc3d58168c5ae7397731d063d5bbf3d657854427343f4c083240f7aacaa2d0f628b3392a43b611071578380f35b87946110b494879489519687958694859363f23a6e6160e01b9b8c865233908601528560248601526044850152606484015260a0608484015260a4830190611295565b03925af186918161111c575b506111045750506001906110d2611748565b6308c379a0146110f1575b506104845750505b81808080848180808380f35b6110f9611766565b8061050457506110dd565b6001600160e01b03191603905061053c5750506110e5565b611134919250843d86116105c1576105b28183611341565b90876110c0565b855162461bcd60e51b8152602081890152602160248201527f455243313135353a206d696e7420746f20746865207a65726f206164647265736044820152607360f81b6064820152608490fd5b508290346102e65760203660031901126102e65781610bd893826111b29335825260205220611363565b9051918291602083526020830190611295565b508290346102e65760203660031901126102e657359063ffffffff60e01b82168092036102e65760209250636cdb3d1360e11b8214918215611223575b8215611212575b50519015158152f35b6301ffc9a760e01b14915083611209565b6303a24d0760e21b81149250611202565b82843461021857806003193601126102185760209061125d611254611264565b6024359061158d565b9051908152f35b600435906001600160a01b038216820361127a57565b600080fd5b602435906001600160a01b038216820361127a57565b919082519283825260005b8481106112c1575050826000602080949584010152601f8019910116010190565b6020818301810151848301820152016112a0565b90600182811c92168015611305575b60208310146112ef57565b634e487b7160e01b600052602260045260246000fd5b91607f16916112e4565b6020810190811067ffffffffffffffff82111761132b57604052565b634e487b7160e01b600052604160045260246000fd5b90601f8019910116810190811067ffffffffffffffff82111761132b57604052565b9060405191826000825492611377846112d5565b9081845260019485811690816000146113e657506001146113a3575b50506113a192500383611341565b565b9093915060005260209081600020936000915b8183106113ce5750506113a193508201013880611393565b855488840185015294850194879450918301916113b6565b9150506113a194506020925060ff191682840152151560051b8201013880611393565b606090600319011261127a576004356001600160a01b038116810361127a57906024359060443590565b67ffffffffffffffff811161132b5760051b60200190565b81601f8201121561127a5780359161146283611433565b926114706040519485611341565b808452602092838086019260051b82010192831161127a578301905b82821061149a575050505090565b8135815290830190830161148c565b92919267ffffffffffffffff821161132b57604051916114d3601f8201601f191660200184611341565b82948184528183011161127a578281602093846000960137010152565b9080601f8301121561127a5781602061150b933591016114a9565b90565b90815180825260208080930193019160005b82811061152e575050505090565b835185529381019392810192600101611520565b1561154957565b606460405162461bcd60e51b815260206004820152602060248201527f4f776e61626c653a2063616c6c6572206973206e6f7420746865206f776e65726044820152fd5b6001600160a01b03169081156115ba57600052600060205260406000209060005260205260406000205490565b60405162461bcd60e51b815260206004820152602b60248201527f455243313135353a2062616c616e636520717565727920666f7220746865207a60448201526a65726f206164647265737360a81b6064820152608490fd5b60001981146116225760010190565b634e487b7160e01b600052601160045260246000fd5b805182101561164c5760209160051b010190565b634e487b7160e01b600052603260045260246000fd5b1561166957565b60405162461bcd60e51b815260206004820152602560248201527f455243313135353a207472616e7366657220746f20746865207a65726f206164604482015264647265737360d81b6064820152608490fd5b156116c357565b60405162461bcd60e51b815260206004820152602a60248201527f455243313135353a20696e73756666696369656e742062616c616e636520666f60448201526939103a3930b739b332b960b11b6064820152608490fd5b9190820180921161162257565b9081602091031261127a57516001600160e01b03198116810361127a5790565b60009060033d1161175557565b905060046000803e60005160e01c90565b600060443d1061150b57604051600319913d83016004833e815167ffffffffffffffff918282113d6024840111176117c4578184019485519384116117cc573d850101602084870101116117c4575061150b92910160200190611341565b949350505050565b50949350505050565b604051906040820182811067ffffffffffffffff82111761132b576040526001825260208201602036823782511561164c57529056fea26469706673582212205d66479d570e2b9dcb07c647919ead5193224effc04a218dd01bbc796078159464736f6c63430008110033",
    "linkReferences": {}
  },
  "methodIdentifiers": {
    "_uris(uint256)": "1233ce8d",
    "balanceOf(address,uint256)": "00fdd58e",
    "balanceOfBatch(address[],uint256[])": "4e1273f4",
    "burn(address,uint256,uint256)": "f5298aca",
    "isApprovedForAll(address,address)": "e985e9c5",
    "mint(address,uint256,uint256)": "156e29f6",
    "owner()": "8da5cb5b",
    "renounceOwnership()": "715018a6",
    "safeBatchTransferFrom(address,address,uint256[],uint256[],bytes)": "2eb2c2d6",
    "safeTransferFrom(address,address,uint256,uint256,bytes)": "f242432a",
    "setApprovalForAll(address,bool)": "a22cb465",
    "setURI(uint256,string)": "862440e2",
    "supportsInterface(bytes4)": "01ffc9a7",
    "transferOwnership(address)": "f2fde38b",
    "uri(uint256)": "0e89341c"
  },
  "id": 151
}