{
  "abi": [
    {
      "inputs": [],
      "stateMutability": "nonpayable",
      "type": "constructor"
    },
    {
      "anonymous": false,
      "inputs": [
        {
          "indexed": true,
          "internalType": "address",
          "name": "account",
          "type": "address"
        },
        {
          "indexed": true,
          "internalType": "address",
          "name": "operator",
          "type": "address"
        },
        {
          "indexed": false,
          "internalType": "bool",
          "name": "approved",
          "type": "bool"
        }
      ],
      "name": "ApprovalForAll",
      "type": "event"
    },
    {
      "anonymous": false,
      "inputs": [
        {
          "indexed": true,
          "internalType": "address",
          "name": "previousOwner",
          "type": "address"
        },
        {
          "indexed": true,
          "internalType": "address",
          "name": "newOwner",
          "type": "address"
        }
      ],
      "name": "OwnershipTransferred",
      "type": "event"
    },
    {
      "anonymous": false,
      "inputs": [
        {
          "indexed": true,
          "internalType": "address",
          "name": "operator",
          "type": "address"
        },
        {
          "indexed": true,
          "internalType": "address",
          "name": "from",
          "type": "address"
        },
        {
          "indexed": true,
          "internalType": "address",
          "name": "to",
          "type": "address"
        },
        {
          "indexed": false,
          "internalType": "uint256[]",
          "name": "ids",
          "type": "uint256[]"
        },
        {
          "indexed": false,
          "internalType": "uint256[]",
          "name": "values",
          "type": "uint256[]"
        }
      ],
      "name": "TransferBatch",
      "type": "event"
    },
    {
      "anonymous": false,
      "inputs": [
        {
          "indexed": true,
          "internalType": "address",
          "name": "operator",
          "type": "address"
        },
        {
          "indexed": true,
          "internalType": "address",
          "name": "from",
          "type": "address"
        },
        {
          "indexed": true,
          "internalType": "address",
          "name": "to",
          "type": "address"
        },
        {
          "indexed": false,
          "internalType": "uint256",
          "name": "id",
          "type": "uint256"
        },
        {
          "indexed": false,
          "internalType": "uint256",
          "name": "value",
          "type": "uint256"
        }
      ],
      "name": "TransferSingle",
      "type": "event"
    },
    {
      "anonymous": false,
      "inputs": [
        {
          "indexed": false,
          "internalType": "string",
          "name": "value",
          "type": "string"
        },
        {
          "indexed": true,
          "internalType": "uint256",
          "name": "id",
          "type": "uint256"
        }
      ],
      "name": "URI",
      "type": "event"
    },
    {
      "inputs": [
        {
          "internalType": "uint256",
          "name": "",
          "type": "uint256"
        }
      ],
      "name": "_uris",
      "outputs": [
        {
          "internalType": "string",
          "name": "",
          "type": "string"
        }
      ],
      "stateMutability": "view",
      "type": "function"
    },
    {
      "inputs": [
        {
          "internalType": "address",
          "name": "account",
          "type": "address"
        },
        {
          "internalType": "uint256",
          "name": "id",
          "type": "uint256"
        }
      ],
      "name": "balanceOf",
      "outputs": [
        {
          "internalType": "uint256",
          "name": "",
          "type": "uint256"
        }
      ],
      "stateMutability": "view",
      "type": "function"
    },
    {
      "inputs": [
        {
          "internalType": "address[]",
          "name": "accounts",
          "type": "address[]"
        },
        {
          "internalType": "uint256[]",
          "name": "ids",
          "type": "uint256[]"
        }
      ],
      "name": "balanceOfBatch",
      "outputs": [
        {
          "internalType": "uint256[]",
          "name": "",
          "type": "uint256[]"
        }
      ],
      "stateMutability": "view",
      "type": "function"
    },
    {
      "inputs": [
        {
          "internalType": "address",
          "name": "account",
          "type": "address"
        },
        {
          "internalType": "uint256",
          "name": "id",
          "type": "uint256"
        },
        {
          "internalType": "uint256",
          "name": "value",
          "type": "uint256"
        }
      ],
      "name": "burn",
      "outputs": [],
      "stateMutability": "nonpayable",
      "type": "function"
    },
    {
      "inputs": [
        {
          "internalType": "address",
          "name": "account",
          "type": "address"
        },
        {
          "internalType": "address",
          "name": "operator",
          "type": "address"
        }
      ],
      "name": "isApprovedForAll",
      "outputs": [
        {
          "internalType": "bool",
          "name": "",
          "type": "bool"
        }
      ],
      "stateMutability": "view",
      "type": "function"
    },
    {
      "inputs": [
        {
          "internalType": "address",
          "name": "account",
          "type": "address"
        },
        {
          "internalType": "uint256",
          "name": "id",
          "type": "uint256"
        },
        {
          "internalType": "uint256",
          "name": "amount",
          "type": "uint256"
        }
      ],
      "name": "mint",
      "outputs": [],
      "stateMutability": "nonpayable",
      "type": "function"
    },
    {
      "inputs": [],
      "name": "owner",
      "outputs": [
        {
          "internalType": "address",
          "name": "",
          "type": "address"
        }
      ],
      "stateMutability": "view",
      "type": "function"
    },
    {
      "inputs": [],
      "name": "renounceOwnership",
      "outputs": [],
      "stateMutability": "nonpayable",
      "type": "function"
    },
    {
      "inputs": [
        {
          "internalType": "address",
          "name": "from",
          "type": "address"
        },
        {
          "internalType": "address",
          "name": "to",
          "type": "address"
        },
        {
          "internalType": "uint256[]",
          "name": "ids",
          "type": "uint256[]"
        },
        {
          "internalType": "uint256[]",
          "name": "amounts",
          "type": "uint256[]"
        },
        {
          "internalType": "bytes",
          "name": "data",
          "type": "bytes"
        }
      ],
      "name": "safeBatchTransferFrom",
      "outputs": [],
      "stateMutability": "nonpayable",
      "type": "function"
    },
    {
      "inputs": [
        {
          "internalType": "address",
          "name": "from",
          "type": "address"
        },
        {
          "internalType": "address",
          "name": "to",
          "type": "address"
        },
        {
          "internalType": "uint256",
          "name": "id",
          "type": "uint256"
        },
        {
          "internalType": "uint256",
          "name": "amount",
          "type": "uint256"
        },
        {
          "internalType": "bytes",
          "name": "data",
          "type": "bytes"
        }
      ],
      "name": "safeTransferFrom",
      "outputs": [],
      "stateMutability": "nonpayable",
      "type": "function"
    },
    {
      "inputs": [
        {
          "internalType": "address",
          "name": "operator",
          "type": "address"
        },
        {
          "internalType": "bool",
          "name": "approved",
          "type": "bool"
        }
      ],
      "name": "setApprovalForAll",
      "outputs": [],
      "stateMutability": "nonpayable",
      "type": "function"
    },
    {
      "inputs": [
        {
          "internalType": "uint256",
          "name": "_tokenId",
          "type": "uint256"
        },
        {
          "internalType": "string",
          "name": "newuri",
          "type": "string"
        }
      ],
      "name": "setURI",
      "outputs": [],
      "stateMutability": "nonpayable",
      "type": "function"
    },
    {
      "inputs": [
        {
          "internalType": "bytes4",
          "name": "interfaceId",
          "type": "bytes4"
        }
      ],
      "name": "supportsInterface",
      "outputs": [
        {
          "internalType": "bool",
          "name": "",
          "type": "bool"
        }
      ],
      "stateMutability": "view",
      "type": "function"
    },
    {
      "inputs": [
        {
          "internalType": "address",
          "name": "newOwner",
          "type": "address"
        }
      ],
      "name": "transferOwnership",
      "outputs": [],
      "stateMutability": "nonpayable",
      "type": "function"
    },
    {
      "inputs": [
        {
          "internalType": "uint256",
          "name": "_tokenId",
          "type": "uint256"
        }
      ],
      "name": "uri",
      "outputs": [
        {
          "internalType": "string",
          "name": "",
          "type": "string"
        }
      ],
      "stateMutability": "view",
      "type": "function"
    }
  ],
  "bytecode": {
    "object": "0x60806040523480156200001157600080fd5b506040805160208101909152600081526200002c816200003e565b50620000383362000050565b62000213565b60026200004c828262000147565b5050565b600380546001600160a01b038381166001600160a01b0319831681179093556040519116919082907f8be0079c531659141344cd1fd0a4f28419497f9722a3daafe3b4186f6b6457e090600090a35050565b634e487b7160e01b600052604160045260246000fd5b600181811c90821680620000cd57607f821691505b602082108103620000ee57634e487b7160e01b600052602260045260246000fd5b50919050565b601f8211156200014257600081815260208120601f850160051c810160208610156200011d5750805b601f850160051c820191505b818110156200013e5782815560010162000129565b5050505b505050565b81516001600160401b03811115620001635762000163620000a2565b6200017b81620001748454620000b8565b84620000f4565b602080601f831160018114620001b357600084156200019a5750858301515b600019600386901b1c1916600185901b1785556200013e565b600085815260208120601f198616915b82811015620001e457888601518255948401946001909101908401620001c3565b5085821015620002035787850151600019600388901b60f8161c191681555b5050505050600190811b01905550565b611af080620002236000396000f3fe608060405234801561001057600080fd5b50600436106100f45760003560e01c8063715018a611610097578063e985e9c511610066578063e985e9c514610206578063f242432a14610242578063f2fde38b14610255578063f5298aca1461026857600080fd5b8063715018a6146101bd578063862440e2146101c55780638da5cb5b146101d8578063a22cb465146101f357600080fd5b80631233ce8d116100d35780631233ce8d14610162578063156e29f6146101755780632eb2c2d61461018a5780634e1273f41461019d57600080fd5b8062fdd58e146100f957806301ffc9a71461011f5780630e89341c14610142575b600080fd5b61010c610107366004611107565b61027b565b6040519081526020015b60405180910390f35b61013261012d366004611147565b610314565b6040519015158152602001610116565b61015561015036600461116b565b610364565b60405161011691906111ca565b61015561017036600461116b565b610406565b6101886101833660046111dd565b6104a0565b005b610188610198366004611366565b6104c8565b6101b06101ab366004611410565b610514565b6040516101169190611516565b61018861063e565b6101886101d3366004611529565b610652565b6003546040516001600160a01b039091168152602001610116565b61018861020136600461157a565b61067b565b6101326102143660046115b6565b6001600160a01b03918216600090815260016020908152604080832093909416825291909152205460ff1690565b6101886102503660046115e9565b61068a565b61018861026336600461164e565b6106cf565b6101886102763660046111dd565b610748565b60006001600160a01b0383166102eb5760405162461bcd60e51b815260206004820152602a60248201527f455243313135353a2061646472657373207a65726f206973206e6f742061207660448201526930b634b21037bbb732b960b11b60648201526084015b60405180910390fd5b506000818152602081815260408083206001600160a01b03861684529091529020545b92915050565b60006001600160e01b03198216636cdb3d1360e11b148061034557506001600160e01b031982166303a24d0760e21b145b8061030e57506301ffc9a760e01b6001600160e01b031983161461030e565b600081815260046020526040902080546060919061038190611669565b80601f01602080910402602001604051908101604052809291908181526020018280546103ad90611669565b80156103fa5780601f106103cf576101008083540402835291602001916103fa565b820191906000526020600020905b8154815290600101906020018083116103dd57829003601f168201915b50505050509050919050565b6004602052600090815260409020805461041f90611669565b80601f016020809104026020016040519081016040528092919081815260200182805461044b90611669565b80156104985780601f1061046d57610100808354040283529160200191610498565b820191906000526020600020905b81548152906001019060200180831161047b57829003601f168201915b505050505081565b6104a861075b565b6104c3838383604051806020016040528060008152506107b5565b505050565b6001600160a01b0385163314806104e457506104e48533610214565b6105005760405162461bcd60e51b81526004016102e2906116a3565b61050d85858585856108c9565b5050505050565b606081518351146105795760405162461bcd60e51b815260206004820152602960248201527f455243313135353a206163636f756e747320616e6420696473206c656e677468604482015268040dad2e6dac2e8c6d60bb1b60648201526084016102e2565b6000835167ffffffffffffffff81111561059557610595611210565b6040519080825280602002602001820160405280156105be578160200160208202803683370190505b50905060005b8451811015610636576106098582815181106105e2576105e26116f1565b60200260200101518583815181106105fc576105fc6116f1565b602002602001015161027b565b82828151811061061b5761061b6116f1565b602090810291909101015261062f8161171d565b90506105c4565b509392505050565b61064661075b565b6106506000610aa6565b565b61065a61075b565b61066381610af8565b60008281526004602052604090206104c3828261177c565b610686338383610b04565b5050565b6001600160a01b0385163314806106a657506106a68533610214565b6106c25760405162461bcd60e51b81526004016102e2906116a3565b61050d8585858585610be4565b6106d761075b565b6001600160a01b03811661073c5760405162461bcd60e51b815260206004820152602660248201527f4f776e61626c653a206e6577206f776e657220697320746865207a65726f206160448201526564647265737360d01b60648201526084016102e2565b61074581610aa6565b50565b61075061075b565b6104c3838383610d0e565b6003546001600160a01b031633146106505760405162461bcd60e51b815260206004820181905260248201527f4f776e61626c653a2063616c6c6572206973206e6f7420746865206f776e657260448201526064016102e2565b6001600160a01b0384166108155760405162461bcd60e51b815260206004820152602160248201527f455243313135353a206d696e7420746f20746865207a65726f206164647265736044820152607360f81b60648201526084016102e2565b33600061082185610e8a565b9050600061082e85610e8a565b90506000868152602081815260408083206001600160a01b038b1684529091528120805487929061086090849061183c565b909155505060408051878152602081018790526001600160a01b03808a1692600092918716917fc3d58168c5ae7397731d063d5bbf3d657854427343f4c083240f7aacaa2d0f62910160405180910390a46108c083600089898989610ed5565b50505050505050565b815183511461092b5760405162461bcd60e51b815260206004820152602860248201527f455243313135353a2069647320616e6420616d6f756e7473206c656e677468206044820152670dad2e6dac2e8c6d60c31b60648201526084016102e2565b6001600160a01b0384166109515760405162461bcd60e51b81526004016102e29061184f565b3360005b8451811015610a38576000858281518110610972576109726116f1565b602002602001015190506000858381518110610990576109906116f1565b602090810291909101810151600084815280835260408082206001600160a01b038e1683529093529190912054909150818110156109e05760405162461bcd60e51b81526004016102e290611894565b6000838152602081815260408083206001600160a01b038e8116855292528083208585039055908b16825281208054849290610a1d90849061183c565b9250508190555050505080610a319061171d565b9050610955565b50846001600160a01b0316866001600160a01b0316826001600160a01b03167f4a39dc06d4c0dbc64b70af90fd698a233a518aa5d07e595d983b8c0526c8f7fb8787604051610a889291906118de565b60405180910390a4610a9e818787878787611030565b505050505050565b600380546001600160a01b038381166001600160a01b0319831681179093556040519116919082907f8be0079c531659141344cd1fd0a4f28419497f9722a3daafe3b4186f6b6457e090600090a35050565b6002610686828261177c565b816001600160a01b0316836001600160a01b031603610b775760405162461bcd60e51b815260206004820152602960248201527f455243313135353a2073657474696e6720617070726f76616c20737461747573604482015268103337b91039b2b63360b91b60648201526084016102e2565b6001600160a01b03838116600081815260016020908152604080832094871680845294825291829020805460ff191686151590811790915591519182527f17307eab39ab6107e8899845ad3d59bd9653f200f220920489ca2b5937696c31910160405180910390a3505050565b6001600160a01b038416610c0a5760405162461bcd60e51b81526004016102e29061184f565b336000610c1685610e8a565b90506000610c2385610e8a565b90506000868152602081815260408083206001600160a01b038c16845290915290205485811015610c665760405162461bcd60e51b81526004016102e290611894565b6000878152602081815260408083206001600160a01b038d8116855292528083208985039055908a16825281208054889290610ca390849061183c565b909155505060408051888152602081018890526001600160a01b03808b16928c821692918816917fc3d58168c5ae7397731d063d5bbf3d657854427343f4c083240f7aacaa2d0f62910160405180910390a4610d03848a8a8a8a8a610ed5565b505050505050505050565b6001600160a01b038316610d705760405162461bcd60e51b815260206004820152602360248201527f455243313135353a206275726e2066726f6d20746865207a65726f206164647260448201526265737360e81b60648201526084016102e2565b336000610d7c84610e8a565b90506000610d8984610e8a565b60408051602080820183526000918290528882528181528282206001600160a01b038b1683529052205490915084811015610e125760405162461bcd60e51b8152602060048201526024808201527f455243313135353a206275726e20616d6f756e7420657863656564732062616c604482015263616e636560e01b60648201526084016102e2565b6000868152602081815260408083206001600160a01b038b81168086529184528285208a8703905582518b81529384018a90529092908816917fc3d58168c5ae7397731d063d5bbf3d657854427343f4c083240f7aacaa2d0f62910160405180910390a46040805160208101909152600090526108c0565b60408051600180825281830190925260609160009190602080830190803683370190505090508281600081518110610ec457610ec46116f1565b602090810291909101015292915050565b6001600160a01b0384163b15610a9e5760405163f23a6e6160e01b81526001600160a01b0385169063f23a6e6190610f19908990899088908890889060040161190c565b6020604051808303816000875af1925050508015610f54575060408051601f3d908101601f19168201909252610f5191810190611951565b60015b61100057610f6061196e565b806308c379a003610f995750610f7461198a565b80610f7f5750610f9b565b8060405162461bcd60e51b81526004016102e291906111ca565b505b60405162461bcd60e51b815260206004820152603460248201527f455243313135353a207472616e7366657220746f206e6f6e2d455243313135356044820152732932b1b2b4bb32b91034b6b83632b6b2b73a32b960611b60648201526084016102e2565b6001600160e01b0319811663f23a6e6160e01b146108c05760405162461bcd60e51b81526004016102e290611a14565b6001600160a01b0384163b15610a9e5760405163bc197c8160e01b81526001600160a01b0385169063bc197c81906110749089908990889088908890600401611a5c565b6020604051808303816000875af19250505080156110af575060408051601f3d908101601f191682019092526110ac91810190611951565b60015b6110bb57610f6061196e565b6001600160e01b0319811663bc197c8160e01b146108c05760405162461bcd60e51b81526004016102e290611a14565b80356001600160a01b038116811461110257600080fd5b919050565b6000806040838503121561111a57600080fd5b611123836110eb565b946020939093013593505050565b6001600160e01b03198116811461074557600080fd5b60006020828403121561115957600080fd5b813561116481611131565b9392505050565b60006020828403121561117d57600080fd5b5035919050565b6000815180845260005b818110156111aa5760208185018101518683018201520161118e565b506000602082860101526020601f19601f83011685010191505092915050565b6020815260006111646020830184611184565b6000806000606084860312156111f257600080fd5b6111fb846110eb565b95602085013595506040909401359392505050565b634e487b7160e01b600052604160045260246000fd5b601f8201601f1916810167ffffffffffffffff8111828210171561124c5761124c611210565b6040525050565b600067ffffffffffffffff82111561126d5761126d611210565b5060051b60200190565b600082601f83011261128857600080fd5b8135602061129582611253565b6040516112a28282611226565b83815260059390931b85018201928281019150868411156112c257600080fd5b8286015b848110156112dd57803583529183019183016112c6565b509695505050505050565b600067ffffffffffffffff83111561130257611302611210565b604051611319601f8501601f191660200182611226565b80915083815284848401111561132e57600080fd5b83836020830137600060208583010152509392505050565b600082601f83011261135757600080fd5b611164838335602085016112e8565b600080600080600060a0868803121561137e57600080fd5b611387866110eb565b9450611395602087016110eb565b9350604086013567ffffffffffffffff808211156113b257600080fd5b6113be89838a01611277565b945060608801359150808211156113d457600080fd5b6113e089838a01611277565b935060808801359150808211156113f657600080fd5b5061140388828901611346565b9150509295509295909350565b6000806040838503121561142357600080fd5b823567ffffffffffffffff8082111561143b57600080fd5b818501915085601f83011261144f57600080fd5b8135602061145c82611253565b6040516114698282611226565b83815260059390931b850182019282810191508984111561148957600080fd5b948201945b838610156114ae5761149f866110eb565b8252948201949082019061148e565b965050860135925050808211156114c457600080fd5b506114d185828601611277565b9150509250929050565b600081518084526020808501945080840160005b8381101561150b578151875295820195908201906001016114ef565b509495945050505050565b60208152600061116460208301846114db565b6000806040838503121561153c57600080fd5b82359150602083013567ffffffffffffffff81111561155a57600080fd5b8301601f8101851361156b57600080fd5b6114d1858235602084016112e8565b6000806040838503121561158d57600080fd5b611596836110eb565b9150602083013580151581146115ab57600080fd5b809150509250929050565b600080604083850312156115c957600080fd5b6115d2836110eb565b91506115e0602084016110eb565b90509250929050565b600080600080600060a0868803121561160157600080fd5b61160a866110eb565b9450611618602087016110eb565b93506040860135925060608601359150608086013567ffffffffffffffff81111561164257600080fd5b61140388828901611346565b60006020828403121561166057600080fd5b611164826110eb565b600181811c9082168061167d57607f821691505b60208210810361169d57634e487b7160e01b600052602260045260246000fd5b50919050565b6020808252602e908201527f455243313135353a2063616c6c6572206973206e6f7420746f6b656e206f776e60408201526d195c881bdc88185c1c1c9bdd995960921b606082015260800190565b634e487b7160e01b600052603260045260246000fd5b634e487b7160e01b600052601160045260246000fd5b60006001820161172f5761172f611707565b5060010190565b601f8211156104c357600081815260208120601f850160051c8101602086101561175d5750805b601f850160051c820191505b81811015610a9e57828155600101611769565b815167ffffffffffffffff81111561179657611796611210565b6117aa816117a48454611669565b84611736565b602080601f8311600181146117df57600084156117c75750858301515b600019600386901b1c1916600185901b178555610a9e565b600085815260208120601f198616915b8281101561180e578886015182559484019460019091019084016117ef565b508582101561182c5787850151600019600388901b60f8161c191681555b5050505050600190811b01905550565b8082018082111561030e5761030e611707565b60208082526025908201527f455243313135353a207472616e7366657220746f20746865207a65726f206164604082015264647265737360d81b606082015260800190565b6020808252602a908201527f455243313135353a20696e73756666696369656e742062616c616e636520666f60408201526939103a3930b739b332b960b11b606082015260800190565b6040815260006118f160408301856114db565b828103602084015261190381856114db565b95945050505050565b6001600160a01b03868116825285166020820152604081018490526060810183905260a06080820181905260009061194690830184611184565b979650505050505050565b60006020828403121561196357600080fd5b815161116481611131565b600060033d11156119875760046000803e5060005160e01c5b90565b600060443d10156119985790565b6040516003193d81016004833e81513d67ffffffffffffffff81602484011181841117156119c857505050505090565b82850191508151818111156119e05750505050505090565b843d87010160208285010111156119fa5750505050505090565b611a0960208286010187611226565b509095945050505050565b60208082526028908201527f455243313135353a204552433131353552656365697665722072656a656374656040820152676420746f6b656e7360c01b606082015260800190565b6001600160a01b0386811682528516602082015260a060408201819052600090611a88908301866114db565b8281036060840152611a9a81866114db565b90508281036080840152611aae8185611184565b9897505050505050505056fea26469706673582212200c00329267748866e39b6fc428928ca1f7aa4281872d4849981410c2fed8393264736f6c63430008110033",
    "linkReferences": {}
  },
  "methodIdentifiers": {
    "_uris(uint256)": "1233ce8d",
    "balanceOf(address,uint256)": "00fdd58e",
    "balanceOfBatch(address[],uint256[])": "4e1273f4",
    "burn(address,uint256,uint256)": "f5298aca",
    "isApprovedForAll(address,address)": "e985e9c5",
    "mint(address,uint256,uint256)": "156e29f6",
    "owner()": "8da5cb5b",
    "renounceOwnership()": "715018a6",
    "safeBatchTransferFrom(address,address,uint256[],uint256[],bytes)": "2eb2c2d6",
    "safeTransferFrom(address,address,uint256,uint256,bytes)": "f242432a",
    "setApprovalForAll(address,bool)": "a22cb465",
    "setURI(uint256,string)": "862440e2",
    "supportsInterface(bytes4)": "01ffc9a7",
    "transferOwnership(address)": "f2fde38b",
    "uri(uint256)": "0e89341c"
  },
  "id": 73
}