{
  "abi": [
    {
      "anonymous": false,
      "inputs": [
        {
          "indexed": false,
          "internalType": "uint256",
          "name": "protocolFee",
          "type": "uint256"
        }
      ],
      "name": "NewProtocolFee",
      "type": "event"
    },
    {
      "anonymous": false,
      "inputs": [
        {
          "indexed": true,
          "internalType": "address",
          "name": "previousOwner",
          "type": "address"
        },
        {
          "indexed": true,
          "internalType": "address",
          "name": "newOwner",
          "type": "address"
        }
      ],
      "name": "OwnershipTransferred",
      "type": "event"
    },
    {
      "inputs": [
        {
          "components": [
            {
              "internalType": "bool",
              "name": "isOrderAsk",
              "type": "bool"
            },
            {
              "internalType": "address",
              "name": "taker",
              "type": "address"
            },
            {
              "internalType": "uint256",
              "name": "price",
              "type": "uint256"
            },
            {
              "internalType": "uint256",
              "name": "tokenId",
              "type": "uint256"
            },
            {
              "internalType": "bytes",
              "name": "params",
              "type": "bytes"
            }
          ],
          "internalType": "struct OrderTypes.TakerOrder",
          "name": "takerAsk",
          "type": "tuple"
        },
        {
          "components": [
            {
              "internalType": "bool",
              "name": "isOrderAsk",
              "type": "bool"
            },
            {
              "internalType": "address",
              "name": "signer",
              "type": "address"
            },
            {
              "internalType": "address",
              "name": "collection",
              "type": "address"
            },
            {
              "internalType": "uint256",
              "name": "price",
              "type": "uint256"
            },
            {
              "internalType": "uint256",
              "name": "tokenId",
              "type": "uint256"
            },
            {
              "internalType": "uint256",
              "name": "amount",
              "type": "uint256"
            },
            {
              "internalType": "address",
              "name": "strategy",
              "type": "address"
            },
            {
              "internalType": "address",
              "name": "currency",
              "type": "address"
            },
            {
              "internalType": "uint256",
              "name": "nonce",
              "type": "uint256"
            },
            {
              "internalType": "uint256",
              "name": "startTime",
              "type": "uint256"
            },
            {
              "internalType": "uint256",
              "name": "endTime",
              "type": "uint256"
            },
            {
              "internalType": "bytes",
              "name": "params",
              "type": "bytes"
            },
            {
              "internalType": "bytes",
              "name": "signature",
              "type": "bytes"
            }
          ],
          "internalType": "struct OrderTypes.MakerOrder",
          "name": "makerBid",
          "type": "tuple"
        }
      ],
      "name": "canExecuteTakerAsk",
      "outputs": [
        {
          "internalType": "bool",
          "name": "",
          "type": "bool"
        },
        {
          "internalType": "uint256",
          "name": "",
          "type": "uint256"
        },
        {
          "internalType": "uint256",
          "name": "",
          "type": "uint256"
        }
      ],
      "stateMutability": "view",
      "type": "function"
    },
    {
      "inputs": [
        {
          "components": [
            {
              "internalType": "bool",
              "name": "isOrderAsk",
              "type": "bool"
            },
            {
              "internalType": "address",
              "name": "taker",
              "type": "address"
            },
            {
              "internalType": "uint256",
              "name": "price",
              "type": "uint256"
            },
            {
              "internalType": "uint256",
              "name": "tokenId",
              "type": "uint256"
            },
            {
              "internalType": "bytes",
              "name": "params",
              "type": "bytes"
            }
          ],
          "internalType": "struct OrderTypes.TakerOrder",
          "name": "",
          "type": "tuple"
        },
        {
          "components": [
            {
              "internalType": "bool",
              "name": "isOrderAsk",
              "type": "bool"
            },
            {
              "internalType": "address",
              "name": "signer",
              "type": "address"
            },
            {
              "internalType": "address",
              "name": "collection",
              "type": "address"
            },
            {
              "internalType": "uint256",
              "name": "price",
              "type": "uint256"
            },
            {
              "internalType": "uint256",
              "name": "tokenId",
              "type": "uint256"
            },
            {
              "internalType": "uint256",
              "name": "amount",
              "type": "uint256"
            },
            {
              "internalType": "address",
              "name": "strategy",
              "type": "address"
            },
            {
              "internalType": "address",
              "name": "currency",
              "type": "address"
            },
            {
              "internalType": "uint256",
              "name": "nonce",
              "type": "uint256"
            },
            {
              "internalType": "uint256",
              "name": "startTime",
              "type": "uint256"
            },
            {
              "internalType": "uint256",
              "name": "endTime",
              "type": "uint256"
            },
            {
              "internalType": "bytes",
              "name": "params",
              "type": "bytes"
            },
            {
              "internalType": "bytes",
              "name": "signature",
              "type": "bytes"
            }
          ],
          "internalType": "struct OrderTypes.MakerOrder",
          "name": "",
          "type": "tuple"
        }
      ],
      "name": "canExecuteTakerBid",
      "outputs": [
        {
          "internalType": "bool",
          "name": "",
          "type": "bool"
        },
        {
          "internalType": "uint256",
          "name": "",
          "type": "uint256"
        },
        {
          "internalType": "uint256",
          "name": "",
          "type": "uint256"
        }
      ],
      "stateMutability": "pure",
      "type": "function"
    },
    {
      "inputs": [],
      "name": "owner",
      "outputs": [
        {
          "internalType": "address",
          "name": "",
          "type": "address"
        }
      ],
      "stateMutability": "view",
      "type": "function"
    },
    {
      "inputs": [],
      "name": "renounceOwnership",
      "outputs": [],
      "stateMutability": "nonpayable",
      "type": "function"
    },
    {
      "inputs": [
        {
          "internalType": "uint256",
          "name": "newProtocolFee",
          "type": "uint256"
        }
      ],
      "name": "setProtocolFee",
      "outputs": [],
      "stateMutability": "nonpayable",
      "type": "function"
    },
    {
      "inputs": [
        {
          "internalType": "address",
          "name": "newOwner",
          "type": "address"
        }
      ],
      "name": "transferOwnership",
      "outputs": [],
      "stateMutability": "nonpayable",
      "type": "function"
    },
    {
      "inputs": [],
      "name": "viewProtocolFee",
      "outputs": [
        {
          "internalType": "uint256",
          "name": "",
          "type": "uint256"
        }
      ],
      "stateMutability": "view",
      "type": "function"
    }
  ],
  "bytecode": {
    "object": "0x608060405260c860015534801561001557600080fd5b5061001f33610024565b610074565b600080546001600160a01b038381166001600160a01b0319831681178455604051919092169283917f8be0079c531659141344cd1fd0a4f28419497f9722a3daafe3b4186f6b6457e09190a35050565b6107a8806100836000396000f3fe608060405234801561001057600080fd5b506004361061007d5760003560e01c80639dd1cda61161005b5780639dd1cda6146100bf578063a22233b5146100d0578063c346b3b914610106578063f2fde38b1461011957600080fd5b8063715018a614610082578063787dce3d1461008c5780638da5cb5b1461009f575b600080fd5b61008a61012c565b005b61008a61009a3660046103a5565b610140565b6000546040516001600160a01b0390911681526020015b60405180910390f35b6001546040519081526020016100b6565b6100e96100de3660046103be565b600080809250925092565b6040805193151584526020840192909252908201526060016100b6565b6100e96101143660046103be565b610183565b61008a610127366004610447565b6101ea565b610134610268565b61013e60006102c2565b565b610148610268565b60018190556040518181527f3e1c6f794380f768303ee10adb978482d0ee037b0517bdabf3118141632078a69060200160405180910390a150565b600080808061019961019487610507565b610312565b9450505050506101b28560600135876040013583610344565b80156101c357504285610120013511155b80156101d457504285610140013510155b966080860135965060a090950135949350505050565b6101f2610268565b6001600160a01b03811661025c5760405162461bcd60e51b815260206004820152602660248201527f4f776e61626c653a206e6577206f776e657220697320746865207a65726f206160448201526564647265737360d01b60648201526084015b60405180910390fd5b610265816102c2565b50565b6000546001600160a01b0316331461013e5760405162461bcd60e51b815260206004820181905260248201527f4f776e61626c653a2063616c6c6572206973206e6f7420746865206f776e65726044820152606401610253565b600080546001600160a01b038381166001600160a01b0319831681178455604051919092169283917f8be0079c531659141344cd1fd0a4f28419497f9722a3daafe3b4186f6b6457e09190a35050565b6000806000806000856080015180602001905181019061033291906105ac565b939a9299509097509550909350915050565b600081600003610357575082821461039e565b606482101561037e5761036b82600a61071a565b6103759084610726565b8414905061039e565b61038960648361073d565b61039490600a61071a565b6103759084610750565b9392505050565b6000602082840312156103b757600080fd5b5035919050565b600080604083850312156103d157600080fd5b823567ffffffffffffffff808211156103e957600080fd5b9084019060a082870312156103fd57600080fd5b9092506020840135908082111561041357600080fd5b5083016101a0818603121561042757600080fd5b809150509250929050565b6001600160a01b038116811461026557600080fd5b60006020828403121561045957600080fd5b813561039e81610432565b634e487b7160e01b600052604160045260246000fd5b600082601f83011261048b57600080fd5b813567ffffffffffffffff808211156104a6576104a6610464565b604051601f8301601f19908116603f011681019082821181831017156104ce576104ce610464565b816040528381528660208588010111156104e757600080fd5b836020870160208301376000602085830101528094505050505092915050565b600060a0823603121561051957600080fd5b60405160a0810167ffffffffffffffff828210818311171561053d5761053d610464565b8160405284359150811515821461055357600080fd5b90825260208401359061056582610432565b8160208401526040850135604084015260608501356060840152608085013591508082111561059357600080fd5b506105a03682860161047a565b60808301525092915050565b600080600080600060a086880312156105c457600080fd5b855161ffff811681146105d657600080fd5b60208701519095506105e781610432565b60408701519094506105f881610432565b606087015190935061060981610432565b80925050608086015190509295509295909350565b634e487b7160e01b600052601160045260246000fd5b600181815b8085111561066f5781600019048211156106555761065561061e565b8085161561066257918102915b93841c9390800290610639565b509250929050565b60008261068657506001610714565b8161069357506000610714565b81600181146106a957600281146106b3576106cf565b6001915050610714565b60ff8411156106c4576106c461061e565b50506001821b610714565b5060208310610133831016604e8410600b84101617156106f2575081810a610714565b6106fc8383610634565b80600019048211156107105761071061061e565b0290505b92915050565b600061039e8383610677565b80820281158282048414176107145761071461061e565b818103818111156107145761071461061e565b60008261076d57634e487b7160e01b600052601260045260246000fd5b50049056fea2646970667358221220e6dd274ba9b15a37bff5db4bc03614f9cbafbf1363dc91c331e5fabb8574755964736f6c63430008110033",
    "linkReferences": {}
  },
  "methodIdentifiers": {
    "canExecuteTakerAsk((bool,address,uint256,uint256,bytes),(bool,address,address,uint256,uint256,uint256,address,address,uint256,uint256,uint256,bytes,bytes))": "c346b3b9",
    "canExecuteTakerBid((bool,address,uint256,uint256,bytes),(bool,address,address,uint256,uint256,uint256,address,address,uint256,uint256,uint256,bytes,bytes))": "a22233b5",
    "owner()": "8da5cb5b",
    "renounceOwnership()": "715018a6",
    "setProtocolFee(uint256)": "787dce3d",
    "transferOwnership(address)": "f2fde38b",
    "viewProtocolFee()": "9dd1cda6"
  },
  "id": 72
}