{
  "abi": [
    {
      "inputs": [
        {
          "internalType": "address",
          "name": "_layerZeroEndpoint",
          "type": "address"
        },
        {
          "internalType": "string",
          "name": "_baseTokenURI",
          "type": "string"
        },
        {
          "internalType": "string",
          "name": "_hiddenURI",
          "type": "string"
        },
        {
          "internalType": "uint256",
          "name": "_tax",
          "type": "uint256"
        },
        {
          "internalType": "address",
          "name": "_taxRecipient",
          "type": "address"
        },
        {
          "internalType": "address",
          "name": "_stableToken",
          "type": "address"
        },
        {
          "internalType": "uint256",
          "name": "_maxTokensPerMint",
          "type": "uint256"
        },
        {
          "internalType": "uint256",
          "name": "_ableToMint",
          "type": "uint256"
        },
        {
          "internalType": "uint256",
          "name": "_maxTokenPerID",
          "type": "uint256"
        }
      ],
      "stateMutability": "nonpayable",
      "type": "constructor"
    },
    {
      "inputs": [
        {
          "internalType": "address",
          "name": "operator",
          "type": "address"
        }
      ],
      "name": "OperatorNotAllowed",
      "type": "error"
    },
    {
      "anonymous": false,
      "inputs": [
        {
          "indexed": true,
          "internalType": "address",
          "name": "account",
          "type": "address"
        },
        {
          "indexed": true,
          "internalType": "address",
          "name": "operator",
          "type": "address"
        },
        {
          "indexed": false,
          "internalType": "bool",
          "name": "approved",
          "type": "bool"
        }
      ],
      "name": "ApprovalForAll",
      "type": "event"
    },
    {
      "anonymous": false,
      "inputs": [
        {
          "indexed": false,
          "internalType": "uint16",
          "name": "_srcChainId",
          "type": "uint16"
        },
        {
          "indexed": false,
          "internalType": "bytes",
          "name": "_srcAddress",
          "type": "bytes"
        },
        {
          "indexed": false,
          "internalType": "uint64",
          "name": "_nonce",
          "type": "uint64"
        },
        {
          "indexed": false,
          "internalType": "bytes",
          "name": "_payload",
          "type": "bytes"
        },
        {
          "indexed": false,
          "internalType": "bytes",
          "name": "_reason",
          "type": "bytes"
        }
      ],
      "name": "MessageFailed",
      "type": "event"
    },
    {
      "anonymous": false,
      "inputs": [
        {
          "indexed": true,
          "internalType": "address",
          "name": "previousOwner",
          "type": "address"
        },
        {
          "indexed": true,
          "internalType": "address",
          "name": "newOwner",
          "type": "address"
        }
      ],
      "name": "OwnershipTransferred",
      "type": "event"
    },
    {
      "anonymous": false,
      "inputs": [
        {
          "indexed": true,
          "internalType": "uint16",
          "name": "_srcChainId",
          "type": "uint16"
        },
        {
          "indexed": true,
          "internalType": "bytes",
          "name": "_srcAddress",
          "type": "bytes"
        },
        {
          "indexed": true,
          "internalType": "address",
          "name": "_toAddress",
          "type": "address"
        },
        {
          "indexed": false,
          "internalType": "uint256[]",
          "name": "_tokenIds",
          "type": "uint256[]"
        },
        {
          "indexed": false,
          "internalType": "uint256[]",
          "name": "_amounts",
          "type": "uint256[]"
        },
        {
          "indexed": false,
          "internalType": "uint64",
          "name": "_nonce",
          "type": "uint64"
        }
      ],
      "name": "ReceiveBatchFromChain",
      "type": "event"
    },
    {
      "anonymous": false,
      "inputs": [
        {
          "indexed": true,
          "internalType": "uint16",
          "name": "_srcChainId",
          "type": "uint16"
        },
        {
          "indexed": true,
          "internalType": "bytes",
          "name": "_srcAddress",
          "type": "bytes"
        },
        {
          "indexed": true,
          "internalType": "address",
          "name": "_toAddress",
          "type": "address"
        },
        {
          "indexed": false,
          "internalType": "uint256",
          "name": "_tokenId",
          "type": "uint256"
        },
        {
          "indexed": false,
          "internalType": "uint256",
          "name": "_amount",
          "type": "uint256"
        },
        {
          "indexed": false,
          "internalType": "uint64",
          "name": "_nonce",
          "type": "uint64"
        }
      ],
      "name": "ReceiveFromChain",
      "type": "event"
    },
    {
      "anonymous": false,
      "inputs": [
        {
          "indexed": false,
          "internalType": "uint16",
          "name": "_srcChainId",
          "type": "uint16"
        },
        {
          "indexed": false,
          "internalType": "bytes",
          "name": "_srcAddress",
          "type": "bytes"
        },
        {
          "indexed": false,
          "internalType": "uint64",
          "name": "_nonce",
          "type": "uint64"
        },
        {
          "indexed": false,
          "internalType": "bytes32",
          "name": "_payloadHash",
          "type": "bytes32"
        }
      ],
      "name": "RetryMessageSuccess",
      "type": "event"
    },
    {
      "anonymous": false,
      "inputs": [
        {
          "indexed": true,
          "internalType": "address",
          "name": "_sender",
          "type": "address"
        },
        {
          "indexed": true,
          "internalType": "uint16",
          "name": "_dstChainId",
          "type": "uint16"
        },
        {
          "indexed": true,
          "internalType": "bytes",
          "name": "_toAddress",
          "type": "bytes"
        },
        {
          "indexed": false,
          "internalType": "uint256[]",
          "name": "_tokenIds",
          "type": "uint256[]"
        },
        {
          "indexed": false,
          "internalType": "uint256[]",
          "name": "_amounts",
          "type": "uint256[]"
        },
        {
          "indexed": false,
          "internalType": "uint64",
          "name": "_nonce",
          "type": "uint64"
        }
      ],
      "name": "SendBatchToChain",
      "type": "event"
    },
    {
      "anonymous": false,
      "inputs": [
        {
          "indexed": true,
          "internalType": "address",
          "name": "_sender",
          "type": "address"
        },
        {
          "indexed": true,
          "internalType": "uint16",
          "name": "_dstChainId",
          "type": "uint16"
        },
        {
          "indexed": true,
          "internalType": "bytes",
          "name": "_toAddress",
          "type": "bytes"
        },
        {
          "indexed": false,
          "internalType": "uint256",
          "name": "_tokenId",
          "type": "uint256"
        },
        {
          "indexed": false,
          "internalType": "uint256",
          "name": "_amount",
          "type": "uint256"
        },
        {
          "indexed": false,
          "internalType": "uint64",
          "name": "_nonce",
          "type": "uint64"
        }
      ],
      "name": "SendToChain",
      "type": "event"
    },
    {
      "anonymous": false,
      "inputs": [
        {
          "indexed": false,
          "internalType": "uint16",
          "name": "_dstChainId",
          "type": "uint16"
        },
        {
          "indexed": false,
          "internalType": "uint16",
          "name": "_type",
          "type": "uint16"
        },
        {
          "indexed": false,
          "internalType": "uint256",
          "name": "_minDstGas",
          "type": "uint256"
        }
      ],
      "name": "SetMinDstGas",
      "type": "event"
    },
    {
      "anonymous": false,
      "inputs": [
        {
          "indexed": false,
          "internalType": "address",
          "name": "precrime",
          "type": "address"
        }
      ],
      "name": "SetPrecrime",
      "type": "event"
    },
    {
      "anonymous": false,
      "inputs": [
        {
          "indexed": false,
          "internalType": "uint16",
          "name": "_remoteChainId",
          "type": "uint16"
        },
        {
          "indexed": false,
          "internalType": "bytes",
          "name": "_path",
          "type": "bytes"
        }
      ],
      "name": "SetTrustedRemote",
      "type": "event"
    },
    {
      "anonymous": false,
      "inputs": [
        {
          "indexed": false,
          "internalType": "uint16",
          "name": "_remoteChainId",
          "type": "uint16"
        },
        {
          "indexed": false,
          "internalType": "bytes",
          "name": "_remoteAddress",
          "type": "bytes"
        }
      ],
      "name": "SetTrustedRemoteAddress",
      "type": "event"
    },
    {
      "anonymous": false,
      "inputs": [
        {
          "indexed": true,
          "internalType": "address",
          "name": "operator",
          "type": "address"
        },
        {
          "indexed": true,
          "internalType": "address",
          "name": "from",
          "type": "address"
        },
        {
          "indexed": true,
          "internalType": "address",
          "name": "to",
          "type": "address"
        },
        {
          "indexed": false,
          "internalType": "uint256[]",
          "name": "ids",
          "type": "uint256[]"
        },
        {
          "indexed": false,
          "internalType": "uint256[]",
          "name": "values",
          "type": "uint256[]"
        }
      ],
      "name": "TransferBatch",
      "type": "event"
    },
    {
      "anonymous": false,
      "inputs": [
        {
          "indexed": true,
          "internalType": "address",
          "name": "operator",
          "type": "address"
        },
        {
          "indexed": true,
          "internalType": "address",
          "name": "from",
          "type": "address"
        },
        {
          "indexed": true,
          "internalType": "address",
          "name": "to",
          "type": "address"
        },
        {
          "indexed": false,
          "internalType": "uint256",
          "name": "id",
          "type": "uint256"
        },
        {
          "indexed": false,
          "internalType": "uint256",
          "name": "value",
          "type": "uint256"
        }
      ],
      "name": "TransferSingle",
      "type": "event"
    },
    {
      "anonymous": false,
      "inputs": [
        {
          "indexed": false,
          "internalType": "string",
          "name": "value",
          "type": "string"
        },
        {
          "indexed": true,
          "internalType": "uint256",
          "name": "id",
          "type": "uint256"
        }
      ],
      "name": "URI",
      "type": "event"
    },
    {
      "inputs": [],
      "name": "DEFAULT_PAYLOAD_SIZE_LIMIT",
      "outputs": [
        {
          "internalType": "uint256",
          "name": "",
          "type": "uint256"
        }
      ],
      "stateMutability": "view",
      "type": "function"
    },
    {
      "inputs": [],
      "name": "OPERATOR_FILTER_REGISTRY",
      "outputs": [
        {
          "internalType": "contract IOperatorFilterRegistry",
          "name": "",
          "type": "address"
        }
      ],
      "stateMutability": "view",
      "type": "function"
    },
    {
      "inputs": [],
      "name": "_publicSaleStarted",
      "outputs": [
        {
          "internalType": "bool",
          "name": "",
          "type": "bool"
        }
      ],
      "stateMutability": "view",
      "type": "function"
    },
    {
      "inputs": [],
      "name": "_saleStarted",
      "outputs": [
        {
          "internalType": "bool",
          "name": "",
          "type": "bool"
        }
      ],
      "stateMutability": "view",
      "type": "function"
    },
    {
      "inputs": [],
      "name": "ableToMint",
      "outputs": [
        {
          "internalType": "uint256",
          "name": "",
          "type": "uint256"
        }
      ],
      "stateMutability": "view",
      "type": "function"
    },
    {
      "inputs": [
        {
          "internalType": "address",
          "name": "account",
          "type": "address"
        },
        {
          "internalType": "uint256",
          "name": "id",
          "type": "uint256"
        }
      ],
      "name": "balanceOf",
      "outputs": [
        {
          "internalType": "uint256",
          "name": "",
          "type": "uint256"
        }
      ],
      "stateMutability": "view",
      "type": "function"
    },
    {
      "inputs": [
        {
          "internalType": "address[]",
          "name": "accounts",
          "type": "address[]"
        },
        {
          "internalType": "uint256[]",
          "name": "ids",
          "type": "uint256[]"
        }
      ],
      "name": "balanceOfBatch",
      "outputs": [
        {
          "internalType": "uint256[]",
          "name": "",
          "type": "uint256[]"
        }
      ],
      "stateMutability": "view",
      "type": "function"
    },
    {
      "inputs": [],
      "name": "contractURI",
      "outputs": [
        {
          "internalType": "string",
          "name": "",
          "type": "string"
        }
      ],
      "stateMutability": "view",
      "type": "function"
    },
    {
      "inputs": [
        {
          "internalType": "uint16",
          "name": "_dstChainId",
          "type": "uint16"
        },
        {
          "internalType": "bytes",
          "name": "_toAddress",
          "type": "bytes"
        },
        {
          "internalType": "uint256[]",
          "name": "_tokenIds",
          "type": "uint256[]"
        },
        {
          "internalType": "uint256[]",
          "name": "_amounts",
          "type": "uint256[]"
        },
        {
          "internalType": "bool",
          "name": "_useZro",
          "type": "bool"
        },
        {
          "internalType": "bytes",
          "name": "_adapterParams",
          "type": "bytes"
        }
      ],
      "name": "estimateSendBatchFee",
      "outputs": [
        {
          "internalType": "uint256",
          "name": "nativeFee",
          "type": "uint256"
        },
        {
          "internalType": "uint256",
          "name": "zroFee",
          "type": "uint256"
        }
      ],
      "stateMutability": "view",
      "type": "function"
    },
    {
      "inputs": [
        {
          "internalType": "uint16",
          "name": "_dstChainId",
          "type": "uint16"
        },
        {
          "internalType": "bytes",
          "name": "_toAddress",
          "type": "bytes"
        },
        {
          "internalType": "uint256",
          "name": "_tokenId",
          "type": "uint256"
        },
        {
          "internalType": "uint256",
          "name": "_amount",
          "type": "uint256"
        },
        {
          "internalType": "bool",
          "name": "_useZro",
          "type": "bool"
        },
        {
          "internalType": "bytes",
          "name": "_adapterParams",
          "type": "bytes"
        }
      ],
      "name": "estimateSendFee",
      "outputs": [
        {
          "internalType": "uint256",
          "name": "nativeFee",
          "type": "uint256"
        },
        {
          "internalType": "uint256",
          "name": "zroFee",
          "type": "uint256"
        }
      ],
      "stateMutability": "view",
      "type": "function"
    },
    {
      "inputs": [
        {
          "internalType": "uint256",
          "name": "id",
          "type": "uint256"
        }
      ],
      "name": "exists",
      "outputs": [
        {
          "internalType": "bool",
          "name": "",
          "type": "bool"
        }
      ],
      "stateMutability": "view",
      "type": "function"
    },
    {
      "inputs": [
        {
          "internalType": "uint16",
          "name": "",
          "type": "uint16"
        },
        {
          "internalType": "bytes",
          "name": "",
          "type": "bytes"
        },
        {
          "internalType": "uint64",
          "name": "",
          "type": "uint64"
        }
      ],
      "name": "failedMessages",
      "outputs": [
        {
          "internalType": "bytes32",
          "name": "",
          "type": "bytes32"
        }
      ],
      "stateMutability": "view",
      "type": "function"
    },
    {
      "inputs": [],
      "name": "flipPublicSaleStarted",
      "outputs": [],
      "stateMutability": "nonpayable",
      "type": "function"
    },
    {
      "inputs": [],
      "name": "flipRevealed",
      "outputs": [],
      "stateMutability": "nonpayable",
      "type": "function"
    },
    {
      "inputs": [],
      "name": "flipSaleStarted",
      "outputs": [],
      "stateMutability": "nonpayable",
      "type": "function"
    },
    {
      "inputs": [
        {
          "internalType": "uint16",
          "name": "_srcChainId",
          "type": "uint16"
        },
        {
          "internalType": "bytes",
          "name": "_srcAddress",
          "type": "bytes"
        }
      ],
      "name": "forceResumeReceive",
      "outputs": [],
      "stateMutability": "nonpayable",
      "type": "function"
    },
    {
      "inputs": [
        {
          "internalType": "uint16",
          "name": "_version",
          "type": "uint16"
        },
        {
          "internalType": "uint16",
          "name": "_chainId",
          "type": "uint16"
        },
        {
          "internalType": "address",
          "name": "",
          "type": "address"
        },
        {
          "internalType": "uint256",
          "name": "_configType",
          "type": "uint256"
        }
      ],
      "name": "getConfig",
      "outputs": [
        {
          "internalType": "bytes",
          "name": "",
          "type": "bytes"
        }
      ],
      "stateMutability": "view",
      "type": "function"
    },
    {
      "inputs": [
        {
          "internalType": "uint16",
          "name": "_remoteChainId",
          "type": "uint16"
        }
      ],
      "name": "getTrustedRemoteAddress",
      "outputs": [
        {
          "internalType": "bytes",
          "name": "",
          "type": "bytes"
        }
      ],
      "stateMutability": "view",
      "type": "function"
    },
    {
      "inputs": [
        {
          "internalType": "address",
          "name": "account",
          "type": "address"
        },
        {
          "internalType": "address",
          "name": "operator",
          "type": "address"
        }
      ],
      "name": "isApprovedForAll",
      "outputs": [
        {
          "internalType": "bool",
          "name": "",
          "type": "bool"
        }
      ],
      "stateMutability": "view",
      "type": "function"
    },
    {
      "inputs": [
        {
          "internalType": "uint16",
          "name": "_srcChainId",
          "type": "uint16"
        },
        {
          "internalType": "bytes",
          "name": "_srcAddress",
          "type": "bytes"
        }
      ],
      "name": "isTrustedRemote",
      "outputs": [
        {
          "internalType": "bool",
          "name": "",
          "type": "bool"
        }
      ],
      "stateMutability": "view",
      "type": "function"
    },
    {
      "inputs": [],
      "name": "lzEndpoint",
      "outputs": [
        {
          "internalType": "contract ILayerZeroEndpoint",
          "name": "",
          "type": "address"
        }
      ],
      "stateMutability": "view",
      "type": "function"
    },
    {
      "inputs": [
        {
          "internalType": "uint16",
          "name": "_srcChainId",
          "type": "uint16"
        },
        {
          "internalType": "bytes",
          "name": "_srcAddress",
          "type": "bytes"
        },
        {
          "internalType": "uint64",
          "name": "_nonce",
          "type": "uint64"
        },
        {
          "internalType": "bytes",
          "name": "_payload",
          "type": "bytes"
        }
      ],
      "name": "lzReceive",
      "outputs": [],
      "stateMutability": "nonpayable",
      "type": "function"
    },
    {
      "inputs": [],
      "name": "maxTokenPerID",
      "outputs": [
        {
          "internalType": "uint256",
          "name": "",
          "type": "uint256"
        }
      ],
      "stateMutability": "view",
      "type": "function"
    },
    {
      "inputs": [],
      "name": "maxTokensPerMint",
      "outputs": [
        {
          "internalType": "uint256",
          "name": "",
          "type": "uint256"
        }
      ],
      "stateMutability": "view",
      "type": "function"
    },
    {
      "inputs": [],
      "name": "merkleRoot",
      "outputs": [
        {
          "internalType": "bytes32",
          "name": "",
          "type": "bytes32"
        }
      ],
      "stateMutability": "view",
      "type": "function"
    },
    {
      "inputs": [
        {
          "internalType": "uint16",
          "name": "",
          "type": "uint16"
        },
        {
          "internalType": "uint16",
          "name": "",
          "type": "uint16"
        }
      ],
      "name": "minDstGasLookup",
      "outputs": [
        {
          "internalType": "uint256",
          "name": "",
          "type": "uint256"
        }
      ],
      "stateMutability": "view",
      "type": "function"
    },
    {
      "inputs": [
        {
          "internalType": "uint256",
          "name": "_tokenId",
          "type": "uint256"
        },
        {
          "internalType": "uint256",
          "name": "_amount",
          "type": "uint256"
        },
        {
          "internalType": "bytes32[]",
          "name": "_merkleProof",
          "type": "bytes32[]"
        },
        {
          "internalType": "address",
          "name": "_minter",
          "type": "address"
        }
      ],
      "name": "mintGasless",
      "outputs": [],
      "stateMutability": "nonpayable",
      "type": "function"
    },
    {
      "inputs": [
        {
          "internalType": "uint16",
          "name": "_srcChainId",
          "type": "uint16"
        },
        {
          "internalType": "bytes",
          "name": "_srcAddress",
          "type": "bytes"
        },
        {
          "internalType": "uint64",
          "name": "_nonce",
          "type": "uint64"
        },
        {
          "internalType": "bytes",
          "name": "_payload",
          "type": "bytes"
        }
      ],
      "name": "nonblockingLzReceive",
      "outputs": [],
      "stateMutability": "nonpayable",
      "type": "function"
    },
    {
      "inputs": [],
      "name": "owner",
      "outputs": [
        {
          "internalType": "address",
          "name": "",
          "type": "address"
        }
      ],
      "stateMutability": "view",
      "type": "function"
    },
    {
      "inputs": [
        {
          "internalType": "uint16",
          "name": "",
          "type": "uint16"
        }
      ],
      "name": "payloadSizeLimitLookup",
      "outputs": [
        {
          "internalType": "uint256",
          "name": "",
          "type": "uint256"
        }
      ],
      "stateMutability": "view",
      "type": "function"
    },
    {
      "inputs": [],
      "name": "precrime",
      "outputs": [
        {
          "internalType": "address",
          "name": "",
          "type": "address"
        }
      ],
      "stateMutability": "view",
      "type": "function"
    },
    {
      "inputs": [],
      "name": "price",
      "outputs": [
        {
          "internalType": "uint256",
          "name": "",
          "type": "uint256"
        }
      ],
      "stateMutability": "view",
      "type": "function"
    },
    {
      "inputs": [
        {
          "internalType": "uint256",
          "name": "_tokenId",
          "type": "uint256"
        },
        {
          "internalType": "uint256",
          "name": "_amount",
          "type": "uint256"
        },
        {
          "internalType": "address",
          "name": "_minter",
          "type": "address"
        }
      ],
      "name": "publicMintGasless",
      "outputs": [],
      "stateMutability": "nonpayable",
      "type": "function"
    },
    {
      "inputs": [],
      "name": "renounceOwnership",
      "outputs": [],
      "stateMutability": "nonpayable",
      "type": "function"
    },
    {
      "inputs": [
        {
          "internalType": "uint16",
          "name": "_srcChainId",
          "type": "uint16"
        },
        {
          "internalType": "bytes",
          "name": "_srcAddress",
          "type": "bytes"
        },
        {
          "internalType": "uint64",
          "name": "_nonce",
          "type": "uint64"
        },
        {
          "internalType": "bytes",
          "name": "_payload",
          "type": "bytes"
        }
      ],
      "name": "retryMessage",
      "outputs": [],
      "stateMutability": "payable",
      "type": "function"
    },
    {
      "inputs": [
        {
          "internalType": "address",
          "name": "from",
          "type": "address"
        },
        {
          "internalType": "address",
          "name": "to",
          "type": "address"
        },
        {
          "internalType": "uint256[]",
          "name": "ids",
          "type": "uint256[]"
        },
        {
          "internalType": "uint256[]",
          "name": "amounts",
          "type": "uint256[]"
        },
        {
          "internalType": "bytes",
          "name": "data",
          "type": "bytes"
        }
      ],
      "name": "safeBatchTransferFrom",
      "outputs": [],
      "stateMutability": "nonpayable",
      "type": "function"
    },
    {
      "inputs": [
        {
          "internalType": "address",
          "name": "from",
          "type": "address"
        },
        {
          "internalType": "address",
          "name": "to",
          "type": "address"
        },
        {
          "internalType": "uint256",
          "name": "tokenId",
          "type": "uint256"
        },
        {
          "internalType": "uint256",
          "name": "amount",
          "type": "uint256"
        },
        {
          "internalType": "bytes",
          "name": "data",
          "type": "bytes"
        }
      ],
      "name": "safeTransferFrom",
      "outputs": [],
      "stateMutability": "nonpayable",
      "type": "function"
    },
    {
      "inputs": [
        {
          "internalType": "address",
          "name": "_from",
          "type": "address"
        },
        {
          "internalType": "uint16",
          "name": "_dstChainId",
          "type": "uint16"
        },
        {
          "internalType": "bytes",
          "name": "_toAddress",
          "type": "bytes"
        },
        {
          "internalType": "uint256[]",
          "name": "_tokenIds",
          "type": "uint256[]"
        },
        {
          "internalType": "uint256[]",
          "name": "_amounts",
          "type": "uint256[]"
        },
        {
          "internalType": "address payable",
          "name": "_refundAddress",
          "type": "address"
        },
        {
          "internalType": "address",
          "name": "_zroPaymentAddress",
          "type": "address"
        },
        {
          "internalType": "bytes",
          "name": "_adapterParams",
          "type": "bytes"
        }
      ],
      "name": "sendBatchFrom",
      "outputs": [],
      "stateMutability": "payable",
      "type": "function"
    },
    {
      "inputs": [
        {
          "internalType": "address",
          "name": "_from",
          "type": "address"
        },
        {
          "internalType": "uint16",
          "name": "_dstChainId",
          "type": "uint16"
        },
        {
          "internalType": "bytes",
          "name": "_toAddress",
          "type": "bytes"
        },
        {
          "internalType": "uint256",
          "name": "_tokenId",
          "type": "uint256"
        },
        {
          "internalType": "uint256",
          "name": "_amount",
          "type": "uint256"
        },
        {
          "internalType": "address payable",
          "name": "_refundAddress",
          "type": "address"
        },
        {
          "internalType": "address",
          "name": "_zroPaymentAddress",
          "type": "address"
        },
        {
          "internalType": "bytes",
          "name": "_adapterParams",
          "type": "bytes"
        }
      ],
      "name": "sendFrom",
      "outputs": [],
      "stateMutability": "payable",
      "type": "function"
    },
    {
      "inputs": [
        {
          "internalType": "address",
          "name": "operator",
          "type": "address"
        },
        {
          "internalType": "bool",
          "name": "approved",
          "type": "bool"
        }
      ],
      "name": "setApprovalForAll",
      "outputs": [],
      "stateMutability": "nonpayable",
      "type": "function"
    },
    {
      "inputs": [
        {
          "internalType": "string",
          "name": "baseUri",
          "type": "string"
        }
      ],
      "name": "setBaseURI",
      "outputs": [],
      "stateMutability": "nonpayable",
      "type": "function"
    },
    {
      "inputs": [
        {
          "internalType": "address payable",
          "name": "_beneficiary",
          "type": "address"
        }
      ],
      "name": "setBeneficiary",
      "outputs": [],
      "stateMutability": "nonpayable",
      "type": "function"
    },
    {
      "inputs": [
        {
          "internalType": "uint16",
          "name": "_version",
          "type": "uint16"
        },
        {
          "internalType": "uint16",
          "name": "_chainId",
          "type": "uint16"
        },
        {
          "internalType": "uint256",
          "name": "_configType",
          "type": "uint256"
        },
        {
          "internalType": "bytes",
          "name": "_config",
          "type": "bytes"
        }
      ],
      "name": "setConfig",
      "outputs": [],
      "stateMutability": "nonpayable",
      "type": "function"
    },
    {
      "inputs": [
        {
          "internalType": "string",
          "name": "_contractURI",
          "type": "string"
        }
      ],
      "name": "setContractURI",
      "outputs": [],
      "stateMutability": "nonpayable",
      "type": "function"
    },
    {
      "inputs": [
        {
          "internalType": "string",
          "name": "_hiddenMetadataUri",
          "type": "string"
        }
      ],
      "name": "setHiddenMetadataUri",
      "outputs": [],
      "stateMutability": "nonpayable",
      "type": "function"
    },
    {
      "inputs": [
        {
          "internalType": "bytes32",
          "name": "_merkleRoot",
          "type": "bytes32"
        }
      ],
      "name": "setMerkleRoot",
      "outputs": [],
      "stateMutability": "nonpayable",
      "type": "function"
    },
    {
      "inputs": [
        {
          "internalType": "uint16",
          "name": "_dstChainId",
          "type": "uint16"
        },
        {
          "internalType": "uint16",
          "name": "_packetType",
          "type": "uint16"
        },
        {
          "internalType": "uint256",
          "name": "_minGas",
          "type": "uint256"
        }
      ],
      "name": "setMinDstGas",
      "outputs": [],
      "stateMutability": "nonpayable",
      "type": "function"
    },
    {
      "inputs": [
        {
          "internalType": "uint16",
          "name": "_dstChainId",
          "type": "uint16"
        },
        {
          "internalType": "uint256",
          "name": "_size",
          "type": "uint256"
        }
      ],
      "name": "setPayloadSizeLimit",
      "outputs": [],
      "stateMutability": "nonpayable",
      "type": "function"
    },
    {
      "inputs": [
        {
          "internalType": "address",
          "name": "_precrime",
          "type": "address"
        }
      ],
      "name": "setPrecrime",
      "outputs": [],
      "stateMutability": "nonpayable",
      "type": "function"
    },
    {
      "inputs": [
        {
          "internalType": "uint256",
          "name": "newPrice",
          "type": "uint256"
        }
      ],
      "name": "setPrice",
      "outputs": [],
      "stateMutability": "nonpayable",
      "type": "function"
    },
    {
      "inputs": [
        {
          "internalType": "uint16",
          "name": "_version",
          "type": "uint16"
        }
      ],
      "name": "setReceiveVersion",
      "outputs": [],
      "stateMutability": "nonpayable",
      "type": "function"
    },
    {
      "inputs": [
        {
          "internalType": "uint16",
          "name": "_version",
          "type": "uint16"
        }
      ],
      "name": "setSendVersion",
      "outputs": [],
      "stateMutability": "nonpayable",
      "type": "function"
    },
    {
      "inputs": [
        {
          "internalType": "uint256",
          "name": "_tax",
          "type": "uint256"
        }
      ],
      "name": "setTax",
      "outputs": [],
      "stateMutability": "nonpayable",
      "type": "function"
    },
    {
      "inputs": [
        {
          "internalType": "address payable",
          "name": "_taxRecipient",
          "type": "address"
        }
      ],
      "name": "setTaxRecipient",
      "outputs": [],
      "stateMutability": "nonpayable",
      "type": "function"
    },
    {
      "inputs": [
        {
          "internalType": "uint16",
          "name": "_srcChainId",
          "type": "uint16"
        },
        {
          "internalType": "bytes",
          "name": "_path",
          "type": "bytes"
        }
      ],
      "name": "setTrustedRemote",
      "outputs": [],
      "stateMutability": "nonpayable",
      "type": "function"
    },
    {
      "inputs": [
        {
          "internalType": "uint16",
          "name": "_remoteChainId",
          "type": "uint16"
        },
        {
          "internalType": "bytes",
          "name": "_remoteAddress",
          "type": "bytes"
        }
      ],
      "name": "setTrustedRemoteAddress",
      "outputs": [],
      "stateMutability": "nonpayable",
      "type": "function"
    },
    {
      "inputs": [],
      "name": "stableToken",
      "outputs": [
        {
          "internalType": "contract IERC20",
          "name": "",
          "type": "address"
        }
      ],
      "stateMutability": "view",
      "type": "function"
    },
    {
      "inputs": [
        {
          "internalType": "bytes4",
          "name": "interfaceId",
          "type": "bytes4"
        }
      ],
      "name": "supportsInterface",
      "outputs": [
        {
          "internalType": "bool",
          "name": "",
          "type": "bool"
        }
      ],
      "stateMutability": "view",
      "type": "function"
    },
    {
      "inputs": [],
      "name": "tax",
      "outputs": [
        {
          "internalType": "uint256",
          "name": "",
          "type": "uint256"
        }
      ],
      "stateMutability": "view",
      "type": "function"
    },
    {
      "inputs": [
        {
          "internalType": "uint256",
          "name": "id",
          "type": "uint256"
        }
      ],
      "name": "totalSupply",
      "outputs": [
        {
          "internalType": "uint256",
          "name": "",
          "type": "uint256"
        }
      ],
      "stateMutability": "view",
      "type": "function"
    },
    {
      "inputs": [
        {
          "internalType": "address",
          "name": "newOwner",
          "type": "address"
        }
      ],
      "name": "transferOwnership",
      "outputs": [],
      "stateMutability": "nonpayable",
      "type": "function"
    },
    {
      "inputs": [
        {
          "internalType": "uint16",
          "name": "",
          "type": "uint16"
        }
      ],
      "name": "trustedRemoteLookup",
      "outputs": [
        {
          "internalType": "bytes",
          "name": "",
          "type": "bytes"
        }
      ],
      "stateMutability": "view",
      "type": "function"
    },
    {
      "inputs": [
        {
          "internalType": "uint256",
          "name": "tokenId",
          "type": "uint256"
        }
      ],
      "name": "uri",
      "outputs": [
        {
          "internalType": "string",
          "name": "",
          "type": "string"
        }
      ],
      "stateMutability": "view",
      "type": "function"
    },
    {
      "inputs": [],
      "name": "withdraw",
      "outputs": [],
      "stateMutability": "nonpayable",
      "type": "function"
    }
  ],
  "bytecode": {
    "object": "0x60a06040526103e8600b556000600c553480156200001c57600080fd5b5060405162006230380380620062308339810160408190526200003f9162000392565b8789733cc6cdda760b79bafa08df41ecfa224f810dceb660018383808062000067336200024e565b6001600160a01b031660805250620000819050816200029e565b506daaeb6d7670e522a718067333cd4e3b15620001c75780156200011557604051633e9f1edf60e11b81523060048201526001600160a01b03831660248201526daaeb6d7670e522a718067333cd4e90637d3e3dbe906044015b600060405180830381600087803b158015620000f657600080fd5b505af11580156200010b573d6000803e3d6000fd5b50505050620001c7565b6001600160a01b03821615620001665760405163a0af290360e01b81523060048201526001600160a01b03831660248201526daaeb6d7670e522a718067333cd4e9063a0af290390604401620000db565b604051632210724360e11b81523060048201526daaeb6d7670e522a718067333cd4e90634420e48690602401600060405180830381600087803b158015620001ad57600080fd5b505af1158015620001c2573d6000803e3d6000fd5b505050505b50506001600a555050600d80546001600160a01b031916331790556011620001f08882620004eb565b50600b95909555600e80546001600160a01b0319166001600160a01b03958616179055601280546301000000600160b81b031916630100000094909516939093029390931790915560135560149190915560155550620005b7915050565b600080546001600160a01b038381166001600160a01b0319831681178455604051919092169283917f8be0079c531659141344cd1fd0a4f28419497f9722a3daafe3b4186f6b6457e09190a35050565b6008620002ac8282620004eb565b5050565b80516001600160a01b0381168114620002c857600080fd5b919050565b634e487b7160e01b600052604160045260246000fd5b600082601f830112620002f557600080fd5b81516001600160401b0380821115620003125762000312620002cd565b604051601f8301601f19908116603f011681019082821181831017156200033d576200033d620002cd565b816040528381526020925086838588010111156200035a57600080fd5b600091505b838210156200037e57858201830151818301840152908201906200035f565b600093810190920192909252949350505050565b60008060008060008060008060006101208a8c031215620003b257600080fd5b620003bd8a620002b0565b60208b01519099506001600160401b0380821115620003db57600080fd5b620003e98d838e01620002e3565b995060408c01519150808211156200040057600080fd5b506200040f8c828d01620002e3565b97505060608a015195506200042760808b01620002b0565b94506200043760a08b01620002b0565b935060c08a0151925060e08a015191506101008a015190509295985092959850929598565b600181811c908216806200047157607f821691505b6020821081036200049257634e487b7160e01b600052602260045260246000fd5b50919050565b601f821115620004e657600081815260208120601f850160051c81016020861015620004c15750805b601f850160051c820191505b81811015620004e257828155600101620004cd565b5050505b505050565b81516001600160401b03811115620005075762000507620002cd565b6200051f816200051884546200045c565b8462000498565b602080601f8311600181146200055757600084156200053e5750858301515b600019600386901b1c1916600185901b178555620004e2565b600085815260208120601f198616915b82811015620005885788860151825594840194600190910190840162000567565b5085821015620005a75787850151600019600388901b60f8161c191681555b5050505050600190811b01905550565b608051615c1e6200061260003960008181610a4e01528181610c3301528181611125015281816112ab015281816115d3015281816120060152818161210e0152818161258101528181612a98015261392c0152615c1e6000f3fe6080604052600436106103c15760003560e01c806378e3079e116101f2578063b25356631161010d578063d1deba1f116100a0578063eb8d72b71161006f578063eb8d72b714610bb0578063f242432a14610bd0578063f2fde38b14610bf0578063f5ecbdbc14610c1057600080fd5b8063d1deba1f14610b1f578063df2a5b3b14610b32578063e8a3d48514610b52578063e985e9c514610b6757600080fd5b8063bd85b039116100dc578063bd85b03914610aa6578063bde4cbe514610ad3578063c446183414610ae9578063cbed8b9c14610aff57600080fd5b8063b253566314610a1c578063b353aaa714610a3c578063b37ea7da14610a70578063baf3292d14610a8657600080fd5b8063938e3d7b11610185578063a035b1fe11610154578063a035b1fe1461099f578063a22cb465146109b5578063a6c3d165146109d5578063a9d75b2b146109f557600080fd5b8063938e3d7b14610929578063950c8a741461094957806399c8d556146109695780639f38369a1461097f57600080fd5b8063899d7b38116101c1578063899d7b381461089e5780638cfd8f5c146108b35780638da5cb5b146108eb57806391b7f5ed1461090957600080fd5b806378e3079e1461080a5780637cb647591461082a5780638608e5f81461084a57806387c348bf1461087f57600080fd5b80633d8b38f6116102e25780634fdd43cb11610275578063600e97f611610244578063600e97f61461079b57806366ad5c8a146107b5578063715018a6146107d55780637533d788146107ea57600080fd5b80634fdd43cb146106ec57806355f804b31461070c57806356c0c9261461072c5780635b8c41e61461074c57600080fd5b80634ab4e687116102b15780634ab4e6871461066a5780634db8226a1461067d5780634e1273f4146106905780634f558e79146106bd57600080fd5b80633d8b38f6146105c35780633f1f4fa4146105e357806341f434341461061057806342d65a8d1461064a57600080fd5b80631291e33e1161035a5780632eb2c2d6116103295780632eb2c2d6146105635780632eb4a7ab146105835780633b2c3fb6146105995780633ccfd60b146105ae57600080fd5b80631291e33e146104f8578063174654711461050d5780631c31f710146105235780632e5bb6ff1461054357600080fd5b806307e0db171161039657806307e0db171461046b5780630df374831461048b5780630e89341c146104ab57806310ddb137146104d857600080fd5b80621d3567146103c6578062fdd58e146103e857806301ffc9a71461041b57806307ce5b7d1461044b575b600080fd5b3480156103d257600080fd5b506103e66103e136600461440e565b610c30565b005b3480156103f457600080fd5b506104086104033660046144c2565b610e61565b6040519081526020015b60405180910390f35b34801561042757600080fd5b5061043b610436366004614504565b610ef7565b6040519015158152602001610412565b34801561045757600080fd5b506103e6610466366004614521565b610f14565b34801561047757600080fd5b506103e661048636600461455a565b611104565b34801561049757600080fd5b506103e66104a6366004614575565b61118d565b3480156104b757600080fd5b506104cb6104c6366004614591565b6111ac565b60405161041291906145fa565b3480156104e457600080fd5b506103e66104f336600461455a565b61128a565b34801561050457600080fd5b506103e66112e2565b34801561051957600080fd5b5061040860135481565b34801561052f57600080fd5b506103e661053e36600461460d565b6112fe565b34801561054f57600080fd5b506103e661055e366004614591565b611328565b34801561056f57600080fd5b506103e661057e36600461478d565b611335565b34801561058f57600080fd5b50610408600f5481565b3480156105a557600080fd5b506103e6611364565b3480156105ba57600080fd5b506103e661138b565b3480156105cf57600080fd5b5061043b6105de36600461483a565b6114e8565b3480156105ef57600080fd5b506104086105fe36600461455a565b60036020526000908152604090205481565b34801561061c57600080fd5b506106326daaeb6d7670e522a718067333cd4e81565b6040516001600160a01b039091168152602001610412565b34801561065657600080fd5b506103e661066536600461483a565b6115b4565b6103e661067836600461488c565b61163a565b6103e661068b36600461497b565b611655565b34801561069c57600080fd5b506106b06106ab366004614a21565b611676565b6040516104129190614b28565b3480156106c957600080fd5b5061043b6106d8366004614591565b600090815260096020526040902054151590565b3480156106f857600080fd5b506103e6610707366004614b3b565b61179f565b34801561071857600080fd5b506103e6610727366004614b3b565b6117b3565b34801561073857600080fd5b506103e6610747366004614b83565b6117c7565b34801561075857600080fd5b50610408610767366004614c20565b6005602090815260009384526040808520845180860184018051928152908401958401959095209452929052825290205481565b3480156107a757600080fd5b5060125461043b9060ff1681565b3480156107c157600080fd5b506103e66107d036600461440e565b611be3565b3480156107e157600080fd5b506103e6611cb7565b3480156107f657600080fd5b506104cb61080536600461455a565b611ccb565b34801561081657600080fd5b506103e661082536600461460d565b611d65565b34801561083657600080fd5b506103e6610845366004614591565b611d8f565b34801561085657600080fd5b5061086a610865366004614c8f565b611d9c565b60408051928352602083019190915201610412565b34801561088b57600080fd5b5060125461043b90610100900460ff1681565b3480156108aa57600080fd5b506103e6611dcc565b3480156108bf57600080fd5b506104086108ce366004614d29565b600260209081526000928352604080842090915290825290205481565b3480156108f757600080fd5b506000546001600160a01b0316610632565b34801561091557600080fd5b506103e6610924366004614591565b611df1565b34801561093557600080fd5b506103e6610944366004614b3b565b611dfe565b34801561095557600080fd5b50600454610632906001600160a01b031681565b34801561097557600080fd5b50610408600b5481565b34801561098b57600080fd5b506104cb61099a36600461455a565b611e12565b3480156109ab57600080fd5b50610408600c5481565b3480156109c157600080fd5b506103e66109d0366004614d5c565b611f28565b3480156109e157600080fd5b506103e66109f036600461483a565b611f3c565b348015610a0157600080fd5b5060125461063290630100000090046001600160a01b031681565b348015610a2857600080fd5b5061086a610a37366004614d95565b611fc5565b348015610a4857600080fd5b506106327f000000000000000000000000000000000000000000000000000000000000000081565b348015610a7c57600080fd5b5061040860145481565b348015610a9257600080fd5b506103e6610aa136600461460d565b612093565b348015610ab257600080fd5b50610408610ac1366004614591565b60009081526009602052604090205490565b348015610adf57600080fd5b5061040860155481565b348015610af557600080fd5b5061040861271081565b348015610b0b57600080fd5b506103e6610b1a366004614e47565b6120ef565b6103e6610b2d36600461440e565b612184565b348015610b3e57600080fd5b506103e6610b4d366004614eb5565b61239a565b348015610b5e57600080fd5b506104cb61244c565b348015610b7357600080fd5b5061043b610b82366004614ef1565b6001600160a01b03918216600090815260076020908152604080832093909416825291909152205460ff1690565b348015610bbc57600080fd5b506103e6610bcb36600461483a565b612459565b348015610bdc57600080fd5b506103e6610beb366004614f1f565b6124b3565b348015610bfc57600080fd5b506103e6610c0b36600461460d565b6124da565b348015610c1c57600080fd5b506104cb610c2b366004614f87565b612550565b337f00000000000000000000000000000000000000000000000000000000000000006001600160a01b031614610cad5760405162461bcd60e51b815260206004820152601e60248201527f4c7a4170703a20696e76616c696420656e64706f696e742063616c6c6572000060448201526064015b60405180910390fd5b61ffff861660009081526001602052604081208054610ccb90614fd4565b80601f0160208091040260200160405190810160405280929190818152602001828054610cf790614fd4565b8015610d445780601f10610d1957610100808354040283529160200191610d44565b820191906000526020600020905b815481529060010190602001808311610d2757829003601f168201915b50505050509050805186869050148015610d5f575060008151115b8015610d87575080516020820120604051610d7d908890889061500e565b6040518091039020145b610de25760405162461bcd60e51b815260206004820152602660248201527f4c7a4170703a20696e76616c696420736f757263652073656e64696e6720636f6044820152651b9d1c9858dd60d21b6064820152608401610ca4565b610e588787878080601f01602080910402602001604051908101604052809392919081815260200183838082843760009201919091525050604080516020601f8a018190048102820181019092528881528a93509150889088908190840183828082843760009201919091525061260392505050565b50505050505050565b60006001600160a01b038316610ecc5760405162461bcd60e51b815260206004820152602a60248201527f455243313135353a2061646472657373207a65726f206973206e6f742061207660448201526930b634b21037bbb732b960b11b6064820152608401610ca4565b5060008181526006602090815260408083206001600160a01b03861684529091529020545b92915050565b60006001600160e01b031982161580610ef15750610ef18261267c565b73abcc9b596420a9e9172fd5938620e265a0f9df923314610f695760405162461bcd60e51b815260206004820152600f60248201526e6f6e6c7947656c61746f52656c617960881b6044820152606401610ca4565b6015548314610f8a5760405162461bcd60e51b8152600401610ca49061501e565b6013548211156110025760405162461bcd60e51b815260206004820152603760248201527f416476616e6365644f4e4654313135354761736c6573733a20747279696e672060448201527f746f206d696e7420746f6f206d616e7920746f6b656e730000000000000000006064820152608401610ca4565b60145460008481526009602052604090205461101f908490615091565b111561103d5760405162461bcd60e51b8152600401610ca4906150a4565b8260000361105d5760405162461bcd60e51b8152600401610ca4906150f1565b6000600c541161107f5760405162461bcd60e51b8152600401610ca49061513a565b601254630100000090046001600160a01b03166110ae5760405162461bcd60e51b8152600401610ca49061518f565b6110b66126bc565b6110e4813084600c546110c991906151d7565b601254630100000090046001600160a01b03169291906126e7565b6110ff81848460405180602001604052806000815250612758565b505050565b61110c61283a565b6040516307e0db1760e01b815261ffff821660048201527f00000000000000000000000000000000000000000000000000000000000000006001600160a01b0316906307e0db17906024015b600060405180830381600087803b15801561117257600080fd5b505af1158015611186573d6000803e3d6000fd5b5050505050565b61119561283a565b61ffff909116600090815260036020526040902055565b60125460609062010000900460ff1661125157601180546111cc90614fd4565b80601f01602080910402602001604051908101604052809291908181526020018280546111f890614fd4565b80156112455780601f1061121a57610100808354040283529160200191611245565b820191906000526020600020905b81548152906001019060200180831161122857829003601f168201915b50505050509050919050565b61125a82612894565b611263836128a3565b6040516020016112749291906151ee565b6040516020818303038152906040529050919050565b61129261283a565b6040516310ddb13760e01b815261ffff821660048201527f00000000000000000000000000000000000000000000000000000000000000006001600160a01b0316906310ddb13790602401611158565b6112ea61283a565b6012805460ff19811660ff90911615179055565b61130661283a565b600d80546001600160a01b0319166001600160a01b0392909216919091179055565b61133061283a565b600b55565b846001600160a01b038116331461134f5761134f33612935565b61135c86868686866129ee565b505050505050565b61136c61283a565b6012805462ff0000198116620100009182900460ff1615909102179055565b600d546001600160a01b03163314806113ae57506000546001600160a01b031633145b6114195760405162461bcd60e51b815260206004820152603660248201527f416476616e6365644f4e4654313135354761736c6573733a2063616c6c6572206044820152756973206e6f74207468652062656e656669636961727960501b6064820152608401610ca4565b600d546001600160a01b03166114565760405162461bcd60e51b8152602060048201526002602482015261413960f01b6044820152606401610ca4565b600b5447906000906127109061146c90846151d7565b611476919061521d565b600d549091506001600160a01b03166108fc611492838561523f565b6040518115909202916000818181858888f193505050506114b257600080fd5b600e546040516001600160a01b039091169082156108fc029083906000818181858888f193505050506114e457600080fd5b5050565b61ffff83166000908152600160205260408120805482919061150990614fd4565b80601f016020809104026020016040519081016040528092919081815260200182805461153590614fd4565b80156115825780601f1061155757610100808354040283529160200191611582565b820191906000526020600020905b81548152906001019060200180831161156557829003601f168201915b50505050509050838360405161159992919061500e565b60405180910390208180519060200120149150509392505050565b6115bc61283a565b6040516342d65a8d60e01b81526001600160a01b037f000000000000000000000000000000000000000000000000000000000000000016906342d65a8d9061160c9086908690869060040161527b565b600060405180830381600087803b15801561162657600080fd5b505af1158015610e58573d6000803e3d6000fd5b61164b888888888888888834612a33565b5050505050505050565b61164b88888861166489612c37565b61166d89612c37565b88888834612a33565b606081518351146116db5760405162461bcd60e51b815260206004820152602960248201527f455243313135353a206163636f756e747320616e6420696473206c656e677468604482015268040dad2e6dac2e8c6d60bb1b6064820152608401610ca4565b600083516001600160401b038111156116f6576116f661462a565b60405190808252806020026020018201604052801561171f578160200160208202803683370190505b50905060005b84518110156117975761176a85828151811061174357611743615299565b602002602001015185838151811061175d5761175d615299565b6020026020010151610e61565b82828151811061177c5761177c615299565b6020908102919091010152611790816152af565b9050611725565b509392505050565b6117a761283a565b60116114e4828261530e565b6117bb61283a565b6117c481612c82565b50565b73abcc9b596420a9e9172fd5938620e265a0f9df92331461181c5760405162461bcd60e51b815260206004820152600f60248201526e6f6e6c7947656c61746f52656c617960881b6044820152606401610ca4565b60125460ff6101009091041615156001146118945760405162461bcd60e51b815260206004820152603260248201527f416476616e6365644f4e4654313135354761736c6573733a2053616c6520686160448201527173206e6f742073746172746564207965742160701b6064820152608401610ca4565b60125460ff1615156001146119065760405162461bcd60e51b815260206004820152603260248201527f416476616e6365644f4e4654313135353a205075626c69632073616c6520686160448201527173206e6f742073746172746564207965742160701b6064820152608401610ca4565b60125460ff6101009091041615156001146119775760405162461bcd60e51b815260206004820152602b60248201527f416476616e6365644f4e4654313135353a2053616c6520686173206e6f74207360448201526a746172746564207965742160a81b6064820152608401610ca4565b60155485146119985760405162461bcd60e51b8152600401610ca49061501e565b601354841115611a105760405162461bcd60e51b815260206004820152603f60248201527f416476616e6365644f4e4654313135354761736c6573733a20747279696e672060448201527f746f206d696e7420746f6f206d616e7920746f6b656e73206174206f6e6365006064820152608401610ca4565b601454600086815260096020526040902054611a2d908690615091565b1115611a4b5760405162461bcd60e51b8152600401610ca4906150a4565b84600003611a6b5760405162461bcd60e51b8152600401610ca4906150f1565b6000600c5411611a8d5760405162461bcd60e51b8152600401610ca49061513a565b601254630100000090046001600160a01b0316611abc5760405162461bcd60e51b8152600401610ca49061518f565b6000611b4384848080602002602001604051908101604052809392919081815260200183836020028082843760009201919091525050600f54915033905060405160609190911b6bffffffffffffffffffffffff19166020820152603481018a90526054810189905260740160405160208183030381529060405280519060200120612c8e565b9050600181151514611bad5760405162461bcd60e51b815260206004820152602d60248201527f416476616e6365644f4e4654313135354761736c6573733a20496e76616c696460448201526c1026b2b935b63290283937b7b360991b6064820152608401610ca4565b611bb56126bc565b611bc8823087600c546110c991906151d7565b61135c82878760405180602001604052806000815250612758565b333014611c415760405162461bcd60e51b815260206004820152602660248201527f4e6f6e626c6f636b696e674c7a4170703a2063616c6c6572206d7573742062656044820152650204c7a4170760d41b6064820152608401610ca4565b61135c8686868080601f01602080910402602001604051908101604052809392919081815260200183838082843760009201919091525050604080516020601f890181900481028201810190925287815289935091508790879081908401838280828437600092019190915250612ca492505050565b611cbf61283a565b611cc96000612dfc565b565b60016020526000908152604090208054611ce490614fd4565b80601f0160208091040260200160405190810160405280929190818152602001828054611d1090614fd4565b8015611d5d5780601f10611d3257610100808354040283529160200191611d5d565b820191906000526020600020905b815481529060010190602001808311611d4057829003601f168201915b505050505081565b611d6d61283a565b600e80546001600160a01b0319166001600160a01b0392909216919091179055565b611d9761283a565b600f55565b600080611dbd8888611dad89612c37565b611db689612c37565b8888611fc5565b91509150965096945050505050565b611dd461283a565b6012805461ff001981166101009182900460ff1615909102179055565b611df961283a565b600c55565b611e0661283a565b60106114e4828261530e565b61ffff8116600090815260016020526040812080546060929190611e3590614fd4565b80601f0160208091040260200160405190810160405280929190818152602001828054611e6190614fd4565b8015611eae5780601f10611e8357610100808354040283529160200191611eae565b820191906000526020600020905b815481529060010190602001808311611e9157829003601f168201915b505050505090508051600003611f065760405162461bcd60e51b815260206004820152601d60248201527f4c7a4170703a206e6f20747275737465642070617468207265636f72640000006044820152606401610ca4565b611f21600060148351611f19919061523f565b839190612e4c565b9392505050565b81611f3281612935565b6110ff8383612f59565b611f4461283a565b818130604051602001611f59939291906153cd565b60408051601f1981840301815291815261ffff8516600090815260016020522090611f84908261530e565b507f8c0400cfe2d1199b1a725c78960bcc2a344d869b80590d0f2bd005db15a572ce838383604051611fb89392919061527b565b60405180910390a1505050565b6000806000878787604051602001611fdf939291906153f3565b60408051601f198184030181529082905263040a7bb160e41b825291506001600160a01b037f000000000000000000000000000000000000000000000000000000000000000016906340a7bb1090612043908c90309086908b908b90600401615436565b6040805180830381865afa15801561205f573d6000803e3d6000fd5b505050506040513d601f19601f82011682018060405250810190612083919061548a565b9250925050965096945050505050565b61209b61283a565b600480546001600160a01b0319166001600160a01b0383169081179091556040519081527f5db758e995a17ec1ad84bdef7e8c3293a0bd6179bcce400dff5d4c3d87db726b9060200160405180910390a150565b6120f761283a565b6040516332fb62e760e21b81526001600160a01b037f0000000000000000000000000000000000000000000000000000000000000000169063cbed8b9c9061214b90889088908890889088906004016154ae565b600060405180830381600087803b15801561216557600080fd5b505af1158015612179573d6000803e3d6000fd5b505050505050505050565b61ffff861660009081526005602052604080822090516121a7908890889061500e565b90815260408051602092819003830190206001600160401b038716600090815292529020549050806122275760405162461bcd60e51b815260206004820152602360248201527f4e6f6e626c6f636b696e674c7a4170703a206e6f2073746f726564206d65737360448201526261676560e81b6064820152608401610ca4565b80838360405161223892919061500e565b6040518091039020146122975760405162461bcd60e51b815260206004820152602160248201527f4e6f6e626c6f636b696e674c7a4170703a20696e76616c6964207061796c6f616044820152601960fa1b6064820152608401610ca4565b61ffff871660009081526005602052604080822090516122ba908990899061500e565b90815260408051602092819003830181206001600160401b038916600090815290845282902093909355601f88018290048202830182019052868252612352918991899089908190840183828082843760009201919091525050604080516020601f8a018190048102820181019092528881528a935091508890889081908401838280828437600092019190915250612ca492505050565b7fc264d91f3adc5588250e1551f547752ca0cfa8f6b530d243b9f9f4cab10ea8e587878787856040516123899594939291906154dc565b60405180910390a150505050505050565b6123a261283a565b600081116123ea5760405162461bcd60e51b81526020600482015260156024820152744c7a4170703a20696e76616c6964206d696e47617360581b6044820152606401610ca4565b61ffff83811660008181526002602090815260408083209487168084529482529182902085905581519283528201929092529081018290527f9d5c7c0b934da8fefa9c7760c98383778a12dfbfc0c3b3106518f43fb9508ac090606001611fb8565b60108054611ce490614fd4565b61246161283a565b61ffff8316600090815260016020526040902061247f828483615517565b507ffa41487ad5d6728f0b19276fa1eddc16558578f5109fc39d2dc33c3230470dab838383604051611fb89392919061527b565b846001600160a01b03811633146124cd576124cd33612935565b61135c8686868686612f64565b6124e261283a565b6001600160a01b0381166125475760405162461bcd60e51b815260206004820152602660248201527f4f776e61626c653a206e6577206f776e657220697320746865207a65726f206160448201526564647265737360d01b6064820152608401610ca4565b6117c481612dfc565b604051633d7b2f6f60e21b815261ffff808616600483015284166024820152306044820152606481018290526060907f00000000000000000000000000000000000000000000000000000000000000006001600160a01b03169063f5ecbdbc90608401600060405180830381865afa1580156125d0573d6000803e3d6000fd5b505050506040513d6000823e601f3d908101601f191682016040526125f8919081019061562e565b90505b949350505050565b6000806126665a60966366ad5c8a60e01b8989898960405160240161262b9493929190615662565b60408051601f198184030181529190526020810180516001600160e01b03166001600160e01b03199093169290921790915230929190612fa9565b915091508161135c5761135c8686868685613033565b60006001600160e01b03198216636cdb3d1360e11b14806126ad57506001600160e01b031982166303a24d0760e21b145b80610ef15750610ef1826130d0565b611cc936604719013560601c36601f19013536603319013560601c6001600160a01b03169190613105565b6040516001600160a01b03808516602483015283166044820152606481018290526127529085906323b872dd60e01b906084015b60408051601f198184030181529190526020810180516001600160e01b03166001600160e01b031990931692909217909152613154565b50505050565b6001600160a01b03841661277e5760405162461bcd60e51b8152600401610ca4906156a0565b33600061278a85612c37565b9050600061279785612c37565b90506127a883600089858589613226565b60008681526006602090815260408083206001600160a01b038b168452909152812080548792906127da908490615091565b909155505060408051878152602081018790526001600160a01b03808a1692600092918716917fc3d58168c5ae7397731d063d5bbf3d657854427343f4c083240f7aacaa2d0f62910160405180910390a4610e588360008989898961339f565b6000546001600160a01b03163314611cc95760405162461bcd60e51b815260206004820181905260248201527f4f776e61626c653a2063616c6c6572206973206e6f7420746865206f776e65726044820152606401610ca4565b6060600880546111cc90614fd4565b606060006128b0836134fa565b60010190506000816001600160401b038111156128cf576128cf61462a565b6040519080825280601f01601f1916602001820160405280156128f9576020820181803683370190505b5090508181016020015b600019016f181899199a1a9b1b9c1cb0b131b232b360811b600a86061a8153600a850494508461290357509392505050565b6daaeb6d7670e522a718067333cd4e3b156117c457604051633185c44d60e21b81523060048201526001600160a01b03821660248201526daaeb6d7670e522a718067333cd4e9063c617113490604401602060405180830381865afa1580156129a2573d6000803e3d6000fd5b505050506040513d601f19601f820116820180604052508101906129c691906156e1565b6117c457604051633b79c77360e21b81526001600160a01b0382166004820152602401610ca4565b6001600160a01b038516331480612a0a5750612a0a8533610b82565b612a265760405162461bcd60e51b8152600401610ca4906156fe565b61118685858585856135d2565b612a408989898989613777565b6000878787604051602001612a57939291906153f3565b6040516020818303038152906040529050612a76898287878787613803565b604051630f428ae960e31b815261ffff8a1660048201523060248201526000907f00000000000000000000000000000000000000000000000000000000000000006001600160a01b031690637a14574890604401602060405180830381865afa158015612ae7573d6000803e3d6000fd5b505050506040513d601f19601f82011682018060405250810190612b0b919061574c565b90508751600103612bbf5788604051612b249190615769565b60405180910390208a61ffff168c6001600160a01b03167f65f8f231660ef9add3da95eb0bbdae4c246f6c10e274fae37b17190637080d4c8b600081518110612b6f57612b6f615299565b60200260200101518b600081518110612b8a57612b8a615299565b60209081029190910181015160408051938452918301526001600160401b0387169082015260600160405180910390a4612c2a565b600188511115612c2a5788604051612bd79190615769565b60405180910390208a61ffff168c6001600160a01b03167f2d31495ecbe799a81d5475c03585aa019860601fed836229d70e335b732eab3d8b8b86604051612c2193929190615785565b60405180910390a45b5050505050505050505050565b60408051600180825281830190925260609160009190602080830190803683370190505090508281600081518110612c7157612c71615299565b602090810291909101015292915050565b60086114e4828261530e565b600082612c9b85846139a8565b14949350505050565b600080600083806020019051810190612cbd919061582a565b60148301519295509093509150612cd6888285856139ed565b8251600103612d8857806001600160a01b031687604051612cf79190615769565b60405180910390208961ffff167f330378e2f010257b2fbe836316fb7ab303af5ed8f2795b82bca60d1c8c909f7686600081518110612d3857612d38615299565b602002602001015186600081518110612d5357612d53615299565b60209081029190910181015160408051938452918301526001600160401b038c169082015260600160405180910390a461164b565b60018351111561164b57806001600160a01b031687604051612daa9190615769565b60405180910390208961ffff167f5604161d52abb20dbe3d4a2230e585a0b230b3d18179a0e00917b173f5f9adab86868b604051612dea93929190615785565b60405180910390a45050505050505050565b600080546001600160a01b038381166001600160a01b0319831681178455604051919092169283917f8be0079c531659141344cd1fd0a4f28419497f9722a3daafe3b4186f6b6457e09190a35050565b606081612e5a81601f615091565b1015612e995760405162461bcd60e51b815260206004820152600e60248201526d736c6963655f6f766572666c6f7760901b6044820152606401610ca4565b612ea38284615091565b84511015612ee75760405162461bcd60e51b8152602060048201526011602482015270736c6963655f6f75744f66426f756e647360781b6044820152606401610ca4565b606082158015612f065760405191506000825260208201604052612f50565b6040519150601f8416801560200281840101858101878315602002848b0101015b81831015612f3f578051835260209283019201612f27565b5050858452601f01601f1916604052505b50949350505050565b6114e4338383613a08565b6001600160a01b038516331480612f805750612f808533610b82565b612f9c5760405162461bcd60e51b8152600401610ca4906156fe565b6111868585858585613ae8565b6000606060008060008661ffff166001600160401b03811115612fce57612fce61462a565b6040519080825280601f01601f191660200182016040528015612ff8576020820181803683370190505b50905060008087516020890160008d8df191503d92508683111561301a578692505b828152826000602083013e909890975095505050505050565b8180519060200120600560008761ffff1661ffff168152602001908152602001600020856040516130649190615769565b9081526040805191829003602090810183206001600160401b0388166000908152915220919091557fe183f33de2837795525b4792ca4cd60535bd77c53b7e7030060bfcf5734d6b0c906130c190879087908790879087906158b1565b60405180910390a15050505050565b60006001600160e01b031982166319abbbbb60e11b1480610ef157506301ffc9a760e01b6001600160e01b0319831614610ef1565b8060000361311257505050565b6001600160a01b03831673eeeeeeeeeeeeeeeeeeeeeeeeeeeeeeeeeeeeeeee1461314a576110ff6001600160a01b0384168383613c19565b6110ff8282613c49565b60006131a9826040518060400160405280602081526020017f5361666545524332303a206c6f772d6c6576656c2063616c6c206661696c6564815250856001600160a01b0316613d629092919063ffffffff16565b8051909150156110ff57808060200190518101906131c791906156e1565b6110ff5760405162461bcd60e51b815260206004820152602a60248201527f5361666545524332303a204552433230206f7065726174696f6e20646964206e6044820152691bdd081cdd58d8d9595960b21b6064820152608401610ca4565b6001600160a01b0385166132ad5760005b83518110156132ab5782818151811061325257613252615299565b60200260200101516009600086848151811061327057613270615299565b6020026020010151815260200190815260200160002060008282546132959190615091565b909155506132a49050816152af565b9050613237565b505b6001600160a01b03841661135c5760005b8351811015610e585760008482815181106132db576132db615299565b6020026020010151905060008483815181106132f9576132f9615299565b602002602001015190506000600960008481526020019081526020016000205490508181101561337c5760405162461bcd60e51b815260206004820152602860248201527f455243313135353a206275726e20616d6f756e74206578636565647320746f74604482015267616c537570706c7960c01b6064820152608401610ca4565b60009283526009602052604090922091039055613398816152af565b90506132be565b6001600160a01b0384163b1561135c5760405163f23a6e6160e01b81526001600160a01b0385169063f23a6e61906133e39089908990889088908890600401615903565b6020604051808303816000875af192505050801561341e575060408051601f3d908101601f1916820190925261341b9181019061593d565b60015b6134ca5761342a61595a565b806308c379a003613463575061343e615976565b806134495750613465565b8060405162461bcd60e51b8152600401610ca491906145fa565b505b60405162461bcd60e51b815260206004820152603460248201527f455243313135353a207472616e7366657220746f206e6f6e2d455243313135356044820152732932b1b2b4bb32b91034b6b83632b6b2b73a32b960611b6064820152608401610ca4565b6001600160e01b0319811663f23a6e6160e01b14610e585760405162461bcd60e51b8152600401610ca4906159ff565b60008072184f03e93ff9f4daa797ed6e38ed64bf6a1f0160401b83106135395772184f03e93ff9f4daa797ed6e38ed64bf6a1f0160401b830492506040015b6d04ee2d6d415b85acef81000000008310613565576d04ee2d6d415b85acef8100000000830492506020015b662386f26fc10000831061358357662386f26fc10000830492506010015b6305f5e100831061359b576305f5e100830492506008015b61271083106135af57612710830492506004015b606483106135c1576064830492506002015b600a8310610ef15760010192915050565b81518351146135f35760405162461bcd60e51b8152600401610ca490615a47565b6001600160a01b0384166136195760405162461bcd60e51b8152600401610ca490615a8f565b33613628818787878787613226565b60005b845181101561371157600085828151811061364857613648615299565b60200260200101519050600085838151811061366657613666615299565b60209081029190910181015160008481526006835260408082206001600160a01b038e1683529093529190912054909150818110156136b75760405162461bcd60e51b8152600401610ca490615ad4565b60008381526006602090815260408083206001600160a01b038e8116855292528083208585039055908b168252812080548492906136f6908490615091565b925050819055505050508061370a906152af565b905061362b565b50846001600160a01b0316866001600160a01b0316826001600160a01b03167f4a39dc06d4c0dbc64b70af90fd698a233a518aa5d07e595d983b8c0526c8f7fb8787604051613761929190615b1e565b60405180910390a461135c818787878787613d71565b336001600160a01b03861681148061379457506137948682610b82565b6137f85760405162461bcd60e51b815260206004820152602f60248201527f4f4e4654313135353a2073656e642063616c6c6572206973206e6f74206f776e60448201526e195c881b9bdc88185c1c1c9bdd9959608a1b6064820152608401610ca4565b61135c868484613e2c565b61ffff86166000908152600160205260408120805461382190614fd4565b80601f016020809104026020016040519081016040528092919081815260200182805461384d90614fd4565b801561389a5780601f1061386f5761010080835404028352916020019161389a565b820191906000526020600020905b81548152906001019060200180831161387d57829003601f168201915b50505050509050805160000361390b5760405162461bcd60e51b815260206004820152603060248201527f4c7a4170703a2064657374696e6174696f6e20636861696e206973206e6f742060448201526f61207472757374656420736f7572636560801b6064820152608401610ca4565b613916878751614043565b60405162c5803160e81b81526001600160a01b037f0000000000000000000000000000000000000000000000000000000000000000169063c580310090849061396d908b9086908c908c908c908c90600401615b43565b6000604051808303818588803b15801561398657600080fd5b505af115801561399a573d6000803e3d6000fd5b505050505050505050505050565b600081815b8451811015611797576139d9828683815181106139cc576139cc615299565b60200260200101516140b4565b9150806139e5816152af565b9150506139ad565b612752838383604051806020016040528060008152506140e0565b816001600160a01b0316836001600160a01b031603613a7b5760405162461bcd60e51b815260206004820152602960248201527f455243313135353a2073657474696e6720617070726f76616c20737461747573604482015268103337b91039b2b63360b91b6064820152608401610ca4565b6001600160a01b03838116600081815260076020908152604080832094871680845294825291829020805460ff191686151590811790915591519182527f17307eab39ab6107e8899845ad3d59bd9653f200f220920489ca2b5937696c31910160405180910390a3505050565b6001600160a01b038416613b0e5760405162461bcd60e51b8152600401610ca490615a8f565b336000613b1a85612c37565b90506000613b2785612c37565b9050613b37838989858589613226565b60008681526006602090815260408083206001600160a01b038c16845290915290205485811015613b7a5760405162461bcd60e51b8152600401610ca490615ad4565b60008781526006602090815260408083206001600160a01b038d8116855292528083208985039055908a16825281208054889290613bb9908490615091565b909155505060408051888152602081018890526001600160a01b03808b16928c821692918816917fc3d58168c5ae7397731d063d5bbf3d657854427343f4c083240f7aacaa2d0f62910160405180910390a4612179848a8a8a8a8a61339f565b6040516001600160a01b0383166024820152604481018290526110ff90849063a9059cbb60e01b9060640161271b565b80471015613c995760405162461bcd60e51b815260206004820152601d60248201527f416464726573733a20696e73756666696369656e742062616c616e63650000006044820152606401610ca4565b6000826001600160a01b03168260405160006040518083038185875af1925050503d8060008114613ce6576040519150601f19603f3d011682016040523d82523d6000602084013e613ceb565b606091505b50509050806110ff5760405162461bcd60e51b815260206004820152603a60248201527f416464726573733a20756e61626c6520746f2073656e642076616c75652c207260448201527f6563697069656e74206d617920686176652072657665727465640000000000006064820152608401610ca4565b60606125fb848460008561423b565b6001600160a01b0384163b1561135c5760405163bc197c8160e01b81526001600160a01b0385169063bc197c8190613db59089908990889088908890600401615baa565b6020604051808303816000875af1925050508015613df0575060408051601f3d908101601f19168201909252613ded9181019061593d565b60015b613dfc5761342a61595a565b6001600160e01b0319811663bc197c8160e01b14610e585760405162461bcd60e51b8152600401610ca4906159ff565b6001600160a01b038316613e8e5760405162461bcd60e51b815260206004820152602360248201527f455243313135353a206275726e2066726f6d20746865207a65726f206164647260448201526265737360e81b6064820152608401610ca4565b8051825114613eaf5760405162461bcd60e51b8152600401610ca490615a47565b6000339050613ed281856000868660405180602001604052806000815250613226565b60005b8351811015613fd6576000848281518110613ef257613ef2615299565b602002602001015190506000848381518110613f1057613f10615299565b60209081029190910181015160008481526006835260408082206001600160a01b038c168352909352919091205490915081811015613f9d5760405162461bcd60e51b8152602060048201526024808201527f455243313135353a206275726e20616d6f756e7420657863656564732062616c604482015263616e636560e01b6064820152608401610ca4565b60009283526006602090815260408085206001600160a01b038b1686529091529092209103905580613fce816152af565b915050613ed5565b5060006001600160a01b0316846001600160a01b0316826001600160a01b03167f4a39dc06d4c0dbc64b70af90fd698a233a518aa5d07e595d983b8c0526c8f7fb8686604051614027929190615b1e565b60405180910390a4604080516020810190915260009052612752565b61ffff82166000908152600360205260408120549081900361406457506127105b808211156110ff5760405162461bcd60e51b815260206004820181905260248201527f4c7a4170703a207061796c6f61642073697a6520697320746f6f206c617267656044820152606401610ca4565b60008183106140d0576000828152602084905260409020611f21565b5060009182526020526040902090565b6001600160a01b0384166141065760405162461bcd60e51b8152600401610ca4906156a0565b81518351146141275760405162461bcd60e51b8152600401610ca490615a47565b3361413781600087878787613226565b60005b84518110156141d35783818151811061415557614155615299565b60200260200101516006600087848151811061417357614173615299565b602002602001015181526020019081526020016000206000886001600160a01b03166001600160a01b0316815260200190815260200160002060008282546141bb9190615091565b909155508190506141cb816152af565b91505061413a565b50846001600160a01b031660006001600160a01b0316826001600160a01b03167f4a39dc06d4c0dbc64b70af90fd698a233a518aa5d07e595d983b8c0526c8f7fb8787604051614224929190615b1e565b60405180910390a461118681600087878787613d71565b60608247101561429c5760405162461bcd60e51b815260206004820152602660248201527f416464726573733a20696e73756666696369656e742062616c616e636520666f6044820152651c8818d85b1b60d21b6064820152608401610ca4565b600080866001600160a01b031685876040516142b89190615769565b60006040518083038185875af1925050503d80600081146142f5576040519150601f19603f3d011682016040523d82523d6000602084013e6142fa565b606091505b509150915061430b87838387614316565b979650505050505050565b6060831561438557825160000361437e576001600160a01b0385163b61437e5760405162461bcd60e51b815260206004820152601d60248201527f416464726573733a2063616c6c20746f206e6f6e2d636f6e74726163740000006044820152606401610ca4565b50816125fb565b6125fb83838151156134495781518083602001fd5b803561ffff811681146143ac57600080fd5b919050565b60008083601f8401126143c357600080fd5b5081356001600160401b038111156143da57600080fd5b6020830191508360208285010111156143f257600080fd5b9250929050565b6001600160401b03811681146117c457600080fd5b6000806000806000806080878903121561442757600080fd5b6144308761439a565b955060208701356001600160401b038082111561444c57600080fd5b6144588a838b016143b1565b90975095506040890135915061446d826143f9565b9093506060880135908082111561448357600080fd5b5061449089828a016143b1565b979a9699509497509295939492505050565b6001600160a01b03811681146117c457600080fd5b80356143ac816144a2565b600080604083850312156144d557600080fd5b82356144e0816144a2565b946020939093013593505050565b6001600160e01b0319811681146117c457600080fd5b60006020828403121561451657600080fd5b8135611f21816144ee565b60008060006060848603121561453657600080fd5b8335925060208401359150604084013561454f816144a2565b809150509250925092565b60006020828403121561456c57600080fd5b611f218261439a565b6000806040838503121561458857600080fd5b6144e08361439a565b6000602082840312156145a357600080fd5b5035919050565b60005b838110156145c55781810151838201526020016145ad565b50506000910152565b600081518084526145e68160208601602086016145aa565b601f01601f19169290920160200192915050565b602081526000611f2160208301846145ce565b60006020828403121561461f57600080fd5b8135611f21816144a2565b634e487b7160e01b600052604160045260246000fd5b601f8201601f191681016001600160401b03811182821017156146655761466561462a565b6040525050565b60006001600160401b038211156146855761468561462a565b5060051b60200190565b600082601f8301126146a057600080fd5b813560206146ad8261466c565b6040516146ba8282614640565b83815260059390931b85018201928281019150868411156146da57600080fd5b8286015b848110156146f557803583529183019183016146de565b509695505050505050565b60006001600160401b038211156147195761471961462a565b50601f01601f191660200190565b600061473283614700565b60405161473f8282614640565b80925084815285858501111561475457600080fd5b8484602083013760006020868301015250509392505050565b600082601f83011261477e57600080fd5b611f2183833560208501614727565b600080600080600060a086880312156147a557600080fd5b85356147b0816144a2565b945060208601356147c0816144a2565b935060408601356001600160401b03808211156147dc57600080fd5b6147e889838a0161468f565b945060608801359150808211156147fe57600080fd5b61480a89838a0161468f565b9350608088013591508082111561482057600080fd5b5061482d8882890161476d565b9150509295509295909350565b60008060006040848603121561484f57600080fd5b6148588461439a565b925060208401356001600160401b0381111561487357600080fd5b61487f868287016143b1565b9497909650939450505050565b600080600080600080600080610100898b0312156148a957600080fd5b6148b2896144b7565b97506148c060208a0161439a565b965060408901356001600160401b03808211156148dc57600080fd5b6148e88c838d0161476d565b975060608b01359150808211156148fe57600080fd5b61490a8c838d0161468f565b965060808b013591508082111561492057600080fd5b61492c8c838d0161468f565b955061493a60a08c016144b7565b945061494860c08c016144b7565b935060e08b013591508082111561495e57600080fd5b5061496b8b828c0161476d565b9150509295985092959890939650565b600080600080600080600080610100898b03121561499857600080fd5b88356149a3816144a2565b97506149b160208a0161439a565b965060408901356001600160401b03808211156149cd57600080fd5b6149d98c838d0161476d565b975060608b0135965060808b0135955060a08b013591506149f9826144a2565b90935060c08a013590614a0b826144a2565b90925060e08a0135908082111561495e57600080fd5b60008060408385031215614a3457600080fd5b82356001600160401b0380821115614a4b57600080fd5b818501915085601f830112614a5f57600080fd5b81356020614a6c8261466c565b604051614a798282614640565b83815260059390931b8501820192828101915089841115614a9957600080fd5b948201945b83861015614ac0578535614ab1816144a2565b82529482019490820190614a9e565b96505086013592505080821115614ad657600080fd5b50614ae38582860161468f565b9150509250929050565b600081518084526020808501945080840160005b83811015614b1d57815187529582019590820190600101614b01565b509495945050505050565b602081526000611f216020830184614aed565b600060208284031215614b4d57600080fd5b81356001600160401b03811115614b6357600080fd5b8201601f81018413614b7457600080fd5b6125fb84823560208401614727565b600080600080600060808688031215614b9b57600080fd5b853594506020860135935060408601356001600160401b0380821115614bc057600080fd5b818801915088601f830112614bd457600080fd5b813581811115614be357600080fd5b8960208260051b8501011115614bf857600080fd5b6020830195508094505050506060860135614c12816144a2565b809150509295509295909350565b600080600060608486031215614c3557600080fd5b614c3e8461439a565b925060208401356001600160401b03811115614c5957600080fd5b614c658682870161476d565b925050604084013561454f816143f9565b80151581146117c457600080fd5b80356143ac81614c76565b60008060008060008060c08789031215614ca857600080fd5b614cb18761439a565b955060208701356001600160401b0380821115614ccd57600080fd5b614cd98a838b0161476d565b9650604089013595506060890135945060808901359150614cf982614c76565b90925060a08801359080821115614d0f57600080fd5b50614d1c89828a0161476d565b9150509295509295509295565b60008060408385031215614d3c57600080fd5b614d458361439a565b9150614d536020840161439a565b90509250929050565b60008060408385031215614d6f57600080fd5b8235614d7a816144a2565b91506020830135614d8a81614c76565b809150509250929050565b60008060008060008060c08789031215614dae57600080fd5b614db78761439a565b955060208701356001600160401b0380821115614dd357600080fd5b614ddf8a838b0161476d565b96506040890135915080821115614df557600080fd5b614e018a838b0161468f565b95506060890135915080821115614e1757600080fd5b614e238a838b0161468f565b9450614e3160808a01614c84565b935060a0890135915080821115614d0f57600080fd5b600080600080600060808688031215614e5f57600080fd5b614e688661439a565b9450614e766020870161439a565b93506040860135925060608601356001600160401b03811115614e9857600080fd5b614ea4888289016143b1565b969995985093965092949392505050565b600080600060608486031215614eca57600080fd5b614ed38461439a565b9250614ee16020850161439a565b9150604084013590509250925092565b60008060408385031215614f0457600080fd5b8235614f0f816144a2565b91506020830135614d8a816144a2565b600080600080600060a08688031215614f3757600080fd5b8535614f42816144a2565b94506020860135614f52816144a2565b9350604086013592506060860135915060808601356001600160401b03811115614f7b57600080fd5b61482d8882890161476d565b60008060008060808587031215614f9d57600080fd5b614fa68561439a565b9350614fb46020860161439a565b92506040850135614fc4816144a2565b9396929550929360600135925050565b600181811c90821680614fe857607f821691505b60208210810361500857634e487b7160e01b600052602260045260246000fd5b50919050565b8183823760009101908152919050565b6020808252603d908201527f416476616e6365644f4e4654313135354761736c6573733a20747279696e672060408201527f746f206d696e742066726f6d20616e20696e76616c696420636861696e000000606082015260800190565b634e487b7160e01b600052601160045260246000fd5b80820180821115610ef157610ef161507b565b6020808252602d908201527f416476616e6365644f4e4654313135354761736c6573733a20746f6b656e206c60408201526c1a5b5a5d08195e18d959591959609a1b606082015260800190565b60208082526029908201527f416476616e6365644f4e4654313135354761736c6573733a20496e76616c6964604082015268081d1bdad95b88125160ba1b606082015260800190565b60208082526035908201527f416476616e6365644f4e4654313135354761736c6573733a20796f75206e65656040820152746420746f2073657420737461626c6520707269636560581b606082015260800190565b60208082526028908201527f4f4e46543732314761736c6573733a206e6f7420737570706f727420737461626040820152673632903a37b5b2b760c11b606082015260800190565b8082028115828204841417610ef157610ef161507b565b600083516152008184602088016145aa565b8351908301906152148183602088016145aa565b01949350505050565b60008261523a57634e487b7160e01b600052601260045260246000fd5b500490565b81810381811115610ef157610ef161507b565b81835281816020850137506000828201602090810191909152601f909101601f19169091010190565b61ffff841681526040602082015260006125f8604083018486615252565b634e487b7160e01b600052603260045260246000fd5b6000600182016152c1576152c161507b565b5060010190565b601f8211156110ff57600081815260208120601f850160051c810160208610156152ef5750805b601f850160051c820191505b8181101561135c578281556001016152fb565b81516001600160401b038111156153275761532761462a565b61533b816153358454614fd4565b846152c8565b602080601f83116001811461537057600084156153585750858301515b600019600386901b1c1916600185901b17855561135c565b600085815260208120601f198616915b8281101561539f57888601518255948401946001909101908401615380565b50858210156153bd5787850151600019600388901b60f8161c191681555b5050505050600190811b01905550565b8284823760609190911b6bffffffffffffffffffffffff19169101908152601401919050565b60608152600061540660608301866145ce565b82810360208401526154188186614aed565b9050828103604084015261542c8185614aed565b9695505050505050565b61ffff861681526001600160a01b038516602082015260a060408201819052600090615464908301866145ce565b8415156060840152828103608084015261547e81856145ce565b98975050505050505050565b6000806040838503121561549d57600080fd5b505080516020909101519092909150565b600061ffff80881683528087166020840152508460408301526080606083015261430b608083018486615252565b61ffff861681526080602082015260006154fa608083018688615252565b6001600160401b0394909416604083015250606001529392505050565b6001600160401b0383111561552e5761552e61462a565b6155428361553c8354614fd4565b836152c8565b6000601f841160018114615576576000851561555e5750838201355b600019600387901b1c1916600186901b178355611186565b600083815260209020601f19861690835b828110156155a75786850135825560209485019460019092019101615587565b50868210156155c45760001960f88860031b161c19848701351681555b505060018560011b0183555050505050565b600082601f8301126155e757600080fd5b81516155f281614700565b6040516155ff8282614640565b82815285602084870101111561561457600080fd5b6156258360208301602088016145aa565b95945050505050565b60006020828403121561564057600080fd5b81516001600160401b0381111561565657600080fd5b6125fb848285016155d6565b61ffff8516815260806020820152600061567f60808301866145ce565b6001600160401b0385166040840152828103606084015261430b81856145ce565b60208082526021908201527f455243313135353a206d696e7420746f20746865207a65726f206164647265736040820152607360f81b606082015260800190565b6000602082840312156156f357600080fd5b8151611f2181614c76565b6020808252602e908201527f455243313135353a2063616c6c6572206973206e6f7420746f6b656e206f776e60408201526d195c881bdc88185c1c1c9bdd995960921b606082015260800190565b60006020828403121561575e57600080fd5b8151611f21816143f9565b6000825161577b8184602087016145aa565b9190910192915050565b6060815260006157986060830186614aed565b82810360208401526157aa8186614aed565b9150506001600160401b0383166040830152949350505050565b600082601f8301126157d557600080fd5b815160206157e28261466c565b6040516157ef8282614640565b83815260059390931b850182019282810191508684111561580f57600080fd5b8286015b848110156146f55780518352918301918301615813565b60008060006060848603121561583f57600080fd5b83516001600160401b038082111561585657600080fd5b615862878388016155d6565b9450602086015191508082111561587857600080fd5b615884878388016157c4565b9350604086015191508082111561589a57600080fd5b506158a7868287016157c4565b9150509250925092565b61ffff8616815260a0602082015260006158ce60a08301876145ce565b6001600160401b038616604084015282810360608401526158ef81866145ce565b9050828103608084015261547e81856145ce565b6001600160a01b03868116825285166020820152604081018490526060810183905260a06080820181905260009061430b908301846145ce565b60006020828403121561594f57600080fd5b8151611f21816144ee565b600060033d11156159735760046000803e5060005160e01c5b90565b600060443d10156159845790565b6040516003193d81016004833e81513d6001600160401b0381602484011181841117156159b357505050505090565b82850191508151818111156159cb5750505050505090565b843d87010160208285010111156159e55750505050505090565b6159f460208286010187614640565b509095945050505050565b60208082526028908201527f455243313135353a204552433131353552656365697665722072656a656374656040820152676420746f6b656e7360c01b606082015260800190565b60208082526028908201527f455243313135353a2069647320616e6420616d6f756e7473206c656e677468206040820152670dad2e6dac2e8c6d60c31b606082015260800190565b60208082526025908201527f455243313135353a207472616e7366657220746f20746865207a65726f206164604082015264647265737360d81b606082015260800190565b6020808252602a908201527f455243313135353a20696e73756666696369656e742062616c616e636520666f60408201526939103a3930b739b332b960b11b606082015260800190565b604081526000615b316040830185614aed565b82810360208401526156258185614aed565b61ffff8716815260c060208201526000615b6060c08301886145ce565b8281036040840152615b7281886145ce565b6001600160a01b0387811660608601528616608085015283810360a08501529050615b9d81856145ce565b9998505050505050505050565b6001600160a01b0386811682528516602082015260a060408201819052600090615bd690830186614aed565b82810360608401526158ef8186614aed56fea2646970667358221220dfe83eca8684bde3e8b0bda7b1a1e3bd89e425e6b27a64696eef015ce11743df64736f6c63430008110033",
    "linkReferences": {}
  },
  "methodIdentifiers": {
    "DEFAULT_PAYLOAD_SIZE_LIMIT()": "c4461834",
    "OPERATOR_FILTER_REGISTRY()": "41f43434",
    "_publicSaleStarted()": "600e97f6",
    "_saleStarted()": "87c348bf",
    "ableToMint()": "bde4cbe5",
    "balanceOf(address,uint256)": "00fdd58e",
    "balanceOfBatch(address[],uint256[])": "4e1273f4",
    "contractURI()": "e8a3d485",
    "estimateSendBatchFee(uint16,bytes,uint256[],uint256[],bool,bytes)": "b2535663",
    "estimateSendFee(uint16,bytes,uint256,uint256,bool,bytes)": "8608e5f8",
    "exists(uint256)": "4f558e79",
    "failedMessages(uint16,bytes,uint64)": "5b8c41e6",
    "flipPublicSaleStarted()": "1291e33e",
    "flipRevealed()": "3b2c3fb6",
    "flipSaleStarted()": "899d7b38",
    "forceResumeReceive(uint16,bytes)": "42d65a8d",
    "getConfig(uint16,uint16,address,uint256)": "f5ecbdbc",
    "getTrustedRemoteAddress(uint16)": "9f38369a",
    "isApprovedForAll(address,address)": "e985e9c5",
    "isTrustedRemote(uint16,bytes)": "3d8b38f6",
    "lzEndpoint()": "b353aaa7",
    "lzReceive(uint16,bytes,uint64,bytes)": "001d3567",
    "maxTokenPerID()": "b37ea7da",
    "maxTokensPerMint()": "17465471",
    "merkleRoot()": "2eb4a7ab",
    "minDstGasLookup(uint16,uint16)": "8cfd8f5c",
    "mintGasless(uint256,uint256,bytes32[],address)": "56c0c926",
    "nonblockingLzReceive(uint16,bytes,uint64,bytes)": "66ad5c8a",
    "owner()": "8da5cb5b",
    "payloadSizeLimitLookup(uint16)": "3f1f4fa4",
    "precrime()": "950c8a74",
    "price()": "a035b1fe",
    "publicMintGasless(uint256,uint256,address)": "07ce5b7d",
    "renounceOwnership()": "715018a6",
    "retryMessage(uint16,bytes,uint64,bytes)": "d1deba1f",
    "safeBatchTransferFrom(address,address,uint256[],uint256[],bytes)": "2eb2c2d6",
    "safeTransferFrom(address,address,uint256,uint256,bytes)": "f242432a",
    "sendBatchFrom(address,uint16,bytes,uint256[],uint256[],address,address,bytes)": "4ab4e687",
    "sendFrom(address,uint16,bytes,uint256,uint256,address,address,bytes)": "4db8226a",
    "setApprovalForAll(address,bool)": "a22cb465",
    "setBaseURI(string)": "55f804b3",
    "setBeneficiary(address)": "1c31f710",
    "setConfig(uint16,uint16,uint256,bytes)": "cbed8b9c",
    "setContractURI(string)": "938e3d7b",
    "setHiddenMetadataUri(string)": "4fdd43cb",
    "setMerkleRoot(bytes32)": "7cb64759",
    "setMinDstGas(uint16,uint16,uint256)": "df2a5b3b",
    "setPayloadSizeLimit(uint16,uint256)": "0df37483",
    "setPrecrime(address)": "baf3292d",
    "setPrice(uint256)": "91b7f5ed",
    "setReceiveVersion(uint16)": "10ddb137",
    "setSendVersion(uint16)": "07e0db17",
    "setTax(uint256)": "2e5bb6ff",
    "setTaxRecipient(address)": "78e3079e",
    "setTrustedRemote(uint16,bytes)": "eb8d72b7",
    "setTrustedRemoteAddress(uint16,bytes)": "a6c3d165",
    "stableToken()": "a9d75b2b",
    "supportsInterface(bytes4)": "01ffc9a7",
    "tax()": "99c8d556",
    "totalSupply(uint256)": "bd85b039",
    "transferOwnership(address)": "f2fde38b",
    "trustedRemoteLookup(uint16)": "7533d788",
    "uri(uint256)": "0e89341c",
    "withdraw()": "3ccfd60b"
  },
  "id": 96
}