{
  "abi": [
    {
      "inputs": [
        {
          "internalType": "address",
          "name": "_layerZeroEndpoint",
          "type": "address"
        },
        {
          "internalType": "string",
          "name": "_baseTokenURI",
          "type": "string"
        },
        {
          "internalType": "string",
          "name": "_hiddenURI",
          "type": "string"
        },
        {
          "internalType": "uint256",
          "name": "_tax",
          "type": "uint256"
        },
        {
          "internalType": "address",
          "name": "_taxRecipient",
          "type": "address"
        },
        {
          "internalType": "address",
          "name": "_stableToken",
          "type": "address"
        },
        {
          "internalType": "uint256",
          "name": "_maxTokensPerMint",
          "type": "uint256"
        },
        {
          "internalType": "uint256",
          "name": "_ableToMint",
          "type": "uint256"
        },
        {
          "internalType": "uint256",
          "name": "_maxTokenPerID",
          "type": "uint256"
        }
      ],
      "stateMutability": "nonpayable",
      "type": "constructor"
    },
    {
      "inputs": [
        {
          "internalType": "address",
          "name": "operator",
          "type": "address"
        }
      ],
      "name": "OperatorNotAllowed",
      "type": "error"
    },
    {
      "anonymous": false,
      "inputs": [
        {
          "indexed": true,
          "internalType": "address",
          "name": "account",
          "type": "address"
        },
        {
          "indexed": true,
          "internalType": "address",
          "name": "operator",
          "type": "address"
        },
        {
          "indexed": false,
          "internalType": "bool",
          "name": "approved",
          "type": "bool"
        }
      ],
      "name": "ApprovalForAll",
      "type": "event"
    },
    {
      "anonymous": false,
      "inputs": [
        {
          "indexed": false,
          "internalType": "uint16",
          "name": "_srcChainId",
          "type": "uint16"
        },
        {
          "indexed": false,
          "internalType": "bytes",
          "name": "_srcAddress",
          "type": "bytes"
        },
        {
          "indexed": false,
          "internalType": "uint64",
          "name": "_nonce",
          "type": "uint64"
        },
        {
          "indexed": false,
          "internalType": "bytes",
          "name": "_payload",
          "type": "bytes"
        },
        {
          "indexed": false,
          "internalType": "bytes",
          "name": "_reason",
          "type": "bytes"
        }
      ],
      "name": "MessageFailed",
      "type": "event"
    },
    {
      "anonymous": false,
      "inputs": [
        {
          "indexed": true,
          "internalType": "address",
          "name": "previousOwner",
          "type": "address"
        },
        {
          "indexed": true,
          "internalType": "address",
          "name": "newOwner",
          "type": "address"
        }
      ],
      "name": "OwnershipTransferred",
      "type": "event"
    },
    {
      "anonymous": false,
      "inputs": [
        {
          "indexed": true,
          "internalType": "uint16",
          "name": "_srcChainId",
          "type": "uint16"
        },
        {
          "indexed": true,
          "internalType": "bytes",
          "name": "_srcAddress",
          "type": "bytes"
        },
        {
          "indexed": true,
          "internalType": "address",
          "name": "_toAddress",
          "type": "address"
        },
        {
          "indexed": false,
          "internalType": "uint256[]",
          "name": "_tokenIds",
          "type": "uint256[]"
        },
        {
          "indexed": false,
          "internalType": "uint256[]",
          "name": "_amounts",
          "type": "uint256[]"
        },
        {
          "indexed": false,
          "internalType": "uint64",
          "name": "_nonce",
          "type": "uint64"
        }
      ],
      "name": "ReceiveBatchFromChain",
      "type": "event"
    },
    {
      "anonymous": false,
      "inputs": [
        {
          "indexed": true,
          "internalType": "uint16",
          "name": "_srcChainId",
          "type": "uint16"
        },
        {
          "indexed": true,
          "internalType": "bytes",
          "name": "_srcAddress",
          "type": "bytes"
        },
        {
          "indexed": true,
          "internalType": "address",
          "name": "_toAddress",
          "type": "address"
        },
        {
          "indexed": false,
          "internalType": "uint256",
          "name": "_tokenId",
          "type": "uint256"
        },
        {
          "indexed": false,
          "internalType": "uint256",
          "name": "_amount",
          "type": "uint256"
        },
        {
          "indexed": false,
          "internalType": "uint64",
          "name": "_nonce",
          "type": "uint64"
        }
      ],
      "name": "ReceiveFromChain",
      "type": "event"
    },
    {
      "anonymous": false,
      "inputs": [
        {
          "indexed": false,
          "internalType": "uint16",
          "name": "_srcChainId",
          "type": "uint16"
        },
        {
          "indexed": false,
          "internalType": "bytes",
          "name": "_srcAddress",
          "type": "bytes"
        },
        {
          "indexed": false,
          "internalType": "uint64",
          "name": "_nonce",
          "type": "uint64"
        },
        {
          "indexed": false,
          "internalType": "bytes32",
          "name": "_payloadHash",
          "type": "bytes32"
        }
      ],
      "name": "RetryMessageSuccess",
      "type": "event"
    },
    {
      "anonymous": false,
      "inputs": [
        {
          "indexed": true,
          "internalType": "address",
          "name": "_sender",
          "type": "address"
        },
        {
          "indexed": true,
          "internalType": "uint16",
          "name": "_dstChainId",
          "type": "uint16"
        },
        {
          "indexed": true,
          "internalType": "bytes",
          "name": "_toAddress",
          "type": "bytes"
        },
        {
          "indexed": false,
          "internalType": "uint256[]",
          "name": "_tokenIds",
          "type": "uint256[]"
        },
        {
          "indexed": false,
          "internalType": "uint256[]",
          "name": "_amounts",
          "type": "uint256[]"
        },
        {
          "indexed": false,
          "internalType": "uint64",
          "name": "_nonce",
          "type": "uint64"
        }
      ],
      "name": "SendBatchToChain",
      "type": "event"
    },
    {
      "anonymous": false,
      "inputs": [
        {
          "indexed": true,
          "internalType": "address",
          "name": "_sender",
          "type": "address"
        },
        {
          "indexed": true,
          "internalType": "uint16",
          "name": "_dstChainId",
          "type": "uint16"
        },
        {
          "indexed": true,
          "internalType": "bytes",
          "name": "_toAddress",
          "type": "bytes"
        },
        {
          "indexed": false,
          "internalType": "uint256",
          "name": "_tokenId",
          "type": "uint256"
        },
        {
          "indexed": false,
          "internalType": "uint256",
          "name": "_amount",
          "type": "uint256"
        },
        {
          "indexed": false,
          "internalType": "uint64",
          "name": "_nonce",
          "type": "uint64"
        }
      ],
      "name": "SendToChain",
      "type": "event"
    },
    {
      "anonymous": false,
      "inputs": [
        {
          "indexed": false,
          "internalType": "uint16",
          "name": "_dstChainId",
          "type": "uint16"
        },
        {
          "indexed": false,
          "internalType": "uint16",
          "name": "_type",
          "type": "uint16"
        },
        {
          "indexed": false,
          "internalType": "uint256",
          "name": "_minDstGas",
          "type": "uint256"
        }
      ],
      "name": "SetMinDstGas",
      "type": "event"
    },
    {
      "anonymous": false,
      "inputs": [
        {
          "indexed": false,
          "internalType": "address",
          "name": "precrime",
          "type": "address"
        }
      ],
      "name": "SetPrecrime",
      "type": "event"
    },
    {
      "anonymous": false,
      "inputs": [
        {
          "indexed": false,
          "internalType": "uint16",
          "name": "_remoteChainId",
          "type": "uint16"
        },
        {
          "indexed": false,
          "internalType": "bytes",
          "name": "_path",
          "type": "bytes"
        }
      ],
      "name": "SetTrustedRemote",
      "type": "event"
    },
    {
      "anonymous": false,
      "inputs": [
        {
          "indexed": false,
          "internalType": "uint16",
          "name": "_remoteChainId",
          "type": "uint16"
        },
        {
          "indexed": false,
          "internalType": "bytes",
          "name": "_remoteAddress",
          "type": "bytes"
        }
      ],
      "name": "SetTrustedRemoteAddress",
      "type": "event"
    },
    {
      "anonymous": false,
      "inputs": [
        {
          "indexed": true,
          "internalType": "address",
          "name": "operator",
          "type": "address"
        },
        {
          "indexed": true,
          "internalType": "address",
          "name": "from",
          "type": "address"
        },
        {
          "indexed": true,
          "internalType": "address",
          "name": "to",
          "type": "address"
        },
        {
          "indexed": false,
          "internalType": "uint256[]",
          "name": "ids",
          "type": "uint256[]"
        },
        {
          "indexed": false,
          "internalType": "uint256[]",
          "name": "values",
          "type": "uint256[]"
        }
      ],
      "name": "TransferBatch",
      "type": "event"
    },
    {
      "anonymous": false,
      "inputs": [
        {
          "indexed": true,
          "internalType": "address",
          "name": "operator",
          "type": "address"
        },
        {
          "indexed": true,
          "internalType": "address",
          "name": "from",
          "type": "address"
        },
        {
          "indexed": true,
          "internalType": "address",
          "name": "to",
          "type": "address"
        },
        {
          "indexed": false,
          "internalType": "uint256",
          "name": "id",
          "type": "uint256"
        },
        {
          "indexed": false,
          "internalType": "uint256",
          "name": "value",
          "type": "uint256"
        }
      ],
      "name": "TransferSingle",
      "type": "event"
    },
    {
      "anonymous": false,
      "inputs": [
        {
          "indexed": false,
          "internalType": "string",
          "name": "value",
          "type": "string"
        },
        {
          "indexed": true,
          "internalType": "uint256",
          "name": "id",
          "type": "uint256"
        }
      ],
      "name": "URI",
      "type": "event"
    },
    {
      "inputs": [],
      "name": "DEFAULT_PAYLOAD_SIZE_LIMIT",
      "outputs": [
        {
          "internalType": "uint256",
          "name": "",
          "type": "uint256"
        }
      ],
      "stateMutability": "view",
      "type": "function"
    },
    {
      "inputs": [],
      "name": "OPERATOR_FILTER_REGISTRY",
      "outputs": [
        {
          "internalType": "contract IOperatorFilterRegistry",
          "name": "",
          "type": "address"
        }
      ],
      "stateMutability": "view",
      "type": "function"
    },
    {
      "inputs": [],
      "name": "_publicSaleStarted",
      "outputs": [
        {
          "internalType": "bool",
          "name": "",
          "type": "bool"
        }
      ],
      "stateMutability": "view",
      "type": "function"
    },
    {
      "inputs": [],
      "name": "_saleStarted",
      "outputs": [
        {
          "internalType": "bool",
          "name": "",
          "type": "bool"
        }
      ],
      "stateMutability": "view",
      "type": "function"
    },
    {
      "inputs": [],
      "name": "ableToMint",
      "outputs": [
        {
          "internalType": "uint256",
          "name": "",
          "type": "uint256"
        }
      ],
      "stateMutability": "view",
      "type": "function"
    },
    {
      "inputs": [
        {
          "internalType": "address",
          "name": "account",
          "type": "address"
        },
        {
          "internalType": "uint256",
          "name": "id",
          "type": "uint256"
        }
      ],
      "name": "balanceOf",
      "outputs": [
        {
          "internalType": "uint256",
          "name": "",
          "type": "uint256"
        }
      ],
      "stateMutability": "view",
      "type": "function"
    },
    {
      "inputs": [
        {
          "internalType": "address[]",
          "name": "accounts",
          "type": "address[]"
        },
        {
          "internalType": "uint256[]",
          "name": "ids",
          "type": "uint256[]"
        }
      ],
      "name": "balanceOfBatch",
      "outputs": [
        {
          "internalType": "uint256[]",
          "name": "",
          "type": "uint256[]"
        }
      ],
      "stateMutability": "view",
      "type": "function"
    },
    {
      "inputs": [],
      "name": "contractURI",
      "outputs": [
        {
          "internalType": "string",
          "name": "",
          "type": "string"
        }
      ],
      "stateMutability": "view",
      "type": "function"
    },
    {
      "inputs": [
        {
          "internalType": "uint16",
          "name": "_dstChainId",
          "type": "uint16"
        },
        {
          "internalType": "bytes",
          "name": "_toAddress",
          "type": "bytes"
        },
        {
          "internalType": "uint256[]",
          "name": "_tokenIds",
          "type": "uint256[]"
        },
        {
          "internalType": "uint256[]",
          "name": "_amounts",
          "type": "uint256[]"
        },
        {
          "internalType": "bool",
          "name": "_useZro",
          "type": "bool"
        },
        {
          "internalType": "bytes",
          "name": "_adapterParams",
          "type": "bytes"
        }
      ],
      "name": "estimateSendBatchFee",
      "outputs": [
        {
          "internalType": "uint256",
          "name": "nativeFee",
          "type": "uint256"
        },
        {
          "internalType": "uint256",
          "name": "zroFee",
          "type": "uint256"
        }
      ],
      "stateMutability": "view",
      "type": "function"
    },
    {
      "inputs": [
        {
          "internalType": "uint16",
          "name": "_dstChainId",
          "type": "uint16"
        },
        {
          "internalType": "bytes",
          "name": "_toAddress",
          "type": "bytes"
        },
        {
          "internalType": "uint256",
          "name": "_tokenId",
          "type": "uint256"
        },
        {
          "internalType": "uint256",
          "name": "_amount",
          "type": "uint256"
        },
        {
          "internalType": "bool",
          "name": "_useZro",
          "type": "bool"
        },
        {
          "internalType": "bytes",
          "name": "_adapterParams",
          "type": "bytes"
        }
      ],
      "name": "estimateSendFee",
      "outputs": [
        {
          "internalType": "uint256",
          "name": "nativeFee",
          "type": "uint256"
        },
        {
          "internalType": "uint256",
          "name": "zroFee",
          "type": "uint256"
        }
      ],
      "stateMutability": "view",
      "type": "function"
    },
    {
      "inputs": [
        {
          "internalType": "uint256",
          "name": "id",
          "type": "uint256"
        }
      ],
      "name": "exists",
      "outputs": [
        {
          "internalType": "bool",
          "name": "",
          "type": "bool"
        }
      ],
      "stateMutability": "view",
      "type": "function"
    },
    {
      "inputs": [
        {
          "internalType": "uint16",
          "name": "",
          "type": "uint16"
        },
        {
          "internalType": "bytes",
          "name": "",
          "type": "bytes"
        },
        {
          "internalType": "uint64",
          "name": "",
          "type": "uint64"
        }
      ],
      "name": "failedMessages",
      "outputs": [
        {
          "internalType": "bytes32",
          "name": "",
          "type": "bytes32"
        }
      ],
      "stateMutability": "view",
      "type": "function"
    },
    {
      "inputs": [],
      "name": "flipPublicSaleStarted",
      "outputs": [],
      "stateMutability": "nonpayable",
      "type": "function"
    },
    {
      "inputs": [],
      "name": "flipRevealed",
      "outputs": [],
      "stateMutability": "nonpayable",
      "type": "function"
    },
    {
      "inputs": [],
      "name": "flipSaleStarted",
      "outputs": [],
      "stateMutability": "nonpayable",
      "type": "function"
    },
    {
      "inputs": [
        {
          "internalType": "uint16",
          "name": "_srcChainId",
          "type": "uint16"
        },
        {
          "internalType": "bytes",
          "name": "_srcAddress",
          "type": "bytes"
        }
      ],
      "name": "forceResumeReceive",
      "outputs": [],
      "stateMutability": "nonpayable",
      "type": "function"
    },
    {
      "inputs": [
        {
          "internalType": "uint16",
          "name": "_version",
          "type": "uint16"
        },
        {
          "internalType": "uint16",
          "name": "_chainId",
          "type": "uint16"
        },
        {
          "internalType": "address",
          "name": "",
          "type": "address"
        },
        {
          "internalType": "uint256",
          "name": "_configType",
          "type": "uint256"
        }
      ],
      "name": "getConfig",
      "outputs": [
        {
          "internalType": "bytes",
          "name": "",
          "type": "bytes"
        }
      ],
      "stateMutability": "view",
      "type": "function"
    },
    {
      "inputs": [
        {
          "internalType": "uint16",
          "name": "_remoteChainId",
          "type": "uint16"
        }
      ],
      "name": "getTrustedRemoteAddress",
      "outputs": [
        {
          "internalType": "bytes",
          "name": "",
          "type": "bytes"
        }
      ],
      "stateMutability": "view",
      "type": "function"
    },
    {
      "inputs": [
        {
          "internalType": "address",
          "name": "account",
          "type": "address"
        },
        {
          "internalType": "address",
          "name": "operator",
          "type": "address"
        }
      ],
      "name": "isApprovedForAll",
      "outputs": [
        {
          "internalType": "bool",
          "name": "",
          "type": "bool"
        }
      ],
      "stateMutability": "view",
      "type": "function"
    },
    {
      "inputs": [
        {
          "internalType": "uint16",
          "name": "_srcChainId",
          "type": "uint16"
        },
        {
          "internalType": "bytes",
          "name": "_srcAddress",
          "type": "bytes"
        }
      ],
      "name": "isTrustedRemote",
      "outputs": [
        {
          "internalType": "bool",
          "name": "",
          "type": "bool"
        }
      ],
      "stateMutability": "view",
      "type": "function"
    },
    {
      "inputs": [],
      "name": "lzEndpoint",
      "outputs": [
        {
          "internalType": "contract ILayerZeroEndpoint",
          "name": "",
          "type": "address"
        }
      ],
      "stateMutability": "view",
      "type": "function"
    },
    {
      "inputs": [
        {
          "internalType": "uint16",
          "name": "_srcChainId",
          "type": "uint16"
        },
        {
          "internalType": "bytes",
          "name": "_srcAddress",
          "type": "bytes"
        },
        {
          "internalType": "uint64",
          "name": "_nonce",
          "type": "uint64"
        },
        {
          "internalType": "bytes",
          "name": "_payload",
          "type": "bytes"
        }
      ],
      "name": "lzReceive",
      "outputs": [],
      "stateMutability": "nonpayable",
      "type": "function"
    },
    {
      "inputs": [],
      "name": "maxTokenPerID",
      "outputs": [
        {
          "internalType": "uint256",
          "name": "",
          "type": "uint256"
        }
      ],
      "stateMutability": "view",
      "type": "function"
    },
    {
      "inputs": [],
      "name": "maxTokensPerMint",
      "outputs": [
        {
          "internalType": "uint256",
          "name": "",
          "type": "uint256"
        }
      ],
      "stateMutability": "view",
      "type": "function"
    },
    {
      "inputs": [],
      "name": "merkleRoot",
      "outputs": [
        {
          "internalType": "bytes32",
          "name": "",
          "type": "bytes32"
        }
      ],
      "stateMutability": "view",
      "type": "function"
    },
    {
      "inputs": [
        {
          "internalType": "uint16",
          "name": "",
          "type": "uint16"
        },
        {
          "internalType": "uint16",
          "name": "",
          "type": "uint16"
        }
      ],
      "name": "minDstGasLookup",
      "outputs": [
        {
          "internalType": "uint256",
          "name": "",
          "type": "uint256"
        }
      ],
      "stateMutability": "view",
      "type": "function"
    },
    {
      "inputs": [
        {
          "internalType": "uint256",
          "name": "_tokenId",
          "type": "uint256"
        },
        {
          "internalType": "uint256",
          "name": "_amount",
          "type": "uint256"
        },
        {
          "internalType": "bytes32[]",
          "name": "_merkleProof",
          "type": "bytes32[]"
        },
        {
          "internalType": "address",
          "name": "_minter",
          "type": "address"
        }
      ],
      "name": "mintGasless",
      "outputs": [],
      "stateMutability": "nonpayable",
      "type": "function"
    },
    {
      "inputs": [
        {
          "internalType": "uint16",
          "name": "_srcChainId",
          "type": "uint16"
        },
        {
          "internalType": "bytes",
          "name": "_srcAddress",
          "type": "bytes"
        },
        {
          "internalType": "uint64",
          "name": "_nonce",
          "type": "uint64"
        },
        {
          "internalType": "bytes",
          "name": "_payload",
          "type": "bytes"
        }
      ],
      "name": "nonblockingLzReceive",
      "outputs": [],
      "stateMutability": "nonpayable",
      "type": "function"
    },
    {
      "inputs": [],
      "name": "owner",
      "outputs": [
        {
          "internalType": "address",
          "name": "",
          "type": "address"
        }
      ],
      "stateMutability": "view",
      "type": "function"
    },
    {
      "inputs": [
        {
          "internalType": "uint16",
          "name": "",
          "type": "uint16"
        }
      ],
      "name": "payloadSizeLimitLookup",
      "outputs": [
        {
          "internalType": "uint256",
          "name": "",
          "type": "uint256"
        }
      ],
      "stateMutability": "view",
      "type": "function"
    },
    {
      "inputs": [],
      "name": "precrime",
      "outputs": [
        {
          "internalType": "address",
          "name": "",
          "type": "address"
        }
      ],
      "stateMutability": "view",
      "type": "function"
    },
    {
      "inputs": [],
      "name": "price",
      "outputs": [
        {
          "internalType": "uint256",
          "name": "",
          "type": "uint256"
        }
      ],
      "stateMutability": "view",
      "type": "function"
    },
    {
      "inputs": [
        {
          "internalType": "uint256",
          "name": "_tokenId",
          "type": "uint256"
        },
        {
          "internalType": "uint256",
          "name": "_amount",
          "type": "uint256"
        },
        {
          "internalType": "address",
          "name": "_minter",
          "type": "address"
        }
      ],
      "name": "publicMintGasless",
      "outputs": [],
      "stateMutability": "nonpayable",
      "type": "function"
    },
    {
      "inputs": [],
      "name": "renounceOwnership",
      "outputs": [],
      "stateMutability": "nonpayable",
      "type": "function"
    },
    {
      "inputs": [
        {
          "internalType": "uint16",
          "name": "_srcChainId",
          "type": "uint16"
        },
        {
          "internalType": "bytes",
          "name": "_srcAddress",
          "type": "bytes"
        },
        {
          "internalType": "uint64",
          "name": "_nonce",
          "type": "uint64"
        },
        {
          "internalType": "bytes",
          "name": "_payload",
          "type": "bytes"
        }
      ],
      "name": "retryMessage",
      "outputs": [],
      "stateMutability": "payable",
      "type": "function"
    },
    {
      "inputs": [
        {
          "internalType": "address",
          "name": "from",
          "type": "address"
        },
        {
          "internalType": "address",
          "name": "to",
          "type": "address"
        },
        {
          "internalType": "uint256[]",
          "name": "ids",
          "type": "uint256[]"
        },
        {
          "internalType": "uint256[]",
          "name": "amounts",
          "type": "uint256[]"
        },
        {
          "internalType": "bytes",
          "name": "data",
          "type": "bytes"
        }
      ],
      "name": "safeBatchTransferFrom",
      "outputs": [],
      "stateMutability": "nonpayable",
      "type": "function"
    },
    {
      "inputs": [
        {
          "internalType": "address",
          "name": "from",
          "type": "address"
        },
        {
          "internalType": "address",
          "name": "to",
          "type": "address"
        },
        {
          "internalType": "uint256",
          "name": "tokenId",
          "type": "uint256"
        },
        {
          "internalType": "uint256",
          "name": "amount",
          "type": "uint256"
        },
        {
          "internalType": "bytes",
          "name": "data",
          "type": "bytes"
        }
      ],
      "name": "safeTransferFrom",
      "outputs": [],
      "stateMutability": "nonpayable",
      "type": "function"
    },
    {
      "inputs": [
        {
          "internalType": "address",
          "name": "_from",
          "type": "address"
        },
        {
          "internalType": "uint16",
          "name": "_dstChainId",
          "type": "uint16"
        },
        {
          "internalType": "bytes",
          "name": "_toAddress",
          "type": "bytes"
        },
        {
          "internalType": "uint256[]",
          "name": "_tokenIds",
          "type": "uint256[]"
        },
        {
          "internalType": "uint256[]",
          "name": "_amounts",
          "type": "uint256[]"
        },
        {
          "internalType": "address payable",
          "name": "_refundAddress",
          "type": "address"
        },
        {
          "internalType": "address",
          "name": "_zroPaymentAddress",
          "type": "address"
        },
        {
          "internalType": "bytes",
          "name": "_adapterParams",
          "type": "bytes"
        }
      ],
      "name": "sendBatchFrom",
      "outputs": [],
      "stateMutability": "payable",
      "type": "function"
    },
    {
      "inputs": [
        {
          "internalType": "address",
          "name": "_from",
          "type": "address"
        },
        {
          "internalType": "uint16",
          "name": "_dstChainId",
          "type": "uint16"
        },
        {
          "internalType": "bytes",
          "name": "_toAddress",
          "type": "bytes"
        },
        {
          "internalType": "uint256",
          "name": "_tokenId",
          "type": "uint256"
        },
        {
          "internalType": "uint256",
          "name": "_amount",
          "type": "uint256"
        },
        {
          "internalType": "address payable",
          "name": "_refundAddress",
          "type": "address"
        },
        {
          "internalType": "address",
          "name": "_zroPaymentAddress",
          "type": "address"
        },
        {
          "internalType": "bytes",
          "name": "_adapterParams",
          "type": "bytes"
        }
      ],
      "name": "sendFrom",
      "outputs": [],
      "stateMutability": "payable",
      "type": "function"
    },
    {
      "inputs": [
        {
          "internalType": "address",
          "name": "operator",
          "type": "address"
        },
        {
          "internalType": "bool",
          "name": "approved",
          "type": "bool"
        }
      ],
      "name": "setApprovalForAll",
      "outputs": [],
      "stateMutability": "nonpayable",
      "type": "function"
    },
    {
      "inputs": [
        {
          "internalType": "string",
          "name": "baseUri",
          "type": "string"
        }
      ],
      "name": "setBaseURI",
      "outputs": [],
      "stateMutability": "nonpayable",
      "type": "function"
    },
    {
      "inputs": [
        {
          "internalType": "address payable",
          "name": "_beneficiary",
          "type": "address"
        }
      ],
      "name": "setBeneficiary",
      "outputs": [],
      "stateMutability": "nonpayable",
      "type": "function"
    },
    {
      "inputs": [
        {
          "internalType": "uint16",
          "name": "_version",
          "type": "uint16"
        },
        {
          "internalType": "uint16",
          "name": "_chainId",
          "type": "uint16"
        },
        {
          "internalType": "uint256",
          "name": "_configType",
          "type": "uint256"
        },
        {
          "internalType": "bytes",
          "name": "_config",
          "type": "bytes"
        }
      ],
      "name": "setConfig",
      "outputs": [],
      "stateMutability": "nonpayable",
      "type": "function"
    },
    {
      "inputs": [
        {
          "internalType": "string",
          "name": "_contractURI",
          "type": "string"
        }
      ],
      "name": "setContractURI",
      "outputs": [],
      "stateMutability": "nonpayable",
      "type": "function"
    },
    {
      "inputs": [
        {
          "internalType": "string",
          "name": "_hiddenMetadataUri",
          "type": "string"
        }
      ],
      "name": "setHiddenMetadataUri",
      "outputs": [],
      "stateMutability": "nonpayable",
      "type": "function"
    },
    {
      "inputs": [
        {
          "internalType": "bytes32",
          "name": "_merkleRoot",
          "type": "bytes32"
        }
      ],
      "name": "setMerkleRoot",
      "outputs": [],
      "stateMutability": "nonpayable",
      "type": "function"
    },
    {
      "inputs": [
        {
          "internalType": "uint16",
          "name": "_dstChainId",
          "type": "uint16"
        },
        {
          "internalType": "uint16",
          "name": "_packetType",
          "type": "uint16"
        },
        {
          "internalType": "uint256",
          "name": "_minGas",
          "type": "uint256"
        }
      ],
      "name": "setMinDstGas",
      "outputs": [],
      "stateMutability": "nonpayable",
      "type": "function"
    },
    {
      "inputs": [
        {
          "internalType": "uint16",
          "name": "_dstChainId",
          "type": "uint16"
        },
        {
          "internalType": "uint256",
          "name": "_size",
          "type": "uint256"
        }
      ],
      "name": "setPayloadSizeLimit",
      "outputs": [],
      "stateMutability": "nonpayable",
      "type": "function"
    },
    {
      "inputs": [
        {
          "internalType": "address",
          "name": "_precrime",
          "type": "address"
        }
      ],
      "name": "setPrecrime",
      "outputs": [],
      "stateMutability": "nonpayable",
      "type": "function"
    },
    {
      "inputs": [
        {
          "internalType": "uint256",
          "name": "newPrice",
          "type": "uint256"
        }
      ],
      "name": "setPrice",
      "outputs": [],
      "stateMutability": "nonpayable",
      "type": "function"
    },
    {
      "inputs": [
        {
          "internalType": "uint16",
          "name": "_version",
          "type": "uint16"
        }
      ],
      "name": "setReceiveVersion",
      "outputs": [],
      "stateMutability": "nonpayable",
      "type": "function"
    },
    {
      "inputs": [
        {
          "internalType": "uint16",
          "name": "_version",
          "type": "uint16"
        }
      ],
      "name": "setSendVersion",
      "outputs": [],
      "stateMutability": "nonpayable",
      "type": "function"
    },
    {
      "inputs": [
        {
          "internalType": "uint256",
          "name": "_tax",
          "type": "uint256"
        }
      ],
      "name": "setTax",
      "outputs": [],
      "stateMutability": "nonpayable",
      "type": "function"
    },
    {
      "inputs": [
        {
          "internalType": "address payable",
          "name": "_taxRecipient",
          "type": "address"
        }
      ],
      "name": "setTaxRecipient",
      "outputs": [],
      "stateMutability": "nonpayable",
      "type": "function"
    },
    {
      "inputs": [
        {
          "internalType": "uint16",
          "name": "_srcChainId",
          "type": "uint16"
        },
        {
          "internalType": "bytes",
          "name": "_path",
          "type": "bytes"
        }
      ],
      "name": "setTrustedRemote",
      "outputs": [],
      "stateMutability": "nonpayable",
      "type": "function"
    },
    {
      "inputs": [
        {
          "internalType": "uint16",
          "name": "_remoteChainId",
          "type": "uint16"
        },
        {
          "internalType": "bytes",
          "name": "_remoteAddress",
          "type": "bytes"
        }
      ],
      "name": "setTrustedRemoteAddress",
      "outputs": [],
      "stateMutability": "nonpayable",
      "type": "function"
    },
    {
      "inputs": [],
      "name": "stableToken",
      "outputs": [
        {
          "internalType": "contract IERC20",
          "name": "",
          "type": "address"
        }
      ],
      "stateMutability": "view",
      "type": "function"
    },
    {
      "inputs": [
        {
          "internalType": "bytes4",
          "name": "interfaceId",
          "type": "bytes4"
        }
      ],
      "name": "supportsInterface",
      "outputs": [
        {
          "internalType": "bool",
          "name": "",
          "type": "bool"
        }
      ],
      "stateMutability": "view",
      "type": "function"
    },
    {
      "inputs": [],
      "name": "tax",
      "outputs": [
        {
          "internalType": "uint256",
          "name": "",
          "type": "uint256"
        }
      ],
      "stateMutability": "view",
      "type": "function"
    },
    {
      "inputs": [
        {
          "internalType": "uint256",
          "name": "id",
          "type": "uint256"
        }
      ],
      "name": "totalSupply",
      "outputs": [
        {
          "internalType": "uint256",
          "name": "",
          "type": "uint256"
        }
      ],
      "stateMutability": "view",
      "type": "function"
    },
    {
      "inputs": [
        {
          "internalType": "address",
          "name": "newOwner",
          "type": "address"
        }
      ],
      "name": "transferOwnership",
      "outputs": [],
      "stateMutability": "nonpayable",
      "type": "function"
    },
    {
      "inputs": [
        {
          "internalType": "uint16",
          "name": "",
          "type": "uint16"
        }
      ],
      "name": "trustedRemoteLookup",
      "outputs": [
        {
          "internalType": "bytes",
          "name": "",
          "type": "bytes"
        }
      ],
      "stateMutability": "view",
      "type": "function"
    },
    {
      "inputs": [
        {
          "internalType": "uint256",
          "name": "tokenId",
          "type": "uint256"
        }
      ],
      "name": "uri",
      "outputs": [
        {
          "internalType": "string",
          "name": "",
          "type": "string"
        }
      ],
      "stateMutability": "view",
      "type": "function"
    },
    {
      "inputs": [],
      "name": "withdraw",
      "outputs": [],
      "stateMutability": "nonpayable",
      "type": "function"
    }
  ],
  "bytecode": {
    "object": "0x60a060409080825234620004de57600062005df68038038091620000248286620004e3565b8439820161012083820312620003ed576200003f836200051d565b6020848101516001600160401b039290838111620004da57846200006591880162000532565b9387870151848111620004d657906200008091880162000532565b91606087015162000094608089016200051d565b91620000a360a08a016200051d565b9560c08a01519761010060e08c01519b01519980549760018060a01b031998338a821617835560018060a01b03988991823391167f8be0079c531659141344cd1fd0a4f28419497f9722a3daafe3b4186f6b6457e08680a3166080528251918483116200035a57600854926001948585811c95168015620004cb575b88861014620004b7578190601f9586811162000463575b508890868311600114620003fd578492620003f1575b5050600019600383901b1c191690851b176008555b6daaeb6d7670e522a718067333cd4e803b6200036e575b5083600a5580600c55338a600d541617600d5581519485116200035a576011548481811c911680156200034f575b878210146200033b57838111620002f2575b5085928511600114620002895793945084929190836200027d575b50501b916000199060031b1c1916176011555b600b55600e80549093169116179055601280546301000000600160b81b03191660189290921b6301000000600160b81b03169190911790556013556014556015555161584c9081620005aa82396080518181816105f90152818161095801528181610ae1015281816111450152818161227e0152818161241001528181612bb301528181612d0101528181612eb70152613eb30152f35b015192503880620001d3565b6011815285812093958591601f198316915b88838310620002d75750505010620002bd575b505050811b01601155620001e6565b015160001960f88460031b161c19169055388080620002ae565b8587015188559096019594850194879350908101906200029b565b601182528682208480880160051c82019289891062000331575b0160051c019085905b82811062000325575050620001b8565b83815501859062000315565b925081926200030c565b634e487b7160e01b82526022600452602482fd5b90607f1690620001a6565b634e487b7160e01b81526041600452602490fd5b803b15620003ed578f8291604483925180948193633e9f1edf60e11b8352306004840152733cc6cdda760b79bafa08df41ecfa224f810dceb660248401525af18015620003e057156200017857858111620003cc578f523862000178565b634e487b7160e01b82526041600452602482fd5b50508e51903d90823e3d90fd5b5080fd5b0151905038806200014c565b600885528985208894509190601f198416865b8c8282106200044c575050841162000432575b505050811b0160085562000161565b015160001960f88460031b161c1916905538808062000423565b8385015186558b9790950194938401930162000410565b909150600884528884208680850160051c8201928b8610620004ad575b918991869594930160051c01915b8281106200049e57505062000136565b8681558594508991016200048e565b9250819262000480565b634e487b7160e01b83526022600452602483fd5b94607f16946200011f565b8680fd5b8580fd5b600080fd5b601f909101601f19168101906001600160401b038211908210176200050757604052565b634e487b7160e01b600052604160045260246000fd5b51906001600160a01b0382168203620004de57565b919080601f84011215620004de578251906001600160401b0382116200050757604051916020916200056e601f8301601f1916840185620004e3565b818452828287010111620004de5760005b8181106200059557508260009394955001015290565b85810183015184820184015282016200057f56fe60806040526004361015610013575b600080fd5b60003560e01c80621d356714610511578062fdd58e1461050857806301ffc9a7146104ff57806307ce5b7d146104f657806307e0db17146104ed5780630df37483146104e45780630e89341c146104db57806310ddb137146104d25780631291e33e146104c957806317465471146104c05780631c31f710146104b75780632e5bb6ff146104ae5780632eb2c2d6146104a55780632eb4a7ab1461049c5780633b2c3fb6146104935780633ccfd60b1461048a5780633d8b38f6146104815780633f1f4fa41461047857806341f434341461046f57806342d65a8d146104665780634ab4e6871461045d5780634db8226a146104545780634e1273f41461044b5780634f558e79146104425780634fdd43cb1461043957806355f804b31461043057806356c0c926146104275780635b8c41e61461041e578063600e97f61461041557806366ad5c8a1461040c578063715018a6146104035780637533d788146103fa57806378e3079e146103f15780637cb64759146103e85780638608e5f8146103df57806387c348bf146103d6578063899d7b38146103cd5780638cfd8f5c146103c45780638da5cb5b146103bb57806391b7f5ed146103b2578063938e3d7b146103a9578063950c8a74146103a057806399c8d556146103975780639f38369a1461038e578063a035b1fe14610385578063a22cb4651461037c578063a6c3d16514610373578063a9d75b2b1461036a578063b253566314610361578063b353aaa714610358578063b37ea7da1461034f578063baf3292d14610346578063bd85b0391461033d578063bde4cbe514610334578063c44618341461032b578063cbed8b9c14610322578063d1deba1f14610319578063df2a5b3b14610310578063e8a3d48514610307578063e985e9c5146102fe578063eb8d72b7146102f5578063f242432a146102ec578063f2fde38b146102e35763f5ecbdbc146102db57600080fd5b61000e612b4d565b5061000e612ab2565b5061000e6129aa565b5061000e612845565b5061000e6127dc565b5061000e612709565b5061000e612616565b5061000e6124b2565b5061000e6123af565b5061000e612391565b5061000e612372565b5061000e612345565b5061000e6122cc565b5061000e6122ad565b5061000e612267565b5061000e6121d1565b5061000e6121a3565b5061000e612005565b5061000e611ef4565b5061000e611ed5565b5061000e611e29565b5061000e611e0a565b5061000e611de0565b5061000e611cc5565b5061000e611c96565b5061000e611c6c565b5061000e611c18565b5061000e611bd2565b5061000e611bab565b5061000e611b17565b5061000e611ad1565b5061000e611a80565b5061000e611a40565b5061000e611851565b5061000e6117ca565b5061000e6117a6565b5061000e6116ff565b5061000e611683565b5061000e611568565b5061000e61144d565b5061000e6113e3565b5061000e611327565b5061000e611249565b5061000e6111a5565b5061000e611118565b5061000e6110ee565b5061000e6110b8565b5061000e61105b565b5061000e610f77565b5061000e610f2f565b5061000e610f10565b5061000e610dd5565b5061000e610bfd565b5061000e610bac565b5061000e610b80565b5061000e610b43565b5061000e610aad565b5061000e610a75565b5061000e6109d0565b5061000e610924565b5061000e610814565b5061000e610778565b5061000e610732565b5061000e6105e1565b6004359061ffff8216820361000e57565b6024359061ffff8216820361000e57565b9181601f8401121561000e578235916001600160401b03831161000e576020838186019501011161000e57565b6001600160401b0381160361000e57565b90608060031983011261000e5760043561ffff8116810361000e57916001600160401b039060243582811161000e57816105b69160040161053c565b939093926044356105c681610569565b9260643591821161000e576105dd9160040161053c565b9091565b503461000e576105f03661057a565b929493919291907f00000000000000000000000000000000000000000000000000000000000000006001600160a01b031633036106b35761067661067e926106849761066f6106556106508a61ffff166000526001602052604060002090565b611a25565b80519081841491826106a9575b5081610686575b50613dbc565b3691610d83565b923691610d83565b926140a2565b005b9050610693368486610d83565b6020815191012090602081519101201438610669565b1515915038610662565b60405162461bcd60e51b815260206004820152601e60248201527f4c7a4170703a20696e76616c696420656e64706f696e742063616c6c657200006044820152606490fd5b6001600160a01b0381160361000e57565b60043590610716826106f8565b565b60c43590610716826106f8565b60643590610716826106f8565b503461000e57604036600319011261000e57602061075e600435610755816106f8565b60243590614782565b604051908152f35b6001600160e01b031981160361000e57565b503461000e57602036600319011261000e57602060043561079881610766565b6001600160e01b03191680159081156107b7575b506040519015158152f35b636cdb3d1360e11b811491508115610803575b81156107d8575b50386107ac565b6319abbbbb60e11b8114915081156107f2575b50386107d1565b6301ffc9a760e01b149050386107eb565b6303a24d0760e21b811491506107ca565b503461000e57606036600319011261000e5761068460443560243560043561083b836106f8565b61085a73abcc9b596420a9e9172fd5938620e265a0f9df923314613280565b610867601554821461350e565b6108756013548311156138b5565b6108a061089683610890846000526009602052604060002090565b5461362d565b601454101561363a565b6108ab81151561369c565b6108b8600c5415156136fa565b6012546108e6906001600160a01b03906108de9060181c82165b6001600160a01b031690565b161515613764565b6108ee613c64565b6012546109169060181c6001600160a01b031661090d84600c54613871565b908530916153e6565b61091e613884565b92614d04565b503461000e57600060203660031901126109cd5761094061051a565b8160018060a01b03610956818354163314613235565b7f00000000000000000000000000000000000000000000000000000000000000001691823b156109c957602461ffff918360405195869485936307e0db1760e01b85521660048401525af180156109bc575b6109b0575080f35b6109b990610c43565b80f35b6109c4612c75565b6109a8565b5080fd5b80fd5b503461000e57604036600319011261000e5761ffff6109ed61051a565b610a0260018060a01b03600054163314613235565b166000526003602052602435604060002055600080f35b60005b838110610a2c5750506000910152565b8181015183820152602001610a1c565b90602091610a5581518092818552858086019101610a19565b601f01601f1916010190565b906020610a72928181520190610a3c565b90565b503461000e57602036600319011261000e57610aa9610a95600435613b51565b604051918291602083526020830190610a3c565b0390f35b503461000e57600060203660031901126109cd57610ac961051a565b8160018060a01b03610adf818354163314613235565b7f00000000000000000000000000000000000000000000000000000000000000001691823b156109c957602461ffff918360405195869485936310ddb13760e01b85521660048401525af180156109bc576109b0575080f35b600091031261000e57565b503461000e576000806003193601126109cd57610b6a60018060a01b038254163314613235565b60125460ff80821615169060ff19161760125580f35b503461000e57600036600319011261000e576020601354604051908152f35b60a43590610716826106f8565b503461000e57602036600319011261000e57600435610bca816106f8565b6000546001600160a01b039190610be49083163314613235565b166001600160601b0360a01b600d541617600d55600080f35b503461000e57602036600319011261000e57610c2460018060a01b03600054163314613235565b600435600b55005b50634e487b7160e01b600052604160045260246000fd5b6001600160401b038111610c5657604052565b610c5e610c2c565b604052565b604081019081106001600160401b03821117610c5657604052565b608081019081106001600160401b03821117610c5657604052565b602081019081106001600160401b03821117610c5657604052565b90601f801991011681019081106001600160401b03821117610c5657604052565b6020906001600160401b038111610cee575b60051b0190565b610cf6610c2c565b610ce7565b81601f8201121561000e57803591610d1283610cd5565b92610d206040519485610cb4565b808452602092838086019260051b82010192831161000e578301905b828210610d4a575050505090565b81358152908301908301610d3c565b6020906001600160401b038111610d76575b601f01601f19160190565b610d7e610c2c565b610d6b565b929192610d8f82610d59565b91610d9d6040519384610cb4565b82948184528183011161000e578281602093846000960137010152565b9080601f8301121561000e57816020610a7293359101610d83565b503461000e5760a036600319011261000e57600435610df3816106f8565b602435610dff816106f8565b6001600160401b0360443581811161000e57610e1f903690600401610cfb565b60643582811161000e57610e37903690600401610cfb565b9160843590811161000e57610e50903690600401610dba565b926001600160a01b0385163381148015919082610f02575b91610edd575b5015610e7d5761068494614ba8565b60405162461bcd60e51b815260206004820152603260248201527f455243313135353a207472616e736665722063616c6c6572206973206e6f74206044820152711bdddb995c881b9bdc88185c1c1c9bdd995960721b6064820152608490fd5b6000908152600760209081526040808320338452909152902060ff9150541638610e6e565b610f0b33615757565b610e68565b503461000e57600036600319011261000e576020600f54604051908152f35b503461000e576000806003193601126109cd57610f5660018060a01b038254163314613235565b60125462ff000060ff8260101c161560101b169062ff000019161760125580f35b503461000e576000806003193601126109cd57600d54336001600160a01b0391821614908115611014575b5015610fb0576109b961394a565b60405162461bcd60e51b815260206004820152603660248201527f416476616e6365644f4e4654313135354761736c6573733a2063616c6c6572206044820152756973206e6f74207468652062656e656669636961727960501b6064820152608490fd5b9050815416331438610fa2565b90604060031983011261000e5760043561ffff8116810361000e5791602435906001600160401b03821161000e576105dd9160040161053c565b503461000e57602061ffff6110a961107236611021565b939091166000526001845261109461109b60406000206040519283809261198f565b0382610cb4565b848151910120923691610d83565b82815191012014604051908152f35b503461000e57602036600319011261000e5761ffff6110d561051a565b1660005260036020526020604060002054604051908152f35b503461000e57600036600319011261000e5760206040516daaeb6d7670e522a718067333cd4e8152f35b503461000e5761112736611021565b9190600092839160018060a01b03611143818554163314613235565b7f00000000000000000000000000000000000000000000000000000000000000001690813b156111a1578361118f95604051968795869485936342d65a8d60e01b855260048501614087565b03925af180156109bc576109b0575080f35b8380fd5b5061010036600319011261000e576111bb610709565b6111c361052b565b6001600160401b03919060443583811161000e576111e5903690600401610dba565b60643584811161000e576111fd903690600401610cfb565b60843585811161000e57611215903690600401610cfb565b9061121e610b9f565b92611227610718565b9460e43597881161000e57611243610684983690600401610dba565b96612d79565b5061010036600319011261000e57600435611263816106f8565b61126b61052b565b6001600160401b03919060443583811161000e5761128d903690600401610dba565b9060a43561129a816106f8565b60c435916112a7836106f8565b60e43595861161000e576112c2610684963690600401610dba565b936112ce606435613204565b906112da608435613204565b923497612e47565b90815180825260208080930193019160005b828110611302575050505090565b8351855293810193928101926001016112f4565b906020610a729281815201906112e2565b503461000e57604036600319011261000e576004356001600160401b0380821161000e573660238301121561000e57816004013561136481610cd5565b926113726040519485610cb4565b81845260209160248386019160051b8301019136831161000e57602401905b8282106113ca578560243586811161000e57610aa9916113b86113be923690600401610cfb565b9061482e565b60405191829182611316565b83809183356113d8816106f8565b815201910190611391565b503461000e57602036600319011261000e57600435600052600960205260206040600020541515604051908152f35b602060031982011261000e57600435906001600160401b03821161000e578060238301121561000e57816024610a7293600401359101610d83565b503461000e5761145c36611412565b600061147260018060a01b038254163314613235565b81516001600160401b03811161155b575b611497816114926011546118b1565b613a0a565b602080601f83116001146114d3575082938293926114c8575b50508160011b916000199060031b1c19161760115580f35b0151905038806114b0565b90601f1983169461150660116000527f31ecc21a745e3968a04e9570e4425bc18fa8019c68028196b546d1669c200c6890565b9285905b87821061154357505083600195961061152a575b505050811b0160115580f35b015160001960f88460031b161c1916905538808061151e565b8060018596829496860151815501950193019061150a565b611563610c2c565b611483565b503461000e5761157736611412565b600061158d60018060a01b038254163314613235565b81516001600160401b038111611676575b6115b2816115ad6008546118b1565b613a6b565b602080601f83116001146115ee575082938293926115e3575b50508160011b916000199060031b1c19161760085580f35b0151905038806115cb565b90601f1983169461162160086000527ff3f7a9fe364faab93b216da50a3214154f22a0a2b415b23a84c8169e8b636ee390565b9285905b87821061165e575050836001959610611645575b505050811b0160085580f35b015160001960f88460031b161c19169055388080611639565b80600185968294968601518155019501930190611625565b61167e610c2c565b61159e565b503461000e57608036600319011261000e576001600160401b0360443581811161000e573660238201121561000e57806004013591821161000e573660248360051b8301011161000e576106849160246116db610725565b92016024356004356132be565b906116fb60209282815194859201610a19565b0190565b503461000e57606036600319011261000e5761171961051a565b6024356001600160401b03811161000e57610aa9916117746020611744611795943690600401610dba565b61ffff6044359461175486610569565b166000526005825260406000208260405194838680955193849201610a19565b820190815203019020906001600160401b0316600052602052604060002090565b546040519081529081906020820190565b503461000e57600036600319011261000e57602060ff601254166040519015158152f35b503461000e576117d93661057a565b91929493903033036117fd576106766117f792610684973691610d83565b926142c6565b60405162461bcd60e51b815260206004820152602660248201527f4e6f6e626c6f636b696e674c7a4170703a2063616c6c6572206d7573742062656044820152650204c7a4170760d41b6064820152608490fd5b503461000e576000806003193601126109cd57805481906001600160a01b0381169061187e338314613235565b6001600160a01b03191682557f8be0079c531659141344cd1fd0a4f28419497f9722a3daafe3b4186f6b6457e08280a380f35b90600182811c921680156118e1575b60208310146118cb57565b634e487b7160e01b600052602260045260246000fd5b91607f16916118c0565b600854600092916118fb826118b1565b80825291600190818116908115611972575060011461191957505050565b9192935060086000527ff3f7a9fe364faab93b216da50a3214154f22a0a2b415b23a84c8169e8b636ee3916000925b84841061195a57505060209250010190565b80546020858501810191909152909301928101611948565b915050602093945060ff929192191683830152151560051b010190565b90600092918054916119a0836118b1565b918282526001938481169081600014611a0257506001146119c2575b50505050565b90919394506000526020928360002092846000945b8386106119ee5750505050010190388080806119bc565b8054858701830152940193859082016119d7565b9294505050602093945060ff191683830152151560051b010190388080806119bc565b90610716611a39926040519384809261198f565b0383610cb4565b503461000e57602036600319011261000e5761ffff611a5d61051a565b166000526001602052610aa9611094610a9560406000206040519283809261198f565b503461000e57602036600319011261000e57600435611a9e816106f8565b6000546001600160a01b039190611ab89083163314613235565b166001600160601b0360a01b600e541617600e55600080f35b503461000e57602036600319011261000e57611af860018060a01b03600054163314613235565b600435600f55005b8015150361000e57565b6084359061071682611b00565b503461000e5760c036600319011261000e57611b3161051a565b6001600160401b039060243582811161000e57611b52903690600401610dba565b9060843590611b6082611b00565b60a43593841161000e57611b7b611b99943690600401610dba565b92611b87604435613204565b90611b93606435613204565b92612c82565b60408051928352602083019190915290f35b503461000e57600036600319011261000e57602060ff60125460081c166040519015158152f35b503461000e576000806003193601126109cd57611bf960018060a01b038254163314613235565b60125461ff0060ff8260081c161560081b169061ff0019161760125580f35b503461000e57604036600319011261000e576020611c63611c3761051a565b61ffff611c4261052b565b91166000526002835260406000209061ffff16600052602052604060002090565b54604051908152f35b503461000e57600036600319011261000e576000546040516001600160a01b039091168152602090f35b503461000e57602036600319011261000e57611cbd60018060a01b03600054163314613235565b600435600c55005b503461000e57611cd436611412565b6000611cea60018060a01b038254163314613235565b81516001600160401b038111611dd3575b611d0f81611d0a6010546118b1565b613ac1565b602080601f8311600114611d4b57508293829392611d40575b50508160011b916000199060031b1c19161760105580f35b015190503880611d28565b90601f19831694611d7e60106000527f1b6847dc741a1b0cd08d278845f9d819d87b734759afb55fe2de5cb82a9ae67290565b9285905b878210611dbb575050836001959610611da2575b505050811b0160105580f35b015160001960f88460031b161c19169055388080611d96565b80600185968294968601518155019501930190611d82565b611ddb610c2c565b611cfb565b503461000e57600036600319011261000e576004546040516001600160a01b039091168152602090f35b503461000e57600036600319011261000e576020600b54604051908152f35b503461000e57602036600319011261000e5761ffff611e4661051a565b166000526001602052611094611e6660406000206040519283809261198f565b805115611e9057611e8481611e7e610aa99351613927565b90614682565b60405191829182610a61565b60405162461bcd60e51b815260206004820152601d60248201527f4c7a4170703a206e6f20747275737465642070617468207265636f72640000006044820152606490fd5b503461000e57600036600319011261000e576020600c54604051908152f35b503461000e57604036600319011261000e57600435611f12816106f8565b602435611f1e81611b00565b611f2782615757565b6001600160a01b03821691338314611fae57336000908152600760205260409020611f7c918391611f6b91905b9060018060a01b0316600052602052604060002090565b9060ff801983541691151516179055565b604051901515815233907f17307eab39ab6107e8899845ad3d59bd9653f200f220920489ca2b5937696c3190602090a3005b60405162461bcd60e51b815260206004820152602960248201527f455243313135353a2073657474696e6720617070726f76616c20737461747573604482015268103337b91039b2b63360b91b6064820152608490fd5b503461000e5761201436611021565b919060009161202d60018060a01b038454163314613235565b6040519360208184828801376120586034878481013060601b85820152036014810189520187610cb4565b61ffff8316855260019081815260408620918751916001600160401b038311612196575b6120908361208a86546118b1565b86613b17565b80601f84116001146121005750918080926120ef9695948a9b7f8c0400cfe2d1199b1a725c78960bcc2a344d869b80590d0f2bd005db15a572ce9b946120f5575b50501b916000199060031b1c19161790555b60405193849384614087565b0390a180f35b0151925038806120d1565b91939498601f19841661211887600052602060002090565b938a905b82821061217f575050917f8c0400cfe2d1199b1a725c78960bcc2a344d869b80590d0f2bd005db15a572ce999a959391856120ef98969410612166575b505050811b0190556120e3565b015160001960f88460031b161c19169055388080612159565b80888697829497870151815501960194019061211c565b61219e610c2c565b61207c565b503461000e57600036600319011261000e5760125460405160189190911c6001600160a01b03168152602090f35b503461000e5760c036600319011261000e576121eb61051a565b6001600160401b039060243582811161000e5761220c903690600401610dba565b60443583811161000e57612224903690600401610cfb565b60643584811161000e5761223c903690600401610cfb565b90612245611b0a565b9260a43595861161000e57612261611b99963690600401610dba565b94612c82565b503461000e57600036600319011261000e576040517f00000000000000000000000000000000000000000000000000000000000000006001600160a01b03168152602090f35b503461000e57600036600319011261000e576020601454604051908152f35b503461000e57602036600319011261000e577f5db758e995a17ec1ad84bdef7e8c3293a0bd6179bcce400dff5d4c3d87db726b602060043561230d816106f8565b6000546001600160a01b0391906123279083163314613235565b16806001600160601b0360a01b6004541617600455604051908152a1005b503461000e57602036600319011261000e5760043560005260096020526020604060002054604051908152f35b503461000e57600036600319011261000e576020601554604051908152f35b503461000e57600036600319011261000e5760206040516127108152f35b503461000e57608036600319011261000e576123c961051a565b6123d161052b565b6064356001600160401b03811161000e576123f090369060040161053c565b60018060a09493941b03916000948361240e87958654163314613235565b7f00000000000000000000000000000000000000000000000000000000000000001691823b156124ae57849061247b604051978896879586946332fb62e760e21b865261ffff80921660048701521660248501526044356044850152608060648501526084840191614066565b03925af180156124a1575b61248e575080f35b8061249b6109b992610c43565b80610b38565b6124a9612c75565b612486565b8480fd5b506124bc3661057a565b9161ffff8694929616600052600560205261250381604060002060206040518092878b833787820190815203019020906001600160401b0316600052602052604060002090565b549182156125c5576125b484836125ad7fc264d91f3adc5588250e1551f547752ca0cfa8f6b530d243b9f9f4cab10ea8e59a6000612599846125818e8a8f6125c09f908f6125679061255a61257b9436908d610d83565b6020815191012014614578565b61ffff166000526005602052604060002090565b9161455f565b906001600160401b0316600052602052604060002090565b556125a536878d610d83565b933691610d83565b91886142c6565b604051958695866145ce565b0390a1005b60405162461bcd60e51b815260206004820152602360248201527f4e6f6e626c6f636b696e674c7a4170703a206e6f2073746f726564206d65737360448201526261676560e81b6064820152608490fd5b503461000e57606036600319011261000e5761263061051a565b61263861052b565b6044359161265160018060a01b03600054163314613235565b82156126cc576125c07f9d5c7c0b934da8fefa9c7760c98383778a12dfbfc0c3b3106518f43fb9508ac09361ffff83166000526002602052806126a68560406000209061ffff16600052602052604060002090565b556040519384938460409194939294606082019561ffff80921683521660208201520152565b60405162461bcd60e51b81526020600482015260156024820152744c7a4170703a20696e76616c6964206d696e47617360581b6044820152606490fd5b503461000e576000806003193601126109cd57604051908060105461272d816118b1565b808552916001918083169081156127b25750600114612757575b610aa985611e8481870382610cb4565b9250601083527f1b6847dc741a1b0cd08d278845f9d819d87b734759afb55fe2de5cb82a9ae6725b82841061279a575050508101602001611e8482610aa9612747565b8054602085870181019190915290930192810161277f565b869550610aa996935060209250611e8494915060ff191682840152151560051b8201019293612747565b503461000e57604036600319011261000e57602060ff612839600435612801816106f8565b6024359061280e826106f8565b60018060a01b03166000526007845260406000209060018060a01b0316600052602052604060002090565b54166040519015158152f35b503461000e5761285436611021565b919060009161286d60018060a01b038454163314613235565b61ffff81168352600160209080825260408520916001600160401b03871161299d575b6128a48761289e85546118b1565b85613b17565b8590601f881160011461290b57509186808798936120ef957ffa41487ad5d6728f0b19276fa1eddc16558578f5109fc39d2dc33c3230470dab9993612900575b501b906000198460031b1c191617905560405193849384614087565b8801359250386128e4565b90601f19881661292085600052602060002090565b9288905b828210612986575050918893917ffa41487ad5d6728f0b19276fa1eddc16558578f5109fc39d2dc33c3230470dab98996120ef96941061296c575b505082811b0190556120e3565b870135600019600386901b60f8161c19169055388061295f565b808685968294968c01358155019501930190612924565b6129a5610c2c565b612890565b503461000e5760a036600319011261000e576004356129c8816106f8565b6024356129d4816106f8565b6084356001600160401b03811161000e576129f3903690600401610dba565b906001600160a01b0383163381148015919082612aa4575b91612a7f575b5015612a28576106849260643591604435916149af565b60405162461bcd60e51b815260206004820152602960248201527f455243313135353a2063616c6c6572206973206e6f74206f776e6572206e6f7260448201526808185c1c1c9bdd995960ba1b6064820152608490fd5b6000908152600760209081526040808320338452909152902060ff9150541638612a11565b612aad33615757565b612a0b565b503461000e57602036600319011261000e57600435612ad0816106f8565b6000546001600160a01b0390612ae99082163314613235565b811615612af9576106849061473b565b60405162461bcd60e51b815260206004820152602660248201527f4f776e61626c653a206e6577206f776e657220697320746865207a65726f206160448201526564647265737360d01b6064820152608490fd5b503461000e57608036600319011261000e57610aa9612b6a61051a565b612b7261052b565b90612b7e6044356106f8565b604051633d7b2f6f60e21b815261ffff91821660048201529116602482015230604482015260648035908201526000816084817f00000000000000000000000000000000000000000000000000000000000000006001600160a01b03165afa908115612c1b575b600091612bfa575b5060405191829182610a61565b612c15913d8091833e612c0d8183610cb4565b810190614041565b38612bed565b612c23612c75565b612be5565b91612c5190612c43610a729593606086526060860190610a3c565b9084820360208601526112e2565b9160408184039101526112e2565b919082604091031261000e576020825192015190565b506040513d6000823e3d90fd5b91959493604094612cb3612cfd93612ca561ffff9789519b8c9360208501612c28565b03601f1981018a5289610cb4565b612ce48651988996879663040a7bb160e41b885216600487015230602487015260a0604487015260a4860190610a3c565b9115156064850152838203600319016084850152610a3c565b03817f00000000000000000000000000000000000000000000000000000000000000006001600160a01b03165afa918215612d6c575b6000908193612d4157509190565b90506105dd91925060403d8111612d65575b612d5d8183610cb4565b810190612c5f565b503d612d53565b612d74612c75565b612d33565b959391610716979593913497612e47565b9081602091031261000e5751610a7281610569565b612db790602060405192828480945193849201610a19565b810103902090565b91612df16001600160401b0391612de36040949796976060875260608701906112e2565b9085820360208701526112e2565b9416910152565b50634e487b7160e01b600052603260045260246000fd5b602090805115612e1d570190565b6116fb612df8565b6020918151811015612e3a575b60051b010190565b612e42612df8565b612e32565b9690939495612e899396989298612e5f87898b613015565b604051612e8381612e758a8c8f60208501612c28565b03601f198101835282610cb4565b86613e6f565b604051630f428ae960e31b815261ffff821660048201523060248201526001600160a01b03956020826044817f00000000000000000000000000000000000000000000000000000000000000008b165afa918215613008575b600092612fd8575b50845160018103612f70575061ffff9291612f6b91612f3e612f37612f307f65f8f231660ef9add3da95eb0bbdae4c246f6c10e274fae37b17190637080d4c9899612e0f565b5198612e0f565b5191612d9f565b9860405195869516981696849160409194936001600160401b039160608501968552602085015216910152565b0390a4565b6001909493929411612f86575b50505050505050565b7f2d31495ecbe799a81d5475c03585aa019860601fed836229d70e335b732eab3d9361ffff93612fb8612fc993612d9f565b986040519586951698169684612dbf565b0390a438808080808080612f7d565b612ffa91925060203d8111613001575b612ff28183610cb4565b810190612d8a565b9038612eea565b503d612fe8565b613010612c75565b612ee2565b6001600160a01b0381169390919033851480156131af575b15613152578415613101576130458251855114614b26565b61304d613884565b506130598483856152f2565b60005b82518110156130c857806130736130c39285612e25565b516130bd86611f54613085858b612e25565b5161309e83611f54876000526006602052604060002090565b546130ab82821015614e23565b03936000526006602052604060002090565b55614816565b61305c565b509391507f4a39dc06d4c0dbc64b70af90fd698a233a518aa5d07e595d983b8c0526c8f7fb612f6b600094604051918291339583614b83565b60405162461bcd60e51b815260206004820152602360248201527f455243313135353a206275726e2066726f6d20746865207a65726f206164647260448201526265737360e81b6064820152608490fd5b60405162461bcd60e51b815260206004820152602f60248201527f4f4e4654313135353a2073656e642063616c6c6572206973206e6f74206f776e60448201526e195c881b9bdc88185c1c1c9bdd9959608a1b6064820152608490fd5b50600085815260076020908152604080832033845290915290205460ff1661302d565b906131dc82610cd5565b6131e96040519182610cb4565b82815280926131fa601f1991610cd5565b0190602036910137565b6040519061321182610c63565b60018252602082016020368237825115613229575290565b613231612df8565b5290565b1561323c57565b606460405162461bcd60e51b815260206004820152602060248201527f4f776e61626c653a2063616c6c6572206973206e6f7420746865206f776e65726044820152fd5b1561328757565b60405162461bcd60e51b815260206004820152600f60248201526e6f6e6c7947656c61746f52656c617960881b6044820152606490fd5b909160016133da6133d561071697966108e6946132f073abcc9b596420a9e9172fd5938620e265a0f9df923314613280565b6133826012546133228760ff8360081c1615151461330d816133e0565b61331d8960ff8516151514613447565b6134ae565b61332f6015548a1461350e565b61333d6013548b1115613580565b6133586108968b6108908c6000526009602052604060002090565b61336389151561369c565b613370600c5415156136fa565b868060a01b039060181c161515613764565b600f546040513360601b6bffffffffffffffffffffffff191660208201908152603482018a9052605482018b905291926133d09290916133c58160748101612e75565b5190209336916137c1565b6156fc565b151590565b1461380f565b156133e757565b60405162461bcd60e51b815260206004820152603260248201527f416476616e6365644f4e4654313135354761736c6573733a2053616c6520686160448201527173206e6f742073746172746564207965742160701b6064820152608490fd5b1561344e57565b60405162461bcd60e51b815260206004820152603260248201527f416476616e6365644f4e4654313135353a205075626c69632073616c6520686160448201527173206e6f742073746172746564207965742160701b6064820152608490fd5b156134b557565b60405162461bcd60e51b815260206004820152602b60248201527f416476616e6365644f4e4654313135353a2053616c6520686173206e6f74207360448201526a746172746564207965742160a81b6064820152608490fd5b1561351557565b60405162461bcd60e51b815260206004820152603d60248201527f416476616e6365644f4e4654313135354761736c6573733a20747279696e672060448201527f746f206d696e742066726f6d20616e20696e76616c696420636861696e0000006064820152608490fd5b1561358757565b60405162461bcd60e51b815260206004820152603f60248201527f416476616e6365644f4e4654313135354761736c6573733a20747279696e672060448201527f746f206d696e7420746f6f206d616e7920746f6b656e73206174206f6e6365006064820152608490fd5b50634e487b7160e01b600052601160045260246000fd5b90601f820180921161361757565b6107166135f2565b603001908160301161361757565b9190820180921161361757565b1561364157565b60405162461bcd60e51b815260206004820152602d60248201527f416476616e6365644f4e4654313135354761736c6573733a20746f6b656e206c60448201526c1a5b5a5d08195e18d959591959609a1b6064820152608490fd5b156136a357565b60405162461bcd60e51b815260206004820152602960248201527f416476616e6365644f4e4654313135354761736c6573733a20496e76616c6964604482015268081d1bdad95b88125160ba1b6064820152608490fd5b1561370157565b60405162461bcd60e51b815260206004820152603560248201527f416476616e6365644f4e4654313135354761736c6573733a20796f75206e65656044820152746420746f2073657420737461626c6520707269636560581b6064820152608490fd5b1561376b57565b60405162461bcd60e51b815260206004820152602860248201527f4f4e46543732314761736c6573733a206e6f7420737570706f727420737461626044820152673632903a37b5b2b760c11b6064820152608490fd5b92916137cc82610cd5565b916137da6040519384610cb4565b829481845260208094019160051b810192831161000e57905b8282106138005750505050565b813581529083019083016137f3565b1561381657565b60405162461bcd60e51b815260206004820152602d60248201527f416476616e6365644f4e4654313135354761736c6573733a20496e76616c696460448201526c1026b2b935b63290283937b7b360991b6064820152608490fd5b8181029291811591840414171561361757565b60405190602082018281106001600160401b038211176138a8575b60405260008252565b6138b0610c2c565b61389f565b156138bc57565b60405162461bcd60e51b815260206004820152603760248201527f416476616e6365644f4e4654313135354761736c6573733a20747279696e672060448201527f746f206d696e7420746f6f206d616e7920746f6b656e730000000000000000006064820152608490fd5b60131981019190821161361757565b9190820391821161361757565b1561000e57565b600d546001600160a01b031680156139c95760008080806107169461399e82808080479561398f613988613980600b548a613871565b612710900490565b8098613936565b908282156139c0575bf1613943565b600e546139b3906001600160a01b03166108d2565b8282156139c057f1613943565b506108fc613998565b60405162461bcd60e51b8152602060048201526002602482015261413960f01b6044820152606490fd5b8181106139fe575050565b600081556001016139f3565b90601f8211613a17575050565b6107169160116000527f31ecc21a745e3968a04e9570e4425bc18fa8019c68028196b546d1669c200c68906020601f840160051c83019310613a61575b601f0160051c01906139f3565b9091508190613a54565b90601f8211613a78575050565b6107169160086000527ff3f7a9fe364faab93b216da50a3214154f22a0a2b415b23a84c8169e8b636ee3906020601f840160051c83019310613a6157601f0160051c01906139f3565b90601f8211613ace575050565b6107169160106000527f1b6847dc741a1b0cd08d278845f9d819d87b734759afb55fe2de5cb82a9ae672906020601f840160051c83019310613a6157601f0160051c01906139f3565b9190601f8111613b2657505050565b610716926000526020600020906020601f840160051c83019310613a6157601f0160051c01906139f3565b60ff60125460101c1615613ba957610a72602091612e75613b8860405192613b8384613b7c816118eb565b0385610cb4565b615623565b6040519483613ba08795518092848089019101610a19565b840101906116e8565b50604051601154816000613bbc836118b1565b80835292600190818116908115613c425750600114613be3575b50610a7292500382610cb4565b6011600090815291507f31ecc21a745e3968a04e9570e4425bc18fa8019c68028196b546d1669c200c685b848310613c275750610a72935050810160200138613bd6565b81935090816020925483858901015201910190918492613c0e565b905060209250610a7294915060ff191682840152151560051b82010138613bd6565b610716601f1936013560471936013560601c60331936013560601c9190918115613db7576001600160a01b0390811673eeeeeeeeeeeeeeeeeeeeeeeeeeeeeeeeeeeeeeee8103613d825750814710613d3d57600092839283928392165af1613cca615594565b5015613cd257565b60405162461bcd60e51b815260206004820152603a60248201527f416464726573733a20756e61626c6520746f2073656e642076616c75652c207260448201527f6563697069656e74206d617920686176652072657665727465640000000000006064820152608490fd5b60405162461bcd60e51b815260206004820152601d60248201527f416464726573733a20696e73756666696369656e742062616c616e63650000006044820152606490fd5b909161071693926040519363a9059cbb60e01b6020860152166024840152604483015260448252613db282610c7e565b6154bf565b505050565b15613dc357565b60405162461bcd60e51b815260206004820152602660248201527f4c7a4170703a20696e76616c696420736f757263652073656e64696e6720636f6044820152651b9d1c9858dd60d21b6064820152608490fd5b92613e3c610a7297959361ffff613e4a9416865260c0602087015260c0860190610a3c565b908482036040860152610a3c565b6001600160a01b0391821660608401529316608082015280830360a090910152610a3c565b94613e989193929561ffff81166000526001602052613e9f60406000206040519485809261198f565b0384610cb4565b825115613f3257613eb1855182613f90565b7f00000000000000000000000000000000000000000000000000000000000000006001600160a01b031693843b1561000e57600096613f0691604051998a988997889662c5803160e81b885260048801613e17565b03925af18015613f25575b613f185750565b8061249b61071692610c43565b613f2d612c75565b613f11565b60405162461bcd60e51b815260206004820152603060248201527f4c7a4170703a2064657374696e6174696f6e20636861696e206973206e6f742060448201526f61207472757374656420736f7572636560801b6064820152608490fd5b61ffff166000526003602052604060002054908115613ff5575b11613fb157565b606460405162461bcd60e51b815260206004820152602060248201527f4c7a4170703a207061796c6f61642073697a6520697320746f6f206c617267656044820152fd5b6127109150613faa565b81601f8201121561000e57805161401581610d59565b926140236040519485610cb4565b8184526020828401011161000e57610a729160208085019101610a19565b9060208282031261000e5781516001600160401b03811161000e57610a729201613fff565b908060209392818452848401376000828201840152601f01601f1916010190565b60409061ffff610a7295931681528160208201520191614066565b9290915a926040519360208501633356ae4560e11b815261ffff871660248701526080604487015261410d866140ff6140de60a4830187610a3c565b6001600160401b038816606484015282810360231901608484015288610a3c565b03601f198101885287610cb4565b60009182918261411b614702565b9851923090f13d60968111614155575b8086526000602087013e15614142575b5050505050565b61414b9461415d565b388080808061413b565b50609661412b565b91936141fa7fe183f33de2837795525b4792ca4cd60535bd77c53b7e7030060bfcf5734d6b0c95614208939561ffff815160208301209616958660005260056020526141c18361177460208b60406000208260405194838680955193849201610a19565b556001600160401b036141e6604051988998895260a060208a015260a0890190610a3c565b921660408701528582036060870152610a3c565b908382036080850152610a3c565b0390a1565b81601f8201121561000e5780519161422483610cd5565b926142326040519485610cb4565b808452602092838086019260051b82010192831161000e578301905b82821061425c575050505090565b8151815290830190830161424e565b909160608284031261000e578151916001600160401b039283811161000e5784614296918301613fff565b93602082015184811161000e57816142af91840161420d565b93604083015190811161000e57610a72920161420d565b926142df6014919392936020808251830101910161426b565b93919290920151916142f28482856143e4565b805160018103614377575091612f6b61ffff9261434361433c6143357f330378e2f010257b2fbe836316fb7ab303af5ed8f2795b82bca60d1c8c909f7697612e0f565b5197612e0f565b5197612d9f565b9660405194859460018060a01b0316991696849160409194936001600160401b039160608501968552602085015216910152565b60019095939194951161438d575b505050505050565b6143d661ffff926143be7f5604161d52abb20dbe3d4a2230e585a0b230b3d18179a0e00917b173f5f9adab95612d9f565b9660405194859460018060a01b031699169684612dbf565b0390a4388080808080614385565b9291604051926143f384610c99565b600084526001600160a01b0385168015949091906144118615614cae565b61441e8551855114614b26565b60005b855181101561447b57806144386144699287612e25565b51614457614446838a612e25565b516000526009602052604060002090565b805491820180921161446e5755614816565b614421565b6144766135f2565b6130bd565b5090919461451d575b60005b84518110156144d8578061449e6144d39286612e25565b516144cc6144c48a611f546144b3868c612e25565b516000526006602052604060002090565b91825461362d565b9055614816565b614487565b509290946107169460006040517f4a39dc06d4c0dbc64b70af90fd698a233a518aa5d07e595d983b8c0526c8f7fb339180614514898983614b83565b0390a433615281565b939060005b845181101561455757806145396145529286612e25565b516144cc61454a614446848a612e25565b918254613936565b614522565b509093614484565b6020919283604051948593843782019081520301902090565b1561457f57565b60405162461bcd60e51b815260206004820152602160248201527f4e6f6e626c6f636b696e674c7a4170703a20696e76616c6964207061796c6f616044820152601960fa1b6064820152608490fd5b916145fa9060609461ffff6001600160401b039499989799168552608060208601526080850191614066565b951660408201520152565b1561460c57565b60405162461bcd60e51b815260206004820152600e60248201526d736c6963655f6f766572666c6f7760901b6044820152606490fd5b1561464957565b60405162461bcd60e51b8152602060048201526011602482015270736c6963655f6f75744f66426f756e647360781b6044820152606490fd5b6146968261468f81613609565b1015614605565b6146a38282511015614642565b816146bb575050604051600081526020810160405290565b60405191601f811691821560051b808486010193838501920101905b8084106146ef5750508252601f01601f191660405290565b90928351815260208091019301906146d7565b6040519060c082018281106001600160401b0382111761472e575b6040526096825260a0366020840137565b614736610c2c565b61471d565b600080546001600160a01b039283166001600160a01b03198216811783559216907f8be0079c531659141344cd1fd0a4f28419497f9722a3daafe3b4186f6b6457e09080a3565b6001600160a01b038116156147bd576147b991600052600660205260406000209060018060a01b0316600052602052604060002090565b5490565b60405162461bcd60e51b815260206004820152602b60248201527f455243313135353a2062616c616e636520717565727920666f7220746865207a60448201526a65726f206164647265737360a81b6064820152608490fd5b6001906000198114614826570190565b6116fb6135f2565b919091805183510361489f5761484481516131d2565b9060005b815181101561489857806148836148726148656148939486612e25565b516001600160a01b031690565b61487c8389612e25565b5190614782565b61488d8286612e25565b52614816565b614848565b5090925050565b60405162461bcd60e51b815260206004820152602960248201527f455243313135353a206163636f756e747320616e6420696473206c656e677468604482015268040dad2e6dac2e8c6d60bb1b6064820152608490fd5b156148fd57565b60405162461bcd60e51b815260206004820152602560248201527f455243313135353a207472616e7366657220746f20746865207a65726f206164604482015264647265737360d81b6064820152608490fd5b1561495757565b60405162461bcd60e51b815260206004820152602a60248201527f455243313135353a20696e73756666696369656e742062616c616e636520666f60448201526939103a3930b739b332b960b11b6064820152608490fd5b6001600160a01b0395949392919086821680156149cc81156148f6565b6149d585613204565b6149de87613204565b998416918215614ae2575b614a93575b5061071697985085614a0e84611f54886000526006602052604060002090565b54614a1b82821015614950565b03614a3484611f54886000526006602052604060002090565b55614a4d84611f54876000526006602052604060002090565b614a5887825461362d565b9055604080518681526020810188905233917fc3d58168c5ae7397731d063d5bbf3d657854427343f4c083240f7aacaa2d0f6291a43361512d565b969492909795939160005b8851811015614acd5780896144cc61454a6144468f95614ac181614ac898612e25565b5194612e25565b614a9e565b509193959850919395506107169688976149ee565b98969492909795939160005b8b8a51821015614b1657908a6144cc6144c461444684614ac181614b1198612e25565b614aee565b50509193959790929496986149e9565b15614b2d57565b60405162461bcd60e51b815260206004820152602860248201527f455243313135353a2069647320616e6420616d6f756e7473206c656e677468206044820152670dad2e6dac2e8c6d60c31b6064820152608490fd5b9091614b9a610a72936040845260408401906112e2565b9160208184039101526112e2565b939492919092614bbb8251845114614b26565b6001600160a01b0395848716614bd28115156148f6565b614bde8585888a61536d565b60005b8451811015614c665780886144cc6144c48a611f548b614c0f87614c08614c619a8f612e25565b5192612e25565b5195614c5087614c2d83611f54866000526006602052604060002090565b54614c3a82821015614950565b0391611f54846000526006602052604060002090565b556000526006602052604060002090565b614be1565b506107169691959297604051908316907f4a39dc06d4c0dbc64b70af90fd698a233a518aa5d07e595d983b8c0526c8f7fb339180614ca58a8a83614b83565b0390a4336152b8565b15614cb557565b60405162461bcd60e51b815260206004820152602160248201527f455243313135353a206d696e7420746f20746865207a65726f206164647265736044820152607360f81b6064820152608490fd5b6001600160a01b0381169485159491939092614d208615614cae565b614d2981613204565b94614d3383613204565b9760005b8751811015614d645780614d4e614d5f928c612e25565b516144cc6144c4614446848d612e25565b614d37565b5091939590929496614dda575b50610716959650614d9082611f54856000526006602052604060002090565b614d9b85825461362d565b9055604080518481526020810186905260009133917fc3d58168c5ae7397731d063d5bbf3d657854427343f4c083240f7aacaa2d0f629190a433614fc9565b94929095939160005b8651811015614e105780614dfa614e0b928b612e25565b516144cc61454a614446848c612e25565b614de3565b5091939650919350610716948695614d71565b15614e2a57565b60405162461bcd60e51b8152602060048201526024808201527f455243313135353a206275726e20616d6f756e7420657863656564732062616c604482015263616e636560e01b6064820152608490fd5b9081602091031261000e5751610a7281610766565b909260a092610a729594600180861b0316835260006020840152604083015260608201528160808201520190610a3c565b9192610a7295949160a094600180871b038092168552166020840152604083015260608201528160808201520190610a3c565b60809060208152602860208201527f455243313135353a204552433131353552656365697665722072656a656374656040820152676420746f6b656e7360c01b60608201520190565b60009060033d11614f4a57565b905060046000803e60005160e01c90565b600060443d10610a7257604051600319913d83016004833e81516001600160401b03918282113d602484011117614fb857818401948551938411614fc0573d85010160208487010111614fb85750610a7292910160200190610cb4565b949350505050565b50949350505050565b9390803b614fd8575050505050565b6150009360006020946040519687958694859363f23a6e6160e01b9b8c865260048601614e90565b03926001600160a01b03165af1600091816150fd575b506150d55750506001615027614f3d565b6308c379a0146150a6575b61504057388080808061413b565b60405162461bcd60e51b815260206004820152603460248201527f455243313135353a207472616e7366657220746f206e6f6e20455243313135356044820152732932b1b2b4bb32b91034b6b83632b6b2b73a32b960611b6064820152608490fd5b0390fd5b6150ae614f5b565b806150b95750615032565b60405162461bcd60e51b81529081906150a29060048301610a61565b6001600160e01b0319161461414b5760405162461bcd60e51b8152806150a260048201614ef4565b61511f91925060203d8111615126575b6151178183610cb4565b810190614e7b565b9038615016565b503d61510d565b9493919092813b61514057505050505050565b60006020946151676040519788968795869463f23a6e6160e01b9c8d875260048701614ec1565b03926001600160a01b03165af1600091816151e4575b506151bc575050600161518e614f3d565b6308c379a0146151a9575b615040575b388080808080614385565b6151b1614f5b565b806150b95750615199565b6001600160e01b0319161461519e5760405162461bcd60e51b8152806150a260048201614ef4565b6151fd91925060203d8111615126576151178183610cb4565b903861517d565b92615233610a7295936152419360018060a01b031686526000602087015260a0604087015260a08601906112e2565b9084820360608601526112e2565b916080818403910152610a3c565b9390610a729593615233916152419460018060a01b03809216885216602087015260a0604087015260a08601906112e2565b9390803b615290575050505050565b6150009360006020946040519687958694859363bc197c8160e01b9b8c865260048601615204565b9493919092813b6152cb57505050505050565b60006020946151676040519788968795869463bc197c8160e01b9c8d87526004870161524f565b9192916001600160a01b03161561533a575b60005b8151811015615334578061531e61532f9286612e25565b516144cc61454a6144468487612e25565b615307565b50509050565b60005b815181101561536757806153546153629286612e25565b516144576144468386612e25565b61533d565b50615304565b9293926001600160a01b0391908216156153ac575b161561538d57509050565b60005b8151811015615334578061531e6153a79286612e25565b615390565b929060005b83518110156153de57806153c86153d99288612e25565b516144cc6144c46144468489612e25565b6153b1565b509092615382565b6040516323b872dd60e01b60208201526001600160a01b0392831660248201529290911660448301526064808301939093529181526107169160a082018281106001600160401b0382111761543e575b6040526154bf565b615446610c2c565b615436565b9081602091031261000e5751610a7281611b00565b1561546757565b60405162461bcd60e51b815260206004820152602a60248201527f5361666545524332303a204552433230206f7065726174696f6e20646964206e6044820152691bdd081cdd58d8d9595960b21b6064820152608490fd5b6040516001600160a01b0391909116916154d882610c63565b6020928383527f5361666545524332303a206c6f772d6c6576656c2063616c6c206661696c656484840152803b1561554f576000828192828761552a9796519301915af1615524615594565b906155c4565b8051908161553757505050565b826107169361554a93830101910161544b565b615460565b60405162461bcd60e51b815260048101859052601d60248201527f416464726573733a2063616c6c20746f206e6f6e2d636f6e74726163740000006044820152606490fd5b3d156155bf573d906155a582610d59565b916155b36040519384610cb4565b82523d6000602084013e565b606090565b909190156155d0575090565b8151156155e05750805190602001fd5b60405162461bcd60e51b8152602060048201529081906150a2906024830190610a3c565b90602091805182101561561657010190565b61561e612df8565b010190565b80156156de57806000908282935b6156ca575061563f83610d59565b9261564d6040519485610cb4565b80845281601f1961565d83610d59565b013660208701375b61566f5750505090565b60001981019081116156bd575b8091600a916156b46156ab61569b61569586860661361f565b60ff1690565b60f81b6001600160f81b03191690565b861a9187615604565b53049081615665565b6156c56135f2565b61567c565b926156d6600a91614816565b930480615631565b506040516156eb81610c63565b60018152600360fc1b602082015290565b929091906000915b845183101561574f576157178386612e25565b519081811161573a57600052602052615734604060002092614816565b91615704565b90600052602052615734604060002092614816565b915092501490565b6daaeb6d7670e522a718067333cd4e803b615770575050565b604051633185c44d60e21b81523060048201526001600160a01b038316602482015290602090829060449082905afa908115615809575b6000916157db575b50156157b85750565b604051633b79c77360e21b81526001600160a01b03919091166004820152602490fd5b6157fc915060203d8111615802575b6157f48183610cb4565b81019061544b565b386157af565b503d6157ea565b615811612c75565b6157a756fea26469706673582212209fea15efa64560cbddb700ede57a65c710d23e5b1391439033f1ed4e8e2103b064736f6c63430008110033",
    "linkReferences": {}
  },
  "methodIdentifiers": {
    "DEFAULT_PAYLOAD_SIZE_LIMIT()": "c4461834",
    "OPERATOR_FILTER_REGISTRY()": "41f43434",
    "_publicSaleStarted()": "600e97f6",
    "_saleStarted()": "87c348bf",
    "ableToMint()": "bde4cbe5",
    "balanceOf(address,uint256)": "00fdd58e",
    "balanceOfBatch(address[],uint256[])": "4e1273f4",
    "contractURI()": "e8a3d485",
    "estimateSendBatchFee(uint16,bytes,uint256[],uint256[],bool,bytes)": "b2535663",
    "estimateSendFee(uint16,bytes,uint256,uint256,bool,bytes)": "8608e5f8",
    "exists(uint256)": "4f558e79",
    "failedMessages(uint16,bytes,uint64)": "5b8c41e6",
    "flipPublicSaleStarted()": "1291e33e",
    "flipRevealed()": "3b2c3fb6",
    "flipSaleStarted()": "899d7b38",
    "forceResumeReceive(uint16,bytes)": "42d65a8d",
    "getConfig(uint16,uint16,address,uint256)": "f5ecbdbc",
    "getTrustedRemoteAddress(uint16)": "9f38369a",
    "isApprovedForAll(address,address)": "e985e9c5",
    "isTrustedRemote(uint16,bytes)": "3d8b38f6",
    "lzEndpoint()": "b353aaa7",
    "lzReceive(uint16,bytes,uint64,bytes)": "001d3567",
    "maxTokenPerID()": "b37ea7da",
    "maxTokensPerMint()": "17465471",
    "merkleRoot()": "2eb4a7ab",
    "minDstGasLookup(uint16,uint16)": "8cfd8f5c",
    "mintGasless(uint256,uint256,bytes32[],address)": "56c0c926",
    "nonblockingLzReceive(uint16,bytes,uint64,bytes)": "66ad5c8a",
    "owner()": "8da5cb5b",
    "payloadSizeLimitLookup(uint16)": "3f1f4fa4",
    "precrime()": "950c8a74",
    "price()": "a035b1fe",
    "publicMintGasless(uint256,uint256,address)": "07ce5b7d",
    "renounceOwnership()": "715018a6",
    "retryMessage(uint16,bytes,uint64,bytes)": "d1deba1f",
    "safeBatchTransferFrom(address,address,uint256[],uint256[],bytes)": "2eb2c2d6",
    "safeTransferFrom(address,address,uint256,uint256,bytes)": "f242432a",
    "sendBatchFrom(address,uint16,bytes,uint256[],uint256[],address,address,bytes)": "4ab4e687",
    "sendFrom(address,uint16,bytes,uint256,uint256,address,address,bytes)": "4db8226a",
    "setApprovalForAll(address,bool)": "a22cb465",
    "setBaseURI(string)": "55f804b3",
    "setBeneficiary(address)": "1c31f710",
    "setConfig(uint16,uint16,uint256,bytes)": "cbed8b9c",
    "setContractURI(string)": "938e3d7b",
    "setHiddenMetadataUri(string)": "4fdd43cb",
    "setMerkleRoot(bytes32)": "7cb64759",
    "setMinDstGas(uint16,uint16,uint256)": "df2a5b3b",
    "setPayloadSizeLimit(uint16,uint256)": "0df37483",
    "setPrecrime(address)": "baf3292d",
    "setPrice(uint256)": "91b7f5ed",
    "setReceiveVersion(uint16)": "10ddb137",
    "setSendVersion(uint16)": "07e0db17",
    "setTax(uint256)": "2e5bb6ff",
    "setTaxRecipient(address)": "78e3079e",
    "setTrustedRemote(uint16,bytes)": "eb8d72b7",
    "setTrustedRemoteAddress(uint16,bytes)": "a6c3d165",
    "stableToken()": "a9d75b2b",
    "supportsInterface(bytes4)": "01ffc9a7",
    "tax()": "99c8d556",
    "totalSupply(uint256)": "bd85b039",
    "transferOwnership(address)": "f2fde38b",
    "trustedRemoteLookup(uint16)": "7533d788",
    "uri(uint256)": "0e89341c",
    "withdraw()": "3ccfd60b"
  },
  "id": 173
}