{
  "abi": [
    {
      "inputs": [
        {
          "internalType": "address",
          "name": "_router",
          "type": "address"
        }
      ],
      "stateMutability": "nonpayable",
      "type": "constructor"
    },
    {
      "anonymous": false,
      "inputs": [
        {
          "indexed": true,
          "internalType": "address",
          "name": "previousOwner",
          "type": "address"
        },
        {
          "indexed": true,
          "internalType": "address",
          "name": "newOwner",
          "type": "address"
        }
      ],
      "name": "OwnershipTransferred",
      "type": "event"
    },
    {
      "inputs": [
        {
          "internalType": "uint256",
          "name": "",
          "type": "uint256"
        }
      ],
      "name": "allPools",
      "outputs": [
        {
          "internalType": "address",
          "name": "",
          "type": "address"
        }
      ],
      "stateMutability": "view",
      "type": "function"
    },
    {
      "inputs": [],
      "name": "allPoolsLength",
      "outputs": [
        {
          "internalType": "uint256",
          "name": "",
          "type": "uint256"
        }
      ],
      "stateMutability": "view",
      "type": "function"
    },
    {
      "inputs": [
        {
          "internalType": "uint256",
          "name": "_poolId",
          "type": "uint256"
        },
        {
          "internalType": "address",
          "name": "_token",
          "type": "address"
        },
        {
          "internalType": "uint8",
          "name": "_sharedDecimals",
          "type": "uint8"
        },
        {
          "internalType": "uint8",
          "name": "_localDecimals",
          "type": "uint8"
        },
        {
          "internalType": "string",
          "name": "_name",
          "type": "string"
        },
        {
          "internalType": "string",
          "name": "_symbol",
          "type": "string"
        }
      ],
      "name": "createPool",
      "outputs": [
        {
          "internalType": "address",
          "name": "poolAddress",
          "type": "address"
        }
      ],
      "stateMutability": "nonpayable",
      "type": "function"
    },
    {
      "inputs": [],
      "name": "defaultFeeLibrary",
      "outputs": [
        {
          "internalType": "address",
          "name": "",
          "type": "address"
        }
      ],
      "stateMutability": "view",
      "type": "function"
    },
    {
      "inputs": [
        {
          "internalType": "uint256",
          "name": "",
          "type": "uint256"
        }
      ],
      "name": "getPool",
      "outputs": [
        {
          "internalType": "contract Pool",
          "name": "",
          "type": "address"
        }
      ],
      "stateMutability": "view",
      "type": "function"
    },
    {
      "inputs": [],
      "name": "owner",
      "outputs": [
        {
          "internalType": "address",
          "name": "",
          "type": "address"
        }
      ],
      "stateMutability": "view",
      "type": "function"
    },
    {
      "inputs": [],
      "name": "renounceOwnership",
      "outputs": [],
      "stateMutability": "nonpayable",
      "type": "function"
    },
    {
      "inputs": [],
      "name": "router",
      "outputs": [
        {
          "internalType": "address",
          "name": "",
          "type": "address"
        }
      ],
      "stateMutability": "view",
      "type": "function"
    },
    {
      "inputs": [
        {
          "internalType": "address",
          "name": "_defaultFeeLibrary",
          "type": "address"
        }
      ],
      "name": "setDefaultFeeLibrary",
      "outputs": [],
      "stateMutability": "nonpayable",
      "type": "function"
    },
    {
      "inputs": [
        {
          "internalType": "address",
          "name": "newOwner",
          "type": "address"
        }
      ],
      "name": "transferOwnership",
      "outputs": [],
      "stateMutability": "nonpayable",
      "type": "function"
    }
  ],
  "bytecode": {
    "object": "0x60a060405234801561001057600080fd5b5060405161523038038061523083398101604081905261002f916100f3565b610038336100a3565b6001600160a01b0381166100925760405162461bcd60e51b815260206004820152601d60248201527f53746172676174653a205f726f757465722063616e7420626520307830000000604482015260640160405180910390fd5b6001600160a01b0316608052610123565b600080546001600160a01b038381166001600160a01b0319831681178455604051919092169283917f8be0079c531659141344cd1fd0a4f28419497f9722a3daafe3b4186f6b6457e09190a35050565b60006020828403121561010557600080fd5b81516001600160a01b038116811461011c57600080fd5b9392505050565b6080516150e461014c6000396000818161019f0152818161020501526102e401526150e46000f3fe60806040523480156200001157600080fd5b5060043610620000ab5760003560e01c8063be5a3c00116200006e578063be5a3c001462000145578063c63f57aa1462000159578063efde4e641462000170578063f2fde38b1462000182578063f887ea40146200019957600080fd5b8063068bcd8d14620000b057806341d1de9714620000f9578063715018a614620001105780637af935a1146200011c5780638da5cb5b1462000133575b600080fd5b620000dc620000c136600462000596565b6001602052600090815260409020546001600160a01b031681565b6040516001600160a01b0390911681526020015b60405180910390f35b620000dc6200010a36600462000596565b620001c1565b6200011a620001ec565b005b620000dc6200012d3660046200068a565b620001f8565b6000546001600160a01b0316620000dc565b600354620000dc906001600160a01b031681565b6200011a6200016a36600462000735565b620003cf565b600254604051908152602001620000f0565b6200011a6200019336600462000735565b6200045d565b620000dc7f000000000000000000000000000000000000000000000000000000000000000081565b60028181548110620001d257600080fd5b6000918252602090912001546001600160a01b0316905081565b620001f6620004dc565b565b6000336001600160a01b037f00000000000000000000000000000000000000000000000000000000000000001614620002785760405162461bcd60e51b815260206004820181905260248201527f53746172676174653a2063616c6c6572206d75737420626520526f757465722e60448201526064015b60405180910390fd5b6000878152600160205260409020546001600160a01b031615620002df5760405162461bcd60e51b815260206004820152601e60248201527f53746172676174653a20506f6f6c20616c72656164792063726561746564000060448201526064016200026f565b6000877f0000000000000000000000000000000000000000000000000000000000000000888888600360009054906101000a90046001600160a01b031689896040516200032c9062000588565b6200033f989796959493929190620007a2565b604051809103906000f0801580156200035c573d6000803e3d6000fd5b5060009889526001602081905260408a2080546001600160a01b0384166001600160a01b03199182168117909255600280549384018155909b527f405787fa12a823e0f2b7631cc41b3ba8828b3321ca811111fa75cd3aa3bb5ace9091018054909a161790985550959695505050505050565b620003d9620004dc565b6001600160a01b0381166200043b5760405162461bcd60e51b815260206004820152602160248201527f53746172676174653a20666565206c6962726172792063616e742062652030786044820152600360fc1b60648201526084016200026f565b600380546001600160a01b0319166001600160a01b0392909216919091179055565b62000467620004dc565b6001600160a01b038116620004ce5760405162461bcd60e51b815260206004820152602660248201527f4f776e61626c653a206e6577206f776e657220697320746865207a65726f206160448201526564647265737360d01b60648201526084016200026f565b620004d98162000538565b50565b6000546001600160a01b03163314620001f65760405162461bcd60e51b815260206004820181905260248201527f4f776e61626c653a2063616c6c6572206973206e6f7420746865206f776e657260448201526064016200026f565b600080546001600160a01b038381166001600160a01b0319831681178455604051919092169283917f8be0079c531659141344cd1fd0a4f28419497f9722a3daafe3b4186f6b6457e09190a35050565b614899806200081683390190565b600060208284031215620005a957600080fd5b5035919050565b80356001600160a01b0381168114620005c857600080fd5b919050565b803560ff81168114620005c857600080fd5b634e487b7160e01b600052604160045260246000fd5b600082601f8301126200060757600080fd5b813567ffffffffffffffff80821115620006255762000625620005df565b604051601f8301601f19908116603f01168101908282118183101715620006505762000650620005df565b816040528381528660208588010111156200066a57600080fd5b836020870160208301376000602085830101528094505050505092915050565b60008060008060008060c08789031215620006a457600080fd5b86359550620006b660208801620005b0565b9450620006c660408801620005cd565b9350620006d660608801620005cd565b9250608087013567ffffffffffffffff80821115620006f457600080fd5b620007028a838b01620005f5565b935060a08901359150808211156200071957600080fd5b506200072889828a01620005f5565b9150509295509295509295565b6000602082840312156200074857600080fd5b6200075382620005b0565b9392505050565b6000815180845260005b81811015620007825760208185018101518683018201520162000764565b506000602082860101526020601f19601f83011685010191505092915050565b8881526001600160a01b038881166020830152878116604083015260ff878116606084015286166080830152841660a082015261010060c08201819052600090620007f0838201866200075a565b905082810360e08401526200080681856200075a565b9b9a505050505050505050505056fe6101006040523480156200001257600080fd5b506040516200489938038062004899833981016040819052620000359162000352565b81816000620000458382620004a1565b506001620000548282620004a1565b5060405146907f8b73c3c69bb8fe3d512ecc4cf759cc79239f7b179b0ffacaa9a75d522b39400f906200008a906000906200056d565b60408051918290038220828201825260018352603160f81b6020938401528151928301939093528101919091527fc89efdaa54c0f20c7adf612882df0950f5a951637e0307cdcb4c672f298b8bc66060820152608081018290523060a082015260c00160408051601f19818403018152919052805160209091012060025550506001600855506001600160a01b0386166200016c5760405162461bcd60e51b815260206004820152601e60248201527f53746172676174653a205f746f6b656e2063616e6e6f7420626520307830000060448201526064015b60405180910390fd5b6001600160a01b038716620001c45760405162461bcd60e51b815260206004820152601f60248201527f53746172676174653a205f726f757465722063616e6e6f742062652030783000604482015260640162000163565b60808890526001600160a01b0387811660e052861660c052600b85905560ff8516600355600c84905562000205848662000259602090811b6200291d17901c565b6200021290600a620006fe565b60a05250506000600f55601480546001600160a01b0319166001600160a01b039290921691909117905550506016805462ffffff1916620101001790555062000722915050565b60006200026782846200070c565b90505b92915050565b80516001600160a01b03811681146200028857600080fd5b919050565b634e487b7160e01b600052604160045260246000fd5b600082601f830112620002b557600080fd5b81516001600160401b0380821115620002d257620002d26200028d565b604051601f8301601f19908116603f01168101908282118183101715620002fd57620002fd6200028d565b816040528381526020925086838588010111156200031a57600080fd5b600091505b838210156200033e57858201830151818301840152908201906200031f565b600093810190920192909252949350505050565b600080600080600080600080610100898b0312156200037057600080fd5b885197506200038260208a0162000270565b96506200039260408a0162000270565b95506060890151945060808901519350620003b060a08a0162000270565b60c08a01519093506001600160401b0380821115620003ce57600080fd5b620003dc8c838d01620002a3565b935060e08b0151915080821115620003f357600080fd5b50620004028b828c01620002a3565b9150509295985092959890939650565b600181811c908216806200042757607f821691505b6020821081036200044857634e487b7160e01b600052602260045260246000fd5b50919050565b601f8211156200049c57600081815260208120601f850160051c81016020861015620004775750805b601f850160051c820191505b81811015620004985782815560010162000483565b5050505b505050565b81516001600160401b03811115620004bd57620004bd6200028d565b620004d581620004ce845462000412565b846200044e565b602080601f8311600181146200050d5760008415620004f45750858301515b600019600386901b1c1916600185901b17855562000498565b600085815260208120601f198616915b828110156200053e578886015182559484019460019091019084016200051d565b50858210156200055d5787850151600019600388901b60f8161c191681555b5050505050600190811b01905550565b60008083546200057d8162000412565b60018281168015620005985760018114620005ae57620005df565b60ff1984168752821515830287019450620005df565b8760005260208060002060005b85811015620005d65781548a820152908401908201620005bb565b50505082870194505b50929695505050505050565b634e487b7160e01b600052601160045260246000fd5b600181815b8085111562000642578160001904821115620006265762000626620005eb565b808516156200063457918102915b93841c939080029062000606565b509250929050565b6000826200065b575060016200026a565b816200066a575060006200026a565b81600181146200068357600281146200068e57620006ae565b60019150506200026a565b60ff841115620006a257620006a2620005eb565b50506001821b6200026a565b5060208310610133831016604e8410600b8410161715620006d3575081810a6200026a565b620006df838362000601565b8060001904821115620006f657620006f6620005eb565b029392505050565b60006200026783836200064a565b818103818111156200026a576200026a620005eb565b60805160a05160c05160e051614079620008206000396000818161091801528181610a4601528181610b9401528181610e3b01528181611259015281816116c90152818161172a01528181611801015281816118fe015281816119d501528181611b1601528181611b6701528181611c3701528181611ecd01528181611f9a0152818161202d015281816121a4015281816122c9015281816123f0015281816126cf015261281a01526000818161094801528181610c3e0152818161178801528181611d5601528181612233015261244e01526000818161096f01528181612cd30152612e430152600081816106110152610f2a01526140796000f3fe608060405234801561001057600080fd5b50600436106103ae5760003560e01c80637ecebe00116101f4578063b0fab0bc1161011a578063e065608b116100ad578063f887ea401161007c578063f887ea4014610913578063faa24f071461093a578063fc0c546a14610943578063feb56b151461096a57600080fd5b8063e065608b146108bc578063e46e7058146108cf578063ea89e2aa146108d8578063f6cd35ee1461090057600080fd5b8063be310294116100e9578063be31029414610862578063cdfed0ab14610875578063d505accf1461087e578063dd62ed3e1461089157600080fd5b8063b0fab0bc1461081c578063b30daeac1461082f578063b633b36414610842578063b6addec71461084f57600080fd5b806399a22d6811610192578063a9059cbb11610161578063a9059cbb146107da578063a985565f146107ed578063abe685cd14610800578063ac2cc36b1461080957600080fd5b806399a22d68146107595780639bb811191461076b578063a138ed6b14610774578063a457c2d7146107c757600080fd5b80638bd86d0a116101ce5780638bd86d0a14610722578063902b8ab71461073557806395d89b411461074857806396c82e571461075057600080fd5b80637ecebe00146106e65780637fb6526514610706578063857749b01461071957600080fd5b806328f079c2116102d957806340c10f191161027757806365152f2b1161024657806365152f2b1461069757806369fe0e2d146106a057806370a08231146106b35780637298a5dc146106d357600080fd5b806340c10f1914610633578063476efe40146106465780634b5cacbc1461065957806364c5f02d1461066c57600080fd5b806336448777116102b357806336448777146105e75780633644e515146105f057806339509351146105f95780633e0dc34e1461060c57600080fd5b806328f079c2146105a457806330adf81f146105b7578063313ce567146105de57600080fd5b8063159f6add116103515780631e8e51da116103205780631e8e51da1461056657806320d6bc751461056f57806323b872dd1461058457806327f923761461059757600080fd5b8063159f6add1461047c578063163ef490146104f657806318160ddd146104fe5780631b7319b61461050757600080fd5b8063095ea7b31161038d578063095ea7b3146104265780630986b61a146104495780630a22d68c1461046a57806315770f921461047357600080fd5b80621edfab146103b357806306fdde03146103e357806308e9d8c2146103f8575b600080fd5b6014546103c6906001600160a01b031681565b6040516001600160a01b0390911681526020015b60405180910390f35b6103eb610991565b6040516103da9190613718565b61040b610406366004613762565b610a1f565b604080518251815260209283015192810192909252016103da565b6104396104343660046137a3565b610b69565b60405190151581526020016103da565b61045c6104573660046137bf565b610b7f565b6040519081526020016103da565b61045c60115481565b61045c600e5481565b61048f61048a366004613762565b610cc9565b6040516103da919060006101008201905082511515825261ffff602084015116602083015260408301516040830152606083015160608301526080830151608083015260a083015160a083015260c083015160c083015260e083015160e083015292915050565b60095461045c565b61045c60045481565b61051a610515366004613809565b610def565b6040516103da9190600060c082019050825182526020830151602083015260408301516040830152606083015160608301526080830151608083015260a083015160a083015292915050565b61045c60155481565b61058261057d36600461386c565b61124e565b005b61043961059236600461389f565b6115e5565b6016546104399060ff1681565b6016546104399062010000900460ff1681565b61045c7f6e71edae12b1b97f4d1f60370fef10105fa2faae0126114a169c64845d6126c981565b61045c60035481565b61045c60185481565b61045c60025481565b6104396106073660046137a3565b611679565b61045c7f000000000000000000000000000000000000000000000000000000000000000081565b61045c6106413660046137a3565b6116b4565b6105826106543660046138db565b61171f565b6105826106673660046138db565b6117f6565b61045c61067a366004613762565b600a60209081526000928352604080842090915290825290205481565b61045c60125481565b6105826106ae3660046138f6565b6118f3565b61045c6106c13660046138db565b60056020526000908152604090205481565b6105826106e136600461390f565b6119c2565b61045c6106f43660046138db565b60076020526000908152604090205481565b610582610714366004613953565b611b0b565b61045c600b5481565b610582610730366004613762565b611b5c565b61045c6107433660046139bd565b611c22565b6103eb611dfb565b61045c600f5481565b60165461043990610100900460ff1681565b61045c60135481565b6107876107823660046138f6565b611e08565b60408051981515895261ffff9097166020890152958701949094526060860192909252608085015260a084015260c083015260e0820152610100016103da565b6104396107d53660046137a3565b611e66565b6104396107e83660046137a3565b611eb5565b6105826107fb366004613a57565b611ec2565b61045c61271081565b610582610817366004613953565b611f8f565b61045c61082a366004613a8a565b612018565b61058261083d366004613b30565b612191565b600d546104399060ff1681565b61058261085d366004613b7e565b6122b6565b6105826108703660046138db565b6123e5565b61045c60175481565b61058261088c366004613c07565b6124b3565b61045c61089f366004613c7a565b600660209081526000928352604080842090915290825290205481565b6105826108ca366004613cad565b6126c4565b61045c600c5481565b6108eb6108e636600461386c565b612804565b604080519283526020830191909152016103da565b61045c61090e3660046138f6565b61290f565b6103c67f000000000000000000000000000000000000000000000000000000000000000081565b61045c60105481565b6103c67f000000000000000000000000000000000000000000000000000000000000000081565b61045c7f000000000000000000000000000000000000000000000000000000000000000081565b6000805461099e90613d0c565b80601f01602080910402602001604051908101604052809291908181526020018280546109ca90613d0c565b8015610a175780601f106109ec57610100808354040283529160200191610a17565b820191906000526020600020905b8154815290600101906020018083116109fa57829003601f168201915b505050505081565b6040805180820190915260008082526020820152610a3b612929565b336001600160a01b037f00000000000000000000000000000000000000000000000000000000000000001614610a8c5760405162461bcd60e51b8152600401610a8390613d46565b60405180910390fd5b6000610a988484612982565b805490915060ff161515600114610ac15760405162461bcd60e51b8152600401610a8390613d94565b60058101546004820154610ad491612a55565b6004820155600f546002820154600e54610af99291610af39190612a61565b90612a6d565b602083810182905260058301805480865260009091556040805161ffff8916815292830187905282015260608101919091527f6939f93e3f21cf1362eb17155b740277de5687dae9a83a85909fd71da95944e79060800160405180910390a150610b636001600855565b92915050565b6000610b76338484612a79565b50600192915050565b6000610b89612929565b336001600160a01b037f00000000000000000000000000000000000000000000000000000000000000001614610bd15760405162461bcd60e51b8152600401610a8390613d46565b6001600160a01b038416610bf75760405162461bcd60e51b8152600401610a8390613ddc565b6015546000610c0582612adb565b905080851115610c13578094505b610c1d8686612b62565b9250610c29828461291d565b6015556000610c3784612ccb565b9050610c647f00000000000000000000000000000000000000000000000000000000000000008683612cf7565b604080516001600160a01b038981168252602082018990528183018790528716606082015290517f2125a70154569bd1686edd3cf981bb23dea7c1fa1637909dbb3c9a967cb0c2f29181900360800190a1505050610cc26001600855565b9392505050565b610d17604051806101000160405280600015158152602001600061ffff1681526020016000815260200160008152602001600081526020016000815260200160008152602001600081525090565b61ffff83166000908152600a60209081526040808320858452909152812054600980549091908110610d4b57610d4b613e13565b60009182526020918290206040805161010080820183526007909402909201805460ff81161515845261ffff94900484169483018590526001810154918301919091526002810154606083015260038101546080830152600481015460a0830152600581015460c08301526006015460e082015292508516148015610dd35750828160400151145b610cc25760405162461bcd60e51b8152600401610a8390613e29565b610e286040518060c001604052806000815260200160008152602001600081526020016000815260200160008152602001600081525090565b610e30612929565b336001600160a01b037f00000000000000000000000000000000000000000000000000000000000000001614610e785760405162461bcd60e51b8152600401610a8390613d46565b600d5460ff1615610ecb5760405162461bcd60e51b815260206004820152601b60248201527f53746172676174653a20737761702066756e632073746f7070656400000000006044820152606401610a83565b6000610ed78888612982565b805490915060ff161515600114610f005760405162461bcd60e51b8152600401610a8390613d94565b6000610f0b86612e3b565b90506000610f1886612e3b565b6014546040516301ab624360e41b81527f00000000000000000000000000000000000000000000000000000000000000006004820152602481018c905261ffff8d1660448201526001600160a01b038b811660648301526084820186905292935060009290911690631ab624309060a40160c0604051808303816000875af1158015610fa8573d6000803e3d6000fd5b505050506040513d601f19601f82011682018060405250810190610fcc9190613e71565b9050610fe7816040015160135461291d90919063ffffffff16565b601355606081015160808201516020830151611011929161100b918290889061291d565b9061291d565b8082526040820151839161102491612a55565b10156110725760405162461bcd60e51b815260206004820152601b60248201527f53746172676174653a20736c69707061676520746f6f206869676800000000006044820152606401610a83565b611097816040015161109183606001518661291d90919063ffffffff16565b90612a55565b60a08201819052600385015410156110f15760405162461bcd60e51b815260206004820152601d60248201527f53746172676174653a206473742062616c616e636520746f6f206c6f770000006044820152606401610a83565b60a081015160038501546111049161291d565b600385015585156111345761112c816040015161109185601554612a5590919063ffffffff16565b601555611153565b60408101511561115357604081015160155461114f91612a55565b6015555b60165460ff161580611183575061117d612710610af3601754600e54612a6190919063ffffffff16565b60155410155b1561119c5760165461119c90610100900460ff16612e67565b7f34660fc8af304464529f48a778e03d03e4d34bcd5f9b6f0cfbf3cd238c642f7f8b8b8b8460000151856040015186602001518760800151886060015160405161122d98979695949392919061ffff98909816885260208801969096526001600160a01b039490941660408701526060860192909252608085015260a084015260c083015260e08201526101000190565b60405180910390a193505050506112446001600855565b9695505050505050565b336001600160a01b037f000000000000000000000000000000000000000000000000000000000000000016146112965760405162461bcd60e51b8152600401610a8390613d46565b60005b6009548110156113d7576000600982815481106112b8576112b8613e13565b600091825260208083206040805161010080820183526007909502909201805460ff81161515845261ffff95900485169383018490526001810154918301919091526002810154606083015260038101546080830152600481015460a0830152600581015460c08301526006015460e082015293509087161480156113405750848260400151145b905080156113c45760405162461bcd60e51b8152602060048201526044602482018190527f53746172676174653a2063616e7420637265617465436861696e50617468206f908201527f66206578697374696e6720647374436861696e496420616e64205f647374506f6064820152631bdb125960e21b608482015260a401610a83565b5050806113d090613f0f565b9050611299565b50600f546113e59082612a55565b600f556009805461ffff8086166000818152600a602090815260408083208984528252808320869055805161010080820183528482529281019485528082018a8152606082018a81526080830186815260a0840187815260c0850188815260e0860189815260018d018e559c90985293516007909a027f6e1540171b6c0c960b71a7020d9f60077f6af931a8bbf590da0223dacf75c7af810180549951909a1690960262ffff00199a15159a909a1662ffffff19909816979097179890981790965594517f6e1540171b6c0c960b71a7020d9f60077f6af931a8bbf590da0223dacf75c7b083015594517f6e1540171b6c0c960b71a7020d9f60077f6af931a8bbf590da0223dacf75c7b182015591517f6e1540171b6c0c960b71a7020d9f60077f6af931a8bbf590da0223dacf75c7b283015591517f6e1540171b6c0c960b71a7020d9f60077f6af931a8bbf590da0223dacf75c7b382015590517f6e1540171b6c0c960b71a7020d9f60077f6af931a8bbf590da0223dacf75c7b482015591517f6e1540171b6c0c960b71a7020d9f60077f6af931a8bbf590da0223dacf75c7b590920191909155517f8fb3b21a941c2361df46475f9ae2f7b5dac5de7bd085fa22415ec0bb30c77e22906115d89085908590859061ffff9390931683526020830191909152604082015260600190565b60405180910390a1505050565b6001600160a01b038316600090815260066020908152604080832033845290915281205460001914611664576001600160a01b038416600090815260066020908152604080832033845290915290205461163f908361291d565b6001600160a01b03851660009081526006602090815260408083203384529091529020555b61166f8484846132e4565b5060019392505050565b3360008181526006602090815260408083206001600160a01b03871684529091528120549091610b769185906116af9086612a55565b612a79565b60006116be612929565b336001600160a01b037f000000000000000000000000000000000000000000000000000000000000000016146117065760405162461bcd60e51b8152600401610a8390613d46565b611713838360018061338a565b9050610b636001600855565b336001600160a01b037f000000000000000000000000000000000000000000000000000000000000000016146117675760405162461bcd60e51b8152600401610a8390613d46565b601254156117f357600061177c601254612ccb565b600060125590506117ae7f00000000000000000000000000000000000000000000000000000000000000008383612cf7565b604080516001600160a01b0384168152602081018390527f87b3b2749102aa96f2d08396e34cd47673e57148af9cfff965d99bc0378a87dc91015b60405180910390a1505b50565b336001600160a01b037f0000000000000000000000000000000000000000000000000000000000000000161461183e5760405162461bcd60e51b8152600401610a8390613d46565b6001600160a01b03811661189e5760405162461bcd60e51b815260206004820152602160248201527f53746172676174653a20666565206c6962726172792063616e742062652030786044820152600360fc1b6064820152608401610a83565b601480546001600160a01b0319166001600160a01b0383169081179091556040519081527f5138b884a20454b6db937b9e11c8534e02e708750e0c465df6cd9701622952ce906020015b60405180910390a150565b336001600160a01b037f0000000000000000000000000000000000000000000000000000000000000000161461193b5760405162461bcd60e51b8152600401610a8390613d46565b61271081111561198d5760405162461bcd60e51b815260206004820152601760248201527f4272696467653a2063756d2066656573203e20313030250000000000000000006044820152606401610a83565b60108190556040518181527f9fe6eeb0f0541c644a56c67efeb872dbadd803a60b909d7dde1b35a3fe230b0e906020016118e8565b6119ca612929565b336001600160a01b037f00000000000000000000000000000000000000000000000000000000000000001614611a125760405162461bcd60e51b8152600401610a8390613d46565b6001600160a01b038216611a385760405162461bcd60e51b8152600401610a8390613ddc565b6000611a448383612b62565b60165490915060ff161580611a765750611a71612710610af3601854600e54612a6190919063ffffffff16565b601554115b15611a9057601654611a909062010000900460ff16612e67565b6000611a9b82612ccb565b6040805161ffff89168152602081018890526001600160a01b03871681830152606081018690526080810183905290519192507fa33f5c0b76f00f6737b1780a8a7f18e19c3fe8fe9ee01a6c1b8ce1eae5ed54f9919081900360a00190a15050611b056001600855565b50505050565b336001600160a01b037f00000000000000000000000000000000000000000000000000000000000000001614611b535760405162461bcd60e51b8152600401610a8390613d46565b6117f381612e67565b336001600160a01b037f00000000000000000000000000000000000000000000000000000000000000001614611ba45760405162461bcd60e51b8152600401610a8390613d46565b6000611bb08383612982565b805490915060ff1615611c135760405162461bcd60e51b815260206004820152602560248201527f53746172676174653a20636861696e5061746820697320616c72656164792061604482015264637469766560d81b6064820152608401610a83565b805460ff191660011790555050565b6000611c2c612929565b336001600160a01b037f00000000000000000000000000000000000000000000000000000000000000001614611c745760405162461bcd60e51b8152600401610a8390613d46565b6060820151600e54611c8591612a55565b600e556020820151601354611c9991612a55565b6013556080820151601154611cad91612a55565b60115561ffff85166000908152600a6020908152604080832087845290915290205460a083015160098054611d0e92919084908110611cee57611cee613e13565b90600052602060002090600702016004015461291d90919063ffffffff16565b60098281548110611d2157611d21613e13565b600091825260209091206004600790920201015560408301518351611d4f91611d4a9190612a55565b612ccb565b9150611d7c7f00000000000000000000000000000000000000000000000000000000000000008584612cf7565b604083015183517ffb2b592367452f1c437675bed47f5e1e6c25188c17d7ba01a12eb030bc41ccef918691611db091612a55565b608080870151602080890151604080516001600160a01b0390971687529186019490945284015260608301919091520160405180910390a150611df36001600855565b949350505050565b6001805461099e90613d0c565b60098181548110611e1857600080fd5b6000918252602090912060079091020180546001820154600283015460038401546004850154600586015460069096015460ff8616975061010090950461ffff169593949293919290919088565b6000610b7633846116af8560405180606001604052806025815260200161401f602591393360009081526006602090815260408083206001600160a01b038d1684529091529020549190613528565b6000610b763384846132e4565b336001600160a01b037f00000000000000000000000000000000000000000000000000000000000000001614611f0a5760405162461bcd60e51b8152600401610a8390613d46565b6000611f168484612982565b9050611f398261ffff166110918360020154600f5461291d90919063ffffffff16565b600f5561ffff82811660028301819055604080519287168352602083018690528201527f8fb3b21a941c2361df46475f9ae2f7b5dac5de7bd085fa22415ec0bb30c77e229060600160405180910390a150505050565b336001600160a01b037f00000000000000000000000000000000000000000000000000000000000000001614611fd75760405162461bcd60e51b8152600401610a8390613d46565b600d805460ff19168215159081179091556040519081527f59a9350977452c5240699f57f18b5915cd0440a56f08820a38b9f2432a82ba3e906020016118e8565b6000612022612929565b336001600160a01b037f0000000000000000000000000000000000000000000000000000000000000000161461206a5760405162461bcd60e51b8152600401610a8390613d46565b6001600160a01b0387166120905760405162461bcd60e51b8152600401610a8390613ddc565b61ffff85166000908152600a602090815260408083208784529091529020546009805490919081106120c4576120c4613e13565b600091825260209091206007909102015460ff1615156001146120f95760405162461bcd60e51b8152600401610a8390613d94565b6121038787612b62565b60165490915060ff1615806121355750612130612710610af3601854600e54612a6190919063ffffffff16565b601554115b15612144576121446000612e67565b7f53c03ee0722b52efeb42444f48d90173854501b3de3c590fcb445743377115c28787838888888860405161217f9796959493929190613f28565b60405180910390a16112446001600855565b612199612929565b336001600160a01b037f000000000000000000000000000000000000000000000000000000000000000016146121e15760405162461bcd60e51b8152600401610a8390613d46565b80156121fe576121fc836121f483612ccb565b60008061338a565b505b600061220a8686612982565b600481015490915061221c908461291d565b6004820155600061222c84612ccb565b90506122597f00000000000000000000000000000000000000000000000000000000000000008683612cf7565b604080516001600160a01b0387168152602081018690529081018490527fa97166013ecf5305dd9a58d6d867f05e646d4275f52d2bd52a5c7f00a690ad1b9060600160405180910390a150506122af6001600855565b5050505050565b6122be612929565b336001600160a01b037f000000000000000000000000000000000000000000000000000000000000000016146123065760405162461bcd60e51b8152600401610a8390613d46565b61ffff83166000908152600a6020908152604080832085845290915281205460098054909190811061233a5761233a613e13565b9060005260206000209060070201905061236582600001518260030154612a5590919063ffffffff16565b6003820155602082015160068201541461238457602082015160068201555b81516020808401516040805161ffff8916815292830187905282810193909352606082015290517fdbdd25248751feb2f3b66721dfdd11662a68bc155af3771e661aabec92fba8149181900360800190a1506123e06001600855565b505050565b336001600160a01b037f0000000000000000000000000000000000000000000000000000000000000000161461242d5760405162461bcd60e51b8152600401610a8390613d46565b601154156117f3576000612442601154612ccb565b600060115590506124747f00000000000000000000000000000000000000000000000000000000000000008383612cf7565b604080516001600160a01b0384168152602081018390527f70dc5a44816033bea80f836440f4b1fe1b3bb06b568c8dc2301901f03bf237c791016117e9565b428410156124f55760405162461bcd60e51b815260206004820152600f60248201526e109c9a5919d94e8811561412549151608a1b6044820152606401610a83565b6002546001600160a01b038816600090815260076020526040812080549192917f6e71edae12b1b97f4d1f60370fef10105fa2faae0126114a169c64845d6126c9918b918b918b91908761254883613f0f565b909155506040805160208101969096526001600160a01b0394851690860152929091166060840152608083015260a082015260c0810187905260e001604051602081830303815290604052805190602001206040516020016125c192919061190160f01b81526002810192909252602282015260420190565b60408051601f198184030181528282528051602091820120600080855291840180845281905260ff88169284019290925260608301869052608083018590529092509060019060a0016020604051602081039080840390855afa15801561262c573d6000803e3d6000fd5b5050604051601f1901519150506001600160a01b038116158015906126625750886001600160a01b0316816001600160a01b0316145b6126ae5760405162461bcd60e51b815260206004820152601960248201527f4272696467653a20494e56414c49445f5349474e4154555245000000000000006044820152606401610a83565b6126b9898989612a79565b505050505050505050565b336001600160a01b037f0000000000000000000000000000000000000000000000000000000000000000161461270c5760405162461bcd60e51b8152600401610a8390613d46565b612710841115801561272057506127108311155b61276c5760405162461bcd60e51b815260206004820152601b60248201527f53746172676174653a2077726f6e672044656c746120706172616d00000000006044820152606401610a83565b601680546017869055601885905561ffff191686151561ff00198116919091176101008515159081029190911762ff00001916620100008515159081029190911790935560408051928352602083018890528201869052606082015260808101919091527f7cc11124872dc29ed41dd447ee7ab07d9eee5d8ebb55f65dd92bce19bb20224a9060a00160405180910390a15050505050565b60008061280f612929565b336001600160a01b037f000000000000000000000000000000000000000000000000000000000000000016146128575760405162461bcd60e51b8152600401610a8390613d46565b60006128638686612982565b905080600301548411156128945760038101546128809085613f86565b6003820180546000909155935091506128b0565b60038101546128a3908561291d565b6003820155839250600091505b6040805161ffff8816815260208101879052908101849052606081018390527f44d3575fd94f9e0a41d7ebbc7e952f9b615c3f8d1faf924e1e9e98c0edf0d3809060800160405180910390a1506129076001600855565b935093915050565b6000610b63611d4a83613554565b6000610cc28284613f86565b60026008540361297b5760405162461bcd60e51b815260206004820152601f60248201527f5265656e7472616e637947756172643a207265656e7472616e742063616c6c006044820152606401610a83565b6002600855565b6009546000906129d45760405162461bcd60e51b815260206004820152601d60248201527f53746172676174653a206e6f20636861696e70617468732065786973740000006044820152606401610a83565b61ffff83166000908152600a60209081526040808320858452909152812054600980549091908110612a0857612a08613e13565b60009182526020909120600790910201805490915061ffff85811661010090920416148015610dd3575082816001015414610cc25760405162461bcd60e51b8152600401610a8390613e29565b6000610cc28284613f99565b6000610cc28284613fac565b6000610cc28284613fc3565b6001600160a01b0383811660008181526006602090815260408083209487168084529482529182902085905590518481527f8c5be1e5ebec7d5bd14f71427d1e84f3dd0314c0f7b2291e5b200ac8c7c3b92591015b60405180910390a3505050565b600080600e5411612b475760405162461bcd60e51b815260206004820152603060248201527f53746172676174653a2063616e7420636f6e76657274205344746f4c5020776860448201526f0656e20746f74616c4c6971203d3d20360841b6064820152608401610a83565b610b63600e54610af360045485612a6190919063ffffffff16565b60008060045411612bc75760405162461bcd60e51b815260206004820152602960248201527f53746172676174653a2063616e74206275726e207768656e20746f74616c5375604482015268070706c79203d3d20360bc1b6064820152608401610a83565b6001600160a01b03831660009081526005602052604090205482811015612c3f5760405162461bcd60e51b815260206004820152602660248201527f53746172676174653a206e6f7420656e6f756768204c5020746f6b656e7320746044820152653790313ab93760d11b6064820152608401610a83565b6000612c5c600454610af3600e5487612a6190919063ffffffff16565b600e54909150612c6c908261291d565b600e55612c7985856135de565b604080516001600160a01b0387168152602081018690529081018290527f49995e5dd6158cf69ad3e9777c46755a1a826a446c6416992167462dad033b2a9060600160405180910390a1949350505050565b6000610b63827f0000000000000000000000000000000000000000000000000000000000000000612a61565b604080518082018252601981527f7472616e7366657228616464726573732c75696e74323536290000000000000060209182015281516001600160a01b0385811660248301526044808301869052845180840390910181526064909201845291810180516001600160e01b031663a9059cbb60e01b17905291516000928392871691612d839190613fe5565b6000604051808303816000865af19150503d8060008114612dc0576040519150601f19603f3d011682016040523d82523d6000602084013e612dc5565b606091505b5091509150818015612def575080511580612def575080806020019051810190612def9190614001565b6122af5760405162461bcd60e51b815260206004820152601960248201527f53746172676174653a205452414e534645525f4641494c4544000000000000006044820152606401610a83565b6000610b63827f0000000000000000000000000000000000000000000000000000000000000000612a6d565b6000601554118015612e7b57506000600f54115b156117f35760095460008167ffffffffffffffff811115612e9e57612e9e613970565b604051908082528060200260200182016040528015612ec7578160200160208202803683370190505b5090506000805b83811015612fb057600060098281548110612eeb57612eeb613e13565b906000526020600020906007020190506000612f1c600f54610af38460020154600e54612a6190919063ffffffff16565b90506000612f3b83600501548460040154612a5590919063ffffffff16565b905080821115612f9c57612f4f8183613f86565b868581518110612f6157612f61613e13565b602002602001018181525050612f99868581518110612f8257612f82613e13565b602002602001015186612a5590919063ffffffff16565b94505b50505080612fa990613f0f565b9050612ece565b5060008160000361305f57848015612fca57506000601554115b1561305a5760005b8481101561305857600060098281548110612fef57612fef613e13565b906000526020600020906007020190506000613020600f54610af38460020154601554612a6190919063ffffffff16565b905061302c8482612a55565b600583015490945061303e9082612a55565b6005909201919091555061305181613f0f565b9050612fd2565b505b6132cd565b601554821161320c57841561315c5760008260155461307e9190613f86565b905060005b8581101561315557600085828151811061309f5761309f613e13565b60200260200101511115613145576000600982815481106130c2576130c2613e13565b90600052602060002090600702019050600061311c6130f4600f54610af3856002015488612a6190919063ffffffff16565b88858151811061310657613106613e13565b6020026020010151612a5590919063ffffffff16565b90506131288582612a55565b600583015490955061313a9082612a55565b826005018190555050505b61314e81613f0f565b9050613083565b50506132cd565b60005b8481101561305857600084828151811061317b5761317b613e13565b602002602001015111156131fc5760006009828154811061319e5761319e613e13565b9060005260206000209060070201905060008583815181106131c2576131c2613e13565b602002602001015190506131df8185612a5590919063ffffffff16565b60058301549094506131f19082612a55565b826005018190555050505b61320581613f0f565b905061315f565b60005b848110156132cb57600084828151811061322b5761322b613e13565b602002602001015111156132bb5760006009828154811061324e5761324e613e13565b90600052602060002090600702019050600061329285610af360155489878151811061327c5761327c613e13565b6020026020010151612a6190919063ffffffff16565b905061329e8482612a55565b60058301549094506132b09082612a55565b826005018190555050505b6132c481613f0f565b905061320f565b505b6015546132da908261291d565b6015555050505050565b6001600160a01b038316600090815260056020526040902054613307908261291d565b6001600160a01b0380851660009081526005602052604080822093909355908416815220546133369082612a55565b6001600160a01b0380841660008181526005602052604090819020939093559151908516907fddf252ad1be2c89b69c2b068fc378daa952ba7f163c4a11628f55a4df523b3ef90612ace9085815260200190565b600080600f54116133dd5760405162461bcd60e51b815260206004820152601d60248201527f53746172676174653a204e6f20436861696e50617468732065786973740000006044820152606401610a83565b6133e684612e3b565b90506000831561342b5761340b612710610af360105485612a6190919063ffffffff16565b9050613417828261291d565b6012549092506134279082612a55565b6012555b82156134425760155461343e9083612a55565b6015555b60045482901561346a57613467600e54610af360045486612a6190919063ffffffff16565b90505b600e546134779084612a55565b600e556134848782613670565b604080516001600160a01b038916815260208101839052908101849052606081018390527fb4c03061fb5b7fed76389d5af8f2e0ddb09f8c70d1333abbb62582835e10accb9060800160405180910390a160165460ff16158061350457506134ff612710610af3601854600e54612a6190919063ffffffff16565b601554115b1561351e5760165461351e9062010000900460ff16612e67565b5050949350505050565b6000818484111561354c5760405162461bcd60e51b8152600401610a839190613718565b505050900390565b600080600454116135c35760405162461bcd60e51b815260206004820152603360248201527f53746172676174653a2063616e7420636f6e76657274204c50746f53442077686044820152720656e20746f74616c537570706c79203d3d203606c1b6064820152608401610a83565b610b63600454610af3600e5485612a6190919063ffffffff16565b6001600160a01b038216600090815260056020526040902054613601908261291d565b6001600160a01b038316600090815260056020526040902055600454613627908261291d565b6004556040518181526000906001600160a01b038416907fddf252ad1be2c89b69c2b068fc378daa952ba7f163c4a11628f55a4df523b3ef906020015b60405180910390a35050565b60045461367d9082612a55565b6004556001600160a01b0382166000908152600560205260409020546136a39082612a55565b6001600160a01b0383166000818152600560205260408082209390935591519091907fddf252ad1be2c89b69c2b068fc378daa952ba7f163c4a11628f55a4df523b3ef906136649085815260200190565b60005b8381101561370f5781810151838201526020016136f7565b50506000910152565b60208152600082518060208401526137378160408501602087016136f4565b601f01601f19169190910160400192915050565b803561ffff8116811461375d57600080fd5b919050565b6000806040838503121561377557600080fd5b61377e8361374b565b946020939093013593505050565b80356001600160a01b038116811461375d57600080fd5b600080604083850312156137b657600080fd5b61377e8361378c565b6000806000606084860312156137d457600080fd5b6137dd8461378c565b9250602084013591506137f26040850161378c565b90509250925092565b80151581146117f357600080fd5b60008060008060008060c0878903121561382257600080fd5b61382b8761374b565b9550602087013594506138406040880161378c565b9350606087013592506080870135915060a087013561385e816137fb565b809150509295509295509295565b60008060006060848603121561388157600080fd5b61388a8461374b565b95602085013595506040909401359392505050565b6000806000606084860312156138b457600080fd5b6138bd8461378c565b92506138cb6020850161378c565b9150604084013590509250925092565b6000602082840312156138ed57600080fd5b610cc28261378c565b60006020828403121561390857600080fd5b5035919050565b6000806000806080858703121561392557600080fd5b61392e8561374b565b9350602085013592506139436040860161378c565b9396929550929360600135925050565b60006020828403121561396557600080fd5b8135610cc2816137fb565b634e487b7160e01b600052604160045260246000fd5b60405160c0810167ffffffffffffffff811182821017156139b757634e487b7160e01b600052604160045260246000fd5b60405290565b6000806000808486036101208112156139d557600080fd5b6139de8661374b565b9450602086013593506139f36040870161378c565b925060c0605f1982011215613a0757600080fd5b50613a10613986565b606086013581526080860135602082015260a0860135604082015260c0860135606082015260e0860135608082015261010086013560a08201528091505092959194509250565b600080600060608486031215613a6c57600080fd5b613a758461374b565b9250602084013591506137f26040850161374b565b60008060008060008060a08789031215613aa357600080fd5b613aac8761378c565b955060208701359450613ac16040880161374b565b935060608701359250608087013567ffffffffffffffff80821115613ae557600080fd5b818901915089601f830112613af957600080fd5b813581811115613b0857600080fd5b8a6020828501011115613b1a57600080fd5b6020830194508093505050509295509295509295565b600080600080600060a08688031215613b4857600080fd5b613b518661374b565b945060208601359350613b666040870161378c565b94979396509394606081013594506080013592915050565b60008060008385036080811215613b9457600080fd5b613b9d8561374b565b9350602085013592506040603f1982011215613bb857600080fd5b506040516040810181811067ffffffffffffffff82111715613bea57634e487b7160e01b600052604160045260246000fd5b604090815285013581526060909401356020850152509093909250565b600080600080600080600060e0888a031215613c2257600080fd5b613c2b8861378c565b9650613c396020890161378c565b95506040880135945060608801359350608088013560ff81168114613c5d57600080fd5b9699959850939692959460a0840135945060c09093013592915050565b60008060408385031215613c8d57600080fd5b613c968361378c565b9150613ca46020840161378c565b90509250929050565b600080600080600060a08688031215613cc557600080fd5b8535613cd0816137fb565b945060208601359350604086013592506060860135613cee816137fb565b91506080860135613cfe816137fb565b809150509295509295909350565b600181811c90821680613d2057607f821691505b602082108103613d4057634e487b7160e01b600052602260045260246000fd5b50919050565b6020808252602e908201527f53746172676174653a206f6e6c792074686520726f757465722063616e20636160408201526d1b1b081d1a1a5cc81b595d1a1bd960921b606082015260800190565b60208082526028908201527f53746172676174653a20636f756e74657220636861696e50617468206973206e6040820152676f7420726561647960c01b606082015260800190565b6020808252601d908201527f53746172676174653a205f66726f6d2063616e6e6f7420626520307830000000604082015260600190565b634e487b7160e01b600052603260045260246000fd5b60208082526028908201527f53746172676174653a206c6f63616c20636861696e5061746820646f6573206e6040820152671bdd08195e1a5cdd60c21b606082015260800190565b600060c08284031215613e8357600080fd5b60405160c0810181811067ffffffffffffffff82111715613eb457634e487b7160e01b600052604160045260246000fd5b8060405250825181526020830151602082015260408301516040820152606083015160608201526080830151608082015260a083015160a08201528091505092915050565b634e487b7160e01b600052601160045260246000fd5b600060018201613f2157613f21613ef9565b5060010190565b60018060a01b038816815286602082015285604082015261ffff8516606082015283608082015260c060a08201528160c0820152818360e0830137600081830160e090810191909152601f909201601f191601019695505050505050565b81810381811115610b6357610b63613ef9565b80820180821115610b6357610b63613ef9565b8082028115828204841417610b6357610b63613ef9565b600082613fe057634e487b7160e01b600052601260045260246000fd5b500490565b60008251613ff78184602087016136f4565b9190910192915050565b60006020828403121561401357600080fd5b8151610cc2816137fb56fe45524332303a2064656372656173656420616c6c6f77616e63652062656c6f77207a65726fa2646970667358221220be32f14b462a586c7c3e27fd6c96c571bbc9e0db704a843570879487fd78522564736f6c63430008110033a26469706673582212209247285651d6a5078ed37abe7c30e6cf4bed209da9f14af6959e9f6318d238b864736f6c63430008110033",
    "linkReferences": {}
  },
  "methodIdentifiers": {
    "allPools(uint256)": "41d1de97",
    "allPoolsLength()": "efde4e64",
    "createPool(uint256,address,uint8,uint8,string,string)": "7af935a1",
    "defaultFeeLibrary()": "be5a3c00",
    "getPool(uint256)": "068bcd8d",
    "owner()": "8da5cb5b",
    "renounceOwnership()": "715018a6",
    "router()": "f887ea40",
    "setDefaultFeeLibrary(address)": "c63f57aa",
    "transferOwnership(address)": "f2fde38b"
  },
  "id": 62
}