{
  "abi": [
    {
      "inputs": [
        {
          "internalType": "address[]",
          "name": "_accounts",
          "type": "address[]"
        },
        {
          "internalType": "uint256[]",
          "name": "_shares",
          "type": "uint256[]"
        },
        {
          "internalType": "address",
          "name": "_looksRareToken",
          "type": "address"
        }
      ],
      "stateMutability": "nonpayable",
      "type": "constructor"
    },
    {
      "anonymous": false,
      "inputs": [
        {
          "indexed": true,
          "internalType": "address",
          "name": "oldRecipient",
          "type": "address"
        },
        {
          "indexed": true,
          "internalType": "address",
          "name": "newRecipient",
          "type": "address"
        }
      ],
      "name": "NewSharesOwner",
      "type": "event"
    },
    {
      "anonymous": false,
      "inputs": [
        {
          "indexed": true,
          "internalType": "address",
          "name": "previousOwner",
          "type": "address"
        },
        {
          "indexed": true,
          "internalType": "address",
          "name": "newOwner",
          "type": "address"
        }
      ],
      "name": "OwnershipTransferred",
      "type": "event"
    },
    {
      "anonymous": false,
      "inputs": [
        {
          "indexed": true,
          "internalType": "address",
          "name": "account",
          "type": "address"
        },
        {
          "indexed": false,
          "internalType": "uint256",
          "name": "amount",
          "type": "uint256"
        }
      ],
      "name": "TokensTransferred",
      "type": "event"
    },
    {
      "inputs": [],
      "name": "TOTAL_SHARES",
      "outputs": [
        {
          "internalType": "uint256",
          "name": "",
          "type": "uint256"
        }
      ],
      "stateMutability": "view",
      "type": "function"
    },
    {
      "inputs": [
        {
          "internalType": "address",
          "name": "",
          "type": "address"
        }
      ],
      "name": "accountInfo",
      "outputs": [
        {
          "internalType": "uint256",
          "name": "shares",
          "type": "uint256"
        },
        {
          "internalType": "uint256",
          "name": "tokensDistributedToAccount",
          "type": "uint256"
        }
      ],
      "stateMutability": "view",
      "type": "function"
    },
    {
      "inputs": [
        {
          "internalType": "address",
          "name": "account",
          "type": "address"
        }
      ],
      "name": "calculatePendingRewards",
      "outputs": [
        {
          "internalType": "uint256",
          "name": "",
          "type": "uint256"
        }
      ],
      "stateMutability": "view",
      "type": "function"
    },
    {
      "inputs": [],
      "name": "looksRareToken",
      "outputs": [
        {
          "internalType": "contract IERC20",
          "name": "",
          "type": "address"
        }
      ],
      "stateMutability": "view",
      "type": "function"
    },
    {
      "inputs": [],
      "name": "owner",
      "outputs": [
        {
          "internalType": "address",
          "name": "",
          "type": "address"
        }
      ],
      "stateMutability": "view",
      "type": "function"
    },
    {
      "inputs": [
        {
          "internalType": "address",
          "name": "account",
          "type": "address"
        }
      ],
      "name": "releaseTokens",
      "outputs": [],
      "stateMutability": "nonpayable",
      "type": "function"
    },
    {
      "inputs": [],
      "name": "renounceOwnership",
      "outputs": [],
      "stateMutability": "nonpayable",
      "type": "function"
    },
    {
      "inputs": [],
      "name": "totalTokensDistributed",
      "outputs": [
        {
          "internalType": "uint256",
          "name": "",
          "type": "uint256"
        }
      ],
      "stateMutability": "view",
      "type": "function"
    },
    {
      "inputs": [
        {
          "internalType": "address",
          "name": "newOwner",
          "type": "address"
        }
      ],
      "name": "transferOwnership",
      "outputs": [],
      "stateMutability": "nonpayable",
      "type": "function"
    },
    {
      "inputs": [
        {
          "internalType": "address",
          "name": "_newRecipient",
          "type": "address"
        },
        {
          "internalType": "address",
          "name": "_currentRecipient",
          "type": "address"
        }
      ],
      "name": "updateSharesOwner",
      "outputs": [],
      "stateMutability": "nonpayable",
      "type": "function"
    }
  ],
  "bytecode": {
    "object": "0x60c06040523480156200001157600080fd5b50604051620011823803806200118283398101604081905262000034916200036c565b6200003f336200021d565b6001805581518351146200009a5760405162461bcd60e51b815260206004820152601760248201527f53706c69747465723a204c656e6774682064696666657200000000000000000060448201526064015b60405180910390fd5b6000835111620000ed5760405162461bcd60e51b815260206004820152601c60248201527f53706c69747465723a204c656e677468206d757374206265203e203000000000604482015260640162000091565b6000805b8451811015620002045760008482815181106200011257620001126200044e565b602002602001015111620001695760405162461bcd60e51b815260206004820152601660248201527f53706c69747465723a2053686172657320617265203000000000000000000000604482015260640162000091565b8381815181106200017e576200017e6200044e565b6020026020010151826200019391906200047a565b9150838181518110620001aa57620001aa6200044e565b602002602001015160036000878481518110620001cb57620001cb6200044e565b6020908102919091018101516001600160a01b031682528101919091526040016000205580620001fb8162000496565b915050620000f1565b506080526001600160a01b031660a05250620004b29050565b600080546001600160a01b038381166001600160a01b0319831681178455604051919092169283917f8be0079c531659141344cd1fd0a4f28419497f9722a3daafe3b4186f6b6457e09190a35050565b634e487b7160e01b600052604160045260246000fd5b604051601f8201601f191681016001600160401b0381118282101715620002ae57620002ae6200026d565b604052919050565b60006001600160401b03821115620002d257620002d26200026d565b5060051b60200190565b80516001600160a01b0381168114620002f457600080fd5b919050565b600082601f8301126200030b57600080fd5b81516020620003246200031e83620002b6565b62000283565b82815260059290921b840181019181810190868411156200034457600080fd5b8286015b8481101562000361578051835291830191830162000348565b509695505050505050565b6000806000606084860312156200038257600080fd5b83516001600160401b03808211156200039a57600080fd5b818601915086601f830112620003af57600080fd5b81516020620003c26200031e83620002b6565b82815260059290921b8401810191818101908a841115620003e257600080fd5b948201945b838610156200040b57620003fb86620002dc565b82529482019490820190620003e7565b918901519197509093505050808211156200042557600080fd5b506200043486828701620002f9565b9250506200044560408501620002dc565b90509250925092565b634e487b7160e01b600052603260045260246000fd5b634e487b7160e01b600052601160045260246000fd5b8082018082111562000490576200049062000464565b92915050565b600060018201620004ab57620004ab62000464565b5060010190565b60805160a051610c88620004fa6000396000818160e301528181610213015281816104f9015261067b01526000818161012a015281816102ae01526105940152610c886000f3fe608060405234801561001057600080fd5b506004361061009e5760003560e01c806387b0be481161006657806387b0be481461014c5780638da5cb5b1461015f578063a7310b5814610170578063d8f163ab146101ac578063f2fde38b146101b557600080fd5b8063097aad10146100a357806319281afd146100c957806336db9fb2146100de578063715018a61461011d57806385e3f99714610125575b600080fd5b6100b66100b1366004610ad4565b6101c8565b6040519081526020015b60405180910390f35b6100dc6100d7366004610af6565b6102f4565b005b6101057f000000000000000000000000000000000000000000000000000000000000000081565b6040516001600160a01b0390911681526020016100c0565b6100dc610454565b6100b67f000000000000000000000000000000000000000000000000000000000000000081565b6100dc61015a366004610ad4565b610468565b6000546001600160a01b0316610105565b61019761017e366004610ad4565b6003602052600090815260409020805460019091015482565b604080519283526020830191909152016100c0565b6100b660025481565b6100dc6101c3366004610ad4565b6106f3565b6001600160a01b03811660009081526003602052604081205481036101ef57506000919050565b6002546040516370a0823160e01b8152306004820152600091906001600160a01b037f000000000000000000000000000000000000000000000000000000000000000016906370a0823190602401602060405180830381865afa15801561025a573d6000803e3d6000fd5b505050506040513d601f19601f8201168201806040525081019061027e9190610b29565b6102889190610b58565b6001600160a01b03841660009081526003602052604081206001810154905492935090917f0000000000000000000000000000000000000000000000000000000000000000906102d89085610b71565b6102e29190610b88565b6102ec9190610baa565b949350505050565b6102fc610769565b6001600160a01b0381166000908152600360205260409020546103755760405162461bcd60e51b815260206004820152602660248201527f4f776e65723a2043757272656e7420726563697069656e7420686173206e6f2060448201526573686172657360d01b60648201526084015b60405180910390fd5b6001600160a01b038216600090815260036020526040902054156103ec5760405162461bcd60e51b815260206004820152602860248201527f4f776e65723a204e657720726563697069656e7420686173206578697374696e604482015267672073686172657360c01b606482015260840161036c565b6001600160a01b0380821660008181526003602052604080822080549487168084528284209586556001808301805491909701558484529083905593829055517f47eba4993da31bfed0680c802fb8577f1a9d57bb4c0881372fbe7ad29995a8809190a35050565b61045c610769565b61046660006107c3565b565b610470610813565b6001600160a01b0381166000908152600360205260409020546104d55760405162461bcd60e51b815260206004820152601e60248201527f53706c69747465723a204163636f756e7420686173206e6f2073686172650000604482015260640161036c565b6002546040516370a0823160e01b8152306004820152600091906001600160a01b037f000000000000000000000000000000000000000000000000000000000000000016906370a0823190602401602060405180830381865afa158015610540573d6000803e3d6000fd5b505050506040513d601f19601f820116820180604052508101906105649190610b29565b61056e9190610b58565b6001600160a01b03831660009081526003602052604081206001810154905492935090917f0000000000000000000000000000000000000000000000000000000000000000906105be9085610b71565b6105c89190610b88565b6105d29190610baa565b9050806000036106245760405162461bcd60e51b815260206004820152601d60248201527f53706c69747465723a204e6f7468696e6720746f207472616e73666572000000604482015260640161036c565b6001600160a01b0383166000908152600360205260408120600101805483929061064f908490610b58565b9250508190555080600260008282546106689190610b58565b909155506106a290506001600160a01b037f000000000000000000000000000000000000000000000000000000000000000016848361086c565b826001600160a01b03167f12f4533b5cbd2c9f8a0752a2d0b16379af992dbb2a0844a5007a19d983b3a934826040516106dd91815260200190565b60405180910390a250506106f060018055565b50565b6106fb610769565b6001600160a01b0381166107605760405162461bcd60e51b815260206004820152602660248201527f4f776e61626c653a206e6577206f776e657220697320746865207a65726f206160448201526564647265737360d01b606482015260840161036c565b6106f0816107c3565b6000546001600160a01b031633146104665760405162461bcd60e51b815260206004820181905260248201527f4f776e61626c653a2063616c6c6572206973206e6f7420746865206f776e6572604482015260640161036c565b600080546001600160a01b038381166001600160a01b0319831681178455604051919092169283917f8be0079c531659141344cd1fd0a4f28419497f9722a3daafe3b4186f6b6457e09190a35050565b6002600154036108655760405162461bcd60e51b815260206004820152601f60248201527f5265656e7472616e637947756172643a207265656e7472616e742063616c6c00604482015260640161036c565b6002600155565b604080516001600160a01b038416602482015260448082018490528251808303909101815260649091019091526020810180516001600160e01b031663a9059cbb60e01b1790526108be9084906108c3565b505050565b6000610918826040518060400160405280602081526020017f5361666545524332303a206c6f772d6c6576656c2063616c6c206661696c6564815250856001600160a01b03166109959092919063ffffffff16565b8051909150156108be57808060200190518101906109369190610bbd565b6108be5760405162461bcd60e51b815260206004820152602a60248201527f5361666545524332303a204552433230206f7065726174696f6e20646964206e6044820152691bdd081cdd58d8d9595960b21b606482015260840161036c565b60606102ec848460008585600080866001600160a01b031685876040516109bc9190610c03565b60006040518083038185875af1925050503d80600081146109f9576040519150601f19603f3d011682016040523d82523d6000602084013e6109fe565b606091505b5091509150610a0f87838387610a1a565b979650505050505050565b60608315610a89578251600003610a82576001600160a01b0385163b610a825760405162461bcd60e51b815260206004820152601d60248201527f416464726573733a2063616c6c20746f206e6f6e2d636f6e7472616374000000604482015260640161036c565b50816102ec565b6102ec8383815115610a9e5781518083602001fd5b8060405162461bcd60e51b815260040161036c9190610c1f565b80356001600160a01b0381168114610acf57600080fd5b919050565b600060208284031215610ae657600080fd5b610aef82610ab8565b9392505050565b60008060408385031215610b0957600080fd5b610b1283610ab8565b9150610b2060208401610ab8565b90509250929050565b600060208284031215610b3b57600080fd5b5051919050565b634e487b7160e01b600052601160045260246000fd5b80820180821115610b6b57610b6b610b42565b92915050565b8082028115828204841417610b6b57610b6b610b42565b600082610ba557634e487b7160e01b600052601260045260246000fd5b500490565b81810381811115610b6b57610b6b610b42565b600060208284031215610bcf57600080fd5b81518015158114610aef57600080fd5b60005b83811015610bfa578181015183820152602001610be2565b50506000910152565b60008251610c15818460208701610bdf565b9190910192915050565b6020815260008251806020840152610c3e816040850160208701610bdf565b601f01601f1916919091016040019291505056fea2646970667358221220deb217f37355dd1c228db6b10dd3b2e23ebf620d19cd44f781b2d9f600997edd64736f6c63430008110033",
    "linkReferences": {}
  },
  "methodIdentifiers": {
    "TOTAL_SHARES()": "85e3f997",
    "accountInfo(address)": "a7310b58",
    "calculatePendingRewards(address)": "097aad10",
    "looksRareToken()": "36db9fb2",
    "owner()": "8da5cb5b",
    "releaseTokens(address)": "87b0be48",
    "renounceOwnership()": "715018a6",
    "totalTokensDistributed()": "d8f163ab",
    "transferOwnership(address)": "f2fde38b",
    "updateSharesOwner(address,address)": "19281afd"
  },
  "id": 56
}