{
  "abi": [
    {
      "inputs": [
        {
          "internalType": "address",
          "name": "_looksRareToken",
          "type": "address"
        }
      ],
      "stateMutability": "nonpayable",
      "type": "constructor"
    },
    {
      "anonymous": false,
      "inputs": [
        {
          "indexed": true,
          "internalType": "address",
          "name": "previousOwner",
          "type": "address"
        },
        {
          "indexed": true,
          "internalType": "address",
          "name": "newOwner",
          "type": "address"
        }
      ],
      "name": "OwnershipTransferred",
      "type": "event"
    },
    {
      "anonymous": false,
      "inputs": [
        {
          "indexed": false,
          "internalType": "address",
          "name": "account",
          "type": "address"
        }
      ],
      "name": "Paused",
      "type": "event"
    },
    {
      "anonymous": false,
      "inputs": [
        {
          "indexed": true,
          "internalType": "address",
          "name": "user",
          "type": "address"
        },
        {
          "indexed": true,
          "internalType": "uint256",
          "name": "rewardRound",
          "type": "uint256"
        },
        {
          "indexed": false,
          "internalType": "uint256",
          "name": "amount",
          "type": "uint256"
        }
      ],
      "name": "RewardsClaim",
      "type": "event"
    },
    {
      "anonymous": false,
      "inputs": [
        {
          "indexed": false,
          "internalType": "uint256",
          "name": "amount",
          "type": "uint256"
        }
      ],
      "name": "TokenWithdrawnOwner",
      "type": "event"
    },
    {
      "anonymous": false,
      "inputs": [
        {
          "indexed": false,
          "internalType": "address",
          "name": "account",
          "type": "address"
        }
      ],
      "name": "Unpaused",
      "type": "event"
    },
    {
      "anonymous": false,
      "inputs": [
        {
          "indexed": true,
          "internalType": "uint256",
          "name": "rewardRound",
          "type": "uint256"
        }
      ],
      "name": "UpdateTradingRewards",
      "type": "event"
    },
    {
      "inputs": [],
      "name": "BUFFER_ADMIN_WITHDRAW",
      "outputs": [
        {
          "internalType": "uint256",
          "name": "",
          "type": "uint256"
        }
      ],
      "stateMutability": "view",
      "type": "function"
    },
    {
      "inputs": [
        {
          "internalType": "address",
          "name": "",
          "type": "address"
        }
      ],
      "name": "amountClaimedByUser",
      "outputs": [
        {
          "internalType": "uint256",
          "name": "",
          "type": "uint256"
        }
      ],
      "stateMutability": "view",
      "type": "function"
    },
    {
      "inputs": [
        {
          "internalType": "address",
          "name": "user",
          "type": "address"
        },
        {
          "internalType": "uint256",
          "name": "amount",
          "type": "uint256"
        },
        {
          "internalType": "bytes32[]",
          "name": "merkleProof",
          "type": "bytes32[]"
        }
      ],
      "name": "canClaim",
      "outputs": [
        {
          "internalType": "bool",
          "name": "",
          "type": "bool"
        },
        {
          "internalType": "uint256",
          "name": "",
          "type": "uint256"
        }
      ],
      "stateMutability": "view",
      "type": "function"
    },
    {
      "inputs": [
        {
          "internalType": "uint256",
          "name": "amount",
          "type": "uint256"
        },
        {
          "internalType": "bytes32[]",
          "name": "merkleProof",
          "type": "bytes32[]"
        }
      ],
      "name": "claim",
      "outputs": [],
      "stateMutability": "nonpayable",
      "type": "function"
    },
    {
      "inputs": [],
      "name": "currentRewardRound",
      "outputs": [
        {
          "internalType": "uint256",
          "name": "",
          "type": "uint256"
        }
      ],
      "stateMutability": "view",
      "type": "function"
    },
    {
      "inputs": [
        {
          "internalType": "uint256",
          "name": "",
          "type": "uint256"
        },
        {
          "internalType": "address",
          "name": "",
          "type": "address"
        }
      ],
      "name": "hasUserClaimedForRewardRound",
      "outputs": [
        {
          "internalType": "bool",
          "name": "",
          "type": "bool"
        }
      ],
      "stateMutability": "view",
      "type": "function"
    },
    {
      "inputs": [],
      "name": "lastPausedTimestamp",
      "outputs": [
        {
          "internalType": "uint256",
          "name": "",
          "type": "uint256"
        }
      ],
      "stateMutability": "view",
      "type": "function"
    },
    {
      "inputs": [],
      "name": "looksRareToken",
      "outputs": [
        {
          "internalType": "contract IERC20",
          "name": "",
          "type": "address"
        }
      ],
      "stateMutability": "view",
      "type": "function"
    },
    {
      "inputs": [],
      "name": "maximumAmountPerUserInCurrentTree",
      "outputs": [
        {
          "internalType": "uint256",
          "name": "",
          "type": "uint256"
        }
      ],
      "stateMutability": "view",
      "type": "function"
    },
    {
      "inputs": [
        {
          "internalType": "uint256",
          "name": "",
          "type": "uint256"
        }
      ],
      "name": "merkleRootOfRewardRound",
      "outputs": [
        {
          "internalType": "bytes32",
          "name": "",
          "type": "bytes32"
        }
      ],
      "stateMutability": "view",
      "type": "function"
    },
    {
      "inputs": [
        {
          "internalType": "bytes32",
          "name": "",
          "type": "bytes32"
        }
      ],
      "name": "merkleRootUsed",
      "outputs": [
        {
          "internalType": "bool",
          "name": "",
          "type": "bool"
        }
      ],
      "stateMutability": "view",
      "type": "function"
    },
    {
      "inputs": [],
      "name": "owner",
      "outputs": [
        {
          "internalType": "address",
          "name": "",
          "type": "address"
        }
      ],
      "stateMutability": "view",
      "type": "function"
    },
    {
      "inputs": [],
      "name": "pauseDistribution",
      "outputs": [],
      "stateMutability": "nonpayable",
      "type": "function"
    },
    {
      "inputs": [],
      "name": "paused",
      "outputs": [
        {
          "internalType": "bool",
          "name": "",
          "type": "bool"
        }
      ],
      "stateMutability": "view",
      "type": "function"
    },
    {
      "inputs": [],
      "name": "renounceOwnership",
      "outputs": [],
      "stateMutability": "nonpayable",
      "type": "function"
    },
    {
      "inputs": [
        {
          "internalType": "address",
          "name": "newOwner",
          "type": "address"
        }
      ],
      "name": "transferOwnership",
      "outputs": [],
      "stateMutability": "nonpayable",
      "type": "function"
    },
    {
      "inputs": [],
      "name": "unpauseDistribution",
      "outputs": [],
      "stateMutability": "nonpayable",
      "type": "function"
    },
    {
      "inputs": [
        {
          "internalType": "bytes32",
          "name": "merkleRoot",
          "type": "bytes32"
        },
        {
          "internalType": "uint256",
          "name": "newMaximumAmountPerUser",
          "type": "uint256"
        }
      ],
      "name": "updateTradingRewards",
      "outputs": [],
      "stateMutability": "nonpayable",
      "type": "function"
    },
    {
      "inputs": [
        {
          "internalType": "uint256",
          "name": "amount",
          "type": "uint256"
        }
      ],
      "name": "withdrawTokenRewards",
      "outputs": [],
      "stateMutability": "nonpayable",
      "type": "function"
    }
  ],
  "bytecode": {
    "object": "0x60a060405234801561001057600080fd5b506040516200125e3803806200125e8339810160408190526100319161015b565b6000805460ff191690556001805561004833610063565b6001600160a01b03811660805261005d6100b5565b5061018b565b600280546001600160a01b038381166001600160a01b0319831681179093556040519116919082907f8be0079c531659141344cd1fd0a4f28419497f9722a3daafe3b4186f6b6457e090600090a35050565b6100bd61010f565b6000805460ff191660011790557f62e78cea01bee320cd4e420270b5ea74000d11b0c9f74754ebdbfc544b05a2586100f23390565b6040516001600160a01b03909116815260200160405180910390a1565b60005460ff16156101595760405162461bcd60e51b815260206004820152601060248201526f14185d5cd8589b194e881c185d5cd95960821b604482015260640160405180910390fd5b565b60006020828403121561016d57600080fd5b81516001600160a01b038116811461018457600080fd5b9392505050565b6080516110a9620001b56000396000818161016e01528181610464015261065a01526110a96000f3fe608060405234801561001057600080fd5b50600436106101215760003560e01c8063847fadca116100ad578063ba42590d11610071578063ba42590d14610274578063dc38bdb514610297578063f2fde38b146102c1578063fa461974146102d4578063ff0a4eb0146102dd57600080fd5b8063847fadca146102075780638923e2f71461021a5780638da5cb5b1461022d5780639ea76f341461023e578063b94ec9d01461026c57600080fd5b806336db9fb2116100f457806336db9fb2146101695780633b66f49d146101a85780635c975abb146101c8578063715018a6146101df57806384483c86146101e757600080fd5b80631040faf914610126578063141fd8c8146101425780632f52ebb71461014c57806331cec7a314610161575b600080fd5b61012f60035481565b6040519081526020015b60405180910390f35b61012f6203f48081565b61015f61015a366004610e2f565b6102e6565b005b61015f6104d3565b6101907f000000000000000000000000000000000000000000000000000000000000000081565b6040516001600160a01b039091168152602001610139565b61012f6101b6366004610e97565b60066020526000908152604090205481565b60005460ff165b6040519015158152602001610139565b61015f6104f1565b61012f6101f5366004610eb2565b60076020526000908152604090205481565b61015f610215366004610ecb565b610503565b61015f610228366004610eb2565b6105de565b6002546001600160a01b0316610190565b6101cf61024c366004610eed565b600960209081526000928352604080842090915290825290205460ff1681565b61015f6106b7565b6101cf610282366004610eb2565b60086020526000908152604090205460ff1681565b6102aa6102a5366004610f19565b6106cf565b604080519215158352602083019190915201610139565b61015f6102cf366004610e97565b6106ec565b61012f60045481565b61012f60055481565b6102ee610765565b6102f66107ab565b600354600090815260096020908152604080832033845290915290205460ff16156103685760405162461bcd60e51b815260206004820152601860248201527f526577617264733a20416c726561647920636c61696d6564000000000000000060448201526064015b60405180910390fd5b60008061037733868686610804565b91509150816103c15760405162461bcd60e51b81526020600482015260166024820152752932bbb0b932399d1024b73b30b634b210383937b7b360511b604482015260640161035f565b8460055410156104135760405162461bcd60e51b815260206004820152601f60248201527f526577617264733a20416d6f756e7420686967686572207468616e206d617800604482015260640161035f565b60035460009081526009602090815260408083203384528252808320805460ff19166001179055600690915281208054839290610451908490610f89565b9091555061048b90506001600160a01b037f0000000000000000000000000000000000000000000000000000000000000000163383610910565b60035460405182815233907fe8dbd8c18906df11a70832fe7c874d1fddf6952cee2320658d669256183879999060200160405180910390a350506104ce60018055565b505050565b6104db610962565b6104e3610765565b426004556104ef6109bc565b565b6104f9610962565b6104ef6000610a16565b61050b610962565b60008281526008602052604090205460ff161561056a5760405162461bcd60e51b815260206004820152601f60248201527f4f776e65723a204d65726b6c6520726f6f7420616c7265616479207573656400604482015260640161035f565b6003805490600061057a83610f9c565b90915550506003805460009081526007602090815260408083208690558583526008909152808220805460ff191660011790556005849055915491517f0b1d6b49e69d133866d064a73f0181e1e35aa94fde3ef0095587d7ebd0423caa9190a25050565b6105e6610962565b6105ee610a68565b6203f4806004546105ff9190610f89565b421161064d5760405162461bcd60e51b815260206004820152601c60248201527f4f776e65723a20546f6f206561726c7920746f20776974686472617700000000604482015260640161035f565b6106816001600160a01b037f0000000000000000000000000000000000000000000000000000000000000000163383610910565b6040518181527fb4cd5c4a08bbed33abfe773ece179d156730e39629e065b7dcd8263027387c1d9060200160405180910390a150565b6106bf610962565b6106c7610a68565b6104ef610ab1565b6000806106de86868686610804565b915091505b94509492505050565b6106f4610962565b6001600160a01b0381166107595760405162461bcd60e51b815260206004820152602660248201527f4f776e61626c653a206e6577206f776e657220697320746865207a65726f206160448201526564647265737360d01b606482015260840161035f565b61076281610a16565b50565b60005460ff16156104ef5760405162461bcd60e51b815260206004820152601060248201526f14185d5cd8589b194e881c185d5cd95960821b604482015260640161035f565b6002600154036107fd5760405162461bcd60e51b815260206004820152601f60248201527f5265656e7472616e637947756172643a207265656e7472616e742063616c6c00604482015260640161035f565b6002600155565b6040516bffffffffffffffffffffffff19606086901b1660208201526034810184905260009081908190605401604051602081830303815290604052805190602001209050600061089886868080602002602001604051908101604052809392919081815260200183836020028082843760009201829052506003548152600760205260409020549250869150610aea9050565b90508015806108cc575060035460009081526009602090815260408083206001600160a01b038c16845290915290205460ff165b156108df576000809350935050506106e3565b6001600160a01b0388166000908152600660205260409020546001906109059089610fb5565b9350935050506106e3565b604080516001600160a01b038416602482015260448082018490528251808303909101815260649091019091526020810180516001600160e01b031663a9059cbb60e01b1790526104ce908490610b00565b6002546001600160a01b031633146104ef5760405162461bcd60e51b815260206004820181905260248201527f4f776e61626c653a2063616c6c6572206973206e6f7420746865206f776e6572604482015260640161035f565b6109c4610765565b6000805460ff191660011790557f62e78cea01bee320cd4e420270b5ea74000d11b0c9f74754ebdbfc544b05a2586109f93390565b6040516001600160a01b03909116815260200160405180910390a1565b600280546001600160a01b038381166001600160a01b0319831681179093556040519116919082907f8be0079c531659141344cd1fd0a4f28419497f9722a3daafe3b4186f6b6457e090600090a35050565b60005460ff166104ef5760405162461bcd60e51b815260206004820152601460248201527314185d5cd8589b194e881b9bdd081c185d5cd95960621b604482015260640161035f565b610ab9610a68565b6000805460ff191690557f5db9ee0a495bf2e6ff9c91a7834c1ba4fdd244a5e8aa4e537bd38aeae4b073aa336109f9565b600082610af78584610bd2565b14949350505050565b6000610b55826040518060400160405280602081526020017f5361666545524332303a206c6f772d6c6576656c2063616c6c206661696c6564815250856001600160a01b0316610c219092919063ffffffff16565b8051909150156104ce5780806020019051810190610b739190610fc8565b6104ce5760405162461bcd60e51b815260206004820152602a60248201527f5361666545524332303a204552433230206f7065726174696f6e20646964206e6044820152691bdd081cdd58d8d9595960b21b606482015260840161035f565b600081815b8451811015610c1757610c0382868381518110610bf657610bf6610fea565b6020026020010151610c38565b915080610c0f81610f9c565b915050610bd7565b5090505b92915050565b6060610c308484600085610c6a565b949350505050565b6000818310610c54576000828152602084905260409020610c63565b60008381526020839052604090205b9392505050565b606082471015610ccb5760405162461bcd60e51b815260206004820152602660248201527f416464726573733a20696e73756666696369656e742062616c616e636520666f6044820152651c8818d85b1b60d21b606482015260840161035f565b600080866001600160a01b03168587604051610ce79190611024565b60006040518083038185875af1925050503d8060008114610d24576040519150601f19603f3d011682016040523d82523d6000602084013e610d29565b606091505b5091509150610d3a87838387610d45565b979650505050505050565b60608315610db4578251600003610dad576001600160a01b0385163b610dad5760405162461bcd60e51b815260206004820152601d60248201527f416464726573733a2063616c6c20746f206e6f6e2d636f6e7472616374000000604482015260640161035f565b5081610c30565b610c308383815115610dc95781518083602001fd5b8060405162461bcd60e51b815260040161035f9190611040565b60008083601f840112610df557600080fd5b50813567ffffffffffffffff811115610e0d57600080fd5b6020830191508360208260051b8501011115610e2857600080fd5b9250929050565b600080600060408486031215610e4457600080fd5b83359250602084013567ffffffffffffffff811115610e6257600080fd5b610e6e86828701610de3565b9497909650939450505050565b80356001600160a01b0381168114610e9257600080fd5b919050565b600060208284031215610ea957600080fd5b610c6382610e7b565b600060208284031215610ec457600080fd5b5035919050565b60008060408385031215610ede57600080fd5b50508035926020909101359150565b60008060408385031215610f0057600080fd5b82359150610f1060208401610e7b565b90509250929050565b60008060008060608587031215610f2f57600080fd5b610f3885610e7b565b935060208501359250604085013567ffffffffffffffff811115610f5b57600080fd5b610f6787828801610de3565b95989497509550505050565b634e487b7160e01b600052601160045260246000fd5b80820180821115610c1b57610c1b610f73565b600060018201610fae57610fae610f73565b5060010190565b81810381811115610c1b57610c1b610f73565b600060208284031215610fda57600080fd5b81518015158114610c6357600080fd5b634e487b7160e01b600052603260045260246000fd5b60005b8381101561101b578181015183820152602001611003565b50506000910152565b60008251611036818460208701611000565b9190910192915050565b602081526000825180602084015261105f816040850160208701611000565b601f01601f1916919091016040019291505056fea2646970667358221220ec30c54a777984f09662676f66b8d6709537f4817dbf2dacd383c7d7c51da67464736f6c63430008110033",
    "linkReferences": {}
  },
  "methodIdentifiers": {
    "BUFFER_ADMIN_WITHDRAW()": "141fd8c8",
    "amountClaimedByUser(address)": "3b66f49d",
    "canClaim(address,uint256,bytes32[])": "dc38bdb5",
    "claim(uint256,bytes32[])": "2f52ebb7",
    "currentRewardRound()": "1040faf9",
    "hasUserClaimedForRewardRound(uint256,address)": "9ea76f34",
    "lastPausedTimestamp()": "fa461974",
    "looksRareToken()": "36db9fb2",
    "maximumAmountPerUserInCurrentTree()": "ff0a4eb0",
    "merkleRootOfRewardRound(uint256)": "84483c86",
    "merkleRootUsed(bytes32)": "ba42590d",
    "owner()": "8da5cb5b",
    "pauseDistribution()": "31cec7a3",
    "paused()": "5c975abb",
    "renounceOwnership()": "715018a6",
    "transferOwnership(address)": "f2fde38b",
    "unpauseDistribution()": "b94ec9d0",
    "updateTradingRewards(bytes32,uint256)": "847fadca",
    "withdrawTokenRewards(uint256)": "8923e2f7"
  },
  "id": 57
}