{
  "abi": [
    {
      "inputs": [
        {
          "internalType": "address",
          "name": "_layerZeroEndpoint",
          "type": "address"
        },
        {
          "internalType": "string",
          "name": "_baseTokenURI",
          "type": "string"
        },
        {
          "internalType": "string",
          "name": "_hiddenURI",
          "type": "string"
        },
        {
          "internalType": "uint256",
          "name": "_tax",
          "type": "uint256"
        },
        {
          "internalType": "address",
          "name": "_taxRecipient",
          "type": "address"
        }
      ],
      "stateMutability": "nonpayable",
      "type": "constructor"
    },
    {
      "inputs": [
        {
          "internalType": "address",
          "name": "operator",
          "type": "address"
        }
      ],
      "name": "OperatorNotAllowed",
      "type": "error"
    },
    {
      "anonymous": false,
      "inputs": [
        {
          "indexed": true,
          "internalType": "address",
          "name": "account",
          "type": "address"
        },
        {
          "indexed": true,
          "internalType": "address",
          "name": "operator",
          "type": "address"
        },
        {
          "indexed": false,
          "internalType": "bool",
          "name": "approved",
          "type": "bool"
        }
      ],
      "name": "ApprovalForAll",
      "type": "event"
    },
    {
      "anonymous": false,
      "inputs": [
        {
          "indexed": false,
          "internalType": "uint16",
          "name": "_srcChainId",
          "type": "uint16"
        },
        {
          "indexed": false,
          "internalType": "bytes",
          "name": "_srcAddress",
          "type": "bytes"
        },
        {
          "indexed": false,
          "internalType": "uint64",
          "name": "_nonce",
          "type": "uint64"
        },
        {
          "indexed": false,
          "internalType": "bytes",
          "name": "_payload",
          "type": "bytes"
        },
        {
          "indexed": false,
          "internalType": "bytes",
          "name": "_reason",
          "type": "bytes"
        }
      ],
      "name": "MessageFailed",
      "type": "event"
    },
    {
      "anonymous": false,
      "inputs": [
        {
          "indexed": true,
          "internalType": "address",
          "name": "previousOwner",
          "type": "address"
        },
        {
          "indexed": true,
          "internalType": "address",
          "name": "newOwner",
          "type": "address"
        }
      ],
      "name": "OwnershipTransferred",
      "type": "event"
    },
    {
      "anonymous": false,
      "inputs": [
        {
          "indexed": true,
          "internalType": "uint16",
          "name": "_srcChainId",
          "type": "uint16"
        },
        {
          "indexed": true,
          "internalType": "bytes",
          "name": "_srcAddress",
          "type": "bytes"
        },
        {
          "indexed": true,
          "internalType": "address",
          "name": "_toAddress",
          "type": "address"
        },
        {
          "indexed": false,
          "internalType": "uint256[]",
          "name": "_tokenIds",
          "type": "uint256[]"
        },
        {
          "indexed": false,
          "internalType": "uint256[]",
          "name": "_amounts",
          "type": "uint256[]"
        },
        {
          "indexed": false,
          "internalType": "uint64",
          "name": "_nonce",
          "type": "uint64"
        }
      ],
      "name": "ReceiveBatchFromChain",
      "type": "event"
    },
    {
      "anonymous": false,
      "inputs": [
        {
          "indexed": true,
          "internalType": "uint16",
          "name": "_srcChainId",
          "type": "uint16"
        },
        {
          "indexed": true,
          "internalType": "bytes",
          "name": "_srcAddress",
          "type": "bytes"
        },
        {
          "indexed": true,
          "internalType": "address",
          "name": "_toAddress",
          "type": "address"
        },
        {
          "indexed": false,
          "internalType": "uint256",
          "name": "_tokenId",
          "type": "uint256"
        },
        {
          "indexed": false,
          "internalType": "uint256",
          "name": "_amount",
          "type": "uint256"
        },
        {
          "indexed": false,
          "internalType": "uint64",
          "name": "_nonce",
          "type": "uint64"
        }
      ],
      "name": "ReceiveFromChain",
      "type": "event"
    },
    {
      "anonymous": false,
      "inputs": [
        {
          "indexed": false,
          "internalType": "uint16",
          "name": "_srcChainId",
          "type": "uint16"
        },
        {
          "indexed": false,
          "internalType": "bytes",
          "name": "_srcAddress",
          "type": "bytes"
        },
        {
          "indexed": false,
          "internalType": "uint64",
          "name": "_nonce",
          "type": "uint64"
        },
        {
          "indexed": false,
          "internalType": "bytes32",
          "name": "_payloadHash",
          "type": "bytes32"
        }
      ],
      "name": "RetryMessageSuccess",
      "type": "event"
    },
    {
      "anonymous": false,
      "inputs": [
        {
          "indexed": true,
          "internalType": "address",
          "name": "_sender",
          "type": "address"
        },
        {
          "indexed": true,
          "internalType": "uint16",
          "name": "_dstChainId",
          "type": "uint16"
        },
        {
          "indexed": true,
          "internalType": "bytes",
          "name": "_toAddress",
          "type": "bytes"
        },
        {
          "indexed": false,
          "internalType": "uint256[]",
          "name": "_tokenIds",
          "type": "uint256[]"
        },
        {
          "indexed": false,
          "internalType": "uint256[]",
          "name": "_amounts",
          "type": "uint256[]"
        },
        {
          "indexed": false,
          "internalType": "uint64",
          "name": "_nonce",
          "type": "uint64"
        }
      ],
      "name": "SendBatchToChain",
      "type": "event"
    },
    {
      "anonymous": false,
      "inputs": [
        {
          "indexed": true,
          "internalType": "address",
          "name": "_sender",
          "type": "address"
        },
        {
          "indexed": true,
          "internalType": "uint16",
          "name": "_dstChainId",
          "type": "uint16"
        },
        {
          "indexed": true,
          "internalType": "bytes",
          "name": "_toAddress",
          "type": "bytes"
        },
        {
          "indexed": false,
          "internalType": "uint256",
          "name": "_tokenId",
          "type": "uint256"
        },
        {
          "indexed": false,
          "internalType": "uint256",
          "name": "_amount",
          "type": "uint256"
        },
        {
          "indexed": false,
          "internalType": "uint64",
          "name": "_nonce",
          "type": "uint64"
        }
      ],
      "name": "SendToChain",
      "type": "event"
    },
    {
      "anonymous": false,
      "inputs": [
        {
          "indexed": false,
          "internalType": "uint16",
          "name": "_dstChainId",
          "type": "uint16"
        },
        {
          "indexed": false,
          "internalType": "uint16",
          "name": "_type",
          "type": "uint16"
        },
        {
          "indexed": false,
          "internalType": "uint256",
          "name": "_minDstGas",
          "type": "uint256"
        }
      ],
      "name": "SetMinDstGas",
      "type": "event"
    },
    {
      "anonymous": false,
      "inputs": [
        {
          "indexed": false,
          "internalType": "address",
          "name": "precrime",
          "type": "address"
        }
      ],
      "name": "SetPrecrime",
      "type": "event"
    },
    {
      "anonymous": false,
      "inputs": [
        {
          "indexed": false,
          "internalType": "uint16",
          "name": "_remoteChainId",
          "type": "uint16"
        },
        {
          "indexed": false,
          "internalType": "bytes",
          "name": "_path",
          "type": "bytes"
        }
      ],
      "name": "SetTrustedRemote",
      "type": "event"
    },
    {
      "anonymous": false,
      "inputs": [
        {
          "indexed": false,
          "internalType": "uint16",
          "name": "_remoteChainId",
          "type": "uint16"
        },
        {
          "indexed": false,
          "internalType": "bytes",
          "name": "_remoteAddress",
          "type": "bytes"
        }
      ],
      "name": "SetTrustedRemoteAddress",
      "type": "event"
    },
    {
      "anonymous": false,
      "inputs": [
        {
          "indexed": true,
          "internalType": "address",
          "name": "operator",
          "type": "address"
        },
        {
          "indexed": true,
          "internalType": "address",
          "name": "from",
          "type": "address"
        },
        {
          "indexed": true,
          "internalType": "address",
          "name": "to",
          "type": "address"
        },
        {
          "indexed": false,
          "internalType": "uint256[]",
          "name": "ids",
          "type": "uint256[]"
        },
        {
          "indexed": false,
          "internalType": "uint256[]",
          "name": "values",
          "type": "uint256[]"
        }
      ],
      "name": "TransferBatch",
      "type": "event"
    },
    {
      "anonymous": false,
      "inputs": [
        {
          "indexed": true,
          "internalType": "address",
          "name": "operator",
          "type": "address"
        },
        {
          "indexed": true,
          "internalType": "address",
          "name": "from",
          "type": "address"
        },
        {
          "indexed": true,
          "internalType": "address",
          "name": "to",
          "type": "address"
        },
        {
          "indexed": false,
          "internalType": "uint256",
          "name": "id",
          "type": "uint256"
        },
        {
          "indexed": false,
          "internalType": "uint256",
          "name": "value",
          "type": "uint256"
        }
      ],
      "name": "TransferSingle",
      "type": "event"
    },
    {
      "anonymous": false,
      "inputs": [
        {
          "indexed": false,
          "internalType": "string",
          "name": "value",
          "type": "string"
        },
        {
          "indexed": true,
          "internalType": "uint256",
          "name": "id",
          "type": "uint256"
        }
      ],
      "name": "URI",
      "type": "event"
    },
    {
      "inputs": [],
      "name": "DEFAULT_PAYLOAD_SIZE_LIMIT",
      "outputs": [
        {
          "internalType": "uint256",
          "name": "",
          "type": "uint256"
        }
      ],
      "stateMutability": "view",
      "type": "function"
    },
    {
      "inputs": [],
      "name": "OPERATOR_FILTER_REGISTRY",
      "outputs": [
        {
          "internalType": "contract IOperatorFilterRegistry",
          "name": "",
          "type": "address"
        }
      ],
      "stateMutability": "view",
      "type": "function"
    },
    {
      "inputs": [],
      "name": "_publicSaleStarted",
      "outputs": [
        {
          "internalType": "bool",
          "name": "",
          "type": "bool"
        }
      ],
      "stateMutability": "view",
      "type": "function"
    },
    {
      "inputs": [],
      "name": "_saleStarted",
      "outputs": [
        {
          "internalType": "bool",
          "name": "",
          "type": "bool"
        }
      ],
      "stateMutability": "view",
      "type": "function"
    },
    {
      "inputs": [
        {
          "internalType": "address",
          "name": "account",
          "type": "address"
        },
        {
          "internalType": "uint256",
          "name": "id",
          "type": "uint256"
        }
      ],
      "name": "balanceOf",
      "outputs": [
        {
          "internalType": "uint256",
          "name": "",
          "type": "uint256"
        }
      ],
      "stateMutability": "view",
      "type": "function"
    },
    {
      "inputs": [
        {
          "internalType": "address[]",
          "name": "accounts",
          "type": "address[]"
        },
        {
          "internalType": "uint256[]",
          "name": "ids",
          "type": "uint256[]"
        }
      ],
      "name": "balanceOfBatch",
      "outputs": [
        {
          "internalType": "uint256[]",
          "name": "",
          "type": "uint256[]"
        }
      ],
      "stateMutability": "view",
      "type": "function"
    },
    {
      "inputs": [],
      "name": "contractURI",
      "outputs": [
        {
          "internalType": "string",
          "name": "",
          "type": "string"
        }
      ],
      "stateMutability": "view",
      "type": "function"
    },
    {
      "inputs": [
        {
          "internalType": "uint16",
          "name": "_dstChainId",
          "type": "uint16"
        },
        {
          "internalType": "bytes",
          "name": "_toAddress",
          "type": "bytes"
        },
        {
          "internalType": "uint256[]",
          "name": "_tokenIds",
          "type": "uint256[]"
        },
        {
          "internalType": "uint256[]",
          "name": "_amounts",
          "type": "uint256[]"
        },
        {
          "internalType": "bool",
          "name": "_useZro",
          "type": "bool"
        },
        {
          "internalType": "bytes",
          "name": "_adapterParams",
          "type": "bytes"
        }
      ],
      "name": "estimateSendBatchFee",
      "outputs": [
        {
          "internalType": "uint256",
          "name": "nativeFee",
          "type": "uint256"
        },
        {
          "internalType": "uint256",
          "name": "zroFee",
          "type": "uint256"
        }
      ],
      "stateMutability": "view",
      "type": "function"
    },
    {
      "inputs": [
        {
          "internalType": "uint16",
          "name": "_dstChainId",
          "type": "uint16"
        },
        {
          "internalType": "bytes",
          "name": "_toAddress",
          "type": "bytes"
        },
        {
          "internalType": "uint256",
          "name": "_tokenId",
          "type": "uint256"
        },
        {
          "internalType": "uint256",
          "name": "_amount",
          "type": "uint256"
        },
        {
          "internalType": "bool",
          "name": "_useZro",
          "type": "bool"
        },
        {
          "internalType": "bytes",
          "name": "_adapterParams",
          "type": "bytes"
        }
      ],
      "name": "estimateSendFee",
      "outputs": [
        {
          "internalType": "uint256",
          "name": "nativeFee",
          "type": "uint256"
        },
        {
          "internalType": "uint256",
          "name": "zroFee",
          "type": "uint256"
        }
      ],
      "stateMutability": "view",
      "type": "function"
    },
    {
      "inputs": [
        {
          "internalType": "uint256",
          "name": "id",
          "type": "uint256"
        }
      ],
      "name": "exists",
      "outputs": [
        {
          "internalType": "bool",
          "name": "",
          "type": "bool"
        }
      ],
      "stateMutability": "view",
      "type": "function"
    },
    {
      "inputs": [
        {
          "internalType": "uint16",
          "name": "",
          "type": "uint16"
        },
        {
          "internalType": "bytes",
          "name": "",
          "type": "bytes"
        },
        {
          "internalType": "uint64",
          "name": "",
          "type": "uint64"
        }
      ],
      "name": "failedMessages",
      "outputs": [
        {
          "internalType": "bytes32",
          "name": "",
          "type": "bytes32"
        }
      ],
      "stateMutability": "view",
      "type": "function"
    },
    {
      "inputs": [],
      "name": "flipPublicSaleStarted",
      "outputs": [],
      "stateMutability": "nonpayable",
      "type": "function"
    },
    {
      "inputs": [],
      "name": "flipRevealed",
      "outputs": [],
      "stateMutability": "nonpayable",
      "type": "function"
    },
    {
      "inputs": [],
      "name": "flipSaleStarted",
      "outputs": [],
      "stateMutability": "nonpayable",
      "type": "function"
    },
    {
      "inputs": [
        {
          "internalType": "uint16",
          "name": "_srcChainId",
          "type": "uint16"
        },
        {
          "internalType": "bytes",
          "name": "_srcAddress",
          "type": "bytes"
        }
      ],
      "name": "forceResumeReceive",
      "outputs": [],
      "stateMutability": "nonpayable",
      "type": "function"
    },
    {
      "inputs": [
        {
          "internalType": "uint16",
          "name": "_version",
          "type": "uint16"
        },
        {
          "internalType": "uint16",
          "name": "_chainId",
          "type": "uint16"
        },
        {
          "internalType": "address",
          "name": "",
          "type": "address"
        },
        {
          "internalType": "uint256",
          "name": "_configType",
          "type": "uint256"
        }
      ],
      "name": "getConfig",
      "outputs": [
        {
          "internalType": "bytes",
          "name": "",
          "type": "bytes"
        }
      ],
      "stateMutability": "view",
      "type": "function"
    },
    {
      "inputs": [
        {
          "internalType": "uint16",
          "name": "_remoteChainId",
          "type": "uint16"
        }
      ],
      "name": "getTrustedRemoteAddress",
      "outputs": [
        {
          "internalType": "bytes",
          "name": "",
          "type": "bytes"
        }
      ],
      "stateMutability": "view",
      "type": "function"
    },
    {
      "inputs": [
        {
          "internalType": "address",
          "name": "account",
          "type": "address"
        },
        {
          "internalType": "address",
          "name": "operator",
          "type": "address"
        }
      ],
      "name": "isApprovedForAll",
      "outputs": [
        {
          "internalType": "bool",
          "name": "",
          "type": "bool"
        }
      ],
      "stateMutability": "view",
      "type": "function"
    },
    {
      "inputs": [
        {
          "internalType": "uint16",
          "name": "_srcChainId",
          "type": "uint16"
        },
        {
          "internalType": "bytes",
          "name": "_srcAddress",
          "type": "bytes"
        }
      ],
      "name": "isTrustedRemote",
      "outputs": [
        {
          "internalType": "bool",
          "name": "",
          "type": "bool"
        }
      ],
      "stateMutability": "view",
      "type": "function"
    },
    {
      "inputs": [],
      "name": "lzEndpoint",
      "outputs": [
        {
          "internalType": "contract ILayerZeroEndpoint",
          "name": "",
          "type": "address"
        }
      ],
      "stateMutability": "view",
      "type": "function"
    },
    {
      "inputs": [
        {
          "internalType": "uint16",
          "name": "_srcChainId",
          "type": "uint16"
        },
        {
          "internalType": "bytes",
          "name": "_srcAddress",
          "type": "bytes"
        },
        {
          "internalType": "uint64",
          "name": "_nonce",
          "type": "uint64"
        },
        {
          "internalType": "bytes",
          "name": "_payload",
          "type": "bytes"
        }
      ],
      "name": "lzReceive",
      "outputs": [],
      "stateMutability": "nonpayable",
      "type": "function"
    },
    {
      "inputs": [],
      "name": "merkleRoot",
      "outputs": [
        {
          "internalType": "bytes32",
          "name": "",
          "type": "bytes32"
        }
      ],
      "stateMutability": "view",
      "type": "function"
    },
    {
      "inputs": [
        {
          "internalType": "uint16",
          "name": "",
          "type": "uint16"
        },
        {
          "internalType": "uint16",
          "name": "",
          "type": "uint16"
        }
      ],
      "name": "minDstGasLookup",
      "outputs": [
        {
          "internalType": "uint256",
          "name": "",
          "type": "uint256"
        }
      ],
      "stateMutability": "view",
      "type": "function"
    },
    {
      "inputs": [
        {
          "internalType": "uint256",
          "name": "_tokenId",
          "type": "uint256"
        },
        {
          "internalType": "uint256",
          "name": "_amount",
          "type": "uint256"
        },
        {
          "internalType": "bytes32[]",
          "name": "_merkleProof",
          "type": "bytes32[]"
        }
      ],
      "name": "mint",
      "outputs": [],
      "stateMutability": "payable",
      "type": "function"
    },
    {
      "inputs": [
        {
          "internalType": "uint16",
          "name": "_srcChainId",
          "type": "uint16"
        },
        {
          "internalType": "bytes",
          "name": "_srcAddress",
          "type": "bytes"
        },
        {
          "internalType": "uint64",
          "name": "_nonce",
          "type": "uint64"
        },
        {
          "internalType": "bytes",
          "name": "_payload",
          "type": "bytes"
        }
      ],
      "name": "nonblockingLzReceive",
      "outputs": [],
      "stateMutability": "nonpayable",
      "type": "function"
    },
    {
      "inputs": [],
      "name": "owner",
      "outputs": [
        {
          "internalType": "address",
          "name": "",
          "type": "address"
        }
      ],
      "stateMutability": "view",
      "type": "function"
    },
    {
      "inputs": [
        {
          "internalType": "uint16",
          "name": "",
          "type": "uint16"
        }
      ],
      "name": "payloadSizeLimitLookup",
      "outputs": [
        {
          "internalType": "uint256",
          "name": "",
          "type": "uint256"
        }
      ],
      "stateMutability": "view",
      "type": "function"
    },
    {
      "inputs": [],
      "name": "precrime",
      "outputs": [
        {
          "internalType": "address",
          "name": "",
          "type": "address"
        }
      ],
      "stateMutability": "view",
      "type": "function"
    },
    {
      "inputs": [],
      "name": "price",
      "outputs": [
        {
          "internalType": "uint256",
          "name": "",
          "type": "uint256"
        }
      ],
      "stateMutability": "view",
      "type": "function"
    },
    {
      "inputs": [
        {
          "internalType": "uint256",
          "name": "_tokenId",
          "type": "uint256"
        },
        {
          "internalType": "uint256",
          "name": "_amount",
          "type": "uint256"
        }
      ],
      "name": "publicMint",
      "outputs": [],
      "stateMutability": "payable",
      "type": "function"
    },
    {
      "inputs": [],
      "name": "renounceOwnership",
      "outputs": [],
      "stateMutability": "nonpayable",
      "type": "function"
    },
    {
      "inputs": [
        {
          "internalType": "uint16",
          "name": "_srcChainId",
          "type": "uint16"
        },
        {
          "internalType": "bytes",
          "name": "_srcAddress",
          "type": "bytes"
        },
        {
          "internalType": "uint64",
          "name": "_nonce",
          "type": "uint64"
        },
        {
          "internalType": "bytes",
          "name": "_payload",
          "type": "bytes"
        }
      ],
      "name": "retryMessage",
      "outputs": [],
      "stateMutability": "payable",
      "type": "function"
    },
    {
      "inputs": [
        {
          "internalType": "address",
          "name": "from",
          "type": "address"
        },
        {
          "internalType": "address",
          "name": "to",
          "type": "address"
        },
        {
          "internalType": "uint256[]",
          "name": "ids",
          "type": "uint256[]"
        },
        {
          "internalType": "uint256[]",
          "name": "amounts",
          "type": "uint256[]"
        },
        {
          "internalType": "bytes",
          "name": "data",
          "type": "bytes"
        }
      ],
      "name": "safeBatchTransferFrom",
      "outputs": [],
      "stateMutability": "nonpayable",
      "type": "function"
    },
    {
      "inputs": [
        {
          "internalType": "address",
          "name": "from",
          "type": "address"
        },
        {
          "internalType": "address",
          "name": "to",
          "type": "address"
        },
        {
          "internalType": "uint256",
          "name": "tokenId",
          "type": "uint256"
        },
        {
          "internalType": "uint256",
          "name": "amount",
          "type": "uint256"
        },
        {
          "internalType": "bytes",
          "name": "data",
          "type": "bytes"
        }
      ],
      "name": "safeTransferFrom",
      "outputs": [],
      "stateMutability": "nonpayable",
      "type": "function"
    },
    {
      "inputs": [
        {
          "internalType": "address",
          "name": "_from",
          "type": "address"
        },
        {
          "internalType": "uint16",
          "name": "_dstChainId",
          "type": "uint16"
        },
        {
          "internalType": "bytes",
          "name": "_toAddress",
          "type": "bytes"
        },
        {
          "internalType": "uint256[]",
          "name": "_tokenIds",
          "type": "uint256[]"
        },
        {
          "internalType": "uint256[]",
          "name": "_amounts",
          "type": "uint256[]"
        },
        {
          "internalType": "address payable",
          "name": "_refundAddress",
          "type": "address"
        },
        {
          "internalType": "address",
          "name": "_zroPaymentAddress",
          "type": "address"
        },
        {
          "internalType": "bytes",
          "name": "_adapterParams",
          "type": "bytes"
        }
      ],
      "name": "sendBatchFrom",
      "outputs": [],
      "stateMutability": "payable",
      "type": "function"
    },
    {
      "inputs": [
        {
          "internalType": "address",
          "name": "_from",
          "type": "address"
        },
        {
          "internalType": "uint16",
          "name": "_dstChainId",
          "type": "uint16"
        },
        {
          "internalType": "bytes",
          "name": "_toAddress",
          "type": "bytes"
        },
        {
          "internalType": "uint256",
          "name": "_tokenId",
          "type": "uint256"
        },
        {
          "internalType": "uint256",
          "name": "_amount",
          "type": "uint256"
        },
        {
          "internalType": "address payable",
          "name": "_refundAddress",
          "type": "address"
        },
        {
          "internalType": "address",
          "name": "_zroPaymentAddress",
          "type": "address"
        },
        {
          "internalType": "bytes",
          "name": "_adapterParams",
          "type": "bytes"
        }
      ],
      "name": "sendFrom",
      "outputs": [],
      "stateMutability": "payable",
      "type": "function"
    },
    {
      "inputs": [
        {
          "internalType": "address",
          "name": "operator",
          "type": "address"
        },
        {
          "internalType": "bool",
          "name": "approved",
          "type": "bool"
        }
      ],
      "name": "setApprovalForAll",
      "outputs": [],
      "stateMutability": "nonpayable",
      "type": "function"
    },
    {
      "inputs": [
        {
          "internalType": "string",
          "name": "baseUri",
          "type": "string"
        }
      ],
      "name": "setBaseURI",
      "outputs": [],
      "stateMutability": "nonpayable",
      "type": "function"
    },
    {
      "inputs": [
        {
          "internalType": "address payable",
          "name": "_beneficiary",
          "type": "address"
        }
      ],
      "name": "setBeneficiary",
      "outputs": [],
      "stateMutability": "nonpayable",
      "type": "function"
    },
    {
      "inputs": [
        {
          "internalType": "uint16",
          "name": "_version",
          "type": "uint16"
        },
        {
          "internalType": "uint16",
          "name": "_chainId",
          "type": "uint16"
        },
        {
          "internalType": "uint256",
          "name": "_configType",
          "type": "uint256"
        },
        {
          "internalType": "bytes",
          "name": "_config",
          "type": "bytes"
        }
      ],
      "name": "setConfig",
      "outputs": [],
      "stateMutability": "nonpayable",
      "type": "function"
    },
    {
      "inputs": [
        {
          "internalType": "string",
          "name": "_contractURI",
          "type": "string"
        }
      ],
      "name": "setContractURI",
      "outputs": [],
      "stateMutability": "nonpayable",
      "type": "function"
    },
    {
      "inputs": [
        {
          "internalType": "string",
          "name": "_hiddenMetadataUri",
          "type": "string"
        }
      ],
      "name": "setHiddenMetadataUri",
      "outputs": [],
      "stateMutability": "nonpayable",
      "type": "function"
    },
    {
      "inputs": [
        {
          "internalType": "bytes32",
          "name": "_merkleRoot",
          "type": "bytes32"
        }
      ],
      "name": "setMerkleRoot",
      "outputs": [],
      "stateMutability": "nonpayable",
      "type": "function"
    },
    {
      "inputs": [
        {
          "internalType": "uint16",
          "name": "_dstChainId",
          "type": "uint16"
        },
        {
          "internalType": "uint16",
          "name": "_packetType",
          "type": "uint16"
        },
        {
          "internalType": "uint256",
          "name": "_minGas",
          "type": "uint256"
        }
      ],
      "name": "setMinDstGas",
      "outputs": [],
      "stateMutability": "nonpayable",
      "type": "function"
    },
    {
      "inputs": [
        {
          "internalType": "uint16",
          "name": "_dstChainId",
          "type": "uint16"
        },
        {
          "internalType": "uint256",
          "name": "_size",
          "type": "uint256"
        }
      ],
      "name": "setPayloadSizeLimit",
      "outputs": [],
      "stateMutability": "nonpayable",
      "type": "function"
    },
    {
      "inputs": [
        {
          "internalType": "address",
          "name": "_precrime",
          "type": "address"
        }
      ],
      "name": "setPrecrime",
      "outputs": [],
      "stateMutability": "nonpayable",
      "type": "function"
    },
    {
      "inputs": [
        {
          "internalType": "uint256",
          "name": "newPrice",
          "type": "uint256"
        }
      ],
      "name": "setPrice",
      "outputs": [],
      "stateMutability": "nonpayable",
      "type": "function"
    },
    {
      "inputs": [
        {
          "internalType": "uint16",
          "name": "_version",
          "type": "uint16"
        }
      ],
      "name": "setReceiveVersion",
      "outputs": [],
      "stateMutability": "nonpayable",
      "type": "function"
    },
    {
      "inputs": [
        {
          "internalType": "uint16",
          "name": "_version",
          "type": "uint16"
        }
      ],
      "name": "setSendVersion",
      "outputs": [],
      "stateMutability": "nonpayable",
      "type": "function"
    },
    {
      "inputs": [
        {
          "internalType": "uint256",
          "name": "_tax",
          "type": "uint256"
        }
      ],
      "name": "setTax",
      "outputs": [],
      "stateMutability": "nonpayable",
      "type": "function"
    },
    {
      "inputs": [
        {
          "internalType": "address payable",
          "name": "_taxRecipient",
          "type": "address"
        }
      ],
      "name": "setTaxRecipient",
      "outputs": [],
      "stateMutability": "nonpayable",
      "type": "function"
    },
    {
      "inputs": [
        {
          "internalType": "uint16",
          "name": "_srcChainId",
          "type": "uint16"
        },
        {
          "internalType": "bytes",
          "name": "_path",
          "type": "bytes"
        }
      ],
      "name": "setTrustedRemote",
      "outputs": [],
      "stateMutability": "nonpayable",
      "type": "function"
    },
    {
      "inputs": [
        {
          "internalType": "uint16",
          "name": "_remoteChainId",
          "type": "uint16"
        },
        {
          "internalType": "bytes",
          "name": "_remoteAddress",
          "type": "bytes"
        }
      ],
      "name": "setTrustedRemoteAddress",
      "outputs": [],
      "stateMutability": "nonpayable",
      "type": "function"
    },
    {
      "inputs": [
        {
          "internalType": "bytes4",
          "name": "interfaceId",
          "type": "bytes4"
        }
      ],
      "name": "supportsInterface",
      "outputs": [
        {
          "internalType": "bool",
          "name": "",
          "type": "bool"
        }
      ],
      "stateMutability": "view",
      "type": "function"
    },
    {
      "inputs": [],
      "name": "tax",
      "outputs": [
        {
          "internalType": "uint256",
          "name": "",
          "type": "uint256"
        }
      ],
      "stateMutability": "view",
      "type": "function"
    },
    {
      "inputs": [
        {
          "internalType": "uint256",
          "name": "id",
          "type": "uint256"
        }
      ],
      "name": "totalSupply",
      "outputs": [
        {
          "internalType": "uint256",
          "name": "",
          "type": "uint256"
        }
      ],
      "stateMutability": "view",
      "type": "function"
    },
    {
      "inputs": [
        {
          "internalType": "address",
          "name": "newOwner",
          "type": "address"
        }
      ],
      "name": "transferOwnership",
      "outputs": [],
      "stateMutability": "nonpayable",
      "type": "function"
    },
    {
      "inputs": [
        {
          "internalType": "uint16",
          "name": "",
          "type": "uint16"
        }
      ],
      "name": "trustedRemoteLookup",
      "outputs": [
        {
          "internalType": "bytes",
          "name": "",
          "type": "bytes"
        }
      ],
      "stateMutability": "view",
      "type": "function"
    },
    {
      "inputs": [
        {
          "internalType": "uint256",
          "name": "tokenId",
          "type": "uint256"
        }
      ],
      "name": "uri",
      "outputs": [
        {
          "internalType": "string",
          "name": "",
          "type": "string"
        }
      ],
      "stateMutability": "view",
      "type": "function"
    },
    {
      "inputs": [],
      "name": "withdraw",
      "outputs": [],
      "stateMutability": "nonpayable",
      "type": "function"
    }
  ],
  "bytecode": {
    "object": "0x60a060409080825234620004905760009062005591803803809162000025828562000495565b833981019160a0828403126200048d576200004082620004cf565b6020808401519193916001600160401b039081811162000489578662000068918501620004e4565b958784015182811162000485579062000083918501620004e4565b9562000097608060608601519501620004cf565b8554336001600160a01b031980831682178955996001600160a01b039993989390928a929083167f8be0079c531659141344cd1fd0a4f28419497f9722a3daafe3b4186f6b6457e08680a3166080528251918483116200030d57600854926001948585811c951680156200047a575b8886101462000466578190601f9586811162000412575b508890868311600114620003ac578492620003a0575b5050600019600383901b1c191690851b176008555b6daaeb6d7670e522a718067333cd4e803b62000321575b5083600a5580600c55338a600d541617600d5581519485116200030d576011548481811c9116801562000302575b87821014620002ee57838111620002a5575b50859285116001146200023c57939450849291908362000230575b50501b916000199060031b1c1916176011555b600b551690600e541617600e555161503590816200055c82396080518181816105a9015281816107eb0152818161097401528181610f9e015281816121100152818161226401528181612b3d01528181612c8b01528181612e33015261387c0152f35b015192503880620001ba565b6011815285812093958591601f198316915b888383106200028a575050501062000270575b505050811b01601155620001cd565b015160001960f88460031b161c1916905538808062000261565b8587015188559096019594850194879350908101906200024e565b601182528682208480880160051c820192898910620002e4575b0160051c019085905b828110620002d85750506200019f565b838155018590620002c8565b92508192620002bf565b634e487b7160e01b82526022600452602482fd5b90607f16906200018d565b634e487b7160e01b81526041600452602490fd5b803b156200039c5781809160448e5180948193633e9f1edf60e11b8352306004840152733cc6cdda760b79bafa08df41ecfa224f810dceb660248401525af180156200039257156200015f578581116200037e578b52386200015f565b634e487b7160e01b82526041600452602482fd5b8c513d84823e3d90fd5b5080fd5b01519050388062000133565b600885528985208894509190601f198416865b8c828210620003fb5750508411620003e1575b505050811b0160085562000148565b015160001960f88460031b161c19169055388080620003d2565b8385015186558b97909501949384019301620003bf565b909150600884528884208680850160051c8201928b86106200045c575b918991869594930160051c01915b8281106200044d5750506200011d565b8681558594508991016200043d565b925081926200042f565b634e487b7160e01b83526022600452602483fd5b94607f169462000106565b8580fd5b8480fd5b80fd5b600080fd5b601f909101601f19168101906001600160401b03821190821017620004b957604052565b634e487b7160e01b600052604160045260246000fd5b51906001600160a01b03821682036200049057565b919080601f8401121562000490578251906001600160401b038211620004b9576040519160209162000520601f8301601f191684018562000495565b818452828287010111620004905760005b8181106200054757508260009394955001015290565b85810183015184820184015282016200053156fe60806040526004361015610013575b600080fd5b60003560e01c80621d3567146104c1578062fdd58e146104b857806301ffc9a7146104af57806307e0db17146104a65780630df374831461049d5780630e89341c1461049457806310ddb1371461048b5780631291e33e146104825780631c31f710146104795780632e5bb6ff146104705780632eb2c2d6146104675780632eb4a7ab1461045e5780633b2c3fb6146104555780633ccfd60b1461044c5780633d8b38f6146104435780633f1f4fa41461043a57806341f434341461043157806342d65a8d146104285780634ab4e6871461041f5780634db8226a146104165780634e1273f41461040d5780634f558e79146104045780634fdd43cb146103fb57806355f804b3146103f25780635b8c41e6146103e9578063600e97f6146103e057806366ad5c8a146103d7578063715018a6146103ce5780637533d788146103c557806378e3079e146103bc5780637cb64759146103b35780638608e5f8146103aa57806387c348bf146103a1578063899d7b38146103985780638cfd8f5c1461038f5780638da5cb5b1461038657806391b7f5ed1461037d578063938e3d7b14610374578063950c8a741461036b57806398ae99a81461036257806399c8d556146103595780639f38369a14610350578063a035b1fe14610347578063a22cb4651461033e578063a6c3d16514610335578063b25356631461032c578063b353aaa714610323578063baf3292d1461031a578063bd85b03914610311578063c446183414610308578063cbed8b9c146102ff578063d1deba1f146102f6578063df2a5b3b146102ed578063e6d37b88146102e4578063e8a3d485146102db578063e985e9c5146102d2578063eb8d72b7146102c9578063f242432a146102c0578063f2fde38b146102b75763f5ecbdbc146102af57600080fd5b61000e612ad7565b5061000e612a3c565b5061000e612934565b5061000e6127cf565b5061000e612766565b5061000e612693565b5061000e61255d565b5061000e61246a565b5061000e612306565b5061000e612203565b5061000e6121e5565b5061000e6121b8565b5061000e61213f565b5061000e6120f9565b5061000e612063565b5061000e611ec5565b5061000e611db4565b5061000e611d95565b5061000e611ce9565b5061000e611cca565b5061000e611bfe565b5061000e611bd4565b5061000e611ab9565b5061000e611a8a565b5061000e611a60565b5061000e611a0c565b5061000e6119c6565b5061000e61199f565b5061000e61190b565b5061000e6118c5565b5061000e611874565b5061000e611834565b5061000e611645565b5061000e6115be565b5061000e61159a565b5061000e6114f3565b5061000e6113c1565b5061000e6112a6565b5061000e61123c565b5061000e611180565b5061000e6110a2565b5061000e610ffe565b5061000e610f71565b5061000e610f47565b5061000e610f11565b5061000e610eb4565b5061000e610dd0565b5061000e610d88565b5061000e610d69565b5061000e610c2e565b5061000e610a71565b5061000e610a20565b5061000e6109d6565b5061000e610940565b5061000e610908565b5061000e610863565b5061000e6107b7565b5061000e61071b565b5061000e6106d5565b5061000e610591565b6004359061ffff8216820361000e57565b6024359061ffff8216820361000e57565b9181601f8401121561000e578235916001600160401b03831161000e576020838186019501011161000e57565b6001600160401b0381160361000e57565b90608060031983011261000e5760043561ffff8116810361000e57916001600160401b039060243582811161000e5781610566916004016104ec565b9390939260443561057681610519565b9260643591821161000e5761058d916004016104ec565b9091565b503461000e576105a03661052a565b929493919291907f00000000000000000000000000000000000000000000000000000000000000006001600160a01b031633036106635761062661062e926106349761061f6106056106008a61ffff166000526001602052604060002090565b611819565b8051908184149182610659575b5081610636575b50613785565b3691610bdc565b923691610bdc565b92613a6b565b005b9050610643368486610bdc565b6020815191012090602081519101201438610619565b1515915038610612565b60405162461bcd60e51b815260206004820152601e60248201527f4c7a4170703a20696e76616c696420656e64706f696e742063616c6c657200006044820152606490fd5b6001600160a01b0381160361000e57565b600435906106c6826106a8565b565b60c435906106c6826106a8565b503461000e57604036600319011261000e5760206107016004356106f8816106a8565b60243590614174565b604051908152f35b6001600160e01b031981160361000e57565b503461000e57602036600319011261000e57602060043561073b81610709565b6001600160e01b031916801590811561075a575b506040519015158152f35b636cdb3d1360e11b8114915081156107a6575b811561077b575b503861074f565b6319abbbbb60e11b811491508115610795575b5038610774565b6301ffc9a760e01b1490503861078e565b6303a24d0760e21b8114915061076d565b503461000e5760006020366003190112610860576107d36104ca565b8160018060a01b036107e98183541633146131b1565b7f00000000000000000000000000000000000000000000000000000000000000001691823b1561085c57602461ffff918360405195869485936307e0db1760e01b85521660048401525af1801561084f575b610843575080f35b61084c90610ab7565b80f35b610857612bff565b61083b565b5080fd5b80fd5b503461000e57604036600319011261000e5761ffff6108806104ca565b61089560018060a01b036000541633146131b1565b166000526003602052602435604060002055600080f35b60005b8381106108bf5750506000910152565b81810151838201526020016108af565b906020916108e8815180928185528580860191016108ac565b601f01601f1916010190565b9060206109059281815201906108cf565b90565b503461000e57602036600319011261000e5761093c610928600435613672565b6040519182916020835260208301906108cf565b0390f35b503461000e57600060203660031901126108605761095c6104ca565b8160018060a01b036109728183541633146131b1565b7f00000000000000000000000000000000000000000000000000000000000000001691823b1561085c57602461ffff918360405195869485936310ddb13760e01b85521660048401525af1801561084f57610843575080f35b600091031261000e57565b503461000e57600080600319360112610860576109fd60018060a01b0382541633146131b1565b60125460ff80821615169060ff19161760125580f35b60a435906106c6826106a8565b503461000e57602036600319011261000e57600435610a3e816106a8565b6000546001600160a01b039190610a5890831633146131b1565b166001600160601b0360a01b600d541617600d55600080f35b503461000e57602036600319011261000e57610a9860018060a01b036000541633146131b1565b600435600b55005b50634e487b7160e01b600052604160045260246000fd5b6001600160401b038111610aca57604052565b610ad2610aa0565b604052565b604081019081106001600160401b03821117610aca57604052565b602081019081106001600160401b03821117610aca57604052565b90601f801991011681019081106001600160401b03821117610aca57604052565b6020906001600160401b038111610b47575b60051b0190565b610b4f610aa0565b610b40565b81601f8201121561000e57803591610b6b83610b2e565b92610b796040519485610b0d565b808452602092838086019260051b82010192831161000e578301905b828210610ba3575050505090565b81358152908301908301610b95565b6020906001600160401b038111610bcf575b601f01601f19160190565b610bd7610aa0565b610bc4565b929192610be882610bb2565b91610bf66040519384610b0d565b82948184528183011161000e578281602093846000960137010152565b9080601f8301121561000e5781602061090593359101610bdc565b503461000e5760a036600319011261000e57600435610c4c816106a8565b602435610c58816106a8565b6001600160401b0360443581811161000e57610c78903690600401610b54565b60643582811161000e57610c90903690600401610b54565b9160843590811161000e57610ca9903690600401610c13565b926001600160a01b0385163381148015919082610d5b575b91610d36575b5015610cd6576106349461459a565b60405162461bcd60e51b815260206004820152603260248201527f455243313135353a207472616e736665722063616c6c6572206973206e6f74206044820152711bdddb995c881b9bdc88185c1c1c9bdd995960721b6064820152608490fd5b6000908152600760209081526040808320338452909152902060ff9150541638610cc7565b610d6433614f40565b610cc1565b503461000e57600036600319011261000e576020600f54604051908152f35b503461000e5760008060031936011261086057610daf60018060a01b0382541633146131b1565b60125462ff000060ff8260101c161560101b169062ff000019161760125580f35b503461000e5760008060031936011261086057600d54336001600160a01b0391821614908115610e6d575b5015610e095761084c61344a565b60405162461bcd60e51b815260206004820152603660248201527f416476616e6365644f4e4654313135354761736c6573733a2063616c6c6572206044820152756973206e6f74207468652062656e656669636961727960501b6064820152608490fd5b9050815416331438610dfb565b90604060031983011261000e5760043561ffff8116810361000e5791602435906001600160401b03821161000e5761058d916004016104ec565b503461000e57602061ffff610f02610ecb36610e7a565b9390911660005260018452610eed610ef4604060002060405192838092611783565b0382610b0d565b848151910120923691610bdc565b82815191012014604051908152f35b503461000e57602036600319011261000e5761ffff610f2e6104ca565b1660005260036020526020604060002054604051908152f35b503461000e57600036600319011261000e5760206040516daaeb6d7670e522a718067333cd4e8152f35b503461000e57610f8036610e7a565b9190600092839160018060a01b03610f9c8185541633146131b1565b7f00000000000000000000000000000000000000000000000000000000000000001690813b15610ffa5783610fe895604051968795869485936342d65a8d60e01b855260048501613a50565b03925af1801561084f57610843575080f35b8380fd5b5061010036600319011261000e576110146106b9565b61101c6104db565b6001600160401b03919060443583811161000e5761103e903690600401610c13565b60643584811161000e57611056903690600401610b54565b60843585811161000e5761106e903690600401610b54565b90611077610a13565b926110806106c8565b9460e43597881161000e5761109c610634983690600401610c13565b96612d03565b5061010036600319011261000e576004356110bc816106a8565b6110c46104db565b6001600160401b03919060443583811161000e576110e6903690600401610c13565b9060a4356110f3816106a8565b60c43591611100836106a8565b60e43595861161000e5761111b610634963690600401610c13565b93611127606435613180565b90611133608435613180565b923497612dd1565b90815180825260208080930193019160005b82811061115b575050505090565b83518552938101939281019260010161114d565b90602061090592818152019061113b565b503461000e57604036600319011261000e576004356001600160401b0380821161000e573660238301121561000e5781600401356111bd81610b2e565b926111cb6040519485610b0d565b81845260209160248386019160051b8301019136831161000e57602401905b828210611223578560243586811161000e5761093c91611211611217923690600401610b54565b90614220565b6040519182918261116f565b8380918335611231816106a8565b8152019101906111ea565b503461000e57602036600319011261000e57600435600052600960205260206040600020541515604051908152f35b602060031982011261000e57600435906001600160401b03821161000e578060238301121561000e5781602461090593600401359101610bdc565b503461000e576112b53661126b565b60006112cb60018060a01b0382541633146131b1565b81516001600160401b0381116113b4575b6112f0816112eb6011546116a5565b61352b565b602080601f831160011461132c57508293829392611321575b50508160011b916000199060031b1c19161760115580f35b015190503880611309565b90601f1983169461135f60116000527f31ecc21a745e3968a04e9570e4425bc18fa8019c68028196b546d1669c200c6890565b9285905b87821061139c575050836001959610611383575b505050811b0160115580f35b015160001960f88460031b161c19169055388080611377565b80600185968294968601518155019501930190611363565b6113bc610aa0565b6112dc565b503461000e576113d03661126b565b60006113e660018060a01b0382541633146131b1565b81516001600160401b0381116114cf575b61140b816114066008546116a5565b61358c565b602080601f83116001146114475750829382939261143c575b50508160011b916000199060031b1c19161760085580f35b015190503880611424565b90601f1983169461147a60086000527ff3f7a9fe364faab93b216da50a3214154f22a0a2b415b23a84c8169e8b636ee390565b9285905b8782106114b757505083600195961061149e575b505050811b0160085580f35b015160001960f88460031b161c19169055388080611492565b8060018596829496860151815501950193019061147e565b6114d7610aa0565b6113f7565b906114ef602092828151948592016108ac565b0190565b503461000e57606036600319011261000e5761150d6104ca565b6024356001600160401b03811161000e5761093c916115686020611538611589943690600401610c13565b61ffff6044359461154886610519565b1660005260058252604060002082604051948386809551938492016108ac565b820190815203019020906001600160401b0316600052602052604060002090565b546040519081529081906020820190565b503461000e57600036600319011261000e57602060ff601254166040519015158152f35b503461000e576115cd3661052a565b91929493903033036115f1576106266115eb92610634973691610bdc565b92613c8f565b60405162461bcd60e51b815260206004820152602660248201527f4e6f6e626c6f636b696e674c7a4170703a2063616c6c6572206d7573742062656044820152650204c7a4170760d41b6064820152608490fd5b503461000e5760008060031936011261086057805481906001600160a01b038116906116723383146131b1565b6001600160a01b03191682557f8be0079c531659141344cd1fd0a4f28419497f9722a3daafe3b4186f6b6457e08280a380f35b90600182811c921680156116d5575b60208310146116bf57565b634e487b7160e01b600052602260045260246000fd5b91607f16916116b4565b600854600092916116ef826116a5565b80825291600190818116908115611766575060011461170d57505050565b9192935060086000527ff3f7a9fe364faab93b216da50a3214154f22a0a2b415b23a84c8169e8b636ee3916000925b84841061174e57505060209250010190565b8054602085850181019190915290930192810161173c565b915050602093945060ff929192191683830152151560051b010190565b9060009291805491611794836116a5565b9182825260019384811690816000146117f657506001146117b6575b50505050565b90919394506000526020928360002092846000945b8386106117e25750505050010190388080806117b0565b8054858701830152940193859082016117cb565b9294505050602093945060ff191683830152151560051b010190388080806117b0565b906106c661182d9260405193848092611783565b0383610b0d565b503461000e57602036600319011261000e5761ffff6118516104ca565b16600052600160205261093c610eed610928604060002060405192838092611783565b503461000e57602036600319011261000e57600435611892816106a8565b6000546001600160a01b0391906118ac90831633146131b1565b166001600160601b0360a01b600e541617600e55600080f35b503461000e57602036600319011261000e576118ec60018060a01b036000541633146131b1565b600435600f55005b8015150361000e57565b608435906106c6826118f4565b503461000e5760c036600319011261000e576119256104ca565b6001600160401b039060243582811161000e57611946903690600401610c13565b9060843590611954826118f4565b60a43593841161000e5761196f61198d943690600401610c13565b9261197b604435613180565b90611987606435613180565b92612c0c565b60408051928352602083019190915290f35b503461000e57600036600319011261000e57602060ff60125460081c166040519015158152f35b503461000e57600080600319360112610860576119ed60018060a01b0382541633146131b1565b60125461ff0060ff8260081c161560081b169061ff0019161760125580f35b503461000e57604036600319011261000e576020611a57611a2b6104ca565b61ffff611a366104db565b91166000526002835260406000209061ffff16600052602052604060002090565b54604051908152f35b503461000e57600036600319011261000e576000546040516001600160a01b039091168152602090f35b503461000e57602036600319011261000e57611ab160018060a01b036000541633146131b1565b600435600c55005b503461000e57611ac83661126b565b6000611ade60018060a01b0382541633146131b1565b81516001600160401b038111611bc7575b611b0381611afe6010546116a5565b6135e2565b602080601f8311600114611b3f57508293829392611b34575b50508160011b916000199060031b1c19161760105580f35b015190503880611b1c565b90601f19831694611b7260106000527f1b6847dc741a1b0cd08d278845f9d819d87b734759afb55fe2de5cb82a9ae67290565b9285905b878210611baf575050836001959610611b96575b505050811b0160105580f35b015160001960f88460031b161c19169055388080611b8a565b80600185968294968601518155019501930190611b76565b611bcf610aa0565b611aef565b503461000e57600036600319011261000e576004546040516001600160a01b039091168152602090f35b50604036600319011261000e5760125460043560243560001960ff8416151501611c6a57611c39600160ff6106349560081c161515146131fc565b611c4482151561325c565b611c5b611c53600c54836132d2565b3410156132ed565b611c6361334d565b91336146f6565b60405162461bcd60e51b815260206004820152603260248201527f416476616e6365644f4e4654313135353a205075626c69632073616c6520686160448201527173206e6f742073746172746564207965742160701b6064820152608490fd5b503461000e57600036600319011261000e576020600b54604051908152f35b503461000e57602036600319011261000e5761ffff611d066104ca565b166000526001602052610eed611d26604060002060405192838092611783565b805115611d5057611d4481611d3e61093c9351613427565b90614074565b604051918291826108f4565b60405162461bcd60e51b815260206004820152601d60248201527f4c7a4170703a206e6f20747275737465642070617468207265636f72640000006044820152606490fd5b503461000e57600036600319011261000e576020600c54604051908152f35b503461000e57604036600319011261000e57600435611dd2816106a8565b602435611dde816118f4565b611de782614f40565b6001600160a01b03821691338314611e6e57336000908152600760205260409020611e3c918391611e2b91905b9060018060a01b0316600052602052604060002090565b9060ff801983541691151516179055565b604051901515815233907f17307eab39ab6107e8899845ad3d59bd9653f200f220920489ca2b5937696c3190602090a3005b60405162461bcd60e51b815260206004820152602960248201527f455243313135353a2073657474696e6720617070726f76616c20737461747573604482015268103337b91039b2b63360b91b6064820152608490fd5b503461000e57611ed436610e7a565b9190600091611eed60018060a01b0384541633146131b1565b604051936020818482880137611f186034878481013060601b85820152036014810189520187610b0d565b61ffff8316855260019081815260408620918751916001600160401b038311612056575b611f5083611f4a86546116a5565b86613638565b80601f8411600114611fc0575091808092611faf9695948a9b7f8c0400cfe2d1199b1a725c78960bcc2a344d869b80590d0f2bd005db15a572ce9b94611fb5575b50501b916000199060031b1c19161790555b60405193849384613a50565b0390a180f35b015192503880611f91565b91939498601f198416611fd887600052602060002090565b938a905b82821061203f575050917f8c0400cfe2d1199b1a725c78960bcc2a344d869b80590d0f2bd005db15a572ce999a95939185611faf98969410612026575b505050811b019055611fa3565b015160001960f88460031b161c19169055388080612019565b808886978294978701518155019601940190611fdc565b61205e610aa0565b611f3c565b503461000e5760c036600319011261000e5761207d6104ca565b6001600160401b039060243582811161000e5761209e903690600401610c13565b60443583811161000e576120b6903690600401610b54565b60643584811161000e576120ce903690600401610b54565b906120d76118fe565b9260a43595861161000e576120f361198d963690600401610c13565b94612c0c565b503461000e57600036600319011261000e576040517f00000000000000000000000000000000000000000000000000000000000000006001600160a01b03168152602090f35b503461000e57602036600319011261000e577f5db758e995a17ec1ad84bdef7e8c3293a0bd6179bcce400dff5d4c3d87db726b6020600435612180816106a8565b6000546001600160a01b03919061219a90831633146131b1565b16806001600160601b0360a01b6004541617600455604051908152a1005b503461000e57602036600319011261000e5760043560005260096020526020604060002054604051908152f35b503461000e57600036600319011261000e5760206040516127108152f35b503461000e57608036600319011261000e5761221d6104ca565b6122256104db565b6064356001600160401b03811161000e576122449036906004016104ec565b60018060a09493941b039160009483612262879586541633146131b1565b7f00000000000000000000000000000000000000000000000000000000000000001691823b156123025784906122cf604051978896879586946332fb62e760e21b865261ffff80921660048701521660248501526044356044850152608060648501526084840191613a2f565b03925af180156122f5575b6122e2575080f35b806122ef61084c92610ab7565b806109cb565b6122fd612bff565b6122da565b8480fd5b506123103661052a565b9161ffff8694929616600052600560205261235781604060002060206040518092878b833787820190815203019020906001600160401b0316600052602052604060002090565b549182156124195761240884836124017fc264d91f3adc5588250e1551f547752ca0cfa8f6b530d243b9f9f4cab10ea8e59a60006123ed846123d58e8a8f6124149f908f6123bb906123ae6123cf9436908d610bdc565b6020815191012014613f41565b61ffff166000526005602052604060002090565b91613f28565b906001600160401b0316600052602052604060002090565b556123f936878d610bdc565b933691610bdc565b9188613c8f565b60405195869586613f97565b0390a1005b60405162461bcd60e51b815260206004820152602360248201527f4e6f6e626c6f636b696e674c7a4170703a206e6f2073746f726564206d65737360448201526261676560e81b6064820152608490fd5b503461000e57606036600319011261000e576124846104ca565b61248c6104db565b604435916124a560018060a01b036000541633146131b1565b8215612520576124147f9d5c7c0b934da8fefa9c7760c98383778a12dfbfc0c3b3106518f43fb9508ac09361ffff83166000526002602052806124fa8560406000209061ffff16600052602052604060002090565b556040519384938460409194939294606082019561ffff80921683521660208201520152565b60405162461bcd60e51b81526020600482015260156024820152744c7a4170703a20696e76616c6964206d696e47617360581b6044820152606490fd5b50606036600319011261000e576044356004356024356001600160401b0380841161000e573660238501121561000e57836004013590811161000e573660248260051b8601011161000e576125be600160ff60125460081c161515146131fc565b821561263e576001612638612633611c5b93610634976125e3611c53600c54896132d2565b61262e600f549160405160208101906126208161261233856014916001600160601b03199060601b1681520190565b03601f198101835282610b0d565b51902093602436920161337e565b614ed0565b151590565b146133cc565b60405162461bcd60e51b815260206004820152602760248201527f416476616e6365644f4e4654313135353a2043616e6e6f74206d696e74203020604482015266746f6b656e732160c81b6064820152608490fd5b503461000e576000806003193601126108605760405190806010546126b7816116a5565b8085529160019180831690811561273c57506001146126e1575b61093c85611d4481870382610b0d565b9250601083527f1b6847dc741a1b0cd08d278845f9d819d87b734759afb55fe2de5cb82a9ae6725b828410612724575050508101602001611d448261093c6126d1565b80546020858701810191909152909301928101612709565b86955061093c96935060209250611d4494915060ff191682840152151560051b82010192936126d1565b503461000e57604036600319011261000e57602060ff6127c360043561278b816106a8565b60243590612798826106a8565b60018060a01b03166000526007845260406000209060018060a01b0316600052602052604060002090565b54166040519015158152f35b503461000e576127de36610e7a565b91906000916127f760018060a01b0384541633146131b1565b61ffff81168352600160209080825260408520916001600160401b038711612927575b61282e8761282885546116a5565b85613638565b8590601f88116001146128955750918680879893611faf957ffa41487ad5d6728f0b19276fa1eddc16558578f5109fc39d2dc33c3230470dab999361288a575b501b906000198460031b1c191617905560405193849384613a50565b88013592503861286e565b90601f1988166128aa85600052602060002090565b9288905b828210612910575050918893917ffa41487ad5d6728f0b19276fa1eddc16558578f5109fc39d2dc33c3230470dab9899611faf9694106128f6575b505082811b019055611fa3565b870135600019600386901b60f8161c1916905538806128e9565b808685968294968c013581550195019301906128ae565b61292f610aa0565b61281a565b503461000e5760a036600319011261000e57600435612952816106a8565b60243561295e816106a8565b6084356001600160401b03811161000e5761297d903690600401610c13565b906001600160a01b0383163381148015919082612a2e575b91612a09575b50156129b2576106349260643591604435916143a1565b60405162461bcd60e51b815260206004820152602960248201527f455243313135353a2063616c6c6572206973206e6f74206f776e6572206e6f7260448201526808185c1c1c9bdd995960ba1b6064820152608490fd5b6000908152600760209081526040808320338452909152902060ff915054163861299b565b612a3733614f40565b612995565b503461000e57602036600319011261000e57600435612a5a816106a8565b6000546001600160a01b0390612a7390821633146131b1565b811615612a83576106349061412d565b60405162461bcd60e51b815260206004820152602660248201527f4f776e61626c653a206e6577206f776e657220697320746865207a65726f206160448201526564647265737360d01b6064820152608490fd5b503461000e57608036600319011261000e5761093c612af46104ca565b612afc6104db565b90612b086044356106a8565b604051633d7b2f6f60e21b815261ffff91821660048201529116602482015230604482015260648035908201526000816084817f00000000000000000000000000000000000000000000000000000000000000006001600160a01b03165afa908115612ba5575b600091612b84575b50604051918291826108f4565b612b9f913d8091833e612b978183610b0d565b810190613a0a565b38612b77565b612bad612bff565b612b6f565b91612bdb90612bcd61090595936060865260608601906108cf565b90848203602086015261113b565b91604081840391015261113b565b919082604091031261000e576020825192015190565b506040513d6000823e3d90fd5b91959493604094612c3d612c8793612c2f61ffff9789519b8c9360208501612bb2565b03601f1981018a5289610b0d565b612c6e8651988996879663040a7bb160e41b885216600487015230602487015260a0604487015260a48601906108cf565b91151560648501528382036003190160848501526108cf565b03817f00000000000000000000000000000000000000000000000000000000000000006001600160a01b03165afa918215612cf6575b6000908193612ccb57509190565b905061058d91925060403d8111612cef575b612ce78183610b0d565b810190612be9565b503d612cdd565b612cfe612bff565b612cbd565b9593916106c6979593913497612dd1565b9081602091031261000e575161090581610519565b612d41906020604051928284809451938492016108ac565b810103902090565b91612d7b6001600160401b0391612d6d60409497969760608752606087019061113b565b90858203602087015261113b565b9416910152565b50634e487b7160e01b600052603260045260246000fd5b602090805115612da7570190565b6114ef612d82565b6020918151811015612dc4575b60051b010190565b612dcc612d82565b612dbc565b9690939495612e059396989298612de987898b612f91565b604051612dff816126128a8c8f60208501612bb2565b86613838565b604051630f428ae960e31b815261ffff821660048201523060248201526001600160a01b03956020826044817f00000000000000000000000000000000000000000000000000000000000000008b165afa918215612f84575b600092612f54575b50845160018103612eec575061ffff9291612ee791612eba612eb3612eac7f65f8f231660ef9add3da95eb0bbdae4c246f6c10e274fae37b17190637080d4c9899612d99565b5198612d99565b5191612d29565b9860405195869516981696849160409194936001600160401b039160608501968552602085015216910152565b0390a4565b6001909493929411612f02575b50505050505050565b7f2d31495ecbe799a81d5475c03585aa019860601fed836229d70e335b732eab3d9361ffff93612f34612f4593612d29565b986040519586951698169684612d49565b0390a438808080808080612ef9565b612f7691925060203d8111612f7d575b612f6e8183610b0d565b810190612d14565b9038612e66565b503d612f64565b612f8c612bff565b612e5e565b6001600160a01b03811693909190338514801561312b575b156130ce57841561307d57612fc18251855114614518565b612fc961334d565b50612fd5848385614ce4565b60005b82518110156130445780612fef61303f9285612daf565b5161303986611e14613001858b612daf565b5161301a83611e14876000526006602052604060002090565b5461302782821015614815565b03936000526006602052604060002090565b55614208565b612fd8565b509391507f4a39dc06d4c0dbc64b70af90fd698a233a518aa5d07e595d983b8c0526c8f7fb612ee7600094604051918291339583614575565b60405162461bcd60e51b815260206004820152602360248201527f455243313135353a206275726e2066726f6d20746865207a65726f206164647260448201526265737360e81b6064820152608490fd5b60405162461bcd60e51b815260206004820152602f60248201527f4f4e4654313135353a2073656e642063616c6c6572206973206e6f74206f776e60448201526e195c881b9bdc88185c1c1c9bdd9959608a1b6064820152608490fd5b50600085815260076020908152604080832033845290915290205460ff16612fa9565b9061315882610b2e565b6131656040519182610b0d565b8281528092613176601f1991610b2e565b0190602036910137565b6040519061318d82610ad7565b600182526020820160203682378251156131a5575290565b6131ad612d82565b5290565b156131b857565b606460405162461bcd60e51b815260206004820152602060248201527f4f776e61626c653a2063616c6c6572206973206e6f7420746865206f776e65726044820152fd5b1561320357565b60405162461bcd60e51b815260206004820152602b60248201527f416476616e6365644f4e4654313135353a2053616c6520686173206e6f74207360448201526a746172746564207965742160a81b6064820152608490fd5b1561326357565b60405162461bcd60e51b815260206004820152602a60248201527f416476616e6365644f4e4654313135353a2043616e6e6f7420696e76616c696460448201526920746f6b656e2069642160b01b6064820152608490fd5b50634e487b7160e01b600052601160045260246000fd5b818102929181159184041417156132e557565b6106c66132bb565b156132f457565b60405162461bcd60e51b815260206004820152602b60248201527f416476616e6365644f4e4654313135353a20496e636f6e73697374656e74206160448201526a6d6f756e742073656e742160a81b6064820152608490fd5b60405190602082018281106001600160401b03821117613371575b60405260008252565b613379610aa0565b613368565b929161338982610b2e565b916133976040519384610b0d565b829481845260208094019160051b810192831161000e57905b8282106133bd5750505050565b813581529083019083016133b0565b156133d357565b60405162461bcd60e51b815260206004820152602660248201527f416476616e6365644f4e4654313135353a20496e76616c6964204d65726b6c6560448201526510283937b7b360d11b6064820152608490fd5b6013198101919082116132e557565b919082039182116132e557565b1561000e57565b600d546001600160a01b031680156134c05760008080806106c69461349e82808080479561348f613488613480600b548a6132d2565b612710900490565b8098613436565b908282156134b7575bf1613443565b600e546001600160a01b03168282156134b757f1613443565b506108fc613498565b60405162461bcd60e51b815260206004820152602660248201527f416476616e6365644f4e4654313135353a2042656e6566696369617279206e6f60448201526574207365742160d01b6064820152608490fd5b81811061351f575050565b60008155600101613514565b90601f8211613538575050565b6106c69160116000527f31ecc21a745e3968a04e9570e4425bc18fa8019c68028196b546d1669c200c68906020601f840160051c83019310613582575b601f0160051c0190613514565b9091508190613575565b90601f8211613599575050565b6106c69160086000527ff3f7a9fe364faab93b216da50a3214154f22a0a2b415b23a84c8169e8b636ee3906020601f840160051c8301931061358257601f0160051c0190613514565b90601f82116135ef575050565b6106c69160106000527f1b6847dc741a1b0cd08d278845f9d819d87b734759afb55fe2de5cb82a9ae672906020601f840160051c8301931061358257601f0160051c0190613514565b9190601f811161364757505050565b6106c6926000526020600020906020601f840160051c8301931061358257601f0160051c0190613514565b60ff60125460101c16156136ca576109056020916126126136a9604051926136a48461369d816116df565b0385610b0d565b614df7565b60405194836136c187955180928480890191016108ac565b840101906114dc565b506040516011548160006136dd836116a5565b808352926001908181169081156137635750600114613704575b5061090592500382610b0d565b6011600090815291507f31ecc21a745e3968a04e9570e4425bc18fa8019c68028196b546d1669c200c685b84831061374857506109059350508101602001386136f7565b8193509081602092548385890101520191019091849261372f565b90506020925061090594915060ff191682840152151560051b820101386136f7565b1561378c57565b60405162461bcd60e51b815260206004820152602660248201527f4c7a4170703a20696e76616c696420736f757263652073656e64696e6720636f6044820152651b9d1c9858dd60d21b6064820152608490fd5b9261380561090597959361ffff6138139416865260c0602087015260c08601906108cf565b9084820360408601526108cf565b6001600160a01b0391821660608401529316608082015280830360a0909101526108cf565b946138619193929561ffff81166000526001602052613868604060002060405194858092611783565b0384610b0d565b8251156138fb5761387a855182613959565b7f00000000000000000000000000000000000000000000000000000000000000006001600160a01b031693843b1561000e576000966138cf91604051998a988997889662c5803160e81b8852600488016137e0565b03925af180156138ee575b6138e15750565b806122ef6106c692610ab7565b6138f6612bff565b6138da565b60405162461bcd60e51b815260206004820152603060248201527f4c7a4170703a2064657374696e6174696f6e20636861696e206973206e6f742060448201526f61207472757374656420736f7572636560801b6064820152608490fd5b61ffff1660005260036020526040600020549081156139be575b1161397a57565b606460405162461bcd60e51b815260206004820152602060248201527f4c7a4170703a207061796c6f61642073697a6520697320746f6f206c617267656044820152fd5b6127109150613973565b81601f8201121561000e5780516139de81610bb2565b926139ec6040519485610b0d565b8184526020828401011161000e5761090591602080850191016108ac565b9060208282031261000e5781516001600160401b03811161000e5761090592016139c8565b908060209392818452848401376000828201840152601f01601f1916010190565b60409061ffff61090595931681528160208201520191613a2f565b9290915a926040519360208501633356ae4560e11b815261ffff8716602487015260806044870152613ad686613ac8613aa760a48301876108cf565b6001600160401b0388166064840152828103602319016084840152886108cf565b03601f198101885287610b0d565b600091829182613ae46140f4565b9851923090f13d60968111613b1e575b8086526000602087013e15613b0b575b5050505050565b613b1494613b26565b3880808080613b04565b506096613af4565b9193613bc37fe183f33de2837795525b4792ca4cd60535bd77c53b7e7030060bfcf5734d6b0c95613bd1939561ffff81516020830120961695866000526005602052613b8a8361156860208b604060002082604051948386809551938492016108ac565b556001600160401b03613baf604051988998895260a060208a015260a08901906108cf565b9216604087015285820360608701526108cf565b9083820360808501526108cf565b0390a1565b81601f8201121561000e57805191613bed83610b2e565b92613bfb6040519485610b0d565b808452602092838086019260051b82010192831161000e578301905b828210613c25575050505090565b81518152908301908301613c17565b909160608284031261000e578151916001600160401b039283811161000e5784613c5f9183016139c8565b93602082015184811161000e5781613c78918401613bd6565b93604083015190811161000e576109059201613bd6565b92613ca860149193929360208082518301019101613c34565b9391929092015191613cbb848285613dad565b805160018103613d40575091612ee761ffff92613d0c613d05613cfe7f330378e2f010257b2fbe836316fb7ab303af5ed8f2795b82bca60d1c8c909f7697612d99565b5197612d99565b5197612d29565b9660405194859460018060a01b0316991696849160409194936001600160401b039160608501968552602085015216910152565b600190959391949511613d56575b505050505050565b613d9f61ffff92613d877f5604161d52abb20dbe3d4a2230e585a0b230b3d18179a0e00917b173f5f9adab95612d29565b9660405194859460018060a01b031699169684612d49565b0390a4388080808080613d4e565b929160405192613dbc84610af2565b600084526001600160a01b038516801594909190613dda86156146a0565b613de78551855114614518565b60005b8551811015613e445780613e01613e329287612daf565b51613e20613e0f838a612daf565b516000526009602052604060002090565b8054918201809211613e375755614208565b613dea565b613e3f6132bb565b613039565b50909194613ee6575b60005b8451811015613ea15780613e67613e9c9286612daf565b51613e95613e8d8a611e14613e7c868c612daf565b516000526006602052604060002090565b918254613fea565b9055614208565b613e50565b509290946106c69460006040517f4a39dc06d4c0dbc64b70af90fd698a233a518aa5d07e595d983b8c0526c8f7fb339180613edd898983614575565b0390a433614c73565b939060005b8451811015613f205780613f02613f1b9286612daf565b51613e95613f13613e0f848a612daf565b918254613436565b613eeb565b509093613e4d565b6020919283604051948593843782019081520301902090565b15613f4857565b60405162461bcd60e51b815260206004820152602160248201527f4e6f6e626c6f636b696e674c7a4170703a20696e76616c6964207061796c6f616044820152601960fa1b6064820152608490fd5b91613fc39060609461ffff6001600160401b039499989799168552608060208601526080850191613a2f565b951660408201520152565b90601f82018092116132e557565b60300190816030116132e557565b919082018092116132e557565b15613ffe57565b60405162461bcd60e51b815260206004820152600e60248201526d736c6963655f6f766572666c6f7760901b6044820152606490fd5b1561403b57565b60405162461bcd60e51b8152602060048201526011602482015270736c6963655f6f75744f66426f756e647360781b6044820152606490fd5b6140888261408181613fce565b1015613ff7565b6140958282511015614034565b816140ad575050604051600081526020810160405290565b60405191601f811691821560051b808486010193838501920101905b8084106140e15750508252601f01601f191660405290565b90928351815260208091019301906140c9565b6040519060c082018281106001600160401b03821117614120575b6040526096825260a0366020840137565b614128610aa0565b61410f565b600080546001600160a01b039283166001600160a01b03198216811783559216907f8be0079c531659141344cd1fd0a4f28419497f9722a3daafe3b4186f6b6457e09080a3565b6001600160a01b038116156141af576141ab91600052600660205260406000209060018060a01b0316600052602052604060002090565b5490565b60405162461bcd60e51b815260206004820152602b60248201527f455243313135353a2062616c616e636520717565727920666f7220746865207a60448201526a65726f206164647265737360a81b6064820152608490fd5b6001906000198114614218570190565b6114ef6132bb565b919091805183510361429157614236815161314e565b9060005b815181101561428a57806142756142646142576142859486612daf565b516001600160a01b031690565b61426e8389612daf565b5190614174565b61427f8286612daf565b52614208565b61423a565b5090925050565b60405162461bcd60e51b815260206004820152602960248201527f455243313135353a206163636f756e747320616e6420696473206c656e677468604482015268040dad2e6dac2e8c6d60bb1b6064820152608490fd5b156142ef57565b60405162461bcd60e51b815260206004820152602560248201527f455243313135353a207472616e7366657220746f20746865207a65726f206164604482015264647265737360d81b6064820152608490fd5b1561434957565b60405162461bcd60e51b815260206004820152602a60248201527f455243313135353a20696e73756666696369656e742062616c616e636520666f60448201526939103a3930b739b332b960b11b6064820152608490fd5b6001600160a01b0395949392919086821680156143be81156142e8565b6143c785613180565b6143d087613180565b9984169182156144d4575b614485575b506106c69798508561440084611e14886000526006602052604060002090565b5461440d82821015614342565b0361442684611e14886000526006602052604060002090565b5561443f84611e14876000526006602052604060002090565b61444a878254613fea565b9055604080518681526020810188905233917fc3d58168c5ae7397731d063d5bbf3d657854427343f4c083240f7aacaa2d0f6291a433614b1f565b969492909795939160005b88518110156144bf578089613e95613f13613e0f8f956144b3816144ba98612daf565b5194612daf565b614490565b509193959850919395506106c69688976143e0565b98969492909795939160005b8b8a5182101561450857908a613e95613e8d613e0f846144b38161450398612daf565b6144e0565b50509193959790929496986143db565b1561451f57565b60405162461bcd60e51b815260206004820152602860248201527f455243313135353a2069647320616e6420616d6f756e7473206c656e677468206044820152670dad2e6dac2e8c6d60c31b6064820152608490fd5b909161458c6109059360408452604084019061113b565b91602081840391015261113b565b9394929190926145ad8251845114614518565b6001600160a01b03958487166145c48115156142e8565b6145d08585888a614d5f565b60005b8451811015614658578088613e95613e8d8a611e148b614601876145fa6146539a8f612daf565b5192612daf565b51956146428761461f83611e14866000526006602052604060002090565b5461462c82821015614342565b0391611e14846000526006602052604060002090565b556000526006602052604060002090565b6145d3565b506106c69691959297604051908316907f4a39dc06d4c0dbc64b70af90fd698a233a518aa5d07e595d983b8c0526c8f7fb3391806146978a8a83614575565b0390a433614caa565b156146a757565b60405162461bcd60e51b815260206004820152602160248201527f455243313135353a206d696e7420746f20746865207a65726f206164647265736044820152607360f81b6064820152608490fd5b6001600160a01b038116948515949193909261471286156146a0565b61471b81613180565b9461472583613180565b9760005b87518110156147565780614740614751928c612daf565b51613e95613e8d613e0f848d612daf565b614729565b50919395909294966147cc575b506106c695965061478282611e14856000526006602052604060002090565b61478d858254613fea565b9055604080518481526020810186905260009133917fc3d58168c5ae7397731d063d5bbf3d657854427343f4c083240f7aacaa2d0f629190a4336149bb565b94929095939160005b865181101561480257806147ec6147fd928b612daf565b51613e95613f13613e0f848c612daf565b6147d5565b50919396509193506106c6948695614763565b1561481c57565b60405162461bcd60e51b8152602060048201526024808201527f455243313135353a206275726e20616d6f756e7420657863656564732062616c604482015263616e636560e01b6064820152608490fd5b9081602091031261000e575161090581610709565b909260a0926109059594600180861b03168352600060208401526040830152606082015281608082015201906108cf565b919261090595949160a094600180871b0380921685521660208401526040830152606082015281608082015201906108cf565b60809060208152602860208201527f455243313135353a204552433131353552656365697665722072656a656374656040820152676420746f6b656e7360c01b60608201520190565b60009060033d1161493c57565b905060046000803e60005160e01c90565b600060443d1061090557604051600319913d83016004833e81516001600160401b03918282113d6024840111176149aa578184019485519384116149b2573d850101602084870101116149aa575061090592910160200190610b0d565b949350505050565b50949350505050565b9390803b6149ca575050505050565b6149f29360006020946040519687958694859363f23a6e6160e01b9b8c865260048601614882565b03926001600160a01b03165af160009181614aef575b50614ac75750506001614a1961492f565b6308c379a014614a98575b614a32573880808080613b04565b60405162461bcd60e51b815260206004820152603460248201527f455243313135353a207472616e7366657220746f206e6f6e20455243313135356044820152732932b1b2b4bb32b91034b6b83632b6b2b73a32b960611b6064820152608490fd5b0390fd5b614aa061494d565b80614aab5750614a24565b60405162461bcd60e51b8152908190614a9490600483016108f4565b6001600160e01b03191614613b145760405162461bcd60e51b815280614a94600482016148e6565b614b1191925060203d8111614b18575b614b098183610b0d565b81019061486d565b9038614a08565b503d614aff565b9493919092813b614b3257505050505050565b6000602094614b596040519788968795869463f23a6e6160e01b9c8d8752600487016148b3565b03926001600160a01b03165af160009181614bd6575b50614bae5750506001614b8061492f565b6308c379a014614b9b575b614a32575b388080808080613d4e565b614ba361494d565b80614aab5750614b8b565b6001600160e01b03191614614b905760405162461bcd60e51b815280614a94600482016148e6565b614bef91925060203d8111614b1857614b098183610b0d565b9038614b6f565b92614c256109059593614c339360018060a01b031686526000602087015260a0604087015260a086019061113b565b90848203606086015261113b565b9160808184039101526108cf565b93906109059593614c2591614c339460018060a01b03809216885216602087015260a0604087015260a086019061113b565b9390803b614c82575050505050565b6149f29360006020946040519687958694859363bc197c8160e01b9b8c865260048601614bf6565b9493919092813b614cbd57505050505050565b6000602094614b596040519788968795869463bc197c8160e01b9c8d875260048701614c41565b9192916001600160a01b031615614d2c575b60005b8151811015614d265780614d10614d219286612daf565b51613e95613f13613e0f8487612daf565b614cf9565b50509050565b60005b8151811015614d595780614d46614d549286612daf565b51613e20613e0f8386612daf565b614d2f565b50614cf6565b9293926001600160a01b039190821615614d9e575b1615614d7f57509050565b60005b8151811015614d265780614d10614d999286612daf565b614d82565b929060005b8351811015614dd05780614dba614dcb9288612daf565b51613e95613e8d613e0f8489612daf565b614da3565b509092614d74565b906020918051821015614dea57010190565b614df2612d82565b010190565b8015614eb257806000908282935b614e9e5750614e1383610bb2565b92614e216040519485610b0d565b80845281601f19614e3183610bb2565b013660208701375b614e435750505090565b6000198101908111614e91575b8091600a91614e88614e7f614e6f614e69868606613fdc565b60ff1690565b60f81b6001600160f81b03191690565b861a9187614dd8565b53049081614e39565b614e996132bb565b614e50565b92614eaa600a91614208565b930480614e05565b50604051614ebf81610ad7565b60018152600360fc1b602082015290565b929091906000915b8451831015614f2357614eeb8386612daf565b5190818111614f0e57600052602052614f08604060002092614208565b91614ed8565b90600052602052614f08604060002092614208565b915092501490565b9081602091031261000e5751610905816118f4565b6daaeb6d7670e522a718067333cd4e803b614f59575050565b604051633185c44d60e21b81523060048201526001600160a01b038316602482015290602090829060449082905afa908115614ff2575b600091614fc4575b5015614fa15750565b604051633b79c77360e21b81526001600160a01b03919091166004820152602490fd5b614fe5915060203d8111614feb575b614fdd8183610b0d565b810190614f2b565b38614f98565b503d614fd3565b614ffa612bff565b614f9056fea2646970667358221220ed04ae2920ec7b44bef108965a0a991d073748642cf1145a8bedd4bccce33c1664736f6c63430008110033",
    "linkReferences": {}
  },
  "methodIdentifiers": {
    "DEFAULT_PAYLOAD_SIZE_LIMIT()": "c4461834",
    "OPERATOR_FILTER_REGISTRY()": "41f43434",
    "_publicSaleStarted()": "600e97f6",
    "_saleStarted()": "87c348bf",
    "balanceOf(address,uint256)": "00fdd58e",
    "balanceOfBatch(address[],uint256[])": "4e1273f4",
    "contractURI()": "e8a3d485",
    "estimateSendBatchFee(uint16,bytes,uint256[],uint256[],bool,bytes)": "b2535663",
    "estimateSendFee(uint16,bytes,uint256,uint256,bool,bytes)": "8608e5f8",
    "exists(uint256)": "4f558e79",
    "failedMessages(uint16,bytes,uint64)": "5b8c41e6",
    "flipPublicSaleStarted()": "1291e33e",
    "flipRevealed()": "3b2c3fb6",
    "flipSaleStarted()": "899d7b38",
    "forceResumeReceive(uint16,bytes)": "42d65a8d",
    "getConfig(uint16,uint16,address,uint256)": "f5ecbdbc",
    "getTrustedRemoteAddress(uint16)": "9f38369a",
    "isApprovedForAll(address,address)": "e985e9c5",
    "isTrustedRemote(uint16,bytes)": "3d8b38f6",
    "lzEndpoint()": "b353aaa7",
    "lzReceive(uint16,bytes,uint64,bytes)": "001d3567",
    "merkleRoot()": "2eb4a7ab",
    "minDstGasLookup(uint16,uint16)": "8cfd8f5c",
    "mint(uint256,uint256,bytes32[])": "e6d37b88",
    "nonblockingLzReceive(uint16,bytes,uint64,bytes)": "66ad5c8a",
    "owner()": "8da5cb5b",
    "payloadSizeLimitLookup(uint16)": "3f1f4fa4",
    "precrime()": "950c8a74",
    "price()": "a035b1fe",
    "publicMint(uint256,uint256)": "98ae99a8",
    "renounceOwnership()": "715018a6",
    "retryMessage(uint16,bytes,uint64,bytes)": "d1deba1f",
    "safeBatchTransferFrom(address,address,uint256[],uint256[],bytes)": "2eb2c2d6",
    "safeTransferFrom(address,address,uint256,uint256,bytes)": "f242432a",
    "sendBatchFrom(address,uint16,bytes,uint256[],uint256[],address,address,bytes)": "4ab4e687",
    "sendFrom(address,uint16,bytes,uint256,uint256,address,address,bytes)": "4db8226a",
    "setApprovalForAll(address,bool)": "a22cb465",
    "setBaseURI(string)": "55f804b3",
    "setBeneficiary(address)": "1c31f710",
    "setConfig(uint16,uint16,uint256,bytes)": "cbed8b9c",
    "setContractURI(string)": "938e3d7b",
    "setHiddenMetadataUri(string)": "4fdd43cb",
    "setMerkleRoot(bytes32)": "7cb64759",
    "setMinDstGas(uint16,uint16,uint256)": "df2a5b3b",
    "setPayloadSizeLimit(uint16,uint256)": "0df37483",
    "setPrecrime(address)": "baf3292d",
    "setPrice(uint256)": "91b7f5ed",
    "setReceiveVersion(uint16)": "10ddb137",
    "setSendVersion(uint16)": "07e0db17",
    "setTax(uint256)": "2e5bb6ff",
    "setTaxRecipient(address)": "78e3079e",
    "setTrustedRemote(uint16,bytes)": "eb8d72b7",
    "setTrustedRemoteAddress(uint16,bytes)": "a6c3d165",
    "supportsInterface(bytes4)": "01ffc9a7",
    "tax()": "99c8d556",
    "totalSupply(uint256)": "bd85b039",
    "transferOwnership(address)": "f2fde38b",
    "trustedRemoteLookup(uint16)": "7533d788",
    "uri(uint256)": "0e89341c",
    "withdraw()": "3ccfd60b"
  },
  "id": 172
}