{
  "abi": [
    {
      "inputs": [
        {
          "internalType": "address",
          "name": "_layerZeroEndpoint",
          "type": "address"
        },
        {
          "internalType": "string",
          "name": "_baseTokenURI",
          "type": "string"
        },
        {
          "internalType": "string",
          "name": "_hiddenURI",
          "type": "string"
        },
        {
          "internalType": "uint256",
          "name": "_tax",
          "type": "uint256"
        },
        {
          "internalType": "address",
          "name": "_taxRecipient",
          "type": "address"
        }
      ],
      "stateMutability": "nonpayable",
      "type": "constructor"
    },
    {
      "inputs": [
        {
          "internalType": "address",
          "name": "operator",
          "type": "address"
        }
      ],
      "name": "OperatorNotAllowed",
      "type": "error"
    },
    {
      "anonymous": false,
      "inputs": [
        {
          "indexed": true,
          "internalType": "address",
          "name": "account",
          "type": "address"
        },
        {
          "indexed": true,
          "internalType": "address",
          "name": "operator",
          "type": "address"
        },
        {
          "indexed": false,
          "internalType": "bool",
          "name": "approved",
          "type": "bool"
        }
      ],
      "name": "ApprovalForAll",
      "type": "event"
    },
    {
      "anonymous": false,
      "inputs": [
        {
          "indexed": false,
          "internalType": "uint16",
          "name": "_srcChainId",
          "type": "uint16"
        },
        {
          "indexed": false,
          "internalType": "bytes",
          "name": "_srcAddress",
          "type": "bytes"
        },
        {
          "indexed": false,
          "internalType": "uint64",
          "name": "_nonce",
          "type": "uint64"
        },
        {
          "indexed": false,
          "internalType": "bytes",
          "name": "_payload",
          "type": "bytes"
        },
        {
          "indexed": false,
          "internalType": "bytes",
          "name": "_reason",
          "type": "bytes"
        }
      ],
      "name": "MessageFailed",
      "type": "event"
    },
    {
      "anonymous": false,
      "inputs": [
        {
          "indexed": true,
          "internalType": "address",
          "name": "previousOwner",
          "type": "address"
        },
        {
          "indexed": true,
          "internalType": "address",
          "name": "newOwner",
          "type": "address"
        }
      ],
      "name": "OwnershipTransferred",
      "type": "event"
    },
    {
      "anonymous": false,
      "inputs": [
        {
          "indexed": true,
          "internalType": "uint16",
          "name": "_srcChainId",
          "type": "uint16"
        },
        {
          "indexed": true,
          "internalType": "bytes",
          "name": "_srcAddress",
          "type": "bytes"
        },
        {
          "indexed": true,
          "internalType": "address",
          "name": "_toAddress",
          "type": "address"
        },
        {
          "indexed": false,
          "internalType": "uint256[]",
          "name": "_tokenIds",
          "type": "uint256[]"
        },
        {
          "indexed": false,
          "internalType": "uint256[]",
          "name": "_amounts",
          "type": "uint256[]"
        },
        {
          "indexed": false,
          "internalType": "uint64",
          "name": "_nonce",
          "type": "uint64"
        }
      ],
      "name": "ReceiveBatchFromChain",
      "type": "event"
    },
    {
      "anonymous": false,
      "inputs": [
        {
          "indexed": true,
          "internalType": "uint16",
          "name": "_srcChainId",
          "type": "uint16"
        },
        {
          "indexed": true,
          "internalType": "bytes",
          "name": "_srcAddress",
          "type": "bytes"
        },
        {
          "indexed": true,
          "internalType": "address",
          "name": "_toAddress",
          "type": "address"
        },
        {
          "indexed": false,
          "internalType": "uint256",
          "name": "_tokenId",
          "type": "uint256"
        },
        {
          "indexed": false,
          "internalType": "uint256",
          "name": "_amount",
          "type": "uint256"
        },
        {
          "indexed": false,
          "internalType": "uint64",
          "name": "_nonce",
          "type": "uint64"
        }
      ],
      "name": "ReceiveFromChain",
      "type": "event"
    },
    {
      "anonymous": false,
      "inputs": [
        {
          "indexed": false,
          "internalType": "uint16",
          "name": "_srcChainId",
          "type": "uint16"
        },
        {
          "indexed": false,
          "internalType": "bytes",
          "name": "_srcAddress",
          "type": "bytes"
        },
        {
          "indexed": false,
          "internalType": "uint64",
          "name": "_nonce",
          "type": "uint64"
        },
        {
          "indexed": false,
          "internalType": "bytes32",
          "name": "_payloadHash",
          "type": "bytes32"
        }
      ],
      "name": "RetryMessageSuccess",
      "type": "event"
    },
    {
      "anonymous": false,
      "inputs": [
        {
          "indexed": true,
          "internalType": "address",
          "name": "_sender",
          "type": "address"
        },
        {
          "indexed": true,
          "internalType": "uint16",
          "name": "_dstChainId",
          "type": "uint16"
        },
        {
          "indexed": true,
          "internalType": "bytes",
          "name": "_toAddress",
          "type": "bytes"
        },
        {
          "indexed": false,
          "internalType": "uint256[]",
          "name": "_tokenIds",
          "type": "uint256[]"
        },
        {
          "indexed": false,
          "internalType": "uint256[]",
          "name": "_amounts",
          "type": "uint256[]"
        },
        {
          "indexed": false,
          "internalType": "uint64",
          "name": "_nonce",
          "type": "uint64"
        }
      ],
      "name": "SendBatchToChain",
      "type": "event"
    },
    {
      "anonymous": false,
      "inputs": [
        {
          "indexed": true,
          "internalType": "address",
          "name": "_sender",
          "type": "address"
        },
        {
          "indexed": true,
          "internalType": "uint16",
          "name": "_dstChainId",
          "type": "uint16"
        },
        {
          "indexed": true,
          "internalType": "bytes",
          "name": "_toAddress",
          "type": "bytes"
        },
        {
          "indexed": false,
          "internalType": "uint256",
          "name": "_tokenId",
          "type": "uint256"
        },
        {
          "indexed": false,
          "internalType": "uint256",
          "name": "_amount",
          "type": "uint256"
        },
        {
          "indexed": false,
          "internalType": "uint64",
          "name": "_nonce",
          "type": "uint64"
        }
      ],
      "name": "SendToChain",
      "type": "event"
    },
    {
      "anonymous": false,
      "inputs": [
        {
          "indexed": false,
          "internalType": "uint16",
          "name": "_dstChainId",
          "type": "uint16"
        },
        {
          "indexed": false,
          "internalType": "uint16",
          "name": "_type",
          "type": "uint16"
        },
        {
          "indexed": false,
          "internalType": "uint256",
          "name": "_minDstGas",
          "type": "uint256"
        }
      ],
      "name": "SetMinDstGas",
      "type": "event"
    },
    {
      "anonymous": false,
      "inputs": [
        {
          "indexed": false,
          "internalType": "address",
          "name": "precrime",
          "type": "address"
        }
      ],
      "name": "SetPrecrime",
      "type": "event"
    },
    {
      "anonymous": false,
      "inputs": [
        {
          "indexed": false,
          "internalType": "uint16",
          "name": "_remoteChainId",
          "type": "uint16"
        },
        {
          "indexed": false,
          "internalType": "bytes",
          "name": "_path",
          "type": "bytes"
        }
      ],
      "name": "SetTrustedRemote",
      "type": "event"
    },
    {
      "anonymous": false,
      "inputs": [
        {
          "indexed": false,
          "internalType": "uint16",
          "name": "_remoteChainId",
          "type": "uint16"
        },
        {
          "indexed": false,
          "internalType": "bytes",
          "name": "_remoteAddress",
          "type": "bytes"
        }
      ],
      "name": "SetTrustedRemoteAddress",
      "type": "event"
    },
    {
      "anonymous": false,
      "inputs": [
        {
          "indexed": true,
          "internalType": "address",
          "name": "operator",
          "type": "address"
        },
        {
          "indexed": true,
          "internalType": "address",
          "name": "from",
          "type": "address"
        },
        {
          "indexed": true,
          "internalType": "address",
          "name": "to",
          "type": "address"
        },
        {
          "indexed": false,
          "internalType": "uint256[]",
          "name": "ids",
          "type": "uint256[]"
        },
        {
          "indexed": false,
          "internalType": "uint256[]",
          "name": "values",
          "type": "uint256[]"
        }
      ],
      "name": "TransferBatch",
      "type": "event"
    },
    {
      "anonymous": false,
      "inputs": [
        {
          "indexed": true,
          "internalType": "address",
          "name": "operator",
          "type": "address"
        },
        {
          "indexed": true,
          "internalType": "address",
          "name": "from",
          "type": "address"
        },
        {
          "indexed": true,
          "internalType": "address",
          "name": "to",
          "type": "address"
        },
        {
          "indexed": false,
          "internalType": "uint256",
          "name": "id",
          "type": "uint256"
        },
        {
          "indexed": false,
          "internalType": "uint256",
          "name": "value",
          "type": "uint256"
        }
      ],
      "name": "TransferSingle",
      "type": "event"
    },
    {
      "anonymous": false,
      "inputs": [
        {
          "indexed": false,
          "internalType": "string",
          "name": "value",
          "type": "string"
        },
        {
          "indexed": true,
          "internalType": "uint256",
          "name": "id",
          "type": "uint256"
        }
      ],
      "name": "URI",
      "type": "event"
    },
    {
      "inputs": [],
      "name": "DEFAULT_PAYLOAD_SIZE_LIMIT",
      "outputs": [
        {
          "internalType": "uint256",
          "name": "",
          "type": "uint256"
        }
      ],
      "stateMutability": "view",
      "type": "function"
    },
    {
      "inputs": [],
      "name": "OPERATOR_FILTER_REGISTRY",
      "outputs": [
        {
          "internalType": "contract IOperatorFilterRegistry",
          "name": "",
          "type": "address"
        }
      ],
      "stateMutability": "view",
      "type": "function"
    },
    {
      "inputs": [],
      "name": "_publicSaleStarted",
      "outputs": [
        {
          "internalType": "bool",
          "name": "",
          "type": "bool"
        }
      ],
      "stateMutability": "view",
      "type": "function"
    },
    {
      "inputs": [],
      "name": "_saleStarted",
      "outputs": [
        {
          "internalType": "bool",
          "name": "",
          "type": "bool"
        }
      ],
      "stateMutability": "view",
      "type": "function"
    },
    {
      "inputs": [
        {
          "internalType": "address",
          "name": "account",
          "type": "address"
        },
        {
          "internalType": "uint256",
          "name": "id",
          "type": "uint256"
        }
      ],
      "name": "balanceOf",
      "outputs": [
        {
          "internalType": "uint256",
          "name": "",
          "type": "uint256"
        }
      ],
      "stateMutability": "view",
      "type": "function"
    },
    {
      "inputs": [
        {
          "internalType": "address[]",
          "name": "accounts",
          "type": "address[]"
        },
        {
          "internalType": "uint256[]",
          "name": "ids",
          "type": "uint256[]"
        }
      ],
      "name": "balanceOfBatch",
      "outputs": [
        {
          "internalType": "uint256[]",
          "name": "",
          "type": "uint256[]"
        }
      ],
      "stateMutability": "view",
      "type": "function"
    },
    {
      "inputs": [],
      "name": "contractURI",
      "outputs": [
        {
          "internalType": "string",
          "name": "",
          "type": "string"
        }
      ],
      "stateMutability": "view",
      "type": "function"
    },
    {
      "inputs": [
        {
          "internalType": "uint16",
          "name": "_dstChainId",
          "type": "uint16"
        },
        {
          "internalType": "bytes",
          "name": "_toAddress",
          "type": "bytes"
        },
        {
          "internalType": "uint256[]",
          "name": "_tokenIds",
          "type": "uint256[]"
        },
        {
          "internalType": "uint256[]",
          "name": "_amounts",
          "type": "uint256[]"
        },
        {
          "internalType": "bool",
          "name": "_useZro",
          "type": "bool"
        },
        {
          "internalType": "bytes",
          "name": "_adapterParams",
          "type": "bytes"
        }
      ],
      "name": "estimateSendBatchFee",
      "outputs": [
        {
          "internalType": "uint256",
          "name": "nativeFee",
          "type": "uint256"
        },
        {
          "internalType": "uint256",
          "name": "zroFee",
          "type": "uint256"
        }
      ],
      "stateMutability": "view",
      "type": "function"
    },
    {
      "inputs": [
        {
          "internalType": "uint16",
          "name": "_dstChainId",
          "type": "uint16"
        },
        {
          "internalType": "bytes",
          "name": "_toAddress",
          "type": "bytes"
        },
        {
          "internalType": "uint256",
          "name": "_tokenId",
          "type": "uint256"
        },
        {
          "internalType": "uint256",
          "name": "_amount",
          "type": "uint256"
        },
        {
          "internalType": "bool",
          "name": "_useZro",
          "type": "bool"
        },
        {
          "internalType": "bytes",
          "name": "_adapterParams",
          "type": "bytes"
        }
      ],
      "name": "estimateSendFee",
      "outputs": [
        {
          "internalType": "uint256",
          "name": "nativeFee",
          "type": "uint256"
        },
        {
          "internalType": "uint256",
          "name": "zroFee",
          "type": "uint256"
        }
      ],
      "stateMutability": "view",
      "type": "function"
    },
    {
      "inputs": [
        {
          "internalType": "uint256",
          "name": "id",
          "type": "uint256"
        }
      ],
      "name": "exists",
      "outputs": [
        {
          "internalType": "bool",
          "name": "",
          "type": "bool"
        }
      ],
      "stateMutability": "view",
      "type": "function"
    },
    {
      "inputs": [
        {
          "internalType": "uint16",
          "name": "",
          "type": "uint16"
        },
        {
          "internalType": "bytes",
          "name": "",
          "type": "bytes"
        },
        {
          "internalType": "uint64",
          "name": "",
          "type": "uint64"
        }
      ],
      "name": "failedMessages",
      "outputs": [
        {
          "internalType": "bytes32",
          "name": "",
          "type": "bytes32"
        }
      ],
      "stateMutability": "view",
      "type": "function"
    },
    {
      "inputs": [],
      "name": "flipPublicSaleStarted",
      "outputs": [],
      "stateMutability": "nonpayable",
      "type": "function"
    },
    {
      "inputs": [],
      "name": "flipRevealed",
      "outputs": [],
      "stateMutability": "nonpayable",
      "type": "function"
    },
    {
      "inputs": [],
      "name": "flipSaleStarted",
      "outputs": [],
      "stateMutability": "nonpayable",
      "type": "function"
    },
    {
      "inputs": [
        {
          "internalType": "uint16",
          "name": "_srcChainId",
          "type": "uint16"
        },
        {
          "internalType": "bytes",
          "name": "_srcAddress",
          "type": "bytes"
        }
      ],
      "name": "forceResumeReceive",
      "outputs": [],
      "stateMutability": "nonpayable",
      "type": "function"
    },
    {
      "inputs": [
        {
          "internalType": "uint16",
          "name": "_version",
          "type": "uint16"
        },
        {
          "internalType": "uint16",
          "name": "_chainId",
          "type": "uint16"
        },
        {
          "internalType": "address",
          "name": "",
          "type": "address"
        },
        {
          "internalType": "uint256",
          "name": "_configType",
          "type": "uint256"
        }
      ],
      "name": "getConfig",
      "outputs": [
        {
          "internalType": "bytes",
          "name": "",
          "type": "bytes"
        }
      ],
      "stateMutability": "view",
      "type": "function"
    },
    {
      "inputs": [
        {
          "internalType": "uint16",
          "name": "_remoteChainId",
          "type": "uint16"
        }
      ],
      "name": "getTrustedRemoteAddress",
      "outputs": [
        {
          "internalType": "bytes",
          "name": "",
          "type": "bytes"
        }
      ],
      "stateMutability": "view",
      "type": "function"
    },
    {
      "inputs": [
        {
          "internalType": "address",
          "name": "account",
          "type": "address"
        },
        {
          "internalType": "address",
          "name": "operator",
          "type": "address"
        }
      ],
      "name": "isApprovedForAll",
      "outputs": [
        {
          "internalType": "bool",
          "name": "",
          "type": "bool"
        }
      ],
      "stateMutability": "view",
      "type": "function"
    },
    {
      "inputs": [
        {
          "internalType": "uint16",
          "name": "_srcChainId",
          "type": "uint16"
        },
        {
          "internalType": "bytes",
          "name": "_srcAddress",
          "type": "bytes"
        }
      ],
      "name": "isTrustedRemote",
      "outputs": [
        {
          "internalType": "bool",
          "name": "",
          "type": "bool"
        }
      ],
      "stateMutability": "view",
      "type": "function"
    },
    {
      "inputs": [],
      "name": "lzEndpoint",
      "outputs": [
        {
          "internalType": "contract ILayerZeroEndpoint",
          "name": "",
          "type": "address"
        }
      ],
      "stateMutability": "view",
      "type": "function"
    },
    {
      "inputs": [
        {
          "internalType": "uint16",
          "name": "_srcChainId",
          "type": "uint16"
        },
        {
          "internalType": "bytes",
          "name": "_srcAddress",
          "type": "bytes"
        },
        {
          "internalType": "uint64",
          "name": "_nonce",
          "type": "uint64"
        },
        {
          "internalType": "bytes",
          "name": "_payload",
          "type": "bytes"
        }
      ],
      "name": "lzReceive",
      "outputs": [],
      "stateMutability": "nonpayable",
      "type": "function"
    },
    {
      "inputs": [],
      "name": "merkleRoot",
      "outputs": [
        {
          "internalType": "bytes32",
          "name": "",
          "type": "bytes32"
        }
      ],
      "stateMutability": "view",
      "type": "function"
    },
    {
      "inputs": [
        {
          "internalType": "uint16",
          "name": "",
          "type": "uint16"
        },
        {
          "internalType": "uint16",
          "name": "",
          "type": "uint16"
        }
      ],
      "name": "minDstGasLookup",
      "outputs": [
        {
          "internalType": "uint256",
          "name": "",
          "type": "uint256"
        }
      ],
      "stateMutability": "view",
      "type": "function"
    },
    {
      "inputs": [
        {
          "internalType": "uint256",
          "name": "_tokenId",
          "type": "uint256"
        },
        {
          "internalType": "uint256",
          "name": "_amount",
          "type": "uint256"
        },
        {
          "internalType": "bytes32[]",
          "name": "_merkleProof",
          "type": "bytes32[]"
        }
      ],
      "name": "mint",
      "outputs": [],
      "stateMutability": "payable",
      "type": "function"
    },
    {
      "inputs": [
        {
          "internalType": "uint16",
          "name": "_srcChainId",
          "type": "uint16"
        },
        {
          "internalType": "bytes",
          "name": "_srcAddress",
          "type": "bytes"
        },
        {
          "internalType": "uint64",
          "name": "_nonce",
          "type": "uint64"
        },
        {
          "internalType": "bytes",
          "name": "_payload",
          "type": "bytes"
        }
      ],
      "name": "nonblockingLzReceive",
      "outputs": [],
      "stateMutability": "nonpayable",
      "type": "function"
    },
    {
      "inputs": [],
      "name": "owner",
      "outputs": [
        {
          "internalType": "address",
          "name": "",
          "type": "address"
        }
      ],
      "stateMutability": "view",
      "type": "function"
    },
    {
      "inputs": [
        {
          "internalType": "uint16",
          "name": "",
          "type": "uint16"
        }
      ],
      "name": "payloadSizeLimitLookup",
      "outputs": [
        {
          "internalType": "uint256",
          "name": "",
          "type": "uint256"
        }
      ],
      "stateMutability": "view",
      "type": "function"
    },
    {
      "inputs": [],
      "name": "precrime",
      "outputs": [
        {
          "internalType": "address",
          "name": "",
          "type": "address"
        }
      ],
      "stateMutability": "view",
      "type": "function"
    },
    {
      "inputs": [],
      "name": "price",
      "outputs": [
        {
          "internalType": "uint256",
          "name": "",
          "type": "uint256"
        }
      ],
      "stateMutability": "view",
      "type": "function"
    },
    {
      "inputs": [
        {
          "internalType": "uint256",
          "name": "_tokenId",
          "type": "uint256"
        },
        {
          "internalType": "uint256",
          "name": "_amount",
          "type": "uint256"
        }
      ],
      "name": "publicMint",
      "outputs": [],
      "stateMutability": "payable",
      "type": "function"
    },
    {
      "inputs": [],
      "name": "renounceOwnership",
      "outputs": [],
      "stateMutability": "nonpayable",
      "type": "function"
    },
    {
      "inputs": [
        {
          "internalType": "uint16",
          "name": "_srcChainId",
          "type": "uint16"
        },
        {
          "internalType": "bytes",
          "name": "_srcAddress",
          "type": "bytes"
        },
        {
          "internalType": "uint64",
          "name": "_nonce",
          "type": "uint64"
        },
        {
          "internalType": "bytes",
          "name": "_payload",
          "type": "bytes"
        }
      ],
      "name": "retryMessage",
      "outputs": [],
      "stateMutability": "payable",
      "type": "function"
    },
    {
      "inputs": [
        {
          "internalType": "address",
          "name": "from",
          "type": "address"
        },
        {
          "internalType": "address",
          "name": "to",
          "type": "address"
        },
        {
          "internalType": "uint256[]",
          "name": "ids",
          "type": "uint256[]"
        },
        {
          "internalType": "uint256[]",
          "name": "amounts",
          "type": "uint256[]"
        },
        {
          "internalType": "bytes",
          "name": "data",
          "type": "bytes"
        }
      ],
      "name": "safeBatchTransferFrom",
      "outputs": [],
      "stateMutability": "nonpayable",
      "type": "function"
    },
    {
      "inputs": [
        {
          "internalType": "address",
          "name": "from",
          "type": "address"
        },
        {
          "internalType": "address",
          "name": "to",
          "type": "address"
        },
        {
          "internalType": "uint256",
          "name": "tokenId",
          "type": "uint256"
        },
        {
          "internalType": "uint256",
          "name": "amount",
          "type": "uint256"
        },
        {
          "internalType": "bytes",
          "name": "data",
          "type": "bytes"
        }
      ],
      "name": "safeTransferFrom",
      "outputs": [],
      "stateMutability": "nonpayable",
      "type": "function"
    },
    {
      "inputs": [
        {
          "internalType": "address",
          "name": "_from",
          "type": "address"
        },
        {
          "internalType": "uint16",
          "name": "_dstChainId",
          "type": "uint16"
        },
        {
          "internalType": "bytes",
          "name": "_toAddress",
          "type": "bytes"
        },
        {
          "internalType": "uint256[]",
          "name": "_tokenIds",
          "type": "uint256[]"
        },
        {
          "internalType": "uint256[]",
          "name": "_amounts",
          "type": "uint256[]"
        },
        {
          "internalType": "address payable",
          "name": "_refundAddress",
          "type": "address"
        },
        {
          "internalType": "address",
          "name": "_zroPaymentAddress",
          "type": "address"
        },
        {
          "internalType": "bytes",
          "name": "_adapterParams",
          "type": "bytes"
        }
      ],
      "name": "sendBatchFrom",
      "outputs": [],
      "stateMutability": "payable",
      "type": "function"
    },
    {
      "inputs": [
        {
          "internalType": "address",
          "name": "_from",
          "type": "address"
        },
        {
          "internalType": "uint16",
          "name": "_dstChainId",
          "type": "uint16"
        },
        {
          "internalType": "bytes",
          "name": "_toAddress",
          "type": "bytes"
        },
        {
          "internalType": "uint256",
          "name": "_tokenId",
          "type": "uint256"
        },
        {
          "internalType": "uint256",
          "name": "_amount",
          "type": "uint256"
        },
        {
          "internalType": "address payable",
          "name": "_refundAddress",
          "type": "address"
        },
        {
          "internalType": "address",
          "name": "_zroPaymentAddress",
          "type": "address"
        },
        {
          "internalType": "bytes",
          "name": "_adapterParams",
          "type": "bytes"
        }
      ],
      "name": "sendFrom",
      "outputs": [],
      "stateMutability": "payable",
      "type": "function"
    },
    {
      "inputs": [
        {
          "internalType": "address",
          "name": "operator",
          "type": "address"
        },
        {
          "internalType": "bool",
          "name": "approved",
          "type": "bool"
        }
      ],
      "name": "setApprovalForAll",
      "outputs": [],
      "stateMutability": "nonpayable",
      "type": "function"
    },
    {
      "inputs": [
        {
          "internalType": "string",
          "name": "baseUri",
          "type": "string"
        }
      ],
      "name": "setBaseURI",
      "outputs": [],
      "stateMutability": "nonpayable",
      "type": "function"
    },
    {
      "inputs": [
        {
          "internalType": "address payable",
          "name": "_beneficiary",
          "type": "address"
        }
      ],
      "name": "setBeneficiary",
      "outputs": [],
      "stateMutability": "nonpayable",
      "type": "function"
    },
    {
      "inputs": [
        {
          "internalType": "uint16",
          "name": "_version",
          "type": "uint16"
        },
        {
          "internalType": "uint16",
          "name": "_chainId",
          "type": "uint16"
        },
        {
          "internalType": "uint256",
          "name": "_configType",
          "type": "uint256"
        },
        {
          "internalType": "bytes",
          "name": "_config",
          "type": "bytes"
        }
      ],
      "name": "setConfig",
      "outputs": [],
      "stateMutability": "nonpayable",
      "type": "function"
    },
    {
      "inputs": [
        {
          "internalType": "string",
          "name": "_contractURI",
          "type": "string"
        }
      ],
      "name": "setContractURI",
      "outputs": [],
      "stateMutability": "nonpayable",
      "type": "function"
    },
    {
      "inputs": [
        {
          "internalType": "string",
          "name": "_hiddenMetadataUri",
          "type": "string"
        }
      ],
      "name": "setHiddenMetadataUri",
      "outputs": [],
      "stateMutability": "nonpayable",
      "type": "function"
    },
    {
      "inputs": [
        {
          "internalType": "bytes32",
          "name": "_merkleRoot",
          "type": "bytes32"
        }
      ],
      "name": "setMerkleRoot",
      "outputs": [],
      "stateMutability": "nonpayable",
      "type": "function"
    },
    {
      "inputs": [
        {
          "internalType": "uint16",
          "name": "_dstChainId",
          "type": "uint16"
        },
        {
          "internalType": "uint16",
          "name": "_packetType",
          "type": "uint16"
        },
        {
          "internalType": "uint256",
          "name": "_minGas",
          "type": "uint256"
        }
      ],
      "name": "setMinDstGas",
      "outputs": [],
      "stateMutability": "nonpayable",
      "type": "function"
    },
    {
      "inputs": [
        {
          "internalType": "uint16",
          "name": "_dstChainId",
          "type": "uint16"
        },
        {
          "internalType": "uint256",
          "name": "_size",
          "type": "uint256"
        }
      ],
      "name": "setPayloadSizeLimit",
      "outputs": [],
      "stateMutability": "nonpayable",
      "type": "function"
    },
    {
      "inputs": [
        {
          "internalType": "address",
          "name": "_precrime",
          "type": "address"
        }
      ],
      "name": "setPrecrime",
      "outputs": [],
      "stateMutability": "nonpayable",
      "type": "function"
    },
    {
      "inputs": [
        {
          "internalType": "uint256",
          "name": "newPrice",
          "type": "uint256"
        }
      ],
      "name": "setPrice",
      "outputs": [],
      "stateMutability": "nonpayable",
      "type": "function"
    },
    {
      "inputs": [
        {
          "internalType": "uint16",
          "name": "_version",
          "type": "uint16"
        }
      ],
      "name": "setReceiveVersion",
      "outputs": [],
      "stateMutability": "nonpayable",
      "type": "function"
    },
    {
      "inputs": [
        {
          "internalType": "uint16",
          "name": "_version",
          "type": "uint16"
        }
      ],
      "name": "setSendVersion",
      "outputs": [],
      "stateMutability": "nonpayable",
      "type": "function"
    },
    {
      "inputs": [
        {
          "internalType": "uint256",
          "name": "_tax",
          "type": "uint256"
        }
      ],
      "name": "setTax",
      "outputs": [],
      "stateMutability": "nonpayable",
      "type": "function"
    },
    {
      "inputs": [
        {
          "internalType": "address payable",
          "name": "_taxRecipient",
          "type": "address"
        }
      ],
      "name": "setTaxRecipient",
      "outputs": [],
      "stateMutability": "nonpayable",
      "type": "function"
    },
    {
      "inputs": [
        {
          "internalType": "uint16",
          "name": "_srcChainId",
          "type": "uint16"
        },
        {
          "internalType": "bytes",
          "name": "_path",
          "type": "bytes"
        }
      ],
      "name": "setTrustedRemote",
      "outputs": [],
      "stateMutability": "nonpayable",
      "type": "function"
    },
    {
      "inputs": [
        {
          "internalType": "uint16",
          "name": "_remoteChainId",
          "type": "uint16"
        },
        {
          "internalType": "bytes",
          "name": "_remoteAddress",
          "type": "bytes"
        }
      ],
      "name": "setTrustedRemoteAddress",
      "outputs": [],
      "stateMutability": "nonpayable",
      "type": "function"
    },
    {
      "inputs": [
        {
          "internalType": "bytes4",
          "name": "interfaceId",
          "type": "bytes4"
        }
      ],
      "name": "supportsInterface",
      "outputs": [
        {
          "internalType": "bool",
          "name": "",
          "type": "bool"
        }
      ],
      "stateMutability": "view",
      "type": "function"
    },
    {
      "inputs": [],
      "name": "tax",
      "outputs": [
        {
          "internalType": "uint256",
          "name": "",
          "type": "uint256"
        }
      ],
      "stateMutability": "view",
      "type": "function"
    },
    {
      "inputs": [
        {
          "internalType": "uint256",
          "name": "id",
          "type": "uint256"
        }
      ],
      "name": "totalSupply",
      "outputs": [
        {
          "internalType": "uint256",
          "name": "",
          "type": "uint256"
        }
      ],
      "stateMutability": "view",
      "type": "function"
    },
    {
      "inputs": [
        {
          "internalType": "address",
          "name": "newOwner",
          "type": "address"
        }
      ],
      "name": "transferOwnership",
      "outputs": [],
      "stateMutability": "nonpayable",
      "type": "function"
    },
    {
      "inputs": [
        {
          "internalType": "uint16",
          "name": "",
          "type": "uint16"
        }
      ],
      "name": "trustedRemoteLookup",
      "outputs": [
        {
          "internalType": "bytes",
          "name": "",
          "type": "bytes"
        }
      ],
      "stateMutability": "view",
      "type": "function"
    },
    {
      "inputs": [
        {
          "internalType": "uint256",
          "name": "tokenId",
          "type": "uint256"
        }
      ],
      "name": "uri",
      "outputs": [
        {
          "internalType": "string",
          "name": "",
          "type": "string"
        }
      ],
      "stateMutability": "view",
      "type": "function"
    },
    {
      "inputs": [],
      "name": "withdraw",
      "outputs": [],
      "stateMutability": "nonpayable",
      "type": "function"
    }
  ],
  "bytecode": {
    "object": "0x60a06040526103e8600b556000600c553480156200001c57600080fd5b50604051620058b1380380620058b18339810160408190526200003f9162000364565b8385733cc6cdda760b79bafa08df41ecfa224f810dceb6600183838080620000673362000220565b6001600160a01b0316608052506200008190508162000270565b506daaeb6d7670e522a718067333cd4e3b15620001c75780156200011557604051633e9f1edf60e11b81523060048201526001600160a01b03831660248201526daaeb6d7670e522a718067333cd4e90637d3e3dbe906044015b600060405180830381600087803b158015620000f657600080fd5b505af11580156200010b573d6000803e3d6000fd5b50505050620001c7565b6001600160a01b03821615620001665760405163a0af290360e01b81523060048201526001600160a01b03831660248201526daaeb6d7670e522a718067333cd4e9063a0af290390604401620000db565b604051632210724360e11b81523060048201526daaeb6d7670e522a718067333cd4e90634420e48690602401600060405180830381600087803b158015620001ad57600080fd5b505af1158015620001c2573d6000803e3d6000fd5b505050505b50506001600a555050600d80546001600160a01b031916331790556011620001f084826200048d565b50600b91909155600e80546001600160a01b0319166001600160a01b039092169190911790555062000559915050565b600080546001600160a01b038381166001600160a01b0319831681178455604051919092169283917f8be0079c531659141344cd1fd0a4f28419497f9722a3daafe3b4186f6b6457e09190a35050565b60086200027e82826200048d565b5050565b80516001600160a01b03811681146200029a57600080fd5b919050565b634e487b7160e01b600052604160045260246000fd5b600082601f830112620002c757600080fd5b81516001600160401b0380821115620002e457620002e46200029f565b604051601f8301601f19908116603f011681019082821181831017156200030f576200030f6200029f565b816040528381526020925086838588010111156200032c57600080fd5b600091505b8382101562000350578582018301518183018401529082019062000331565b600093810190920192909252949350505050565b600080600080600060a086880312156200037d57600080fd5b620003888662000282565b60208701519095506001600160401b0380821115620003a657600080fd5b620003b489838a01620002b5565b95506040880151915080821115620003cb57600080fd5b50620003da88828901620002b5565b93505060608601519150620003f26080870162000282565b90509295509295909350565b600181811c908216806200041357607f821691505b6020821081036200043457634e487b7160e01b600052602260045260246000fd5b50919050565b601f8211156200048857600081815260208120601f850160051c81016020861015620004635750805b601f850160051c820191505b8181101562000484578281556001016200046f565b5050505b505050565b81516001600160401b03811115620004a957620004a96200029f565b620004c181620004ba8454620003fe565b846200043a565b602080601f831160018114620004f95760008415620004e05750858301515b600019600386901b1c1916600185901b17855562000484565b600085815260208120601f198616915b828110156200052a5788860151825594840194600190910190840162000509565b5085821015620005495787850151600019600388901b60f8161c191681555b5050505050600190811b01905550565b6080516152fd620005b4600039600081816109b801528181610b8401528181610e860152818161100c0152818161135701528181611abd01528181611bc5015281816121e70152818161257e01526130ff01526152fd6000f3fe6080604052600436106103955760003560e01c80637cb64759116101dc578063b253566311610102578063df2a5b3b116100a0578063eb8d72b71161006f578063eb8d72b714610b01578063f242432a14610b21578063f2fde38b14610b41578063f5ecbdbc14610b6157600080fd5b8063df2a5b3b14610a70578063e6d37b8814610a90578063e8a3d48514610aa3578063e985e9c514610ab857600080fd5b8063bd85b039116100dc578063bd85b039146109fa578063c446183414610a27578063cbed8b9c14610a3d578063d1deba1f14610a5d57600080fd5b8063b253566314610986578063b353aaa7146109a6578063baf3292d146109da57600080fd5b8063938e3d7b1161017a5780639f38369a116101495780639f38369a14610910578063a035b1fe14610930578063a22cb46514610946578063a6c3d1651461096657600080fd5b8063938e3d7b146108a7578063950c8a74146108c757806398ae99a8146108e757806399c8d556146108fa57600080fd5b8063899d7b38116101b6578063899d7b381461081c5780638cfd8f5c146108315780638da5cb5b1461086957806391b7f5ed1461088757600080fd5b80637cb64759146107a85780638608e5f8146107c857806387c348bf146107fd57600080fd5b80633f1f4fa4116102c15780634fdd43cb1161025f57806366ad5c8a1161022e57806366ad5c8a14610733578063715018a6146107535780637533d7881461076857806378e3079e1461078857600080fd5b80634fdd43cb1461068a57806355f804b3146106aa5780635b8c41e6146106ca578063600e97f61461071957600080fd5b80634ab4e6871161029b5780634ab4e687146106085780634db8226a1461061b5780634e1273f41461062e5780634f558e791461065b57600080fd5b80633f1f4fa41461058157806341f43434146105ae57806342d65a8d146105e857600080fd5b80631291e33e116103395780632eb4a7ab116103085780632eb4a7ab146105215780633b2c3fb6146105375780633ccfd60b1461054c5780633d8b38f61461056157600080fd5b80631291e33e146104ac5780631c31f710146104c15780632e5bb6ff146104e15780632eb2c2d61461050157600080fd5b806307e0db171161037557806307e0db171461041f5780630df374831461043f5780630e89341c1461045f57806310ddb1371461048c57600080fd5b80621d35671461039a578062fdd58e146103bc57806301ffc9a7146103ef575b600080fd5b3480156103a657600080fd5b506103ba6103b5366004613c04565b610b81565b005b3480156103c857600080fd5b506103dc6103d7366004613cb8565b610db2565b6040519081526020015b60405180910390f35b3480156103fb57600080fd5b5061040f61040a366004613cfa565b610e48565b60405190151581526020016103e6565b34801561042b57600080fd5b506103ba61043a366004613d17565b610e65565b34801561044b57600080fd5b506103ba61045a366004613d32565b610eee565b34801561046b57600080fd5b5061047f61047a366004613d4e565b610f0d565b6040516103e69190613db7565b34801561049857600080fd5b506103ba6104a7366004613d17565b610feb565b3480156104b857600080fd5b506103ba611043565b3480156104cd57600080fd5b506103ba6104dc366004613dca565b61105f565b3480156104ed57600080fd5b506103ba6104fc366004613d4e565b611089565b34801561050d57600080fd5b506103ba61051c366004613f4a565b611096565b34801561052d57600080fd5b506103dc600f5481565b34801561054357600080fd5b506103ba6110c5565b34801561055857600080fd5b506103ba6110ec565b34801561056d57600080fd5b5061040f61057c366004613ff7565b61126c565b34801561058d57600080fd5b506103dc61059c366004613d17565b60036020526000908152604090205481565b3480156105ba57600080fd5b506105d06daaeb6d7670e522a718067333cd4e81565b6040516001600160a01b0390911681526020016103e6565b3480156105f457600080fd5b506103ba610603366004613ff7565b611338565b6103ba610616366004614049565b6113be565b6103ba610629366004614138565b6113d9565b34801561063a57600080fd5b5061064e6106493660046141de565b6113fa565b6040516103e691906142e5565b34801561066757600080fd5b5061040f610676366004613d4e565b600090815260096020526040902054151590565b34801561069657600080fd5b506103ba6106a53660046142f8565b611523565b3480156106b657600080fd5b506103ba6106c53660046142f8565b611537565b3480156106d657600080fd5b506103dc6106e5366004614348565b6005602090815260009384526040808520845180860184018051928152908401958401959095209452929052825290205481565b34801561072557600080fd5b5060125461040f9060ff1681565b34801561073f57600080fd5b506103ba61074e366004613c04565b61154b565b34801561075f57600080fd5b506103ba61161f565b34801561077457600080fd5b5061047f610783366004613d17565b611633565b34801561079457600080fd5b506103ba6107a3366004613dca565b6116cd565b3480156107b457600080fd5b506103ba6107c3366004613d4e565b6116f7565b3480156107d457600080fd5b506107e86107e33660046143c2565b611704565b604080519283526020830191909152016103e6565b34801561080957600080fd5b5060125461040f90610100900460ff1681565b34801561082857600080fd5b506103ba611734565b34801561083d57600080fd5b506103dc61084c36600461445c565b600260209081526000928352604080842090915290825290205481565b34801561087557600080fd5b506000546001600160a01b03166105d0565b34801561089357600080fd5b506103ba6108a2366004613d4e565b611759565b3480156108b357600080fd5b506103ba6108c23660046142f8565b611766565b3480156108d357600080fd5b506004546105d0906001600160a01b031681565b6103ba6108f536600461448f565b61177a565b34801561090657600080fd5b506103dc600b5481565b34801561091c57600080fd5b5061047f61092b366004613d17565b6118c4565b34801561093c57600080fd5b506103dc600c5481565b34801561095257600080fd5b506103ba6109613660046144b1565b6119da565b34801561097257600080fd5b506103ba610981366004613ff7565b6119f3565b34801561099257600080fd5b506107e86109a13660046144ea565b611a7c565b3480156109b257600080fd5b506105d07f000000000000000000000000000000000000000000000000000000000000000081565b3480156109e657600080fd5b506103ba6109f5366004613dca565b611b4a565b348015610a0657600080fd5b506103dc610a15366004613d4e565b60009081526009602052604090205490565b348015610a3357600080fd5b506103dc61271081565b348015610a4957600080fd5b506103ba610a5836600461459c565b611ba6565b6103ba610a6b366004613c04565b611c3b565b348015610a7c57600080fd5b506103ba610a8b36600461460a565b611e51565b6103ba610a9e366004614646565b611f03565b348015610aaf57600080fd5b5061047f6120b2565b348015610ac457600080fd5b5061040f610ad33660046146c8565b6001600160a01b03918216600090815260076020908152604080832093909416825291909152205460ff1690565b348015610b0d57600080fd5b506103ba610b1c366004613ff7565b6120bf565b348015610b2d57600080fd5b506103ba610b3c3660046146f6565b612119565b348015610b4d57600080fd5b506103ba610b5c366004613dca565b612140565b348015610b6d57600080fd5b5061047f610b7c36600461475e565b6121b6565b337f00000000000000000000000000000000000000000000000000000000000000006001600160a01b031614610bfe5760405162461bcd60e51b815260206004820152601e60248201527f4c7a4170703a20696e76616c696420656e64706f696e742063616c6c6572000060448201526064015b60405180910390fd5b61ffff861660009081526001602052604081208054610c1c906147ab565b80601f0160208091040260200160405190810160405280929190818152602001828054610c48906147ab565b8015610c955780601f10610c6a57610100808354040283529160200191610c95565b820191906000526020600020905b815481529060010190602001808311610c7857829003601f168201915b50505050509050805186869050148015610cb0575060008151115b8015610cd8575080516020820120604051610cce90889088906147e5565b6040518091039020145b610d335760405162461bcd60e51b815260206004820152602660248201527f4c7a4170703a20696e76616c696420736f757263652073656e64696e6720636f6044820152651b9d1c9858dd60d21b6064820152608401610bf5565b610da98787878080601f01602080910402602001604051908101604052809392919081815260200183838082843760009201919091525050604080516020601f8a018190048102820181019092528881528a93509150889088908190840183828082843760009201919091525061226792505050565b50505050505050565b60006001600160a01b038316610e1d5760405162461bcd60e51b815260206004820152602a60248201527f455243313135353a2061646472657373207a65726f206973206e6f742061207660448201526930b634b21037bbb732b960b11b6064820152608401610bf5565b5060008181526006602090815260408083206001600160a01b03861684529091529020545b92915050565b60006001600160e01b031982161580610e425750610e42826122e0565b610e6d612320565b6040516307e0db1760e01b815261ffff821660048201527f00000000000000000000000000000000000000000000000000000000000000006001600160a01b0316906307e0db17906024015b600060405180830381600087803b158015610ed357600080fd5b505af1158015610ee7573d6000803e3d6000fd5b5050505050565b610ef6612320565b61ffff909116600090815260036020526040902055565b60125460609062010000900460ff16610fb25760118054610f2d906147ab565b80601f0160208091040260200160405190810160405280929190818152602001828054610f59906147ab565b8015610fa65780601f10610f7b57610100808354040283529160200191610fa6565b820191906000526020600020905b815481529060010190602001808311610f8957829003601f168201915b50505050509050919050565b610fbb8261237a565b610fc483612389565b604051602001610fd59291906147f5565b6040516020818303038152906040529050919050565b610ff3612320565b6040516310ddb13760e01b815261ffff821660048201527f00000000000000000000000000000000000000000000000000000000000000006001600160a01b0316906310ddb13790602401610eb9565b61104b612320565b6012805460ff19811660ff90911615179055565b611067612320565b600d80546001600160a01b0319166001600160a01b0392909216919091179055565b611091612320565b600b55565b846001600160a01b03811633146110b0576110b03361241b565b6110bd86868686866124d4565b505050505050565b6110cd612320565b6012805462ff0000198116620100009182900460ff1615909102179055565b600d546001600160a01b031633148061110f57506000546001600160a01b031633145b6111735760405162461bcd60e51b815260206004820152602f60248201527f416476616e6365644f4e4654313135353a2063616c6c6572206973206e6f742060448201526e7468652062656e656669636961727960881b6064820152608401610bf5565b600d546001600160a01b03166111da5760405162461bcd60e51b815260206004820152602660248201527f416476616e6365644f4e4654313135353a2042656e6566696369617279206e6f60448201526574207365742160d01b6064820152608401610bf5565b600b544790600090612710906111f0908461483a565b6111fa9190614851565b600d549091506001600160a01b03166108fc6112168385614873565b6040518115909202916000818181858888f1935050505061123657600080fd5b600e546040516001600160a01b039091169082156108fc029083906000818181858888f1935050505061126857600080fd5b5050565b61ffff83166000908152600160205260408120805482919061128d906147ab565b80601f01602080910402602001604051908101604052809291908181526020018280546112b9906147ab565b80156113065780601f106112db57610100808354040283529160200191611306565b820191906000526020600020905b8154815290600101906020018083116112e957829003601f168201915b50505050509050838360405161131d9291906147e5565b60405180910390208180519060200120149150509392505050565b611340612320565b6040516342d65a8d60e01b81526001600160a01b037f000000000000000000000000000000000000000000000000000000000000000016906342d65a8d90611390908690869086906004016148af565b600060405180830381600087803b1580156113aa57600080fd5b505af1158015610da9573d6000803e3d6000fd5b6113cf888888888888888834612519565b5050505050505050565b6113cf8888886113e88961271d565b6113f18961271d565b88888834612519565b6060815183511461145f5760405162461bcd60e51b815260206004820152602960248201527f455243313135353a206163636f756e747320616e6420696473206c656e677468604482015268040dad2e6dac2e8c6d60bb1b6064820152608401610bf5565b600083516001600160401b0381111561147a5761147a613de7565b6040519080825280602002602001820160405280156114a3578160200160208202803683370190505b50905060005b845181101561151b576114ee8582815181106114c7576114c76148cd565b60200260200101518583815181106114e1576114e16148cd565b6020026020010151610db2565b828281518110611500576115006148cd565b6020908102919091010152611514816148e3565b90506114a9565b509392505050565b61152b612320565b60116112688282614942565b61153f612320565b61154881612768565b50565b3330146115a95760405162461bcd60e51b815260206004820152602660248201527f4e6f6e626c6f636b696e674c7a4170703a2063616c6c6572206d7573742062656044820152650204c7a4170760d41b6064820152608401610bf5565b6110bd8686868080601f01602080910402602001604051908101604052809392919081815260200183838082843760009201919091525050604080516020601f89018190048102820181019092528781528993509150879087908190840183828082843760009201919091525061277492505050565b611627612320565b61163160006128cc565b565b6001602052600090815260409020805461164c906147ab565b80601f0160208091040260200160405190810160405280929190818152602001828054611678906147ab565b80156116c55780601f1061169a576101008083540402835291602001916116c5565b820191906000526020600020905b8154815290600101906020018083116116a857829003601f168201915b505050505081565b6116d5612320565b600e80546001600160a01b0319166001600160a01b0392909216919091179055565b6116ff612320565b600f55565b60008061172588886117158961271d565b61171e8961271d565b8888611a7c565b91509150965096945050505050565b61173c612320565b6012805461ff001981166101009182900460ff1615909102179055565b611761612320565b600c55565b61176e612320565b60106112688282614942565b60125460ff1615156001146117ec5760405162461bcd60e51b815260206004820152603260248201527f416476616e6365644f4e4654313135353a205075626c69632073616c6520686160448201527173206e6f742073746172746564207965742160701b6064820152608401610bf5565b60125460ff6101009091041615156001146118195760405162461bcd60e51b8152600401610bf590614a01565b8160000361187c5760405162461bcd60e51b815260206004820152602a60248201527f416476616e6365644f4e4654313135353a2043616e6e6f7420696e76616c696460448201526920746f6b656e2069642160b01b6064820152608401610bf5565b34600c548261188b919061483a565b11156118a95760405162461bcd60e51b8152600401610bf590614a4c565b6112683383836040518060200160405280600081525061291c565b61ffff81166000908152600160205260408120805460609291906118e7906147ab565b80601f0160208091040260200160405190810160405280929190818152602001828054611913906147ab565b80156119605780601f1061193557610100808354040283529160200191611960565b820191906000526020600020905b81548152906001019060200180831161194357829003601f168201915b5050505050905080516000036119b85760405162461bcd60e51b815260206004820152601d60248201527f4c7a4170703a206e6f20747275737465642070617468207265636f72640000006044820152606401610bf5565b6119d36000601483516119cb9190614873565b8391906129fe565b9392505050565b816119e48161241b565b6119ee8383612b0b565b505050565b6119fb612320565b818130604051602001611a1093929190614a97565b60408051601f1981840301815291815261ffff8516600090815260016020522090611a3b9082614942565b507f8c0400cfe2d1199b1a725c78960bcc2a344d869b80590d0f2bd005db15a572ce838383604051611a6f939291906148af565b60405180910390a1505050565b6000806000878787604051602001611a9693929190614abd565b60408051601f198184030181529082905263040a7bb160e41b825291506001600160a01b037f000000000000000000000000000000000000000000000000000000000000000016906340a7bb1090611afa908c90309086908b908b90600401614b00565b6040805180830381865afa158015611b16573d6000803e3d6000fd5b505050506040513d601f19601f82011682018060405250810190611b3a9190614b54565b9250925050965096945050505050565b611b52612320565b600480546001600160a01b0319166001600160a01b0383169081179091556040519081527f5db758e995a17ec1ad84bdef7e8c3293a0bd6179bcce400dff5d4c3d87db726b9060200160405180910390a150565b611bae612320565b6040516332fb62e760e21b81526001600160a01b037f0000000000000000000000000000000000000000000000000000000000000000169063cbed8b9c90611c029088908890889088908890600401614b78565b600060405180830381600087803b158015611c1c57600080fd5b505af1158015611c30573d6000803e3d6000fd5b505050505050505050565b61ffff86166000908152600560205260408082209051611c5e90889088906147e5565b90815260408051602092819003830190206001600160401b03871660009081529252902054905080611cde5760405162461bcd60e51b815260206004820152602360248201527f4e6f6e626c6f636b696e674c7a4170703a206e6f2073746f726564206d65737360448201526261676560e81b6064820152608401610bf5565b808383604051611cef9291906147e5565b604051809103902014611d4e5760405162461bcd60e51b815260206004820152602160248201527f4e6f6e626c6f636b696e674c7a4170703a20696e76616c6964207061796c6f616044820152601960fa1b6064820152608401610bf5565b61ffff87166000908152600560205260408082209051611d7190899089906147e5565b90815260408051602092819003830181206001600160401b038916600090815290845282902093909355601f88018290048202830182019052868252611e09918991899089908190840183828082843760009201919091525050604080516020601f8a018190048102820181019092528881528a93509150889088908190840183828082843760009201919091525061277492505050565b7fc264d91f3adc5588250e1551f547752ca0cfa8f6b530d243b9f9f4cab10ea8e58787878785604051611e40959493929190614bb1565b60405180910390a150505050505050565b611e59612320565b60008111611ea15760405162461bcd60e51b81526020600482015260156024820152744c7a4170703a20696e76616c6964206d696e47617360581b6044820152606401610bf5565b61ffff83811660008181526002602090815260408083209487168084529482529182902085905581519283528201929092529081018290527f9d5c7c0b934da8fefa9c7760c98383778a12dfbfc0c3b3106518f43fb9508ac090606001611a6f565b60125460ff610100909104161515600114611f305760405162461bcd60e51b8152600401610bf590614a01565b83600003611f905760405162461bcd60e51b815260206004820152602760248201527f416476616e6365644f4e4654313135353a2043616e6e6f74206d696e74203020604482015266746f6b656e732160c81b6064820152608401610bf5565b34600c5484611f9f919061483a565b1115611fbd5760405162461bcd60e51b8152600401610bf590614a4c565b600061203483838080602002602001604051908101604052809392919081815260200183836020028082843760009201919091525050600f546040516bffffffffffffffffffffffff193360601b166020820152909250603401905060405160208183030381529060405280519060200120612b16565b90506001811515146120975760405162461bcd60e51b815260206004820152602660248201527f416476616e6365644f4e4654313135353a20496e76616c6964204d65726b6c6560448201526510283937b7b360d11b6064820152608401610bf5565b610ee73386866040518060200160405280600081525061291c565b6010805461164c906147ab565b6120c7612320565b61ffff831660009081526001602052604090206120e5828483614bec565b507ffa41487ad5d6728f0b19276fa1eddc16558578f5109fc39d2dc33c3230470dab838383604051611a6f939291906148af565b846001600160a01b0381163314612133576121333361241b565b6110bd8686868686612b2c565b612148612320565b6001600160a01b0381166121ad5760405162461bcd60e51b815260206004820152602660248201527f4f776e61626c653a206e6577206f776e657220697320746865207a65726f206160448201526564647265737360d01b6064820152608401610bf5565b611548816128cc565b604051633d7b2f6f60e21b815261ffff808616600483015284166024820152306044820152606481018290526060907f00000000000000000000000000000000000000000000000000000000000000006001600160a01b03169063f5ecbdbc90608401600060405180830381865afa158015612236573d6000803e3d6000fd5b505050506040513d6000823e601f3d908101601f1916820160405261225e9190810190614cfa565b95945050505050565b6000806122ca5a60966366ad5c8a60e01b8989898960405160240161228f9493929190614d2e565b60408051601f198184030181529190526020810180516001600160e01b03166001600160e01b03199093169290921790915230929190612b71565b91509150816110bd576110bd8686868685612bfb565b60006001600160e01b03198216636cdb3d1360e11b148061231157506001600160e01b031982166303a24d0760e21b145b80610e425750610e4282612c98565b6000546001600160a01b031633146116315760405162461bcd60e51b815260206004820181905260248201527f4f776e61626c653a2063616c6c6572206973206e6f7420746865206f776e65726044820152606401610bf5565b606060088054610f2d906147ab565b6060600061239683612ccd565b60010190506000816001600160401b038111156123b5576123b5613de7565b6040519080825280601f01601f1916602001820160405280156123df576020820181803683370190505b5090508181016020015b600019016f181899199a1a9b1b9c1cb0b131b232b360811b600a86061a8153600a85049450846123e957509392505050565b6daaeb6d7670e522a718067333cd4e3b1561154857604051633185c44d60e21b81523060048201526001600160a01b03821660248201526daaeb6d7670e522a718067333cd4e9063c617113490604401602060405180830381865afa158015612488573d6000803e3d6000fd5b505050506040513d601f19601f820116820180604052508101906124ac9190614d6c565b61154857604051633b79c77360e21b81526001600160a01b0382166004820152602401610bf5565b6001600160a01b0385163314806124f057506124f08533610ad3565b61250c5760405162461bcd60e51b8152600401610bf590614d89565b610ee78585858585612da5565b6125268989898989612f4a565b600087878760405160200161253d93929190614abd565b604051602081830303815290604052905061255c898287878787612fd6565b604051630f428ae960e31b815261ffff8a1660048201523060248201526000907f00000000000000000000000000000000000000000000000000000000000000006001600160a01b031690637a14574890604401602060405180830381865afa1580156125cd573d6000803e3d6000fd5b505050506040513d601f19601f820116820180604052508101906125f19190614dd7565b905087516001036126a5578860405161260a9190614df4565b60405180910390208a61ffff168c6001600160a01b03167f65f8f231660ef9add3da95eb0bbdae4c246f6c10e274fae37b17190637080d4c8b600081518110612655576126556148cd565b60200260200101518b600081518110612670576126706148cd565b60209081029190910181015160408051938452918301526001600160401b0387169082015260600160405180910390a4612710565b60018851111561271057886040516126bd9190614df4565b60405180910390208a61ffff168c6001600160a01b03167f2d31495ecbe799a81d5475c03585aa019860601fed836229d70e335b732eab3d8b8b8660405161270793929190614e10565b60405180910390a45b5050505050505050505050565b60408051600180825281830190925260609160009190602080830190803683370190505090508281600081518110612757576127576148cd565b602090810291909101015292915050565b60086112688282614942565b60008060008380602001905181019061278d9190614eb5565b601483015192955090935091506127a68882858561317b565b825160010361285857806001600160a01b0316876040516127c79190614df4565b60405180910390208961ffff167f330378e2f010257b2fbe836316fb7ab303af5ed8f2795b82bca60d1c8c909f7686600081518110612808576128086148cd565b602002602001015186600081518110612823576128236148cd565b60209081029190910181015160408051938452918301526001600160401b038c169082015260600160405180910390a46113cf565b6001835111156113cf57806001600160a01b03168760405161287a9190614df4565b60405180910390208961ffff167f5604161d52abb20dbe3d4a2230e585a0b230b3d18179a0e00917b173f5f9adab86868b6040516128ba93929190614e10565b60405180910390a45050505050505050565b600080546001600160a01b038381166001600160a01b0319831681178455604051919092169283917f8be0079c531659141344cd1fd0a4f28419497f9722a3daafe3b4186f6b6457e09190a35050565b6001600160a01b0384166129425760405162461bcd60e51b8152600401610bf590614f3c565b33600061294e8561271d565b9050600061295b8561271d565b905061296c8360008985858961319c565b60008681526006602090815260408083206001600160a01b038b1684529091528120805487929061299e908490614f7d565b909155505060408051878152602081018790526001600160a01b03808a1692600092918716917fc3d58168c5ae7397731d063d5bbf3d657854427343f4c083240f7aacaa2d0f62910160405180910390a4610da983600089898989613315565b606081612a0c81601f614f7d565b1015612a4b5760405162461bcd60e51b815260206004820152600e60248201526d736c6963655f6f766572666c6f7760901b6044820152606401610bf5565b612a558284614f7d565b84511015612a995760405162461bcd60e51b8152602060048201526011602482015270736c6963655f6f75744f66426f756e647360781b6044820152606401610bf5565b606082158015612ab85760405191506000825260208201604052612b02565b6040519150601f8416801560200281840101858101878315602002848b0101015b81831015612af1578051835260209283019201612ad9565b5050858452601f01601f1916604052505b50949350505050565b611268338383613470565b600082612b238584613550565b14949350505050565b6001600160a01b038516331480612b485750612b488533610ad3565b612b645760405162461bcd60e51b8152600401610bf590614d89565b610ee78585858585613595565b6000606060008060008661ffff166001600160401b03811115612b9657612b96613de7565b6040519080825280601f01601f191660200182016040528015612bc0576020820181803683370190505b50905060008087516020890160008d8df191503d925086831115612be2578692505b828152826000602083013e909890975095505050505050565b8180519060200120600560008761ffff1661ffff16815260200190815260200160002085604051612c2c9190614df4565b9081526040805191829003602090810183206001600160401b0388166000908152915220919091557fe183f33de2837795525b4792ca4cd60535bd77c53b7e7030060bfcf5734d6b0c90612c899087908790879087908790614f90565b60405180910390a15050505050565b60006001600160e01b031982166319abbbbb60e11b1480610e4257506301ffc9a760e01b6001600160e01b0319831614610e42565b60008072184f03e93ff9f4daa797ed6e38ed64bf6a1f0160401b8310612d0c5772184f03e93ff9f4daa797ed6e38ed64bf6a1f0160401b830492506040015b6d04ee2d6d415b85acef81000000008310612d38576d04ee2d6d415b85acef8100000000830492506020015b662386f26fc100008310612d5657662386f26fc10000830492506010015b6305f5e1008310612d6e576305f5e100830492506008015b6127108310612d8257612710830492506004015b60648310612d94576064830492506002015b600a8310610e425760010192915050565b8151835114612dc65760405162461bcd60e51b8152600401610bf590614fe2565b6001600160a01b038416612dec5760405162461bcd60e51b8152600401610bf59061502a565b33612dfb81878787878761319c565b60005b8451811015612ee4576000858281518110612e1b57612e1b6148cd565b602002602001015190506000858381518110612e3957612e396148cd565b60209081029190910181015160008481526006835260408082206001600160a01b038e168352909352919091205490915081811015612e8a5760405162461bcd60e51b8152600401610bf59061506f565b60008381526006602090815260408083206001600160a01b038e8116855292528083208585039055908b16825281208054849290612ec9908490614f7d565b9250508190555050505080612edd906148e3565b9050612dfe565b50846001600160a01b0316866001600160a01b0316826001600160a01b03167f4a39dc06d4c0dbc64b70af90fd698a233a518aa5d07e595d983b8c0526c8f7fb8787604051612f349291906150b9565b60405180910390a46110bd8187878787876136c6565b336001600160a01b038616811480612f675750612f678682610ad3565b612fcb5760405162461bcd60e51b815260206004820152602f60248201527f4f4e4654313135353a2073656e642063616c6c6572206973206e6f74206f776e60448201526e195c881b9bdc88185c1c1c9bdd9959608a1b6064820152608401610bf5565b6110bd868484613781565b61ffff861660009081526001602052604081208054612ff4906147ab565b80601f0160208091040260200160405190810160405280929190818152602001828054613020906147ab565b801561306d5780601f106130425761010080835404028352916020019161306d565b820191906000526020600020905b81548152906001019060200180831161305057829003601f168201915b5050505050905080516000036130de5760405162461bcd60e51b815260206004820152603060248201527f4c7a4170703a2064657374696e6174696f6e20636861696e206973206e6f742060448201526f61207472757374656420736f7572636560801b6064820152608401610bf5565b6130e9878751613998565b60405162c5803160e81b81526001600160a01b037f0000000000000000000000000000000000000000000000000000000000000000169063c5803100908490613140908b9086908c908c908c908c906004016150de565b6000604051808303818588803b15801561315957600080fd5b505af115801561316d573d6000803e3d6000fd5b505050505050505050505050565b61319683838360405180602001604052806000815250613a09565b50505050565b6001600160a01b0385166132235760005b8351811015613221578281815181106131c8576131c86148cd565b6020026020010151600960008684815181106131e6576131e66148cd565b60200260200101518152602001908152602001600020600082825461320b9190614f7d565b9091555061321a9050816148e3565b90506131ad565b505b6001600160a01b0384166110bd5760005b8351811015610da9576000848281518110613251576132516148cd565b60200260200101519050600084838151811061326f5761326f6148cd565b60200260200101519050600060096000848152602001908152602001600020549050818110156132f25760405162461bcd60e51b815260206004820152602860248201527f455243313135353a206275726e20616d6f756e74206578636565647320746f74604482015267616c537570706c7960c01b6064820152608401610bf5565b6000928352600960205260409092209103905561330e816148e3565b9050613234565b6001600160a01b0384163b156110bd5760405163f23a6e6160e01b81526001600160a01b0385169063f23a6e61906133599089908990889088908890600401615145565b6020604051808303816000875af1925050508015613394575060408051601f3d908101601f191682019092526133919181019061517f565b60015b613440576133a061519c565b806308c379a0036133d957506133b46151b8565b806133bf57506133db565b8060405162461bcd60e51b8152600401610bf59190613db7565b505b60405162461bcd60e51b815260206004820152603460248201527f455243313135353a207472616e7366657220746f206e6f6e2d455243313135356044820152732932b1b2b4bb32b91034b6b83632b6b2b73a32b960611b6064820152608401610bf5565b6001600160e01b0319811663f23a6e6160e01b14610da95760405162461bcd60e51b8152600401610bf590615241565b816001600160a01b0316836001600160a01b0316036134e35760405162461bcd60e51b815260206004820152602960248201527f455243313135353a2073657474696e6720617070726f76616c20737461747573604482015268103337b91039b2b63360b91b6064820152608401610bf5565b6001600160a01b03838116600081815260076020908152604080832094871680845294825291829020805460ff191686151590811790915591519182527f17307eab39ab6107e8899845ad3d59bd9653f200f220920489ca2b5937696c31910160405180910390a3505050565b600081815b845181101561151b5761358182868381518110613574576135746148cd565b6020026020010151613b64565b91508061358d816148e3565b915050613555565b6001600160a01b0384166135bb5760405162461bcd60e51b8152600401610bf59061502a565b3360006135c78561271d565b905060006135d48561271d565b90506135e483898985858961319c565b60008681526006602090815260408083206001600160a01b038c168452909152902054858110156136275760405162461bcd60e51b8152600401610bf59061506f565b60008781526006602090815260408083206001600160a01b038d8116855292528083208985039055908a16825281208054889290613666908490614f7d565b909155505060408051888152602081018890526001600160a01b03808b16928c821692918816917fc3d58168c5ae7397731d063d5bbf3d657854427343f4c083240f7aacaa2d0f62910160405180910390a4611c30848a8a8a8a8a613315565b6001600160a01b0384163b156110bd5760405163bc197c8160e01b81526001600160a01b0385169063bc197c819061370a9089908990889088908890600401615289565b6020604051808303816000875af1925050508015613745575060408051601f3d908101601f191682019092526137429181019061517f565b60015b613751576133a061519c565b6001600160e01b0319811663bc197c8160e01b14610da95760405162461bcd60e51b8152600401610bf590615241565b6001600160a01b0383166137e35760405162461bcd60e51b815260206004820152602360248201527f455243313135353a206275726e2066726f6d20746865207a65726f206164647260448201526265737360e81b6064820152608401610bf5565b80518251146138045760405162461bcd60e51b8152600401610bf590614fe2565b60003390506138278185600086866040518060200160405280600081525061319c565b60005b835181101561392b576000848281518110613847576138476148cd565b602002602001015190506000848381518110613865576138656148cd565b60209081029190910181015160008481526006835260408082206001600160a01b038c1683529093529190912054909150818110156138f25760405162461bcd60e51b8152602060048201526024808201527f455243313135353a206275726e20616d6f756e7420657863656564732062616c604482015263616e636560e01b6064820152608401610bf5565b60009283526006602090815260408085206001600160a01b038b1686529091529092209103905580613923816148e3565b91505061382a565b5060006001600160a01b0316846001600160a01b0316826001600160a01b03167f4a39dc06d4c0dbc64b70af90fd698a233a518aa5d07e595d983b8c0526c8f7fb868660405161397c9291906150b9565b60405180910390a4604080516020810190915260009052613196565b61ffff8216600090815260036020526040812054908190036139b957506127105b808211156119ee5760405162461bcd60e51b815260206004820181905260248201527f4c7a4170703a207061796c6f61642073697a6520697320746f6f206c617267656044820152606401610bf5565b6001600160a01b038416613a2f5760405162461bcd60e51b8152600401610bf590614f3c565b8151835114613a505760405162461bcd60e51b8152600401610bf590614fe2565b33613a608160008787878761319c565b60005b8451811015613afc57838181518110613a7e57613a7e6148cd565b602002602001015160066000878481518110613a9c57613a9c6148cd565b602002602001015181526020019081526020016000206000886001600160a01b03166001600160a01b031681526020019081526020016000206000828254613ae49190614f7d565b90915550819050613af4816148e3565b915050613a63565b50846001600160a01b031660006001600160a01b0316826001600160a01b03167f4a39dc06d4c0dbc64b70af90fd698a233a518aa5d07e595d983b8c0526c8f7fb8787604051613b4d9291906150b9565b60405180910390a4610ee7816000878787876136c6565b6000818310613b805760008281526020849052604090206119d3565b5060009182526020526040902090565b803561ffff81168114613ba257600080fd5b919050565b60008083601f840112613bb957600080fd5b5081356001600160401b03811115613bd057600080fd5b602083019150836020828501011115613be857600080fd5b9250929050565b6001600160401b038116811461154857600080fd5b60008060008060008060808789031215613c1d57600080fd5b613c2687613b90565b955060208701356001600160401b0380821115613c4257600080fd5b613c4e8a838b01613ba7565b909750955060408901359150613c6382613bef565b90935060608801359080821115613c7957600080fd5b50613c8689828a01613ba7565b979a9699509497509295939492505050565b6001600160a01b038116811461154857600080fd5b8035613ba281613c98565b60008060408385031215613ccb57600080fd5b8235613cd681613c98565b946020939093013593505050565b6001600160e01b03198116811461154857600080fd5b600060208284031215613d0c57600080fd5b81356119d381613ce4565b600060208284031215613d2957600080fd5b6119d382613b90565b60008060408385031215613d4557600080fd5b613cd683613b90565b600060208284031215613d6057600080fd5b5035919050565b60005b83811015613d82578181015183820152602001613d6a565b50506000910152565b60008151808452613da3816020860160208601613d67565b601f01601f19169290920160200192915050565b6020815260006119d36020830184613d8b565b600060208284031215613ddc57600080fd5b81356119d381613c98565b634e487b7160e01b600052604160045260246000fd5b601f8201601f191681016001600160401b0381118282101715613e2257613e22613de7565b6040525050565b60006001600160401b03821115613e4257613e42613de7565b5060051b60200190565b600082601f830112613e5d57600080fd5b81356020613e6a82613e29565b604051613e778282613dfd565b83815260059390931b8501820192828101915086841115613e9757600080fd5b8286015b84811015613eb25780358352918301918301613e9b565b509695505050505050565b60006001600160401b03821115613ed657613ed6613de7565b50601f01601f191660200190565b6000613eef83613ebd565b604051613efc8282613dfd565b809250848152858585011115613f1157600080fd5b8484602083013760006020868301015250509392505050565b600082601f830112613f3b57600080fd5b6119d383833560208501613ee4565b600080600080600060a08688031215613f6257600080fd5b8535613f6d81613c98565b94506020860135613f7d81613c98565b935060408601356001600160401b0380821115613f9957600080fd5b613fa589838a01613e4c565b94506060880135915080821115613fbb57600080fd5b613fc789838a01613e4c565b93506080880135915080821115613fdd57600080fd5b50613fea88828901613f2a565b9150509295509295909350565b60008060006040848603121561400c57600080fd5b61401584613b90565b925060208401356001600160401b0381111561403057600080fd5b61403c86828701613ba7565b9497909650939450505050565b600080600080600080600080610100898b03121561406657600080fd5b61406f89613cad565b975061407d60208a01613b90565b965060408901356001600160401b038082111561409957600080fd5b6140a58c838d01613f2a565b975060608b01359150808211156140bb57600080fd5b6140c78c838d01613e4c565b965060808b01359150808211156140dd57600080fd5b6140e98c838d01613e4c565b95506140f760a08c01613cad565b945061410560c08c01613cad565b935060e08b013591508082111561411b57600080fd5b506141288b828c01613f2a565b9150509295985092959890939650565b600080600080600080600080610100898b03121561415557600080fd5b883561416081613c98565b975061416e60208a01613b90565b965060408901356001600160401b038082111561418a57600080fd5b6141968c838d01613f2a565b975060608b0135965060808b0135955060a08b013591506141b682613c98565b90935060c08a0135906141c882613c98565b90925060e08a0135908082111561411b57600080fd5b600080604083850312156141f157600080fd5b82356001600160401b038082111561420857600080fd5b818501915085601f83011261421c57600080fd5b8135602061422982613e29565b6040516142368282613dfd565b83815260059390931b850182019282810191508984111561425657600080fd5b948201945b8386101561427d57853561426e81613c98565b8252948201949082019061425b565b9650508601359250508082111561429357600080fd5b506142a085828601613e4c565b9150509250929050565b600081518084526020808501945080840160005b838110156142da578151875295820195908201906001016142be565b509495945050505050565b6020815260006119d360208301846142aa565b60006020828403121561430a57600080fd5b81356001600160401b0381111561432057600080fd5b8201601f8101841361433157600080fd5b61434084823560208401613ee4565b949350505050565b60008060006060848603121561435d57600080fd5b61436684613b90565b925060208401356001600160401b0381111561438157600080fd5b61438d86828701613f2a565b925050604084013561439e81613bef565b809150509250925092565b801515811461154857600080fd5b8035613ba2816143a9565b60008060008060008060c087890312156143db57600080fd5b6143e487613b90565b955060208701356001600160401b038082111561440057600080fd5b61440c8a838b01613f2a565b965060408901359550606089013594506080890135915061442c826143a9565b90925060a0880135908082111561444257600080fd5b5061444f89828a01613f2a565b9150509295509295509295565b6000806040838503121561446f57600080fd5b61447883613b90565b915061448660208401613b90565b90509250929050565b600080604083850312156144a257600080fd5b50508035926020909101359150565b600080604083850312156144c457600080fd5b82356144cf81613c98565b915060208301356144df816143a9565b809150509250929050565b60008060008060008060c0878903121561450357600080fd5b61450c87613b90565b955060208701356001600160401b038082111561452857600080fd5b6145348a838b01613f2a565b9650604089013591508082111561454a57600080fd5b6145568a838b01613e4c565b9550606089013591508082111561456c57600080fd5b6145788a838b01613e4c565b945061458660808a016143b7565b935060a089013591508082111561444257600080fd5b6000806000806000608086880312156145b457600080fd5b6145bd86613b90565b94506145cb60208701613b90565b93506040860135925060608601356001600160401b038111156145ed57600080fd5b6145f988828901613ba7565b969995985093965092949392505050565b60008060006060848603121561461f57600080fd5b61462884613b90565b925061463660208501613b90565b9150604084013590509250925092565b6000806000806060858703121561465c57600080fd5b843593506020850135925060408501356001600160401b038082111561468157600080fd5b818701915087601f83011261469557600080fd5b8135818111156146a457600080fd5b8860208260051b85010111156146b957600080fd5b95989497505060200194505050565b600080604083850312156146db57600080fd5b82356146e681613c98565b915060208301356144df81613c98565b600080600080600060a0868803121561470e57600080fd5b853561471981613c98565b9450602086013561472981613c98565b9350604086013592506060860135915060808601356001600160401b0381111561475257600080fd5b613fea88828901613f2a565b6000806000806080858703121561477457600080fd5b61477d85613b90565b935061478b60208601613b90565b9250604085013561479b81613c98565b9396929550929360600135925050565b600181811c908216806147bf57607f821691505b6020821081036147df57634e487b7160e01b600052602260045260246000fd5b50919050565b8183823760009101908152919050565b60008351614807818460208801613d67565b83519083019061481b818360208801613d67565b01949350505050565b634e487b7160e01b600052601160045260246000fd5b8082028115828204841417610e4257610e42614824565b60008261486e57634e487b7160e01b600052601260045260246000fd5b500490565b81810381811115610e4257610e42614824565b81835281816020850137506000828201602090810191909152601f909101601f19169091010190565b61ffff8416815260406020820152600061225e604083018486614886565b634e487b7160e01b600052603260045260246000fd5b6000600182016148f5576148f5614824565b5060010190565b601f8211156119ee57600081815260208120601f850160051c810160208610156149235750805b601f850160051c820191505b818110156110bd5782815560010161492f565b81516001600160401b0381111561495b5761495b613de7565b61496f8161496984546147ab565b846148fc565b602080601f8311600181146149a4576000841561498c5750858301515b600019600386901b1c1916600185901b1785556110bd565b600085815260208120601f198616915b828110156149d3578886015182559484019460019091019084016149b4565b50858210156149f15787850151600019600388901b60f8161c191681555b5050505050600190811b01905550565b6020808252602b908201527f416476616e6365644f4e4654313135353a2053616c6520686173206e6f74207360408201526a746172746564207965742160a81b606082015260800190565b6020808252602b908201527f416476616e6365644f4e4654313135353a20496e636f6e73697374656e74206160408201526a6d6f756e742073656e742160a81b606082015260800190565b8284823760609190911b6bffffffffffffffffffffffff19169101908152601401919050565b606081526000614ad06060830186613d8b565b8281036020840152614ae281866142aa565b90508281036040840152614af681856142aa565b9695505050505050565b61ffff861681526001600160a01b038516602082015260a060408201819052600090614b2e90830186613d8b565b84151560608401528281036080840152614b488185613d8b565b98975050505050505050565b60008060408385031215614b6757600080fd5b505080516020909101519092909150565b600061ffff808816835280871660208401525084604083015260806060830152614ba6608083018486614886565b979650505050505050565b61ffff86168152608060208201526000614bcf608083018688614886565b6001600160401b0394909416604083015250606001529392505050565b6001600160401b03831115614c0357614c03613de7565b614c1783614c1183546147ab565b836148fc565b6000601f841160018114614c4b5760008515614c335750838201355b600019600387901b1c1916600186901b178355610ee7565b600083815260209020601f19861690835b82811015614c7c5786850135825560209485019460019092019101614c5c565b5086821015614c995760001960f88860031b161c19848701351681555b505060018560011b0183555050505050565b600082601f830112614cbc57600080fd5b8151614cc781613ebd565b604051614cd48282613dfd565b828152856020848701011115614ce957600080fd5b61225e836020830160208801613d67565b600060208284031215614d0c57600080fd5b81516001600160401b03811115614d2257600080fd5b61434084828501614cab565b61ffff85168152608060208201526000614d4b6080830186613d8b565b6001600160401b03851660408401528281036060840152614ba68185613d8b565b600060208284031215614d7e57600080fd5b81516119d3816143a9565b6020808252602e908201527f455243313135353a2063616c6c6572206973206e6f7420746f6b656e206f776e60408201526d195c881bdc88185c1c1c9bdd995960921b606082015260800190565b600060208284031215614de957600080fd5b81516119d381613bef565b60008251614e06818460208701613d67565b9190910192915050565b606081526000614e2360608301866142aa565b8281036020840152614e3581866142aa565b9150506001600160401b0383166040830152949350505050565b600082601f830112614e6057600080fd5b81516020614e6d82613e29565b604051614e7a8282613dfd565b83815260059390931b8501820192828101915086841115614e9a57600080fd5b8286015b84811015613eb25780518352918301918301614e9e565b600080600060608486031215614eca57600080fd5b83516001600160401b0380821115614ee157600080fd5b614eed87838801614cab565b94506020860151915080821115614f0357600080fd5b614f0f87838801614e4f565b93506040860151915080821115614f2557600080fd5b50614f3286828701614e4f565b9150509250925092565b60208082526021908201527f455243313135353a206d696e7420746f20746865207a65726f206164647265736040820152607360f81b606082015260800190565b80820180821115610e4257610e42614824565b61ffff8616815260a060208201526000614fad60a0830187613d8b565b6001600160401b03861660408401528281036060840152614fce8186613d8b565b90508281036080840152614b488185613d8b565b60208082526028908201527f455243313135353a2069647320616e6420616d6f756e7473206c656e677468206040820152670dad2e6dac2e8c6d60c31b606082015260800190565b60208082526025908201527f455243313135353a207472616e7366657220746f20746865207a65726f206164604082015264647265737360d81b606082015260800190565b6020808252602a908201527f455243313135353a20696e73756666696369656e742062616c616e636520666f60408201526939103a3930b739b332b960b11b606082015260800190565b6040815260006150cc60408301856142aa565b828103602084015261225e81856142aa565b61ffff8716815260c0602082015260006150fb60c0830188613d8b565b828103604084015261510d8188613d8b565b6001600160a01b0387811660608601528616608085015283810360a085015290506151388185613d8b565b9998505050505050505050565b6001600160a01b03868116825285166020820152604081018490526060810183905260a060808201819052600090614ba690830184613d8b565b60006020828403121561519157600080fd5b81516119d381613ce4565b600060033d11156151b55760046000803e5060005160e01c5b90565b600060443d10156151c65790565b6040516003193d81016004833e81513d6001600160401b0381602484011181841117156151f557505050505090565b828501915081518181111561520d5750505050505090565b843d87010160208285010111156152275750505050505090565b61523660208286010187613dfd565b509095945050505050565b60208082526028908201527f455243313135353a204552433131353552656365697665722072656a656374656040820152676420746f6b656e7360c01b606082015260800190565b6001600160a01b0386811682528516602082015260a0604082018190526000906152b5908301866142aa565b8281036060840152614fce81866142aa56fea2646970667358221220f0263258e3bdf3a778da9935fd3a8452ac805f80d908a91191e8ad7c87aa4e4664736f6c63430008110033",
    "linkReferences": {}
  },
  "methodIdentifiers": {
    "DEFAULT_PAYLOAD_SIZE_LIMIT()": "c4461834",
    "OPERATOR_FILTER_REGISTRY()": "41f43434",
    "_publicSaleStarted()": "600e97f6",
    "_saleStarted()": "87c348bf",
    "balanceOf(address,uint256)": "00fdd58e",
    "balanceOfBatch(address[],uint256[])": "4e1273f4",
    "contractURI()": "e8a3d485",
    "estimateSendBatchFee(uint16,bytes,uint256[],uint256[],bool,bytes)": "b2535663",
    "estimateSendFee(uint16,bytes,uint256,uint256,bool,bytes)": "8608e5f8",
    "exists(uint256)": "4f558e79",
    "failedMessages(uint16,bytes,uint64)": "5b8c41e6",
    "flipPublicSaleStarted()": "1291e33e",
    "flipRevealed()": "3b2c3fb6",
    "flipSaleStarted()": "899d7b38",
    "forceResumeReceive(uint16,bytes)": "42d65a8d",
    "getConfig(uint16,uint16,address,uint256)": "f5ecbdbc",
    "getTrustedRemoteAddress(uint16)": "9f38369a",
    "isApprovedForAll(address,address)": "e985e9c5",
    "isTrustedRemote(uint16,bytes)": "3d8b38f6",
    "lzEndpoint()": "b353aaa7",
    "lzReceive(uint16,bytes,uint64,bytes)": "001d3567",
    "merkleRoot()": "2eb4a7ab",
    "minDstGasLookup(uint16,uint16)": "8cfd8f5c",
    "mint(uint256,uint256,bytes32[])": "e6d37b88",
    "nonblockingLzReceive(uint16,bytes,uint64,bytes)": "66ad5c8a",
    "owner()": "8da5cb5b",
    "payloadSizeLimitLookup(uint16)": "3f1f4fa4",
    "precrime()": "950c8a74",
    "price()": "a035b1fe",
    "publicMint(uint256,uint256)": "98ae99a8",
    "renounceOwnership()": "715018a6",
    "retryMessage(uint16,bytes,uint64,bytes)": "d1deba1f",
    "safeBatchTransferFrom(address,address,uint256[],uint256[],bytes)": "2eb2c2d6",
    "safeTransferFrom(address,address,uint256,uint256,bytes)": "f242432a",
    "sendBatchFrom(address,uint16,bytes,uint256[],uint256[],address,address,bytes)": "4ab4e687",
    "sendFrom(address,uint16,bytes,uint256,uint256,address,address,bytes)": "4db8226a",
    "setApprovalForAll(address,bool)": "a22cb465",
    "setBaseURI(string)": "55f804b3",
    "setBeneficiary(address)": "1c31f710",
    "setConfig(uint16,uint16,uint256,bytes)": "cbed8b9c",
    "setContractURI(string)": "938e3d7b",
    "setHiddenMetadataUri(string)": "4fdd43cb",
    "setMerkleRoot(bytes32)": "7cb64759",
    "setMinDstGas(uint16,uint16,uint256)": "df2a5b3b",
    "setPayloadSizeLimit(uint16,uint256)": "0df37483",
    "setPrecrime(address)": "baf3292d",
    "setPrice(uint256)": "91b7f5ed",
    "setReceiveVersion(uint16)": "10ddb137",
    "setSendVersion(uint16)": "07e0db17",
    "setTax(uint256)": "2e5bb6ff",
    "setTaxRecipient(address)": "78e3079e",
    "setTrustedRemote(uint16,bytes)": "eb8d72b7",
    "setTrustedRemoteAddress(uint16,bytes)": "a6c3d165",
    "supportsInterface(bytes4)": "01ffc9a7",
    "tax()": "99c8d556",
    "totalSupply(uint256)": "bd85b039",
    "transferOwnership(address)": "f2fde38b",
    "trustedRemoteLookup(uint16)": "7533d788",
    "uri(uint256)": "0e89341c",
    "withdraw()": "3ccfd60b"
  },
  "id": 95
}