{
  "abi": [
    {
      "inputs": [
        {
          "internalType": "string",
          "name": "_name",
          "type": "string"
        },
        {
          "internalType": "string",
          "name": "_symbol",
          "type": "string"
        },
        {
          "internalType": "address",
          "name": "_lzEndpoint",
          "type": "address"
        }
      ],
      "stateMutability": "nonpayable",
      "type": "constructor"
    },
    {
      "anonymous": false,
      "inputs": [
        {
          "indexed": true,
          "internalType": "address",
          "name": "owner",
          "type": "address"
        },
        {
          "indexed": true,
          "internalType": "address",
          "name": "spender",
          "type": "address"
        },
        {
          "indexed": false,
          "internalType": "uint256",
          "name": "value",
          "type": "uint256"
        }
      ],
      "name": "Approval",
      "type": "event"
    },
    {
      "anonymous": false,
      "inputs": [
        {
          "indexed": false,
          "internalType": "uint16",
          "name": "_srcChainId",
          "type": "uint16"
        },
        {
          "indexed": false,
          "internalType": "bytes",
          "name": "_srcAddress",
          "type": "bytes"
        },
        {
          "indexed": false,
          "internalType": "uint64",
          "name": "_nonce",
          "type": "uint64"
        },
        {
          "indexed": false,
          "internalType": "bytes",
          "name": "_payload",
          "type": "bytes"
        }
      ],
      "name": "MessageFailed",
      "type": "event"
    },
    {
      "anonymous": false,
      "inputs": [
        {
          "indexed": true,
          "internalType": "address",
          "name": "previousOwner",
          "type": "address"
        },
        {
          "indexed": true,
          "internalType": "address",
          "name": "newOwner",
          "type": "address"
        }
      ],
      "name": "OwnershipTransferred",
      "type": "event"
    },
    {
      "anonymous": false,
      "inputs": [
        {
          "indexed": true,
          "internalType": "uint16",
          "name": "_srcChainId",
          "type": "uint16"
        },
        {
          "indexed": true,
          "internalType": "bytes",
          "name": "_srcAddress",
          "type": "bytes"
        },
        {
          "indexed": true,
          "internalType": "address",
          "name": "_toAddress",
          "type": "address"
        },
        {
          "indexed": false,
          "internalType": "uint256",
          "name": "_amount",
          "type": "uint256"
        },
        {
          "indexed": false,
          "internalType": "uint64",
          "name": "_nonce",
          "type": "uint64"
        }
      ],
      "name": "ReceiveFromChain",
      "type": "event"
    },
    {
      "anonymous": false,
      "inputs": [
        {
          "indexed": true,
          "internalType": "address",
          "name": "_sender",
          "type": "address"
        },
        {
          "indexed": true,
          "internalType": "uint16",
          "name": "_dstChainId",
          "type": "uint16"
        },
        {
          "indexed": true,
          "internalType": "bytes",
          "name": "_toAddress",
          "type": "bytes"
        },
        {
          "indexed": false,
          "internalType": "uint256",
          "name": "_amount",
          "type": "uint256"
        },
        {
          "indexed": false,
          "internalType": "uint64",
          "name": "_nonce",
          "type": "uint64"
        }
      ],
      "name": "SendToChain",
      "type": "event"
    },
    {
      "anonymous": false,
      "inputs": [
        {
          "indexed": false,
          "internalType": "uint16",
          "name": "_dstChainId",
          "type": "uint16"
        },
        {
          "indexed": false,
          "internalType": "uint16",
          "name": "_type",
          "type": "uint16"
        },
        {
          "indexed": false,
          "internalType": "uint256",
          "name": "_minDstGas",
          "type": "uint256"
        }
      ],
      "name": "SetMinDstGas",
      "type": "event"
    },
    {
      "anonymous": false,
      "inputs": [
        {
          "indexed": false,
          "internalType": "address",
          "name": "precrime",
          "type": "address"
        }
      ],
      "name": "SetPrecrime",
      "type": "event"
    },
    {
      "anonymous": false,
      "inputs": [
        {
          "indexed": false,
          "internalType": "uint16",
          "name": "_remoteChainId",
          "type": "uint16"
        },
        {
          "indexed": false,
          "internalType": "bytes",
          "name": "_path",
          "type": "bytes"
        }
      ],
      "name": "SetTrustedRemote",
      "type": "event"
    },
    {
      "anonymous": false,
      "inputs": [
        {
          "indexed": false,
          "internalType": "uint16",
          "name": "_remoteChainId",
          "type": "uint16"
        },
        {
          "indexed": false,
          "internalType": "bytes",
          "name": "_remoteAddress",
          "type": "bytes"
        }
      ],
      "name": "SetTrustedRemoteAddress",
      "type": "event"
    },
    {
      "anonymous": false,
      "inputs": [
        {
          "indexed": true,
          "internalType": "address",
          "name": "from",
          "type": "address"
        },
        {
          "indexed": true,
          "internalType": "address",
          "name": "to",
          "type": "address"
        },
        {
          "indexed": false,
          "internalType": "uint256",
          "name": "value",
          "type": "uint256"
        }
      ],
      "name": "Transfer",
      "type": "event"
    },
    {
      "inputs": [
        {
          "internalType": "address",
          "name": "owner",
          "type": "address"
        },
        {
          "internalType": "address",
          "name": "spender",
          "type": "address"
        }
      ],
      "name": "allowance",
      "outputs": [
        {
          "internalType": "uint256",
          "name": "",
          "type": "uint256"
        }
      ],
      "stateMutability": "view",
      "type": "function"
    },
    {
      "inputs": [
        {
          "internalType": "address",
          "name": "spender",
          "type": "address"
        },
        {
          "internalType": "uint256",
          "name": "amount",
          "type": "uint256"
        }
      ],
      "name": "approve",
      "outputs": [
        {
          "internalType": "bool",
          "name": "",
          "type": "bool"
        }
      ],
      "stateMutability": "nonpayable",
      "type": "function"
    },
    {
      "inputs": [
        {
          "internalType": "address",
          "name": "account",
          "type": "address"
        }
      ],
      "name": "balanceOf",
      "outputs": [
        {
          "internalType": "uint256",
          "name": "",
          "type": "uint256"
        }
      ],
      "stateMutability": "view",
      "type": "function"
    },
    {
      "inputs": [],
      "name": "circulatingSupply",
      "outputs": [
        {
          "internalType": "uint256",
          "name": "",
          "type": "uint256"
        }
      ],
      "stateMutability": "view",
      "type": "function"
    },
    {
      "inputs": [],
      "name": "decimals",
      "outputs": [
        {
          "internalType": "uint8",
          "name": "",
          "type": "uint8"
        }
      ],
      "stateMutability": "view",
      "type": "function"
    },
    {
      "inputs": [
        {
          "internalType": "address",
          "name": "spender",
          "type": "address"
        },
        {
          "internalType": "uint256",
          "name": "subtractedValue",
          "type": "uint256"
        }
      ],
      "name": "decreaseAllowance",
      "outputs": [
        {
          "internalType": "bool",
          "name": "",
          "type": "bool"
        }
      ],
      "stateMutability": "nonpayable",
      "type": "function"
    },
    {
      "inputs": [
        {
          "internalType": "uint16",
          "name": "_dstChainId",
          "type": "uint16"
        },
        {
          "internalType": "bytes",
          "name": "_toAddress",
          "type": "bytes"
        },
        {
          "internalType": "uint256",
          "name": "_amount",
          "type": "uint256"
        },
        {
          "internalType": "bool",
          "name": "_useZro",
          "type": "bool"
        },
        {
          "internalType": "bytes",
          "name": "_adapterParams",
          "type": "bytes"
        },
        {
          "internalType": "bytes",
          "name": "_payload",
          "type": "bytes"
        }
      ],
      "name": "estimateSendFee",
      "outputs": [
        {
          "internalType": "uint256",
          "name": "nativeFee",
          "type": "uint256"
        },
        {
          "internalType": "uint256",
          "name": "zroFee",
          "type": "uint256"
        }
      ],
      "stateMutability": "view",
      "type": "function"
    },
    {
      "inputs": [
        {
          "internalType": "uint16",
          "name": "",
          "type": "uint16"
        },
        {
          "internalType": "bytes",
          "name": "",
          "type": "bytes"
        },
        {
          "internalType": "uint256",
          "name": "",
          "type": "uint256"
        }
      ],
      "name": "failedMessages",
      "outputs": [
        {
          "internalType": "bytes32",
          "name": "",
          "type": "bytes32"
        }
      ],
      "stateMutability": "view",
      "type": "function"
    },
    {
      "inputs": [
        {
          "internalType": "uint16",
          "name": "_srcChainId",
          "type": "uint16"
        },
        {
          "internalType": "bytes",
          "name": "_srcAddress",
          "type": "bytes"
        }
      ],
      "name": "forceResumeReceive",
      "outputs": [],
      "stateMutability": "nonpayable",
      "type": "function"
    },
    {
      "inputs": [
        {
          "internalType": "uint16",
          "name": "_version",
          "type": "uint16"
        },
        {
          "internalType": "uint16",
          "name": "_chainId",
          "type": "uint16"
        },
        {
          "internalType": "address",
          "name": "",
          "type": "address"
        },
        {
          "internalType": "uint256",
          "name": "_configType",
          "type": "uint256"
        }
      ],
      "name": "getConfig",
      "outputs": [
        {
          "internalType": "bytes",
          "name": "",
          "type": "bytes"
        }
      ],
      "stateMutability": "view",
      "type": "function"
    },
    {
      "inputs": [
        {
          "internalType": "uint16",
          "name": "_remoteChainId",
          "type": "uint16"
        }
      ],
      "name": "getTrustedRemoteAddress",
      "outputs": [
        {
          "internalType": "bytes",
          "name": "",
          "type": "bytes"
        }
      ],
      "stateMutability": "view",
      "type": "function"
    },
    {
      "inputs": [
        {
          "internalType": "address",
          "name": "spender",
          "type": "address"
        },
        {
          "internalType": "uint256",
          "name": "addedValue",
          "type": "uint256"
        }
      ],
      "name": "increaseAllowance",
      "outputs": [
        {
          "internalType": "bool",
          "name": "",
          "type": "bool"
        }
      ],
      "stateMutability": "nonpayable",
      "type": "function"
    },
    {
      "inputs": [
        {
          "internalType": "uint16",
          "name": "_srcChainId",
          "type": "uint16"
        },
        {
          "internalType": "bytes",
          "name": "_srcAddress",
          "type": "bytes"
        }
      ],
      "name": "isTrustedRemote",
      "outputs": [
        {
          "internalType": "bool",
          "name": "",
          "type": "bool"
        }
      ],
      "stateMutability": "view",
      "type": "function"
    },
    {
      "inputs": [],
      "name": "lzEndpoint",
      "outputs": [
        {
          "internalType": "contract ILayerZeroEndpoint",
          "name": "",
          "type": "address"
        }
      ],
      "stateMutability": "view",
      "type": "function"
    },
    {
      "inputs": [
        {
          "internalType": "uint16",
          "name": "_srcChainId",
          "type": "uint16"
        },
        {
          "internalType": "bytes",
          "name": "_srcAddress",
          "type": "bytes"
        },
        {
          "internalType": "uint64",
          "name": "_nonce",
          "type": "uint64"
        },
        {
          "internalType": "bytes",
          "name": "_payload",
          "type": "bytes"
        }
      ],
      "name": "lzReceive",
      "outputs": [],
      "stateMutability": "nonpayable",
      "type": "function"
    },
    {
      "inputs": [
        {
          "internalType": "uint16",
          "name": "",
          "type": "uint16"
        },
        {
          "internalType": "uint16",
          "name": "",
          "type": "uint16"
        }
      ],
      "name": "minDstGasLookup",
      "outputs": [
        {
          "internalType": "uint256",
          "name": "",
          "type": "uint256"
        }
      ],
      "stateMutability": "view",
      "type": "function"
    },
    {
      "inputs": [],
      "name": "name",
      "outputs": [
        {
          "internalType": "string",
          "name": "",
          "type": "string"
        }
      ],
      "stateMutability": "view",
      "type": "function"
    },
    {
      "inputs": [
        {
          "internalType": "uint16",
          "name": "_srcChainId",
          "type": "uint16"
        },
        {
          "internalType": "bytes",
          "name": "_srcAddress",
          "type": "bytes"
        },
        {
          "internalType": "uint64",
          "name": "_nonce",
          "type": "uint64"
        },
        {
          "internalType": "bytes",
          "name": "_payload",
          "type": "bytes"
        }
      ],
      "name": "nonblockingLzReceive",
      "outputs": [],
      "stateMutability": "nonpayable",
      "type": "function"
    },
    {
      "inputs": [],
      "name": "owner",
      "outputs": [
        {
          "internalType": "address",
          "name": "",
          "type": "address"
        }
      ],
      "stateMutability": "view",
      "type": "function"
    },
    {
      "inputs": [],
      "name": "precrime",
      "outputs": [
        {
          "internalType": "address",
          "name": "",
          "type": "address"
        }
      ],
      "stateMutability": "view",
      "type": "function"
    },
    {
      "inputs": [],
      "name": "renounceOwnership",
      "outputs": [],
      "stateMutability": "nonpayable",
      "type": "function"
    },
    {
      "inputs": [
        {
          "internalType": "uint16",
          "name": "_srcChainId",
          "type": "uint16"
        },
        {
          "internalType": "bytes",
          "name": "_srcAddress",
          "type": "bytes"
        },
        {
          "internalType": "uint64",
          "name": "_nonce",
          "type": "uint64"
        },
        {
          "internalType": "bytes",
          "name": "_payload",
          "type": "bytes"
        }
      ],
      "name": "retryMessage",
      "outputs": [],
      "stateMutability": "payable",
      "type": "function"
    },
    {
      "inputs": [
        {
          "internalType": "address",
          "name": "_from",
          "type": "address"
        },
        {
          "internalType": "uint16",
          "name": "_dstChainId",
          "type": "uint16"
        },
        {
          "internalType": "bytes",
          "name": "_toAddress",
          "type": "bytes"
        },
        {
          "internalType": "uint256",
          "name": "_amount",
          "type": "uint256"
        },
        {
          "internalType": "address payable",
          "name": "_refundAddress",
          "type": "address"
        },
        {
          "internalType": "address",
          "name": "_zroPaymentAddress",
          "type": "address"
        },
        {
          "internalType": "bytes",
          "name": "_adapterParams",
          "type": "bytes"
        },
        {
          "internalType": "bytes",
          "name": "_payload",
          "type": "bytes"
        }
      ],
      "name": "sendFrom",
      "outputs": [],
      "stateMutability": "payable",
      "type": "function"
    },
    {
      "inputs": [
        {
          "internalType": "uint16",
          "name": "_version",
          "type": "uint16"
        },
        {
          "internalType": "uint16",
          "name": "_chainId",
          "type": "uint16"
        },
        {
          "internalType": "uint256",
          "name": "_configType",
          "type": "uint256"
        },
        {
          "internalType": "bytes",
          "name": "_config",
          "type": "bytes"
        }
      ],
      "name": "setConfig",
      "outputs": [],
      "stateMutability": "nonpayable",
      "type": "function"
    },
    {
      "inputs": [
        {
          "internalType": "uint16",
          "name": "_dstChainId",
          "type": "uint16"
        },
        {
          "internalType": "uint16",
          "name": "_packetType",
          "type": "uint16"
        },
        {
          "internalType": "uint256",
          "name": "_minGas",
          "type": "uint256"
        }
      ],
      "name": "setMinDstGas",
      "outputs": [],
      "stateMutability": "nonpayable",
      "type": "function"
    },
    {
      "inputs": [
        {
          "internalType": "address",
          "name": "_precrime",
          "type": "address"
        }
      ],
      "name": "setPrecrime",
      "outputs": [],
      "stateMutability": "nonpayable",
      "type": "function"
    },
    {
      "inputs": [
        {
          "internalType": "uint16",
          "name": "_version",
          "type": "uint16"
        }
      ],
      "name": "setReceiveVersion",
      "outputs": [],
      "stateMutability": "nonpayable",
      "type": "function"
    },
    {
      "inputs": [
        {
          "internalType": "uint16",
          "name": "_version",
          "type": "uint16"
        }
      ],
      "name": "setSendVersion",
      "outputs": [],
      "stateMutability": "nonpayable",
      "type": "function"
    },
    {
      "inputs": [
        {
          "internalType": "uint16",
          "name": "_srcChainId",
          "type": "uint16"
        },
        {
          "internalType": "bytes",
          "name": "_path",
          "type": "bytes"
        }
      ],
      "name": "setTrustedRemote",
      "outputs": [],
      "stateMutability": "nonpayable",
      "type": "function"
    },
    {
      "inputs": [
        {
          "internalType": "uint16",
          "name": "_remoteChainId",
          "type": "uint16"
        },
        {
          "internalType": "bytes",
          "name": "_remoteAddress",
          "type": "bytes"
        }
      ],
      "name": "setTrustedRemoteAddress",
      "outputs": [],
      "stateMutability": "nonpayable",
      "type": "function"
    },
    {
      "inputs": [
        {
          "internalType": "bytes4",
          "name": "interfaceId",
          "type": "bytes4"
        }
      ],
      "name": "supportsInterface",
      "outputs": [
        {
          "internalType": "bool",
          "name": "",
          "type": "bool"
        }
      ],
      "stateMutability": "view",
      "type": "function"
    },
    {
      "inputs": [],
      "name": "symbol",
      "outputs": [
        {
          "internalType": "string",
          "name": "",
          "type": "string"
        }
      ],
      "stateMutability": "view",
      "type": "function"
    },
    {
      "inputs": [],
      "name": "totalSupply",
      "outputs": [
        {
          "internalType": "uint256",
          "name": "",
          "type": "uint256"
        }
      ],
      "stateMutability": "view",
      "type": "function"
    },
    {
      "inputs": [
        {
          "internalType": "address",
          "name": "to",
          "type": "address"
        },
        {
          "internalType": "uint256",
          "name": "amount",
          "type": "uint256"
        }
      ],
      "name": "transfer",
      "outputs": [
        {
          "internalType": "bool",
          "name": "",
          "type": "bool"
        }
      ],
      "stateMutability": "nonpayable",
      "type": "function"
    },
    {
      "inputs": [
        {
          "internalType": "address",
          "name": "from",
          "type": "address"
        },
        {
          "internalType": "address",
          "name": "to",
          "type": "address"
        },
        {
          "internalType": "uint256",
          "name": "amount",
          "type": "uint256"
        }
      ],
      "name": "transferFrom",
      "outputs": [
        {
          "internalType": "bool",
          "name": "",
          "type": "bool"
        }
      ],
      "stateMutability": "nonpayable",
      "type": "function"
    },
    {
      "inputs": [
        {
          "internalType": "address",
          "name": "newOwner",
          "type": "address"
        }
      ],
      "name": "transferOwnership",
      "outputs": [],
      "stateMutability": "nonpayable",
      "type": "function"
    },
    {
      "inputs": [
        {
          "internalType": "uint16",
          "name": "",
          "type": "uint16"
        }
      ],
      "name": "trustedRemoteLookup",
      "outputs": [
        {
          "internalType": "bytes",
          "name": "",
          "type": "bytes"
        }
      ],
      "stateMutability": "view",
      "type": "function"
    }
  ],
  "bytecode": {
    "object": "0x60a06040523480156200001157600080fd5b50604051620031f7380380620031f7833981016040819052620000349162000197565b8282828282828080620000473362000082565b6001600160a01b03166080525060089050620000648382620002b3565b506009620000738282620002b3565b5050505050505050506200037f565b600080546001600160a01b038381166001600160a01b0319831681178455604051919092169283917f8be0079c531659141344cd1fd0a4f28419497f9722a3daafe3b4186f6b6457e09190a35050565b634e487b7160e01b600052604160045260246000fd5b600082601f830112620000fa57600080fd5b81516001600160401b0380821115620001175762000117620000d2565b604051601f8301601f19908116603f01168101908282118183101715620001425762000142620000d2565b816040528381526020925086838588010111156200015f57600080fd5b600091505b8382101562000183578582018301518183018401529082019062000164565b600093810190920192909252949350505050565b600080600060608486031215620001ad57600080fd5b83516001600160401b0380821115620001c557600080fd5b620001d387838801620000e8565b94506020860151915080821115620001ea57600080fd5b50620001f986828701620000e8565b604086015190935090506001600160a01b03811681146200021957600080fd5b809150509250925092565b600181811c908216806200023957607f821691505b6020821081036200025a57634e487b7160e01b600052602260045260246000fd5b50919050565b601f821115620002ae57600081815260208120601f850160051c81016020861015620002895750805b601f850160051c820191505b81811015620002aa5782815560010162000295565b5050505b505050565b81516001600160401b03811115620002cf57620002cf620000d2565b620002e781620002e0845462000224565b8462000260565b602080601f8311600181146200031f5760008415620003065750858301515b600019600386901b1c1916600185901b178555620002aa565b600085815260208120601f198616915b8281101562000350578886015182559484019460019091019084016200032f565b50858210156200036f5787850151600019600388901b60f8161c191681555b5050505050600190811b01905550565b608051612e1d620003da6000396000818161062b0152818161074301528181610a6201528181610b1e01528181610c8601528181610d8f0152818161117c01528181611579015281816119010152611fac0152612e1d6000f3fe6080604052600436106102195760003560e01c80638cfd8f5c11610123578063a9059cbb116100ab578063dd62ed3e1161006f578063dd62ed3e146106a0578063df2a5b3b146106c0578063eb8d72b7146106e0578063f2fde38b14610700578063f5ecbdbc1461072057600080fd5b8063a9059cbb146105f9578063b353aaa714610619578063baf3292d1461064d578063cbed8b9c1461066d578063d1deba1f1461068d57600080fd5b8063950c8a74116100f2578063950c8a741461056457806395d89b41146105845780639f38369a14610599578063a457c2d7146105b9578063a6c3d165146105d957600080fd5b80638cfd8f5c146104855780638da5cb5b146104bd5780638ee74912146104ef5780639358928b1461053e57600080fd5b8063313ce567116101a657806366ad5c8a1161017557806366ad5c8a146103c55780636f770790146103e557806370a082311461041a578063715018a6146104505780637533d7881461046557600080fd5b8063313ce5671461034957806339509351146103655780633d8b38f61461038557806342d65a8d146103a557600080fd5b8063095ea7b3116101ed578063095ea7b3146102b75780630e506192146102d757806310ddb137146102ea57806318160ddd1461030a57806323b872dd1461032957600080fd5b80621d35671461021e57806301ffc9a71461024057806306fdde031461027557806307e0db1714610297575b600080fd5b34801561022a57600080fd5b5061023e6102393660046120ac565b610740565b005b34801561024c57600080fd5b5061026061025b366004612140565b610971565b60405190151581526020015b60405180910390f35b34801561028157600080fd5b5061028a6109af565b60405161026c91906121ba565b3480156102a357600080fd5b5061023e6102b23660046121cd565b610a41565b3480156102c357600080fd5b506102606102d2366004612208565b610aca565b61023e6102e53660046122f7565b610ae2565b3480156102f657600080fd5b5061023e6103053660046121cd565b610afd565b34801561031657600080fd5b506007545b60405190815260200161026c565b34801561033557600080fd5b506102606103443660046123cb565b610b55565b34801561035557600080fd5b506040516012815260200161026c565b34801561037157600080fd5b50610260610380366004612208565b610b79565b34801561039157600080fd5b506102606103a036600461240c565b610b9b565b3480156103b157600080fd5b5061023e6103c036600461240c565b610c67565b3480156103d157600080fd5b5061023e6103e036600461245e565b610ced565b3480156103f157600080fd5b506104056104003660046124e6565b610d4e565b6040805192835260208301919091520161026c565b34801561042657600080fd5b5061031b6104353660046125a0565b6001600160a01b031660009081526005602052604090205490565b34801561045c57600080fd5b5061023e610e1c565b34801561047157600080fd5b5061028a6104803660046121cd565b610e30565b34801561049157600080fd5b5061031b6104a03660046125bd565b600260209081526000928352604080842090915290825290205481565b3480156104c957600080fd5b506000546001600160a01b03165b6040516001600160a01b03909116815260200161026c565b3480156104fb57600080fd5b5061031b61050a3660046125f0565b6004602090815260009384526040808520845180860184018051928152908401958401959095209452929052825290205481565b34801561054a57600080fd5b50306000908152600560205260409020546007540361031b565b34801561057057600080fd5b506003546104d7906001600160a01b031681565b34801561059057600080fd5b5061028a610eca565b3480156105a557600080fd5b5061028a6105b43660046121cd565b610ed9565b3480156105c557600080fd5b506102606105d4366004612208565b610fef565b3480156105e557600080fd5b5061023e6105f436600461240c565b61106a565b34801561060557600080fd5b50610260610614366004612208565b6110f3565b34801561062557600080fd5b506104d77f000000000000000000000000000000000000000000000000000000000000000081565b34801561065957600080fd5b5061023e6106683660046125a0565b611101565b34801561067957600080fd5b5061023e610688366004612646565b61115d565b61023e61069b3660046126b4565b6111f2565b3480156106ac57600080fd5b5061031b6106bb366004612732565b611398565b3480156106cc57600080fd5b5061023e6106db36600461276b565b6113c3565b3480156106ec57600080fd5b5061023e6106fb36600461240c565b611475565b34801561070c57600080fd5b5061023e61071b3660046125a0565b6114cf565b34801561072c57600080fd5b5061028a61073b3660046127a7565b611548565b337f00000000000000000000000000000000000000000000000000000000000000006001600160a01b0316146107bd5760405162461bcd60e51b815260206004820152601e60248201527f4c7a4170703a20696e76616c696420656e64706f696e742063616c6c6572000060448201526064015b60405180910390fd5b61ffff8616600090815260016020526040812080546107db906127f4565b80601f0160208091040260200160405190810160405280929190818152602001828054610807906127f4565b80156108545780601f1061082957610100808354040283529160200191610854565b820191906000526020600020905b81548152906001019060200180831161083757829003601f168201915b5050505050905080518686905014801561086f575060008151115b801561089757508051602082012060405161088d908890889061282e565b6040518091039020145b6108f25760405162461bcd60e51b815260206004820152602660248201527f4c7a4170703a20696e76616c696420736f757263652073656e64696e6720636f6044820152651b9d1c9858dd60d21b60648201526084016107b4565b6109688787878080601f01602080910402602001604051908101604052809392919081815260200183838082843760009201919091525050604080516020601f8a018190048102820181019092528881528a9350915088908890819084018382808284376000920191909152506115f992505050565b50505050505050565b60006001600160e01b03198216158061099a57506001600160e01b031982166336372b0760e01b145b806109a957506109a9826116ea565b92915050565b6060600880546109be906127f4565b80601f01602080910402602001604051908101604052809291908181526020018280546109ea906127f4565b8015610a375780601f10610a0c57610100808354040283529160200191610a37565b820191906000526020600020905b815481529060010190602001808311610a1a57829003601f168201915b5050505050905090565b610a4961171f565b6040516307e0db1760e01b815261ffff821660048201527f00000000000000000000000000000000000000000000000000000000000000006001600160a01b0316906307e0db17906024015b600060405180830381600087803b158015610aaf57600080fd5b505af1158015610ac3573d6000803e3d6000fd5b5050505050565b600033610ad8818585611779565b5060019392505050565b610af388888888888888883461189d565b5050505050505050565b610b0561171f565b6040516310ddb13760e01b815261ffff821660048201527f00000000000000000000000000000000000000000000000000000000000000006001600160a01b0316906310ddb13790602401610a95565b600033610b638582856119ea565b610b6e858585611a5e565b506001949350505050565b600033610ad8818585610b8c8383611398565b610b969190612854565b611779565b61ffff831660009081526001602052604081208054829190610bbc906127f4565b80601f0160208091040260200160405190810160405280929190818152602001828054610be8906127f4565b8015610c355780601f10610c0a57610100808354040283529160200191610c35565b820191906000526020600020905b815481529060010190602001808311610c1857829003601f168201915b505050505090508383604051610c4c92919061282e565b60405180910390208180519060200120149150509392505050565b610c6f61171f565b6040516342d65a8d60e01b81526001600160a01b037f000000000000000000000000000000000000000000000000000000000000000016906342d65a8d90610cbf90869086908690600401612890565b600060405180830381600087803b158015610cd957600080fd5b505af1158015610968573d6000803e3d6000fd5b333014610d3c5760405162461bcd60e51b815260206004820181905260248201527f4c7a52656365697665723a2063616c6c6572206d757374206265204c7a41707060448201526064016107b4565b610d4884848484611c09565b50505050565b6000806000878785604051602001610d68939291906128ae565b60408051601f198184030181529082905263040a7bb160e41b825291506001600160a01b037f000000000000000000000000000000000000000000000000000000000000000016906340a7bb1090610dcc908c90309086908c908c906004016128e3565b6040805180830381865afa158015610de8573d6000803e3d6000fd5b505050506040513d601f19601f82011682018060405250810190610e0c9190612937565b9250925050965096945050505050565b610e2461171f565b610e2e6000611d0a565b565b60016020526000908152604090208054610e49906127f4565b80601f0160208091040260200160405190810160405280929190818152602001828054610e75906127f4565b8015610ec25780601f10610e9757610100808354040283529160200191610ec2565b820191906000526020600020905b815481529060010190602001808311610ea557829003601f168201915b505050505081565b6060600980546109be906127f4565b61ffff8116600090815260016020526040812080546060929190610efc906127f4565b80601f0160208091040260200160405190810160405280929190818152602001828054610f28906127f4565b8015610f755780601f10610f4a57610100808354040283529160200191610f75565b820191906000526020600020905b815481529060010190602001808311610f5857829003601f168201915b505050505090508051600003610fcd5760405162461bcd60e51b815260206004820152601d60248201527f4c7a4170703a206e6f20747275737465642070617468207265636f726400000060448201526064016107b4565b610fe8600060148351610fe0919061295b565b839190611d5a565b9392505050565b60003381610ffd8286611398565b90508381101561105d5760405162461bcd60e51b815260206004820152602560248201527f45524332303a2064656372656173656420616c6c6f77616e63652062656c6f77604482015264207a65726f60d81b60648201526084016107b4565b610b6e8286868403611779565b61107261171f565b8181306040516020016110879392919061296e565b60408051601f1981840301815291815261ffff85166000908152600160205220906110b290826129e2565b507f8c0400cfe2d1199b1a725c78960bcc2a344d869b80590d0f2bd005db15a572ce8383836040516110e693929190612890565b60405180910390a1505050565b600033610ad8818585611a5e565b61110961171f565b600380546001600160a01b0319166001600160a01b0383169081179091556040519081527f5db758e995a17ec1ad84bdef7e8c3293a0bd6179bcce400dff5d4c3d87db726b9060200160405180910390a150565b61116561171f565b6040516332fb62e760e21b81526001600160a01b037f0000000000000000000000000000000000000000000000000000000000000000169063cbed8b9c906111b99088908890889088908890600401612aa1565b600060405180830381600087803b1580156111d357600080fd5b505af11580156111e7573d6000803e3d6000fd5b505050505050505050565b61ffff85166000908152600460205260408082209051611213908790612ada565b90815260408051602092819003830190206001600160401b038716600090815292529020549050806112875760405162461bcd60e51b815260206004820152601d60248201527f4c7a52656365697665723a206e6f2073746f726564206d65737361676500000060448201526064016107b4565b80838360405161129892919061282e565b6040518091039020146112ed5760405162461bcd60e51b815260206004820152601b60248201527f4c7a52656365697665723a20696e76616c6964207061796c6f6164000000000060448201526064016107b4565b61ffff8616600090815260046020526040808220905161130e908890612ada565b9081526040805191829003602090810183206001600160401b038916600090815291522091909155633356ae4560e11b815230906366ad5c8a9061135e9089908990899089908990600401612af6565b600060405180830381600087803b15801561137857600080fd5b505af115801561138c573d6000803e3d6000fd5b50505050505050505050565b6001600160a01b03918216600090815260066020908152604080832093909416825291909152205490565b6113cb61171f565b600081116114135760405162461bcd60e51b81526020600482015260156024820152744c7a4170703a20696e76616c6964206d696e47617360581b60448201526064016107b4565b61ffff83811660008181526002602090815260408083209487168084529482529182902085905581519283528201929092529081018290527f9d5c7c0b934da8fefa9c7760c98383778a12dfbfc0c3b3106518f43fb9508ac0906060016110e6565b61147d61171f565b61ffff8316600090815260016020526040902061149b828483612b35565b507ffa41487ad5d6728f0b19276fa1eddc16558578f5109fc39d2dc33c3230470dab8383836040516110e693929190612890565b6114d761171f565b6001600160a01b03811661153c5760405162461bcd60e51b815260206004820152602660248201527f4f776e61626c653a206e6577206f776e657220697320746865207a65726f206160448201526564647265737360d01b60648201526084016107b4565b61154581611d0a565b50565b604051633d7b2f6f60e21b815261ffff808616600483015284166024820152306044820152606481018290526060907f00000000000000000000000000000000000000000000000000000000000000006001600160a01b03169063f5ecbdbc90608401600060405180830381865afa1580156115c8573d6000803e3d6000fd5b505050506040513d6000823e601f3d908101601f191682016040526115f09190810190612c41565b95945050505050565b604051633356ae4560e11b815230906366ad5c8a90611622908790879087908790600401612c75565b600060405180830381600087803b15801561163c57600080fd5b505af192505050801561164d575060015b610d48578080519060200120600460008661ffff1661ffff168152602001908152602001600020846040516116829190612ada565b9081526040805191829003602090810183206001600160401b0387166000908152915220919091557fe6f254030bcb01ffd20558175c13fcaed6d1520be7becee4c961b65f79243b0d906116dd908690869086908690612c75565b60405180910390a1610d48565b60006001600160e01b0319821663f27ff48960e01b14806109a957506301ffc9a760e01b6001600160e01b03198316146109a9565b6000546001600160a01b03163314610e2e5760405162461bcd60e51b815260206004820181905260248201527f4f776e61626c653a2063616c6c6572206973206e6f7420746865206f776e657260448201526064016107b4565b6001600160a01b0383166117db5760405162461bcd60e51b8152602060048201526024808201527f45524332303a20617070726f76652066726f6d20746865207a65726f206164646044820152637265737360e01b60648201526084016107b4565b6001600160a01b03821661183c5760405162461bcd60e51b815260206004820152602260248201527f45524332303a20617070726f766520746f20746865207a65726f206164647265604482015261737360f01b60648201526084016107b4565b6001600160a01b0383811660008181526006602090815260408083209487168084529482529182902085905590518481527f8c5be1e5ebec7d5bd14f71427d1e84f3dd0314c0f7b2291e5b200ac8c7c3b925910160405180910390a3505050565b6118a989898989611e67565b60008787846040516020016118c0939291906128ae565b60405160208183030381529060405290506118df898288888887611e8e565b604051630f428ae960e31b815261ffff8a1660048201523060248201526000907f00000000000000000000000000000000000000000000000000000000000000006001600160a01b031690637a14574890604401602060405180830381865afa158015611950573d6000803e3d6000fd5b505050506040513d601f19601f820116820180604052508101906119749190612cb3565b9050886040516119849190612ada565b604080519182900382208a83526001600160401b03841660208401529161ffff8d16916001600160a01b038f16917f024797cc77ce15dc717112d54fb1df125fdfd8c81344fb046c5e074427ce1543910160405180910390a45050505050505050505050565b60006119f68484611398565b90506000198114610d485781811015611a515760405162461bcd60e51b815260206004820152601d60248201527f45524332303a20696e73756666696369656e7420616c6c6f77616e636500000060448201526064016107b4565b610d488484848403611779565b6001600160a01b038316611ac25760405162461bcd60e51b815260206004820152602560248201527f45524332303a207472616e736665722066726f6d20746865207a65726f206164604482015264647265737360d81b60648201526084016107b4565b6001600160a01b038216611b245760405162461bcd60e51b815260206004820152602360248201527f45524332303a207472616e7366657220746f20746865207a65726f206164647260448201526265737360e81b60648201526084016107b4565b6001600160a01b03831660009081526005602052604090205481811015611b9c5760405162461bcd60e51b815260206004820152602660248201527f45524332303a207472616e7366657220616d6f756e7420657863656564732062604482015265616c616e636560d01b60648201526084016107b4565b6001600160a01b0380851660008181526005602052604080822086860390559286168082529083902080548601905591517fddf252ad1be2c89b69c2b068fc378daa952ba7f163c4a11628f55a4df523b3ef90611bfc9086815260200190565b60405180910390a3610d48565b600080600083806020019051810190611c229190612cd0565b60148301519295509093509150611c3a88828561202d565b6040516331d97a6560e21b81526001600160a01b0382169063c765e99490611c6e908b908b908b9089908990600401612d3c565b600060405180830381600087803b158015611c8857600080fd5b505af1925050508015611c99575060015b50806001600160a01b031687604051611cb29190612ada565b604080519182900382208683526001600160401b038a1660208401529161ffff8c16917f64e10c37f404d128982dce114f5d233c14c5c7f6d8db93099e3d99dacb9e27ba910160405180910390a45050505050505050565b600080546001600160a01b038381166001600160a01b0319831681178455604051919092169283917f8be0079c531659141344cd1fd0a4f28419497f9722a3daafe3b4186f6b6457e09190a35050565b606081611d6881601f612854565b1015611da75760405162461bcd60e51b815260206004820152600e60248201526d736c6963655f6f766572666c6f7760901b60448201526064016107b4565b611db18284612854565b84511015611df55760405162461bcd60e51b8152602060048201526011602482015270736c6963655f6f75744f66426f756e647360781b60448201526064016107b4565b606082158015611e145760405191506000825260208201604052611e5e565b6040519150601f8416801560200281840101858101878315602002848b0101015b81831015611e4d578051835260209283019201611e35565b5050858452601f01601f1916604052505b50949350505050565b336001600160a01b0385168114611e8357611e838582846119ea565b610ac3853084611a5e565b61ffff861660009081526001602052604081208054611eac906127f4565b80601f0160208091040260200160405190810160405280929190818152602001828054611ed8906127f4565b8015611f255780601f10611efa57610100808354040283529160200191611f25565b820191906000526020600020905b815481529060010190602001808311611f0857829003601f168201915b505050505090508051600003611f965760405162461bcd60e51b815260206004820152603060248201527f4c7a4170703a2064657374696e6174696f6e20636861696e206973206e6f742060448201526f61207472757374656420736f7572636560801b60648201526084016107b4565b60405162c5803160e81b81526001600160a01b037f0000000000000000000000000000000000000000000000000000000000000000169063c5803100908490611fed908b9086908c908c908c908c90600401612d80565b6000604051808303818588803b15801561200657600080fd5b505af115801561201a573d6000803e3d6000fd5b505050505050505050505050565b505050565b612028308383611a5e565b803561ffff8116811461204a57600080fd5b919050565b60008083601f84011261206157600080fd5b5081356001600160401b0381111561207857600080fd5b60208301915083602082850101111561209057600080fd5b9250929050565b6001600160401b038116811461154557600080fd5b600080600080600080608087890312156120c557600080fd5b6120ce87612038565b955060208701356001600160401b03808211156120ea57600080fd5b6120f68a838b0161204f565b90975095506040890135915061210b82612097565b9093506060880135908082111561212157600080fd5b5061212e89828a0161204f565b979a9699509497509295939492505050565b60006020828403121561215257600080fd5b81356001600160e01b031981168114610fe857600080fd5b60005b8381101561218557818101518382015260200161216d565b50506000910152565b600081518084526121a681602086016020860161216a565b601f01601f19169290920160200192915050565b602081526000610fe8602083018461218e565b6000602082840312156121df57600080fd5b610fe882612038565b6001600160a01b038116811461154557600080fd5b803561204a816121e8565b6000806040838503121561221b57600080fd5b8235612226816121e8565b946020939093013593505050565b634e487b7160e01b600052604160045260246000fd5b604051601f8201601f191681016001600160401b038111828210171561227257612272612234565b604052919050565b60006001600160401b0382111561229357612293612234565b50601f01601f191660200190565b600082601f8301126122b257600080fd5b81356122c56122c08261227a565b61224a565b8181528460208386010111156122da57600080fd5b816020850160208301376000918101602001919091529392505050565b600080600080600080600080610100898b03121561231457600080fd5b61231d896121fd565b975061232b60208a01612038565b965060408901356001600160401b038082111561234757600080fd5b6123538c838d016122a1565b975060608b0135965061236860808c016121fd565b955061237660a08c016121fd565b945060c08b013591508082111561238c57600080fd5b6123988c838d016122a1565b935060e08b01359150808211156123ae57600080fd5b506123bb8b828c016122a1565b9150509295985092959890939650565b6000806000606084860312156123e057600080fd5b83356123eb816121e8565b925060208401356123fb816121e8565b929592945050506040919091013590565b60008060006040848603121561242157600080fd5b61242a84612038565b925060208401356001600160401b0381111561244557600080fd5b6124518682870161204f565b9497909650939450505050565b6000806000806080858703121561247457600080fd5b61247d85612038565b935060208501356001600160401b038082111561249957600080fd5b6124a5888389016122a1565b9450604087013591506124b782612097565b909250606086013590808211156124cd57600080fd5b506124da878288016122a1565b91505092959194509250565b60008060008060008060c087890312156124ff57600080fd5b61250887612038565b955060208701356001600160401b038082111561252457600080fd5b6125308a838b016122a1565b96506040890135955060608901359150811515821461254e57600080fd5b9093506080880135908082111561256457600080fd5b6125708a838b016122a1565b935060a089013591508082111561258657600080fd5b5061259389828a016122a1565b9150509295509295509295565b6000602082840312156125b257600080fd5b8135610fe8816121e8565b600080604083850312156125d057600080fd5b6125d983612038565b91506125e760208401612038565b90509250929050565b60008060006060848603121561260557600080fd5b61260e84612038565b925060208401356001600160401b0381111561262957600080fd5b612635868287016122a1565b925050604084013590509250925092565b60008060008060006080868803121561265e57600080fd5b61266786612038565b945061267560208701612038565b93506040860135925060608601356001600160401b0381111561269757600080fd5b6126a38882890161204f565b969995985093965092949392505050565b6000806000806000608086880312156126cc57600080fd5b6126d586612038565b945060208601356001600160401b03808211156126f157600080fd5b6126fd89838a016122a1565b95506040880135915061270f82612097565b9093506060870135908082111561272557600080fd5b506126a38882890161204f565b6000806040838503121561274557600080fd5b8235612750816121e8565b91506020830135612760816121e8565b809150509250929050565b60008060006060848603121561278057600080fd5b61278984612038565b925061279760208501612038565b9150604084013590509250925092565b600080600080608085870312156127bd57600080fd5b6127c685612038565b93506127d460208601612038565b925060408501356127e4816121e8565b9396929550929360600135925050565b600181811c9082168061280857607f821691505b60208210810361282857634e487b7160e01b600052602260045260246000fd5b50919050565b8183823760009101908152919050565b634e487b7160e01b600052601160045260246000fd5b808201808211156109a9576109a961283e565b81835281816020850137506000828201602090810191909152601f909101601f19169091010190565b61ffff841681526040602082015260006115f0604083018486612867565b6060815260006128c1606083018661218e565b84602084015282810360408401526128d9818561218e565b9695505050505050565b61ffff861681526001600160a01b038516602082015260a0604082018190526000906129119083018661218e565b8415156060840152828103608084015261292b818561218e565b98975050505050505050565b6000806040838503121561294a57600080fd5b505080516020909101519092909150565b818103818111156109a9576109a961283e565b8284823760609190911b6bffffffffffffffffffffffff19169101908152601401919050565b601f82111561202857600081815260208120601f850160051c810160208610156129bb5750805b601f850160051c820191505b818110156129da578281556001016129c7565b505050505050565b81516001600160401b038111156129fb576129fb612234565b612a0f81612a0984546127f4565b84612994565b602080601f831160018114612a445760008415612a2c5750858301515b600019600386901b1c1916600185901b1785556129da565b600085815260208120601f198616915b82811015612a7357888601518255948401946001909101908401612a54565b5085821015612a915787850151600019600388901b60f8161c191681555b5050505050600190811b01905550565b600061ffff808816835280871660208401525084604083015260806060830152612acf608083018486612867565b979650505050505050565b60008251612aec81846020870161216a565b9190910192915050565b61ffff86168152608060208201526000612b13608083018761218e565b6001600160401b0386166040840152828103606084015261292b818587612867565b6001600160401b03831115612b4c57612b4c612234565b612b6083612b5a83546127f4565b83612994565b6000601f841160018114612b945760008515612b7c5750838201355b600019600387901b1c1916600186901b178355610ac3565b600083815260209020601f19861690835b82811015612bc55786850135825560209485019460019092019101612ba5565b5086821015612be25760001960f88860031b161c19848701351681555b505060018560011b0183555050505050565b600082601f830112612c0557600080fd5b8151612c136122c08261227a565b818152846020838601011115612c2857600080fd5b612c3982602083016020870161216a565b949350505050565b600060208284031215612c5357600080fd5b81516001600160401b03811115612c6957600080fd5b612c3984828501612bf4565b61ffff85168152608060208201526000612c92608083018661218e565b6001600160401b03851660408401528281036060840152612acf818561218e565b600060208284031215612cc557600080fd5b8151610fe881612097565b600080600060608486031215612ce557600080fd5b83516001600160401b0380821115612cfc57600080fd5b612d0887838801612bf4565b9450602086015193506040860151915080821115612d2557600080fd5b50612d3286828701612bf4565b9150509250925092565b61ffff8616815260a060208201526000612d5960a083018761218e565b6001600160401b0386166040840152846060840152828103608084015261292b818561218e565b61ffff8716815260c060208201526000612d9d60c083018861218e565b8281036040840152612daf818861218e565b6001600160a01b0387811660608601528616608085015283810360a08501529050612dda818561218e565b999850505050505050505056fea26469706673582212202e4b6c2d0c8c7dce7e2edbb487e2a6d9b771420f9ca0e2a0b623c207e90b53d564736f6c63430008110033",
    "linkReferences": {}
  },
  "methodIdentifiers": {
    "allowance(address,address)": "dd62ed3e",
    "approve(address,uint256)": "095ea7b3",
    "balanceOf(address)": "70a08231",
    "circulatingSupply()": "9358928b",
    "decimals()": "313ce567",
    "decreaseAllowance(address,uint256)": "a457c2d7",
    "estimateSendFee(uint16,bytes,uint256,bool,bytes,bytes)": "6f770790",
    "failedMessages(uint16,bytes,uint256)": "8ee74912",
    "forceResumeReceive(uint16,bytes)": "42d65a8d",
    "getConfig(uint16,uint16,address,uint256)": "f5ecbdbc",
    "getTrustedRemoteAddress(uint16)": "9f38369a",
    "increaseAllowance(address,uint256)": "39509351",
    "isTrustedRemote(uint16,bytes)": "3d8b38f6",
    "lzEndpoint()": "b353aaa7",
    "lzReceive(uint16,bytes,uint64,bytes)": "001d3567",
    "minDstGasLookup(uint16,uint16)": "8cfd8f5c",
    "name()": "06fdde03",
    "nonblockingLzReceive(uint16,bytes,uint64,bytes)": "66ad5c8a",
    "owner()": "8da5cb5b",
    "precrime()": "950c8a74",
    "renounceOwnership()": "715018a6",
    "retryMessage(uint16,bytes,uint64,bytes)": "d1deba1f",
    "sendFrom(address,uint16,bytes,uint256,address,address,bytes,bytes)": "0e506192",
    "setConfig(uint16,uint16,uint256,bytes)": "cbed8b9c",
    "setMinDstGas(uint16,uint16,uint256)": "df2a5b3b",
    "setPrecrime(address)": "baf3292d",
    "setReceiveVersion(uint16)": "10ddb137",
    "setSendVersion(uint16)": "07e0db17",
    "setTrustedRemote(uint16,bytes)": "eb8d72b7",
    "setTrustedRemoteAddress(uint16,bytes)": "a6c3d165",
    "supportsInterface(bytes4)": "01ffc9a7",
    "symbol()": "95d89b41",
    "totalSupply()": "18160ddd",
    "transfer(address,uint256)": "a9059cbb",
    "transferFrom(address,address,uint256)": "23b872dd",
    "transferOwnership(address)": "f2fde38b",
    "trustedRemoteLookup(uint16)": "7533d788"
  },
  "id": 80
}