{
  "abi": [
    {
      "inputs": [
        {
          "internalType": "string",
          "name": "_name",
          "type": "string"
        },
        {
          "internalType": "string",
          "name": "_symbol",
          "type": "string"
        },
        {
          "internalType": "address",
          "name": "_lzEndpoint",
          "type": "address"
        }
      ],
      "stateMutability": "nonpayable",
      "type": "constructor"
    },
    {
      "anonymous": false,
      "inputs": [
        {
          "indexed": true,
          "internalType": "address",
          "name": "owner",
          "type": "address"
        },
        {
          "indexed": true,
          "internalType": "address",
          "name": "spender",
          "type": "address"
        },
        {
          "indexed": false,
          "internalType": "uint256",
          "name": "value",
          "type": "uint256"
        }
      ],
      "name": "Approval",
      "type": "event"
    },
    {
      "anonymous": false,
      "inputs": [
        {
          "indexed": false,
          "internalType": "uint16",
          "name": "_srcChainId",
          "type": "uint16"
        },
        {
          "indexed": false,
          "internalType": "bytes",
          "name": "_srcAddress",
          "type": "bytes"
        },
        {
          "indexed": false,
          "internalType": "uint64",
          "name": "_nonce",
          "type": "uint64"
        },
        {
          "indexed": false,
          "internalType": "bytes",
          "name": "_payload",
          "type": "bytes"
        }
      ],
      "name": "MessageFailed",
      "type": "event"
    },
    {
      "anonymous": false,
      "inputs": [
        {
          "indexed": true,
          "internalType": "address",
          "name": "previousOwner",
          "type": "address"
        },
        {
          "indexed": true,
          "internalType": "address",
          "name": "newOwner",
          "type": "address"
        }
      ],
      "name": "OwnershipTransferred",
      "type": "event"
    },
    {
      "anonymous": false,
      "inputs": [
        {
          "indexed": true,
          "internalType": "uint16",
          "name": "_srcChainId",
          "type": "uint16"
        },
        {
          "indexed": true,
          "internalType": "bytes",
          "name": "_srcAddress",
          "type": "bytes"
        },
        {
          "indexed": true,
          "internalType": "address",
          "name": "_toAddress",
          "type": "address"
        },
        {
          "indexed": false,
          "internalType": "uint256",
          "name": "_amount",
          "type": "uint256"
        },
        {
          "indexed": false,
          "internalType": "uint64",
          "name": "_nonce",
          "type": "uint64"
        }
      ],
      "name": "ReceiveFromChain",
      "type": "event"
    },
    {
      "anonymous": false,
      "inputs": [
        {
          "indexed": true,
          "internalType": "address",
          "name": "_sender",
          "type": "address"
        },
        {
          "indexed": true,
          "internalType": "uint16",
          "name": "_dstChainId",
          "type": "uint16"
        },
        {
          "indexed": true,
          "internalType": "bytes",
          "name": "_toAddress",
          "type": "bytes"
        },
        {
          "indexed": false,
          "internalType": "uint256",
          "name": "_amount",
          "type": "uint256"
        },
        {
          "indexed": false,
          "internalType": "uint64",
          "name": "_nonce",
          "type": "uint64"
        }
      ],
      "name": "SendToChain",
      "type": "event"
    },
    {
      "anonymous": false,
      "inputs": [
        {
          "indexed": false,
          "internalType": "uint16",
          "name": "_dstChainId",
          "type": "uint16"
        },
        {
          "indexed": false,
          "internalType": "uint16",
          "name": "_type",
          "type": "uint16"
        },
        {
          "indexed": false,
          "internalType": "uint256",
          "name": "_minDstGas",
          "type": "uint256"
        }
      ],
      "name": "SetMinDstGas",
      "type": "event"
    },
    {
      "anonymous": false,
      "inputs": [
        {
          "indexed": false,
          "internalType": "address",
          "name": "precrime",
          "type": "address"
        }
      ],
      "name": "SetPrecrime",
      "type": "event"
    },
    {
      "anonymous": false,
      "inputs": [
        {
          "indexed": false,
          "internalType": "uint16",
          "name": "_remoteChainId",
          "type": "uint16"
        },
        {
          "indexed": false,
          "internalType": "bytes",
          "name": "_path",
          "type": "bytes"
        }
      ],
      "name": "SetTrustedRemote",
      "type": "event"
    },
    {
      "anonymous": false,
      "inputs": [
        {
          "indexed": false,
          "internalType": "uint16",
          "name": "_remoteChainId",
          "type": "uint16"
        },
        {
          "indexed": false,
          "internalType": "bytes",
          "name": "_remoteAddress",
          "type": "bytes"
        }
      ],
      "name": "SetTrustedRemoteAddress",
      "type": "event"
    },
    {
      "anonymous": false,
      "inputs": [
        {
          "indexed": true,
          "internalType": "address",
          "name": "from",
          "type": "address"
        },
        {
          "indexed": true,
          "internalType": "address",
          "name": "to",
          "type": "address"
        },
        {
          "indexed": false,
          "internalType": "uint256",
          "name": "value",
          "type": "uint256"
        }
      ],
      "name": "Transfer",
      "type": "event"
    },
    {
      "inputs": [
        {
          "internalType": "address",
          "name": "owner",
          "type": "address"
        },
        {
          "internalType": "address",
          "name": "spender",
          "type": "address"
        }
      ],
      "name": "allowance",
      "outputs": [
        {
          "internalType": "uint256",
          "name": "",
          "type": "uint256"
        }
      ],
      "stateMutability": "view",
      "type": "function"
    },
    {
      "inputs": [
        {
          "internalType": "address",
          "name": "spender",
          "type": "address"
        },
        {
          "internalType": "uint256",
          "name": "amount",
          "type": "uint256"
        }
      ],
      "name": "approve",
      "outputs": [
        {
          "internalType": "bool",
          "name": "",
          "type": "bool"
        }
      ],
      "stateMutability": "nonpayable",
      "type": "function"
    },
    {
      "inputs": [
        {
          "internalType": "address",
          "name": "account",
          "type": "address"
        }
      ],
      "name": "balanceOf",
      "outputs": [
        {
          "internalType": "uint256",
          "name": "",
          "type": "uint256"
        }
      ],
      "stateMutability": "view",
      "type": "function"
    },
    {
      "inputs": [],
      "name": "circulatingSupply",
      "outputs": [
        {
          "internalType": "uint256",
          "name": "",
          "type": "uint256"
        }
      ],
      "stateMutability": "view",
      "type": "function"
    },
    {
      "inputs": [],
      "name": "decimals",
      "outputs": [
        {
          "internalType": "uint8",
          "name": "",
          "type": "uint8"
        }
      ],
      "stateMutability": "view",
      "type": "function"
    },
    {
      "inputs": [
        {
          "internalType": "address",
          "name": "spender",
          "type": "address"
        },
        {
          "internalType": "uint256",
          "name": "subtractedValue",
          "type": "uint256"
        }
      ],
      "name": "decreaseAllowance",
      "outputs": [
        {
          "internalType": "bool",
          "name": "",
          "type": "bool"
        }
      ],
      "stateMutability": "nonpayable",
      "type": "function"
    },
    {
      "inputs": [
        {
          "internalType": "uint16",
          "name": "_dstChainId",
          "type": "uint16"
        },
        {
          "internalType": "bytes",
          "name": "_toAddress",
          "type": "bytes"
        },
        {
          "internalType": "uint256",
          "name": "_amount",
          "type": "uint256"
        },
        {
          "internalType": "bool",
          "name": "_useZro",
          "type": "bool"
        },
        {
          "internalType": "bytes",
          "name": "_adapterParams",
          "type": "bytes"
        },
        {
          "internalType": "bytes",
          "name": "_payload",
          "type": "bytes"
        }
      ],
      "name": "estimateSendFee",
      "outputs": [
        {
          "internalType": "uint256",
          "name": "nativeFee",
          "type": "uint256"
        },
        {
          "internalType": "uint256",
          "name": "zroFee",
          "type": "uint256"
        }
      ],
      "stateMutability": "view",
      "type": "function"
    },
    {
      "inputs": [
        {
          "internalType": "uint16",
          "name": "",
          "type": "uint16"
        },
        {
          "internalType": "bytes",
          "name": "",
          "type": "bytes"
        },
        {
          "internalType": "uint256",
          "name": "",
          "type": "uint256"
        }
      ],
      "name": "failedMessages",
      "outputs": [
        {
          "internalType": "bytes32",
          "name": "",
          "type": "bytes32"
        }
      ],
      "stateMutability": "view",
      "type": "function"
    },
    {
      "inputs": [
        {
          "internalType": "uint16",
          "name": "_srcChainId",
          "type": "uint16"
        },
        {
          "internalType": "bytes",
          "name": "_srcAddress",
          "type": "bytes"
        }
      ],
      "name": "forceResumeReceive",
      "outputs": [],
      "stateMutability": "nonpayable",
      "type": "function"
    },
    {
      "inputs": [
        {
          "internalType": "uint16",
          "name": "_version",
          "type": "uint16"
        },
        {
          "internalType": "uint16",
          "name": "_chainId",
          "type": "uint16"
        },
        {
          "internalType": "address",
          "name": "",
          "type": "address"
        },
        {
          "internalType": "uint256",
          "name": "_configType",
          "type": "uint256"
        }
      ],
      "name": "getConfig",
      "outputs": [
        {
          "internalType": "bytes",
          "name": "",
          "type": "bytes"
        }
      ],
      "stateMutability": "view",
      "type": "function"
    },
    {
      "inputs": [
        {
          "internalType": "uint16",
          "name": "_remoteChainId",
          "type": "uint16"
        }
      ],
      "name": "getTrustedRemoteAddress",
      "outputs": [
        {
          "internalType": "bytes",
          "name": "",
          "type": "bytes"
        }
      ],
      "stateMutability": "view",
      "type": "function"
    },
    {
      "inputs": [
        {
          "internalType": "address",
          "name": "spender",
          "type": "address"
        },
        {
          "internalType": "uint256",
          "name": "addedValue",
          "type": "uint256"
        }
      ],
      "name": "increaseAllowance",
      "outputs": [
        {
          "internalType": "bool",
          "name": "",
          "type": "bool"
        }
      ],
      "stateMutability": "nonpayable",
      "type": "function"
    },
    {
      "inputs": [
        {
          "internalType": "uint16",
          "name": "_srcChainId",
          "type": "uint16"
        },
        {
          "internalType": "bytes",
          "name": "_srcAddress",
          "type": "bytes"
        }
      ],
      "name": "isTrustedRemote",
      "outputs": [
        {
          "internalType": "bool",
          "name": "",
          "type": "bool"
        }
      ],
      "stateMutability": "view",
      "type": "function"
    },
    {
      "inputs": [],
      "name": "lzEndpoint",
      "outputs": [
        {
          "internalType": "contract ILayerZeroEndpoint",
          "name": "",
          "type": "address"
        }
      ],
      "stateMutability": "view",
      "type": "function"
    },
    {
      "inputs": [
        {
          "internalType": "uint16",
          "name": "_srcChainId",
          "type": "uint16"
        },
        {
          "internalType": "bytes",
          "name": "_srcAddress",
          "type": "bytes"
        },
        {
          "internalType": "uint64",
          "name": "_nonce",
          "type": "uint64"
        },
        {
          "internalType": "bytes",
          "name": "_payload",
          "type": "bytes"
        }
      ],
      "name": "lzReceive",
      "outputs": [],
      "stateMutability": "nonpayable",
      "type": "function"
    },
    {
      "inputs": [
        {
          "internalType": "uint16",
          "name": "",
          "type": "uint16"
        },
        {
          "internalType": "uint16",
          "name": "",
          "type": "uint16"
        }
      ],
      "name": "minDstGasLookup",
      "outputs": [
        {
          "internalType": "uint256",
          "name": "",
          "type": "uint256"
        }
      ],
      "stateMutability": "view",
      "type": "function"
    },
    {
      "inputs": [],
      "name": "name",
      "outputs": [
        {
          "internalType": "string",
          "name": "",
          "type": "string"
        }
      ],
      "stateMutability": "view",
      "type": "function"
    },
    {
      "inputs": [
        {
          "internalType": "uint16",
          "name": "_srcChainId",
          "type": "uint16"
        },
        {
          "internalType": "bytes",
          "name": "_srcAddress",
          "type": "bytes"
        },
        {
          "internalType": "uint64",
          "name": "_nonce",
          "type": "uint64"
        },
        {
          "internalType": "bytes",
          "name": "_payload",
          "type": "bytes"
        }
      ],
      "name": "nonblockingLzReceive",
      "outputs": [],
      "stateMutability": "nonpayable",
      "type": "function"
    },
    {
      "inputs": [],
      "name": "owner",
      "outputs": [
        {
          "internalType": "address",
          "name": "",
          "type": "address"
        }
      ],
      "stateMutability": "view",
      "type": "function"
    },
    {
      "inputs": [],
      "name": "precrime",
      "outputs": [
        {
          "internalType": "address",
          "name": "",
          "type": "address"
        }
      ],
      "stateMutability": "view",
      "type": "function"
    },
    {
      "inputs": [],
      "name": "renounceOwnership",
      "outputs": [],
      "stateMutability": "nonpayable",
      "type": "function"
    },
    {
      "inputs": [
        {
          "internalType": "uint16",
          "name": "_srcChainId",
          "type": "uint16"
        },
        {
          "internalType": "bytes",
          "name": "_srcAddress",
          "type": "bytes"
        },
        {
          "internalType": "uint64",
          "name": "_nonce",
          "type": "uint64"
        },
        {
          "internalType": "bytes",
          "name": "_payload",
          "type": "bytes"
        }
      ],
      "name": "retryMessage",
      "outputs": [],
      "stateMutability": "payable",
      "type": "function"
    },
    {
      "inputs": [
        {
          "internalType": "address",
          "name": "_from",
          "type": "address"
        },
        {
          "internalType": "uint16",
          "name": "_dstChainId",
          "type": "uint16"
        },
        {
          "internalType": "bytes",
          "name": "_toAddress",
          "type": "bytes"
        },
        {
          "internalType": "uint256",
          "name": "_amount",
          "type": "uint256"
        },
        {
          "internalType": "address payable",
          "name": "_refundAddress",
          "type": "address"
        },
        {
          "internalType": "address",
          "name": "_zroPaymentAddress",
          "type": "address"
        },
        {
          "internalType": "bytes",
          "name": "_adapterParams",
          "type": "bytes"
        },
        {
          "internalType": "bytes",
          "name": "_payload",
          "type": "bytes"
        }
      ],
      "name": "sendFrom",
      "outputs": [],
      "stateMutability": "payable",
      "type": "function"
    },
    {
      "inputs": [
        {
          "internalType": "uint16",
          "name": "_version",
          "type": "uint16"
        },
        {
          "internalType": "uint16",
          "name": "_chainId",
          "type": "uint16"
        },
        {
          "internalType": "uint256",
          "name": "_configType",
          "type": "uint256"
        },
        {
          "internalType": "bytes",
          "name": "_config",
          "type": "bytes"
        }
      ],
      "name": "setConfig",
      "outputs": [],
      "stateMutability": "nonpayable",
      "type": "function"
    },
    {
      "inputs": [
        {
          "internalType": "uint16",
          "name": "_dstChainId",
          "type": "uint16"
        },
        {
          "internalType": "uint16",
          "name": "_packetType",
          "type": "uint16"
        },
        {
          "internalType": "uint256",
          "name": "_minGas",
          "type": "uint256"
        }
      ],
      "name": "setMinDstGas",
      "outputs": [],
      "stateMutability": "nonpayable",
      "type": "function"
    },
    {
      "inputs": [
        {
          "internalType": "address",
          "name": "_precrime",
          "type": "address"
        }
      ],
      "name": "setPrecrime",
      "outputs": [],
      "stateMutability": "nonpayable",
      "type": "function"
    },
    {
      "inputs": [
        {
          "internalType": "uint16",
          "name": "_version",
          "type": "uint16"
        }
      ],
      "name": "setReceiveVersion",
      "outputs": [],
      "stateMutability": "nonpayable",
      "type": "function"
    },
    {
      "inputs": [
        {
          "internalType": "uint16",
          "name": "_version",
          "type": "uint16"
        }
      ],
      "name": "setSendVersion",
      "outputs": [],
      "stateMutability": "nonpayable",
      "type": "function"
    },
    {
      "inputs": [
        {
          "internalType": "uint16",
          "name": "_srcChainId",
          "type": "uint16"
        },
        {
          "internalType": "bytes",
          "name": "_path",
          "type": "bytes"
        }
      ],
      "name": "setTrustedRemote",
      "outputs": [],
      "stateMutability": "nonpayable",
      "type": "function"
    },
    {
      "inputs": [
        {
          "internalType": "uint16",
          "name": "_remoteChainId",
          "type": "uint16"
        },
        {
          "internalType": "bytes",
          "name": "_remoteAddress",
          "type": "bytes"
        }
      ],
      "name": "setTrustedRemoteAddress",
      "outputs": [],
      "stateMutability": "nonpayable",
      "type": "function"
    },
    {
      "inputs": [
        {
          "internalType": "bytes4",
          "name": "interfaceId",
          "type": "bytes4"
        }
      ],
      "name": "supportsInterface",
      "outputs": [
        {
          "internalType": "bool",
          "name": "",
          "type": "bool"
        }
      ],
      "stateMutability": "view",
      "type": "function"
    },
    {
      "inputs": [],
      "name": "symbol",
      "outputs": [
        {
          "internalType": "string",
          "name": "",
          "type": "string"
        }
      ],
      "stateMutability": "view",
      "type": "function"
    },
    {
      "inputs": [],
      "name": "totalSupply",
      "outputs": [
        {
          "internalType": "uint256",
          "name": "",
          "type": "uint256"
        }
      ],
      "stateMutability": "view",
      "type": "function"
    },
    {
      "inputs": [
        {
          "internalType": "address",
          "name": "to",
          "type": "address"
        },
        {
          "internalType": "uint256",
          "name": "amount",
          "type": "uint256"
        }
      ],
      "name": "transfer",
      "outputs": [
        {
          "internalType": "bool",
          "name": "",
          "type": "bool"
        }
      ],
      "stateMutability": "nonpayable",
      "type": "function"
    },
    {
      "inputs": [
        {
          "internalType": "address",
          "name": "from",
          "type": "address"
        },
        {
          "internalType": "address",
          "name": "to",
          "type": "address"
        },
        {
          "internalType": "uint256",
          "name": "amount",
          "type": "uint256"
        }
      ],
      "name": "transferFrom",
      "outputs": [
        {
          "internalType": "bool",
          "name": "",
          "type": "bool"
        }
      ],
      "stateMutability": "nonpayable",
      "type": "function"
    },
    {
      "inputs": [
        {
          "internalType": "address",
          "name": "newOwner",
          "type": "address"
        }
      ],
      "name": "transferOwnership",
      "outputs": [],
      "stateMutability": "nonpayable",
      "type": "function"
    },
    {
      "inputs": [
        {
          "internalType": "uint16",
          "name": "",
          "type": "uint16"
        }
      ],
      "name": "trustedRemoteLookup",
      "outputs": [
        {
          "internalType": "bytes",
          "name": "",
          "type": "bytes"
        }
      ],
      "stateMutability": "view",
      "type": "function"
    }
  ],
  "bytecode": {
    "object": "0x60a060405234620003b25762002e0d803803806200001d81620003b7565b928339810190606081830312620003b25780516001600160401b039190828111620003b2578362000050918301620003f3565b9060209384820151848111620003b25760409162000070918401620003f3565b9101516001600160a01b03919082811690819003620003b25760008054336001600160a01b03198216811783559194167f8be0079c531659141344cd1fd0a4f28419497f9722a3daafe3b4186f6b6457e08580a3608052825191848311620002b957600854926001948585811c95168015620003a7575b8886101462000393578190601f958681116200033f575b508890868311600114620002d9578492620002cd575b5050600019600383901b1c191690851b176008555b8151948511620002b9576009548481811c91168015620002ae575b878210146200029a5783811162000251575b5085928511600114620001e8579394508492919083620001dc575b50501b916000199060031b1c1916176009555b6040516129a790816200046682396080518181816103c5015281816106c60152818161092501528181610b27015281816115010152818161160f01528181611b8b0152818161217101528181612282015261247e0152f35b01519250388062000171565b6009815285812093958591601f198316915b888383106200023657505050106200021c575b505050811b0160095562000184565b015160001960f88460031b161c191690553880806200020d565b858701518855909601959485019487935090810190620001fa565b600982528682208480880160051c82019289891062000290575b0160051c019085905b8281106200028457505062000156565b83815501859062000274565b925081926200026b565b634e487b7160e01b82526022600452602482fd5b90607f169062000144565b634e487b7160e01b81526041600452602490fd5b01519050388062000114565b600885528985208894509190601f198416865b8c8282106200032857505084116200030e575b505050811b0160085562000129565b015160001960f88460031b161c19169055388080620002ff565b8385015186558b97909501949384019301620002ec565b909150600884528884208680850160051c8201928b861062000389575b918991869594930160051c01915b8281106200037a575050620000fe565b8681558594508991016200036a565b925081926200035c565b634e487b7160e01b83526022600452602483fd5b94607f1694620000e7565b600080fd5b6040519190601f01601f191682016001600160401b03811183821017620003dd57604052565b634e487b7160e01b600052604160045260246000fd5b919080601f84011215620003b25782516001600160401b038111620003dd5760209062000429601f8201601f19168301620003b7565b92818452828287010111620003b25760005b8181106200045157508260009394955001015290565b85810183015184820184015282016200043b56fe60806040526004361015610013575b600080fd5b60003560e01c80621d3567146102f657806301ffc9a7146102ed57806306fdde03146102e457806307e0db17146102db578063095ea7b3146102d25780630e506192146102c957806310ddb137146102c057806318160ddd146102b757806323b872dd146102ae578063313ce567146102a5578063395093511461029c5780633d8b38f61461029357806342d65a8d1461028a57806366ad5c8a146102815780636f7707901461027857806370a082311461026f578063715018a6146102665780637533d7881461025d5780638cfd8f5c146102545780638da5cb5b1461024b5780638ee74912146102425780639358928b14610239578063950c8a741461023057806395d89b41146102275780639f38369a1461021e578063a457c2d714610215578063a6c3d1651461020c578063a9059cbb14610203578063b353aaa7146101fa578063baf3292d146101f1578063cbed8b9c146101e8578063d1deba1f146101df578063dd62ed3e146101d6578063df2a5b3b146101cd578063eb8d72b7146101c4578063f2fde38b146101bb5763f5ecbdbc146101b357600080fd5b61000e611b25565b5061000e611a8a565b5061000e611925565b5061000e61182d565b5061000e6117d2565b5061000e6116ab565b5061000e6115ae565b5061000e611530565b5061000e6114ea565b5061000e6114bf565b5061000e611321565b5061000e611262565b5061000e6111c2565b5061000e61111a565b5061000e6110f0565b5061000e6110c1565b5061000e611029565b5061000e610fd9565b5061000e610f85565b5061000e610f31565b5061000e610de4565b5061000e610da6565b5061000e610d0e565b5061000e610b87565b5061000e610afa565b5061000e610a9d565b5061000e6109f9565b5061000e6109dc565b5061000e61099b565b5061000e61097c565b5061000e6108f1565b5061000e610856565b5061000e61074c565b5061000e610692565b5061000e6105ac565b5061000e6104c4565b5061000e61035f565b6004359061ffff8216820361000e57565b6024359061ffff8216820361000e57565b9181601f8401121561000e578235916001600160401b03831161000e576020838186019501011161000e57565b6001600160401b0381160361000e57565b503461000e57608036600319011261000e576103796102ff565b6001600160401b039060243582811161000e5761039a903690600401610321565b9290604435916103a98361034e565b60643590811161000e576103c1903690600401610321565b91907f00000000000000000000000000000000000000000000000000000000000000006001600160a01b0316330361047f5761044261044a926104509761043b61042161041c8a61ffff166000526001602052604060002090565b610f14565b8051908184149182610475575b5081610452575b50611c00565b3691610804565b923691610804565b92611f2d565b005b905061045f368486610804565b6020815191012090602081519101201438610435565b151591503861042e565b60405162461bcd60e51b815260206004820152601e60248201527f4c7a4170703a20696e76616c696420656e64706f696e742063616c6c657200006044820152606490fd5b503461000e57602036600319011261000e5760043563ffffffff60e01b811680910361000e578060209115908115610534575b8115610509575b506040519015158152f35b63f27ff48960e01b811491508115610523575b50386104fe565b6301ffc9a760e01b1490503861051c565b6336372b0760e01b811491506104f7565b600091031261000e57565b60005b8381106105635750506000910152565b8181015183820152602001610553565b9060209161058c81518092818552858086019101610550565b601f01601f1916010190565b9060206105a9928181520190610573565b90565b503461000e5760008060031936011261068f5760405190806008546105d081610e44565b80855291600191808316908115610665575060011461060a575b610606856105fa818703826107b9565b60405191829182610598565b0390f35b9250600883527ff3f7a9fe364faab93b216da50a3214154f22a0a2b415b23a84c8169e8b636ee35b82841061064d5750505081016020016105fa826106066105ea565b80546020858701810191909152909301928101610632565b869550610606969350602092506105fa94915060ff191682840152151560051b82010192936105ea565b80fd5b503461000e576000602036600319011261068f576106ae6102ff565b8160018060a01b036106c4818354163314611ccf565b7f00000000000000000000000000000000000000000000000000000000000000001691823b1561073757602461ffff918360405195869485936307e0db1760e01b85521660048401525af1801561072a575b61071e575080f35b61072790610799565b80f35b610732611cc2565b610716565b5080fd5b6001600160a01b0381160361000e57565b503461000e57604036600319011261000e5761077760043561076d8161073b565b60243590336127ae565b602060405160018152f35b50634e487b7160e01b600052604160045260246000fd5b6001600160401b0381116107ac57604052565b6107b4610782565b604052565b90601f801991011681019081106001600160401b038211176107ac57604052565b6020906001600160401b0381116107f7575b601f01601f19160190565b6107ff610782565b6107ec565b929192610810826107da565b9161081e60405193846107b9565b82948184528183011161000e578281602093846000960137010152565b9080601f8301121561000e578160206105a993359101610804565b5061010036600319011261000e576004356108708161073b565b610878610310565b6001600160401b039160443583811161000e5761089990369060040161083b565b906084356108a68161073b565b60a435916108b38361073b565b60c43586811161000e576108cb90369060040161083b565b9360e43596871161000e576108e761045097369060040161083b565b95606435926121e9565b503461000e576000602036600319011261068f5761090d6102ff565b8160018060a01b03610923818354163314611ccf565b7f00000000000000000000000000000000000000000000000000000000000000001691823b1561073757602461ffff918360405195869485936310ddb13760e01b85521660048401525af1801561072a5761071e575080f35b503461000e57600036600319011261000e576020600754604051908152f35b503461000e57606036600319011261000e576107776004356109bc8161073b565b6024356109c88161073b565b604435916109d78333836128d9565b61268d565b503461000e57600036600319011261000e57602060405160128152f35b503461000e57604036600319011261000e57610777600435610a1a8161073b565b3360009081526006602090815260408083206001600160a01b0385168452909152902054906024358201809211610a52575b336127ae565b610a5a611daa565b610a4c565b90604060031983011261000e5760043561ffff8116810361000e5791602435906001600160401b03821161000e57610a9991600401610321565b9091565b503461000e57602061ffff610aeb610ab436610a5f565b9390911660005260018452610ad6610add604060002060405192838092610e7e565b03826107b9565b848151910120923691610804565b82815191012014604051908152f35b503461000e57610b0936610a5f565b9190600092839160018060a01b03610b25818554163314611ccf565b7f00000000000000000000000000000000000000000000000000000000000000001690813b15610b835783610b7195604051968795869485936342d65a8d60e01b855260048501611d3b565b03925af1801561072a5761071e575080f35b8380fd5b503461000e57608036600319011261000e57610ba16102ff565b6001600160401b0360243581811161000e57610bc190369060040161083b565b60443591610bce8361034e565b60643590811161000e57610be690369060040161083b565b90303303610cca57610c038260208060149551830101910161232c565b919390930151610c138482612588565b6001600160a01b031694853b1561000e57610cac610c8784866000898b7f64e10c37f404d128982dce114f5d233c14c5c7f6d8db93099e3d99dacb9e27ba998389610c7861ffff9c604051988997889687956331d97a6560e21b875260048701612374565b03925af1610cb1575b506123b8565b956040519384931695839092916001600160401b036020916040840195845216910152565b0390a4005b80610cbe610cc492610799565b80610545565b38610c81565b606460405162461bcd60e51b815260206004820152602060248201527f4c7a52656365697665723a2063616c6c6572206d757374206265204c7a4170706044820152fd5b503461000e5760c036600319011261000e57610d286102ff565b6001600160401b039060243582811161000e57610d4990369060040161083b565b90606435801515810361000e5760843584811161000e57610d6e90369060040161083b565b9160a43594851161000e57610d8a610d9495369060040161083b565b93604435916120f2565b60408051928352602083019190915290f35b503461000e57602036600319011261000e57600435610dc48161073b565b60018060a01b031660005260056020526020604060002054604051908152f35b503461000e5760008060031936011261068f57805481906001600160a01b03811690610e11338314611ccf565b6001600160a01b03191682557f8be0079c531659141344cd1fd0a4f28419497f9722a3daafe3b4186f6b6457e08280a380f35b90600182811c92168015610e74575b6020831014610e5e57565b634e487b7160e01b600052602260045260246000fd5b91607f1691610e53565b9060009291805491610e8f83610e44565b918282526001938481169081600014610ef15750600114610eb1575b50505050565b90919394506000526020928360002092846000945b838610610edd575050505001019038808080610eab565b805485870183015294019385908201610ec6565b9294505050602093945060ff191683830152151560051b01019038808080610eab565b90610f2f610f289260405193848092610e7e565b03836107b9565b565b503461000e57602036600319011261000e5761ffff610f4e6102ff565b166000526001602052610606610ad6610f71604060002060405192838092610e7e565b604051918291602083526020830190610573565b503461000e57604036600319011261000e576020610fd0610fa46102ff565b61ffff610faf610310565b91166000526002835260406000209061ffff16600052602052604060002090565b54604051908152f35b503461000e57600036600319011261000e576000546040516001600160a01b039091168152602090f35b60209061101d928260405194838680955193849201610550565b82019081520301902090565b503461000e57606036600319011261000e576110436102ff565b6024356001600160401b03811161000e576106069161ffff61106c6110b093369060040161083b565b9116600052600460205260406000209060206110916040519283815193849201610550565b8101918252602081604435930301902090600052602052604060002090565b546040519081529081906020820190565b503461000e57600036600319011261000e57602060075430600052600582526040600020549003604051908152f35b503461000e57600036600319011261000e576003546040516001600160a01b039091168152602090f35b503461000e5760008060031936011261068f57604051908060095461113e81610e44565b80855291600191808316908115610665575060011461116757610606856105fa818703826107b9565b9250600983527f6e1540171b6c0c960b71a7020d9f60077f6af931a8bbf590da0223dacf75c7af5b8284106111aa5750505081016020016105fa826106066105ea565b8054602085870181019190915290930192810161118f565b503461000e57602036600319011261000e5761ffff6111df6102ff565b166000526001602052610ad66111ff604060002060405192838092610e7e565b80511561121d576105fa816112176106069351611dc1565b90611e70565b60405162461bcd60e51b815260206004820152601d60248201527f4c7a4170703a206e6f20747275737465642070617468207265636f72640000006044820152606490fd5b503461000e57604036600319011261000e576004356112808161073b565b602435903360005260066020526112ad8160406000209060018060a01b0316600052602052604060002090565b54918083106112ce576112c2920390336127ae565b60405160018152602090f35b60405162461bcd60e51b815260206004820152602560248201527f45524332303a2064656372656173656420616c6c6f77616e63652062656c6f77604482015264207a65726f60d81b6064820152608490fd5b503461000e5761133036610a5f565b919060009161134960018060a01b038454163314611ccf565b6040519360208184828801376113746034878481013060601b858201520360148101895201876107b9565b61ffff8316855260019081815260408620918751916001600160401b0383116114b2575b6113ac836113a68654610e44565b86611d56565b80601f841160011461141c57509180809261140b9695948a9b7f8c0400cfe2d1199b1a725c78960bcc2a344d869b80590d0f2bd005db15a572ce9b94611411575b50501b916000199060031b1c19161790555b60405193849384611d3b565b0390a180f35b0151925038806113ed565b91939498601f19841661143487600052602060002090565b938a905b82821061149b575050917f8c0400cfe2d1199b1a725c78960bcc2a344d869b80590d0f2bd005db15a572ce999a9593918561140b98969410611482575b505050811b0190556113ff565b015160001960f88460031b161c19169055388080611475565b808886978294978701518155019601940190611438565b6114ba610782565b611398565b503461000e57604036600319011261000e576107776004356114e08161073b565b602435903361268d565b503461000e57600036600319011261000e576040517f00000000000000000000000000000000000000000000000000000000000000006001600160a01b03168152602090f35b503461000e57602036600319011261000e577f5db758e995a17ec1ad84bdef7e8c3293a0bd6179bcce400dff5d4c3d87db726b60206004356115718161073b565b6000546001600160a01b03919061158b9083163314611ccf565b16806bffffffffffffffffffffffff60a01b6003541617600355604051908152a1005b503461000e57608036600319011261000e576115c86102ff565b6115d0610310565b6064356001600160401b03811161000e576115ef903690600401610321565b60018060a09493941b03916000948361160d87958654163314611ccf565b7f00000000000000000000000000000000000000000000000000000000000000001691823b156116a757849061167a604051978896879586946332fb62e760e21b865261ffff80921660048701521660248501526044356044850152608060648501526084840191611d1a565b03925af1801561169a575b61168d575080f35b80610cbe61072792610799565b6116a2611cc2565b611685565b8480fd5b50608036600319011261000e576116c06102ff565b6001600160401b0360243581811161000e576116e090369060040161083b565b604435916116ed8361034e565b60643590811161000e57611705903690600401610321565b91909361176c6117488561173061172a8561ffff166000526004602052604060002090565b86611003565b906001600160401b0316600052602052604060002090565b54611754811515611fdc565b61175f368689610804565b6020815191012014612028565b600094859384611797876117306117918761ffff166000526004602052604060002090565b88611003565b55303b156116a7576117be916040519687958695633356ae4560e11b875260048701612074565b038183305af1801561169a5761168d575080f35b503461000e57604036600319011261000e576020610fd06004356117f58161073b565b602435906118028261073b565b60018060a01b03166000526006835260406000209060018060a01b0316600052602052604060002090565b503461000e57606036600319011261000e576118476102ff565b61184f610310565b6044359161186860018060a01b03600054163314611ccf565b82156118e8576118e37f9d5c7c0b934da8fefa9c7760c98383778a12dfbfc0c3b3106518f43fb9508ac09361ffff83166000526002602052806118bd8560406000209061ffff16600052602052604060002090565b556040519384938460409194939294606082019561ffff80921683521660208201520152565b0390a1005b60405162461bcd60e51b81526020600482015260156024820152744c7a4170703a20696e76616c6964206d696e47617360581b6044820152606490fd5b503461000e5761193436610a5f565b919060009161194d60018060a01b038454163314611ccf565b61ffff81168352600160209080825260408520916001600160401b038711611a7d575b6119848761197e8554610e44565b85611d56565b8590601f88116001146119eb575091868087989361140b957ffa41487ad5d6728f0b19276fa1eddc16558578f5109fc39d2dc33c3230470dab99936119e0575b501b906000198460031b1c191617905560405193849384611d3b565b8801359250386119c4565b90601f198816611a0085600052602060002090565b9288905b828210611a66575050918893917ffa41487ad5d6728f0b19276fa1eddc16558578f5109fc39d2dc33c3230470dab989961140b969410611a4c575b505082811b0190556113ff565b870135600019600386901b60f8161c191690553880611a3f565b808685968294968c01358155019501930190611a04565b611a85610782565b611970565b503461000e57602036600319011261000e57600435611aa88161073b565b6000546001600160a01b0390611ac19082163314611ccf565b811615611ad15761045090612593565b60405162461bcd60e51b815260206004820152602660248201527f4f776e61626c653a206e6577206f776e657220697320746865207a65726f206160448201526564647265737360d01b6064820152608490fd5b503461000e57608036600319011261000e57610606611b426102ff565b611b4a610310565b90611b5660443561073b565b604051633d7b2f6f60e21b815261ffff91821660048201529116602482015230604482015260648035908201526000816084817f00000000000000000000000000000000000000000000000000000000000000006001600160a01b03165afa908115611bf3575b600091611bd2575b5060405191829182610598565b611bed913d8091833e611be581836107b9565b810190611c9d565b38611bc5565b611bfb611cc2565b611bbd565b15611c0757565b60405162461bcd60e51b815260206004820152602660248201527f4c7a4170703a20696e76616c696420736f757263652073656e64696e6720636f6044820152651b9d1c9858dd60d21b6064820152608490fd5b81601f8201121561000e578051611c71816107da565b92611c7f60405194856107b9565b8184526020828401011161000e576105a99160208085019101610550565b9060208282031261000e5781516001600160401b03811161000e576105a99201611c5b565b506040513d6000823e3d90fd5b15611cd657565b606460405162461bcd60e51b815260206004820152602060248201527f4f776e61626c653a2063616c6c6572206973206e6f7420746865206f776e65726044820152fd5b908060209392818452848401376000828201840152601f01601f1916010190565b60409061ffff6105a995931681528160208201520191611d1a565b90601f8111611d6457505050565b600091825260208220906020601f850160051c83019410611da0575b601f0160051c01915b828110611d9557505050565b818155600101611d89565b9092508290611d80565b50634e487b7160e01b600052601160045260246000fd5b601319810191908211611dd057565b610f2f611daa565b90601f8201809211611dd057565b91908201809211611dd057565b15611dfa57565b60405162461bcd60e51b815260206004820152600e60248201526d736c6963655f6f766572666c6f7760901b6044820152606490fd5b15611e3757565b60405162461bcd60e51b8152602060048201526011602482015270736c6963655f6f75744f66426f756e647360781b6044820152606490fd5b611e8482611e7d81611dd8565b1015611df3565b611e918282511015611e30565b81611ea9575050604051600081526020810160405290565b60405191601f811691821560051b808486010193838501920101905b808410611edd5750508252601f01601f191660405290565b9092835181526020809101930190611ec5565b90611f196105a9959361ffff6001600160401b0393168452608060208501526080840190610573565b931660408201526060818403910152610573565b9091303b1561000e57604051633356ae4560e11b815260008180611f578886898960048601611ef0565b038183305af19081611fcd575b50610eab5783611fc8917fe6f254030bcb01ffd20558175c13fcaed6d1520be7becee4c961b65f79243b0d95516020830120611fbb82611730611fb58861ffff166000526004602052604060002090565b89611003565b5560405194859485611ef0565b0390a1565b611fd690610799565b38611f64565b15611fe357565b60405162461bcd60e51b815260206004820152601d60248201527f4c7a52656365697665723a206e6f2073746f726564206d6573736167650000006044820152606490fd5b1561202f57565b60405162461bcd60e51b815260206004820152601b60248201527f4c7a52656365697665723a20696e76616c6964207061796c6f616400000000006044820152606490fd5b9061209f6105a99694959361ffff6001600160401b0393168452608060208501526080840190610573565b941660408201526060818503910152611d1a565b6120c96105a99492606083526060830190610573565b9260208201526040818403910152610573565b919082604091031261000e576020825192015190565b9195949260409461212361216d9361211561ffff9789519b8c93602085016120b3565b03601f1981018a52896107b9565b6121548651988996879663040a7bb160e41b885216600487015230602487015260a0604487015260a4860190610573565b9115156064850152838203600319016084850152610573565b03817f00000000000000000000000000000000000000000000000000000000000000006001600160a01b03165afa9182156121dc575b60009081936121b157509190565b9050610a9991925060403d81116121d5575b6121cd81836107b9565b8101906120dc565b503d6121c3565b6121e4611cc2565b6121a3565b959261ffff9381967f024797cc77ce15dc717112d54fb1df125fdfd8c81344fb046c5e074427ce1543966122478661223961224f97989d61222a888f61255b565b604051978893602085016120b3565b03601f1981018652856107b9565b349386612445565b604051630f428ae960e31b815261ffff821660048201523060248201526001600160a01b03966122e691906020826044817f00000000000000000000000000000000000000000000000000000000000000008d165afa91821561231f575b6000926122eb575b506122bf906123b8565b9760405194859416971695839092916001600160401b036020916040840195845216910152565b0390a4565b6122bf9192506123119060203d8111612318575b61230981836107b9565b8101906123d8565b91906122b5565b503d6122ff565b612327611cc2565b6122ad565b909160608284031261000e578151916001600160401b039283811161000e5784612357918301611c5b565b93602082015193604083015190811161000e576105a99201611c5b565b9161239f6001600160401b039161ffff6105a99896979416855260a0602086015260a0850190610573565b9416604083015260608201526080818403910152610573565b6123d090602060405192828480945193849201610550565b810103902090565b9081602091031261000e57516105a98161034e565b926124126105a997959361ffff6124209416865260c0602087015260c0860190610573565b908482036040860152610573565b6001600160a01b0391821660608401529316608082015280830360a090910152610573565b9461246e9193929561ffff81166000526001602052612475604060002060405194858092610e7e565b03846107b9565b8251156124fd577f00000000000000000000000000000000000000000000000000000000000000006001600160a01b031693843b1561000e576000966124d191604051998a988997889662c5803160e81b8852600488016123ed565b03925af180156124f0575b6124e35750565b80610cbe610f2f92610799565b6124f8611cc2565b6124dc565b60405162461bcd60e51b815260206004820152603060248201527f4c7a4170703a2064657374696e6174696f6e20636861696e206973206e6f742060448201526f61207472757374656420736f7572636560801b6064820152608490fd5b610f2f9190336001600160a01b03821603612578575b309061268d565b6125838233836128d9565b612571565b90610f2f913061268d565b600080546001600160a01b039283166001600160a01b03198216811783559216907f8be0079c531659141344cd1fd0a4f28419497f9722a3daafe3b4186f6b6457e09080a3565b156125e157565b60405162461bcd60e51b815260206004820152602360248201527f45524332303a207472616e7366657220746f20746865207a65726f206164647260448201526265737360e81b6064820152608490fd5b1561263957565b60405162461bcd60e51b815260206004820152602660248201527f45524332303a207472616e7366657220616d6f756e7420657863656564732062604482015265616c616e636560d01b6064820152608490fd5b916001600160a01b03808416929091831561275b57612739827fddf252ad1be2c89b69c2b068fc378daa952ba7f163c4a11628f55a4df523b3ef946127569416966126d98815156125da565b6001600160a01b038116600090815260056020526040902061271e9085905461270482821015612632565b039160018060a01b03166000526005602052604060002090565b556001600160a01b0316600090815260056020526040902090565b612744828254611de6565b90556040519081529081906020820190565b0390a3565b60405162461bcd60e51b815260206004820152602560248201527f45524332303a207472616e736665722066726f6d20746865207a65726f206164604482015264647265737360d81b6064820152608490fd5b6001600160a01b03808216929190831561288857821693841561283857806128277f8c5be1e5ebec7d5bd14f71427d1e84f3dd0314c0f7b2291e5b200ac8c7c3b925946128106127569560018060a01b03166000526006602052604060002090565b9060018060a01b0316600052602052604060002090565b556040519081529081906020820190565b60405162461bcd60e51b815260206004820152602260248201527f45524332303a20617070726f766520746f20746865207a65726f206164647265604482015261737360f01b6064820152608490fd5b60405162461bcd60e51b8152602060048201526024808201527f45524332303a20617070726f76652066726f6d20746865207a65726f206164646044820152637265737360e01b6064820152608490fd5b6001600160a01b0380821660009081526006602090815260408083209386168352929052209091905492600184016129115750505050565b80841061292c576129239303916127ae565b38808080610eab565b60405162461bcd60e51b815260206004820152601d60248201527f45524332303a20696e73756666696369656e7420616c6c6f77616e63650000006044820152606490fdfea2646970667358221220d5b07e05ff7d77b6f0fab097c3e1b44dec28f83e9b2c6e595055c8139c4685d864736f6c63430008110033",
    "linkReferences": {}
  },
  "methodIdentifiers": {
    "allowance(address,address)": "dd62ed3e",
    "approve(address,uint256)": "095ea7b3",
    "balanceOf(address)": "70a08231",
    "circulatingSupply()": "9358928b",
    "decimals()": "313ce567",
    "decreaseAllowance(address,uint256)": "a457c2d7",
    "estimateSendFee(uint16,bytes,uint256,bool,bytes,bytes)": "6f770790",
    "failedMessages(uint16,bytes,uint256)": "8ee74912",
    "forceResumeReceive(uint16,bytes)": "42d65a8d",
    "getConfig(uint16,uint16,address,uint256)": "f5ecbdbc",
    "getTrustedRemoteAddress(uint16)": "9f38369a",
    "increaseAllowance(address,uint256)": "39509351",
    "isTrustedRemote(uint16,bytes)": "3d8b38f6",
    "lzEndpoint()": "b353aaa7",
    "lzReceive(uint16,bytes,uint64,bytes)": "001d3567",
    "minDstGasLookup(uint16,uint16)": "8cfd8f5c",
    "name()": "06fdde03",
    "nonblockingLzReceive(uint16,bytes,uint64,bytes)": "66ad5c8a",
    "owner()": "8da5cb5b",
    "precrime()": "950c8a74",
    "renounceOwnership()": "715018a6",
    "retryMessage(uint16,bytes,uint64,bytes)": "d1deba1f",
    "sendFrom(address,uint16,bytes,uint256,address,address,bytes,bytes)": "0e506192",
    "setConfig(uint16,uint16,uint256,bytes)": "cbed8b9c",
    "setMinDstGas(uint16,uint16,uint256)": "df2a5b3b",
    "setPrecrime(address)": "baf3292d",
    "setReceiveVersion(uint16)": "10ddb137",
    "setSendVersion(uint16)": "07e0db17",
    "setTrustedRemote(uint16,bytes)": "eb8d72b7",
    "setTrustedRemoteAddress(uint16,bytes)": "a6c3d165",
    "supportsInterface(bytes4)": "01ffc9a7",
    "symbol()": "95d89b41",
    "totalSupply()": "18160ddd",
    "transfer(address,uint256)": "a9059cbb",
    "transferFrom(address,address,uint256)": "23b872dd",
    "transferOwnership(address)": "f2fde38b",
    "trustedRemoteLookup(uint16)": "7533d788"
  },
  "id": 158
}