{
  "abi": [
    {
      "inputs": [
        {
          "internalType": "string",
          "name": "_name",
          "type": "string"
        },
        {
          "internalType": "string",
          "name": "_symbol",
          "type": "string"
        },
        {
          "internalType": "address",
          "name": "_bridgeAddress",
          "type": "address"
        }
      ],
      "stateMutability": "nonpayable",
      "type": "constructor"
    },
    {
      "anonymous": false,
      "inputs": [
        {
          "indexed": true,
          "internalType": "address",
          "name": "owner",
          "type": "address"
        },
        {
          "indexed": true,
          "internalType": "address",
          "name": "approved",
          "type": "address"
        },
        {
          "indexed": true,
          "internalType": "uint256",
          "name": "tokenId",
          "type": "uint256"
        }
      ],
      "name": "Approval",
      "type": "event"
    },
    {
      "anonymous": false,
      "inputs": [
        {
          "indexed": true,
          "internalType": "address",
          "name": "owner",
          "type": "address"
        },
        {
          "indexed": true,
          "internalType": "address",
          "name": "operator",
          "type": "address"
        },
        {
          "indexed": false,
          "internalType": "bool",
          "name": "approved",
          "type": "bool"
        }
      ],
      "name": "ApprovalForAll",
      "type": "event"
    },
    {
      "anonymous": false,
      "inputs": [
        {
          "indexed": true,
          "internalType": "address",
          "name": "previousOwner",
          "type": "address"
        },
        {
          "indexed": true,
          "internalType": "address",
          "name": "newOwner",
          "type": "address"
        }
      ],
      "name": "OwnershipTransferred",
      "type": "event"
    },
    {
      "anonymous": false,
      "inputs": [
        {
          "indexed": true,
          "internalType": "address",
          "name": "from",
          "type": "address"
        },
        {
          "indexed": true,
          "internalType": "address",
          "name": "to",
          "type": "address"
        },
        {
          "indexed": true,
          "internalType": "uint256",
          "name": "tokenId",
          "type": "uint256"
        }
      ],
      "name": "Transfer",
      "type": "event"
    },
    {
      "inputs": [
        {
          "internalType": "address",
          "name": "to",
          "type": "address"
        },
        {
          "internalType": "uint256",
          "name": "tokenId",
          "type": "uint256"
        }
      ],
      "name": "approve",
      "outputs": [],
      "stateMutability": "nonpayable",
      "type": "function"
    },
    {
      "inputs": [
        {
          "internalType": "address",
          "name": "owner",
          "type": "address"
        }
      ],
      "name": "balanceOf",
      "outputs": [
        {
          "internalType": "uint256",
          "name": "",
          "type": "uint256"
        }
      ],
      "stateMutability": "view",
      "type": "function"
    },
    {
      "inputs": [
        {
          "internalType": "uint256",
          "name": "tokenId",
          "type": "uint256"
        }
      ],
      "name": "burn",
      "outputs": [],
      "stateMutability": "nonpayable",
      "type": "function"
    },
    {
      "inputs": [
        {
          "internalType": "uint256",
          "name": "tokenId",
          "type": "uint256"
        }
      ],
      "name": "getApproved",
      "outputs": [
        {
          "internalType": "address",
          "name": "",
          "type": "address"
        }
      ],
      "stateMutability": "view",
      "type": "function"
    },
    {
      "inputs": [
        {
          "internalType": "address",
          "name": "owner",
          "type": "address"
        },
        {
          "internalType": "address",
          "name": "operator",
          "type": "address"
        }
      ],
      "name": "isApprovedForAll",
      "outputs": [
        {
          "internalType": "bool",
          "name": "",
          "type": "bool"
        }
      ],
      "stateMutability": "view",
      "type": "function"
    },
    {
      "inputs": [],
      "name": "name",
      "outputs": [
        {
          "internalType": "string",
          "name": "",
          "type": "string"
        }
      ],
      "stateMutability": "view",
      "type": "function"
    },
    {
      "inputs": [],
      "name": "owner",
      "outputs": [
        {
          "internalType": "address",
          "name": "",
          "type": "address"
        }
      ],
      "stateMutability": "view",
      "type": "function"
    },
    {
      "inputs": [
        {
          "internalType": "uint256",
          "name": "tokenId",
          "type": "uint256"
        }
      ],
      "name": "ownerOf",
      "outputs": [
        {
          "internalType": "address",
          "name": "",
          "type": "address"
        }
      ],
      "stateMutability": "view",
      "type": "function"
    },
    {
      "inputs": [],
      "name": "renounceOwnership",
      "outputs": [],
      "stateMutability": "nonpayable",
      "type": "function"
    },
    {
      "inputs": [
        {
          "internalType": "address",
          "name": "to",
          "type": "address"
        },
        {
          "internalType": "uint256",
          "name": "tokenId",
          "type": "uint256"
        },
        {
          "internalType": "string",
          "name": "uri",
          "type": "string"
        }
      ],
      "name": "safeMint",
      "outputs": [],
      "stateMutability": "nonpayable",
      "type": "function"
    },
    {
      "inputs": [
        {
          "internalType": "address",
          "name": "from",
          "type": "address"
        },
        {
          "internalType": "address",
          "name": "to",
          "type": "address"
        },
        {
          "internalType": "uint256",
          "name": "tokenId",
          "type": "uint256"
        }
      ],
      "name": "safeTransferFrom",
      "outputs": [],
      "stateMutability": "nonpayable",
      "type": "function"
    },
    {
      "inputs": [
        {
          "internalType": "address",
          "name": "from",
          "type": "address"
        },
        {
          "internalType": "address",
          "name": "to",
          "type": "address"
        },
        {
          "internalType": "uint256",
          "name": "tokenId",
          "type": "uint256"
        },
        {
          "internalType": "bytes",
          "name": "data",
          "type": "bytes"
        }
      ],
      "name": "safeTransferFrom",
      "outputs": [],
      "stateMutability": "nonpayable",
      "type": "function"
    },
    {
      "inputs": [
        {
          "internalType": "address",
          "name": "operator",
          "type": "address"
        },
        {
          "internalType": "bool",
          "name": "approved",
          "type": "bool"
        }
      ],
      "name": "setApprovalForAll",
      "outputs": [],
      "stateMutability": "nonpayable",
      "type": "function"
    },
    {
      "inputs": [
        {
          "internalType": "bytes4",
          "name": "interfaceId",
          "type": "bytes4"
        }
      ],
      "name": "supportsInterface",
      "outputs": [
        {
          "internalType": "bool",
          "name": "",
          "type": "bool"
        }
      ],
      "stateMutability": "view",
      "type": "function"
    },
    {
      "inputs": [],
      "name": "symbol",
      "outputs": [
        {
          "internalType": "string",
          "name": "",
          "type": "string"
        }
      ],
      "stateMutability": "view",
      "type": "function"
    },
    {
      "inputs": [
        {
          "internalType": "uint256",
          "name": "tokenId",
          "type": "uint256"
        }
      ],
      "name": "tokenURI",
      "outputs": [
        {
          "internalType": "string",
          "name": "",
          "type": "string"
        }
      ],
      "stateMutability": "view",
      "type": "function"
    },
    {
      "inputs": [
        {
          "internalType": "address",
          "name": "from",
          "type": "address"
        },
        {
          "internalType": "address",
          "name": "to",
          "type": "address"
        },
        {
          "internalType": "uint256",
          "name": "tokenId",
          "type": "uint256"
        }
      ],
      "name": "transferFrom",
      "outputs": [],
      "stateMutability": "nonpayable",
      "type": "function"
    },
    {
      "inputs": [
        {
          "internalType": "address",
          "name": "newOwner",
          "type": "address"
        }
      ],
      "name": "transferOwnership",
      "outputs": [],
      "stateMutability": "nonpayable",
      "type": "function"
    }
  ],
  "bytecode": {
    "object": "0x60806040523480156200001157600080fd5b5060405162001da838038062001da883398101604081905262000034916200020f565b828260006200004483826200032b565b5060016200005382826200032b565b505050620000706200006a620000f460201b60201c565b620000f8565b6001600160a01b038116620000cb5760405162461bcd60e51b815260206004820152601560248201527f43616e2774206265207a65726f20616464726573730000000000000000000000604482015260640160405180910390fd5b600880546001600160a01b0319166001600160a01b039290921691909117905550620003f79050565b3390565b600780546001600160a01b038381166001600160a01b0319831681179093556040519116919082907f8be0079c531659141344cd1fd0a4f28419497f9722a3daafe3b4186f6b6457e090600090a35050565b634e487b7160e01b600052604160045260246000fd5b600082601f8301126200017257600080fd5b81516001600160401b03808211156200018f576200018f6200014a565b604051601f8301601f19908116603f01168101908282118183101715620001ba57620001ba6200014a565b81604052838152602092508683858801011115620001d757600080fd5b600091505b83821015620001fb5785820183015181830184015290820190620001dc565b600093810190920192909252949350505050565b6000806000606084860312156200022557600080fd5b83516001600160401b03808211156200023d57600080fd5b6200024b8783880162000160565b945060208601519150808211156200026257600080fd5b50620002718682870162000160565b604086015190935090506001600160a01b03811681146200029157600080fd5b809150509250925092565b600181811c90821680620002b157607f821691505b602082108103620002d257634e487b7160e01b600052602260045260246000fd5b50919050565b601f8211156200032657600081815260208120601f850160051c81016020861015620003015750805b601f850160051c820191505b8181101562000322578281556001016200030d565b5050505b505050565b81516001600160401b038111156200034757620003476200014a565b6200035f816200035884546200029c565b84620002d8565b602080601f8311600181146200039757600084156200037e5750858301515b600019600386901b1c1916600185901b17855562000322565b600085815260208120601f198616915b82811015620003c857888601518255948401946001909101908401620003a7565b5085821015620003e75787850151600019600388901b60f8161c191681555b5050505050600190811b01905550565b6119a180620004076000396000f3fe608060405234801561001057600080fd5b50600436106101165760003560e01c8063715018a6116100a2578063b88d4fde11610071578063b88d4fde14610239578063c87b56dd1461024c578063cd279c7c1461025f578063e985e9c514610272578063f2fde38b146102ae57600080fd5b8063715018a6146102055780638da5cb5b1461020d57806395d89b411461021e578063a22cb4651461022657600080fd5b806323b872dd116100e957806323b872dd1461019857806342842e0e146101ab57806342966c68146101be5780636352211e146101d157806370a08231146101e457600080fd5b806301ffc9a71461011b57806306fdde0314610143578063081812fc14610158578063095ea7b314610183575b600080fd5b61012e61012936600461139e565b6102c1565b60405190151581526020015b60405180910390f35b61014b610313565b60405161013a919061140b565b61016b61016636600461141e565b6103a5565b6040516001600160a01b03909116815260200161013a565b610196610191366004611453565b6103cc565b005b6101966101a636600461147d565b6104e6565b6101966101b936600461147d565b610518565b6101966101cc36600461141e565b610533565b61016b6101df36600461141e565b6105bf565b6101f76101f23660046114b9565b61061f565b60405190815260200161013a565b6101966106a5565b6007546001600160a01b031661016b565b61014b6106b9565b6101966102343660046114d4565b6106c8565b61019661024736600461159c565b6106d7565b61014b61025a36600461141e565b61070f565b61019661026d366004611618565b61071a565b61012e610280366004611683565b6001600160a01b03918216600090815260056020908152604080832093909416825291909152205460ff1690565b6101966102bc3660046114b9565b610736565b60006001600160e01b031982166380ac58cd60e01b14806102f257506001600160e01b03198216635b5e139f60e01b145b8061030d57506301ffc9a760e01b6001600160e01b03198316145b92915050565b606060008054610322906116b6565b80601f016020809104026020016040519081016040528092919081815260200182805461034e906116b6565b801561039b5780601f106103705761010080835404028352916020019161039b565b820191906000526020600020905b81548152906001019060200180831161037e57829003601f168201915b5050505050905090565b60006103b0826107ac565b506000908152600460205260409020546001600160a01b031690565b60006103d7826105bf565b9050806001600160a01b0316836001600160a01b0316036104495760405162461bcd60e51b815260206004820152602160248201527f4552433732313a20617070726f76616c20746f2063757272656e74206f776e656044820152603960f91b60648201526084015b60405180910390fd5b336001600160a01b038216148061046557506104658133610280565b6104d75760405162461bcd60e51b815260206004820152603d60248201527f4552433732313a20617070726f76652063616c6c6572206973206e6f7420746f60448201527f6b656e206f776e6572206f7220617070726f76656420666f7220616c6c0000006064820152608401610440565b6104e1838361080b565b505050565b6104f1335b82610879565b61050d5760405162461bcd60e51b8152600401610440906116f0565b6104e18383836108f8565b6104e1838383604051806020016040528060008152506106d7565b61053c336104eb565b61056c5760405162461bcd60e51b81526020600482015260016024820152603160f81b6044820152606401610440565b6008546001600160a01b0316336001600160a01b0316146105b35760405162461bcd60e51b81526020600482015260016024820152601960f91b6044820152606401610440565b6105bc81610a5c565b50565b6000818152600260205260408120546001600160a01b03168061030d5760405162461bcd60e51b8152602060048201526018602482015277115490cdcc8c4e881a5b9d985b1a59081d1bdad95b88125160421b6044820152606401610440565b60006001600160a01b0382166106895760405162461bcd60e51b815260206004820152602960248201527f4552433732313a2061646472657373207a65726f206973206e6f7420612076616044820152683634b21037bbb732b960b91b6064820152608401610440565b506001600160a01b031660009081526003602052604090205490565b6106ad610a65565b6106b76000610abf565b565b606060018054610322906116b6565b6106d3338383610b11565b5050565b6106e13383610879565b6106fd5760405162461bcd60e51b8152600401610440906116f0565b61070984848484610bdf565b50505050565b606061030d82610c12565b610722610a65565b61072c8383610d1a565b6104e18282610d34565b61073e610a65565b6001600160a01b0381166107a35760405162461bcd60e51b815260206004820152602660248201527f4f776e61626c653a206e6577206f776e657220697320746865207a65726f206160448201526564647265737360d01b6064820152608401610440565b6105bc81610abf565b6000818152600260205260409020546001600160a01b03166105bc5760405162461bcd60e51b8152602060048201526018602482015277115490cdcc8c4e881a5b9d985b1a59081d1bdad95b88125160421b6044820152606401610440565b600081815260046020526040902080546001600160a01b0319166001600160a01b0384169081179091558190610840826105bf565b6001600160a01b03167f8c5be1e5ebec7d5bd14f71427d1e84f3dd0314c0f7b2291e5b200ac8c7c3b92560405160405180910390a45050565b600080610885836105bf565b9050806001600160a01b0316846001600160a01b031614806108cc57506001600160a01b0380821660009081526005602090815260408083209388168352929052205460ff165b806108f05750836001600160a01b03166108e5846103a5565b6001600160a01b0316145b949350505050565b826001600160a01b031661090b826105bf565b6001600160a01b0316146109315760405162461bcd60e51b81526004016104409061173d565b6001600160a01b0382166109935760405162461bcd60e51b8152602060048201526024808201527f4552433732313a207472616e7366657220746f20746865207a65726f206164646044820152637265737360e01b6064820152608401610440565b826001600160a01b03166109a6826105bf565b6001600160a01b0316146109cc5760405162461bcd60e51b81526004016104409061173d565b600081815260046020908152604080832080546001600160a01b03199081169091556001600160a01b0387811680865260038552838620805460001901905590871680865283862080546001019055868652600290945282852080549092168417909155905184937fddf252ad1be2c89b69c2b068fc378daa952ba7f163c4a11628f55a4df523b3ef91a4505050565b6105bc81610dc7565b6007546001600160a01b031633146106b75760405162461bcd60e51b815260206004820181905260248201527f4f776e61626c653a2063616c6c6572206973206e6f7420746865206f776e65726044820152606401610440565b600780546001600160a01b038381166001600160a01b0319831681179093556040519116919082907f8be0079c531659141344cd1fd0a4f28419497f9722a3daafe3b4186f6b6457e090600090a35050565b816001600160a01b0316836001600160a01b031603610b725760405162461bcd60e51b815260206004820152601960248201527f4552433732313a20617070726f766520746f2063616c6c6572000000000000006044820152606401610440565b6001600160a01b03838116600081815260056020908152604080832094871680845294825291829020805460ff191686151590811790915591519182527f17307eab39ab6107e8899845ad3d59bd9653f200f220920489ca2b5937696c31910160405180910390a3505050565b610bea8484846108f8565b610bf684848484610e07565b6107095760405162461bcd60e51b815260040161044090611782565b6060610c1d826107ac565b60008281526006602052604081208054610c36906116b6565b80601f0160208091040260200160405190810160405280929190818152602001828054610c62906116b6565b8015610caf5780601f10610c8457610100808354040283529160200191610caf565b820191906000526020600020905b815481529060010190602001808311610c9257829003601f168201915b505050505090506000610ccd60408051602081019091526000815290565b90508051600003610cdf575092915050565b815115610d11578082604051602001610cf99291906117d4565b60405160208183030381529060405292505050919050565b6108f084610f08565b6106d3828260405180602001604052806000815250610f7c565b6000828152600260205260409020546001600160a01b0316610daf5760405162461bcd60e51b815260206004820152602e60248201527f45524337323155524953746f726167653a2055524920736574206f66206e6f6e60448201526d32bc34b9ba32b73a103a37b5b2b760911b6064820152608401610440565b60008281526006602052604090206104e18282611851565b610dd081610faf565b60008181526006602052604090208054610de9906116b6565b1590506105bc5760008181526006602052604081206105bc9161133a565b60006001600160a01b0384163b15610efd57604051630a85bd0160e11b81526001600160a01b0385169063150b7a0290610e4b903390899088908890600401611911565b6020604051808303816000875af1925050508015610e86575060408051601f3d908101601f19168201909252610e839181019061194e565b60015b610ee3573d808015610eb4576040519150601f19603f3d011682016040523d82523d6000602084013e610eb9565b606091505b508051600003610edb5760405162461bcd60e51b815260040161044090611782565b805181602001fd5b6001600160e01b031916630a85bd0160e11b1490506108f0565b506001949350505050565b6060610f13826107ac565b6000610f2a60408051602081019091526000815290565b90506000815111610f4a5760405180602001604052806000815250610f75565b80610f5484611044565b604051602001610f659291906117d4565b6040516020818303038152906040525b9392505050565b610f8683836110d7565b610f936000848484610e07565b6104e15760405162461bcd60e51b815260040161044090611782565b6000610fba826105bf565b9050610fc5826105bf565b600083815260046020908152604080832080546001600160a01b03199081169091556001600160a01b0385168085526003845282852080546000190190558785526002909352818420805490911690555192935084927fddf252ad1be2c89b69c2b068fc378daa952ba7f163c4a11628f55a4df523b3ef908390a45050565b6060600061105183611262565b600101905060008167ffffffffffffffff81111561107157611071611510565b6040519080825280601f01601f19166020018201604052801561109b576020820181803683370190505b5090508181016020015b600019016f181899199a1a9b1b9c1cb0b131b232b360811b600a86061a8153600a85049450846110a557509392505050565b6001600160a01b03821661112d5760405162461bcd60e51b815260206004820181905260248201527f4552433732313a206d696e7420746f20746865207a65726f20616464726573736044820152606401610440565b6000818152600260205260409020546001600160a01b0316156111925760405162461bcd60e51b815260206004820152601c60248201527f4552433732313a20746f6b656e20616c7265616479206d696e746564000000006044820152606401610440565b6000818152600260205260409020546001600160a01b0316156111f75760405162461bcd60e51b815260206004820152601c60248201527f4552433732313a20746f6b656e20616c7265616479206d696e746564000000006044820152606401610440565b6001600160a01b038216600081815260036020908152604080832080546001019055848352600290915280822080546001600160a01b0319168417905551839291907fddf252ad1be2c89b69c2b068fc378daa952ba7f163c4a11628f55a4df523b3ef908290a45050565b60008072184f03e93ff9f4daa797ed6e38ed64bf6a1f0160401b83106112a15772184f03e93ff9f4daa797ed6e38ed64bf6a1f0160401b830492506040015b6d04ee2d6d415b85acef810000000083106112cd576d04ee2d6d415b85acef8100000000830492506020015b662386f26fc1000083106112eb57662386f26fc10000830492506010015b6305f5e1008310611303576305f5e100830492506008015b612710831061131757612710830492506004015b60648310611329576064830492506002015b600a831061030d5760010192915050565b508054611346906116b6565b6000825580601f10611356575050565b601f0160209004906000526020600020908101906105bc91905b808211156113845760008155600101611370565b5090565b6001600160e01b0319811681146105bc57600080fd5b6000602082840312156113b057600080fd5b8135610f7581611388565b60005b838110156113d65781810151838201526020016113be565b50506000910152565b600081518084526113f78160208601602086016113bb565b601f01601f19169290920160200192915050565b602081526000610f7560208301846113df565b60006020828403121561143057600080fd5b5035919050565b80356001600160a01b038116811461144e57600080fd5b919050565b6000806040838503121561146657600080fd5b61146f83611437565b946020939093013593505050565b60008060006060848603121561149257600080fd5b61149b84611437565b92506114a960208501611437565b9150604084013590509250925092565b6000602082840312156114cb57600080fd5b610f7582611437565b600080604083850312156114e757600080fd5b6114f083611437565b91506020830135801515811461150557600080fd5b809150509250929050565b634e487b7160e01b600052604160045260246000fd5b600067ffffffffffffffff8084111561154157611541611510565b604051601f8501601f19908116603f0116810190828211818310171561156957611569611510565b8160405280935085815286868601111561158257600080fd5b858560208301376000602087830101525050509392505050565b600080600080608085870312156115b257600080fd5b6115bb85611437565b93506115c960208601611437565b925060408501359150606085013567ffffffffffffffff8111156115ec57600080fd5b8501601f810187136115fd57600080fd5b61160c87823560208401611526565b91505092959194509250565b60008060006060848603121561162d57600080fd5b61163684611437565b925060208401359150604084013567ffffffffffffffff81111561165957600080fd5b8401601f8101861361166a57600080fd5b61167986823560208401611526565b9150509250925092565b6000806040838503121561169657600080fd5b61169f83611437565b91506116ad60208401611437565b90509250929050565b600181811c908216806116ca57607f821691505b6020821081036116ea57634e487b7160e01b600052602260045260246000fd5b50919050565b6020808252602d908201527f4552433732313a2063616c6c6572206973206e6f7420746f6b656e206f776e6560408201526c1c881bdc88185c1c1c9bdd9959609a1b606082015260800190565b60208082526025908201527f4552433732313a207472616e736665722066726f6d20696e636f72726563742060408201526437bbb732b960d91b606082015260800190565b60208082526032908201527f4552433732313a207472616e7366657220746f206e6f6e20455243373231526560408201527131b2b4bb32b91034b6b83632b6b2b73a32b960711b606082015260800190565b600083516117e68184602088016113bb565b8351908301906117fa8183602088016113bb565b01949350505050565b601f8211156104e157600081815260208120601f850160051c8101602086101561182a5750805b601f850160051c820191505b8181101561184957828155600101611836565b505050505050565b815167ffffffffffffffff81111561186b5761186b611510565b61187f8161187984546116b6565b84611803565b602080601f8311600181146118b4576000841561189c5750858301515b600019600386901b1c1916600185901b178555611849565b600085815260208120601f198616915b828110156118e3578886015182559484019460019091019084016118c4565b50858210156119015787850151600019600388901b60f8161c191681555b5050505050600190811b01905550565b6001600160a01b0385811682528416602082015260408101839052608060608201819052600090611944908301846113df565b9695505050505050565b60006020828403121561196057600080fd5b8151610f758161138856fea26469706673582212201f9c390aeb53573a3d25a75ff66916937c664a6d95c9eeb4581003765c4cf0a064736f6c63430008110033",
    "linkReferences": {}
  },
  "methodIdentifiers": {
    "approve(address,uint256)": "095ea7b3",
    "balanceOf(address)": "70a08231",
    "burn(uint256)": "42966c68",
    "getApproved(uint256)": "081812fc",
    "isApprovedForAll(address,address)": "e985e9c5",
    "name()": "06fdde03",
    "owner()": "8da5cb5b",
    "ownerOf(uint256)": "6352211e",
    "renounceOwnership()": "715018a6",
    "safeMint(address,uint256,string)": "cd279c7c",
    "safeTransferFrom(address,address,uint256)": "42842e0e",
    "safeTransferFrom(address,address,uint256,bytes)": "b88d4fde",
    "setApprovalForAll(address,bool)": "a22cb465",
    "supportsInterface(bytes4)": "01ffc9a7",
    "symbol()": "95d89b41",
    "tokenURI(uint256)": "c87b56dd",
    "transferFrom(address,address,uint256)": "23b872dd",
    "transferOwnership(address)": "f2fde38b"
  },
  "id": 74
}