{
  "abi": [
    {
      "inputs": [
        {
          "internalType": "string",
          "name": "_name",
          "type": "string"
        },
        {
          "internalType": "string",
          "name": "_symbol",
          "type": "string"
        },
        {
          "internalType": "address",
          "name": "_bridgeAddress",
          "type": "address"
        }
      ],
      "stateMutability": "nonpayable",
      "type": "constructor"
    },
    {
      "anonymous": false,
      "inputs": [
        {
          "indexed": true,
          "internalType": "address",
          "name": "owner",
          "type": "address"
        },
        {
          "indexed": true,
          "internalType": "address",
          "name": "approved",
          "type": "address"
        },
        {
          "indexed": true,
          "internalType": "uint256",
          "name": "tokenId",
          "type": "uint256"
        }
      ],
      "name": "Approval",
      "type": "event"
    },
    {
      "anonymous": false,
      "inputs": [
        {
          "indexed": true,
          "internalType": "address",
          "name": "owner",
          "type": "address"
        },
        {
          "indexed": true,
          "internalType": "address",
          "name": "operator",
          "type": "address"
        },
        {
          "indexed": false,
          "internalType": "bool",
          "name": "approved",
          "type": "bool"
        }
      ],
      "name": "ApprovalForAll",
      "type": "event"
    },
    {
      "anonymous": false,
      "inputs": [
        {
          "indexed": true,
          "internalType": "address",
          "name": "previousOwner",
          "type": "address"
        },
        {
          "indexed": true,
          "internalType": "address",
          "name": "newOwner",
          "type": "address"
        }
      ],
      "name": "OwnershipTransferred",
      "type": "event"
    },
    {
      "anonymous": false,
      "inputs": [
        {
          "indexed": true,
          "internalType": "address",
          "name": "from",
          "type": "address"
        },
        {
          "indexed": true,
          "internalType": "address",
          "name": "to",
          "type": "address"
        },
        {
          "indexed": true,
          "internalType": "uint256",
          "name": "tokenId",
          "type": "uint256"
        }
      ],
      "name": "Transfer",
      "type": "event"
    },
    {
      "inputs": [
        {
          "internalType": "address",
          "name": "to",
          "type": "address"
        },
        {
          "internalType": "uint256",
          "name": "tokenId",
          "type": "uint256"
        }
      ],
      "name": "approve",
      "outputs": [],
      "stateMutability": "nonpayable",
      "type": "function"
    },
    {
      "inputs": [
        {
          "internalType": "address",
          "name": "owner",
          "type": "address"
        }
      ],
      "name": "balanceOf",
      "outputs": [
        {
          "internalType": "uint256",
          "name": "",
          "type": "uint256"
        }
      ],
      "stateMutability": "view",
      "type": "function"
    },
    {
      "inputs": [
        {
          "internalType": "uint256",
          "name": "tokenId",
          "type": "uint256"
        }
      ],
      "name": "burn",
      "outputs": [],
      "stateMutability": "nonpayable",
      "type": "function"
    },
    {
      "inputs": [
        {
          "internalType": "uint256",
          "name": "tokenId",
          "type": "uint256"
        }
      ],
      "name": "getApproved",
      "outputs": [
        {
          "internalType": "address",
          "name": "",
          "type": "address"
        }
      ],
      "stateMutability": "view",
      "type": "function"
    },
    {
      "inputs": [
        {
          "internalType": "address",
          "name": "owner",
          "type": "address"
        },
        {
          "internalType": "address",
          "name": "operator",
          "type": "address"
        }
      ],
      "name": "isApprovedForAll",
      "outputs": [
        {
          "internalType": "bool",
          "name": "",
          "type": "bool"
        }
      ],
      "stateMutability": "view",
      "type": "function"
    },
    {
      "inputs": [],
      "name": "name",
      "outputs": [
        {
          "internalType": "string",
          "name": "",
          "type": "string"
        }
      ],
      "stateMutability": "view",
      "type": "function"
    },
    {
      "inputs": [],
      "name": "owner",
      "outputs": [
        {
          "internalType": "address",
          "name": "",
          "type": "address"
        }
      ],
      "stateMutability": "view",
      "type": "function"
    },
    {
      "inputs": [
        {
          "internalType": "uint256",
          "name": "tokenId",
          "type": "uint256"
        }
      ],
      "name": "ownerOf",
      "outputs": [
        {
          "internalType": "address",
          "name": "",
          "type": "address"
        }
      ],
      "stateMutability": "view",
      "type": "function"
    },
    {
      "inputs": [],
      "name": "renounceOwnership",
      "outputs": [],
      "stateMutability": "nonpayable",
      "type": "function"
    },
    {
      "inputs": [
        {
          "internalType": "address",
          "name": "to",
          "type": "address"
        },
        {
          "internalType": "uint256",
          "name": "tokenId",
          "type": "uint256"
        },
        {
          "internalType": "string",
          "name": "uri",
          "type": "string"
        }
      ],
      "name": "safeMint",
      "outputs": [],
      "stateMutability": "nonpayable",
      "type": "function"
    },
    {
      "inputs": [
        {
          "internalType": "address",
          "name": "from",
          "type": "address"
        },
        {
          "internalType": "address",
          "name": "to",
          "type": "address"
        },
        {
          "internalType": "uint256",
          "name": "tokenId",
          "type": "uint256"
        }
      ],
      "name": "safeTransferFrom",
      "outputs": [],
      "stateMutability": "nonpayable",
      "type": "function"
    },
    {
      "inputs": [
        {
          "internalType": "address",
          "name": "from",
          "type": "address"
        },
        {
          "internalType": "address",
          "name": "to",
          "type": "address"
        },
        {
          "internalType": "uint256",
          "name": "tokenId",
          "type": "uint256"
        },
        {
          "internalType": "bytes",
          "name": "_data",
          "type": "bytes"
        }
      ],
      "name": "safeTransferFrom",
      "outputs": [],
      "stateMutability": "nonpayable",
      "type": "function"
    },
    {
      "inputs": [
        {
          "internalType": "address",
          "name": "operator",
          "type": "address"
        },
        {
          "internalType": "bool",
          "name": "approved",
          "type": "bool"
        }
      ],
      "name": "setApprovalForAll",
      "outputs": [],
      "stateMutability": "nonpayable",
      "type": "function"
    },
    {
      "inputs": [
        {
          "internalType": "bytes4",
          "name": "interfaceId",
          "type": "bytes4"
        }
      ],
      "name": "supportsInterface",
      "outputs": [
        {
          "internalType": "bool",
          "name": "",
          "type": "bool"
        }
      ],
      "stateMutability": "view",
      "type": "function"
    },
    {
      "inputs": [],
      "name": "symbol",
      "outputs": [
        {
          "internalType": "string",
          "name": "",
          "type": "string"
        }
      ],
      "stateMutability": "view",
      "type": "function"
    },
    {
      "inputs": [
        {
          "internalType": "uint256",
          "name": "tokenId",
          "type": "uint256"
        }
      ],
      "name": "tokenURI",
      "outputs": [
        {
          "internalType": "string",
          "name": "",
          "type": "string"
        }
      ],
      "stateMutability": "view",
      "type": "function"
    },
    {
      "inputs": [
        {
          "internalType": "address",
          "name": "from",
          "type": "address"
        },
        {
          "internalType": "address",
          "name": "to",
          "type": "address"
        },
        {
          "internalType": "uint256",
          "name": "tokenId",
          "type": "uint256"
        }
      ],
      "name": "transferFrom",
      "outputs": [],
      "stateMutability": "nonpayable",
      "type": "function"
    },
    {
      "inputs": [
        {
          "internalType": "address",
          "name": "newOwner",
          "type": "address"
        }
      ],
      "name": "transferOwnership",
      "outputs": [],
      "stateMutability": "nonpayable",
      "type": "function"
    }
  ],
  "bytecode": {
    "object": "0x608060405234620003d65762002023803803806200001d81620003db565b928339810190606081830312620003d65780516001600160401b0390818111620003d657836200004f91840162000401565b9260209081840151838111620003d6576040916200006f91860162000401565b9301516001600160a01b038082169590939091869003620003d6578151818111620003c0576000958654916001948584811c94168015620003b5575b87851014620003a1578190601f948581116200034e575b508790858311600114620002ea578a92620002de575b5050600019600383901b1c191690851b1787555b8051928311620002ca5783548481811c91168015620002bf575b86821014620002ab579081838594931162000256575b5085918311600114620001f2578792620001e6575b5050600019600383901b1c191690821b1790555b60075460018060a01b03199333858316176007557f8be0079c531659141344cd1fd0a4f28419497f9722a3daafe3b4186f6b6457e0604051943393169180a38315620001a55750506008541617600855604051611baf9081620004748239f35b62461bcd60e51b82526004820152601560248201527f43616e2774206265207a65726f20616464726573730000000000000000000000604482015260649150fd5b01519050388062000131565b8488528588208594509190601f198416895b888282106200023f575050841162000225575b505050811b01905562000145565b015160001960f88460031b161c1916905538808062000217565b838501518655889790950194938401930162000204565b909192508488528588208380860160051c820192888710620002a1575b91869588929594930160051c01915b828110620002925750506200011c565b8a815586955087910162000282565b9250819262000273565b634e487b7160e01b88526022600452602488fd5b90607f169062000106565b634e487b7160e01b87526041600452602487fd5b015190503880620000d8565b8a8052888b208894509190601f1984168c5b8b8282106200033757505084116200031d575b505050811b018755620000ec565b015160001960f88460031b161c191690553880806200030f565b8385015186558b97909501949384019301620002fc565b909150898052878a208580850160051c8201928a861062000397575b918991869594930160051c01915b82811062000388575050620000c2565b8c815585945089910162000378565b925081926200036a565b634e487b7160e01b89526022600452602489fd5b93607f1693620000ab565b634e487b7160e01b600052604160045260246000fd5b600080fd5b6040519190601f01601f191682016001600160401b03811183821017620003c057604052565b919080601f84011215620003d65782516001600160401b038111620003c05760209062000437601f8201601f19168301620003db565b92818452828287010111620003d65760005b8181106200045f57508260009394955001015290565b85810183015184820184015282016200044956fe60806040526004361015610013575b600080fd5b60003560e01c806301ffc9a71461017b57806306fdde0314610172578063081812fc14610169578063095ea7b31461016057806323b872dd1461015757806342842e0e1461014e57806342966c68146101455780636352211e1461013c57806370a0823114610133578063715018a61461012a5780638da5cb5b1461012157806395d89b4114610118578063a22cb4651461010f578063b88d4fde14610106578063c87b56dd146100fd578063cd279c7c146100f4578063e985e9c5146100eb5763f2fde38b146100e357600080fd5b61000e610bda565b5061000e610b7c565b5061000e6109e5565b5061000e6109b1565b5061000e610950565b5061000e61079f565b5061000e6106f9565b5061000e6106cf565b5061000e61066d565b5061000e6105ca565b5061000e6105ab565b5061000e61051a565b5061000e6104f1565b5061000e6104c7565b5061000e6103a2565b5061000e610345565b5061000e610261565b5061000e610196565b6001600160e01b031981160361000e57565b503461000e57602036600319011261000e5760206004356101b681610184565b63ffffffff60e01b166380ac58cd60e01b81149081156101f4575b81156101e3575b506040519015158152f35b6301ffc9a760e01b149050386101d8565b635b5e139f60e01b811491506101d1565b60005b8381106102185750506000910152565b8181015183820152602001610208565b9060209161024181518092818552858086019101610205565b601f01601f1916010190565b90602061025e928181520190610228565b90565b503461000e57600080600319360112610342576040519080805461028481610d7d565b8085529160019180831690811561031857506001146102be575b6102ba856102ae818703826108cc565b6040519182918261024d565b0390f35b80809450527f290decd9548b62a8d60345a988386fc84ba6bc95484008f6362f93160ef3e5635b8284106103005750505081016020016102ae826102ba61029e565b805460208587018101919091529093019281016102e5565b8695506102ba969350602092506102ae94915060ff191682840152151560051b820101929361029e565b80fd5b503461000e57602036600319011261000e576020610364600435610ecf565b6040516001600160a01b039091168152f35b600435906001600160a01b038216820361000e57565b602435906001600160a01b038216820361000e57565b503461000e57604036600319011261000e576103bc610376565b6024356103c881610d05565b916001600160a01b038084169082168114610443576103fa936103f59133149081156103fc575b50610e5d565b6113bc565b005b6001600160a01b0316600090815260056020526040902061043d91506104369033905b9060018060a01b0316600052602052604060002090565b5460ff1690565b386103ef565b60405162461bcd60e51b815260206004820152602160248201527f4552433732313a20617070726f76616c20746f2063757272656e74206f776e656044820152603960f91b6064820152608490fd5b606090600319011261000e576001600160a01b0390600435828116810361000e5791602435908116810361000e579060443590565b503461000e576103fa6104d936610492565b916104ec6104e78433611078565b610f61565b611251565b503461000e576103fa61050336610492565b9060405192610511846108a3565b60008452610fda565b503461000e57602036600319011261000e576004356105398133611078565b15610582576008546001600160a01b03163303610559576103fa9061193c565b60405162461bcd60e51b81526020600482015260016024820152601960f91b6044820152606490fd5b60405162461bcd60e51b81526020600482015260016024820152603160f81b6044820152606490fd5b503461000e57602036600319011261000e576020610364600435610d05565b503461000e57602036600319011261000e576001600160a01b036105ec610376565b1680156106155760005260036020526102ba604060002054604051918291829190602083019252565b60405162461bcd60e51b815260206004820152602a60248201527f4552433732313a2062616c616e636520717565727920666f7220746865207a65604482015269726f206164647265737360b01b6064820152608490fd5b503461000e576000806003193601126103425760075481906001600160a01b0381169061069b338314610c71565b6001600160a01b0319166007557f8be0079c531659141344cd1fd0a4f28419497f9722a3daafe3b4186f6b6457e08280a380f35b503461000e57600036600319011261000e576007546040516001600160a01b039091168152602090f35b503461000e57600080600319360112610342576040519080600180549161071f83610d7d565b808652928281169081156103185750600114610745576102ba856102ae818703826108cc565b92508083527fb10e2d527612073b26eecdfd717e6a320cf44b4afac2b0732d9fcbe2b7fa0cf65b8284106107875750505081016020016102ae826102ba61029e565b8054602085870181019190915290930192810161076c565b503461000e57604036600319011261000e576107b9610376565b602435801515810361000e576001600160a01b0382169133831461084757816108046108159233600052600560205260406000209060018060a01b0316600052602052604060002090565b9060ff801983541691151516179055565b604051901515815233907f17307eab39ab6107e8899845ad3d59bd9653f200f220920489ca2b5937696c3190602090a3005b60405162461bcd60e51b815260206004820152601960248201527f4552433732313a20617070726f766520746f2063616c6c6572000000000000006044820152606490fd5b50634e487b7160e01b600052604160045260246000fd5b6020810190811067ffffffffffffffff8211176108bf57604052565b6108c761088c565b604052565b90601f8019910116810190811067ffffffffffffffff8211176108bf57604052565b60209067ffffffffffffffff811161090c575b601f01601f19160190565b61091461088c565b610901565b929192610925826108ee565b9161093360405193846108cc565b82948184528183011161000e578281602093846000960137010152565b503461000e57608036600319011261000e5761096a610376565b61097261038c565b6064359167ffffffffffffffff831161000e573660238401121561000e576109a76103fa933690602481600401359101610919565b9160443591610fda565b503461000e57602036600319011261000e576102ba6109d16004356115d5565b604051918291602083526020830190610228565b503461000e57606036600319011261000e576109ff610376565b6024359060443567ffffffffffffffff811161000e573660238201121561000e57610a34903690602481600401359101610919565b6007546001600160a01b039390610a4e9085163314610c71565b60405192610a5b846108a3565b6000948585528116908115610b3857610b359483610b2b9281610b3095610aa6610aa1610a9d84600052600260205260018060a01b0360406000205416151590565b1590565b611163565b6001600160a01b0383166000908152600360205260409020610ac881546111c6565b9055610b0183610ae2846000526002602052604060002090565b80546001600160a01b0319166001600160a01b03909216919091179055565b8a7fddf252ad1be2c89b69c2b068fc378daa952ba7f163c4a11628f55a4df523b3ef8180a46114c1565b611054565b6117d8565b80f35b606460405162461bcd60e51b815260206004820152602060248201527f4552433732313a206d696e7420746f20746865207a65726f20616464726573736044820152fd5b503461000e57604036600319011261000e57602060ff610bce610b9d610376565b610ba561038c565b6001600160a01b0391821660009081526005865260408082209290931681526020919091522090565b54166040519015158152f35b503461000e57602036600319011261000e57610bf4610376565b6007546001600160a01b0390610c0d9082163314610c71565b811615610c1d576103fa90610cbc565b60405162461bcd60e51b815260206004820152602660248201527f4f776e61626c653a206e6577206f776e657220697320746865207a65726f206160448201526564647265737360d01b6064820152608490fd5b15610c7857565b606460405162461bcd60e51b815260206004820152602060248201527f4f776e61626c653a2063616c6c6572206973206e6f7420746865206f776e65726044820152fd5b600780546001600160a01b039283166001600160a01b0319821681179092559091167f8be0079c531659141344cd1fd0a4f28419497f9722a3daafe3b4186f6b6457e0600080a3565b6000908152600260205260409020546001600160a01b03168015610d265790565b60405162461bcd60e51b815260206004820152602960248201527f4552433732313a206f776e657220717565727920666f72206e6f6e657869737460448201526832b73a103a37b5b2b760b91b6064820152608490fd5b90600182811c92168015610dad575b6020831014610d9757565b634e487b7160e01b600052602260045260246000fd5b91607f1691610d8c565b9060405191826000825492610dcb84610d7d565b908184526001948581169081600014610e3a5750600114610df7575b5050610df5925003836108cc565b565b9093915060005260209081600020936000915b818310610e22575050610df593508201013880610de7565b85548884018501529485019487945091830191610e0a565b915050610df594506020925060ff191682840152151560051b8201013880610de7565b15610e6457565b60405162461bcd60e51b815260206004820152603860248201527f4552433732313a20617070726f76652063616c6c6572206973206e6f74206f7760448201527f6e6572206e6f7220617070726f76656420666f7220616c6c00000000000000006064820152608490fd5b6000818152600260205260409020546001600160a01b031615610f07576000908152600460205260409020546001600160a01b031690565b60405162461bcd60e51b815260206004820152602c60248201527f4552433732313a20617070726f76656420717565727920666f72206e6f6e657860448201526b34b9ba32b73a103a37b5b2b760a11b6064820152608490fd5b15610f6857565b60405162461bcd60e51b815260206004820152603160248201527f4552433732313a207472616e736665722063616c6c6572206973206e6f74206f6044820152701ddb995c881b9bdc88185c1c1c9bdd9959607a1b6064820152608490fd5b60405190610fd4826108a3565b60008252565b91610df59391610b2b93610ff16104e78433611078565b610ffc838383611251565b611582565b60809060208152603260208201527f4552433732313a207472616e7366657220746f206e6f6e20455243373231526560408201527131b2b4bb32b91034b6b83632b6b2b73a32b960711b60608201520190565b1561105b57565b60405162461bcd60e51b81528061107460048201611001565b0390fd5b6000828152600260205260409020546001600160a01b0316156111095761109e82610d05565b6001600160a01b0382811682821681149490919085156110f1575b50505082156110c757505090565b6001600160a01b0316600090815260056020526040902060ff92506110ec919061041f565b541690565b6110fe9192939550610ecf565b1614913880806110b9565b60405162461bcd60e51b815260206004820152602c60248201527f4552433732313a206f70657261746f7220717565727920666f72206e6f6e657860448201526b34b9ba32b73a103a37b5b2b760a11b6064820152608490fd5b1561116a57565b60405162461bcd60e51b815260206004820152601c60248201527f4552433732313a20746f6b656e20616c7265616479206d696e746564000000006044820152606490fd5b50634e487b7160e01b600052601160045260246000fd5b90600182018092116111d457565b610df56111af565b60300190816030116111d457565b156111f157565b60405162461bcd60e51b8152602060048201526024808201527f4552433732313a207472616e7366657220746f20746865207a65726f206164646044820152637265737360e01b6064820152608490fd5b6000198101919082116111d457565b9061125b83610d05565b6001600160a01b038381169290918216839003611315576112aa6112ee928216946112878615156111ea565b61129087611368565b6001600160a01b0316600090815260036020526040902090565b6112b48154611242565b90556001600160a01b03811660009081526003602052604090206112d881546111c6565b9055610ae2856000526002602052604060002090565b7fddf252ad1be2c89b69c2b068fc378daa952ba7f163c4a11628f55a4df523b3ef600080a4565b60405162461bcd60e51b815260206004820152602560248201527f4552433732313a207472616e736665722066726f6d20696e636f72726563742060448201526437bbb732b960d91b6064820152608490fd5b600081815260046020526040812080546001600160a01b03191690556001600160a01b0361139583610d05565b167f8c5be1e5ebec7d5bd14f71427d1e84f3dd0314c0f7b2291e5b200ac8c7c3b9258280a4565b600082815260046020526040902080546001600160a01b0319166001600160a01b0383161790556001600160a01b03806113f584610d05565b169116907f8c5be1e5ebec7d5bd14f71427d1e84f3dd0314c0f7b2291e5b200ac8c7c3b925600080a4565b9081602091031261000e575161025e81610184565b61025e939260809260018060a01b031682526000602083015260408201528160608201520190610228565b6001600160a01b03918216815291166020820152604081019190915260806060820181905261025e92910190610228565b3d156114bc573d906114a2826108ee565b916114b060405193846108cc565b82523d6000602084013e565b606090565b909190803b1561157a576114f3602091600093604051948580948193630a85bd0160e11b998a84523360048501611435565b03926001600160a01b03165af16000918161154a575b5061153c57611516611491565b805190816115375760405162461bcd60e51b81528061107460048201611001565b602001fd5b6001600160e01b0319161490565b61156c91925060203d8111611573575b61156481836108cc565b810190611420565b9038611509565b503d61155a565b505050600190565b92909190823b156115b5576114f3926020926000604051809681958294630a85bd0160e11b9a8b85523360048601611460565b50505050600190565b906115d160209282815194859201610205565b0190565b6000818152600260205260409020546001600160a01b0316156116645761160e611609826000526006602052604060002090565b610db7565b90611617610fc7565b80511561165f57825161162f575061025e91506116c3565b61025e915061165161164b9360405194859360208501906115be565b906115be565b03601f1981018352826108cc565b505090565b60405162461bcd60e51b815260206004820152603160248201527f45524337323155524953746f726167653a2055524920717565727920666f72206044820152703737b732bc34b9ba32b73a103a37b5b2b760791b6064820152608490fd5b6000818152600260205260409020546001600160a01b03161561171f576116e8610fc7565b8051909190156117155761164b9161165161170561025e93611aa2565b60405194859360208501906115be565b505061025e610fc7565b60405162461bcd60e51b815260206004820152602f60248201527f4552433732314d657461646174613a2055524920717565727920666f72206e6f60448201526e3732bc34b9ba32b73a103a37b5b2b760891b6064820152608490fd5b818110611787575050565b6000815560010161177c565b9190601f81116117a257505050565b610df5926000526020600020906020601f840160051c830193106117ce575b601f0160051c019061177c565b90915081906117c1565b6000818152600260205260409020549192916001600160a01b0316156118e05760005260206006815260406000209083519067ffffffffffffffff82116118d3575b61182e826118288554610d7d565b85611793565b80601f831160011461186857508192939460009261185d575b50508160011b916000199060031b1c1916179055565b015190503880611847565b90601f1983169561187e85600052602060002090565b926000905b8882106118bb575050836001959697106118a2575b505050811b019055565b015160001960f88460031b161c19169055388080611898565b80600185968294968601518155019501930190611883565b6118db61088c565b61181a565b60405162461bcd60e51b815260206004820152602e60248201527f45524337323155524953746f726167653a2055524920736574206f66206e6f6e60448201526d32bc34b9ba32b73a103a37b5b2b760911b6064820152608490fd5b61194581610d05565b61194e82611368565b6001600160a01b031660008181526003602052604081208054919392839285926000198201918211611a3c575b5582825260026020526040822080546001600160a01b03191690557fddf252ad1be2c89b69c2b068fc378daa952ba7f163c4a11628f55a4df523b3ef8280a46119d76119d1826000526006602052604060002090565b54610d7d565b6119df575050565b6119f3906000526006602052604060002090565b6119fd8154610d7d565b80611a0757505050565b601f8111600114611a16575055565b81835260208320611a3291601f0160051c81019060010161177c565b8160208120915555565b611a446111af565b61197b565b90611a53826108ee565b611a6060405191826108cc565b8281528092611a71601f19916108ee565b0190602036910137565b908151811015611a8c570160200190565b634e487b7160e01b600052603260045260246000fd5b8015611b3c576000818181805b611b125750611abd81611a49565b935b611ac95750505090565b611ad290611242565b90600a90611afd611aed611ae78484066111dc565b60ff1690565b60f81b6001600160f81b03191690565b841a611b098487611a7b565b53049081611abf565b91506001600a916000198114611b2f575b01910480849291611aaf565b611b376111af565b611b23565b506040516040810181811067ffffffffffffffff821117611b6c575b60405260018152600360fc1b602082015290565b611b7461088c565b611b5856fea2646970667358221220b752359a26e6c0b5c63116ed07dd09511c52cd39d76d914dbdcb3b0b32d0a18c64736f6c63430008110033",
    "linkReferences": {}
  },
  "methodIdentifiers": {
    "approve(address,uint256)": "095ea7b3",
    "balanceOf(address)": "70a08231",
    "burn(uint256)": "42966c68",
    "getApproved(uint256)": "081812fc",
    "isApprovedForAll(address,address)": "e985e9c5",
    "name()": "06fdde03",
    "owner()": "8da5cb5b",
    "ownerOf(uint256)": "6352211e",
    "renounceOwnership()": "715018a6",
    "safeMint(address,uint256,string)": "cd279c7c",
    "safeTransferFrom(address,address,uint256)": "42842e0e",
    "safeTransferFrom(address,address,uint256,bytes)": "b88d4fde",
    "setApprovalForAll(address,bool)": "a22cb465",
    "supportsInterface(bytes4)": "01ffc9a7",
    "symbol()": "95d89b41",
    "tokenURI(uint256)": "c87b56dd",
    "transferFrom(address,address,uint256)": "23b872dd",
    "transferOwnership(address)": "f2fde38b"
  },
  "id": 152
}