{
  "abi": [
    {
      "inputs": [
        {
          "internalType": "string",
          "name": "_name",
          "type": "string"
        },
        {
          "internalType": "string",
          "name": "_symbol",
          "type": "string"
        },
        {
          "internalType": "address",
          "name": "_layerZeroEndpoint",
          "type": "address"
        },
        {
          "internalType": "string",
          "name": "_baseTokenURI",
          "type": "string"
        },
        {
          "internalType": "string",
          "name": "_hiddenURI",
          "type": "string"
        },
        {
          "internalType": "uint256",
          "name": "_tax",
          "type": "uint256"
        },
        {
          "internalType": "address",
          "name": "_taxRecipient",
          "type": "address"
        }
      ],
      "stateMutability": "nonpayable",
      "type": "constructor"
    },
    {
      "inputs": [
        {
          "internalType": "address",
          "name": "operator",
          "type": "address"
        }
      ],
      "name": "OperatorNotAllowed",
      "type": "error"
    },
    {
      "anonymous": false,
      "inputs": [
        {
          "indexed": true,
          "internalType": "address",
          "name": "owner",
          "type": "address"
        },
        {
          "indexed": true,
          "internalType": "address",
          "name": "approved",
          "type": "address"
        },
        {
          "indexed": true,
          "internalType": "uint256",
          "name": "tokenId",
          "type": "uint256"
        }
      ],
      "name": "Approval",
      "type": "event"
    },
    {
      "anonymous": false,
      "inputs": [
        {
          "indexed": true,
          "internalType": "address",
          "name": "owner",
          "type": "address"
        },
        {
          "indexed": true,
          "internalType": "address",
          "name": "operator",
          "type": "address"
        },
        {
          "indexed": false,
          "internalType": "bool",
          "name": "approved",
          "type": "bool"
        }
      ],
      "name": "ApprovalForAll",
      "type": "event"
    },
    {
      "anonymous": false,
      "inputs": [
        {
          "indexed": false,
          "internalType": "bytes32",
          "name": "_hashedPayload",
          "type": "bytes32"
        }
      ],
      "name": "CreditCleared",
      "type": "event"
    },
    {
      "anonymous": false,
      "inputs": [
        {
          "indexed": false,
          "internalType": "bytes32",
          "name": "_hashedPayload",
          "type": "bytes32"
        },
        {
          "indexed": false,
          "internalType": "bytes",
          "name": "_payload",
          "type": "bytes"
        }
      ],
      "name": "CreditStored",
      "type": "event"
    },
    {
      "anonymous": false,
      "inputs": [
        {
          "indexed": false,
          "internalType": "uint16",
          "name": "_srcChainId",
          "type": "uint16"
        },
        {
          "indexed": false,
          "internalType": "bytes",
          "name": "_srcAddress",
          "type": "bytes"
        },
        {
          "indexed": false,
          "internalType": "uint64",
          "name": "_nonce",
          "type": "uint64"
        },
        {
          "indexed": false,
          "internalType": "bytes",
          "name": "_payload",
          "type": "bytes"
        },
        {
          "indexed": false,
          "internalType": "bytes",
          "name": "_reason",
          "type": "bytes"
        }
      ],
      "name": "MessageFailed",
      "type": "event"
    },
    {
      "anonymous": false,
      "inputs": [
        {
          "indexed": true,
          "internalType": "address",
          "name": "previousOwner",
          "type": "address"
        },
        {
          "indexed": true,
          "internalType": "address",
          "name": "newOwner",
          "type": "address"
        }
      ],
      "name": "OwnershipTransferred",
      "type": "event"
    },
    {
      "anonymous": false,
      "inputs": [
        {
          "indexed": true,
          "internalType": "uint16",
          "name": "_srcChainId",
          "type": "uint16"
        },
        {
          "indexed": true,
          "internalType": "bytes",
          "name": "_srcAddress",
          "type": "bytes"
        },
        {
          "indexed": true,
          "internalType": "address",
          "name": "_toAddress",
          "type": "address"
        },
        {
          "indexed": false,
          "internalType": "uint256[]",
          "name": "_tokenIds",
          "type": "uint256[]"
        }
      ],
      "name": "ReceiveFromChain",
      "type": "event"
    },
    {
      "anonymous": false,
      "inputs": [
        {
          "indexed": false,
          "internalType": "uint16",
          "name": "_srcChainId",
          "type": "uint16"
        },
        {
          "indexed": false,
          "internalType": "bytes",
          "name": "_srcAddress",
          "type": "bytes"
        },
        {
          "indexed": false,
          "internalType": "uint64",
          "name": "_nonce",
          "type": "uint64"
        },
        {
          "indexed": false,
          "internalType": "bytes32",
          "name": "_payloadHash",
          "type": "bytes32"
        }
      ],
      "name": "RetryMessageSuccess",
      "type": "event"
    },
    {
      "anonymous": false,
      "inputs": [
        {
          "indexed": true,
          "internalType": "uint16",
          "name": "_dstChainId",
          "type": "uint16"
        },
        {
          "indexed": true,
          "internalType": "address",
          "name": "_from",
          "type": "address"
        },
        {
          "indexed": true,
          "internalType": "bytes",
          "name": "_toAddress",
          "type": "bytes"
        },
        {
          "indexed": false,
          "internalType": "uint256[]",
          "name": "_tokenIds",
          "type": "uint256[]"
        }
      ],
      "name": "SendToChain",
      "type": "event"
    },
    {
      "anonymous": false,
      "inputs": [
        {
          "indexed": false,
          "internalType": "uint16",
          "name": "_dstChainId",
          "type": "uint16"
        },
        {
          "indexed": false,
          "internalType": "uint16",
          "name": "_type",
          "type": "uint16"
        },
        {
          "indexed": false,
          "internalType": "uint256",
          "name": "_minDstGas",
          "type": "uint256"
        }
      ],
      "name": "SetMinDstGas",
      "type": "event"
    },
    {
      "anonymous": false,
      "inputs": [
        {
          "indexed": false,
          "internalType": "address",
          "name": "precrime",
          "type": "address"
        }
      ],
      "name": "SetPrecrime",
      "type": "event"
    },
    {
      "anonymous": false,
      "inputs": [
        {
          "indexed": false,
          "internalType": "uint16",
          "name": "_remoteChainId",
          "type": "uint16"
        },
        {
          "indexed": false,
          "internalType": "bytes",
          "name": "_path",
          "type": "bytes"
        }
      ],
      "name": "SetTrustedRemote",
      "type": "event"
    },
    {
      "anonymous": false,
      "inputs": [
        {
          "indexed": false,
          "internalType": "uint16",
          "name": "_remoteChainId",
          "type": "uint16"
        },
        {
          "indexed": false,
          "internalType": "bytes",
          "name": "_remoteAddress",
          "type": "bytes"
        }
      ],
      "name": "SetTrustedRemoteAddress",
      "type": "event"
    },
    {
      "anonymous": false,
      "inputs": [
        {
          "indexed": true,
          "internalType": "address",
          "name": "from",
          "type": "address"
        },
        {
          "indexed": true,
          "internalType": "address",
          "name": "to",
          "type": "address"
        },
        {
          "indexed": true,
          "internalType": "uint256",
          "name": "tokenId",
          "type": "uint256"
        }
      ],
      "name": "Transfer",
      "type": "event"
    },
    {
      "inputs": [],
      "name": "DEFAULT_PAYLOAD_SIZE_LIMIT",
      "outputs": [
        {
          "internalType": "uint256",
          "name": "",
          "type": "uint256"
        }
      ],
      "stateMutability": "view",
      "type": "function"
    },
    {
      "inputs": [],
      "name": "FUNCTION_TYPE_SEND",
      "outputs": [
        {
          "internalType": "uint16",
          "name": "",
          "type": "uint16"
        }
      ],
      "stateMutability": "view",
      "type": "function"
    },
    {
      "inputs": [],
      "name": "MAX_MINT_ID_FREE",
      "outputs": [
        {
          "internalType": "uint16",
          "name": "",
          "type": "uint16"
        }
      ],
      "stateMutability": "view",
      "type": "function"
    },
    {
      "inputs": [],
      "name": "MAX_MINT_ID_FRIENDS",
      "outputs": [
        {
          "internalType": "uint16",
          "name": "",
          "type": "uint16"
        }
      ],
      "stateMutability": "view",
      "type": "function"
    },
    {
      "inputs": [],
      "name": "MAX_MINT_ID_TOTAL",
      "outputs": [
        {
          "internalType": "uint16",
          "name": "",
          "type": "uint16"
        }
      ],
      "stateMutability": "view",
      "type": "function"
    },
    {
      "inputs": [],
      "name": "MAX_TOKENS_PER_MINT_FREE",
      "outputs": [
        {
          "internalType": "uint8",
          "name": "",
          "type": "uint8"
        }
      ],
      "stateMutability": "view",
      "type": "function"
    },
    {
      "inputs": [],
      "name": "MAX_TOKENS_PER_MINT_FRIENDS",
      "outputs": [
        {
          "internalType": "uint8",
          "name": "",
          "type": "uint8"
        }
      ],
      "stateMutability": "view",
      "type": "function"
    },
    {
      "inputs": [],
      "name": "MAX_TOKENS_PER_MINT_PUBLIC",
      "outputs": [
        {
          "internalType": "uint8",
          "name": "",
          "type": "uint8"
        }
      ],
      "stateMutability": "view",
      "type": "function"
    },
    {
      "inputs": [],
      "name": "MIN_FRIENDS_PRICE",
      "outputs": [
        {
          "internalType": "uint128",
          "name": "",
          "type": "uint128"
        }
      ],
      "stateMutability": "view",
      "type": "function"
    },
    {
      "inputs": [],
      "name": "MIN_PUBLIC_PRICE",
      "outputs": [
        {
          "internalType": "uint128",
          "name": "",
          "type": "uint128"
        }
      ],
      "stateMutability": "view",
      "type": "function"
    },
    {
      "inputs": [],
      "name": "OPERATOR_FILTER_REGISTRY",
      "outputs": [
        {
          "internalType": "contract IOperatorFilterRegistry",
          "name": "",
          "type": "address"
        }
      ],
      "stateMutability": "view",
      "type": "function"
    },
    {
      "inputs": [],
      "name": "PRICE_DECAY_FRIENDS",
      "outputs": [
        {
          "internalType": "uint128",
          "name": "",
          "type": "uint128"
        }
      ],
      "stateMutability": "view",
      "type": "function"
    },
    {
      "inputs": [],
      "name": "PRICE_DECAY_PUBLIC",
      "outputs": [
        {
          "internalType": "uint128",
          "name": "",
          "type": "uint128"
        }
      ],
      "stateMutability": "view",
      "type": "function"
    },
    {
      "inputs": [],
      "name": "PRICE_DELTA_FRIENDS",
      "outputs": [
        {
          "internalType": "uint128",
          "name": "",
          "type": "uint128"
        }
      ],
      "stateMutability": "view",
      "type": "function"
    },
    {
      "inputs": [],
      "name": "PRICE_DELTA_PUBLIC",
      "outputs": [
        {
          "internalType": "uint128",
          "name": "",
          "type": "uint128"
        }
      ],
      "stateMutability": "view",
      "type": "function"
    },
    {
      "inputs": [],
      "name": "_saleStarted",
      "outputs": [
        {
          "internalType": "bool",
          "name": "",
          "type": "bool"
        }
      ],
      "stateMutability": "view",
      "type": "function"
    },
    {
      "inputs": [
        {
          "internalType": "address",
          "name": "operator",
          "type": "address"
        },
        {
          "internalType": "uint256",
          "name": "tokenId",
          "type": "uint256"
        }
      ],
      "name": "approve",
      "outputs": [],
      "stateMutability": "nonpayable",
      "type": "function"
    },
    {
      "inputs": [
        {
          "internalType": "address",
          "name": "owner",
          "type": "address"
        }
      ],
      "name": "balanceOf",
      "outputs": [
        {
          "internalType": "uint256",
          "name": "",
          "type": "uint256"
        }
      ],
      "stateMutability": "view",
      "type": "function"
    },
    {
      "inputs": [
        {
          "internalType": "bytes",
          "name": "_payload",
          "type": "bytes"
        }
      ],
      "name": "clearCredits",
      "outputs": [],
      "stateMutability": "nonpayable",
      "type": "function"
    },
    {
      "inputs": [
        {
          "internalType": "uint16",
          "name": "",
          "type": "uint16"
        }
      ],
      "name": "dstChainIdToBatchLimit",
      "outputs": [
        {
          "internalType": "uint256",
          "name": "",
          "type": "uint256"
        }
      ],
      "stateMutability": "view",
      "type": "function"
    },
    {
      "inputs": [
        {
          "internalType": "uint16",
          "name": "",
          "type": "uint16"
        }
      ],
      "name": "dstChainIdToTransferGas",
      "outputs": [
        {
          "internalType": "uint256",
          "name": "",
          "type": "uint256"
        }
      ],
      "stateMutability": "view",
      "type": "function"
    },
    {
      "inputs": [
        {
          "internalType": "uint16",
          "name": "_dstChainId",
          "type": "uint16"
        },
        {
          "internalType": "bytes",
          "name": "_toAddress",
          "type": "bytes"
        },
        {
          "internalType": "uint256[]",
          "name": "_tokenIds",
          "type": "uint256[]"
        },
        {
          "internalType": "bool",
          "name": "_useZro",
          "type": "bool"
        },
        {
          "internalType": "bytes",
          "name": "_adapterParams",
          "type": "bytes"
        }
      ],
      "name": "estimateSendBatchFee",
      "outputs": [
        {
          "internalType": "uint256",
          "name": "nativeFee",
          "type": "uint256"
        },
        {
          "internalType": "uint256",
          "name": "zroFee",
          "type": "uint256"
        }
      ],
      "stateMutability": "view",
      "type": "function"
    },
    {
      "inputs": [
        {
          "internalType": "uint16",
          "name": "_dstChainId",
          "type": "uint16"
        },
        {
          "internalType": "bytes",
          "name": "_toAddress",
          "type": "bytes"
        },
        {
          "internalType": "uint256",
          "name": "_tokenId",
          "type": "uint256"
        },
        {
          "internalType": "bool",
          "name": "_useZro",
          "type": "bool"
        },
        {
          "internalType": "bytes",
          "name": "_adapterParams",
          "type": "bytes"
        }
      ],
      "name": "estimateSendFee",
      "outputs": [
        {
          "internalType": "uint256",
          "name": "nativeFee",
          "type": "uint256"
        },
        {
          "internalType": "uint256",
          "name": "zroFee",
          "type": "uint256"
        }
      ],
      "stateMutability": "view",
      "type": "function"
    },
    {
      "inputs": [
        {
          "internalType": "uint16",
          "name": "",
          "type": "uint16"
        },
        {
          "internalType": "bytes",
          "name": "",
          "type": "bytes"
        },
        {
          "internalType": "uint64",
          "name": "",
          "type": "uint64"
        }
      ],
      "name": "failedMessages",
      "outputs": [
        {
          "internalType": "bytes32",
          "name": "",
          "type": "bytes32"
        }
      ],
      "stateMutability": "view",
      "type": "function"
    },
    {
      "inputs": [],
      "name": "flipRevealed",
      "outputs": [],
      "stateMutability": "nonpayable",
      "type": "function"
    },
    {
      "inputs": [],
      "name": "flipSaleStarted",
      "outputs": [],
      "stateMutability": "nonpayable",
      "type": "function"
    },
    {
      "inputs": [
        {
          "internalType": "uint16",
          "name": "_srcChainId",
          "type": "uint16"
        },
        {
          "internalType": "bytes",
          "name": "_srcAddress",
          "type": "bytes"
        }
      ],
      "name": "forceResumeReceive",
      "outputs": [],
      "stateMutability": "nonpayable",
      "type": "function"
    },
    {
      "inputs": [],
      "name": "freeSupply",
      "outputs": [
        {
          "internalType": "uint16",
          "name": "",
          "type": "uint16"
        }
      ],
      "stateMutability": "view",
      "type": "function"
    },
    {
      "inputs": [],
      "name": "friendsAndPublicSupply",
      "outputs": [
        {
          "internalType": "uint16",
          "name": "",
          "type": "uint16"
        }
      ],
      "stateMutability": "view",
      "type": "function"
    },
    {
      "inputs": [
        {
          "internalType": "uint256",
          "name": "tokenId",
          "type": "uint256"
        }
      ],
      "name": "getApproved",
      "outputs": [
        {
          "internalType": "address",
          "name": "",
          "type": "address"
        }
      ],
      "stateMutability": "view",
      "type": "function"
    },
    {
      "inputs": [
        {
          "internalType": "uint16",
          "name": "_version",
          "type": "uint16"
        },
        {
          "internalType": "uint16",
          "name": "_chainId",
          "type": "uint16"
        },
        {
          "internalType": "address",
          "name": "",
          "type": "address"
        },
        {
          "internalType": "uint256",
          "name": "_configType",
          "type": "uint256"
        }
      ],
      "name": "getConfig",
      "outputs": [
        {
          "internalType": "bytes",
          "name": "",
          "type": "bytes"
        }
      ],
      "stateMutability": "view",
      "type": "function"
    },
    {
      "inputs": [
        {
          "internalType": "uint8",
          "name": "mintType",
          "type": "uint8"
        },
        {
          "internalType": "uint16",
          "name": "amount",
          "type": "uint16"
        }
      ],
      "name": "getPriceInfo",
      "outputs": [
        {
          "internalType": "uint128",
          "name": "",
          "type": "uint128"
        },
        {
          "internalType": "uint256",
          "name": "",
          "type": "uint256"
        }
      ],
      "stateMutability": "view",
      "type": "function"
    },
    {
      "inputs": [
        {
          "internalType": "uint16",
          "name": "_remoteChainId",
          "type": "uint16"
        }
      ],
      "name": "getTrustedRemoteAddress",
      "outputs": [
        {
          "internalType": "bytes",
          "name": "",
          "type": "bytes"
        }
      ],
      "stateMutability": "view",
      "type": "function"
    },
    {
      "inputs": [
        {
          "internalType": "address",
          "name": "owner",
          "type": "address"
        },
        {
          "internalType": "address",
          "name": "operator",
          "type": "address"
        }
      ],
      "name": "isApprovedForAll",
      "outputs": [
        {
          "internalType": "bool",
          "name": "",
          "type": "bool"
        }
      ],
      "stateMutability": "view",
      "type": "function"
    },
    {
      "inputs": [
        {
          "internalType": "uint16",
          "name": "_srcChainId",
          "type": "uint16"
        },
        {
          "internalType": "bytes",
          "name": "_srcAddress",
          "type": "bytes"
        }
      ],
      "name": "isTrustedRemote",
      "outputs": [
        {
          "internalType": "bool",
          "name": "",
          "type": "bool"
        }
      ],
      "stateMutability": "view",
      "type": "function"
    },
    {
      "inputs": [],
      "name": "lastUpdateFriends",
      "outputs": [
        {
          "internalType": "uint256",
          "name": "",
          "type": "uint256"
        }
      ],
      "stateMutability": "view",
      "type": "function"
    },
    {
      "inputs": [],
      "name": "lastUpdatePublic",
      "outputs": [
        {
          "internalType": "uint256",
          "name": "",
          "type": "uint256"
        }
      ],
      "stateMutability": "view",
      "type": "function"
    },
    {
      "inputs": [],
      "name": "lzEndpoint",
      "outputs": [
        {
          "internalType": "contract ILayerZeroEndpoint",
          "name": "",
          "type": "address"
        }
      ],
      "stateMutability": "view",
      "type": "function"
    },
    {
      "inputs": [
        {
          "internalType": "uint16",
          "name": "_srcChainId",
          "type": "uint16"
        },
        {
          "internalType": "bytes",
          "name": "_srcAddress",
          "type": "bytes"
        },
        {
          "internalType": "uint64",
          "name": "_nonce",
          "type": "uint64"
        },
        {
          "internalType": "bytes",
          "name": "_payload",
          "type": "bytes"
        }
      ],
      "name": "lzReceive",
      "outputs": [],
      "stateMutability": "nonpayable",
      "type": "function"
    },
    {
      "inputs": [],
      "name": "merkleRootFree",
      "outputs": [
        {
          "internalType": "bytes32",
          "name": "",
          "type": "bytes32"
        }
      ],
      "stateMutability": "view",
      "type": "function"
    },
    {
      "inputs": [],
      "name": "merkleRootFriends",
      "outputs": [
        {
          "internalType": "bytes32",
          "name": "",
          "type": "bytes32"
        }
      ],
      "stateMutability": "view",
      "type": "function"
    },
    {
      "inputs": [
        {
          "internalType": "uint16",
          "name": "",
          "type": "uint16"
        },
        {
          "internalType": "uint16",
          "name": "",
          "type": "uint16"
        }
      ],
      "name": "minDstGasLookup",
      "outputs": [
        {
          "internalType": "uint256",
          "name": "",
          "type": "uint256"
        }
      ],
      "stateMutability": "view",
      "type": "function"
    },
    {
      "inputs": [],
      "name": "minGasToTransferAndStore",
      "outputs": [
        {
          "internalType": "uint256",
          "name": "",
          "type": "uint256"
        }
      ],
      "stateMutability": "view",
      "type": "function"
    },
    {
      "inputs": [
        {
          "internalType": "uint16",
          "name": "_nbTokens",
          "type": "uint16"
        },
        {
          "internalType": "uint8",
          "name": "mintType",
          "type": "uint8"
        },
        {
          "internalType": "bytes32[]",
          "name": "_merkleProof",
          "type": "bytes32[]"
        },
        {
          "internalType": "uint256",
          "name": "wlAllocationAmt",
          "type": "uint256"
        }
      ],
      "name": "mint",
      "outputs": [],
      "stateMutability": "payable",
      "type": "function"
    },
    {
      "inputs": [
        {
          "internalType": "uint8",
          "name": "",
          "type": "uint8"
        },
        {
          "internalType": "address",
          "name": "",
          "type": "address"
        }
      ],
      "name": "minted",
      "outputs": [
        {
          "internalType": "uint16",
          "name": "",
          "type": "uint16"
        }
      ],
      "stateMutability": "view",
      "type": "function"
    },
    {
      "inputs": [],
      "name": "name",
      "outputs": [
        {
          "internalType": "string",
          "name": "",
          "type": "string"
        }
      ],
      "stateMutability": "view",
      "type": "function"
    },
    {
      "inputs": [],
      "name": "nextMintId",
      "outputs": [
        {
          "internalType": "uint16",
          "name": "",
          "type": "uint16"
        }
      ],
      "stateMutability": "view",
      "type": "function"
    },
    {
      "inputs": [
        {
          "internalType": "uint16",
          "name": "_srcChainId",
          "type": "uint16"
        },
        {
          "internalType": "bytes",
          "name": "_srcAddress",
          "type": "bytes"
        },
        {
          "internalType": "uint64",
          "name": "_nonce",
          "type": "uint64"
        },
        {
          "internalType": "bytes",
          "name": "_payload",
          "type": "bytes"
        }
      ],
      "name": "nonblockingLzReceive",
      "outputs": [],
      "stateMutability": "nonpayable",
      "type": "function"
    },
    {
      "inputs": [],
      "name": "owner",
      "outputs": [
        {
          "internalType": "address",
          "name": "",
          "type": "address"
        }
      ],
      "stateMutability": "view",
      "type": "function"
    },
    {
      "inputs": [
        {
          "internalType": "uint256",
          "name": "tokenId",
          "type": "uint256"
        }
      ],
      "name": "ownerOf",
      "outputs": [
        {
          "internalType": "address",
          "name": "",
          "type": "address"
        }
      ],
      "stateMutability": "view",
      "type": "function"
    },
    {
      "inputs": [
        {
          "internalType": "uint16",
          "name": "",
          "type": "uint16"
        }
      ],
      "name": "payloadSizeLimitLookup",
      "outputs": [
        {
          "internalType": "uint256",
          "name": "",
          "type": "uint256"
        }
      ],
      "stateMutability": "view",
      "type": "function"
    },
    {
      "inputs": [],
      "name": "precrime",
      "outputs": [
        {
          "internalType": "address",
          "name": "",
          "type": "address"
        }
      ],
      "stateMutability": "view",
      "type": "function"
    },
    {
      "inputs": [],
      "name": "renounceOwnership",
      "outputs": [],
      "stateMutability": "nonpayable",
      "type": "function"
    },
    {
      "inputs": [
        {
          "internalType": "uint16",
          "name": "_srcChainId",
          "type": "uint16"
        },
        {
          "internalType": "bytes",
          "name": "_srcAddress",
          "type": "bytes"
        },
        {
          "internalType": "uint64",
          "name": "_nonce",
          "type": "uint64"
        },
        {
          "internalType": "bytes",
          "name": "_payload",
          "type": "bytes"
        }
      ],
      "name": "retryMessage",
      "outputs": [],
      "stateMutability": "payable",
      "type": "function"
    },
    {
      "inputs": [],
      "name": "revealed",
      "outputs": [
        {
          "internalType": "bool",
          "name": "",
          "type": "bool"
        }
      ],
      "stateMutability": "view",
      "type": "function"
    },
    {
      "inputs": [
        {
          "internalType": "address",
          "name": "from",
          "type": "address"
        },
        {
          "internalType": "address",
          "name": "to",
          "type": "address"
        },
        {
          "internalType": "uint256",
          "name": "tokenId",
          "type": "uint256"
        }
      ],
      "name": "safeTransferFrom",
      "outputs": [],
      "stateMutability": "nonpayable",
      "type": "function"
    },
    {
      "inputs": [
        {
          "internalType": "address",
          "name": "from",
          "type": "address"
        },
        {
          "internalType": "address",
          "name": "to",
          "type": "address"
        },
        {
          "internalType": "uint256",
          "name": "tokenId",
          "type": "uint256"
        },
        {
          "internalType": "bytes",
          "name": "data",
          "type": "bytes"
        }
      ],
      "name": "safeTransferFrom",
      "outputs": [],
      "stateMutability": "nonpayable",
      "type": "function"
    },
    {
      "inputs": [
        {
          "internalType": "address",
          "name": "_from",
          "type": "address"
        },
        {
          "internalType": "uint16",
          "name": "_dstChainId",
          "type": "uint16"
        },
        {
          "internalType": "bytes",
          "name": "_toAddress",
          "type": "bytes"
        },
        {
          "internalType": "uint256[]",
          "name": "_tokenIds",
          "type": "uint256[]"
        },
        {
          "internalType": "address payable",
          "name": "_refundAddress",
          "type": "address"
        },
        {
          "internalType": "address",
          "name": "_zroPaymentAddress",
          "type": "address"
        },
        {
          "internalType": "bytes",
          "name": "_adapterParams",
          "type": "bytes"
        }
      ],
      "name": "sendBatchFrom",
      "outputs": [],
      "stateMutability": "payable",
      "type": "function"
    },
    {
      "inputs": [
        {
          "internalType": "address",
          "name": "_from",
          "type": "address"
        },
        {
          "internalType": "uint16",
          "name": "_dstChainId",
          "type": "uint16"
        },
        {
          "internalType": "bytes",
          "name": "_toAddress",
          "type": "bytes"
        },
        {
          "internalType": "uint256",
          "name": "_tokenId",
          "type": "uint256"
        },
        {
          "internalType": "address payable",
          "name": "_refundAddress",
          "type": "address"
        },
        {
          "internalType": "address",
          "name": "_zroPaymentAddress",
          "type": "address"
        },
        {
          "internalType": "bytes",
          "name": "_adapterParams",
          "type": "bytes"
        }
      ],
      "name": "sendFrom",
      "outputs": [],
      "stateMutability": "payable",
      "type": "function"
    },
    {
      "inputs": [
        {
          "internalType": "address",
          "name": "operator",
          "type": "address"
        },
        {
          "internalType": "bool",
          "name": "approved",
          "type": "bool"
        }
      ],
      "name": "setApprovalForAll",
      "outputs": [],
      "stateMutability": "nonpayable",
      "type": "function"
    },
    {
      "inputs": [
        {
          "internalType": "string",
          "name": "uri",
          "type": "string"
        }
      ],
      "name": "setBaseURI",
      "outputs": [],
      "stateMutability": "nonpayable",
      "type": "function"
    },
    {
      "inputs": [
        {
          "internalType": "address payable",
          "name": "_beneficiary",
          "type": "address"
        }
      ],
      "name": "setBeneficiary",
      "outputs": [],
      "stateMutability": "nonpayable",
      "type": "function"
    },
    {
      "inputs": [
        {
          "internalType": "uint16",
          "name": "_version",
          "type": "uint16"
        },
        {
          "internalType": "uint16",
          "name": "_chainId",
          "type": "uint16"
        },
        {
          "internalType": "uint256",
          "name": "_configType",
          "type": "uint256"
        },
        {
          "internalType": "bytes",
          "name": "_config",
          "type": "bytes"
        }
      ],
      "name": "setConfig",
      "outputs": [],
      "stateMutability": "nonpayable",
      "type": "function"
    },
    {
      "inputs": [
        {
          "internalType": "uint16",
          "name": "_dstChainId",
          "type": "uint16"
        },
        {
          "internalType": "uint256",
          "name": "_dstChainIdToBatchLimit",
          "type": "uint256"
        }
      ],
      "name": "setDstChainIdToBatchLimit",
      "outputs": [],
      "stateMutability": "nonpayable",
      "type": "function"
    },
    {
      "inputs": [
        {
          "internalType": "uint16",
          "name": "_dstChainId",
          "type": "uint16"
        },
        {
          "internalType": "uint256",
          "name": "_dstChainIdToTransferGas",
          "type": "uint256"
        }
      ],
      "name": "setDstChainIdToTransferGas",
      "outputs": [],
      "stateMutability": "nonpayable",
      "type": "function"
    },
    {
      "inputs": [
        {
          "internalType": "string",
          "name": "_hiddenMetadataUri",
          "type": "string"
        }
      ],
      "name": "setHiddenMetadataUri",
      "outputs": [],
      "stateMutability": "nonpayable",
      "type": "function"
    },
    {
      "inputs": [
        {
          "internalType": "bytes32",
          "name": "tier",
          "type": "bytes32"
        },
        {
          "internalType": "bytes32",
          "name": "_merkleRoot",
          "type": "bytes32"
        }
      ],
      "name": "setMerkleRoot",
      "outputs": [],
      "stateMutability": "nonpayable",
      "type": "function"
    },
    {
      "inputs": [
        {
          "internalType": "uint16",
          "name": "_dstChainId",
          "type": "uint16"
        },
        {
          "internalType": "uint16",
          "name": "_packetType",
          "type": "uint16"
        },
        {
          "internalType": "uint256",
          "name": "_minGas",
          "type": "uint256"
        }
      ],
      "name": "setMinDstGas",
      "outputs": [],
      "stateMutability": "nonpayable",
      "type": "function"
    },
    {
      "inputs": [
        {
          "internalType": "uint256",
          "name": "_minGasToTransferAndStore",
          "type": "uint256"
        }
      ],
      "name": "setMinGasToTransferAndStore",
      "outputs": [],
      "stateMutability": "nonpayable",
      "type": "function"
    },
    {
      "inputs": [
        {
          "internalType": "uint16",
          "name": "_dstChainId",
          "type": "uint16"
        },
        {
          "internalType": "uint256",
          "name": "_size",
          "type": "uint256"
        }
      ],
      "name": "setPayloadSizeLimit",
      "outputs": [],
      "stateMutability": "nonpayable",
      "type": "function"
    },
    {
      "inputs": [
        {
          "internalType": "address",
          "name": "_precrime",
          "type": "address"
        }
      ],
      "name": "setPrecrime",
      "outputs": [],
      "stateMutability": "nonpayable",
      "type": "function"
    },
    {
      "inputs": [
        {
          "internalType": "uint16",
          "name": "_version",
          "type": "uint16"
        }
      ],
      "name": "setReceiveVersion",
      "outputs": [],
      "stateMutability": "nonpayable",
      "type": "function"
    },
    {
      "inputs": [
        {
          "internalType": "uint16",
          "name": "_version",
          "type": "uint16"
        }
      ],
      "name": "setSendVersion",
      "outputs": [],
      "stateMutability": "nonpayable",
      "type": "function"
    },
    {
      "inputs": [
        {
          "internalType": "uint256",
          "name": "_tax",
          "type": "uint256"
        }
      ],
      "name": "setTax",
      "outputs": [],
      "stateMutability": "nonpayable",
      "type": "function"
    },
    {
      "inputs": [
        {
          "internalType": "address payable",
          "name": "_taxRecipient",
          "type": "address"
        }
      ],
      "name": "setTaxRecipient",
      "outputs": [],
      "stateMutability": "nonpayable",
      "type": "function"
    },
    {
      "inputs": [
        {
          "internalType": "uint16",
          "name": "_srcChainId",
          "type": "uint16"
        },
        {
          "internalType": "bytes",
          "name": "_path",
          "type": "bytes"
        }
      ],
      "name": "setTrustedRemote",
      "outputs": [],
      "stateMutability": "nonpayable",
      "type": "function"
    },
    {
      "inputs": [
        {
          "internalType": "uint16",
          "name": "_remoteChainId",
          "type": "uint16"
        },
        {
          "internalType": "bytes",
          "name": "_remoteAddress",
          "type": "bytes"
        }
      ],
      "name": "setTrustedRemoteAddress",
      "outputs": [],
      "stateMutability": "nonpayable",
      "type": "function"
    },
    {
      "inputs": [],
      "name": "spotPriceFriends",
      "outputs": [
        {
          "internalType": "uint128",
          "name": "",
          "type": "uint128"
        }
      ],
      "stateMutability": "view",
      "type": "function"
    },
    {
      "inputs": [],
      "name": "spotPricePublic",
      "outputs": [
        {
          "internalType": "uint128",
          "name": "",
          "type": "uint128"
        }
      ],
      "stateMutability": "view",
      "type": "function"
    },
    {
      "inputs": [
        {
          "internalType": "bytes32",
          "name": "",
          "type": "bytes32"
        }
      ],
      "name": "storedCredits",
      "outputs": [
        {
          "internalType": "uint16",
          "name": "srcChainId",
          "type": "uint16"
        },
        {
          "internalType": "address",
          "name": "toAddress",
          "type": "address"
        },
        {
          "internalType": "uint256",
          "name": "index",
          "type": "uint256"
        },
        {
          "internalType": "bool",
          "name": "creditsRemain",
          "type": "bool"
        }
      ],
      "stateMutability": "view",
      "type": "function"
    },
    {
      "inputs": [
        {
          "internalType": "bytes4",
          "name": "interfaceId",
          "type": "bytes4"
        }
      ],
      "name": "supportsInterface",
      "outputs": [
        {
          "internalType": "bool",
          "name": "",
          "type": "bool"
        }
      ],
      "stateMutability": "view",
      "type": "function"
    },
    {
      "inputs": [],
      "name": "symbol",
      "outputs": [
        {
          "internalType": "string",
          "name": "",
          "type": "string"
        }
      ],
      "stateMutability": "view",
      "type": "function"
    },
    {
      "inputs": [],
      "name": "tax",
      "outputs": [
        {
          "internalType": "uint256",
          "name": "",
          "type": "uint256"
        }
      ],
      "stateMutability": "view",
      "type": "function"
    },
    {
      "inputs": [
        {
          "internalType": "uint256",
          "name": "tokenId",
          "type": "uint256"
        }
      ],
      "name": "tokenURI",
      "outputs": [
        {
          "internalType": "string",
          "name": "",
          "type": "string"
        }
      ],
      "stateMutability": "view",
      "type": "function"
    },
    {
      "inputs": [
        {
          "internalType": "address",
          "name": "from",
          "type": "address"
        },
        {
          "internalType": "address",
          "name": "to",
          "type": "address"
        },
        {
          "internalType": "uint256",
          "name": "tokenId",
          "type": "uint256"
        }
      ],
      "name": "transferFrom",
      "outputs": [],
      "stateMutability": "nonpayable",
      "type": "function"
    },
    {
      "inputs": [
        {
          "internalType": "address",
          "name": "newOwner",
          "type": "address"
        }
      ],
      "name": "transferOwnership",
      "outputs": [],
      "stateMutability": "nonpayable",
      "type": "function"
    },
    {
      "inputs": [
        {
          "internalType": "uint16",
          "name": "",
          "type": "uint16"
        }
      ],
      "name": "trustedRemoteLookup",
      "outputs": [
        {
          "internalType": "bytes",
          "name": "",
          "type": "bytes"
        }
      ],
      "stateMutability": "view",
      "type": "function"
    },
    {
      "inputs": [],
      "name": "withdraw",
      "outputs": [],
      "stateMutability": "nonpayable",
      "type": "function"
    }
  ],
  "bytecode": {
    "object": "0x60a06040526103e8601155601280546c235978e783e000000000000000600160301b600160b01b0319909116179055601380546001600160801b03191666235978e783e000179055600060148190556015553480156200005e57600080fd5b50604051620066663803806200666683398101604081905262000081916200042d565b86868662030d40733cc6cdda760b79bafa08df41ecfa224f810dceb66001858584868080620000b033620002fb565b6001600160a01b03166080525081620001255760405162461bcd60e51b815260206004820152602d60248201527f4f4e46543732313a206d696e476173546f5472616e73666572416e6453746f7260448201526c065206d757374206265203e203609c1b606482015260840160405180910390fd5b50600655600a620001378382620005a4565b50600b620001468282620005a4565b5050506daaeb6d7670e522a718067333cd4e3b156200028e578015620001dc57604051633e9f1edf60e11b81523060048201526001600160a01b03831660248201526daaeb6d7670e522a718067333cd4e90637d3e3dbe906044015b600060405180830381600087803b158015620001bd57600080fd5b505af1158015620001d2573d6000803e3d6000fd5b505050506200028e565b6001600160a01b038216156200022d5760405163a0af290360e01b81523060048201526001600160a01b03831660248201526daaeb6d7670e522a718067333cd4e9063a0af290390604401620001a2565b604051632210724360e11b81523060048201526daaeb6d7670e522a718067333cd4e90634420e48690602401600060405180830381600087803b1580156200027457600080fd5b505af115801562000289573d6000803e3d6000fd5b505050505b505060016010555050601680546001600160a01b0319163317905550601a9050620002ba8582620005a4565b50601b620002c98482620005a4565b50601191909155601780546001600160a01b0319166001600160a01b0390921691909117905550620006709350505050565b600080546001600160a01b038381166001600160a01b0319831681178455604051919092169283917f8be0079c531659141344cd1fd0a4f28419497f9722a3daafe3b4186f6b6457e09190a35050565b634e487b7160e01b600052604160045260246000fd5b600082601f8301126200037357600080fd5b81516001600160401b03808211156200039057620003906200034b565b604051601f8301601f19908116603f01168101908282118183101715620003bb57620003bb6200034b565b81604052838152602092508683858801011115620003d857600080fd5b600091505b83821015620003fc5785820183015181830184015290820190620003dd565b600093810190920192909252949350505050565b80516001600160a01b03811681146200042857600080fd5b919050565b600080600080600080600060e0888a0312156200044957600080fd5b87516001600160401b03808211156200046157600080fd5b6200046f8b838c0162000361565b985060208a01519150808211156200048657600080fd5b620004948b838c0162000361565b9750620004a460408b0162000410565b965060608a0151915080821115620004bb57600080fd5b620004c98b838c0162000361565b955060808a0151915080821115620004e057600080fd5b50620004ef8a828b0162000361565b93505060a088015191506200050760c0890162000410565b905092959891949750929550565b600181811c908216806200052a57607f821691505b6020821081036200054b57634e487b7160e01b600052602260045260246000fd5b50919050565b601f8211156200059f57600081815260208120601f850160051c810160208610156200057a5750805b601f850160051c820191505b818110156200059b5782815560010162000586565b5050505b505050565b81516001600160401b03811115620005c057620005c06200034b565b620005d881620005d1845462000515565b8462000551565b602080601f831160018114620006105760008415620005f75750858301515b600019600386901b1c1916600185901b1785556200059b565b600085815260208120601f198616915b82811015620006415788860151825594840194600190910190840162000620565b5085821015620006605787850151600019600388901b60f8161c191681555b5050505050600190811b01905550565b608051615fa2620006c460003960008181610da2015281816110310152818161133501528181611490015281816119d001528181612c35015281816130b3015281816131e901526145a70152615fa26000f3fe6080604052600436106104ca5760003560e01c8063781dc11e11610276578063b88d4fde1161014f578063e220da0f116100c1578063ee68390711610085578063ee68390714610f75578063f235364114610f8b578063f2fde38b14610fab578063f5ecbdbc14610fcb578063fa25f9b614610feb578063fdbc0ef51461101857600080fd5b8063e220da0f14610eff578063e7fd4c8c14610971578063e985e9c514610f20578063eb8d72b714610f40578063ebdbdf0a14610f6057600080fd5b8063d12473a511610113578063d12473a514610e5a578063d1deba1f14610e7a578063d333be1a14610e8d578063d6926dda14610ea2578063df239a7f14610eb8578063df2a5b3b14610edf57600080fd5b8063b88d4fde14610dc4578063baf3292d14610de4578063c446183414610e04578063c87b56dd14610e1a578063cbed8b9c14610e3a57600080fd5b806395d89b41116101e8578063a6c3d165116101ac578063a6c3d16514610d0e578063a9b57f0614610d2e578063ab3ffb9314610d55578063af3fb21c14610d68578063b04765a014610d7d578063b353aaa714610d9057600080fd5b806395d89b4114610c8357806399c8d55614610c985780639ea5d6b114610cae5780639f38369a14610cce578063a22cb46514610cee57600080fd5b806389ba959c1161023a57806389ba959c14610b9b5780638cfd8f5c14610bb15780638da5cb5b14610be95780638ffa1f2a14610c0757806394ab086614610c27578063950c8a7414610c6357600080fd5b8063781dc11e14610b1b57806378e3079e14610b3657806381ac26f614610b5657806387c348bf14610b6c578063899d7b3814610b8657600080fd5b806341f43434116103a85780636262e7561161031a5780636bb14c21116102de5780636bb14c2114610a7557806370a0823114610a90578063715018a614610ab05780637533d78814610ac557806375e731d514610ae557806375edcbe014610afb57600080fd5b80636262e756146107195780636352211e146109fa57806366ad5c8a14610a1a5780636a51dd9b14610a3a5780636aa99da314610a5a57600080fd5b80634fdd43cb1161036c5780634fdd43cb1461091f578063518302271461093f578063519056361461095e57806354d3ba6a1461097157806355f804b31461098b5780635b8c41e6146109ab57600080fd5b806341f434341461087a57806342842e0e1461089c57806342d65a8d146108bc57806348288190146108dc5780634ac3f4ff146108f257600080fd5b806323b872dd116104415780632e5bb6ff116104055780632e5bb6ff146107a457806331d48611146107c45780633b2c3fb6146108035780633ccfd60b146108185780633d8b38f61461082d5780633f1f4fa41461084d57600080fd5b806323b872dd146106c357806324a6ab0c146106e3578063275e7633146107195780632a205e3d1461074b5780632e59c84d1461078057600080fd5b8063095ea7b311610493578063095ea7b3146105a05780630b4cad4c146105c05780630df37483146105e057806310ddb137146106005780631c31f7101461062057806322a3ecf91461064057600080fd5b80621d3567146104cf57806301ffc9a7146104f157806306fdde031461052657806307e0db1714610548578063081812fc14610568575b600080fd5b3480156104db57600080fd5b506104ef6104ea366004614b5c565b61102e565b005b3480156104fd57600080fd5b5061051161050c366004614c05565b61125f565b60405190151581526020015b60405180910390f35b34801561053257600080fd5b5061053b611282565b60405161051d9190614c72565b34801561055457600080fd5b506104ef610563366004614c85565b611314565b34801561057457600080fd5b50610588610583366004614ca0565b61139d565b6040516001600160a01b03909116815260200161051d565b3480156105ac57600080fd5b506104ef6105bb366004614cd9565b6113c4565b3480156105cc57600080fd5b506104ef6105db366004614ca0565b6113dd565b3480156105ec57600080fd5b506104ef6105fb366004614d05565b611450565b34801561060c57600080fd5b506104ef61061b366004614c85565b61146f565b34801561062c57600080fd5b506104ef61063b366004614d21565b6114c7565b34801561064c57600080fd5b5061069461065b366004614ca0565b60096020526000908152604090208054600182015460029092015461ffff821692620100009092046001600160a01b0316919060ff1684565b6040805161ffff90951685526001600160a01b039093166020850152918301521515606082015260800161051d565b3480156106cf57600080fd5b506104ef6106de366004614d3e565b6114f1565b3480156106ef57600080fd5b5060125461070690640100000000900461ffff1681565b60405161ffff909116815260200161051d565b34801561072557600080fd5b5061073365886c98b7600081565b6040516001600160801b03909116815260200161051d565b34801561075757600080fd5b5061076b610766366004614e58565b61151c565b6040805192835260208301919091520161051d565b34801561078c57600080fd5b5061079660155481565b60405190815260200161051d565b3480156107b057600080fd5b506104ef6107bf366004614ca0565b611542565b3480156107d057600080fd5b506107e46107df366004614efb565b61154f565b604080516001600160801b03909316835260208301919091520161051d565b34801561080f57600080fd5b506104ef61173b565b34801561082457600080fd5b506104ef611797565b34801561083957600080fd5b50610511610848366004614f2e565b6118c0565b34801561085957600080fd5b50610796610868366004614c85565b60036020526000908152604090205481565b34801561088657600080fd5b506105886daaeb6d7670e522a718067333cd4e81565b3480156108a857600080fd5b506104ef6108b7366004614d3e565b61198c565b3480156108c857600080fd5b506104ef6108d7366004614f2e565b6119b1565b3480156108e857600080fd5b5061079660065481565b3480156108fe57600080fd5b5061079661090d366004614c85565b60076020526000908152604090205481565b34801561092b57600080fd5b506104ef61093a366004614f80565b611a37565b34801561094b57600080fd5b50601c5461051190610100900460ff1681565b6104ef61096c366004614fc8565b611a82565b34801561097d57600080fd5b506107336551dac207a00081565b34801561099757600080fd5b506104ef6109a6366004614f80565b611a99565b3480156109b757600080fd5b506107966109c6366004615081565b6005602090815260009384526040808520845180860184018051928152908401958401959095209452929052825290205481565b348015610a0657600080fd5b50610588610a15366004614ca0565b611ae4565b348015610a2657600080fd5b506104ef610a35366004614b5c565b611b44565b348015610a4657600080fd5b50601354610733906001600160801b031681565b348015610a6657600080fd5b506012546107069061ffff1681565b348015610a8157600080fd5b50610733662386f26fc1000081565b348015610a9c57600080fd5b50610796610aab366004614d21565b611c20565b348015610abc57600080fd5b506104ef611ca6565b348015610ad157600080fd5b5061053b610ae0366004614c85565b611cba565b348015610af157600080fd5b506107066102bc81565b348015610b0757600080fd5b506104ef610b163660046150de565b611d54565b348015610b2757600080fd5b506107336611c37937e0800081565b348015610b4257600080fd5b506104ef610b51366004614d21565b611dbe565b348015610b6257600080fd5b5061079660145481565b348015610b7857600080fd5b50601c546105119060ff1681565b348015610b9257600080fd5b506104ef611de8565b348015610ba757600080fd5b5061079660185481565b348015610bbd57600080fd5b50610796610bcc366004615100565b600260209081526000928352604080842090915290825290205481565b348015610bf557600080fd5b506000546001600160a01b0316610588565b348015610c1357600080fd5b506104ef610c2236600461511c565b611e99565b348015610c3357600080fd5b50610706610c42366004615150565b601d60209081526000928352604080842090915290825290205461ffff1681565b348015610c6f57600080fd5b50600454610588906001600160a01b031681565b348015610c8f57600080fd5b5061053b6120e3565b348015610ca457600080fd5b5061079660115481565b348015610cba57600080fd5b506104ef610cc9366004614d05565b6120f2565b348015610cda57600080fd5b5061053b610ce9366004614c85565b612175565b348015610cfa57600080fd5b506104ef610d09366004615187565b61228b565b348015610d1a57600080fd5b506104ef610d29366004614f2e565b61229f565b348015610d3a57600080fd5b50610d43600481565b60405160ff909116815260200161051d565b6104ef610d6336600461523e565b612328565b348015610d7457600080fd5b50610706600181565b6104ef610d8b3660046152f3565b612337565b348015610d9c57600080fd5b506105887f000000000000000000000000000000000000000000000000000000000000000081565b348015610dd057600080fd5b506104ef610ddf36600461538b565b612a4c565b348015610df057600080fd5b506104ef610dff366004614d21565b612a72565b348015610e1057600080fd5b5061079661271081565b348015610e2657600080fd5b5061053b610e35366004614ca0565b612ace565b348015610e4657600080fd5b506104ef610e553660046153f6565b612c16565b348015610e6657600080fd5b506104ef610e75366004614d05565b612ca0565b6104ef610e88366004614b5c565b612d24565b348015610e9957600080fd5b50610d43601481565b348015610eae57600080fd5b5061079660195481565b348015610ec457600080fd5b5060125461073390600160301b90046001600160801b031681565b348015610eeb57600080fd5b506104ef610efa366004615464565b612f3a565b348015610f0b57600080fd5b506012546107069062010000900461ffff1681565b348015610f2c57600080fd5b50610511610f3b3660046154a0565b612fec565b348015610f4c57600080fd5b506104ef610f5b366004614f2e565b61301a565b348015610f6c57600080fd5b50610d43600581565b348015610f8157600080fd5b50610706610bb881565b348015610f9757600080fd5b5061076b610fa63660046154be565b613074565b348015610fb757600080fd5b506104ef610fc6366004614d21565b61313f565b348015610fd757600080fd5b5061053b610fe636600461553b565b6131b8565b348015610ff757600080fd5b50610796611006366004614c85565b60086020526000908152604090205481565b34801561102457600080fd5b506107066108fc81565b337f00000000000000000000000000000000000000000000000000000000000000006001600160a01b0316146110ab5760405162461bcd60e51b815260206004820152601e60248201527f4c7a4170703a20696e76616c696420656e64706f696e742063616c6c6572000060448201526064015b60405180910390fd5b61ffff8616600090815260016020526040812080546110c990615588565b80601f01602080910402602001604051908101604052809291908181526020018280546110f590615588565b80156111425780601f1061111757610100808354040283529160200191611142565b820191906000526020600020905b81548152906001019060200180831161112557829003601f168201915b5050505050905080518686905014801561115d575060008151115b801561118557508051602082012060405161117b90889088906155c2565b6040518091039020145b6111e05760405162461bcd60e51b815260206004820152602660248201527f4c7a4170703a20696e76616c696420736f757263652073656e64696e6720636f6044820152651b9d1c9858dd60d21b60648201526084016110a2565b6112568787878080601f01602080910402602001604051908101604052809392919081815260200183838082843760009201919091525050604080516020601f8a018190048102820181019092528881528a93509150889088908190840183828082843760009201919091525061326b92505050565b50505050505050565b60006001600160e01b03198216158061127c575061127c826132e4565b92915050565b6060600a805461129190615588565b80601f01602080910402602001604051908101604052809291908181526020018280546112bd90615588565b801561130a5780601f106112df5761010080835404028352916020019161130a565b820191906000526020600020905b8154815290600101906020018083116112ed57829003601f168201915b5050505050905090565b61131c613324565b6040516307e0db1760e01b815261ffff821660048201527f00000000000000000000000000000000000000000000000000000000000000006001600160a01b0316906307e0db17906024015b600060405180830381600087803b15801561138257600080fd5b505af1158015611396573d6000803e3d6000fd5b5050505050565b60006113a88261337e565b506000908152600e60205260409020546001600160a01b031690565b816113ce816133ce565b6113d88383613487565b505050565b6113e5613324565b6000811161144b5760405162461bcd60e51b815260206004820152602d60248201527f4f4e46543732313a206d696e476173546f5472616e73666572416e6453746f7260448201526c065206d757374206265203e203609c1b60648201526084016110a2565b600655565b611458613324565b61ffff909116600090815260036020526040902055565b611477613324565b6040516310ddb13760e01b815261ffff821660048201527f00000000000000000000000000000000000000000000000000000000000000006001600160a01b0316906310ddb13790602401611368565b6114cf613324565b601680546001600160a01b0319166001600160a01b0392909216919091179055565b826001600160a01b038116331461150b5761150b336133ce565b611516848484613597565b50505050565b600080611534878761152d886135c9565b8787613074565b915091509550959350505050565b61154a613324565b601155565b60008060ff841660021480611567575060ff84166003145b6115b35760405162461bcd60e51b815260206004820152601a60248201527f44616442726f733a20496e76616c6964206d696e74207479706500000000000060448201526064016110a2565b6040805160a08101825260008082526020820181905291810182905260608101829052608081019190915260011960ff861601611650576040518060a0016040528060145460001461160757601454611609565b425b8152601254600160301b90046001600160801b0316602082015265886c98b7600060408201526551dac207a00060608201526611c37937e0800060809091015290506116b7565b60021960ff8616016116b7576040518060a001604052806015546000146116795760155461167b565b425b81526013546001600160801b0316602082015265886c98b7600060408201526551dac207a0006060820152662386f26fc1000060809091015290505b6000806116c8838761ffff16613614565b909250905060ff871660031480156116e5575060058661ffff1610155b1561172d578561ffff166014036116fb57601395505b600a6117086005886155fe565b6117169061ffff168361561f565b6117209190615636565b61172a908261564a565b90505b9093509150505b9250929050565b6016546001600160a01b031633148061175e57506000546001600160a01b031633145b61177a5760405162461bcd60e51b81526004016110a29061565d565b601c805461ff001981166101009182900460ff1615909102179055565b6016546001600160a01b03163314806117ba57506000546001600160a01b031633145b6117d65760405162461bcd60e51b81526004016110a29061565d565b6016546001600160a01b031661182e5760405162461bcd60e51b815260206004820152601d60248201527f44616442726f733a2042656e6566696369617279206e6f74207365742100000060448201526064016110a2565b601154479060009061271090611844908461561f565b61184e9190615636565b6016549091506001600160a01b03166108fc61186a838561564a565b6040518115909202916000818181858888f1935050505061188a57600080fd5b6017546040516001600160a01b039091169082156108fc029083906000818181858888f193505050506118bc57600080fd5b5050565b61ffff8316600090815260016020526040812080548291906118e190615588565b80601f016020809104026020016040519081016040528092919081815260200182805461190d90615588565b801561195a5780601f1061192f5761010080835404028352916020019161195a565b820191906000526020600020905b81548152906001019060200180831161193d57829003601f168201915b5050505050905083836040516119719291906155c2565b60405180910390208180519060200120149150509392505050565b826001600160a01b03811633146119a6576119a6336133ce565b6115168484846137a8565b6119b9613324565b6040516342d65a8d60e01b81526001600160a01b037f000000000000000000000000000000000000000000000000000000000000000016906342d65a8d90611a09908690869086906004016156cc565b600060405180830381600087803b158015611a2357600080fd5b505af1158015611256573d6000803e3d6000fd5b6016546001600160a01b0316331480611a5a57506000546001600160a01b031633145b611a765760405162461bcd60e51b81526004016110a29061565d565b601b6118bc8282615730565b611256878787611a91886135c9565b8787876137c3565b6016546001600160a01b0316331480611abc57506000546001600160a01b031633145b611ad85760405162461bcd60e51b81526004016110a29061565d565b601a6118bc8282615730565b6000818152600c60205260408120546001600160a01b03168061127c5760405162461bcd60e51b8152602060048201526018602482015277115490cdcc8c4e881a5b9d985b1a59081d1bdad95b88125160421b60448201526064016110a2565b333014611ba25760405162461bcd60e51b815260206004820152602660248201527f4e6f6e626c6f636b696e674c7a4170703a2063616c6c6572206d7573742062656044820152650204c7a4170760d41b60648201526084016110a2565b611c188686868080601f01602080910402602001604051908101604052809392919081815260200183838082843760009201919091525050604080516020601f8901819004810282018101909252878152899350915087908790819084018382808284376000920191909152506139aa92505050565b505050505050565b60006001600160a01b038216611c8a5760405162461bcd60e51b815260206004820152602960248201527f4552433732313a2061646472657373207a65726f206973206e6f7420612076616044820152683634b21037bbb732b960b91b60648201526084016110a2565b506001600160a01b03166000908152600d602052604090205490565b611cae613324565b611cb86000613b01565b565b60016020526000908152604090208054611cd390615588565b80601f0160208091040260200160405190810160405280929190818152602001828054611cff90615588565b8015611d4c5780601f10611d2157610100808354040283529160200191611d4c565b820191906000526020600020905b815481529060010190602001808311611d2f57829003601f168201915b505050505081565b6016546001600160a01b0316331480611d7757506000546001600160a01b031633145b611d935760405162461bcd60e51b81526004016110a29061565d565b81636672656560e01b03611da75760185550565b8166667269656e647360c81b036118bc5760195550565b611dc6613324565b601780546001600160a01b0319166001600160a01b0392909216919091179055565b6016546001600160a01b0316331480611e0b57506000546001600160a01b031633145b611e275760405162461bcd60e51b81526004016110a29061565d565b60185415801590611e39575060195415155b611e855760405162461bcd60e51b815260206004820152601c60248201527f44616442726f733a204d65726b6c6520726f6f74206e6f74207365740000000060448201526064016110a2565b601c805460ff19811660ff90911615179055565b80516020808301919091206000818152600990925260409091206002015460ff16611f065760405162461bcd60e51b815260206004820152601a60248201527f4f4e46543732313a206e6f20637265646974732073746f72656400000000000060448201526064016110a2565b600082806020019051810190611f1c9190615834565b60008481526009602052604081208054600190910154929450909250611f589161ffff8216916201000090046001600160a01b03169085613b51565b6000848152600960205260409020600101549091508111611fd65760405162461bcd60e51b815260206004820152603260248201527f4f4e46543732313a206e6f7420656e6f7567682067617320746f2070726f636560448201527139b99031b932b234ba103a3930b739b332b960711b60648201526084016110a2565b8151810361204d5760008381526009602052604080822080546001600160b01b031916815560018101929092556002909101805460ff19169055517fd7be02b8dd0d27bd0517a9cb4d7469ce27df4313821ae5ec1ff69acc594ba233906120409085815260200190565b60405180910390a1611516565b60408051608081018252600085815260096020818152848320805461ffff8082168752620100008083046001600160a01b03908116868a019081529989019a8b52600160608a018181529d9098529590945295519651969095166001600160b01b031990951694909417949091160292909217815591519082015591516002909201805460ff1916921515929092179091555050565b6060600b805461129190615588565b6120fa613324565b6000811161215e5760405162461bcd60e51b815260206004820152602b60248201527f4f4e46543732313a20647374436861696e4964546f42617463684c696d69742060448201526a06d757374206265203e20360ac1b60648201526084016110a2565b61ffff909116600090815260076020526040902055565b61ffff811660009081526001602052604081208054606092919061219890615588565b80601f01602080910402602001604051908101604052809291908181526020018280546121c490615588565b80156122115780601f106121e657610100808354040283529160200191612211565b820191906000526020600020905b8154815290600101906020018083116121f457829003601f168201915b5050505050905080516000036122695760405162461bcd60e51b815260206004820152601d60248201527f4c7a4170703a206e6f20747275737465642070617468207265636f726400000060448201526064016110a2565b61228460006014835161227c919061564a565b839190613b9d565b9392505050565b81612295816133ce565b6113d88383613caa565b6122a7613324565b8181306040516020016122bc939291906158ee565b60408051601f1981840301815291815261ffff85166000908152600160205220906122e79082615730565b507f8c0400cfe2d1199b1a725c78960bcc2a344d869b80590d0f2bd005db15a572ce83838360405161231b939291906156cc565b60405180910390a1505050565b611256878787878787876137c3565b601c5460ff1615156001146123995760405162461bcd60e51b815260206004820152602260248201527f44616442726f733a2053616c6520686173206e6f742073746172746564207965604482015261742160f01b60648201526084016110a2565b60008561ffff16116123ed5760405162461bcd60e51b815260206004820152601d60248201527f44616442726f733a2043616e6e6f74206d696e74203020746f6b656e7300000060448201526064016110a2565b601254610bb8906124029061ffff1687615914565b61ffff1611156124245760405162461bcd60e51b81526004016110a290615936565b60ff841660011480612439575060ff84166002145b80612447575060ff84166003145b6124935760405162461bcd60e51b815260206004820152601a60248201527f44616442726f733a20496e76616c6964206d696e74207479706500000000000060448201526064016110a2565b60ff84166000818152601d6020908152604080832033845290915281205461ffff1691819060001901612635576012546102bc906124de908a90640100000000900461ffff16615914565b61ffff1611156125005760405162461bcd60e51b81526004016110a290615936565b8361250f61ffff8a168561596d565b111561252d5760405162461bcd60e51b81526004016110a290615980565b600461ffff891611156125525760405162461bcd60e51b81526004016110a2906159c7565b60006125db8787808060200260200160405190810160405280939291908181526020018383602002808284376000920191909152505060185491503390505b886040516020016125c092919060609290921b6bffffffffffffffffffffffff19168252601482015260340190565b60405160208183030381529060405280519060200120613cb5565b905060018115151461262f5760405162461bcd60e51b815260206004820152601d60248201527f44616442726f733a20496e76616c6964204d65726b6c652050726f6f6600000060448201526064016110a2565b50612891565b60011960ff8816016127c8578361265061ffff8a168561596d565b111561266e5760405162461bcd60e51b81526004016110a290615980565b6012546108fc9061268a908a9062010000900461ffff16615914565b61ffff1611156126ac5760405162461bcd60e51b81526004016110a290615936565b600561ffff891611156126d15760405162461bcd60e51b81526004016110a2906159c7565b6000612714878780806020026020016040519081016040528093929190818152602001838360200280828437600092019190915250506019549150339050612591565b90506001811515146127685760405162461bcd60e51b815260206004820152601d60248201527f44616442726f733a20496e76616c6964204d65726b6c652050726f6f6600000060448201526064016110a2565b5061277460028961154f565b9092509050348111156127c35760405162461bcd60e51b8152602060048201526017602482015276088c2c884e4dee674409cdee840cadcdeeaced0408aa89604b1b60448201526064016110a2565b612891565b60021960ff88160161289157601461ffff891611156127f95760405162461bcd60e51b81526004016110a2906159c7565b6012546108fc90612815908a9062010000900461ffff16615914565b61ffff1611156128375760405162461bcd60e51b81526004016110a290615936565b61284260038961154f565b9092509050348111156128915760405162461bcd60e51b8152602060048201526017602482015276088c2c884e4dee674409cdee840cadcdeeaced0408aa89604b1b60448201526064016110a2565b60125461ffff1660005b8961ffff168161ffff1610156128d6576128c4336128b884615a0b565b93508361ffff16613ccb565b806128ce81615a0b565b91505061289b565b506012805461ffff191661ffff8381169190911790915560ff89166000908152601d60209081526040808320338452909152812080548c9391929161291d91859116615914565b92506101000a81548161ffff021916908361ffff160217905550600260ff168860ff16036129b4576012805475ffffffffffffffffffffffffffffffff0000000000001916600160301b6001600160801b0386160217808255426014558a919060029061299590849062010000900461ffff16615914565b92506101000a81548161ffff021916908361ffff160217905550612a41565b60021960ff891601612a0757601380546fffffffffffffffffffffffffffffffff19166001600160801b03851617905542601555601280548a919060029061299590849062010000900461ffff16615914565b88601260048282829054906101000a900461ffff16612a269190615914565b92506101000a81548161ffff021916908361ffff1602179055505b505050505050505050565b836001600160a01b0381163314612a6657612a66336133ce565b61139685858585613e38565b612a7a613324565b600480546001600160a01b0319166001600160a01b0383169081179091556040519081527f5db758e995a17ec1ad84bdef7e8c3293a0bd6179bcce400dff5d4c3d87db726b9060200160405180910390a150565b6060612ad982613e6a565b612b3d5760405162461bcd60e51b815260206004820152602f60248201527f4552433732314d657461646174613a2055524920717565727920666f72206e6f60448201526e3732bc34b9ba32b73a103a37b5b2b760891b60648201526084016110a2565b601c54610100900460ff16612bde57601b8054612b5990615588565b80601f0160208091040260200160405190810160405280929190818152602001828054612b8590615588565b8015612bd25780601f10612ba757610100808354040283529160200191612bd2565b820191906000526020600020905b815481529060010190602001808311612bb557829003601f168201915b50505050509050919050565b612be6613e87565b612bef83613e96565b604051602001612c00929190615a2c565b6040516020818303038152906040529050919050565b612c1e613324565b6040516332fb62e760e21b81526001600160a01b037f0000000000000000000000000000000000000000000000000000000000000000169063cbed8b9c90612c729088908890889088908890600401615a5b565b600060405180830381600087803b158015612c8c57600080fd5b505af1158015612a41573d6000803e3d6000fd5b612ca8613324565b60008111612d0d5760405162461bcd60e51b815260206004820152602c60248201527f4f4e46543732313a20647374436861696e4964546f5472616e7366657247617360448201526b0206d757374206265203e20360a41b60648201526084016110a2565b61ffff909116600090815260086020526040902055565b61ffff86166000908152600560205260408082209051612d4790889088906155c2565b90815260408051602092819003830190206001600160401b03871660009081529252902054905080612dc75760405162461bcd60e51b815260206004820152602360248201527f4e6f6e626c6f636b696e674c7a4170703a206e6f2073746f726564206d65737360448201526261676560e81b60648201526084016110a2565b808383604051612dd89291906155c2565b604051809103902014612e375760405162461bcd60e51b815260206004820152602160248201527f4e6f6e626c6f636b696e674c7a4170703a20696e76616c6964207061796c6f616044820152601960fa1b60648201526084016110a2565b61ffff87166000908152600560205260408082209051612e5a90899089906155c2565b90815260408051602092819003830181206001600160401b038916600090815290845282902093909355601f88018290048202830182019052868252612ef2918991899089908190840183828082843760009201919091525050604080516020601f8a018190048102820181019092528881528a9350915088908890819084018382808284376000920191909152506139aa92505050565b7fc264d91f3adc5588250e1551f547752ca0cfa8f6b530d243b9f9f4cab10ea8e58787878785604051612f29959493929190615a94565b60405180910390a150505050505050565b612f42613324565b60008111612f8a5760405162461bcd60e51b81526020600482015260156024820152744c7a4170703a20696e76616c6964206d696e47617360581b60448201526064016110a2565b61ffff83811660008181526002602090815260408083209487168084529482529182902085905581519283528201929092529081018290527f9d5c7c0b934da8fefa9c7760c98383778a12dfbfc0c3b3106518f43fb9508ac09060600161231b565b6001600160a01b039182166000908152600f6020908152604080832093909416825291909152205460ff1690565b613022613324565b61ffff83166000908152600160205260409020613040828483615acf565b507ffa41487ad5d6728f0b19276fa1eddc16558578f5109fc39d2dc33c3230470dab83838360405161231b939291906156cc565b6000806000868660405160200161308c929190615bc9565b60408051601f198184030181529082905263040a7bb160e41b825291506001600160a01b037f000000000000000000000000000000000000000000000000000000000000000016906340a7bb10906130f0908b90309086908b908b90600401615bf7565b6040805180830381865afa15801561310c573d6000803e3d6000fd5b505050506040513d601f19601f820116820180604052508101906131309190615c4b565b92509250509550959350505050565b613147613324565b6001600160a01b0381166131ac5760405162461bcd60e51b815260206004820152602660248201527f4f776e61626c653a206e6577206f776e657220697320746865207a65726f206160448201526564647265737360d01b60648201526084016110a2565b6131b581613b01565b50565b604051633d7b2f6f60e21b815261ffff808616600483015284166024820152306044820152606481018290526060907f00000000000000000000000000000000000000000000000000000000000000006001600160a01b03169063f5ecbdbc90608401600060405180830381865afa158015613238573d6000803e3d6000fd5b505050506040513d6000823e601f3d908101601f191682016040526132609190810190615c6f565b90505b949350505050565b6000806132ce5a60966366ad5c8a60e01b898989896040516024016132939493929190615ca3565b60408051601f198184030181529190526020810180516001600160e01b03166001600160e01b03199093169290921790915230929190613f28565b9150915081611c1857611c188686868685613fb2565b60006001600160e01b031982166380ac58cd60e01b148061331557506001600160e01b03198216635b5e139f60e01b145b8061127c575061127c8261404f565b6000546001600160a01b03163314611cb85760405162461bcd60e51b815260206004820181905260248201527f4f776e61626c653a2063616c6c6572206973206e6f7420746865206f776e657260448201526064016110a2565b61338781613e6a565b6131b55760405162461bcd60e51b8152602060048201526018602482015277115490cdcc8c4e881a5b9d985b1a59081d1bdad95b88125160421b60448201526064016110a2565b6daaeb6d7670e522a718067333cd4e3b156131b557604051633185c44d60e21b81523060048201526001600160a01b03821660248201526daaeb6d7670e522a718067333cd4e9063c617113490604401602060405180830381865afa15801561343b573d6000803e3d6000fd5b505050506040513d601f19601f8201168201806040525081019061345f9190615ce1565b6131b557604051633b79c77360e21b81526001600160a01b03821660048201526024016110a2565b600061349282611ae4565b9050806001600160a01b0316836001600160a01b0316036134ff5760405162461bcd60e51b815260206004820152602160248201527f4552433732313a20617070726f76616c20746f2063757272656e74206f776e656044820152603960f91b60648201526084016110a2565b336001600160a01b038216148061351b575061351b8133612fec565b61358d5760405162461bcd60e51b815260206004820152603d60248201527f4552433732313a20617070726f76652063616c6c6572206973206e6f7420746f60448201527f6b656e206f776e6572206f7220617070726f76656420666f7220616c6c00000060648201526084016110a2565b6113d88383614084565b6135a2335b826140f2565b6135be5760405162461bcd60e51b81526004016110a290615cfe565b6113d8838383614150565b6040805160018082528183019092526060916000919060208083019080368337019050509050828160008151811061360357613603615d4b565b602090810291909101015292915050565b60008083604001516001600160801b031660000361364d576020840151613644846001600160801b03831661561f565b91509150611734565b835160009061384090613660904261564a565b86606001516001600160801b0316613678919061561f565b6136829190615636565b905060008486604001516001600160801b031661369f919061561f565b86602001516001600160801b03166136b7919061596d565b90508082106136c4578091505b6136ce828261564a565b905085608001516001600160801b03168110156136f5575060808501516001600160801b03165b6001600160801b038111156137425760405162461bcd60e51b815260206004820152601360248201527253504f545f50524943455f4f564552464c4f5760681b60448201526064016110a2565b809350600286604001516001600160801b0316600187613762919061564a565b61376c908861561f565b613776919061561f565b6137809190615636565b6137936001600160801b0386168761561f565b61379d919061596d565b925050509250929050565b6113d883838360405180602001604052806000815250612a4c565b60008451116138145760405162461bcd60e51b815260206004820152601a60248201527f4c7a4170703a20746f6b656e4964735b5d20697320656d70747900000000000060448201526064016110a2565b835160011480613838575061ffff8616600090815260076020526040902054845111155b6138985760405162461bcd60e51b815260206004820152602b60248201527f4f4e46543732313a2062617463682073697a652065786365656473206473742060448201526a18985d18da081b1a5b5a5d60aa1b60648201526084016110a2565b60005b84518110156138db576138c98888888885815181106138bc576138bc615d4b565b60200260200101516142b4565b806138d381615d61565b91505061389b565b50600085856040516020016138f1929190615bc9565b6040516020818303038152906040529050613936876001848851600860008d61ffff1661ffff16815260200190815260200160002054613931919061561f565b61439f565b61394487828686863461447e565b856040516139529190615d7a565b6040518091039020886001600160a01b03168861ffff167fe1b87c47fdeb4f9cbadbca9df3af7aba453bb6e501075d0440d88125b711522a886040516139989190615d96565b60405180910390a45050505050505050565b600080828060200190518101906139c19190615834565b6014820151919350915060006139d988838386613b51565b90508251811015613aad5784516020808701919091206040805160808101825261ffff808d1682526001600160a01b0380881683870190815283850188815260016060860181815260008981526009909a529887902095518654935190941662010000026001600160b01b03199093169390941692909217178355519082015592516002909301805493151560ff199094169390931790925590517f10e0b70d256bccc84b7027506978bd8b68984a870788b93b479def144c839ad790613aa39083908990615da9565b60405180910390a1505b816001600160a01b031687604051613ac59190615d7a565b60405180910390208961ffff167f5b821db8a46f8ecbe1941ba2f51cfeea9643268b56631f70d45e2a745d990265866040516139989190615d96565b600080546001600160a01b038381166001600160a01b0319831681178455604051919092169283917f8be0079c531659141344cd1fd0a4f28419497f9722a3daafe3b4186f6b6457e09190a35050565b6000825b8251811015613260576006545a1061326057613b8b8686858481518110613b7e57613b7e615d4b565b6020026020010151614623565b80613b9581615d61565b915050613b55565b606081613bab81601f61596d565b1015613bea5760405162461bcd60e51b815260206004820152600e60248201526d736c6963655f6f766572666c6f7760901b60448201526064016110a2565b613bf4828461596d565b84511015613c385760405162461bcd60e51b8152602060048201526011602482015270736c6963655f6f75744f66426f756e647360781b60448201526064016110a2565b606082158015613c575760405191506000825260208201604052613ca1565b6040519150601f8416801560200281840101858101878315602002848b0101015b81831015613c90578051835260209283019201613c78565b5050858452601f01601f1916604052505b50949350505050565b6118bc338383614683565b600082613cc28584614751565b14949350505050565b6001600160a01b038216613d215760405162461bcd60e51b815260206004820181905260248201527f4552433732313a206d696e7420746f20746865207a65726f206164647265737360448201526064016110a2565b613d2a81613e6a565b15613d775760405162461bcd60e51b815260206004820152601c60248201527f4552433732313a20746f6b656e20616c7265616479206d696e7465640000000060448201526064016110a2565b613d8081613e6a565b15613dcd5760405162461bcd60e51b815260206004820152601c60248201527f4552433732313a20746f6b656e20616c7265616479206d696e7465640000000060448201526064016110a2565b6001600160a01b0382166000818152600d6020908152604080832080546001019055848352600c90915280822080546001600160a01b0319168417905551839291907fddf252ad1be2c89b69c2b068fc378daa952ba7f163c4a11628f55a4df523b3ef908290a45050565b613e4233836140f2565b613e5e5760405162461bcd60e51b81526004016110a290615cfe565b6115168484848461479e565b6000908152600c60205260409020546001600160a01b0316151590565b6060601a805461129190615588565b60606000613ea3836147d1565b60010190506000816001600160401b03811115613ec257613ec2614d7f565b6040519080825280601f01601f191660200182016040528015613eec576020820181803683370190505b5090508181016020015b600019016f181899199a1a9b1b9c1cb0b131b232b360811b600a86061a8153600a8504945084613ef657509392505050565b6000606060008060008661ffff166001600160401b03811115613f4d57613f4d614d7f565b6040519080825280601f01601f191660200182016040528015613f77576020820181803683370190505b50905060008087516020890160008d8df191503d925086831115613f99578692505b828152826000602083013e909890975095505050505050565b8180519060200120600560008761ffff1661ffff16815260200190815260200160002085604051613fe39190615d7a565b9081526040805191829003602090810183206001600160401b0388166000908152915220919091557fe183f33de2837795525b4792ca4cd60535bd77c53b7e7030060bfcf5734d6b0c906140409087908790879087908790615dc2565b60405180910390a15050505050565b60006001600160e01b031982166322bac5d960e01b148061127c57506301ffc9a760e01b6001600160e01b031983161461127c565b6000818152600e6020526040902080546001600160a01b0319166001600160a01b03841690811790915581906140b982611ae4565b6001600160a01b03167f8c5be1e5ebec7d5bd14f71427d1e84f3dd0314c0f7b2291e5b200ac8c7c3b92560405160405180910390a45050565b6000806140fe83611ae4565b9050806001600160a01b0316846001600160a01b0316148061412557506141258185612fec565b806132635750836001600160a01b031661413e8461139d565b6001600160a01b031614949350505050565b826001600160a01b031661416382611ae4565b6001600160a01b0316146141895760405162461bcd60e51b81526004016110a290615e14565b6001600160a01b0382166141eb5760405162461bcd60e51b8152602060048201526024808201527f4552433732313a207472616e7366657220746f20746865207a65726f206164646044820152637265737360e01b60648201526084016110a2565b826001600160a01b03166141fe82611ae4565b6001600160a01b0316146142245760405162461bcd60e51b81526004016110a290615e14565b6000818152600e6020908152604080832080546001600160a01b03199081169091556001600160a01b03878116808652600d8552838620805460001901905590871680865283862080546001019055868652600c90945282852080549092168417909155905184937fddf252ad1be2c89b69c2b068fc378daa952ba7f163c4a11628f55a4df523b3ef91a4505050565b6142bd3361359c565b6143205760405162461bcd60e51b815260206004820152602e60248201527f4f4e46543732313a2073656e642063616c6c6572206973206e6f74206f776e6560448201526d1c881b9bdc88185c1c1c9bdd995960921b60648201526084016110a2565b836001600160a01b031661433382611ae4565b6001600160a01b0316146143945760405162461bcd60e51b815260206004820152602260248201527f4f4e46543732313a2073656e642066726f6d20696e636f7272656374206f776e60448201526132b960f11b60648201526084016110a2565b611516843083614150565b60006143aa836148a9565b61ffff8087166000908152600260209081526040808320938916835292905290812054919250906143dc90849061596d565b90506000811161442e5760405162461bcd60e51b815260206004820152601a60248201527f4c7a4170703a206d696e4761734c696d6974206e6f742073657400000000000060448201526064016110a2565b80821015611c185760405162461bcd60e51b815260206004820152601b60248201527f4c7a4170703a20676173206c696d697420697320746f6f206c6f77000000000060448201526064016110a2565b61ffff86166000908152600160205260408120805461449c90615588565b80601f01602080910402602001604051908101604052809291908181526020018280546144c890615588565b80156145155780601f106144ea57610100808354040283529160200191614515565b820191906000526020600020905b8154815290600101906020018083116144f857829003601f168201915b5050505050905080516000036145865760405162461bcd60e51b815260206004820152603060248201527f4c7a4170703a2064657374696e6174696f6e20636861696e206973206e6f742060448201526f61207472757374656420736f7572636560801b60648201526084016110a2565b614591878751614905565b60405162c5803160e81b81526001600160a01b037f0000000000000000000000000000000000000000000000000000000000000000169063c58031009084906145e8908b9086908c908c908c908c90600401615e59565b6000604051808303818588803b15801561460157600080fd5b505af1158015614615573d6000803e3d6000fd5b505050505050505050505050565b61462c81613e6a565b1580614658575061463c81613e6a565b801561465857503061464d82611ae4565b6001600160a01b0316145b61466157600080fd5b61466a81613e6a565b614678576113d88282614976565b6113d8308383614150565b816001600160a01b0316836001600160a01b0316036146e45760405162461bcd60e51b815260206004820152601960248201527f4552433732313a20617070726f766520746f2063616c6c65720000000000000060448201526064016110a2565b6001600160a01b038381166000818152600f6020908152604080832094871680845294825291829020805460ff191686151590811790915591519182527f17307eab39ab6107e8899845ad3d59bd9653f200f220920489ca2b5937696c31910160405180910390a3505050565b600081815b8451811015614796576147828286838151811061477557614775615d4b565b6020026020010151614990565b91508061478e81615d61565b915050614756565b509392505050565b6147a9848484614150565b6147b5848484846149bc565b6115165760405162461bcd60e51b81526004016110a290615ec0565b60008072184f03e93ff9f4daa797ed6e38ed64bf6a1f0160401b83106148105772184f03e93ff9f4daa797ed6e38ed64bf6a1f0160401b830492506040015b6d04ee2d6d415b85acef8100000000831061483c576d04ee2d6d415b85acef8100000000830492506020015b662386f26fc10000831061485a57662386f26fc10000830492506010015b6305f5e1008310614872576305f5e100830492506008015b612710831061488657612710830492506004015b60648310614898576064830492506002015b600a831061127c5760010192915050565b60006022825110156148fd5760405162461bcd60e51b815260206004820152601c60248201527f4c7a4170703a20696e76616c69642061646170746572506172616d730000000060448201526064016110a2565b506022015190565b61ffff82166000908152600360205260408120549081900361492657506127105b808211156113d85760405162461bcd60e51b815260206004820181905260248201527f4c7a4170703a207061796c6f61642073697a6520697320746f6f206c6172676560448201526064016110a2565b6118bc828260405180602001604052806000815250614aba565b60008183106149ac576000828152602084905260409020612284565b5060009182526020526040902090565b60006001600160a01b0384163b15614ab257604051630a85bd0160e11b81526001600160a01b0385169063150b7a0290614a00903390899088908890600401615f12565b6020604051808303816000875af1925050508015614a3b575060408051601f3d908101601f19168201909252614a3891810190615f4f565b60015b614a98573d808015614a69576040519150601f19603f3d011682016040523d82523d6000602084013e614a6e565b606091505b508051600003614a905760405162461bcd60e51b81526004016110a290615ec0565b805181602001fd5b6001600160e01b031916630a85bd0160e11b149050613263565b506001613263565b614ac48383613ccb565b614ad160008484846149bc565b6113d85760405162461bcd60e51b81526004016110a290615ec0565b803561ffff81168114614aff57600080fd5b919050565b60008083601f840112614b1657600080fd5b5081356001600160401b03811115614b2d57600080fd5b60208301915083602082850101111561173457600080fd5b80356001600160401b0381168114614aff57600080fd5b60008060008060008060808789031215614b7557600080fd5b614b7e87614aed565b955060208701356001600160401b0380821115614b9a57600080fd5b614ba68a838b01614b04565b9097509550859150614bba60408a01614b45565b94506060890135915080821115614bd057600080fd5b50614bdd89828a01614b04565b979a9699509497509295939492505050565b6001600160e01b0319811681146131b557600080fd5b600060208284031215614c1757600080fd5b813561228481614bef565b60005b83811015614c3d578181015183820152602001614c25565b50506000910152565b60008151808452614c5e816020860160208601614c22565b601f01601f19169290920160200192915050565b6020815260006122846020830184614c46565b600060208284031215614c9757600080fd5b61228482614aed565b600060208284031215614cb257600080fd5b5035919050565b6001600160a01b03811681146131b557600080fd5b8035614aff81614cb9565b60008060408385031215614cec57600080fd5b8235614cf781614cb9565b946020939093013593505050565b60008060408385031215614d1857600080fd5b614cf783614aed565b600060208284031215614d3357600080fd5b813561228481614cb9565b600080600060608486031215614d5357600080fd5b8335614d5e81614cb9565b92506020840135614d6e81614cb9565b929592945050506040919091013590565b634e487b7160e01b600052604160045260246000fd5b604051601f8201601f191681016001600160401b0381118282101715614dbd57614dbd614d7f565b604052919050565b60006001600160401b03821115614dde57614dde614d7f565b50601f01601f191660200190565b6000614dff614dfa84614dc5565b614d95565b9050828152838383011115614e1357600080fd5b828260208301376000602084830101529392505050565b600082601f830112614e3b57600080fd5b61228483833560208501614dec565b80151581146131b557600080fd5b600080600080600060a08688031215614e7057600080fd5b614e7986614aed565b945060208601356001600160401b0380821115614e9557600080fd5b614ea189838a01614e2a565b95506040880135945060608801359150614eba82614e4a565b90925060808701359080821115614ed057600080fd5b50614edd88828901614e2a565b9150509295509295909350565b803560ff81168114614aff57600080fd5b60008060408385031215614f0e57600080fd5b614f1783614eea565b9150614f2560208401614aed565b90509250929050565b600080600060408486031215614f4357600080fd5b614f4c84614aed565b925060208401356001600160401b03811115614f6757600080fd5b614f7386828701614b04565b9497909650939450505050565b600060208284031215614f9257600080fd5b81356001600160401b03811115614fa857600080fd5b8201601f81018413614fb957600080fd5b61326384823560208401614dec565b600080600080600080600060e0888a031215614fe357600080fd5b8735614fee81614cb9565b9650614ffc60208901614aed565b955060408801356001600160401b038082111561501857600080fd5b6150248b838c01614e2a565b965060608a0135955060808a0135915061503d82614cb9565b90935060a08901359061504f82614cb9565b90925060c0890135908082111561506557600080fd5b506150728a828b01614e2a565b91505092959891949750929550565b60008060006060848603121561509657600080fd5b61509f84614aed565b925060208401356001600160401b038111156150ba57600080fd5b6150c686828701614e2a565b9250506150d560408501614b45565b90509250925092565b600080604083850312156150f157600080fd5b50508035926020909101359150565b6000806040838503121561511357600080fd5b614f1783614aed565b60006020828403121561512e57600080fd5b81356001600160401b0381111561514457600080fd5b61326384828501614e2a565b6000806040838503121561516357600080fd5b61516c83614eea565b9150602083013561517c81614cb9565b809150509250929050565b6000806040838503121561519a57600080fd5b82356151a581614cb9565b9150602083013561517c81614e4a565b60006001600160401b038211156151ce576151ce614d7f565b5060051b60200190565b600082601f8301126151e957600080fd5b813560206151f9614dfa836151b5565b82815260059290921b8401810191818101908684111561521857600080fd5b8286015b84811015615233578035835291830191830161521c565b509695505050505050565b600080600080600080600060e0888a03121561525957600080fd5b873561526481614cb9565b965061527260208901614aed565b955060408801356001600160401b038082111561528e57600080fd5b61529a8b838c01614e2a565b965060608a01359150808211156152b057600080fd5b6152bc8b838c016151d8565b955060808a013591506152ce82614cb9565b8194506152dd60a08b01614cce565b935060c08a013591508082111561506557600080fd5b60008060008060006080868803121561530b57600080fd5b61531486614aed565b945061532260208701614eea565b935060408601356001600160401b038082111561533e57600080fd5b818801915088601f83011261535257600080fd5b81358181111561536157600080fd5b8960208260051b850101111561537657600080fd5b96999598505060200195606001359392505050565b600080600080608085870312156153a157600080fd5b84356153ac81614cb9565b935060208501356153bc81614cb9565b92506040850135915060608501356001600160401b038111156153de57600080fd5b6153ea87828801614e2a565b91505092959194509250565b60008060008060006080868803121561540e57600080fd5b61541786614aed565b945061542560208701614aed565b93506040860135925060608601356001600160401b0381111561544757600080fd5b61545388828901614b04565b969995985093965092949392505050565b60008060006060848603121561547957600080fd5b61548284614aed565b925061549060208501614aed565b9150604084013590509250925092565b600080604083850312156154b357600080fd5b823561516c81614cb9565b600080600080600060a086880312156154d657600080fd5b6154df86614aed565b945060208601356001600160401b03808211156154fb57600080fd5b61550789838a01614e2a565b9550604088013591508082111561551d57600080fd5b61552989838a016151d8565b945060608801359150614eba82614e4a565b6000806000806080858703121561555157600080fd5b61555a85614aed565b935061556860208601614aed565b9250604085013561557881614cb9565b9396929550929360600135925050565b600181811c9082168061559c57607f821691505b6020821081036155bc57634e487b7160e01b600052602260045260246000fd5b50919050565b8183823760009101908152919050565b634e487b7160e01b600052601260045260246000fd5b634e487b7160e01b600052601160045260246000fd5b600061ffff80841680615613576156136155d2565b92169190910492915050565b808202811582820484141761127c5761127c6155e8565b600082615645576156456155d2565b500490565b8181038181111561127c5761127c6155e8565b60208082526026908201527f44616442726f733a2063616c6c6572206973206e6f74207468652062656e656660408201526569636961727960d01b606082015260800190565b81835281816020850137506000828201602090810191909152601f909101601f19169091010190565b61ffff841681526040602082015260006132606040830184866156a3565b601f8211156113d857600081815260208120601f850160051c810160208610156157115750805b601f850160051c820191505b81811015611c185782815560010161571d565b81516001600160401b0381111561574957615749614d7f565b61575d816157578454615588565b846156ea565b602080601f831160018114615792576000841561577a5750858301515b600019600386901b1c1916600185901b178555611c18565b600085815260208120601f198616915b828110156157c1578886015182559484019460019091019084016157a2565b50858210156157df5787850151600019600388901b60f8161c191681555b5050505050600190811b01905550565b600082601f83011261580057600080fd5b815161580e614dfa82614dc5565b81815284602083860101111561582357600080fd5b613263826020830160208701614c22565b6000806040838503121561584757600080fd5b82516001600160401b038082111561585e57600080fd5b61586a868387016157ef565b935060209150818501518181111561588157600080fd5b85019050601f8101861361589457600080fd5b80516158a2614dfa826151b5565b81815260059190911b820183019083810190888311156158c157600080fd5b928401925b828410156158df578351825292840192908401906158c6565b80955050505050509250929050565b8284823760609190911b6bffffffffffffffffffffffff19169101908152601401919050565b61ffff81811683821601908082111561592f5761592f6155e8565b5092915050565b6020808252601b908201527f44616442726f733a204d617820737570706c7920726561636865640000000000604082015260600190565b8082018082111561127c5761127c6155e8565b60208082526027908201527f44616442726f733a204d617820746f6b656e73207065722061646472657373206040820152661c995858da195960ca1b606082015260800190565b60208082526024908201527f44616442726f733a204d617820746f6b656e7320706572206d696e742072656160408201526318da195960e21b606082015260800190565b600061ffff808316818103615a2257615a226155e8565b6001019392505050565b60008351615a3e818460208801614c22565b835190830190615a52818360208801614c22565b01949350505050565b600061ffff808816835280871660208401525084604083015260806060830152615a896080830184866156a3565b979650505050505050565b61ffff86168152608060208201526000615ab26080830186886156a3565b6001600160401b0394909416604083015250606001529392505050565b6001600160401b03831115615ae657615ae6614d7f565b615afa83615af48354615588565b836156ea565b6000601f841160018114615b2e5760008515615b165750838201355b600019600387901b1c1916600186901b178355611396565b600083815260209020601f19861690835b82811015615b5f5786850135825560209485019460019092019101615b3f565b5086821015615b7c5760001960f88860031b161c19848701351681555b505060018560011b0183555050505050565b600081518084526020808501945080840160005b83811015615bbe57815187529582019590820190600101615ba2565b509495945050505050565b604081526000615bdc6040830185614c46565b8281036020840152615bee8185615b8e565b95945050505050565b61ffff861681526001600160a01b038516602082015260a060408201819052600090615c2590830186614c46565b84151560608401528281036080840152615c3f8185614c46565b98975050505050505050565b60008060408385031215615c5e57600080fd5b505080516020909101519092909150565b600060208284031215615c8157600080fd5b81516001600160401b03811115615c9757600080fd5b613263848285016157ef565b61ffff85168152608060208201526000615cc06080830186614c46565b6001600160401b03851660408401528281036060840152615a898185614c46565b600060208284031215615cf357600080fd5b815161228481614e4a565b6020808252602d908201527f4552433732313a2063616c6c6572206973206e6f7420746f6b656e206f776e6560408201526c1c881bdc88185c1c1c9bdd9959609a1b606082015260800190565b634e487b7160e01b600052603260045260246000fd5b600060018201615d7357615d736155e8565b5060010190565b60008251615d8c818460208701614c22565b9190910192915050565b6020815260006122846020830184615b8e565b8281526040602082015260006132636040830184614c46565b61ffff8616815260a060208201526000615ddf60a0830187614c46565b6001600160401b03861660408401528281036060840152615e008186614c46565b90508281036080840152615c3f8185614c46565b60208082526025908201527f4552433732313a207472616e736665722066726f6d20696e636f72726563742060408201526437bbb732b960d91b606082015260800190565b61ffff8716815260c060208201526000615e7660c0830188614c46565b8281036040840152615e888188614c46565b6001600160a01b0387811660608601528616608085015283810360a08501529050615eb38185614c46565b9998505050505050505050565b60208082526032908201527f4552433732313a207472616e7366657220746f206e6f6e20455243373231526560408201527131b2b4bb32b91034b6b83632b6b2b73a32b960711b606082015260800190565b6001600160a01b0385811682528416602082015260408101839052608060608201819052600090615f4590830184614c46565b9695505050505050565b600060208284031215615f6157600080fd5b815161228481614bef56fea2646970667358221220ad41359f60152b8594bf0a7caea3274445c080f56c52a94fbbb68421af19381b64736f6c63430008110033",
    "linkReferences": {}
  },
  "methodIdentifiers": {
    "DEFAULT_PAYLOAD_SIZE_LIMIT()": "c4461834",
    "FUNCTION_TYPE_SEND()": "af3fb21c",
    "MAX_MINT_ID_FREE()": "75e731d5",
    "MAX_MINT_ID_FRIENDS()": "fdbc0ef5",
    "MAX_MINT_ID_TOTAL()": "ee683907",
    "MAX_TOKENS_PER_MINT_FREE()": "a9b57f06",
    "MAX_TOKENS_PER_MINT_FRIENDS()": "ebdbdf0a",
    "MAX_TOKENS_PER_MINT_PUBLIC()": "d333be1a",
    "MIN_FRIENDS_PRICE()": "781dc11e",
    "MIN_PUBLIC_PRICE()": "6bb14c21",
    "OPERATOR_FILTER_REGISTRY()": "41f43434",
    "PRICE_DECAY_FRIENDS()": "54d3ba6a",
    "PRICE_DECAY_PUBLIC()": "e7fd4c8c",
    "PRICE_DELTA_FRIENDS()": "275e7633",
    "PRICE_DELTA_PUBLIC()": "6262e756",
    "_saleStarted()": "87c348bf",
    "approve(address,uint256)": "095ea7b3",
    "balanceOf(address)": "70a08231",
    "clearCredits(bytes)": "8ffa1f2a",
    "dstChainIdToBatchLimit(uint16)": "4ac3f4ff",
    "dstChainIdToTransferGas(uint16)": "fa25f9b6",
    "estimateSendBatchFee(uint16,bytes,uint256[],bool,bytes)": "f2353641",
    "estimateSendFee(uint16,bytes,uint256,bool,bytes)": "2a205e3d",
    "failedMessages(uint16,bytes,uint64)": "5b8c41e6",
    "flipRevealed()": "3b2c3fb6",
    "flipSaleStarted()": "899d7b38",
    "forceResumeReceive(uint16,bytes)": "42d65a8d",
    "freeSupply()": "24a6ab0c",
    "friendsAndPublicSupply()": "e220da0f",
    "getApproved(uint256)": "081812fc",
    "getConfig(uint16,uint16,address,uint256)": "f5ecbdbc",
    "getPriceInfo(uint8,uint16)": "31d48611",
    "getTrustedRemoteAddress(uint16)": "9f38369a",
    "isApprovedForAll(address,address)": "e985e9c5",
    "isTrustedRemote(uint16,bytes)": "3d8b38f6",
    "lastUpdateFriends()": "81ac26f6",
    "lastUpdatePublic()": "2e59c84d",
    "lzEndpoint()": "b353aaa7",
    "lzReceive(uint16,bytes,uint64,bytes)": "001d3567",
    "merkleRootFree()": "89ba959c",
    "merkleRootFriends()": "d6926dda",
    "minDstGasLookup(uint16,uint16)": "8cfd8f5c",
    "minGasToTransferAndStore()": "48288190",
    "mint(uint16,uint8,bytes32[],uint256)": "b04765a0",
    "minted(uint8,address)": "94ab0866",
    "name()": "06fdde03",
    "nextMintId()": "6aa99da3",
    "nonblockingLzReceive(uint16,bytes,uint64,bytes)": "66ad5c8a",
    "owner()": "8da5cb5b",
    "ownerOf(uint256)": "6352211e",
    "payloadSizeLimitLookup(uint16)": "3f1f4fa4",
    "precrime()": "950c8a74",
    "renounceOwnership()": "715018a6",
    "retryMessage(uint16,bytes,uint64,bytes)": "d1deba1f",
    "revealed()": "51830227",
    "safeTransferFrom(address,address,uint256)": "42842e0e",
    "safeTransferFrom(address,address,uint256,bytes)": "b88d4fde",
    "sendBatchFrom(address,uint16,bytes,uint256[],address,address,bytes)": "ab3ffb93",
    "sendFrom(address,uint16,bytes,uint256,address,address,bytes)": "51905636",
    "setApprovalForAll(address,bool)": "a22cb465",
    "setBaseURI(string)": "55f804b3",
    "setBeneficiary(address)": "1c31f710",
    "setConfig(uint16,uint16,uint256,bytes)": "cbed8b9c",
    "setDstChainIdToBatchLimit(uint16,uint256)": "9ea5d6b1",
    "setDstChainIdToTransferGas(uint16,uint256)": "d12473a5",
    "setHiddenMetadataUri(string)": "4fdd43cb",
    "setMerkleRoot(bytes32,bytes32)": "75edcbe0",
    "setMinDstGas(uint16,uint16,uint256)": "df2a5b3b",
    "setMinGasToTransferAndStore(uint256)": "0b4cad4c",
    "setPayloadSizeLimit(uint16,uint256)": "0df37483",
    "setPrecrime(address)": "baf3292d",
    "setReceiveVersion(uint16)": "10ddb137",
    "setSendVersion(uint16)": "07e0db17",
    "setTax(uint256)": "2e5bb6ff",
    "setTaxRecipient(address)": "78e3079e",
    "setTrustedRemote(uint16,bytes)": "eb8d72b7",
    "setTrustedRemoteAddress(uint16,bytes)": "a6c3d165",
    "spotPriceFriends()": "df239a7f",
    "spotPricePublic()": "6a51dd9b",
    "storedCredits(bytes32)": "22a3ecf9",
    "supportsInterface(bytes4)": "01ffc9a7",
    "symbol()": "95d89b41",
    "tax()": "99c8d556",
    "tokenURI(uint256)": "c87b56dd",
    "transferFrom(address,address,uint256)": "23b872dd",
    "transferOwnership(address)": "f2fde38b",
    "trustedRemoteLookup(uint16)": "7533d788",
    "withdraw()": "3ccfd60b"
  },
  "id": 9
}