{
  "abi": [
    {
      "inputs": [
        {
          "internalType": "string",
          "name": "_name",
          "type": "string"
        },
        {
          "internalType": "string",
          "name": "_symbol",
          "type": "string"
        },
        {
          "internalType": "string",
          "name": "_baseTokenURI",
          "type": "string"
        },
        {
          "internalType": "uint256",
          "name": "_startMintId",
          "type": "uint256"
        },
        {
          "internalType": "uint256",
          "name": "_endMintId",
          "type": "uint256"
        },
        {
          "internalType": "uint256",
          "name": "_maxTokensPerMint",
          "type": "uint256"
        }
      ],
      "stateMutability": "nonpayable",
      "type": "constructor"
    },
    {
      "anonymous": false,
      "inputs": [
        {
          "indexed": true,
          "internalType": "address",
          "name": "owner",
          "type": "address"
        },
        {
          "indexed": true,
          "internalType": "address",
          "name": "approved",
          "type": "address"
        },
        {
          "indexed": true,
          "internalType": "uint256",
          "name": "tokenId",
          "type": "uint256"
        }
      ],
      "name": "Approval",
      "type": "event"
    },
    {
      "anonymous": false,
      "inputs": [
        {
          "indexed": true,
          "internalType": "address",
          "name": "owner",
          "type": "address"
        },
        {
          "indexed": true,
          "internalType": "address",
          "name": "operator",
          "type": "address"
        },
        {
          "indexed": false,
          "internalType": "bool",
          "name": "approved",
          "type": "bool"
        }
      ],
      "name": "ApprovalForAll",
      "type": "event"
    },
    {
      "anonymous": false,
      "inputs": [
        {
          "indexed": true,
          "internalType": "address",
          "name": "previousOwner",
          "type": "address"
        },
        {
          "indexed": true,
          "internalType": "address",
          "name": "newOwner",
          "type": "address"
        }
      ],
      "name": "OwnershipTransferred",
      "type": "event"
    },
    {
      "anonymous": false,
      "inputs": [
        {
          "indexed": true,
          "internalType": "address",
          "name": "from",
          "type": "address"
        },
        {
          "indexed": true,
          "internalType": "address",
          "name": "to",
          "type": "address"
        },
        {
          "indexed": true,
          "internalType": "uint256",
          "name": "tokenId",
          "type": "uint256"
        }
      ],
      "name": "Transfer",
      "type": "event"
    },
    {
      "inputs": [
        {
          "internalType": "address",
          "name": "to",
          "type": "address"
        },
        {
          "internalType": "uint256",
          "name": "tokenId",
          "type": "uint256"
        }
      ],
      "name": "approve",
      "outputs": [],
      "stateMutability": "nonpayable",
      "type": "function"
    },
    {
      "inputs": [
        {
          "internalType": "address",
          "name": "owner",
          "type": "address"
        }
      ],
      "name": "balanceOf",
      "outputs": [
        {
          "internalType": "uint256",
          "name": "",
          "type": "uint256"
        }
      ],
      "stateMutability": "view",
      "type": "function"
    },
    {
      "inputs": [
        {
          "internalType": "uint256",
          "name": "tokenId",
          "type": "uint256"
        }
      ],
      "name": "getApproved",
      "outputs": [
        {
          "internalType": "address",
          "name": "",
          "type": "address"
        }
      ],
      "stateMutability": "view",
      "type": "function"
    },
    {
      "inputs": [
        {
          "internalType": "address",
          "name": "owner",
          "type": "address"
        },
        {
          "internalType": "address",
          "name": "operator",
          "type": "address"
        }
      ],
      "name": "isApprovedForAll",
      "outputs": [
        {
          "internalType": "bool",
          "name": "",
          "type": "bool"
        }
      ],
      "stateMutability": "view",
      "type": "function"
    },
    {
      "inputs": [],
      "name": "maxMintId",
      "outputs": [
        {
          "internalType": "uint256",
          "name": "",
          "type": "uint256"
        }
      ],
      "stateMutability": "view",
      "type": "function"
    },
    {
      "inputs": [],
      "name": "maxTokensPerMint",
      "outputs": [
        {
          "internalType": "uint256",
          "name": "",
          "type": "uint256"
        }
      ],
      "stateMutability": "view",
      "type": "function"
    },
    {
      "inputs": [],
      "name": "name",
      "outputs": [
        {
          "internalType": "string",
          "name": "",
          "type": "string"
        }
      ],
      "stateMutability": "view",
      "type": "function"
    },
    {
      "inputs": [],
      "name": "nextMintId",
      "outputs": [
        {
          "internalType": "uint256",
          "name": "",
          "type": "uint256"
        }
      ],
      "stateMutability": "view",
      "type": "function"
    },
    {
      "inputs": [],
      "name": "owner",
      "outputs": [
        {
          "internalType": "address",
          "name": "",
          "type": "address"
        }
      ],
      "stateMutability": "view",
      "type": "function"
    },
    {
      "inputs": [
        {
          "internalType": "uint256",
          "name": "tokenId",
          "type": "uint256"
        }
      ],
      "name": "ownerOf",
      "outputs": [
        {
          "internalType": "address",
          "name": "",
          "type": "address"
        }
      ],
      "stateMutability": "view",
      "type": "function"
    },
    {
      "inputs": [
        {
          "internalType": "uint256",
          "name": "_nbTokens",
          "type": "uint256"
        }
      ],
      "name": "publicMint",
      "outputs": [],
      "stateMutability": "nonpayable",
      "type": "function"
    },
    {
      "inputs": [],
      "name": "renounceOwnership",
      "outputs": [],
      "stateMutability": "nonpayable",
      "type": "function"
    },
    {
      "inputs": [
        {
          "internalType": "address",
          "name": "from",
          "type": "address"
        },
        {
          "internalType": "address",
          "name": "to",
          "type": "address"
        },
        {
          "internalType": "uint256",
          "name": "tokenId",
          "type": "uint256"
        }
      ],
      "name": "safeTransferFrom",
      "outputs": [],
      "stateMutability": "nonpayable",
      "type": "function"
    },
    {
      "inputs": [
        {
          "internalType": "address",
          "name": "from",
          "type": "address"
        },
        {
          "internalType": "address",
          "name": "to",
          "type": "address"
        },
        {
          "internalType": "uint256",
          "name": "tokenId",
          "type": "uint256"
        },
        {
          "internalType": "bytes",
          "name": "data",
          "type": "bytes"
        }
      ],
      "name": "safeTransferFrom",
      "outputs": [],
      "stateMutability": "nonpayable",
      "type": "function"
    },
    {
      "inputs": [
        {
          "internalType": "address",
          "name": "operator",
          "type": "address"
        },
        {
          "internalType": "bool",
          "name": "approved",
          "type": "bool"
        }
      ],
      "name": "setApprovalForAll",
      "outputs": [],
      "stateMutability": "nonpayable",
      "type": "function"
    },
    {
      "inputs": [
        {
          "internalType": "bytes4",
          "name": "interfaceId",
          "type": "bytes4"
        }
      ],
      "name": "supportsInterface",
      "outputs": [
        {
          "internalType": "bool",
          "name": "",
          "type": "bool"
        }
      ],
      "stateMutability": "view",
      "type": "function"
    },
    {
      "inputs": [],
      "name": "symbol",
      "outputs": [
        {
          "internalType": "string",
          "name": "",
          "type": "string"
        }
      ],
      "stateMutability": "view",
      "type": "function"
    },
    {
      "inputs": [
        {
          "internalType": "uint256",
          "name": "tokenId",
          "type": "uint256"
        }
      ],
      "name": "tokenURI",
      "outputs": [
        {
          "internalType": "string",
          "name": "",
          "type": "string"
        }
      ],
      "stateMutability": "view",
      "type": "function"
    },
    {
      "inputs": [
        {
          "internalType": "address",
          "name": "from",
          "type": "address"
        },
        {
          "internalType": "address",
          "name": "to",
          "type": "address"
        },
        {
          "internalType": "uint256",
          "name": "tokenId",
          "type": "uint256"
        }
      ],
      "name": "transferFrom",
      "outputs": [],
      "stateMutability": "nonpayable",
      "type": "function"
    },
    {
      "inputs": [
        {
          "internalType": "address",
          "name": "newOwner",
          "type": "address"
        }
      ],
      "name": "transferOwnership",
      "outputs": [],
      "stateMutability": "nonpayable",
      "type": "function"
    }
  ],
  "bytecode": {
    "object": "0x60806040523480156200001157600080fd5b5060405162001a4538038062001a458339810160408190526200003491620001b5565b85856000620000448382620002f1565b506001620000538282620002f1565b505050620000706200006a6200009a60201b60201c565b6200009e565b600783905560088290556009819055600a6200008d8582620002f1565b50505050505050620003bd565b3390565b600680546001600160a01b038381166001600160a01b0319831681179093556040519116919082907f8be0079c531659141344cd1fd0a4f28419497f9722a3daafe3b4186f6b6457e090600090a35050565b634e487b7160e01b600052604160045260246000fd5b600082601f8301126200011857600080fd5b81516001600160401b0380821115620001355762000135620000f0565b604051601f8301601f19908116603f01168101908282118183101715620001605762000160620000f0565b816040528381526020925086838588010111156200017d57600080fd5b600091505b83821015620001a1578582018301518183018401529082019062000182565b600093810190920192909252949350505050565b60008060008060008060c08789031215620001cf57600080fd5b86516001600160401b0380821115620001e757600080fd5b620001f58a838b0162000106565b975060208901519150808211156200020c57600080fd5b6200021a8a838b0162000106565b965060408901519150808211156200023157600080fd5b506200024089828a0162000106565b945050606087015192506080870151915060a087015190509295509295509295565b600181811c908216806200027757607f821691505b6020821081036200029857634e487b7160e01b600052602260045260246000fd5b50919050565b601f821115620002ec57600081815260208120601f850160051c81016020861015620002c75750805b601f850160051c820191505b81811015620002e857828155600101620002d3565b5050505b505050565b81516001600160401b038111156200030d576200030d620000f0565b62000325816200031e845462000262565b846200029e565b602080601f8311600181146200035d5760008415620003445750858301515b600019600386901b1c1916600185901b178555620002e8565b600085815260208120601f198616915b828110156200038e578886015182559484019460019091019084016200036d565b5085821015620003ad5787850151600019600388901b60f8161c191681555b5050505050600190811b01905550565b61167880620003cd6000396000f3fe608060405234801561001057600080fd5b506004361061012c5760003560e01c806370a08231116100ad578063b88d4fde11610071578063b88d4fde14610261578063c87b56dd14610274578063e1d4c87014610287578063e985e9c514610290578063f2fde38b146102a357600080fd5b806370a082311461021a578063715018a61461022d5780638da5cb5b1461023557806395d89b4114610246578063a22cb4651461024e57600080fd5b806323b872dd116100f457806323b872dd146101c55780632db11544146101d857806342842e0e146101eb5780636352211e146101fe5780636aa99da31461021157600080fd5b806301ffc9a71461013157806306fdde0314610159578063081812fc1461016e578063095ea7b31461019957806317465471146101ae575b600080fd5b61014461013f3660046111c2565b6102b6565b60405190151581526020015b60405180910390f35b610161610308565b604051610150919061122f565b61018161017c366004611242565b61039a565b6040516001600160a01b039091168152602001610150565b6101ac6101a7366004611277565b6103c1565b005b6101b760095481565b604051908152602001610150565b6101ac6101d33660046112a1565b6104db565b6101ac6101e6366004611242565b61050c565b6101ac6101f93660046112a1565b610698565b61018161020c366004611242565b6106b3565b6101b760075481565b6101b76102283660046112dd565b610713565b6101ac610799565b6006546001600160a01b0316610181565b6101616107ad565b6101ac61025c3660046112f8565b6107bc565b6101ac61026f36600461134a565b6107cb565b610161610282366004611242565b610803565b6101b760085481565b61014461029e366004611426565b61080e565b6101ac6102b13660046112dd565b61083c565b60006001600160e01b031982166380ac58cd60e01b14806102e757506001600160e01b03198216635b5e139f60e01b145b8061030257506301ffc9a760e01b6001600160e01b03198316145b92915050565b60606000805461031790611459565b80601f016020809104026020016040519081016040528092919081815260200182805461034390611459565b80156103905780601f1061036557610100808354040283529160200191610390565b820191906000526020600020905b81548152906001019060200180831161037357829003601f168201915b5050505050905090565b60006103a5826108b5565b506000908152600460205260409020546001600160a01b031690565b60006103cc826106b3565b9050806001600160a01b0316836001600160a01b03160361043e5760405162461bcd60e51b815260206004820152602160248201527f4552433732313a20617070726f76616c20746f2063757272656e74206f776e656044820152603960f91b60648201526084015b60405180910390fd5b336001600160a01b038216148061045a575061045a813361080e565b6104cc5760405162461bcd60e51b815260206004820152603d60248201527f4552433732313a20617070726f76652063616c6c6572206973206e6f7420746f60448201527f6b656e206f776e6572206f7220617070726f76656420666f7220616c6c0000006064820152608401610435565b6104d68383610914565b505050565b6104e53382610982565b6105015760405162461bcd60e51b815260040161043590611493565b6104d68383836109e1565b806000036105685760405162461bcd60e51b815260206004820152602360248201527f45524337323156616e696c613a2043616e6e6f74206d696e74203020746f6b656044820152626e732160e81b6064820152608401610435565b6009548111156105f15760405162461bcd60e51b815260206004820152604860248201527f45524337323156616e696c613a20596f752063616e6e6f74206d696e74206d6f60448201527f7265207468616e206d6178546f6b656e735065724d696e7420746f6b656e73206064820152676174206f6e63652160c01b608482015260a401610435565b6008548160075461060291906114f6565b111561065c5760405162461bcd60e51b8152602060048201526024808201527f45524337323156616e696c613a206d6178206d696e74206c696d69742072656160448201526318da195960e21b6064820152608401610435565b60075460005b828110156106915761067f3361067784611509565b935083610b45565b8061068981611509565b915050610662565b5060075550565b6104d6838383604051806020016040528060008152506107cb565b6000818152600260205260408120546001600160a01b0316806103025760405162461bcd60e51b8152602060048201526018602482015277115490cdcc8c4e881a5b9d985b1a59081d1bdad95b88125160421b6044820152606401610435565b60006001600160a01b03821661077d5760405162461bcd60e51b815260206004820152602960248201527f4552433732313a2061646472657373207a65726f206973206e6f7420612076616044820152683634b21037bbb732b960b91b6064820152608401610435565b506001600160a01b031660009081526003602052604090205490565b6107a1610b5f565b6107ab6000610bb9565b565b60606001805461031790611459565b6107c7338383610c0b565b5050565b6107d53383610982565b6107f15760405162461bcd60e51b815260040161043590611493565b6107fd84848484610cd9565b50505050565b606061030282610d0c565b6001600160a01b03918216600090815260056020908152604080832093909416825291909152205460ff1690565b610844610b5f565b6001600160a01b0381166108a95760405162461bcd60e51b815260206004820152602660248201527f4f776e61626c653a206e6577206f776e657220697320746865207a65726f206160448201526564647265737360d01b6064820152608401610435565b6108b281610bb9565b50565b6000818152600260205260409020546001600160a01b03166108b25760405162461bcd60e51b8152602060048201526018602482015277115490cdcc8c4e881a5b9d985b1a59081d1bdad95b88125160421b6044820152606401610435565b600081815260046020526040902080546001600160a01b0319166001600160a01b0384169081179091558190610949826106b3565b6001600160a01b03167f8c5be1e5ebec7d5bd14f71427d1e84f3dd0314c0f7b2291e5b200ac8c7c3b92560405160405180910390a45050565b60008061098e836106b3565b9050806001600160a01b0316846001600160a01b031614806109b557506109b5818561080e565b806109d95750836001600160a01b03166109ce8461039a565b6001600160a01b0316145b949350505050565b826001600160a01b03166109f4826106b3565b6001600160a01b031614610a1a5760405162461bcd60e51b815260040161043590611522565b6001600160a01b038216610a7c5760405162461bcd60e51b8152602060048201526024808201527f4552433732313a207472616e7366657220746f20746865207a65726f206164646044820152637265737360e01b6064820152608401610435565b826001600160a01b0316610a8f826106b3565b6001600160a01b031614610ab55760405162461bcd60e51b815260040161043590611522565b600081815260046020908152604080832080546001600160a01b03199081169091556001600160a01b0387811680865260038552838620805460001901905590871680865283862080546001019055868652600290945282852080549092168417909155905184937fddf252ad1be2c89b69c2b068fc378daa952ba7f163c4a11628f55a4df523b3ef91a4505050565b6107c7828260405180602001604052806000815250610d73565b6006546001600160a01b031633146107ab5760405162461bcd60e51b815260206004820181905260248201527f4f776e61626c653a2063616c6c6572206973206e6f7420746865206f776e65726044820152606401610435565b600680546001600160a01b038381166001600160a01b0319831681179093556040519116919082907f8be0079c531659141344cd1fd0a4f28419497f9722a3daafe3b4186f6b6457e090600090a35050565b816001600160a01b0316836001600160a01b031603610c6c5760405162461bcd60e51b815260206004820152601960248201527f4552433732313a20617070726f766520746f2063616c6c6572000000000000006044820152606401610435565b6001600160a01b03838116600081815260056020908152604080832094871680845294825291829020805460ff191686151590811790915591519182527f17307eab39ab6107e8899845ad3d59bd9653f200f220920489ca2b5937696c31910160405180910390a3505050565b610ce48484846109e1565b610cf084848484610da6565b6107fd5760405162461bcd60e51b815260040161043590611567565b6060610d17826108b5565b6000610d21610ea7565b90506000815111610d415760405180602001604052806000815250610d6c565b80610d4b84610eb6565b604051602001610d5c9291906115b9565b6040516020818303038152906040525b9392505050565b610d7d8383610f49565b610d8a6000848484610da6565b6104d65760405162461bcd60e51b815260040161043590611567565b60006001600160a01b0384163b15610e9c57604051630a85bd0160e11b81526001600160a01b0385169063150b7a0290610dea9033908990889088906004016115e8565b6020604051808303816000875af1925050508015610e25575060408051601f3d908101601f19168201909252610e2291810190611625565b60015b610e82573d808015610e53576040519150601f19603f3d011682016040523d82523d6000602084013e610e58565b606091505b508051600003610e7a5760405162461bcd60e51b815260040161043590611567565b805181602001fd5b6001600160e01b031916630a85bd0160e11b1490506109d9565b506001949350505050565b6060600a805461031790611459565b60606000610ec3836110d4565b600101905060008167ffffffffffffffff811115610ee357610ee3611334565b6040519080825280601f01601f191660200182016040528015610f0d576020820181803683370190505b5090508181016020015b600019016f181899199a1a9b1b9c1cb0b131b232b360811b600a86061a8153600a8504945084610f1757509392505050565b6001600160a01b038216610f9f5760405162461bcd60e51b815260206004820181905260248201527f4552433732313a206d696e7420746f20746865207a65726f20616464726573736044820152606401610435565b6000818152600260205260409020546001600160a01b0316156110045760405162461bcd60e51b815260206004820152601c60248201527f4552433732313a20746f6b656e20616c7265616479206d696e746564000000006044820152606401610435565b6000818152600260205260409020546001600160a01b0316156110695760405162461bcd60e51b815260206004820152601c60248201527f4552433732313a20746f6b656e20616c7265616479206d696e746564000000006044820152606401610435565b6001600160a01b038216600081815260036020908152604080832080546001019055848352600290915280822080546001600160a01b0319168417905551839291907fddf252ad1be2c89b69c2b068fc378daa952ba7f163c4a11628f55a4df523b3ef908290a45050565b60008072184f03e93ff9f4daa797ed6e38ed64bf6a1f0160401b83106111135772184f03e93ff9f4daa797ed6e38ed64bf6a1f0160401b830492506040015b6d04ee2d6d415b85acef8100000000831061113f576d04ee2d6d415b85acef8100000000830492506020015b662386f26fc10000831061115d57662386f26fc10000830492506010015b6305f5e1008310611175576305f5e100830492506008015b612710831061118957612710830492506004015b6064831061119b576064830492506002015b600a83106103025760010192915050565b6001600160e01b0319811681146108b257600080fd5b6000602082840312156111d457600080fd5b8135610d6c816111ac565b60005b838110156111fa5781810151838201526020016111e2565b50506000910152565b6000815180845261121b8160208601602086016111df565b601f01601f19169290920160200192915050565b602081526000610d6c6020830184611203565b60006020828403121561125457600080fd5b5035919050565b80356001600160a01b038116811461127257600080fd5b919050565b6000806040838503121561128a57600080fd5b6112938361125b565b946020939093013593505050565b6000806000606084860312156112b657600080fd5b6112bf8461125b565b92506112cd6020850161125b565b9150604084013590509250925092565b6000602082840312156112ef57600080fd5b610d6c8261125b565b6000806040838503121561130b57600080fd5b6113148361125b565b91506020830135801515811461132957600080fd5b809150509250929050565b634e487b7160e01b600052604160045260246000fd5b6000806000806080858703121561136057600080fd5b6113698561125b565b93506113776020860161125b565b925060408501359150606085013567ffffffffffffffff8082111561139b57600080fd5b818701915087601f8301126113af57600080fd5b8135818111156113c1576113c1611334565b604051601f8201601f19908116603f011681019083821181831017156113e9576113e9611334565b816040528281528a602084870101111561140257600080fd5b82602086016020830137600060208483010152809550505050505092959194509250565b6000806040838503121561143957600080fd5b6114428361125b565b91506114506020840161125b565b90509250929050565b600181811c9082168061146d57607f821691505b60208210810361148d57634e487b7160e01b600052602260045260246000fd5b50919050565b6020808252602d908201527f4552433732313a2063616c6c6572206973206e6f7420746f6b656e206f776e6560408201526c1c881bdc88185c1c1c9bdd9959609a1b606082015260800190565b634e487b7160e01b600052601160045260246000fd5b80820180821115610302576103026114e0565b60006001820161151b5761151b6114e0565b5060010190565b60208082526025908201527f4552433732313a207472616e736665722066726f6d20696e636f72726563742060408201526437bbb732b960d91b606082015260800190565b60208082526032908201527f4552433732313a207472616e7366657220746f206e6f6e20455243373231526560408201527131b2b4bb32b91034b6b83632b6b2b73a32b960711b606082015260800190565b600083516115cb8184602088016111df565b8351908301906115df8183602088016111df565b01949350505050565b6001600160a01b038581168252841660208201526040810183905260806060820181905260009061161b90830184611203565b9695505050505050565b60006020828403121561163757600080fd5b8151610d6c816111ac56fea2646970667358221220fe90088945c33ec43e4554184c89d69292796ce65d658be268608c2aa1a85c0a64736f6c63430008110033",
    "linkReferences": {}
  },
  "methodIdentifiers": {
    "approve(address,uint256)": "095ea7b3",
    "balanceOf(address)": "70a08231",
    "getApproved(uint256)": "081812fc",
    "isApprovedForAll(address,address)": "e985e9c5",
    "maxMintId()": "e1d4c870",
    "maxTokensPerMint()": "17465471",
    "name()": "06fdde03",
    "nextMintId()": "6aa99da3",
    "owner()": "8da5cb5b",
    "ownerOf(uint256)": "6352211e",
    "publicMint(uint256)": "2db11544",
    "renounceOwnership()": "715018a6",
    "safeTransferFrom(address,address,uint256)": "42842e0e",
    "safeTransferFrom(address,address,uint256,bytes)": "b88d4fde",
    "setApprovalForAll(address,bool)": "a22cb465",
    "supportsInterface(bytes4)": "01ffc9a7",
    "symbol()": "95d89b41",
    "tokenURI(uint256)": "c87b56dd",
    "transferFrom(address,address,uint256)": "23b872dd",
    "transferOwnership(address)": "f2fde38b"
  },
  "id": 75
}