{
  "abi": [
    {
      "inputs": [
        {
          "internalType": "string",
          "name": "_name",
          "type": "string"
        },
        {
          "internalType": "string",
          "name": "_symbol",
          "type": "string"
        },
        {
          "internalType": "string",
          "name": "_baseTokenURI",
          "type": "string"
        },
        {
          "internalType": "uint256",
          "name": "_startMintId",
          "type": "uint256"
        },
        {
          "internalType": "uint256",
          "name": "_endMintId",
          "type": "uint256"
        },
        {
          "internalType": "uint256",
          "name": "_maxTokensPerMint",
          "type": "uint256"
        }
      ],
      "stateMutability": "nonpayable",
      "type": "constructor"
    },
    {
      "anonymous": false,
      "inputs": [
        {
          "indexed": true,
          "internalType": "address",
          "name": "owner",
          "type": "address"
        },
        {
          "indexed": true,
          "internalType": "address",
          "name": "approved",
          "type": "address"
        },
        {
          "indexed": true,
          "internalType": "uint256",
          "name": "tokenId",
          "type": "uint256"
        }
      ],
      "name": "Approval",
      "type": "event"
    },
    {
      "anonymous": false,
      "inputs": [
        {
          "indexed": true,
          "internalType": "address",
          "name": "owner",
          "type": "address"
        },
        {
          "indexed": true,
          "internalType": "address",
          "name": "operator",
          "type": "address"
        },
        {
          "indexed": false,
          "internalType": "bool",
          "name": "approved",
          "type": "bool"
        }
      ],
      "name": "ApprovalForAll",
      "type": "event"
    },
    {
      "anonymous": false,
      "inputs": [
        {
          "indexed": true,
          "internalType": "address",
          "name": "previousOwner",
          "type": "address"
        },
        {
          "indexed": true,
          "internalType": "address",
          "name": "newOwner",
          "type": "address"
        }
      ],
      "name": "OwnershipTransferred",
      "type": "event"
    },
    {
      "anonymous": false,
      "inputs": [
        {
          "indexed": true,
          "internalType": "address",
          "name": "from",
          "type": "address"
        },
        {
          "indexed": true,
          "internalType": "address",
          "name": "to",
          "type": "address"
        },
        {
          "indexed": true,
          "internalType": "uint256",
          "name": "tokenId",
          "type": "uint256"
        }
      ],
      "name": "Transfer",
      "type": "event"
    },
    {
      "inputs": [
        {
          "internalType": "address",
          "name": "to",
          "type": "address"
        },
        {
          "internalType": "uint256",
          "name": "tokenId",
          "type": "uint256"
        }
      ],
      "name": "approve",
      "outputs": [],
      "stateMutability": "nonpayable",
      "type": "function"
    },
    {
      "inputs": [
        {
          "internalType": "address",
          "name": "owner",
          "type": "address"
        }
      ],
      "name": "balanceOf",
      "outputs": [
        {
          "internalType": "uint256",
          "name": "",
          "type": "uint256"
        }
      ],
      "stateMutability": "view",
      "type": "function"
    },
    {
      "inputs": [
        {
          "internalType": "uint256",
          "name": "tokenId",
          "type": "uint256"
        }
      ],
      "name": "getApproved",
      "outputs": [
        {
          "internalType": "address",
          "name": "",
          "type": "address"
        }
      ],
      "stateMutability": "view",
      "type": "function"
    },
    {
      "inputs": [
        {
          "internalType": "address",
          "name": "owner",
          "type": "address"
        },
        {
          "internalType": "address",
          "name": "operator",
          "type": "address"
        }
      ],
      "name": "isApprovedForAll",
      "outputs": [
        {
          "internalType": "bool",
          "name": "",
          "type": "bool"
        }
      ],
      "stateMutability": "view",
      "type": "function"
    },
    {
      "inputs": [],
      "name": "maxMintId",
      "outputs": [
        {
          "internalType": "uint256",
          "name": "",
          "type": "uint256"
        }
      ],
      "stateMutability": "view",
      "type": "function"
    },
    {
      "inputs": [],
      "name": "maxTokensPerMint",
      "outputs": [
        {
          "internalType": "uint256",
          "name": "",
          "type": "uint256"
        }
      ],
      "stateMutability": "view",
      "type": "function"
    },
    {
      "inputs": [],
      "name": "name",
      "outputs": [
        {
          "internalType": "string",
          "name": "",
          "type": "string"
        }
      ],
      "stateMutability": "view",
      "type": "function"
    },
    {
      "inputs": [],
      "name": "nextMintId",
      "outputs": [
        {
          "internalType": "uint256",
          "name": "",
          "type": "uint256"
        }
      ],
      "stateMutability": "view",
      "type": "function"
    },
    {
      "inputs": [],
      "name": "owner",
      "outputs": [
        {
          "internalType": "address",
          "name": "",
          "type": "address"
        }
      ],
      "stateMutability": "view",
      "type": "function"
    },
    {
      "inputs": [
        {
          "internalType": "uint256",
          "name": "tokenId",
          "type": "uint256"
        }
      ],
      "name": "ownerOf",
      "outputs": [
        {
          "internalType": "address",
          "name": "",
          "type": "address"
        }
      ],
      "stateMutability": "view",
      "type": "function"
    },
    {
      "inputs": [
        {
          "internalType": "uint256",
          "name": "_nbTokens",
          "type": "uint256"
        }
      ],
      "name": "publicMint",
      "outputs": [],
      "stateMutability": "nonpayable",
      "type": "function"
    },
    {
      "inputs": [],
      "name": "renounceOwnership",
      "outputs": [],
      "stateMutability": "nonpayable",
      "type": "function"
    },
    {
      "inputs": [
        {
          "internalType": "address",
          "name": "from",
          "type": "address"
        },
        {
          "internalType": "address",
          "name": "to",
          "type": "address"
        },
        {
          "internalType": "uint256",
          "name": "tokenId",
          "type": "uint256"
        }
      ],
      "name": "safeTransferFrom",
      "outputs": [],
      "stateMutability": "nonpayable",
      "type": "function"
    },
    {
      "inputs": [
        {
          "internalType": "address",
          "name": "from",
          "type": "address"
        },
        {
          "internalType": "address",
          "name": "to",
          "type": "address"
        },
        {
          "internalType": "uint256",
          "name": "tokenId",
          "type": "uint256"
        },
        {
          "internalType": "bytes",
          "name": "_data",
          "type": "bytes"
        }
      ],
      "name": "safeTransferFrom",
      "outputs": [],
      "stateMutability": "nonpayable",
      "type": "function"
    },
    {
      "inputs": [
        {
          "internalType": "address",
          "name": "operator",
          "type": "address"
        },
        {
          "internalType": "bool",
          "name": "approved",
          "type": "bool"
        }
      ],
      "name": "setApprovalForAll",
      "outputs": [],
      "stateMutability": "nonpayable",
      "type": "function"
    },
    {
      "inputs": [
        {
          "internalType": "bytes4",
          "name": "interfaceId",
          "type": "bytes4"
        }
      ],
      "name": "supportsInterface",
      "outputs": [
        {
          "internalType": "bool",
          "name": "",
          "type": "bool"
        }
      ],
      "stateMutability": "view",
      "type": "function"
    },
    {
      "inputs": [],
      "name": "symbol",
      "outputs": [
        {
          "internalType": "string",
          "name": "",
          "type": "string"
        }
      ],
      "stateMutability": "view",
      "type": "function"
    },
    {
      "inputs": [
        {
          "internalType": "uint256",
          "name": "tokenId",
          "type": "uint256"
        }
      ],
      "name": "tokenURI",
      "outputs": [
        {
          "internalType": "string",
          "name": "",
          "type": "string"
        }
      ],
      "stateMutability": "view",
      "type": "function"
    },
    {
      "inputs": [
        {
          "internalType": "address",
          "name": "from",
          "type": "address"
        },
        {
          "internalType": "address",
          "name": "to",
          "type": "address"
        },
        {
          "internalType": "uint256",
          "name": "tokenId",
          "type": "uint256"
        }
      ],
      "name": "transferFrom",
      "outputs": [],
      "stateMutability": "nonpayable",
      "type": "function"
    },
    {
      "inputs": [
        {
          "internalType": "address",
          "name": "newOwner",
          "type": "address"
        }
      ],
      "name": "transferOwnership",
      "outputs": [],
      "stateMutability": "nonpayable",
      "type": "function"
    }
  ],
  "bytecode": {
    "object": "0x608060405234620004ed5762001efc803803806200001d81620004f2565b92833981019060c081830312620004ed5780516001600160401b039190828111620004ed57836200005091830162000518565b9060209384820151848111620004ed57816200006e91840162000518565b90604083015190858211620004ed576200008a91840162000518565b9060608301519260a0608082015191015190855194878611620004d7576000938454966001988989811c99168015620004cc575b8c8a1014620003cf5781908c601f9a8b811162000476575b50508c908d8b84116001146200040e5750889262000402575b5050600019600383901b1c191690891b1785555b805190898211620003ee5788548981811c91168015620003e3575b8c821014620003cf57908b828a85941162000379575b50508b908983116001146200031257879262000306575b5050600019600383901b1c191690881b1787555b60068054336001600160a01b0319821681179092556001600160a01b03167f8be0079c531659141344cd1fd0a4f28419497f9722a3daafe3b4186f6b6457e08680a36007556008556009558151948511620002f257600a548481811c91168015620002e7575b87821014620002d3578381116200028a575b50859285116001146200022157939450849291908362000215575b50501b916000199060031b1c191617600a555b60405161197190816200058b8239f35b015192503880620001f2565b600a815285812093958591601f198316915b888383106200026f575050501062000255575b505050811b01600a5562000205565b015160001960f88460031b161c1916905538808062000246565b85870151885590960195948501948793509081019062000233565b600a82528682208480880160051c820192898910620002c9575b0160051c019085905b828110620002bd575050620001d7565b838155018590620002ad565b92508192620002a4565b634e487b7160e01b82526022600452602482fd5b90607f1690620001c5565b634e487b7160e01b81526041600452602490fd5b0151905038806200014b565b8a88528c88208b94509190601f198416898f5b8282106200035f575050841162000345575b505050811b0187556200015f565b015160001960f88460031b161c1916905538808062000337565b8484015186558e9790950194938401939081019062000325565b909192508a8852898289209181860160051c8301938610620003c5575b918c91869594930160051c01915b828110620003b657508d915062000134565b8981558594508c9101620003a4565b9250819262000396565b634e487b7160e01b87526022600452602487fd5b90607f16906200011e565b634e487b7160e01b86526041600452602486fd5b015190503880620000ef565b91908c9450601f1984168a8052838b20938b905b8282106200045c575050841162000442575b505050811b01855562000103565b015160001960f88460031b161c1916905538808062000434565b8484015186558f9790950194938401939081019062000422565b909192508880528a828a209181860160051c8301938610620004c2575b918d91869594930160051c01915b828110620004b357508e9150620000d6565b8a81558594508d9101620004a1565b9250819262000493565b98607f1698620000be565b634e487b7160e01b600052604160045260246000fd5b600080fd5b6040519190601f01601f191682016001600160401b03811183821017620004d757604052565b919080601f84011215620004ed5782516001600160401b038111620004d7576020906200054e601f8201601f19168301620004f2565b92818452828287010111620004ed5760005b8181106200057657508260009394955001015290565b85810183015184820184015282016200056056fe60806040526004361015610013575b600080fd5b60003560e01c806301ffc9a7146101a357806306fdde031461019a578063081812fc14610191578063095ea7b314610188578063174654711461017f57806323b872dd146101765780632db115441461016d57806342842e0e146101645780636352211e1461015b5780636aa99da31461015257806370a0823114610149578063715018a6146101405780638da5cb5b1461013757806395d89b411461012e578063a22cb46514610125578063b88d4fde1461011c578063c87b56dd14610113578063e1d4c8701461010a578063e985e9c5146101015763f2fde38b146100f957600080fd5b61000e610bee565b5061000e610b90565b5061000e610b71565b5061000e610a87565b5061000e6109fd565b5061000e610883565b5061000e6107c1565b5061000e610797565b5061000e610735565b5061000e610692565b5061000e610673565b5061000e610654565b5061000e61062b565b5061000e61055f565b5061000e610535565b5061000e6104e1565b5061000e6103f1565b5061000e610394565b5061000e610289565b5061000e6101be565b6001600160e01b031981160361000e57565b503461000e57602036600319011261000e5760206004356101de816101ac565b63ffffffff60e01b166380ac58cd60e01b811490811561021c575b811561020b575b506040519015158152f35b6301ffc9a760e01b14905038610200565b635b5e139f60e01b811491506101f9565b60005b8381106102405750506000910152565b8181015183820152602001610230565b906020916102698151809281855285808601910161022d565b601f01601f1916010190565b906020610286928181520190610250565b90565b503461000e5760008060031936011261039157604051908080549060019180831c92808216928315610387575b602092838610851461037357858852602088019490811561035257506001146102fa575b6102f6876102ea818903826109b0565b60405191829182610275565b0390f35b6000805294509192917f290decd9548b62a8d60345a988386fc84ba6bc95484008f6362f93160ef3e5635b83861061034157505050910190506102ea826102f638806102da565b805485870152948201948101610325565b60ff191685525050505090151560051b0190506102ea826102f638806102da565b634e487b7160e01b82526022600452602482fd5b93607f16936102b6565b80fd5b503461000e57602036600319011261000e5760206103b360043561107a565b6040516001600160a01b039091168152f35b600435906001600160a01b038216820361000e57565b602435906001600160a01b038216820361000e57565b503461000e57604036600319011261000e5761040b6103c5565b60243561041781610e5a565b916001600160a01b038084169082168114610492576104499361044491331490811561044b575b50611008565b61162c565b005b6001600160a01b0316600090815260056020526040902061048c91506104859033905b9060018060a01b0316600052602052604060002090565b5460ff1690565b3861043e565b60405162461bcd60e51b815260206004820152602160248201527f4552433732313a20617070726f76616c20746f2063757272656e74206f776e656044820152603960f91b6064820152608490fd5b503461000e57600036600319011261000e576020600954604051908152f35b606090600319011261000e576001600160a01b0390600435828116810361000e5791602435908116810361000e579060443590565b503461000e5761044961054736610500565b9161055a6105558433611215565b61110c565b6114c1565b503461000e57602036600319011261000e5760043580156105da57610588600954821115610c85565b6007546105a26105988383610d45565b6008541015610d52565b6000915b8083106105b65761044982600755565b906105c36105d391610daa565b926105ce8433611300565b610daa565b91906105a6565b60405162461bcd60e51b815260206004820152602360248201527f45524337323156616e696c613a2043616e6e6f74206d696e74203020746f6b656044820152626e732160e81b6064820152608490fd5b503461000e5761044961063d36610500565b906040519261064b84610987565b60008452611172565b503461000e57602036600319011261000e5760206103b3600435610e5a565b503461000e57600036600319011261000e576020600754604051908152f35b503461000e57602036600319011261000e576001600160a01b036106b46103c5565b1680156106dd5760005260036020526102f6604060002054604051918291829190602083019252565b60405162461bcd60e51b815260206004820152602a60248201527f4552433732313a2062616c616e636520717565727920666f7220746865207a65604482015269726f206164647265737360b01b6064820152608490fd5b503461000e576000806003193601126103915760065481906001600160a01b03811690610763338314610dc6565b6001600160a01b0319166006557f8be0079c531659141344cd1fd0a4f28419497f9722a3daafe3b4186f6b6457e08280a380f35b503461000e57600036600319011261000e576006546040516001600160a01b039091168152602090f35b503461000e57600080600319360112610391576040519080600190815480831c92808216928315610879575b60209283861085146103735785885260208801949081156103525750600114610820576102f6876102ea818903826109b0565b600160005294509192917fb10e2d527612073b26eecdfd717e6a320cf44b4afac2b0732d9fcbe2b7fa0cf65b83861061086857505050910190506102ea826102f638806102da565b80548587015294820194810161084c565b93607f16936107ed565b503461000e57604036600319011261000e5761089d6103c5565b602435801515810361000e576001600160a01b0382169133831461092b57816108e86108f99233600052600560205260406000209060018060a01b0316600052602052604060002090565b9060ff801983541691151516179055565b604051901515815233907f17307eab39ab6107e8899845ad3d59bd9653f200f220920489ca2b5937696c3190602090a3005b60405162461bcd60e51b815260206004820152601960248201527f4552433732313a20617070726f766520746f2063616c6c6572000000000000006044820152606490fd5b50634e487b7160e01b600052604160045260246000fd5b6020810190811067ffffffffffffffff8211176109a357604052565b6109ab610970565b604052565b90601f8019910116810190811067ffffffffffffffff8211176109a357604052565b60209067ffffffffffffffff81116109f0575b601f01601f19160190565b6109f8610970565b6109e5565b503461000e57608036600319011261000e57610a176103c5565b610a1f6103db565b6064359167ffffffffffffffff831161000e573660238401121561000e57826004013591610a4c836109d2565b92610a5a60405194856109b0565b808452366024828701011161000e5760208160009260246104499801838801378501015260443591611172565b503461000e57602036600319011261000e576004356000818152600260205260409020546001600160a01b031615610b1457610ac1610ed2565b805115610b02576102ea610aee91610af4610ade6102f695611855565b6040519485936020850190610ff5565b90610ff5565b03601f1981018352826109b0565b50506102f6610b0f610fc3565b6102ea565b60405162461bcd60e51b815260206004820152602f60248201527f4552433732314d657461646174613a2055524920717565727920666f72206e6f60448201526e3732bc34b9ba32b73a103a37b5b2b760891b6064820152608490fd5b503461000e57600036600319011261000e576020600854604051908152f35b503461000e57604036600319011261000e57602060ff610be2610bb16103c5565b610bb96103db565b6001600160a01b0391821660009081526005865260408082209290931681526020919091522090565b54166040519015158152f35b503461000e57602036600319011261000e57610c086103c5565b6006546001600160a01b0390610c219082163314610dc6565b811615610c315761044990610e11565b60405162461bcd60e51b815260206004820152602660248201527f4f776e61626c653a206e6577206f776e657220697320746865207a65726f206160448201526564647265737360d01b6064820152608490fd5b15610c8c57565b60405162461bcd60e51b815260206004820152604860248201527f45524337323156616e696c613a20596f752063616e6e6f74206d696e74206d6f60448201527f7265207468616e206d6178546f6b656e735065724d696e7420746f6b656e73206064820152676174206f6e63652160c01b608482015260a490fd5b50634e487b7160e01b600052601160045260246000fd5b9060018201809211610d2d57565b610d35610d08565b565b6030019081603011610d2d57565b91908201809211610d2d57565b15610d5957565b60405162461bcd60e51b8152602060048201526024808201527f45524337323156616e696c613a206d6178206d696e74206c696d69742072656160448201526318da195960e21b6064820152608490fd5b6001906000198114610dba570190565b610dc2610d08565b0190565b15610dcd57565b606460405162461bcd60e51b815260206004820152602060248201527f4f776e61626c653a2063616c6c6572206973206e6f7420746865206f776e65726044820152fd5b600680546001600160a01b039283166001600160a01b0319821681179092559091167f8be0079c531659141344cd1fd0a4f28419497f9722a3daafe3b4186f6b6457e0600080a3565b6000908152600260205260409020546001600160a01b03168015610e7b5790565b60405162461bcd60e51b815260206004820152602960248201527f4552433732313a206f776e657220717565727920666f72206e6f6e657869737460448201526832b73a103a37b5b2b760b91b6064820152608490fd5b604051906000600a5490600182811c92818116918215610fb9575b6020918286108414610fa557858852879493602086019392918115610f865750600114610f24575b505050610d35925003836109b0565b925093610f53600a6000527fc65a7bb8d6351c1cf70c95a316cc6a92839c986682d98bc35f958f4883f9d2a890565b946000935b828510610f7057505050610d35935001388080610f15565b8654858501529586019588955093810193610f58565b92505050610d359491925060ff19168252151560051b01388080610f15565b634e487b7160e01b85526022600452602485fd5b93607f1693610eed565b604051906020820182811067ffffffffffffffff821117610fe8575b60405260008252565b610ff0610970565b610fdf565b90610dc26020928281519485920161022d565b1561100f57565b60405162461bcd60e51b815260206004820152603860248201527f4552433732313a20617070726f76652063616c6c6572206973206e6f74206f7760448201527f6e6572206e6f7220617070726f76656420666f7220616c6c00000000000000006064820152608490fd5b6000818152600260205260409020546001600160a01b0316156110b2576000908152600460205260409020546001600160a01b031690565b60405162461bcd60e51b815260206004820152602c60248201527f4552433732313a20617070726f76656420717565727920666f72206e6f6e657860448201526b34b9ba32b73a103a37b5b2b760a11b6064820152608490fd5b1561111357565b60405162461bcd60e51b815260206004820152603160248201527f4552433732313a207472616e736665722063616c6c6572206973206e6f74206f6044820152701ddb995c881b9bdc88185c1c1c9bdd9959607a1b6064820152608490fd5b91610d359391611199936111896105558433611215565b6111948383836114c1565b6117f2565b6111f1565b60809060208152603260208201527f4552433732313a207472616e7366657220746f206e6f6e20455243373231526560408201527131b2b4bb32b91034b6b83632b6b2b73a32b960711b60608201520190565b156111f857565b60405162461bcd60e51b8152806112116004820161119e565b0390fd5b6000828152600260205260409020546001600160a01b0316156112a65761123b82610e5a565b6001600160a01b03828116828216811494909190851561128e575b505050821561126457505090565b6001600160a01b0316600090815260056020526040902060ff9250611289919061046e565b541690565b61129b919293955061107a565b161491388080611256565b60405162461bcd60e51b815260206004820152602c60248201527f4552433732313a206f70657261746f7220717565727920666f72206e6f6e657860448201526b34b9ba32b73a103a37b5b2b760a11b6064820152608490fd5b9060405161130d81610987565b600081526001600160a01b038316918215611416576000818152600260205260409020546001600160a01b03166113d157838161119994611363610d359760018060a01b03166000526003602052604060002090565b61136d8154610d1f565b90556113a683611387846000526002602052604060002090565b80546001600160a01b0319166001600160a01b03909216919091179055565b60007fddf252ad1be2c89b69c2b068fc378daa952ba7f163c4a11628f55a4df523b3ef8180a4611731565b60405162461bcd60e51b815260206004820152601c60248201527f4552433732313a20746f6b656e20616c7265616479206d696e746564000000006044820152606490fd5b606460405162461bcd60e51b815260206004820152602060248201527f4552433732313a206d696e7420746f20746865207a65726f20616464726573736044820152fd5b1561146157565b60405162461bcd60e51b8152602060048201526024808201527f4552433732313a207472616e7366657220746f20746865207a65726f206164646044820152637265737360e01b6064820152608490fd5b600019810191908211610d2d57565b906114cb83610e5a565b6001600160a01b0383811692909182168390036115855761151a61155e928216946114f786151561145a565b611500876115d8565b6001600160a01b0316600090815260036020526040902090565b61152481546114b2565b90556001600160a01b03811660009081526003602052604090206115488154610d1f565b9055611387856000526002602052604060002090565b7fddf252ad1be2c89b69c2b068fc378daa952ba7f163c4a11628f55a4df523b3ef600080a4565b60405162461bcd60e51b815260206004820152602560248201527f4552433732313a207472616e736665722066726f6d20696e636f72726563742060448201526437bbb732b960d91b6064820152608490fd5b600081815260046020526040812080546001600160a01b03191690556001600160a01b0361160583610e5a565b167f8c5be1e5ebec7d5bd14f71427d1e84f3dd0314c0f7b2291e5b200ac8c7c3b9258280a4565b600082815260046020526040902080546001600160a01b0319166001600160a01b0383161790556001600160a01b038061166584610e5a565b169116907f8c5be1e5ebec7d5bd14f71427d1e84f3dd0314c0f7b2291e5b200ac8c7c3b925600080a4565b9081602091031261000e5751610286816101ac565b610286939260809260018060a01b031682526000602083015260408201528160608201520190610250565b6001600160a01b03918216815291166020820152604081019190915260806060820181905261028692910190610250565b3d1561172c573d90611712826109d2565b9161172060405193846109b0565b82523d6000602084013e565b606090565b909190803b156117ea57611763602091600093604051948580948193630a85bd0160e11b998a845233600485016116a5565b03926001600160a01b03165af1600091816117ba575b506117ac57611786611701565b805190816117a75760405162461bcd60e51b8152806112116004820161119e565b602001fd5b6001600160e01b0319161490565b6117dc91925060203d81116117e3575b6117d481836109b0565b810190611690565b9038611779565b503d6117ca565b505050600190565b92909190823b1561182557611763926020926000604051809681958294630a85bd0160e11b9a8b855233600486016116d0565b50505050600190565b90815181101561183f570160200190565b634e487b7160e01b600052603260045260246000fd5b80156118fe57806000908282935b6118ea5750611871836109d2565b9261187f60405194856109b0565b80845281601f1961188f836109d2565b013660208701375b6118a15750505090565b6118aa906114b2565b90600a906118d56118c56118bf848406610d37565b60ff1690565b60f81b6001600160f81b03191690565b841a6118e1848761182e565b53049081611897565b926118f6600a91610daa565b930480611863565b506040516040810181811067ffffffffffffffff82111761192e575b60405260018152600360fc1b602082015290565b611936610970565b61191a56fea26469706673582212205e73955f600953db97bb9f46efe2a7bcfea78e2740c28c02aefdce5d057ae8ee64736f6c63430008110033",
    "linkReferences": {}
  },
  "methodIdentifiers": {
    "approve(address,uint256)": "095ea7b3",
    "balanceOf(address)": "70a08231",
    "getApproved(uint256)": "081812fc",
    "isApprovedForAll(address,address)": "e985e9c5",
    "maxMintId()": "e1d4c870",
    "maxTokensPerMint()": "17465471",
    "name()": "06fdde03",
    "nextMintId()": "6aa99da3",
    "owner()": "8da5cb5b",
    "ownerOf(uint256)": "6352211e",
    "publicMint(uint256)": "2db11544",
    "renounceOwnership()": "715018a6",
    "safeTransferFrom(address,address,uint256)": "42842e0e",
    "safeTransferFrom(address,address,uint256,bytes)": "b88d4fde",
    "setApprovalForAll(address,bool)": "a22cb465",
    "supportsInterface(bytes4)": "01ffc9a7",
    "symbol()": "95d89b41",
    "tokenURI(uint256)": "c87b56dd",
    "transferFrom(address,address,uint256)": "23b872dd",
    "transferOwnership(address)": "f2fde38b"
  },
  "id": 153
}