{
  "abi": [
    {
      "inputs": [
        {
          "internalType": "address",
          "name": "_looksRareToken",
          "type": "address"
        },
        {
          "internalType": "address",
          "name": "_rewardToken",
          "type": "address"
        },
        {
          "internalType": "address",
          "name": "_tokenDistributor",
          "type": "address"
        }
      ],
      "stateMutability": "nonpayable",
      "type": "constructor"
    },
    {
      "anonymous": false,
      "inputs": [
        {
          "indexed": true,
          "internalType": "address",
          "name": "user",
          "type": "address"
        },
        {
          "indexed": false,
          "internalType": "uint256",
          "name": "amount",
          "type": "uint256"
        },
        {
          "indexed": false,
          "internalType": "uint256",
          "name": "harvestedAmount",
          "type": "uint256"
        }
      ],
      "name": "Deposit",
      "type": "event"
    },
    {
      "anonymous": false,
      "inputs": [
        {
          "indexed": true,
          "internalType": "address",
          "name": "user",
          "type": "address"
        },
        {
          "indexed": false,
          "internalType": "uint256",
          "name": "harvestedAmount",
          "type": "uint256"
        }
      ],
      "name": "Harvest",
      "type": "event"
    },
    {
      "anonymous": false,
      "inputs": [
        {
          "indexed": false,
          "internalType": "uint256",
          "name": "numberBlocks",
          "type": "uint256"
        },
        {
          "indexed": false,
          "internalType": "uint256",
          "name": "rewardPerBlock",
          "type": "uint256"
        },
        {
          "indexed": false,
          "internalType": "uint256",
          "name": "reward",
          "type": "uint256"
        }
      ],
      "name": "NewRewardPeriod",
      "type": "event"
    },
    {
      "anonymous": false,
      "inputs": [
        {
          "indexed": true,
          "internalType": "address",
          "name": "previousOwner",
          "type": "address"
        },
        {
          "indexed": true,
          "internalType": "address",
          "name": "newOwner",
          "type": "address"
        }
      ],
      "name": "OwnershipTransferred",
      "type": "event"
    },
    {
      "anonymous": false,
      "inputs": [
        {
          "indexed": true,
          "internalType": "address",
          "name": "user",
          "type": "address"
        },
        {
          "indexed": false,
          "internalType": "uint256",
          "name": "amount",
          "type": "uint256"
        },
        {
          "indexed": false,
          "internalType": "uint256",
          "name": "harvestedAmount",
          "type": "uint256"
        }
      ],
      "name": "Withdraw",
      "type": "event"
    },
    {
      "inputs": [],
      "name": "PRECISION_FACTOR",
      "outputs": [
        {
          "internalType": "uint256",
          "name": "",
          "type": "uint256"
        }
      ],
      "stateMutability": "view",
      "type": "function"
    },
    {
      "inputs": [
        {
          "internalType": "address",
          "name": "user",
          "type": "address"
        }
      ],
      "name": "calculatePendingRewards",
      "outputs": [
        {
          "internalType": "uint256",
          "name": "",
          "type": "uint256"
        }
      ],
      "stateMutability": "view",
      "type": "function"
    },
    {
      "inputs": [],
      "name": "calculateSharePriceInLOOKS",
      "outputs": [
        {
          "internalType": "uint256",
          "name": "",
          "type": "uint256"
        }
      ],
      "stateMutability": "view",
      "type": "function"
    },
    {
      "inputs": [
        {
          "internalType": "address",
          "name": "user",
          "type": "address"
        }
      ],
      "name": "calculateSharesValueInLOOKS",
      "outputs": [
        {
          "internalType": "uint256",
          "name": "",
          "type": "uint256"
        }
      ],
      "stateMutability": "view",
      "type": "function"
    },
    {
      "inputs": [],
      "name": "currentRewardPerBlock",
      "outputs": [
        {
          "internalType": "uint256",
          "name": "",
          "type": "uint256"
        }
      ],
      "stateMutability": "view",
      "type": "function"
    },
    {
      "inputs": [
        {
          "internalType": "uint256",
          "name": "amount",
          "type": "uint256"
        },
        {
          "internalType": "bool",
          "name": "claimRewardToken",
          "type": "bool"
        }
      ],
      "name": "deposit",
      "outputs": [],
      "stateMutability": "nonpayable",
      "type": "function"
    },
    {
      "inputs": [],
      "name": "harvest",
      "outputs": [],
      "stateMutability": "nonpayable",
      "type": "function"
    },
    {
      "inputs": [],
      "name": "lastRewardAdjustment",
      "outputs": [
        {
          "internalType": "uint256",
          "name": "",
          "type": "uint256"
        }
      ],
      "stateMutability": "view",
      "type": "function"
    },
    {
      "inputs": [],
      "name": "lastRewardBlock",
      "outputs": [
        {
          "internalType": "uint256",
          "name": "",
          "type": "uint256"
        }
      ],
      "stateMutability": "view",
      "type": "function"
    },
    {
      "inputs": [],
      "name": "lastUpdateBlock",
      "outputs": [
        {
          "internalType": "uint256",
          "name": "",
          "type": "uint256"
        }
      ],
      "stateMutability": "view",
      "type": "function"
    },
    {
      "inputs": [],
      "name": "looksRareToken",
      "outputs": [
        {
          "internalType": "contract IERC20",
          "name": "",
          "type": "address"
        }
      ],
      "stateMutability": "view",
      "type": "function"
    },
    {
      "inputs": [],
      "name": "owner",
      "outputs": [
        {
          "internalType": "address",
          "name": "",
          "type": "address"
        }
      ],
      "stateMutability": "view",
      "type": "function"
    },
    {
      "inputs": [],
      "name": "periodEndBlock",
      "outputs": [
        {
          "internalType": "uint256",
          "name": "",
          "type": "uint256"
        }
      ],
      "stateMutability": "view",
      "type": "function"
    },
    {
      "inputs": [],
      "name": "renounceOwnership",
      "outputs": [],
      "stateMutability": "nonpayable",
      "type": "function"
    },
    {
      "inputs": [],
      "name": "rewardPerTokenStored",
      "outputs": [
        {
          "internalType": "uint256",
          "name": "",
          "type": "uint256"
        }
      ],
      "stateMutability": "view",
      "type": "function"
    },
    {
      "inputs": [],
      "name": "rewardToken",
      "outputs": [
        {
          "internalType": "contract IERC20",
          "name": "",
          "type": "address"
        }
      ],
      "stateMutability": "view",
      "type": "function"
    },
    {
      "inputs": [],
      "name": "tokenDistributor",
      "outputs": [
        {
          "internalType": "contract TokenDistributor",
          "name": "",
          "type": "address"
        }
      ],
      "stateMutability": "view",
      "type": "function"
    },
    {
      "inputs": [],
      "name": "totalShares",
      "outputs": [
        {
          "internalType": "uint256",
          "name": "",
          "type": "uint256"
        }
      ],
      "stateMutability": "view",
      "type": "function"
    },
    {
      "inputs": [
        {
          "internalType": "address",
          "name": "newOwner",
          "type": "address"
        }
      ],
      "name": "transferOwnership",
      "outputs": [],
      "stateMutability": "nonpayable",
      "type": "function"
    },
    {
      "inputs": [
        {
          "internalType": "uint256",
          "name": "reward",
          "type": "uint256"
        },
        {
          "internalType": "uint256",
          "name": "rewardDurationInBlocks",
          "type": "uint256"
        }
      ],
      "name": "updateRewards",
      "outputs": [],
      "stateMutability": "nonpayable",
      "type": "function"
    },
    {
      "inputs": [
        {
          "internalType": "address",
          "name": "",
          "type": "address"
        }
      ],
      "name": "userInfo",
      "outputs": [
        {
          "internalType": "uint256",
          "name": "shares",
          "type": "uint256"
        },
        {
          "internalType": "uint256",
          "name": "userRewardPerTokenPaid",
          "type": "uint256"
        },
        {
          "internalType": "uint256",
          "name": "rewards",
          "type": "uint256"
        }
      ],
      "stateMutability": "view",
      "type": "function"
    },
    {
      "inputs": [
        {
          "internalType": "uint256",
          "name": "shares",
          "type": "uint256"
        },
        {
          "internalType": "bool",
          "name": "claimRewardToken",
          "type": "bool"
        }
      ],
      "name": "withdraw",
      "outputs": [],
      "stateMutability": "nonpayable",
      "type": "function"
    },
    {
      "inputs": [
        {
          "internalType": "bool",
          "name": "claimRewardToken",
          "type": "bool"
        }
      ],
      "name": "withdrawAll",
      "outputs": [],
      "stateMutability": "nonpayable",
      "type": "function"
    }
  ],
  "bytecode": {
    "object": "0x60e06040523480156200001157600080fd5b5060405162001aa738038062001aa78339810160408190526200003491620000d1565b6001600055620000443362000062565b6001600160a01b0391821660a0529181166080521660c0526200011b565b600180546001600160a01b038381166001600160a01b0319831681179093556040519116919082907f8be0079c531659141344cd1fd0a4f28419497f9722a3daafe3b4186f6b6457e090600090a35050565b80516001600160a01b0381168114620000cc57600080fd5b919050565b600080600060608486031215620000e757600080fd5b620000f284620000b4565b92506200010260208501620000b4565b91506200011260408501620000b4565b90509250925092565b60805160a05160c0516118d7620001d06000396000818161017d01528181610432015281816105c40152818161064601528181610835015281816108c701528181610a8e01528181610ac801528181610ba501528181610c2701528181610e4b01528181610edd0152610fc50152600081816103170152818161053101528181610a59015261106401526000818161021b01528181610949015281816110a0015281816112d7015261137101526118d76000f3fe608060405234801561001057600080fd5b506004361061014d5760003560e01c8063715018a6116100c3578063ab5e32af1161007c578063ab5e32af146102cb578063cb4aec61146102de578063ccd34cd5146102e7578063df136d65146102f6578063f2fde38b146102ff578063f7c618c11461031257600080fd5b8063715018a61461027b5780638da5cb5b1461028357806397e50818146102945780639a408321146102a7578063a218141b146102ba578063a9f8d181146102c357600080fd5b806338d074361161011557806338d074361461023d5780633a98ef391461025057806340d2abae14610259578063442da82f146102625780634641257d1461026b5780636de26e381461027357600080fd5b8063097aad101461015257806318a6bc32146101785780631959a002146101b75780631c1c6fe51461020157806336db9fb214610216575b600080fd5b6101656101603660046116b9565b610339565b6040519081526020015b60405180910390f35b61019f7f000000000000000000000000000000000000000000000000000000000000000081565b6040516001600160a01b03909116815260200161016f565b6101e66101c53660046116b9565b60086020526000908152604090208054600182015460029092015490919083565b6040805193845260208401929092529082015260600161016f565b61021461020f3660046116f0565b61034a565b005b61019f7f000000000000000000000000000000000000000000000000000000000000000081565b61021461024b36600461170d565b610379565b61016560075481565b61016560035481565b61016560055481565b610214610428565b6101656105a2565b610214610703565b6001546001600160a01b031661019f565b6102146102a236600461173d565b610715565b6102146102b536600461170d565b6107c8565b61016560045481565b610165610b74565b6101656102d93660046116b9565b610b83565b61016560025481565b610165670de0b6b3a764000081565b61016560065481565b61021461030d3660046116b9565b610d04565b61019f7f000000000000000000000000000000000000000000000000000000000000000081565b600061034482610d7a565b92915050565b610352610df0565b3360009081526008602052604090205461036c9082610e49565b6103766001600055565b50565b610381610df0565b6000821180156103a05750336000908152600860205260409020548211155b6104105760405162461bcd60e51b815260206004820152603660248201527f57697468647261773a2053686172657320657175616c20746f2030206f72206c6044820152756172676572207468616e20757365722073686172657360501b60648201526084015b60405180910390fd5b61041a8282610e49565b6104246001600055565b5050565b610430610df0565b7f00000000000000000000000000000000000000000000000000000000000000006001600160a01b0316632a4e051b6040518163ffffffff1660e01b8152600401600060405180830381600087803b15801561048b57600080fd5b505af115801561049f573d6000803e3d6000fd5b505050506104ac33611109565b33600090815260086020526040902060020154806105185760405162461bcd60e51b8152602060048201526024808201527f486172766573743a2050656e64696e672072657761726473206d7573742062656044820152630203e20360e41b6064820152608401610407565b33600081815260086020526040812060020155610560907f00000000000000000000000000000000000000000000000000000000000000006001600160a01b0316908361115e565b60405181815233907fc9695243a805adb74c91f28311176c65b417e842d5699893cef56d18bfa48cba9060200160405180910390a2506105a06001600055565b565b604051630cacd00160e11b815230600482015260009081906001600160a01b037f00000000000000000000000000000000000000000000000000000000000000001690631959a002906024016040805180830381865afa15801561060a573d6000803e3d6000fd5b505050506040513d601f19601f8201168201806040525081019061062e919061175f565b506040516297aad160e41b81523060048201529091507f00000000000000000000000000000000000000000000000000000000000000006001600160a01b03169063097aad1090602401602060405180830381865afa158015610695573d6000803e3d6000fd5b505050506040513d601f19601f820116820180604052508101906106b99190611783565b6106c390826117b2565b90506007546000146106f3576007546106e4670de0b6b3a7640000836117c5565b6106ee91906117dc565b6106fd565b670de0b6b3a76400005b91505090565b61070b6111c6565b6105a06000611220565b61071d6111c6565b60055443106107385761073081836117dc565b60025561076c565b806002544360055461074a91906117fe565b61075491906117c5565b61075e90846117b2565b61076891906117dc565b6002555b43600481905561077d9082906117b2565b60055560025460408051838152602081019290925281018390527f55b4fa63fe43865f67b4f2c4a4df1cf9e6c1f85767211b44b45cf4649b2c2b519060600160405180910390a15050565b6107d0610df0565b670de0b6b3a76400008210156108335760405162461bcd60e51b815260206004820152602260248201527f4465706f7369743a20416d6f756e74206d757374206265203e3d2031204c4f4f6044820152614b5360f01b6064820152608401610407565b7f00000000000000000000000000000000000000000000000000000000000000006001600160a01b0316632a4e051b6040518163ffffffff1660e01b8152600401600060405180830381600087803b15801561088e57600080fd5b505af11580156108a2573d6000803e3d6000fd5b505050506108af33611109565b604051630cacd00160e11b81523060048201526000907f00000000000000000000000000000000000000000000000000000000000000006001600160a01b031690631959a002906024016040805180830381865afa158015610915573d6000803e3d6000fd5b505050506040513d601f19601f82011682018060405250810190610939919061175f565b5090506109716001600160a01b037f000000000000000000000000000000000000000000000000000000000000000016333086611272565b60006007546000146109dd57816007548561098c91906117c5565b61099691906117dc565b9050806000036109d85760405162461bcd60e51b815260206004820152600d60248201526c11195c1bdcda5d0e8811985a5b609a1b6044820152606401610407565b6109e0565b50825b33600090815260086020526040812080548392906109ff9084906117b2565b925050819055508060076000828254610a1891906117b2565b90915550600090508315610a885750336000908152600860205260409020600201548015610a885733600081815260086020526040812060020155610a88907f00000000000000000000000000000000000000000000000000000000000000006001600160a01b0316908361115e565b610ab2857f00000000000000000000000000000000000000000000000000000000000000006112b0565b60405163b6b55f2560e01b8152600481018690527f00000000000000000000000000000000000000000000000000000000000000006001600160a01b03169063b6b55f2590602401600060405180830381600087803b158015610b1457600080fd5b505af1158015610b28573d6000803e3d6000fd5b505060408051888152602081018590523393507f90890809c654f11d6e72a28fa60149770a0d11ec6c92319d6ceb2bb0a4ea1a1592500160405180910390a25050506104246001600055565b6000610b7e6113de565b905090565b604051630cacd00160e11b815230600482015260009081906001600160a01b037f00000000000000000000000000000000000000000000000000000000000000001690631959a002906024016040805180830381865afa158015610beb573d6000803e3d6000fd5b505050506040513d601f19601f82011682018060405250810190610c0f919061175f565b506040516297aad160e41b81523060048201529091507f00000000000000000000000000000000000000000000000000000000000000006001600160a01b03169063097aad1090602401602060405180830381865afa158015610c76573d6000803e3d6000fd5b505050506040513d601f19601f82011682018060405250810190610c9a9190611783565b610ca490826117b2565b6001600160a01b03841660009081526008602052604090205490915015610cfa576007546001600160a01b038416600090815260086020526040902054610ceb90836117c5565b610cf591906117dc565b610cfd565b60005b9392505050565b610d0c6111c6565b6001600160a01b038116610d715760405162461bcd60e51b815260206004820152602660248201527f4f776e61626c653a206e6577206f776e657220697320746865207a65726f206160448201526564647265737360d01b6064820152608401610407565b61037681611220565b6001600160a01b03811660009081526008602052604081206002810154600190910154670de0b6b3a764000090610daf6113f5565b610db991906117fe565b6001600160a01b038516600090815260086020526040902054610ddc91906117c5565b610de691906117dc565b61034491906117b2565b600260005403610e425760405162461bcd60e51b815260206004820152601f60248201527f5265656e7472616e637947756172643a207265656e7472616e742063616c6c006044820152606401610407565b6002600055565b7f00000000000000000000000000000000000000000000000000000000000000006001600160a01b0316632a4e051b6040518163ffffffff1660e01b8152600401600060405180830381600087803b158015610ea457600080fd5b505af1158015610eb8573d6000803e3d6000fd5b50505050610ec533611109565b604051630cacd00160e11b81523060048201526000907f00000000000000000000000000000000000000000000000000000000000000006001600160a01b031690631959a002906024016040805180830381865afa158015610f2b573d6000803e3d6000fd5b505050506040513d601f19601f82011682018060405250810190610f4f919061175f565b50905060006007548483610f6391906117c5565b610f6d91906117dc565b33600090815260086020526040812080549293508692909190610f919084906117fe565b925050819055508360076000828254610faa91906117fe565b9091555050604051632e1a7d4d60e01b8152600481018290527f00000000000000000000000000000000000000000000000000000000000000006001600160a01b031690632e1a7d4d90602401600060405180830381600087803b15801561101157600080fd5b505af1158015611025573d6000803e3d6000fd5b505050506000831561109357503360009081526008602052604090206002015480156110935733600081815260086020526040812060020155611093907f00000000000000000000000000000000000000000000000000000000000000006001600160a01b0316908361115e565b6110c76001600160a01b037f000000000000000000000000000000000000000000000000000000000000000016338461115e565b604080518381526020810183905233917ff279e6a1f5e320cca91135676d9cb6e44ca8a08c0b88342bcdb1144f6511b568910160405180910390a25050505050565b60045443146111295761111a6113f5565b6006556111256113de565b6004555b61113281610d7a565b6001600160a01b0390911660009081526008602052604090206002810191909155600654600190910155565b6040516001600160a01b0383166024820152604481018290526111c190849063a9059cbb60e01b906064015b60408051601f198184030181529190526020810180516001600160e01b03166001600160e01b031990931692909217909152611457565b505050565b6001546001600160a01b031633146105a05760405162461bcd60e51b815260206004820181905260248201527f4f776e61626c653a2063616c6c6572206973206e6f7420746865206f776e65726044820152606401610407565b600180546001600160a01b038381166001600160a01b0319831681179093556040519116919082907f8be0079c531659141344cd1fd0a4f28419497f9722a3daafe3b4186f6b6457e090600090a35050565b6040516001600160a01b03808516602483015283166044820152606481018290526112aa9085906323b872dd60e01b9060840161118a565b50505050565b604051636eb1769f60e11b81523060048201526001600160a01b03828116602483015283917f00000000000000000000000000000000000000000000000000000000000000009091169063dd62ed3e90604401602060405180830381865afa158015611320573d6000803e3d6000fd5b505050506040513d601f19601f820116820180604052508101906113449190611783565b10156104245760405163095ea7b360e01b81526001600160a01b03828116600483015260001960248301527f0000000000000000000000000000000000000000000000000000000000000000169063095ea7b3906044016020604051808303816000875af11580156113ba573d6000803e3d6000fd5b505050506040513d601f19601f820116820180604052508101906111c19190611811565b600060055443106113f0575060055490565b504390565b6000600754600003611408575060065490565b600754670de0b6b3a764000060025461142191906117c5565b60045461142c6113de565b61143691906117fe565b61144091906117c5565b61144a91906117dc565b600654610b7e91906117b2565b60006114ac826040518060400160405280602081526020017f5361666545524332303a206c6f772d6c6576656c2063616c6c206661696c6564815250856001600160a01b03166115299092919063ffffffff16565b8051909150156111c157808060200190518101906114ca9190611811565b6111c15760405162461bcd60e51b815260206004820152602a60248201527f5361666545524332303a204552433230206f7065726174696f6e20646964206e6044820152691bdd081cdd58d8d9595960b21b6064820152608401610407565b60606115388484600085611540565b949350505050565b6060824710156115a15760405162461bcd60e51b815260206004820152602660248201527f416464726573733a20696e73756666696369656e742062616c616e636520666f6044820152651c8818d85b1b60d21b6064820152608401610407565b600080866001600160a01b031685876040516115bd9190611852565b60006040518083038185875af1925050503d80600081146115fa576040519150601f19603f3d011682016040523d82523d6000602084013e6115ff565b606091505b50915091506116108783838761161b565b979650505050505050565b6060831561168a578251600003611683576001600160a01b0385163b6116835760405162461bcd60e51b815260206004820152601d60248201527f416464726573733a2063616c6c20746f206e6f6e2d636f6e74726163740000006044820152606401610407565b5081611538565b611538838381511561169f5781518083602001fd5b8060405162461bcd60e51b8152600401610407919061186e565b6000602082840312156116cb57600080fd5b81356001600160a01b0381168114610cfd57600080fd5b801515811461037657600080fd5b60006020828403121561170257600080fd5b8135610cfd816116e2565b6000806040838503121561172057600080fd5b823591506020830135611732816116e2565b809150509250929050565b6000806040838503121561175057600080fd5b50508035926020909101359150565b6000806040838503121561177257600080fd5b505080516020909101519092909150565b60006020828403121561179557600080fd5b5051919050565b634e487b7160e01b600052601160045260246000fd5b808201808211156103445761034461179c565b80820281158282048414176103445761034461179c565b6000826117f957634e487b7160e01b600052601260045260246000fd5b500490565b818103818111156103445761034461179c565b60006020828403121561182357600080fd5b8151610cfd816116e2565b60005b83811015611849578181015183820152602001611831565b50506000910152565b6000825161186481846020870161182e565b9190910192915050565b602081526000825180602084015261188d81604085016020870161182e565b601f01601f1916919091016040019291505056fea264697066735822122017780447414de5e604ed27d108eaf544097b18335fd555e6dc6868071ae515d164736f6c63430008110033",
    "linkReferences": {}
  },
  "methodIdentifiers": {
    "PRECISION_FACTOR()": "ccd34cd5",
    "calculatePendingRewards(address)": "097aad10",
    "calculateSharePriceInLOOKS()": "6de26e38",
    "calculateSharesValueInLOOKS(address)": "ab5e32af",
    "currentRewardPerBlock()": "cb4aec61",
    "deposit(uint256,bool)": "9a408321",
    "harvest()": "4641257d",
    "lastRewardAdjustment()": "40d2abae",
    "lastRewardBlock()": "a9f8d181",
    "lastUpdateBlock()": "a218141b",
    "looksRareToken()": "36db9fb2",
    "owner()": "8da5cb5b",
    "periodEndBlock()": "442da82f",
    "renounceOwnership()": "715018a6",
    "rewardPerTokenStored()": "df136d65",
    "rewardToken()": "f7c618c1",
    "tokenDistributor()": "18a6bc32",
    "totalShares()": "3a98ef39",
    "transferOwnership(address)": "f2fde38b",
    "updateRewards(uint256,uint256)": "97e50818",
    "userInfo(address)": "1959a002",
    "withdraw(uint256,bool)": "38d07436",
    "withdrawAll(bool)": "1c1c6fe5"
  },
  "id": 53
}