{
  "abi": [
    {
      "inputs": [
        {
          "internalType": "address",
          "name": "_stakedToken",
          "type": "address"
        },
        {
          "internalType": "address",
          "name": "_looksRareToken",
          "type": "address"
        },
        {
          "internalType": "uint256",
          "name": "_rewardPerBlock",
          "type": "uint256"
        },
        {
          "internalType": "uint256",
          "name": "_startBlock",
          "type": "uint256"
        },
        {
          "internalType": "uint256",
          "name": "_endBlock",
          "type": "uint256"
        }
      ],
      "stateMutability": "nonpayable",
      "type": "constructor"
    },
    {
      "anonymous": false,
      "inputs": [
        {
          "indexed": false,
          "internalType": "uint256",
          "name": "amount",
          "type": "uint256"
        }
      ],
      "name": "AdminRewardWithdraw",
      "type": "event"
    },
    {
      "anonymous": false,
      "inputs": [
        {
          "indexed": true,
          "internalType": "address",
          "name": "user",
          "type": "address"
        },
        {
          "indexed": false,
          "internalType": "uint256",
          "name": "amount",
          "type": "uint256"
        },
        {
          "indexed": false,
          "internalType": "uint256",
          "name": "harvestedAmount",
          "type": "uint256"
        }
      ],
      "name": "Deposit",
      "type": "event"
    },
    {
      "anonymous": false,
      "inputs": [
        {
          "indexed": true,
          "internalType": "address",
          "name": "user",
          "type": "address"
        },
        {
          "indexed": false,
          "internalType": "uint256",
          "name": "amount",
          "type": "uint256"
        }
      ],
      "name": "EmergencyWithdraw",
      "type": "event"
    },
    {
      "anonymous": false,
      "inputs": [
        {
          "indexed": true,
          "internalType": "address",
          "name": "user",
          "type": "address"
        },
        {
          "indexed": false,
          "internalType": "uint256",
          "name": "harvestedAmount",
          "type": "uint256"
        }
      ],
      "name": "Harvest",
      "type": "event"
    },
    {
      "anonymous": false,
      "inputs": [
        {
          "indexed": false,
          "internalType": "uint256",
          "name": "rewardPerBlock",
          "type": "uint256"
        },
        {
          "indexed": false,
          "internalType": "uint256",
          "name": "endBlock",
          "type": "uint256"
        }
      ],
      "name": "NewRewardPerBlockAndEndBlock",
      "type": "event"
    },
    {
      "anonymous": false,
      "inputs": [
        {
          "indexed": true,
          "internalType": "address",
          "name": "previousOwner",
          "type": "address"
        },
        {
          "indexed": true,
          "internalType": "address",
          "name": "newOwner",
          "type": "address"
        }
      ],
      "name": "OwnershipTransferred",
      "type": "event"
    },
    {
      "anonymous": false,
      "inputs": [
        {
          "indexed": false,
          "internalType": "address",
          "name": "account",
          "type": "address"
        }
      ],
      "name": "Paused",
      "type": "event"
    },
    {
      "anonymous": false,
      "inputs": [
        {
          "indexed": false,
          "internalType": "address",
          "name": "account",
          "type": "address"
        }
      ],
      "name": "Unpaused",
      "type": "event"
    },
    {
      "anonymous": false,
      "inputs": [
        {
          "indexed": true,
          "internalType": "address",
          "name": "user",
          "type": "address"
        },
        {
          "indexed": false,
          "internalType": "uint256",
          "name": "amount",
          "type": "uint256"
        },
        {
          "indexed": false,
          "internalType": "uint256",
          "name": "harvestedAmount",
          "type": "uint256"
        }
      ],
      "name": "Withdraw",
      "type": "event"
    },
    {
      "inputs": [],
      "name": "PRECISION_FACTOR",
      "outputs": [
        {
          "internalType": "uint256",
          "name": "",
          "type": "uint256"
        }
      ],
      "stateMutability": "view",
      "type": "function"
    },
    {
      "inputs": [],
      "name": "START_BLOCK",
      "outputs": [
        {
          "internalType": "uint256",
          "name": "",
          "type": "uint256"
        }
      ],
      "stateMutability": "view",
      "type": "function"
    },
    {
      "inputs": [],
      "name": "accTokenPerShare",
      "outputs": [
        {
          "internalType": "uint256",
          "name": "",
          "type": "uint256"
        }
      ],
      "stateMutability": "view",
      "type": "function"
    },
    {
      "inputs": [
        {
          "internalType": "uint256",
          "name": "amount",
          "type": "uint256"
        }
      ],
      "name": "adminRewardWithdraw",
      "outputs": [],
      "stateMutability": "nonpayable",
      "type": "function"
    },
    {
      "inputs": [
        {
          "internalType": "address",
          "name": "user",
          "type": "address"
        }
      ],
      "name": "calculatePendingRewards",
      "outputs": [
        {
          "internalType": "uint256",
          "name": "",
          "type": "uint256"
        }
      ],
      "stateMutability": "view",
      "type": "function"
    },
    {
      "inputs": [
        {
          "internalType": "uint256",
          "name": "amount",
          "type": "uint256"
        }
      ],
      "name": "deposit",
      "outputs": [],
      "stateMutability": "nonpayable",
      "type": "function"
    },
    {
      "inputs": [],
      "name": "emergencyWithdraw",
      "outputs": [],
      "stateMutability": "nonpayable",
      "type": "function"
    },
    {
      "inputs": [],
      "name": "endBlock",
      "outputs": [
        {
          "internalType": "uint256",
          "name": "",
          "type": "uint256"
        }
      ],
      "stateMutability": "view",
      "type": "function"
    },
    {
      "inputs": [],
      "name": "harvest",
      "outputs": [],
      "stateMutability": "nonpayable",
      "type": "function"
    },
    {
      "inputs": [],
      "name": "lastRewardBlock",
      "outputs": [
        {
          "internalType": "uint256",
          "name": "",
          "type": "uint256"
        }
      ],
      "stateMutability": "view",
      "type": "function"
    },
    {
      "inputs": [],
      "name": "looksRareToken",
      "outputs": [
        {
          "internalType": "contract IERC20",
          "name": "",
          "type": "address"
        }
      ],
      "stateMutability": "view",
      "type": "function"
    },
    {
      "inputs": [],
      "name": "owner",
      "outputs": [
        {
          "internalType": "address",
          "name": "",
          "type": "address"
        }
      ],
      "stateMutability": "view",
      "type": "function"
    },
    {
      "inputs": [],
      "name": "pause",
      "outputs": [],
      "stateMutability": "nonpayable",
      "type": "function"
    },
    {
      "inputs": [],
      "name": "paused",
      "outputs": [
        {
          "internalType": "bool",
          "name": "",
          "type": "bool"
        }
      ],
      "stateMutability": "view",
      "type": "function"
    },
    {
      "inputs": [],
      "name": "renounceOwnership",
      "outputs": [],
      "stateMutability": "nonpayable",
      "type": "function"
    },
    {
      "inputs": [],
      "name": "rewardPerBlock",
      "outputs": [
        {
          "internalType": "uint256",
          "name": "",
          "type": "uint256"
        }
      ],
      "stateMutability": "view",
      "type": "function"
    },
    {
      "inputs": [],
      "name": "stakedToken",
      "outputs": [
        {
          "internalType": "contract IERC20",
          "name": "",
          "type": "address"
        }
      ],
      "stateMutability": "view",
      "type": "function"
    },
    {
      "inputs": [
        {
          "internalType": "address",
          "name": "newOwner",
          "type": "address"
        }
      ],
      "name": "transferOwnership",
      "outputs": [],
      "stateMutability": "nonpayable",
      "type": "function"
    },
    {
      "inputs": [],
      "name": "unpause",
      "outputs": [],
      "stateMutability": "nonpayable",
      "type": "function"
    },
    {
      "inputs": [
        {
          "internalType": "uint256",
          "name": "newRewardPerBlock",
          "type": "uint256"
        },
        {
          "internalType": "uint256",
          "name": "newEndBlock",
          "type": "uint256"
        }
      ],
      "name": "updateRewardPerBlockAndEndBlock",
      "outputs": [],
      "stateMutability": "nonpayable",
      "type": "function"
    },
    {
      "inputs": [
        {
          "internalType": "address",
          "name": "",
          "type": "address"
        }
      ],
      "name": "userInfo",
      "outputs": [
        {
          "internalType": "uint256",
          "name": "amount",
          "type": "uint256"
        },
        {
          "internalType": "uint256",
          "name": "rewardDebt",
          "type": "uint256"
        }
      ],
      "stateMutability": "view",
      "type": "function"
    },
    {
      "inputs": [
        {
          "internalType": "uint256",
          "name": "amount",
          "type": "uint256"
        }
      ],
      "name": "withdraw",
      "outputs": [],
      "stateMutability": "nonpayable",
      "type": "function"
    }
  ],
  "bytecode": {
    "object": "0x60e06040523480156200001157600080fd5b5060405162001766380380620017668339810160408190526200003491620000e6565b6200003f3362000079565b6000805460ff60a01b19169055600180556001600160a01b0394851660a0529290931660805260055560c082905260035560045562000139565b600080546001600160a01b038381166001600160a01b0319831681178455604051919092169283917f8be0079c531659141344cd1fd0a4f28419497f9722a3daafe3b4186f6b6457e09190a35050565b80516001600160a01b0381168114620000e157600080fd5b919050565b600080600080600060a08688031215620000ff57600080fd5b6200010a86620000c9565b94506200011a60208701620000c9565b6040870151606088015160809098015196999198509695945092505050565b60805160a05160c0516115b0620001b66000396000818161020b01528181610b920152610c280152600081816102c10152818161033f01528181610607015281816109d301528181610b270152610e250152600081816101cc01528181610649015281816107ca01528181610860015261099f01526115b06000f3fe608060405234801561001057600080fd5b50600436106101425760003560e01c80638456cb59116100b8578063b6b55f251161007c578063b6b55f25146102a9578063cc7a262e146102bc578063ccd34cd5146102e3578063db2e21bc146102ef578063dead81b3146102f7578063f2fde38b1461030a57600080fd5b80638456cb59146102755780638ae39cac1461027d5780638da5cb5b146102865780638f66291514610297578063a9f8d181146102a057600080fd5b806339b3e8261161010a57806339b3e826146102065780633f4ba83a1461022d5780634641257d146102355780635c975abb1461023d578063715018a61461025a5780638060bf0c1461026257600080fd5b8063083c632314610147578063097aad10146101635780631959a002146101765780632e1a7d4d146101b257806336db9fb2146101c7575b600080fd5b61015060035481565b6040519081526020015b60405180910390f35b6101506101713660046113f3565b61031d565b61019d6101843660046113f3565b6006602052600090815260409020805460019091015482565b6040805192835260208301919091520161015a565b6101c56101c036600461141c565b6104af565b005b6101ee7f000000000000000000000000000000000000000000000000000000000000000081565b6040516001600160a01b03909116815260200161015a565b6101507f000000000000000000000000000000000000000000000000000000000000000081565b6101c56106b9565b6101c56106d3565b600054600160a01b900460ff16604051901515815260200161015a565b6101c5610839565b6101c561027036600461141c565b61084b565b6101c56108bd565b61015060055481565b6000546001600160a01b03166101ee565b61015060025481565b61015060045481565b6101c56102b736600461141c565b6108d5565b6101ee7f000000000000000000000000000000000000000000000000000000000000000081565b61015064e8d4a5100081565b6101c5610a9b565b6101c5610305366004611435565b610b88565b6101c56103183660046113f3565b610cf2565b6040516370a0823160e01b815230600482015260009081906001600160a01b037f000000000000000000000000000000000000000000000000000000000000000016906370a0823190602401602060405180830381865afa158015610386573d6000803e3d6000fd5b505050506040513d601f19601f820116820180604052508101906103aa9190611457565b9050600454431180156103bc57508015155b1561045f5760006103cf60045443610d68565b90506000600554826103e19190611486565b90506000836103f564e8d4a5100084611486565b6103ff919061149d565b60025461040c91906114bf565b6001600160a01b0387166000908152600660205260409020600181015490549192509064e8d4a5100090610441908490611486565b61044b919061149d565b61045591906114d2565b9695505050505050565b6001600160a01b038316600090815260066020526040902060018101546002549154909164e8d4a51000916104949190611486565b61049e919061149d565b6104a891906114d2565b9392505050565b6104b7610da9565b3360009081526006602052604090205481118015906104d65750600081115b61054d5760405162461bcd60e51b815260206004820152603760248201527f57697468647261773a20416d6f756e74206d757374206265203e2030206f722060448201527f6c6f776572207468616e20757365722062616c616e636500000000000000000060648201526084015b60405180910390fd5b610555610e02565b33600090815260066020526040812060018101546002549154909164e8d4a51000916105819190611486565b61058b919061149d565b61059591906114d2565b336000908152600660205260408120805492935084929091906105b99084906114d2565b90915550506002543360009081526006602052604090205464e8d4a51000916105e191611486565b6105eb919061149d565b33600081815260066020526040902060010191909155610636907f00000000000000000000000000000000000000000000000000000000000000006001600160a01b03169084610f11565b8015610670576106706001600160a01b037f0000000000000000000000000000000000000000000000000000000000000000163383610f11565b604080518381526020810183905233917ff279e6a1f5e320cca91135676d9cb6e44ca8a08c0b88342bcdb1144f6511b56891015b60405180910390a2506106b660018055565b50565b6106c1610f74565b6106c9610fce565b6106d161101e565b565b6106db610da9565b6106e3610e02565b33600090815260066020526040812060018101546002549154909164e8d4a510009161070f9190611486565b610719919061149d565b61072391906114d2565b9050600081116107815760405162461bcd60e51b8152602060048201526024808201527f486172766573743a2050656e64696e672072657761726473206d7573742062656044820152630203e20360e41b6064820152608401610544565b6002543360009081526006602052604090205464e8d4a51000916107a491611486565b6107ae919061149d565b336000818152600660205260409020600101919091556107f9907f00000000000000000000000000000000000000000000000000000000000000006001600160a01b03169083610f11565b60405181815233907fc9695243a805adb74c91f28311176c65b417e842d5699893cef56d18bfa48cba906020015b60405180910390a2506106d160018055565b610841610f74565b6106d16000611073565b610853610f74565b6108876001600160a01b037f0000000000000000000000000000000000000000000000000000000000000000163383610f11565b6040518181527f133d0bda545cf860a103708256d4e2d06ec7e5705693425765110f52045c47519060200160405180910390a150565b6108c5610f74565b6108cd6110c3565b6106d1611110565b6108dd610da9565b6000811161092d5760405162461bcd60e51b815260206004820152601b60248201527f4465706f7369743a20416d6f756e74206d757374206265203e203000000000006044820152606401610544565b610935610e02565b33600090815260066020526040812054156109c65733600090815260066020526040902060018101546002549154909164e8d4a51000916109769190611486565b610980919061149d565b61098a91906114d2565b905080156109c6576109c66001600160a01b037f0000000000000000000000000000000000000000000000000000000000000000163383610f11565b6109fb6001600160a01b037f000000000000000000000000000000000000000000000000000000000000000016333085611153565b3360009081526006602052604081208054849290610a1a9084906114bf565b90915550506002543360009081526006602052604090205464e8d4a5100091610a4291611486565b610a4c919061149d565b3360008181526006602090815260409182902060010193909355805185815292830184905290917f90890809c654f11d6e72a28fa60149770a0d11ec6c92319d6ceb2bb0a4ea1a1591016106a4565b610aa3610da9565b610aab610fce565b3360009081526006602052604081205490819003610b0b5760405162461bcd60e51b815260206004820152601c60248201527f57697468647261773a20416d6f756e74206d757374206265203e2030000000006044820152606401610544565b33600081815260066020526040812081815560010155610b56907f00000000000000000000000000000000000000000000000000000000000000006001600160a01b03169083610f11565b60405181815233907f5fafa99d0643513820be26656b45130b01e1c03062e1266bf36f88cbd3bd969590602001610827565b610b90610f74565b7f00000000000000000000000000000000000000000000000000000000000000004310610bbf57610bbf610e02565b438111610c265760405162461bcd60e51b815260206004820152602f60248201527f4f776e65723a204e657720656e64426c6f636b206d757374206265206166746560448201526e722063757272656e7420626c6f636b60881b6064820152608401610544565b7f00000000000000000000000000000000000000000000000000000000000000008111610cab5760405162461bcd60e51b815260206004820152602d60248201527f4f776e65723a204e657720656e64426c6f636b206d757374206265206166746560448201526c7220737461727420626c6f636b60981b6064820152608401610544565b6003819055600582905560408051838152602081018390527f5fbc8888d6f91664a15735f81cde412b4cc9641ac0ce5440a295439f71768e4b910160405180910390a15050565b610cfa610f74565b6001600160a01b038116610d5f5760405162461bcd60e51b815260206004820152602660248201527f4f776e61626c653a206e6577206f776e657220697320746865207a65726f206160448201526564647265737360d01b6064820152608401610544565b6106b681611073565b60006003548211610d8457610d7d83836114d2565b9050610da3565b6003548310610d9557506000610da3565b82600354610d7d91906114d2565b92915050565b600260015403610dfb5760405162461bcd60e51b815260206004820152601f60248201527f5265656e7472616e637947756172643a207265656e7472616e742063616c6c006044820152606401610544565b6002600155565b6004544311610e0d57565b6040516370a0823160e01b81523060048201526000907f00000000000000000000000000000000000000000000000000000000000000006001600160a01b0316906370a0823190602401602060405180830381865afa158015610e74573d6000803e3d6000fd5b505050506040513d601f19601f82011682018060405250810190610e989190611457565b905080600003610ea9575043600455565b6000610eb760045443610d68565b9050600060055482610ec99190611486565b90508015610efc5782610ee164e8d4a5100083611486565b610eeb919061149d565b600254610ef891906114bf565b6002555b60035460045411610f0c57436004555b505050565b6040516001600160a01b038316602482015260448101829052610f0c90849063a9059cbb60e01b906064015b60408051601f198184030181529190526020810180516001600160e01b03166001600160e01b031990931692909217909152611191565b6000546001600160a01b031633146106d15760405162461bcd60e51b815260206004820181905260248201527f4f776e61626c653a2063616c6c6572206973206e6f7420746865206f776e65726044820152606401610544565b600054600160a01b900460ff166106d15760405162461bcd60e51b815260206004820152601460248201527314185d5cd8589b194e881b9bdd081c185d5cd95960621b6044820152606401610544565b611026610fce565b6000805460ff60a01b191690557f5db9ee0a495bf2e6ff9c91a7834c1ba4fdd244a5e8aa4e537bd38aeae4b073aa335b6040516001600160a01b03909116815260200160405180910390a1565b600080546001600160a01b038381166001600160a01b0319831681178455604051919092169283917f8be0079c531659141344cd1fd0a4f28419497f9722a3daafe3b4186f6b6457e09190a35050565b600054600160a01b900460ff16156106d15760405162461bcd60e51b815260206004820152601060248201526f14185d5cd8589b194e881c185d5cd95960821b6044820152606401610544565b6111186110c3565b6000805460ff60a01b1916600160a01b1790557f62e78cea01bee320cd4e420270b5ea74000d11b0c9f74754ebdbfc544b05a2586110563390565b6040516001600160a01b038085166024830152831660448201526064810182905261118b9085906323b872dd60e01b90608401610f3d565b50505050565b60006111e6826040518060400160405280602081526020017f5361666545524332303a206c6f772d6c6576656c2063616c6c206661696c6564815250856001600160a01b03166112639092919063ffffffff16565b805190915015610f0c578080602001905181019061120491906114e5565b610f0c5760405162461bcd60e51b815260206004820152602a60248201527f5361666545524332303a204552433230206f7065726174696f6e20646964206e6044820152691bdd081cdd58d8d9595960b21b6064820152608401610544565b6060611272848460008561127a565b949350505050565b6060824710156112db5760405162461bcd60e51b815260206004820152602660248201527f416464726573733a20696e73756666696369656e742062616c616e636520666f6044820152651c8818d85b1b60d21b6064820152608401610544565b600080866001600160a01b031685876040516112f7919061152b565b60006040518083038185875af1925050503d8060008114611334576040519150601f19603f3d011682016040523d82523d6000602084013e611339565b606091505b509150915061134a87838387611355565b979650505050505050565b606083156113c45782516000036113bd576001600160a01b0385163b6113bd5760405162461bcd60e51b815260206004820152601d60248201527f416464726573733a2063616c6c20746f206e6f6e2d636f6e74726163740000006044820152606401610544565b5081611272565b61127283838151156113d95781518083602001fd5b8060405162461bcd60e51b81526004016105449190611547565b60006020828403121561140557600080fd5b81356001600160a01b03811681146104a857600080fd5b60006020828403121561142e57600080fd5b5035919050565b6000806040838503121561144857600080fd5b50508035926020909101359150565b60006020828403121561146957600080fd5b5051919050565b634e487b7160e01b600052601160045260246000fd5b8082028115828204841417610da357610da3611470565b6000826114ba57634e487b7160e01b600052601260045260246000fd5b500490565b80820180821115610da357610da3611470565b81810381811115610da357610da3611470565b6000602082840312156114f757600080fd5b815180151581146104a857600080fd5b60005b8381101561152257818101518382015260200161150a565b50506000910152565b6000825161153d818460208701611507565b9190910192915050565b6020815260008251806020840152611566816040850160208701611507565b601f01601f1916919091016040019291505056fea2646970667358221220ca3dd1b971f6006d0841578c5834521748753bdfa63c6c2ad744cd4814b719fe64736f6c63430008110033",
    "linkReferences": {}
  },
  "methodIdentifiers": {
    "PRECISION_FACTOR()": "ccd34cd5",
    "START_BLOCK()": "39b3e826",
    "accTokenPerShare()": "8f662915",
    "adminRewardWithdraw(uint256)": "8060bf0c",
    "calculatePendingRewards(address)": "097aad10",
    "deposit(uint256)": "b6b55f25",
    "emergencyWithdraw()": "db2e21bc",
    "endBlock()": "083c6323",
    "harvest()": "4641257d",
    "lastRewardBlock()": "a9f8d181",
    "looksRareToken()": "36db9fb2",
    "owner()": "8da5cb5b",
    "pause()": "8456cb59",
    "paused()": "5c975abb",
    "renounceOwnership()": "715018a6",
    "rewardPerBlock()": "8ae39cac",
    "stakedToken()": "cc7a262e",
    "transferOwnership(address)": "f2fde38b",
    "unpause()": "3f4ba83a",
    "updateRewardPerBlockAndEndBlock(uint256,uint256)": "dead81b3",
    "userInfo(address)": "1959a002",
    "withdraw(uint256)": "2e1a7d4d"
  },
  "id": 54
}