{
  "abi": [
    {
      "inputs": [
        {
          "internalType": "string",
          "name": "_uri",
          "type": "string"
        },
        {
          "internalType": "address",
          "name": "_lzEndpoint",
          "type": "address"
        }
      ],
      "stateMutability": "nonpayable",
      "type": "constructor"
    },
    {
      "inputs": [
        {
          "internalType": "address",
          "name": "operator",
          "type": "address"
        }
      ],
      "name": "OperatorNotAllowed",
      "type": "error"
    },
    {
      "anonymous": false,
      "inputs": [
        {
          "indexed": true,
          "internalType": "address",
          "name": "account",
          "type": "address"
        },
        {
          "indexed": true,
          "internalType": "address",
          "name": "operator",
          "type": "address"
        },
        {
          "indexed": false,
          "internalType": "bool",
          "name": "approved",
          "type": "bool"
        }
      ],
      "name": "ApprovalForAll",
      "type": "event"
    },
    {
      "anonymous": false,
      "inputs": [
        {
          "indexed": false,
          "internalType": "uint16",
          "name": "_srcChainId",
          "type": "uint16"
        },
        {
          "indexed": false,
          "internalType": "bytes",
          "name": "_srcAddress",
          "type": "bytes"
        },
        {
          "indexed": false,
          "internalType": "uint64",
          "name": "_nonce",
          "type": "uint64"
        },
        {
          "indexed": false,
          "internalType": "bytes",
          "name": "_payload",
          "type": "bytes"
        },
        {
          "indexed": false,
          "internalType": "bytes",
          "name": "_reason",
          "type": "bytes"
        }
      ],
      "name": "MessageFailed",
      "type": "event"
    },
    {
      "anonymous": false,
      "inputs": [
        {
          "indexed": true,
          "internalType": "address",
          "name": "previousOwner",
          "type": "address"
        },
        {
          "indexed": true,
          "internalType": "address",
          "name": "newOwner",
          "type": "address"
        }
      ],
      "name": "OwnershipTransferred",
      "type": "event"
    },
    {
      "anonymous": false,
      "inputs": [
        {
          "indexed": true,
          "internalType": "uint16",
          "name": "_srcChainId",
          "type": "uint16"
        },
        {
          "indexed": true,
          "internalType": "bytes",
          "name": "_srcAddress",
          "type": "bytes"
        },
        {
          "indexed": true,
          "internalType": "address",
          "name": "_toAddress",
          "type": "address"
        },
        {
          "indexed": false,
          "internalType": "uint256[]",
          "name": "_tokenIds",
          "type": "uint256[]"
        },
        {
          "indexed": false,
          "internalType": "uint256[]",
          "name": "_amounts",
          "type": "uint256[]"
        },
        {
          "indexed": false,
          "internalType": "uint64",
          "name": "_nonce",
          "type": "uint64"
        }
      ],
      "name": "ReceiveBatchFromChain",
      "type": "event"
    },
    {
      "anonymous": false,
      "inputs": [
        {
          "indexed": true,
          "internalType": "uint16",
          "name": "_srcChainId",
          "type": "uint16"
        },
        {
          "indexed": true,
          "internalType": "bytes",
          "name": "_srcAddress",
          "type": "bytes"
        },
        {
          "indexed": true,
          "internalType": "address",
          "name": "_toAddress",
          "type": "address"
        },
        {
          "indexed": false,
          "internalType": "uint256",
          "name": "_tokenId",
          "type": "uint256"
        },
        {
          "indexed": false,
          "internalType": "uint256",
          "name": "_amount",
          "type": "uint256"
        },
        {
          "indexed": false,
          "internalType": "uint64",
          "name": "_nonce",
          "type": "uint64"
        }
      ],
      "name": "ReceiveFromChain",
      "type": "event"
    },
    {
      "anonymous": false,
      "inputs": [
        {
          "indexed": false,
          "internalType": "uint16",
          "name": "_srcChainId",
          "type": "uint16"
        },
        {
          "indexed": false,
          "internalType": "bytes",
          "name": "_srcAddress",
          "type": "bytes"
        },
        {
          "indexed": false,
          "internalType": "uint64",
          "name": "_nonce",
          "type": "uint64"
        },
        {
          "indexed": false,
          "internalType": "bytes32",
          "name": "_payloadHash",
          "type": "bytes32"
        }
      ],
      "name": "RetryMessageSuccess",
      "type": "event"
    },
    {
      "anonymous": false,
      "inputs": [
        {
          "indexed": true,
          "internalType": "address",
          "name": "_sender",
          "type": "address"
        },
        {
          "indexed": true,
          "internalType": "uint16",
          "name": "_dstChainId",
          "type": "uint16"
        },
        {
          "indexed": true,
          "internalType": "bytes",
          "name": "_toAddress",
          "type": "bytes"
        },
        {
          "indexed": false,
          "internalType": "uint256[]",
          "name": "_tokenIds",
          "type": "uint256[]"
        },
        {
          "indexed": false,
          "internalType": "uint256[]",
          "name": "_amounts",
          "type": "uint256[]"
        },
        {
          "indexed": false,
          "internalType": "uint64",
          "name": "_nonce",
          "type": "uint64"
        }
      ],
      "name": "SendBatchToChain",
      "type": "event"
    },
    {
      "anonymous": false,
      "inputs": [
        {
          "indexed": true,
          "internalType": "address",
          "name": "_sender",
          "type": "address"
        },
        {
          "indexed": true,
          "internalType": "uint16",
          "name": "_dstChainId",
          "type": "uint16"
        },
        {
          "indexed": true,
          "internalType": "bytes",
          "name": "_toAddress",
          "type": "bytes"
        },
        {
          "indexed": false,
          "internalType": "uint256",
          "name": "_tokenId",
          "type": "uint256"
        },
        {
          "indexed": false,
          "internalType": "uint256",
          "name": "_amount",
          "type": "uint256"
        },
        {
          "indexed": false,
          "internalType": "uint64",
          "name": "_nonce",
          "type": "uint64"
        }
      ],
      "name": "SendToChain",
      "type": "event"
    },
    {
      "anonymous": false,
      "inputs": [
        {
          "indexed": false,
          "internalType": "uint16",
          "name": "_dstChainId",
          "type": "uint16"
        },
        {
          "indexed": false,
          "internalType": "uint16",
          "name": "_type",
          "type": "uint16"
        },
        {
          "indexed": false,
          "internalType": "uint256",
          "name": "_minDstGas",
          "type": "uint256"
        }
      ],
      "name": "SetMinDstGas",
      "type": "event"
    },
    {
      "anonymous": false,
      "inputs": [
        {
          "indexed": false,
          "internalType": "address",
          "name": "precrime",
          "type": "address"
        }
      ],
      "name": "SetPrecrime",
      "type": "event"
    },
    {
      "anonymous": false,
      "inputs": [
        {
          "indexed": false,
          "internalType": "uint16",
          "name": "_remoteChainId",
          "type": "uint16"
        },
        {
          "indexed": false,
          "internalType": "bytes",
          "name": "_path",
          "type": "bytes"
        }
      ],
      "name": "SetTrustedRemote",
      "type": "event"
    },
    {
      "anonymous": false,
      "inputs": [
        {
          "indexed": false,
          "internalType": "uint16",
          "name": "_remoteChainId",
          "type": "uint16"
        },
        {
          "indexed": false,
          "internalType": "bytes",
          "name": "_remoteAddress",
          "type": "bytes"
        }
      ],
      "name": "SetTrustedRemoteAddress",
      "type": "event"
    },
    {
      "anonymous": false,
      "inputs": [
        {
          "indexed": true,
          "internalType": "address",
          "name": "operator",
          "type": "address"
        },
        {
          "indexed": true,
          "internalType": "address",
          "name": "from",
          "type": "address"
        },
        {
          "indexed": true,
          "internalType": "address",
          "name": "to",
          "type": "address"
        },
        {
          "indexed": false,
          "internalType": "uint256[]",
          "name": "ids",
          "type": "uint256[]"
        },
        {
          "indexed": false,
          "internalType": "uint256[]",
          "name": "values",
          "type": "uint256[]"
        }
      ],
      "name": "TransferBatch",
      "type": "event"
    },
    {
      "anonymous": false,
      "inputs": [
        {
          "indexed": true,
          "internalType": "address",
          "name": "operator",
          "type": "address"
        },
        {
          "indexed": true,
          "internalType": "address",
          "name": "from",
          "type": "address"
        },
        {
          "indexed": true,
          "internalType": "address",
          "name": "to",
          "type": "address"
        },
        {
          "indexed": false,
          "internalType": "uint256",
          "name": "id",
          "type": "uint256"
        },
        {
          "indexed": false,
          "internalType": "uint256",
          "name": "value",
          "type": "uint256"
        }
      ],
      "name": "TransferSingle",
      "type": "event"
    },
    {
      "anonymous": false,
      "inputs": [
        {
          "indexed": false,
          "internalType": "string",
          "name": "value",
          "type": "string"
        },
        {
          "indexed": true,
          "internalType": "uint256",
          "name": "id",
          "type": "uint256"
        }
      ],
      "name": "URI",
      "type": "event"
    },
    {
      "inputs": [],
      "name": "DEFAULT_PAYLOAD_SIZE_LIMIT",
      "outputs": [
        {
          "internalType": "uint256",
          "name": "",
          "type": "uint256"
        }
      ],
      "stateMutability": "view",
      "type": "function"
    },
    {
      "inputs": [],
      "name": "OPERATOR_FILTER_REGISTRY",
      "outputs": [
        {
          "internalType": "contract IOperatorFilterRegistry",
          "name": "",
          "type": "address"
        }
      ],
      "stateMutability": "view",
      "type": "function"
    },
    {
      "inputs": [
        {
          "internalType": "address",
          "name": "account",
          "type": "address"
        },
        {
          "internalType": "uint256",
          "name": "id",
          "type": "uint256"
        }
      ],
      "name": "balanceOf",
      "outputs": [
        {
          "internalType": "uint256",
          "name": "",
          "type": "uint256"
        }
      ],
      "stateMutability": "view",
      "type": "function"
    },
    {
      "inputs": [
        {
          "internalType": "address[]",
          "name": "accounts",
          "type": "address[]"
        },
        {
          "internalType": "uint256[]",
          "name": "ids",
          "type": "uint256[]"
        }
      ],
      "name": "balanceOfBatch",
      "outputs": [
        {
          "internalType": "uint256[]",
          "name": "",
          "type": "uint256[]"
        }
      ],
      "stateMutability": "view",
      "type": "function"
    },
    {
      "inputs": [
        {
          "internalType": "uint16",
          "name": "_dstChainId",
          "type": "uint16"
        },
        {
          "internalType": "bytes",
          "name": "_toAddress",
          "type": "bytes"
        },
        {
          "internalType": "uint256[]",
          "name": "_tokenIds",
          "type": "uint256[]"
        },
        {
          "internalType": "uint256[]",
          "name": "_amounts",
          "type": "uint256[]"
        },
        {
          "internalType": "bool",
          "name": "_useZro",
          "type": "bool"
        },
        {
          "internalType": "bytes",
          "name": "_adapterParams",
          "type": "bytes"
        }
      ],
      "name": "estimateSendBatchFee",
      "outputs": [
        {
          "internalType": "uint256",
          "name": "nativeFee",
          "type": "uint256"
        },
        {
          "internalType": "uint256",
          "name": "zroFee",
          "type": "uint256"
        }
      ],
      "stateMutability": "view",
      "type": "function"
    },
    {
      "inputs": [
        {
          "internalType": "uint16",
          "name": "_dstChainId",
          "type": "uint16"
        },
        {
          "internalType": "bytes",
          "name": "_toAddress",
          "type": "bytes"
        },
        {
          "internalType": "uint256",
          "name": "_tokenId",
          "type": "uint256"
        },
        {
          "internalType": "uint256",
          "name": "_amount",
          "type": "uint256"
        },
        {
          "internalType": "bool",
          "name": "_useZro",
          "type": "bool"
        },
        {
          "internalType": "bytes",
          "name": "_adapterParams",
          "type": "bytes"
        }
      ],
      "name": "estimateSendFee",
      "outputs": [
        {
          "internalType": "uint256",
          "name": "nativeFee",
          "type": "uint256"
        },
        {
          "internalType": "uint256",
          "name": "zroFee",
          "type": "uint256"
        }
      ],
      "stateMutability": "view",
      "type": "function"
    },
    {
      "inputs": [
        {
          "internalType": "uint256",
          "name": "id",
          "type": "uint256"
        }
      ],
      "name": "exists",
      "outputs": [
        {
          "internalType": "bool",
          "name": "",
          "type": "bool"
        }
      ],
      "stateMutability": "view",
      "type": "function"
    },
    {
      "inputs": [
        {
          "internalType": "uint16",
          "name": "",
          "type": "uint16"
        },
        {
          "internalType": "bytes",
          "name": "",
          "type": "bytes"
        },
        {
          "internalType": "uint64",
          "name": "",
          "type": "uint64"
        }
      ],
      "name": "failedMessages",
      "outputs": [
        {
          "internalType": "bytes32",
          "name": "",
          "type": "bytes32"
        }
      ],
      "stateMutability": "view",
      "type": "function"
    },
    {
      "inputs": [
        {
          "internalType": "uint16",
          "name": "_srcChainId",
          "type": "uint16"
        },
        {
          "internalType": "bytes",
          "name": "_srcAddress",
          "type": "bytes"
        }
      ],
      "name": "forceResumeReceive",
      "outputs": [],
      "stateMutability": "nonpayable",
      "type": "function"
    },
    {
      "inputs": [
        {
          "internalType": "uint16",
          "name": "_version",
          "type": "uint16"
        },
        {
          "internalType": "uint16",
          "name": "_chainId",
          "type": "uint16"
        },
        {
          "internalType": "address",
          "name": "",
          "type": "address"
        },
        {
          "internalType": "uint256",
          "name": "_configType",
          "type": "uint256"
        }
      ],
      "name": "getConfig",
      "outputs": [
        {
          "internalType": "bytes",
          "name": "",
          "type": "bytes"
        }
      ],
      "stateMutability": "view",
      "type": "function"
    },
    {
      "inputs": [
        {
          "internalType": "uint16",
          "name": "_remoteChainId",
          "type": "uint16"
        }
      ],
      "name": "getTrustedRemoteAddress",
      "outputs": [
        {
          "internalType": "bytes",
          "name": "",
          "type": "bytes"
        }
      ],
      "stateMutability": "view",
      "type": "function"
    },
    {
      "inputs": [
        {
          "internalType": "address",
          "name": "account",
          "type": "address"
        },
        {
          "internalType": "address",
          "name": "operator",
          "type": "address"
        }
      ],
      "name": "isApprovedForAll",
      "outputs": [
        {
          "internalType": "bool",
          "name": "",
          "type": "bool"
        }
      ],
      "stateMutability": "view",
      "type": "function"
    },
    {
      "inputs": [
        {
          "internalType": "uint16",
          "name": "_srcChainId",
          "type": "uint16"
        },
        {
          "internalType": "bytes",
          "name": "_srcAddress",
          "type": "bytes"
        }
      ],
      "name": "isTrustedRemote",
      "outputs": [
        {
          "internalType": "bool",
          "name": "",
          "type": "bool"
        }
      ],
      "stateMutability": "view",
      "type": "function"
    },
    {
      "inputs": [],
      "name": "lzEndpoint",
      "outputs": [
        {
          "internalType": "contract ILayerZeroEndpoint",
          "name": "",
          "type": "address"
        }
      ],
      "stateMutability": "view",
      "type": "function"
    },
    {
      "inputs": [
        {
          "internalType": "uint16",
          "name": "_srcChainId",
          "type": "uint16"
        },
        {
          "internalType": "bytes",
          "name": "_srcAddress",
          "type": "bytes"
        },
        {
          "internalType": "uint64",
          "name": "_nonce",
          "type": "uint64"
        },
        {
          "internalType": "bytes",
          "name": "_payload",
          "type": "bytes"
        }
      ],
      "name": "lzReceive",
      "outputs": [],
      "stateMutability": "nonpayable",
      "type": "function"
    },
    {
      "inputs": [
        {
          "internalType": "uint16",
          "name": "",
          "type": "uint16"
        },
        {
          "internalType": "uint16",
          "name": "",
          "type": "uint16"
        }
      ],
      "name": "minDstGasLookup",
      "outputs": [
        {
          "internalType": "uint256",
          "name": "",
          "type": "uint256"
        }
      ],
      "stateMutability": "view",
      "type": "function"
    },
    {
      "inputs": [
        {
          "internalType": "uint16",
          "name": "_srcChainId",
          "type": "uint16"
        },
        {
          "internalType": "bytes",
          "name": "_srcAddress",
          "type": "bytes"
        },
        {
          "internalType": "uint64",
          "name": "_nonce",
          "type": "uint64"
        },
        {
          "internalType": "bytes",
          "name": "_payload",
          "type": "bytes"
        }
      ],
      "name": "nonblockingLzReceive",
      "outputs": [],
      "stateMutability": "nonpayable",
      "type": "function"
    },
    {
      "inputs": [],
      "name": "owner",
      "outputs": [
        {
          "internalType": "address",
          "name": "",
          "type": "address"
        }
      ],
      "stateMutability": "view",
      "type": "function"
    },
    {
      "inputs": [
        {
          "internalType": "uint16",
          "name": "",
          "type": "uint16"
        }
      ],
      "name": "payloadSizeLimitLookup",
      "outputs": [
        {
          "internalType": "uint256",
          "name": "",
          "type": "uint256"
        }
      ],
      "stateMutability": "view",
      "type": "function"
    },
    {
      "inputs": [],
      "name": "precrime",
      "outputs": [
        {
          "internalType": "address",
          "name": "",
          "type": "address"
        }
      ],
      "stateMutability": "view",
      "type": "function"
    },
    {
      "inputs": [],
      "name": "renounceOwnership",
      "outputs": [],
      "stateMutability": "nonpayable",
      "type": "function"
    },
    {
      "inputs": [
        {
          "internalType": "uint16",
          "name": "_srcChainId",
          "type": "uint16"
        },
        {
          "internalType": "bytes",
          "name": "_srcAddress",
          "type": "bytes"
        },
        {
          "internalType": "uint64",
          "name": "_nonce",
          "type": "uint64"
        },
        {
          "internalType": "bytes",
          "name": "_payload",
          "type": "bytes"
        }
      ],
      "name": "retryMessage",
      "outputs": [],
      "stateMutability": "payable",
      "type": "function"
    },
    {
      "inputs": [
        {
          "internalType": "address",
          "name": "from",
          "type": "address"
        },
        {
          "internalType": "address",
          "name": "to",
          "type": "address"
        },
        {
          "internalType": "uint256[]",
          "name": "ids",
          "type": "uint256[]"
        },
        {
          "internalType": "uint256[]",
          "name": "amounts",
          "type": "uint256[]"
        },
        {
          "internalType": "bytes",
          "name": "data",
          "type": "bytes"
        }
      ],
      "name": "safeBatchTransferFrom",
      "outputs": [],
      "stateMutability": "nonpayable",
      "type": "function"
    },
    {
      "inputs": [
        {
          "internalType": "address",
          "name": "from",
          "type": "address"
        },
        {
          "internalType": "address",
          "name": "to",
          "type": "address"
        },
        {
          "internalType": "uint256",
          "name": "tokenId",
          "type": "uint256"
        },
        {
          "internalType": "uint256",
          "name": "amount",
          "type": "uint256"
        },
        {
          "internalType": "bytes",
          "name": "data",
          "type": "bytes"
        }
      ],
      "name": "safeTransferFrom",
      "outputs": [],
      "stateMutability": "nonpayable",
      "type": "function"
    },
    {
      "inputs": [
        {
          "internalType": "address",
          "name": "_from",
          "type": "address"
        },
        {
          "internalType": "uint16",
          "name": "_dstChainId",
          "type": "uint16"
        },
        {
          "internalType": "bytes",
          "name": "_toAddress",
          "type": "bytes"
        },
        {
          "internalType": "uint256[]",
          "name": "_tokenIds",
          "type": "uint256[]"
        },
        {
          "internalType": "uint256[]",
          "name": "_amounts",
          "type": "uint256[]"
        },
        {
          "internalType": "address payable",
          "name": "_refundAddress",
          "type": "address"
        },
        {
          "internalType": "address",
          "name": "_zroPaymentAddress",
          "type": "address"
        },
        {
          "internalType": "bytes",
          "name": "_adapterParams",
          "type": "bytes"
        }
      ],
      "name": "sendBatchFrom",
      "outputs": [],
      "stateMutability": "payable",
      "type": "function"
    },
    {
      "inputs": [
        {
          "internalType": "address",
          "name": "_from",
          "type": "address"
        },
        {
          "internalType": "uint16",
          "name": "_dstChainId",
          "type": "uint16"
        },
        {
          "internalType": "bytes",
          "name": "_toAddress",
          "type": "bytes"
        },
        {
          "internalType": "uint256",
          "name": "_tokenId",
          "type": "uint256"
        },
        {
          "internalType": "uint256",
          "name": "_amount",
          "type": "uint256"
        },
        {
          "internalType": "address payable",
          "name": "_refundAddress",
          "type": "address"
        },
        {
          "internalType": "address",
          "name": "_zroPaymentAddress",
          "type": "address"
        },
        {
          "internalType": "bytes",
          "name": "_adapterParams",
          "type": "bytes"
        }
      ],
      "name": "sendFrom",
      "outputs": [],
      "stateMutability": "payable",
      "type": "function"
    },
    {
      "inputs": [
        {
          "internalType": "address",
          "name": "operator",
          "type": "address"
        },
        {
          "internalType": "bool",
          "name": "approved",
          "type": "bool"
        }
      ],
      "name": "setApprovalForAll",
      "outputs": [],
      "stateMutability": "nonpayable",
      "type": "function"
    },
    {
      "inputs": [
        {
          "internalType": "uint16",
          "name": "_version",
          "type": "uint16"
        },
        {
          "internalType": "uint16",
          "name": "_chainId",
          "type": "uint16"
        },
        {
          "internalType": "uint256",
          "name": "_configType",
          "type": "uint256"
        },
        {
          "internalType": "bytes",
          "name": "_config",
          "type": "bytes"
        }
      ],
      "name": "setConfig",
      "outputs": [],
      "stateMutability": "nonpayable",
      "type": "function"
    },
    {
      "inputs": [
        {
          "internalType": "uint16",
          "name": "_dstChainId",
          "type": "uint16"
        },
        {
          "internalType": "uint16",
          "name": "_packetType",
          "type": "uint16"
        },
        {
          "internalType": "uint256",
          "name": "_minGas",
          "type": "uint256"
        }
      ],
      "name": "setMinDstGas",
      "outputs": [],
      "stateMutability": "nonpayable",
      "type": "function"
    },
    {
      "inputs": [
        {
          "internalType": "uint16",
          "name": "_dstChainId",
          "type": "uint16"
        },
        {
          "internalType": "uint256",
          "name": "_size",
          "type": "uint256"
        }
      ],
      "name": "setPayloadSizeLimit",
      "outputs": [],
      "stateMutability": "nonpayable",
      "type": "function"
    },
    {
      "inputs": [
        {
          "internalType": "address",
          "name": "_precrime",
          "type": "address"
        }
      ],
      "name": "setPrecrime",
      "outputs": [],
      "stateMutability": "nonpayable",
      "type": "function"
    },
    {
      "inputs": [
        {
          "internalType": "uint16",
          "name": "_version",
          "type": "uint16"
        }
      ],
      "name": "setReceiveVersion",
      "outputs": [],
      "stateMutability": "nonpayable",
      "type": "function"
    },
    {
      "inputs": [
        {
          "internalType": "uint16",
          "name": "_version",
          "type": "uint16"
        }
      ],
      "name": "setSendVersion",
      "outputs": [],
      "stateMutability": "nonpayable",
      "type": "function"
    },
    {
      "inputs": [
        {
          "internalType": "uint16",
          "name": "_srcChainId",
          "type": "uint16"
        },
        {
          "internalType": "bytes",
          "name": "_path",
          "type": "bytes"
        }
      ],
      "name": "setTrustedRemote",
      "outputs": [],
      "stateMutability": "nonpayable",
      "type": "function"
    },
    {
      "inputs": [
        {
          "internalType": "uint16",
          "name": "_remoteChainId",
          "type": "uint16"
        },
        {
          "internalType": "bytes",
          "name": "_remoteAddress",
          "type": "bytes"
        }
      ],
      "name": "setTrustedRemoteAddress",
      "outputs": [],
      "stateMutability": "nonpayable",
      "type": "function"
    },
    {
      "inputs": [
        {
          "internalType": "bytes4",
          "name": "interfaceId",
          "type": "bytes4"
        }
      ],
      "name": "supportsInterface",
      "outputs": [
        {
          "internalType": "bool",
          "name": "",
          "type": "bool"
        }
      ],
      "stateMutability": "view",
      "type": "function"
    },
    {
      "inputs": [
        {
          "internalType": "uint256",
          "name": "id",
          "type": "uint256"
        }
      ],
      "name": "totalSupply",
      "outputs": [
        {
          "internalType": "uint256",
          "name": "",
          "type": "uint256"
        }
      ],
      "stateMutability": "view",
      "type": "function"
    },
    {
      "inputs": [
        {
          "internalType": "address",
          "name": "newOwner",
          "type": "address"
        }
      ],
      "name": "transferOwnership",
      "outputs": [],
      "stateMutability": "nonpayable",
      "type": "function"
    },
    {
      "inputs": [
        {
          "internalType": "uint16",
          "name": "",
          "type": "uint16"
        }
      ],
      "name": "trustedRemoteLookup",
      "outputs": [
        {
          "internalType": "bytes",
          "name": "",
          "type": "bytes"
        }
      ],
      "stateMutability": "view",
      "type": "function"
    },
    {
      "inputs": [
        {
          "internalType": "uint256",
          "name": "",
          "type": "uint256"
        }
      ],
      "name": "uri",
      "outputs": [
        {
          "internalType": "string",
          "name": "",
          "type": "string"
        }
      ],
      "stateMutability": "view",
      "type": "function"
    }
  ],
  "bytecode": {
    "object": "0x60a06040908082523462000246576200409b803803809162000022828562000344565b833981018282820312620002465781516001600160401b03929083811162000246578101601f83818301121562000246578151928584116200022557865193602093601f19966200007a868987860116018862000344565b82875285838301011162000246579084929160005b8281106200032f575050600090860183015201516001600160a01b0380821691829003620002465760008054336001600160a01b03198216811783559216907f8be0079c531659141344cd1fd0a4f28419497f9722a3daafe3b4186f6b6457e09080a36080528251928584116200022557600854926001938481811c9116801562000324575b828210146200030e57838111620002c2575b5080928511600114620002575750839450908392916000946200024b575b50501b916000199060031b1c1916176008555b6daaeb6d7670e522a718067333cd4e90813b620001c7575b8251613d3290816200036982396080518181816104190152818161065b0152818161088601528181610cd5015281816117cb0152818161192401528181611ff401528181612142015281816122fc015261278f0152f35b813b156200024657600080926044855180958193633e9f1edf60e11b8352306004840152733cc6cdda760b79bafa08df41ecfa224f810dceb660248401525af180156200023b57156200017057811162000225578152388062000170565b634e487b7160e01b600052604160045260246000fd5b83513d6000823e3d90fd5b600080fd5b01519250388062000145565b929484908116600860005284600020946000905b88838310620002a757505050106200028d575b505050811b0160085562000158565b015160001960f88460031b161c191690553880806200027e565b8587015188559096019594850194879350908101906200026b565b6008600052816000208480880160051c82019284891062000304575b0160051c019085905b828110620002f757505062000127565b60008155018590620002e7565b92508192620002de565b634e487b7160e01b600052602260045260246000fd5b90607f169062000115565b8181018501518882018601528694016200008f565b601f909101601f19168101906001600160401b03821190821017620002255760405256fe60806040526004361015610013575b600080fd5b60003560e01c80621d356714610331578062fdd58e1461032857806301ffc9a71461031f57806307e0db17146103165780630df374831461030d5780630e89341c1461030457806310ddb137146102fb5780632eb2c2d6146102f25780633d8b38f6146102e95780633f1f4fa4146102e057806341f43434146102d757806342d65a8d146102ce5780634ab4e687146102c55780634db8226a146102bc5780634e1273f4146102b35780634f558e79146102aa5780635b8c41e6146102a157806366ad5c8a14610298578063715018a61461028f5780637533d788146102865780638608e5f81461027d5780638cfd8f5c146102745780638da5cb5b1461026b578063950c8a74146102625780639f38369a14610259578063a22cb46514610250578063a6c3d16514610247578063b25356631461023e578063b353aaa714610235578063baf3292d1461022c578063bd85b03914610223578063c44618341461021a578063cbed8b9c14610211578063d1deba1f14610208578063df2a5b3b146101ff578063e985e9c5146101f6578063eb8d72b7146101ed578063f242432a146101e4578063f2fde38b146101db5763f5ecbdbc146101d357600080fd5b61000e611f8e565b5061000e611ef3565b5061000e611deb565b5061000e611c86565b5061000e611c1d565b5061000e611b2a565b5061000e6119c6565b5061000e6118c3565b5061000e6118a5565b5061000e611878565b5061000e6117fa565b5061000e6117b4565b5061000e61171e565b5061000e611580565b5061000e61146f565b5061000e6113cf565b5061000e6113a5565b5061000e61137b565b5061000e611327565b5061000e611293565b5061000e611228565b5061000e6110dd565b5061000e611056565b5061000e610faf565b5061000e610f80565b5061000e610ec4565b5061000e610de6565b5061000e610d42565b5061000e610ca8565b5061000e610c7e565b5061000e610c3d565b5061000e610be0565b5061000e610a6b565b5061000e610852565b5061000e610778565b5061000e6106d3565b5061000e610627565b5061000e61058b565b5061000e610545565b5061000e610401565b6004359061ffff8216820361000e57565b6024359061ffff8216820361000e57565b9181601f8401121561000e578235916001600160401b03831161000e576020838186019501011161000e57565b6001600160401b0381160361000e57565b90608060031983011261000e5760043561ffff8116810361000e57916001600160401b039060243582811161000e57816103d69160040161035c565b939093926044356103e681610389565b9260643591821161000e576103fd9160040161035c565b9091565b503461000e576104103661039a565b929493919291907f00000000000000000000000000000000000000000000000000000000000000006001600160a01b031633036104d35761049661049e926104a49761048f6104756104708a61ffff166000526001602052604060002090565b61120d565b80519081841491826104c9575b50816104a6575b50612698565b3691610a19565b923691610a19565b92612a58565b005b90506104b3368486610a19565b6020815191012090602081519101201438610489565b1515915038610482565b60405162461bcd60e51b815260206004820152601e60248201527f4c7a4170703a20696e76616c696420656e64706f696e742063616c6c657200006044820152606490fd5b6001600160a01b0381160361000e57565b6004359061053682610518565b565b60c4359061053682610518565b503461000e57604036600319011261000e57602061057160043561056881610518565b60243590613106565b604051908152f35b6001600160e01b031981160361000e57565b503461000e57602036600319011261000e5760206004356105ab81610579565b6001600160e01b03191680159081156105ca575b506040519015158152f35b636cdb3d1360e11b811491508115610616575b81156105eb575b50386105bf565b6319abbbbb60e11b811491508115610605575b50386105e4565b6301ffc9a760e01b149050386105fe565b6303a24d0760e21b811491506105dd565b503461000e57600060203660031901126106d05761064361033a565b8160018060a01b03610659818354163314612942565b7f00000000000000000000000000000000000000000000000000000000000000001691823b156106cc57602461ffff918360405195869485936307e0db1760e01b85521660048401525af180156106bf575b6106b3575080f35b6106bc906108f4565b80f35b6106c76120b6565b6106ab565b5080fd5b80fd5b503461000e57604036600319011261000e5761ffff6106f061033a565b61070560018060a01b03600054163314612942565b166000526003602052602435604060002055600080f35b60005b83811061072f5750506000910152565b818101518382015260200161071f565b906020916107588151809281855285808601910161071c565b601f01601f1916010190565b90602061077592818152019061073f565b90565b503461000e5760208060031936011261000e5760405160009160085461079d8161113d565b8084529060019081811690811561083257506001146107d7575b6107d3846107c78188038261094a565b60405191829182610764565b0390f35b600860009081529294507ff3f7a9fe364faab93b216da50a3214154f22a0a2b415b23a84c8169e8b636ee35b82841061081f57505050816107d3936107c792820101936107b7565b8054858501870152928501928101610803565b60ff1916858501525050151560051b82010191506107c7816107d36107b7565b503461000e57600060203660031901126106d05761086e61033a565b8160018060a01b03610884818354163314612942565b7f00000000000000000000000000000000000000000000000000000000000000001691823b156106cc57602461ffff918360405195869485936310ddb13760e01b85521660048401525af180156106bf576106b3575080f35b50634e487b7160e01b600052604160045260246000fd5b6001600160401b03811161090757604052565b61090f6108dd565b604052565b60c081019081106001600160401b0382111761090757604052565b602081019081106001600160401b0382111761090757604052565b90601f801991011681019081106001600160401b0382111761090757604052565b6020906001600160401b038111610984575b60051b0190565b61098c6108dd565b61097d565b81601f8201121561000e578035916109a88361096b565b926109b6604051948561094a565b808452602092838086019260051b82010192831161000e578301905b8282106109e0575050505090565b813581529083019083016109d2565b6020906001600160401b038111610a0c575b601f01601f19160190565b610a146108dd565b610a01565b929192610a25826109ef565b91610a33604051938461094a565b82948184528183011161000e578281602093846000960137010152565b9080601f8301121561000e5781602061077593359101610a19565b503461000e5760a036600319011261000e57600435610a8981610518565b602435610a9581610518565b6001600160401b0360443581811161000e57610ab5903690600401610991565b60643582811161000e57610acd903690600401610991565b9160843590811161000e57610ae6903690600401610a50565b926001600160a01b0385163381148015919082610b98575b91610b73575b5015610b13576104a494613545565b60405162461bcd60e51b815260206004820152603260248201527f455243313135353a207472616e736665722063616c6c6572206973206e6f74206044820152711bdddb995c881b9bdc88185c1c1c9bdd995960721b6064820152608490fd5b6000908152600760209081526040808320338452909152902060ff9150541638610b04565b610ba133613c3d565b610afe565b90604060031983011261000e5760043561ffff8116810361000e5791602435906001600160401b03821161000e576103fd9160040161035c565b503461000e57602061ffff610c2e610bf736610ba6565b9390911660005260018452610c19610c20604060002060405192838092611177565b038261094a565b848151910120923691610a19565b82815191012014604051908152f35b503461000e57602036600319011261000e5761ffff610c5a61033a565b1660005260036020526020604060002054604051908152f35b600091031261000e57565b503461000e57600036600319011261000e5760206040516daaeb6d7670e522a718067333cd4e8152f35b503461000e57610cb736610ba6565b9190600092839160018060a01b03610cd3818554163314612942565b7f00000000000000000000000000000000000000000000000000000000000000001690813b15610d315783610d1f95604051968795869485936342d65a8d60e01b8552600485016129ae565b03925af180156106bf576106b3575080f35b8380fd5b60a4359061053682610518565b5061010036600319011261000e57610d58610529565b610d6061034b565b6001600160401b03919060443583811161000e57610d82903690600401610a50565b60643584811161000e57610d9a903690600401610991565b60843585811161000e57610db2903690600401610991565b90610dbb610d35565b92610dc4610538565b9460e43597881161000e57610de06104a4983690600401610a50565b966121ba565b5061010036600319011261000e57600435610e0081610518565b610e0861034b565b6001600160401b03919060443583811161000e57610e2a903690600401610a50565b9060a435610e3781610518565b60c43591610e4483610518565b60e43595861161000e57610e5f6104a4963690600401610a50565b93610e6b606435612649565b90610e77608435612649565b92349761228c565b90815180825260208080930193019160005b828110610e9f575050505090565b835185529381019392810192600101610e91565b906020610775928181520190610e7f565b503461000e57604036600319011261000e576004356001600160401b0380821161000e573660238301121561000e578160040135610f018161096b565b92610f0f604051948561094a565b81845260209160248386019160051b8301019136831161000e57602401905b828210610f67578560243586811161000e576107d391610f55610f5b923690600401610991565b906131b2565b60405191829182610eb3565b8380918335610f7581610518565b815201910190610f2e565b503461000e57602036600319011261000e57600435600052600960205260206040600020541515604051908152f35b503461000e57606036600319011261000e57610fc961033a565b6024356001600160401b03811161000e576107d3916110246020610ff4611045943690600401610a50565b61ffff6044359461100486610389565b16600052600582526040600020826040519483868095519384920161071c565b820190815203019020906001600160401b0316600052602052604060002090565b546040519081529081906020820190565b503461000e576110653661039a565b919294939030330361108957610496611083926104a4973691610a19565b92612c8e565b60405162461bcd60e51b815260206004820152602660248201527f4e6f6e626c6f636b696e674c7a4170703a2063616c6c6572206d7573742062656044820152650204c7a4170760d41b6064820152608490fd5b503461000e576000806003193601126106d057805481906001600160a01b0381169061110a338314612942565b6001600160a01b03191682557f8be0079c531659141344cd1fd0a4f28419497f9722a3daafe3b4186f6b6457e08280a380f35b90600182811c9216801561116d575b602083101461115757565b634e487b7160e01b600052602260045260246000fd5b91607f169161114c565b90600092918054916111888361113d565b9182825260019384811690816000146111ea57506001146111aa575b50505050565b90919394506000526020928360002092846000945b8386106111d65750505050010190388080806111a4565b8054858701830152940193859082016111bf565b9294505050602093945060ff191683830152151560051b010190388080806111a4565b906105366112219260405193848092611177565b038361094a565b503461000e57602036600319011261000e5761ffff61124561033a565b1660005260016020526107d3610c19611268604060002060405192838092611177565b60405191829160208352602083019061073f565b8015150361000e57565b608435906105368261127c565b503461000e5760c036600319011261000e576112ad61033a565b6001600160401b039060243582811161000e576112ce903690600401610a50565b90608435906112dc8261127c565b60a43593841161000e576112f7611315943690600401610a50565b92611303604435612649565b9061130f606435612649565b926120c3565b60408051928352602083019190915290f35b503461000e57604036600319011261000e57602061137261134661033a565b61ffff61135161034b565b91166000526002835260406000209061ffff16600052602052604060002090565b54604051908152f35b503461000e57600036600319011261000e576000546040516001600160a01b039091168152602090f35b503461000e57600036600319011261000e576004546040516001600160a01b039091168152602090f35b503461000e57602036600319011261000e5761ffff6113ec61033a565b166000526001602052610c1961140c604060002060405192838092611177565b80511561142a576107c7816114246107d39351612a34565b9061303f565b60405162461bcd60e51b815260206004820152601d60248201527f4c7a4170703a206e6f20747275737465642070617468207265636f72640000006044820152606490fd5b503461000e57604036600319011261000e5760043561148d81610518565b6024356114998161127c565b6114a282613c3d565b6001600160a01b03821691338314611529573360009081526007602052604090206114f79183916114e691905b9060018060a01b0316600052602052604060002090565b9060ff801983541691151516179055565b604051901515815233907f17307eab39ab6107e8899845ad3d59bd9653f200f220920489ca2b5937696c3190602090a3005b60405162461bcd60e51b815260206004820152602960248201527f455243313135353a2073657474696e6720617070726f76616c20737461747573604482015268103337b91039b2b63360b91b6064820152608490fd5b503461000e5761158f36610ba6565b91906000916115a860018060a01b038454163314612942565b6040519360208184828801376115d36034878481013060601b8582015203601481018952018761094a565b61ffff8316855260019081815260408620918751916001600160401b038311611711575b61160b83611605865461113d565b866129c9565b80601f841160011461167b57509180809261166a9695948a9b7f8c0400cfe2d1199b1a725c78960bcc2a344d869b80590d0f2bd005db15a572ce9b94611670575b50501b916000199060031b1c19161790555b604051938493846129ae565b0390a180f35b01519250388061164c565b91939498601f19841661169387600052602060002090565b938a905b8282106116fa575050917f8c0400cfe2d1199b1a725c78960bcc2a344d869b80590d0f2bd005db15a572ce999a9593918561166a989694106116e1575b505050811b01905561165e565b015160001960f88460031b161c191690553880806116d4565b808886978294978701518155019601940190611697565b6117196108dd565b6115f7565b503461000e5760c036600319011261000e5761173861033a565b6001600160401b039060243582811161000e57611759903690600401610a50565b60443583811161000e57611771903690600401610991565b60643584811161000e57611789903690600401610991565b90611792611286565b9260a43595861161000e576117ae611315963690600401610a50565b946120c3565b503461000e57600036600319011261000e576040517f00000000000000000000000000000000000000000000000000000000000000006001600160a01b03168152602090f35b503461000e57602036600319011261000e577f5db758e995a17ec1ad84bdef7e8c3293a0bd6179bcce400dff5d4c3d87db726b602060043561183b81610518565b6000546001600160a01b0391906118559083163314612942565b16806bffffffffffffffffffffffff60a01b6004541617600455604051908152a1005b503461000e57602036600319011261000e5760043560005260096020526020604060002054604051908152f35b503461000e57600036600319011261000e5760206040516127108152f35b503461000e57608036600319011261000e576118dd61033a565b6118e561034b565b6064356001600160401b03811161000e5761190490369060040161035c565b60018060a09493941b03916000948361192287958654163314612942565b7f00000000000000000000000000000000000000000000000000000000000000001691823b156119c257849061198f604051978896879586946332fb62e760e21b865261ffff8092166004870152166024850152604435604485015260806064850152608484019161298d565b03925af180156119b5575b6119a2575080f35b806119af6106bc926108f4565b80610c73565b6119bd6120b6565b61199a565b8480fd5b506119d03661039a565b9161ffff86949296166000526005602052611a1781604060002060206040518092878b833787820190815203019020906001600160401b0316600052602052604060002090565b54918215611ad957611ac88483611ac17fc264d91f3adc5588250e1551f547752ca0cfa8f6b530d243b9f9f4cab10ea8e59a6000611aad84611a958e8a8f611ad49f908f611a7b90611a6e611a8f9436908d610a19565b6020815191012014612f1a565b61ffff166000526005602052604060002090565b91612f01565b906001600160401b0316600052602052604060002090565b55611ab936878d610a19565b933691610a19565b9188612c8e565b60405195869586612f70565b0390a1005b60405162461bcd60e51b815260206004820152602360248201527f4e6f6e626c6f636b696e674c7a4170703a206e6f2073746f726564206d65737360448201526261676560e81b6064820152608490fd5b503461000e57606036600319011261000e57611b4461033a565b611b4c61034b565b60443591611b6560018060a01b03600054163314612942565b8215611be057611ad47f9d5c7c0b934da8fefa9c7760c98383778a12dfbfc0c3b3106518f43fb9508ac09361ffff8316600052600260205280611bba8560406000209061ffff16600052602052604060002090565b556040519384938460409194939294606082019561ffff80921683521660208201520152565b60405162461bcd60e51b81526020600482015260156024820152744c7a4170703a20696e76616c6964206d696e47617360581b6044820152606490fd5b503461000e57604036600319011261000e57602060ff611c7a600435611c4281610518565b60243590611c4f82610518565b60018060a01b03166000526007845260406000209060018060a01b0316600052602052604060002090565b54166040519015158152f35b503461000e57611c9536610ba6565b9190600091611cae60018060a01b038454163314612942565b61ffff81168352600160209080825260408520916001600160401b038711611dde575b611ce587611cdf855461113d565b856129c9565b8590601f8811600114611d4c575091868087989361166a957ffa41487ad5d6728f0b19276fa1eddc16558578f5109fc39d2dc33c3230470dab9993611d41575b501b906000198460031b1c1916179055604051938493846129ae565b880135925038611d25565b90601f198816611d6185600052602060002090565b9288905b828210611dc7575050918893917ffa41487ad5d6728f0b19276fa1eddc16558578f5109fc39d2dc33c3230470dab989961166a969410611dad575b505082811b01905561165e565b870135600019600386901b60f8161c191690553880611da0565b808685968294968c01358155019501930190611d65565b611de66108dd565b611cd1565b503461000e5760a036600319011261000e57600435611e0981610518565b602435611e1581610518565b6084356001600160401b03811161000e57611e34903690600401610a50565b906001600160a01b0383163381148015919082611ee5575b91611ec0575b5015611e69576104a4926064359160443591613333565b60405162461bcd60e51b815260206004820152602960248201527f455243313135353a2063616c6c6572206973206e6f74206f776e6572206e6f7260448201526808185c1c1c9bdd995960ba1b6064820152608490fd5b6000908152600760209081526040808320338452909152902060ff9150541638611e52565b611eee33613c3d565b611e4c565b503461000e57602036600319011261000e57600435611f1181610518565b6000546001600160a01b0390611f2a9082163314612942565b811615611f3a576104a4906130bf565b60405162461bcd60e51b815260206004820152602660248201527f4f776e61626c653a206e6577206f776e657220697320746865207a65726f206160448201526564647265737360d01b6064820152608490fd5b503461000e57608036600319011261000e576107d3611fab61033a565b611fb361034b565b90611fbf604435610518565b604051633d7b2f6f60e21b815261ffff91821660048201529116602482015230604482015260648035908201526000816084817f00000000000000000000000000000000000000000000000000000000000000006001600160a01b03165afa90811561205c575b60009161203b575b5060405191829182610764565b612056913d8091833e61204e818361094a565b81019061291d565b3861202e565b6120646120b6565b612026565b9161209290612084610775959360608652606086019061073f565b908482036020860152610e7f565b916040818403910152610e7f565b919082604091031261000e576020825192015190565b506040513d6000823e3d90fd5b919594936040946120f461213e936120e661ffff9789519b8c9360208501612069565b03601f1981018a528961094a565b6121258651988996879663040a7bb160e41b885216600487015230602487015260a0604487015260a486019061073f565b911515606485015283820360031901608485015261073f565b03817f00000000000000000000000000000000000000000000000000000000000000006001600160a01b03165afa9182156121ad575b600090819361218257509190565b90506103fd91925060403d81116121a6575b61219e818361094a565b8101906120a0565b503d612194565b6121b56120b6565b612174565b95939161053697959391349761228c565b9081602091031261000e575161077581610389565b6121f89060206040519282848094519384920161071c565b810103902090565b916122326001600160401b0391612224604094979697606087526060870190610e7f565b908582036020870152610e7f565b9416910152565b50634e487b7160e01b600052603260045260246000fd5b60209080511561225e570190565b612266612239565b0190565b602091815181101561227f575b60051b010190565b612287612239565b612277565b96909394956122ce93969892986122a487898b61245a565b6040516122c8816122ba8a8c8f60208501612069565b03601f19810183528261094a565b8661274b565b604051630f428ae960e31b815261ffff821660048201523060248201526001600160a01b03956020826044817f00000000000000000000000000000000000000000000000000000000000000008b165afa91821561244d575b60009261241d575b508451600181036123b5575061ffff92916123b09161238361237c6123757f65f8f231660ef9add3da95eb0bbdae4c246f6c10e274fae37b17190637080d4c9899612250565b5198612250565b51916121e0565b9860405195869516981696849160409194936001600160401b039160608501968552602085015216910152565b0390a4565b60019094939294116123cb575b50505050505050565b7f2d31495ecbe799a81d5475c03585aa019860601fed836229d70e335b732eab3d9361ffff936123fd61240e936121e0565b986040519586951698169684612200565b0390a4388080808080806123c2565b61243f91925060203d8111612446575b612437818361094a565b8101906121cb565b903861232f565b503d61242d565b6124556120b6565b612327565b6001600160a01b0381169390919033851480156125f4575b156125975784156125465761248a82518551146134c3565b612492612dac565b5061249e848385613b4b565b60005b825181101561250d57806124b8612508928561226a565b51612502866114cf6124ca858b61226a565b516124e3836114cf876000526006602052604060002090565b546124f08282101561364b565b03936000526006602052604060002090565b5561319a565b6124a1565b509391507f4a39dc06d4c0dbc64b70af90fd698a233a518aa5d07e595d983b8c0526c8f7fb6123b0600094604051918291339583613520565b60405162461bcd60e51b815260206004820152602360248201527f455243313135353a206275726e2066726f6d20746865207a65726f206164647260448201526265737360e81b6064820152608490fd5b60405162461bcd60e51b815260206004820152602f60248201527f4f4e4654313135353a2073656e642063616c6c6572206973206e6f74206f776e60448201526e195c881b9bdc88185c1c1c9bdd9959608a1b6064820152608490fd5b50600085815260076020908152604080832033845290915290205460ff16612472565b906126218261096b565b61262e604051918261094a565b828152809261263f601f199161096b565b0190602036910137565b60405190604082018281106001600160401b0382111761268b575b6040526001825260208201602036823782511561267f575290565b612687612239565b5290565b6126936108dd565b612664565b1561269f57565b60405162461bcd60e51b815260206004820152602660248201527f4c7a4170703a20696e76616c696420736f757263652073656e64696e6720636f6044820152651b9d1c9858dd60d21b6064820152608490fd5b9261271861077597959361ffff6127269416865260c0602087015260c086019061073f565b90848203604086015261073f565b6001600160a01b0391821660608401529316608082015280830360a09091015261073f565b946127749193929561ffff8116600052600160205261277b604060002060405194858092611177565b038461094a565b82511561280e5761278d85518261286c565b7f00000000000000000000000000000000000000000000000000000000000000006001600160a01b031693843b1561000e576000966127e291604051998a988997889662c5803160e81b8852600488016126f3565b03925af18015612801575b6127f45750565b806119af610536926108f4565b6128096120b6565b6127ed565b60405162461bcd60e51b815260206004820152603060248201527f4c7a4170703a2064657374696e6174696f6e20636861696e206973206e6f742060448201526f61207472757374656420736f7572636560801b6064820152608490fd5b61ffff1660005260036020526040600020549081156128d1575b1161288d57565b606460405162461bcd60e51b815260206004820152602060248201527f4c7a4170703a207061796c6f61642073697a6520697320746f6f206c617267656044820152fd5b6127109150612886565b81601f8201121561000e5780516128f1816109ef565b926128ff604051948561094a565b8184526020828401011161000e57610775916020808501910161071c565b9060208282031261000e5781516001600160401b03811161000e5761077592016128db565b1561294957565b606460405162461bcd60e51b815260206004820152602060248201527f4f776e61626c653a2063616c6c6572206973206e6f7420746865206f776e65726044820152fd5b908060209392818452848401376000828201840152601f01601f1916010190565b60409061ffff6107759593168152816020820152019161298d565b90601f81116129d757505050565b600091825260208220906020601f850160051c83019410612a13575b601f0160051c01915b828110612a0857505050565b8181556001016129fc565b90925082906129f3565b50634e487b7160e01b600052601160045260246000fd5b601319810191908211612a4357565b610536612a1d565b91908203918211612a4357565b9290915a604051633356ae4560e11b6020820190815261ffff87166024830152608060448301529491612ac482612ab6612a9560a483018761073f565b6001600160401b03881660648401528281036023190160848401528861073f565b03601f19810184528361094a565b6000809160405197612ad589610914565b609689528260208a019560a036883751923090f1903d9060968211612b1c575b6000908288523e15612b09575b5050505050565b612b1294612b25565b3880808080612b02565b60969150612af5565b9193612bc27fe183f33de2837795525b4792ca4cd60535bd77c53b7e7030060bfcf5734d6b0c95612bd0939561ffff81516020830120961695866000526005602052612b898361102460208b6040600020826040519483868095519384920161071c565b556001600160401b03612bae604051988998895260a060208a015260a089019061073f565b92166040870152858203606087015261073f565b90838203608085015261073f565b0390a1565b81601f8201121561000e57805191612bec8361096b565b92612bfa604051948561094a565b808452602092838086019260051b82010192831161000e578301905b828210612c24575050505090565b81518152908301908301612c16565b909160608284031261000e578151916001600160401b039283811161000e5784612c5e9183016128db565b93602082015184811161000e5781612c77918401612bd5565b93604083015190811161000e576107759201612bd5565b92612ca760149193929360208082518301019101612c33565b9391929092015191612cba848285612ddd565b805160018103612d3f5750916123b061ffff92612d0b612d04612cfd7f330378e2f010257b2fbe836316fb7ab303af5ed8f2795b82bca60d1c8c909f7697612250565b5197612250565b51976121e0565b9660405194859460018060a01b0316991696849160409194936001600160401b039160608501968552602085015216910152565b600190959391949511612d55575b505050505050565b612d9e61ffff92612d867f5604161d52abb20dbe3d4a2230e585a0b230b3d18179a0e00917b173f5f9adab956121e0565b9660405194859460018060a01b031699169684612200565b0390a4388080808080612d4d565b60405190602082018281106001600160401b03821117612dd0575b60405260008252565b612dd86108dd565b612dc7565b929160405192612dec8461092f565b600084526001600160a01b038516938415612eb257612e0e84518451146134c3565b612e19838588613ab2565b60005b8451811015612e6d5780612e33612e68928661226a565b51612e61612e598a6114cf612e48868c61226a565b516000526006602052604060002090565b918254612fb5565b905561319a565b612e1c565b509290946105369460006040517f4a39dc06d4c0dbc64b70af90fd698a233a518aa5d07e595d983b8c0526c8f7fb339180612ea9898983613520565b0390a4336139a6565b60405162461bcd60e51b815260206004820152602160248201527f455243313135353a206d696e7420746f20746865207a65726f206164647265736044820152607360f81b6064820152608490fd5b6020919283604051948593843782019081520301902090565b15612f2157565b60405162461bcd60e51b815260206004820152602160248201527f4e6f6e626c6f636b696e674c7a4170703a20696e76616c6964207061796c6f616044820152601960fa1b6064820152608490fd5b91612f9c9060609461ffff6001600160401b03949998979916855260806020860152608085019161298d565b951660408201520152565b90601f8201809211612a4357565b91908201809211612a4357565b15612fc957565b60405162461bcd60e51b815260206004820152600e60248201526d736c6963655f6f766572666c6f7760901b6044820152606490fd5b1561300657565b60405162461bcd60e51b8152602060048201526011602482015270736c6963655f6f75744f66426f756e647360781b6044820152606490fd5b6130538261304c81612fa7565b1015612fc2565b6130608282511015612fff565b81613078575050604051600081526020810160405290565b60405191601f811691821560051b808486010193838501920101905b8084106130ac5750508252601f01601f191660405290565b9092835181526020809101930190613094565b600080546001600160a01b039283166001600160a01b03198216811783559216907f8be0079c531659141344cd1fd0a4f28419497f9722a3daafe3b4186f6b6457e09080a3565b6001600160a01b038116156131415761313d91600052600660205260406000209060018060a01b0316600052602052604060002090565b5490565b60405162461bcd60e51b815260206004820152602b60248201527f455243313135353a2062616c616e636520717565727920666f7220746865207a60448201526a65726f206164647265737360a81b6064820152608490fd5b60019060001981146131aa570190565b612266612a1d565b9190918051835103613223576131c88151612617565b9060005b815181101561321c57806132076131f66131e9613217948661226a565b516001600160a01b031690565b613200838961226a565b5190613106565b613211828661226a565b5261319a565b6131cc565b5090925050565b60405162461bcd60e51b815260206004820152602960248201527f455243313135353a206163636f756e747320616e6420696473206c656e677468604482015268040dad2e6dac2e8c6d60bb1b6064820152608490fd5b1561328157565b60405162461bcd60e51b815260206004820152602560248201527f455243313135353a207472616e7366657220746f20746865207a65726f206164604482015264647265737360d81b6064820152608490fd5b156132db57565b60405162461bcd60e51b815260206004820152602a60248201527f455243313135353a20696e73756666696369656e742062616c616e636520666f60448201526939103a3930b739b332b960b11b6064820152608490fd5b6001600160a01b039594939291908682168015613350811561327a565b61335985612649565b61336287612649565b99841691821561347f575b613417575b5061053697985085613392846114cf886000526006602052604060002090565b5461339f828210156132d4565b036133b8846114cf886000526006602052604060002090565b556133d1846114cf876000526006602052604060002090565b6133dc878254612fb5565b9055604080518681526020810188905233917fc3d58168c5ae7397731d063d5bbf3d657854427343f4c083240f7aacaa2d0f6291a4336137c0565b969492909795939160005b885181101561346a578089612e6161345d61344c8f95613445816134659861226a565b519461226a565b516000526009602052604060002090565b918254612a4b565b613422565b50919395985091939550610536968897613372565b98969492909795939160005b8b8a518210156134b357908a612e61612e5961344c84613445816134ae9861226a565b61348b565b505091939597909294969861336d565b156134ca57565b60405162461bcd60e51b815260206004820152602860248201527f455243313135353a2069647320616e6420616d6f756e7473206c656e677468206044820152670dad2e6dac2e8c6d60c31b6064820152608490fd5b909161353761077593604084526040840190610e7f565b916020818403910152610e7f565b93949291909261355882518451146134c3565b6001600160a01b039584871661356f81151561327a565b61357b8585888a613baf565b60005b8451811015613603578088612e61612e598a6114cf8b6135ac876135a56135fe9a8f61226a565b519261226a565b51956135ed876135ca836114cf866000526006602052604060002090565b546135d7828210156132d4565b03916114cf846000526006602052604060002090565b556000526006602052604060002090565b61357e565b506105369691959297604051908316907f4a39dc06d4c0dbc64b70af90fd698a233a518aa5d07e595d983b8c0526c8f7fb3391806136428a8a83613520565b0390a433613a78565b1561365257565b60405162461bcd60e51b8152602060048201526024808201527f455243313135353a206275726e20616d6f756e7420657863656564732062616c604482015263616e636560e01b6064820152608490fd5b9081602091031261000e575161077581610579565b919261077595949160a094600180871b03809216855216602084015260408301526060820152816080820152019061073f565b60809060208152602860208201527f455243313135353a204552433131353552656365697665722072656a656374656040820152676420746f6b656e7360c01b60608201520190565b60009060033d1161374157565b905060046000803e60005160e01c90565b600060443d1061077557604051600319913d83016004833e81516001600160401b03918282113d6024840111176137af578184019485519384116137b7573d850101602084870101116137af57506107759291016020019061094a565b949350505050565b50949350505050565b9493919092813b6137d357505050505050565b60006020946137fa6040519788968795869463f23a6e6160e01b9c8d8752600487016136b8565b03926001600160a01b03165af1600091816138f9575b506138d15750506001613821613734565b6308c379a0146138a2575b61383c575b388080808080612d4d565b60405162461bcd60e51b815260206004820152603460248201527f455243313135353a207472616e7366657220746f206e6f6e20455243313135356044820152732932b1b2b4bb32b91034b6b83632b6b2b73a32b960611b6064820152608490fd5b0390fd5b6138aa613752565b806138b5575061382c565b60405162461bcd60e51b815290819061389e9060048301610764565b6001600160e01b031916146138315760405162461bcd60e51b81528061389e600482016136eb565b61391b91925060203d8111613922575b613913818361094a565b8101906136a3565b9038613810565b503d613909565b9261395861077595936139669360018060a01b031686526000602087015260a0604087015260a0860190610e7f565b908482036060860152610e7f565b91608081840391015261073f565b93906107759593613958916139669460018060a01b03809216885216602087015260a0604087015260a0860190610e7f565b9390803b6139b5575050505050565b6139dd9360006020946040519687958694859363bc197c8160e01b9b8c865260048601613929565b03926001600160a01b03165af160009181613a58575b50613a305750506001613a04613734565b6308c379a014613a1d575b61383c573880808080612b02565b613a25613752565b806138b55750613a0f565b6001600160e01b03191614612b125760405162461bcd60e51b81528061389e600482016136eb565b613a7191925060203d811161392257613913818361094a565b90386139f3565b9493919092813b613a8b57505050505050565b60006020946137fa6040519788968795869463bc197c8160e01b9c8d875260048701613974565b919260005b8251811015613b005780613ace613aee928761226a565b51613adc61344c838761226a565b8054918201809211613af3575561319a565b613ab7565b613afb612a1d565b612502565b50916001600160a01b031615613b1557509050565b60005b8151811015613b455780613b2f613b40928661226a565b51612e6161345d61344c848761226a565b613b18565b50509050565b9192916001600160a01b031615613b7c575b60005b8151811015613b455780613b2f613b77928661226a565b613b60565b60005b8151811015613ba95780613b96613ba4928661226a565b51613adc61344c838661226a565b613b7f565b50613b5d565b9293926001600160a01b039190821615613bee575b1615613bcf57509050565b60005b8151811015613b455780613b2f613be9928661226a565b613bd2565b929060005b8351811015613c205780613c0a613c1b928861226a565b51612e61612e5961344c848961226a565b613bf3565b509092613bc4565b9081602091031261000e57516107758161127c565b6daaeb6d7670e522a718067333cd4e803b613c56575050565b604051633185c44d60e21b81523060048201526001600160a01b038316602482015290602090829060449082905afa908115613cef575b600091613cc1575b5015613c9e5750565b604051633b79c77360e21b81526001600160a01b03919091166004820152602490fd5b613ce2915060203d8111613ce8575b613cda818361094a565b810190613c28565b38613c95565b503d613cd0565b613cf76120b6565b613c8d56fea264697066735822122006ccf6a08361e802a453f1f5dc96a3af31c8123569fa4a16be2f3f397ff59dfe64736f6c63430008110033",
    "linkReferences": {}
  },
  "methodIdentifiers": {
    "DEFAULT_PAYLOAD_SIZE_LIMIT()": "c4461834",
    "OPERATOR_FILTER_REGISTRY()": "41f43434",
    "balanceOf(address,uint256)": "00fdd58e",
    "balanceOfBatch(address[],uint256[])": "4e1273f4",
    "estimateSendBatchFee(uint16,bytes,uint256[],uint256[],bool,bytes)": "b2535663",
    "estimateSendFee(uint16,bytes,uint256,uint256,bool,bytes)": "8608e5f8",
    "exists(uint256)": "4f558e79",
    "failedMessages(uint16,bytes,uint64)": "5b8c41e6",
    "forceResumeReceive(uint16,bytes)": "42d65a8d",
    "getConfig(uint16,uint16,address,uint256)": "f5ecbdbc",
    "getTrustedRemoteAddress(uint16)": "9f38369a",
    "isApprovedForAll(address,address)": "e985e9c5",
    "isTrustedRemote(uint16,bytes)": "3d8b38f6",
    "lzEndpoint()": "b353aaa7",
    "lzReceive(uint16,bytes,uint64,bytes)": "001d3567",
    "minDstGasLookup(uint16,uint16)": "8cfd8f5c",
    "nonblockingLzReceive(uint16,bytes,uint64,bytes)": "66ad5c8a",
    "owner()": "8da5cb5b",
    "payloadSizeLimitLookup(uint16)": "3f1f4fa4",
    "precrime()": "950c8a74",
    "renounceOwnership()": "715018a6",
    "retryMessage(uint16,bytes,uint64,bytes)": "d1deba1f",
    "safeBatchTransferFrom(address,address,uint256[],uint256[],bytes)": "2eb2c2d6",
    "safeTransferFrom(address,address,uint256,uint256,bytes)": "f242432a",
    "sendBatchFrom(address,uint16,bytes,uint256[],uint256[],address,address,bytes)": "4ab4e687",
    "sendFrom(address,uint16,bytes,uint256,uint256,address,address,bytes)": "4db8226a",
    "setApprovalForAll(address,bool)": "a22cb465",
    "setConfig(uint16,uint16,uint256,bytes)": "cbed8b9c",
    "setMinDstGas(uint16,uint16,uint256)": "df2a5b3b",
    "setPayloadSizeLimit(uint16,uint256)": "0df37483",
    "setPrecrime(address)": "baf3292d",
    "setReceiveVersion(uint16)": "10ddb137",
    "setSendVersion(uint16)": "07e0db17",
    "setTrustedRemote(uint16,bytes)": "eb8d72b7",
    "setTrustedRemoteAddress(uint16,bytes)": "a6c3d165",
    "supportsInterface(bytes4)": "01ffc9a7",
    "totalSupply(uint256)": "bd85b039",
    "transferOwnership(address)": "f2fde38b",
    "trustedRemoteLookup(uint16)": "7533d788",
    "uri(uint256)": "0e89341c"
  },
  "id": 164
}