{
  "abi": [
    {
      "inputs": [
        {
          "internalType": "string",
          "name": "_uri",
          "type": "string"
        },
        {
          "internalType": "address",
          "name": "_lzEndpoint",
          "type": "address"
        }
      ],
      "stateMutability": "nonpayable",
      "type": "constructor"
    },
    {
      "inputs": [
        {
          "internalType": "address",
          "name": "operator",
          "type": "address"
        }
      ],
      "name": "OperatorNotAllowed",
      "type": "error"
    },
    {
      "anonymous": false,
      "inputs": [
        {
          "indexed": true,
          "internalType": "address",
          "name": "account",
          "type": "address"
        },
        {
          "indexed": true,
          "internalType": "address",
          "name": "operator",
          "type": "address"
        },
        {
          "indexed": false,
          "internalType": "bool",
          "name": "approved",
          "type": "bool"
        }
      ],
      "name": "ApprovalForAll",
      "type": "event"
    },
    {
      "anonymous": false,
      "inputs": [
        {
          "indexed": false,
          "internalType": "uint16",
          "name": "_srcChainId",
          "type": "uint16"
        },
        {
          "indexed": false,
          "internalType": "bytes",
          "name": "_srcAddress",
          "type": "bytes"
        },
        {
          "indexed": false,
          "internalType": "uint64",
          "name": "_nonce",
          "type": "uint64"
        },
        {
          "indexed": false,
          "internalType": "bytes",
          "name": "_payload",
          "type": "bytes"
        },
        {
          "indexed": false,
          "internalType": "bytes",
          "name": "_reason",
          "type": "bytes"
        }
      ],
      "name": "MessageFailed",
      "type": "event"
    },
    {
      "anonymous": false,
      "inputs": [
        {
          "indexed": true,
          "internalType": "address",
          "name": "previousOwner",
          "type": "address"
        },
        {
          "indexed": true,
          "internalType": "address",
          "name": "newOwner",
          "type": "address"
        }
      ],
      "name": "OwnershipTransferred",
      "type": "event"
    },
    {
      "anonymous": false,
      "inputs": [
        {
          "indexed": true,
          "internalType": "uint16",
          "name": "_srcChainId",
          "type": "uint16"
        },
        {
          "indexed": true,
          "internalType": "bytes",
          "name": "_srcAddress",
          "type": "bytes"
        },
        {
          "indexed": true,
          "internalType": "address",
          "name": "_toAddress",
          "type": "address"
        },
        {
          "indexed": false,
          "internalType": "uint256[]",
          "name": "_tokenIds",
          "type": "uint256[]"
        },
        {
          "indexed": false,
          "internalType": "uint256[]",
          "name": "_amounts",
          "type": "uint256[]"
        },
        {
          "indexed": false,
          "internalType": "uint64",
          "name": "_nonce",
          "type": "uint64"
        }
      ],
      "name": "ReceiveBatchFromChain",
      "type": "event"
    },
    {
      "anonymous": false,
      "inputs": [
        {
          "indexed": true,
          "internalType": "uint16",
          "name": "_srcChainId",
          "type": "uint16"
        },
        {
          "indexed": true,
          "internalType": "bytes",
          "name": "_srcAddress",
          "type": "bytes"
        },
        {
          "indexed": true,
          "internalType": "address",
          "name": "_toAddress",
          "type": "address"
        },
        {
          "indexed": false,
          "internalType": "uint256",
          "name": "_tokenId",
          "type": "uint256"
        },
        {
          "indexed": false,
          "internalType": "uint256",
          "name": "_amount",
          "type": "uint256"
        },
        {
          "indexed": false,
          "internalType": "uint64",
          "name": "_nonce",
          "type": "uint64"
        }
      ],
      "name": "ReceiveFromChain",
      "type": "event"
    },
    {
      "anonymous": false,
      "inputs": [
        {
          "indexed": false,
          "internalType": "uint16",
          "name": "_srcChainId",
          "type": "uint16"
        },
        {
          "indexed": false,
          "internalType": "bytes",
          "name": "_srcAddress",
          "type": "bytes"
        },
        {
          "indexed": false,
          "internalType": "uint64",
          "name": "_nonce",
          "type": "uint64"
        },
        {
          "indexed": false,
          "internalType": "bytes32",
          "name": "_payloadHash",
          "type": "bytes32"
        }
      ],
      "name": "RetryMessageSuccess",
      "type": "event"
    },
    {
      "anonymous": false,
      "inputs": [
        {
          "indexed": true,
          "internalType": "address",
          "name": "_sender",
          "type": "address"
        },
        {
          "indexed": true,
          "internalType": "uint16",
          "name": "_dstChainId",
          "type": "uint16"
        },
        {
          "indexed": true,
          "internalType": "bytes",
          "name": "_toAddress",
          "type": "bytes"
        },
        {
          "indexed": false,
          "internalType": "uint256[]",
          "name": "_tokenIds",
          "type": "uint256[]"
        },
        {
          "indexed": false,
          "internalType": "uint256[]",
          "name": "_amounts",
          "type": "uint256[]"
        },
        {
          "indexed": false,
          "internalType": "uint64",
          "name": "_nonce",
          "type": "uint64"
        }
      ],
      "name": "SendBatchToChain",
      "type": "event"
    },
    {
      "anonymous": false,
      "inputs": [
        {
          "indexed": true,
          "internalType": "address",
          "name": "_sender",
          "type": "address"
        },
        {
          "indexed": true,
          "internalType": "uint16",
          "name": "_dstChainId",
          "type": "uint16"
        },
        {
          "indexed": true,
          "internalType": "bytes",
          "name": "_toAddress",
          "type": "bytes"
        },
        {
          "indexed": false,
          "internalType": "uint256",
          "name": "_tokenId",
          "type": "uint256"
        },
        {
          "indexed": false,
          "internalType": "uint256",
          "name": "_amount",
          "type": "uint256"
        },
        {
          "indexed": false,
          "internalType": "uint64",
          "name": "_nonce",
          "type": "uint64"
        }
      ],
      "name": "SendToChain",
      "type": "event"
    },
    {
      "anonymous": false,
      "inputs": [
        {
          "indexed": false,
          "internalType": "uint16",
          "name": "_dstChainId",
          "type": "uint16"
        },
        {
          "indexed": false,
          "internalType": "uint16",
          "name": "_type",
          "type": "uint16"
        },
        {
          "indexed": false,
          "internalType": "uint256",
          "name": "_minDstGas",
          "type": "uint256"
        }
      ],
      "name": "SetMinDstGas",
      "type": "event"
    },
    {
      "anonymous": false,
      "inputs": [
        {
          "indexed": false,
          "internalType": "address",
          "name": "precrime",
          "type": "address"
        }
      ],
      "name": "SetPrecrime",
      "type": "event"
    },
    {
      "anonymous": false,
      "inputs": [
        {
          "indexed": false,
          "internalType": "uint16",
          "name": "_remoteChainId",
          "type": "uint16"
        },
        {
          "indexed": false,
          "internalType": "bytes",
          "name": "_path",
          "type": "bytes"
        }
      ],
      "name": "SetTrustedRemote",
      "type": "event"
    },
    {
      "anonymous": false,
      "inputs": [
        {
          "indexed": false,
          "internalType": "uint16",
          "name": "_remoteChainId",
          "type": "uint16"
        },
        {
          "indexed": false,
          "internalType": "bytes",
          "name": "_remoteAddress",
          "type": "bytes"
        }
      ],
      "name": "SetTrustedRemoteAddress",
      "type": "event"
    },
    {
      "anonymous": false,
      "inputs": [
        {
          "indexed": true,
          "internalType": "address",
          "name": "operator",
          "type": "address"
        },
        {
          "indexed": true,
          "internalType": "address",
          "name": "from",
          "type": "address"
        },
        {
          "indexed": true,
          "internalType": "address",
          "name": "to",
          "type": "address"
        },
        {
          "indexed": false,
          "internalType": "uint256[]",
          "name": "ids",
          "type": "uint256[]"
        },
        {
          "indexed": false,
          "internalType": "uint256[]",
          "name": "values",
          "type": "uint256[]"
        }
      ],
      "name": "TransferBatch",
      "type": "event"
    },
    {
      "anonymous": false,
      "inputs": [
        {
          "indexed": true,
          "internalType": "address",
          "name": "operator",
          "type": "address"
        },
        {
          "indexed": true,
          "internalType": "address",
          "name": "from",
          "type": "address"
        },
        {
          "indexed": true,
          "internalType": "address",
          "name": "to",
          "type": "address"
        },
        {
          "indexed": false,
          "internalType": "uint256",
          "name": "id",
          "type": "uint256"
        },
        {
          "indexed": false,
          "internalType": "uint256",
          "name": "value",
          "type": "uint256"
        }
      ],
      "name": "TransferSingle",
      "type": "event"
    },
    {
      "anonymous": false,
      "inputs": [
        {
          "indexed": false,
          "internalType": "string",
          "name": "value",
          "type": "string"
        },
        {
          "indexed": true,
          "internalType": "uint256",
          "name": "id",
          "type": "uint256"
        }
      ],
      "name": "URI",
      "type": "event"
    },
    {
      "inputs": [],
      "name": "DEFAULT_PAYLOAD_SIZE_LIMIT",
      "outputs": [
        {
          "internalType": "uint256",
          "name": "",
          "type": "uint256"
        }
      ],
      "stateMutability": "view",
      "type": "function"
    },
    {
      "inputs": [],
      "name": "OPERATOR_FILTER_REGISTRY",
      "outputs": [
        {
          "internalType": "contract IOperatorFilterRegistry",
          "name": "",
          "type": "address"
        }
      ],
      "stateMutability": "view",
      "type": "function"
    },
    {
      "inputs": [
        {
          "internalType": "address",
          "name": "account",
          "type": "address"
        },
        {
          "internalType": "uint256",
          "name": "id",
          "type": "uint256"
        }
      ],
      "name": "balanceOf",
      "outputs": [
        {
          "internalType": "uint256",
          "name": "",
          "type": "uint256"
        }
      ],
      "stateMutability": "view",
      "type": "function"
    },
    {
      "inputs": [
        {
          "internalType": "address[]",
          "name": "accounts",
          "type": "address[]"
        },
        {
          "internalType": "uint256[]",
          "name": "ids",
          "type": "uint256[]"
        }
      ],
      "name": "balanceOfBatch",
      "outputs": [
        {
          "internalType": "uint256[]",
          "name": "",
          "type": "uint256[]"
        }
      ],
      "stateMutability": "view",
      "type": "function"
    },
    {
      "inputs": [
        {
          "internalType": "uint16",
          "name": "_dstChainId",
          "type": "uint16"
        },
        {
          "internalType": "bytes",
          "name": "_toAddress",
          "type": "bytes"
        },
        {
          "internalType": "uint256[]",
          "name": "_tokenIds",
          "type": "uint256[]"
        },
        {
          "internalType": "uint256[]",
          "name": "_amounts",
          "type": "uint256[]"
        },
        {
          "internalType": "bool",
          "name": "_useZro",
          "type": "bool"
        },
        {
          "internalType": "bytes",
          "name": "_adapterParams",
          "type": "bytes"
        }
      ],
      "name": "estimateSendBatchFee",
      "outputs": [
        {
          "internalType": "uint256",
          "name": "nativeFee",
          "type": "uint256"
        },
        {
          "internalType": "uint256",
          "name": "zroFee",
          "type": "uint256"
        }
      ],
      "stateMutability": "view",
      "type": "function"
    },
    {
      "inputs": [
        {
          "internalType": "uint16",
          "name": "_dstChainId",
          "type": "uint16"
        },
        {
          "internalType": "bytes",
          "name": "_toAddress",
          "type": "bytes"
        },
        {
          "internalType": "uint256",
          "name": "_tokenId",
          "type": "uint256"
        },
        {
          "internalType": "uint256",
          "name": "_amount",
          "type": "uint256"
        },
        {
          "internalType": "bool",
          "name": "_useZro",
          "type": "bool"
        },
        {
          "internalType": "bytes",
          "name": "_adapterParams",
          "type": "bytes"
        }
      ],
      "name": "estimateSendFee",
      "outputs": [
        {
          "internalType": "uint256",
          "name": "nativeFee",
          "type": "uint256"
        },
        {
          "internalType": "uint256",
          "name": "zroFee",
          "type": "uint256"
        }
      ],
      "stateMutability": "view",
      "type": "function"
    },
    {
      "inputs": [
        {
          "internalType": "uint256",
          "name": "id",
          "type": "uint256"
        }
      ],
      "name": "exists",
      "outputs": [
        {
          "internalType": "bool",
          "name": "",
          "type": "bool"
        }
      ],
      "stateMutability": "view",
      "type": "function"
    },
    {
      "inputs": [
        {
          "internalType": "uint16",
          "name": "",
          "type": "uint16"
        },
        {
          "internalType": "bytes",
          "name": "",
          "type": "bytes"
        },
        {
          "internalType": "uint64",
          "name": "",
          "type": "uint64"
        }
      ],
      "name": "failedMessages",
      "outputs": [
        {
          "internalType": "bytes32",
          "name": "",
          "type": "bytes32"
        }
      ],
      "stateMutability": "view",
      "type": "function"
    },
    {
      "inputs": [
        {
          "internalType": "uint16",
          "name": "_srcChainId",
          "type": "uint16"
        },
        {
          "internalType": "bytes",
          "name": "_srcAddress",
          "type": "bytes"
        }
      ],
      "name": "forceResumeReceive",
      "outputs": [],
      "stateMutability": "nonpayable",
      "type": "function"
    },
    {
      "inputs": [
        {
          "internalType": "uint16",
          "name": "_version",
          "type": "uint16"
        },
        {
          "internalType": "uint16",
          "name": "_chainId",
          "type": "uint16"
        },
        {
          "internalType": "address",
          "name": "",
          "type": "address"
        },
        {
          "internalType": "uint256",
          "name": "_configType",
          "type": "uint256"
        }
      ],
      "name": "getConfig",
      "outputs": [
        {
          "internalType": "bytes",
          "name": "",
          "type": "bytes"
        }
      ],
      "stateMutability": "view",
      "type": "function"
    },
    {
      "inputs": [
        {
          "internalType": "uint16",
          "name": "_remoteChainId",
          "type": "uint16"
        }
      ],
      "name": "getTrustedRemoteAddress",
      "outputs": [
        {
          "internalType": "bytes",
          "name": "",
          "type": "bytes"
        }
      ],
      "stateMutability": "view",
      "type": "function"
    },
    {
      "inputs": [
        {
          "internalType": "address",
          "name": "account",
          "type": "address"
        },
        {
          "internalType": "address",
          "name": "operator",
          "type": "address"
        }
      ],
      "name": "isApprovedForAll",
      "outputs": [
        {
          "internalType": "bool",
          "name": "",
          "type": "bool"
        }
      ],
      "stateMutability": "view",
      "type": "function"
    },
    {
      "inputs": [
        {
          "internalType": "uint16",
          "name": "_srcChainId",
          "type": "uint16"
        },
        {
          "internalType": "bytes",
          "name": "_srcAddress",
          "type": "bytes"
        }
      ],
      "name": "isTrustedRemote",
      "outputs": [
        {
          "internalType": "bool",
          "name": "",
          "type": "bool"
        }
      ],
      "stateMutability": "view",
      "type": "function"
    },
    {
      "inputs": [],
      "name": "lzEndpoint",
      "outputs": [
        {
          "internalType": "contract ILayerZeroEndpoint",
          "name": "",
          "type": "address"
        }
      ],
      "stateMutability": "view",
      "type": "function"
    },
    {
      "inputs": [
        {
          "internalType": "uint16",
          "name": "_srcChainId",
          "type": "uint16"
        },
        {
          "internalType": "bytes",
          "name": "_srcAddress",
          "type": "bytes"
        },
        {
          "internalType": "uint64",
          "name": "_nonce",
          "type": "uint64"
        },
        {
          "internalType": "bytes",
          "name": "_payload",
          "type": "bytes"
        }
      ],
      "name": "lzReceive",
      "outputs": [],
      "stateMutability": "nonpayable",
      "type": "function"
    },
    {
      "inputs": [
        {
          "internalType": "uint16",
          "name": "",
          "type": "uint16"
        },
        {
          "internalType": "uint16",
          "name": "",
          "type": "uint16"
        }
      ],
      "name": "minDstGasLookup",
      "outputs": [
        {
          "internalType": "uint256",
          "name": "",
          "type": "uint256"
        }
      ],
      "stateMutability": "view",
      "type": "function"
    },
    {
      "inputs": [
        {
          "internalType": "uint16",
          "name": "_srcChainId",
          "type": "uint16"
        },
        {
          "internalType": "bytes",
          "name": "_srcAddress",
          "type": "bytes"
        },
        {
          "internalType": "uint64",
          "name": "_nonce",
          "type": "uint64"
        },
        {
          "internalType": "bytes",
          "name": "_payload",
          "type": "bytes"
        }
      ],
      "name": "nonblockingLzReceive",
      "outputs": [],
      "stateMutability": "nonpayable",
      "type": "function"
    },
    {
      "inputs": [],
      "name": "owner",
      "outputs": [
        {
          "internalType": "address",
          "name": "",
          "type": "address"
        }
      ],
      "stateMutability": "view",
      "type": "function"
    },
    {
      "inputs": [
        {
          "internalType": "uint16",
          "name": "",
          "type": "uint16"
        }
      ],
      "name": "payloadSizeLimitLookup",
      "outputs": [
        {
          "internalType": "uint256",
          "name": "",
          "type": "uint256"
        }
      ],
      "stateMutability": "view",
      "type": "function"
    },
    {
      "inputs": [],
      "name": "precrime",
      "outputs": [
        {
          "internalType": "address",
          "name": "",
          "type": "address"
        }
      ],
      "stateMutability": "view",
      "type": "function"
    },
    {
      "inputs": [],
      "name": "renounceOwnership",
      "outputs": [],
      "stateMutability": "nonpayable",
      "type": "function"
    },
    {
      "inputs": [
        {
          "internalType": "uint16",
          "name": "_srcChainId",
          "type": "uint16"
        },
        {
          "internalType": "bytes",
          "name": "_srcAddress",
          "type": "bytes"
        },
        {
          "internalType": "uint64",
          "name": "_nonce",
          "type": "uint64"
        },
        {
          "internalType": "bytes",
          "name": "_payload",
          "type": "bytes"
        }
      ],
      "name": "retryMessage",
      "outputs": [],
      "stateMutability": "payable",
      "type": "function"
    },
    {
      "inputs": [
        {
          "internalType": "address",
          "name": "from",
          "type": "address"
        },
        {
          "internalType": "address",
          "name": "to",
          "type": "address"
        },
        {
          "internalType": "uint256[]",
          "name": "ids",
          "type": "uint256[]"
        },
        {
          "internalType": "uint256[]",
          "name": "amounts",
          "type": "uint256[]"
        },
        {
          "internalType": "bytes",
          "name": "data",
          "type": "bytes"
        }
      ],
      "name": "safeBatchTransferFrom",
      "outputs": [],
      "stateMutability": "nonpayable",
      "type": "function"
    },
    {
      "inputs": [
        {
          "internalType": "address",
          "name": "from",
          "type": "address"
        },
        {
          "internalType": "address",
          "name": "to",
          "type": "address"
        },
        {
          "internalType": "uint256",
          "name": "tokenId",
          "type": "uint256"
        },
        {
          "internalType": "uint256",
          "name": "amount",
          "type": "uint256"
        },
        {
          "internalType": "bytes",
          "name": "data",
          "type": "bytes"
        }
      ],
      "name": "safeTransferFrom",
      "outputs": [],
      "stateMutability": "nonpayable",
      "type": "function"
    },
    {
      "inputs": [
        {
          "internalType": "address",
          "name": "_from",
          "type": "address"
        },
        {
          "internalType": "uint16",
          "name": "_dstChainId",
          "type": "uint16"
        },
        {
          "internalType": "bytes",
          "name": "_toAddress",
          "type": "bytes"
        },
        {
          "internalType": "uint256[]",
          "name": "_tokenIds",
          "type": "uint256[]"
        },
        {
          "internalType": "uint256[]",
          "name": "_amounts",
          "type": "uint256[]"
        },
        {
          "internalType": "address payable",
          "name": "_refundAddress",
          "type": "address"
        },
        {
          "internalType": "address",
          "name": "_zroPaymentAddress",
          "type": "address"
        },
        {
          "internalType": "bytes",
          "name": "_adapterParams",
          "type": "bytes"
        }
      ],
      "name": "sendBatchFrom",
      "outputs": [],
      "stateMutability": "payable",
      "type": "function"
    },
    {
      "inputs": [
        {
          "internalType": "address",
          "name": "_from",
          "type": "address"
        },
        {
          "internalType": "uint16",
          "name": "_dstChainId",
          "type": "uint16"
        },
        {
          "internalType": "bytes",
          "name": "_toAddress",
          "type": "bytes"
        },
        {
          "internalType": "uint256",
          "name": "_tokenId",
          "type": "uint256"
        },
        {
          "internalType": "uint256",
          "name": "_amount",
          "type": "uint256"
        },
        {
          "internalType": "address payable",
          "name": "_refundAddress",
          "type": "address"
        },
        {
          "internalType": "address",
          "name": "_zroPaymentAddress",
          "type": "address"
        },
        {
          "internalType": "bytes",
          "name": "_adapterParams",
          "type": "bytes"
        }
      ],
      "name": "sendFrom",
      "outputs": [],
      "stateMutability": "payable",
      "type": "function"
    },
    {
      "inputs": [
        {
          "internalType": "address",
          "name": "operator",
          "type": "address"
        },
        {
          "internalType": "bool",
          "name": "approved",
          "type": "bool"
        }
      ],
      "name": "setApprovalForAll",
      "outputs": [],
      "stateMutability": "nonpayable",
      "type": "function"
    },
    {
      "inputs": [
        {
          "internalType": "uint16",
          "name": "_version",
          "type": "uint16"
        },
        {
          "internalType": "uint16",
          "name": "_chainId",
          "type": "uint16"
        },
        {
          "internalType": "uint256",
          "name": "_configType",
          "type": "uint256"
        },
        {
          "internalType": "bytes",
          "name": "_config",
          "type": "bytes"
        }
      ],
      "name": "setConfig",
      "outputs": [],
      "stateMutability": "nonpayable",
      "type": "function"
    },
    {
      "inputs": [
        {
          "internalType": "uint16",
          "name": "_dstChainId",
          "type": "uint16"
        },
        {
          "internalType": "uint16",
          "name": "_packetType",
          "type": "uint16"
        },
        {
          "internalType": "uint256",
          "name": "_minGas",
          "type": "uint256"
        }
      ],
      "name": "setMinDstGas",
      "outputs": [],
      "stateMutability": "nonpayable",
      "type": "function"
    },
    {
      "inputs": [
        {
          "internalType": "uint16",
          "name": "_dstChainId",
          "type": "uint16"
        },
        {
          "internalType": "uint256",
          "name": "_size",
          "type": "uint256"
        }
      ],
      "name": "setPayloadSizeLimit",
      "outputs": [],
      "stateMutability": "nonpayable",
      "type": "function"
    },
    {
      "inputs": [
        {
          "internalType": "address",
          "name": "_precrime",
          "type": "address"
        }
      ],
      "name": "setPrecrime",
      "outputs": [],
      "stateMutability": "nonpayable",
      "type": "function"
    },
    {
      "inputs": [
        {
          "internalType": "uint16",
          "name": "_version",
          "type": "uint16"
        }
      ],
      "name": "setReceiveVersion",
      "outputs": [],
      "stateMutability": "nonpayable",
      "type": "function"
    },
    {
      "inputs": [
        {
          "internalType": "uint16",
          "name": "_version",
          "type": "uint16"
        }
      ],
      "name": "setSendVersion",
      "outputs": [],
      "stateMutability": "nonpayable",
      "type": "function"
    },
    {
      "inputs": [
        {
          "internalType": "uint16",
          "name": "_srcChainId",
          "type": "uint16"
        },
        {
          "internalType": "bytes",
          "name": "_path",
          "type": "bytes"
        }
      ],
      "name": "setTrustedRemote",
      "outputs": [],
      "stateMutability": "nonpayable",
      "type": "function"
    },
    {
      "inputs": [
        {
          "internalType": "uint16",
          "name": "_remoteChainId",
          "type": "uint16"
        },
        {
          "internalType": "bytes",
          "name": "_remoteAddress",
          "type": "bytes"
        }
      ],
      "name": "setTrustedRemoteAddress",
      "outputs": [],
      "stateMutability": "nonpayable",
      "type": "function"
    },
    {
      "inputs": [
        {
          "internalType": "bytes4",
          "name": "interfaceId",
          "type": "bytes4"
        }
      ],
      "name": "supportsInterface",
      "outputs": [
        {
          "internalType": "bool",
          "name": "",
          "type": "bool"
        }
      ],
      "stateMutability": "view",
      "type": "function"
    },
    {
      "inputs": [
        {
          "internalType": "uint256",
          "name": "id",
          "type": "uint256"
        }
      ],
      "name": "totalSupply",
      "outputs": [
        {
          "internalType": "uint256",
          "name": "",
          "type": "uint256"
        }
      ],
      "stateMutability": "view",
      "type": "function"
    },
    {
      "inputs": [
        {
          "internalType": "address",
          "name": "newOwner",
          "type": "address"
        }
      ],
      "name": "transferOwnership",
      "outputs": [],
      "stateMutability": "nonpayable",
      "type": "function"
    },
    {
      "inputs": [
        {
          "internalType": "uint16",
          "name": "",
          "type": "uint16"
        }
      ],
      "name": "trustedRemoteLookup",
      "outputs": [
        {
          "internalType": "bytes",
          "name": "",
          "type": "bytes"
        }
      ],
      "stateMutability": "view",
      "type": "function"
    },
    {
      "inputs": [
        {
          "internalType": "uint256",
          "name": "",
          "type": "uint256"
        }
      ],
      "name": "uri",
      "outputs": [
        {
          "internalType": "string",
          "name": "",
          "type": "string"
        }
      ],
      "stateMutability": "view",
      "type": "function"
    }
  ],
  "bytecode": {
    "object": "0x60a06040523480156200001157600080fd5b50604051620049bd380380620049bd833981016040819052620000349162000259565b733cc6cdda760b79bafa08df41ecfa224f810dceb66001838380806200005a33620001c4565b6001600160a01b0316608052506200007490508162000214565b506daaeb6d7670e522a718067333cd4e3b15620001ba5780156200010857604051633e9f1edf60e11b81523060048201526001600160a01b03831660248201526daaeb6d7670e522a718067333cd4e90637d3e3dbe906044015b600060405180830381600087803b158015620000e957600080fd5b505af1158015620000fe573d6000803e3d6000fd5b50505050620001ba565b6001600160a01b03821615620001595760405163a0af290360e01b81523060048201526001600160a01b03831660248201526daaeb6d7670e522a718067333cd4e9063a0af290390604401620000ce565b604051632210724360e11b81523060048201526daaeb6d7670e522a718067333cd4e90634420e48690602401600060405180830381600087803b158015620001a057600080fd5b505af1158015620001b5573d6000803e3d6000fd5b505050505b505050506200049c565b600080546001600160a01b038381166001600160a01b0319831681178455604051919092169283917f8be0079c531659141344cd1fd0a4f28419497f9722a3daafe3b4186f6b6457e09190a35050565b6008620002228282620003d0565b5050565b634e487b7160e01b600052604160045260246000fd5b80516001600160a01b03811681146200025457600080fd5b919050565b600080604083850312156200026d57600080fd5b82516001600160401b03808211156200028557600080fd5b818501915085601f8301126200029a57600080fd5b815181811115620002af57620002af62000226565b604051601f8201601f19908116603f01168101908382118183101715620002da57620002da62000226565b81604052828152602093508884848701011115620002f757600080fd5b600091505b828210156200031b5784820184015181830185015290830190620002fc565b6000848483010152809650505050620003368186016200023c565b925050509250929050565b600181811c908216806200035657607f821691505b6020821081036200037757634e487b7160e01b600052602260045260246000fd5b50919050565b601f821115620003cb57600081815260208120601f850160051c81016020861015620003a65750805b601f850160051c820191505b81811015620003c757828155600101620003b2565b5050505b505050565b81516001600160401b03811115620003ec57620003ec62000226565b6200040481620003fd845462000341565b846200037d565b602080601f8311600181146200043c5760008415620004235750858301515b600019600386901b1c1916600185901b178555620003c7565b600085815260208120601f198616915b828110156200046d578886015182559484019460019091019084016200044c565b50858210156200048c5787850151600019600388901b60f8161c191681555b5050505050600190811b01905550565b6080516144c6620004f76000396000818161067a0152818161081e01528181610b2001528181610c5c01528181610dad015281816113240152818161142c0152818161189501528181611b8b015261253401526144c66000f3fe6080604052600436106102395760003560e01c80638608e5f81161012e578063bd85b039116100ab578063e985e9c51161006f578063e985e9c514610752578063eb8d72b71461079b578063f242432a146107bb578063f2fde38b146107db578063f5ecbdbc146107fb57600080fd5b8063bd85b039146106bc578063c4461834146106e9578063cbed8b9c146106ff578063d1deba1f1461071f578063df2a5b3b1461073257600080fd5b8063a22cb465116100f2578063a22cb46514610608578063a6c3d16514610628578063b253566314610648578063b353aaa714610668578063baf3292d1461069c57600080fd5b80638608e5f81461053d5780638cfd8f5c146105725780638da5cb5b146105aa578063950c8a74146105c85780639f38369a146105e857600080fd5b806341f43434116101bc5780634f558e79116101805780634f558e791461046a5780635b8c41e61461049957806366ad5c8a146104e8578063715018a6146105085780637533d7881461051d57600080fd5b806341f43434146103bd57806342d65a8d146103f75780634ab4e687146104175780634db8226a1461042a5780634e1273f41461043d57600080fd5b80630e89341c116102035780630e89341c1461030357806310ddb137146103305780632eb2c2d6146103505780633d8b38f6146103705780633f1f4fa41461039057600080fd5b80621d35671461023e578062fdd58e1461026057806301ffc9a71461029357806307e0db17146102c35780630df37483146102e3575b600080fd5b34801561024a57600080fd5b5061025e610259366004613002565b61081b565b005b34801561026c57600080fd5b5061028061027b3660046130b6565b610a4c565b6040519081526020015b60405180910390f35b34801561029f57600080fd5b506102b36102ae3660046130f8565b610ae2565b604051901515815260200161028a565b3480156102cf57600080fd5b5061025e6102de366004613115565b610aff565b3480156102ef57600080fd5b5061025e6102fe366004613130565b610b88565b34801561030f57600080fd5b5061032361031e36600461314c565b610ba7565b60405161028a91906131b5565b34801561033c57600080fd5b5061025e61034b366004613115565b610c3b565b34801561035c57600080fd5b5061025e61036b366004613321565b610c93565b34801561037c57600080fd5b506102b361038b3660046133ce565b610cc2565b34801561039c57600080fd5b506102806103ab366004613115565b60036020526000908152604090205481565b3480156103c957600080fd5b506103df6daaeb6d7670e522a718067333cd4e81565b6040516001600160a01b03909116815260200161028a565b34801561040357600080fd5b5061025e6104123660046133ce565b610d8e565b61025e610425366004613420565b610e14565b61025e61043836600461350f565b610e2f565b34801561044957600080fd5b5061045d6104583660046135b5565b610e50565b60405161028a91906136bc565b34801561047657600080fd5b506102b361048536600461314c565b600090815260096020526040902054151590565b3480156104a557600080fd5b506102806104b43660046136cf565b6005602090815260009384526040808520845180860184018051928152908401958401959095209452929052825290205481565b3480156104f457600080fd5b5061025e610503366004613002565b610f79565b34801561051457600080fd5b5061025e61104d565b34801561052957600080fd5b50610323610538366004613115565b611061565b34801561054957600080fd5b5061055d610558366004613749565b6110fb565b6040805192835260208301919091520161028a565b34801561057e57600080fd5b5061028061058d3660046137e3565b600260209081526000928352604080842090915290825290205481565b3480156105b657600080fd5b506000546001600160a01b03166103df565b3480156105d457600080fd5b506004546103df906001600160a01b031681565b3480156105f457600080fd5b50610323610603366004613115565b61112b565b34801561061457600080fd5b5061025e610623366004613816565b611241565b34801561063457600080fd5b5061025e6106433660046133ce565b61125a565b34801561065457600080fd5b5061055d61066336600461384f565b6112e3565b34801561067457600080fd5b506103df7f000000000000000000000000000000000000000000000000000000000000000081565b3480156106a857600080fd5b5061025e6106b7366004613901565b6113b1565b3480156106c857600080fd5b506102806106d736600461314c565b60009081526009602052604090205490565b3480156106f557600080fd5b5061028061271081565b34801561070b57600080fd5b5061025e61071a36600461391e565b61140d565b61025e61072d366004613002565b6114a2565b34801561073e57600080fd5b5061025e61074d36600461398c565b6116b8565b34801561075e57600080fd5b506102b361076d3660046139c8565b6001600160a01b03918216600090815260076020908152604080832093909416825291909152205460ff1690565b3480156107a757600080fd5b5061025e6107b63660046133ce565b61176a565b3480156107c757600080fd5b5061025e6107d63660046139f6565b6117c4565b3480156107e757600080fd5b5061025e6107f6366004613901565b6117eb565b34801561080757600080fd5b50610323610816366004613a5e565b611864565b337f00000000000000000000000000000000000000000000000000000000000000006001600160a01b0316146108985760405162461bcd60e51b815260206004820152601e60248201527f4c7a4170703a20696e76616c696420656e64706f696e742063616c6c6572000060448201526064015b60405180910390fd5b61ffff8616600090815260016020526040812080546108b690613aab565b80601f01602080910402602001604051908101604052809291908181526020018280546108e290613aab565b801561092f5780601f106109045761010080835404028352916020019161092f565b820191906000526020600020905b81548152906001019060200180831161091257829003601f168201915b5050505050905080518686905014801561094a575060008151115b80156109725750805160208201206040516109689088908890613ae5565b6040518091039020145b6109cd5760405162461bcd60e51b815260206004820152602660248201527f4c7a4170703a20696e76616c696420736f757263652073656e64696e6720636f6044820152651b9d1c9858dd60d21b606482015260840161088f565b610a438787878080601f01602080910402602001604051908101604052809392919081815260200183838082843760009201919091525050604080516020601f8a018190048102820181019092528881528a93509150889088908190840183828082843760009201919091525061191592505050565b50505050505050565b60006001600160a01b038316610ab75760405162461bcd60e51b815260206004820152602a60248201527f455243313135353a2061646472657373207a65726f206973206e6f742061207660448201526930b634b21037bbb732b960b11b606482015260840161088f565b5060008181526006602090815260408083206001600160a01b03861684529091529020545b92915050565b60006001600160e01b031982161580610adc5750610adc8261198e565b610b076119ce565b6040516307e0db1760e01b815261ffff821660048201527f00000000000000000000000000000000000000000000000000000000000000006001600160a01b0316906307e0db17906024015b600060405180830381600087803b158015610b6d57600080fd5b505af1158015610b81573d6000803e3d6000fd5b5050505050565b610b906119ce565b61ffff909116600090815260036020526040902055565b606060088054610bb690613aab565b80601f0160208091040260200160405190810160405280929190818152602001828054610be290613aab565b8015610c2f5780601f10610c0457610100808354040283529160200191610c2f565b820191906000526020600020905b815481529060010190602001808311610c1257829003601f168201915b50505050509050919050565b610c436119ce565b6040516310ddb13760e01b815261ffff821660048201527f00000000000000000000000000000000000000000000000000000000000000006001600160a01b0316906310ddb13790602401610b53565b846001600160a01b0381163314610cad57610cad33611a28565b610cba8686868686611ae1565b505050505050565b61ffff831660009081526001602052604081208054829190610ce390613aab565b80601f0160208091040260200160405190810160405280929190818152602001828054610d0f90613aab565b8015610d5c5780601f10610d3157610100808354040283529160200191610d5c565b820191906000526020600020905b815481529060010190602001808311610d3f57829003601f168201915b505050505090508383604051610d73929190613ae5565b60405180910390208180519060200120149150509392505050565b610d966119ce565b6040516342d65a8d60e01b81526001600160a01b037f000000000000000000000000000000000000000000000000000000000000000016906342d65a8d90610de690869086908690600401613b1e565b600060405180830381600087803b158015610e0057600080fd5b505af1158015610a43573d6000803e3d6000fd5b610e25888888888888888834611b26565b5050505050505050565b610e25888888610e3e89611d2a565b610e4789611d2a565b88888834611b26565b60608151835114610eb55760405162461bcd60e51b815260206004820152602960248201527f455243313135353a206163636f756e747320616e6420696473206c656e677468604482015268040dad2e6dac2e8c6d60bb1b606482015260840161088f565b600083516001600160401b03811115610ed057610ed06131c8565b604051908082528060200260200182016040528015610ef9578160200160208202803683370190505b50905060005b8451811015610f7157610f44858281518110610f1d57610f1d613b3c565b6020026020010151858381518110610f3757610f37613b3c565b6020026020010151610a4c565b828281518110610f5657610f56613b3c565b6020908102919091010152610f6a81613b68565b9050610eff565b509392505050565b333014610fd75760405162461bcd60e51b815260206004820152602660248201527f4e6f6e626c6f636b696e674c7a4170703a2063616c6c6572206d7573742062656044820152650204c7a4170760d41b606482015260840161088f565b610cba8686868080601f01602080910402602001604051908101604052809392919081815260200183838082843760009201919091525050604080516020601f890181900481028201810190925287815289935091508790879081908401838280828437600092019190915250611d7592505050565b6110556119ce565b61105f6000611ecd565b565b6001602052600090815260409020805461107a90613aab565b80601f01602080910402602001604051908101604052809291908181526020018280546110a690613aab565b80156110f35780601f106110c8576101008083540402835291602001916110f3565b820191906000526020600020905b8154815290600101906020018083116110d657829003601f168201915b505050505081565b60008061111c888861110c89611d2a565b61111589611d2a565b88886112e3565b91509150965096945050505050565b61ffff811660009081526001602052604081208054606092919061114e90613aab565b80601f016020809104026020016040519081016040528092919081815260200182805461117a90613aab565b80156111c75780601f1061119c576101008083540402835291602001916111c7565b820191906000526020600020905b8154815290600101906020018083116111aa57829003601f168201915b50505050509050805160000361121f5760405162461bcd60e51b815260206004820152601d60248201527f4c7a4170703a206e6f20747275737465642070617468207265636f7264000000604482015260640161088f565b61123a6000601483516112329190613b81565b839190611f1d565b9392505050565b8161124b81611a28565b611255838361202a565b505050565b6112626119ce565b81813060405160200161127793929190613b94565b60408051601f1981840301815291815261ffff85166000908152600160205220906112a29082613c00565b507f8c0400cfe2d1199b1a725c78960bcc2a344d869b80590d0f2bd005db15a572ce8383836040516112d693929190613b1e565b60405180910390a1505050565b60008060008787876040516020016112fd93929190613cbf565b60408051601f198184030181529082905263040a7bb160e41b825291506001600160a01b037f000000000000000000000000000000000000000000000000000000000000000016906340a7bb1090611361908c90309086908b908b90600401613d02565b6040805180830381865afa15801561137d573d6000803e3d6000fd5b505050506040513d601f19601f820116820180604052508101906113a19190613d56565b9250925050965096945050505050565b6113b96119ce565b600480546001600160a01b0319166001600160a01b0383169081179091556040519081527f5db758e995a17ec1ad84bdef7e8c3293a0bd6179bcce400dff5d4c3d87db726b9060200160405180910390a150565b6114156119ce565b6040516332fb62e760e21b81526001600160a01b037f0000000000000000000000000000000000000000000000000000000000000000169063cbed8b9c906114699088908890889088908890600401613d7a565b600060405180830381600087803b15801561148357600080fd5b505af1158015611497573d6000803e3d6000fd5b505050505050505050565b61ffff861660009081526005602052604080822090516114c59088908890613ae5565b90815260408051602092819003830190206001600160401b038716600090815292529020549050806115455760405162461bcd60e51b815260206004820152602360248201527f4e6f6e626c6f636b696e674c7a4170703a206e6f2073746f726564206d65737360448201526261676560e81b606482015260840161088f565b808383604051611556929190613ae5565b6040518091039020146115b55760405162461bcd60e51b815260206004820152602160248201527f4e6f6e626c6f636b696e674c7a4170703a20696e76616c6964207061796c6f616044820152601960fa1b606482015260840161088f565b61ffff871660009081526005602052604080822090516115d89089908990613ae5565b90815260408051602092819003830181206001600160401b038916600090815290845282902093909355601f88018290048202830182019052868252611670918991899089908190840183828082843760009201919091525050604080516020601f8a018190048102820181019092528881528a935091508890889081908401838280828437600092019190915250611d7592505050565b7fc264d91f3adc5588250e1551f547752ca0cfa8f6b530d243b9f9f4cab10ea8e587878787856040516116a7959493929190613db3565b60405180910390a150505050505050565b6116c06119ce565b600081116117085760405162461bcd60e51b81526020600482015260156024820152744c7a4170703a20696e76616c6964206d696e47617360581b604482015260640161088f565b61ffff83811660008181526002602090815260408083209487168084529482529182902085905581519283528201929092529081018290527f9d5c7c0b934da8fefa9c7760c98383778a12dfbfc0c3b3106518f43fb9508ac0906060016112d6565b6117726119ce565b61ffff83166000908152600160205260409020611790828483613dee565b507ffa41487ad5d6728f0b19276fa1eddc16558578f5109fc39d2dc33c3230470dab8383836040516112d693929190613b1e565b846001600160a01b03811633146117de576117de33611a28565b610cba8686868686612039565b6117f36119ce565b6001600160a01b0381166118585760405162461bcd60e51b815260206004820152602660248201527f4f776e61626c653a206e6577206f776e657220697320746865207a65726f206160448201526564647265737360d01b606482015260840161088f565b61186181611ecd565b50565b604051633d7b2f6f60e21b815261ffff808616600483015284166024820152306044820152606481018290526060907f00000000000000000000000000000000000000000000000000000000000000006001600160a01b03169063f5ecbdbc90608401600060405180830381865afa1580156118e4573d6000803e3d6000fd5b505050506040513d6000823e601f3d908101601f1916820160405261190c9190810190613efc565b95945050505050565b6000806119785a60966366ad5c8a60e01b8989898960405160240161193d9493929190613f38565b60408051601f198184030181529190526020810180516001600160e01b03166001600160e01b0319909316929092179091523092919061207e565b9150915081610cba57610cba8686868685612108565b60006001600160e01b03198216636cdb3d1360e11b14806119bf57506001600160e01b031982166303a24d0760e21b145b80610adc5750610adc826121a5565b6000546001600160a01b0316331461105f5760405162461bcd60e51b815260206004820181905260248201527f4f776e61626c653a2063616c6c6572206973206e6f7420746865206f776e6572604482015260640161088f565b6daaeb6d7670e522a718067333cd4e3b1561186157604051633185c44d60e21b81523060048201526001600160a01b03821660248201526daaeb6d7670e522a718067333cd4e9063c617113490604401602060405180830381865afa158015611a95573d6000803e3d6000fd5b505050506040513d601f19601f82011682018060405250810190611ab99190613f76565b61186157604051633b79c77360e21b81526001600160a01b038216600482015260240161088f565b6001600160a01b038516331480611afd5750611afd853361076d565b611b195760405162461bcd60e51b815260040161088f90613f93565b610b8185858585856121da565b611b33898989898961237f565b6000878787604051602001611b4a93929190613cbf565b6040516020818303038152906040529050611b6989828787878761240b565b604051630f428ae960e31b815261ffff8a1660048201523060248201526000907f00000000000000000000000000000000000000000000000000000000000000006001600160a01b031690637a14574890604401602060405180830381865afa158015611bda573d6000803e3d6000fd5b505050506040513d601f19601f82011682018060405250810190611bfe9190613fe1565b90508751600103611cb25788604051611c179190613ffe565b60405180910390208a61ffff168c6001600160a01b03167f65f8f231660ef9add3da95eb0bbdae4c246f6c10e274fae37b17190637080d4c8b600081518110611c6257611c62613b3c565b60200260200101518b600081518110611c7d57611c7d613b3c565b60209081029190910181015160408051938452918301526001600160401b0387169082015260600160405180910390a4611d1d565b600188511115611d1d5788604051611cca9190613ffe565b60405180910390208a61ffff168c6001600160a01b03167f2d31495ecbe799a81d5475c03585aa019860601fed836229d70e335b732eab3d8b8b86604051611d149392919061401a565b60405180910390a45b5050505050505050505050565b60408051600180825281830190925260609160009190602080830190803683370190505090508281600081518110611d6457611d64613b3c565b602090810291909101015292915050565b600080600083806020019051810190611d8e91906140bf565b60148301519295509093509150611da7888285856125b0565b8251600103611e5957806001600160a01b031687604051611dc89190613ffe565b60405180910390208961ffff167f330378e2f010257b2fbe836316fb7ab303af5ed8f2795b82bca60d1c8c909f7686600081518110611e0957611e09613b3c565b602002602001015186600081518110611e2457611e24613b3c565b60209081029190910181015160408051938452918301526001600160401b038c169082015260600160405180910390a4610e25565b600183511115610e2557806001600160a01b031687604051611e7b9190613ffe565b60405180910390208961ffff167f5604161d52abb20dbe3d4a2230e585a0b230b3d18179a0e00917b173f5f9adab86868b604051611ebb9392919061401a565b60405180910390a45050505050505050565b600080546001600160a01b038381166001600160a01b0319831681178455604051919092169283917f8be0079c531659141344cd1fd0a4f28419497f9722a3daafe3b4186f6b6457e09190a35050565b606081611f2b81601f614146565b1015611f6a5760405162461bcd60e51b815260206004820152600e60248201526d736c6963655f6f766572666c6f7760901b604482015260640161088f565b611f748284614146565b84511015611fb85760405162461bcd60e51b8152602060048201526011602482015270736c6963655f6f75744f66426f756e647360781b604482015260640161088f565b606082158015611fd75760405191506000825260208201604052612021565b6040519150601f8416801560200281840101858101878315602002848b0101015b81831015612010578051835260209283019201611ff8565b5050858452601f01601f1916604052505b50949350505050565b6120353383836125d1565b5050565b6001600160a01b0385163314806120555750612055853361076d565b6120715760405162461bcd60e51b815260040161088f90613f93565b610b8185858585856126b1565b6000606060008060008661ffff166001600160401b038111156120a3576120a36131c8565b6040519080825280601f01601f1916602001820160405280156120cd576020820181803683370190505b50905060008087516020890160008d8df191503d9250868311156120ef578692505b828152826000602083013e909890975095505050505050565b8180519060200120600560008761ffff1661ffff168152602001908152602001600020856040516121399190613ffe565b9081526040805191829003602090810183206001600160401b0388166000908152915220919091557fe183f33de2837795525b4792ca4cd60535bd77c53b7e7030060bfcf5734d6b0c906121969087908790879087908790614159565b60405180910390a15050505050565b60006001600160e01b031982166319abbbbb60e11b1480610adc57506301ffc9a760e01b6001600160e01b0319831614610adc565b81518351146121fb5760405162461bcd60e51b815260040161088f906141ab565b6001600160a01b0384166122215760405162461bcd60e51b815260040161088f906141f3565b336122308187878787876127e2565b60005b845181101561231957600085828151811061225057612250613b3c565b60200260200101519050600085838151811061226e5761226e613b3c565b60209081029190910181015160008481526006835260408082206001600160a01b038e1683529093529190912054909150818110156122bf5760405162461bcd60e51b815260040161088f90614238565b60008381526006602090815260408083206001600160a01b038e8116855292528083208585039055908b168252812080548492906122fe908490614146565b925050819055505050508061231290613b68565b9050612233565b50846001600160a01b0316866001600160a01b0316826001600160a01b03167f4a39dc06d4c0dbc64b70af90fd698a233a518aa5d07e595d983b8c0526c8f7fb8787604051612369929190614282565b60405180910390a4610cba81878787878761295b565b336001600160a01b03861681148061239c575061239c868261076d565b6124005760405162461bcd60e51b815260206004820152602f60248201527f4f4e4654313135353a2073656e642063616c6c6572206973206e6f74206f776e60448201526e195c881b9bdc88185c1c1c9bdd9959608a1b606482015260840161088f565b610cba868484612ab6565b61ffff86166000908152600160205260408120805461242990613aab565b80601f016020809104026020016040519081016040528092919081815260200182805461245590613aab565b80156124a25780601f10612477576101008083540402835291602001916124a2565b820191906000526020600020905b81548152906001019060200180831161248557829003601f168201915b5050505050905080516000036125135760405162461bcd60e51b815260206004820152603060248201527f4c7a4170703a2064657374696e6174696f6e20636861696e206973206e6f742060448201526f61207472757374656420736f7572636560801b606482015260840161088f565b61251e878751612ccd565b60405162c5803160e81b81526001600160a01b037f0000000000000000000000000000000000000000000000000000000000000000169063c5803100908490612575908b9086908c908c908c908c906004016142a7565b6000604051808303818588803b15801561258e57600080fd5b505af11580156125a2573d6000803e3d6000fd5b505050505050505050505050565b6125cb83838360405180602001604052806000815250612d3e565b50505050565b816001600160a01b0316836001600160a01b0316036126445760405162461bcd60e51b815260206004820152602960248201527f455243313135353a2073657474696e6720617070726f76616c20737461747573604482015268103337b91039b2b63360b91b606482015260840161088f565b6001600160a01b03838116600081815260076020908152604080832094871680845294825291829020805460ff191686151590811790915591519182527f17307eab39ab6107e8899845ad3d59bd9653f200f220920489ca2b5937696c31910160405180910390a3505050565b6001600160a01b0384166126d75760405162461bcd60e51b815260040161088f906141f3565b3360006126e385611d2a565b905060006126f085611d2a565b90506127008389898585896127e2565b60008681526006602090815260408083206001600160a01b038c168452909152902054858110156127435760405162461bcd60e51b815260040161088f90614238565b60008781526006602090815260408083206001600160a01b038d8116855292528083208985039055908a16825281208054889290612782908490614146565b909155505060408051888152602081018890526001600160a01b03808b16928c821692918816917fc3d58168c5ae7397731d063d5bbf3d657854427343f4c083240f7aacaa2d0f62910160405180910390a4611497848a8a8a8a8a612ed3565b6001600160a01b0385166128695760005b83518110156128675782818151811061280e5761280e613b3c565b60200260200101516009600086848151811061282c5761282c613b3c565b6020026020010151815260200190815260200160002060008282546128519190614146565b90915550612860905081613b68565b90506127f3565b505b6001600160a01b038416610cba5760005b8351811015610a4357600084828151811061289757612897613b3c565b6020026020010151905060008483815181106128b5576128b5613b3c565b60200260200101519050600060096000848152602001908152602001600020549050818110156129385760405162461bcd60e51b815260206004820152602860248201527f455243313135353a206275726e20616d6f756e74206578636565647320746f74604482015267616c537570706c7960c01b606482015260840161088f565b6000928352600960205260409092209103905561295481613b68565b905061287a565b6001600160a01b0384163b15610cba5760405163bc197c8160e01b81526001600160a01b0385169063bc197c819061299f908990899088908890889060040161430e565b6020604051808303816000875af19250505080156129da575060408051601f3d908101601f191682019092526129d79181019061434c565b60015b612a86576129e6614369565b806308c379a003612a1f57506129fa614385565b80612a055750612a21565b8060405162461bcd60e51b815260040161088f91906131b5565b505b60405162461bcd60e51b815260206004820152603460248201527f455243313135353a207472616e7366657220746f206e6f6e2d455243313135356044820152732932b1b2b4bb32b91034b6b83632b6b2b73a32b960611b606482015260840161088f565b6001600160e01b0319811663bc197c8160e01b14610a435760405162461bcd60e51b815260040161088f9061440e565b6001600160a01b038316612b185760405162461bcd60e51b815260206004820152602360248201527f455243313135353a206275726e2066726f6d20746865207a65726f206164647260448201526265737360e81b606482015260840161088f565b8051825114612b395760405162461bcd60e51b815260040161088f906141ab565b6000339050612b5c818560008686604051806020016040528060008152506127e2565b60005b8351811015612c60576000848281518110612b7c57612b7c613b3c565b602002602001015190506000848381518110612b9a57612b9a613b3c565b60209081029190910181015160008481526006835260408082206001600160a01b038c168352909352919091205490915081811015612c275760405162461bcd60e51b8152602060048201526024808201527f455243313135353a206275726e20616d6f756e7420657863656564732062616c604482015263616e636560e01b606482015260840161088f565b60009283526006602090815260408085206001600160a01b038b1686529091529092209103905580612c5881613b68565b915050612b5f565b5060006001600160a01b0316846001600160a01b0316826001600160a01b03167f4a39dc06d4c0dbc64b70af90fd698a233a518aa5d07e595d983b8c0526c8f7fb8686604051612cb1929190614282565b60405180910390a46040805160208101909152600090526125cb565b61ffff821660009081526003602052604081205490819003612cee57506127105b808211156112555760405162461bcd60e51b815260206004820181905260248201527f4c7a4170703a207061796c6f61642073697a6520697320746f6f206c61726765604482015260640161088f565b6001600160a01b038416612d9e5760405162461bcd60e51b815260206004820152602160248201527f455243313135353a206d696e7420746f20746865207a65726f206164647265736044820152607360f81b606482015260840161088f565b8151835114612dbf5760405162461bcd60e51b815260040161088f906141ab565b33612dcf816000878787876127e2565b60005b8451811015612e6b57838181518110612ded57612ded613b3c565b602002602001015160066000878481518110612e0b57612e0b613b3c565b602002602001015181526020019081526020016000206000886001600160a01b03166001600160a01b031681526020019081526020016000206000828254612e539190614146565b90915550819050612e6381613b68565b915050612dd2565b50846001600160a01b031660006001600160a01b0316826001600160a01b03167f4a39dc06d4c0dbc64b70af90fd698a233a518aa5d07e595d983b8c0526c8f7fb8787604051612ebc929190614282565b60405180910390a4610b818160008787878761295b565b6001600160a01b0384163b15610cba5760405163f23a6e6160e01b81526001600160a01b0385169063f23a6e6190612f179089908990889088908890600401614456565b6020604051808303816000875af1925050508015612f52575060408051601f3d908101601f19168201909252612f4f9181019061434c565b60015b612f5e576129e6614369565b6001600160e01b0319811663f23a6e6160e01b14610a435760405162461bcd60e51b815260040161088f9061440e565b803561ffff81168114612fa057600080fd5b919050565b60008083601f840112612fb757600080fd5b5081356001600160401b03811115612fce57600080fd5b602083019150836020828501011115612fe657600080fd5b9250929050565b6001600160401b038116811461186157600080fd5b6000806000806000806080878903121561301b57600080fd5b61302487612f8e565b955060208701356001600160401b038082111561304057600080fd5b61304c8a838b01612fa5565b90975095506040890135915061306182612fed565b9093506060880135908082111561307757600080fd5b5061308489828a01612fa5565b979a9699509497509295939492505050565b6001600160a01b038116811461186157600080fd5b8035612fa081613096565b600080604083850312156130c957600080fd5b82356130d481613096565b946020939093013593505050565b6001600160e01b03198116811461186157600080fd5b60006020828403121561310a57600080fd5b813561123a816130e2565b60006020828403121561312757600080fd5b61123a82612f8e565b6000806040838503121561314357600080fd5b6130d483612f8e565b60006020828403121561315e57600080fd5b5035919050565b60005b83811015613180578181015183820152602001613168565b50506000910152565b600081518084526131a1816020860160208601613165565b601f01601f19169290920160200192915050565b60208152600061123a6020830184613189565b634e487b7160e01b600052604160045260246000fd5b601f8201601f191681016001600160401b0381118282101715613203576132036131c8565b6040525050565b60006001600160401b03821115613223576132236131c8565b5060051b60200190565b600082601f83011261323e57600080fd5b8135602061324b8261320a565b60405161325882826131de565b83815260059390931b850182019282810191508684111561327857600080fd5b8286015b84811015613293578035835291830191830161327c565b509695505050505050565b60006001600160401b038211156132b7576132b76131c8565b50601f01601f191660200190565b600082601f8301126132d657600080fd5b81356132e18161329e565b6040516132ee82826131de565b82815285602084870101111561330357600080fd5b82602086016020830137600092810160200192909252509392505050565b600080600080600060a0868803121561333957600080fd5b853561334481613096565b9450602086013561335481613096565b935060408601356001600160401b038082111561337057600080fd5b61337c89838a0161322d565b9450606088013591508082111561339257600080fd5b61339e89838a0161322d565b935060808801359150808211156133b457600080fd5b506133c1888289016132c5565b9150509295509295909350565b6000806000604084860312156133e357600080fd5b6133ec84612f8e565b925060208401356001600160401b0381111561340757600080fd5b61341386828701612fa5565b9497909650939450505050565b600080600080600080600080610100898b03121561343d57600080fd5b613446896130ab565b975061345460208a01612f8e565b965060408901356001600160401b038082111561347057600080fd5b61347c8c838d016132c5565b975060608b013591508082111561349257600080fd5b61349e8c838d0161322d565b965060808b01359150808211156134b457600080fd5b6134c08c838d0161322d565b95506134ce60a08c016130ab565b94506134dc60c08c016130ab565b935060e08b01359150808211156134f257600080fd5b506134ff8b828c016132c5565b9150509295985092959890939650565b600080600080600080600080610100898b03121561352c57600080fd5b883561353781613096565b975061354560208a01612f8e565b965060408901356001600160401b038082111561356157600080fd5b61356d8c838d016132c5565b975060608b0135965060808b0135955060a08b0135915061358d82613096565b90935060c08a01359061359f82613096565b90925060e08a013590808211156134f257600080fd5b600080604083850312156135c857600080fd5b82356001600160401b03808211156135df57600080fd5b818501915085601f8301126135f357600080fd5b813560206136008261320a565b60405161360d82826131de565b83815260059390931b850182019282810191508984111561362d57600080fd5b948201945b8386101561365457853561364581613096565b82529482019490820190613632565b9650508601359250508082111561366a57600080fd5b506136778582860161322d565b9150509250929050565b600081518084526020808501945080840160005b838110156136b157815187529582019590820190600101613695565b509495945050505050565b60208152600061123a6020830184613681565b6000806000606084860312156136e457600080fd5b6136ed84612f8e565b925060208401356001600160401b0381111561370857600080fd5b613714868287016132c5565b925050604084013561372581612fed565b809150509250925092565b801515811461186157600080fd5b8035612fa081613730565b60008060008060008060c0878903121561376257600080fd5b61376b87612f8e565b955060208701356001600160401b038082111561378757600080fd5b6137938a838b016132c5565b96506040890135955060608901359450608089013591506137b382613730565b90925060a088013590808211156137c957600080fd5b506137d689828a016132c5565b9150509295509295509295565b600080604083850312156137f657600080fd5b6137ff83612f8e565b915061380d60208401612f8e565b90509250929050565b6000806040838503121561382957600080fd5b823561383481613096565b9150602083013561384481613730565b809150509250929050565b60008060008060008060c0878903121561386857600080fd5b61387187612f8e565b955060208701356001600160401b038082111561388d57600080fd5b6138998a838b016132c5565b965060408901359150808211156138af57600080fd5b6138bb8a838b0161322d565b955060608901359150808211156138d157600080fd5b6138dd8a838b0161322d565b94506138eb60808a0161373e565b935060a08901359150808211156137c957600080fd5b60006020828403121561391357600080fd5b813561123a81613096565b60008060008060006080868803121561393657600080fd5b61393f86612f8e565b945061394d60208701612f8e565b93506040860135925060608601356001600160401b0381111561396f57600080fd5b61397b88828901612fa5565b969995985093965092949392505050565b6000806000606084860312156139a157600080fd5b6139aa84612f8e565b92506139b860208501612f8e565b9150604084013590509250925092565b600080604083850312156139db57600080fd5b82356139e681613096565b9150602083013561384481613096565b600080600080600060a08688031215613a0e57600080fd5b8535613a1981613096565b94506020860135613a2981613096565b9350604086013592506060860135915060808601356001600160401b03811115613a5257600080fd5b6133c1888289016132c5565b60008060008060808587031215613a7457600080fd5b613a7d85612f8e565b9350613a8b60208601612f8e565b92506040850135613a9b81613096565b9396929550929360600135925050565b600181811c90821680613abf57607f821691505b602082108103613adf57634e487b7160e01b600052602260045260246000fd5b50919050565b8183823760009101908152919050565b81835281816020850137506000828201602090810191909152601f909101601f19169091010190565b61ffff8416815260406020820152600061190c604083018486613af5565b634e487b7160e01b600052603260045260246000fd5b634e487b7160e01b600052601160045260246000fd5b600060018201613b7a57613b7a613b52565b5060010190565b81810381811115610adc57610adc613b52565b8284823760609190911b6bffffffffffffffffffffffff19169101908152601401919050565b601f82111561125557600081815260208120601f850160051c81016020861015613be15750805b601f850160051c820191505b81811015610cba57828155600101613bed565b81516001600160401b03811115613c1957613c196131c8565b613c2d81613c278454613aab565b84613bba565b602080601f831160018114613c625760008415613c4a5750858301515b600019600386901b1c1916600185901b178555610cba565b600085815260208120601f198616915b82811015613c9157888601518255948401946001909101908401613c72565b5085821015613caf5787850151600019600388901b60f8161c191681555b5050505050600190811b01905550565b606081526000613cd26060830186613189565b8281036020840152613ce48186613681565b90508281036040840152613cf88185613681565b9695505050505050565b61ffff861681526001600160a01b038516602082015260a060408201819052600090613d3090830186613189565b84151560608401528281036080840152613d4a8185613189565b98975050505050505050565b60008060408385031215613d6957600080fd5b505080516020909101519092909150565b600061ffff808816835280871660208401525084604083015260806060830152613da8608083018486613af5565b979650505050505050565b61ffff86168152608060208201526000613dd1608083018688613af5565b6001600160401b0394909416604083015250606001529392505050565b6001600160401b03831115613e0557613e056131c8565b613e1983613e138354613aab565b83613bba565b6000601f841160018114613e4d5760008515613e355750838201355b600019600387901b1c1916600186901b178355610b81565b600083815260209020601f19861690835b82811015613e7e5786850135825560209485019460019092019101613e5e565b5086821015613e9b5760001960f88860031b161c19848701351681555b505060018560011b0183555050505050565b600082601f830112613ebe57600080fd5b8151613ec98161329e565b604051613ed682826131de565b828152856020848701011115613eeb57600080fd5b61190c836020830160208801613165565b600060208284031215613f0e57600080fd5b81516001600160401b03811115613f2457600080fd5b613f3084828501613ead565b949350505050565b61ffff85168152608060208201526000613f556080830186613189565b6001600160401b03851660408401528281036060840152613da88185613189565b600060208284031215613f8857600080fd5b815161123a81613730565b6020808252602e908201527f455243313135353a2063616c6c6572206973206e6f7420746f6b656e206f776e60408201526d195c881bdc88185c1c1c9bdd995960921b606082015260800190565b600060208284031215613ff357600080fd5b815161123a81612fed565b60008251614010818460208701613165565b9190910192915050565b60608152600061402d6060830186613681565b828103602084015261403f8186613681565b9150506001600160401b0383166040830152949350505050565b600082601f83011261406a57600080fd5b815160206140778261320a565b60405161408482826131de565b83815260059390931b85018201928281019150868411156140a457600080fd5b8286015b8481101561329357805183529183019183016140a8565b6000806000606084860312156140d457600080fd5b83516001600160401b03808211156140eb57600080fd5b6140f787838801613ead565b9450602086015191508082111561410d57600080fd5b61411987838801614059565b9350604086015191508082111561412f57600080fd5b5061413c86828701614059565b9150509250925092565b80820180821115610adc57610adc613b52565b61ffff8616815260a06020820152600061417660a0830187613189565b6001600160401b038616604084015282810360608401526141978186613189565b90508281036080840152613d4a8185613189565b60208082526028908201527f455243313135353a2069647320616e6420616d6f756e7473206c656e677468206040820152670dad2e6dac2e8c6d60c31b606082015260800190565b60208082526025908201527f455243313135353a207472616e7366657220746f20746865207a65726f206164604082015264647265737360d81b606082015260800190565b6020808252602a908201527f455243313135353a20696e73756666696369656e742062616c616e636520666f60408201526939103a3930b739b332b960b11b606082015260800190565b6040815260006142956040830185613681565b828103602084015261190c8185613681565b61ffff8716815260c0602082015260006142c460c0830188613189565b82810360408401526142d68188613189565b6001600160a01b0387811660608601528616608085015283810360a085015290506143018185613189565b9998505050505050505050565b6001600160a01b0386811682528516602082015260a06040820181905260009061433a90830186613681565b82810360608401526141978186613681565b60006020828403121561435e57600080fd5b815161123a816130e2565b600060033d11156143825760046000803e5060005160e01c5b90565b600060443d10156143935790565b6040516003193d81016004833e81513d6001600160401b0381602484011181841117156143c257505050505090565b82850191508151818111156143da5750505050505090565b843d87010160208285010111156143f45750505050505090565b614403602082860101876131de565b509095945050505050565b60208082526028908201527f455243313135353a204552433131353552656365697665722072656a656374656040820152676420746f6b656e7360c01b606082015260800190565b6001600160a01b03868116825285166020820152604081018490526060810183905260a060808201819052600090613da89083018461318956fea26469706673582212209048eb051fffc6f9adf9d1e442d404623b10b0bb8c30c27bc569f65df9a6b0a764736f6c63430008110033",
    "linkReferences": {}
  },
  "methodIdentifiers": {
    "DEFAULT_PAYLOAD_SIZE_LIMIT()": "c4461834",
    "OPERATOR_FILTER_REGISTRY()": "41f43434",
    "balanceOf(address,uint256)": "00fdd58e",
    "balanceOfBatch(address[],uint256[])": "4e1273f4",
    "estimateSendBatchFee(uint16,bytes,uint256[],uint256[],bool,bytes)": "b2535663",
    "estimateSendFee(uint16,bytes,uint256,uint256,bool,bytes)": "8608e5f8",
    "exists(uint256)": "4f558e79",
    "failedMessages(uint16,bytes,uint64)": "5b8c41e6",
    "forceResumeReceive(uint16,bytes)": "42d65a8d",
    "getConfig(uint16,uint16,address,uint256)": "f5ecbdbc",
    "getTrustedRemoteAddress(uint16)": "9f38369a",
    "isApprovedForAll(address,address)": "e985e9c5",
    "isTrustedRemote(uint16,bytes)": "3d8b38f6",
    "lzEndpoint()": "b353aaa7",
    "lzReceive(uint16,bytes,uint64,bytes)": "001d3567",
    "minDstGasLookup(uint16,uint16)": "8cfd8f5c",
    "nonblockingLzReceive(uint16,bytes,uint64,bytes)": "66ad5c8a",
    "owner()": "8da5cb5b",
    "payloadSizeLimitLookup(uint16)": "3f1f4fa4",
    "precrime()": "950c8a74",
    "renounceOwnership()": "715018a6",
    "retryMessage(uint16,bytes,uint64,bytes)": "d1deba1f",
    "safeBatchTransferFrom(address,address,uint256[],uint256[],bytes)": "2eb2c2d6",
    "safeTransferFrom(address,address,uint256,uint256,bytes)": "f242432a",
    "sendBatchFrom(address,uint16,bytes,uint256[],uint256[],address,address,bytes)": "4ab4e687",
    "sendFrom(address,uint16,bytes,uint256,uint256,address,address,bytes)": "4db8226a",
    "setApprovalForAll(address,bool)": "a22cb465",
    "setConfig(uint16,uint16,uint256,bytes)": "cbed8b9c",
    "setMinDstGas(uint16,uint16,uint256)": "df2a5b3b",
    "setPayloadSizeLimit(uint16,uint256)": "0df37483",
    "setPrecrime(address)": "baf3292d",
    "setReceiveVersion(uint16)": "10ddb137",
    "setSendVersion(uint16)": "07e0db17",
    "setTrustedRemote(uint16,bytes)": "eb8d72b7",
    "setTrustedRemoteAddress(uint16,bytes)": "a6c3d165",
    "supportsInterface(bytes4)": "01ffc9a7",
    "totalSupply(uint256)": "bd85b039",
    "transferOwnership(address)": "f2fde38b",
    "trustedRemoteLookup(uint16)": "7533d788",
    "uri(uint256)": "0e89341c"
  },
  "id": 91
}