{
  "abi": [
    {
      "inputs": [
        {
          "internalType": "address",
          "name": "_endpoint",
          "type": "address"
        },
        {
          "internalType": "address",
          "name": "_owner",
          "type": "address"
        },
        {
          "internalType": "address",
          "name": "_protocolFeeRecipient",
          "type": "address"
        },
        {
          "internalType": "address",
          "name": "_transferManager",
          "type": "address"
        },
        {
          "internalType": "address",
          "name": "_weth",
          "type": "address"
        }
      ],
      "stateMutability": "nonpayable",
      "type": "constructor"
    },
    {
      "inputs": [],
      "name": "CallerInvalid",
      "type": "error"
    },
    {
      "inputs": [],
      "name": "ChainIdInvalid",
      "type": "error"
    },
    {
      "inputs": [],
      "name": "CreatorFeeBpTooHigh",
      "type": "error"
    },
    {
      "inputs": [],
      "name": "CurrencyInvalid",
      "type": "error"
    },
    {
      "inputs": [],
      "name": "ERC20TransferFromFail",
      "type": "error"
    },
    {
      "inputs": [],
      "name": "LengthsInvalid",
      "type": "error"
    },
    {
      "inputs": [],
      "name": "MerkleProofInvalid",
      "type": "error"
    },
    {
      "inputs": [
        {
          "internalType": "uint256",
          "name": "length",
          "type": "uint256"
        }
      ],
      "name": "MerkleProofTooLarge",
      "type": "error"
    },
    {
      "inputs": [],
      "name": "NewGasLimitETHTransferTooLow",
      "type": "error"
    },
    {
      "inputs": [],
      "name": "NewProtocolFeeRecipientCannotBeNullAddress",
      "type": "error"
    },
    {
      "inputs": [],
      "name": "NoOngoingTransferInProgress",
      "type": "error"
    },
    {
      "inputs": [],
      "name": "NoSelectorForStrategy",
      "type": "error"
    },
    {
      "inputs": [],
      "name": "NoncesInvalid",
      "type": "error"
    },
    {
      "inputs": [],
      "name": "NotAContract",
      "type": "error"
    },
    {
      "inputs": [],
      "name": "NotAffiliateController",
      "type": "error"
    },
    {
      "inputs": [],
      "name": "NotOwner",
      "type": "error"
    },
    {
      "inputs": [],
      "name": "NotV2Strategy",
      "type": "error"
    },
    {
      "inputs": [],
      "name": "NullSignerAddress",
      "type": "error"
    },
    {
      "inputs": [],
      "name": "OutsideOfTimeRange",
      "type": "error"
    },
    {
      "inputs": [],
      "name": "PercentageTooHigh",
      "type": "error"
    },
    {
      "inputs": [],
      "name": "QuoteTypeInvalid",
      "type": "error"
    },
    {
      "inputs": [],
      "name": "ReentrancyFail",
      "type": "error"
    },
    {
      "inputs": [],
      "name": "RenouncementNotInProgress",
      "type": "error"
    },
    {
      "inputs": [],
      "name": "SameDomainSeparator",
      "type": "error"
    },
    {
      "inputs": [],
      "name": "SignatureEOAInvalid",
      "type": "error"
    },
    {
      "inputs": [],
      "name": "SignatureERC1271Invalid",
      "type": "error"
    },
    {
      "inputs": [
        {
          "internalType": "uint256",
          "name": "length",
          "type": "uint256"
        }
      ],
      "name": "SignatureLengthInvalid",
      "type": "error"
    },
    {
      "inputs": [],
      "name": "SignatureParameterSInvalid",
      "type": "error"
    },
    {
      "inputs": [
        {
          "internalType": "uint8",
          "name": "v",
          "type": "uint8"
        }
      ],
      "name": "SignatureParameterVInvalid",
      "type": "error"
    },
    {
      "inputs": [],
      "name": "StrategyHasNoSelector",
      "type": "error"
    },
    {
      "inputs": [
        {
          "internalType": "uint256",
          "name": "strategyId",
          "type": "uint256"
        }
      ],
      "name": "StrategyNotAvailable",
      "type": "error"
    },
    {
      "inputs": [],
      "name": "StrategyNotUsed",
      "type": "error"
    },
    {
      "inputs": [],
      "name": "StrategyProtocolFeeTooHigh",
      "type": "error"
    },
    {
      "inputs": [],
      "name": "TransferAlreadyInProgress",
      "type": "error"
    },
    {
      "inputs": [],
      "name": "TransferNotInProgress",
      "type": "error"
    },
    {
      "inputs": [],
      "name": "WrongPotentialOwner",
      "type": "error"
    },
    {
      "anonymous": false,
      "inputs": [
        {
          "indexed": false,
          "internalType": "address",
          "name": "affiliate",
          "type": "address"
        },
        {
          "indexed": false,
          "internalType": "address",
          "name": "currency",
          "type": "address"
        },
        {
          "indexed": false,
          "internalType": "uint256",
          "name": "affiliateFee",
          "type": "uint256"
        }
      ],
      "name": "AffiliatePayment",
      "type": "event"
    },
    {
      "anonymous": false,
      "inputs": [],
      "name": "CancelOwnershipTransfer",
      "type": "event"
    },
    {
      "anonymous": false,
      "inputs": [
        {
          "indexed": false,
          "internalType": "address",
          "name": "currency",
          "type": "address"
        },
        {
          "indexed": false,
          "internalType": "bool",
          "name": "isAllowed",
          "type": "bool"
        }
      ],
      "name": "CurrencyStatusUpdated",
      "type": "event"
    },
    {
      "anonymous": false,
      "inputs": [],
      "name": "InitiateOwnershipRenouncement",
      "type": "event"
    },
    {
      "anonymous": false,
      "inputs": [
        {
          "indexed": false,
          "internalType": "address",
          "name": "previousOwner",
          "type": "address"
        },
        {
          "indexed": false,
          "internalType": "address",
          "name": "potentialOwner",
          "type": "address"
        }
      ],
      "name": "InitiateOwnershipTransfer",
      "type": "event"
    },
    {
      "anonymous": false,
      "inputs": [
        {
          "indexed": false,
          "internalType": "uint16",
          "name": "_srcChainId",
          "type": "uint16"
        },
        {
          "indexed": false,
          "internalType": "bytes",
          "name": "_srcAddress",
          "type": "bytes"
        },
        {
          "indexed": false,
          "internalType": "uint64",
          "name": "_nonce",
          "type": "uint64"
        },
        {
          "indexed": false,
          "internalType": "bytes",
          "name": "_payload",
          "type": "bytes"
        }
      ],
      "name": "MessageFailed",
      "type": "event"
    },
    {
      "anonymous": false,
      "inputs": [
        {
          "indexed": false,
          "internalType": "address",
          "name": "affiliateController",
          "type": "address"
        }
      ],
      "name": "NewAffiliateController",
      "type": "event"
    },
    {
      "anonymous": false,
      "inputs": [
        {
          "indexed": false,
          "internalType": "bool",
          "name": "isActive",
          "type": "bool"
        }
      ],
      "name": "NewAffiliateProgramStatus",
      "type": "event"
    },
    {
      "anonymous": false,
      "inputs": [
        {
          "indexed": false,
          "internalType": "address",
          "name": "affiliate",
          "type": "address"
        },
        {
          "indexed": false,
          "internalType": "uint256",
          "name": "rate",
          "type": "uint256"
        }
      ],
      "name": "NewAffiliateRate",
      "type": "event"
    },
    {
      "anonymous": false,
      "inputs": [
        {
          "indexed": false,
          "internalType": "address",
          "name": "user",
          "type": "address"
        },
        {
          "indexed": false,
          "internalType": "uint256",
          "name": "bidNonce",
          "type": "uint256"
        },
        {
          "indexed": false,
          "internalType": "uint256",
          "name": "askNonce",
          "type": "uint256"
        }
      ],
      "name": "NewBidAskNonces",
      "type": "event"
    },
    {
      "anonymous": false,
      "inputs": [
        {
          "indexed": false,
          "internalType": "address",
          "name": "creatorFeeManager",
          "type": "address"
        }
      ],
      "name": "NewCreatorFeeManager",
      "type": "event"
    },
    {
      "anonymous": false,
      "inputs": [],
      "name": "NewDomainSeparator",
      "type": "event"
    },
    {
      "anonymous": false,
      "inputs": [
        {
          "indexed": false,
          "internalType": "uint256",
          "name": "gasLimitETHTransfer",
          "type": "uint256"
        }
      ],
      "name": "NewGasLimitETHTransfer",
      "type": "event"
    },
    {
      "anonymous": false,
      "inputs": [
        {
          "indexed": false,
          "internalType": "uint256",
          "name": "maxCreatorFeeBp",
          "type": "uint256"
        }
      ],
      "name": "NewMaxCreatorFeeBp",
      "type": "event"
    },
    {
      "anonymous": false,
      "inputs": [
        {
          "indexed": false,
          "internalType": "address",
          "name": "newOwner",
          "type": "address"
        }
      ],
      "name": "NewOwner",
      "type": "event"
    },
    {
      "anonymous": false,
      "inputs": [
        {
          "indexed": false,
          "internalType": "address",
          "name": "protocolFeeRecipient",
          "type": "address"
        }
      ],
      "name": "NewProtocolFeeRecipient",
      "type": "event"
    },
    {
      "anonymous": false,
      "inputs": [
        {
          "indexed": false,
          "internalType": "uint256",
          "name": "strategyId",
          "type": "uint256"
        },
        {
          "indexed": false,
          "internalType": "uint16",
          "name": "standardProtocolFeeBp",
          "type": "uint16"
        },
        {
          "indexed": false,
          "internalType": "uint16",
          "name": "minTotalFeeBp",
          "type": "uint16"
        },
        {
          "indexed": false,
          "internalType": "uint16",
          "name": "maxProtocolFeeBp",
          "type": "uint16"
        },
        {
          "indexed": false,
          "internalType": "bytes4",
          "name": "selector",
          "type": "bytes4"
        },
        {
          "indexed": false,
          "internalType": "bool",
          "name": "isMakerBid",
          "type": "bool"
        },
        {
          "indexed": false,
          "internalType": "address",
          "name": "implementation",
          "type": "address"
        }
      ],
      "name": "NewStrategy",
      "type": "event"
    },
    {
      "anonymous": false,
      "inputs": [
        {
          "indexed": false,
          "internalType": "address",
          "name": "user",
          "type": "address"
        },
        {
          "indexed": false,
          "internalType": "uint256[]",
          "name": "orderNonces",
          "type": "uint256[]"
        }
      ],
      "name": "OrderNoncesCancelled",
      "type": "event"
    },
    {
      "anonymous": false,
      "inputs": [
        {
          "indexed": false,
          "internalType": "uint16",
          "name": "_dstChainId",
          "type": "uint16"
        },
        {
          "indexed": false,
          "internalType": "uint16",
          "name": "_type",
          "type": "uint16"
        },
        {
          "indexed": false,
          "internalType": "uint256",
          "name": "_minDstGas",
          "type": "uint256"
        }
      ],
      "name": "SetMinDstGas",
      "type": "event"
    },
    {
      "anonymous": false,
      "inputs": [
        {
          "indexed": false,
          "internalType": "address",
          "name": "precrime",
          "type": "address"
        }
      ],
      "name": "SetPrecrime",
      "type": "event"
    },
    {
      "anonymous": false,
      "inputs": [
        {
          "indexed": false,
          "internalType": "uint16",
          "name": "_remoteChainId",
          "type": "uint16"
        },
        {
          "indexed": false,
          "internalType": "bytes",
          "name": "_path",
          "type": "bytes"
        }
      ],
      "name": "SetTrustedRemote",
      "type": "event"
    },
    {
      "anonymous": false,
      "inputs": [
        {
          "indexed": false,
          "internalType": "uint16",
          "name": "_remoteChainId",
          "type": "uint16"
        },
        {
          "indexed": false,
          "internalType": "bytes",
          "name": "_remoteAddress",
          "type": "bytes"
        }
      ],
      "name": "SetTrustedRemoteAddress",
      "type": "event"
    },
    {
      "anonymous": false,
      "inputs": [
        {
          "indexed": false,
          "internalType": "uint256",
          "name": "strategyId",
          "type": "uint256"
        },
        {
          "indexed": false,
          "internalType": "bool",
          "name": "isActive",
          "type": "bool"
        },
        {
          "indexed": false,
          "internalType": "uint16",
          "name": "standardProtocolFeeBp",
          "type": "uint16"
        },
        {
          "indexed": false,
          "internalType": "uint16",
          "name": "minTotalFeeBp",
          "type": "uint16"
        }
      ],
      "name": "StrategyUpdated",
      "type": "event"
    },
    {
      "anonymous": false,
      "inputs": [
        {
          "indexed": false,
          "internalType": "address",
          "name": "user",
          "type": "address"
        },
        {
          "indexed": false,
          "internalType": "uint256[]",
          "name": "subsetNonces",
          "type": "uint256[]"
        }
      ],
      "name": "SubsetNoncesCancelled",
      "type": "event"
    },
    {
      "anonymous": false,
      "inputs": [
        {
          "components": [
            {
              "internalType": "bytes32",
              "name": "orderHash",
              "type": "bytes32"
            },
            {
              "internalType": "uint256",
              "name": "orderNonce",
              "type": "uint256"
            },
            {
              "internalType": "bool",
              "name": "isNonceInvalidated",
              "type": "bool"
            }
          ],
          "indexed": false,
          "internalType": "struct IOmniXExchange.NonceInvalidationParameters",
          "name": "nonceInvalidationParameters",
          "type": "tuple"
        },
        {
          "indexed": false,
          "internalType": "address",
          "name": "askUser",
          "type": "address"
        },
        {
          "indexed": false,
          "internalType": "address",
          "name": "bidUser",
          "type": "address"
        },
        {
          "indexed": false,
          "internalType": "uint256",
          "name": "strategyId",
          "type": "uint256"
        },
        {
          "indexed": false,
          "internalType": "address",
          "name": "currency",
          "type": "address"
        },
        {
          "indexed": false,
          "internalType": "address",
          "name": "collection",
          "type": "address"
        },
        {
          "indexed": false,
          "internalType": "uint256[]",
          "name": "itemIds",
          "type": "uint256[]"
        },
        {
          "indexed": false,
          "internalType": "uint256[]",
          "name": "amounts",
          "type": "uint256[]"
        },
        {
          "indexed": false,
          "internalType": "address[2]",
          "name": "feeRecipients",
          "type": "address[2]"
        },
        {
          "indexed": false,
          "internalType": "uint256[3]",
          "name": "feeAmounts",
          "type": "uint256[3]"
        }
      ],
      "name": "TakerAsk",
      "type": "event"
    },
    {
      "anonymous": false,
      "inputs": [
        {
          "components": [
            {
              "internalType": "bytes32",
              "name": "orderHash",
              "type": "bytes32"
            },
            {
              "internalType": "uint256",
              "name": "orderNonce",
              "type": "uint256"
            },
            {
              "internalType": "bool",
              "name": "isNonceInvalidated",
              "type": "bool"
            }
          ],
          "indexed": false,
          "internalType": "struct IOmniXExchange.NonceInvalidationParameters",
          "name": "nonceInvalidationParameters",
          "type": "tuple"
        },
        {
          "indexed": false,
          "internalType": "address",
          "name": "bidUser",
          "type": "address"
        },
        {
          "indexed": false,
          "internalType": "address",
          "name": "bidRecipient",
          "type": "address"
        },
        {
          "indexed": false,
          "internalType": "uint256",
          "name": "strategyId",
          "type": "uint256"
        },
        {
          "indexed": false,
          "internalType": "address",
          "name": "currency",
          "type": "address"
        },
        {
          "indexed": false,
          "internalType": "address",
          "name": "collection",
          "type": "address"
        },
        {
          "indexed": false,
          "internalType": "uint256[]",
          "name": "itemIds",
          "type": "uint256[]"
        },
        {
          "indexed": false,
          "internalType": "uint256[]",
          "name": "amounts",
          "type": "uint256[]"
        },
        {
          "indexed": false,
          "internalType": "address[2]",
          "name": "feeRecipients",
          "type": "address[2]"
        },
        {
          "indexed": false,
          "internalType": "uint256[3]",
          "name": "feeAmounts",
          "type": "uint256[3]"
        }
      ],
      "name": "TakerBid",
      "type": "event"
    },
    {
      "inputs": [],
      "name": "MAGIC_VALUE_ORDER_NONCE_EXECUTED",
      "outputs": [
        {
          "internalType": "bytes32",
          "name": "",
          "type": "bytes32"
        }
      ],
      "stateMutability": "view",
      "type": "function"
    },
    {
      "inputs": [],
      "name": "WETH",
      "outputs": [
        {
          "internalType": "address",
          "name": "",
          "type": "address"
        }
      ],
      "stateMutability": "view",
      "type": "function"
    },
    {
      "inputs": [
        {
          "components": [
            {
              "internalType": "address",
              "name": "recipient",
              "type": "address"
            },
            {
              "internalType": "address",
              "name": "currency",
              "type": "address"
            },
            {
              "internalType": "uint16",
              "name": "lzChainId",
              "type": "uint16"
            },
            {
              "internalType": "bytes",
              "name": "additionalParameters",
              "type": "bytes"
            }
          ],
          "internalType": "struct OrderStructs.Taker",
          "name": "takerOrder",
          "type": "tuple"
        },
        {
          "components": [
            {
              "internalType": "enum QuoteType",
              "name": "quoteType",
              "type": "uint8"
            },
            {
              "internalType": "uint256",
              "name": "globalNonce",
              "type": "uint256"
            },
            {
              "internalType": "uint256",
              "name": "subsetNonce",
              "type": "uint256"
            },
            {
              "internalType": "uint256",
              "name": "orderNonce",
              "type": "uint256"
            },
            {
              "internalType": "uint256",
              "name": "strategyId",
              "type": "uint256"
            },
            {
              "internalType": "enum CollectionType",
              "name": "collectionType",
              "type": "uint8"
            },
            {
              "internalType": "address",
              "name": "collection",
              "type": "address"
            },
            {
              "internalType": "address",
              "name": "currency",
              "type": "address"
            },
            {
              "internalType": "address",
              "name": "signer",
              "type": "address"
            },
            {
              "internalType": "uint256",
              "name": "startTime",
              "type": "uint256"
            },
            {
              "internalType": "uint256",
              "name": "endTime",
              "type": "uint256"
            },
            {
              "internalType": "uint256",
              "name": "price",
              "type": "uint256"
            },
            {
              "internalType": "uint256[]",
              "name": "itemIds",
              "type": "uint256[]"
            },
            {
              "internalType": "uint256[]",
              "name": "amounts",
              "type": "uint256[]"
            },
            {
              "internalType": "uint16",
              "name": "lzChainId",
              "type": "uint16"
            },
            {
              "internalType": "bytes",
              "name": "additionalParameters",
              "type": "bytes"
            }
          ],
          "internalType": "struct OrderStructs.Maker",
          "name": "makerOrder",
          "type": "tuple"
        },
        {
          "internalType": "address",
          "name": "sender",
          "type": "address"
        }
      ],
      "name": "_executeStrategyForTakerOrder",
      "outputs": [
        {
          "internalType": "uint256[]",
          "name": "itemIds",
          "type": "uint256[]"
        },
        {
          "internalType": "uint256[]",
          "name": "amounts",
          "type": "uint256[]"
        },
        {
          "internalType": "address[2]",
          "name": "recipients",
          "type": "address[2]"
        },
        {
          "internalType": "uint256[3]",
          "name": "feeAmounts",
          "type": "uint256[3]"
        },
        {
          "internalType": "bool",
          "name": "isNonceInvalidated",
          "type": "bool"
        }
      ],
      "stateMutability": "nonpayable",
      "type": "function"
    },
    {
      "inputs": [
        {
          "internalType": "address",
          "name": "currency",
          "type": "address"
        },
        {
          "internalType": "address",
          "name": "to",
          "type": "address"
        },
        {
          "internalType": "uint256",
          "name": "amount",
          "type": "uint256"
        },
        {
          "internalType": "uint16",
          "name": "fromChainId",
          "type": "uint16"
        },
        {
          "internalType": "uint16",
          "name": "toChainId",
          "type": "uint16"
        },
        {
          "internalType": "bytes",
          "name": "payload",
          "type": "bytes"
        }
      ],
      "name": "_getCrossChainCurrencyFee",
      "outputs": [
        {
          "internalType": "uint256",
          "name": "",
          "type": "uint256"
        }
      ],
      "stateMutability": "view",
      "type": "function"
    },
    {
      "inputs": [
        {
          "internalType": "uint16",
          "name": "standardProtocolFeeBp",
          "type": "uint16"
        },
        {
          "internalType": "uint16",
          "name": "minTotalFeeBp",
          "type": "uint16"
        },
        {
          "internalType": "uint16",
          "name": "maxProtocolFeeBp",
          "type": "uint16"
        },
        {
          "internalType": "bytes4",
          "name": "selector",
          "type": "bytes4"
        },
        {
          "internalType": "bool",
          "name": "isMakerBid",
          "type": "bool"
        },
        {
          "internalType": "address",
          "name": "implementation",
          "type": "address"
        }
      ],
      "name": "addStrategy",
      "outputs": [],
      "stateMutability": "nonpayable",
      "type": "function"
    },
    {
      "inputs": [],
      "name": "affiliateController",
      "outputs": [
        {
          "internalType": "address",
          "name": "",
          "type": "address"
        }
      ],
      "stateMutability": "view",
      "type": "function"
    },
    {
      "inputs": [
        {
          "internalType": "address",
          "name": "",
          "type": "address"
        }
      ],
      "name": "affiliateRates",
      "outputs": [
        {
          "internalType": "uint256",
          "name": "",
          "type": "uint256"
        }
      ],
      "stateMutability": "view",
      "type": "function"
    },
    {
      "inputs": [
        {
          "internalType": "uint256[]",
          "name": "orderNonces",
          "type": "uint256[]"
        }
      ],
      "name": "cancelOrderNonces",
      "outputs": [],
      "stateMutability": "nonpayable",
      "type": "function"
    },
    {
      "inputs": [],
      "name": "cancelOwnershipTransfer",
      "outputs": [],
      "stateMutability": "nonpayable",
      "type": "function"
    },
    {
      "inputs": [
        {
          "internalType": "uint256[]",
          "name": "subsetNonces",
          "type": "uint256[]"
        }
      ],
      "name": "cancelSubsetNonces",
      "outputs": [],
      "stateMutability": "nonpayable",
      "type": "function"
    },
    {
      "inputs": [],
      "name": "chainId",
      "outputs": [
        {
          "internalType": "uint256",
          "name": "",
          "type": "uint256"
        }
      ],
      "stateMutability": "view",
      "type": "function"
    },
    {
      "inputs": [],
      "name": "confirmOwnershipRenouncement",
      "outputs": [],
      "stateMutability": "nonpayable",
      "type": "function"
    },
    {
      "inputs": [],
      "name": "confirmOwnershipTransfer",
      "outputs": [],
      "stateMutability": "nonpayable",
      "type": "function"
    },
    {
      "inputs": [],
      "name": "creatorFeeManager",
      "outputs": [
        {
          "internalType": "contract ICreatorFeeManager",
          "name": "",
          "type": "address"
        }
      ],
      "stateMutability": "view",
      "type": "function"
    },
    {
      "inputs": [],
      "name": "domainSeparator",
      "outputs": [
        {
          "internalType": "bytes32",
          "name": "",
          "type": "bytes32"
        }
      ],
      "stateMutability": "view",
      "type": "function"
    },
    {
      "inputs": [
        {
          "internalType": "uint256",
          "name": "destAirdrop",
          "type": "uint256"
        },
        {
          "components": [
            {
              "internalType": "address",
              "name": "recipient",
              "type": "address"
            },
            {
              "internalType": "address",
              "name": "currency",
              "type": "address"
            },
            {
              "internalType": "uint16",
              "name": "lzChainId",
              "type": "uint16"
            },
            {
              "internalType": "bytes",
              "name": "additionalParameters",
              "type": "bytes"
            }
          ],
          "internalType": "struct OrderStructs.Taker[]",
          "name": "takerBids",
          "type": "tuple[]"
        },
        {
          "components": [
            {
              "internalType": "enum QuoteType",
              "name": "quoteType",
              "type": "uint8"
            },
            {
              "internalType": "uint256",
              "name": "globalNonce",
              "type": "uint256"
            },
            {
              "internalType": "uint256",
              "name": "subsetNonce",
              "type": "uint256"
            },
            {
              "internalType": "uint256",
              "name": "orderNonce",
              "type": "uint256"
            },
            {
              "internalType": "uint256",
              "name": "strategyId",
              "type": "uint256"
            },
            {
              "internalType": "enum CollectionType",
              "name": "collectionType",
              "type": "uint8"
            },
            {
              "internalType": "address",
              "name": "collection",
              "type": "address"
            },
            {
              "internalType": "address",
              "name": "currency",
              "type": "address"
            },
            {
              "internalType": "address",
              "name": "signer",
              "type": "address"
            },
            {
              "internalType": "uint256",
              "name": "startTime",
              "type": "uint256"
            },
            {
              "internalType": "uint256",
              "name": "endTime",
              "type": "uint256"
            },
            {
              "internalType": "uint256",
              "name": "price",
              "type": "uint256"
            },
            {
              "internalType": "uint256[]",
              "name": "itemIds",
              "type": "uint256[]"
            },
            {
              "internalType": "uint256[]",
              "name": "amounts",
              "type": "uint256[]"
            },
            {
              "internalType": "uint16",
              "name": "lzChainId",
              "type": "uint16"
            },
            {
              "internalType": "bytes",
              "name": "additionalParameters",
              "type": "bytes"
            }
          ],
          "internalType": "struct OrderStructs.Maker[]",
          "name": "makerAsks",
          "type": "tuple[]"
        },
        {
          "internalType": "bytes[]",
          "name": "makerSignatures",
          "type": "bytes[]"
        },
        {
          "components": [
            {
              "internalType": "bytes32",
              "name": "root",
              "type": "bytes32"
            },
            {
              "components": [
                {
                  "internalType": "bytes32",
                  "name": "value",
                  "type": "bytes32"
                },
                {
                  "internalType": "enum OrderStructs.MerkleTreeNodePosition",
                  "name": "position",
                  "type": "uint8"
                }
              ],
              "internalType": "struct OrderStructs.MerkleTreeNode[]",
              "name": "proof",
              "type": "tuple[]"
            }
          ],
          "internalType": "struct OrderStructs.MerkleTree[]",
          "name": "merkleTrees",
          "type": "tuple[]"
        },
        {
          "internalType": "address",
          "name": "affiliate",
          "type": "address"
        },
        {
          "internalType": "bool",
          "name": "isAtomic",
          "type": "bool"
        }
      ],
      "name": "executeMultipleTakerBids",
      "outputs": [],
      "stateMutability": "payable",
      "type": "function"
    },
    {
      "inputs": [
        {
          "components": [
            {
              "internalType": "address",
              "name": "recipient",
              "type": "address"
            },
            {
              "internalType": "address",
              "name": "currency",
              "type": "address"
            },
            {
              "internalType": "uint16",
              "name": "lzChainId",
              "type": "uint16"
            },
            {
              "internalType": "bytes",
              "name": "additionalParameters",
              "type": "bytes"
            }
          ],
          "internalType": "struct OrderStructs.Taker",
          "name": "takerAsk",
          "type": "tuple"
        },
        {
          "components": [
            {
              "internalType": "enum QuoteType",
              "name": "quoteType",
              "type": "uint8"
            },
            {
              "internalType": "uint256",
              "name": "globalNonce",
              "type": "uint256"
            },
            {
              "internalType": "uint256",
              "name": "subsetNonce",
              "type": "uint256"
            },
            {
              "internalType": "uint256",
              "name": "orderNonce",
              "type": "uint256"
            },
            {
              "internalType": "uint256",
              "name": "strategyId",
              "type": "uint256"
            },
            {
              "internalType": "enum CollectionType",
              "name": "collectionType",
              "type": "uint8"
            },
            {
              "internalType": "address",
              "name": "collection",
              "type": "address"
            },
            {
              "internalType": "address",
              "name": "currency",
              "type": "address"
            },
            {
              "internalType": "address",
              "name": "signer",
              "type": "address"
            },
            {
              "internalType": "uint256",
              "name": "startTime",
              "type": "uint256"
            },
            {
              "internalType": "uint256",
              "name": "endTime",
              "type": "uint256"
            },
            {
              "internalType": "uint256",
              "name": "price",
              "type": "uint256"
            },
            {
              "internalType": "uint256[]",
              "name": "itemIds",
              "type": "uint256[]"
            },
            {
              "internalType": "uint256[]",
              "name": "amounts",
              "type": "uint256[]"
            },
            {
              "internalType": "uint16",
              "name": "lzChainId",
              "type": "uint16"
            },
            {
              "internalType": "bytes",
              "name": "additionalParameters",
              "type": "bytes"
            }
          ],
          "internalType": "struct OrderStructs.Maker",
          "name": "makerBid",
          "type": "tuple"
        },
        {
          "internalType": "bytes",
          "name": "makerSignature",
          "type": "bytes"
        },
        {
          "components": [
            {
              "internalType": "bytes32",
              "name": "root",
              "type": "bytes32"
            },
            {
              "components": [
                {
                  "internalType": "bytes32",
                  "name": "value",
                  "type": "bytes32"
                },
                {
                  "internalType": "enum OrderStructs.MerkleTreeNodePosition",
                  "name": "position",
                  "type": "uint8"
                }
              ],
              "internalType": "struct OrderStructs.MerkleTreeNode[]",
              "name": "proof",
              "type": "tuple[]"
            }
          ],
          "internalType": "struct OrderStructs.MerkleTree",
          "name": "merkleTree",
          "type": "tuple"
        },
        {
          "internalType": "address",
          "name": "affiliate",
          "type": "address"
        }
      ],
      "name": "executeTakerAsk",
      "outputs": [],
      "stateMutability": "nonpayable",
      "type": "function"
    },
    {
      "inputs": [
        {
          "internalType": "uint256",
          "name": "destAirdrop",
          "type": "uint256"
        },
        {
          "components": [
            {
              "internalType": "address",
              "name": "recipient",
              "type": "address"
            },
            {
              "internalType": "address",
              "name": "currency",
              "type": "address"
            },
            {
              "internalType": "uint16",
              "name": "lzChainId",
              "type": "uint16"
            },
            {
              "internalType": "bytes",
              "name": "additionalParameters",
              "type": "bytes"
            }
          ],
          "internalType": "struct OrderStructs.Taker",
          "name": "takerBid",
          "type": "tuple"
        },
        {
          "components": [
            {
              "internalType": "enum QuoteType",
              "name": "quoteType",
              "type": "uint8"
            },
            {
              "internalType": "uint256",
              "name": "globalNonce",
              "type": "uint256"
            },
            {
              "internalType": "uint256",
              "name": "subsetNonce",
              "type": "uint256"
            },
            {
              "internalType": "uint256",
              "name": "orderNonce",
              "type": "uint256"
            },
            {
              "internalType": "uint256",
              "name": "strategyId",
              "type": "uint256"
            },
            {
              "internalType": "enum CollectionType",
              "name": "collectionType",
              "type": "uint8"
            },
            {
              "internalType": "address",
              "name": "collection",
              "type": "address"
            },
            {
              "internalType": "address",
              "name": "currency",
              "type": "address"
            },
            {
              "internalType": "address",
              "name": "signer",
              "type": "address"
            },
            {
              "internalType": "uint256",
              "name": "startTime",
              "type": "uint256"
            },
            {
              "internalType": "uint256",
              "name": "endTime",
              "type": "uint256"
            },
            {
              "internalType": "uint256",
              "name": "price",
              "type": "uint256"
            },
            {
              "internalType": "uint256[]",
              "name": "itemIds",
              "type": "uint256[]"
            },
            {
              "internalType": "uint256[]",
              "name": "amounts",
              "type": "uint256[]"
            },
            {
              "internalType": "uint16",
              "name": "lzChainId",
              "type": "uint16"
            },
            {
              "internalType": "bytes",
              "name": "additionalParameters",
              "type": "bytes"
            }
          ],
          "internalType": "struct OrderStructs.Maker",
          "name": "makerAsk",
          "type": "tuple"
        },
        {
          "internalType": "bytes",
          "name": "makerSignature",
          "type": "bytes"
        },
        {
          "components": [
            {
              "internalType": "bytes32",
              "name": "root",
              "type": "bytes32"
            },
            {
              "components": [
                {
                  "internalType": "bytes32",
                  "name": "value",
                  "type": "bytes32"
                },
                {
                  "internalType": "enum OrderStructs.MerkleTreeNodePosition",
                  "name": "position",
                  "type": "uint8"
                }
              ],
              "internalType": "struct OrderStructs.MerkleTreeNode[]",
              "name": "proof",
              "type": "tuple[]"
            }
          ],
          "internalType": "struct OrderStructs.MerkleTree",
          "name": "merkleTree",
          "type": "tuple"
        },
        {
          "internalType": "address",
          "name": "affiliate",
          "type": "address"
        }
      ],
      "name": "executeTakerBid",
      "outputs": [],
      "stateMutability": "payable",
      "type": "function"
    },
    {
      "inputs": [
        {
          "internalType": "uint16",
          "name": "",
          "type": "uint16"
        },
        {
          "internalType": "bytes",
          "name": "",
          "type": "bytes"
        },
        {
          "internalType": "uint256",
          "name": "",
          "type": "uint256"
        }
      ],
      "name": "failedMessages",
      "outputs": [
        {
          "internalType": "bytes32",
          "name": "",
          "type": "bytes32"
        }
      ],
      "stateMutability": "view",
      "type": "function"
    },
    {
      "inputs": [
        {
          "internalType": "uint16",
          "name": "_srcChainId",
          "type": "uint16"
        },
        {
          "internalType": "bytes",
          "name": "_srcAddress",
          "type": "bytes"
        }
      ],
      "name": "forceResumeReceive",
      "outputs": [],
      "stateMutability": "nonpayable",
      "type": "function"
    },
    {
      "inputs": [],
      "name": "gasForLzReceive",
      "outputs": [
        {
          "internalType": "uint256",
          "name": "",
          "type": "uint256"
        }
      ],
      "stateMutability": "view",
      "type": "function"
    },
    {
      "inputs": [],
      "name": "gasForOmniLzReceive",
      "outputs": [
        {
          "internalType": "uint256",
          "name": "",
          "type": "uint256"
        }
      ],
      "stateMutability": "view",
      "type": "function"
    },
    {
      "inputs": [
        {
          "internalType": "uint16",
          "name": "_version",
          "type": "uint16"
        },
        {
          "internalType": "uint16",
          "name": "_chainId",
          "type": "uint16"
        },
        {
          "internalType": "address",
          "name": "",
          "type": "address"
        },
        {
          "internalType": "uint256",
          "name": "_configType",
          "type": "uint256"
        }
      ],
      "name": "getConfig",
      "outputs": [
        {
          "internalType": "bytes",
          "name": "",
          "type": "bytes"
        }
      ],
      "stateMutability": "view",
      "type": "function"
    },
    {
      "inputs": [
        {
          "components": [
            {
              "internalType": "address",
              "name": "recipient",
              "type": "address"
            },
            {
              "internalType": "address",
              "name": "currency",
              "type": "address"
            },
            {
              "internalType": "uint16",
              "name": "lzChainId",
              "type": "uint16"
            },
            {
              "internalType": "bytes",
              "name": "additionalParameters",
              "type": "bytes"
            }
          ],
          "internalType": "struct OrderStructs.Taker",
          "name": "taker",
          "type": "tuple"
        },
        {
          "components": [
            {
              "internalType": "enum QuoteType",
              "name": "quoteType",
              "type": "uint8"
            },
            {
              "internalType": "uint256",
              "name": "globalNonce",
              "type": "uint256"
            },
            {
              "internalType": "uint256",
              "name": "subsetNonce",
              "type": "uint256"
            },
            {
              "internalType": "uint256",
              "name": "orderNonce",
              "type": "uint256"
            },
            {
              "internalType": "uint256",
              "name": "strategyId",
              "type": "uint256"
            },
            {
              "internalType": "enum CollectionType",
              "name": "collectionType",
              "type": "uint8"
            },
            {
              "internalType": "address",
              "name": "collection",
              "type": "address"
            },
            {
              "internalType": "address",
              "name": "currency",
              "type": "address"
            },
            {
              "internalType": "address",
              "name": "signer",
              "type": "address"
            },
            {
              "internalType": "uint256",
              "name": "startTime",
              "type": "uint256"
            },
            {
              "internalType": "uint256",
              "name": "endTime",
              "type": "uint256"
            },
            {
              "internalType": "uint256",
              "name": "price",
              "type": "uint256"
            },
            {
              "internalType": "uint256[]",
              "name": "itemIds",
              "type": "uint256[]"
            },
            {
              "internalType": "uint256[]",
              "name": "amounts",
              "type": "uint256[]"
            },
            {
              "internalType": "uint16",
              "name": "lzChainId",
              "type": "uint16"
            },
            {
              "internalType": "bytes",
              "name": "additionalParameters",
              "type": "bytes"
            }
          ],
          "internalType": "struct OrderStructs.Maker",
          "name": "maker",
          "type": "tuple"
        },
        {
          "internalType": "uint256",
          "name": "destAirdrop",
          "type": "uint256"
        },
        {
          "internalType": "address",
          "name": "affiliate",
          "type": "address"
        }
      ],
      "name": "getLzFees",
      "outputs": [
        {
          "internalType": "uint256",
          "name": "",
          "type": "uint256"
        },
        {
          "internalType": "uint256",
          "name": "",
          "type": "uint256"
        },
        {
          "internalType": "uint256",
          "name": "",
          "type": "uint256"
        }
      ],
      "stateMutability": "view",
      "type": "function"
    },
    {
      "inputs": [
        {
          "internalType": "uint16",
          "name": "_remoteChainId",
          "type": "uint16"
        }
      ],
      "name": "getTrustedRemoteAddress",
      "outputs": [
        {
          "internalType": "bytes",
          "name": "",
          "type": "bytes"
        }
      ],
      "stateMutability": "view",
      "type": "function"
    },
    {
      "inputs": [
        {
          "internalType": "bytes32",
          "name": "root",
          "type": "bytes32"
        },
        {
          "internalType": "uint256",
          "name": "proofLength",
          "type": "uint256"
        }
      ],
      "name": "hashBatchOrder",
      "outputs": [
        {
          "internalType": "bytes32",
          "name": "batchOrderHash",
          "type": "bytes32"
        }
      ],
      "stateMutability": "pure",
      "type": "function"
    },
    {
      "inputs": [
        {
          "internalType": "bool",
          "name": "bid",
          "type": "bool"
        },
        {
          "internalType": "bool",
          "name": "ask",
          "type": "bool"
        }
      ],
      "name": "incrementBidAskNonces",
      "outputs": [],
      "stateMutability": "nonpayable",
      "type": "function"
    },
    {
      "inputs": [],
      "name": "initiateOwnershipRenouncement",
      "outputs": [],
      "stateMutability": "nonpayable",
      "type": "function"
    },
    {
      "inputs": [
        {
          "internalType": "address",
          "name": "newPotentialOwner",
          "type": "address"
        }
      ],
      "name": "initiateOwnershipTransfer",
      "outputs": [],
      "stateMutability": "nonpayable",
      "type": "function"
    },
    {
      "inputs": [],
      "name": "isAffiliateProgramActive",
      "outputs": [
        {
          "internalType": "bool",
          "name": "",
          "type": "bool"
        }
      ],
      "stateMutability": "view",
      "type": "function"
    },
    {
      "inputs": [
        {
          "internalType": "address",
          "name": "",
          "type": "address"
        }
      ],
      "name": "isCurrencyAllowed",
      "outputs": [
        {
          "internalType": "bool",
          "name": "",
          "type": "bool"
        }
      ],
      "stateMutability": "view",
      "type": "function"
    },
    {
      "inputs": [
        {
          "internalType": "address",
          "name": "",
          "type": "address"
        }
      ],
      "name": "isCurrencyOmni",
      "outputs": [
        {
          "internalType": "bool",
          "name": "",
          "type": "bool"
        }
      ],
      "stateMutability": "view",
      "type": "function"
    },
    {
      "inputs": [
        {
          "internalType": "address",
          "name": "currency",
          "type": "address"
        }
      ],
      "name": "isOmniCurrency",
      "outputs": [
        {
          "internalType": "bool",
          "name": "",
          "type": "bool"
        }
      ],
      "stateMutability": "view",
      "type": "function"
    },
    {
      "inputs": [
        {
          "internalType": "uint16",
          "name": "_srcChainId",
          "type": "uint16"
        },
        {
          "internalType": "bytes",
          "name": "_srcAddress",
          "type": "bytes"
        }
      ],
      "name": "isTrustedRemote",
      "outputs": [
        {
          "internalType": "bool",
          "name": "",
          "type": "bool"
        }
      ],
      "stateMutability": "view",
      "type": "function"
    },
    {
      "inputs": [],
      "name": "lzEndpoint",
      "outputs": [
        {
          "internalType": "contract ILayerZeroEndpoint",
          "name": "",
          "type": "address"
        }
      ],
      "stateMutability": "view",
      "type": "function"
    },
    {
      "inputs": [
        {
          "internalType": "uint16",
          "name": "_srcChainId",
          "type": "uint16"
        },
        {
          "internalType": "bytes",
          "name": "_srcAddress",
          "type": "bytes"
        },
        {
          "internalType": "uint64",
          "name": "_nonce",
          "type": "uint64"
        },
        {
          "internalType": "bytes",
          "name": "_payload",
          "type": "bytes"
        }
      ],
      "name": "lzReceive",
      "outputs": [],
      "stateMutability": "nonpayable",
      "type": "function"
    },
    {
      "inputs": [],
      "name": "maxCreatorFeeBp",
      "outputs": [
        {
          "internalType": "uint16",
          "name": "",
          "type": "uint16"
        }
      ],
      "stateMutability": "view",
      "type": "function"
    },
    {
      "inputs": [
        {
          "internalType": "uint16",
          "name": "",
          "type": "uint16"
        },
        {
          "internalType": "uint16",
          "name": "",
          "type": "uint16"
        }
      ],
      "name": "minDstGasLookup",
      "outputs": [
        {
          "internalType": "uint256",
          "name": "",
          "type": "uint256"
        }
      ],
      "stateMutability": "view",
      "type": "function"
    },
    {
      "inputs": [
        {
          "internalType": "uint16",
          "name": "_srcChainId",
          "type": "uint16"
        },
        {
          "internalType": "bytes",
          "name": "_srcAddress",
          "type": "bytes"
        },
        {
          "internalType": "uint64",
          "name": "_nonce",
          "type": "uint64"
        },
        {
          "internalType": "bytes",
          "name": "_payload",
          "type": "bytes"
        }
      ],
      "name": "nonblockingLzReceive",
      "outputs": [],
      "stateMutability": "nonpayable",
      "type": "function"
    },
    {
      "inputs": [],
      "name": "owner",
      "outputs": [
        {
          "internalType": "address",
          "name": "",
          "type": "address"
        }
      ],
      "stateMutability": "view",
      "type": "function"
    },
    {
      "inputs": [],
      "name": "ownershipStatus",
      "outputs": [
        {
          "internalType": "enum IOwnableTwoSteps.Status",
          "name": "",
          "type": "uint8"
        }
      ],
      "stateMutability": "view",
      "type": "function"
    },
    {
      "inputs": [],
      "name": "potentialOwner",
      "outputs": [
        {
          "internalType": "address",
          "name": "",
          "type": "address"
        }
      ],
      "stateMutability": "view",
      "type": "function"
    },
    {
      "inputs": [],
      "name": "precrime",
      "outputs": [
        {
          "internalType": "address",
          "name": "",
          "type": "address"
        }
      ],
      "stateMutability": "view",
      "type": "function"
    },
    {
      "inputs": [],
      "name": "protocolFeeRecipient",
      "outputs": [
        {
          "internalType": "address",
          "name": "",
          "type": "address"
        }
      ],
      "stateMutability": "view",
      "type": "function"
    },
    {
      "inputs": [
        {
          "internalType": "uint256",
          "name": "destAirdrop",
          "type": "uint256"
        },
        {
          "components": [
            {
              "internalType": "address",
              "name": "recipient",
              "type": "address"
            },
            {
              "internalType": "address",
              "name": "currency",
              "type": "address"
            },
            {
              "internalType": "uint16",
              "name": "lzChainId",
              "type": "uint16"
            },
            {
              "internalType": "bytes",
              "name": "additionalParameters",
              "type": "bytes"
            }
          ],
          "internalType": "struct OrderStructs.Taker",
          "name": "takerBid",
          "type": "tuple"
        },
        {
          "components": [
            {
              "internalType": "enum QuoteType",
              "name": "quoteType",
              "type": "uint8"
            },
            {
              "internalType": "uint256",
              "name": "globalNonce",
              "type": "uint256"
            },
            {
              "internalType": "uint256",
              "name": "subsetNonce",
              "type": "uint256"
            },
            {
              "internalType": "uint256",
              "name": "orderNonce",
              "type": "uint256"
            },
            {
              "internalType": "uint256",
              "name": "strategyId",
              "type": "uint256"
            },
            {
              "internalType": "enum CollectionType",
              "name": "collectionType",
              "type": "uint8"
            },
            {
              "internalType": "address",
              "name": "collection",
              "type": "address"
            },
            {
              "internalType": "address",
              "name": "currency",
              "type": "address"
            },
            {
              "internalType": "address",
              "name": "signer",
              "type": "address"
            },
            {
              "internalType": "uint256",
              "name": "startTime",
              "type": "uint256"
            },
            {
              "internalType": "uint256",
              "name": "endTime",
              "type": "uint256"
            },
            {
              "internalType": "uint256",
              "name": "price",
              "type": "uint256"
            },
            {
              "internalType": "uint256[]",
              "name": "itemIds",
              "type": "uint256[]"
            },
            {
              "internalType": "uint256[]",
              "name": "amounts",
              "type": "uint256[]"
            },
            {
              "internalType": "uint16",
              "name": "lzChainId",
              "type": "uint16"
            },
            {
              "internalType": "bytes",
              "name": "additionalParameters",
              "type": "bytes"
            }
          ],
          "internalType": "struct OrderStructs.Maker",
          "name": "makerAsk",
          "type": "tuple"
        },
        {
          "internalType": "address",
          "name": "sender",
          "type": "address"
        },
        {
          "internalType": "address",
          "name": "affiliate",
          "type": "address"
        },
        {
          "internalType": "bytes32",
          "name": "orderHash",
          "type": "bytes32"
        }
      ],
      "name": "restrictedExecuteTakerBid",
      "outputs": [
        {
          "internalType": "uint256",
          "name": "protocolFeeAmount",
          "type": "uint256"
        }
      ],
      "stateMutability": "nonpayable",
      "type": "function"
    },
    {
      "inputs": [
        {
          "internalType": "uint16",
          "name": "_srcChainId",
          "type": "uint16"
        },
        {
          "internalType": "bytes",
          "name": "_srcAddress",
          "type": "bytes"
        },
        {
          "internalType": "uint64",
          "name": "_nonce",
          "type": "uint64"
        },
        {
          "internalType": "bytes",
          "name": "_payload",
          "type": "bytes"
        }
      ],
      "name": "retryMessage",
      "outputs": [],
      "stateMutability": "payable",
      "type": "function"
    },
    {
      "inputs": [
        {
          "internalType": "uint16",
          "name": "_version",
          "type": "uint16"
        },
        {
          "internalType": "uint16",
          "name": "_chainId",
          "type": "uint16"
        },
        {
          "internalType": "uint256",
          "name": "_configType",
          "type": "uint256"
        },
        {
          "internalType": "bytes",
          "name": "_config",
          "type": "bytes"
        }
      ],
      "name": "setConfig",
      "outputs": [],
      "stateMutability": "nonpayable",
      "type": "function"
    },
    {
      "inputs": [
        {
          "internalType": "uint256",
          "name": "gas",
          "type": "uint256"
        }
      ],
      "name": "setGasForLzReceive",
      "outputs": [],
      "stateMutability": "nonpayable",
      "type": "function"
    },
    {
      "inputs": [
        {
          "internalType": "uint256",
          "name": "gas",
          "type": "uint256"
        }
      ],
      "name": "setGasForOmniLZReceive",
      "outputs": [],
      "stateMutability": "nonpayable",
      "type": "function"
    },
    {
      "inputs": [
        {
          "internalType": "uint16",
          "name": "_dstChainId",
          "type": "uint16"
        },
        {
          "internalType": "uint16",
          "name": "_packetType",
          "type": "uint16"
        },
        {
          "internalType": "uint256",
          "name": "_minGas",
          "type": "uint256"
        }
      ],
      "name": "setMinDstGas",
      "outputs": [],
      "stateMutability": "nonpayable",
      "type": "function"
    },
    {
      "inputs": [
        {
          "internalType": "address",
          "name": "_precrime",
          "type": "address"
        }
      ],
      "name": "setPrecrime",
      "outputs": [],
      "stateMutability": "nonpayable",
      "type": "function"
    },
    {
      "inputs": [
        {
          "internalType": "uint16",
          "name": "_version",
          "type": "uint16"
        }
      ],
      "name": "setReceiveVersion",
      "outputs": [],
      "stateMutability": "nonpayable",
      "type": "function"
    },
    {
      "inputs": [
        {
          "internalType": "uint16",
          "name": "_version",
          "type": "uint16"
        }
      ],
      "name": "setSendVersion",
      "outputs": [],
      "stateMutability": "nonpayable",
      "type": "function"
    },
    {
      "inputs": [
        {
          "internalType": "address",
          "name": "manager",
          "type": "address"
        }
      ],
      "name": "setStargatePoolManager",
      "outputs": [],
      "stateMutability": "nonpayable",
      "type": "function"
    },
    {
      "inputs": [
        {
          "internalType": "uint16",
          "name": "_srcChainId",
          "type": "uint16"
        },
        {
          "internalType": "bytes",
          "name": "_path",
          "type": "bytes"
        }
      ],
      "name": "setTrustedRemote",
      "outputs": [],
      "stateMutability": "nonpayable",
      "type": "function"
    },
    {
      "inputs": [
        {
          "internalType": "uint16",
          "name": "_remoteChainId",
          "type": "uint16"
        },
        {
          "internalType": "bytes",
          "name": "_remoteAddress",
          "type": "bytes"
        }
      ],
      "name": "setTrustedRemoteAddress",
      "outputs": [],
      "stateMutability": "nonpayable",
      "type": "function"
    },
    {
      "inputs": [
        {
          "internalType": "uint16",
          "name": "",
          "type": "uint16"
        },
        {
          "internalType": "bytes",
          "name": "",
          "type": "bytes"
        },
        {
          "internalType": "uint256",
          "name": "",
          "type": "uint256"
        },
        {
          "internalType": "address",
          "name": "",
          "type": "address"
        },
        {
          "internalType": "uint256",
          "name": "_price",
          "type": "uint256"
        },
        {
          "internalType": "bytes",
          "name": "_payload",
          "type": "bytes"
        }
      ],
      "name": "sgReceive",
      "outputs": [],
      "stateMutability": "nonpayable",
      "type": "function"
    },
    {
      "inputs": [],
      "name": "stargatePoolManager",
      "outputs": [
        {
          "internalType": "contract IStargatePoolManager",
          "name": "",
          "type": "address"
        }
      ],
      "stateMutability": "view",
      "type": "function"
    },
    {
      "inputs": [
        {
          "internalType": "uint256",
          "name": "",
          "type": "uint256"
        }
      ],
      "name": "strategyInfo",
      "outputs": [
        {
          "internalType": "bool",
          "name": "isActive",
          "type": "bool"
        },
        {
          "internalType": "uint16",
          "name": "standardProtocolFeeBp",
          "type": "uint16"
        },
        {
          "internalType": "uint16",
          "name": "minTotalFeeBp",
          "type": "uint16"
        },
        {
          "internalType": "uint16",
          "name": "maxProtocolFeeBp",
          "type": "uint16"
        },
        {
          "internalType": "bytes4",
          "name": "selector",
          "type": "bytes4"
        },
        {
          "internalType": "bool",
          "name": "isMakerBid",
          "type": "bool"
        },
        {
          "internalType": "address",
          "name": "implementation",
          "type": "address"
        }
      ],
      "stateMutability": "view",
      "type": "function"
    },
    {
      "inputs": [],
      "name": "transferManager",
      "outputs": [
        {
          "internalType": "contract TransferManager",
          "name": "",
          "type": "address"
        }
      ],
      "stateMutability": "view",
      "type": "function"
    },
    {
      "inputs": [
        {
          "internalType": "address",
          "name": "collection",
          "type": "address"
        },
        {
          "internalType": "enum CollectionType",
          "name": "collectionType",
          "type": "uint8"
        },
        {
          "internalType": "address",
          "name": "from",
          "type": "address"
        },
        {
          "internalType": "address",
          "name": "to",
          "type": "address"
        },
        {
          "internalType": "uint256[]",
          "name": "itemIds",
          "type": "uint256[]"
        },
        {
          "internalType": "uint256[]",
          "name": "amounts",
          "type": "uint256[]"
        }
      ],
      "name": "transferNFTLz",
      "outputs": [],
      "stateMutability": "nonpayable",
      "type": "function"
    },
    {
      "inputs": [
        {
          "internalType": "uint16",
          "name": "",
          "type": "uint16"
        }
      ],
      "name": "trustedRemoteLookup",
      "outputs": [
        {
          "internalType": "bytes",
          "name": "",
          "type": "bytes"
        }
      ],
      "stateMutability": "view",
      "type": "function"
    },
    {
      "inputs": [
        {
          "internalType": "address",
          "name": "newAffiliateController",
          "type": "address"
        }
      ],
      "name": "updateAffiliateController",
      "outputs": [],
      "stateMutability": "nonpayable",
      "type": "function"
    },
    {
      "inputs": [
        {
          "internalType": "bool",
          "name": "isActive",
          "type": "bool"
        }
      ],
      "name": "updateAffiliateProgramStatus",
      "outputs": [],
      "stateMutability": "nonpayable",
      "type": "function"
    },
    {
      "inputs": [
        {
          "internalType": "address",
          "name": "affiliate",
          "type": "address"
        },
        {
          "internalType": "uint256",
          "name": "bp",
          "type": "uint256"
        }
      ],
      "name": "updateAffiliateRate",
      "outputs": [],
      "stateMutability": "nonpayable",
      "type": "function"
    },
    {
      "inputs": [
        {
          "internalType": "address",
          "name": "newCreatorFeeManager",
          "type": "address"
        }
      ],
      "name": "updateCreatorFeeManager",
      "outputs": [],
      "stateMutability": "nonpayable",
      "type": "function"
    },
    {
      "inputs": [
        {
          "internalType": "address",
          "name": "currency",
          "type": "address"
        },
        {
          "internalType": "bool",
          "name": "isAllowed",
          "type": "bool"
        }
      ],
      "name": "updateCurrencyStatus",
      "outputs": [],
      "stateMutability": "nonpayable",
      "type": "function"
    },
    {
      "inputs": [],
      "name": "updateDomainSeparator",
      "outputs": [],
      "stateMutability": "nonpayable",
      "type": "function"
    },
    {
      "inputs": [
        {
          "internalType": "uint256",
          "name": "newGasLimitETHTransfer",
          "type": "uint256"
        }
      ],
      "name": "updateETHGasLimitForTransfer",
      "outputs": [],
      "stateMutability": "nonpayable",
      "type": "function"
    },
    {
      "inputs": [
        {
          "internalType": "uint16",
          "name": "newMaxCreatorFeeBp",
          "type": "uint16"
        }
      ],
      "name": "updateMaxCreatorFeeBp",
      "outputs": [],
      "stateMutability": "nonpayable",
      "type": "function"
    },
    {
      "inputs": [
        {
          "internalType": "address",
          "name": "newProtocolFeeRecipient",
          "type": "address"
        }
      ],
      "name": "updateProtocolFeeRecipient",
      "outputs": [],
      "stateMutability": "nonpayable",
      "type": "function"
    },
    {
      "inputs": [
        {
          "internalType": "uint256",
          "name": "strategyId",
          "type": "uint256"
        },
        {
          "internalType": "bool",
          "name": "isActive",
          "type": "bool"
        },
        {
          "internalType": "uint16",
          "name": "newStandardProtocolFee",
          "type": "uint16"
        },
        {
          "internalType": "uint16",
          "name": "newMinTotalFee",
          "type": "uint16"
        }
      ],
      "name": "updateStrategy",
      "outputs": [],
      "stateMutability": "nonpayable",
      "type": "function"
    },
    {
      "inputs": [
        {
          "internalType": "address",
          "name": "",
          "type": "address"
        }
      ],
      "name": "userBidAskNonces",
      "outputs": [
        {
          "internalType": "uint256",
          "name": "bidNonce",
          "type": "uint256"
        },
        {
          "internalType": "uint256",
          "name": "askNonce",
          "type": "uint256"
        }
      ],
      "stateMutability": "view",
      "type": "function"
    },
    {
      "inputs": [
        {
          "internalType": "address",
          "name": "",
          "type": "address"
        },
        {
          "internalType": "uint256",
          "name": "",
          "type": "uint256"
        }
      ],
      "name": "userOrderNonce",
      "outputs": [
        {
          "internalType": "bytes32",
          "name": "",
          "type": "bytes32"
        }
      ],
      "stateMutability": "view",
      "type": "function"
    },
    {
      "inputs": [
        {
          "internalType": "address",
          "name": "",
          "type": "address"
        },
        {
          "internalType": "uint256",
          "name": "",
          "type": "uint256"
        }
      ],
      "name": "userSubsetNonce",
      "outputs": [
        {
          "internalType": "bool",
          "name": "",
          "type": "bool"
        }
      ],
      "stateMutability": "view",
      "type": "function"
    }
  ],
  "bytecode": {
    "object": "0x60e034620003f8576001600160401b0362007c30601f38829003908101601f191684019083821185831017620003e2578085936040938452843960a092839181010312620003f8576200005284620003fd565b90602062000062818701620003fd565b918162000071828901620003fd565b936200008060608a01620003fd565b90620000906080809b01620003fd565b967f3edd90e7770f06fafde38004653b33870066c33bfc923ff6102acd601f85dfbc60018060a01b0394858094168060018060a01b031960035416176003558751908152a11689526001600d5582519460e086018681108a821117620003e257845260018652848601956032875284810160328152606082019760c889528c8301986000998a81528c8501918b835260c08601938c85528c8052600e8c528a8d209651151560ff16905160081b62ffff0016955160181b64ffff00000016915160281b66ffff000000000016925160a81c6affffffff00000000000000169351151560581b6bff00000000000000000000001694600160601b6001900319905160601b16951717171717179055835186815285810160329052848101603290526060810160c89052868b82015286898201528660c082015260e07f5290475107686ff8d28cd104943b127d453b23622ac55346373fa25c0c8957a291a182600f549116908115620003d1576001600160b01b0319168117607d60a31b17600f5583519081527f8cffb07faa2874440346743bdc0a86b06c3335cc47dc49b327d10e77b73ceb10908590a16010805460ff60a01b1916600160a01b179055168552620557306014556108fc601655805180820187811182821017620003bd57825260018152601960f91b9083015280517f8b73c3c69bb8fe3d512ecc4cf759cc79239f7b179b0ffacaa9a75d522b39400f9281019283527f9e6bc51ef68b436657c5fe7a273ea9121a02b234cc81ad1e04892649c9168c6a818301527fad7c5bef027816a800da1736444fb58a807ef4c9603b7848673f7e3a68eb14a560608201524688820152308682015285815260c081019692939092871183881017620003a957508590525190206015554660125560c052620927c060135561781d9283620004138439518281816106b0015281816107d90152818161088501528181611238015281816128c901528181612c9c0152818161344201528181614e6701526158d101525181818161138601528181616b900152616bff015260c05181818161272b01528181615aea01528181615db701526165610152f35b634e487b7160e01b81526041600452602490fd5b634e487b7160e01b85526041600452602485fd5b8451630f966bcb60e41b8152600490fd5b634e487b7160e01b600052604160045260246000fd5b600080fd5b51906001600160a01b0382168203620003f85756fe60806040526004361015610013575b600080fd5b60003560e01c80621d3567146105e557806307e0db17146105dc57806310ddb137146105d3578063134849a6146105ca5780631d3c4268146105c15780631df47f80146105b857806320cd05c7146105af57806323452b9c146105a65780632bb5a9e61461059d5780633d25e561146105945780633d8b38f61461058b5780633e567539146105825780633f66eda41461057957806342d65a8d14610570578063463357ec1461056757806346b625bc1461055e57806346ea2552146105555780634cbac9dc1461054c57806351039b4e14610543578063548788761461053a5780635a195d19146105315780635b6ac0111461052857806362d7b6ab1461051f57806364df049e1461051657806366ad5c8a1461050d57806367d9dd79146105045780636e90c014146104fb5780637200b829146104f2578063748644c3146104e05780637533d788146104e95780637730d51b146104e05780637762df25146104d757806379ed31d4146104ce5780637a7d8851146104c55780637c22dc85146104bc578063838b8f5c146104b357806386c07642146104aa57806389ccfe89146104a15780638cfd8f5c146104985780638da5cb5b1461048f5780638ee749121461048657806391be13601461047d578063950c8a7414610474578063974e7c9f1461046b5780639a8a0592146104625780639e4b4b75146104595780639f38369a14610450578063a02bab5714610447578063a39bf29f1461043e578063a6c3d16514610435578063ab8236f31461042c578063ad5c464814610423578063ae1cce5a1461041a578063ae9d5bd714610411578063b20dea7514610408578063b353aaa7146103ff578063b647a404146103f6578063b6819822146103ed578063baf3292d146103e4578063bb91c339146103db578063c0a23138146103d2578063c0b6f561146103c9578063c6fcfed0146103c0578063cbed8b9c146103b7578063d1deba1f146103ae578063d5a06adf146103a5578063d5b010f51461039c578063df2a5b3b14610393578063ea179b761461038a578063eb8d72b714610381578063f41b028214610378578063f5ecbdbc1461036f578063f698da2514610366578063f805c12c1461035d5763fa99018d1461035557600080fd5b61000e61364c565b5061000e61357a565b5061000e6134b7565b5061000e6133d4565b5061000e6133b2565b5061000e613258565b5061000e613207565b5061000e613119565b5061000e613017565b5061000e612e88565b5061000e612d42565b5061000e612c47565b5061000e612bb0565b5061000e612b01565b5061000e612a76565b5061000e6129f9565b5061000e612988565b5061000e612969565b5061000e6128f8565b5061000e6128b2565b5061000e612890565b5061000e612815565b5061000e61275a565b5061000e612714565b5061000e6126a8565b5061000e612517565b5061000e6124d0565b5061000e612453565b5061000e6123a3565b5061000e612330565b5061000e612311565b5061000e6122a8565b5061000e61227e565b5061000e61202a565b5061000e611fa6565b5061000e611f56565b5061000e611efa565b5061000e611de0565b5061000e611db6565b5061000e611d8c565b5061000e611ceb565b5061000e611cad565b5061000e611c06565b5061000e611bdc565b5061000e6119fd565b5061000e611b84565b5061000e611947565b5061000e611921565b5061000e6118fd565b5061000e611789565b5061000e6115d0565b5061000e61153f565b5061000e6114a8565b5061000e611465565b5061000e611402565b5061000e6113e3565b5061000e6113b5565b5061000e61136f565b5061000e6112db565b5061000e61129f565b5061000e61121d565b5061000e610efe565b5061000e610d65565b5061000e610d08565b5061000e610ca6565b5061000e610c6c565b5061000e610b95565b5061000e610b3e565b5061000e610ab6565b5061000e610a2b565b5061000e610944565b5061000e61085b565b5061000e6107af565b5061000e61064a565b61ffff81160361000e57565b3590610605826105ee565b565b9181601f8401121561000e578235916001600160401b03831161000e576020838186019501011161000e57565b604435906001600160401b038216820361000e57565b503461000e57608036600319011261000e57600435610668816105ee565b6001600160401b039060243582811161000e57610689903690600401610607565b9290610693610634565b9160643590811161000e576106ac903690600401610607565b91907f00000000000000000000000000000000000000000000000000000000000000006001600160a01b0316330361076a5761072d6107359261073b9761072661070c6107078a61ffff166000526005602052604060002090565b611b10565b8051908184149182610760575b508161073d575b50616f5a565b3691611734565b923691611734565b9261715e565b005b905061074a368486611734565b6020815191012090602081519101201438610720565b1515915038610719565b60405162461bcd60e51b815260206004820152601e60248201527f4c7a4170703a20696e76616c696420656e64706f696e742063616c6c657200006044820152606490fd5b503461000e5760006020366003190112610858576004356107cf816105ee565b6107d76172f2565b7f00000000000000000000000000000000000000000000000000000000000000006001600160a01b0316908290823b1561085457602461ffff918360405195869485936307e0db1760e01b85521660048401525af18015610847575b61083b575080f35b61084490611611565b80f35b61084f613d57565b610833565b5080fd5b80fd5b503461000e57600060203660031901126108585760043561087b816105ee565b6108836172f2565b7f00000000000000000000000000000000000000000000000000000000000000006001600160a01b0316908290823b1561085457602461ffff918360405195869485936310ddb13760e01b85521660048401525af180156108475761083b575080f35b9181601f8401121561000e578235916001600160401b03831161000e576020808501948460051b01011161000e57565b602060031982011261000e57600435906001600160401b03821161000e57610940916004016108e6565b9091565b503461000e5761095336610916565b80156109d95760005b81811061099b57507fe8036d6fb143373f3ff63e551373f5fffe4267f6809bf6d3934014a18a9b38f691610996604051928392338461405b565b0390a1005b600190336000526109d360206002815260409081600020906109be85888a614043565b3560005252600020600160ff19825416179055565b0161095c565b6040516397983bdb60e01b8152600490fd5b6001600160a01b0381160361000e57565b60a43590610605826109eb565b3590610605826109eb565b8015150361000e57565b60c4359061060582610a14565b503461000e57604036600319011261000e577fba28eda47a2e15b1dd3269e6d82f66730d20a5661aa40e9faf9f311c7872a5436040600435610a6c816109eb565b60243590610a7982610a14565b610a816172f2565b6001600160a01b03166000818152600b602052839020805460ff191660ff8415151617905590825191825215156020820152a1005b503461000e57602036600319011261000e57600435610ad4816109eb565b610adc6172f2565b6001600160a01b03168015610b2c576020817f8cffb07faa2874440346743bdc0a86b06c3335cc47dc49b327d10e77b73ceb10926001600160601b0360a01b600f541617600f55604051908152a1005b604051630f966bcb60e41b8152600490fd5b503461000e57604036600319011261000e57600435610b5c816109eb565b60018060a01b0316600052600160205260406000206024356000526020526020604060002054604051908152f35b600091031261000e57565b503461000e5760008060031936011261085857610bb06172f2565b60045460ff8160a01c166003811015610c36575b8015610c245780610bd6600192610c5a565b14610c11575b506004805460ff60a01b191690557f8eca980489e87f7dba4f26917aa4bfc906eb3f2b4f7b4b9fd0ff2b8bb3e21ae38180a180f35b6001600160a01b03191660045538610bdc565b60405163ccf69db760e01b8152600490fd5b610c3e610c43565b610bc4565b50634e487b7160e01b600052602160045260246000fd5b60031115610c6457565b610605610c43565b503461000e57600036600319011261000e57602060ff60045460a01c16604051906003811015610c9a578152f35b610ca2610c43565b8152f35b503461000e57600036600319011261000e576011546040516001600160a01b039091168152602090f35b90604060031983011261000e57600435610ce9816105ee565b91602435906001600160401b03821161000e5761094091600401610607565b503461000e57602061ffff610d56610d1f36610cd0565b9390911660005260058452610d41610d48604060002060405192838092611a7a565b038261169d565b848151910120923691611734565b82815191012014604051908152f35b503461000e57600036600319011261000e57610d7f6172f2565b600260ff60045460a01c166003811015610dfb575b03610de957600380546001600160a01b03191690556004805460ff60a01b19169055604051600081527f3edd90e7770f06fafde38004653b33870066c33bfc923ff6102acd601f85dfbc908060208101610996565b60405163022e289160e11b8152600490fd5b610e03610c43565b610d94565b9081608091031261000e5790565b908161020091031261000e5790565b90815180825260208080930193019160005b828110610e45575050505090565b835185529381019392810192600101610e37565b6000915b60028310610e6a57505050565b81516001600160a01b031681526001929092019160209182019101610e5d565b6000915b60038310610e9b57505050565b600190825181526020809101920192019190610e8e565b93610eed610ee260e095989794610ed4610ef795610100808b528a0190610e25565b9088820360208a0152610e25565b976040870190610e59565b6080850190610e8a565b1515910152565b503461000e57606036600319011261000e5760046001600160401b03813581811161000e57610f309036908401610e08565b9060243590811161000e57610f489036908401610e16565b9160443592610f56846109eb565b6040805191610f648361164c565b81368437815193610f7485611667565b60603686373033036111ed576000610f96610140840135610120850135613fe9565b608083013591826110ac5750509181848661108197956110046101a0610ff59c999701610ffc610fec610fe6610fcc848a613cb3565b91906101808b0192610fde848d613cb3565b929050614004565b88613cb3565b9e909288613cb3565b3691613511565b9c3691613511565b996001986101608601359161103f6110298e5b8561102460c08c01613ce8565b613dad565b6020880152602088019060018060a01b03169052565b611048876138f3565b611051816138e9565b6110955761107796506001600160a01b0361106b82613ce8565b16611085575091613ee2565b5195869586610eb2565b0390f35b61108f9150613ce8565b91613ee2565b505061108f6101006110a79601613ce8565b611077565b6110d06110c984959697989994600052600e602052604060002090565b5460ff1690565b156111ce576110de856138f3565b6110ff6110f586600052600e602052604060002090565b5460581c60ff1690565b146111c357508061112461111d85600052600e602052604060002090565b5460601c90565b61114c61113b86600052600e602052604060002090565b5460a81b6001600160e01b03191690565b82885160208101928352611176816111688b8a60248401613b6e565b03601f19810183528261169d565b51925af1611182613bc4565b90156111bb57928587611081979461103f97946111ac886020806110299e9b518301019101613c5d565b9e9293919e9b909e9d8e611017565b602081519101fd5b63ab9848468252601cfd5b8551636b9e163560e11b815290810184815281906020010390fd5b0390fd5b606490602084519162461bcd60e51b8352820152600a60248201526909edcd8f2409edadcd2f60b31b6044820152fd5b503461000e5761122c36610cd0565b91906112366172f2565b7f00000000000000000000000000000000000000000000000000000000000000006001600160a01b031691823b1561000e57604051928380926342d65a8d60e01b82528161128d6000988997889460048501616fb5565b03925af180156108475761083b575080f35b503461000e57600036600319011261000e5760206040517f53849a1acec87308423850dccd979fc7a4b74b75a79b19c3b98ec8df38a599db8152f35b503461000e57602036600319011261000e576004356112f9816105ee565b6113016172f2565b61ffff8116906109c4821161135d57600f805461ffff60a01b191660a09290921b61ffff60a01b169190911790556040519081527fcaba16bb74e50491b14ebf4755083b43aaf56a765134681af613a2ef8d732f4f90602090a1005b6040516397d7dcfb60e01b8152600490fd5b503461000e57600036600319011261000e576040517f00000000000000000000000000000000000000000000000000000000000000006001600160a01b03168152602090f35b503461000e57600036600319011261000e5760095460405160089190911c6001600160a01b03168152602090f35b503461000e57600036600319011261000e576020601454604051908152f35b503461000e57602036600319011261000e577fdca612ba3556b7c2603089071be1feb2404df55dcabceee9d5fd852fdb39bc34602060043561144381610a14565b61144b6172f2565b151560ff196009541660ff821617600955604051908152a1005b503461000e57602036600319011261000e57600435611483816109eb565b60018060a01b0316600052600b602052602060ff604060002054166040519015158152f35b503461000e57600080600319360112610858576114c36172f2565b60045460ff8160a01c166003811015611524575b6115125760ff60a01b1916600160a11b176004557f3ff05a45e46337fa1cbf20996d2eeb927280bce099f37252bcca1040609604ec8180a180f35b604051633a76bcd760e11b8152600490fd5b61152c610c43565b6114d7565b9081604091031261000e5790565b503461000e5760a036600319011261000e576001600160401b0360043581811161000e57611571903690600401610e08565b60243582811161000e57611589903690600401610e16565b60443583811161000e576115a1903690600401610607565b9060643594851161000e576115bd61073b953690600401611531565b92608435946115cb866109eb565b61407d565b503461000e57600036600319011261000e57600f546040516001600160a01b039091168152602090f35b50634e487b7160e01b600052604160045260246000fd5b6001600160401b03811161162457604052565b61162c6115fa565b604052565b608081019081106001600160401b0382111761162457604052565b604081019081106001600160401b0382111761162457604052565b606081019081106001600160401b0382111761162457604052565b60c081019081106001600160401b0382111761162457604052565b90601f801991011681019081106001600160401b0382111761162457604052565b6040519060e082018281106001600160401b0382111761162457604052565b6040519061020082018281106001600160401b0382111761162457604052565b6040519061060582611667565b6020906001600160401b038111611727575b601f01601f19160190565b61172f6115fa565b61171c565b9291926117408261170a565b9161174e604051938461169d565b82948184528183011161000e578281602093846000960137010152565b9080601f8301121561000e5781602061178693359101611734565b90565b503461000e57608036600319011261000e576117a66004356105ee565b6001600160401b0360243581811161000e576117c690369060040161176b565b506117cf610634565b5060643581811161000e576117e890369060040161176b565b903033036118b95781516020830190830190836020830192036020811261000e57600160ff6118168461720d565b161461181e57005b60e01361000e5761182e9061720d565b50604083015161183d816109eb565b60608401519061184c826134d6565b60808501519161185b836109eb565b60a08601519461186a866109eb565b60c087015181811161000e57856020611885928a0101613bf4565b9460e088015191821161000e5760206118a39261073b990101613bf4565b946001600160a01b039081169381169216616b7b565b606460405162461bcd60e51b815260206004820152602060248201527f4c7a52656365697665723a2063616c6c6572206d757374206265204c7a4170706044820152fd5b503461000e57600036600319011261000e57602060ff600954166040519015158152f35b503461000e57600036600319011261000e57602061ffff600f5460a01c16604051908152f35b503461000e57600036600319011261000e57600454600160ff8260a01c1661196e81610c5a565b036119eb576001600160a01b031633036119d957600380546001600160a01b03191633908117909155600480546001600160a81b03191690556040519081527f3edd90e7770f06fafde38004653b33870066c33bfc923ff6102acd601f85dfbc908060208101610996565b6040516357ee7dc960e11b8152600490fd5b604051632f27941360e11b8152600490fd5b503461000e57602036600319011261000e57600435611a1b816109eb565b60018060a01b0316600052600c602052602060ff604060002054166040519015158152f35b90600182811c92168015611a70575b6020831014611a5a57565b634e487b7160e01b600052602260045260246000fd5b91607f1691611a4f565b9060009291805491611a8b83611a40565b918282526001938481169081600014611aed5750600114611aad575b50505050565b90919394506000526020928360002092846000945b838610611ad9575050505001019038808080611aa7565b805485870183015294019385908201611ac2565b9294505050602093945060ff191683830152151560051b01019038808080611aa7565b90610605611b249260405193848092611a7a565b038361169d565b60005b838110611b3e5750506000910152565b8181015183820152602001611b2e565b90602091611b6781518092818552858086019101611b2b565b601f01601f1916010190565b906020611786928181520190611b4e565b503461000e57602036600319011261000e5761ffff600435611ba5816105ee565b166000526005602052611081610d41611bc8604060002060405192838092611a7a565b604051918291602083526020830190611b4e565b503461000e57600036600319011261000e576004546040516001600160a01b039091168152602090f35b503461000e57611c1536610916565b80156109d95760005b818110611c5857507f0560c6093fba8a508d0e6ea3b4d7260d7afa9b152731f03a2d05dfe39b0ec42591610996604051928392338461405b565b33600052600190611ca760208381526040908160002090611c7a85888a614043565b35600052526000207f53849a1acec87308423850dccd979fc7a4b74b75a79b19c3b98ec8df38a599db9055565b01611c1e565b503461000e57602036600319011261000e57600435611ccb816109eb565b60018060a01b0316600052600a6020526020604060002054604051908152f35b503461000e5760c036600319011261000e576001600160401b0360243581811161000e57611d1d903690600401610e08565b9060443590811161000e57611d36903690600401610e16565b60643591611d43836109eb565b608435611d4f816109eb565b303303611d7a5761108193611d6a9360a4359360043561546d565b6040519081529081906020820190565b60405163a78d09b960e01b8152600490fd5b503461000e57600036600319011261000e576010546040516001600160a01b039091168152602090f35b503461000e57604036600319011261000e576020611dd8602435600435613694565b604051908152f35b503461000e5760008060031936011261085857611dfb6172f2565b6012544614611ee857601960f91b6020604051611e178161164c565b600181520152611eb860405160208101907f8b73c3c69bb8fe3d512ecc4cf759cc79239f7b179b0ffacaa9a75d522b39400f82527f9e6bc51ef68b436657c5fe7a273ea9121a02b234cc81ad1e04892649c9168c6a60408201527fad7c5bef027816a800da1736444fb58a807ef4c9603b7848673f7e3a68eb14a560608201524660808201523060a082015260a08152611eb081611682565b519020601555565b611ec146601255565b7f5b2d1f36cd3ec425baab07b99853532e2ba6387a472ddbff437c5cc96f2f20ca8180a180f35b60405163a69915e560e01b8152600490fd5b503461000e57604036600319011261000e576020611f4d600435611f1d816105ee565b61ffff60243591611f2d836105ee565b166000526006835260406000209061ffff16600052602052604060002090565b54604051908152f35b503461000e57600036600319011261000e576003546040516001600160a01b039091168152602090f35b602090611f9a928260405194838680955193849201611b2b565b82019081520301902090565b503461000e57606036600319011261000e57600435611fc4816105ee565b602435906001600160401b03821161000e5761ffff611fea611fff93369060040161176b565b91166000526008602052604060002090611f80565b6044356000526020526020604060002054604051908152f35b6001600160e01b031981160361000e57565b503461000e5760c036600319011261000e57600435612048816105ee565b60243590612055826105ee565b60443591612062836105ee565b6064359261206f84612018565b60843561207b81610a14565b60a43590612088826109eb565b6120906172f2565b61ffff808416818616818111928315612272575b50508115612266575b50612254576001600160e01b0319861615612242576040516345b2b38160e01b81526020816004816001600160a01b0387165afa908115612235575b600091612207575b50156121f5577f5290475107686ff8d28cd104943b127d453b23622ac55346373fa25c0c8957a2956109969361218c6121286116be565b6001815261ffff8916602082015261ffff8816604082015261ffff831660608201526001600160e01b03198416608082015284151560a08201526001600160a01b03861660c0820152612187600d54600052600e602052604060002090565b616a0e565b600d54956121a161219c88616b19565b600d55565b6040805197885261ffff98891660208901529088169087015290951660608501526001600160e01b0319909416608084015292151560a08301526001600160a01b0390921660c082015290819060e0820190565b60405163ef8c37d760e01b8152600490fd5b612228915060203d811161222e575b612220818361169d565b81019061508d565b386120f1565b503d612216565b61223d613d57565b6120e9565b604051636168384960e11b8152600490fd5b60405163b704b7c160e01b8152600490fd5b6101f4915011386120ad565b881611915038806120a4565b503461000e57600036600319011261000e576007546040516001600160a01b039091168152602090f35b503461000e57602036600319011261000e576004356122c56172f2565b6108fc81106122ff576020817ffc3a20d07f3d5bcc0b01a52011f630765611323fa9afa69f63ba2aa19f7364b692601655604051908152a1005b6040516356b68a6b60e11b8152600490fd5b503461000e57600036600319011261000e576020601254604051908152f35b503461000e5760c036600319011261000e5760043561234e816109eb565b60243561235a816109eb565b60643590612367826105ee565b608435612373816105ee565b60a435926001600160401b03841161000e57602094612399611dd895369060040161176b565b9360443591615109565b503461000e57602036600319011261000e5761ffff6004356123c4816105ee565b166000526005602052610d416123e4604060002060405192838092611a7a565b80511561240e57612402816123fc6110819351613ec6565b906170a1565b60405191829182611b73565b60405162461bcd60e51b815260206004820152601d60248201527f4c7a4170703a206e6f20747275737465642070617468207265636f72640000006044820152606490fd5b503461000e57602036600319011261000e577fa92d85531a006d07fd0df4c61259b6dc18e4f492857e2454e5a20ee5e55cddcc6020600435612494816109eb565b61249c6172f2565b60098054610100600160a81b031916600883901b610100600160a81b03161790556040516001600160a01b039091168152a1005b503461000e57602036600319011261000e576004356124ee816109eb565b60018060a01b031660005260006020526040806000206001815491015482519182526020820152f35b503461000e5761252636610cd0565b91906125306172f2565b60405191602084838286013761255b6034858781013060601b8582015203601481018752018561169d565b60009361ffff831685526005825260408520918151916001600160401b03831161269b575b6125948361258e8654611a40565b86616fd0565b81601f8411600114612605575091806125f494928899947f8c0400cfe2d1199b1a725c78960bcc2a344d869b80590d0f2bd005db15a572ce99926125fa575b50508160011b916000199060031b1c19161790555b60405193849384616fb5565b0390a180f35b0151905038806125d3565b9190601f19841661261b86600052602060002090565b9389905b8282106126835750509260019285927f8c0400cfe2d1199b1a725c78960bcc2a344d869b80590d0f2bd005db15a572ce9a9b966125f498961061266a575b505050811b0190556125e8565b015160001960f88460031b161c1916905538808061265d565b8060018697829497870151815501960194019061261f565b6126a36115fa565b612580565b503461000e5760c036600319011261000e576126c56004356105ee565b6001600160401b0360243581811161000e576126e590369060040161176b565b506126f16064356109eb565b60a43590811161000e5761270c61073b91369060040161176b565b60843561644f565b503461000e57600036600319011261000e576040517f00000000000000000000000000000000000000000000000000000000000000006001600160a01b03168152602090f35b503461000e57604036600319011261000e57600435612778816109eb565b6009546024359060081c6001600160a01b031633036128035761271081116127f1576001600160a01b03919091166000818152600a602090815260409182902084905581519283528201929092527fa16126d9473196242b0784325b30642b89f34442dd178a852f5b88ee483a30d89181908101610996565b604051632242dac960e01b8152600490fd5b604051639f63004360e01b8152600490fd5b503461000e57608036600319011261000e576001600160401b0360043581811161000e57612847903690600401610e08565b9060243590811161000e5760609161286661287d923690600401610e16565b9060643591612874836109eb565b60443591614bfc565b9060405192835260208301526040820152f35b503461000e57602036600319011261000e576128aa6172f2565b600435601355005b503461000e57600036600319011261000e576040517f00000000000000000000000000000000000000000000000000000000000000006001600160a01b03168152602090f35b503461000e57602036600319011261000e577fa7014d98341b07b23615cb6b4da7cca2a381932b46fb39ca4b8c3875c53aa7646020600435612939816109eb565b6129416172f2565b601080546001600160a01b0319166001600160a01b03929092169182179055604051908152a1005b503461000e57600036600319011261000e576020601354604051908152f35b503461000e57602036600319011261000e577f5db758e995a17ec1ad84bdef7e8c3293a0bd6179bcce400dff5d4c3d87db726b60206004356129c9816109eb565b6129d16172f2565b600780546001600160a01b0319166001600160a01b03929092169182179055604051908152a1005b503461000e57602036600319011261000e57600435600052600e60205260e06040600020546040519060ff81161515825261ffff808260081c166020840152808260181c1660408401528160281c16606083015263ffffffff831b8160a81b16608083015260ff8160581c16151560a083015260601c60c0820152f35b5060c036600319011261000e576001600160401b0360243581811161000e57612aa3903690600401610e08565b60443582811161000e57612abb903690600401610e16565b60643583811161000e57612ad3903690600401610607565b9060843594851161000e57612aef61073b953690600401611531565b92612af86109fc565b946004356142ac565b503461000e57602036600319011261000e57600435612b1f816109eb565b612b276172f2565b60045460ff8160a01c166003811015612ba3575b611512576001600160a81b0319166001600160a01b03821617600160a01b176004557fb86c75c9bffca616b2d314cc914f7c3f1d174255b16b941c3f3ededee276d5ef9061099690604080513381526001600160a01b03909216602083015290918291820190565b612bab610c43565b612b3b565b5060e036600319011261000e576001600160401b0360243581811161000e57612bdd9036906004016108e6565b60443583811161000e57612bf59036906004016108e6565b9060643585811161000e57612c0e9036906004016108e6565b9060843596871161000e57612c2a61073b9736906004016108e6565b949093612c356109fc565b96612c3e610a1e565b98600435614391565b503461000e57608036600319011261000e57600435612c65816105ee565b602435612c71816105ee565b6064356001600160401b03811161000e57612c90903690600401610607565b9092612c9a6172f2565b7f00000000000000000000000000000000000000000000000000000000000000006001600160a01b031690813b1561000e5760008094612d11604051978896879586946332fb62e760e21b865261ffff8092166004870152166024850152604435604485015260806064850152608484019161392e565b03925af18015612d35575b612d2257005b80612d2f61073b92611611565b80610b8a565b612d3d613d57565b612d1c565b50608036600319011261000e57600435612d5b816105ee565b6001600160401b0360243581811161000e57612d7b90369060040161176b565b612d83610634565b9160643590811161000e57612d9c903690600401610607565b919093612e03612ddf85612dc7612dc18561ffff166000526008602052604060002090565b86611f80565b906001600160401b0316600052602052604060002090565b54612deb81151561721b565b612df6368689611734565b6020815191012014617267565b600094859384612e2e87612dc7612e288761ffff166000526008602052604060002090565b88611f80565b55303b15612e8457612e55916040519687958695633356ae4560e11b8752600487016172b3565b038183305af18015612e77575b612e6a575080f35b80612d2f61084492611611565b612e7f613d57565b612e62565b8480fd5b503461000e57608036600319011261000e57600435602435612ea981610a14565b60443591612eb6836105ee565b60643592612ec3846105ee565b612ecb6172f2565b600d5482101561300557612f01612efa612eef84600052600e602052604060002090565b5460281c61ffff1690565b61ffff1690565b61ffff90818616908111918215612ff9575b5050612254577f3b25bf77fa688236b850bf89c87e353098688237aa18dc42593aff0f6387aea99361099691612f6885612f5786600052600e602052604060002090565b9060ff801983541691151516179055565b612f9881612f8086600052600e602052604060002090565b9062ffff0082549160081b169062ffff001916179055565b612fcc82612fb086600052600e602052604060002090565b9064ffff00000082549160181b169064ffff0000001916179055565b6040519485948592909493606092608085019685521515602085015261ffff809216604085015216910152565b83161190503880612f13565b60405163bd7056c760e01b8152600490fd5b503461000e57604036600319011261000e577fb738dd6073fae1a7128e3fcc6b4ca6e1356b7232f87cc98f8a2857bcd83dfc4460043561305681610a14565b60243561306281610a14565b600019430143811161310c575b336000908152602081905260409020805492914060801c919060010154936130e9575b6130b7575b506040805133815260208101929092528101919091528060608101610996565b6130c19192613fdc565b908160016130e13360018060a01b03166000526000602052604060002090565b015538613097565b91816130f491613fdc565b33600090815260208190526040902081905591613092565b613114613d64565b61306f565b503461000e57606036600319011261000e57600435613137816105ee565b602435613143816105ee565b6044359161314f6172f2565b82156131ca576109967f9d5c7c0b934da8fefa9c7760c98383778a12dfbfc0c3b3106518f43fb9508ac09361ffff83166000526006602052806131a48560406000209061ffff16600052602052604060002090565b556040519384938460409194939294606082019561ffff80921683521660208201520152565b60405162461bcd60e51b81526020600482015260156024820152744c7a4170703a20696e76616c6964206d696e47617360581b6044820152606490fd5b503461000e57604036600319011261000e57600435613225816109eb565b60018060a01b031660005260026020526040600020602435600052602052602060ff604060002054166040519015158152f35b503461000e5761326736610cd0565b91906132716172f2565b60009161ffff8116835260206005815260408420906001600160401b0386116133a5575b6132a9866132a38454611a40565b84616fd0565b8490601f87116001146133115750946125f4918186977ffa41487ad5d6728f0b19276fa1eddc16558578f5109fc39d2dc33c3230470dab9791613306575b508260011b906000198460031b1c191617905560405193849384616fb5565b9050850135386132e7565b90601f19871661332684600052602060002090565b9287905b82821061338d575050916125f49391887ffa41487ad5d6728f0b19276fa1eddc16558578f5109fc39d2dc33c3230470dab98999410613373575b5050600182811b0190556125e8565b860135600019600385901b60f8161c191690553880613364565b80600185968294968b0135815501950193019061332a565b6133ad6115fa565b613295565b503461000e57602036600319011261000e576133cc6172f2565b600435601455005b503461000e57608036600319011261000e576110816004356133f5816105ee565b60243590613402826105ee565b61340d6044356109eb565b604051633d7b2f6f60e21b815261ffff91821660048201529116602482015230604482015260648035908201526000816084817f00000000000000000000000000000000000000000000000000000000000000006001600160a01b03165afa9081156134aa575b600091613489575b5060405191829182611b73565b6134a4913d8091833e61349c818361169d565b810190615c54565b3861347c565b6134b2613d57565b613474565b503461000e57600036600319011261000e576020601554604051908152f35b6002111561000e57565b3590610605826134d6565b6020906001600160401b038111613504575b60051b0190565b61350c6115fa565b6134fd565b929161351c826134eb565b9161352a604051938461169d565b829481845260208094019160051b810192831161000e57905b8282106135505750505050565b81358152908301908301613543565b9080601f8301121561000e5781602061178693359101613511565b503461000e5760c036600319011261000e57600435613598816109eb565b6024356135a4816134d6565b6044356135b0816109eb565b6064356135bc816109eb565b6001600160401b039160843583811161000e576135dd90369060040161355f565b9260a43590811161000e576135f690369060040161355f565b933033036136075761073b95616b7b565b60405162461bcd60e51b815260206004820152601e60248201527f5f7472616e736665724e46544c7a3a20696e76616c69642063616c6c657200006044820152606490fd5b503461000e57602036600319011261000e5760043561366a816109eb565b6136726172f2565b601180546001600160a01b0319166001600160a01b0392909216919091179055005b90600181036136e957506111686136e37f9661287f7a4aa4867db46a2453ee15bebac4e8fc25667a58718da658f15de643925b6040805160208101958652908101919091529182906060820190565b51902090565b6002810361371f57506111686136e37fa54ab330ea9e1dfccee2b86f3666989e7fbd479704416c757c8de8e820142a08926136c7565b6003810361375557506111686136e37f93390f5d45ede9dea305f16aec86b2472af4f823851637f1b7019ad0775cea49926136c7565b6004810361378b57506111686136e37f9dda2c8358da895e43d574bb15954ce5727b22e923a2d8f28261f297bce42f0b926136c7565b600581036137c157506111686136e37f92dc717124e161262f9d10c7079e7d54dc51271893fba54aa4a0f270fecdcc98926136c7565b600681036137f757506111686136e37fce02aee5a7a35d40d974463c4c6e5534954fb07a7e7bc966fee268a15337bfd8926136c7565b6007810361382d57506111686136e37ff7a65efd167a18f7091b2bb929d687dd94503cf0a43620487055ed7d6b727559926136c7565b6008810361386357506111686136e37fdef24acacad1318b664520f7c10e8bc6d1e7f6f6f7c8b031e70624ceb42266a6926136c7565b6009810361389957506111686136e37f4cb4080dc4e7bae88b4dc4307ad5117fa4f26195998a1b5f40368809d7f4c7f2926136c7565b600a81036138cf57506111686136e37ff8b1f864164d8d6e0b45f1399bd711223117a4ab0b057a9c2d7779e86a7c88db926136c7565b6040516375dec1c560e11b81526004810191909152602490fd5b60021115610c6457565b35611786816134d6565b9035601e198236030181121561000e5701602081359101916001600160401b03821161000e57813603831361000e57565b908060209392818452848401376000828201840152601f01601f1916010190565b9060806139a6611786938035613964816109eb565b6001600160a01b039081168552602082013561397f816109eb565b16602085015261ffff6040820135613996816105ee565b16604085015260608101906138fd565b919092816060820152019161392e565b906139c0826138e9565b52565b9035601e198236030181121561000e5701602081359101916001600160401b03821161000e578160051b3603831361000e57565b81835290916001600160fb1b03831161000e5760209260051b809284830137010190565b61178691613a3181613a2c846134e0565b6139b6565b60208201356020820152604082013560408201526060820135606082015260808201356080820152613a72613a6860a084016134e0565b60a08301906139b6565b613a91613a8160c08401610a09565b6001600160a01b031660c0830152565b613ab0613aa060e08401610a09565b6001600160a01b031660e0830152565b613ad0610100613ac1818501610a09565b6001600160a01b031690830152565b610120808301359082015261014080830135908201526101608083013590820152613b34613b18610180613b06818601866139c3565b909161020080918701528501916139f7565b6101a0613b27818601866139c3565b91858403908601526139f7565b91613b506101c0613b468184016105fa565b61ffff1690840152565b613b606101e091828101906138fd565b92909181850391015261392e565b9091613b856117869360408452604084019061394f565b916020818403910152613a1b565b60405190602082018281106001600160401b03821117613bb7575b60405260008252565b613bbf6115fa565b613bae565b3d15613bef573d90613bd58261170a565b91613be3604051938461169d565b82523d6000602084013e565b606090565b81601f8201121561000e57805191613c0b836134eb565b92613c19604051948561169d565b808452602092838086019260051b82010192831161000e578301905b828210613c43575050505090565b81518152908301908301613c35565b519061060582610a14565b60808183031261000e578051926020820151926001600160401b039384811161000e5781613c8c918501613bf4565b93604084015190811161000e57606091613ca7918501613bf4565b92015161178681610a14565b903590601e198136030182121561000e57018035906001600160401b03821161000e57602001918160051b3603831361000e57565b35611786816109eb565b50634e487b7160e01b600052603260045260246000fd5b5190610605826109eb565b919082604091031261000e5760208251613d2d816109eb565b92015190565b611786939260609260018060a01b0316825260208201528160408201520190610e25565b506040513d6000823e3d90fd5b50634e487b7160e01b600052601160045260246000fd5b9061271091828102928184041490151715613d9257565b610605613d64565b81810292918115918404141715613d9257565b6010546000948594909391613dd2906001600160a01b03165b6001600160a01b031690565b6001600160a01b0393818516613dea575b5050505050565b613e13975083949650926040938451988994859384936370c1092160e01b855260048501613d33565b03915afa8015613eb9575b6000948591613e85575b508093851615600014613e46575060009250505b3880808080613de3565b613e52613e6d91613d7b565b91613e67612efa600f5461ffff9060a01c1690565b90613d9a565b1015613e3c576040516397d7dcfb60e01b8152600490fd5b9050613ea991945060403d8111613eb2575b613ea1818361169d565b810190613d14565b93909338613e28565b503d613e97565b613ec1613d57565b613e1e565b601319810191908211613d9257565b91908203918211613d9257565b906106059492939180600052600e6020526127109061ffff9082613f108360406000205460181c1686613d9a565b049260208601928351928315600014613f48575050505050613f3791816040850152613ed5565b90526001600160a01b039091169052565b613f379693949592916040613f6d926000908152600e602052205460081c1684613d9a565b049281818501808611613fc1575b10613f9e575b5050613f969192604086019384525190613ed5565b905190613ed5565b613f9693508103908111613fb4575b9138613f81565b613fbc613d64565b613fad565b613fc9613d64565b613f7b565b90601f8201809211613d9257565b91908201809211613d9257565b90421190421017613ff657565b637476320f6000526004601cfd5b9060009281188115176140365760051b90815b61402057505050565b601f198083019282010135156140365781614017565b632e0c0f7183526004601cfd5b91908110156140535760051b0190565b61350c613cf2565b6001600160a01b039091168152604060208201819052611786939101916139f7565b949193909294601054600260ff8260a01c16146141755760ff60a01b1916600160a11b1760105560e0840135936140b3856109eb565b6001600160a01b0385166000818152600b602052604090205460ff16156140d9565b1590565b90811561416c575b5061415a5761411961412c93614145986141036140fe3686614187565b616de6565b986101008501996141138b613ce8565b936162d1565b6141266140fe3683614187565b916149ae565b9261413f61413982613ce8565b91613ce8565b926159b6565b6010805460ff60a01b1916600160a01b179055565b604051634f79548760e01b8152600490fd5b905015386140e1565b604051630ddf739360e11b8152600490fd5b91906102008382031261000e5761419c6116dd565b926141a6816134e0565b8452602081013560208501526040810135604085015260608101356060850152608081013560808501526141dc60a082016134e0565b60a08501526141ed60c08201610a09565b60c08501526141fe60e08201610a09565b60e0850152610100614211818301610a09565b908501526101208181013590850152610140808201359085015261016080820135908501526001600160401b03916101808083013584811161000e578261425991850161355f565b908601526101a08083013584811161000e578261427791850161355f565b908601526101c06142898184016105fa565b908601526101e0928383013590811161000e576142a6920161176b565b90830152565b939490929194601054600260ff8260a01c16146141755760ff60a01b1916600160a11b1760105560e0860135946142e2866109eb565b6001600160a01b0386166000908152600b602052604090205460ff161561415a576143586101c061435160409361433961435f97612efa9761ffff9a8e6141136101006143326140fe3685614187565b9201613ce8565b8b6143476140fe368e614187565b918c8b339261546d565b9801614387565b9401614387565b911614614372575b505050614145617555565b61437f92339133906159b6565b388080614367565b35611786816105ee565b93979295909a9998969491601054600260ff8260a01c16146141755760ff60a01b1916600160a11b1760105580158015614653575b6109d95760e09b6143e18d6143db8c8b614666565b01613ce8565b996144046140d56110c98d60018060a01b0316600052600b602052604060002090565b61415a5760009b156145185797969594939291906000985b828a10614445575050505050505050505061443d9394505b339133906159b6565b614145617555565b9091929394959697989b888f898f918a8f938f908b8b8b8f94848d61446992614690565b96846144dd575b50936144b18460019c9a97946144ab826144976144cd9f9c996144c0986144c79f9c6146c1565b976144a56140fe368c614187565b9c6146f1565b93614721565b90886141136101008801613ce8565b339261546d565b90613fdc565b9c0198979695949392919061441c565b97505050505050508093506144f3925001613ce8565b6001600160a01b03808f1691160361415a578f898f928a8f938e958b8b8b8f94614470565b8b9d96949392919d5b82811061453d575050505050505050505061443d939450614434565b848f888b8e858f89614551838b8e94614690565b968361461e575b926145b998926144ab826145738161458796614596996146c1565b996145816140fe368e614187565b996146f1565b90856141136101008a01613ce8565b6040519485928392637c22dc8560e01b84528d602097889733926004880161477f565b03816000305af19182916000936145ef575b50506145db575b50600101614521565b6145e8906001929e613fdc565b9c906145d2565b61460f929350803d10614617575b614607818361169d565b810190614770565b9038806145cb565b503d6145fd565b505050505050509050614632898201613ce8565b6001600160a01b03808f1691160361415a578f90888b8e8589898c97614558565b50808418818318828b18171715156143c6565b9015614683575b8035906101fe198136030182121561000e570190565b61468b613cf2565b61466d565b91908110156146b4575b60051b810135906101fe198136030182121561000e570190565b6146bc613cf2565b61469a565b91908110156146e4575b60051b81013590607e198136030182121561000e570190565b6146ec613cf2565b6146cb565b9190811015614714575b60051b81013590603e198136030182121561000e570190565b61471c613cf2565b6146fb565b9190811015614763575b60051b81013590601e198136030182121561000e5701908135916001600160401b03831161000e57602001823603811361000e579190565b61476b613cf2565b61472b565b9081602091031261000e575190565b926147a260a095936147b09399989799865260c0602087015260c086019061394f565b908482036040860152613a1b565b95600180851b0380921660608401521660808201520152565b9080601f8301121561000e57604051916147e283611667565b82906060810192831161000e57905b8282106147fe5750505090565b81518152602091820191016147f1565b6101008183031261000e578051906001600160401b039182811161000e5783614838918301613bf4565b936020928383015190811161000e5784614853918401613bf4565b9380605f8401121561000e5760405161486b8161164c565b60808401948183871161000e5760408601905b87821061489f575050506148986117869260e092966147c9565b9301613c52565b82809183516148ad816109eb565b81520191019061487e565b916148e2906148d460409396959660608652606086019061394f565b908482036020860152613a1b565b6001600160a01b03909416910152565b9561497a9061496a6149a79761499b976106059d9f9e9c976149559061494561498c996101809f998f60406060928051835260208101516020840152015115156040820152019060018060a01b03169052565b6001600160a01b031660808d0152565b60a08b01526001600160a01b031660c08a0152565b6001600160a01b031660e0880152565b6101e080610100880152860190610e25565b90848203610120860152610e25565b96610140830190610e59565b0190610e8a565b91906149b9816138f3565b6149c2816138e9565b614bea576149d36101008201613ce8565b6001600160a01b038116600090815260016020526040902090929093614a086060840135809690600052602052604060002090565b546001600160a01b03851660009081526020819052604090205460208501351490811591614bad575b8115614b8d575b50614b7b57614a629460405191630fd9bb6960e21b835282806000988993883391600485016148b8565b038183305af18015614b6e575b869087928894898093614b3f575b50509081614a91878b979695948b85616246565b60c0880191614a9f83613ce8565b85858c33614aaf60a08f016138f3565b614ab895616b7b565b60e08901918a614ac784613ce8565b90614ad3918a8a615bb8565b614adb6116fd565b988952602089015215156040880152614af390613ce8565b90614afd90613ce8565b906040519860808a9901359033614b14998b6148f2565b037f9aaa45d6db2ef74ead0751ea9113263d1dec1b50cea05f0ca2002cb8063564a491a16040015190565b93509350975050614b6292503d8091833e614b5a818361169d565b81019061480e565b90979193918838614a7d565b614b76613d57565b614a6f565b604051631782f9fd60e31b8152600490fd5b9050828115159182614ba2575b505038614a38565b141590508238614b9a565b9050614be46110c9614bd18760018060a01b03166000526002602052604060002090565b6040870135600052602052604060002090565b90614a31565b60405163d641ac7b60e01b8152600490fd5b6000948594859491939060018235614c13816134d6565b614c1c816138e9565b14614c275750505050565b9083614c8794985081959750614c3e939650615399565b60e0830135614c4c816109eb565b61010084013590614c5c826109eb565b604088013590614c6b826105ee565b6101c086013592614c7b846105ee565b61016087013591615109565b936000928515614c9c575b5050509190600090565b614ca69350614fb7565b5050388080614c92565b91906001600160fb1b03811161000e5760051b809282370190565b600181526001600160a01b0391821660208201529181166040830152909116606082015260c060808201819052611786939192614d0a91840190611b4e565b9160a0818403910152611b4e565b919082604091031261000e576020825192015190565b92611786949261ffff614d5c9316855260018060a01b0316602085015260a0604085015260a0840190611b4e565b91600060608201526080818403910152611b4e565b916040614d7f818501614387565b936101c084019461ffff614d95612efa88614387565b911614614f9b576060936001614daa826138f3565b614db3816138e9565b14614ee3575b5050838184614e44614df0614deb610707614dd7614e319a9b614387565b61ffff166000526005602052604060002090565b616c8d565b93614e3f6013548551998a978892602084019091605692600160f11b83526002830152600060228301526001600160601b03199060601b1660428201520190565b03601f19810187528661169d565b614387565b614e638351948593849363040a7bb160e41b8552309060048601614d2e565b03817f00000000000000000000000000000000000000000000000000000000000000006001600160a01b03165afa918215614ed6575b600092614ea8575b5050929190565b614ec79250803d10614ecf575b614ebf818361169d565b810190614d18565b503880614ea1565b503d614eb5565b614ede613d57565b614e99565b614e31945080614ef860c0614f949301613ce8565b614f88614f7a614f59614f17614f116101008701613ce8565b97613ce8565b614f25610180870187613cb3565b614f3a8b949294519485926020840191614cb0565b0396614f4e601f199889810186528561169d565b6101a0810190613cb3565b614f6e8b959295519586926020840191614cb0565b0387810185528461169d565b885197889560208701614ccb565b0390810183528261169d565b9238614db9565b5050915050614fa8613b93565b90614fb1613b93565b60009291565b92909192604090614fc9828501614387565b936101c086019461ffff614fdf612efa88614387565b91161461507f576060956001614ff4826138f3565b614ffd816138e9565b14615064575b50508185614e4461501c614deb610707614dd78a614387565b6013548451600160f11b60208201526022810191909152604281019590955260601b6bffffffffffffffffffffffff191660628501529295869390614e3f8560768101614e31565b61507791929650614ef860c08201613ce8565b933880615003565b505050915050614fa8613b93565b9081602091031261000e575161178681610a14565b611786939261ffff60609316825260018060a01b031660208201528160408201520190611b4e565b936150ef614d0a9361ffff61178698969416875260c0602088015260c0870190611b4e565b916040860152600060608601528482036080860152611b4e565b9094926001600160a01b03821691821561538d576001600160a01b0381166000908152600c6020526040902061513e906110c9565b1561522b575061ffff80861691161460001461515e575050505050600090565b6151c4615190946151ec601454956151d06040998a9889519a8b9160208301602291600160f11b825260028201520190565b03906151a4601f19928381018d528c61169d565b8951968791602083016014916001600160601b03199060601b1681520190565b0390810186528561169d565b86516306f7707960e41b815297889687958695600487016150ca565b03915afa91821561521e575b60009261520457505090565b61521a9250803d10614ecf57614ebf818361169d565b5090565b615226613d57565b6151f8565b9250849594915061ffff80831691161415918261536b575b826152ce575b505061525757505050600090565b601154615292936040939091615275906001600160a01b0316613dc6565b91845195869485938493631591f74960e11b8552600485016150a2565b03915afa9081156152c1575b6000916152a9575090565b61521a915060403d8111614ecf57614ebf818361169d565b6152c9613d57565b61529e565b601154615324935060209291906152ed906001600160a01b0316613dc6565b60405163a4b2b31d60e01b81526001600160a01b03909216600483015261ffff909216602482015292839190829081906044820190565b03915afa90811561535e575b600091615340575b508338615249565b615358915060203d811161222e57612220818361169d565b38615338565b615366613d57565b615330565b60115490925061538590613dc6906001600160a01b031681565b151591615243565b50505050505050600090565b6111686117869293604051948593602085016148b8565b156153b757565b60405162461bcd60e51b815260206004820152603a60248201527f4f6d6e695845786368616e67653a20496e73756666696369656e742076616c7560448201527f6520666f722063726f737320636861696e207472616e736665720000000000006064820152608490fd5b1561542957565b606460405162461bcd60e51b815260206004820152602060248201527f4f6d6e695845786368616e67653a2043757272656e6379206d69736d617463686044820152fd5b9192939490600161547d856138f3565b615486816138e9565b03614bea576154cb6154b861549e6101008701613ce8565b6001600160a01b0316600090815260016020526040902090565b6060860135600052602052604060002090565b5460016154f86154de6101008801613ce8565b6001600160a01b0316600090815260208190526040902090565b0154602086013514908115916157fe575b81156157de575b50614b7b57604051630fd9bb6960e21b81529460008680615536338987600485016148b8565b038183305af19283156157d1575b600092600094600096600099600092615791575b5093838361567d88948d9860409f9b6156bf9b7f3ee3de4684413690dee6fff1a0a4f92916a1b97d1c5a83cdf24671844306b2e39f60809f9b9a819f8d8f8c92879f6155b69060608801356155b06101008a01613ce8565b8d616246565b6155c36101c08701614387565b906155d060408701614387565b9061ffff838116908316036156e55750505061566097509061562b929161562560e0870161562061560f613dc6602061560885613ce8565b9a01613ce8565b6001600160a01b0398891614615422565b613ce8565b91615bb8565b61563760c08301613ce8565b9161564a61010061433260a084016138f3565b916156548a613ce8565b166156d6578a92616b7b565b6156686116fd565b93845260608b0135602085015215158e840152565b6001600160a01b0361568e82613ce8565b166156c7575081905b6156a360e08a01613ce8565b916156b060c08b01613ce8565b938e519b8c9b0135928b6148f2565b0390a1015190565b6156d090613ce8565b90615697565b6156df89613ce8565b92616b7b565b9587995086929850615715945061570493509661570d959a9197614bfc565b50819391613fdc565b3410156153b0565b1561573d575050509061573160e0836143db61573895896158a2565b8b8b615bb8565b615660565b615738945061574d908489615399565b9261575a60208901613ce8565b906001600160a01b0361576c8a613ce8565b1661577f576101608b915b013591615d60565b61016061578b8a613ce8565b91615777565b9150965087985083979550819994503d806000833e6157b0818361169d565b81016157bb9161480e565b979c509a50969896979096919591945087615558565b6157d9613d57565b615544565b90508281151591826157f3575b505038615510565b1415905082386157eb565b90506158436110c96158306158166101008901613ce8565b6001600160a01b0316600090815260026020526040902090565b6040880135600052602052604060002090565b90615509565b919261586e611786969461ffff61587c9416855260c0602086015260c0850190611a7a565b908382036040850152611b4e565b6001600160a01b0390931660608201526000608082015280830360a09190910152611b4e565b6101c08201916158bf6158b98435614dd7816105ee565b54611a40565b15615967576158cd91614d71565b92907f00000000000000000000000000000000000000000000000000000000000000006001600160a01b03169061590f614dd761590985614387565b94614387565b93823b1561000e5760009461593b6040519788968795869462c5803160e81b8652339260048701615849565b03925af1801561595a575b61594d5750565b80612d2f61060592611611565b615962613d57565b615946565b60405162461bcd60e51b815260206004820152602160248201527f4c7a53656e643a206465737420636861696e206973206e6f74207472757374656044820152601960fa1b6064820152608490fd5b91939290836159c6575050505050565b613e3c946001600160a01b03808216806159f8575b5050600f546001600160a01b031691506159f29050565b91615acb565b60ff60095416156159db576001600160a01b0383166000908152600a6020526040902061271090615a2a905489613d9a565b049182615a38575b506159db565b91615aa09187949389837f49e92b6b3114f7e128555cd58c568f7c2e0e56fe9b4c46b6125bc308184623b3989b03908111615abe575b991603615aad575b604080516001600160a01b0394851681529490931660208501529183019190915281906060820190565b0390a13880808080615a32565b615ab981848887615acb565b615a76565b615ac6613d64565b615a6e565b919291906001600160a01b038216615b0e5750509061060591601654917f0000000000000000000000000000000000000000000000000000000000000000617582565b813b15615ba6576040516323b872dd60e01b602082019081526001600160a01b039283166024830152949091166044820152606481019290925260009283928390615b5c8160848101611168565b51925af1615b68613bc4565b9015615b9457805180615b79575050565b816020806140d593615b8e950101910161508d565b615b9457565b60405163e560521360e01b8152600490fd5b6040516309ee12d560e01b8152600490fd5b929190602090805180615bf5575b5001519182615bd55750505050565b615bec93602060018060a01b039101511691615acb565b38808080611aa7565b8551615c0c91906001600160a01b03168686615acb565b38615bc6565b81601f8201121561000e578051615c288161170a565b92615c36604051948561169d565b8184526020828401011161000e576117869160208085019101611b2b565b9060208282031261000e5781516001600160401b03811161000e576117869201615c12565b6001600160a01b03918216815261ffff9092166020830152918216604082015260608101929092529182166080820152911660a082015260e060c0820181905261178692910190611b4e565b959194615cfb615d1b959461ffff6117869a9860018060a01b038096168b521660208a01526101008060408b0152890190611b4e565b936060880152166080860152600060a086015284820360c0860152611b4e565b9160e0818403910152611b4e565b91909360a09361ffff6117869796168452600180861b03809316602085015260408401521660608201528160808201520190611b4e565b60408051634f9c1b4d60e11b815261ffff871660048083019190915297600097969295939493909291615daa908981602481305afa908115616198575b8a9161617e575b50616c8d565b6001600160a01b039590927f0000000000000000000000000000000000000000000000000000000000000000918088168884168103615f4a575050889061ffff808316911614159182615f27575b82615e8c575b505015615e5b57601154615e1a906001600160a01b0316613dc6565b95863b15615e575790615e4493929151998a9889978897635fa7a7ff60e01b895216918701615d29565b039134905af1801561595a5761594d5750565b8880fd5b939150915085809750809550809450918315615e82575b1690f1610605575b610605613d57565b6108fc9250615e72565b601154615ee193506020929190615eab906001600160a01b0316613dc6565b8a5163a4b2b31d60e01b81526001600160a01b03909216828f0190815261ffff9093166020840152909384928391829160400190565b03915afa908115615f1a575b8991615efc575b508738615dfe565b615f14915060203d811161222e57612220818361169d565b38615ef4565b615f22613d57565b615eed565b6011549092508790615f41906001600160a01b0316613dc6565b16151591615df8565b969892509a929996615f756110c98d9b97969b60018060a01b0316600052600c602052604060002090565b15616043575061ffff808616911614600014615f9a57505050505050610605936161a5565b61600a979496939598995090615fcc91616016601454825194859160208301602291600160f11b825260028201520190565b03615fdf601f199182810187528661169d565b615fe98d34613ed5565b9783519b8c91602083016014916001600160601b03199060601b1681520190565b039081018b528a61169d565b873b1561603f579061593b939291519a8b998a98899763072830c960e11b895230948901615cc5565b8980fd5b91955061ffff9a9496999a98929880881691161415908161615d575b50806160c6575b156160b557601154616080906001600160a01b0316613dc6565b9561608b8a34613ed5565b94873b1561603f579061593b939291519a8b998a98899763d065a12560e01b895230928901615c79565b9550509150506106059493506161a5565b506011546161199060209087906160e5906001600160a01b0316613dc6565b875163a4b2b31d60e01b81526001600160a01b038816818d0190815261ffff90931660208401529384928391829160400190565b03915afa908115616150575b8991616132575b50616066565b61614a915060203d811161222e57612220818361169d565b3861612c565b616158613d57565b616125565b601154909150616175906001600160a01b0316613dc6565b1615153861605f565b61619291503d808c833e61349c818361169d565b38615da4565b6161a0613d57565b615d9d565b9192916001600160a01b03918083163003616205575060405163a9059cbb60e01b60208201526001600160a01b039094166024850152604484019290925261060592916161ff83606481015b03601f19810185528461169d565b166176d2565b6040516323b872dd60e01b60208201526001600160a01b03918216602482015294166044850152606484019290925261060592916161ff83608481016161f1565b9092901561629657507f53849a1acec87308423850dccd979fc7a4b74b75a79b19c3b98ec8df38a599db915b60018060a01b03166000526001602052604060002090600052602052604060002055565b91616272565b903590601e198136030182121561000e57018035906001600160401b03821161000e57602001918160061b3603831361000e57565b93929190602094858101956162e6878361629c565b809891506162fc575b50505061060594506163da565b600a88116163c1576163109083949361629c565b9335938493926000925b82841061635157505050500361633f576106059461633791613694565b3880806162ef565b60405163c8ac23c360e01b8152600490fd5b91939083955061636381948685616cdd565b013561636e816134d6565b616377816138e9565b6163a257616386858584616cdd565b35600052825260016040600020945b019290918594939261631a565b6163ad858584616cdd565b359060005282526001604060002094616395565b6040516375dec1c560e11b815260048101899052602490fd5b92601254461460001461643d57610605936015549060405190602082019261190160f01b84526022830152604282015260428152608081018181106001600160401b03821117616430575b604052519020617344565b6164386115fa565b616425565b604051636fd794c760e01b8152600490fd5b8151801561666f578260208061646c9361649b96010191016167ab565b610100820180519091906001600160a01b031660405180978192630fd9bb6960e21b8352868860048501616858565b0360009788918183305af1928315616662575b87908889938a9661663e575b5060c08701516001600160a01b0316906164e960a0890151936164dc856138e9565b516001600160a01b031690565b89519094906001600160a01b0316303b1561663a5791616522918d9594936040519788968796633e01704b60e21b8852600488016169b6565b038183305af19081616627575b506165d65750505060e061655491616545613bc4565b5001516001600160a01b031690565b6001600160a01b038181167f0000000000000000000000000000000000000000000000000000000000000000909116036165be575051829182918291906165a590613dc6906001600160a01b031681565b8282156165b5575bf115615e7a57565b506108fc6165ad565b905161060593506001600160a01b0316903090615acb565b61060596506040929550616604906164dc60e06166129497960191309089615625855160018060a01b031690565b92516001600160a01b031690565b9301519230926001600160a01b0316916159b6565b80612d2f61663492611611565b3861652f565b8c80fd5b925050935061665791503d8089833e614b5a818361169d565b5094909291386164ba565b61666a613d57565b6164ae565b505050565b5190610605826105ee565b5190610605826134d6565b91906102008382031261000e5761669f6116dd565b926166a98161667f565b8452602081015160208501526040810151604085015260608101516060850152608081015160808501526166df60a0820161667f565b60a08501526166f060c08201613d09565b60c085015261670160e08201613d09565b60e0850152610100616714818301613d09565b908501526101208082015190850152610140808201519085015261016080820151908501526101809182820151926001600160401b039384811161000e578261675e918501613bf4565b908601526101a08083015184811161000e578261677c918501613bf4565b908601526101c061678e818401616674565b908601526101e0928383015190811161000e576142a69201615c12565b909160608284031261000e5781516001600160401b039081811161000e57830160808186031261000e57604051906167e282611631565b80516167ed816109eb565b825260208101516167fd816109eb565b60208301526040810151616810816105ee565b604083015260608101519083821161000e5761682e91879101615c12565b606082015293602084015191821161000e5761685160409161178693860161668a565b9301613d09565b9392906169a3610605936168a76060604094818a5260018060a01b0380825116838c015260208201511660808b015261ffff868201511660a08b01520151608060c08a015260e0890190611b4e565b9087820360208901526168bb8282516139b6565b60208101516020830152838101518483015260608101516060830152608081015160808301526168f360a082015160a08401906139b6565b60c0818101516001600160a01b03169083015260e0818101516001600160a01b031690830152610100818101516001600160a01b03169083015261012080820151908301526101408082015190830152610160808201519083015261698061696c61018080840151906102008091870152850190610e25565b6101a0808401519085830390860152610e25565b6101c08281015161ffff1690840152916101e08092015191818403910152611b4e565b6001600160a01b03909216940193909352565b6001600160a01b0391821681526117869690959094616a00949193909183916169de816138e9565b602089015216604087015216606085015260c0608085015260c0840190610e25565b9160a0818403910152610e25565b616af460c061060593616a3081511515859060ff801983541691151516179055565b6020810151845462ffff00191660089190911b62ffff0016178455616a7161ffff6040830151865464ffff0000001916911660181b64ffff00000016178555565b606081015166ffff000000000085549160281b168066ffff00000000001983161786556affffffff00000000000000608084015160a81c16916affffffffffff0000000000191617178455616ae6616acc60a0830151151590565b855460ff60581b191690151560581b60ff60581b16178555565b01516001600160a01b031690565b81546001600160601b031660609190911b6bffffffffffffffffffffffff1916179055565b6001906000198114616b29570190565b616b31613d64565b0190565b6001600160a01b0391821681529181166020830152909116604082015260a060608201819052611786939192616b6d91840190610e25565b916080818403910152610e25565b93949190616b88816138e9565b80616be557507f00000000000000000000000000000000000000000000000000000000000000006001600160a01b031691823b1561000e5760009461593b86926040519889978896879563a7bc96d360e01b875260048701616b35565b80616bf16001926138e9565b14616bfd575050505050565b7f00000000000000000000000000000000000000000000000000000000000000006001600160a01b031691823b1561000e57600094616c54869260405198899788968795635052036360e11b875260048701616b35565b03925af18015616c80575b616c6d575b80808080613de3565b80612d2f616c7a92611611565b38616c64565b616c88613d57565b616c5f565b6014815110616ca0576020015160601c90565b60405162461bcd60e51b8152602060048201526015602482015274746f416464726573735f6f75744f66426f756e647360581b6044820152606490fd5b9190811015616cee575b60061b0190565b616cf6613cf2565b616ce7565b969491926101009693999894919961012089019a7f578c458ef0610f67a73705004b9ddc6ab6bcf1764005638471c3801daaa067e78a52616d3b816138e9565b60208a015260408901526060880152608087015260a0860152616d5d816138e9565b60c08501526001600160a01b0391821660e085015216910152565b805160208092019160005b828110616d91575050505090565b835185529381019392810192600101616d83565b6020610605919392936040519481616dc68793518092868087019101611b2b565b8201616dda82518093868085019101611b2b565b0103808552018361169d565b616f52815191616df5836138e9565b602092616f4d84616e4e8185015160408601516060870151608088015160a089015191616e21836138e9565b60c08a01516001600160a01b031660e08b01519094906001600160a01b0316956040519a8b998a01616cfb565b03616e61601f199182810185528461169d565b6101008401518690616f41906001600160a01b03169561012081015190610140810151610160820151610180830151604051616eb081616ea48a82018095616d78565b038a810183528261169d565b519020906101a0840151604051616eda81616ece8b82018095616d78565b038b810183528261169d565b519020926101e0616ef16101c087015161ffff1690565b950151805190890120604080516001600160a01b03909e16998e01998a5260208a0197909752958801526060870152608086015260a085015261ffff1660c084015260e083015285916101000190565b0390810184528361169d565b616da5565b805191012090565b15616f6157565b60405162461bcd60e51b815260206004820152602660248201527f4c7a4170703a20696e76616c696420736f757263652073656e64696e6720636f6044820152651b9d1c9858dd60d21b6064820152608490fd5b60409061ffff6117869593168152816020820152019161392e565b90601f8111616fde57505050565b600091825260208220906020601f850160051c8301941061701a575b601f0160051c01915b82811061700f57505050565b818155600101617003565b9092508290616ffa565b1561702b57565b60405162461bcd60e51b815260206004820152600e60248201526d736c6963655f6f766572666c6f7760901b6044820152606490fd5b1561706857565b60405162461bcd60e51b8152602060048201526011602482015270736c6963655f6f75744f66426f756e647360781b6044820152606490fd5b6170b5826170ae81613fce565b1015617024565b6170c28282511015617061565b816170da575050604051600081526020810160405290565b60405191601f811691821560051b808486010193838501920101905b80841061710e5750508252601f01601f191660405290565b90928351815260208091019301906170f6565b9061714a611786959361ffff6001600160401b0393168452608060208501526080840190611b4e565b931660408201526060818403910152611b4e565b9091303b1561000e57604051633356ae4560e11b8152600081806171888886898960048601617121565b038183305af190816171fe575b50611aa757836171f9917fe6f254030bcb01ffd20558175c13fcaed6d1520be7becee4c961b65f79243b0d955160208301206171ec82612dc76171e68861ffff166000526008602052604060002090565b89611f80565b5560405194859485617121565b0390a1565b61720790611611565b38617195565b519060ff8216820361000e57565b1561722257565b60405162461bcd60e51b815260206004820152601d60248201527f4c7a52656365697665723a206e6f2073746f726564206d6573736167650000006044820152606490fd5b1561726e57565b60405162461bcd60e51b815260206004820152601b60248201527f4c7a52656365697665723a20696e76616c6964207061796c6f616400000000006044820152606490fd5b906172de6117869694959361ffff6001600160401b0393168452608060208501526080840190611b4e565b94166040820152606081850391015261392e565b6003546001600160a01b0316330361730657565b6040516330cd747160e01b8152600490fd5b9081602091031261000e575161178681612018565b60409061178694928152816020820152019161392e565b929091823b61737b57617357929361741b565b6001600160a01b039081169116146106055760405163d1085d1b60e01b8152600490fd5b906173a192602092604051809581948293630b135d3f60e11b998a85526004850161732d565b03916001600160a01b03165afa90811561740e575b6000916173e0575b506001600160e01b031916146106055760405163f6cd0e2f60e01b8152600490fd5b617401915060203d8111617407575b6173f9818361169d565b810190617318565b386173be565b503d6173ef565b617416613d57565b6173b6565b9091604181036175125750604082013560001a91602081013590355b7f7fffffffffffffffffffffffffffffff5d576e7357a4501ddfe92f46681b20a082116175005760ff8416601b81141590816174f4575b506174d9576040805193845260ff9490941660208085019190915293830152606082015260008080529060809060015afa156174cc575b600051906001600160a01b038216156174ba57565b60405163f05a20c760e01b8152600490fd5b6174d4613d57565b6174a5565b60405163105e24e960e21b815260ff85166004820152602490fd5b601c915014153861746e565b6040516360c2892960e11b8152600490fd5b6040810361753b5750602082013560ff81901c601b01926001600160ff1b039091169035617437565b60405163d42b4bbd60e01b81526004810191909152602490fd5b47600181116175615750565b600080808093811901335af11561757457565b6307246cf46000526004601cfd5b617596828495600080809781948294f11590565b6175a05750505050565b6001600160a01b031691823b1561085857916176109391602093604051630d0e30db60e41b8152818160048188885af18015617666575b617653575b5060405163a9059cbb60e01b81526001600160a01b0390921660048301526024820193909352938492839182906044820190565b03925af18015617646575b617628575b808080611aa7565b61763f9060203d811161222e57612220818361169d565b5038617620565b61764e613d57565b61761b565b80612d2f61766092611611565b386175dc565b61766e613d57565b6175d7565b1561767a57565b60405162461bcd60e51b815260206004820152602a60248201527f5361666545524332303a204552433230206f7065726174696f6e20646964206e6044820152691bdd081cdd58d8d9595960b21b6064820152608490fd5b6040516001600160a01b0391909116916176eb8261164c565b6020928383527f5361666545524332303a206c6f772d6c6576656c2063616c6c206661696c656484840152803b15617762576000828192828761773d9796519301915af1617737613bc4565b906177a7565b8051908161774a57505050565b826106059361775d93830101910161508d565b617673565b60405162461bcd60e51b815260048101859052601d60248201527f416464726573733a2063616c6c20746f206e6f6e2d636f6e74726163740000006044820152606490fd5b909190156177b3575090565b8151156177c35750805190602001fd5b60405162461bcd60e51b8152602060048201529081906111e9906024830190611b4e56fea2646970667358221220b41615e7f0b5f96048352612abbd64991a67ad6428547f063a8db1ab8decf05b64736f6c63430008110033",
    "linkReferences": {}
  },
  "methodIdentifiers": {
    "MAGIC_VALUE_ORDER_NONCE_EXECUTED()": "463357ec",
    "WETH()": "ad5c4648",
    "_executeStrategyForTakerOrder((address,address,uint16,bytes),(uint8,uint256,uint256,uint256,uint256,uint8,address,address,address,uint256,uint256,uint256,uint256[],uint256[],uint16,bytes),address)": "3f66eda4",
    "_getCrossChainCurrencyFee(address,address,uint256,uint16,uint16,bytes)": "9e4b4b75",
    "addStrategy(uint16,uint16,uint16,bytes4,bool,address)": "91be1360",
    "affiliateController()": "4cbac9dc",
    "affiliateRates(address)": "7a7d8851",
    "cancelOrderNonces(uint256[])": "79ed31d4",
    "cancelOwnershipTransfer()": "23452b9c",
    "cancelSubsetNonces(uint256[])": "134849a6",
    "chainId()": "9a8a0592",
    "confirmOwnershipRenouncement()": "3e567539",
    "confirmOwnershipTransfer()": "7200b829",
    "creatorFeeManager()": "838b8f5c",
    "domainSeparator()": "f698da25",
    "executeMultipleTakerBids(uint256,(address,address,uint16,bytes)[],(uint8,uint256,uint256,uint256,uint256,uint8,address,address,address,uint256,uint256,uint256,uint256[],uint256[],uint16,bytes)[],bytes[],(bytes32,(bytes32,uint8)[])[],address,bool)": "c6fcfed0",
    "executeTakerAsk((address,address,uint16,bytes),(uint8,uint256,uint256,uint256,uint256,uint8,address,address,address,uint256,uint256,uint256,uint256[],uint256[],uint16,bytes),bytes,(bytes32,(bytes32,uint8)[]),address)": "62d7b6ab",
    "executeTakerBid(uint256,(address,address,uint16,bytes),(uint8,uint256,uint256,uint256,uint256,uint8,address,address,address,uint256,uint256,uint256,uint256[],uint256[],uint16,bytes),bytes,(bytes32,(bytes32,uint8)[]),address)": "c0a23138",
    "failedMessages(uint16,bytes,uint256)": "8ee74912",
    "forceResumeReceive(uint16,bytes)": "42d65a8d",
    "gasForLzReceive()": "b6819822",
    "gasForOmniLzReceive()": "51039b4e",
    "getConfig(uint16,uint16,address,uint256)": "f5ecbdbc",
    "getLzFees((address,address,uint16,bytes),(uint8,uint256,uint256,uint256,uint256,uint8,address,address,address,uint256,uint256,uint256,uint256[],uint256[],uint16,bytes),uint256,address)": "ae9d5bd7",
    "getTrustedRemoteAddress(uint16)": "9f38369a",
    "hashBatchOrder(bytes32,uint256)": "86c07642",
    "incrementBidAskNonces(bool,bool)": "d5b010f5",
    "initiateOwnershipRenouncement()": "5b6ac011",
    "initiateOwnershipTransfer(address)": "c0b6f561",
    "isAffiliateProgramActive()": "67d9dd79",
    "isCurrencyAllowed(address)": "5a195d19",
    "isCurrencyOmni(address)": "7730d51b",
    "isOmniCurrency(address)": "748644c3",
    "isTrustedRemote(uint16,bytes)": "3d8b38f6",
    "lzEndpoint()": "b353aaa7",
    "lzReceive(uint16,bytes,uint64,bytes)": "001d3567",
    "maxCreatorFeeBp()": "6e90c014",
    "minDstGasLookup(uint16,uint16)": "8cfd8f5c",
    "nonblockingLzReceive(uint16,bytes,uint64,bytes)": "66ad5c8a",
    "owner()": "8da5cb5b",
    "ownershipStatus()": "2bb5a9e6",
    "potentialOwner()": "7762df25",
    "precrime()": "950c8a74",
    "protocolFeeRecipient()": "64df049e",
    "restrictedExecuteTakerBid(uint256,(address,address,uint16,bytes),(uint8,uint256,uint256,uint256,uint256,uint8,address,address,address,uint256,uint256,uint256,uint256[],uint256[],uint16,bytes),address,address,bytes32)": "7c22dc85",
    "retryMessage(uint16,bytes,uint64,bytes)": "d1deba1f",
    "setConfig(uint16,uint16,uint256,bytes)": "cbed8b9c",
    "setGasForLzReceive(uint256)": "b20dea75",
    "setGasForOmniLZReceive(uint256)": "f41b0282",
    "setMinDstGas(uint16,uint16,uint256)": "df2a5b3b",
    "setPrecrime(address)": "baf3292d",
    "setReceiveVersion(uint16)": "10ddb137",
    "setSendVersion(uint16)": "07e0db17",
    "setStargatePoolManager(address)": "fa99018d",
    "setTrustedRemote(uint16,bytes)": "eb8d72b7",
    "setTrustedRemoteAddress(uint16,bytes)": "a6c3d165",
    "sgReceive(uint16,bytes,uint256,address,uint256,bytes)": "ab8236f3",
    "stargatePoolManager()": "3d25e561",
    "strategyInfo(uint256)": "bb91c339",
    "transferManager()": "46ea2552",
    "transferNFTLz(address,uint8,address,address,uint256[],uint256[])": "f805c12c",
    "trustedRemoteLookup(uint16)": "7533d788",
    "updateAffiliateController(address)": "a02bab57",
    "updateAffiliateProgramStatus(bool)": "54878876",
    "updateAffiliateRate(address,uint256)": "ae1cce5a",
    "updateCreatorFeeManager(address)": "b647a404",
    "updateCurrencyStatus(address,bool)": "1d3c4268",
    "updateDomainSeparator()": "89ccfe89",
    "updateETHGasLimitForTransfer(uint256)": "974e7c9f",
    "updateMaxCreatorFeeBp(uint16)": "46b625bc",
    "updateProtocolFeeRecipient(address)": "1df47f80",
    "updateStrategy(uint256,bool,uint16,uint16)": "d5a06adf",
    "userBidAskNonces(address)": "a39bf29f",
    "userOrderNonce(address,uint256)": "20cd05c7",
    "userSubsetNonce(address,uint256)": "ea179b76"
  },
  "id": 11
}