{
  "abi": [
    {
      "inputs": [
        {
          "internalType": "address",
          "name": "_endpoint",
          "type": "address"
        },
        {
          "internalType": "address",
          "name": "_owner",
          "type": "address"
        },
        {
          "internalType": "address",
          "name": "_protocolFeeRecipient",
          "type": "address"
        },
        {
          "internalType": "address",
          "name": "_transferManager",
          "type": "address"
        },
        {
          "internalType": "address",
          "name": "_weth",
          "type": "address"
        }
      ],
      "stateMutability": "nonpayable",
      "type": "constructor"
    },
    {
      "inputs": [],
      "name": "CallerInvalid",
      "type": "error"
    },
    {
      "inputs": [],
      "name": "ChainIdInvalid",
      "type": "error"
    },
    {
      "inputs": [],
      "name": "CreatorFeeBpTooHigh",
      "type": "error"
    },
    {
      "inputs": [],
      "name": "CurrencyInvalid",
      "type": "error"
    },
    {
      "inputs": [],
      "name": "ERC20TransferFromFail",
      "type": "error"
    },
    {
      "inputs": [],
      "name": "LengthsInvalid",
      "type": "error"
    },
    {
      "inputs": [],
      "name": "MerkleProofInvalid",
      "type": "error"
    },
    {
      "inputs": [
        {
          "internalType": "uint256",
          "name": "length",
          "type": "uint256"
        }
      ],
      "name": "MerkleProofTooLarge",
      "type": "error"
    },
    {
      "inputs": [],
      "name": "NewGasLimitETHTransferTooLow",
      "type": "error"
    },
    {
      "inputs": [],
      "name": "NewProtocolFeeRecipientCannotBeNullAddress",
      "type": "error"
    },
    {
      "inputs": [],
      "name": "NoOngoingTransferInProgress",
      "type": "error"
    },
    {
      "inputs": [],
      "name": "NoSelectorForStrategy",
      "type": "error"
    },
    {
      "inputs": [],
      "name": "NoncesInvalid",
      "type": "error"
    },
    {
      "inputs": [],
      "name": "NotAContract",
      "type": "error"
    },
    {
      "inputs": [],
      "name": "NotAffiliateController",
      "type": "error"
    },
    {
      "inputs": [],
      "name": "NotOwner",
      "type": "error"
    },
    {
      "inputs": [],
      "name": "NotV2Strategy",
      "type": "error"
    },
    {
      "inputs": [],
      "name": "NullSignerAddress",
      "type": "error"
    },
    {
      "inputs": [],
      "name": "OutsideOfTimeRange",
      "type": "error"
    },
    {
      "inputs": [],
      "name": "PercentageTooHigh",
      "type": "error"
    },
    {
      "inputs": [],
      "name": "QuoteTypeInvalid",
      "type": "error"
    },
    {
      "inputs": [],
      "name": "ReentrancyFail",
      "type": "error"
    },
    {
      "inputs": [],
      "name": "RenouncementNotInProgress",
      "type": "error"
    },
    {
      "inputs": [],
      "name": "SameDomainSeparator",
      "type": "error"
    },
    {
      "inputs": [],
      "name": "SignatureEOAInvalid",
      "type": "error"
    },
    {
      "inputs": [],
      "name": "SignatureERC1271Invalid",
      "type": "error"
    },
    {
      "inputs": [
        {
          "internalType": "uint256",
          "name": "length",
          "type": "uint256"
        }
      ],
      "name": "SignatureLengthInvalid",
      "type": "error"
    },
    {
      "inputs": [],
      "name": "SignatureParameterSInvalid",
      "type": "error"
    },
    {
      "inputs": [
        {
          "internalType": "uint8",
          "name": "v",
          "type": "uint8"
        }
      ],
      "name": "SignatureParameterVInvalid",
      "type": "error"
    },
    {
      "inputs": [],
      "name": "StrategyHasNoSelector",
      "type": "error"
    },
    {
      "inputs": [
        {
          "internalType": "uint256",
          "name": "strategyId",
          "type": "uint256"
        }
      ],
      "name": "StrategyNotAvailable",
      "type": "error"
    },
    {
      "inputs": [],
      "name": "StrategyNotUsed",
      "type": "error"
    },
    {
      "inputs": [],
      "name": "StrategyProtocolFeeTooHigh",
      "type": "error"
    },
    {
      "inputs": [],
      "name": "TransferAlreadyInProgress",
      "type": "error"
    },
    {
      "inputs": [],
      "name": "TransferNotInProgress",
      "type": "error"
    },
    {
      "inputs": [],
      "name": "WrongPotentialOwner",
      "type": "error"
    },
    {
      "anonymous": false,
      "inputs": [
        {
          "indexed": false,
          "internalType": "address",
          "name": "affiliate",
          "type": "address"
        },
        {
          "indexed": false,
          "internalType": "address",
          "name": "currency",
          "type": "address"
        },
        {
          "indexed": false,
          "internalType": "uint256",
          "name": "affiliateFee",
          "type": "uint256"
        }
      ],
      "name": "AffiliatePayment",
      "type": "event"
    },
    {
      "anonymous": false,
      "inputs": [],
      "name": "CancelOwnershipTransfer",
      "type": "event"
    },
    {
      "anonymous": false,
      "inputs": [
        {
          "indexed": false,
          "internalType": "address",
          "name": "currency",
          "type": "address"
        },
        {
          "indexed": false,
          "internalType": "bool",
          "name": "isAllowed",
          "type": "bool"
        }
      ],
      "name": "CurrencyStatusUpdated",
      "type": "event"
    },
    {
      "anonymous": false,
      "inputs": [],
      "name": "InitiateOwnershipRenouncement",
      "type": "event"
    },
    {
      "anonymous": false,
      "inputs": [
        {
          "indexed": false,
          "internalType": "address",
          "name": "previousOwner",
          "type": "address"
        },
        {
          "indexed": false,
          "internalType": "address",
          "name": "potentialOwner",
          "type": "address"
        }
      ],
      "name": "InitiateOwnershipTransfer",
      "type": "event"
    },
    {
      "anonymous": false,
      "inputs": [
        {
          "indexed": false,
          "internalType": "uint16",
          "name": "_srcChainId",
          "type": "uint16"
        },
        {
          "indexed": false,
          "internalType": "bytes",
          "name": "_srcAddress",
          "type": "bytes"
        },
        {
          "indexed": false,
          "internalType": "uint64",
          "name": "_nonce",
          "type": "uint64"
        },
        {
          "indexed": false,
          "internalType": "bytes",
          "name": "_payload",
          "type": "bytes"
        }
      ],
      "name": "MessageFailed",
      "type": "event"
    },
    {
      "anonymous": false,
      "inputs": [
        {
          "indexed": false,
          "internalType": "address",
          "name": "affiliateController",
          "type": "address"
        }
      ],
      "name": "NewAffiliateController",
      "type": "event"
    },
    {
      "anonymous": false,
      "inputs": [
        {
          "indexed": false,
          "internalType": "bool",
          "name": "isActive",
          "type": "bool"
        }
      ],
      "name": "NewAffiliateProgramStatus",
      "type": "event"
    },
    {
      "anonymous": false,
      "inputs": [
        {
          "indexed": false,
          "internalType": "address",
          "name": "affiliate",
          "type": "address"
        },
        {
          "indexed": false,
          "internalType": "uint256",
          "name": "rate",
          "type": "uint256"
        }
      ],
      "name": "NewAffiliateRate",
      "type": "event"
    },
    {
      "anonymous": false,
      "inputs": [
        {
          "indexed": false,
          "internalType": "address",
          "name": "user",
          "type": "address"
        },
        {
          "indexed": false,
          "internalType": "uint256",
          "name": "bidNonce",
          "type": "uint256"
        },
        {
          "indexed": false,
          "internalType": "uint256",
          "name": "askNonce",
          "type": "uint256"
        }
      ],
      "name": "NewBidAskNonces",
      "type": "event"
    },
    {
      "anonymous": false,
      "inputs": [
        {
          "indexed": false,
          "internalType": "address",
          "name": "creatorFeeManager",
          "type": "address"
        }
      ],
      "name": "NewCreatorFeeManager",
      "type": "event"
    },
    {
      "anonymous": false,
      "inputs": [],
      "name": "NewDomainSeparator",
      "type": "event"
    },
    {
      "anonymous": false,
      "inputs": [
        {
          "indexed": false,
          "internalType": "uint256",
          "name": "gasLimitETHTransfer",
          "type": "uint256"
        }
      ],
      "name": "NewGasLimitETHTransfer",
      "type": "event"
    },
    {
      "anonymous": false,
      "inputs": [
        {
          "indexed": false,
          "internalType": "uint256",
          "name": "maxCreatorFeeBp",
          "type": "uint256"
        }
      ],
      "name": "NewMaxCreatorFeeBp",
      "type": "event"
    },
    {
      "anonymous": false,
      "inputs": [
        {
          "indexed": false,
          "internalType": "address",
          "name": "newOwner",
          "type": "address"
        }
      ],
      "name": "NewOwner",
      "type": "event"
    },
    {
      "anonymous": false,
      "inputs": [
        {
          "indexed": false,
          "internalType": "address",
          "name": "protocolFeeRecipient",
          "type": "address"
        }
      ],
      "name": "NewProtocolFeeRecipient",
      "type": "event"
    },
    {
      "anonymous": false,
      "inputs": [
        {
          "indexed": false,
          "internalType": "uint256",
          "name": "strategyId",
          "type": "uint256"
        },
        {
          "indexed": false,
          "internalType": "uint16",
          "name": "standardProtocolFeeBp",
          "type": "uint16"
        },
        {
          "indexed": false,
          "internalType": "uint16",
          "name": "minTotalFeeBp",
          "type": "uint16"
        },
        {
          "indexed": false,
          "internalType": "uint16",
          "name": "maxProtocolFeeBp",
          "type": "uint16"
        },
        {
          "indexed": false,
          "internalType": "bytes4",
          "name": "selector",
          "type": "bytes4"
        },
        {
          "indexed": false,
          "internalType": "bool",
          "name": "isMakerBid",
          "type": "bool"
        },
        {
          "indexed": false,
          "internalType": "address",
          "name": "implementation",
          "type": "address"
        }
      ],
      "name": "NewStrategy",
      "type": "event"
    },
    {
      "anonymous": false,
      "inputs": [
        {
          "indexed": false,
          "internalType": "address",
          "name": "user",
          "type": "address"
        },
        {
          "indexed": false,
          "internalType": "uint256[]",
          "name": "orderNonces",
          "type": "uint256[]"
        }
      ],
      "name": "OrderNoncesCancelled",
      "type": "event"
    },
    {
      "anonymous": false,
      "inputs": [
        {
          "indexed": false,
          "internalType": "uint16",
          "name": "_dstChainId",
          "type": "uint16"
        },
        {
          "indexed": false,
          "internalType": "uint16",
          "name": "_type",
          "type": "uint16"
        },
        {
          "indexed": false,
          "internalType": "uint256",
          "name": "_minDstGas",
          "type": "uint256"
        }
      ],
      "name": "SetMinDstGas",
      "type": "event"
    },
    {
      "anonymous": false,
      "inputs": [
        {
          "indexed": false,
          "internalType": "address",
          "name": "precrime",
          "type": "address"
        }
      ],
      "name": "SetPrecrime",
      "type": "event"
    },
    {
      "anonymous": false,
      "inputs": [
        {
          "indexed": false,
          "internalType": "uint16",
          "name": "_remoteChainId",
          "type": "uint16"
        },
        {
          "indexed": false,
          "internalType": "bytes",
          "name": "_path",
          "type": "bytes"
        }
      ],
      "name": "SetTrustedRemote",
      "type": "event"
    },
    {
      "anonymous": false,
      "inputs": [
        {
          "indexed": false,
          "internalType": "uint16",
          "name": "_remoteChainId",
          "type": "uint16"
        },
        {
          "indexed": false,
          "internalType": "bytes",
          "name": "_remoteAddress",
          "type": "bytes"
        }
      ],
      "name": "SetTrustedRemoteAddress",
      "type": "event"
    },
    {
      "anonymous": false,
      "inputs": [
        {
          "indexed": false,
          "internalType": "uint256",
          "name": "strategyId",
          "type": "uint256"
        },
        {
          "indexed": false,
          "internalType": "bool",
          "name": "isActive",
          "type": "bool"
        },
        {
          "indexed": false,
          "internalType": "uint16",
          "name": "standardProtocolFeeBp",
          "type": "uint16"
        },
        {
          "indexed": false,
          "internalType": "uint16",
          "name": "minTotalFeeBp",
          "type": "uint16"
        }
      ],
      "name": "StrategyUpdated",
      "type": "event"
    },
    {
      "anonymous": false,
      "inputs": [
        {
          "indexed": false,
          "internalType": "address",
          "name": "user",
          "type": "address"
        },
        {
          "indexed": false,
          "internalType": "uint256[]",
          "name": "subsetNonces",
          "type": "uint256[]"
        }
      ],
      "name": "SubsetNoncesCancelled",
      "type": "event"
    },
    {
      "anonymous": false,
      "inputs": [
        {
          "components": [
            {
              "internalType": "bytes32",
              "name": "orderHash",
              "type": "bytes32"
            },
            {
              "internalType": "uint256",
              "name": "orderNonce",
              "type": "uint256"
            },
            {
              "internalType": "bool",
              "name": "isNonceInvalidated",
              "type": "bool"
            }
          ],
          "indexed": false,
          "internalType": "struct IOmniXExchange.NonceInvalidationParameters",
          "name": "nonceInvalidationParameters",
          "type": "tuple"
        },
        {
          "indexed": false,
          "internalType": "address",
          "name": "askUser",
          "type": "address"
        },
        {
          "indexed": false,
          "internalType": "address",
          "name": "bidUser",
          "type": "address"
        },
        {
          "indexed": false,
          "internalType": "uint256",
          "name": "strategyId",
          "type": "uint256"
        },
        {
          "indexed": false,
          "internalType": "address",
          "name": "currency",
          "type": "address"
        },
        {
          "indexed": false,
          "internalType": "address",
          "name": "collection",
          "type": "address"
        },
        {
          "indexed": false,
          "internalType": "uint256[]",
          "name": "itemIds",
          "type": "uint256[]"
        },
        {
          "indexed": false,
          "internalType": "uint256[]",
          "name": "amounts",
          "type": "uint256[]"
        },
        {
          "indexed": false,
          "internalType": "address[2]",
          "name": "feeRecipients",
          "type": "address[2]"
        },
        {
          "indexed": false,
          "internalType": "uint256[3]",
          "name": "feeAmounts",
          "type": "uint256[3]"
        }
      ],
      "name": "TakerAsk",
      "type": "event"
    },
    {
      "anonymous": false,
      "inputs": [
        {
          "components": [
            {
              "internalType": "bytes32",
              "name": "orderHash",
              "type": "bytes32"
            },
            {
              "internalType": "uint256",
              "name": "orderNonce",
              "type": "uint256"
            },
            {
              "internalType": "bool",
              "name": "isNonceInvalidated",
              "type": "bool"
            }
          ],
          "indexed": false,
          "internalType": "struct IOmniXExchange.NonceInvalidationParameters",
          "name": "nonceInvalidationParameters",
          "type": "tuple"
        },
        {
          "indexed": false,
          "internalType": "address",
          "name": "bidUser",
          "type": "address"
        },
        {
          "indexed": false,
          "internalType": "address",
          "name": "bidRecipient",
          "type": "address"
        },
        {
          "indexed": false,
          "internalType": "uint256",
          "name": "strategyId",
          "type": "uint256"
        },
        {
          "indexed": false,
          "internalType": "address",
          "name": "currency",
          "type": "address"
        },
        {
          "indexed": false,
          "internalType": "address",
          "name": "collection",
          "type": "address"
        },
        {
          "indexed": false,
          "internalType": "uint256[]",
          "name": "itemIds",
          "type": "uint256[]"
        },
        {
          "indexed": false,
          "internalType": "uint256[]",
          "name": "amounts",
          "type": "uint256[]"
        },
        {
          "indexed": false,
          "internalType": "address[2]",
          "name": "feeRecipients",
          "type": "address[2]"
        },
        {
          "indexed": false,
          "internalType": "uint256[3]",
          "name": "feeAmounts",
          "type": "uint256[3]"
        }
      ],
      "name": "TakerBid",
      "type": "event"
    },
    {
      "inputs": [],
      "name": "MAGIC_VALUE_ORDER_NONCE_EXECUTED",
      "outputs": [
        {
          "internalType": "bytes32",
          "name": "",
          "type": "bytes32"
        }
      ],
      "stateMutability": "view",
      "type": "function"
    },
    {
      "inputs": [],
      "name": "WETH",
      "outputs": [
        {
          "internalType": "address",
          "name": "",
          "type": "address"
        }
      ],
      "stateMutability": "view",
      "type": "function"
    },
    {
      "inputs": [
        {
          "components": [
            {
              "internalType": "address",
              "name": "recipient",
              "type": "address"
            },
            {
              "internalType": "address",
              "name": "currency",
              "type": "address"
            },
            {
              "internalType": "uint16",
              "name": "lzChainId",
              "type": "uint16"
            },
            {
              "internalType": "bytes",
              "name": "additionalParameters",
              "type": "bytes"
            }
          ],
          "internalType": "struct OrderStructs.Taker",
          "name": "takerOrder",
          "type": "tuple"
        },
        {
          "components": [
            {
              "internalType": "enum QuoteType",
              "name": "quoteType",
              "type": "uint8"
            },
            {
              "internalType": "uint256",
              "name": "globalNonce",
              "type": "uint256"
            },
            {
              "internalType": "uint256",
              "name": "subsetNonce",
              "type": "uint256"
            },
            {
              "internalType": "uint256",
              "name": "orderNonce",
              "type": "uint256"
            },
            {
              "internalType": "uint256",
              "name": "strategyId",
              "type": "uint256"
            },
            {
              "internalType": "enum CollectionType",
              "name": "collectionType",
              "type": "uint8"
            },
            {
              "internalType": "address",
              "name": "collection",
              "type": "address"
            },
            {
              "internalType": "address",
              "name": "currency",
              "type": "address"
            },
            {
              "internalType": "address",
              "name": "signer",
              "type": "address"
            },
            {
              "internalType": "uint256",
              "name": "startTime",
              "type": "uint256"
            },
            {
              "internalType": "uint256",
              "name": "endTime",
              "type": "uint256"
            },
            {
              "internalType": "uint256",
              "name": "price",
              "type": "uint256"
            },
            {
              "internalType": "uint256[]",
              "name": "itemIds",
              "type": "uint256[]"
            },
            {
              "internalType": "uint256[]",
              "name": "amounts",
              "type": "uint256[]"
            },
            {
              "internalType": "uint16",
              "name": "lzChainId",
              "type": "uint16"
            },
            {
              "internalType": "bytes",
              "name": "additionalParameters",
              "type": "bytes"
            }
          ],
          "internalType": "struct OrderStructs.Maker",
          "name": "makerOrder",
          "type": "tuple"
        },
        {
          "internalType": "address",
          "name": "sender",
          "type": "address"
        }
      ],
      "name": "_executeStrategyForTakerOrder",
      "outputs": [
        {
          "internalType": "uint256[]",
          "name": "itemIds",
          "type": "uint256[]"
        },
        {
          "internalType": "uint256[]",
          "name": "amounts",
          "type": "uint256[]"
        },
        {
          "internalType": "address[2]",
          "name": "recipients",
          "type": "address[2]"
        },
        {
          "internalType": "uint256[3]",
          "name": "feeAmounts",
          "type": "uint256[3]"
        },
        {
          "internalType": "bool",
          "name": "isNonceInvalidated",
          "type": "bool"
        }
      ],
      "stateMutability": "nonpayable",
      "type": "function"
    },
    {
      "inputs": [
        {
          "internalType": "address",
          "name": "currency",
          "type": "address"
        },
        {
          "internalType": "address",
          "name": "to",
          "type": "address"
        },
        {
          "internalType": "uint256",
          "name": "amount",
          "type": "uint256"
        },
        {
          "internalType": "uint16",
          "name": "fromChainId",
          "type": "uint16"
        },
        {
          "internalType": "uint16",
          "name": "toChainId",
          "type": "uint16"
        },
        {
          "internalType": "bytes",
          "name": "payload",
          "type": "bytes"
        }
      ],
      "name": "_getCrossChainCurrencyFee",
      "outputs": [
        {
          "internalType": "uint256",
          "name": "",
          "type": "uint256"
        }
      ],
      "stateMutability": "view",
      "type": "function"
    },
    {
      "inputs": [
        {
          "internalType": "uint16",
          "name": "standardProtocolFeeBp",
          "type": "uint16"
        },
        {
          "internalType": "uint16",
          "name": "minTotalFeeBp",
          "type": "uint16"
        },
        {
          "internalType": "uint16",
          "name": "maxProtocolFeeBp",
          "type": "uint16"
        },
        {
          "internalType": "bytes4",
          "name": "selector",
          "type": "bytes4"
        },
        {
          "internalType": "bool",
          "name": "isMakerBid",
          "type": "bool"
        },
        {
          "internalType": "address",
          "name": "implementation",
          "type": "address"
        }
      ],
      "name": "addStrategy",
      "outputs": [],
      "stateMutability": "nonpayable",
      "type": "function"
    },
    {
      "inputs": [],
      "name": "affiliateController",
      "outputs": [
        {
          "internalType": "address",
          "name": "",
          "type": "address"
        }
      ],
      "stateMutability": "view",
      "type": "function"
    },
    {
      "inputs": [
        {
          "internalType": "address",
          "name": "",
          "type": "address"
        }
      ],
      "name": "affiliateRates",
      "outputs": [
        {
          "internalType": "uint256",
          "name": "",
          "type": "uint256"
        }
      ],
      "stateMutability": "view",
      "type": "function"
    },
    {
      "inputs": [
        {
          "internalType": "uint256[]",
          "name": "orderNonces",
          "type": "uint256[]"
        }
      ],
      "name": "cancelOrderNonces",
      "outputs": [],
      "stateMutability": "nonpayable",
      "type": "function"
    },
    {
      "inputs": [],
      "name": "cancelOwnershipTransfer",
      "outputs": [],
      "stateMutability": "nonpayable",
      "type": "function"
    },
    {
      "inputs": [
        {
          "internalType": "uint256[]",
          "name": "subsetNonces",
          "type": "uint256[]"
        }
      ],
      "name": "cancelSubsetNonces",
      "outputs": [],
      "stateMutability": "nonpayable",
      "type": "function"
    },
    {
      "inputs": [],
      "name": "chainId",
      "outputs": [
        {
          "internalType": "uint256",
          "name": "",
          "type": "uint256"
        }
      ],
      "stateMutability": "view",
      "type": "function"
    },
    {
      "inputs": [],
      "name": "confirmOwnershipRenouncement",
      "outputs": [],
      "stateMutability": "nonpayable",
      "type": "function"
    },
    {
      "inputs": [],
      "name": "confirmOwnershipTransfer",
      "outputs": [],
      "stateMutability": "nonpayable",
      "type": "function"
    },
    {
      "inputs": [],
      "name": "creatorFeeManager",
      "outputs": [
        {
          "internalType": "contract ICreatorFeeManager",
          "name": "",
          "type": "address"
        }
      ],
      "stateMutability": "view",
      "type": "function"
    },
    {
      "inputs": [],
      "name": "domainSeparator",
      "outputs": [
        {
          "internalType": "bytes32",
          "name": "",
          "type": "bytes32"
        }
      ],
      "stateMutability": "view",
      "type": "function"
    },
    {
      "inputs": [
        {
          "internalType": "uint256",
          "name": "destAirdrop",
          "type": "uint256"
        },
        {
          "components": [
            {
              "internalType": "address",
              "name": "recipient",
              "type": "address"
            },
            {
              "internalType": "address",
              "name": "currency",
              "type": "address"
            },
            {
              "internalType": "uint16",
              "name": "lzChainId",
              "type": "uint16"
            },
            {
              "internalType": "bytes",
              "name": "additionalParameters",
              "type": "bytes"
            }
          ],
          "internalType": "struct OrderStructs.Taker[]",
          "name": "takerBids",
          "type": "tuple[]"
        },
        {
          "components": [
            {
              "internalType": "enum QuoteType",
              "name": "quoteType",
              "type": "uint8"
            },
            {
              "internalType": "uint256",
              "name": "globalNonce",
              "type": "uint256"
            },
            {
              "internalType": "uint256",
              "name": "subsetNonce",
              "type": "uint256"
            },
            {
              "internalType": "uint256",
              "name": "orderNonce",
              "type": "uint256"
            },
            {
              "internalType": "uint256",
              "name": "strategyId",
              "type": "uint256"
            },
            {
              "internalType": "enum CollectionType",
              "name": "collectionType",
              "type": "uint8"
            },
            {
              "internalType": "address",
              "name": "collection",
              "type": "address"
            },
            {
              "internalType": "address",
              "name": "currency",
              "type": "address"
            },
            {
              "internalType": "address",
              "name": "signer",
              "type": "address"
            },
            {
              "internalType": "uint256",
              "name": "startTime",
              "type": "uint256"
            },
            {
              "internalType": "uint256",
              "name": "endTime",
              "type": "uint256"
            },
            {
              "internalType": "uint256",
              "name": "price",
              "type": "uint256"
            },
            {
              "internalType": "uint256[]",
              "name": "itemIds",
              "type": "uint256[]"
            },
            {
              "internalType": "uint256[]",
              "name": "amounts",
              "type": "uint256[]"
            },
            {
              "internalType": "uint16",
              "name": "lzChainId",
              "type": "uint16"
            },
            {
              "internalType": "bytes",
              "name": "additionalParameters",
              "type": "bytes"
            }
          ],
          "internalType": "struct OrderStructs.Maker[]",
          "name": "makerAsks",
          "type": "tuple[]"
        },
        {
          "internalType": "bytes[]",
          "name": "makerSignatures",
          "type": "bytes[]"
        },
        {
          "components": [
            {
              "internalType": "bytes32",
              "name": "root",
              "type": "bytes32"
            },
            {
              "components": [
                {
                  "internalType": "bytes32",
                  "name": "value",
                  "type": "bytes32"
                },
                {
                  "internalType": "enum OrderStructs.MerkleTreeNodePosition",
                  "name": "position",
                  "type": "uint8"
                }
              ],
              "internalType": "struct OrderStructs.MerkleTreeNode[]",
              "name": "proof",
              "type": "tuple[]"
            }
          ],
          "internalType": "struct OrderStructs.MerkleTree[]",
          "name": "merkleTrees",
          "type": "tuple[]"
        },
        {
          "internalType": "address",
          "name": "affiliate",
          "type": "address"
        },
        {
          "internalType": "bool",
          "name": "isAtomic",
          "type": "bool"
        }
      ],
      "name": "executeMultipleTakerBids",
      "outputs": [],
      "stateMutability": "payable",
      "type": "function"
    },
    {
      "inputs": [
        {
          "components": [
            {
              "internalType": "address",
              "name": "recipient",
              "type": "address"
            },
            {
              "internalType": "address",
              "name": "currency",
              "type": "address"
            },
            {
              "internalType": "uint16",
              "name": "lzChainId",
              "type": "uint16"
            },
            {
              "internalType": "bytes",
              "name": "additionalParameters",
              "type": "bytes"
            }
          ],
          "internalType": "struct OrderStructs.Taker",
          "name": "takerAsk",
          "type": "tuple"
        },
        {
          "components": [
            {
              "internalType": "enum QuoteType",
              "name": "quoteType",
              "type": "uint8"
            },
            {
              "internalType": "uint256",
              "name": "globalNonce",
              "type": "uint256"
            },
            {
              "internalType": "uint256",
              "name": "subsetNonce",
              "type": "uint256"
            },
            {
              "internalType": "uint256",
              "name": "orderNonce",
              "type": "uint256"
            },
            {
              "internalType": "uint256",
              "name": "strategyId",
              "type": "uint256"
            },
            {
              "internalType": "enum CollectionType",
              "name": "collectionType",
              "type": "uint8"
            },
            {
              "internalType": "address",
              "name": "collection",
              "type": "address"
            },
            {
              "internalType": "address",
              "name": "currency",
              "type": "address"
            },
            {
              "internalType": "address",
              "name": "signer",
              "type": "address"
            },
            {
              "internalType": "uint256",
              "name": "startTime",
              "type": "uint256"
            },
            {
              "internalType": "uint256",
              "name": "endTime",
              "type": "uint256"
            },
            {
              "internalType": "uint256",
              "name": "price",
              "type": "uint256"
            },
            {
              "internalType": "uint256[]",
              "name": "itemIds",
              "type": "uint256[]"
            },
            {
              "internalType": "uint256[]",
              "name": "amounts",
              "type": "uint256[]"
            },
            {
              "internalType": "uint16",
              "name": "lzChainId",
              "type": "uint16"
            },
            {
              "internalType": "bytes",
              "name": "additionalParameters",
              "type": "bytes"
            }
          ],
          "internalType": "struct OrderStructs.Maker",
          "name": "makerBid",
          "type": "tuple"
        },
        {
          "internalType": "bytes",
          "name": "makerSignature",
          "type": "bytes"
        },
        {
          "components": [
            {
              "internalType": "bytes32",
              "name": "root",
              "type": "bytes32"
            },
            {
              "components": [
                {
                  "internalType": "bytes32",
                  "name": "value",
                  "type": "bytes32"
                },
                {
                  "internalType": "enum OrderStructs.MerkleTreeNodePosition",
                  "name": "position",
                  "type": "uint8"
                }
              ],
              "internalType": "struct OrderStructs.MerkleTreeNode[]",
              "name": "proof",
              "type": "tuple[]"
            }
          ],
          "internalType": "struct OrderStructs.MerkleTree",
          "name": "merkleTree",
          "type": "tuple"
        },
        {
          "internalType": "address",
          "name": "affiliate",
          "type": "address"
        }
      ],
      "name": "executeTakerAsk",
      "outputs": [],
      "stateMutability": "nonpayable",
      "type": "function"
    },
    {
      "inputs": [
        {
          "internalType": "uint256",
          "name": "destAirdrop",
          "type": "uint256"
        },
        {
          "components": [
            {
              "internalType": "address",
              "name": "recipient",
              "type": "address"
            },
            {
              "internalType": "address",
              "name": "currency",
              "type": "address"
            },
            {
              "internalType": "uint16",
              "name": "lzChainId",
              "type": "uint16"
            },
            {
              "internalType": "bytes",
              "name": "additionalParameters",
              "type": "bytes"
            }
          ],
          "internalType": "struct OrderStructs.Taker",
          "name": "takerBid",
          "type": "tuple"
        },
        {
          "components": [
            {
              "internalType": "enum QuoteType",
              "name": "quoteType",
              "type": "uint8"
            },
            {
              "internalType": "uint256",
              "name": "globalNonce",
              "type": "uint256"
            },
            {
              "internalType": "uint256",
              "name": "subsetNonce",
              "type": "uint256"
            },
            {
              "internalType": "uint256",
              "name": "orderNonce",
              "type": "uint256"
            },
            {
              "internalType": "uint256",
              "name": "strategyId",
              "type": "uint256"
            },
            {
              "internalType": "enum CollectionType",
              "name": "collectionType",
              "type": "uint8"
            },
            {
              "internalType": "address",
              "name": "collection",
              "type": "address"
            },
            {
              "internalType": "address",
              "name": "currency",
              "type": "address"
            },
            {
              "internalType": "address",
              "name": "signer",
              "type": "address"
            },
            {
              "internalType": "uint256",
              "name": "startTime",
              "type": "uint256"
            },
            {
              "internalType": "uint256",
              "name": "endTime",
              "type": "uint256"
            },
            {
              "internalType": "uint256",
              "name": "price",
              "type": "uint256"
            },
            {
              "internalType": "uint256[]",
              "name": "itemIds",
              "type": "uint256[]"
            },
            {
              "internalType": "uint256[]",
              "name": "amounts",
              "type": "uint256[]"
            },
            {
              "internalType": "uint16",
              "name": "lzChainId",
              "type": "uint16"
            },
            {
              "internalType": "bytes",
              "name": "additionalParameters",
              "type": "bytes"
            }
          ],
          "internalType": "struct OrderStructs.Maker",
          "name": "makerAsk",
          "type": "tuple"
        },
        {
          "internalType": "bytes",
          "name": "makerSignature",
          "type": "bytes"
        },
        {
          "components": [
            {
              "internalType": "bytes32",
              "name": "root",
              "type": "bytes32"
            },
            {
              "components": [
                {
                  "internalType": "bytes32",
                  "name": "value",
                  "type": "bytes32"
                },
                {
                  "internalType": "enum OrderStructs.MerkleTreeNodePosition",
                  "name": "position",
                  "type": "uint8"
                }
              ],
              "internalType": "struct OrderStructs.MerkleTreeNode[]",
              "name": "proof",
              "type": "tuple[]"
            }
          ],
          "internalType": "struct OrderStructs.MerkleTree",
          "name": "merkleTree",
          "type": "tuple"
        },
        {
          "internalType": "address",
          "name": "affiliate",
          "type": "address"
        }
      ],
      "name": "executeTakerBid",
      "outputs": [],
      "stateMutability": "payable",
      "type": "function"
    },
    {
      "inputs": [
        {
          "internalType": "uint16",
          "name": "",
          "type": "uint16"
        },
        {
          "internalType": "bytes",
          "name": "",
          "type": "bytes"
        },
        {
          "internalType": "uint256",
          "name": "",
          "type": "uint256"
        }
      ],
      "name": "failedMessages",
      "outputs": [
        {
          "internalType": "bytes32",
          "name": "",
          "type": "bytes32"
        }
      ],
      "stateMutability": "view",
      "type": "function"
    },
    {
      "inputs": [
        {
          "internalType": "uint16",
          "name": "_srcChainId",
          "type": "uint16"
        },
        {
          "internalType": "bytes",
          "name": "_srcAddress",
          "type": "bytes"
        }
      ],
      "name": "forceResumeReceive",
      "outputs": [],
      "stateMutability": "nonpayable",
      "type": "function"
    },
    {
      "inputs": [],
      "name": "gasForLzReceive",
      "outputs": [
        {
          "internalType": "uint256",
          "name": "",
          "type": "uint256"
        }
      ],
      "stateMutability": "view",
      "type": "function"
    },
    {
      "inputs": [],
      "name": "gasForOmniLzReceive",
      "outputs": [
        {
          "internalType": "uint256",
          "name": "",
          "type": "uint256"
        }
      ],
      "stateMutability": "view",
      "type": "function"
    },
    {
      "inputs": [
        {
          "internalType": "uint16",
          "name": "_version",
          "type": "uint16"
        },
        {
          "internalType": "uint16",
          "name": "_chainId",
          "type": "uint16"
        },
        {
          "internalType": "address",
          "name": "",
          "type": "address"
        },
        {
          "internalType": "uint256",
          "name": "_configType",
          "type": "uint256"
        }
      ],
      "name": "getConfig",
      "outputs": [
        {
          "internalType": "bytes",
          "name": "",
          "type": "bytes"
        }
      ],
      "stateMutability": "view",
      "type": "function"
    },
    {
      "inputs": [
        {
          "components": [
            {
              "internalType": "address",
              "name": "recipient",
              "type": "address"
            },
            {
              "internalType": "address",
              "name": "currency",
              "type": "address"
            },
            {
              "internalType": "uint16",
              "name": "lzChainId",
              "type": "uint16"
            },
            {
              "internalType": "bytes",
              "name": "additionalParameters",
              "type": "bytes"
            }
          ],
          "internalType": "struct OrderStructs.Taker",
          "name": "taker",
          "type": "tuple"
        },
        {
          "components": [
            {
              "internalType": "enum QuoteType",
              "name": "quoteType",
              "type": "uint8"
            },
            {
              "internalType": "uint256",
              "name": "globalNonce",
              "type": "uint256"
            },
            {
              "internalType": "uint256",
              "name": "subsetNonce",
              "type": "uint256"
            },
            {
              "internalType": "uint256",
              "name": "orderNonce",
              "type": "uint256"
            },
            {
              "internalType": "uint256",
              "name": "strategyId",
              "type": "uint256"
            },
            {
              "internalType": "enum CollectionType",
              "name": "collectionType",
              "type": "uint8"
            },
            {
              "internalType": "address",
              "name": "collection",
              "type": "address"
            },
            {
              "internalType": "address",
              "name": "currency",
              "type": "address"
            },
            {
              "internalType": "address",
              "name": "signer",
              "type": "address"
            },
            {
              "internalType": "uint256",
              "name": "startTime",
              "type": "uint256"
            },
            {
              "internalType": "uint256",
              "name": "endTime",
              "type": "uint256"
            },
            {
              "internalType": "uint256",
              "name": "price",
              "type": "uint256"
            },
            {
              "internalType": "uint256[]",
              "name": "itemIds",
              "type": "uint256[]"
            },
            {
              "internalType": "uint256[]",
              "name": "amounts",
              "type": "uint256[]"
            },
            {
              "internalType": "uint16",
              "name": "lzChainId",
              "type": "uint16"
            },
            {
              "internalType": "bytes",
              "name": "additionalParameters",
              "type": "bytes"
            }
          ],
          "internalType": "struct OrderStructs.Maker",
          "name": "maker",
          "type": "tuple"
        },
        {
          "internalType": "uint256",
          "name": "destAirdrop",
          "type": "uint256"
        },
        {
          "internalType": "address",
          "name": "affiliate",
          "type": "address"
        }
      ],
      "name": "getLzFees",
      "outputs": [
        {
          "internalType": "uint256",
          "name": "",
          "type": "uint256"
        },
        {
          "internalType": "uint256",
          "name": "",
          "type": "uint256"
        },
        {
          "internalType": "uint256",
          "name": "",
          "type": "uint256"
        }
      ],
      "stateMutability": "view",
      "type": "function"
    },
    {
      "inputs": [
        {
          "internalType": "uint16",
          "name": "_remoteChainId",
          "type": "uint16"
        }
      ],
      "name": "getTrustedRemoteAddress",
      "outputs": [
        {
          "internalType": "bytes",
          "name": "",
          "type": "bytes"
        }
      ],
      "stateMutability": "view",
      "type": "function"
    },
    {
      "inputs": [
        {
          "internalType": "bytes32",
          "name": "root",
          "type": "bytes32"
        },
        {
          "internalType": "uint256",
          "name": "proofLength",
          "type": "uint256"
        }
      ],
      "name": "hashBatchOrder",
      "outputs": [
        {
          "internalType": "bytes32",
          "name": "batchOrderHash",
          "type": "bytes32"
        }
      ],
      "stateMutability": "pure",
      "type": "function"
    },
    {
      "inputs": [
        {
          "internalType": "bool",
          "name": "bid",
          "type": "bool"
        },
        {
          "internalType": "bool",
          "name": "ask",
          "type": "bool"
        }
      ],
      "name": "incrementBidAskNonces",
      "outputs": [],
      "stateMutability": "nonpayable",
      "type": "function"
    },
    {
      "inputs": [],
      "name": "initiateOwnershipRenouncement",
      "outputs": [],
      "stateMutability": "nonpayable",
      "type": "function"
    },
    {
      "inputs": [
        {
          "internalType": "address",
          "name": "newPotentialOwner",
          "type": "address"
        }
      ],
      "name": "initiateOwnershipTransfer",
      "outputs": [],
      "stateMutability": "nonpayable",
      "type": "function"
    },
    {
      "inputs": [],
      "name": "isAffiliateProgramActive",
      "outputs": [
        {
          "internalType": "bool",
          "name": "",
          "type": "bool"
        }
      ],
      "stateMutability": "view",
      "type": "function"
    },
    {
      "inputs": [
        {
          "internalType": "address",
          "name": "",
          "type": "address"
        }
      ],
      "name": "isCurrencyAllowed",
      "outputs": [
        {
          "internalType": "bool",
          "name": "",
          "type": "bool"
        }
      ],
      "stateMutability": "view",
      "type": "function"
    },
    {
      "inputs": [
        {
          "internalType": "address",
          "name": "",
          "type": "address"
        }
      ],
      "name": "isCurrencyOmni",
      "outputs": [
        {
          "internalType": "bool",
          "name": "",
          "type": "bool"
        }
      ],
      "stateMutability": "view",
      "type": "function"
    },
    {
      "inputs": [
        {
          "internalType": "address",
          "name": "currency",
          "type": "address"
        }
      ],
      "name": "isOmniCurrency",
      "outputs": [
        {
          "internalType": "bool",
          "name": "",
          "type": "bool"
        }
      ],
      "stateMutability": "view",
      "type": "function"
    },
    {
      "inputs": [
        {
          "internalType": "uint16",
          "name": "_srcChainId",
          "type": "uint16"
        },
        {
          "internalType": "bytes",
          "name": "_srcAddress",
          "type": "bytes"
        }
      ],
      "name": "isTrustedRemote",
      "outputs": [
        {
          "internalType": "bool",
          "name": "",
          "type": "bool"
        }
      ],
      "stateMutability": "view",
      "type": "function"
    },
    {
      "inputs": [],
      "name": "lzEndpoint",
      "outputs": [
        {
          "internalType": "contract ILayerZeroEndpoint",
          "name": "",
          "type": "address"
        }
      ],
      "stateMutability": "view",
      "type": "function"
    },
    {
      "inputs": [
        {
          "internalType": "uint16",
          "name": "_srcChainId",
          "type": "uint16"
        },
        {
          "internalType": "bytes",
          "name": "_srcAddress",
          "type": "bytes"
        },
        {
          "internalType": "uint64",
          "name": "_nonce",
          "type": "uint64"
        },
        {
          "internalType": "bytes",
          "name": "_payload",
          "type": "bytes"
        }
      ],
      "name": "lzReceive",
      "outputs": [],
      "stateMutability": "nonpayable",
      "type": "function"
    },
    {
      "inputs": [],
      "name": "maxCreatorFeeBp",
      "outputs": [
        {
          "internalType": "uint16",
          "name": "",
          "type": "uint16"
        }
      ],
      "stateMutability": "view",
      "type": "function"
    },
    {
      "inputs": [
        {
          "internalType": "uint16",
          "name": "",
          "type": "uint16"
        },
        {
          "internalType": "uint16",
          "name": "",
          "type": "uint16"
        }
      ],
      "name": "minDstGasLookup",
      "outputs": [
        {
          "internalType": "uint256",
          "name": "",
          "type": "uint256"
        }
      ],
      "stateMutability": "view",
      "type": "function"
    },
    {
      "inputs": [
        {
          "internalType": "uint16",
          "name": "_srcChainId",
          "type": "uint16"
        },
        {
          "internalType": "bytes",
          "name": "_srcAddress",
          "type": "bytes"
        },
        {
          "internalType": "uint64",
          "name": "_nonce",
          "type": "uint64"
        },
        {
          "internalType": "bytes",
          "name": "_payload",
          "type": "bytes"
        }
      ],
      "name": "nonblockingLzReceive",
      "outputs": [],
      "stateMutability": "nonpayable",
      "type": "function"
    },
    {
      "inputs": [],
      "name": "owner",
      "outputs": [
        {
          "internalType": "address",
          "name": "",
          "type": "address"
        }
      ],
      "stateMutability": "view",
      "type": "function"
    },
    {
      "inputs": [],
      "name": "ownershipStatus",
      "outputs": [
        {
          "internalType": "enum IOwnableTwoSteps.Status",
          "name": "",
          "type": "uint8"
        }
      ],
      "stateMutability": "view",
      "type": "function"
    },
    {
      "inputs": [],
      "name": "potentialOwner",
      "outputs": [
        {
          "internalType": "address",
          "name": "",
          "type": "address"
        }
      ],
      "stateMutability": "view",
      "type": "function"
    },
    {
      "inputs": [],
      "name": "precrime",
      "outputs": [
        {
          "internalType": "address",
          "name": "",
          "type": "address"
        }
      ],
      "stateMutability": "view",
      "type": "function"
    },
    {
      "inputs": [],
      "name": "protocolFeeRecipient",
      "outputs": [
        {
          "internalType": "address",
          "name": "",
          "type": "address"
        }
      ],
      "stateMutability": "view",
      "type": "function"
    },
    {
      "inputs": [
        {
          "internalType": "uint256",
          "name": "destAirdrop",
          "type": "uint256"
        },
        {
          "components": [
            {
              "internalType": "address",
              "name": "recipient",
              "type": "address"
            },
            {
              "internalType": "address",
              "name": "currency",
              "type": "address"
            },
            {
              "internalType": "uint16",
              "name": "lzChainId",
              "type": "uint16"
            },
            {
              "internalType": "bytes",
              "name": "additionalParameters",
              "type": "bytes"
            }
          ],
          "internalType": "struct OrderStructs.Taker",
          "name": "takerBid",
          "type": "tuple"
        },
        {
          "components": [
            {
              "internalType": "enum QuoteType",
              "name": "quoteType",
              "type": "uint8"
            },
            {
              "internalType": "uint256",
              "name": "globalNonce",
              "type": "uint256"
            },
            {
              "internalType": "uint256",
              "name": "subsetNonce",
              "type": "uint256"
            },
            {
              "internalType": "uint256",
              "name": "orderNonce",
              "type": "uint256"
            },
            {
              "internalType": "uint256",
              "name": "strategyId",
              "type": "uint256"
            },
            {
              "internalType": "enum CollectionType",
              "name": "collectionType",
              "type": "uint8"
            },
            {
              "internalType": "address",
              "name": "collection",
              "type": "address"
            },
            {
              "internalType": "address",
              "name": "currency",
              "type": "address"
            },
            {
              "internalType": "address",
              "name": "signer",
              "type": "address"
            },
            {
              "internalType": "uint256",
              "name": "startTime",
              "type": "uint256"
            },
            {
              "internalType": "uint256",
              "name": "endTime",
              "type": "uint256"
            },
            {
              "internalType": "uint256",
              "name": "price",
              "type": "uint256"
            },
            {
              "internalType": "uint256[]",
              "name": "itemIds",
              "type": "uint256[]"
            },
            {
              "internalType": "uint256[]",
              "name": "amounts",
              "type": "uint256[]"
            },
            {
              "internalType": "uint16",
              "name": "lzChainId",
              "type": "uint16"
            },
            {
              "internalType": "bytes",
              "name": "additionalParameters",
              "type": "bytes"
            }
          ],
          "internalType": "struct OrderStructs.Maker",
          "name": "makerAsk",
          "type": "tuple"
        },
        {
          "internalType": "address",
          "name": "sender",
          "type": "address"
        },
        {
          "internalType": "address",
          "name": "affiliate",
          "type": "address"
        },
        {
          "internalType": "bytes32",
          "name": "orderHash",
          "type": "bytes32"
        }
      ],
      "name": "restrictedExecuteTakerBid",
      "outputs": [
        {
          "internalType": "uint256",
          "name": "protocolFeeAmount",
          "type": "uint256"
        }
      ],
      "stateMutability": "nonpayable",
      "type": "function"
    },
    {
      "inputs": [
        {
          "internalType": "uint16",
          "name": "_srcChainId",
          "type": "uint16"
        },
        {
          "internalType": "bytes",
          "name": "_srcAddress",
          "type": "bytes"
        },
        {
          "internalType": "uint64",
          "name": "_nonce",
          "type": "uint64"
        },
        {
          "internalType": "bytes",
          "name": "_payload",
          "type": "bytes"
        }
      ],
      "name": "retryMessage",
      "outputs": [],
      "stateMutability": "payable",
      "type": "function"
    },
    {
      "inputs": [
        {
          "internalType": "uint16",
          "name": "_version",
          "type": "uint16"
        },
        {
          "internalType": "uint16",
          "name": "_chainId",
          "type": "uint16"
        },
        {
          "internalType": "uint256",
          "name": "_configType",
          "type": "uint256"
        },
        {
          "internalType": "bytes",
          "name": "_config",
          "type": "bytes"
        }
      ],
      "name": "setConfig",
      "outputs": [],
      "stateMutability": "nonpayable",
      "type": "function"
    },
    {
      "inputs": [
        {
          "internalType": "uint256",
          "name": "gas",
          "type": "uint256"
        }
      ],
      "name": "setGasForLzReceive",
      "outputs": [],
      "stateMutability": "nonpayable",
      "type": "function"
    },
    {
      "inputs": [
        {
          "internalType": "uint256",
          "name": "gas",
          "type": "uint256"
        }
      ],
      "name": "setGasForOmniLZReceive",
      "outputs": [],
      "stateMutability": "nonpayable",
      "type": "function"
    },
    {
      "inputs": [
        {
          "internalType": "uint16",
          "name": "_dstChainId",
          "type": "uint16"
        },
        {
          "internalType": "uint16",
          "name": "_packetType",
          "type": "uint16"
        },
        {
          "internalType": "uint256",
          "name": "_minGas",
          "type": "uint256"
        }
      ],
      "name": "setMinDstGas",
      "outputs": [],
      "stateMutability": "nonpayable",
      "type": "function"
    },
    {
      "inputs": [
        {
          "internalType": "address",
          "name": "_precrime",
          "type": "address"
        }
      ],
      "name": "setPrecrime",
      "outputs": [],
      "stateMutability": "nonpayable",
      "type": "function"
    },
    {
      "inputs": [
        {
          "internalType": "uint16",
          "name": "_version",
          "type": "uint16"
        }
      ],
      "name": "setReceiveVersion",
      "outputs": [],
      "stateMutability": "nonpayable",
      "type": "function"
    },
    {
      "inputs": [
        {
          "internalType": "uint16",
          "name": "_version",
          "type": "uint16"
        }
      ],
      "name": "setSendVersion",
      "outputs": [],
      "stateMutability": "nonpayable",
      "type": "function"
    },
    {
      "inputs": [
        {
          "internalType": "address",
          "name": "manager",
          "type": "address"
        }
      ],
      "name": "setStargatePoolManager",
      "outputs": [],
      "stateMutability": "nonpayable",
      "type": "function"
    },
    {
      "inputs": [
        {
          "internalType": "uint16",
          "name": "_srcChainId",
          "type": "uint16"
        },
        {
          "internalType": "bytes",
          "name": "_path",
          "type": "bytes"
        }
      ],
      "name": "setTrustedRemote",
      "outputs": [],
      "stateMutability": "nonpayable",
      "type": "function"
    },
    {
      "inputs": [
        {
          "internalType": "uint16",
          "name": "_remoteChainId",
          "type": "uint16"
        },
        {
          "internalType": "bytes",
          "name": "_remoteAddress",
          "type": "bytes"
        }
      ],
      "name": "setTrustedRemoteAddress",
      "outputs": [],
      "stateMutability": "nonpayable",
      "type": "function"
    },
    {
      "inputs": [
        {
          "internalType": "uint16",
          "name": "",
          "type": "uint16"
        },
        {
          "internalType": "bytes",
          "name": "",
          "type": "bytes"
        },
        {
          "internalType": "uint256",
          "name": "",
          "type": "uint256"
        },
        {
          "internalType": "address",
          "name": "",
          "type": "address"
        },
        {
          "internalType": "uint256",
          "name": "_price",
          "type": "uint256"
        },
        {
          "internalType": "bytes",
          "name": "_payload",
          "type": "bytes"
        }
      ],
      "name": "sgReceive",
      "outputs": [],
      "stateMutability": "nonpayable",
      "type": "function"
    },
    {
      "inputs": [],
      "name": "stargatePoolManager",
      "outputs": [
        {
          "internalType": "contract IStargatePoolManager",
          "name": "",
          "type": "address"
        }
      ],
      "stateMutability": "view",
      "type": "function"
    },
    {
      "inputs": [
        {
          "internalType": "uint256",
          "name": "",
          "type": "uint256"
        }
      ],
      "name": "strategyInfo",
      "outputs": [
        {
          "internalType": "bool",
          "name": "isActive",
          "type": "bool"
        },
        {
          "internalType": "uint16",
          "name": "standardProtocolFeeBp",
          "type": "uint16"
        },
        {
          "internalType": "uint16",
          "name": "minTotalFeeBp",
          "type": "uint16"
        },
        {
          "internalType": "uint16",
          "name": "maxProtocolFeeBp",
          "type": "uint16"
        },
        {
          "internalType": "bytes4",
          "name": "selector",
          "type": "bytes4"
        },
        {
          "internalType": "bool",
          "name": "isMakerBid",
          "type": "bool"
        },
        {
          "internalType": "address",
          "name": "implementation",
          "type": "address"
        }
      ],
      "stateMutability": "view",
      "type": "function"
    },
    {
      "inputs": [],
      "name": "transferManager",
      "outputs": [
        {
          "internalType": "contract TransferManager",
          "name": "",
          "type": "address"
        }
      ],
      "stateMutability": "view",
      "type": "function"
    },
    {
      "inputs": [
        {
          "internalType": "address",
          "name": "collection",
          "type": "address"
        },
        {
          "internalType": "enum CollectionType",
          "name": "collectionType",
          "type": "uint8"
        },
        {
          "internalType": "address",
          "name": "from",
          "type": "address"
        },
        {
          "internalType": "address",
          "name": "to",
          "type": "address"
        },
        {
          "internalType": "uint256[]",
          "name": "itemIds",
          "type": "uint256[]"
        },
        {
          "internalType": "uint256[]",
          "name": "amounts",
          "type": "uint256[]"
        }
      ],
      "name": "transferNFTLz",
      "outputs": [],
      "stateMutability": "nonpayable",
      "type": "function"
    },
    {
      "inputs": [
        {
          "internalType": "uint16",
          "name": "",
          "type": "uint16"
        }
      ],
      "name": "trustedRemoteLookup",
      "outputs": [
        {
          "internalType": "bytes",
          "name": "",
          "type": "bytes"
        }
      ],
      "stateMutability": "view",
      "type": "function"
    },
    {
      "inputs": [
        {
          "internalType": "address",
          "name": "newAffiliateController",
          "type": "address"
        }
      ],
      "name": "updateAffiliateController",
      "outputs": [],
      "stateMutability": "nonpayable",
      "type": "function"
    },
    {
      "inputs": [
        {
          "internalType": "bool",
          "name": "isActive",
          "type": "bool"
        }
      ],
      "name": "updateAffiliateProgramStatus",
      "outputs": [],
      "stateMutability": "nonpayable",
      "type": "function"
    },
    {
      "inputs": [
        {
          "internalType": "address",
          "name": "affiliate",
          "type": "address"
        },
        {
          "internalType": "uint256",
          "name": "bp",
          "type": "uint256"
        }
      ],
      "name": "updateAffiliateRate",
      "outputs": [],
      "stateMutability": "nonpayable",
      "type": "function"
    },
    {
      "inputs": [
        {
          "internalType": "address",
          "name": "newCreatorFeeManager",
          "type": "address"
        }
      ],
      "name": "updateCreatorFeeManager",
      "outputs": [],
      "stateMutability": "nonpayable",
      "type": "function"
    },
    {
      "inputs": [
        {
          "internalType": "address",
          "name": "currency",
          "type": "address"
        },
        {
          "internalType": "bool",
          "name": "isAllowed",
          "type": "bool"
        }
      ],
      "name": "updateCurrencyStatus",
      "outputs": [],
      "stateMutability": "nonpayable",
      "type": "function"
    },
    {
      "inputs": [],
      "name": "updateDomainSeparator",
      "outputs": [],
      "stateMutability": "nonpayable",
      "type": "function"
    },
    {
      "inputs": [
        {
          "internalType": "uint256",
          "name": "newGasLimitETHTransfer",
          "type": "uint256"
        }
      ],
      "name": "updateETHGasLimitForTransfer",
      "outputs": [],
      "stateMutability": "nonpayable",
      "type": "function"
    },
    {
      "inputs": [
        {
          "internalType": "uint16",
          "name": "newMaxCreatorFeeBp",
          "type": "uint16"
        }
      ],
      "name": "updateMaxCreatorFeeBp",
      "outputs": [],
      "stateMutability": "nonpayable",
      "type": "function"
    },
    {
      "inputs": [
        {
          "internalType": "address",
          "name": "newProtocolFeeRecipient",
          "type": "address"
        }
      ],
      "name": "updateProtocolFeeRecipient",
      "outputs": [],
      "stateMutability": "nonpayable",
      "type": "function"
    },
    {
      "inputs": [
        {
          "internalType": "uint256",
          "name": "strategyId",
          "type": "uint256"
        },
        {
          "internalType": "bool",
          "name": "isActive",
          "type": "bool"
        },
        {
          "internalType": "uint16",
          "name": "newStandardProtocolFee",
          "type": "uint16"
        },
        {
          "internalType": "uint16",
          "name": "newMinTotalFee",
          "type": "uint16"
        }
      ],
      "name": "updateStrategy",
      "outputs": [],
      "stateMutability": "nonpayable",
      "type": "function"
    },
    {
      "inputs": [
        {
          "internalType": "address",
          "name": "",
          "type": "address"
        }
      ],
      "name": "userBidAskNonces",
      "outputs": [
        {
          "internalType": "uint256",
          "name": "bidNonce",
          "type": "uint256"
        },
        {
          "internalType": "uint256",
          "name": "askNonce",
          "type": "uint256"
        }
      ],
      "stateMutability": "view",
      "type": "function"
    },
    {
      "inputs": [
        {
          "internalType": "address",
          "name": "",
          "type": "address"
        },
        {
          "internalType": "uint256",
          "name": "",
          "type": "uint256"
        }
      ],
      "name": "userOrderNonce",
      "outputs": [
        {
          "internalType": "bytes32",
          "name": "",
          "type": "bytes32"
        }
      ],
      "stateMutability": "view",
      "type": "function"
    },
    {
      "inputs": [
        {
          "internalType": "address",
          "name": "",
          "type": "address"
        },
        {
          "internalType": "uint256",
          "name": "",
          "type": "uint256"
        }
      ],
      "name": "userSubsetNonce",
      "outputs": [
        {
          "internalType": "bool",
          "name": "",
          "type": "bool"
        }
      ],
      "stateMutability": "view",
      "type": "function"
    }
  ],
  "bytecode": {
    "object": "0x60e034620003f8576001600160401b0362007cc8601f38829003908101601f191684019083821185831017620003e2578085936040938452843960a092839181010312620003f8576200005284620003fd565b90602062000062818701620003fd565b918162000071828901620003fd565b936200008060608a01620003fd565b90620000906080809b01620003fd565b967f3edd90e7770f06fafde38004653b33870066c33bfc923ff6102acd601f85dfbc60018060a01b0394858094168060018060a01b031960035416176003558751908152a11689526001600d5582519460e086018681108a821117620003e257845260018652848601956032875284810160328152606082019760c889528c8301986000998a81528c8501918b835260c08601938c85528c8052600e8c528a8d209651151560ff16905160081b62ffff0016955160181b64ffff00000016915160281b66ffff000000000016925160a81c6affffffff00000000000000169351151560581b6bff00000000000000000000001694600160601b6001900319905160601b16951717171717179055835186815285810160329052848101603290526060810160c89052868b82015286898201528660c082015260e07f5290475107686ff8d28cd104943b127d453b23622ac55346373fa25c0c8957a291a182600f549116908115620003d1576001600160b01b0319168117607d60a31b17600f5583519081527f8cffb07faa2874440346743bdc0a86b06c3335cc47dc49b327d10e77b73ceb10908590a16010805460ff60a01b1916600160a01b179055168552620557306014556108fc601655805180820187811182821017620003bd57825260018152601960f91b9083015280517f8b73c3c69bb8fe3d512ecc4cf759cc79239f7b179b0ffacaa9a75d522b39400f9281019283527f9e6bc51ef68b436657c5fe7a273ea9121a02b234cc81ad1e04892649c9168c6a818301527fad7c5bef027816a800da1736444fb58a807ef4c9603b7848673f7e3a68eb14a560608201524688820152308682015285815260c081019692939092871183881017620003a957508590525190206015554660125560c052620927c06013556178b59283620004138439518281816106b0015281816107d901528181610885015281816111e80152818161287901528181612c4c015281816133f201528181614eaa015261591401525181818161133601528181616bd30152616c42015260c0518181816126db01528181615b2d01528181615dfa01526165a40152f35b634e487b7160e01b81526041600452602490fd5b634e487b7160e01b85526041600452602485fd5b8451630f966bcb60e41b8152600490fd5b634e487b7160e01b600052604160045260246000fd5b600080fd5b51906001600160a01b0382168203620003f85756fe60806040526004361015610013575b600080fd5b60003560e01c80621d3567146105e557806307e0db17146105dc57806310ddb137146105d3578063134849a6146105ca5780631d3c4268146105c15780631df47f80146105b857806320cd05c7146105af57806323452b9c146105a65780632bb5a9e61461059d5780633d25e561146105945780633d8b38f61461058b5780633e567539146105825780633f66eda41461057957806342d65a8d14610570578063463357ec1461056757806346b625bc1461055e57806346ea2552146105555780634cbac9dc1461054c57806351039b4e14610543578063548788761461053a5780635a195d19146105315780635b6ac0111461052857806362d7b6ab1461051f57806364df049e1461051657806366ad5c8a1461050d57806367d9dd79146105045780636e90c014146104fb5780637200b829146104f2578063748644c3146104e05780637533d788146104e95780637730d51b146104e05780637762df25146104d757806379ed31d4146104ce5780637a7d8851146104c55780637c22dc85146104bc578063838b8f5c146104b357806386c07642146104aa57806389ccfe89146104a15780638cfd8f5c146104985780638da5cb5b1461048f5780638ee749121461048657806391be13601461047d578063950c8a7414610474578063974e7c9f1461046b5780639a8a0592146104625780639e4b4b75146104595780639f38369a14610450578063a02bab5714610447578063a39bf29f1461043e578063a6c3d16514610435578063ab8236f31461042c578063ad5c464814610423578063ae1cce5a1461041a578063ae9d5bd714610411578063b20dea7514610408578063b353aaa7146103ff578063b647a404146103f6578063b6819822146103ed578063baf3292d146103e4578063bb91c339146103db578063c0a23138146103d2578063c0b6f561146103c9578063c6fcfed0146103c0578063cbed8b9c146103b7578063d1deba1f146103ae578063d5a06adf146103a5578063d5b010f51461039c578063df2a5b3b14610393578063ea179b761461038a578063eb8d72b714610381578063f41b028214610378578063f5ecbdbc1461036f578063f698da2514610366578063f805c12c1461035d5763fa99018d1461035557600080fd5b61000e6135fc565b5061000e61352a565b5061000e613467565b5061000e613384565b5061000e613362565b5061000e613208565b5061000e6131b7565b5061000e6130c9565b5061000e612fc7565b5061000e612e38565b5061000e612cf2565b5061000e612bf7565b5061000e612b60565b5061000e612ab1565b5061000e612a26565b5061000e6129a9565b5061000e612938565b5061000e612919565b5061000e6128a8565b5061000e612862565b5061000e612840565b5061000e6127c5565b5061000e61270a565b5061000e6126c4565b5061000e612658565b5061000e6124c7565b5061000e612480565b5061000e612403565b5061000e612353565b5061000e6122e0565b5061000e6122c1565b5061000e612258565b5061000e61222e565b5061000e611fda565b5061000e611f56565b5061000e611f06565b5061000e611eaa565b5061000e611d90565b5061000e611d66565b5061000e611d3c565b5061000e611c9b565b5061000e611c5d565b5061000e611bb6565b5061000e611b8c565b5061000e6119ad565b5061000e611b34565b5061000e6118f7565b5061000e6118d1565b5061000e6118ad565b5061000e611739565b5061000e611580565b5061000e6114ef565b5061000e611458565b5061000e611415565b5061000e6113b2565b5061000e611393565b5061000e611365565b5061000e61131f565b5061000e61128b565b5061000e61124f565b5061000e6111cd565b5061000e610eae565b5061000e610d15565b5061000e610cb8565b5061000e610c56565b5061000e610c1c565b5061000e610b45565b5061000e610aee565b5061000e610a66565b5061000e610a2b565b5061000e610944565b5061000e61085b565b5061000e6107af565b5061000e61064a565b61ffff81160361000e57565b3590610605826105ee565b565b9181601f8401121561000e578235916001600160401b03831161000e576020838186019501011161000e57565b604435906001600160401b038216820361000e57565b503461000e57608036600319011261000e57600435610668816105ee565b6001600160401b039060243582811161000e57610689903690600401610607565b9290610693610634565b9160643590811161000e576106ac903690600401610607565b91907f00000000000000000000000000000000000000000000000000000000000000006001600160a01b0316330361076a5761072d6107359261073b9761072661070c6107078a61ffff166000526005602052604060002090565b611ac0565b8051908184149182610760575b508161073d575b50616ff2565b36916116e4565b9236916116e4565b926171f6565b005b905061074a3684866116e4565b6020815191012090602081519101201438610720565b1515915038610719565b60405162461bcd60e51b815260206004820152601e60248201527f4c7a4170703a20696e76616c696420656e64706f696e742063616c6c657200006044820152606490fd5b503461000e5760006020366003190112610858576004356107cf816105ee565b6107d761738a565b7f00000000000000000000000000000000000000000000000000000000000000006001600160a01b0316908290823b1561085457602461ffff918360405195869485936307e0db1760e01b85521660048401525af18015610847575b61083b575080f35b610844906115c1565b80f35b61084f613d9a565b610833565b5080fd5b80fd5b503461000e57600060203660031901126108585760043561087b816105ee565b61088361738a565b7f00000000000000000000000000000000000000000000000000000000000000006001600160a01b0316908290823b1561085457602461ffff918360405195869485936310ddb13760e01b85521660048401525af180156108475761083b575080f35b9181601f8401121561000e578235916001600160401b03831161000e576020808501948460051b01011161000e57565b602060031982011261000e57600435906001600160401b03821161000e57610940916004016108e6565b9091565b503461000e5761095336610916565b80156109d95760005b81811061099b57507fe8036d6fb143373f3ff63e551373f5fffe4267f6809bf6d3934014a18a9b38f691610996604051928392338461409e565b0390a1005b600190336000526109d360206002815260409081600020906109be85888a614086565b3560005252600020600160ff19825416179055565b0161095c565b6040516397983bdb60e01b8152600490fd5b6001600160a01b0381160361000e57565b60a43590610605826109eb565b3590610605826109eb565b8015150361000e57565b60c4359061060582610a14565b503461000e57604036600319011261000e5761073b600435610a4c816109eb565b60243590610a5982610a14565b610a6161738a565b613899565b503461000e57602036600319011261000e57600435610a84816109eb565b610a8c61738a565b6001600160a01b03168015610adc576020817f8cffb07faa2874440346743bdc0a86b06c3335cc47dc49b327d10e77b73ceb10926001600160601b0360a01b600f541617600f55604051908152a1005b604051630f966bcb60e41b8152600490fd5b503461000e57604036600319011261000e57600435610b0c816109eb565b60018060a01b0316600052600160205260406000206024356000526020526020604060002054604051908152f35b600091031261000e57565b503461000e5760008060031936011261085857610b6061738a565b60045460ff8160a01c166003811015610be6575b8015610bd45780610b86600192610c0a565b14610bc1575b506004805460ff60a01b191690557f8eca980489e87f7dba4f26917aa4bfc906eb3f2b4f7b4b9fd0ff2b8bb3e21ae38180a180f35b6001600160a01b03191660045538610b8c565b60405163ccf69db760e01b8152600490fd5b610bee610bf3565b610b74565b50634e487b7160e01b600052602160045260246000fd5b60031115610c1457565b610605610bf3565b503461000e57600036600319011261000e57602060ff60045460a01c16604051906003811015610c4a578152f35b610c52610bf3565b8152f35b503461000e57600036600319011261000e576011546040516001600160a01b039091168152602090f35b90604060031983011261000e57600435610c99816105ee565b91602435906001600160401b03821161000e5761094091600401610607565b503461000e57602061ffff610d06610ccf36610c80565b9390911660005260058452610cf1610cf8604060002060405192838092611a2a565b038261164d565b8481519101209236916116e4565b82815191012014604051908152f35b503461000e57600036600319011261000e57610d2f61738a565b600260ff60045460a01c166003811015610dab575b03610d9957600380546001600160a01b03191690556004805460ff60a01b19169055604051600081527f3edd90e7770f06fafde38004653b33870066c33bfc923ff6102acd601f85dfbc908060208101610996565b60405163022e289160e11b8152600490fd5b610db3610bf3565b610d44565b9081608091031261000e5790565b908161020091031261000e5790565b90815180825260208080930193019160005b828110610df5575050505090565b835185529381019392810192600101610de7565b6000915b60028310610e1a57505050565b81516001600160a01b031681526001929092019160209182019101610e0d565b6000915b60038310610e4b57505050565b600190825181526020809101920192019190610e3e565b93610e9d610e9260e095989794610e84610ea795610100808b528a0190610dd5565b9088820360208a0152610dd5565b976040870190610e09565b6080850190610e3a565b1515910152565b503461000e57606036600319011261000e5760046001600160401b03813581811161000e57610ee09036908401610db8565b9060243590811161000e57610ef89036908401610dc6565b9160443592610f06846109eb565b6040805191610f14836115fc565b81368437815193610f2485611617565b606036863730330361119d576000610f4661014084013561012085013561402c565b6080830135918261105c575050918184866110319795610fb46101a0610fa59c999701610fac610f9c610f96610f7c848a613cf6565b91906101808b0192610f8e848d613cf6565b929050614047565b88613cf6565b9e909288613cf6565b36916134c1565b9c36916134c1565b9960019861016086013591610fef610fd98e5b85610fd460c08c01613d2b565b613df0565b6020880152602088019060018060a01b03169052565b610ff887613936565b6110018161392c565b6110455761102796506001600160a01b0361101b82613d2b565b16611035575091613f25565b5195869586610e62565b0390f35b61103f9150613d2b565b91613f25565b505061103f6101006110579601613d2b565b611027565b61108061107984959697989994600052600e602052604060002090565b5460ff1690565b1561117e5761108e85613936565b6110af6110a586600052600e602052604060002090565b5460581c60ff1690565b146111735750806110d46110cd85600052600e602052604060002090565b5460601c90565b6110fc6110eb86600052600e602052604060002090565b5460a81b6001600160e01b03191690565b82885160208101928352611126816111188b8a60248401613bb1565b03601f19810183528261164d565b51925af1611132613c07565b901561116b579285876110319794610fef979461115c88602080610fd99e9b518301019101613ca0565b9e9293919e9b909e9d8e610fc7565b602081519101fd5b63ab9848468252601cfd5b8551636b9e163560e11b815290810184815281906020010390fd5b0390fd5b606490602084519162461bcd60e51b8352820152600a60248201526909edcd8f2409edadcd2f60b31b6044820152fd5b503461000e576111dc36610c80565b91906111e661738a565b7f00000000000000000000000000000000000000000000000000000000000000006001600160a01b031691823b1561000e57604051928380926342d65a8d60e01b82528161123d600098899788946004850161704d565b03925af180156108475761083b575080f35b503461000e57600036600319011261000e5760206040517f53849a1acec87308423850dccd979fc7a4b74b75a79b19c3b98ec8df38a599db8152f35b503461000e57602036600319011261000e576004356112a9816105ee565b6112b161738a565b61ffff8116906109c4821161130d57600f805461ffff60a01b191660a09290921b61ffff60a01b169190911790556040519081527fcaba16bb74e50491b14ebf4755083b43aaf56a765134681af613a2ef8d732f4f90602090a1005b6040516397d7dcfb60e01b8152600490fd5b503461000e57600036600319011261000e576040517f00000000000000000000000000000000000000000000000000000000000000006001600160a01b03168152602090f35b503461000e57600036600319011261000e5760095460405160089190911c6001600160a01b03168152602090f35b503461000e57600036600319011261000e576020601454604051908152f35b503461000e57602036600319011261000e577fdca612ba3556b7c2603089071be1feb2404df55dcabceee9d5fd852fdb39bc3460206004356113f381610a14565b6113fb61738a565b151560ff196009541660ff821617600955604051908152a1005b503461000e57602036600319011261000e57600435611433816109eb565b60018060a01b0316600052600b602052602060ff604060002054166040519015158152f35b503461000e576000806003193601126108585761147361738a565b60045460ff8160a01c1660038110156114d4575b6114c25760ff60a01b1916600160a11b176004557f3ff05a45e46337fa1cbf20996d2eeb927280bce099f37252bcca1040609604ec8180a180f35b604051633a76bcd760e11b8152600490fd5b6114dc610bf3565b611487565b9081604091031261000e5790565b503461000e5760a036600319011261000e576001600160401b0360043581811161000e57611521903690600401610db8565b60243582811161000e57611539903690600401610dc6565b60443583811161000e57611551903690600401610607565b9060643594851161000e5761156d61073b9536906004016114e1565b926084359461157b866109eb565b6140c0565b503461000e57600036600319011261000e57600f546040516001600160a01b039091168152602090f35b50634e487b7160e01b600052604160045260246000fd5b6001600160401b0381116115d457604052565b6115dc6115aa565b604052565b608081019081106001600160401b038211176115d457604052565b604081019081106001600160401b038211176115d457604052565b606081019081106001600160401b038211176115d457604052565b60c081019081106001600160401b038211176115d457604052565b90601f801991011681019081106001600160401b038211176115d457604052565b6040519060e082018281106001600160401b038211176115d457604052565b6040519061020082018281106001600160401b038211176115d457604052565b6040519061060582611617565b6020906001600160401b0381116116d7575b601f01601f19160190565b6116df6115aa565b6116cc565b9291926116f0826116ba565b916116fe604051938461164d565b82948184528183011161000e578281602093846000960137010152565b9080601f8301121561000e57816020611736933591016116e4565b90565b503461000e57608036600319011261000e576117566004356105ee565b6001600160401b0360243581811161000e5761177690369060040161171b565b5061177f610634565b5060643581811161000e5761179890369060040161171b565b903033036118695781516020830190830190836020830192036020811261000e57600160ff6117c6846172a5565b16146117ce57005b60e01361000e576117de906172a5565b5060408301516117ed816109eb565b6060840151906117fc82613486565b60808501519161180b836109eb565b60a08601519461181a866109eb565b60c087015181811161000e57856020611835928a0101613c37565b9460e088015191821161000e5760206118539261073b990101613c37565b946001600160a01b039081169381169216616bbe565b606460405162461bcd60e51b815260206004820152602060248201527f4c7a52656365697665723a2063616c6c6572206d757374206265204c7a4170706044820152fd5b503461000e57600036600319011261000e57602060ff600954166040519015158152f35b503461000e57600036600319011261000e57602061ffff600f5460a01c16604051908152f35b503461000e57600036600319011261000e57600454600160ff8260a01c1661191e81610c0a565b0361199b576001600160a01b0316330361198957600380546001600160a01b03191633908117909155600480546001600160a81b03191690556040519081527f3edd90e7770f06fafde38004653b33870066c33bfc923ff6102acd601f85dfbc908060208101610996565b6040516357ee7dc960e11b8152600490fd5b604051632f27941360e11b8152600490fd5b503461000e57602036600319011261000e576004356119cb816109eb565b60018060a01b0316600052600c602052602060ff604060002054166040519015158152f35b90600182811c92168015611a20575b6020831014611a0a57565b634e487b7160e01b600052602260045260246000fd5b91607f16916119ff565b9060009291805491611a3b836119f0565b918282526001938481169081600014611a9d5750600114611a5d575b50505050565b90919394506000526020928360002092846000945b838610611a89575050505001019038808080611a57565b805485870183015294019385908201611a72565b9294505050602093945060ff191683830152151560051b01019038808080611a57565b90610605611ad49260405193848092611a2a565b038361164d565b60005b838110611aee5750506000910152565b8181015183820152602001611ade565b90602091611b1781518092818552858086019101611adb565b601f01601f1916010190565b906020611736928181520190611afe565b503461000e57602036600319011261000e5761ffff600435611b55816105ee565b166000526005602052611031610cf1611b78604060002060405192838092611a2a565b604051918291602083526020830190611afe565b503461000e57600036600319011261000e576004546040516001600160a01b039091168152602090f35b503461000e57611bc536610916565b80156109d95760005b818110611c0857507f0560c6093fba8a508d0e6ea3b4d7260d7afa9b152731f03a2d05dfe39b0ec42591610996604051928392338461409e565b33600052600190611c5760208381526040908160002090611c2a85888a614086565b35600052526000207f53849a1acec87308423850dccd979fc7a4b74b75a79b19c3b98ec8df38a599db9055565b01611bce565b503461000e57602036600319011261000e57600435611c7b816109eb565b60018060a01b0316600052600a6020526020604060002054604051908152f35b503461000e5760c036600319011261000e576001600160401b0360243581811161000e57611ccd903690600401610db8565b9060443590811161000e57611ce6903690600401610dc6565b60643591611cf3836109eb565b608435611cff816109eb565b303303611d2a5761103193611d1a9360a435936004356154b0565b6040519081529081906020820190565b60405163a78d09b960e01b8152600490fd5b503461000e57600036600319011261000e576010546040516001600160a01b039091168152602090f35b503461000e57604036600319011261000e576020611d88602435600435613644565b604051908152f35b503461000e5760008060031936011261085857611dab61738a565b6012544614611e9857601960f91b6020604051611dc7816115fc565b600181520152611e6860405160208101907f8b73c3c69bb8fe3d512ecc4cf759cc79239f7b179b0ffacaa9a75d522b39400f82527f9e6bc51ef68b436657c5fe7a273ea9121a02b234cc81ad1e04892649c9168c6a60408201527fad7c5bef027816a800da1736444fb58a807ef4c9603b7848673f7e3a68eb14a560608201524660808201523060a082015260a08152611e6081611632565b519020601555565b611e7146601255565b7f5b2d1f36cd3ec425baab07b99853532e2ba6387a472ddbff437c5cc96f2f20ca8180a180f35b60405163a69915e560e01b8152600490fd5b503461000e57604036600319011261000e576020611efd600435611ecd816105ee565b61ffff60243591611edd836105ee565b166000526006835260406000209061ffff16600052602052604060002090565b54604051908152f35b503461000e57600036600319011261000e576003546040516001600160a01b039091168152602090f35b602090611f4a928260405194838680955193849201611adb565b82019081520301902090565b503461000e57606036600319011261000e57600435611f74816105ee565b602435906001600160401b03821161000e5761ffff611f9a611faf93369060040161171b565b91166000526008602052604060002090611f30565b6044356000526020526020604060002054604051908152f35b6001600160e01b031981160361000e57565b503461000e5760c036600319011261000e57600435611ff8816105ee565b60243590612005826105ee565b60443591612012836105ee565b6064359261201f84611fc8565b60843561202b81610a14565b60a43590612038826109eb565b61204061738a565b61ffff808416818616818111928315612222575b50508115612216575b50612204576001600160e01b03198616156121f2576040516345b2b38160e01b81526020816004816001600160a01b0387165afa9081156121e5575b6000916121b7575b50156121a5577f5290475107686ff8d28cd104943b127d453b23622ac55346373fa25c0c8957a2956109969361213c6120d861166e565b6001815261ffff8916602082015261ffff8816604082015261ffff831660608201526001600160e01b03198416608082015284151560a08201526001600160a01b03861660c0820152612137600d54600052600e602052604060002090565b616a51565b600d549561215161214c88616b5c565b600d55565b6040805197885261ffff98891660208901529088169087015290951660608501526001600160e01b0319909416608084015292151560a08301526001600160a01b0390921660c082015290819060e0820190565b60405163ef8c37d760e01b8152600490fd5b6121d8915060203d81116121de575b6121d0818361164d565b8101906150d0565b386120a1565b503d6121c6565b6121ed613d9a565b612099565b604051636168384960e11b8152600490fd5b60405163b704b7c160e01b8152600490fd5b6101f49150113861205d565b88161191503880612054565b503461000e57600036600319011261000e576007546040516001600160a01b039091168152602090f35b503461000e57602036600319011261000e5760043561227561738a565b6108fc81106122af576020817ffc3a20d07f3d5bcc0b01a52011f630765611323fa9afa69f63ba2aa19f7364b692601655604051908152a1005b6040516356b68a6b60e11b8152600490fd5b503461000e57600036600319011261000e576020601254604051908152f35b503461000e5760c036600319011261000e576004356122fe816109eb565b60243561230a816109eb565b60643590612317826105ee565b608435612323816105ee565b60a435926001600160401b03841161000e57602094612349611d8895369060040161171b565b936044359161514c565b503461000e57602036600319011261000e5761ffff600435612374816105ee565b166000526005602052610cf1612394604060002060405192838092611a2a565b8051156123be576123b2816123ac6110319351613f09565b90617139565b60405191829182611b23565b60405162461bcd60e51b815260206004820152601d60248201527f4c7a4170703a206e6f20747275737465642070617468207265636f72640000006044820152606490fd5b503461000e57602036600319011261000e577fa92d85531a006d07fd0df4c61259b6dc18e4f492857e2454e5a20ee5e55cddcc6020600435612444816109eb565b61244c61738a565b60098054610100600160a81b031916600883901b610100600160a81b03161790556040516001600160a01b039091168152a1005b503461000e57602036600319011261000e5760043561249e816109eb565b60018060a01b031660005260006020526040806000206001815491015482519182526020820152f35b503461000e576124d636610c80565b91906124e061738a565b60405191602084838286013761250b6034858781013060601b8582015203601481018752018561164d565b60009361ffff831685526005825260408520918151916001600160401b03831161264b575b6125448361253e86546119f0565b86617068565b81601f84116001146125b5575091806125a494928899947f8c0400cfe2d1199b1a725c78960bcc2a344d869b80590d0f2bd005db15a572ce99926125aa575b50508160011b916000199060031b1c19161790555b6040519384938461704d565b0390a180f35b015190503880612583565b9190601f1984166125cb86600052602060002090565b9389905b8282106126335750509260019285927f8c0400cfe2d1199b1a725c78960bcc2a344d869b80590d0f2bd005db15a572ce9a9b966125a498961061261a575b505050811b019055612598565b015160001960f88460031b161c1916905538808061260d565b806001869782949787015181550196019401906125cf565b6126536115aa565b612530565b503461000e5760c036600319011261000e576126756004356105ee565b6001600160401b0360243581811161000e5761269590369060040161171b565b506126a16064356109eb565b60a43590811161000e576126bc61073b91369060040161171b565b608435616492565b503461000e57600036600319011261000e576040517f00000000000000000000000000000000000000000000000000000000000000006001600160a01b03168152602090f35b503461000e57604036600319011261000e57600435612728816109eb565b6009546024359060081c6001600160a01b031633036127b35761271081116127a1576001600160a01b03919091166000818152600a602090815260409182902084905581519283528201929092527fa16126d9473196242b0784325b30642b89f34442dd178a852f5b88ee483a30d89181908101610996565b604051632242dac960e01b8152600490fd5b604051639f63004360e01b8152600490fd5b503461000e57608036600319011261000e576001600160401b0360043581811161000e576127f7903690600401610db8565b9060243590811161000e5760609161281661282d923690600401610dc6565b9060643591612824836109eb565b60443591614c3f565b9060405192835260208301526040820152f35b503461000e57602036600319011261000e5761285a61738a565b600435601355005b503461000e57600036600319011261000e576040517f00000000000000000000000000000000000000000000000000000000000000006001600160a01b03168152602090f35b503461000e57602036600319011261000e577fa7014d98341b07b23615cb6b4da7cca2a381932b46fb39ca4b8c3875c53aa76460206004356128e9816109eb565b6128f161738a565b601080546001600160a01b0319166001600160a01b03929092169182179055604051908152a1005b503461000e57600036600319011261000e576020601354604051908152f35b503461000e57602036600319011261000e577f5db758e995a17ec1ad84bdef7e8c3293a0bd6179bcce400dff5d4c3d87db726b6020600435612979816109eb565b61298161738a565b600780546001600160a01b0319166001600160a01b03929092169182179055604051908152a1005b503461000e57602036600319011261000e57600435600052600e60205260e06040600020546040519060ff81161515825261ffff808260081c166020840152808260181c1660408401528160281c16606083015263ffffffff831b8160a81b16608083015260ff8160581c16151560a083015260601c60c0820152f35b5060c036600319011261000e576001600160401b0360243581811161000e57612a53903690600401610db8565b60443582811161000e57612a6b903690600401610dc6565b60643583811161000e57612a83903690600401610607565b9060843594851161000e57612a9f61073b9536906004016114e1565b92612aa86109fc565b946004356142ef565b503461000e57602036600319011261000e57600435612acf816109eb565b612ad761738a565b60045460ff8160a01c166003811015612b53575b6114c2576001600160a81b0319166001600160a01b03821617600160a01b176004557fb86c75c9bffca616b2d314cc914f7c3f1d174255b16b941c3f3ededee276d5ef9061099690604080513381526001600160a01b03909216602083015290918291820190565b612b5b610bf3565b612aeb565b5060e036600319011261000e576001600160401b0360243581811161000e57612b8d9036906004016108e6565b60443583811161000e57612ba59036906004016108e6565b9060643585811161000e57612bbe9036906004016108e6565b9060843596871161000e57612bda61073b9736906004016108e6565b949093612be56109fc565b96612bee610a1e565b986004356143d4565b503461000e57608036600319011261000e57600435612c15816105ee565b602435612c21816105ee565b6064356001600160401b03811161000e57612c40903690600401610607565b9092612c4a61738a565b7f00000000000000000000000000000000000000000000000000000000000000006001600160a01b031690813b1561000e5760008094612cc1604051978896879586946332fb62e760e21b865261ffff80921660048701521660248501526044356044850152608060648501526084840191613971565b03925af18015612ce5575b612cd257005b80612cdf61073b926115c1565b80610b3a565b612ced613d9a565b612ccc565b50608036600319011261000e57600435612d0b816105ee565b6001600160401b0360243581811161000e57612d2b90369060040161171b565b612d33610634565b9160643590811161000e57612d4c903690600401610607565b919093612db3612d8f85612d77612d718561ffff166000526008602052604060002090565b86611f30565b906001600160401b0316600052602052604060002090565b54612d9b8115156172b3565b612da63686896116e4565b60208151910120146172ff565b600094859384612dde87612d77612dd88761ffff166000526008602052604060002090565b88611f30565b55303b15612e3457612e05916040519687958695633356ae4560e11b87526004870161734b565b038183305af18015612e27575b612e1a575080f35b80612cdf610844926115c1565b612e2f613d9a565b612e12565b8480fd5b503461000e57608036600319011261000e57600435602435612e5981610a14565b60443591612e66836105ee565b60643592612e73846105ee565b612e7b61738a565b600d54821015612fb557612eb1612eaa612e9f84600052600e602052604060002090565b5460281c61ffff1690565b61ffff1690565b61ffff90818616908111918215612fa9575b5050612204577f3b25bf77fa688236b850bf89c87e353098688237aa18dc42593aff0f6387aea99361099691612f1885612f0786600052600e602052604060002090565b9060ff801983541691151516179055565b612f4881612f3086600052600e602052604060002090565b9062ffff0082549160081b169062ffff001916179055565b612f7c82612f6086600052600e602052604060002090565b9064ffff00000082549160181b169064ffff0000001916179055565b6040519485948592909493606092608085019685521515602085015261ffff809216604085015216910152565b83161190503880612ec3565b60405163bd7056c760e01b8152600490fd5b503461000e57604036600319011261000e577fb738dd6073fae1a7128e3fcc6b4ca6e1356b7232f87cc98f8a2857bcd83dfc4460043561300681610a14565b60243561301281610a14565b60001943014381116130bc575b336000908152602081905260409020805492914060801c91906001015493613099575b613067575b506040805133815260208101929092528101919091528060608101610996565b613071919261401f565b908160016130913360018060a01b03166000526000602052604060002090565b015538613047565b91816130a49161401f565b33600090815260208190526040902081905591613042565b6130c4613da7565b61301f565b503461000e57606036600319011261000e576004356130e7816105ee565b6024356130f3816105ee565b604435916130ff61738a565b821561317a576109967f9d5c7c0b934da8fefa9c7760c98383778a12dfbfc0c3b3106518f43fb9508ac09361ffff83166000526006602052806131548560406000209061ffff16600052602052604060002090565b556040519384938460409194939294606082019561ffff80921683521660208201520152565b60405162461bcd60e51b81526020600482015260156024820152744c7a4170703a20696e76616c6964206d696e47617360581b6044820152606490fd5b503461000e57604036600319011261000e576004356131d5816109eb565b60018060a01b031660005260026020526040600020602435600052602052602060ff604060002054166040519015158152f35b503461000e5761321736610c80565b919061322161738a565b60009161ffff8116835260206005815260408420906001600160401b038611613355575b6132598661325384546119f0565b84617068565b8490601f87116001146132c15750946125a4918186977ffa41487ad5d6728f0b19276fa1eddc16558578f5109fc39d2dc33c3230470dab97916132b6575b508260011b906000198460031b1c19161790556040519384938461704d565b905085013538613297565b90601f1987166132d684600052602060002090565b9287905b82821061333d575050916125a49391887ffa41487ad5d6728f0b19276fa1eddc16558578f5109fc39d2dc33c3230470dab98999410613323575b5050600182811b019055612598565b860135600019600385901b60f8161c191690553880613314565b80600185968294968b013581550195019301906132da565b61335d6115aa565b613245565b503461000e57602036600319011261000e5761337c61738a565b600435601455005b503461000e57608036600319011261000e576110316004356133a5816105ee565b602435906133b2826105ee565b6133bd6044356109eb565b604051633d7b2f6f60e21b815261ffff91821660048201529116602482015230604482015260648035908201526000816084817f00000000000000000000000000000000000000000000000000000000000000006001600160a01b03165afa90811561345a575b600091613439575b5060405191829182611b23565b613454913d8091833e61344c818361164d565b810190615c97565b3861342c565b613462613d9a565b613424565b503461000e57600036600319011261000e576020601554604051908152f35b6002111561000e57565b359061060582613486565b6020906001600160401b0381116134b4575b60051b0190565b6134bc6115aa565b6134ad565b92916134cc8261349b565b916134da604051938461164d565b829481845260208094019160051b810192831161000e57905b8282106135005750505050565b813581529083019083016134f3565b9080601f8301121561000e57816020611736933591016134c1565b503461000e5760c036600319011261000e57600435613548816109eb565b60243561355481613486565b604435613560816109eb565b60643561356c816109eb565b6001600160401b039160843583811161000e5761358d90369060040161350f565b9260a43590811161000e576135a690369060040161350f565b933033036135b75761073b95616bbe565b60405162461bcd60e51b815260206004820152601e60248201527f5f7472616e736665724e46544c7a3a20696e76616c69642063616c6c657200006044820152606490fd5b503461000e57602036600319011261000e5760043561361a816109eb565b61362261738a565b601180546001600160a01b0319166001600160a01b0392909216919091179055005b906001810361369957506111186136937f9661287f7a4aa4867db46a2453ee15bebac4e8fc25667a58718da658f15de643925b6040805160208101958652908101919091529182906060820190565b51902090565b600281036136cf57506111186136937fa54ab330ea9e1dfccee2b86f3666989e7fbd479704416c757c8de8e820142a0892613677565b6003810361370557506111186136937f93390f5d45ede9dea305f16aec86b2472af4f823851637f1b7019ad0775cea4992613677565b6004810361373b57506111186136937f9dda2c8358da895e43d574bb15954ce5727b22e923a2d8f28261f297bce42f0b92613677565b6005810361377157506111186136937f92dc717124e161262f9d10c7079e7d54dc51271893fba54aa4a0f270fecdcc9892613677565b600681036137a757506111186136937fce02aee5a7a35d40d974463c4c6e5534954fb07a7e7bc966fee268a15337bfd892613677565b600781036137dd57506111186136937ff7a65efd167a18f7091b2bb929d687dd94503cf0a43620487055ed7d6b72755992613677565b6008810361381357506111186136937fdef24acacad1318b664520f7c10e8bc6d1e7f6f6f7c8b031e70624ceb42266a692613677565b6009810361384957506111186136937f4cb4080dc4e7bae88b4dc4307ad5117fa4f26195998a1b5f40368809d7f4c7f292613677565b600a810361387f57506111186136937ff8b1f864164d8d6e0b45f1399bd711223117a4ab0b057a9c2d7779e86a7c88db92613677565b6040516375dec1c560e11b81526004810191909152602490fd5b907fba28eda47a2e15b1dd3269e6d82f66730d20a5661aa40e9faf9f311c7872a543604060018060a01b0384169283600052600b6020526138e981836000209060ff801983541691151516179055565b81519084825215156020820152a180156139285761390961060592616d20565b90600052600c60205260406000209060ff801983541691151516179055565b5050565b60021115610c1457565b3561173681613486565b9035601e198236030181121561000e5701602081359101916001600160401b03821161000e57813603831361000e57565b908060209392818452848401376000828201840152601f01601f1916010190565b9060806139e96117369380356139a7816109eb565b6001600160a01b03908116855260208201356139c2816109eb565b16602085015261ffff60408201356139d9816105ee565b1660408501526060810190613940565b9190928160608201520191613971565b90613a038261392c565b52565b9035601e198236030181121561000e5701602081359101916001600160401b03821161000e578160051b3603831361000e57565b81835290916001600160fb1b03831161000e5760209260051b809284830137010190565b61173691613a7481613a6f84613490565b6139f9565b60208201356020820152604082013560408201526060820135606082015260808201356080820152613ab5613aab60a08401613490565b60a08301906139f9565b613ad4613ac460c08401610a09565b6001600160a01b031660c0830152565b613af3613ae360e08401610a09565b6001600160a01b031660e0830152565b613b13610100613b04818501610a09565b6001600160a01b031690830152565b610120808301359082015261014080830135908201526101608083013590820152613b77613b5b610180613b4981860186613a06565b90916102008091870152850191613a3a565b6101a0613b6a81860186613a06565b9185840390860152613a3a565b91613b936101c0613b898184016105fa565b61ffff1690840152565b613ba36101e09182810190613940565b929091818503910152613971565b9091613bc861173693604084526040840190613992565b916020818403910152613a5e565b60405190602082018281106001600160401b03821117613bfa575b60405260008252565b613c026115aa565b613bf1565b3d15613c32573d90613c18826116ba565b91613c26604051938461164d565b82523d6000602084013e565b606090565b81601f8201121561000e57805191613c4e8361349b565b92613c5c604051948561164d565b808452602092838086019260051b82010192831161000e578301905b828210613c86575050505090565b81518152908301908301613c78565b519061060582610a14565b60808183031261000e578051926020820151926001600160401b039384811161000e5781613ccf918501613c37565b93604084015190811161000e57606091613cea918501613c37565b92015161173681610a14565b903590601e198136030182121561000e57018035906001600160401b03821161000e57602001918160051b3603831361000e57565b35611736816109eb565b50634e487b7160e01b600052603260045260246000fd5b5190610605826109eb565b919082604091031261000e5760208251613d70816109eb565b92015190565b611736939260609260018060a01b0316825260208201528160408201520190610dd5565b506040513d6000823e3d90fd5b50634e487b7160e01b600052601160045260246000fd5b9061271091828102928184041490151715613dd557565b610605613da7565b81810292918115918404141715613dd557565b6010546000948594909391613e15906001600160a01b03165b6001600160a01b031690565b6001600160a01b0393818516613e2d575b5050505050565b613e56975083949650926040938451988994859384936370c1092160e01b855260048501613d76565b03915afa8015613efc575b6000948591613ec8575b508093851615600014613e89575060009250505b3880808080613e26565b613e95613eb091613dbe565b91613eaa612eaa600f5461ffff9060a01c1690565b90613ddd565b1015613e7f576040516397d7dcfb60e01b8152600490fd5b9050613eec91945060403d8111613ef5575b613ee4818361164d565b810190613d57565b93909338613e6b565b503d613eda565b613f04613d9a565b613e61565b601319810191908211613dd557565b91908203918211613dd557565b906106059492939180600052600e6020526127109061ffff9082613f538360406000205460181c1686613ddd565b049260208601928351928315600014613f8b575050505050613f7a91816040850152613f18565b90526001600160a01b039091169052565b613f7a9693949592916040613fb0926000908152600e602052205460081c1684613ddd565b049281818501808611614004575b10613fe1575b5050613fd99192604086019384525190613f18565b905190613f18565b613fd993508103908111613ff7575b9138613fc4565b613fff613da7565b613ff0565b61400c613da7565b613fbe565b90601f8201809211613dd557565b91908201809211613dd557565b9042119042101761403957565b637476320f6000526004601cfd5b9060009281188115176140795760051b90815b61406357505050565b601f19808301928201013515614079578161405a565b632e0c0f7183526004601cfd5b91908110156140965760051b0190565b6134bc613d35565b6001600160a01b03909116815260406020820181905261173693910191613a3a565b949193909294601054600260ff8260a01c16146141b85760ff60a01b1916600160a11b1760105560e0840135936140f6856109eb565b6001600160a01b0385166000818152600b602052604090205460ff161561411c565b1590565b9081156141af575b5061419d5761415c61416f936141889861414661414136866141ca565b616e7e565b986101008501996141568b613d2b565b93616314565b61416961414136836141ca565b916149f1565b9261418261417c82613d2b565b91613d2b565b926159f9565b6010805460ff60a01b1916600160a01b179055565b604051634f79548760e01b8152600490fd5b90501538614124565b604051630ddf739360e11b8152600490fd5b91906102008382031261000e576141df61168d565b926141e981613490565b84526020810135602085015260408101356040850152606081013560608501526080810135608085015261421f60a08201613490565b60a085015261423060c08201610a09565b60c085015261424160e08201610a09565b60e0850152610100614254818301610a09565b908501526101208181013590850152610140808201359085015261016080820135908501526001600160401b03916101808083013584811161000e578261429c91850161350f565b908601526101a08083013584811161000e57826142ba91850161350f565b908601526101c06142cc8184016105fa565b908601526101e0928383013590811161000e576142e9920161171b565b90830152565b939490929194601054600260ff8260a01c16146141b85760ff60a01b1916600160a11b1760105560e086013594614325866109eb565b6001600160a01b0386166000908152600b602052604090205460ff161561419d5761439b6101c061439460409361437c6143a297612eaa9761ffff9a8e61415661010061437561414136856141ca565b9201613d2b565b8b61438a614141368e6141ca565b918c8b33926154b0565b98016143ca565b94016143ca565b9116146143b5575b5050506141886175ed565b6143c292339133906159f9565b3880806143aa565b35611736816105ee565b93979295909a9998969491601054600260ff8260a01c16146141b85760ff60a01b1916600160a11b1760105580158015614696575b6109d95760e09b6144248d61441e8c8b6146a9565b01613d2b565b996144476141186110798d60018060a01b0316600052600b602052604060002090565b61419d5760009b1561455b5797969594939291906000985b828a1061448857505050505050505050506144809394505b339133906159f9565b6141886175ed565b9091929394959697989b888f898f918a8f938f908b8b8b8f94848d6144ac926146d3565b9684614520575b50936144f48460019c9a97946144ee826144da6145109f9c996145039861450a9f9c614704565b976144e8614141368c6141ca565b9c614734565b93614764565b90886141566101008801613d2b565b33926154b0565b9061401f565b9c0198979695949392919061445f565b9750505050505050809350614536925001613d2b565b6001600160a01b03808f1691160361419d578f898f928a8f938e958b8b8b8f946144b3565b8b9d96949392919d5b8281106145805750505050505050505050614480939450614477565b848f888b8e858f89614594838b8e946146d3565b9683614661575b926145fc98926144ee826145b6816145ca966145d999614704565b996145c4614141368e6141ca565b99614734565b90856141566101008a01613d2b565b6040519485928392637c22dc8560e01b84528d60209788973392600488016147c2565b03816000305af1918291600093614632575b505061461e575b50600101614564565b61462b906001929e61401f565b9c90614615565b614652929350803d1061465a575b61464a818361164d565b8101906147b3565b90388061460e565b503d614640565b505050505050509050614675898201613d2b565b6001600160a01b03808f1691160361419d578f90888b8e8589898c9761459b565b50808418818318828b1817171515614409565b90156146c6575b8035906101fe198136030182121561000e570190565b6146ce613d35565b6146b0565b91908110156146f7575b60051b810135906101fe198136030182121561000e570190565b6146ff613d35565b6146dd565b9190811015614727575b60051b81013590607e198136030182121561000e570190565b61472f613d35565b61470e565b9190811015614757575b60051b81013590603e198136030182121561000e570190565b61475f613d35565b61473e565b91908110156147a6575b60051b81013590601e198136030182121561000e5701908135916001600160401b03831161000e57602001823603811361000e579190565b6147ae613d35565b61476e565b9081602091031261000e575190565b926147e560a095936147f39399989799865260c0602087015260c0860190613992565b908482036040860152613a5e565b95600180851b0380921660608401521660808201520152565b9080601f8301121561000e576040519161482583611617565b82906060810192831161000e57905b8282106148415750505090565b8151815260209182019101614834565b6101008183031261000e578051906001600160401b039182811161000e578361487b918301613c37565b936020928383015190811161000e5784614896918401613c37565b9380605f8401121561000e576040516148ae816115fc565b60808401948183871161000e5760408601905b8782106148e2575050506148db6117369260e0929661480c565b9301613c95565b82809183516148f0816109eb565b8152019101906148c1565b9161492590614917604093969596606086526060860190613992565b908482036020860152613a5e565b6001600160a01b03909416910152565b956149bd906149ad6149ea976149de976106059d9f9e9c97614998906149886149cf996101809f998f60406060928051835260208101516020840152015115156040820152019060018060a01b03169052565b6001600160a01b031660808d0152565b60a08b01526001600160a01b031660c08a0152565b6001600160a01b031660e0880152565b6101e080610100880152860190610dd5565b90848203610120860152610dd5565b96610140830190610e09565b0190610e3a565b91906149fc81613936565b614a058161392c565b614c2d57614a166101008201613d2b565b6001600160a01b038116600090815260016020526040902090929093614a4b6060840135809690600052602052604060002090565b546001600160a01b03851660009081526020819052604090205460208501351490811591614bf0575b8115614bd0575b50614bbe57614aa59460405191630fd9bb6960e21b835282806000988993883391600485016148fb565b038183305af18015614bb1575b869087928894898093614b82575b50509081614ad4878b979695948b85616289565b60c0880191614ae283613d2b565b85858c33614af260a08f01613936565b614afb95616bbe565b60e08901918a614b0a84613d2b565b90614b16918a8a615bfb565b614b1e6116ad565b988952602089015215156040880152614b3690613d2b565b90614b4090613d2b565b906040519860808a9901359033614b57998b614935565b037f9aaa45d6db2ef74ead0751ea9113263d1dec1b50cea05f0ca2002cb8063564a491a16040015190565b93509350975050614ba592503d8091833e614b9d818361164d565b810190614851565b90979193918838614ac0565b614bb9613d9a565b614ab2565b604051631782f9fd60e31b8152600490fd5b9050828115159182614be5575b505038614a7b565b141590508238614bdd565b9050614c27611079614c148760018060a01b03166000526002602052604060002090565b6040870135600052602052604060002090565b90614a74565b60405163d641ac7b60e01b8152600490fd5b6000948594859491939060018235614c5681613486565b614c5f8161392c565b14614c6a5750505050565b9083614cca94985081959750614c819396506153dc565b60e0830135614c8f816109eb565b61010084013590614c9f826109eb565b604088013590614cae826105ee565b6101c086013592614cbe846105ee565b6101608701359161514c565b936000928515614cdf575b5050509190600090565b614ce99350614ffa565b5050388080614cd5565b91906001600160fb1b03811161000e5760051b809282370190565b600181526001600160a01b0391821660208201529181166040830152909116606082015260c060808201819052611736939192614d4d91840190611afe565b9160a0818403910152611afe565b919082604091031261000e576020825192015190565b92611736949261ffff614d9f9316855260018060a01b0316602085015260a0604085015260a0840190611afe565b91600060608201526080818403910152611afe565b916040614dc28185016143ca565b936101c084019461ffff614dd8612eaa886143ca565b911614614fde576060936001614ded82613936565b614df68161392c565b14614f26575b5050838184614e87614e33614e2e610707614e1a614e749a9b6143ca565b61ffff166000526005602052604060002090565b616cd0565b93614e826013548551998a978892602084019091605692600160f11b83526002830152600060228301526001600160601b03199060601b1660428201520190565b03601f19810187528661164d565b6143ca565b614ea68351948593849363040a7bb160e41b8552309060048601614d71565b03817f00000000000000000000000000000000000000000000000000000000000000006001600160a01b03165afa918215614f19575b600092614eeb575b5050929190565b614f0a9250803d10614f12575b614f02818361164d565b810190614d5b565b503880614ee4565b503d614ef8565b614f21613d9a565b614edc565b614e74945080614f3b60c0614fd79301613d2b565b614fcb614fbd614f9c614f5a614f546101008701613d2b565b97613d2b565b614f68610180870187613cf6565b614f7d8b949294519485926020840191614cf3565b0396614f91601f199889810186528561164d565b6101a0810190613cf6565b614fb18b959295519586926020840191614cf3565b0387810185528461164d565b885197889560208701614d0e565b0390810183528261164d565b9238614dfc565b5050915050614feb613bd6565b90614ff4613bd6565b60009291565b9290919260409061500c8285016143ca565b936101c086019461ffff615022612eaa886143ca565b9116146150c257606095600161503782613936565b6150408161392c565b146150a7575b50508185614e8761505f614e2e610707614e1a8a6143ca565b6013548451600160f11b60208201526022810191909152604281019590955260601b6bffffffffffffffffffffffff191660628501529295869390614e828560768101614e74565b6150ba91929650614f3b60c08201613d2b565b933880615046565b505050915050614feb613bd6565b9081602091031261000e575161173681610a14565b611736939261ffff60609316825260018060a01b031660208201528160408201520190611afe565b93615132614d4d9361ffff61173698969416875260c0602088015260c0870190611afe565b916040860152600060608601528482036080860152611afe565b9094926001600160a01b0382169182156153d0576001600160a01b0381166000908152600c6020526040902061518190611079565b1561526e575061ffff8086169116146000146151a1575050505050600090565b6152076151d39461522f601454956152136040998a9889519a8b9160208301602291600160f11b825260028201520190565b03906151e7601f19928381018d528c61164d565b8951968791602083016014916001600160601b03199060601b1681520190565b0390810186528561164d565b86516306f7707960e41b8152978896879586956004870161510d565b03915afa918215615261575b60009261524757505090565b61525d9250803d10614f1257614f02818361164d565b5090565b615269613d9a565b61523b565b9250849594915061ffff8083169116141591826153ae575b82615311575b505061529a57505050600090565b6011546152d59360409390916152b8906001600160a01b0316613e09565b91845195869485938493631591f74960e11b8552600485016150e5565b03915afa908115615304575b6000916152ec575090565b61525d915060403d8111614f1257614f02818361164d565b61530c613d9a565b6152e1565b60115461536793506020929190615330906001600160a01b0316613e09565b60405163a4b2b31d60e01b81526001600160a01b03909216600483015261ffff909216602482015292839190829081906044820190565b03915afa9081156153a1575b600091615383575b50833861528c565b61539b915060203d81116121de576121d0818361164d565b3861537b565b6153a9613d9a565b615373565b6011549092506153c890613e09906001600160a01b031681565b151591615286565b50505050505050600090565b6111186117369293604051948593602085016148fb565b156153fa57565b60405162461bcd60e51b815260206004820152603a60248201527f4f6d6e695845786368616e67653a20496e73756666696369656e742076616c7560448201527f6520666f722063726f737320636861696e207472616e736665720000000000006064820152608490fd5b1561546c57565b606460405162461bcd60e51b815260206004820152602060248201527f4f6d6e695845786368616e67653a2043757272656e6379206d69736d617463686044820152fd5b919293949060016154c085613936565b6154c98161392c565b03614c2d5761550e6154fb6154e16101008701613d2b565b6001600160a01b0316600090815260016020526040902090565b6060860135600052602052604060002090565b54600161553b6155216101008801613d2b565b6001600160a01b0316600090815260208190526040902090565b015460208601351490811591615841575b8115615821575b50614bbe57604051630fd9bb6960e21b81529460008680615579338987600485016148fb565b038183305af1928315615814575b6000926000946000966000996000926157d4575b509383836156c088948d9860409f9b6157029b7f3ee3de4684413690dee6fff1a0a4f92916a1b97d1c5a83cdf24671844306b2e39f60809f9b9a819f8d8f8c92879f6155f99060608801356155f36101008a01613d2b565b8d616289565b6156066101c087016143ca565b90615613604087016143ca565b9061ffff83811690831603615728575050506156a397509061566e929161566860e08701615663615652613e09602061564b85613d2b565b9a01613d2b565b6001600160a01b0398891614615465565b613d2b565b91615bfb565b61567a60c08301613d2b565b9161568d61010061437560a08401613936565b916156978a613d2b565b16615719578a92616bbe565b6156ab6116ad565b93845260608b0135602085015215158e840152565b6001600160a01b036156d182613d2b565b1661570a575081905b6156e660e08a01613d2b565b916156f360c08b01613d2b565b938e519b8c9b0135928b614935565b0390a1015190565b61571390613d2b565b906156da565b61572289613d2b565b92616bbe565b95879950869298506157589450615747935096615750959a9197614c3f565b5081939161401f565b3410156153f3565b15615780575050509061577460e08361441e61577b95896158e5565b8b8b615bfb565b6156a3565b61577b94506157909084896153dc565b9261579d60208901613d2b565b906001600160a01b036157af8a613d2b565b166157c2576101608b915b013591615da3565b6101606157ce8a613d2b565b916157ba565b9150965087985083979550819994503d806000833e6157f3818361164d565b81016157fe91614851565b979c509a5096989697909691959194508761559b565b61581c613d9a565b615587565b9050828115159182615836575b505038615553565b14159050823861582e565b90506158866110796158736158596101008901613d2b565b6001600160a01b0316600090815260026020526040902090565b6040880135600052602052604060002090565b9061554c565b91926158b1611736969461ffff6158bf9416855260c0602086015260c0850190611a2a565b908382036040850152611afe565b6001600160a01b0390931660608201526000608082015280830360a09190910152611afe565b6101c08201916159026158fc8435614e1a816105ee565b546119f0565b156159aa5761591091614db4565b92907f00000000000000000000000000000000000000000000000000000000000000006001600160a01b031690615952614e1a61594c856143ca565b946143ca565b93823b1561000e5760009461597e6040519788968795869462c5803160e81b865233926004870161588c565b03925af1801561599d575b6159905750565b80612cdf610605926115c1565b6159a5613d9a565b615989565b60405162461bcd60e51b815260206004820152602160248201527f4c7a53656e643a206465737420636861696e206973206e6f74207472757374656044820152601960fa1b6064820152608490fd5b9193929083615a09575050505050565b613e7f946001600160a01b0380821680615a3b575b5050600f546001600160a01b03169150615a359050565b91615b0e565b60ff6009541615615a1e576001600160a01b0383166000908152600a6020526040902061271090615a6d905489613ddd565b049182615a7b575b50615a1e565b91615ae39187949389837f49e92b6b3114f7e128555cd58c568f7c2e0e56fe9b4c46b6125bc308184623b3989b03908111615b01575b991603615af0575b604080516001600160a01b0394851681529490931660208501529183019190915281906060820190565b0390a13880808080615a75565b615afc81848887615b0e565b615ab9565b615b09613da7565b615ab1565b919291906001600160a01b038216615b515750509061060591601654917f000000000000000000000000000000000000000000000000000000000000000061761a565b813b15615be9576040516323b872dd60e01b602082019081526001600160a01b039283166024830152949091166044820152606481019290925260009283928390615b9f8160848101611118565b51925af1615bab613c07565b9015615bd757805180615bbc575050565b8160208061411893615bd195010191016150d0565b615bd757565b60405163e560521360e01b8152600490fd5b6040516309ee12d560e01b8152600490fd5b929190602090805180615c38575b5001519182615c185750505050565b615c2f93602060018060a01b039101511691615b0e565b38808080611a57565b8551615c4f91906001600160a01b03168686615b0e565b38615c09565b81601f8201121561000e578051615c6b816116ba565b92615c79604051948561164d565b8184526020828401011161000e576117369160208085019101611adb565b9060208282031261000e5781516001600160401b03811161000e576117369201615c55565b6001600160a01b03918216815261ffff9092166020830152918216604082015260608101929092529182166080820152911660a082015260e060c0820181905261173692910190611afe565b959194615d3e615d5e959461ffff6117369a9860018060a01b038096168b521660208a01526101008060408b0152890190611afe565b936060880152166080860152600060a086015284820360c0860152611afe565b9160e0818403910152611afe565b91909360a09361ffff6117369796168452600180861b03809316602085015260408401521660608201528160808201520190611afe565b60408051634f9c1b4d60e11b815261ffff871660048083019190915297600097969295939493909291615ded908981602481305afa9081156161db575b8a916161c1575b50616cd0565b6001600160a01b039590927f0000000000000000000000000000000000000000000000000000000000000000918088168884168103615f8d575050889061ffff808316911614159182615f6a575b82615ecf575b505015615e9e57601154615e5d906001600160a01b0316613e09565b95863b15615e9a5790615e8793929151998a9889978897635fa7a7ff60e01b895216918701615d6c565b039134905af1801561599d576159905750565b8880fd5b939150915085809750809550809450918315615ec5575b1690f1610605575b610605613d9a565b6108fc9250615eb5565b601154615f2493506020929190615eee906001600160a01b0316613e09565b8a5163a4b2b31d60e01b81526001600160a01b03909216828f0190815261ffff9093166020840152909384928391829160400190565b03915afa908115615f5d575b8991615f3f575b508738615e41565b615f57915060203d81116121de576121d0818361164d565b38615f37565b615f65613d9a565b615f30565b6011549092508790615f84906001600160a01b0316613e09565b16151591615e3b565b969892509a929996615fb86110798d9b97969b60018060a01b0316600052600c602052604060002090565b15616086575061ffff808616911614600014615fdd57505050505050610605936161e8565b61604d97949693959899509061600f91616059601454825194859160208301602291600160f11b825260028201520190565b03616022601f199182810187528661164d565b61602c8d34613f18565b9783519b8c91602083016014916001600160601b03199060601b1681520190565b039081018b528a61164d565b873b15616082579061597e939291519a8b998a98899763072830c960e11b895230948901615d08565b8980fd5b91955061ffff9a9496999a9892988088169116141590816161a0575b5080616109575b156160f8576011546160c3906001600160a01b0316613e09565b956160ce8a34613f18565b94873b15616082579061597e939291519a8b998a98899763d065a12560e01b895230928901615cbc565b9550509150506106059493506161e8565b5060115461615c906020908790616128906001600160a01b0316613e09565b875163a4b2b31d60e01b81526001600160a01b038816818d0190815261ffff90931660208401529384928391829160400190565b03915afa908115616193575b8991616175575b506160a9565b61618d915060203d81116121de576121d0818361164d565b3861616f565b61619b613d9a565b616168565b6011549091506161b8906001600160a01b0316613e09565b161515386160a2565b6161d591503d808c833e61344c818361164d565b38615de7565b6161e3613d9a565b615de0565b9192916001600160a01b03918083163003616248575060405163a9059cbb60e01b60208201526001600160a01b0390941660248501526044840192909252610605929161624283606481015b03601f19810185528461164d565b1661776a565b6040516323b872dd60e01b60208201526001600160a01b03918216602482015294166044850152606484019290925261060592916162428360848101616234565b909290156162d957507f53849a1acec87308423850dccd979fc7a4b74b75a79b19c3b98ec8df38a599db915b60018060a01b03166000526001602052604060002090600052602052604060002055565b916162b5565b903590601e198136030182121561000e57018035906001600160401b03821161000e57602001918160061b3603831361000e57565b939291906020948581019561632987836162df565b8098915061633f575b505050610605945061641d565b600a881161640457616353908394936162df565b9335938493926000925b828410616394575050505003616382576106059461637a91613644565b388080616332565b60405163c8ac23c360e01b8152600490fd5b9193908395506163a681948685616d75565b01356163b181613486565b6163ba8161392c565b6163e5576163c9858584616d75565b35600052825260016040600020945b019290918594939261635d565b6163f0858584616d75565b3590600052825260016040600020946163d8565b6040516375dec1c560e11b815260048101899052602490fd5b92601254461460001461648057610605936015549060405190602082019261190160f01b84526022830152604282015260428152608081018181106001600160401b03821117616473575b6040525190206173dc565b61647b6115aa565b616468565b604051636fd794c760e01b8152600490fd5b815180156166b257826020806164af936164de96010191016167ee565b610100820180519091906001600160a01b031660405180978192630fd9bb6960e21b835286886004850161689b565b0360009788918183305af19283156166a5575b87908889938a96616681575b5060c08701516001600160a01b03169061652c60a08901519361651f8561392c565b516001600160a01b031690565b89519094906001600160a01b0316303b1561667d5791616565918d9594936040519788968796633e01704b60e21b8852600488016169f9565b038183305af1908161666a575b506166195750505060e061659791616588613c07565b5001516001600160a01b031690565b6001600160a01b038181167f000000000000000000000000000000000000000000000000000000000000000090911603616601575051829182918291906165e890613e09906001600160a01b031681565b8282156165f8575bf115615ebd57565b506108fc6165f0565b905161060593506001600160a01b0316903090615b0e565b610605965060409295506166479061651f60e06166559497960191309089615668855160018060a01b031690565b92516001600160a01b031690565b9301519230926001600160a01b0316916159f9565b80612cdf616677926115c1565b38616572565b8c80fd5b925050935061669a91503d8089833e614b9d818361164d565b5094909291386164fd565b6166ad613d9a565b6164f1565b505050565b5190610605826105ee565b519061060582613486565b91906102008382031261000e576166e261168d565b926166ec816166c2565b84526020810151602085015260408101516040850152606081015160608501526080810151608085015261672260a082016166c2565b60a085015261673360c08201613d4c565b60c085015261674460e08201613d4c565b60e0850152610100616757818301613d4c565b908501526101208082015190850152610140808201519085015261016080820151908501526101809182820151926001600160401b039384811161000e57826167a1918501613c37565b908601526101a08083015184811161000e57826167bf918501613c37565b908601526101c06167d18184016166b7565b908601526101e0928383015190811161000e576142e99201615c55565b909160608284031261000e5781516001600160401b039081811161000e57830160808186031261000e5760405190616825826115e1565b8051616830816109eb565b82526020810151616840816109eb565b60208301526040810151616853816105ee565b604083015260608101519083821161000e5761687191879101615c55565b606082015293602084015191821161000e576168946040916117369386016166cd565b9301613d4c565b9392906169e6610605936168ea6060604094818a5260018060a01b0380825116838c015260208201511660808b015261ffff868201511660a08b01520151608060c08a015260e0890190611afe565b9087820360208901526168fe8282516139f9565b602081015160208301528381015184830152606081015160608301526080810151608083015261693660a082015160a08401906139f9565b60c0818101516001600160a01b03169083015260e0818101516001600160a01b031690830152610100818101516001600160a01b0316908301526101208082015190830152610140808201519083015261016080820151908301526169c36169af61018080840151906102008091870152850190610dd5565b6101a0808401519085830390860152610dd5565b6101c08281015161ffff1690840152916101e08092015191818403910152611afe565b6001600160a01b03909216940193909352565b6001600160a01b0391821681526117369690959094616a4394919390918391616a218161392c565b602089015216604087015216606085015260c0608085015260c0840190610dd5565b9160a0818403910152610dd5565b616b3760c061060593616a7381511515859060ff801983541691151516179055565b6020810151845462ffff00191660089190911b62ffff0016178455616ab461ffff6040830151865464ffff0000001916911660181b64ffff00000016178555565b606081015166ffff000000000085549160281b168066ffff00000000001983161786556affffffff00000000000000608084015160a81c16916affffffffffff0000000000191617178455616b29616b0f60a0830151151590565b855460ff60581b191690151560581b60ff60581b16178555565b01516001600160a01b031690565b81546001600160601b031660609190911b6bffffffffffffffffffffffff1916179055565b6001906000198114616b6c570190565b616b74613da7565b0190565b6001600160a01b0391821681529181166020830152909116604082015260a060608201819052611736939192616bb091840190610dd5565b916080818403910152610dd5565b93949190616bcb8161392c565b80616c2857507f00000000000000000000000000000000000000000000000000000000000000006001600160a01b031691823b1561000e5760009461597e86926040519889978896879563a7bc96d360e01b875260048701616b78565b80616c3460019261392c565b14616c40575050505050565b7f00000000000000000000000000000000000000000000000000000000000000006001600160a01b031691823b1561000e57600094616c97869260405198899788968795635052036360e11b875260048701616b78565b03925af18015616cc3575b616cb0575b80808080613e26565b80612cdf616cbd926115c1565b38616ca7565b616ccb613d9a565b616ca2565b6014815110616ce3576020015160601c90565b60405162461bcd60e51b8152602060048201526015602482015274746f416464726573735f6f75744f66426f756e647360581b6044820152606490fd5b600080916040518260208201916301ffc9a760e01b835281602482015260248152616d4a81611617565b51925af1616d56613c07565b9015616d6f5780602080611736935183010191016150d0565b50600090565b9190811015616d86575b60061b0190565b616d8e613d35565b616d7f565b969491926101009693999894919961012089019a7f578c458ef0610f67a73705004b9ddc6ab6bcf1764005638471c3801daaa067e78a52616dd38161392c565b60208a015260408901526060880152608087015260a0860152616df58161392c565b60c08501526001600160a01b0391821660e085015216910152565b805160208092019160005b828110616e29575050505090565b835185529381019392810192600101616e1b565b6020610605919392936040519481616e5e8793518092868087019101611adb565b8201616e7282518093868085019101611adb565b0103808552018361164d565b616fea815191616e8d8361392c565b602092616fe584616ee68185015160408601516060870151608088015160a089015191616eb98361392c565b60c08a01516001600160a01b031660e08b01519094906001600160a01b0316956040519a8b998a01616d93565b03616ef9601f199182810185528461164d565b6101008401518690616fd9906001600160a01b03169561012081015190610140810151610160820151610180830151604051616f4881616f3c8a82018095616e10565b038a810183528261164d565b519020906101a0840151604051616f7281616f668b82018095616e10565b038b810183528261164d565b519020926101e0616f896101c087015161ffff1690565b950151805190890120604080516001600160a01b03909e16998e01998a5260208a0197909752958801526060870152608086015260a085015261ffff1660c084015260e083015285916101000190565b0390810184528361164d565b616e3d565b805191012090565b15616ff957565b60405162461bcd60e51b815260206004820152602660248201527f4c7a4170703a20696e76616c696420736f757263652073656e64696e6720636f6044820152651b9d1c9858dd60d21b6064820152608490fd5b60409061ffff61173695931681528160208201520191613971565b90601f811161707657505050565b600091825260208220906020601f850160051c830194106170b2575b601f0160051c01915b8281106170a757505050565b81815560010161709b565b9092508290617092565b156170c357565b60405162461bcd60e51b815260206004820152600e60248201526d736c6963655f6f766572666c6f7760901b6044820152606490fd5b1561710057565b60405162461bcd60e51b8152602060048201526011602482015270736c6963655f6f75744f66426f756e647360781b6044820152606490fd5b61714d8261714681614011565b10156170bc565b61715a82825110156170f9565b81617172575050604051600081526020810160405290565b60405191601f811691821560051b808486010193838501920101905b8084106171a65750508252601f01601f191660405290565b909283518152602080910193019061718e565b906171e2611736959361ffff6001600160401b0393168452608060208501526080840190611afe565b931660408201526060818403910152611afe565b9091303b1561000e57604051633356ae4560e11b81526000818061722088868989600486016171b9565b038183305af19081617296575b50611a575783617291917fe6f254030bcb01ffd20558175c13fcaed6d1520be7becee4c961b65f79243b0d9551602083012061728482612d7761727e8861ffff166000526008602052604060002090565b89611f30565b55604051948594856171b9565b0390a1565b61729f906115c1565b3861722d565b519060ff8216820361000e57565b156172ba57565b60405162461bcd60e51b815260206004820152601d60248201527f4c7a52656365697665723a206e6f2073746f726564206d6573736167650000006044820152606490fd5b1561730657565b60405162461bcd60e51b815260206004820152601b60248201527f4c7a52656365697665723a20696e76616c6964207061796c6f616400000000006044820152606490fd5b906173766117369694959361ffff6001600160401b0393168452608060208501526080840190611afe565b941660408201526060818503910152613971565b6003546001600160a01b0316330361739e57565b6040516330cd747160e01b8152600490fd5b9081602091031261000e575161173681611fc8565b604090611736949281528160208201520191613971565b929091823b617413576173ef92936174b3565b6001600160a01b039081169116146106055760405163d1085d1b60e01b8152600490fd5b9061743992602092604051809581948293630b135d3f60e11b998a8552600485016173c5565b03916001600160a01b03165afa9081156174a6575b600091617478575b506001600160e01b031916146106055760405163f6cd0e2f60e01b8152600490fd5b617499915060203d811161749f575b617491818361164d565b8101906173b0565b38617456565b503d617487565b6174ae613d9a565b61744e565b9091604181036175aa5750604082013560001a91602081013590355b7f7fffffffffffffffffffffffffffffff5d576e7357a4501ddfe92f46681b20a082116175985760ff8416601b811415908161758c575b50617571576040805193845260ff9490941660208085019190915293830152606082015260008080529060809060015afa15617564575b600051906001600160a01b0382161561755257565b60405163f05a20c760e01b8152600490fd5b61756c613d9a565b61753d565b60405163105e24e960e21b815260ff85166004820152602490fd5b601c9150141538617506565b6040516360c2892960e11b8152600490fd5b604081036175d35750602082013560ff81901c601b01926001600160ff1b0390911690356174cf565b60405163d42b4bbd60e01b81526004810191909152602490fd5b47600181116175f95750565b600080808093811901335af11561760c57565b6307246cf46000526004601cfd5b61762e828495600080809781948294f11590565b6176385750505050565b6001600160a01b031691823b1561085857916176a89391602093604051630d0e30db60e41b8152818160048188885af180156176fe575b6176eb575b5060405163a9059cbb60e01b81526001600160a01b0390921660048301526024820193909352938492839182906044820190565b03925af180156176de575b6176c0575b808080611a57565b6176d79060203d81116121de576121d0818361164d565b50386176b8565b6176e6613d9a565b6176b3565b80612cdf6176f8926115c1565b38617674565b617706613d9a565b61766f565b1561771257565b60405162461bcd60e51b815260206004820152602a60248201527f5361666545524332303a204552433230206f7065726174696f6e20646964206e6044820152691bdd081cdd58d8d9595960b21b6064820152608490fd5b6040516001600160a01b039190911691617783826115fc565b6020928383527f5361666545524332303a206c6f772d6c6576656c2063616c6c206661696c656484840152803b156177fa57600082819282876177d59796519301915af16177cf613c07565b9061783f565b805190816177e257505050565b82610605936177f59383010191016150d0565b61770b565b60405162461bcd60e51b815260048101859052601d60248201527f416464726573733a2063616c6c20746f206e6f6e2d636f6e74726163740000006044820152606490fd5b9091901561784b575090565b81511561785b5750805190602001fd5b60405162461bcd60e51b815260206004820152908190611199906024830190611afe56fea26469706673582212204b83c877b4ca592548a3a528e689a02d8f869714966fae837035b85c5bab715164736f6c63430008110033",
    "linkReferences": {}
  },
  "methodIdentifiers": {
    "MAGIC_VALUE_ORDER_NONCE_EXECUTED()": "463357ec",
    "WETH()": "ad5c4648",
    "_executeStrategyForTakerOrder((address,address,uint16,bytes),(uint8,uint256,uint256,uint256,uint256,uint8,address,address,address,uint256,uint256,uint256,uint256[],uint256[],uint16,bytes),address)": "3f66eda4",
    "_getCrossChainCurrencyFee(address,address,uint256,uint16,uint16,bytes)": "9e4b4b75",
    "addStrategy(uint16,uint16,uint16,bytes4,bool,address)": "91be1360",
    "affiliateController()": "4cbac9dc",
    "affiliateRates(address)": "7a7d8851",
    "cancelOrderNonces(uint256[])": "79ed31d4",
    "cancelOwnershipTransfer()": "23452b9c",
    "cancelSubsetNonces(uint256[])": "134849a6",
    "chainId()": "9a8a0592",
    "confirmOwnershipRenouncement()": "3e567539",
    "confirmOwnershipTransfer()": "7200b829",
    "creatorFeeManager()": "838b8f5c",
    "domainSeparator()": "f698da25",
    "executeMultipleTakerBids(uint256,(address,address,uint16,bytes)[],(uint8,uint256,uint256,uint256,uint256,uint8,address,address,address,uint256,uint256,uint256,uint256[],uint256[],uint16,bytes)[],bytes[],(bytes32,(bytes32,uint8)[])[],address,bool)": "c6fcfed0",
    "executeTakerAsk((address,address,uint16,bytes),(uint8,uint256,uint256,uint256,uint256,uint8,address,address,address,uint256,uint256,uint256,uint256[],uint256[],uint16,bytes),bytes,(bytes32,(bytes32,uint8)[]),address)": "62d7b6ab",
    "executeTakerBid(uint256,(address,address,uint16,bytes),(uint8,uint256,uint256,uint256,uint256,uint8,address,address,address,uint256,uint256,uint256,uint256[],uint256[],uint16,bytes),bytes,(bytes32,(bytes32,uint8)[]),address)": "c0a23138",
    "failedMessages(uint16,bytes,uint256)": "8ee74912",
    "forceResumeReceive(uint16,bytes)": "42d65a8d",
    "gasForLzReceive()": "b6819822",
    "gasForOmniLzReceive()": "51039b4e",
    "getConfig(uint16,uint16,address,uint256)": "f5ecbdbc",
    "getLzFees((address,address,uint16,bytes),(uint8,uint256,uint256,uint256,uint256,uint8,address,address,address,uint256,uint256,uint256,uint256[],uint256[],uint16,bytes),uint256,address)": "ae9d5bd7",
    "getTrustedRemoteAddress(uint16)": "9f38369a",
    "hashBatchOrder(bytes32,uint256)": "86c07642",
    "incrementBidAskNonces(bool,bool)": "d5b010f5",
    "initiateOwnershipRenouncement()": "5b6ac011",
    "initiateOwnershipTransfer(address)": "c0b6f561",
    "isAffiliateProgramActive()": "67d9dd79",
    "isCurrencyAllowed(address)": "5a195d19",
    "isCurrencyOmni(address)": "7730d51b",
    "isOmniCurrency(address)": "748644c3",
    "isTrustedRemote(uint16,bytes)": "3d8b38f6",
    "lzEndpoint()": "b353aaa7",
    "lzReceive(uint16,bytes,uint64,bytes)": "001d3567",
    "maxCreatorFeeBp()": "6e90c014",
    "minDstGasLookup(uint16,uint16)": "8cfd8f5c",
    "nonblockingLzReceive(uint16,bytes,uint64,bytes)": "66ad5c8a",
    "owner()": "8da5cb5b",
    "ownershipStatus()": "2bb5a9e6",
    "potentialOwner()": "7762df25",
    "precrime()": "950c8a74",
    "protocolFeeRecipient()": "64df049e",
    "restrictedExecuteTakerBid(uint256,(address,address,uint16,bytes),(uint8,uint256,uint256,uint256,uint256,uint8,address,address,address,uint256,uint256,uint256,uint256[],uint256[],uint16,bytes),address,address,bytes32)": "7c22dc85",
    "retryMessage(uint16,bytes,uint64,bytes)": "d1deba1f",
    "setConfig(uint16,uint16,uint256,bytes)": "cbed8b9c",
    "setGasForLzReceive(uint256)": "b20dea75",
    "setGasForOmniLZReceive(uint256)": "f41b0282",
    "setMinDstGas(uint16,uint16,uint256)": "df2a5b3b",
    "setPrecrime(address)": "baf3292d",
    "setReceiveVersion(uint16)": "10ddb137",
    "setSendVersion(uint16)": "07e0db17",
    "setStargatePoolManager(address)": "fa99018d",
    "setTrustedRemote(uint16,bytes)": "eb8d72b7",
    "setTrustedRemoteAddress(uint16,bytes)": "a6c3d165",
    "sgReceive(uint16,bytes,uint256,address,uint256,bytes)": "ab8236f3",
    "stargatePoolManager()": "3d25e561",
    "strategyInfo(uint256)": "bb91c339",
    "transferManager()": "46ea2552",
    "transferNFTLz(address,uint8,address,address,uint256[],uint256[])": "f805c12c",
    "trustedRemoteLookup(uint16)": "7533d788",
    "updateAffiliateController(address)": "a02bab57",
    "updateAffiliateProgramStatus(bool)": "54878876",
    "updateAffiliateRate(address,uint256)": "ae1cce5a",
    "updateCreatorFeeManager(address)": "b647a404",
    "updateCurrencyStatus(address,bool)": "1d3c4268",
    "updateDomainSeparator()": "89ccfe89",
    "updateETHGasLimitForTransfer(uint256)": "974e7c9f",
    "updateMaxCreatorFeeBp(uint16)": "46b625bc",
    "updateProtocolFeeRecipient(address)": "1df47f80",
    "updateStrategy(uint256,bool,uint16,uint16)": "d5a06adf",
    "userBidAskNonces(address)": "a39bf29f",
    "userOrderNonce(address,uint256)": "20cd05c7",
    "userSubsetNonce(address,uint256)": "ea179b76"
  },
  "id": 15
}