{
  "abi": [
    {
      "inputs": [
        {
          "internalType": "address",
          "name": "_owner",
          "type": "address"
        },
        {
          "internalType": "address",
          "name": "_protocolFeeRecipient",
          "type": "address"
        },
        {
          "internalType": "address",
          "name": "_transferManager",
          "type": "address"
        },
        {
          "internalType": "address",
          "name": "_weth",
          "type": "address"
        }
      ],
      "stateMutability": "nonpayable",
      "type": "constructor"
    },
    {
      "inputs": [],
      "name": "CallerInvalid",
      "type": "error"
    },
    {
      "inputs": [],
      "name": "ChainIdInvalid",
      "type": "error"
    },
    {
      "inputs": [],
      "name": "CreatorFeeBpTooHigh",
      "type": "error"
    },
    {
      "inputs": [],
      "name": "CurrencyInvalid",
      "type": "error"
    },
    {
      "inputs": [],
      "name": "ERC20TransferFromFail",
      "type": "error"
    },
    {
      "inputs": [],
      "name": "LengthsInvalid",
      "type": "error"
    },
    {
      "inputs": [],
      "name": "MerkleProofInvalid",
      "type": "error"
    },
    {
      "inputs": [
        {
          "internalType": "uint256",
          "name": "length",
          "type": "uint256"
        }
      ],
      "name": "MerkleProofTooLarge",
      "type": "error"
    },
    {
      "inputs": [],
      "name": "NewGasLimitETHTransferTooLow",
      "type": "error"
    },
    {
      "inputs": [],
      "name": "NewProtocolFeeRecipientCannotBeNullAddress",
      "type": "error"
    },
    {
      "inputs": [],
      "name": "NoOngoingTransferInProgress",
      "type": "error"
    },
    {
      "inputs": [],
      "name": "NoSelectorForStrategy",
      "type": "error"
    },
    {
      "inputs": [],
      "name": "NoncesInvalid",
      "type": "error"
    },
    {
      "inputs": [],
      "name": "NotAContract",
      "type": "error"
    },
    {
      "inputs": [],
      "name": "NotAffiliateController",
      "type": "error"
    },
    {
      "inputs": [],
      "name": "NotOwner",
      "type": "error"
    },
    {
      "inputs": [],
      "name": "NotV2Strategy",
      "type": "error"
    },
    {
      "inputs": [],
      "name": "NullSignerAddress",
      "type": "error"
    },
    {
      "inputs": [],
      "name": "OutsideOfTimeRange",
      "type": "error"
    },
    {
      "inputs": [],
      "name": "PercentageTooHigh",
      "type": "error"
    },
    {
      "inputs": [],
      "name": "QuoteTypeInvalid",
      "type": "error"
    },
    {
      "inputs": [],
      "name": "ReentrancyFail",
      "type": "error"
    },
    {
      "inputs": [],
      "name": "RenouncementNotInProgress",
      "type": "error"
    },
    {
      "inputs": [],
      "name": "SameDomainSeparator",
      "type": "error"
    },
    {
      "inputs": [],
      "name": "SignatureEOAInvalid",
      "type": "error"
    },
    {
      "inputs": [],
      "name": "SignatureERC1271Invalid",
      "type": "error"
    },
    {
      "inputs": [
        {
          "internalType": "uint256",
          "name": "length",
          "type": "uint256"
        }
      ],
      "name": "SignatureLengthInvalid",
      "type": "error"
    },
    {
      "inputs": [],
      "name": "SignatureParameterSInvalid",
      "type": "error"
    },
    {
      "inputs": [
        {
          "internalType": "uint8",
          "name": "v",
          "type": "uint8"
        }
      ],
      "name": "SignatureParameterVInvalid",
      "type": "error"
    },
    {
      "inputs": [],
      "name": "StrategyHasNoSelector",
      "type": "error"
    },
    {
      "inputs": [
        {
          "internalType": "uint256",
          "name": "strategyId",
          "type": "uint256"
        }
      ],
      "name": "StrategyNotAvailable",
      "type": "error"
    },
    {
      "inputs": [],
      "name": "StrategyNotUsed",
      "type": "error"
    },
    {
      "inputs": [],
      "name": "StrategyProtocolFeeTooHigh",
      "type": "error"
    },
    {
      "inputs": [],
      "name": "TransferAlreadyInProgress",
      "type": "error"
    },
    {
      "inputs": [],
      "name": "TransferNotInProgress",
      "type": "error"
    },
    {
      "inputs": [],
      "name": "WrongPotentialOwner",
      "type": "error"
    },
    {
      "anonymous": false,
      "inputs": [
        {
          "indexed": false,
          "internalType": "address",
          "name": "affiliate",
          "type": "address"
        },
        {
          "indexed": false,
          "internalType": "address",
          "name": "currency",
          "type": "address"
        },
        {
          "indexed": false,
          "internalType": "uint256",
          "name": "affiliateFee",
          "type": "uint256"
        }
      ],
      "name": "AffiliatePayment",
      "type": "event"
    },
    {
      "anonymous": false,
      "inputs": [],
      "name": "CancelOwnershipTransfer",
      "type": "event"
    },
    {
      "anonymous": false,
      "inputs": [
        {
          "indexed": false,
          "internalType": "address",
          "name": "currency",
          "type": "address"
        },
        {
          "indexed": false,
          "internalType": "bool",
          "name": "isAllowed",
          "type": "bool"
        }
      ],
      "name": "CurrencyStatusUpdated",
      "type": "event"
    },
    {
      "anonymous": false,
      "inputs": [],
      "name": "InitiateOwnershipRenouncement",
      "type": "event"
    },
    {
      "anonymous": false,
      "inputs": [
        {
          "indexed": false,
          "internalType": "address",
          "name": "previousOwner",
          "type": "address"
        },
        {
          "indexed": false,
          "internalType": "address",
          "name": "potentialOwner",
          "type": "address"
        }
      ],
      "name": "InitiateOwnershipTransfer",
      "type": "event"
    },
    {
      "anonymous": false,
      "inputs": [
        {
          "indexed": false,
          "internalType": "address",
          "name": "affiliateController",
          "type": "address"
        }
      ],
      "name": "NewAffiliateController",
      "type": "event"
    },
    {
      "anonymous": false,
      "inputs": [
        {
          "indexed": false,
          "internalType": "bool",
          "name": "isActive",
          "type": "bool"
        }
      ],
      "name": "NewAffiliateProgramStatus",
      "type": "event"
    },
    {
      "anonymous": false,
      "inputs": [
        {
          "indexed": false,
          "internalType": "address",
          "name": "affiliate",
          "type": "address"
        },
        {
          "indexed": false,
          "internalType": "uint256",
          "name": "rate",
          "type": "uint256"
        }
      ],
      "name": "NewAffiliateRate",
      "type": "event"
    },
    {
      "anonymous": false,
      "inputs": [
        {
          "indexed": false,
          "internalType": "address",
          "name": "user",
          "type": "address"
        },
        {
          "indexed": false,
          "internalType": "uint256",
          "name": "bidNonce",
          "type": "uint256"
        },
        {
          "indexed": false,
          "internalType": "uint256",
          "name": "askNonce",
          "type": "uint256"
        }
      ],
      "name": "NewBidAskNonces",
      "type": "event"
    },
    {
      "anonymous": false,
      "inputs": [
        {
          "indexed": false,
          "internalType": "address",
          "name": "creatorFeeManager",
          "type": "address"
        }
      ],
      "name": "NewCreatorFeeManager",
      "type": "event"
    },
    {
      "anonymous": false,
      "inputs": [],
      "name": "NewDomainSeparator",
      "type": "event"
    },
    {
      "anonymous": false,
      "inputs": [
        {
          "indexed": false,
          "internalType": "uint256",
          "name": "gasLimitETHTransfer",
          "type": "uint256"
        }
      ],
      "name": "NewGasLimitETHTransfer",
      "type": "event"
    },
    {
      "anonymous": false,
      "inputs": [
        {
          "indexed": false,
          "internalType": "uint256",
          "name": "maxCreatorFeeBp",
          "type": "uint256"
        }
      ],
      "name": "NewMaxCreatorFeeBp",
      "type": "event"
    },
    {
      "anonymous": false,
      "inputs": [
        {
          "indexed": false,
          "internalType": "address",
          "name": "newOwner",
          "type": "address"
        }
      ],
      "name": "NewOwner",
      "type": "event"
    },
    {
      "anonymous": false,
      "inputs": [
        {
          "indexed": false,
          "internalType": "address",
          "name": "protocolFeeRecipient",
          "type": "address"
        }
      ],
      "name": "NewProtocolFeeRecipient",
      "type": "event"
    },
    {
      "anonymous": false,
      "inputs": [
        {
          "indexed": false,
          "internalType": "uint256",
          "name": "strategyId",
          "type": "uint256"
        },
        {
          "indexed": false,
          "internalType": "uint16",
          "name": "standardProtocolFeeBp",
          "type": "uint16"
        },
        {
          "indexed": false,
          "internalType": "uint16",
          "name": "minTotalFeeBp",
          "type": "uint16"
        },
        {
          "indexed": false,
          "internalType": "uint16",
          "name": "maxProtocolFeeBp",
          "type": "uint16"
        },
        {
          "indexed": false,
          "internalType": "bytes4",
          "name": "selector",
          "type": "bytes4"
        },
        {
          "indexed": false,
          "internalType": "bool",
          "name": "isMakerBid",
          "type": "bool"
        },
        {
          "indexed": false,
          "internalType": "address",
          "name": "implementation",
          "type": "address"
        }
      ],
      "name": "NewStrategy",
      "type": "event"
    },
    {
      "anonymous": false,
      "inputs": [
        {
          "indexed": false,
          "internalType": "address",
          "name": "user",
          "type": "address"
        },
        {
          "indexed": false,
          "internalType": "uint256[]",
          "name": "orderNonces",
          "type": "uint256[]"
        }
      ],
      "name": "OrderNoncesCancelled",
      "type": "event"
    },
    {
      "anonymous": false,
      "inputs": [
        {
          "indexed": false,
          "internalType": "uint256",
          "name": "strategyId",
          "type": "uint256"
        },
        {
          "indexed": false,
          "internalType": "bool",
          "name": "isActive",
          "type": "bool"
        },
        {
          "indexed": false,
          "internalType": "uint16",
          "name": "standardProtocolFeeBp",
          "type": "uint16"
        },
        {
          "indexed": false,
          "internalType": "uint16",
          "name": "minTotalFeeBp",
          "type": "uint16"
        }
      ],
      "name": "StrategyUpdated",
      "type": "event"
    },
    {
      "anonymous": false,
      "inputs": [
        {
          "indexed": false,
          "internalType": "address",
          "name": "user",
          "type": "address"
        },
        {
          "indexed": false,
          "internalType": "uint256[]",
          "name": "subsetNonces",
          "type": "uint256[]"
        }
      ],
      "name": "SubsetNoncesCancelled",
      "type": "event"
    },
    {
      "anonymous": false,
      "inputs": [
        {
          "components": [
            {
              "internalType": "bytes32",
              "name": "orderHash",
              "type": "bytes32"
            },
            {
              "internalType": "uint256",
              "name": "orderNonce",
              "type": "uint256"
            },
            {
              "internalType": "bool",
              "name": "isNonceInvalidated",
              "type": "bool"
            }
          ],
          "indexed": false,
          "internalType": "struct IOmniXExchange.NonceInvalidationParameters",
          "name": "nonceInvalidationParameters",
          "type": "tuple"
        },
        {
          "indexed": false,
          "internalType": "address",
          "name": "askUser",
          "type": "address"
        },
        {
          "indexed": false,
          "internalType": "address",
          "name": "bidUser",
          "type": "address"
        },
        {
          "indexed": false,
          "internalType": "uint256",
          "name": "strategyId",
          "type": "uint256"
        },
        {
          "indexed": false,
          "internalType": "address",
          "name": "currency",
          "type": "address"
        },
        {
          "indexed": false,
          "internalType": "address",
          "name": "collection",
          "type": "address"
        },
        {
          "indexed": false,
          "internalType": "uint256[]",
          "name": "itemIds",
          "type": "uint256[]"
        },
        {
          "indexed": false,
          "internalType": "uint256[]",
          "name": "amounts",
          "type": "uint256[]"
        },
        {
          "indexed": false,
          "internalType": "address[2]",
          "name": "feeRecipients",
          "type": "address[2]"
        },
        {
          "indexed": false,
          "internalType": "uint256[3]",
          "name": "feeAmounts",
          "type": "uint256[3]"
        }
      ],
      "name": "TakerAsk",
      "type": "event"
    },
    {
      "anonymous": false,
      "inputs": [
        {
          "components": [
            {
              "internalType": "bytes32",
              "name": "orderHash",
              "type": "bytes32"
            },
            {
              "internalType": "uint256",
              "name": "orderNonce",
              "type": "uint256"
            },
            {
              "internalType": "bool",
              "name": "isNonceInvalidated",
              "type": "bool"
            }
          ],
          "indexed": false,
          "internalType": "struct IOmniXExchange.NonceInvalidationParameters",
          "name": "nonceInvalidationParameters",
          "type": "tuple"
        },
        {
          "indexed": false,
          "internalType": "address",
          "name": "bidUser",
          "type": "address"
        },
        {
          "indexed": false,
          "internalType": "address",
          "name": "bidRecipient",
          "type": "address"
        },
        {
          "indexed": false,
          "internalType": "uint256",
          "name": "strategyId",
          "type": "uint256"
        },
        {
          "indexed": false,
          "internalType": "address",
          "name": "currency",
          "type": "address"
        },
        {
          "indexed": false,
          "internalType": "address",
          "name": "collection",
          "type": "address"
        },
        {
          "indexed": false,
          "internalType": "uint256[]",
          "name": "itemIds",
          "type": "uint256[]"
        },
        {
          "indexed": false,
          "internalType": "uint256[]",
          "name": "amounts",
          "type": "uint256[]"
        },
        {
          "indexed": false,
          "internalType": "address[2]",
          "name": "feeRecipients",
          "type": "address[2]"
        },
        {
          "indexed": false,
          "internalType": "uint256[3]",
          "name": "feeAmounts",
          "type": "uint256[3]"
        }
      ],
      "name": "TakerBid",
      "type": "event"
    },
    {
      "inputs": [],
      "name": "MAGIC_VALUE_ORDER_NONCE_EXECUTED",
      "outputs": [
        {
          "internalType": "bytes32",
          "name": "",
          "type": "bytes32"
        }
      ],
      "stateMutability": "view",
      "type": "function"
    },
    {
      "inputs": [],
      "name": "WETH",
      "outputs": [
        {
          "internalType": "address",
          "name": "",
          "type": "address"
        }
      ],
      "stateMutability": "view",
      "type": "function"
    },
    {
      "inputs": [
        {
          "internalType": "uint16",
          "name": "standardProtocolFeeBp",
          "type": "uint16"
        },
        {
          "internalType": "uint16",
          "name": "minTotalFeeBp",
          "type": "uint16"
        },
        {
          "internalType": "uint16",
          "name": "maxProtocolFeeBp",
          "type": "uint16"
        },
        {
          "internalType": "bytes4",
          "name": "selector",
          "type": "bytes4"
        },
        {
          "internalType": "bool",
          "name": "isMakerBid",
          "type": "bool"
        },
        {
          "internalType": "address",
          "name": "implementation",
          "type": "address"
        }
      ],
      "name": "addStrategy",
      "outputs": [],
      "stateMutability": "nonpayable",
      "type": "function"
    },
    {
      "inputs": [],
      "name": "affiliateController",
      "outputs": [
        {
          "internalType": "address",
          "name": "",
          "type": "address"
        }
      ],
      "stateMutability": "view",
      "type": "function"
    },
    {
      "inputs": [
        {
          "internalType": "address",
          "name": "",
          "type": "address"
        }
      ],
      "name": "affiliateRates",
      "outputs": [
        {
          "internalType": "uint256",
          "name": "",
          "type": "uint256"
        }
      ],
      "stateMutability": "view",
      "type": "function"
    },
    {
      "inputs": [
        {
          "internalType": "uint256[]",
          "name": "orderNonces",
          "type": "uint256[]"
        }
      ],
      "name": "cancelOrderNonces",
      "outputs": [],
      "stateMutability": "nonpayable",
      "type": "function"
    },
    {
      "inputs": [],
      "name": "cancelOwnershipTransfer",
      "outputs": [],
      "stateMutability": "nonpayable",
      "type": "function"
    },
    {
      "inputs": [
        {
          "internalType": "uint256[]",
          "name": "subsetNonces",
          "type": "uint256[]"
        }
      ],
      "name": "cancelSubsetNonces",
      "outputs": [],
      "stateMutability": "nonpayable",
      "type": "function"
    },
    {
      "inputs": [],
      "name": "chainId",
      "outputs": [
        {
          "internalType": "uint256",
          "name": "",
          "type": "uint256"
        }
      ],
      "stateMutability": "view",
      "type": "function"
    },
    {
      "inputs": [],
      "name": "confirmOwnershipRenouncement",
      "outputs": [],
      "stateMutability": "nonpayable",
      "type": "function"
    },
    {
      "inputs": [],
      "name": "confirmOwnershipTransfer",
      "outputs": [],
      "stateMutability": "nonpayable",
      "type": "function"
    },
    {
      "inputs": [],
      "name": "creatorFeeManager",
      "outputs": [
        {
          "internalType": "contract ICreatorFeeManager",
          "name": "",
          "type": "address"
        }
      ],
      "stateMutability": "view",
      "type": "function"
    },
    {
      "inputs": [],
      "name": "domainSeparator",
      "outputs": [
        {
          "internalType": "bytes32",
          "name": "",
          "type": "bytes32"
        }
      ],
      "stateMutability": "view",
      "type": "function"
    },
    {
      "inputs": [
        {
          "components": [
            {
              "internalType": "address",
              "name": "recipient",
              "type": "address"
            },
            {
              "internalType": "bytes",
              "name": "additionalParameters",
              "type": "bytes"
            }
          ],
          "internalType": "struct OrderStructs.Taker[]",
          "name": "takerBids",
          "type": "tuple[]"
        },
        {
          "components": [
            {
              "internalType": "enum QuoteType",
              "name": "quoteType",
              "type": "uint8"
            },
            {
              "internalType": "uint256",
              "name": "globalNonce",
              "type": "uint256"
            },
            {
              "internalType": "uint256",
              "name": "subsetNonce",
              "type": "uint256"
            },
            {
              "internalType": "uint256",
              "name": "orderNonce",
              "type": "uint256"
            },
            {
              "internalType": "uint256",
              "name": "strategyId",
              "type": "uint256"
            },
            {
              "internalType": "enum CollectionType",
              "name": "collectionType",
              "type": "uint8"
            },
            {
              "internalType": "address",
              "name": "collection",
              "type": "address"
            },
            {
              "internalType": "address",
              "name": "currency",
              "type": "address"
            },
            {
              "internalType": "address",
              "name": "signer",
              "type": "address"
            },
            {
              "internalType": "uint256",
              "name": "startTime",
              "type": "uint256"
            },
            {
              "internalType": "uint256",
              "name": "endTime",
              "type": "uint256"
            },
            {
              "internalType": "uint256",
              "name": "price",
              "type": "uint256"
            },
            {
              "internalType": "uint256[]",
              "name": "itemIds",
              "type": "uint256[]"
            },
            {
              "internalType": "uint256[]",
              "name": "amounts",
              "type": "uint256[]"
            },
            {
              "internalType": "bytes",
              "name": "additionalParameters",
              "type": "bytes"
            }
          ],
          "internalType": "struct OrderStructs.Maker[]",
          "name": "makerAsks",
          "type": "tuple[]"
        },
        {
          "internalType": "bytes[]",
          "name": "makerSignatures",
          "type": "bytes[]"
        },
        {
          "components": [
            {
              "internalType": "bytes32",
              "name": "root",
              "type": "bytes32"
            },
            {
              "components": [
                {
                  "internalType": "bytes32",
                  "name": "value",
                  "type": "bytes32"
                },
                {
                  "internalType": "enum OrderStructs.MerkleTreeNodePosition",
                  "name": "position",
                  "type": "uint8"
                }
              ],
              "internalType": "struct OrderStructs.MerkleTreeNode[]",
              "name": "proof",
              "type": "tuple[]"
            }
          ],
          "internalType": "struct OrderStructs.MerkleTree[]",
          "name": "merkleTrees",
          "type": "tuple[]"
        },
        {
          "internalType": "address",
          "name": "affiliate",
          "type": "address"
        },
        {
          "internalType": "bool",
          "name": "isAtomic",
          "type": "bool"
        }
      ],
      "name": "executeMultipleTakerBids",
      "outputs": [],
      "stateMutability": "payable",
      "type": "function"
    },
    {
      "inputs": [
        {
          "components": [
            {
              "internalType": "address",
              "name": "recipient",
              "type": "address"
            },
            {
              "internalType": "bytes",
              "name": "additionalParameters",
              "type": "bytes"
            }
          ],
          "internalType": "struct OrderStructs.Taker",
          "name": "takerAsk",
          "type": "tuple"
        },
        {
          "components": [
            {
              "internalType": "enum QuoteType",
              "name": "quoteType",
              "type": "uint8"
            },
            {
              "internalType": "uint256",
              "name": "globalNonce",
              "type": "uint256"
            },
            {
              "internalType": "uint256",
              "name": "subsetNonce",
              "type": "uint256"
            },
            {
              "internalType": "uint256",
              "name": "orderNonce",
              "type": "uint256"
            },
            {
              "internalType": "uint256",
              "name": "strategyId",
              "type": "uint256"
            },
            {
              "internalType": "enum CollectionType",
              "name": "collectionType",
              "type": "uint8"
            },
            {
              "internalType": "address",
              "name": "collection",
              "type": "address"
            },
            {
              "internalType": "address",
              "name": "currency",
              "type": "address"
            },
            {
              "internalType": "address",
              "name": "signer",
              "type": "address"
            },
            {
              "internalType": "uint256",
              "name": "startTime",
              "type": "uint256"
            },
            {
              "internalType": "uint256",
              "name": "endTime",
              "type": "uint256"
            },
            {
              "internalType": "uint256",
              "name": "price",
              "type": "uint256"
            },
            {
              "internalType": "uint256[]",
              "name": "itemIds",
              "type": "uint256[]"
            },
            {
              "internalType": "uint256[]",
              "name": "amounts",
              "type": "uint256[]"
            },
            {
              "internalType": "bytes",
              "name": "additionalParameters",
              "type": "bytes"
            }
          ],
          "internalType": "struct OrderStructs.Maker",
          "name": "makerBid",
          "type": "tuple"
        },
        {
          "internalType": "bytes",
          "name": "makerSignature",
          "type": "bytes"
        },
        {
          "components": [
            {
              "internalType": "bytes32",
              "name": "root",
              "type": "bytes32"
            },
            {
              "components": [
                {
                  "internalType": "bytes32",
                  "name": "value",
                  "type": "bytes32"
                },
                {
                  "internalType": "enum OrderStructs.MerkleTreeNodePosition",
                  "name": "position",
                  "type": "uint8"
                }
              ],
              "internalType": "struct OrderStructs.MerkleTreeNode[]",
              "name": "proof",
              "type": "tuple[]"
            }
          ],
          "internalType": "struct OrderStructs.MerkleTree",
          "name": "merkleTree",
          "type": "tuple"
        },
        {
          "internalType": "address",
          "name": "affiliate",
          "type": "address"
        }
      ],
      "name": "executeTakerAsk",
      "outputs": [],
      "stateMutability": "nonpayable",
      "type": "function"
    },
    {
      "inputs": [
        {
          "components": [
            {
              "internalType": "address",
              "name": "recipient",
              "type": "address"
            },
            {
              "internalType": "bytes",
              "name": "additionalParameters",
              "type": "bytes"
            }
          ],
          "internalType": "struct OrderStructs.Taker",
          "name": "takerBid",
          "type": "tuple"
        },
        {
          "components": [
            {
              "internalType": "enum QuoteType",
              "name": "quoteType",
              "type": "uint8"
            },
            {
              "internalType": "uint256",
              "name": "globalNonce",
              "type": "uint256"
            },
            {
              "internalType": "uint256",
              "name": "subsetNonce",
              "type": "uint256"
            },
            {
              "internalType": "uint256",
              "name": "orderNonce",
              "type": "uint256"
            },
            {
              "internalType": "uint256",
              "name": "strategyId",
              "type": "uint256"
            },
            {
              "internalType": "enum CollectionType",
              "name": "collectionType",
              "type": "uint8"
            },
            {
              "internalType": "address",
              "name": "collection",
              "type": "address"
            },
            {
              "internalType": "address",
              "name": "currency",
              "type": "address"
            },
            {
              "internalType": "address",
              "name": "signer",
              "type": "address"
            },
            {
              "internalType": "uint256",
              "name": "startTime",
              "type": "uint256"
            },
            {
              "internalType": "uint256",
              "name": "endTime",
              "type": "uint256"
            },
            {
              "internalType": "uint256",
              "name": "price",
              "type": "uint256"
            },
            {
              "internalType": "uint256[]",
              "name": "itemIds",
              "type": "uint256[]"
            },
            {
              "internalType": "uint256[]",
              "name": "amounts",
              "type": "uint256[]"
            },
            {
              "internalType": "bytes",
              "name": "additionalParameters",
              "type": "bytes"
            }
          ],
          "internalType": "struct OrderStructs.Maker",
          "name": "makerAsk",
          "type": "tuple"
        },
        {
          "internalType": "bytes",
          "name": "makerSignature",
          "type": "bytes"
        },
        {
          "components": [
            {
              "internalType": "bytes32",
              "name": "root",
              "type": "bytes32"
            },
            {
              "components": [
                {
                  "internalType": "bytes32",
                  "name": "value",
                  "type": "bytes32"
                },
                {
                  "internalType": "enum OrderStructs.MerkleTreeNodePosition",
                  "name": "position",
                  "type": "uint8"
                }
              ],
              "internalType": "struct OrderStructs.MerkleTreeNode[]",
              "name": "proof",
              "type": "tuple[]"
            }
          ],
          "internalType": "struct OrderStructs.MerkleTree",
          "name": "merkleTree",
          "type": "tuple"
        },
        {
          "internalType": "address",
          "name": "affiliate",
          "type": "address"
        }
      ],
      "name": "executeTakerBid",
      "outputs": [],
      "stateMutability": "payable",
      "type": "function"
    },
    {
      "inputs": [
        {
          "internalType": "bytes32",
          "name": "root",
          "type": "bytes32"
        },
        {
          "internalType": "uint256",
          "name": "proofLength",
          "type": "uint256"
        }
      ],
      "name": "hashBatchOrder",
      "outputs": [
        {
          "internalType": "bytes32",
          "name": "batchOrderHash",
          "type": "bytes32"
        }
      ],
      "stateMutability": "pure",
      "type": "function"
    },
    {
      "inputs": [
        {
          "internalType": "bool",
          "name": "bid",
          "type": "bool"
        },
        {
          "internalType": "bool",
          "name": "ask",
          "type": "bool"
        }
      ],
      "name": "incrementBidAskNonces",
      "outputs": [],
      "stateMutability": "nonpayable",
      "type": "function"
    },
    {
      "inputs": [],
      "name": "initiateOwnershipRenouncement",
      "outputs": [],
      "stateMutability": "nonpayable",
      "type": "function"
    },
    {
      "inputs": [
        {
          "internalType": "address",
          "name": "newPotentialOwner",
          "type": "address"
        }
      ],
      "name": "initiateOwnershipTransfer",
      "outputs": [],
      "stateMutability": "nonpayable",
      "type": "function"
    },
    {
      "inputs": [],
      "name": "isAffiliateProgramActive",
      "outputs": [
        {
          "internalType": "bool",
          "name": "",
          "type": "bool"
        }
      ],
      "stateMutability": "view",
      "type": "function"
    },
    {
      "inputs": [
        {
          "internalType": "address",
          "name": "",
          "type": "address"
        }
      ],
      "name": "isCurrencyAllowed",
      "outputs": [
        {
          "internalType": "bool",
          "name": "",
          "type": "bool"
        }
      ],
      "stateMutability": "view",
      "type": "function"
    },
    {
      "inputs": [],
      "name": "maxCreatorFeeBp",
      "outputs": [
        {
          "internalType": "uint16",
          "name": "",
          "type": "uint16"
        }
      ],
      "stateMutability": "view",
      "type": "function"
    },
    {
      "inputs": [],
      "name": "owner",
      "outputs": [
        {
          "internalType": "address",
          "name": "",
          "type": "address"
        }
      ],
      "stateMutability": "view",
      "type": "function"
    },
    {
      "inputs": [],
      "name": "ownershipStatus",
      "outputs": [
        {
          "internalType": "enum IOwnableTwoSteps.Status",
          "name": "",
          "type": "uint8"
        }
      ],
      "stateMutability": "view",
      "type": "function"
    },
    {
      "inputs": [],
      "name": "potentialOwner",
      "outputs": [
        {
          "internalType": "address",
          "name": "",
          "type": "address"
        }
      ],
      "stateMutability": "view",
      "type": "function"
    },
    {
      "inputs": [],
      "name": "protocolFeeRecipient",
      "outputs": [
        {
          "internalType": "address",
          "name": "",
          "type": "address"
        }
      ],
      "stateMutability": "view",
      "type": "function"
    },
    {
      "inputs": [
        {
          "components": [
            {
              "internalType": "address",
              "name": "recipient",
              "type": "address"
            },
            {
              "internalType": "bytes",
              "name": "additionalParameters",
              "type": "bytes"
            }
          ],
          "internalType": "struct OrderStructs.Taker",
          "name": "takerBid",
          "type": "tuple"
        },
        {
          "components": [
            {
              "internalType": "enum QuoteType",
              "name": "quoteType",
              "type": "uint8"
            },
            {
              "internalType": "uint256",
              "name": "globalNonce",
              "type": "uint256"
            },
            {
              "internalType": "uint256",
              "name": "subsetNonce",
              "type": "uint256"
            },
            {
              "internalType": "uint256",
              "name": "orderNonce",
              "type": "uint256"
            },
            {
              "internalType": "uint256",
              "name": "strategyId",
              "type": "uint256"
            },
            {
              "internalType": "enum CollectionType",
              "name": "collectionType",
              "type": "uint8"
            },
            {
              "internalType": "address",
              "name": "collection",
              "type": "address"
            },
            {
              "internalType": "address",
              "name": "currency",
              "type": "address"
            },
            {
              "internalType": "address",
              "name": "signer",
              "type": "address"
            },
            {
              "internalType": "uint256",
              "name": "startTime",
              "type": "uint256"
            },
            {
              "internalType": "uint256",
              "name": "endTime",
              "type": "uint256"
            },
            {
              "internalType": "uint256",
              "name": "price",
              "type": "uint256"
            },
            {
              "internalType": "uint256[]",
              "name": "itemIds",
              "type": "uint256[]"
            },
            {
              "internalType": "uint256[]",
              "name": "amounts",
              "type": "uint256[]"
            },
            {
              "internalType": "bytes",
              "name": "additionalParameters",
              "type": "bytes"
            }
          ],
          "internalType": "struct OrderStructs.Maker",
          "name": "makerAsk",
          "type": "tuple"
        },
        {
          "internalType": "address",
          "name": "sender",
          "type": "address"
        },
        {
          "internalType": "bytes32",
          "name": "orderHash",
          "type": "bytes32"
        }
      ],
      "name": "restrictedExecuteTakerBid",
      "outputs": [
        {
          "internalType": "uint256",
          "name": "protocolFeeAmount",
          "type": "uint256"
        }
      ],
      "stateMutability": "nonpayable",
      "type": "function"
    },
    {
      "inputs": [
        {
          "internalType": "uint256",
          "name": "",
          "type": "uint256"
        }
      ],
      "name": "strategyInfo",
      "outputs": [
        {
          "internalType": "bool",
          "name": "isActive",
          "type": "bool"
        },
        {
          "internalType": "uint16",
          "name": "standardProtocolFeeBp",
          "type": "uint16"
        },
        {
          "internalType": "uint16",
          "name": "minTotalFeeBp",
          "type": "uint16"
        },
        {
          "internalType": "uint16",
          "name": "maxProtocolFeeBp",
          "type": "uint16"
        },
        {
          "internalType": "bytes4",
          "name": "selector",
          "type": "bytes4"
        },
        {
          "internalType": "bool",
          "name": "isMakerBid",
          "type": "bool"
        },
        {
          "internalType": "address",
          "name": "implementation",
          "type": "address"
        }
      ],
      "stateMutability": "view",
      "type": "function"
    },
    {
      "inputs": [],
      "name": "transferManager",
      "outputs": [
        {
          "internalType": "contract TransferManager",
          "name": "",
          "type": "address"
        }
      ],
      "stateMutability": "view",
      "type": "function"
    },
    {
      "inputs": [
        {
          "internalType": "address",
          "name": "newAffiliateController",
          "type": "address"
        }
      ],
      "name": "updateAffiliateController",
      "outputs": [],
      "stateMutability": "nonpayable",
      "type": "function"
    },
    {
      "inputs": [
        {
          "internalType": "bool",
          "name": "isActive",
          "type": "bool"
        }
      ],
      "name": "updateAffiliateProgramStatus",
      "outputs": [],
      "stateMutability": "nonpayable",
      "type": "function"
    },
    {
      "inputs": [
        {
          "internalType": "address",
          "name": "affiliate",
          "type": "address"
        },
        {
          "internalType": "uint256",
          "name": "bp",
          "type": "uint256"
        }
      ],
      "name": "updateAffiliateRate",
      "outputs": [],
      "stateMutability": "nonpayable",
      "type": "function"
    },
    {
      "inputs": [
        {
          "internalType": "address",
          "name": "newCreatorFeeManager",
          "type": "address"
        }
      ],
      "name": "updateCreatorFeeManager",
      "outputs": [],
      "stateMutability": "nonpayable",
      "type": "function"
    },
    {
      "inputs": [
        {
          "internalType": "address",
          "name": "currency",
          "type": "address"
        },
        {
          "internalType": "bool",
          "name": "isAllowed",
          "type": "bool"
        }
      ],
      "name": "updateCurrencyStatus",
      "outputs": [],
      "stateMutability": "nonpayable",
      "type": "function"
    },
    {
      "inputs": [],
      "name": "updateDomainSeparator",
      "outputs": [],
      "stateMutability": "nonpayable",
      "type": "function"
    },
    {
      "inputs": [
        {
          "internalType": "uint256",
          "name": "newGasLimitETHTransfer",
          "type": "uint256"
        }
      ],
      "name": "updateETHGasLimitForTransfer",
      "outputs": [],
      "stateMutability": "nonpayable",
      "type": "function"
    },
    {
      "inputs": [
        {
          "internalType": "uint16",
          "name": "newMaxCreatorFeeBp",
          "type": "uint16"
        }
      ],
      "name": "updateMaxCreatorFeeBp",
      "outputs": [],
      "stateMutability": "nonpayable",
      "type": "function"
    },
    {
      "inputs": [
        {
          "internalType": "address",
          "name": "newProtocolFeeRecipient",
          "type": "address"
        }
      ],
      "name": "updateProtocolFeeRecipient",
      "outputs": [],
      "stateMutability": "nonpayable",
      "type": "function"
    },
    {
      "inputs": [
        {
          "internalType": "uint256",
          "name": "strategyId",
          "type": "uint256"
        },
        {
          "internalType": "bool",
          "name": "isActive",
          "type": "bool"
        },
        {
          "internalType": "uint16",
          "name": "newStandardProtocolFee",
          "type": "uint16"
        },
        {
          "internalType": "uint16",
          "name": "newMinTotalFee",
          "type": "uint16"
        }
      ],
      "name": "updateStrategy",
      "outputs": [],
      "stateMutability": "nonpayable",
      "type": "function"
    },
    {
      "inputs": [
        {
          "internalType": "address",
          "name": "",
          "type": "address"
        }
      ],
      "name": "userBidAskNonces",
      "outputs": [
        {
          "internalType": "uint256",
          "name": "bidNonce",
          "type": "uint256"
        },
        {
          "internalType": "uint256",
          "name": "askNonce",
          "type": "uint256"
        }
      ],
      "stateMutability": "view",
      "type": "function"
    },
    {
      "inputs": [
        {
          "internalType": "address",
          "name": "",
          "type": "address"
        },
        {
          "internalType": "uint256",
          "name": "",
          "type": "uint256"
        }
      ],
      "name": "userOrderNonce",
      "outputs": [
        {
          "internalType": "bytes32",
          "name": "",
          "type": "bytes32"
        }
      ],
      "stateMutability": "view",
      "type": "function"
    },
    {
      "inputs": [
        {
          "internalType": "address",
          "name": "",
          "type": "address"
        },
        {
          "internalType": "uint256",
          "name": "",
          "type": "uint256"
        }
      ],
      "name": "userSubsetNonce",
      "outputs": [
        {
          "internalType": "bool",
          "name": "",
          "type": "bool"
        }
      ],
      "stateMutability": "view",
      "type": "function"
    }
  ],
  "bytecode": {
    "object": "0x60c03462000390576001600160401b03601f6200443138819003918201601f1916840191838311858410176200037a57808592604094855283396080948591810103126200039057620000528162000395565b9060206200006281830162000395565b936200007e60606200007683860162000395565b940162000395565b600380546001600160a01b0319166001600160a01b0396871690811790915582519081529094907f3edd90e7770f06fafde38004653b33870066c33bfc923ff6102acd601f85dfbc908490a1600160085581519360e08501858110898211176200037a5783526001855283850196603288528386019560328752606081019660c888528b820199600098898c5260a09b8c8501918b835260c08601938c85528c805260098c528a8d209651151560ff16905160081b62ffff0016955160181b64ffff00000016915160281b66ffff000000000016925160a81c6affffffff00000000000000169351151560581b6bff00000000000000000000001694600160601b6001900319905160601b16951717171717179055835186815285810160329052848101603290526060810160c89052868b82015286898201528660c082015260e07f5290475107686ff8d28cd104943b127d453b23622ac55346373fa25c0c8957a291a182600a54911690811562000369576001600160b01b0319168117607d60a31b17600a5583519081527f8cffb07faa2874440346743bdc0a86b06c3335cc47dc49b327d10e77b73ceb10908590a1600b805460ff60a01b1916600160a01b1790551687526108fc600e558051808201878111828210176200035557825260018152601960f91b9083015280517f8b73c3c69bb8fe3d512ecc4cf759cc79239f7b179b0ffacaa9a75d522b39400f9281019283527f9e6bc51ef68b436657c5fe7a273ea9121a02b234cc81ad1e04892649c9168c6a818301527fad7c5bef027816a800da1736444fb58a807ef4c9603b7848673f7e3a68eb14a560608201524688820152308682015285815260c081019692939092871183881017620003415750859052519020600d5546600c5581526140869283620003ab84395182818161090c0152818161392501526139c60152518181816113c001526134610152f35b634e487b7160e01b81526041600452602490fd5b634e487b7160e01b85526041600452602485fd5b8451630f966bcb60e41b8152600490fd5b634e487b7160e01b600052604160045260246000fd5b600080fd5b51906001600160a01b0382168203620003905756fe60806040526004361015610013575b600080fd5b60003560e01c8063134849a61461036f5780631d3c4268146103665780631df47f801461035d57806320cd05c71461035457806323452b9c1461034b5780632bb5a9e6146103425780633e56753914610339578063463357ec1461033057806346b625bc1461032757806346ea25521461031e5780634cbac9dc14610315578063548788761461030c5780635a195d19146103035780635b6ac011146102fa57806364df049e146102f157806367d9dd79146102e85780636e90c014146102df5780637200b829146102d65780637762df25146102cd57806379ed31d4146102c45780637a7d8851146102bb578063838b8f5c146102b25780638585ae03146102a957806386c07642146102a057806389ccfe89146102975780638da5cb5b1461028e57806391be136014610285578063974e7c9f1461027c5780639a8a059214610273578063a02bab571461026a578063a39bf29f14610261578063ad5c464814610258578063ae1cce5a1461024f578063b647a40414610246578063bb91c3391461023d578063c0b6f56114610234578063d5a06adf1461022b578063d5b010f514610222578063d5b7f06514610219578063e72853e114610210578063ea179b7614610207578063f4288a21146101fe5763f698da25146101f657600080fd5b61000e611afc565b5061000e611a64565b5061000e611a13565b5061000e611965565b5061000e6118cf565b5061000e6117cd565b5061000e611646565b5061000e611597565b5061000e61151a565b5061000e6114a9565b5061000e6113ef565b5061000e6113a9565b5061000e611362565b5061000e6112f1565b5061000e6112d2565b5061000e611269565b5061000e611021565b5061000e610fe5565b5061000e610ecb565b5061000e610ea1565b5061000e610dbc565b5061000e610cda565b5061000e610c9c565b5061000e610bf5565b5061000e610bcb565b5061000e610b15565b5061000e610aef565b5061000e610ac8565b5061000e610a9e565b5061000e610a15565b5061000e6109d2565b5061000e610965565b5061000e61093b565b5061000e6108f5565b5061000e610865565b5061000e6107e5565b5061000e610742565b5061000e610708565b5061000e61062e565b5061000e6105d7565b5061000e61054a565b5061000e6104bf565b5061000e6103d6565b9181601f8401121561000e578235916001600160401b03831161000e576020808501948460051b01011161000e57565b602060031982011261000e57600435906001600160401b03821161000e576103d291600401610378565b9091565b503461000e576103e5366103a8565b801561046b5760005b81811061042d57507fe8036d6fb143373f3ff63e551373f5fffe4267f6809bf6d3934014a18a9b38f6916104286040519283923384611e80565b0390a1005b60019033600052610465602060028152604090816000209061045085888a611e3e565b3560005252600020600160ff19825416179055565b016103ee565b6040516397983bdb60e01b8152600490fd5b6001600160a01b0381160361000e57565b6084359061049b8261047d565b565b359061049b8261047d565b8015150361000e57565b60a4359061049b826104a8565b503461000e57604036600319011261000e577fba28eda47a2e15b1dd3269e6d82f66730d20a5661aa40e9faf9f311c7872a54360406004356105008161047d565b6024359061050d826104a8565b610515613ccf565b6001600160a01b031660008181526007602052839020805460ff191660ff8415151617905590825191825215156020820152a1005b503461000e57602036600319011261000e576004356105688161047d565b610570613ccf565b6001600160a01b031680156105c5576020817f8cffb07faa2874440346743bdc0a86b06c3335cc47dc49b327d10e77b73ceb10926bffffffffffffffffffffffff60a01b600a541617600a55604051908152a1005b604051630f966bcb60e41b8152600490fd5b503461000e57604036600319011261000e576004356105f58161047d565b60018060a01b0316600052600160205260406000206024356000526020526020604060002054604051908152f35b600091031261000e57565b503461000e576000806003193601126106dc57610649613ccf565b60045460ff8160a01c1660038110156106cf575b80156106bd578061066f6001926106f6565b146106aa575b506004805460ff60a01b191690557f8eca980489e87f7dba4f26917aa4bfc906eb3f2b4f7b4b9fd0ff2b8bb3e21ae38180a180f35b6001600160a01b03191660045538610675565b60405163ccf69db760e01b8152600490fd5b6106d76106df565b61065d565b80fd5b50634e487b7160e01b600052602160045260246000fd5b6003111561070057565b61049b6106df565b503461000e57600036600319011261000e57602060ff60045460a01c16604051906003811015610736578152f35b61073e6106df565b8152f35b503461000e57600036600319011261000e5761075c613ccf565b600260ff60045460a01c1660038110156107d8575b036107c657600380546001600160a01b03191690556004805460ff60a01b19169055604051600081527f3edd90e7770f06fafde38004653b33870066c33bfc923ff6102acd601f85dfbc908060208101610428565b60405163022e289160e11b8152600490fd5b6107e06106df565b610771565b503461000e57600036600319011261000e5760206040517f53849a1acec87308423850dccd979fc7a4b74b75a79b19c3b98ec8df38a599db8152f35b6004359061ffff8216820361000e57565b6024359061ffff8216820361000e57565b6044359061ffff8216820361000e57565b6064359061ffff8216820361000e57565b503461000e57602036600319011261000e5761087f610821565b610887613ccf565b61ffff8116906109c482116108e357600a805461ffff60a01b191660a09290921b61ffff60a01b169190911790556040519081527fcaba16bb74e50491b14ebf4755083b43aaf56a765134681af613a2ef8d732f4f90602090a1005b6040516397d7dcfb60e01b8152600490fd5b503461000e57600036600319011261000e576040517f00000000000000000000000000000000000000000000000000000000000000006001600160a01b03168152602090f35b503461000e57600036600319011261000e576005546040516001600160a01b039091168152602090f35b503461000e57602036600319011261000e577fdca612ba3556b7c2603089071be1feb2404df55dcabceee9d5fd852fdb39bc3460206004356109a6816104a8565b6109ae613ccf565b151560045460ff60a81b8260a81b169060ff60a81b191617600455604051908152a1005b503461000e57602036600319011261000e576004356109f08161047d565b60018060a01b03166000526007602052602060ff604060002054166040519015158152f35b503461000e576000806003193601126106dc57610a30613ccf565b60045460ff8160a01c166003811015610a91575b610a7f5760ff60a01b1916600160a11b176004557f3ff05a45e46337fa1cbf20996d2eeb927280bce099f37252bcca1040609604ec8180a180f35b604051633a76bcd760e11b8152600490fd5b610a996106df565b610a44565b503461000e57600036600319011261000e57600a546040516001600160a01b039091168152602090f35b503461000e57600036600319011261000e57602060ff60045460a81c166040519015158152f35b503461000e57600036600319011261000e57602061ffff600a5460a01c16604051908152f35b503461000e57600036600319011261000e57600454600160ff8260a01c16610b3c816106f6565b03610bb9576001600160a01b03163303610ba757600380546001600160a01b03191633908117909155600480546001600160a81b03191690556040519081527f3edd90e7770f06fafde38004653b33870066c33bfc923ff6102acd601f85dfbc908060208101610428565b6040516357ee7dc960e11b8152600490fd5b604051632f27941360e11b8152600490fd5b503461000e57600036600319011261000e576004546040516001600160a01b039091168152602090f35b503461000e57610c04366103a8565b801561046b5760005b818110610c4757507f0560c6093fba8a508d0e6ea3b4d7260d7afa9b152731f03a2d05dfe39b0ec425916104286040519283923384611e80565b33600052600190610c9660208381526040908160002090610c6985888a611e3e565b35600052526000207f53849a1acec87308423850dccd979fc7a4b74b75a79b19c3b98ec8df38a599db9055565b01610c0d565b503461000e57602036600319011261000e57600435610cba8161047d565b60018060a01b031660005260066020526020604060002054604051908152f35b503461000e57600036600319011261000e57600b546040516001600160a01b039091168152602090f35b9081604091031261000e5790565b90816101e091031261000e5790565b9060a060031983011261000e576001600160401b0360043581811161000e5783610d4d91600401610d04565b9260243582811161000e5781610d6591600401610d12565b926044359280841161000e578260238501121561000e5783600401359381851161000e57836024868301011161000e57602401939260643591821161000e57610db091600401610d04565b90610db961048e565b90565b50610dc636610d21565b92909194600b54600260ff8260a01c1614610e8f5760ff60a01b1916600160a11b17600b5560e085013594610dfa8661047d565b6001600160a01b03861660009081526007602052604090205460ff1615610e7d57610e4f610e5694610e5e98610e38610e333686612040565b613b76565b958661010086013593610e4a8561047d565b61360b565b339161311b565b91339061333c565b610e66613f32565b600b805460ff60a01b1916600160a01b179055005b005b604051634f79548760e01b8152600490fd5b604051630ddf739360e11b8152600490fd5b503461000e57604036600319011261000e576020610ec3602435600435611bc4565b604051908152f35b503461000e576000806003193601126106dc57610ee6613ccf565b600c544614610fd357601960f91b6020604051610f0281611b52565b600181520152610fa360405160208101907f8b73c3c69bb8fe3d512ecc4cf759cc79239f7b179b0ffacaa9a75d522b39400f82527f9e6bc51ef68b436657c5fe7a273ea9121a02b234cc81ad1e04892649c9168c6a60408201527fad7c5bef027816a800da1736444fb58a807ef4c9603b7848673f7e3a68eb14a560608201524660808201523060a082015260a08152610f9b81611b6d565b519020600d55565b610fac46600c55565b7f5b2d1f36cd3ec425baab07b99853532e2ba6387a472ddbff437c5cc96f2f20ca8180a180f35b60405163a69915e560e01b8152600490fd5b503461000e57600036600319011261000e576003546040516001600160a01b039091168152602090f35b6001600160e01b031981160361000e57565b503461000e5760c036600319011261000e5761103b610821565b611043610832565b9061104c610843565b916064359261105a8461100f565b608435611066816104a8565b60a435906110738261047d565b61107b613ccf565b61ffff80841681861681811192831561125d575b50508115611251575b5061123f576001600160e01b031986161561122d576040516345b2b38160e01b81526020816004816001600160a01b0387165afa908115611220575b6000916111f2575b50156111e0577f5290475107686ff8d28cd104943b127d453b23622ac55346373fa25c0c8957a29561042893611177611113611ee5565b6001815261ffff8916602082015261ffff8816604082015261ffff831660608201526001600160e01b03198416608082015284151560a08201526001600160a01b03861660c08201526111726008546000526009602052604060002090565b61379e565b6008549561118c611187886138ae565b600855565b6040805197885261ffff98891660208901529088169087015290951660608501526001600160e01b0319909416608084015292151560a08301526001600160a01b0390921660c082015290819060e0820190565b60405163ef8c37d760e01b8152600490fd5b611213915060203d8111611219575b61120b8183611ba3565b810190613789565b386110dc565b503d611201565b61122861275e565b6110d4565b604051636168384960e11b8152600490fd5b60405163b704b7c160e01b8152600490fd5b6101f491501138611098565b8816119150388061108f565b503461000e57602036600319011261000e57600435611286613ccf565b6108fc81106112c0576020817ffc3a20d07f3d5bcc0b01a52011f630765611323fa9afa69f63ba2aa19f7364b692600e55604051908152a1005b6040516356b68a6b60e11b8152600490fd5b503461000e57600036600319011261000e576020600c54604051908152f35b503461000e57602036600319011261000e577fa92d85531a006d07fd0df4c61259b6dc18e4f492857e2454e5a20ee5e55cddcc60206004356113328161047d565b61133a613ccf565b600580546001600160a01b0319166001600160a01b03929092169182179055604051908152a1005b503461000e57602036600319011261000e576004356113808161047d565b60018060a01b031660005260006020526040806000206001815491015482519182526020820152f35b503461000e57600036600319011261000e576040517f00000000000000000000000000000000000000000000000000000000000000006001600160a01b03168152602090f35b503461000e57604036600319011261000e5760043561140d8161047d565b6005546001600160a01b03916024359183163303611497576127108211611485577fa16126d9473196242b0784325b30642b89f34442dd178a852f5b88ee483a30d89281166000526006602052816040600020556104286040519283928360209093929193604081019460018060a01b031681520152565b604051632242dac960e01b8152600490fd5b604051639f63004360e01b8152600490fd5b503461000e57602036600319011261000e577fa7014d98341b07b23615cb6b4da7cca2a381932b46fb39ca4b8c3875c53aa76460206004356114ea8161047d565b6114f2613ccf565b600b80546001600160a01b0319166001600160a01b03929092169182179055604051908152a1005b503461000e57602036600319011261000e57600435600052600960205260e06040600020546040519060ff81161515825261ffff808260081c166020840152808260181c1660408401528160281c16606083015263ffffffff831b8160a81b16608083015260ff8160581c16151560a083015260601c60c0820152f35b503461000e57602036600319011261000e576004356115b58161047d565b6115bd613ccf565b60045460ff8160a01c166003811015611639575b610a7f576001600160a81b0319166001600160a01b03821617600160a01b176004557fb86c75c9bffca616b2d314cc914f7c3f1d174255b16b941c3f3ededee276d5ef9061042890604080513381526001600160a01b03909216602083015290918291820190565b6116416106df565b6115d1565b503461000e57608036600319011261000e57600435602435611667816104a8565b61166f610843565b91611678610854565b92611681613ccf565b6008548210156117bb576116b76116b06116a5846000526009602052604060002090565b5460281c61ffff1690565b61ffff1690565b61ffff908186169081119182156117af575b505061123f577f3b25bf77fa688236b850bf89c87e353098688237aa18dc42593aff0f6387aea9936104289161171e8561170d866000526009602052604060002090565b9060ff801983541691151516179055565b61174e81611736866000526009602052604060002090565b9062ffff0082549160081b169062ffff001916179055565b61178282611766866000526009602052604060002090565b9064ffff00000082549160181b169064ffff0000001916179055565b6040519485948592909493606092608085019685521515602085015261ffff809216604085015216910152565b831611905038806116c9565b60405163bd7056c760e01b8152600490fd5b503461000e57604036600319011261000e577fb738dd6073fae1a7128e3fcc6b4ca6e1356b7232f87cc98f8a2857bcd83dfc4460043561180c816104a8565b602435611818816104a8565b60001943014381116118c2575b336000908152602081905260409020805492914060801c9190600101549361189f575b61186d575b506040805133815260208101929092528101919091528060608101610428565b6118779192611ece565b908160016118973360018060a01b03166000526000602052604060002090565b01553861184d565b91816118aa91611ece565b33600090815260208190526040902081905591611848565b6118ca611ea2565b611825565b503461000e57608036600319011261000e576001600160401b0360043581811161000e57611901903690600401610d04565b9060243590811161000e5761191a903690600401610d12565b604435916119278361047d565b3033036119535761194f9261193f926064359261311b565b6040519081529081906020820190565b0390f35b60405163a78d09b960e01b8152600490fd5b503461000e5761197436610d21565b9290600b54600260ff8260a01c1614610e8f5760ff60a01b1916600160a11b17600b5560e0850135946119a68661047d565b6001600160a01b03861660008181526007602052604090205460ff1615908115611a0a575b50610e7d57610e66966119ff611a04946119e86101008501611edb565b9687916119f8610e333688612040565b809761360b565b6128be565b9261333c565b905015386119cb565b503461000e57604036600319011261000e57600435611a318161047d565b60018060a01b031660005260026020526040600020602435600052602052602060ff604060002054166040519015158152f35b5060c036600319011261000e576001600160401b0360043581811161000e57611a91903690600401610378565b60243583811161000e57611aa9903690600401610378565b9060443585811161000e57611ac2903690600401610378565b9060643596871161000e57611ade610e7b973690600401610378565b94909360843596611aee8861047d565b611af66104b2565b98612153565b503461000e57600036600319011261000e576020600d54604051908152f35b50634e487b7160e01b600052604160045260246000fd5b6001600160401b038111611b4557604052565b611b4d611b1b565b604052565b604081019081106001600160401b03821117611b4557604052565b60c081019081106001600160401b03821117611b4557604052565b606081019081106001600160401b03821117611b4557604052565b90601f801991011681019081106001600160401b03821117611b4557604052565b9060018103611c275750611c13611c217f9661287f7a4aa4867db46a2453ee15bebac4e8fc25667a58718da658f15de643925b6040805160208101958652908101919091529182906060820190565b03601f198101835282611ba3565b51902090565b60028103611c5d5750611c13611c217fa54ab330ea9e1dfccee2b86f3666989e7fbd479704416c757c8de8e820142a0892611bf7565b60038103611c935750611c13611c217f93390f5d45ede9dea305f16aec86b2472af4f823851637f1b7019ad0775cea4992611bf7565b60048103611cc95750611c13611c217f9dda2c8358da895e43d574bb15954ce5727b22e923a2d8f28261f297bce42f0b92611bf7565b60058103611cff5750611c13611c217f92dc717124e161262f9d10c7079e7d54dc51271893fba54aa4a0f270fecdcc9892611bf7565b60068103611d355750611c13611c217fce02aee5a7a35d40d974463c4c6e5534954fb07a7e7bc966fee268a15337bfd892611bf7565b60078103611d6b5750611c13611c217ff7a65efd167a18f7091b2bb929d687dd94503cf0a43620487055ed7d6b72755992611bf7565b60088103611da15750611c13611c217fdef24acacad1318b664520f7c10e8bc6d1e7f6f6f7c8b031e70624ceb42266a692611bf7565b60098103611dd75750611c13611c217f4cb4080dc4e7bae88b4dc4307ad5117fa4f26195998a1b5f40368809d7f4c7f292611bf7565b600a8103611e0d5750611c13611c217ff8b1f864164d8d6e0b45f1399bd711223117a4ab0b057a9c2d7779e86a7c88db92611bf7565b6040516375dec1c560e11b81526004810191909152602490fd5b50634e487b7160e01b600052603260045260246000fd5b9190811015611e4f575b60051b0190565b611e57611e27565b611e48565b81835290916001600160fb1b03831161000e5760209260051b809284830137010190565b6001600160a01b039091168152604060208201819052610db993910191611e5c565b50634e487b7160e01b600052601160045260246000fd5b91908203918211611ec657565b61049b611ea2565b91908201809211611ec657565b35610db98161047d565b6040519060e082018281106001600160401b03821117611b4557604052565b604051906101e082018281106001600160401b03821117611b4557604052565b6040519061049b82611b88565b6002111561000e57565b359061049b82611f31565b6020906001600160401b038111611f5e5760051b0190565b611e57611b1b565b9291611f7182611f46565b91611f7f6040519384611ba3565b829481845260208094019160051b810192831161000e57905b828210611fa55750505050565b81358152908301908301611f98565b9080601f8301121561000e57816020610db993359101611f66565b6020906001600160401b038111611fec575b601f01601f19160190565b611ff4611b1b565b611fe1565b81601f8201121561000e5780359061201082611fcf565b9261201e6040519485611ba3565b8284526020838301011161000e57816000926020809301838601378301015290565b91906101e08382031261000e57612055611f04565b9261205f81611f3b565b84526020810135602085015260408101356040850152606081013560608501526080810135608085015261209560a08201611f3b565b60a08501526120a660c0820161049d565b60c08501526120b760e0820161049d565b60e08501526101006120ca81830161049d565b908501526101208181013590850152610140808201359085015261016080820135908501526001600160401b03916101808083013584811161000e5782612112918501611fb4565b908601526101a08083013584811161000e5782612130918501611fb4565b908601526101c0928383013590811161000e5761214d9201611ff9565b90830152565b999897969391959490600b54600260ff8260a01c1614610e8f5760ff60a01b1916600160a11b17600b5580158015612414575b61046b576121c79a60e0946121d26121ce6121ab886121a5858e612427565b01611edb565b6001600160a01b0381166000908152600760205260409020909f565b5460ff1690565b1590565b610e7d5760009a156122ea5797969594939291906000985b828a10612225575050505050505050505061220892935b339061333c565b612210613f32565b600b805460ff60a01b1916600160a01b179055565b9091929394959697989a88888f888f898f89612243848b8e94612451565b95846122b4575b50936122898461229e97946122838261226f60019e9c99610e4f986122a49f9c612482565b9861227d610e33368b612040565b9a612482565b936124b2565b90866122986101008701611edb565b9361360b565b90611ece565b9b019897969594939291906121ea565b9650505050505091506122c8898301611edb565b6001600160a01b03918216911603610e7d57888f91888f89898f968a9061224a565b8a9c98979493929c5b8d811061230e57505050505050505050612208939450612201565b8d8161231b81858d612451565b91816123ee575b61238992916123319187612482565b908a61236861234e86612347610e333687612040565b938d612482565b612359878b8d6124b2565b90846122986101008801611edb565b6040518094819263d5b7f06560e01b8352602095869533916004860161271f565b03816000305af19182916000936123bf575b50506123ab575b506001016122f3565b6123b8906001929d611ece565b9b906123a2565b6123df929350803d106123e7575b6123d78183611ba3565b810190612501565b90388061239b565b503d6123cd565b50506123fb888201611edb565b6001600160a01b038c8116911603610e7d57818f612322565b5080851881831882861817171515612186565b9015612444575b8035906101de198136030182121561000e570190565b61244c611e27565b61242e565b9190811015612475575b60051b810135906101de198136030182121561000e570190565b61247d611e27565b61245b565b91908110156124a5575b60051b81013590603e198136030182121561000e570190565b6124ad611e27565b61248c565b91908110156124f4575b60051b81013590601e198136030182121561000e5701908135916001600160401b03831161000e57602001823603811361000e579190565b6124fc611e27565b6124bc565b9081602091031261000e575190565b9035601e198236030181121561000e5701602081359101916001600160401b03821161000e57813603831361000e57565b908060209392818452848401376000828201840152601f01601f1916010190565b90604061258c610db99380356125778161047d565b6001600160a01b031684526020810190612510565b9190928160208201520191612541565b6002111561070057565b906125b08261259c565b52565b9035601e198236030181121561000e5701602081359101916001600160401b03821161000e578160051b3603831361000e57565b610db9916125fd816125f884611f3b565b6125a6565b6020820135602082015260408201356040820152606082013560608201526080820135608082015261263e61263460a08401611f3b565b60a08301906125a6565b61265d61264d60c0840161049d565b6001600160a01b031660c0830152565b61267c61266c60e0840161049d565b6001600160a01b031660e0830152565b61269c61010061268d81850161049d565b6001600160a01b031690830152565b6101208083013590820152610140808301359082015261016080830135908201526127006126e46101806126d2818601866125b3565b90916101e08091870152850191611e5c565b6101a06126f3818601866125b3565b9185840390860152611e5c565b916127116101c09182810190612510565b929091818503910152612541565b9060609261273c61274a9297969597608085526080850190612562565b9083820360208501526125e7565b6001600160a01b0390951660408201520152565b506040513d6000823e3d90fd5b35610db981611f31565b90815180825260208080930193019160005b828110612795575050505090565b835185529381019392810192600101612787565b6000915b600283106127ba57505050565b81516001600160a01b0316815260019290920191602091820191016127ad565b6000915b600383106127eb57505050565b6001908251815260208091019201920191906127de565b9561288a9061287a6128b7976128ab9761049b9d9f9e9c976128659061285561289c996101809f998f60406060928051835260208101516020840152015115156040820152019060018060a01b03169052565b6001600160a01b031660808d0152565b60a08b01526001600160a01b031660c08a0152565b6001600160a01b031660e0880152565b6101e080610100880152860190612775565b90848203610120860152612775565b966101408301906127a9565b01906127da565b91906128c98161276b565b6128d28161259c565b612a8a576128e36101008201611edb565b6001600160a01b0381166000908152600160205260409020909290936129186060840135809690600052602052604060002090565b546001600160a01b03851660009081526020819052604090205460208501351490811591612a4d575b8115612a2d575b50612a1b5782339061295992612c02565b8861296d87849b8b85999699989798613580565b60c088019161297b83611edb565b85858c3361298b60a08f0161276b565b61299495613910565b60e08901918a6129a384611edb565b906129af918a8a61352f565b6129b7611f24565b9889526020890152151560408801526129cf90611edb565b906129d990611edb565b906040519860808a99013590336129f0998b612802565b037f9aaa45d6db2ef74ead0751ea9113263d1dec1b50cea05f0ca2002cb8063564a491a16040015190565b604051631782f9fd60e31b8152600490fd5b9050828115159182612a42575b505038612948565b141590508238612a3a565b9050612a846121c7612a718760018060a01b03166000526002602052604060002090565b6040870135600052602052604060002090565b90612941565b60405163d641ac7b60e01b8152600490fd5b60405190612aa982611b52565b6040368337565b60405190612abd82611b88565b6060368337565b9091612adb610db993604084526040840190612562565b9160208184039101526125e7565b3d15612b14573d90612afa82611fcf565b91612b086040519384611ba3565b82523d6000602084013e565b606090565b81601f8201121561000e57805191612b3083611f46565b92612b3e6040519485611ba3565b808452602092838086019260051b82010192831161000e578301905b828210612b68575050505090565b81518152908301908301612b5a565b60808183031261000e578051926020820151926001600160401b039384811161000e5781612ba6918501612b19565b93604084015190811161000e57606091612bc1918501612b19565b920151610db9816104a8565b903590601e198136030182121561000e57018035906001600160401b03821161000e57602001918160051b3603831361000e57565b919290612c0d612a9c565b91612c16612ab0565b916000612c2d6101408301356101208401356130c1565b60808201359081612d2d578483928792612c936101a0612c849b989701612c8b612c7b88612c75612c5e8583612bcd565b612c6d61018085018095612bcd565b9290506130dc565b89612bcd565b9d909289612bcd565b3691611f66565b9b3691611f66565b9a60019761016087013592612cce612cb88f5b86612cb360c08d01611edb565b612ebc565b6020890152602089019060018060a01b03169052565b612cd78861276b565b612ce08161259c565b612d1a5761049b97506001600160a01b03612cfa83611edb565b1615159050612d0a575091612fd5565b612d149150611edb565b91612fd5565b505050612d1461010061049b9601611edb565b612d446121c7836000526009602052604060002090565b15612e3657612d528361276b565b612d73612d69846000526009602052604060002090565b5460581c60ff1690565b14612e29578080612d98612d91856000526009602052604060002090565b5460601c90565b612dc0612daf866000526009602052604060002090565b5460a81b6001600160e01b03191690565b8287612ddf8d611c136040519384926020840197885260248401612ac4565b51925af197612dec612ae9565b9815612e2157612cce94939287928792612e128c602080612cb89f518301019101612b77565b9d9294919d9a909d9e8f612ca6565b885160208a01fd5b63ab98484690526004601cfd5b604051636b9e163560e11b815260048101839052602490fd5b919082604091031261000e5760208251612e688161047d565b92015190565b610db9939260609260018060a01b0316825260208201528160408201520190612775565b9061271091828102928184041490151715611ec657565b81810292918115918404141715611ec657565b600b546000948594909391612ee1906001600160a01b03165b6001600160a01b031690565b6001600160a01b0393818516612ef9575b5050505050565b612f22975083949650926040938451988994859384936370c1092160e01b855260048501612e6e565b03915afa8015612fc8575b6000948591612f94575b508093851615600014612f55575060009250505b3880808080612ef2565b612f61612f7c91612e92565b91612f766116b0600a5461ffff9060a01c1690565b90612ea9565b1015612f4b576040516397d7dcfb60e01b8152600490fd5b9050612fb891945060403d8111612fc1575b612fb08183611ba3565b810190612e4f565b93909338612f37565b503d612fa6565b612fd061275e565b612f2d565b9061049b949293918060005260096020526127109061ffff90826130038360406000205460181c1686612ea9565b04926020860192835192831560001461303b57505050505061302a91816040850152611eb9565b90526001600160a01b039091169052565b61302a96939495929160406130609260009081526009602052205460081c1684612ea9565b0492818185018086116130b4575b10613091575b50506130899192604086019384525190611eb9565b905190611eb9565b613089935081039081116130a7575b9138613074565b6130af611ea2565b6130a0565b6130bc611ea2565b61306e565b904211904210176130ce57565b637476320f6000526004601cfd5b90600092811881151761310e5760051b90815b6130f857505050565b601f1980830192820101351561310e57816130ef565b632e0c0f7183526004601cfd5b90929192600161312a8261276b565b6131338161259c565b03612a8a576131456101008201611edb565b906131786131658360018060a01b03166000526001602052604060002090565b6060830135600052602052604060002090565b546001600160a01b038316600090815260208190526040902060010154602083013514908115916132ff575b81156132df575b50612a1b576131bb338285612c02565b95938399898299849b60608a9896980135906131d8918a8d613580565b826131e560e08b01611edb565b906131f191898961352f565b6131fd60c08a01611edb565b9961320a60a08b0161276b565b906001600160a01b0361321c84611edb565b161560001460409f7f3ee3de4684413690dee6fff1a0a4f92916a1b97d1c5a83cdf24671844306b2e39e60809e6132b99d61327d96613260956132d0578a92613910565b613268611f24565b93845260608b0135602085015215158e840152565b613289612ed582611edb565b6132c1575081905b61329d60e08a01611edb565b916132aa60c08b01611edb565b938e519b8c9b0135928b612802565b0390a1015190565b6132ca90611edb565b90613291565b6132d989611edb565b92613910565b90508481151591826132f4575b5050386131ab565b1415905084386132ec565b90506133366121c76133238560018060a01b03166000526002602052604060002090565b6040850135600052602052604060002090565b906131a4565b909291928261334c575b50505050565b613378936001600160a01b039081811680613381575b5050600a546001600160a01b0316905091613442565b38808080613346565b60ff60045460a81c1615613362578060005260066020526133b26133aa60406000205488612ea9565b612710900490565b90816133bf575b50613362565b81613425916133f28895947f49e92b6b3114f7e128555cd58c568f7c2e0e56fe9b4c46b6125bc308184623b3979a611eb9565b98871603613431575b604080516001600160a01b0394851681529490931660208501529183019190915281906060820190565b0390a1388080806133b9565b61343d81848887613442565b6133fb565b919291906001600160a01b0382166134855750509061049b91600e54917f0000000000000000000000000000000000000000000000000000000000000000613f5f565b813b1561351d576040516323b872dd60e01b602082019081526001600160a01b0392831660248301529490911660448201526064810192909252600092839283906134d38160848101611c13565b51925af16134df612ae9565b901561350b578051806134f0575050565b816020806121ce936135059501019101613789565b61350b57565b60405163e560521360e01b8152600490fd5b6040516309ee12d560e01b8152600490fd5b929190602090805180613563575b500151918261354c5750505050565b61337893602060018060a01b039101511691613442565b855161357a91906001600160a01b03168686613442565b3861353d565b909290156135d057507f53849a1acec87308423850dccd979fc7a4b74b75a79b19c3b98ec8df38a599db915b60018060a01b03166000526001602052604060002090600052602052604060002055565b916135ac565b903590601e198136030182121561000e57018035906001600160401b03821161000e57602001918160061b3603831361000e57565b939291906020948581019561362087836135d6565b80989150613636575b50505061049b9450613714565b600a88116136fb5761364a908394936135d6565b9335938493926000925b82841061368b5750505050036136795761049b9461367191611bc4565b388080613629565b60405163c8ac23c360e01b8152600490fd5b91939083955061369d81948685613a54565b01356136a881611f31565b6136b18161259c565b6136dc576136c0858584613a54565b35600052825260016040600020945b0192909185949392613654565b6136e7858584613a54565b3590600052825260016040600020946136cf565b6040516375dec1c560e11b815260048101899052602490fd5b92600c5446146000146137775761049b93600d549060405190602082019261190160f01b84526022830152604282015260428152608081018181106001600160401b0382111761376a575b604052519020613d21565b613772611b1b565b61375f565b604051636fd794c760e01b8152600490fd5b9081602091031261000e5751610db9816104a8565b61388460c061049b936137c081511515859060ff801983541691151516179055565b6020810151845462ffff00191660089190911b62ffff001617845561380161ffff6040830151865464ffff0000001916911660181b64ffff00000016178555565b606081015166ffff000000000085549160281b168066ffff00000000001983161786556affffffff00000000000000608084015160a81c16916affffffffffff000000000019161717845561387661385c60a0830151151590565b855460ff60581b191690151560581b60ff60581b16178555565b01516001600160a01b031690565b81546bffffffffffffffffffffffff1660609190911b6bffffffffffffffffffffffff1916179055565b60019060001981146138be570190565b6138c6611ea2565b0190565b6001600160a01b0391821681529181166020830152909116604082015260a060608201819052610db993919261390291840190612775565b916080818403910152612775565b9394919061391d8161259c565b806139ac57507f00000000000000000000000000000000000000000000000000000000000000006001600160a01b031691823b1561000e5760009461397a86926040519889978896879563a7bc96d360e01b8752600487016138ca565b03925af1801561399f575b61398c5750565b8061399961049b92611b32565b80610623565b6139a761275e565b613985565b806139b860019261259c565b146139c4575050505050565b7f00000000000000000000000000000000000000000000000000000000000000006001600160a01b031691823b1561000e57600094613a1b869260405198899788968795635052036360e11b8752600487016138ca565b03925af18015613a47575b613a34575b80808080612ef2565b80613999613a4192611b32565b38613a2b565b613a4f61275e565b613a26565b9190811015613a65575b60061b0190565b613a6d611e27565b613a5e565b969491926101009693999894919961012089019a7e3c1bce41a2de73dfe64d6eeb2b3d7f15f1c0c382d9d963c2c6daeb75f0e5398a52613ab18161259c565b60208a015260408901526060880152608087015260a0860152613ad38161259c565b60c08501526001600160a01b0391821660e085015216910152565b805160208092019160005b828110613b07575050505090565b835185529381019392810192600101613af9565b9081519160005b838110613b33575050016000815290565b8060208092840101518185015201613b22565b61049b90613b68613b6294936040519586936020850190613b1b565b90613b1b565b03601f198101845283611ba3565b613cc7815191613b858361259c565b602092613cc284613bde8185015160408601516060870151608088015160a089015191613bb18361259c565b60c08a01516001600160a01b031660e08b01519094906001600160a01b0316956040519a8b998a01613a72565b03613bf1601f1991828101855284611ba3565b6101008401518690613cb6906001600160a01b03169561012081015190610140810151610160820151610180830151604051613c4081613c348a82018095613aee565b038a8101835282611ba3565b519020916101c06101a0850151604051613c6d81613c618c82018095613aee565b038c8101835282611ba3565b519020940151805190880120604080516001600160a01b03909d16988d019889526020890196909652948701526060860152608085015260a084015260c0830152859160e00190565b03908101845283611ba3565b613b46565b805191012090565b6003546001600160a01b03163303613ce357565b6040516330cd747160e01b8152600490fd5b9081602091031261000e5751610db98161100f565b604090610db9949281528160208201520191612541565b929091823b613d5857613d349293613df8565b6001600160a01b0390811691161461049b5760405163d1085d1b60e01b8152600490fd5b90613d7e92602092604051809581948293630b135d3f60e11b998a855260048501613d0a565b03916001600160a01b03165afa908115613deb575b600091613dbd575b506001600160e01b0319161461049b5760405163f6cd0e2f60e01b8152600490fd5b613dde915060203d8111613de4575b613dd68183611ba3565b810190613cf5565b38613d9b565b503d613dcc565b613df361275e565b613d93565b909160418103613eef5750604082013560001a91602081013590355b7f7fffffffffffffffffffffffffffffff5d576e7357a4501ddfe92f46681b20a08211613edd5760ff8416601b8114159081613ed1575b50613eb6576040805193845260ff9490941660208085019190915293830152606082015260008080529060809060015afa15613ea9575b600051906001600160a01b03821615613e9757565b60405163f05a20c760e01b8152600490fd5b613eb161275e565b613e82565b60405163105e24e960e21b815260ff85166004820152602490fd5b601c9150141538613e4b565b6040516360c2892960e11b8152600490fd5b60408103613f185750602082013560ff81901c601b01926001600160ff1b039091169035613e14565b60405163d42b4bbd60e01b81526004810191909152602490fd5b4760018111613f3e5750565b600080808093811901335af115613f5157565b6307246cf46000526004601cfd5b613f73828495600080809781948294f11590565b613f7d5750505050565b6001600160a01b031691823b156106dc5791613fed9391602093604051630d0e30db60e41b8152818160048188885af18015614043575b614030575b5060405163a9059cbb60e01b81526001600160a01b0390921660048301526024820193909352938492839182906044820190565b03925af18015614023575b614005575b808080613346565b61401c9060203d81116112195761120b8183611ba3565b5038613ffd565b61402b61275e565b613ff8565b8061399961403d92611b32565b38613fb9565b61404b61275e565b613fb456fea26469706673582212202fb8c825cbf0c451fda5b6c3094b2642e58ec8a77c3775e218c713c8463a586464736f6c63430008110033",
    "linkReferences": {}
  },
  "methodIdentifiers": {
    "MAGIC_VALUE_ORDER_NONCE_EXECUTED()": "463357ec",
    "WETH()": "ad5c4648",
    "addStrategy(uint16,uint16,uint16,bytes4,bool,address)": "91be1360",
    "affiliateController()": "4cbac9dc",
    "affiliateRates(address)": "7a7d8851",
    "cancelOrderNonces(uint256[])": "79ed31d4",
    "cancelOwnershipTransfer()": "23452b9c",
    "cancelSubsetNonces(uint256[])": "134849a6",
    "chainId()": "9a8a0592",
    "confirmOwnershipRenouncement()": "3e567539",
    "confirmOwnershipTransfer()": "7200b829",
    "creatorFeeManager()": "838b8f5c",
    "domainSeparator()": "f698da25",
    "executeMultipleTakerBids((address,bytes)[],(uint8,uint256,uint256,uint256,uint256,uint8,address,address,address,uint256,uint256,uint256,uint256[],uint256[],bytes)[],bytes[],(bytes32,(bytes32,uint8)[])[],address,bool)": "f4288a21",
    "executeTakerAsk((address,bytes),(uint8,uint256,uint256,uint256,uint256,uint8,address,address,address,uint256,uint256,uint256,uint256[],uint256[],bytes),bytes,(bytes32,(bytes32,uint8)[]),address)": "e72853e1",
    "executeTakerBid((address,bytes),(uint8,uint256,uint256,uint256,uint256,uint8,address,address,address,uint256,uint256,uint256,uint256[],uint256[],bytes),bytes,(bytes32,(bytes32,uint8)[]),address)": "8585ae03",
    "hashBatchOrder(bytes32,uint256)": "86c07642",
    "incrementBidAskNonces(bool,bool)": "d5b010f5",
    "initiateOwnershipRenouncement()": "5b6ac011",
    "initiateOwnershipTransfer(address)": "c0b6f561",
    "isAffiliateProgramActive()": "67d9dd79",
    "isCurrencyAllowed(address)": "5a195d19",
    "maxCreatorFeeBp()": "6e90c014",
    "owner()": "8da5cb5b",
    "ownershipStatus()": "2bb5a9e6",
    "potentialOwner()": "7762df25",
    "protocolFeeRecipient()": "64df049e",
    "restrictedExecuteTakerBid((address,bytes),(uint8,uint256,uint256,uint256,uint256,uint8,address,address,address,uint256,uint256,uint256,uint256[],uint256[],bytes),address,bytes32)": "d5b7f065",
    "strategyInfo(uint256)": "bb91c339",
    "transferManager()": "46ea2552",
    "updateAffiliateController(address)": "a02bab57",
    "updateAffiliateProgramStatus(bool)": "54878876",
    "updateAffiliateRate(address,uint256)": "ae1cce5a",
    "updateCreatorFeeManager(address)": "b647a404",
    "updateCurrencyStatus(address,bool)": "1d3c4268",
    "updateDomainSeparator()": "89ccfe89",
    "updateETHGasLimitForTransfer(uint256)": "974e7c9f",
    "updateMaxCreatorFeeBp(uint16)": "46b625bc",
    "updateProtocolFeeRecipient(address)": "1df47f80",
    "updateStrategy(uint256,bool,uint16,uint16)": "d5a06adf",
    "userBidAskNonces(address)": "a39bf29f",
    "userOrderNonce(address,uint256)": "20cd05c7",
    "userSubsetNonce(address,uint256)": "ea179b76"
  },
  "id": 15
}