{
  "abi": [
    {
      "inputs": [
        {
          "internalType": "address",
          "name": "_endpoint",
          "type": "address"
        },
        {
          "internalType": "address",
          "name": "_owner",
          "type": "address"
        },
        {
          "internalType": "address",
          "name": "_protocolFeeRecipient",
          "type": "address"
        },
        {
          "internalType": "address",
          "name": "_transferManager",
          "type": "address"
        },
        {
          "internalType": "address",
          "name": "_weth",
          "type": "address"
        }
      ],
      "stateMutability": "nonpayable",
      "type": "constructor"
    },
    {
      "inputs": [],
      "name": "CallerInvalid",
      "type": "error"
    },
    {
      "inputs": [],
      "name": "ChainIdInvalid",
      "type": "error"
    },
    {
      "inputs": [],
      "name": "CreatorFeeBpTooHigh",
      "type": "error"
    },
    {
      "inputs": [],
      "name": "CurrencyInvalid",
      "type": "error"
    },
    {
      "inputs": [],
      "name": "ERC20TransferFromFail",
      "type": "error"
    },
    {
      "inputs": [],
      "name": "LengthsInvalid",
      "type": "error"
    },
    {
      "inputs": [],
      "name": "MerkleProofInvalid",
      "type": "error"
    },
    {
      "inputs": [
        {
          "internalType": "uint256",
          "name": "length",
          "type": "uint256"
        }
      ],
      "name": "MerkleProofTooLarge",
      "type": "error"
    },
    {
      "inputs": [],
      "name": "NewGasLimitETHTransferTooLow",
      "type": "error"
    },
    {
      "inputs": [],
      "name": "NewProtocolFeeRecipientCannotBeNullAddress",
      "type": "error"
    },
    {
      "inputs": [],
      "name": "NoOngoingTransferInProgress",
      "type": "error"
    },
    {
      "inputs": [],
      "name": "NoSelectorForStrategy",
      "type": "error"
    },
    {
      "inputs": [],
      "name": "NoncesInvalid",
      "type": "error"
    },
    {
      "inputs": [],
      "name": "NotAContract",
      "type": "error"
    },
    {
      "inputs": [],
      "name": "NotAffiliateController",
      "type": "error"
    },
    {
      "inputs": [],
      "name": "NotOwner",
      "type": "error"
    },
    {
      "inputs": [],
      "name": "NotV2Strategy",
      "type": "error"
    },
    {
      "inputs": [],
      "name": "NullSignerAddress",
      "type": "error"
    },
    {
      "inputs": [],
      "name": "OutsideOfTimeRange",
      "type": "error"
    },
    {
      "inputs": [],
      "name": "PercentageTooHigh",
      "type": "error"
    },
    {
      "inputs": [],
      "name": "QuoteTypeInvalid",
      "type": "error"
    },
    {
      "inputs": [],
      "name": "ReentrancyFail",
      "type": "error"
    },
    {
      "inputs": [],
      "name": "RenouncementNotInProgress",
      "type": "error"
    },
    {
      "inputs": [],
      "name": "SameDomainSeparator",
      "type": "error"
    },
    {
      "inputs": [],
      "name": "SignatureEOAInvalid",
      "type": "error"
    },
    {
      "inputs": [],
      "name": "SignatureERC1271Invalid",
      "type": "error"
    },
    {
      "inputs": [
        {
          "internalType": "uint256",
          "name": "length",
          "type": "uint256"
        }
      ],
      "name": "SignatureLengthInvalid",
      "type": "error"
    },
    {
      "inputs": [],
      "name": "SignatureParameterSInvalid",
      "type": "error"
    },
    {
      "inputs": [
        {
          "internalType": "uint8",
          "name": "v",
          "type": "uint8"
        }
      ],
      "name": "SignatureParameterVInvalid",
      "type": "error"
    },
    {
      "inputs": [],
      "name": "StrategyHasNoSelector",
      "type": "error"
    },
    {
      "inputs": [
        {
          "internalType": "uint256",
          "name": "strategyId",
          "type": "uint256"
        }
      ],
      "name": "StrategyNotAvailable",
      "type": "error"
    },
    {
      "inputs": [],
      "name": "StrategyNotUsed",
      "type": "error"
    },
    {
      "inputs": [],
      "name": "StrategyProtocolFeeTooHigh",
      "type": "error"
    },
    {
      "inputs": [],
      "name": "TransferAlreadyInProgress",
      "type": "error"
    },
    {
      "inputs": [],
      "name": "TransferNotInProgress",
      "type": "error"
    },
    {
      "inputs": [],
      "name": "WrongPotentialOwner",
      "type": "error"
    },
    {
      "anonymous": false,
      "inputs": [
        {
          "indexed": false,
          "internalType": "address",
          "name": "affiliate",
          "type": "address"
        },
        {
          "indexed": false,
          "internalType": "address",
          "name": "currency",
          "type": "address"
        },
        {
          "indexed": false,
          "internalType": "uint256",
          "name": "affiliateFee",
          "type": "uint256"
        }
      ],
      "name": "AffiliatePayment",
      "type": "event"
    },
    {
      "anonymous": false,
      "inputs": [],
      "name": "CancelOwnershipTransfer",
      "type": "event"
    },
    {
      "anonymous": false,
      "inputs": [
        {
          "indexed": false,
          "internalType": "address",
          "name": "currency",
          "type": "address"
        },
        {
          "indexed": false,
          "internalType": "bool",
          "name": "isAllowed",
          "type": "bool"
        }
      ],
      "name": "CurrencyStatusUpdated",
      "type": "event"
    },
    {
      "anonymous": false,
      "inputs": [],
      "name": "InitiateOwnershipRenouncement",
      "type": "event"
    },
    {
      "anonymous": false,
      "inputs": [
        {
          "indexed": false,
          "internalType": "address",
          "name": "previousOwner",
          "type": "address"
        },
        {
          "indexed": false,
          "internalType": "address",
          "name": "potentialOwner",
          "type": "address"
        }
      ],
      "name": "InitiateOwnershipTransfer",
      "type": "event"
    },
    {
      "anonymous": false,
      "inputs": [
        {
          "indexed": false,
          "internalType": "uint16",
          "name": "_srcChainId",
          "type": "uint16"
        },
        {
          "indexed": false,
          "internalType": "bytes",
          "name": "_srcAddress",
          "type": "bytes"
        },
        {
          "indexed": false,
          "internalType": "uint64",
          "name": "_nonce",
          "type": "uint64"
        },
        {
          "indexed": false,
          "internalType": "bytes",
          "name": "_payload",
          "type": "bytes"
        }
      ],
      "name": "MessageFailed",
      "type": "event"
    },
    {
      "anonymous": false,
      "inputs": [
        {
          "indexed": false,
          "internalType": "address",
          "name": "affiliateController",
          "type": "address"
        }
      ],
      "name": "NewAffiliateController",
      "type": "event"
    },
    {
      "anonymous": false,
      "inputs": [
        {
          "indexed": false,
          "internalType": "bool",
          "name": "isActive",
          "type": "bool"
        }
      ],
      "name": "NewAffiliateProgramStatus",
      "type": "event"
    },
    {
      "anonymous": false,
      "inputs": [
        {
          "indexed": false,
          "internalType": "address",
          "name": "affiliate",
          "type": "address"
        },
        {
          "indexed": false,
          "internalType": "uint256",
          "name": "rate",
          "type": "uint256"
        }
      ],
      "name": "NewAffiliateRate",
      "type": "event"
    },
    {
      "anonymous": false,
      "inputs": [
        {
          "indexed": false,
          "internalType": "address",
          "name": "user",
          "type": "address"
        },
        {
          "indexed": false,
          "internalType": "uint256",
          "name": "bidNonce",
          "type": "uint256"
        },
        {
          "indexed": false,
          "internalType": "uint256",
          "name": "askNonce",
          "type": "uint256"
        }
      ],
      "name": "NewBidAskNonces",
      "type": "event"
    },
    {
      "anonymous": false,
      "inputs": [
        {
          "indexed": false,
          "internalType": "address",
          "name": "creatorFeeManager",
          "type": "address"
        }
      ],
      "name": "NewCreatorFeeManager",
      "type": "event"
    },
    {
      "anonymous": false,
      "inputs": [],
      "name": "NewDomainSeparator",
      "type": "event"
    },
    {
      "anonymous": false,
      "inputs": [
        {
          "indexed": false,
          "internalType": "uint256",
          "name": "gasLimitETHTransfer",
          "type": "uint256"
        }
      ],
      "name": "NewGasLimitETHTransfer",
      "type": "event"
    },
    {
      "anonymous": false,
      "inputs": [
        {
          "indexed": false,
          "internalType": "uint256",
          "name": "maxCreatorFeeBp",
          "type": "uint256"
        }
      ],
      "name": "NewMaxCreatorFeeBp",
      "type": "event"
    },
    {
      "anonymous": false,
      "inputs": [
        {
          "indexed": false,
          "internalType": "address",
          "name": "newOwner",
          "type": "address"
        }
      ],
      "name": "NewOwner",
      "type": "event"
    },
    {
      "anonymous": false,
      "inputs": [
        {
          "indexed": false,
          "internalType": "address",
          "name": "protocolFeeRecipient",
          "type": "address"
        }
      ],
      "name": "NewProtocolFeeRecipient",
      "type": "event"
    },
    {
      "anonymous": false,
      "inputs": [
        {
          "indexed": false,
          "internalType": "uint256",
          "name": "strategyId",
          "type": "uint256"
        },
        {
          "indexed": false,
          "internalType": "uint16",
          "name": "standardProtocolFeeBp",
          "type": "uint16"
        },
        {
          "indexed": false,
          "internalType": "uint16",
          "name": "minTotalFeeBp",
          "type": "uint16"
        },
        {
          "indexed": false,
          "internalType": "uint16",
          "name": "maxProtocolFeeBp",
          "type": "uint16"
        },
        {
          "indexed": false,
          "internalType": "bytes4",
          "name": "selector",
          "type": "bytes4"
        },
        {
          "indexed": false,
          "internalType": "bool",
          "name": "isMakerBid",
          "type": "bool"
        },
        {
          "indexed": false,
          "internalType": "address",
          "name": "implementation",
          "type": "address"
        }
      ],
      "name": "NewStrategy",
      "type": "event"
    },
    {
      "anonymous": false,
      "inputs": [
        {
          "indexed": false,
          "internalType": "address",
          "name": "user",
          "type": "address"
        },
        {
          "indexed": false,
          "internalType": "uint256[]",
          "name": "orderNonces",
          "type": "uint256[]"
        }
      ],
      "name": "OrderNoncesCancelled",
      "type": "event"
    },
    {
      "anonymous": false,
      "inputs": [
        {
          "indexed": false,
          "internalType": "uint16",
          "name": "_dstChainId",
          "type": "uint16"
        },
        {
          "indexed": false,
          "internalType": "uint16",
          "name": "_type",
          "type": "uint16"
        },
        {
          "indexed": false,
          "internalType": "uint256",
          "name": "_minDstGas",
          "type": "uint256"
        }
      ],
      "name": "SetMinDstGas",
      "type": "event"
    },
    {
      "anonymous": false,
      "inputs": [
        {
          "indexed": false,
          "internalType": "address",
          "name": "precrime",
          "type": "address"
        }
      ],
      "name": "SetPrecrime",
      "type": "event"
    },
    {
      "anonymous": false,
      "inputs": [
        {
          "indexed": false,
          "internalType": "uint16",
          "name": "_remoteChainId",
          "type": "uint16"
        },
        {
          "indexed": false,
          "internalType": "bytes",
          "name": "_path",
          "type": "bytes"
        }
      ],
      "name": "SetTrustedRemote",
      "type": "event"
    },
    {
      "anonymous": false,
      "inputs": [
        {
          "indexed": false,
          "internalType": "uint16",
          "name": "_remoteChainId",
          "type": "uint16"
        },
        {
          "indexed": false,
          "internalType": "bytes",
          "name": "_remoteAddress",
          "type": "bytes"
        }
      ],
      "name": "SetTrustedRemoteAddress",
      "type": "event"
    },
    {
      "anonymous": false,
      "inputs": [
        {
          "indexed": false,
          "internalType": "uint256",
          "name": "strategyId",
          "type": "uint256"
        },
        {
          "indexed": false,
          "internalType": "bool",
          "name": "isActive",
          "type": "bool"
        },
        {
          "indexed": false,
          "internalType": "uint16",
          "name": "standardProtocolFeeBp",
          "type": "uint16"
        },
        {
          "indexed": false,
          "internalType": "uint16",
          "name": "minTotalFeeBp",
          "type": "uint16"
        }
      ],
      "name": "StrategyUpdated",
      "type": "event"
    },
    {
      "anonymous": false,
      "inputs": [
        {
          "indexed": false,
          "internalType": "address",
          "name": "user",
          "type": "address"
        },
        {
          "indexed": false,
          "internalType": "uint256[]",
          "name": "subsetNonces",
          "type": "uint256[]"
        }
      ],
      "name": "SubsetNoncesCancelled",
      "type": "event"
    },
    {
      "anonymous": false,
      "inputs": [
        {
          "components": [
            {
              "internalType": "bytes32",
              "name": "orderHash",
              "type": "bytes32"
            },
            {
              "internalType": "uint256",
              "name": "orderNonce",
              "type": "uint256"
            },
            {
              "internalType": "bool",
              "name": "isNonceInvalidated",
              "type": "bool"
            }
          ],
          "indexed": false,
          "internalType": "struct IOmniXExchange.NonceInvalidationParameters",
          "name": "nonceInvalidationParameters",
          "type": "tuple"
        },
        {
          "indexed": false,
          "internalType": "address",
          "name": "askUser",
          "type": "address"
        },
        {
          "indexed": false,
          "internalType": "address",
          "name": "bidUser",
          "type": "address"
        },
        {
          "indexed": false,
          "internalType": "uint256",
          "name": "strategyId",
          "type": "uint256"
        },
        {
          "indexed": false,
          "internalType": "address",
          "name": "currency",
          "type": "address"
        },
        {
          "indexed": false,
          "internalType": "address",
          "name": "collection",
          "type": "address"
        },
        {
          "indexed": false,
          "internalType": "uint256[]",
          "name": "itemIds",
          "type": "uint256[]"
        },
        {
          "indexed": false,
          "internalType": "uint256[]",
          "name": "amounts",
          "type": "uint256[]"
        },
        {
          "indexed": false,
          "internalType": "address[2]",
          "name": "feeRecipients",
          "type": "address[2]"
        },
        {
          "indexed": false,
          "internalType": "uint256[3]",
          "name": "feeAmounts",
          "type": "uint256[3]"
        }
      ],
      "name": "TakerAsk",
      "type": "event"
    },
    {
      "anonymous": false,
      "inputs": [
        {
          "components": [
            {
              "internalType": "bytes32",
              "name": "orderHash",
              "type": "bytes32"
            },
            {
              "internalType": "uint256",
              "name": "orderNonce",
              "type": "uint256"
            },
            {
              "internalType": "bool",
              "name": "isNonceInvalidated",
              "type": "bool"
            }
          ],
          "indexed": false,
          "internalType": "struct IOmniXExchange.NonceInvalidationParameters",
          "name": "nonceInvalidationParameters",
          "type": "tuple"
        },
        {
          "indexed": false,
          "internalType": "address",
          "name": "bidUser",
          "type": "address"
        },
        {
          "indexed": false,
          "internalType": "address",
          "name": "bidRecipient",
          "type": "address"
        },
        {
          "indexed": false,
          "internalType": "uint256",
          "name": "strategyId",
          "type": "uint256"
        },
        {
          "indexed": false,
          "internalType": "address",
          "name": "currency",
          "type": "address"
        },
        {
          "indexed": false,
          "internalType": "address",
          "name": "collection",
          "type": "address"
        },
        {
          "indexed": false,
          "internalType": "uint256[]",
          "name": "itemIds",
          "type": "uint256[]"
        },
        {
          "indexed": false,
          "internalType": "uint256[]",
          "name": "amounts",
          "type": "uint256[]"
        },
        {
          "indexed": false,
          "internalType": "address[2]",
          "name": "feeRecipients",
          "type": "address[2]"
        },
        {
          "indexed": false,
          "internalType": "uint256[3]",
          "name": "feeAmounts",
          "type": "uint256[3]"
        }
      ],
      "name": "TakerBid",
      "type": "event"
    },
    {
      "inputs": [],
      "name": "MAGIC_VALUE_ORDER_NONCE_EXECUTED",
      "outputs": [
        {
          "internalType": "bytes32",
          "name": "",
          "type": "bytes32"
        }
      ],
      "stateMutability": "view",
      "type": "function"
    },
    {
      "inputs": [],
      "name": "WETH",
      "outputs": [
        {
          "internalType": "address",
          "name": "",
          "type": "address"
        }
      ],
      "stateMutability": "view",
      "type": "function"
    },
    {
      "inputs": [
        {
          "internalType": "uint16",
          "name": "standardProtocolFeeBp",
          "type": "uint16"
        },
        {
          "internalType": "uint16",
          "name": "minTotalFeeBp",
          "type": "uint16"
        },
        {
          "internalType": "uint16",
          "name": "maxProtocolFeeBp",
          "type": "uint16"
        },
        {
          "internalType": "bytes4",
          "name": "selector",
          "type": "bytes4"
        },
        {
          "internalType": "bool",
          "name": "isMakerBid",
          "type": "bool"
        },
        {
          "internalType": "address",
          "name": "implementation",
          "type": "address"
        }
      ],
      "name": "addStrategy",
      "outputs": [],
      "stateMutability": "nonpayable",
      "type": "function"
    },
    {
      "inputs": [],
      "name": "affiliateController",
      "outputs": [
        {
          "internalType": "address",
          "name": "",
          "type": "address"
        }
      ],
      "stateMutability": "view",
      "type": "function"
    },
    {
      "inputs": [
        {
          "internalType": "address",
          "name": "",
          "type": "address"
        }
      ],
      "name": "affiliateRates",
      "outputs": [
        {
          "internalType": "uint256",
          "name": "",
          "type": "uint256"
        }
      ],
      "stateMutability": "view",
      "type": "function"
    },
    {
      "inputs": [
        {
          "internalType": "uint256[]",
          "name": "orderNonces",
          "type": "uint256[]"
        }
      ],
      "name": "cancelOrderNonces",
      "outputs": [],
      "stateMutability": "nonpayable",
      "type": "function"
    },
    {
      "inputs": [],
      "name": "cancelOwnershipTransfer",
      "outputs": [],
      "stateMutability": "nonpayable",
      "type": "function"
    },
    {
      "inputs": [
        {
          "internalType": "uint256[]",
          "name": "subsetNonces",
          "type": "uint256[]"
        }
      ],
      "name": "cancelSubsetNonces",
      "outputs": [],
      "stateMutability": "nonpayable",
      "type": "function"
    },
    {
      "inputs": [],
      "name": "chainId",
      "outputs": [
        {
          "internalType": "uint256",
          "name": "",
          "type": "uint256"
        }
      ],
      "stateMutability": "view",
      "type": "function"
    },
    {
      "inputs": [],
      "name": "confirmOwnershipRenouncement",
      "outputs": [],
      "stateMutability": "nonpayable",
      "type": "function"
    },
    {
      "inputs": [],
      "name": "confirmOwnershipTransfer",
      "outputs": [],
      "stateMutability": "nonpayable",
      "type": "function"
    },
    {
      "inputs": [],
      "name": "creatorFeeManager",
      "outputs": [
        {
          "internalType": "contract ICreatorFeeManager",
          "name": "",
          "type": "address"
        }
      ],
      "stateMutability": "view",
      "type": "function"
    },
    {
      "inputs": [],
      "name": "domainSeparator",
      "outputs": [
        {
          "internalType": "bytes32",
          "name": "",
          "type": "bytes32"
        }
      ],
      "stateMutability": "view",
      "type": "function"
    },
    {
      "inputs": [
        {
          "components": [
            {
              "internalType": "address",
              "name": "recipient",
              "type": "address"
            },
            {
              "internalType": "uint16",
              "name": "lzChainId",
              "type": "uint16"
            },
            {
              "internalType": "bytes",
              "name": "additionalParameters",
              "type": "bytes"
            }
          ],
          "internalType": "struct OrderStructs.Taker[]",
          "name": "takerBids",
          "type": "tuple[]"
        },
        {
          "components": [
            {
              "internalType": "enum QuoteType",
              "name": "quoteType",
              "type": "uint8"
            },
            {
              "internalType": "uint256",
              "name": "globalNonce",
              "type": "uint256"
            },
            {
              "internalType": "uint256",
              "name": "subsetNonce",
              "type": "uint256"
            },
            {
              "internalType": "uint256",
              "name": "orderNonce",
              "type": "uint256"
            },
            {
              "internalType": "uint256",
              "name": "strategyId",
              "type": "uint256"
            },
            {
              "internalType": "enum CollectionType",
              "name": "collectionType",
              "type": "uint8"
            },
            {
              "internalType": "address",
              "name": "collection",
              "type": "address"
            },
            {
              "internalType": "address",
              "name": "currency",
              "type": "address"
            },
            {
              "internalType": "address",
              "name": "signer",
              "type": "address"
            },
            {
              "internalType": "uint256",
              "name": "startTime",
              "type": "uint256"
            },
            {
              "internalType": "uint256",
              "name": "endTime",
              "type": "uint256"
            },
            {
              "internalType": "uint256",
              "name": "price",
              "type": "uint256"
            },
            {
              "internalType": "uint256[]",
              "name": "itemIds",
              "type": "uint256[]"
            },
            {
              "internalType": "uint256[]",
              "name": "amounts",
              "type": "uint256[]"
            },
            {
              "internalType": "uint16",
              "name": "lzChainId",
              "type": "uint16"
            },
            {
              "internalType": "bytes",
              "name": "additionalParameters",
              "type": "bytes"
            }
          ],
          "internalType": "struct OrderStructs.Maker[]",
          "name": "makerAsks",
          "type": "tuple[]"
        },
        {
          "internalType": "bytes[]",
          "name": "makerSignatures",
          "type": "bytes[]"
        },
        {
          "components": [
            {
              "internalType": "bytes32",
              "name": "root",
              "type": "bytes32"
            },
            {
              "components": [
                {
                  "internalType": "bytes32",
                  "name": "value",
                  "type": "bytes32"
                },
                {
                  "internalType": "enum OrderStructs.MerkleTreeNodePosition",
                  "name": "position",
                  "type": "uint8"
                }
              ],
              "internalType": "struct OrderStructs.MerkleTreeNode[]",
              "name": "proof",
              "type": "tuple[]"
            }
          ],
          "internalType": "struct OrderStructs.MerkleTree[]",
          "name": "merkleTrees",
          "type": "tuple[]"
        },
        {
          "internalType": "address",
          "name": "affiliate",
          "type": "address"
        },
        {
          "internalType": "bool",
          "name": "isAtomic",
          "type": "bool"
        }
      ],
      "name": "executeMultipleTakerBids",
      "outputs": [],
      "stateMutability": "payable",
      "type": "function"
    },
    {
      "inputs": [
        {
          "components": [
            {
              "internalType": "address",
              "name": "recipient",
              "type": "address"
            },
            {
              "internalType": "uint16",
              "name": "lzChainId",
              "type": "uint16"
            },
            {
              "internalType": "bytes",
              "name": "additionalParameters",
              "type": "bytes"
            }
          ],
          "internalType": "struct OrderStructs.Taker",
          "name": "takerAsk",
          "type": "tuple"
        },
        {
          "components": [
            {
              "internalType": "enum QuoteType",
              "name": "quoteType",
              "type": "uint8"
            },
            {
              "internalType": "uint256",
              "name": "globalNonce",
              "type": "uint256"
            },
            {
              "internalType": "uint256",
              "name": "subsetNonce",
              "type": "uint256"
            },
            {
              "internalType": "uint256",
              "name": "orderNonce",
              "type": "uint256"
            },
            {
              "internalType": "uint256",
              "name": "strategyId",
              "type": "uint256"
            },
            {
              "internalType": "enum CollectionType",
              "name": "collectionType",
              "type": "uint8"
            },
            {
              "internalType": "address",
              "name": "collection",
              "type": "address"
            },
            {
              "internalType": "address",
              "name": "currency",
              "type": "address"
            },
            {
              "internalType": "address",
              "name": "signer",
              "type": "address"
            },
            {
              "internalType": "uint256",
              "name": "startTime",
              "type": "uint256"
            },
            {
              "internalType": "uint256",
              "name": "endTime",
              "type": "uint256"
            },
            {
              "internalType": "uint256",
              "name": "price",
              "type": "uint256"
            },
            {
              "internalType": "uint256[]",
              "name": "itemIds",
              "type": "uint256[]"
            },
            {
              "internalType": "uint256[]",
              "name": "amounts",
              "type": "uint256[]"
            },
            {
              "internalType": "uint16",
              "name": "lzChainId",
              "type": "uint16"
            },
            {
              "internalType": "bytes",
              "name": "additionalParameters",
              "type": "bytes"
            }
          ],
          "internalType": "struct OrderStructs.Maker",
          "name": "makerBid",
          "type": "tuple"
        },
        {
          "internalType": "bytes",
          "name": "makerSignature",
          "type": "bytes"
        },
        {
          "components": [
            {
              "internalType": "bytes32",
              "name": "root",
              "type": "bytes32"
            },
            {
              "components": [
                {
                  "internalType": "bytes32",
                  "name": "value",
                  "type": "bytes32"
                },
                {
                  "internalType": "enum OrderStructs.MerkleTreeNodePosition",
                  "name": "position",
                  "type": "uint8"
                }
              ],
              "internalType": "struct OrderStructs.MerkleTreeNode[]",
              "name": "proof",
              "type": "tuple[]"
            }
          ],
          "internalType": "struct OrderStructs.MerkleTree",
          "name": "merkleTree",
          "type": "tuple"
        },
        {
          "internalType": "address",
          "name": "affiliate",
          "type": "address"
        }
      ],
      "name": "executeTakerAsk",
      "outputs": [],
      "stateMutability": "nonpayable",
      "type": "function"
    },
    {
      "inputs": [
        {
          "components": [
            {
              "internalType": "address",
              "name": "recipient",
              "type": "address"
            },
            {
              "internalType": "uint16",
              "name": "lzChainId",
              "type": "uint16"
            },
            {
              "internalType": "bytes",
              "name": "additionalParameters",
              "type": "bytes"
            }
          ],
          "internalType": "struct OrderStructs.Taker",
          "name": "takerBid",
          "type": "tuple"
        },
        {
          "components": [
            {
              "internalType": "enum QuoteType",
              "name": "quoteType",
              "type": "uint8"
            },
            {
              "internalType": "uint256",
              "name": "globalNonce",
              "type": "uint256"
            },
            {
              "internalType": "uint256",
              "name": "subsetNonce",
              "type": "uint256"
            },
            {
              "internalType": "uint256",
              "name": "orderNonce",
              "type": "uint256"
            },
            {
              "internalType": "uint256",
              "name": "strategyId",
              "type": "uint256"
            },
            {
              "internalType": "enum CollectionType",
              "name": "collectionType",
              "type": "uint8"
            },
            {
              "internalType": "address",
              "name": "collection",
              "type": "address"
            },
            {
              "internalType": "address",
              "name": "currency",
              "type": "address"
            },
            {
              "internalType": "address",
              "name": "signer",
              "type": "address"
            },
            {
              "internalType": "uint256",
              "name": "startTime",
              "type": "uint256"
            },
            {
              "internalType": "uint256",
              "name": "endTime",
              "type": "uint256"
            },
            {
              "internalType": "uint256",
              "name": "price",
              "type": "uint256"
            },
            {
              "internalType": "uint256[]",
              "name": "itemIds",
              "type": "uint256[]"
            },
            {
              "internalType": "uint256[]",
              "name": "amounts",
              "type": "uint256[]"
            },
            {
              "internalType": "uint16",
              "name": "lzChainId",
              "type": "uint16"
            },
            {
              "internalType": "bytes",
              "name": "additionalParameters",
              "type": "bytes"
            }
          ],
          "internalType": "struct OrderStructs.Maker",
          "name": "makerAsk",
          "type": "tuple"
        },
        {
          "internalType": "bytes",
          "name": "makerSignature",
          "type": "bytes"
        },
        {
          "components": [
            {
              "internalType": "bytes32",
              "name": "root",
              "type": "bytes32"
            },
            {
              "components": [
                {
                  "internalType": "bytes32",
                  "name": "value",
                  "type": "bytes32"
                },
                {
                  "internalType": "enum OrderStructs.MerkleTreeNodePosition",
                  "name": "position",
                  "type": "uint8"
                }
              ],
              "internalType": "struct OrderStructs.MerkleTreeNode[]",
              "name": "proof",
              "type": "tuple[]"
            }
          ],
          "internalType": "struct OrderStructs.MerkleTree",
          "name": "merkleTree",
          "type": "tuple"
        },
        {
          "internalType": "address",
          "name": "affiliate",
          "type": "address"
        }
      ],
      "name": "executeTakerBid",
      "outputs": [],
      "stateMutability": "payable",
      "type": "function"
    },
    {
      "inputs": [
        {
          "internalType": "uint16",
          "name": "",
          "type": "uint16"
        },
        {
          "internalType": "bytes",
          "name": "",
          "type": "bytes"
        },
        {
          "internalType": "uint256",
          "name": "",
          "type": "uint256"
        }
      ],
      "name": "failedMessages",
      "outputs": [
        {
          "internalType": "bytes32",
          "name": "",
          "type": "bytes32"
        }
      ],
      "stateMutability": "view",
      "type": "function"
    },
    {
      "inputs": [
        {
          "internalType": "uint16",
          "name": "_srcChainId",
          "type": "uint16"
        },
        {
          "internalType": "bytes",
          "name": "_srcAddress",
          "type": "bytes"
        }
      ],
      "name": "forceResumeReceive",
      "outputs": [],
      "stateMutability": "nonpayable",
      "type": "function"
    },
    {
      "inputs": [
        {
          "internalType": "uint16",
          "name": "_version",
          "type": "uint16"
        },
        {
          "internalType": "uint16",
          "name": "_chainId",
          "type": "uint16"
        },
        {
          "internalType": "address",
          "name": "",
          "type": "address"
        },
        {
          "internalType": "uint256",
          "name": "_configType",
          "type": "uint256"
        }
      ],
      "name": "getConfig",
      "outputs": [
        {
          "internalType": "bytes",
          "name": "",
          "type": "bytes"
        }
      ],
      "stateMutability": "view",
      "type": "function"
    },
    {
      "inputs": [
        {
          "internalType": "uint16",
          "name": "_remoteChainId",
          "type": "uint16"
        }
      ],
      "name": "getTrustedRemoteAddress",
      "outputs": [
        {
          "internalType": "bytes",
          "name": "",
          "type": "bytes"
        }
      ],
      "stateMutability": "view",
      "type": "function"
    },
    {
      "inputs": [
        {
          "internalType": "bytes32",
          "name": "root",
          "type": "bytes32"
        },
        {
          "internalType": "uint256",
          "name": "proofLength",
          "type": "uint256"
        }
      ],
      "name": "hashBatchOrder",
      "outputs": [
        {
          "internalType": "bytes32",
          "name": "batchOrderHash",
          "type": "bytes32"
        }
      ],
      "stateMutability": "pure",
      "type": "function"
    },
    {
      "inputs": [
        {
          "internalType": "bool",
          "name": "bid",
          "type": "bool"
        },
        {
          "internalType": "bool",
          "name": "ask",
          "type": "bool"
        }
      ],
      "name": "incrementBidAskNonces",
      "outputs": [],
      "stateMutability": "nonpayable",
      "type": "function"
    },
    {
      "inputs": [],
      "name": "initiateOwnershipRenouncement",
      "outputs": [],
      "stateMutability": "nonpayable",
      "type": "function"
    },
    {
      "inputs": [
        {
          "internalType": "address",
          "name": "newPotentialOwner",
          "type": "address"
        }
      ],
      "name": "initiateOwnershipTransfer",
      "outputs": [],
      "stateMutability": "nonpayable",
      "type": "function"
    },
    {
      "inputs": [],
      "name": "isAffiliateProgramActive",
      "outputs": [
        {
          "internalType": "bool",
          "name": "",
          "type": "bool"
        }
      ],
      "stateMutability": "view",
      "type": "function"
    },
    {
      "inputs": [
        {
          "internalType": "address",
          "name": "",
          "type": "address"
        }
      ],
      "name": "isCurrencyAllowed",
      "outputs": [
        {
          "internalType": "bool",
          "name": "",
          "type": "bool"
        }
      ],
      "stateMutability": "view",
      "type": "function"
    },
    {
      "inputs": [
        {
          "internalType": "uint16",
          "name": "_srcChainId",
          "type": "uint16"
        },
        {
          "internalType": "bytes",
          "name": "_srcAddress",
          "type": "bytes"
        }
      ],
      "name": "isTrustedRemote",
      "outputs": [
        {
          "internalType": "bool",
          "name": "",
          "type": "bool"
        }
      ],
      "stateMutability": "view",
      "type": "function"
    },
    {
      "inputs": [],
      "name": "lzEndpoint",
      "outputs": [
        {
          "internalType": "contract ILayerZeroEndpoint",
          "name": "",
          "type": "address"
        }
      ],
      "stateMutability": "view",
      "type": "function"
    },
    {
      "inputs": [
        {
          "internalType": "uint16",
          "name": "_srcChainId",
          "type": "uint16"
        },
        {
          "internalType": "bytes",
          "name": "_srcAddress",
          "type": "bytes"
        },
        {
          "internalType": "uint64",
          "name": "_nonce",
          "type": "uint64"
        },
        {
          "internalType": "bytes",
          "name": "_payload",
          "type": "bytes"
        }
      ],
      "name": "lzReceive",
      "outputs": [],
      "stateMutability": "nonpayable",
      "type": "function"
    },
    {
      "inputs": [],
      "name": "maxCreatorFeeBp",
      "outputs": [
        {
          "internalType": "uint16",
          "name": "",
          "type": "uint16"
        }
      ],
      "stateMutability": "view",
      "type": "function"
    },
    {
      "inputs": [
        {
          "internalType": "uint16",
          "name": "",
          "type": "uint16"
        },
        {
          "internalType": "uint16",
          "name": "",
          "type": "uint16"
        }
      ],
      "name": "minDstGasLookup",
      "outputs": [
        {
          "internalType": "uint256",
          "name": "",
          "type": "uint256"
        }
      ],
      "stateMutability": "view",
      "type": "function"
    },
    {
      "inputs": [
        {
          "internalType": "uint16",
          "name": "_srcChainId",
          "type": "uint16"
        },
        {
          "internalType": "bytes",
          "name": "_srcAddress",
          "type": "bytes"
        },
        {
          "internalType": "uint64",
          "name": "_nonce",
          "type": "uint64"
        },
        {
          "internalType": "bytes",
          "name": "_payload",
          "type": "bytes"
        }
      ],
      "name": "nonblockingLzReceive",
      "outputs": [],
      "stateMutability": "nonpayable",
      "type": "function"
    },
    {
      "inputs": [],
      "name": "owner",
      "outputs": [
        {
          "internalType": "address",
          "name": "",
          "type": "address"
        }
      ],
      "stateMutability": "view",
      "type": "function"
    },
    {
      "inputs": [],
      "name": "ownershipStatus",
      "outputs": [
        {
          "internalType": "enum IOwnableTwoSteps.Status",
          "name": "",
          "type": "uint8"
        }
      ],
      "stateMutability": "view",
      "type": "function"
    },
    {
      "inputs": [],
      "name": "potentialOwner",
      "outputs": [
        {
          "internalType": "address",
          "name": "",
          "type": "address"
        }
      ],
      "stateMutability": "view",
      "type": "function"
    },
    {
      "inputs": [],
      "name": "precrime",
      "outputs": [
        {
          "internalType": "address",
          "name": "",
          "type": "address"
        }
      ],
      "stateMutability": "view",
      "type": "function"
    },
    {
      "inputs": [],
      "name": "protocolFeeRecipient",
      "outputs": [
        {
          "internalType": "address",
          "name": "",
          "type": "address"
        }
      ],
      "stateMutability": "view",
      "type": "function"
    },
    {
      "inputs": [
        {
          "components": [
            {
              "internalType": "address",
              "name": "recipient",
              "type": "address"
            },
            {
              "internalType": "uint16",
              "name": "lzChainId",
              "type": "uint16"
            },
            {
              "internalType": "bytes",
              "name": "additionalParameters",
              "type": "bytes"
            }
          ],
          "internalType": "struct OrderStructs.Taker",
          "name": "takerBid",
          "type": "tuple"
        },
        {
          "components": [
            {
              "internalType": "enum QuoteType",
              "name": "quoteType",
              "type": "uint8"
            },
            {
              "internalType": "uint256",
              "name": "globalNonce",
              "type": "uint256"
            },
            {
              "internalType": "uint256",
              "name": "subsetNonce",
              "type": "uint256"
            },
            {
              "internalType": "uint256",
              "name": "orderNonce",
              "type": "uint256"
            },
            {
              "internalType": "uint256",
              "name": "strategyId",
              "type": "uint256"
            },
            {
              "internalType": "enum CollectionType",
              "name": "collectionType",
              "type": "uint8"
            },
            {
              "internalType": "address",
              "name": "collection",
              "type": "address"
            },
            {
              "internalType": "address",
              "name": "currency",
              "type": "address"
            },
            {
              "internalType": "address",
              "name": "signer",
              "type": "address"
            },
            {
              "internalType": "uint256",
              "name": "startTime",
              "type": "uint256"
            },
            {
              "internalType": "uint256",
              "name": "endTime",
              "type": "uint256"
            },
            {
              "internalType": "uint256",
              "name": "price",
              "type": "uint256"
            },
            {
              "internalType": "uint256[]",
              "name": "itemIds",
              "type": "uint256[]"
            },
            {
              "internalType": "uint256[]",
              "name": "amounts",
              "type": "uint256[]"
            },
            {
              "internalType": "uint16",
              "name": "lzChainId",
              "type": "uint16"
            },
            {
              "internalType": "bytes",
              "name": "additionalParameters",
              "type": "bytes"
            }
          ],
          "internalType": "struct OrderStructs.Maker",
          "name": "makerAsk",
          "type": "tuple"
        },
        {
          "internalType": "address",
          "name": "sender",
          "type": "address"
        },
        {
          "internalType": "bytes32",
          "name": "orderHash",
          "type": "bytes32"
        }
      ],
      "name": "restrictedExecuteTakerBid",
      "outputs": [
        {
          "internalType": "uint256",
          "name": "protocolFeeAmount",
          "type": "uint256"
        }
      ],
      "stateMutability": "nonpayable",
      "type": "function"
    },
    {
      "inputs": [
        {
          "internalType": "uint16",
          "name": "_srcChainId",
          "type": "uint16"
        },
        {
          "internalType": "bytes",
          "name": "_srcAddress",
          "type": "bytes"
        },
        {
          "internalType": "uint64",
          "name": "_nonce",
          "type": "uint64"
        },
        {
          "internalType": "bytes",
          "name": "_payload",
          "type": "bytes"
        }
      ],
      "name": "retryMessage",
      "outputs": [],
      "stateMutability": "payable",
      "type": "function"
    },
    {
      "inputs": [
        {
          "internalType": "uint16",
          "name": "_version",
          "type": "uint16"
        },
        {
          "internalType": "uint16",
          "name": "_chainId",
          "type": "uint16"
        },
        {
          "internalType": "uint256",
          "name": "_configType",
          "type": "uint256"
        },
        {
          "internalType": "bytes",
          "name": "_config",
          "type": "bytes"
        }
      ],
      "name": "setConfig",
      "outputs": [],
      "stateMutability": "nonpayable",
      "type": "function"
    },
    {
      "inputs": [
        {
          "internalType": "uint16",
          "name": "_dstChainId",
          "type": "uint16"
        },
        {
          "internalType": "uint16",
          "name": "_packetType",
          "type": "uint16"
        },
        {
          "internalType": "uint256",
          "name": "_minGas",
          "type": "uint256"
        }
      ],
      "name": "setMinDstGas",
      "outputs": [],
      "stateMutability": "nonpayable",
      "type": "function"
    },
    {
      "inputs": [
        {
          "internalType": "address",
          "name": "_precrime",
          "type": "address"
        }
      ],
      "name": "setPrecrime",
      "outputs": [],
      "stateMutability": "nonpayable",
      "type": "function"
    },
    {
      "inputs": [
        {
          "internalType": "uint16",
          "name": "_version",
          "type": "uint16"
        }
      ],
      "name": "setReceiveVersion",
      "outputs": [],
      "stateMutability": "nonpayable",
      "type": "function"
    },
    {
      "inputs": [
        {
          "internalType": "uint16",
          "name": "_version",
          "type": "uint16"
        }
      ],
      "name": "setSendVersion",
      "outputs": [],
      "stateMutability": "nonpayable",
      "type": "function"
    },
    {
      "inputs": [
        {
          "internalType": "uint16",
          "name": "_srcChainId",
          "type": "uint16"
        },
        {
          "internalType": "bytes",
          "name": "_path",
          "type": "bytes"
        }
      ],
      "name": "setTrustedRemote",
      "outputs": [],
      "stateMutability": "nonpayable",
      "type": "function"
    },
    {
      "inputs": [
        {
          "internalType": "uint16",
          "name": "_remoteChainId",
          "type": "uint16"
        },
        {
          "internalType": "bytes",
          "name": "_remoteAddress",
          "type": "bytes"
        }
      ],
      "name": "setTrustedRemoteAddress",
      "outputs": [],
      "stateMutability": "nonpayable",
      "type": "function"
    },
    {
      "inputs": [
        {
          "internalType": "uint256",
          "name": "",
          "type": "uint256"
        }
      ],
      "name": "strategyInfo",
      "outputs": [
        {
          "internalType": "bool",
          "name": "isActive",
          "type": "bool"
        },
        {
          "internalType": "uint16",
          "name": "standardProtocolFeeBp",
          "type": "uint16"
        },
        {
          "internalType": "uint16",
          "name": "minTotalFeeBp",
          "type": "uint16"
        },
        {
          "internalType": "uint16",
          "name": "maxProtocolFeeBp",
          "type": "uint16"
        },
        {
          "internalType": "bytes4",
          "name": "selector",
          "type": "bytes4"
        },
        {
          "internalType": "bool",
          "name": "isMakerBid",
          "type": "bool"
        },
        {
          "internalType": "address",
          "name": "implementation",
          "type": "address"
        }
      ],
      "stateMutability": "view",
      "type": "function"
    },
    {
      "inputs": [],
      "name": "transferManager",
      "outputs": [
        {
          "internalType": "contract TransferManager",
          "name": "",
          "type": "address"
        }
      ],
      "stateMutability": "view",
      "type": "function"
    },
    {
      "inputs": [
        {
          "internalType": "uint16",
          "name": "",
          "type": "uint16"
        }
      ],
      "name": "trustedRemoteLookup",
      "outputs": [
        {
          "internalType": "bytes",
          "name": "",
          "type": "bytes"
        }
      ],
      "stateMutability": "view",
      "type": "function"
    },
    {
      "inputs": [
        {
          "internalType": "address",
          "name": "newAffiliateController",
          "type": "address"
        }
      ],
      "name": "updateAffiliateController",
      "outputs": [],
      "stateMutability": "nonpayable",
      "type": "function"
    },
    {
      "inputs": [
        {
          "internalType": "bool",
          "name": "isActive",
          "type": "bool"
        }
      ],
      "name": "updateAffiliateProgramStatus",
      "outputs": [],
      "stateMutability": "nonpayable",
      "type": "function"
    },
    {
      "inputs": [
        {
          "internalType": "address",
          "name": "affiliate",
          "type": "address"
        },
        {
          "internalType": "uint256",
          "name": "bp",
          "type": "uint256"
        }
      ],
      "name": "updateAffiliateRate",
      "outputs": [],
      "stateMutability": "nonpayable",
      "type": "function"
    },
    {
      "inputs": [
        {
          "internalType": "address",
          "name": "newCreatorFeeManager",
          "type": "address"
        }
      ],
      "name": "updateCreatorFeeManager",
      "outputs": [],
      "stateMutability": "nonpayable",
      "type": "function"
    },
    {
      "inputs": [
        {
          "internalType": "address",
          "name": "currency",
          "type": "address"
        },
        {
          "internalType": "bool",
          "name": "isAllowed",
          "type": "bool"
        }
      ],
      "name": "updateCurrencyStatus",
      "outputs": [],
      "stateMutability": "nonpayable",
      "type": "function"
    },
    {
      "inputs": [],
      "name": "updateDomainSeparator",
      "outputs": [],
      "stateMutability": "nonpayable",
      "type": "function"
    },
    {
      "inputs": [
        {
          "internalType": "uint256",
          "name": "newGasLimitETHTransfer",
          "type": "uint256"
        }
      ],
      "name": "updateETHGasLimitForTransfer",
      "outputs": [],
      "stateMutability": "nonpayable",
      "type": "function"
    },
    {
      "inputs": [
        {
          "internalType": "uint16",
          "name": "newMaxCreatorFeeBp",
          "type": "uint16"
        }
      ],
      "name": "updateMaxCreatorFeeBp",
      "outputs": [],
      "stateMutability": "nonpayable",
      "type": "function"
    },
    {
      "inputs": [
        {
          "internalType": "address",
          "name": "newProtocolFeeRecipient",
          "type": "address"
        }
      ],
      "name": "updateProtocolFeeRecipient",
      "outputs": [],
      "stateMutability": "nonpayable",
      "type": "function"
    },
    {
      "inputs": [
        {
          "internalType": "uint256",
          "name": "strategyId",
          "type": "uint256"
        },
        {
          "internalType": "bool",
          "name": "isActive",
          "type": "bool"
        },
        {
          "internalType": "uint16",
          "name": "newStandardProtocolFee",
          "type": "uint16"
        },
        {
          "internalType": "uint16",
          "name": "newMinTotalFee",
          "type": "uint16"
        }
      ],
      "name": "updateStrategy",
      "outputs": [],
      "stateMutability": "nonpayable",
      "type": "function"
    },
    {
      "inputs": [
        {
          "internalType": "address",
          "name": "",
          "type": "address"
        }
      ],
      "name": "userBidAskNonces",
      "outputs": [
        {
          "internalType": "uint256",
          "name": "bidNonce",
          "type": "uint256"
        },
        {
          "internalType": "uint256",
          "name": "askNonce",
          "type": "uint256"
        }
      ],
      "stateMutability": "view",
      "type": "function"
    },
    {
      "inputs": [
        {
          "internalType": "address",
          "name": "",
          "type": "address"
        },
        {
          "internalType": "uint256",
          "name": "",
          "type": "uint256"
        }
      ],
      "name": "userOrderNonce",
      "outputs": [
        {
          "internalType": "bytes32",
          "name": "",
          "type": "bytes32"
        }
      ],
      "stateMutability": "view",
      "type": "function"
    },
    {
      "inputs": [
        {
          "internalType": "address",
          "name": "",
          "type": "address"
        },
        {
          "internalType": "uint256",
          "name": "",
          "type": "uint256"
        }
      ],
      "name": "userSubsetNonce",
      "outputs": [
        {
          "internalType": "bool",
          "name": "",
          "type": "bool"
        }
      ],
      "stateMutability": "view",
      "type": "function"
    }
  ],
  "bytecode": {
    "object": "0x60e034620003ce576001600160401b0362005d24601f38829003908101601f191684019083821185831017620003b8578085936040938452843960a092839181010312620003ce576200005284620003d3565b90602062000062818701620003d3565b918162000071828901620003d3565b936200008060608a01620003d3565b90620000906080809b01620003d3565b967f3edd90e7770f06fafde38004653b33870066c33bfc923ff6102acd601f85dfbc60018060a01b0394858094168060018060a01b031960035416176003558751908152a11689526001600c5582519460e086018681108a821117620003b857845260018652848601956032875284810160328152606082019760c889528c8301986000998a81528c8501918b835260c08601938c85528c8052600d8c528a8d209651151560ff16905160081b62ffff0016955160181b64ffff00000016915160281b66ffff000000000016925160a81c6affffffff00000000000000169351151560581b6bff00000000000000000000001694600160601b6001900319905160601b16951717171717179055835186815285810160329052848101603290526060810160c89052868b82015286898201528660c082015260e07f5290475107686ff8d28cd104943b127d453b23622ac55346373fa25c0c8957a291a182600e549116908115620003a7576001600160b01b0319168117607d60a31b17600e5583519081527f8cffb07faa2874440346743bdc0a86b06c3335cc47dc49b327d10e77b73ceb10908590a1600f805460ff60a01b1916600160a01b1790551685526108fc6012558051808201878111828210176200039357825260018152601960f91b9083015280517f8b73c3c69bb8fe3d512ecc4cf759cc79239f7b179b0ffacaa9a75d522b39400f9281019283527f9e6bc51ef68b436657c5fe7a273ea9121a02b234cc81ad1e04892649c9168c6a818301527fad7c5bef027816a800da1736444fb58a807ef4c9603b7848673f7e3a68eb14a560608201524688820152308682015285815260c0810196929390928711838810176200037f57508590525190206011554660105560c05261593b9283620003e98439518281816105b5015281816106de0152818161089201528181611054015281816123ac0152818161263e0152612dc20152518181816111a201528181614b8d0152614c28015260c0518181816122ab01526146c90152f35b634e487b7160e01b81526041600452602490fd5b634e487b7160e01b85526041600452602485fd5b8451630f966bcb60e41b8152600490fd5b634e487b7160e01b600052604160045260246000fd5b600080fd5b51906001600160a01b0382168203620003ce5756fe60806040526004361015610013575b600080fd5b60003560e01c80621d3567146104ea57806307e0db17146104e15780630db2bd1e146104d857806310ddb137146104cf57806310e89db4146104c6578063134849a6146104bd5780631d3c4268146104b45780631df47f80146104ab57806320cd05c7146104a257806323452b9c146104995780632bb5a9e61461049057806337e8cc71146104875780633d8b38f61461047e5780633e5675391461047557806341fb13d01461046c57806342d65a8d14610463578063463357ec1461045a57806346b625bc1461045157806346ea2552146104485780634cbac9dc1461043f57806354878876146104365780635a195d191461042d5780635b6ac0111461042457806364df049e1461041b57806366ad5c8a1461041257806367d9dd79146104095780636e90c014146104005780637200b829146103f75780637533d788146103ee5780637762df25146103e557806379ed31d4146103dc5780637a7d8851146103d3578063838b8f5c146103ca57806386c07642146103c157806389ccfe89146103b85780638cfd8f5c146103af5780638da5cb5b146103a65780638ee749121461039d57806391be136014610394578063950c8a741461038b578063974e7c9f146103825780639a8a0592146103795780639f38369a14610370578063a02bab5714610367578063a39bf29f1461035e578063a6c3d16514610355578063ad5c46481461034c578063ae1cce5a14610343578063b353aaa71461033a578063b647a40414610331578063baf3292d14610328578063bb91c3391461031f578063c0b6f56114610316578063cbed8b9c1461030d578063d1deba1f14610304578063d5a06adf146102fb578063d5b010f5146102f2578063df2a5b3b146102e9578063ea179b76146102e0578063eb8d72b7146102d7578063f5ecbdbc146102ce5763f698da25146102c657600080fd5b61000e612e37565b5061000e612d54565b5061000e612bfa565b5061000e612ba9565b5061000e612abb565b5061000e6129b9565b5061000e61282a565b5061000e6126e4565b5061000e6125e9565b5061000e61253a565b5061000e6124bd565b5061000e61244c565b5061000e6123db565b5061000e612395565b5061000e6122da565b5061000e612294565b5061000e612103565b5061000e6120bc565b5061000e61203f565b5061000e611f88565b5061000e611f69565b5061000e611f00565b5061000e611ed6565b5061000e611c82565b5061000e611bfe565b5061000e611bae565b5061000e611b52565b5061000e611a38565b5061000e611a0e565b5061000e6119e4565b5061000e6119a6565b5061000e6118ff565b5061000e6118d5565b5061000e611887565b5061000e61169a565b5061000e611674565b5061000e611650565b5061000e6114c9565b5061000e61132e565b5061000e6112a5565b5061000e611262565b5061000e6111ff565b5061000e6111d1565b5061000e61118b565b5061000e6110f7565b5061000e6110bb565b5061000e611039565b5061000e610f94565b5061000e610ef1565b5061000e610ea5565b5061000e610dd7565b5061000e610d9d565b5061000e610cc6565b5061000e610c6f565b5061000e610be2565b5061000e610b57565b5061000e610ab0565b5061000e610996565b5061000e610868565b5061000e6107d0565b5061000e6106b4565b5061000e61054f565b61ffff81160361000e57565b359061050a826104f3565b565b9181601f8401121561000e578235916001600160401b03831161000e576020838186019501011161000e57565b604435906001600160401b038216820361000e57565b503461000e57608036600319011261000e5760043561056d816104f3565b6001600160401b039060243582811161000e5761058e90369060040161050c565b9290610598610539565b9160643590811161000e576105b190369060040161050c565b91907f00000000000000000000000000000000000000000000000000000000000000006001600160a01b0316330361066f5761063261063a926106409761062b61061161060c8a61ffff166000526005602052604060002090565b61178a565b8051908184149182610665575b5081610642575b50614f33565b3691611477565b923691611477565b9261519e565b005b905061064f368486611477565b6020815191012090602081519101201438610625565b151591503861061e565b60405162461bcd60e51b815260206004820152601e60248201527f4c7a4170703a20696e76616c696420656e64706f696e742063616c6c657200006044820152606490fd5b503461000e576000602036600319011261075d576004356106d4816104f3565b6106dc615584565b7f00000000000000000000000000000000000000000000000000000000000000006001600160a01b0316908290823b1561075957602461ffff918360405195869485936307e0db1760e01b85521660048401525af1801561074c575b610740575080f35b6107499061136f565b80f35b6107546139b5565b610738565b5080fd5b80fd5b9181601f8401121561000e578235916001600160401b03831161000e576020808501948460051b01011161000e57565b6001600160a01b0381160361000e57565b6084359061050a82610790565b359061050a82610790565b8015150361000e57565b60a4359061050a826107b9565b5060c036600319011261000e576001600160401b0360043581811161000e576107fd903690600401610760565b60243583811161000e57610815903690600401610760565b9060443585811161000e5761082e903690600401610760565b9060643596871161000e5761084a610640973690600401610760565b9490936084359661085a88610790565b6108626107c3565b98613348565b503461000e576000602036600319011261075d57600435610888816104f3565b610890615584565b7f00000000000000000000000000000000000000000000000000000000000000006001600160a01b0316908290823b1561075957602461ffff918360405195869485936310ddb13760e01b85521660048401525af1801561074c57610740575080f35b9081606091031261000e5790565b908161020091031261000e5790565b6003199060a08183011261000e576001600160401b039160043583811161000e578261093e916004016108f3565b9360243584811161000e578361095691600401610901565b9360443581811161000e578461096e9160040161050c565b9490949360643592831161000e578260409203011261000e57600401906109936107a1565b90565b503461000e576109a536610910565b9290600f54600260ff8260a01c1614610a705760ff60a01b1916600160a11b17600f5560e0850135946109d786610790565b6001600160a01b0386166000818152600b602052604090205460ff1615908115610a67575b50610a5557610a4096610a35610a3a94610a19610100850161317b565b968791610a2e610a293688613223565b614dbf565b8097614873565b613b15565b92614593565b600f805460ff60a01b1916600160a01b179055005b604051634f79548760e01b8152600490fd5b905015386109fc565b604051630ddf739360e11b8152600490fd5b602060031982011261000e57600435906001600160401b03821161000e57610aac91600401610760565b9091565b503461000e57610abf36610a82565b8015610b455760005b818110610b0757507fe8036d6fb143373f3ff63e551373f5fffe4267f6809bf6d3934014a18a9b38f691610b026040519283923384613112565b0390a1005b60019033600052610b3f6020600281526040908160002090610b2a85888a6130d0565b3560005252600020600160ff19825416179055565b01610ac8565b6040516397983bdb60e01b8152600490fd5b503461000e57604036600319011261000e577fba28eda47a2e15b1dd3269e6d82f66730d20a5661aa40e9faf9f311c7872a5436040600435610b9881610790565b60243590610ba5826107b9565b610bad615584565b6001600160a01b03166000818152600b602052839020805460ff191660ff8415151617905590825191825215156020820152a1005b503461000e57602036600319011261000e57600435610c0081610790565b610c08615584565b6001600160a01b03168015610c5d576020817f8cffb07faa2874440346743bdc0a86b06c3335cc47dc49b327d10e77b73ceb10926bffffffffffffffffffffffff60a01b600e541617600e55604051908152a1005b604051630f966bcb60e41b8152600490fd5b503461000e57604036600319011261000e57600435610c8d81610790565b60018060a01b0316600052600160205260406000206024356000526020526020604060002054604051908152f35b600091031261000e57565b503461000e5760008060031936011261075d57610ce1615584565b60045460ff8160a01c166003811015610d67575b8015610d555780610d07600192610d8b565b14610d42575b506004805460ff60a01b191690557f8eca980489e87f7dba4f26917aa4bfc906eb3f2b4f7b4b9fd0ff2b8bb3e21ae38180a180f35b6001600160a01b03191660045538610d0d565b60405163ccf69db760e01b8152600490fd5b610d6f610d74565b610cf5565b50634e487b7160e01b600052602160045260246000fd5b60031115610d9557565b61050a610d74565b503461000e57600036600319011261000e57602060ff60045460a01c16604051906003811015610dcb578152f35b610dd3610d74565b8152f35b503461000e57608036600319011261000e576001600160401b0360043581811161000e57610e099036906004016108f3565b9060243590811161000e57610e22903690600401610901565b60443591610e2f83610790565b303303610e5b57610e5792610e479260643592614372565b6040519081529081906020820190565b0390f35b60405163a78d09b960e01b8152600490fd5b90604060031983011261000e57600435610e86816104f3565b91602435906001600160401b03821161000e57610aac9160040161050c565b503461000e57602061ffff610ee2610ebc36610e6d565b9390911660005260058452610ed4604060002061178a565b848151910120923691611477565b82815191012014604051908152f35b503461000e57600036600319011261000e57610f0b615584565b600260ff60045460a01c166003811015610f87575b03610f7557600380546001600160a01b03191690556004805460ff60a01b19169055604051600081527f3edd90e7770f06fafde38004653b33870066c33bfc923ff6102acd601f85dfbc908060208101610b02565b60405163022e289160e11b8152600490fd5b610f8f610d74565b610f20565b50610f9e36610910565b92909194600f54600260ff8260a01c1614610a705760ff60a01b1916600160a11b17600f5560e085013594610fd286610790565b6001600160a01b0386166000908152600b602052604090205460ff1615610a5557611022611029946110319861100b610a293686613223565b95866101008601359361101d85610790565b614873565b3391614372565b913390614593565b610a406157e7565b503461000e5761104836610e6d565b9190611052615584565b7f00000000000000000000000000000000000000000000000000000000000000006001600160a01b031691823b1561000e57604051928380926342d65a8d60e01b8252816110a96000988997889460048501614ff5565b03925af1801561074c57610740575080f35b503461000e57600036600319011261000e5760206040517f53849a1acec87308423850dccd979fc7a4b74b75a79b19c3b98ec8df38a599db8152f35b503461000e57602036600319011261000e57600435611115816104f3565b61111d615584565b61ffff8116906109c4821161117957600e805461ffff60a01b191660a09290921b61ffff60a01b169190911790556040519081527fcaba16bb74e50491b14ebf4755083b43aaf56a765134681af613a2ef8d732f4f90602090a1005b6040516397d7dcfb60e01b8152600490fd5b503461000e57600036600319011261000e576040517f00000000000000000000000000000000000000000000000000000000000000006001600160a01b03168152602090f35b503461000e57600036600319011261000e5760095460405160089190911c6001600160a01b03168152602090f35b503461000e57602036600319011261000e577fdca612ba3556b7c2603089071be1feb2404df55dcabceee9d5fd852fdb39bc346020600435611240816107b9565b611248615584565b151560ff196009541660ff821617600955604051908152a1005b503461000e57602036600319011261000e5760043561128081610790565b60018060a01b0316600052600b602052602060ff604060002054166040519015158152f35b503461000e5760008060031936011261075d576112c0615584565b60045460ff8160a01c166003811015611321575b61130f5760ff60a01b1916600160a11b176004557f3ff05a45e46337fa1cbf20996d2eeb927280bce099f37252bcca1040609604ec8180a180f35b604051633a76bcd760e11b8152600490fd5b611329610d74565b6112d4565b503461000e57600036600319011261000e57600e546040516001600160a01b039091168152602090f35b50634e487b7160e01b600052604160045260246000fd5b6001600160401b03811161138257604052565b61138a611358565b604052565b606081019081106001600160401b0382111761138257604052565b604081019081106001600160401b0382111761138257604052565b60c081019081106001600160401b0382111761138257604052565b90601f801991011681019081106001600160401b0382111761138257604052565b6040519060e082018281106001600160401b0382111761138257604052565b6040519061020082018281106001600160401b0382111761138257604052565b6040519061050a8261138f565b6020906001600160401b03811161146a575b601f01601f19160190565b611472611358565b61145f565b9291926114838261144d565b9161149160405193846113e0565b82948184528183011161000e578281602093846000960137010152565b9080601f8301121561000e5781602061099393359101611477565b503461000e57608036600319011261000e576114e66004356104f3565b6001600160401b0360243581811161000e576115069036906004016114ae565b5061150f610539565b5060643590811161000e576115289036906004016114ae565b30330361160c5780519060208082019282010160ff611547828561525b565b1660018103611580575050610640916020826115669351010190615423565b9550936001600160a01b0391821693928216929116614b78565b60029192501461158c57005b61159c6115fe9161064093615303565b604080840151979a98995090969195929493506115cc916001600160a01b03165b9501516001600160a01b031690565b83516115e3906020906001600160a01b03166115bd565b604051998a999196916001600160a01b031660208b016153ab565b0390601f19820181526113e0565b606460405162461bcd60e51b815260206004820152602060248201527f4c7a52656365697665723a2063616c6c6572206d757374206265204c7a4170706044820152fd5b503461000e57600036600319011261000e57602060ff600954166040519015158152f35b503461000e57600036600319011261000e57602061ffff600e5460a01c16604051908152f35b503461000e57600036600319011261000e57600454600160ff8260a01c166116c181610d8b565b0361173e576001600160a01b0316330361172c57600380546001600160a01b03191633908117909155600480546001600160a81b03191690556040519081527f3edd90e7770f06fafde38004653b33870066c33bfc923ff6102acd601f85dfbc908060208101610b02565b6040516357ee7dc960e11b8152600490fd5b604051632f27941360e11b8152600490fd5b90600182811c92168015611780575b602083101461176a57565b634e487b7160e01b600052602260045260246000fd5b91607f169161175f565b906040519182600082549261179e84611750565b90818452600194858116908160001461180b57506001146117c8575b505061050a925003836113e0565b9093915060005260209081600020936000915b8183106117f357505061050a935082010138806117ba565b855488840185015294850194879450918301916117db565b91505061050a94506020925060ff191682840152151560051b82010138806117ba565b60005b8381106118415750506000910152565b8181015183820152602001611831565b9060209161186a8151809281855285808601910161182e565b601f01601f1916010190565b906020610993928181520190611851565b503461000e57602036600319011261000e5761ffff6004356118a8816104f3565b166000526005602052610e576118c1604060002061178a565b604051918291602083526020830190611851565b503461000e57600036600319011261000e576004546040516001600160a01b039091168152602090f35b503461000e5761190e36610a82565b8015610b455760005b81811061195157507f0560c6093fba8a508d0e6ea3b4d7260d7afa9b152731f03a2d05dfe39b0ec42591610b026040519283923384613112565b336000526001906119a06020838152604090816000209061197385888a6130d0565b35600052526000207f53849a1acec87308423850dccd979fc7a4b74b75a79b19c3b98ec8df38a599db9055565b01611917565b503461000e57602036600319011261000e576004356119c481610790565b60018060a01b0316600052600a6020526020604060002054604051908152f35b503461000e57600036600319011261000e57600f546040516001600160a01b039091168152602090f35b503461000e57604036600319011261000e576020611a30602435600435612e56565b604051908152f35b503461000e5760008060031936011261075d57611a53615584565b6010544614611b4057601960f91b6020604051611a6f816113aa565b600181520152611b1060405160208101907f8b73c3c69bb8fe3d512ecc4cf759cc79239f7b179b0ffacaa9a75d522b39400f82527f9e6bc51ef68b436657c5fe7a273ea9121a02b234cc81ad1e04892649c9168c6a60408201527fad7c5bef027816a800da1736444fb58a807ef4c9603b7848673f7e3a68eb14a560608201524660808201523060a082015260a08152611b08816113c5565b519020601155565b611b1946601055565b7f5b2d1f36cd3ec425baab07b99853532e2ba6387a472ddbff437c5cc96f2f20ca8180a180f35b60405163a69915e560e01b8152600490fd5b503461000e57604036600319011261000e576020611ba5600435611b75816104f3565b61ffff60243591611b85836104f3565b166000526006835260406000209061ffff16600052602052604060002090565b54604051908152f35b503461000e57600036600319011261000e576003546040516001600160a01b039091168152602090f35b602090611bf292826040519483868095519384920161182e565b82019081520301902090565b503461000e57606036600319011261000e57600435611c1c816104f3565b602435906001600160401b03821161000e5761ffff611c42611c579336906004016114ae565b91166000526008602052604060002090611bd8565b6044356000526020526020604060002054604051908152f35b6001600160e01b031981160361000e57565b503461000e5760c036600319011261000e57600435611ca0816104f3565b60243590611cad826104f3565b60443591611cba836104f3565b60643592611cc784611c70565b608435611cd3816107b9565b60a43590611ce082610790565b611ce8615584565b61ffff808416818616818111928315611eca575b50508115611ebe575b50611eac576001600160e01b0319861615611e9a576040516345b2b38160e01b81526020816004816001600160a01b0387165afa908115611e8d575b600091611e5f575b5015611e4d577f5290475107686ff8d28cd104943b127d453b23622ac55346373fa25c0c8957a295610b0293611de4611d80611401565b6001815261ffff8916602082015261ffff8816604082015261ffff831660608201526001600160e01b03198416608082015284151560a08201526001600160a01b03861660c0820152611ddf600c54600052600d602052604060002090565b614a06565b600c5495611df9611df488614b16565b600c55565b6040805197885261ffff98891660208901529088169087015290951660608501526001600160e01b0319909416608084015292151560a08301526001600160a01b0390921660c082015290819060e0820190565b60405163ef8c37d760e01b8152600490fd5b611e80915060203d8111611e86575b611e7881836113e0565b8101906149f1565b38611d49565b503d611e6e565b611e956139b5565b611d41565b604051636168384960e11b8152600490fd5b60405163b704b7c160e01b8152600490fd5b6101f491501138611d05565b88161191503880611cfc565b503461000e57600036600319011261000e576007546040516001600160a01b039091168152602090f35b503461000e57602036600319011261000e57600435611f1d615584565b6108fc8110611f57576020817ffc3a20d07f3d5bcc0b01a52011f630765611323fa9afa69f63ba2aa19f7364b692601255604051908152a1005b6040516356b68a6b60e11b8152600490fd5b503461000e57600036600319011261000e576020601054604051908152f35b503461000e57602036600319011261000e5761ffff600435611fa9816104f3565b166000526005602052611fbf604060002061178a565b805115611ffa57611fe181610e579251906013198201918211611fed576150e1565b60405191829182611876565b611ff5613134565b6150e1565b60405162461bcd60e51b815260206004820152601d60248201527f4c7a4170703a206e6f20747275737465642070617468207265636f72640000006044820152606490fd5b503461000e57602036600319011261000e577fa92d85531a006d07fd0df4c61259b6dc18e4f492857e2454e5a20ee5e55cddcc602060043561208081610790565b612088615584565b60098054610100600160a81b031916600883901b610100600160a81b03161790556040516001600160a01b039091168152a1005b503461000e57602036600319011261000e576004356120da81610790565b60018060a01b031660005260006020526040806000206001815491015482519182526020820152f35b503461000e5761211236610e6d565b919061211c615584565b6040519160208483828601376121476034858781013060601b858201520360148101875201856113e0565b60009361ffff831685526005825260408520918151916001600160401b038311612287575b6121808361217a8654611750565b86615010565b81601f84116001146121f1575091806121e094928899947f8c0400cfe2d1199b1a725c78960bcc2a344d869b80590d0f2bd005db15a572ce99926121e6575b50508160011b916000199060031b1c19161790555b60405193849384614ff5565b0390a180f35b0151905038806121bf565b9190601f19841661220786600052602060002090565b9389905b82821061226f5750509260019285927f8c0400cfe2d1199b1a725c78960bcc2a344d869b80590d0f2bd005db15a572ce9a9b966121e0989610612256575b505050811b0190556121d4565b015160001960f88460031b161c19169055388080612249565b8060018697829497870151815501960194019061220b565b61228f611358565b61216c565b503461000e57600036600319011261000e576040517f00000000000000000000000000000000000000000000000000000000000000006001600160a01b03168152602090f35b503461000e57604036600319011261000e576004356122f881610790565b6009546024359060081c6001600160a01b03163303612383576127108111612371576001600160a01b03919091166000818152600a602090815260409182902084905581519283528201929092527fa16126d9473196242b0784325b30642b89f34442dd178a852f5b88ee483a30d89181908101610b02565b604051632242dac960e01b8152600490fd5b604051639f63004360e01b8152600490fd5b503461000e57600036600319011261000e576040517f00000000000000000000000000000000000000000000000000000000000000006001600160a01b03168152602090f35b503461000e57602036600319011261000e577fa7014d98341b07b23615cb6b4da7cca2a381932b46fb39ca4b8c3875c53aa764602060043561241c81610790565b612424615584565b600f80546001600160a01b0319166001600160a01b03929092169182179055604051908152a1005b503461000e57602036600319011261000e577f5db758e995a17ec1ad84bdef7e8c3293a0bd6179bcce400dff5d4c3d87db726b602060043561248d81610790565b612495615584565b600780546001600160a01b0319166001600160a01b03929092169182179055604051908152a1005b503461000e57602036600319011261000e57600435600052600d60205260e06040600020546040519060ff81161515825261ffff808260081c166020840152808260181c1660408401528160281c16606083015263ffffffff831b8160a81b16608083015260ff8160581c16151560a083015260601c60c0820152f35b503461000e57602036600319011261000e5760043561255881610790565b612560615584565b60045460ff8160a01c1660038110156125dc575b61130f576001600160a81b0319166001600160a01b03821617600160a01b176004557fb86c75c9bffca616b2d314cc914f7c3f1d174255b16b941c3f3ededee276d5ef90610b0290604080513381526001600160a01b03909216602083015290918291820190565b6125e4610d74565b612574565b503461000e57608036600319011261000e57600435612607816104f3565b602435612613816104f3565b6064356001600160401b03811161000e5761263290369060040161050c565b909261263c615584565b7f00000000000000000000000000000000000000000000000000000000000000006001600160a01b031690813b1561000e57600080946126b3604051978896879586946332fb62e760e21b865261ffff80921660048701521660248501526044356044850152608060648501526084840191613766565b03925af180156126d7575b6126c457005b806126d16106409261136f565b80610cbb565b6126df6139b5565b6126be565b50608036600319011261000e576004356126fd816104f3565b6001600160401b0360243581811161000e5761271d9036906004016114ae565b612725610539565b9160643590811161000e5761273e90369060040161050c565b9190936127a5612781856127696127638561ffff166000526008602052604060002090565b86611bd8565b906001600160401b0316600052602052604060002090565b5461278d8115156154ad565b612798368689611477565b60208151910120146154f9565b6000948593846127d0876127696127ca8761ffff166000526008602052604060002090565b88611bd8565b55303b15612826576127f7916040519687958695633356ae4560e11b875260048701615545565b038183305af18015612819575b61280c575080f35b806126d16107499261136f565b6128216139b5565b612804565b8480fd5b503461000e57608036600319011261000e5760043560243561284b816107b9565b60443591612858836104f3565b60643592612865846104f3565b61286d615584565b600c548210156129a7576128a361289c61289184600052600d602052604060002090565b5460281c61ffff1690565b61ffff1690565b61ffff9081861690811191821561299b575b5050611eac577f3b25bf77fa688236b850bf89c87e353098688237aa18dc42593aff0f6387aea993610b029161290a856128f986600052600d602052604060002090565b9060ff801983541691151516179055565b61293a8161292286600052600d602052604060002090565b9062ffff0082549160081b169062ffff001916179055565b61296e8261295286600052600d602052604060002090565b9064ffff00000082549160181b169064ffff0000001916179055565b6040519485948592909493606092608085019685521515602085015261ffff809216604085015216910152565b831611905038806128b5565b60405163bd7056c760e01b8152600490fd5b503461000e57604036600319011261000e577fb738dd6073fae1a7128e3fcc6b4ca6e1356b7232f87cc98f8a2857bcd83dfc446004356129f8816107b9565b602435612a04816107b9565b6000194301438111612aae575b336000908152602081905260409020805492914060801c91906001015493612a8b575b612a59575b506040805133815260208101929092528101919091528060608101610b02565b612a63919261316e565b90816001612a833360018060a01b03166000526000602052604060002090565b015538612a39565b9181612a969161316e565b33600090815260208190526040902081905591612a34565b612ab6613134565b612a11565b503461000e57606036600319011261000e57600435612ad9816104f3565b602435612ae5816104f3565b60443591612af1615584565b8215612b6c57610b027f9d5c7c0b934da8fefa9c7760c98383778a12dfbfc0c3b3106518f43fb9508ac09361ffff8316600052600660205280612b468560406000209061ffff16600052602052604060002090565b556040519384938460409194939294606082019561ffff80921683521660208201520152565b60405162461bcd60e51b81526020600482015260156024820152744c7a4170703a20696e76616c6964206d696e47617360581b6044820152606490fd5b503461000e57604036600319011261000e57600435612bc781610790565b60018060a01b031660005260026020526040600020602435600052602052602060ff604060002054166040519015158152f35b503461000e57612c0936610e6d565b9190612c13615584565b60009161ffff8116835260206005815260408420906001600160401b038611612d47575b612c4b86612c458454611750565b84615010565b8490601f8711600114612cb35750946121e0918186977ffa41487ad5d6728f0b19276fa1eddc16558578f5109fc39d2dc33c3230470dab9791612ca8575b508260011b906000198460031b1c191617905560405193849384614ff5565b905085013538612c89565b90601f198716612cc884600052602060002090565b9287905b828210612d2f575050916121e09391887ffa41487ad5d6728f0b19276fa1eddc16558578f5109fc39d2dc33c3230470dab98999410612d15575b5050600182811b0190556121d4565b860135600019600385901b60f8161c191690553880612d06565b80600185968294968b01358155019501930190612ccc565b612d4f611358565b612c37565b503461000e57608036600319011261000e57610e57600435612d75816104f3565b60243590612d82826104f3565b612d8d604435610790565b604051633d7b2f6f60e21b815261ffff91821660048201529116602482015230604482015260648035908201526000816084817f00000000000000000000000000000000000000000000000000000000000000006001600160a01b03165afa908115612e2a575b600091612e09575b5060405191829182611876565b612e24913d8091833e612e1c81836113e0565b810190614fd0565b38612dfc565b612e326139b5565b612df4565b503461000e57600036600319011261000e576020601154604051908152f35b9060018103612eb95750612ea5612eb37f9661287f7a4aa4867db46a2453ee15bebac4e8fc25667a58718da658f15de643925b6040805160208101958652908101919091529182906060820190565b03601f1981018352826113e0565b51902090565b60028103612eef5750612ea5612eb37fa54ab330ea9e1dfccee2b86f3666989e7fbd479704416c757c8de8e820142a0892612e89565b60038103612f255750612ea5612eb37f93390f5d45ede9dea305f16aec86b2472af4f823851637f1b7019ad0775cea4992612e89565b60048103612f5b5750612ea5612eb37f9dda2c8358da895e43d574bb15954ce5727b22e923a2d8f28261f297bce42f0b92612e89565b60058103612f915750612ea5612eb37f92dc717124e161262f9d10c7079e7d54dc51271893fba54aa4a0f270fecdcc9892612e89565b60068103612fc75750612ea5612eb37fce02aee5a7a35d40d974463c4c6e5534954fb07a7e7bc966fee268a15337bfd892612e89565b60078103612ffd5750612ea5612eb37ff7a65efd167a18f7091b2bb929d687dd94503cf0a43620487055ed7d6b72755992612e89565b600881036130335750612ea5612eb37fdef24acacad1318b664520f7c10e8bc6d1e7f6f6f7c8b031e70624ceb42266a692612e89565b600981036130695750612ea5612eb37f4cb4080dc4e7bae88b4dc4307ad5117fa4f26195998a1b5f40368809d7f4c7f292612e89565b600a810361309f5750612ea5612eb37ff8b1f864164d8d6e0b45f1399bd711223117a4ab0b057a9c2d7779e86a7c88db92612e89565b6040516375dec1c560e11b81526004810191909152602490fd5b50634e487b7160e01b600052603260045260246000fd5b91908110156130e1575b60051b0190565b6130e96130b9565b6130da565b81835290916001600160fb1b03831161000e5760209260051b809284830137010190565b6001600160a01b039091168152604060208201819052610993939101916130ee565b50634e487b7160e01b600052601160045260246000fd5b9190820391821161315857565b61050a613134565b90601f820180921161315857565b9190820180921161315857565b3561099381610790565b6002111561000e57565b359061050a82613185565b6020906001600160401b0381116131b25760051b0190565b6130e9611358565b92916131c58261319a565b916131d360405193846113e0565b829481845260208094019160051b810192831161000e57905b8282106131f95750505050565b813581529083019083016131ec565b9080601f8301121561000e57816020610993933591016131ba565b91906102008382031261000e57613238611420565b926132428161318f565b84526020810135602085015260408101356040850152606081013560608501526080810135608085015261327860a0820161318f565b60a085015261328960c082016107ae565b60c085015261329a60e082016107ae565b60e08501526101006132ad8183016107ae565b908501526101208181013590850152610140808201359085015261016080820135908501526001600160401b03916101808083013584811161000e57826132f5918501613208565b908601526101a08083013584811161000e5782613313918501613208565b908601526101c06133258184016104ff565b908601526101e0928383013590811161000e5761334292016114ae565b90830152565b999897969391959490600f54600260ff8260a01c1614610a705760ff60a01b1916600160a11b17600f5580158015613609575b610b45576133bc9a60e0946133c76133c36133a08861339a858e61361c565b0161317b565b6001600160a01b0381166000908152600b60205260409020909f565b5460ff1690565b1590565b610a555760009a156134df5797969594939291906000985b828a1061341a57505050505050505050506133fd92935b3390614593565b6134056157e7565b600f805460ff60a01b1916600160a01b179055565b9091929394959697989a88888f888f898f89613438848b8e94613646565b95846134a9575b509361347e8461349397946134788261346460019e9c99611022986134999f9c613677565b98613472610a29368b613223565b9a6136a7565b936136d7565b908661348d610100870161317b565b93614873565b9061316e565b9b019897969594939291906133df565b9650505050505091506134bd89830161317b565b6001600160a01b03918216911603610a5557888f91888f89898f968a9061343f565b8a9c98979493929c5b8d8110613503575050505050505050506133fd9394506133f6565b8d8161351081858d613646565b91816135e3575b61357e92916135269187613677565b908a61355d6135438661353c610a293687613223565b938d6136a7565b61354e878b8d6136d7565b908461348d610100880161317b565b604051809481926337e8cc7160e01b83526020958695339160048601613976565b03816000305af19182916000936135b4575b50506135a0575b506001016134e8565b6135ad906001929d61316e565b9b90613597565b6135d4929350803d106135dc575b6135cc81836113e0565b810190613726565b903880613590565b503d6135c2565b50506135f088820161317b565b6001600160a01b038c8116911603610a5557818f613517565b508085188183188286181717151561337b565b9015613639575b8035906101fe198136030182121561000e570190565b6136416130b9565b613623565b919081101561366a575b60051b810135906101fe198136030182121561000e570190565b6136726130b9565b613650565b919081101561369a575b60051b81013590605e198136030182121561000e570190565b6136a26130b9565b613681565b91908110156136ca575b60051b81013590603e198136030182121561000e570190565b6136d26130b9565b6136b1565b9190811015613719575b60051b81013590601e198136030182121561000e5701908135916001600160401b03831161000e57602001823603811361000e579190565b6137216130b9565b6136e1565b9081602091031261000e575190565b9035601e198236030181121561000e5701602081359101916001600160401b03821161000e57813603831361000e57565b908060209392818452848401376000828201840152601f01601f1916010190565b9060606137c861099393803561379c81610790565b6001600160a01b0316845261ffff60208201356137b8816104f3565b1660208501526040810190613735565b9190928160408201520191613766565b60021115610d9557565b906137ec826137d8565b52565b9035601e198236030181121561000e5701602081359101916001600160401b03821161000e578160051b3603831361000e57565b61099391613839816138348461318f565b6137e2565b6020820135602082015260408201356040820152606082013560608201526080820135608082015261387a61387060a0840161318f565b60a08301906137e2565b61389961388960c084016107ae565b6001600160a01b031660c0830152565b6138b86138a860e084016107ae565b6001600160a01b031660e0830152565b6138d86101006138c98185016107ae565b6001600160a01b031690830152565b61012080830135908201526101408083013590820152610160808301359082015261393c61392061018061390e818601866137ef565b909161020080918701528501916130ee565b6101a061392f818601866137ef565b91858403908601526130ee565b916139586101c061394e8184016104ff565b61ffff1690840152565b6139686101e09182810190613735565b929091818503910152613766565b906060926139936139a19297969597608085526080850190613787565b908382036020850152613823565b6001600160a01b0390951660408201520152565b506040513d6000823e3d90fd5b3561099381613185565b90815180825260208080930193019160005b8281106139ec575050505090565b8351855293810193928101926001016139de565b6000915b60028310613a1157505050565b81516001600160a01b031681526001929092019160209182019101613a04565b6000915b60038310613a4257505050565b600190825181526020809101920192019190613a35565b95613ae190613ad1613b0e97613b029761050a9d9f9e9c97613abc90613aac613af3996101809f998f60406060928051835260208101516020840152015115156040820152019060018060a01b03169052565b6001600160a01b031660808d0152565b60a08b01526001600160a01b031660c08a0152565b6001600160a01b031660e0880152565b6101e0806101008801528601906139cc565b908482036101208601526139cc565b96610140830190613a00565b0190613a31565b9190613b20816139c2565b613b29816137d8565b613ce157613b3a610100820161317b565b6001600160a01b038116600090815260016020526040902090929093613b6f6060840135809690600052602052604060002090565b546001600160a01b03851660009081526020819052604090205460208501351490811591613ca4575b8115613c84575b50613c7257823390613bb092613e59565b88613bc487849b8b859996999897986147e8565b60c0880191613bd28361317b565b85858c33613be260a08f016139c2565b613beb95614b78565b60e08901918a613bfa8461317b565b90613c06918a8a614797565b613c0e611440565b988952602089015215156040880152613c269061317b565b90613c309061317b565b906040519860808a9901359033613c47998b613a59565b037f9aaa45d6db2ef74ead0751ea9113263d1dec1b50cea05f0ca2002cb8063564a491a16040015190565b604051631782f9fd60e31b8152600490fd5b9050828115159182613c99575b505038613b9f565b141590508238613c91565b9050613cdb6133bc613cc88760018060a01b03166000526002602052604060002090565b6040870135600052602052604060002090565b90613b98565b60405163d641ac7b60e01b8152600490fd5b60405190613d00826113aa565b6040368337565b60405190613d148261138f565b6060368337565b9091613d3261099393604084526040840190613787565b916020818403910152613823565b3d15613d6b573d90613d518261144d565b91613d5f60405193846113e0565b82523d6000602084013e565b606090565b81601f8201121561000e57805191613d878361319a565b92613d9560405194856113e0565b808452602092838086019260051b82010192831161000e578301905b828210613dbf575050505090565b81518152908301908301613db1565b60808183031261000e578051926020820151926001600160401b039384811161000e5781613dfd918501613d70565b93604084015190811161000e57606091613e18918501613d70565b920151610993816107b9565b903590601e198136030182121561000e57018035906001600160401b03821161000e57602001918160051b3603831361000e57565b919290613e64613cf3565b91613e6d613d07565b916000613e84610140830135610120840135614318565b60808201359081613f84578483928792613eea6101a0613edb9b989701613ee2613ed288613ecc613eb58583613e24565b613ec461018085018095613e24565b929050614333565b89613e24565b9d909289613e24565b36916131ba565b9b36916131ba565b9a60019761016087013592613f25613f0f8f5b86613f0a60c08d0161317b565b614113565b6020890152602089019060018060a01b03169052565b613f2e886139c2565b613f37816137d8565b613f715761050a97506001600160a01b03613f518361317b565b1615159050613f6157509161422c565b613f6b915061317b565b9161422c565b505050613f6b61010061050a960161317b565b613f9b6133bc83600052600d602052604060002090565b1561408d57613fa9836139c2565b613fca613fc084600052600d602052604060002090565b5460581c60ff1690565b14614080578080613fef613fe885600052600d602052604060002090565b5460601c90565b61401761400686600052600d602052604060002090565b5460a81b6001600160e01b03191690565b82876140368d612ea56040519384926020840197885260248401613d1b565b51925af197614043613d40565b981561407857613f25949392879287926140698c602080613f0f9f518301019101613dce565b9d9294919d9a909d9e8f613efd565b885160208a01fd5b63ab98484690526004601cfd5b604051636b9e163560e11b815260048101839052602490fd5b919082604091031261000e57602082516140bf81610790565b92015190565b610993939260609260018060a01b03168252602082015281604082015201906139cc565b906127109182810292818404149015171561315857565b8181029291811591840414171561315857565b600f546000948594909391614138906001600160a01b03165b6001600160a01b031690565b6001600160a01b0393818516614150575b5050505050565b614179975083949650926040938451988994859384936370c1092160e01b8552600485016140c5565b03915afa801561421f575b60009485916141eb575b5080938516156000146141ac575060009250505b3880808080614149565b6141b86141d3916140e9565b916141cd61289c600e5461ffff9060a01c1690565b90614100565b10156141a2576040516397d7dcfb60e01b8152600490fd5b905061420f91945060403d8111614218575b61420781836113e0565b8101906140a6565b9390933861418e565b503d6141fd565b6142276139b5565b614184565b9061050a9492939180600052600d6020526127109061ffff908261425a8360406000205460181c1686614100565b0492602086019283519283156000146142925750505050506142819181604085015261314b565b90526001600160a01b039091169052565b61428196939495929160406142b7926000908152600d602052205460081c1684614100565b04928181850180861161430b575b106142e8575b50506142e0919260408601938452519061314b565b90519061314b565b6142e0935081039081116142fe575b91386142cb565b614306613134565b6142f7565b614313613134565b6142c5565b9042119042101761432557565b637476320f6000526004601cfd5b9060009281188115176143655760051b90815b61434f57505050565b601f198083019282010135156143655781614346565b632e0c0f7183526004601cfd5b909291926001614381826139c2565b61438a816137d8565b03613ce15761439c610100820161317b565b906143cf6143bc8360018060a01b03166000526001602052604060002090565b6060830135600052602052604060002090565b546001600160a01b03831660009081526020819052604090206001015460208301351490811591614556575b8115614536575b50613c7257614412338285613e59565b95938399898299849b60608a98969801359061442f918a8d6147e8565b8261443c60e08b0161317b565b90614448918989614797565b61445460c08a0161317b565b9961446160a08b016139c2565b906001600160a01b036144738461317b565b161560001460409f7f3ee3de4684413690dee6fff1a0a4f92916a1b97d1c5a83cdf24671844306b2e39e60809e6145109d6144d4966144b795614527578a92614b78565b6144bf611440565b93845260608b0135602085015215158e840152565b6144e061412c8261317b565b614518575081905b6144f460e08a0161317b565b9161450160c08b0161317b565b938e519b8c9b0135928b613a59565b0390a1015190565b6145219061317b565b906144e8565b6145308961317b565b92614b78565b905084811515918261454b575b505038614402565b141590508438614543565b905061458d6133bc61457a8560018060a01b03166000526002602052604060002090565b6040850135600052602052604060002090565b906143fb565b90929192826145a3575b50505050565b6145cf936001600160a01b0390818116806145d8575b5050600e546001600160a01b03169050916146aa565b3880808061459d565b60ff60095416156145b9576001600160a01b0382166000908152600a602052604090206127109061460a905488614100565b049081614618575b506145b9565b8161468091888895947f49e92b6b3114f7e128555cd58c568f7c2e0e56fe9b4c46b6125bc308184623b3979a0390811161469d575b9887160361468c575b604080516001600160a01b0394851681529490931660208501529183019190915281906060820190565b0390a138808080614612565b614698818488876146aa565b614656565b6146a5613134565b61464d565b919291906001600160a01b0382166146ed5750509061050a91601254917f0000000000000000000000000000000000000000000000000000000000000000615814565b813b15614785576040516323b872dd60e01b602082019081526001600160a01b03928316602483015294909116604482015260648101929092526000928392839061473b8160848101612ea5565b51925af1614747613d40565b901561477357805180614758575050565b816020806133c39361476d95010191016149f1565b61477357565b60405163e560521360e01b8152600490fd5b6040516309ee12d560e01b8152600490fd5b9291906020908051806147cb575b50015191826147b45750505050565b6145cf93602060018060a01b0391015116916146aa565b85516147e291906001600160a01b031686866146aa565b386147a5565b9092901561483857507f53849a1acec87308423850dccd979fc7a4b74b75a79b19c3b98ec8df38a599db915b60018060a01b03166000526001602052604060002090600052602052604060002055565b91614814565b903590601e198136030182121561000e57018035906001600160401b03821161000e57602001918160061b3603831361000e57565b9392919060209485810195614888878361483e565b8098915061489e575b50505061050a945061497c565b600a8811614963576148b29083949361483e565b9335938493926000925b8284106148f35750505050036148e15761050a946148d991612e56565b388080614891565b60405163c8ac23c360e01b8152600490fd5b91939083955061490581948685614cb6565b013561491081613185565b614919816137d8565b61494457614928858584614cb6565b35600052825260016040600020945b01929091859493926148bc565b61494f858584614cb6565b359060005282526001604060002094614937565b6040516375dec1c560e11b815260048101899052602490fd5b9260105446146000146149df5761050a936011549060405190602082019261190160f01b84526022830152604282015260428152608081018181106001600160401b038211176149d2575b6040525190206155d6565b6149da611358565b6149c7565b604051636fd794c760e01b8152600490fd5b9081602091031261000e5751610993816107b9565b614aec60c061050a93614a2881511515859060ff801983541691151516179055565b6020810151845462ffff00191660089190911b62ffff0016178455614a6961ffff6040830151865464ffff0000001916911660181b64ffff00000016178555565b606081015166ffff000000000085549160281b168066ffff00000000001983161786556affffffff00000000000000608084015160a81c16916affffffffffff0000000000191617178455614ade614ac460a0830151151590565b855460ff60581b191690151560581b60ff60581b16178555565b01516001600160a01b031690565b81546bffffffffffffffffffffffff1660609190911b6bffffffffffffffffffffffff1916179055565b6001906000198114614b26570190565b614b2e613134565b0190565b6001600160a01b0391821681529181166020830152909116604082015260a060608201819052610993939192614b6a918401906139cc565b9160808184039101526139cc565b93949190614b85816137d8565b80614c0e57507f00000000000000000000000000000000000000000000000000000000000000006001600160a01b031691823b1561000e57600094614be286926040519889978896879563a7bc96d360e01b875260048701614b32565b03925af18015614c01575b614bf45750565b806126d161050a9261136f565b614c096139b5565b614bed565b80614c1a6001926137d8565b14614c26575050505050565b7f00000000000000000000000000000000000000000000000000000000000000006001600160a01b031691823b1561000e57600094614c7d869260405198899788968795635052036360e11b875260048701614b32565b03925af18015614ca9575b614c96575b80808080614149565b806126d1614ca39261136f565b38614c8d565b614cb16139b5565b614c88565b9190811015614cc7575b60061b0190565b614ccf6130b9565b614cc0565b969491926101009693999894919961012089019a7f578c458ef0610f67a73705004b9ddc6ab6bcf1764005638471c3801daaa067e78a52614d14816137d8565b60208a015260408901526060880152608087015260a0860152614d36816137d8565b60c08501526001600160a01b0391821660e085015216910152565b805160208092019160005b828110614d6a575050505090565b835185529381019392810192600101614d5c565b602061050a919392936040519481614d9f879351809286808701910161182e565b8201614db38251809386808501910161182e565b010380855201836113e0565b614f2b815191614dce836137d8565b602092614f2684614e278185015160408601516060870151608088015160a089015191614dfa836137d8565b60c08a01516001600160a01b031660e08b01519094906001600160a01b0316956040519a8b998a01614cd4565b03614e3a601f19918281018552846113e0565b6101008401518690614f1a906001600160a01b03169561012081015190610140810151610160820151610180830151604051614e8981614e7d8a82018095614d51565b038a81018352826113e0565b519020906101a0840151604051614eb381614ea78b82018095614d51565b038b81018352826113e0565b519020926101e0614eca6101c087015161ffff1690565b950151805190890120604080516001600160a01b03909e16998e01998a5260208a0197909752958801526060870152608086015260a085015261ffff1660c084015260e083015285916101000190565b039081018452836113e0565b614d7e565b805191012090565b15614f3a57565b60405162461bcd60e51b815260206004820152602660248201527f4c7a4170703a20696e76616c696420736f757263652073656e64696e6720636f6044820152651b9d1c9858dd60d21b6064820152608490fd5b81601f8201121561000e578051614fa48161144d565b92614fb260405194856113e0565b8184526020828401011161000e57610993916020808501910161182e565b9060208282031261000e5781516001600160401b03811161000e576109939201614f8e565b60409061ffff61099395931681528160208201520191613766565b90601f811161501e57505050565b600091825260208220906020601f850160051c8301941061505a575b601f0160051c01915b82811061504f57505050565b818155600101615043565b909250829061503a565b1561506b57565b60405162461bcd60e51b815260206004820152600e60248201526d736c6963655f6f766572666c6f7760901b6044820152606490fd5b156150a857565b60405162461bcd60e51b8152602060048201526011602482015270736c6963655f6f75744f66426f756e647360781b6044820152606490fd5b6150f5826150ee81613160565b1015615064565b61510282825110156150a1565b8161511a575050604051600081526020810160405290565b60405191601f811691821560051b808486010193838501920101905b80841061514e5750508252601f01601f191660405290565b9092835181526020809101930190615136565b9061518a610993959361ffff6001600160401b0393168452608060208501526080840190611851565b931660408201526060818403910152611851565b9091303b1561000e57604051633356ae4560e11b8152600081806151c88886898960048601615161565b038183305af1908161523e575b5061459d5783615239917fe6f254030bcb01ffd20558175c13fcaed6d1520be7becee4c961b65f79243b0d9551602083012061522c826127696152268861ffff166000526008602052604060002090565b89611bd8565b5560405194859485615161565b0390a1565b6152479061136f565b386151d5565b519060ff8216820361000e57565b9081602091031261000e576109939061524d565b519061050a82610790565b519061050a82613185565b919082608091031261000e57604051608081018181106001600160401b038211176152f6575b604052606080829480516152be81610790565b845260208101516152ce81610790565b602085015260408101516152e181610790565b60408501520151916152f2836104f3565b0152565b6152fe611358565b6152ab565b9190916101e08184031261000e5761531a8161524d565b926153276020830161526f565b926153346040840161527a565b926060810151926001600160401b039384811161000e5781615357918401613d70565b93608083015181811161000e5782615370918501613d70565b9360a0840151936153848460c08301615285565b93615393816101408401615285565b936101c083015190811161000e576109939201614f8e565b95906154089293956153fa916109939b999a9660018060a01b0380998198828095168d526153d8816137d8565b60208d01521660408b01521660608901526101208060808a01528801906139cc565b9086820360a08801526139cc565b951660c08401521660e0820152610100818403910152611851565b9060e08282031261000e576154378261524d565b92602083015161544681610790565b92604081015161545581613185565b92606082015161546481610790565b92608083015161547381610790565b9260a0810151926001600160401b039384811161000e5781615496918401613d70565b9360c083015190811161000e576109939201613d70565b156154b457565b60405162461bcd60e51b815260206004820152601d60248201527f4c7a52656365697665723a206e6f2073746f726564206d6573736167650000006044820152606490fd5b1561550057565b60405162461bcd60e51b815260206004820152601b60248201527f4c7a52656365697665723a20696e76616c6964207061796c6f616400000000006044820152606490fd5b906155706109939694959361ffff6001600160401b0393168452608060208501526080840190611851565b941660408201526060818503910152613766565b6003546001600160a01b0316330361559857565b6040516330cd747160e01b8152600490fd5b9081602091031261000e575161099381611c70565b604090610993949281528160208201520191613766565b929091823b61560d576155e992936156ad565b6001600160a01b0390811691161461050a5760405163d1085d1b60e01b8152600490fd5b9061563392602092604051809581948293630b135d3f60e11b998a8552600485016155bf565b03916001600160a01b03165afa9081156156a0575b600091615672575b506001600160e01b0319161461050a5760405163f6cd0e2f60e01b8152600490fd5b615693915060203d8111615699575b61568b81836113e0565b8101906155aa565b38615650565b503d615681565b6156a86139b5565b615648565b9091604181036157a45750604082013560001a91602081013590355b7f7fffffffffffffffffffffffffffffff5d576e7357a4501ddfe92f46681b20a082116157925760ff8416601b8114159081615786575b5061576b576040805193845260ff9490941660208085019190915293830152606082015260008080529060809060015afa1561575e575b600051906001600160a01b0382161561574c57565b60405163f05a20c760e01b8152600490fd5b6157666139b5565b615737565b60405163105e24e960e21b815260ff85166004820152602490fd5b601c9150141538615700565b6040516360c2892960e11b8152600490fd5b604081036157cd5750602082013560ff81901c601b01926001600160ff1b0390911690356156c9565b60405163d42b4bbd60e01b81526004810191909152602490fd5b47600181116157f35750565b600080808093811901335af11561580657565b6307246cf46000526004601cfd5b615828828495600080809781948294f11590565b6158325750505050565b6001600160a01b031691823b1561075d57916158a29391602093604051630d0e30db60e41b8152818160048188885af180156158f8575b6158e5575b5060405163a9059cbb60e01b81526001600160a01b0390921660048301526024820193909352938492839182906044820190565b03925af180156158d8575b6158ba575b80808061459d565b6158d19060203d8111611e8657611e7881836113e0565b50386158b2565b6158e06139b5565b6158ad565b806126d16158f29261136f565b3861586e565b6159006139b5565b61586956fea26469706673582212203d1310cd1dd0bcadb0e2fc9f3d319b517e63df8becbf55565aeb796da37a21e964736f6c63430008110033",
    "linkReferences": {}
  },
  "methodIdentifiers": {
    "MAGIC_VALUE_ORDER_NONCE_EXECUTED()": "463357ec",
    "WETH()": "ad5c4648",
    "addStrategy(uint16,uint16,uint16,bytes4,bool,address)": "91be1360",
    "affiliateController()": "4cbac9dc",
    "affiliateRates(address)": "7a7d8851",
    "cancelOrderNonces(uint256[])": "79ed31d4",
    "cancelOwnershipTransfer()": "23452b9c",
    "cancelSubsetNonces(uint256[])": "134849a6",
    "chainId()": "9a8a0592",
    "confirmOwnershipRenouncement()": "3e567539",
    "confirmOwnershipTransfer()": "7200b829",
    "creatorFeeManager()": "838b8f5c",
    "domainSeparator()": "f698da25",
    "executeMultipleTakerBids((address,uint16,bytes)[],(uint8,uint256,uint256,uint256,uint256,uint8,address,address,address,uint256,uint256,uint256,uint256[],uint256[],uint16,bytes)[],bytes[],(bytes32,(bytes32,uint8)[])[],address,bool)": "0db2bd1e",
    "executeTakerAsk((address,uint16,bytes),(uint8,uint256,uint256,uint256,uint256,uint8,address,address,address,uint256,uint256,uint256,uint256[],uint256[],uint16,bytes),bytes,(bytes32,(bytes32,uint8)[]),address)": "10e89db4",
    "executeTakerBid((address,uint16,bytes),(uint8,uint256,uint256,uint256,uint256,uint8,address,address,address,uint256,uint256,uint256,uint256[],uint256[],uint16,bytes),bytes,(bytes32,(bytes32,uint8)[]),address)": "41fb13d0",
    "failedMessages(uint16,bytes,uint256)": "8ee74912",
    "forceResumeReceive(uint16,bytes)": "42d65a8d",
    "getConfig(uint16,uint16,address,uint256)": "f5ecbdbc",
    "getTrustedRemoteAddress(uint16)": "9f38369a",
    "hashBatchOrder(bytes32,uint256)": "86c07642",
    "incrementBidAskNonces(bool,bool)": "d5b010f5",
    "initiateOwnershipRenouncement()": "5b6ac011",
    "initiateOwnershipTransfer(address)": "c0b6f561",
    "isAffiliateProgramActive()": "67d9dd79",
    "isCurrencyAllowed(address)": "5a195d19",
    "isTrustedRemote(uint16,bytes)": "3d8b38f6",
    "lzEndpoint()": "b353aaa7",
    "lzReceive(uint16,bytes,uint64,bytes)": "001d3567",
    "maxCreatorFeeBp()": "6e90c014",
    "minDstGasLookup(uint16,uint16)": "8cfd8f5c",
    "nonblockingLzReceive(uint16,bytes,uint64,bytes)": "66ad5c8a",
    "owner()": "8da5cb5b",
    "ownershipStatus()": "2bb5a9e6",
    "potentialOwner()": "7762df25",
    "precrime()": "950c8a74",
    "protocolFeeRecipient()": "64df049e",
    "restrictedExecuteTakerBid((address,uint16,bytes),(uint8,uint256,uint256,uint256,uint256,uint8,address,address,address,uint256,uint256,uint256,uint256[],uint256[],uint16,bytes),address,bytes32)": "37e8cc71",
    "retryMessage(uint16,bytes,uint64,bytes)": "d1deba1f",
    "setConfig(uint16,uint16,uint256,bytes)": "cbed8b9c",
    "setMinDstGas(uint16,uint16,uint256)": "df2a5b3b",
    "setPrecrime(address)": "baf3292d",
    "setReceiveVersion(uint16)": "10ddb137",
    "setSendVersion(uint16)": "07e0db17",
    "setTrustedRemote(uint16,bytes)": "eb8d72b7",
    "setTrustedRemoteAddress(uint16,bytes)": "a6c3d165",
    "strategyInfo(uint256)": "bb91c339",
    "transferManager()": "46ea2552",
    "trustedRemoteLookup(uint16)": "7533d788",
    "updateAffiliateController(address)": "a02bab57",
    "updateAffiliateProgramStatus(bool)": "54878876",
    "updateAffiliateRate(address,uint256)": "ae1cce5a",
    "updateCreatorFeeManager(address)": "b647a404",
    "updateCurrencyStatus(address,bool)": "1d3c4268",
    "updateDomainSeparator()": "89ccfe89",
    "updateETHGasLimitForTransfer(uint256)": "974e7c9f",
    "updateMaxCreatorFeeBp(uint16)": "46b625bc",
    "updateProtocolFeeRecipient(address)": "1df47f80",
    "updateStrategy(uint256,bool,uint16,uint16)": "d5a06adf",
    "userBidAskNonces(address)": "a39bf29f",
    "userOrderNonce(address,uint256)": "20cd05c7",
    "userSubsetNonce(address,uint256)": "ea179b76"
  },
  "id": 11
}