{
  "abi": [
    {
      "inputs": [
        {
          "internalType": "address",
          "name": "_currencyManager",
          "type": "address"
        },
        {
          "internalType": "address",
          "name": "_executionManager",
          "type": "address"
        },
        {
          "internalType": "address",
          "name": "_royaltyFeeManager",
          "type": "address"
        },
        {
          "internalType": "address",
          "name": "_WETH",
          "type": "address"
        },
        {
          "internalType": "address",
          "name": "_protocolFeeRecipient",
          "type": "address"
        },
        {
          "internalType": "address",
          "name": "_lzEndpoint",
          "type": "address"
        }
      ],
      "stateMutability": "nonpayable",
      "type": "constructor"
    },
    {
      "anonymous": false,
      "inputs": [
        {
          "indexed": true,
          "internalType": "address",
          "name": "user",
          "type": "address"
        },
        {
          "indexed": false,
          "internalType": "uint16",
          "name": "chainId",
          "type": "uint16"
        },
        {
          "indexed": false,
          "internalType": "uint256",
          "name": "newMinNonce",
          "type": "uint256"
        }
      ],
      "name": "CancelAllOrders",
      "type": "event"
    },
    {
      "anonymous": false,
      "inputs": [
        {
          "indexed": false,
          "internalType": "uint16",
          "name": "_srcChainId",
          "type": "uint16"
        },
        {
          "indexed": false,
          "internalType": "bytes",
          "name": "_srcAddress",
          "type": "bytes"
        },
        {
          "indexed": false,
          "internalType": "uint64",
          "name": "_nonce",
          "type": "uint64"
        },
        {
          "indexed": false,
          "internalType": "bytes",
          "name": "_payload",
          "type": "bytes"
        }
      ],
      "name": "MessageFailed",
      "type": "event"
    },
    {
      "anonymous": false,
      "inputs": [
        {
          "indexed": true,
          "internalType": "address",
          "name": "currencyManager",
          "type": "address"
        }
      ],
      "name": "NewCurrencyManager",
      "type": "event"
    },
    {
      "anonymous": false,
      "inputs": [
        {
          "indexed": true,
          "internalType": "address",
          "name": "executionManager",
          "type": "address"
        }
      ],
      "name": "NewExecutionManager",
      "type": "event"
    },
    {
      "anonymous": false,
      "inputs": [
        {
          "indexed": true,
          "internalType": "address",
          "name": "protocolFeeRecipient",
          "type": "address"
        }
      ],
      "name": "NewProtocolFeeRecipient",
      "type": "event"
    },
    {
      "anonymous": false,
      "inputs": [
        {
          "indexed": true,
          "internalType": "address",
          "name": "royaltyFeeManager",
          "type": "address"
        }
      ],
      "name": "NewRoyaltyFeeManager",
      "type": "event"
    },
    {
      "anonymous": false,
      "inputs": [
        {
          "indexed": true,
          "internalType": "address",
          "name": "transferSelectorNFT",
          "type": "address"
        }
      ],
      "name": "NewTransferSelectorNFT",
      "type": "event"
    },
    {
      "anonymous": false,
      "inputs": [
        {
          "indexed": true,
          "internalType": "address",
          "name": "previousOwner",
          "type": "address"
        },
        {
          "indexed": true,
          "internalType": "address",
          "name": "newOwner",
          "type": "address"
        }
      ],
      "name": "OwnershipTransferred",
      "type": "event"
    },
    {
      "anonymous": false,
      "inputs": [
        {
          "indexed": true,
          "internalType": "address",
          "name": "seller",
          "type": "address"
        },
        {
          "indexed": true,
          "internalType": "address",
          "name": "buyer",
          "type": "address"
        },
        {
          "indexed": false,
          "internalType": "uint256",
          "name": "price",
          "type": "uint256"
        },
        {
          "indexed": false,
          "internalType": "address",
          "name": "currency",
          "type": "address"
        },
        {
          "indexed": false,
          "internalType": "bytes",
          "name": "reason",
          "type": "bytes"
        }
      ],
      "name": "RevertFunds",
      "type": "event"
    },
    {
      "anonymous": false,
      "inputs": [
        {
          "indexed": true,
          "internalType": "address",
          "name": "seller",
          "type": "address"
        },
        {
          "indexed": true,
          "internalType": "address",
          "name": "buyer",
          "type": "address"
        },
        {
          "indexed": false,
          "internalType": "uint256",
          "name": "price",
          "type": "uint256"
        },
        {
          "indexed": false,
          "internalType": "address",
          "name": "currency",
          "type": "address"
        }
      ],
      "name": "SentFunds",
      "type": "event"
    },
    {
      "anonymous": false,
      "inputs": [
        {
          "indexed": false,
          "internalType": "uint16",
          "name": "_dstChainId",
          "type": "uint16"
        },
        {
          "indexed": false,
          "internalType": "uint16",
          "name": "_type",
          "type": "uint16"
        },
        {
          "indexed": false,
          "internalType": "uint256",
          "name": "_minDstGas",
          "type": "uint256"
        }
      ],
      "name": "SetMinDstGas",
      "type": "event"
    },
    {
      "anonymous": false,
      "inputs": [
        {
          "indexed": false,
          "internalType": "address",
          "name": "precrime",
          "type": "address"
        }
      ],
      "name": "SetPrecrime",
      "type": "event"
    },
    {
      "anonymous": false,
      "inputs": [
        {
          "indexed": false,
          "internalType": "uint16",
          "name": "_remoteChainId",
          "type": "uint16"
        },
        {
          "indexed": false,
          "internalType": "bytes",
          "name": "_path",
          "type": "bytes"
        }
      ],
      "name": "SetTrustedRemote",
      "type": "event"
    },
    {
      "anonymous": false,
      "inputs": [
        {
          "indexed": false,
          "internalType": "uint16",
          "name": "_remoteChainId",
          "type": "uint16"
        },
        {
          "indexed": false,
          "internalType": "bytes",
          "name": "_remoteAddress",
          "type": "bytes"
        }
      ],
      "name": "SetTrustedRemoteAddress",
      "type": "event"
    },
    {
      "anonymous": false,
      "inputs": [
        {
          "indexed": false,
          "internalType": "bytes32",
          "name": "orderHash",
          "type": "bytes32"
        },
        {
          "indexed": false,
          "internalType": "uint256",
          "name": "orderNonce",
          "type": "uint256"
        },
        {
          "indexed": true,
          "internalType": "address",
          "name": "taker",
          "type": "address"
        },
        {
          "indexed": true,
          "internalType": "address",
          "name": "maker",
          "type": "address"
        },
        {
          "indexed": true,
          "internalType": "address",
          "name": "strategy",
          "type": "address"
        },
        {
          "indexed": false,
          "internalType": "address",
          "name": "currency",
          "type": "address"
        },
        {
          "indexed": false,
          "internalType": "address",
          "name": "collection",
          "type": "address"
        },
        {
          "indexed": false,
          "internalType": "uint256",
          "name": "tokenId",
          "type": "uint256"
        },
        {
          "indexed": false,
          "internalType": "uint256",
          "name": "amount",
          "type": "uint256"
        },
        {
          "indexed": false,
          "internalType": "uint256",
          "name": "price",
          "type": "uint256"
        },
        {
          "indexed": false,
          "internalType": "uint16",
          "name": "makerChainId",
          "type": "uint16"
        },
        {
          "indexed": false,
          "internalType": "uint16",
          "name": "takerChainId",
          "type": "uint16"
        }
      ],
      "name": "TakerAsk",
      "type": "event"
    },
    {
      "anonymous": false,
      "inputs": [
        {
          "indexed": false,
          "internalType": "bytes32",
          "name": "orderHash",
          "type": "bytes32"
        },
        {
          "indexed": false,
          "internalType": "uint256",
          "name": "orderNonce",
          "type": "uint256"
        },
        {
          "indexed": true,
          "internalType": "address",
          "name": "taker",
          "type": "address"
        },
        {
          "indexed": true,
          "internalType": "address",
          "name": "maker",
          "type": "address"
        },
        {
          "indexed": true,
          "internalType": "address",
          "name": "strategy",
          "type": "address"
        },
        {
          "indexed": false,
          "internalType": "address",
          "name": "currency",
          "type": "address"
        },
        {
          "indexed": false,
          "internalType": "address",
          "name": "collection",
          "type": "address"
        },
        {
          "indexed": false,
          "internalType": "uint256",
          "name": "tokenId",
          "type": "uint256"
        },
        {
          "indexed": false,
          "internalType": "uint256",
          "name": "amount",
          "type": "uint256"
        },
        {
          "indexed": false,
          "internalType": "uint256",
          "name": "price",
          "type": "uint256"
        },
        {
          "indexed": false,
          "internalType": "uint16",
          "name": "makerChainId",
          "type": "uint16"
        },
        {
          "indexed": false,
          "internalType": "uint16",
          "name": "takerChainId",
          "type": "uint16"
        }
      ],
      "name": "TakerBid",
      "type": "event"
    },
    {
      "inputs": [],
      "name": "WETH",
      "outputs": [
        {
          "internalType": "address",
          "name": "",
          "type": "address"
        }
      ],
      "stateMutability": "view",
      "type": "function"
    },
    {
      "inputs": [
        {
          "internalType": "address",
          "name": "collection",
          "type": "address"
        },
        {
          "internalType": "address",
          "name": "from",
          "type": "address"
        },
        {
          "internalType": "address",
          "name": "to",
          "type": "address"
        },
        {
          "internalType": "uint256",
          "name": "tokenId",
          "type": "uint256"
        },
        {
          "internalType": "uint256",
          "name": "amount",
          "type": "uint256"
        }
      ],
      "name": "_transferNFTLz",
      "outputs": [],
      "stateMutability": "nonpayable",
      "type": "function"
    },
    {
      "inputs": [
        {
          "internalType": "uint256",
          "name": "minNonce",
          "type": "uint256"
        },
        {
          "internalType": "uint16",
          "name": "lzChainId",
          "type": "uint16"
        }
      ],
      "name": "cancelAllOrdersForSender",
      "outputs": [],
      "stateMutability": "nonpayable",
      "type": "function"
    },
    {
      "inputs": [],
      "name": "currencyManager",
      "outputs": [
        {
          "internalType": "contract ICurrencyManager",
          "name": "",
          "type": "address"
        }
      ],
      "stateMutability": "view",
      "type": "function"
    },
    {
      "inputs": [],
      "name": "executionManager",
      "outputs": [
        {
          "internalType": "contract IExecutionManager",
          "name": "",
          "type": "address"
        }
      ],
      "stateMutability": "view",
      "type": "function"
    },
    {
      "inputs": [
        {
          "internalType": "uint16",
          "name": "",
          "type": "uint16"
        },
        {
          "internalType": "bytes",
          "name": "",
          "type": "bytes"
        },
        {
          "internalType": "uint256",
          "name": "",
          "type": "uint256"
        }
      ],
      "name": "failedMessages",
      "outputs": [
        {
          "internalType": "bytes32",
          "name": "",
          "type": "bytes32"
        }
      ],
      "stateMutability": "view",
      "type": "function"
    },
    {
      "inputs": [
        {
          "internalType": "uint16",
          "name": "_srcChainId",
          "type": "uint16"
        },
        {
          "internalType": "bytes",
          "name": "_srcAddress",
          "type": "bytes"
        }
      ],
      "name": "forceResumeReceive",
      "outputs": [],
      "stateMutability": "nonpayable",
      "type": "function"
    },
    {
      "inputs": [],
      "name": "fundManager",
      "outputs": [
        {
          "internalType": "contract IFundManager",
          "name": "",
          "type": "address"
        }
      ],
      "stateMutability": "view",
      "type": "function"
    },
    {
      "inputs": [],
      "name": "gasForLzReceive",
      "outputs": [
        {
          "internalType": "uint256",
          "name": "",
          "type": "uint256"
        }
      ],
      "stateMutability": "view",
      "type": "function"
    },
    {
      "inputs": [
        {
          "internalType": "uint16",
          "name": "_version",
          "type": "uint16"
        },
        {
          "internalType": "uint16",
          "name": "_chainId",
          "type": "uint16"
        },
        {
          "internalType": "address",
          "name": "",
          "type": "address"
        },
        {
          "internalType": "uint256",
          "name": "_configType",
          "type": "uint256"
        }
      ],
      "name": "getConfig",
      "outputs": [
        {
          "internalType": "bytes",
          "name": "",
          "type": "bytes"
        }
      ],
      "stateMutability": "view",
      "type": "function"
    },
    {
      "inputs": [
        {
          "components": [
            {
              "internalType": "bool",
              "name": "isOrderAsk",
              "type": "bool"
            },
            {
              "internalType": "address",
              "name": "taker",
              "type": "address"
            },
            {
              "internalType": "uint256",
              "name": "price",
              "type": "uint256"
            },
            {
              "internalType": "uint256",
              "name": "tokenId",
              "type": "uint256"
            },
            {
              "internalType": "bytes",
              "name": "params",
              "type": "bytes"
            }
          ],
          "internalType": "struct OrderTypes.TakerOrder",
          "name": "taker",
          "type": "tuple"
        },
        {
          "components": [
            {
              "internalType": "bool",
              "name": "isOrderAsk",
              "type": "bool"
            },
            {
              "internalType": "address",
              "name": "signer",
              "type": "address"
            },
            {
              "internalType": "address",
              "name": "collection",
              "type": "address"
            },
            {
              "internalType": "uint256",
              "name": "price",
              "type": "uint256"
            },
            {
              "internalType": "uint256",
              "name": "tokenId",
              "type": "uint256"
            },
            {
              "internalType": "uint256",
              "name": "amount",
              "type": "uint256"
            },
            {
              "internalType": "address",
              "name": "strategy",
              "type": "address"
            },
            {
              "internalType": "address",
              "name": "currency",
              "type": "address"
            },
            {
              "internalType": "uint256",
              "name": "nonce",
              "type": "uint256"
            },
            {
              "internalType": "uint256",
              "name": "startTime",
              "type": "uint256"
            },
            {
              "internalType": "uint256",
              "name": "endTime",
              "type": "uint256"
            },
            {
              "internalType": "bytes",
              "name": "params",
              "type": "bytes"
            },
            {
              "internalType": "bytes",
              "name": "signature",
              "type": "bytes"
            }
          ],
          "internalType": "struct OrderTypes.MakerOrder",
          "name": "maker",
          "type": "tuple"
        },
        {
          "internalType": "uint256",
          "name": "destAirdrop",
          "type": "uint256"
        }
      ],
      "name": "getLzFeesForTrading",
      "outputs": [
        {
          "internalType": "uint256",
          "name": "",
          "type": "uint256"
        },
        {
          "internalType": "uint256",
          "name": "",
          "type": "uint256"
        },
        {
          "internalType": "uint256",
          "name": "",
          "type": "uint256"
        }
      ],
      "stateMutability": "view",
      "type": "function"
    },
    {
      "inputs": [
        {
          "internalType": "uint16",
          "name": "_remoteChainId",
          "type": "uint16"
        }
      ],
      "name": "getTrustedRemoteAddress",
      "outputs": [
        {
          "internalType": "bytes",
          "name": "",
          "type": "bytes"
        }
      ],
      "stateMutability": "view",
      "type": "function"
    },
    {
      "inputs": [
        {
          "internalType": "uint16",
          "name": "_srcChainId",
          "type": "uint16"
        },
        {
          "internalType": "bytes",
          "name": "_srcAddress",
          "type": "bytes"
        }
      ],
      "name": "isTrustedRemote",
      "outputs": [
        {
          "internalType": "bool",
          "name": "",
          "type": "bool"
        }
      ],
      "stateMutability": "view",
      "type": "function"
    },
    {
      "inputs": [
        {
          "internalType": "address",
          "name": "user",
          "type": "address"
        },
        {
          "internalType": "uint16",
          "name": "lzChainId",
          "type": "uint16"
        },
        {
          "internalType": "uint256",
          "name": "orderNonce",
          "type": "uint256"
        }
      ],
      "name": "isUserOrderNonceExecutedOrCancelled",
      "outputs": [
        {
          "internalType": "bool",
          "name": "",
          "type": "bool"
        }
      ],
      "stateMutability": "view",
      "type": "function"
    },
    {
      "inputs": [],
      "name": "lzEndpoint",
      "outputs": [
        {
          "internalType": "contract ILayerZeroEndpoint",
          "name": "",
          "type": "address"
        }
      ],
      "stateMutability": "view",
      "type": "function"
    },
    {
      "inputs": [
        {
          "internalType": "uint16",
          "name": "_srcChainId",
          "type": "uint16"
        },
        {
          "internalType": "bytes",
          "name": "_srcAddress",
          "type": "bytes"
        },
        {
          "internalType": "uint64",
          "name": "_nonce",
          "type": "uint64"
        },
        {
          "internalType": "bytes",
          "name": "_payload",
          "type": "bytes"
        }
      ],
      "name": "lzReceive",
      "outputs": [],
      "stateMutability": "nonpayable",
      "type": "function"
    },
    {
      "inputs": [
        {
          "internalType": "uint256",
          "name": "destAirdrop",
          "type": "uint256"
        },
        {
          "components": [
            {
              "internalType": "bool",
              "name": "isOrderAsk",
              "type": "bool"
            },
            {
              "internalType": "address",
              "name": "taker",
              "type": "address"
            },
            {
              "internalType": "uint256",
              "name": "price",
              "type": "uint256"
            },
            {
              "internalType": "uint256",
              "name": "tokenId",
              "type": "uint256"
            },
            {
              "internalType": "bytes",
              "name": "params",
              "type": "bytes"
            }
          ],
          "internalType": "struct OrderTypes.TakerOrder",
          "name": "takerBid",
          "type": "tuple"
        },
        {
          "components": [
            {
              "internalType": "bool",
              "name": "isOrderAsk",
              "type": "bool"
            },
            {
              "internalType": "address",
              "name": "signer",
              "type": "address"
            },
            {
              "internalType": "address",
              "name": "collection",
              "type": "address"
            },
            {
              "internalType": "uint256",
              "name": "price",
              "type": "uint256"
            },
            {
              "internalType": "uint256",
              "name": "tokenId",
              "type": "uint256"
            },
            {
              "internalType": "uint256",
              "name": "amount",
              "type": "uint256"
            },
            {
              "internalType": "address",
              "name": "strategy",
              "type": "address"
            },
            {
              "internalType": "address",
              "name": "currency",
              "type": "address"
            },
            {
              "internalType": "uint256",
              "name": "nonce",
              "type": "uint256"
            },
            {
              "internalType": "uint256",
              "name": "startTime",
              "type": "uint256"
            },
            {
              "internalType": "uint256",
              "name": "endTime",
              "type": "uint256"
            },
            {
              "internalType": "bytes",
              "name": "params",
              "type": "bytes"
            },
            {
              "internalType": "bytes",
              "name": "signature",
              "type": "bytes"
            }
          ],
          "internalType": "struct OrderTypes.MakerOrder",
          "name": "makerAsk",
          "type": "tuple"
        }
      ],
      "name": "matchAskWithTakerBid",
      "outputs": [],
      "stateMutability": "payable",
      "type": "function"
    },
    {
      "inputs": [
        {
          "internalType": "uint256",
          "name": "destAirdrop",
          "type": "uint256"
        },
        {
          "components": [
            {
              "internalType": "bool",
              "name": "isOrderAsk",
              "type": "bool"
            },
            {
              "internalType": "address",
              "name": "taker",
              "type": "address"
            },
            {
              "internalType": "uint256",
              "name": "price",
              "type": "uint256"
            },
            {
              "internalType": "uint256",
              "name": "tokenId",
              "type": "uint256"
            },
            {
              "internalType": "bytes",
              "name": "params",
              "type": "bytes"
            }
          ],
          "internalType": "struct OrderTypes.TakerOrder",
          "name": "takerBid",
          "type": "tuple"
        },
        {
          "components": [
            {
              "internalType": "bool",
              "name": "isOrderAsk",
              "type": "bool"
            },
            {
              "internalType": "address",
              "name": "signer",
              "type": "address"
            },
            {
              "internalType": "address",
              "name": "collection",
              "type": "address"
            },
            {
              "internalType": "uint256",
              "name": "price",
              "type": "uint256"
            },
            {
              "internalType": "uint256",
              "name": "tokenId",
              "type": "uint256"
            },
            {
              "internalType": "uint256",
              "name": "amount",
              "type": "uint256"
            },
            {
              "internalType": "address",
              "name": "strategy",
              "type": "address"
            },
            {
              "internalType": "address",
              "name": "currency",
              "type": "address"
            },
            {
              "internalType": "uint256",
              "name": "nonce",
              "type": "uint256"
            },
            {
              "internalType": "uint256",
              "name": "startTime",
              "type": "uint256"
            },
            {
              "internalType": "uint256",
              "name": "endTime",
              "type": "uint256"
            },
            {
              "internalType": "bytes",
              "name": "params",
              "type": "bytes"
            },
            {
              "internalType": "bytes",
              "name": "signature",
              "type": "bytes"
            }
          ],
          "internalType": "struct OrderTypes.MakerOrder",
          "name": "makerAsk",
          "type": "tuple"
        }
      ],
      "name": "matchAskWithTakerBidUsingETHAndWETH",
      "outputs": [],
      "stateMutability": "payable",
      "type": "function"
    },
    {
      "inputs": [
        {
          "internalType": "uint256",
          "name": "destAirdrop",
          "type": "uint256"
        },
        {
          "components": [
            {
              "internalType": "bool",
              "name": "isOrderAsk",
              "type": "bool"
            },
            {
              "internalType": "address",
              "name": "taker",
              "type": "address"
            },
            {
              "internalType": "uint256",
              "name": "price",
              "type": "uint256"
            },
            {
              "internalType": "uint256",
              "name": "tokenId",
              "type": "uint256"
            },
            {
              "internalType": "bytes",
              "name": "params",
              "type": "bytes"
            }
          ],
          "internalType": "struct OrderTypes.TakerOrder",
          "name": "takerAsk",
          "type": "tuple"
        },
        {
          "components": [
            {
              "internalType": "bool",
              "name": "isOrderAsk",
              "type": "bool"
            },
            {
              "internalType": "address",
              "name": "signer",
              "type": "address"
            },
            {
              "internalType": "address",
              "name": "collection",
              "type": "address"
            },
            {
              "internalType": "uint256",
              "name": "price",
              "type": "uint256"
            },
            {
              "internalType": "uint256",
              "name": "tokenId",
              "type": "uint256"
            },
            {
              "internalType": "uint256",
              "name": "amount",
              "type": "uint256"
            },
            {
              "internalType": "address",
              "name": "strategy",
              "type": "address"
            },
            {
              "internalType": "address",
              "name": "currency",
              "type": "address"
            },
            {
              "internalType": "uint256",
              "name": "nonce",
              "type": "uint256"
            },
            {
              "internalType": "uint256",
              "name": "startTime",
              "type": "uint256"
            },
            {
              "internalType": "uint256",
              "name": "endTime",
              "type": "uint256"
            },
            {
              "internalType": "bytes",
              "name": "params",
              "type": "bytes"
            },
            {
              "internalType": "bytes",
              "name": "signature",
              "type": "bytes"
            }
          ],
          "internalType": "struct OrderTypes.MakerOrder",
          "name": "makerBid",
          "type": "tuple"
        }
      ],
      "name": "matchBidWithTakerAsk",
      "outputs": [],
      "stateMutability": "payable",
      "type": "function"
    },
    {
      "inputs": [
        {
          "internalType": "uint16",
          "name": "",
          "type": "uint16"
        },
        {
          "internalType": "uint16",
          "name": "",
          "type": "uint16"
        }
      ],
      "name": "minDstGasLookup",
      "outputs": [
        {
          "internalType": "uint256",
          "name": "",
          "type": "uint256"
        }
      ],
      "stateMutability": "view",
      "type": "function"
    },
    {
      "inputs": [
        {
          "internalType": "uint16",
          "name": "_srcChainId",
          "type": "uint16"
        },
        {
          "internalType": "bytes",
          "name": "_srcAddress",
          "type": "bytes"
        },
        {
          "internalType": "uint64",
          "name": "_nonce",
          "type": "uint64"
        },
        {
          "internalType": "bytes",
          "name": "_payload",
          "type": "bytes"
        }
      ],
      "name": "nonblockingLzReceive",
      "outputs": [],
      "stateMutability": "nonpayable",
      "type": "function"
    },
    {
      "inputs": [
        {
          "internalType": "uint16",
          "name": "",
          "type": "uint16"
        },
        {
          "internalType": "bytes",
          "name": "",
          "type": "bytes"
        },
        {
          "internalType": "uint256",
          "name": "",
          "type": "uint256"
        },
        {
          "internalType": "uint256",
          "name": "_price",
          "type": "uint256"
        },
        {
          "internalType": "bytes",
          "name": "_payload",
          "type": "bytes"
        }
      ],
      "name": "omniReceive",
      "outputs": [],
      "stateMutability": "nonpayable",
      "type": "function"
    },
    {
      "inputs": [],
      "name": "owner",
      "outputs": [
        {
          "internalType": "address",
          "name": "",
          "type": "address"
        }
      ],
      "stateMutability": "view",
      "type": "function"
    },
    {
      "inputs": [],
      "name": "precrime",
      "outputs": [
        {
          "internalType": "address",
          "name": "",
          "type": "address"
        }
      ],
      "stateMutability": "view",
      "type": "function"
    },
    {
      "inputs": [],
      "name": "protocolFeeRecipient",
      "outputs": [
        {
          "internalType": "address",
          "name": "",
          "type": "address"
        }
      ],
      "stateMutability": "view",
      "type": "function"
    },
    {
      "inputs": [],
      "name": "renounceOwnership",
      "outputs": [],
      "stateMutability": "nonpayable",
      "type": "function"
    },
    {
      "inputs": [
        {
          "internalType": "uint16",
          "name": "_srcChainId",
          "type": "uint16"
        },
        {
          "internalType": "bytes",
          "name": "_srcAddress",
          "type": "bytes"
        },
        {
          "internalType": "uint64",
          "name": "_nonce",
          "type": "uint64"
        },
        {
          "internalType": "bytes",
          "name": "_payload",
          "type": "bytes"
        }
      ],
      "name": "retryMessage",
      "outputs": [],
      "stateMutability": "payable",
      "type": "function"
    },
    {
      "inputs": [],
      "name": "royaltyFeeManager",
      "outputs": [
        {
          "internalType": "contract IRoyaltyFeeManager",
          "name": "",
          "type": "address"
        }
      ],
      "stateMutability": "view",
      "type": "function"
    },
    {
      "inputs": [
        {
          "internalType": "uint16",
          "name": "_version",
          "type": "uint16"
        },
        {
          "internalType": "uint16",
          "name": "_chainId",
          "type": "uint16"
        },
        {
          "internalType": "uint256",
          "name": "_configType",
          "type": "uint256"
        },
        {
          "internalType": "bytes",
          "name": "_config",
          "type": "bytes"
        }
      ],
      "name": "setConfig",
      "outputs": [],
      "stateMutability": "nonpayable",
      "type": "function"
    },
    {
      "inputs": [
        {
          "internalType": "address",
          "name": "manager",
          "type": "address"
        }
      ],
      "name": "setFundManager",
      "outputs": [],
      "stateMutability": "nonpayable",
      "type": "function"
    },
    {
      "inputs": [
        {
          "internalType": "uint256",
          "name": "gas",
          "type": "uint256"
        }
      ],
      "name": "setGasForLzReceive",
      "outputs": [],
      "stateMutability": "nonpayable",
      "type": "function"
    },
    {
      "inputs": [
        {
          "internalType": "uint16",
          "name": "_dstChainId",
          "type": "uint16"
        },
        {
          "internalType": "uint16",
          "name": "_packetType",
          "type": "uint16"
        },
        {
          "internalType": "uint256",
          "name": "_minGas",
          "type": "uint256"
        }
      ],
      "name": "setMinDstGas",
      "outputs": [],
      "stateMutability": "nonpayable",
      "type": "function"
    },
    {
      "inputs": [
        {
          "internalType": "address",
          "name": "_precrime",
          "type": "address"
        }
      ],
      "name": "setPrecrime",
      "outputs": [],
      "stateMutability": "nonpayable",
      "type": "function"
    },
    {
      "inputs": [
        {
          "internalType": "uint16",
          "name": "_version",
          "type": "uint16"
        }
      ],
      "name": "setReceiveVersion",
      "outputs": [],
      "stateMutability": "nonpayable",
      "type": "function"
    },
    {
      "inputs": [
        {
          "internalType": "uint16",
          "name": "_version",
          "type": "uint16"
        }
      ],
      "name": "setSendVersion",
      "outputs": [],
      "stateMutability": "nonpayable",
      "type": "function"
    },
    {
      "inputs": [
        {
          "internalType": "address",
          "name": "manager",
          "type": "address"
        }
      ],
      "name": "setStargatePoolManager",
      "outputs": [],
      "stateMutability": "nonpayable",
      "type": "function"
    },
    {
      "inputs": [
        {
          "internalType": "uint16",
          "name": "_srcChainId",
          "type": "uint16"
        },
        {
          "internalType": "bytes",
          "name": "_path",
          "type": "bytes"
        }
      ],
      "name": "setTrustedRemote",
      "outputs": [],
      "stateMutability": "nonpayable",
      "type": "function"
    },
    {
      "inputs": [
        {
          "internalType": "uint16",
          "name": "_remoteChainId",
          "type": "uint16"
        },
        {
          "internalType": "bytes",
          "name": "_remoteAddress",
          "type": "bytes"
        }
      ],
      "name": "setTrustedRemoteAddress",
      "outputs": [],
      "stateMutability": "nonpayable",
      "type": "function"
    },
    {
      "inputs": [
        {
          "internalType": "uint16",
          "name": "",
          "type": "uint16"
        },
        {
          "internalType": "bytes",
          "name": "",
          "type": "bytes"
        },
        {
          "internalType": "uint256",
          "name": "",
          "type": "uint256"
        },
        {
          "internalType": "address",
          "name": "",
          "type": "address"
        },
        {
          "internalType": "uint256",
          "name": "_price",
          "type": "uint256"
        },
        {
          "internalType": "bytes",
          "name": "_payload",
          "type": "bytes"
        }
      ],
      "name": "sgReceive",
      "outputs": [],
      "stateMutability": "nonpayable",
      "type": "function"
    },
    {
      "inputs": [],
      "name": "stargatePoolManager",
      "outputs": [
        {
          "internalType": "contract IStargatePoolManager",
          "name": "",
          "type": "address"
        }
      ],
      "stateMutability": "view",
      "type": "function"
    },
    {
      "inputs": [
        {
          "internalType": "address",
          "name": "newOwner",
          "type": "address"
        }
      ],
      "name": "transferOwnership",
      "outputs": [],
      "stateMutability": "nonpayable",
      "type": "function"
    },
    {
      "inputs": [],
      "name": "transferSelectorNFT",
      "outputs": [
        {
          "internalType": "contract ITransferSelectorNFT",
          "name": "",
          "type": "address"
        }
      ],
      "stateMutability": "view",
      "type": "function"
    },
    {
      "inputs": [
        {
          "internalType": "uint16",
          "name": "",
          "type": "uint16"
        }
      ],
      "name": "trustedRemoteLookup",
      "outputs": [
        {
          "internalType": "bytes",
          "name": "",
          "type": "bytes"
        }
      ],
      "stateMutability": "view",
      "type": "function"
    },
    {
      "inputs": [
        {
          "internalType": "address",
          "name": "_currencyManager",
          "type": "address"
        }
      ],
      "name": "updateCurrencyManager",
      "outputs": [],
      "stateMutability": "nonpayable",
      "type": "function"
    },
    {
      "inputs": [
        {
          "internalType": "address",
          "name": "_executionManager",
          "type": "address"
        }
      ],
      "name": "updateExecutionManager",
      "outputs": [],
      "stateMutability": "nonpayable",
      "type": "function"
    },
    {
      "inputs": [
        {
          "internalType": "address",
          "name": "_protocolFeeRecipient",
          "type": "address"
        }
      ],
      "name": "updateProtocolFeeRecipient",
      "outputs": [],
      "stateMutability": "nonpayable",
      "type": "function"
    },
    {
      "inputs": [
        {
          "internalType": "address",
          "name": "_royaltyFeeManager",
          "type": "address"
        }
      ],
      "name": "updateRoyaltyFeeManager",
      "outputs": [],
      "stateMutability": "nonpayable",
      "type": "function"
    },
    {
      "inputs": [
        {
          "internalType": "address",
          "name": "_transferSelectorNFT",
          "type": "address"
        }
      ],
      "name": "updateTransferSelectorNFT",
      "outputs": [],
      "stateMutability": "nonpayable",
      "type": "function"
    },
    {
      "inputs": [
        {
          "internalType": "address",
          "name": "",
          "type": "address"
        },
        {
          "internalType": "uint16",
          "name": "",
          "type": "uint16"
        }
      ],
      "name": "userMinOrderNonce",
      "outputs": [
        {
          "internalType": "uint256",
          "name": "",
          "type": "uint256"
        }
      ],
      "stateMutability": "view",
      "type": "function"
    },
    {
      "inputs": [],
      "name": "withdraw",
      "outputs": [],
      "stateMutability": "nonpayable",
      "type": "function"
    },
    {
      "stateMutability": "payable",
      "type": "receive"
    }
  ],
  "bytecode": {
    "object": "0x6101806040523480156200001257600080fd5b5060405162005d1538038062005d1583398101604081905262000035916200021a565b6040518060400160405280600d81526020016c4f6d6e695845786368616e676560981b815250604051806040016040528060018152602001603160f81b8152508280620000916200008b620001a960201b60201c565b620001ad565b6001600160a01b03166080525081516020808401919091208251918301919091206101008290526101208190524660c0527f8b73c3c69bb8fe3d512ecc4cf759cc79239f7b179b0ffacaa9a75d522b39400f620001338184846040805160208101859052908101839052606081018290524660808201523060a082015260009060c0016040516020818303038152906040528051906020012090509392505050565b60a0523060e05261014052505060016005555050600880546001600160a01b039788166001600160a01b031991821617909155600980549688169682169690961790955550600a80549386169385169390931790925583166101605260068054919093169116179055620927c06007556200029b565b3390565b600080546001600160a01b038381166001600160a01b0319831681178455604051919092169283917f8be0079c531659141344cd1fd0a4f28419497f9722a3daafe3b4186f6b6457e09190a35050565b80516001600160a01b03811681146200021557600080fd5b919050565b60008060008060008060c087890312156200023457600080fd5b6200023f87620001fd565b95506200024f60208801620001fd565b94506200025f60408801620001fd565b93506200026f60608801620001fd565b92506200027f60808801620001fd565b91506200028f60a08801620001fd565b90509295509295509295565b60805160a05160c05160e051610100516101205161014051610160516159d96200033c600039600081816107be01528181611e46015281816139080152613aba015260005050600050506000505060005050600050506000505060008181610812015281816109e601528181610c3501528181610e0001528181610fe301528181611a150152818161273e01528181612dce015261365501526159d96000f3fe6080604052600436106102cc5760003560e01c80638cfd8f5c11610175578063c5498769116100dc578063eb8d72b711610095578063f40bfed71161006f578063f40bfed714610970578063f5ecbdbc14610983578063f75ff53f146109a3578063fa99018d146109c357600080fd5b8063eb8d72b71461091d578063f09e80381461093d578063f2fde38b1461095057600080fd5b8063c54987691461086a578063c765e9941461088a578063cbed8b9c146108aa578063d1deba1f146108ca578063d4ff41dc146108dd578063df2a5b3b146108fd57600080fd5b8063ab8236f31161012e578063ab8236f31461078c578063ad5c4648146107ac578063b20dea75146107e0578063b353aaa714610800578063b681982214610834578063baf3292d1461084a57600080fd5b80638cfd8f5c146106875780638da5cb5b146106bf5780638ee74912146106dd578063950c8a741461072c5780639f38369a1461074c578063a6c3d1651461076c57600080fd5b8063483abb9f1161023457806364df049e116101ed578063715018a6116101c7578063715018a6146105d05780637533d788146105e55780638561837d1461061257806387e4401f1461066757600080fd5b806364df049e1461057d57806366ad5c8a1461059d57806366c7e084146105bd57600080fd5b8063483abb9f146104bd5780635ce052d7146104dd5780635dce2b0b146104fd5780635e14f68e1461051d57806360d7589d1461053d5780636209ec2d1461055d57600080fd5b8063232a306011610286578063232a3060146103d257806327f2e5b1146103f25780633ccfd60b146104385780633d25e5611461044d5780633d8b38f61461046d57806342d65a8d1461049d57600080fd5b80621d3567146102d857806307e0db17146102fa578063084a73861461031a5780630f747d741461035a57806310ddb137146103925780631df47f80146103b257600080fd5b366102d357005b600080fd5b3480156102e457600080fd5b506102f86102f33660046141c7565b6109e3565b005b34801561030657600080fd5b506102f861031536600461425c565b610c14565b34801561032657600080fd5b5061033a6103353660046142a4565b610c9d565b604080519384526020840192909252908201526060015b60405180910390f35b34801561036657600080fd5b5060085461037a906001600160a01b031681565b6040516001600160a01b039091168152602001610351565b34801561039e57600080fd5b506102f86103ad36600461425c565b610ddf565b3480156103be57600080fd5b506102f86103cd366004614330565b610e37565b3480156103de57600080fd5b506102f86103ed366004614330565b610e89565b3480156103fe57600080fd5b5061042a61040d36600461434d565b600e60209081526000928352604080842090915290825290205481565b604051908152602001610351565b34801561044457600080fd5b506102f8610eb3565b34801561045957600080fd5b50600c5461037a906001600160a01b031681565b34801561047957600080fd5b5061048d610488366004614386565b610ef8565b6040519015158152602001610351565b3480156104a957600080fd5b506102f86104b8366004614386565b610fc4565b3480156104c957600080fd5b5060095461037a906001600160a01b031681565b3480156104e957600080fd5b506102f86104f8366004614330565b61104a565b34801561050957600080fd5b506102f86105183660046143da565b61109c565b34801561052957600080fd5b50600b5461037a906001600160a01b031681565b34801561054957600080fd5b506102f86105583660046143ff565b611102565b34801561056957600080fd5b50600d5461037a906001600160a01b031681565b34801561058957600080fd5b5060065461037a906001600160a01b031681565b3480156105a957600080fd5b506102f86105b8366004614546565b61115e565b6102f86105cb3660046145cc565b6111bf565b3480156105dc57600080fd5b506102f86116c4565b3480156105f157600080fd5b5061060561060036600461425c565b6116d8565b6040516103519190614688565b34801561061e57600080fd5b5061048d61062d36600461469b565b6001600160a01b0383166000908152600f6020908152604080832061ffff86168452825280832084845290915290205460ff169392505050565b34801561067357600080fd5b50600a5461037a906001600160a01b031681565b34801561069357600080fd5b5061042a6106a23660046146dc565b600260209081526000928352604080842090915290825290205481565b3480156106cb57600080fd5b506000546001600160a01b031661037a565b3480156106e957600080fd5b5061042a6106f83660046146fa565b6004602090815260009384526040808520845180860184018051928152908401958401959095209452929052825290205481565b34801561073857600080fd5b5060035461037a906001600160a01b031681565b34801561075857600080fd5b5061060561076736600461425c565b611772565b34801561077857600080fd5b506102f8610787366004614386565b611888565b34801561079857600080fd5b506102f86107a7366004614741565b611911565b3480156107b857600080fd5b5061037a7f000000000000000000000000000000000000000000000000000000000000000081565b3480156107ec57600080fd5b506102f86107fb3660046147dd565b61192a565b34801561080c57600080fd5b5061037a7f000000000000000000000000000000000000000000000000000000000000000081565b34801561084057600080fd5b5061042a60075481565b34801561085657600080fd5b506102f8610865366004614330565b611937565b34801561087657600080fd5b506102f8610885366004614330565b611993565b34801561089657600080fd5b506102f86108a53660046147f6565b6119e5565b3480156108b657600080fd5b506102f86108c536600461487f565b6119f6565b6102f86108d83660046148f1565b611a8b565b3480156108e957600080fd5b506102f86108f8366004614330565b611c31565b34801561090957600080fd5b506102f861091836600461496d565b611c83565b34801561092957600080fd5b506102f8610938366004614386565b611d35565b6102f861094b3660046145cc565b611d8f565b34801561095c57600080fd5b506102f861096b366004614330565b6122fa565b6102f861097e3660046145cc565b612370565b34801561098f57600080fd5b5061060561099e36600461498d565b61270d565b3480156109af57600080fd5b506102f86109be366004614330565b6127be565b3480156109cf57600080fd5b506102f86109de366004614330565b612810565b337f00000000000000000000000000000000000000000000000000000000000000006001600160a01b031614610a605760405162461bcd60e51b815260206004820152601e60248201527f4c7a4170703a20696e76616c696420656e64706f696e742063616c6c6572000060448201526064015b60405180910390fd5b61ffff861660009081526001602052604081208054610a7e906149de565b80601f0160208091040260200160405190810160405280929190818152602001828054610aaa906149de565b8015610af75780601f10610acc57610100808354040283529160200191610af7565b820191906000526020600020905b815481529060010190602001808311610ada57829003601f168201915b50505050509050805186869050148015610b12575060008151115b8015610b3a575080516020820120604051610b309088908890614a12565b6040518091039020145b610b955760405162461bcd60e51b815260206004820152602660248201527f4c7a4170703a20696e76616c696420736f757263652073656e64696e6720636f6044820152651b9d1c9858dd60d21b6064820152608401610a57565b610c0b8787878080601f01602080910402602001604051908101604052809392919081815260200183838082843760009201919091525050604080516020601f8a018190048102820181019092528881528a93509150889088908190840183828082843760009201919091525061283a92505050565b50505050505050565b610c1c61292b565b6040516307e0db1760e01b815261ffff821660048201527f00000000000000000000000000000000000000000000000000000000000000006001600160a01b0316906307e0db17906024015b600060405180830381600087803b158015610c8257600080fd5b505af1158015610c96573d6000803e3d6000fd5b5050505050565b6000808080610cb3610cae87614a3b565b612985565b9050600080610cc9610cc48a614b43565b6129a6565b50929450909250610ce09150506020890189614be2565b15610db2576000610cf18a8a6129d8565b600d549091506000906001600160a01b031663044c601d84610d1960408e0160208f01614330565b8e60400135888a886040518763ffffffff1660e01b8152600401610d4296959493929190614bff565b602060405180830381865afa158015610d5f573d6000803e3d6000fd5b505050506040513d601f19601f82011682018060405250810190610d839190614c50565b9050600081600003610da057610d9a8a8d8d612a71565b50909150505b9750955060009450610dd69350505050565b600080610dc0898c8c612a71565b5090985060009750919550610dd6945050505050565b93509350939050565b610de761292b565b6040516310ddb13760e01b815261ffff821660048201527f00000000000000000000000000000000000000000000000000000000000000006001600160a01b0316906310ddb13790602401610c68565b610e3f61292b565b600680546001600160a01b0319166001600160a01b0383169081179091556040517f8cffb07faa2874440346743bdc0a86b06c3335cc47dc49b327d10e77b73ceb1090600090a250565b610e9161292b565b600d80546001600160a01b0319166001600160a01b0392909216919091179055565b610ebb61292b565b600080546040516001600160a01b03909116914780156108fc02929091818181858888f19350505050158015610ef5573d6000803e3d6000fd5b50565b61ffff831660009081526001602052604081208054829190610f19906149de565b80601f0160208091040260200160405190810160405280929190818152602001828054610f45906149de565b8015610f925780601f10610f6757610100808354040283529160200191610f92565b820191906000526020600020905b815481529060010190602001808311610f7557829003601f168201915b505050505090508383604051610fa9929190614a12565b60405180910390208180519060200120149150509392505050565b610fcc61292b565b6040516342d65a8d60e01b81526001600160a01b037f000000000000000000000000000000000000000000000000000000000000000016906342d65a8d9061101c90869086908690600401614c92565b600060405180830381600087803b15801561103657600080fd5b505af1158015610c0b573d6000803e3d6000fd5b61105261292b565b600880546001600160a01b0319166001600160a01b0383169081179091556040517fb4f5db40df3aced29e88a4babbc3b46e305e07d34098525d18b1497056e6383890600090a250565b6110a461292b565b336000818152600e6020908152604080832061ffff86168085529083529281902086905580519283529082018590527fd1f4a7f651b3fe29c0aff33a07edeca71740295b5c37bdc8d57e5ba2237f577c910160405180910390a25050565b3330146111515760405162461bcd60e51b815260206004820152601e60248201527f5f7472616e736665724e46544c7a3a20696e76616c69642063616c6c657200006044820152606401610a57565b610c968585858585612e67565b3330146111ad5760405162461bcd60e51b815260206004820181905260248201527f4c7a52656365697665723a2063616c6c6572206d757374206265204c7a4170706044820152606401610a57565b6111b984848484612f7a565b50505050565b6111c76131fb565b6111d46020820182614be2565b80156111ea57506111e86020830183614be2565b155b6112065760405162461bcd60e51b8152600401610a5790614cb0565b6112166040830160208401614330565b6001600160a01b0316336001600160a01b0316146112465760405162461bcd60e51b8152600401610a5790614cdc565b600061125961125483614a3b565b613254565b90506112658282613368565b61126f8383613476565b5050600061128083610cae90614a3b565b90506000611290610cc486614b43565b5050505090506000806112a487878a610c9d565b509092509050346112b58284614d29565b11156112ff5760405162461bcd60e51b81526020600482015260196024820152784f726465723a20496e73756666696369656e742076616c756560381b6044820152606401610a57565b60008061130e610cc48a614b43565b509350509250508461ffff168661ffff160361142357600d60009054906101000a90046001600160a01b03166001600160a01b031663c68cc68682848c604001358d60200160208101906113629190614330565b8d60200160208101906113759190614330565b6113878f61138290614a3b565b613562565b6040518763ffffffff1660e01b81526004016113a896959493929190614d3c565b600060405180830381600087803b1580156113c257600080fd5b505af11580156113d6573d6000803e3d6000fd5b5061141e92506113ef91505060608a0160408b01614330565b6113ff60408b0160208c01614330565b61140f60408d0160208e01614330565b8c606001358c60a00135612e67565b61158f565b83156114eb5761143589896000613587565b600d60009054906101000a90046001600160a01b03166001600160a01b031663c68cc68682848c604001358d60200160208101906114739190614330565b8d60200160208101906114869190614330565b6114938f61138290614a3b565b6040518763ffffffff1660e01b81526004016114b496959493929190614d3c565b600060405180830381600087803b1580156114ce57600080fd5b505af11580156114e2573d6000803e3d6000fd5b5050505061158f565b60006114f78a8a6129d8565b9050600d60009054906101000a90046001600160a01b03166001600160a01b031663cc72d03b85858d60200160208101906115329190614330565b8e604001358b8d886040518863ffffffff1660e01b815260040161155b96959493929190614bff565b6000604051808303818588803b15801561157457600080fd5b505af1158015611588573d6000803e3d6000fd5b5050505050505b505050506001600f60008660200160208101906115ac9190614330565b6001600160a01b031681526020808201929092526040908101600090812061ffff87168252835281812061010089013582529092529020805460ff191691151591909117905561160260e0850160c08601614330565b6001600160a01b031661161b6040860160208701614330565b6001600160a01b03166116346040880160208901614330565b6001600160a01b03167f5a27a9ea04a39bf48b20e072fdf8dc2969c9936a876d4c5c5ddbcd2e635fa0248661010089018035906116749060e08c01614330565b61168460608c0160408d01614330565b8c606001358c60a001358e604001358c8c6040516116aa99989796959493929190614d7f565b60405180910390a45050506116bf6001600555565b505050565b6116cc61292b565b6116d660006136cf565b565b600160205260009081526040902080546116f1906149de565b80601f016020809104026020016040519081016040528092919081815260200182805461171d906149de565b801561176a5780601f1061173f5761010080835404028352916020019161176a565b820191906000526020600020905b81548152906001019060200180831161174d57829003601f168201915b505050505081565b61ffff8116600090815260016020526040812080546060929190611795906149de565b80601f01602080910402602001604051908101604052809291908181526020018280546117c1906149de565b801561180e5780601f106117e35761010080835404028352916020019161180e565b820191906000526020600020905b8154815290600101906020018083116117f157829003601f168201915b5050505050905080516000036118665760405162461bcd60e51b815260206004820152601d60248201527f4c7a4170703a206e6f20747275737465642070617468207265636f72640000006044820152606401610a57565b6118816000601483516118799190614dd1565b83919061371f565b9392505050565b61189061292b565b8181306040516020016118a593929190614de4565b60408051601f1981840301815291815261ffff85166000908152600160205220906118d09082614e50565b507f8c0400cfe2d1199b1a725c78960bcc2a344d869b80590d0f2bd005db15a572ce83838360405161190493929190614c92565b60405180910390a1505050565b80511561192257611922828261382c565b505050505050565b61193261292b565b600755565b61193f61292b565b600380546001600160a01b0319166001600160a01b0383169081179091556040519081527f5db758e995a17ec1ad84bdef7e8c3293a0bd6179bcce400dff5d4c3d87db726b9060200160405180910390a150565b61199b61292b565b600a80546001600160a01b0319166001600160a01b0383169081179091556040517f80e3874461ebbd918ac3e81da0a92e5e51387d70f337237c9123e48d20e5a50890600090a250565b805115610c9657610c96828261382c565b6119fe61292b565b6040516332fb62e760e21b81526001600160a01b037f0000000000000000000000000000000000000000000000000000000000000000169063cbed8b9c90611a529088908890889088908890600401614f0f565b600060405180830381600087803b158015611a6c57600080fd5b505af1158015611a80573d6000803e3d6000fd5b505050505050505050565b61ffff85166000908152600460205260408082209051611aac908790614f48565b90815260408051602092819003830190206001600160401b03871660009081529252902054905080611b205760405162461bcd60e51b815260206004820152601d60248201527f4c7a52656365697665723a206e6f2073746f726564206d6573736167650000006044820152606401610a57565b808383604051611b31929190614a12565b604051809103902014611b865760405162461bcd60e51b815260206004820152601b60248201527f4c7a52656365697665723a20696e76616c6964207061796c6f616400000000006044820152606401610a57565b61ffff86166000908152600460205260408082209051611ba7908890614f48565b9081526040805191829003602090810183206001600160401b038916600090815291522091909155633356ae4560e11b815230906366ad5c8a90611bf79089908990899089908990600401614f64565b600060405180830381600087803b158015611c1157600080fd5b505af1158015611c25573d6000803e3d6000fd5b50505050505050505050565b611c3961292b565b600980546001600160a01b0319166001600160a01b0383169081179091556040517f36e2a376eabc3bc60cb88f29c288f53e36874a95a7f407330ab4f166b090569890600090a250565b611c8b61292b565b60008111611cd35760405162461bcd60e51b81526020600482015260156024820152744c7a4170703a20696e76616c6964206d696e47617360581b6044820152606401610a57565b61ffff83811660008181526002602090815260408083209487168084529482529182902085905581519283528201929092529081018290527f9d5c7c0b934da8fefa9c7760c98383778a12dfbfc0c3b3106518f43fb9508ac090606001611904565b611d3d61292b565b61ffff83166000908152600160205260409020611d5b828483614fa3565b507ffa41487ad5d6728f0b19276fa1eddc16558578f5109fc39d2dc33c3230470dab83838360405161190493929190614c92565b611d976131fb565b611da46020820182614be2565b8015611dba5750611db86020830183614be2565b155b611dd65760405162461bcd60e51b8152600401610a5790614cb0565b611de66040830160208401614330565b6001600160a01b0316336001600160a01b031614611e165760405162461bcd60e51b8152600401610a5790614cdc565b6000611e2461125483614a3b565b9050611e308282613368565b6000611e3e610cc485614b43565b5050509150507f00000000000000000000000000000000000000000000000000000000000000006001600160a01b0316816001600160a01b031614611ec55760405162461bcd60e51b815260206004820152601c60248201527f4f726465723a2043757272656e6379206d7573742062652057455448000000006044820152606401610a57565b611ecf8484613476565b50506000611ee084610cae90614a3b565b90506000611ef0610cc487614b43565b505050509050600080611f0488888b610c9d565b509092509050600081611f1b8460408c0135614d29565b611f259190614d29565b905034811115611f775760405162461bcd60e51b815260206004820152601960248201527f4f726465723a204d73672e76616c756520746f6f2068696768000000000000006044820152606401610a57565b8361ffff168561ffff1603612074576000611f94610cc48b614b43565b50600d549094506001600160a01b0316925063e21d25339150506040808d0135908490611fc6908e0160208f01614330565b8e60400135611fd88f61138290614a3b565b6040518663ffffffff1660e01b8152600401611ff79493929190615062565b6000604051808303818588803b15801561201057600080fd5b505af1158015612024573d6000803e3d6000fd5b505050505061206e89604001602081019061203f9190614330565b61204f60408c0160208d01614330565b61205f60408e0160208f01614330565b8d606001358d60a00135612e67565b506121cb565b821561212c576000612088610cc48b614b43565b50935050505061209a8a8a6000613587565b600d546001600160a01b031663e21d25336040808d01359084906120c3908e0160208f01614330565b8e604001356120d58f61138290614a3b565b6040518663ffffffff1660e01b81526004016120f49493929190615062565b6000604051808303818588803b15801561210d57600080fd5b505af1158015612121573d6000803e3d6000fd5b5050505050506121cb565b60006121388a8a6129d8565b600d549091506001600160a01b031663cc72d03b61215a60408d013586614d29565b898d602001602081019061216e9190614330565b8e604001358a8c886040518863ffffffff1660e01b815260040161219796959493929190614bff565b6000604051808303818588803b1580156121b057600080fd5b505af11580156121c4573d6000803e3d6000fd5b5050505050505b5060019150600f905060006121e66040890160208a01614330565b6001600160a01b031681526020808201929092526040908101600090812061ffff8716825283528181206101008a013582529092529020805460ff191691151591909117905561223c60e0860160c08701614330565b6001600160a01b03166122556040870160208801614330565b6001600160a01b031661226e6040890160208a01614330565b6001600160a01b03167f5a27a9ea04a39bf48b20e072fdf8dc2969c9936a876d4c5c5ddbcd2e635fa024876101008a018035906122ae9060e08d01614330565b6122be60608d0160408e01614330565b8d606001358d60a001358f604001358c8c6040516122e499989796959493929190614d7f565b60405180910390a4505050506116bf6001600555565b61230261292b565b6001600160a01b0381166123675760405162461bcd60e51b815260206004820152602660248201527f4f776e61626c653a206e6577206f776e657220697320746865207a65726f206160448201526564647265737360d01b6064820152608401610a57565b610ef5816136cf565b6123786131fb565b6123856020820182614be2565b15801561239a575061239a6020830183614be2565b6123b65760405162461bcd60e51b8152600401610a5790614cb0565b6123c66040830160208401614330565b6001600160a01b0316336001600160a01b0316146123f65760405162461bcd60e51b8152600401610a5790614cdc565b600061240461125483614a3b565b90506124108282613368565b61241a8383613ca0565b5050600061242b83610cae90614a3b565b9050600061243b610cc486614b43565b50505050905060008061244f87878a610c9d565b92505091503481836124619190614d29565b11156124ab5760405162461bcd60e51b81526020600482015260196024820152784f726465723a20496e73756666696369656e742076616c756560381b6044820152606401610a57565b60006124b9610cc489614b43565b5050925050508461ffff168461ffff16036125c257600d546001600160a01b031663c68cc6866124ef60e08a0160c08b01614330565b6125006101008b0160e08c01614330565b60608b013561251560408d0160208e01614330565b8d60200160208101906125289190614330565b6125346113828f614a3b565b6040518763ffffffff1660e01b815260040161255596959493929190614d3c565b600060405180830381600087803b15801561256f57600080fd5b505af1158015612583573d6000803e3d6000fd5b505050506125bd8189602001602081019061259e9190614330565b6125ae60408b0160208c01614330565b8b606001358b60a00135612e67565b6125f4565b886000036125e9576125de8161259e60408b0160208c01614330565b6125bd88888b613587565b6125f488888b613587565b5060019150600f9050600061260f6040880160208901614330565b6001600160a01b031681526020808201929092526040908101600090812061ffff87168252835281812061010089013582529092529020805460ff191691151591909117905561266560e0850160c08601614330565b6001600160a01b031661267e6040860160208701614330565b6001600160a01b03166126976040880160208901614330565b6001600160a01b03167ffd8a4ec4a36871a1f3ce3fb6b3d885e42f43ccba6a6c951c3449e60efd29f73a8661010089018035906126d79060e08c01614330565b6126e760608c0160408d01614330565b8c606001358c60a001358e604001358b8d6040516116aa99989796959493929190614d7f565b604051633d7b2f6f60e21b815261ffff808616600483015284166024820152306044820152606481018290526060907f00000000000000000000000000000000000000000000000000000000000000006001600160a01b03169063f5ecbdbc90608401600060405180830381865afa15801561278d573d6000803e3d6000fd5b505050506040513d6000823e601f3d908101601f191682016040526127b591908101906150e4565b95945050505050565b6127c661292b565b600b80546001600160a01b0319166001600160a01b0383169081179091556040517f205d78ab41afe80bd6b6aaa5d7599d5300ff8690da3ab1302c1b552f7baf7d8c90600090a250565b61281861292b565b600c80546001600160a01b0319166001600160a01b0392909216919091179055565b604051633356ae4560e11b815230906366ad5c8a90612863908790879087908790600401615118565b600060405180830381600087803b15801561287d57600080fd5b505af192505050801561288e575060015b6111b9578080519060200120600460008661ffff1661ffff168152602001908152602001600020846040516128c39190614f48565b9081526040805191829003602090810183206001600160401b0387166000908152915220919091557fe6f254030bcb01ffd20558175c13fcaed6d1520be7becee4c961b65f79243b0d9061291e908690869086908690615118565b60405180910390a16111b9565b6000546001600160a01b031633146116d65760405162461bcd60e51b815260206004820181905260248201527f4f776e61626c653a2063616c6c6572206973206e6f7420746865206f776e65726044820152606401610a57565b60008161016001518060200190518101906129a09190615156565b92915050565b600080600080600085608001518060200190518101906129c69190615173565b939a9299509097509550909350915050565b606060006129eb83830160408501614330565b6129fb6040850160208601614330565b612a0b6040870160208801614330565b606087013560a0870135612a26610100890160e08a01614330565b612a3660e08a0160c08b01614330565b612a426113828b614a3b565b604051602001612a599897969594939291906151de565b60408051808303601f19018152919052949350505050565b600060608082612a83610cc487614b43565b5050505090506000612a9886610cae90614a3b565b90508161ffff168161ffff1603612ad857600060405180602001604052806000815250604051806020016040528060008152509450945094505050610dd6565b6060612ae76020880188614be2565b15612b7b576001612afe6060890160408a01614330565b612b0e60408a0160208b01614330565b612b1e60408c0160208d01614330565b6040805160ff90951660208601526001600160a01b03938416908501529082166060848101919091529116608083015289013560a08281019190915288013560c082015260e0016040516020818303038152906040529050612cc0565b600080612b8a610cc48b614b43565b5093505092505060006040518060800160405280846001600160a01b03168152602001836001600160a01b031681526020018c6020016020810190612bcf9190614330565b6001600160a01b031681526020018761ffff168152509050600060405180608001604052808c60e0016020810190612c079190614330565b6001600160a01b03168152602001612c2560e08e0160c08f01614330565b6001600160a01b031681526020018c6020016020810190612c469190614330565b6001600160a01b0316815261ffff881660209091015290506000612c6c6113828d614a3b565b90506002612c8060608e0160408f01614330565b8e606001358e60a001358f60600135878787604051602001612ca9989796959493929190615277565b604051602081830303815290604052955050505050505b61ffff821660009081526001602052604081208054612d70918391612ce4906149de565b80601f0160208091040260200160405190810160405280929190818152602001828054612d10906149de565b8015612d5d5780601f10612d3257610100808354040283529160200191612d5d565b820191906000526020600020905b815481529060010190602001808311612d4057829003601f168201915b5050505050613ce990919063ffffffff16565b60075460408051600160f11b60208201526022810192909252604282018d9052606083901b6bffffffffffffffffffffffff1916606283015280516056818403018152607683019182905263040a7bb160e41b9091529192506000907f00000000000000000000000000000000000000000000000000000000000000006001600160a01b0316906340a7bb1090612e139088903090899087908990607a016152d4565b6040805180830381865afa158015612e2f573d6000803e3d6000fd5b505050506040513d601f19601f82011682018060405250810190612e53919061531c565b509c939b5090995091975050505050505050565b600b5460405163cc15949360e01b81526001600160a01b038781166004830152600092169063cc15949390602401602060405180830381865afa158015612eb2573d6000803e3d6000fd5b505050506040513d601f19601f82011682018060405250810190612ed69190615340565b90506001600160a01b038116612f2e5760405162461bcd60e51b815260206004820152601c60248201527f5472616e736665723a20696e76616c696420636f6c6c656374696f6e000000006044820152606401610a57565b60405163c4d6866f60e01b81526001600160a01b03878116600483015286811660248301528581166044830152606482018590526084820184905282169063c4d6866f9060a401611bf7565b600081806020019051810190612f90919061536e565b905060001960ff821601612fdc57600080600080600086806020019051810190612fba9190615389565b9550955095509550955050612fd28585858585612e67565b5050505050610c96565b60011960ff821601610c96576000806000806000806000888060200190518101906130079190615483565b97509750975097509750975097505060008784604001518460400151898988600001518960200151886040516020016130479897969594939291906151de565b60408051601f19818403018152828252600d54865192880151606080890151908a015163044c601d60e01b87529396506000956001600160a01b039093169463044c601d946130a2949193928d929091908a90600401614bff565b602060405180830381865afa1580156130bf573d6000803e3d6000fd5b505050506040513d601f19601f820116820180604052508101906130e39190614c50565b90508060000361316d57600d5460208501518551604080880151898201519151636346634360e11b81526001600160a01b039095169463c68cc6869461313694909390928d929091908b90600401614d3c565b600060405180830381600087803b15801561315057600080fd5b505af1158015613164573d6000803e3d6000fd5b505050506131eb565b600d548451604080870151606080890151908a0151925163cc72d03b60e01b81526001600160a01b039095169463cc72d03b9487946131b894919391928e9291908b90600401614bff565b6000604051808303818588803b1580156131d157600080fd5b505af11580156131e5573d6000803e3d6000fd5b50505050505b5050505050505050505050505050565b60026005540361324d5760405162461bcd60e51b815260206004820152601f60248201527f5265656e7472616e637947756172643a207265656e7472616e742063616c6c006044820152606401610a57565b6002600555565b6000807f5ecbfd19307447ee7e4f336494603909c6ececa499f9a16b338a0639daa8ea2f60001b836000015184602001518560400151866060015187608001518860a001518960c001518a60e001518b61010001518c61012001518d61014001518e6101600151805190602001206040516020016133499d9c9b9a999897969594939291909c8d529a151560208d01526001600160a01b03998a1660408d015297891660608c015260808b019690965260a08a019490945260c0890192909252851660e08801529093166101008601526101208501929092526101408401919091526101608301526101808201526101a00190565b60408051601f1981840301815291905280516020909101209392505050565b6000613376610cae84614a3b565b9050600f600061338c6040860160208701614330565b6001600160a01b031681526020808201929092526040908101600090812061ffff851682528352818120610100870135825290925290205460ff161580156134175750600e60006133e36040860160208701614330565b6001600160a01b031681526020808201929092526040908101600090812061ffff8516825290925290205461010084013510155b6134635760405162461bcd60e51b815260206004820152601d60248201527f4f726465723a204d61746368696e67206f7264657220657870697265640000006044820152606401610a57565b6116bf8261347085614a3b565b90613d4e565b60008080613486610cc486614b43565b5093505050506000806000836001600160a01b031663a22233b589896040518363ffffffff1660e01b81526004016134bf92919061556c565b606060405180830381865afa1580156134dc573d6000803e3d6000fd5b505050506040513d601f19601f8201168201806040525081019061350091906156f5565b925092509250826135535760405162461bcd60e51b815260206004820152601b60248201527f53747261746567793a20457865637574696f6e20696e76616c696400000000006044820152606401610a57565b909450925050505b9250929050565b6060600082610160015180602001905181019061357f919061572c565b949350505050565b6000613595610cae84614a3b565b61ffff811660009081526001602052604090208054919250906135b7906149de565b90506000036136135760405162461bcd60e51b815260206004820152602260248201527f4c7a53656e643a206465737420636861696e206973206e6f7420747275737465604482015261321760f11b6064820152608401610a57565b6000806000613623858888612a71565b61ffff8716600090815260016020526040808220905162c5803160e81b81529497509295509093506001600160a01b037f0000000000000000000000000000000000000000000000000000000000000000169263c5803100928792613694928a929189913391908a9060040161577c565b6000604051808303818588803b1580156136ad57600080fd5b505af11580156136c1573d6000803e3d6000fd5b505050505050505050505050565b600080546001600160a01b038381166001600160a01b0319831681178455604051919092169283917f8be0079c531659141344cd1fd0a4f28419497f9722a3daafe3b4186f6b6457e09190a35050565b60608161372d81601f614d29565b101561376c5760405162461bcd60e51b815260206004820152600e60248201526d736c6963655f6f766572666c6f7760901b6044820152606401610a57565b6137768284614d29565b845110156137ba5760405162461bcd60e51b8152602060048201526011602482015270736c6963655f6f75744f66426f756e647360781b6044820152606401610a57565b6060821580156137d95760405191506000825260208201604052613823565b6040519150601f8416801560200281840101858101878315602002848b0101015b818310156138125780518352602092830192016137fa565b5050858452601f01601f1916604052505b50949350505050565b6000806000806000806000808880602001905181019061384c9190615854565b6040516360d7589d60e01b81526001600160a01b03808a1660048301528089166024830152871660448201526064810186905260848101859052979f50959d50939b5091995097509550935091508a9030906360d7589d9060a401600060405180830381600087803b1580156138c157600080fd5b505af19250505080156138d2575060015b613ab8573d808015613900576040519150601f19603f3d011682016040523d82523d6000602084013e613905565b606091505b507f00000000000000000000000000000000000000000000000000000000000000006001600160a01b0316856001600160a01b03160361397b576040516001600160a01b0389169083156108fc029084906000818181858888f19350505050158015613975573d6000803e3d6000fd5b50613a63565b600d5460405163095ea7b360e01b81526001600160a01b039182166004820152602481018490529086169063095ea7b3906044016020604051808303816000875af11580156139ce573d6000803e3d6000fd5b505050506040513d601f19601f820116820180604052508101906139f291906158eb565b50600d54604051631b633f0f60e21b81526001600160a01b0390911690636d8cfc3c90613a309088908c908e908a9089908b90600290600401615908565b600060405180830381600087803b158015613a4a57600080fd5b505af1158015613a5e573d6000803e3d6000fd5b505050505b876001600160a01b0316896001600160a01b03167f14b6a324057f85476022baa66bdb58652d30822946854aed6d273b012d9ab286848885604051613aaa93929190615963565b60405180910390a350613c93565b7f00000000000000000000000000000000000000000000000000000000000000006001600160a01b0316846001600160a01b031603613b6057600d5460405163e21d253360e01b81526001600160a01b039091169063e21d2533908390613b299087908d9084908990600401615062565b6000604051808303818588803b158015613b4257600080fd5b505af1158015613b56573d6000803e3d6000fd5b5050505050613c48565b600d5460405163095ea7b360e01b81526001600160a01b039182166004820152602481018390529085169063095ea7b3906044016020604051808303816000875af1158015613bb3573d6000803e3d6000fd5b505050506040513d601f19601f82011682018060405250810190613bd791906158eb565b50600d54604051631b633f0f60e21b81526001600160a01b0390911690636d8cfc3c90613c159087908b908d90899088908a90600190600401615908565b600060405180830381600087803b158015613c2f57600080fd5b505af1158015613c43573d6000803e3d6000fd5b505050505b604080518281526001600160a01b038681166020830152808a1692908b16917f3271e12db3c7878dffff739081fad84d26be805f8ef3381ad13d4eaab2113659910160405180910390a35b5050505050505050505050565b60008080613cb0610cc486614b43565b5093505050506000806000836001600160a01b031663c346b3b989896040518363ffffffff1660e01b81526004016134bf92919061556c565b6000613cf6826014614d29565b83511015613d3e5760405162461bcd60e51b8152602060048201526015602482015274746f416464726573735f6f75744f66426f756e647360581b6044820152606401610a57565b500160200151600160601b900490565b60208201516001600160a01b0316613da05760405162461bcd60e51b815260206004820152601560248201527427b93232b91d1024b73b30b634b21039b4b3b732b960591b6044820152606401610a57565b60008260a0015111613df45760405162461bcd60e51b815260206004820152601960248201527f4f726465723a20416d6f756e742063616e6e6f742062652030000000000000006044820152606401610a57565b60405161190160f01b60208201526022810182905260009060420160405160208183030381529060405280519060200120905082602001516001600160a01b0316613e9b846101800151613e95846040517f19457468657265756d205369676e6564204d6573736167653a0a3332000000006020820152603c8101829052600090605c01604051602081830303815290604052805190602001209050919050565b90613ee6565b6001600160a01b0316146116bf5760405162461bcd60e51b815260206004820152601260248201527114da59db985d1d5c994e88125b9d985b1a5960721b6044820152606401610a57565b6000806000613ef58585613f0a565b91509150613f0281613f4c565b509392505050565b6000808251604103613f405760208301516040840151606085015160001a613f3487828585614096565b9450945050505061355b565b5060009050600261355b565b6000816004811115613f6057613f6061598d565b03613f685750565b6001816004811115613f7c57613f7c61598d565b03613fc95760405162461bcd60e51b815260206004820152601860248201527f45434453413a20696e76616c6964207369676e617475726500000000000000006044820152606401610a57565b6002816004811115613fdd57613fdd61598d565b0361402a5760405162461bcd60e51b815260206004820152601f60248201527f45434453413a20696e76616c6964207369676e6174757265206c656e677468006044820152606401610a57565b600381600481111561403e5761403e61598d565b03610ef55760405162461bcd60e51b815260206004820152602260248201527f45434453413a20696e76616c6964207369676e6174757265202773272076616c604482015261756560f01b6064820152608401610a57565b6000807f7fffffffffffffffffffffffffffffff5d576e7357a4501ddfe92f46681b20a08311156140cd5750600090506003614151565b6040805160008082526020820180845289905260ff881692820192909252606081018690526080810185905260019060a0016020604051602081039080840390855afa158015614121573d6000803e3d6000fd5b5050604051601f1901519150506001600160a01b03811661414a57600060019250925050614151565b9150600090505b94509492505050565b61ffff81168114610ef557600080fd5b60008083601f84011261417c57600080fd5b5081356001600160401b0381111561419357600080fd5b60208301915083602082850101111561355b57600080fd5b80356001600160401b03811681146141c257600080fd5b919050565b600080600080600080608087890312156141e057600080fd5b86356141eb8161415a565b955060208701356001600160401b038082111561420757600080fd5b6142138a838b0161416a565b909750955085915061422760408a016141ab565b9450606089013591508082111561423d57600080fd5b5061424a89828a0161416a565b979a9699509497509295939492505050565b60006020828403121561426e57600080fd5b81356118818161415a565b600060a0828403121561428b57600080fd5b50919050565b60006101a0828403121561428b57600080fd5b6000806000606084860312156142b957600080fd5b83356001600160401b03808211156142d057600080fd5b6142dc87838801614279565b945060208601359150808211156142f257600080fd5b506142ff86828701614291565b925050604084013590509250925092565b6001600160a01b0381168114610ef557600080fd5b80356141c281614310565b60006020828403121561434257600080fd5b813561188181614310565b6000806040838503121561436057600080fd5b823561436b81614310565b9150602083013561437b8161415a565b809150509250929050565b60008060006040848603121561439b57600080fd5b83356143a68161415a565b925060208401356001600160401b038111156143c157600080fd5b6143cd8682870161416a565b9497909650939450505050565b600080604083850312156143ed57600080fd5b82359150602083013561437b8161415a565b600080600080600060a0868803121561441757600080fd5b853561442281614310565b9450602086013561443281614310565b9350604086013561444281614310565b94979396509394606081013594506080013592915050565b634e487b7160e01b600052604160045260246000fd5b6040516101a081016001600160401b03811182821017156144935761449361445a565b60405290565b604051601f8201601f191681016001600160401b03811182821017156144c1576144c161445a565b604052919050565b60006001600160401b038211156144e2576144e261445a565b50601f01601f191660200190565b600082601f83011261450157600080fd5b813561451461450f826144c9565b614499565b81815284602083860101111561452957600080fd5b816020850160208301376000918101602001919091529392505050565b6000806000806080858703121561455c57600080fd5b84356145678161415a565b935060208501356001600160401b038082111561458357600080fd5b61458f888389016144f0565b945061459d604088016141ab565b935060608701359150808211156145b357600080fd5b506145c0878288016144f0565b91505092959194509250565b6000806000606084860312156145e157600080fd5b8335925060208401356001600160401b03808211156145ff57600080fd5b61460b87838801614279565b9350604086013591508082111561462157600080fd5b5061462e86828701614291565b9150509250925092565b60005b8381101561465357818101518382015260200161463b565b50506000910152565b60008151808452614674816020860160208601614638565b601f01601f19169290920160200192915050565b602081526000611881602083018461465c565b6000806000606084860312156146b057600080fd5b83356146bb81614310565b925060208401356146cb8161415a565b929592945050506040919091013590565b600080604083850312156146ef57600080fd5b823561436b8161415a565b60008060006060848603121561470f57600080fd5b833561471a8161415a565b925060208401356001600160401b0381111561473557600080fd5b6142ff868287016144f0565b60008060008060008060c0878903121561475a57600080fd5b86356147658161415a565b955060208701356001600160401b038082111561478157600080fd5b61478d8a838b016144f0565b965060408901359550606089013591506147a682614310565b9093506080880135925060a088013590808211156147c357600080fd5b506147d089828a016144f0565b9150509295509295509295565b6000602082840312156147ef57600080fd5b5035919050565b600080600080600060a0868803121561480e57600080fd5b85356148198161415a565b945060208601356001600160401b038082111561483557600080fd5b61484189838a016144f0565b95506040880135945060608801359350608088013591508082111561486557600080fd5b50614872888289016144f0565b9150509295509295909350565b60008060008060006080868803121561489757600080fd5b85356148a28161415a565b945060208601356148b28161415a565b93506040860135925060608601356001600160401b038111156148d457600080fd5b6148e08882890161416a565b969995985093965092949392505050565b60008060008060006080868803121561490957600080fd5b85356149148161415a565b945060208601356001600160401b038082111561493057600080fd5b61493c89838a016144f0565b955061494a604089016141ab565b9450606088013591508082111561496057600080fd5b506148e08882890161416a565b60008060006060848603121561498257600080fd5b83356146bb8161415a565b600080600080608085870312156149a357600080fd5b84356149ae8161415a565b935060208501356149be8161415a565b925060408501356149ce81614310565b9396929550929360600135925050565b600181811c908216806149f257607f821691505b60208210810361428b57634e487b7160e01b600052602260045260246000fd5b8183823760009101908152919050565b8015158114610ef557600080fd5b80356141c281614a22565b60006101a08236031215614a4e57600080fd5b614a56614470565b614a5f83614a30565b8152614a6d60208401614325565b6020820152614a7e60408401614325565b6040820152606083013560608201526080830135608082015260a083013560a0820152614aad60c08401614325565b60c0820152614abe60e08401614325565b60e0820152610100838101359082015261012080840135908201526101408084013590820152610160808401356001600160401b0380821115614b0057600080fd5b614b0c368388016144f0565b83850152610180925082860135915080821115614b2857600080fd5b50614b35368287016144f0565b918301919091525092915050565b600060a08236031215614b5557600080fd5b60405160a081016001600160401b038282108183111715614b7857614b7861445a565b8160405284359150614b8982614a22565b908252602084013590614b9b82614310565b81602084015260408501356040840152606085013560608401526080850135915080821115614bc957600080fd5b50614bd6368286016144f0565b60808301525092915050565b600060208284031215614bf457600080fd5b813561188181614a22565b6001600160a01b038781168252861660208201526040810185905261ffff84811660608301528316608082015260c060a08201819052600090614c449083018461465c565b98975050505050505050565b600060208284031215614c6257600080fd5b5051919050565b81835281816020850137506000828201602090810191909152601f909101601f19169091010190565b61ffff841681526040602082015260006127b5604083018486614c69565b6020808252601290820152714f726465723a2057726f6e6720736964657360701b604082015260600190565b6020808252601f908201527f4f726465723a2054616b6572206d757374206265207468652073656e64657200604082015260600190565b634e487b7160e01b600052601160045260246000fd5b808201808211156129a0576129a0614d13565b6001600160a01b03878116825286811660208301526040820186905284811660608301528316608082015260c060a08201819052600090614c449083018461465c565b98895260208901979097526001600160a01b039586166040890152939094166060870152608086019190915260a085015260c084019190915261ffff90811660e0840152166101008201526101200190565b818103818111156129a0576129a0614d13565b8284823760609190911b6bffffffffffffffffffffffff19169101908152601401919050565b601f8211156116bf57600081815260208120601f850160051c81016020861015614e315750805b601f850160051c820191505b8181101561192257828155600101614e3d565b81516001600160401b03811115614e6957614e6961445a565b614e7d81614e7784546149de565b84614e0a565b602080601f831160018114614eb25760008415614e9a5750858301515b600019600386901b1c1916600185901b178555611922565b600085815260208120601f198616915b82811015614ee157888601518255948401946001909101908401614ec2565b5085821015614eff5787850151600019600388901b60f8161c191681555b5050505050600190811b01905550565b600061ffff808816835280871660208401525084604083015260806060830152614f3d608083018486614c69565b979650505050505050565b60008251614f5a818460208701614638565b9190910192915050565b61ffff86168152608060208201526000614f81608083018761465c565b6001600160401b03861660408401528281036060840152614c44818587614c69565b6001600160401b03831115614fba57614fba61445a565b614fce83614fc883546149de565b83614e0a565b6000601f8411600181146150025760008515614fea5750838201355b600019600387901b1c1916600186901b178355610c96565b600083815260209020601f19861690835b828110156150335786850135825560209485019460019092019101615013565b50868210156150505760001960f88860031b161c19848701351681555b505060018560011b0183555050505050565b6001600160a01b03858116825284166020820152604081018390526080606082018190526000906150959083018461465c565b9695505050505050565b600082601f8301126150b057600080fd5b81516150be61450f826144c9565b8181528460208386010111156150d357600080fd5b61357f826020830160208701614638565b6000602082840312156150f657600080fd5b81516001600160401b0381111561510c57600080fd5b61357f8482850161509f565b61ffff85168152608060208201526000615135608083018661465c565b6001600160401b03851660408401528281036060840152614f3d818561465c565b60006020828403121561516857600080fd5b81516118818161415a565b600080600080600060a0868803121561518b57600080fd5b85516151968161415a565b60208701519095506151a781614310565b60408701519094506151b881614310565b60608701519093506151c981614310565b80925050608086015190509295509295909350565b6001600160a01b03898116825288811660208301528781166040830152606082018790526080820186905284811660a0830152831660c082015261010060e082018190526000906152318382018561465c565b9b9a5050505050505050505050565b80516001600160a01b0390811683526020808301518216908401526040808301519091169083015260609081015161ffff16910152565b60ff891681526001600160a01b038816602082015260408101879052606081018690526080810185905260006101c06152b360a0840187615240565b6152c1610120840186615240565b806101a08401526152318184018561465c565b61ffff861681526001600160a01b038516602082015260a0604082018190526000906153029083018661465c565b84151560608401528281036080840152614c44818561465c565b6000806040838503121561532f57600080fd5b505080516020909101519092909150565b60006020828403121561535257600080fd5b815161188181614310565b805160ff811681146141c257600080fd5b60006020828403121561538057600080fd5b6118818261535d565b60008060008060008060c087890312156153a257600080fd5b6153ab8761535d565b955060208701516153bb81614310565b60408801519095506153cc81614310565b60608801519094506153dd81614310565b809350506080870151915060a087015190509295509295509295565b60006080828403121561540b57600080fd5b604051608081018181106001600160401b038211171561542d5761542d61445a565b8060405250809150825161544081614310565b8152602083015161545081614310565b6020820152604083015161546381614310565b604082015260608301516154768161415a565b6060919091015292915050565b6000806000806000806000806101c0898b0312156154a057600080fd5b6154a98961535d565b975060208901516154b981614310565b809750506040890151955060608901519450608089015193506154df8a60a08b016153f9565b92506154ef8a6101208b016153f9565b91506101a08901516001600160401b0381111561550b57600080fd5b6155178b828c0161509f565b9150509295985092959890939650565b6000808335601e1984360301811261553e57600080fd5b83016020810192503590506001600160401b0381111561555d57600080fd5b80360382131561355b57600080fd5b604081526000833561557d81614a22565b15156040830152602084013561559281614310565b60018060a01b03811660608401525060408401356080830152606084013560a08301526155c26080850185615527565b60a060c08501526155d760e085018284614c69565b91505082810360208401526101a06155f8826155f287614a30565b15159052565b61560460208601614325565b6001600160a01b0316602083015261561e60408601614325565b6001600160a01b038116604084015250606085013560608301526080850135608083015260a085013560a083015261565860c08601614325565b6001600160a01b031660c083015261567260e08601614325565b6001600160a01b031660e08301526101008581013590830152610120808601359083015261014080860135908301526101606156b081870187615527565b83838601526156c28486018284614c69565b93505050506101806156d681870187615527565b848403838601526156e8848284614c69565b9998505050505050505050565b60008060006060848603121561570a57600080fd5b835161571581614a22565b602085015160409095015190969495509392505050565b6000806040838503121561573f57600080fd5b825161574a8161415a565b60208401519092506001600160401b0381111561576657600080fd5b6157728582860161509f565b9150509250929050565b61ffff871681526000602060c0818401526000885461579a816149de565b8060c087015260e06001808416600081146157bc57600181146157d657615804565b60ff1985168984015283151560051b890183019550615804565b8d6000528660002060005b858110156157fc5781548b82018601529083019088016157e1565b8a0184019650505b5050505050838103604085015261581b818961465c565b91505061583360608401876001600160a01b03169052565b6001600160a01b038516608084015282810360a08401526156e8818561465c565b600080600080600080600080610100898b03121561587157600080fd5b885161587c81614310565b60208a015190985061588d81614310565b60408a015190975061589e81614310565b80965050606089015194506080890151935060a08901516158be81614310565b60c08a01519093506158cf81614310565b60e08a01519092506001600160401b0381111561550b57600080fd5b6000602082840312156158fd57600080fd5b815161188181614a22565b6001600160a01b03888116825287811660208301528681166040830152851660608201526080810184905260e060a0820181905260009061594b9083018561465c565b905061ffff831660c083015298975050505050505050565b8381526001600160a01b03831660208201526060604082018190526000906127b59083018461465c565b634e487b7160e01b600052602160045260246000fdfea264697066735822122019b207054482c4d3e82db1fdf9acaed3f6d02b3277f4a875de7d4d27311fe67a64736f6c63430008110033",
    "linkReferences": {}
  },
  "methodIdentifiers": {
    "WETH()": "ad5c4648",
    "_transferNFTLz(address,address,address,uint256,uint256)": "60d7589d",
    "cancelAllOrdersForSender(uint256,uint16)": "5dce2b0b",
    "currencyManager()": "0f747d74",
    "executionManager()": "483abb9f",
    "failedMessages(uint16,bytes,uint256)": "8ee74912",
    "forceResumeReceive(uint16,bytes)": "42d65a8d",
    "fundManager()": "6209ec2d",
    "gasForLzReceive()": "b6819822",
    "getConfig(uint16,uint16,address,uint256)": "f5ecbdbc",
    "getLzFeesForTrading((bool,address,uint256,uint256,bytes),(bool,address,address,uint256,uint256,uint256,address,address,uint256,uint256,uint256,bytes,bytes),uint256)": "084a7386",
    "getTrustedRemoteAddress(uint16)": "9f38369a",
    "isTrustedRemote(uint16,bytes)": "3d8b38f6",
    "isUserOrderNonceExecutedOrCancelled(address,uint16,uint256)": "8561837d",
    "lzEndpoint()": "b353aaa7",
    "lzReceive(uint16,bytes,uint64,bytes)": "001d3567",
    "matchAskWithTakerBid(uint256,(bool,address,uint256,uint256,bytes),(bool,address,address,uint256,uint256,uint256,address,address,uint256,uint256,uint256,bytes,bytes))": "66c7e084",
    "matchAskWithTakerBidUsingETHAndWETH(uint256,(bool,address,uint256,uint256,bytes),(bool,address,address,uint256,uint256,uint256,address,address,uint256,uint256,uint256,bytes,bytes))": "f09e8038",
    "matchBidWithTakerAsk(uint256,(bool,address,uint256,uint256,bytes),(bool,address,address,uint256,uint256,uint256,address,address,uint256,uint256,uint256,bytes,bytes))": "f40bfed7",
    "minDstGasLookup(uint16,uint16)": "8cfd8f5c",
    "nonblockingLzReceive(uint16,bytes,uint64,bytes)": "66ad5c8a",
    "omniReceive(uint16,bytes,uint256,uint256,bytes)": "c765e994",
    "owner()": "8da5cb5b",
    "precrime()": "950c8a74",
    "protocolFeeRecipient()": "64df049e",
    "renounceOwnership()": "715018a6",
    "retryMessage(uint16,bytes,uint64,bytes)": "d1deba1f",
    "royaltyFeeManager()": "87e4401f",
    "setConfig(uint16,uint16,uint256,bytes)": "cbed8b9c",
    "setFundManager(address)": "232a3060",
    "setGasForLzReceive(uint256)": "b20dea75",
    "setMinDstGas(uint16,uint16,uint256)": "df2a5b3b",
    "setPrecrime(address)": "baf3292d",
    "setReceiveVersion(uint16)": "10ddb137",
    "setSendVersion(uint16)": "07e0db17",
    "setStargatePoolManager(address)": "fa99018d",
    "setTrustedRemote(uint16,bytes)": "eb8d72b7",
    "setTrustedRemoteAddress(uint16,bytes)": "a6c3d165",
    "sgReceive(uint16,bytes,uint256,address,uint256,bytes)": "ab8236f3",
    "stargatePoolManager()": "3d25e561",
    "transferOwnership(address)": "f2fde38b",
    "transferSelectorNFT()": "5e14f68e",
    "trustedRemoteLookup(uint16)": "7533d788",
    "updateCurrencyManager(address)": "5ce052d7",
    "updateExecutionManager(address)": "d4ff41dc",
    "updateProtocolFeeRecipient(address)": "1df47f80",
    "updateRoyaltyFeeManager(address)": "c5498769",
    "updateTransferSelectorNFT(address)": "f75ff53f",
    "userMinOrderNonce(address,uint16)": "27f2e5b1",
    "withdraw()": "3ccfd60b"
  },
  "id": 6
}