{
  "abi": [
    {
      "inputs": [
        {
          "internalType": "address",
          "name": "_endpoint",
          "type": "address"
        },
        {
          "internalType": "address",
          "name": "_owner",
          "type": "address"
        },
        {
          "internalType": "address",
          "name": "_protocolFeeRecipient",
          "type": "address"
        },
        {
          "internalType": "address",
          "name": "_transferManager",
          "type": "address"
        },
        {
          "internalType": "address",
          "name": "_weth",
          "type": "address"
        }
      ],
      "stateMutability": "nonpayable",
      "type": "constructor"
    },
    {
      "inputs": [],
      "name": "CallerInvalid",
      "type": "error"
    },
    {
      "inputs": [],
      "name": "ChainIdInvalid",
      "type": "error"
    },
    {
      "inputs": [],
      "name": "CreatorFeeBpTooHigh",
      "type": "error"
    },
    {
      "inputs": [],
      "name": "CurrencyInvalid",
      "type": "error"
    },
    {
      "inputs": [],
      "name": "ERC20TransferFromFail",
      "type": "error"
    },
    {
      "inputs": [],
      "name": "InvalidParams",
      "type": "error"
    },
    {
      "inputs": [],
      "name": "LengthsInvalid",
      "type": "error"
    },
    {
      "inputs": [],
      "name": "MerkleProofInvalid",
      "type": "error"
    },
    {
      "inputs": [
        {
          "internalType": "uint256",
          "name": "length",
          "type": "uint256"
        }
      ],
      "name": "MerkleProofTooLarge",
      "type": "error"
    },
    {
      "inputs": [],
      "name": "NewGasLimitETHTransferTooLow",
      "type": "error"
    },
    {
      "inputs": [],
      "name": "NewProtocolFeeRecipientCannotBeNullAddress",
      "type": "error"
    },
    {
      "inputs": [],
      "name": "NoSelectorForStrategy",
      "type": "error"
    },
    {
      "inputs": [],
      "name": "NoncesInvalid",
      "type": "error"
    },
    {
      "inputs": [],
      "name": "NotAContract",
      "type": "error"
    },
    {
      "inputs": [],
      "name": "NotAffiliateController",
      "type": "error"
    },
    {
      "inputs": [],
      "name": "NotV2Strategy",
      "type": "error"
    },
    {
      "inputs": [],
      "name": "NullSignerAddress",
      "type": "error"
    },
    {
      "inputs": [],
      "name": "OutsideOfTimeRange",
      "type": "error"
    },
    {
      "inputs": [],
      "name": "PercentageTooHigh",
      "type": "error"
    },
    {
      "inputs": [],
      "name": "QuoteTypeInvalid",
      "type": "error"
    },
    {
      "inputs": [],
      "name": "ReentrancyFail",
      "type": "error"
    },
    {
      "inputs": [],
      "name": "SameDomainSeparator",
      "type": "error"
    },
    {
      "inputs": [],
      "name": "SignatureEOAInvalid",
      "type": "error"
    },
    {
      "inputs": [],
      "name": "SignatureERC1271Invalid",
      "type": "error"
    },
    {
      "inputs": [
        {
          "internalType": "uint256",
          "name": "length",
          "type": "uint256"
        }
      ],
      "name": "SignatureLengthInvalid",
      "type": "error"
    },
    {
      "inputs": [],
      "name": "SignatureParameterSInvalid",
      "type": "error"
    },
    {
      "inputs": [
        {
          "internalType": "uint8",
          "name": "v",
          "type": "uint8"
        }
      ],
      "name": "SignatureParameterVInvalid",
      "type": "error"
    },
    {
      "inputs": [],
      "name": "StrategyHasNoSelector",
      "type": "error"
    },
    {
      "inputs": [
        {
          "internalType": "uint256",
          "name": "strategyId",
          "type": "uint256"
        }
      ],
      "name": "StrategyNotAvailable",
      "type": "error"
    },
    {
      "inputs": [],
      "name": "StrategyNotUsed",
      "type": "error"
    },
    {
      "inputs": [],
      "name": "StrategyProtocolFeeTooHigh",
      "type": "error"
    },
    {
      "inputs": [],
      "name": "Unauthorized",
      "type": "error"
    },
    {
      "anonymous": false,
      "inputs": [
        {
          "indexed": false,
          "internalType": "address",
          "name": "affiliate",
          "type": "address"
        },
        {
          "indexed": false,
          "internalType": "address",
          "name": "currency",
          "type": "address"
        },
        {
          "indexed": false,
          "internalType": "uint256",
          "name": "affiliateFee",
          "type": "uint256"
        }
      ],
      "name": "AffiliatePayment",
      "type": "event"
    },
    {
      "anonymous": false,
      "inputs": [
        {
          "indexed": false,
          "internalType": "address",
          "name": "currency",
          "type": "address"
        },
        {
          "indexed": false,
          "internalType": "bool",
          "name": "isAllowed",
          "type": "bool"
        }
      ],
      "name": "CurrencyStatusUpdated",
      "type": "event"
    },
    {
      "anonymous": false,
      "inputs": [
        {
          "indexed": false,
          "internalType": "uint16",
          "name": "_srcChainId",
          "type": "uint16"
        },
        {
          "indexed": false,
          "internalType": "bytes",
          "name": "_srcAddress",
          "type": "bytes"
        },
        {
          "indexed": false,
          "internalType": "uint64",
          "name": "_nonce",
          "type": "uint64"
        },
        {
          "indexed": false,
          "internalType": "bytes",
          "name": "_payload",
          "type": "bytes"
        }
      ],
      "name": "MessageFailed",
      "type": "event"
    },
    {
      "anonymous": false,
      "inputs": [
        {
          "indexed": false,
          "internalType": "address",
          "name": "affiliateController",
          "type": "address"
        }
      ],
      "name": "NewAffiliateController",
      "type": "event"
    },
    {
      "anonymous": false,
      "inputs": [
        {
          "indexed": false,
          "internalType": "bool",
          "name": "isActive",
          "type": "bool"
        }
      ],
      "name": "NewAffiliateProgramStatus",
      "type": "event"
    },
    {
      "anonymous": false,
      "inputs": [
        {
          "indexed": false,
          "internalType": "address",
          "name": "affiliate",
          "type": "address"
        },
        {
          "indexed": false,
          "internalType": "uint256",
          "name": "rate",
          "type": "uint256"
        }
      ],
      "name": "NewAffiliateRate",
      "type": "event"
    },
    {
      "anonymous": false,
      "inputs": [
        {
          "indexed": false,
          "internalType": "address",
          "name": "user",
          "type": "address"
        },
        {
          "indexed": false,
          "internalType": "uint256",
          "name": "bidNonce",
          "type": "uint256"
        },
        {
          "indexed": false,
          "internalType": "uint256",
          "name": "askNonce",
          "type": "uint256"
        }
      ],
      "name": "NewBidAskNonces",
      "type": "event"
    },
    {
      "anonymous": false,
      "inputs": [
        {
          "indexed": false,
          "internalType": "address",
          "name": "creatorFeeManager",
          "type": "address"
        }
      ],
      "name": "NewCreatorFeeManager",
      "type": "event"
    },
    {
      "anonymous": false,
      "inputs": [],
      "name": "NewDomainSeparator",
      "type": "event"
    },
    {
      "anonymous": false,
      "inputs": [
        {
          "indexed": false,
          "internalType": "uint256",
          "name": "gasLimitETHTransfer",
          "type": "uint256"
        }
      ],
      "name": "NewGasLimitETHTransfer",
      "type": "event"
    },
    {
      "anonymous": false,
      "inputs": [
        {
          "indexed": false,
          "internalType": "uint256",
          "name": "maxCreatorFeeBp",
          "type": "uint256"
        }
      ],
      "name": "NewMaxCreatorFeeBp",
      "type": "event"
    },
    {
      "anonymous": false,
      "inputs": [
        {
          "indexed": false,
          "internalType": "address",
          "name": "protocolFeeRecipient",
          "type": "address"
        }
      ],
      "name": "NewProtocolFeeRecipient",
      "type": "event"
    },
    {
      "anonymous": false,
      "inputs": [
        {
          "indexed": false,
          "internalType": "uint256",
          "name": "strategyId",
          "type": "uint256"
        },
        {
          "indexed": false,
          "internalType": "uint16",
          "name": "standardProtocolFeeBp",
          "type": "uint16"
        },
        {
          "indexed": false,
          "internalType": "uint16",
          "name": "minTotalFeeBp",
          "type": "uint16"
        },
        {
          "indexed": false,
          "internalType": "uint16",
          "name": "maxProtocolFeeBp",
          "type": "uint16"
        },
        {
          "indexed": false,
          "internalType": "bytes4",
          "name": "selector",
          "type": "bytes4"
        },
        {
          "indexed": false,
          "internalType": "bool",
          "name": "isMakerBid",
          "type": "bool"
        },
        {
          "indexed": false,
          "internalType": "address",
          "name": "implementation",
          "type": "address"
        }
      ],
      "name": "NewStrategy",
      "type": "event"
    },
    {
      "anonymous": false,
      "inputs": [
        {
          "indexed": false,
          "internalType": "address",
          "name": "user",
          "type": "address"
        },
        {
          "indexed": false,
          "internalType": "uint256[]",
          "name": "orderNonces",
          "type": "uint256[]"
        }
      ],
      "name": "OrderNoncesCancelled",
      "type": "event"
    },
    {
      "anonymous": false,
      "inputs": [
        {
          "indexed": true,
          "internalType": "address",
          "name": "previousOwner",
          "type": "address"
        },
        {
          "indexed": true,
          "internalType": "address",
          "name": "newOwner",
          "type": "address"
        }
      ],
      "name": "OwnershipTransferred",
      "type": "event"
    },
    {
      "anonymous": false,
      "inputs": [
        {
          "indexed": false,
          "internalType": "uint16",
          "name": "_dstChainId",
          "type": "uint16"
        },
        {
          "indexed": false,
          "internalType": "uint16",
          "name": "_type",
          "type": "uint16"
        },
        {
          "indexed": false,
          "internalType": "uint256",
          "name": "_minDstGas",
          "type": "uint256"
        }
      ],
      "name": "SetMinDstGas",
      "type": "event"
    },
    {
      "anonymous": false,
      "inputs": [
        {
          "indexed": false,
          "internalType": "address",
          "name": "precrime",
          "type": "address"
        }
      ],
      "name": "SetPrecrime",
      "type": "event"
    },
    {
      "anonymous": false,
      "inputs": [
        {
          "indexed": false,
          "internalType": "uint16",
          "name": "_remoteChainId",
          "type": "uint16"
        },
        {
          "indexed": false,
          "internalType": "bytes",
          "name": "_path",
          "type": "bytes"
        }
      ],
      "name": "SetTrustedRemote",
      "type": "event"
    },
    {
      "anonymous": false,
      "inputs": [
        {
          "indexed": false,
          "internalType": "uint16",
          "name": "_remoteChainId",
          "type": "uint16"
        },
        {
          "indexed": false,
          "internalType": "bytes",
          "name": "_remoteAddress",
          "type": "bytes"
        }
      ],
      "name": "SetTrustedRemoteAddress",
      "type": "event"
    },
    {
      "anonymous": false,
      "inputs": [
        {
          "indexed": false,
          "internalType": "uint256",
          "name": "strategyId",
          "type": "uint256"
        },
        {
          "indexed": false,
          "internalType": "bool",
          "name": "isActive",
          "type": "bool"
        },
        {
          "indexed": false,
          "internalType": "uint16",
          "name": "standardProtocolFeeBp",
          "type": "uint16"
        },
        {
          "indexed": false,
          "internalType": "uint16",
          "name": "minTotalFeeBp",
          "type": "uint16"
        }
      ],
      "name": "StrategyUpdated",
      "type": "event"
    },
    {
      "anonymous": false,
      "inputs": [
        {
          "indexed": false,
          "internalType": "address",
          "name": "user",
          "type": "address"
        },
        {
          "indexed": false,
          "internalType": "uint256[]",
          "name": "subsetNonces",
          "type": "uint256[]"
        }
      ],
      "name": "SubsetNoncesCancelled",
      "type": "event"
    },
    {
      "anonymous": false,
      "inputs": [
        {
          "components": [
            {
              "internalType": "bytes32",
              "name": "orderHash",
              "type": "bytes32"
            },
            {
              "internalType": "uint256",
              "name": "orderNonce",
              "type": "uint256"
            },
            {
              "internalType": "bool",
              "name": "isNonceInvalidated",
              "type": "bool"
            }
          ],
          "indexed": false,
          "internalType": "struct IOmniXExchange.NonceInvalidationParameters",
          "name": "nonceInvalidationParameters",
          "type": "tuple"
        },
        {
          "indexed": false,
          "internalType": "address",
          "name": "askUser",
          "type": "address"
        },
        {
          "indexed": false,
          "internalType": "address",
          "name": "bidUser",
          "type": "address"
        },
        {
          "indexed": false,
          "internalType": "uint256",
          "name": "strategyId",
          "type": "uint256"
        },
        {
          "indexed": false,
          "internalType": "address",
          "name": "currency",
          "type": "address"
        },
        {
          "indexed": false,
          "internalType": "address",
          "name": "collection",
          "type": "address"
        },
        {
          "indexed": false,
          "internalType": "uint256[]",
          "name": "itemIds",
          "type": "uint256[]"
        },
        {
          "indexed": false,
          "internalType": "uint256[]",
          "name": "amounts",
          "type": "uint256[]"
        },
        {
          "indexed": false,
          "internalType": "address[2]",
          "name": "feeRecipients",
          "type": "address[2]"
        },
        {
          "indexed": false,
          "internalType": "uint256[3]",
          "name": "feeAmounts",
          "type": "uint256[3]"
        }
      ],
      "name": "TakerAsk",
      "type": "event"
    },
    {
      "anonymous": false,
      "inputs": [
        {
          "components": [
            {
              "internalType": "bytes32",
              "name": "orderHash",
              "type": "bytes32"
            },
            {
              "internalType": "uint256",
              "name": "orderNonce",
              "type": "uint256"
            },
            {
              "internalType": "bool",
              "name": "isNonceInvalidated",
              "type": "bool"
            }
          ],
          "indexed": false,
          "internalType": "struct IOmniXExchange.NonceInvalidationParameters",
          "name": "nonceInvalidationParameters",
          "type": "tuple"
        },
        {
          "indexed": false,
          "internalType": "address",
          "name": "bidUser",
          "type": "address"
        },
        {
          "indexed": false,
          "internalType": "address",
          "name": "bidRecipient",
          "type": "address"
        },
        {
          "indexed": false,
          "internalType": "uint256",
          "name": "strategyId",
          "type": "uint256"
        },
        {
          "indexed": false,
          "internalType": "address",
          "name": "currency",
          "type": "address"
        },
        {
          "indexed": false,
          "internalType": "address",
          "name": "collection",
          "type": "address"
        },
        {
          "indexed": false,
          "internalType": "uint256[]",
          "name": "itemIds",
          "type": "uint256[]"
        },
        {
          "indexed": false,
          "internalType": "uint256[]",
          "name": "amounts",
          "type": "uint256[]"
        },
        {
          "indexed": false,
          "internalType": "address[2]",
          "name": "feeRecipients",
          "type": "address[2]"
        },
        {
          "indexed": false,
          "internalType": "uint256[3]",
          "name": "feeAmounts",
          "type": "uint256[3]"
        }
      ],
      "name": "TakerBid",
      "type": "event"
    },
    {
      "inputs": [],
      "name": "MAGIC_VALUE_ORDER_NONCE_EXECUTED",
      "outputs": [
        {
          "internalType": "bytes32",
          "name": "",
          "type": "bytes32"
        }
      ],
      "stateMutability": "view",
      "type": "function"
    },
    {
      "inputs": [],
      "name": "WETH",
      "outputs": [
        {
          "internalType": "address",
          "name": "",
          "type": "address"
        }
      ],
      "stateMutability": "view",
      "type": "function"
    },
    {
      "inputs": [
        {
          "internalType": "uint16",
          "name": "standardProtocolFeeBp",
          "type": "uint16"
        },
        {
          "internalType": "uint16",
          "name": "minTotalFeeBp",
          "type": "uint16"
        },
        {
          "internalType": "uint16",
          "name": "maxProtocolFeeBp",
          "type": "uint16"
        },
        {
          "internalType": "bytes4",
          "name": "selector",
          "type": "bytes4"
        },
        {
          "internalType": "bool",
          "name": "isMakerBid",
          "type": "bool"
        },
        {
          "internalType": "address",
          "name": "implementation",
          "type": "address"
        }
      ],
      "name": "addStrategy",
      "outputs": [],
      "stateMutability": "nonpayable",
      "type": "function"
    },
    {
      "inputs": [],
      "name": "affiliateController",
      "outputs": [
        {
          "internalType": "address",
          "name": "",
          "type": "address"
        }
      ],
      "stateMutability": "view",
      "type": "function"
    },
    {
      "inputs": [
        {
          "internalType": "address",
          "name": "",
          "type": "address"
        }
      ],
      "name": "affiliateRates",
      "outputs": [
        {
          "internalType": "uint256",
          "name": "",
          "type": "uint256"
        }
      ],
      "stateMutability": "view",
      "type": "function"
    },
    {
      "inputs": [
        {
          "internalType": "uint256[]",
          "name": "orderNonces",
          "type": "uint256[]"
        }
      ],
      "name": "cancelOrderNonces",
      "outputs": [],
      "stateMutability": "nonpayable",
      "type": "function"
    },
    {
      "inputs": [
        {
          "internalType": "uint256[]",
          "name": "subsetNonces",
          "type": "uint256[]"
        }
      ],
      "name": "cancelSubsetNonces",
      "outputs": [],
      "stateMutability": "nonpayable",
      "type": "function"
    },
    {
      "inputs": [],
      "name": "chainId",
      "outputs": [
        {
          "internalType": "uint256",
          "name": "",
          "type": "uint256"
        }
      ],
      "stateMutability": "view",
      "type": "function"
    },
    {
      "inputs": [],
      "name": "claimOwnership",
      "outputs": [],
      "stateMutability": "nonpayable",
      "type": "function"
    },
    {
      "inputs": [],
      "name": "creatorFeeManager",
      "outputs": [
        {
          "internalType": "contract ICreatorFeeManager",
          "name": "",
          "type": "address"
        }
      ],
      "stateMutability": "view",
      "type": "function"
    },
    {
      "inputs": [],
      "name": "domainSeparator",
      "outputs": [
        {
          "internalType": "bytes32",
          "name": "",
          "type": "bytes32"
        }
      ],
      "stateMutability": "view",
      "type": "function"
    },
    {
      "inputs": [
        {
          "components": [
            {
              "internalType": "address",
              "name": "recipient",
              "type": "address"
            },
            {
              "internalType": "uint16",
              "name": "lzChainId",
              "type": "uint16"
            },
            {
              "internalType": "bytes",
              "name": "additionalParameters",
              "type": "bytes"
            }
          ],
          "internalType": "struct OrderStructs.Taker[]",
          "name": "takerBids",
          "type": "tuple[]"
        },
        {
          "components": [
            {
              "internalType": "enum QuoteType",
              "name": "quoteType",
              "type": "uint8"
            },
            {
              "internalType": "uint256",
              "name": "globalNonce",
              "type": "uint256"
            },
            {
              "internalType": "uint256",
              "name": "subsetNonce",
              "type": "uint256"
            },
            {
              "internalType": "uint256",
              "name": "orderNonce",
              "type": "uint256"
            },
            {
              "internalType": "uint256",
              "name": "strategyId",
              "type": "uint256"
            },
            {
              "internalType": "enum CollectionType",
              "name": "collectionType",
              "type": "uint8"
            },
            {
              "internalType": "address",
              "name": "collection",
              "type": "address"
            },
            {
              "internalType": "address",
              "name": "currency",
              "type": "address"
            },
            {
              "internalType": "address",
              "name": "signer",
              "type": "address"
            },
            {
              "internalType": "uint256",
              "name": "startTime",
              "type": "uint256"
            },
            {
              "internalType": "uint256",
              "name": "endTime",
              "type": "uint256"
            },
            {
              "internalType": "uint256",
              "name": "price",
              "type": "uint256"
            },
            {
              "internalType": "uint256[]",
              "name": "itemIds",
              "type": "uint256[]"
            },
            {
              "internalType": "uint256[]",
              "name": "amounts",
              "type": "uint256[]"
            },
            {
              "internalType": "uint16",
              "name": "lzChainId",
              "type": "uint16"
            },
            {
              "internalType": "bytes",
              "name": "additionalParameters",
              "type": "bytes"
            }
          ],
          "internalType": "struct OrderStructs.Maker[]",
          "name": "makerAsks",
          "type": "tuple[]"
        },
        {
          "internalType": "bytes[]",
          "name": "makerSignatures",
          "type": "bytes[]"
        },
        {
          "components": [
            {
              "internalType": "bytes32",
              "name": "root",
              "type": "bytes32"
            },
            {
              "components": [
                {
                  "internalType": "bytes32",
                  "name": "value",
                  "type": "bytes32"
                },
                {
                  "internalType": "enum OrderStructs.MerkleTreeNodePosition",
                  "name": "position",
                  "type": "uint8"
                }
              ],
              "internalType": "struct OrderStructs.MerkleTreeNode[]",
              "name": "proof",
              "type": "tuple[]"
            }
          ],
          "internalType": "struct OrderStructs.MerkleTree[]",
          "name": "merkleTrees",
          "type": "tuple[]"
        },
        {
          "internalType": "address",
          "name": "affiliate",
          "type": "address"
        },
        {
          "internalType": "bool",
          "name": "isAtomic",
          "type": "bool"
        }
      ],
      "name": "executeMultipleTakerBids",
      "outputs": [],
      "stateMutability": "payable",
      "type": "function"
    },
    {
      "inputs": [
        {
          "components": [
            {
              "internalType": "address",
              "name": "recipient",
              "type": "address"
            },
            {
              "internalType": "uint16",
              "name": "lzChainId",
              "type": "uint16"
            },
            {
              "internalType": "bytes",
              "name": "additionalParameters",
              "type": "bytes"
            }
          ],
          "internalType": "struct OrderStructs.Taker",
          "name": "takerAsk",
          "type": "tuple"
        },
        {
          "components": [
            {
              "internalType": "enum QuoteType",
              "name": "quoteType",
              "type": "uint8"
            },
            {
              "internalType": "uint256",
              "name": "globalNonce",
              "type": "uint256"
            },
            {
              "internalType": "uint256",
              "name": "subsetNonce",
              "type": "uint256"
            },
            {
              "internalType": "uint256",
              "name": "orderNonce",
              "type": "uint256"
            },
            {
              "internalType": "uint256",
              "name": "strategyId",
              "type": "uint256"
            },
            {
              "internalType": "enum CollectionType",
              "name": "collectionType",
              "type": "uint8"
            },
            {
              "internalType": "address",
              "name": "collection",
              "type": "address"
            },
            {
              "internalType": "address",
              "name": "currency",
              "type": "address"
            },
            {
              "internalType": "address",
              "name": "signer",
              "type": "address"
            },
            {
              "internalType": "uint256",
              "name": "startTime",
              "type": "uint256"
            },
            {
              "internalType": "uint256",
              "name": "endTime",
              "type": "uint256"
            },
            {
              "internalType": "uint256",
              "name": "price",
              "type": "uint256"
            },
            {
              "internalType": "uint256[]",
              "name": "itemIds",
              "type": "uint256[]"
            },
            {
              "internalType": "uint256[]",
              "name": "amounts",
              "type": "uint256[]"
            },
            {
              "internalType": "uint16",
              "name": "lzChainId",
              "type": "uint16"
            },
            {
              "internalType": "bytes",
              "name": "additionalParameters",
              "type": "bytes"
            }
          ],
          "internalType": "struct OrderStructs.Maker",
          "name": "makerBid",
          "type": "tuple"
        },
        {
          "internalType": "bytes",
          "name": "makerSignature",
          "type": "bytes"
        },
        {
          "components": [
            {
              "internalType": "bytes32",
              "name": "root",
              "type": "bytes32"
            },
            {
              "components": [
                {
                  "internalType": "bytes32",
                  "name": "value",
                  "type": "bytes32"
                },
                {
                  "internalType": "enum OrderStructs.MerkleTreeNodePosition",
                  "name": "position",
                  "type": "uint8"
                }
              ],
              "internalType": "struct OrderStructs.MerkleTreeNode[]",
              "name": "proof",
              "type": "tuple[]"
            }
          ],
          "internalType": "struct OrderStructs.MerkleTree",
          "name": "merkleTree",
          "type": "tuple"
        },
        {
          "internalType": "address",
          "name": "affiliate",
          "type": "address"
        }
      ],
      "name": "executeTakerAsk",
      "outputs": [],
      "stateMutability": "nonpayable",
      "type": "function"
    },
    {
      "inputs": [
        {
          "components": [
            {
              "internalType": "address",
              "name": "recipient",
              "type": "address"
            },
            {
              "internalType": "uint16",
              "name": "lzChainId",
              "type": "uint16"
            },
            {
              "internalType": "bytes",
              "name": "additionalParameters",
              "type": "bytes"
            }
          ],
          "internalType": "struct OrderStructs.Taker",
          "name": "takerBid",
          "type": "tuple"
        },
        {
          "components": [
            {
              "internalType": "enum QuoteType",
              "name": "quoteType",
              "type": "uint8"
            },
            {
              "internalType": "uint256",
              "name": "globalNonce",
              "type": "uint256"
            },
            {
              "internalType": "uint256",
              "name": "subsetNonce",
              "type": "uint256"
            },
            {
              "internalType": "uint256",
              "name": "orderNonce",
              "type": "uint256"
            },
            {
              "internalType": "uint256",
              "name": "strategyId",
              "type": "uint256"
            },
            {
              "internalType": "enum CollectionType",
              "name": "collectionType",
              "type": "uint8"
            },
            {
              "internalType": "address",
              "name": "collection",
              "type": "address"
            },
            {
              "internalType": "address",
              "name": "currency",
              "type": "address"
            },
            {
              "internalType": "address",
              "name": "signer",
              "type": "address"
            },
            {
              "internalType": "uint256",
              "name": "startTime",
              "type": "uint256"
            },
            {
              "internalType": "uint256",
              "name": "endTime",
              "type": "uint256"
            },
            {
              "internalType": "uint256",
              "name": "price",
              "type": "uint256"
            },
            {
              "internalType": "uint256[]",
              "name": "itemIds",
              "type": "uint256[]"
            },
            {
              "internalType": "uint256[]",
              "name": "amounts",
              "type": "uint256[]"
            },
            {
              "internalType": "uint16",
              "name": "lzChainId",
              "type": "uint16"
            },
            {
              "internalType": "bytes",
              "name": "additionalParameters",
              "type": "bytes"
            }
          ],
          "internalType": "struct OrderStructs.Maker",
          "name": "makerAsk",
          "type": "tuple"
        },
        {
          "internalType": "bytes",
          "name": "makerSignature",
          "type": "bytes"
        },
        {
          "components": [
            {
              "internalType": "bytes32",
              "name": "root",
              "type": "bytes32"
            },
            {
              "components": [
                {
                  "internalType": "bytes32",
                  "name": "value",
                  "type": "bytes32"
                },
                {
                  "internalType": "enum OrderStructs.MerkleTreeNodePosition",
                  "name": "position",
                  "type": "uint8"
                }
              ],
              "internalType": "struct OrderStructs.MerkleTreeNode[]",
              "name": "proof",
              "type": "tuple[]"
            }
          ],
          "internalType": "struct OrderStructs.MerkleTree",
          "name": "merkleTree",
          "type": "tuple"
        },
        {
          "internalType": "address",
          "name": "affiliate",
          "type": "address"
        }
      ],
      "name": "executeTakerBid",
      "outputs": [],
      "stateMutability": "payable",
      "type": "function"
    },
    {
      "inputs": [
        {
          "internalType": "uint16",
          "name": "",
          "type": "uint16"
        },
        {
          "internalType": "bytes",
          "name": "",
          "type": "bytes"
        },
        {
          "internalType": "uint256",
          "name": "",
          "type": "uint256"
        }
      ],
      "name": "failedMessages",
      "outputs": [
        {
          "internalType": "bytes32",
          "name": "",
          "type": "bytes32"
        }
      ],
      "stateMutability": "view",
      "type": "function"
    },
    {
      "inputs": [
        {
          "internalType": "uint16",
          "name": "_srcChainId",
          "type": "uint16"
        },
        {
          "internalType": "bytes",
          "name": "_srcAddress",
          "type": "bytes"
        }
      ],
      "name": "forceResumeReceive",
      "outputs": [],
      "stateMutability": "nonpayable",
      "type": "function"
    },
    {
      "inputs": [
        {
          "internalType": "uint16",
          "name": "_version",
          "type": "uint16"
        },
        {
          "internalType": "uint16",
          "name": "_chainId",
          "type": "uint16"
        },
        {
          "internalType": "address",
          "name": "",
          "type": "address"
        },
        {
          "internalType": "uint256",
          "name": "_configType",
          "type": "uint256"
        }
      ],
      "name": "getConfig",
      "outputs": [
        {
          "internalType": "bytes",
          "name": "",
          "type": "bytes"
        }
      ],
      "stateMutability": "view",
      "type": "function"
    },
    {
      "inputs": [
        {
          "internalType": "uint16",
          "name": "_remoteChainId",
          "type": "uint16"
        }
      ],
      "name": "getTrustedRemoteAddress",
      "outputs": [
        {
          "internalType": "bytes",
          "name": "",
          "type": "bytes"
        }
      ],
      "stateMutability": "view",
      "type": "function"
    },
    {
      "inputs": [
        {
          "internalType": "bytes32",
          "name": "root",
          "type": "bytes32"
        },
        {
          "internalType": "uint256",
          "name": "proofLength",
          "type": "uint256"
        }
      ],
      "name": "hashBatchOrder",
      "outputs": [
        {
          "internalType": "bytes32",
          "name": "batchOrderHash",
          "type": "bytes32"
        }
      ],
      "stateMutability": "pure",
      "type": "function"
    },
    {
      "inputs": [
        {
          "internalType": "bool",
          "name": "bid",
          "type": "bool"
        },
        {
          "internalType": "bool",
          "name": "ask",
          "type": "bool"
        }
      ],
      "name": "incrementBidAskNonces",
      "outputs": [],
      "stateMutability": "nonpayable",
      "type": "function"
    },
    {
      "inputs": [],
      "name": "isAffiliateProgramActive",
      "outputs": [
        {
          "internalType": "bool",
          "name": "",
          "type": "bool"
        }
      ],
      "stateMutability": "view",
      "type": "function"
    },
    {
      "inputs": [
        {
          "internalType": "address",
          "name": "",
          "type": "address"
        }
      ],
      "name": "isCurrencyAllowed",
      "outputs": [
        {
          "internalType": "bool",
          "name": "",
          "type": "bool"
        }
      ],
      "stateMutability": "view",
      "type": "function"
    },
    {
      "inputs": [
        {
          "internalType": "uint16",
          "name": "_srcChainId",
          "type": "uint16"
        },
        {
          "internalType": "bytes",
          "name": "_srcAddress",
          "type": "bytes"
        }
      ],
      "name": "isTrustedRemote",
      "outputs": [
        {
          "internalType": "bool",
          "name": "",
          "type": "bool"
        }
      ],
      "stateMutability": "view",
      "type": "function"
    },
    {
      "inputs": [],
      "name": "lzEndpoint",
      "outputs": [
        {
          "internalType": "contract ILayerZeroEndpoint",
          "name": "",
          "type": "address"
        }
      ],
      "stateMutability": "view",
      "type": "function"
    },
    {
      "inputs": [
        {
          "internalType": "uint16",
          "name": "_srcChainId",
          "type": "uint16"
        },
        {
          "internalType": "bytes",
          "name": "_srcAddress",
          "type": "bytes"
        },
        {
          "internalType": "uint64",
          "name": "_nonce",
          "type": "uint64"
        },
        {
          "internalType": "bytes",
          "name": "_payload",
          "type": "bytes"
        }
      ],
      "name": "lzReceive",
      "outputs": [],
      "stateMutability": "nonpayable",
      "type": "function"
    },
    {
      "inputs": [],
      "name": "maxCreatorFeeBp",
      "outputs": [
        {
          "internalType": "uint16",
          "name": "",
          "type": "uint16"
        }
      ],
      "stateMutability": "view",
      "type": "function"
    },
    {
      "inputs": [
        {
          "internalType": "uint16",
          "name": "",
          "type": "uint16"
        },
        {
          "internalType": "uint16",
          "name": "",
          "type": "uint16"
        }
      ],
      "name": "minDstGasLookup",
      "outputs": [
        {
          "internalType": "uint256",
          "name": "",
          "type": "uint256"
        }
      ],
      "stateMutability": "view",
      "type": "function"
    },
    {
      "inputs": [
        {
          "internalType": "uint16",
          "name": "_srcChainId",
          "type": "uint16"
        },
        {
          "internalType": "bytes",
          "name": "_srcAddress",
          "type": "bytes"
        },
        {
          "internalType": "uint64",
          "name": "_nonce",
          "type": "uint64"
        },
        {
          "internalType": "bytes",
          "name": "_payload",
          "type": "bytes"
        }
      ],
      "name": "nonblockingLzReceive",
      "outputs": [],
      "stateMutability": "nonpayable",
      "type": "function"
    },
    {
      "inputs": [],
      "name": "owner",
      "outputs": [
        {
          "internalType": "address",
          "name": "",
          "type": "address"
        }
      ],
      "stateMutability": "view",
      "type": "function"
    },
    {
      "inputs": [],
      "name": "pendingOwner",
      "outputs": [
        {
          "internalType": "address",
          "name": "",
          "type": "address"
        }
      ],
      "stateMutability": "view",
      "type": "function"
    },
    {
      "inputs": [],
      "name": "precrime",
      "outputs": [
        {
          "internalType": "address",
          "name": "",
          "type": "address"
        }
      ],
      "stateMutability": "view",
      "type": "function"
    },
    {
      "inputs": [],
      "name": "protocolFeeRecipient",
      "outputs": [
        {
          "internalType": "address",
          "name": "",
          "type": "address"
        }
      ],
      "stateMutability": "view",
      "type": "function"
    },
    {
      "inputs": [
        {
          "components": [
            {
              "internalType": "address",
              "name": "recipient",
              "type": "address"
            },
            {
              "internalType": "uint16",
              "name": "lzChainId",
              "type": "uint16"
            },
            {
              "internalType": "bytes",
              "name": "additionalParameters",
              "type": "bytes"
            }
          ],
          "internalType": "struct OrderStructs.Taker",
          "name": "takerBid",
          "type": "tuple"
        },
        {
          "components": [
            {
              "internalType": "enum QuoteType",
              "name": "quoteType",
              "type": "uint8"
            },
            {
              "internalType": "uint256",
              "name": "globalNonce",
              "type": "uint256"
            },
            {
              "internalType": "uint256",
              "name": "subsetNonce",
              "type": "uint256"
            },
            {
              "internalType": "uint256",
              "name": "orderNonce",
              "type": "uint256"
            },
            {
              "internalType": "uint256",
              "name": "strategyId",
              "type": "uint256"
            },
            {
              "internalType": "enum CollectionType",
              "name": "collectionType",
              "type": "uint8"
            },
            {
              "internalType": "address",
              "name": "collection",
              "type": "address"
            },
            {
              "internalType": "address",
              "name": "currency",
              "type": "address"
            },
            {
              "internalType": "address",
              "name": "signer",
              "type": "address"
            },
            {
              "internalType": "uint256",
              "name": "startTime",
              "type": "uint256"
            },
            {
              "internalType": "uint256",
              "name": "endTime",
              "type": "uint256"
            },
            {
              "internalType": "uint256",
              "name": "price",
              "type": "uint256"
            },
            {
              "internalType": "uint256[]",
              "name": "itemIds",
              "type": "uint256[]"
            },
            {
              "internalType": "uint256[]",
              "name": "amounts",
              "type": "uint256[]"
            },
            {
              "internalType": "uint16",
              "name": "lzChainId",
              "type": "uint16"
            },
            {
              "internalType": "bytes",
              "name": "additionalParameters",
              "type": "bytes"
            }
          ],
          "internalType": "struct OrderStructs.Maker",
          "name": "makerAsk",
          "type": "tuple"
        },
        {
          "internalType": "address",
          "name": "sender",
          "type": "address"
        },
        {
          "internalType": "bytes32",
          "name": "orderHash",
          "type": "bytes32"
        }
      ],
      "name": "restrictedExecuteTakerBid",
      "outputs": [
        {
          "internalType": "uint256",
          "name": "protocolFeeAmount",
          "type": "uint256"
        }
      ],
      "stateMutability": "nonpayable",
      "type": "function"
    },
    {
      "inputs": [
        {
          "internalType": "uint16",
          "name": "_srcChainId",
          "type": "uint16"
        },
        {
          "internalType": "bytes",
          "name": "_srcAddress",
          "type": "bytes"
        },
        {
          "internalType": "uint64",
          "name": "_nonce",
          "type": "uint64"
        },
        {
          "internalType": "bytes",
          "name": "_payload",
          "type": "bytes"
        }
      ],
      "name": "retryMessage",
      "outputs": [],
      "stateMutability": "payable",
      "type": "function"
    },
    {
      "inputs": [
        {
          "internalType": "uint16",
          "name": "_version",
          "type": "uint16"
        },
        {
          "internalType": "uint16",
          "name": "_chainId",
          "type": "uint16"
        },
        {
          "internalType": "uint256",
          "name": "_configType",
          "type": "uint256"
        },
        {
          "internalType": "bytes",
          "name": "_config",
          "type": "bytes"
        }
      ],
      "name": "setConfig",
      "outputs": [],
      "stateMutability": "nonpayable",
      "type": "function"
    },
    {
      "inputs": [
        {
          "internalType": "uint16",
          "name": "_dstChainId",
          "type": "uint16"
        },
        {
          "internalType": "uint16",
          "name": "_packetType",
          "type": "uint16"
        },
        {
          "internalType": "uint256",
          "name": "_minGas",
          "type": "uint256"
        }
      ],
      "name": "setMinDstGas",
      "outputs": [],
      "stateMutability": "nonpayable",
      "type": "function"
    },
    {
      "inputs": [
        {
          "internalType": "address",
          "name": "_precrime",
          "type": "address"
        }
      ],
      "name": "setPrecrime",
      "outputs": [],
      "stateMutability": "nonpayable",
      "type": "function"
    },
    {
      "inputs": [
        {
          "internalType": "uint16",
          "name": "_version",
          "type": "uint16"
        }
      ],
      "name": "setReceiveVersion",
      "outputs": [],
      "stateMutability": "nonpayable",
      "type": "function"
    },
    {
      "inputs": [
        {
          "internalType": "uint16",
          "name": "_version",
          "type": "uint16"
        }
      ],
      "name": "setSendVersion",
      "outputs": [],
      "stateMutability": "nonpayable",
      "type": "function"
    },
    {
      "inputs": [
        {
          "internalType": "uint16",
          "name": "_srcChainId",
          "type": "uint16"
        },
        {
          "internalType": "bytes",
          "name": "_path",
          "type": "bytes"
        }
      ],
      "name": "setTrustedRemote",
      "outputs": [],
      "stateMutability": "nonpayable",
      "type": "function"
    },
    {
      "inputs": [
        {
          "internalType": "uint16",
          "name": "_remoteChainId",
          "type": "uint16"
        },
        {
          "internalType": "bytes",
          "name": "_remoteAddress",
          "type": "bytes"
        }
      ],
      "name": "setTrustedRemoteAddress",
      "outputs": [],
      "stateMutability": "nonpayable",
      "type": "function"
    },
    {
      "inputs": [
        {
          "internalType": "uint256",
          "name": "",
          "type": "uint256"
        }
      ],
      "name": "strategyInfo",
      "outputs": [
        {
          "internalType": "bool",
          "name": "isActive",
          "type": "bool"
        },
        {
          "internalType": "uint16",
          "name": "standardProtocolFeeBp",
          "type": "uint16"
        },
        {
          "internalType": "uint16",
          "name": "minTotalFeeBp",
          "type": "uint16"
        },
        {
          "internalType": "uint16",
          "name": "maxProtocolFeeBp",
          "type": "uint16"
        },
        {
          "internalType": "bytes4",
          "name": "selector",
          "type": "bytes4"
        },
        {
          "internalType": "bool",
          "name": "isMakerBid",
          "type": "bool"
        },
        {
          "internalType": "address",
          "name": "implementation",
          "type": "address"
        }
      ],
      "stateMutability": "view",
      "type": "function"
    },
    {
      "inputs": [],
      "name": "transferManager",
      "outputs": [
        {
          "internalType": "contract TransferManager",
          "name": "",
          "type": "address"
        }
      ],
      "stateMutability": "view",
      "type": "function"
    },
    {
      "inputs": [
        {
          "internalType": "address",
          "name": "newOwner",
          "type": "address"
        }
      ],
      "name": "transferOwnership",
      "outputs": [],
      "stateMutability": "nonpayable",
      "type": "function"
    },
    {
      "inputs": [
        {
          "internalType": "uint16",
          "name": "",
          "type": "uint16"
        }
      ],
      "name": "trustedRemoteLookup",
      "outputs": [
        {
          "internalType": "bytes",
          "name": "",
          "type": "bytes"
        }
      ],
      "stateMutability": "view",
      "type": "function"
    },
    {
      "inputs": [
        {
          "internalType": "address",
          "name": "newAffiliateController",
          "type": "address"
        }
      ],
      "name": "updateAffiliateController",
      "outputs": [],
      "stateMutability": "nonpayable",
      "type": "function"
    },
    {
      "inputs": [
        {
          "internalType": "bool",
          "name": "isActive",
          "type": "bool"
        }
      ],
      "name": "updateAffiliateProgramStatus",
      "outputs": [],
      "stateMutability": "nonpayable",
      "type": "function"
    },
    {
      "inputs": [
        {
          "internalType": "address",
          "name": "affiliate",
          "type": "address"
        },
        {
          "internalType": "uint256",
          "name": "bp",
          "type": "uint256"
        }
      ],
      "name": "updateAffiliateRate",
      "outputs": [],
      "stateMutability": "nonpayable",
      "type": "function"
    },
    {
      "inputs": [
        {
          "internalType": "address",
          "name": "newCreatorFeeManager",
          "type": "address"
        }
      ],
      "name": "updateCreatorFeeManager",
      "outputs": [],
      "stateMutability": "nonpayable",
      "type": "function"
    },
    {
      "inputs": [
        {
          "internalType": "address",
          "name": "currency",
          "type": "address"
        },
        {
          "internalType": "bool",
          "name": "isAllowed",
          "type": "bool"
        }
      ],
      "name": "updateCurrencyStatus",
      "outputs": [],
      "stateMutability": "nonpayable",
      "type": "function"
    },
    {
      "inputs": [],
      "name": "updateDomainSeparator",
      "outputs": [],
      "stateMutability": "nonpayable",
      "type": "function"
    },
    {
      "inputs": [
        {
          "internalType": "uint256",
          "name": "newGasLimitETHTransfer",
          "type": "uint256"
        }
      ],
      "name": "updateETHGasLimitForTransfer",
      "outputs": [],
      "stateMutability": "nonpayable",
      "type": "function"
    },
    {
      "inputs": [
        {
          "internalType": "uint16",
          "name": "newMaxCreatorFeeBp",
          "type": "uint16"
        }
      ],
      "name": "updateMaxCreatorFeeBp",
      "outputs": [],
      "stateMutability": "nonpayable",
      "type": "function"
    },
    {
      "inputs": [
        {
          "internalType": "address",
          "name": "newProtocolFeeRecipient",
          "type": "address"
        }
      ],
      "name": "updateProtocolFeeRecipient",
      "outputs": [],
      "stateMutability": "nonpayable",
      "type": "function"
    },
    {
      "inputs": [
        {
          "internalType": "uint256",
          "name": "strategyId",
          "type": "uint256"
        },
        {
          "internalType": "bool",
          "name": "isActive",
          "type": "bool"
        },
        {
          "internalType": "uint16",
          "name": "newStandardProtocolFee",
          "type": "uint16"
        },
        {
          "internalType": "uint16",
          "name": "newMinTotalFee",
          "type": "uint16"
        }
      ],
      "name": "updateStrategy",
      "outputs": [],
      "stateMutability": "nonpayable",
      "type": "function"
    },
    {
      "inputs": [
        {
          "internalType": "address",
          "name": "",
          "type": "address"
        }
      ],
      "name": "userBidAskNonces",
      "outputs": [
        {
          "internalType": "uint256",
          "name": "bidNonce",
          "type": "uint256"
        },
        {
          "internalType": "uint256",
          "name": "askNonce",
          "type": "uint256"
        }
      ],
      "stateMutability": "view",
      "type": "function"
    },
    {
      "inputs": [
        {
          "internalType": "address",
          "name": "",
          "type": "address"
        },
        {
          "internalType": "uint256",
          "name": "",
          "type": "uint256"
        }
      ],
      "name": "userOrderNonce",
      "outputs": [
        {
          "internalType": "bytes32",
          "name": "",
          "type": "bytes32"
        }
      ],
      "stateMutability": "view",
      "type": "function"
    },
    {
      "inputs": [
        {
          "internalType": "address",
          "name": "",
          "type": "address"
        },
        {
          "internalType": "uint256",
          "name": "",
          "type": "uint256"
        }
      ],
      "name": "userSubsetNonce",
      "outputs": [
        {
          "internalType": "bool",
          "name": "",
          "type": "bool"
        }
      ],
      "stateMutability": "view",
      "type": "function"
    }
  ],
  "bytecode": {
    "object": "0x60e034620003cd576001600160401b0362005761601f38829003908101601f191684019083821185831017620003d2578085936040938452843960a092839181010312620003cd576200005284620003e8565b602062000061818701620003e8565b926200006f818801620003e8565b936200007e60608901620003e8565b6200008d6080809a01620003e8565b600380546001600160a01b0319166001600160a01b0394851690811790915584519197600097909291859190897f8be0079c531659141344cd1fd0a4f28419497f9722a3daafe3b4186f6b6457e08180a3168b526001600c5560e081018181108b821117620003b9578552600181528581016032815285820190603282526060830160c881528d84018a81528c8501918b835260c08601938c85528c8052600d8c528a8d209651151560ff16905160081b62ffff0016955160181b64ffff00000016915160281b66ffff000000000016925160a81c6affffffff00000000000000169351151560581b6bff00000000000000000000001694600160601b6001900319905160601b16951717171717179055835186815285810160329052848101603290526060810160c89052868b82015286898201528660c082015260e07f5290475107686ff8d28cd104943b127d453b23622ac55346373fa25c0c8957a291a182600e549116908115620003a8576001600160b01b0319168117607d60a31b17600e5583519081527f8cffb07faa2874440346743bdc0a86b06c3335cc47dc49b327d10e77b73ceb10908590a1600f805460ff60a01b1916600160a01b1790551685526108fc6012558051808201878111828210176200039457825260018152601960f91b9083015280517f8b73c3c69bb8fe3d512ecc4cf759cc79239f7b179b0ffacaa9a75d522b39400f9281019283527f9e6bc51ef68b436657c5fe7a273ea9121a02b234cc81ad1e04892649c9168c6a818301527fad7c5bef027816a800da1736444fb58a807ef4c9603b7848673f7e3a68eb14a560608201524688820152308682015285815260c0810196929390928711838810176200038057508590525190206011554660105560c0526153639283620003fe84395182818161059b015281816106ce0152818161089501528181610eb20152818161207c0152818161226f0152612a6801525181818161100a0152818161484401526148df015260c051818181611f7b01526143850152f35b634e487b7160e01b81526041600452602490fd5b634e487b7160e01b85526041600452602485fd5b8451630f966bcb60e41b8152600490fd5b634e487b7160e01b88526041600452602488fd5b600080fd5b634e487b7160e01b600052604160045260246000fd5b51906001600160a01b0382168203620003cd5756fe60806040526004361015610013575b600080fd5b60003560e01c80621d35671461049a57806307e0db17146104915780630db2bd1e1461048857806310ddb1371461047f57806310e89db414610476578063134849a61461046d5780631d3c4268146104645780631df47f801461045b57806320cd05c71461045257806337e8cc71146104495780633d8b38f61461044057806341fb13d01461043757806342d65a8d1461042e578063463357ec1461042557806346b625bc1461041c57806346ea2552146104135780634cbac9dc1461040a5780634e71e0c81461040157806354878876146103f85780635a195d19146103ef57806364df049e146103e657806366ad5c8a146103dd57806367d9dd79146103d45780636e90c014146103cb5780637533d788146103c257806379ed31d4146103b95780637a7d8851146103b0578063838b8f5c146103a757806386c076421461039e57806389ccfe89146103955780638cfd8f5c1461038c5780638da5cb5b146103835780638ee749121461037a57806391be136014610371578063950c8a7414610368578063974e7c9f1461035f5780639a8a0592146103565780639f38369a1461034d578063a02bab5714610344578063a39bf29f1461033b578063a6c3d16514610332578063ad5c464814610329578063ae1cce5a14610320578063b353aaa714610317578063b647a4041461030e578063baf3292d14610305578063bb91c339146102fc578063cbed8b9c146102f3578063d1deba1f146102ea578063d5a06adf146102e1578063d5b010f5146102d8578063df2a5b3b146102cf578063e30c3978146102c6578063ea179b76146102bd578063eb8d72b7146102b4578063f2fde38b146102ab578063f5ecbdbc146102a25763f698da251461029a57600080fd5b61000e612add565b5061000e612a02565b5061000e6129b6565b5061000e612850565b5061000e6127ff565b5061000e6127d5565b5061000e6126e4565b5061000e6125e2565b5061000e61244f565b5061000e61230d565b5061000e612214565b5061000e612197565b5061000e612121565b5061000e6120ab565b5061000e612065565b5061000e611faa565b5061000e611f64565b5061000e611dc7565b5061000e611d80565b5061000e611cfe565b5061000e611c4b565b5061000e611c2c565b5061000e611bb8565b5061000e611b8e565b5061000e61193f565b5061000e611895565b5061000e611845565b5061000e6117f1565b5061000e6116cd565b5061000e6116a3565b5061000e611679565b5061000e61163b565b5061000e611594565b5061000e61154a565b5061000e6113ed565b5061000e6113c9565b5061000e61131e565b5061000e611183565b5061000e611140565b5061000e6110d2565b5061000e611067565b5061000e611039565b5061000e610ff3565b5061000e610f59565b5061000e610f1d565b5061000e610e86565b5061000e610ddf565b5061000e610d93565b5061000e610cc3565b5061000e610c77565b5061000e610bea565b5061000e610b52565b5061000e610aab565b5061000e61098f565b5061000e610861565b5061000e6107c9565b5061000e61069a565b5061000e610539565b6004359061ffff8216820361000e57565b6024359061ffff8216820361000e57565b6044359061ffff8216820361000e57565b6064359061ffff8216820361000e57565b359061ffff8216820361000e57565b9181601f8401121561000e578235916001600160401b03831161000e576020838186019501011161000e57565b604435906001600160401b038216820361000e57565b503461000e57608036600319011261000e576105536104a3565b6001600160401b039060243582811161000e576105749036906004016104f6565b929061057e610523565b9160643590811161000e576105979036906004016104f6565b91907f00000000000000000000000000000000000000000000000000000000000000006001600160a01b031633036106555761061861062092610626976106116105f76105f28a61ffff166000526005602052604060002090565b61144d565b805190818414918261064b575b5081610628575b50614bea565b36916112cc565b9236916112cc565b92614e4c565b005b90506106353684866112cc565b602081519101209060208151910120143861060b565b1515915038610604565b60405162461bcd60e51b815260206004820152601e60248201527f4c7a4170703a20696e76616c696420656e64706f696e742063616c6c657200006044820152606490fd5b503461000e5760006020366003190112610754576106b66104a3565b6003546001600160a01b0390811633036107435782907f00000000000000000000000000000000000000000000000000000000000000001691823b1561073f57602461ffff918360405195869485936307e0db1760e01b85521660048401525af18015610732575b610726575080f35b61072f906111c4565b80f35b61073a613671565b61071e565b5080fd5b6040516282b42960e81b8152600490fd5b80fd5b9181601f8401121561000e578235916001600160401b03831161000e576020808501948460051b01011161000e57565b6001600160a01b0381160361000e57565b608435906107a582610787565b565b35906107a582610787565b8015150361000e57565b60a435906107a5826107b2565b5060c036600319011261000e576001600160401b0360043581811161000e576107f6903690600401610757565b60243583811161000e5761080e903690600401610757565b9060443585811161000e57610827903690600401610757565b9060643596871161000e57610843610626973690600401610757565b9490936084359661085388610787565b61085b6107bc565b98612fee565b503461000e57600060203660031901126107545761087d6104a3565b6003546001600160a01b0390811633036107435782907f00000000000000000000000000000000000000000000000000000000000000001691823b1561073f57602461ffff918360405195869485936310ddb13760e01b85521660048401525af1801561073257610726575080f35b9081606091031261000e5790565b908161020091031261000e5790565b6003199060a08183011261000e576001600160401b039160043583811161000e5782610937916004016108ec565b9360243584811161000e578361094f916004016108fa565b9360443581811161000e5784610967916004016104f6565b9490949360643592831161000e578260409203011261000e576004019061098c610798565b90565b503461000e5761099e36610909565b9290600260ff600f5460a01c1614610a6b57600f805460ff60a01b1916600160a11b17905560e0850135946109d286610787565b6001600160a01b0386166000818152600b602052604090205460ff1615908115610a62575b50610a5057610a3b96610a30610a3594610a146101008501612e21565b968791610a29610a243688612ec9565b614a76565b809761452f565b6137d1565b9261424f565b600f805460ff60a01b1916600160a01b179055005b604051634f79548760e01b8152600490fd5b905015386109f7565b604051630ddf739360e11b8152600490fd5b602060031982011261000e57600435906001600160401b03821161000e57610aa791600401610757565b9091565b503461000e57610aba36610a7d565b8015610b405760005b818110610b0257507fe8036d6fb143373f3ff63e551373f5fffe4267f6809bf6d3934014a18a9b38f691610afd6040519283923384612db8565b0390a1005b60019033600052610b3a6020600281526040908160002090610b2585888a612d76565b3560005252600020600160ff19825416179055565b01610ac3565b6040516397983bdb60e01b8152600490fd5b503461000e57604036600319011261000e57600435610b7081610787565b60243590610b7d826107b2565b6003546001600160a01b03929083163303610743577fba28eda47a2e15b1dd3269e6d82f66730d20a5661aa40e9faf9f311c7872a54392604092169081600052600b602052610bdb81846000209060ff801983541691151516179055565b825191825215156020820152a1005b503461000e57602036600319011261000e57600435610c0881610787565b6003546001600160a01b0391908216330361074357168015610c65576020817f8cffb07faa2874440346743bdc0a86b06c3335cc47dc49b327d10e77b73ceb10926001600160601b0360a01b600e541617600e55604051908152a1005b604051630f966bcb60e41b8152600490fd5b503461000e57604036600319011261000e57600435610c9581610787565b60018060a01b0316600052600160205260406000206024356000526020526020604060002054604051908152f35b503461000e57608036600319011261000e576001600160401b0360043581811161000e57610cf59036906004016108ec565b9060243590811161000e57610d0e9036906004016108fa565b60443591610d1b83610787565b303303610d4757610d4392610d33926064359261402e565b6040519081529081906020820190565b0390f35b60405163a78d09b960e01b8152600490fd5b90604060031983011261000e5760043561ffff8116810361000e5791602435906001600160401b03821161000e57610aa7916004016104f6565b503461000e57602061ffff610dd0610daa36610d59565b9390911660005260058452610dc2604060002061144d565b8481519101209236916112cc565b82815191012014604051908152f35b50610de936610909565b92909194600260ff600f5460a01c1614610a6b57600f805460ff60a01b1916600160a11b17905560e085013594610e1f86610787565b6001600160a01b0386166000908152600b602052604090205460ff1615610a5057610e6f610e7694610e7e98610e58610a243686612ec9565b958661010086013593610e6a85610787565b61452f565b339161402e565b91339061424f565b610a3b61520f565b503461000e57610e9536610d59565b600354600093926001600160a01b039291831633036107435784927f00000000000000000000000000000000000000000000000000000000000000001690813b15610f0e5783610efc95604051968795869485936342d65a8d60e01b855260048501614ca3565b03925af1801561073257610726575080f35b8380fd5b600091031261000e57565b503461000e57600036600319011261000e5760206040517f53849a1acec87308423850dccd979fc7a4b74b75a79b19c3b98ec8df38a599db8152f35b503461000e57602036600319011261000e57610f736104a3565b6003546001600160a01b031633036107435761ffff8116906109c48211610fe157600e805461ffff60a01b191660a09290921b61ffff60a01b169190911790556040519081527fcaba16bb74e50491b14ebf4755083b43aaf56a765134681af613a2ef8d732f4f90602090a1005b6040516397d7dcfb60e01b8152600490fd5b503461000e57600036600319011261000e576040517f00000000000000000000000000000000000000000000000000000000000000006001600160a01b03168152602090f35b503461000e57600036600319011261000e5760095460405160089190911c6001600160a01b03168152602090f35b503461000e57600080600319360112610754576004546001600160a01b0381169033829003610743576001600160601b0360a01b908282600354161760035516600455807f8be0079c531659141344cd1fd0a4f28419497f9722a3daafe3b4186f6b6457e08380a380f35b503461000e57602036600319011261000e576004356110f0816107b2565b6003546001600160a01b031633036107435760207fdca612ba3556b7c2603089071be1feb2404df55dcabceee9d5fd852fdb39bc3491151560ff196009541660ff821617600955604051908152a1005b503461000e57602036600319011261000e5760043561115e81610787565b60018060a01b0316600052600b602052602060ff604060002054166040519015158152f35b503461000e57600036600319011261000e57600e546040516001600160a01b039091168152602090f35b50634e487b7160e01b600052604160045260246000fd5b6001600160401b0381116111d757604052565b6111df6111ad565b604052565b606081019081106001600160401b038211176111d757604052565b604081019081106001600160401b038211176111d757604052565b60c081019081106001600160401b038211176111d757604052565b90601f801991011681019081106001600160401b038211176111d757604052565b6040519060e082018281106001600160401b038211176111d757604052565b6040519061020082018281106001600160401b038211176111d757604052565b604051906107a5826111e4565b6020906001600160401b0381116112bf575b601f01601f19160190565b6112c76111ad565b6112b4565b9291926112d8826112a2565b916112e66040519384611235565b82948184528183011161000e578281602093846000960137010152565b9080601f8301121561000e5781602061098c933591016112cc565b503461000e57608036600319011261000e576113386104a3565b506001600160401b0360243581811161000e57611359903690600401611303565b50611362610523565b5060643590811161000e5761137b903690600401611303565b5030330361138557005b606460405162461bcd60e51b815260206004820152602060248201527f4c7a52656365697665723a2063616c6c6572206d757374206265204c7a4170706044820152fd5b503461000e57600036600319011261000e57602060ff600954166040519015158152f35b503461000e57600036600319011261000e57602061ffff600e5460a01c16604051908152f35b90600182811c92168015611443575b602083101461142d57565b634e487b7160e01b600052602260045260246000fd5b91607f1691611422565b906040519182600082549261146184611413565b9081845260019485811690816000146114ce575060011461148b575b50506107a592500383611235565b9093915060005260209081600020936000915b8183106114b65750506107a59350820101388061147d565b8554888401850152948501948794509183019161149e565b9150506107a594506020925060ff191682840152151560051b820101388061147d565b60005b8381106115045750506000910152565b81810151838201526020016114f4565b9060209161152d815180928185528580860191016114f1565b601f01601f1916010190565b90602061098c928181520190611514565b503461000e57602036600319011261000e5761ffff6115676104a3565b166000526005602052610d43611580604060002061144d565b604051918291602083526020830190611514565b503461000e576115a336610a7d565b8015610b405760005b8181106115e657507f0560c6093fba8a508d0e6ea3b4d7260d7afa9b152731f03a2d05dfe39b0ec42591610afd6040519283923384612db8565b336000526001906116356020838152604090816000209061160885888a612d76565b35600052526000207f53849a1acec87308423850dccd979fc7a4b74b75a79b19c3b98ec8df38a599db9055565b016115ac565b503461000e57602036600319011261000e5760043561165981610787565b60018060a01b0316600052600a6020526020604060002054604051908152f35b503461000e57600036600319011261000e57600f546040516001600160a01b039091168152602090f35b503461000e57604036600319011261000e5760206116c5602435600435612afc565b604051908152f35b503461000e57600080600319360112610754576003546001600160a01b031633036107435760105446146117df57601960f91b602060405161170e816111ff565b6001815201526117af60405160208101907f8b73c3c69bb8fe3d512ecc4cf759cc79239f7b179b0ffacaa9a75d522b39400f82527f9e6bc51ef68b436657c5fe7a273ea9121a02b234cc81ad1e04892649c9168c6a60408201527fad7c5bef027816a800da1736444fb58a807ef4c9603b7848673f7e3a68eb14a560608201524660808201523060a082015260a081526117a78161121a565b519020601155565b6117b846601055565b7f5b2d1f36cd3ec425baab07b99853532e2ba6387a472ddbff437c5cc96f2f20ca8180a180f35b60405163a69915e560e01b8152600490fd5b503461000e57604036600319011261000e57602061183c6118106104a3565b61ffff61181b6104b4565b91166000526006835260406000209061ffff16600052602052604060002090565b54604051908152f35b503461000e57600036600319011261000e576003546040516001600160a01b039091168152602090f35b6020906118899282604051948386809551938492016114f1565b82019081520301902090565b503461000e57606036600319011261000e576118af6104a3565b6024356001600160401b03811161000e57610d439161ffff6118d861191c933690600401611303565b9116600052600860205260406000209060206118fd60405192838151938492016114f1565b8101918252602081604435930301902090600052602052604060002090565b546040519081529081906020820190565b6001600160e01b031981160361000e57565b503461000e5760c036600319011261000e576119596104a3565b6119616104b4565b9061196a6104c5565b91606435926119788461192d565b608435611984816107b2565b60a4359061199182610787565b6003546001600160a01b0390811633036107435761ffff808516818716818111928315611b82575b50508115611b76575b50611b64576001600160e01b0319871615611b52576020600491604051928380926345b2b38160e01b825287165afa908115611b45575b600091611b17575b5015611b05577f5290475107686ff8d28cd104943b127d453b23622ac55346373fa25c0c8957a295610afd93611a9c611a38611256565b6001815261ffff8916602082015261ffff8816604082015261ffff831660608201526001600160e01b03198416608082015284151560a08201526001600160a01b03861660c0820152611a97600c54600052600d602052604060002090565b6146c2565b600c5495611ab1611aac886147cd565b600c55565b6040805197885261ffff98891660208901529088169087015290951660608501526001600160e01b0319909416608084015292151560a08301526001600160a01b0390921660c082015290819060e0820190565b60405163ef8c37d760e01b8152600490fd5b611b38915060203d8111611b3e575b611b308183611235565b8101906146ad565b38611a01565b503d611b26565b611b4d613671565b6119f9565b604051636168384960e11b8152600490fd5b60405163b704b7c160e01b8152600490fd5b6101f4915011386119c2565b891611915038806119b9565b503461000e57600036600319011261000e576007546040516001600160a01b039091168152602090f35b503461000e57602036600319011261000e57600354600435906001600160a01b03163303610743576108fc8110611c1a576020817ffc3a20d07f3d5bcc0b01a52011f630765611323fa9afa69f63ba2aa19f7364b692601255604051908152a1005b6040516356b68a6b60e11b8152600490fd5b503461000e57600036600319011261000e576020601054604051908152f35b503461000e57602036600319011261000e5761ffff611c686104a3565b166000526005602052611c7e604060002061144d565b805115611cb957611ca081610d439251906013198201918211611cac57614d8f565b60405191829182611539565b611cb4612dda565b614d8f565b60405162461bcd60e51b815260206004820152601d60248201527f4c7a4170703a206e6f20747275737465642070617468207265636f72640000006044820152606490fd5b503461000e57602036600319011261000e57600435611d1c81610787565b6003546001600160a01b0390811633036107435760098054610100600160a81b031916600884901b610100600160a81b0316179055604051911681527fa92d85531a006d07fd0df4c61259b6dc18e4f492857e2454e5a20ee5e55cddcc90602090a1005b503461000e57602036600319011261000e57600435611d9e81610787565b60018060a01b031660005260006020526040806000206001815491015482519182526020820152f35b503461000e57611dd636610d59565b600354909291906001600160a01b0316330361074357604051916020848382860137611e176034858781013060601b85820152036014810187520185611235565b60009361ffff831685526005825260408520918151916001600160401b038311611f57575b611e5083611e4a8654611413565b86614cbe565b81601f8411600114611ec157509180611eb094928899947f8c0400cfe2d1199b1a725c78960bcc2a344d869b80590d0f2bd005db15a572ce9992611eb6575b50508160011b916000199060031b1c19161790555b60405193849384614ca3565b0390a180f35b015190503880611e8f565b9190601f198416611ed786600052602060002090565b9389905b828210611f3f5750509260019285927f8c0400cfe2d1199b1a725c78960bcc2a344d869b80590d0f2bd005db15a572ce9a9b96611eb0989610611f26575b505050811b019055611ea4565b015160001960f88460031b161c19169055388080611f19565b80600186978294978701518155019601940190611edb565b611f5f6111ad565b611e3c565b503461000e57600036600319011261000e576040517f00000000000000000000000000000000000000000000000000000000000000006001600160a01b03168152602090f35b503461000e57604036600319011261000e57600435611fc881610787565b6009546024359060081c6001600160a01b03163303612053576127108111612041576001600160a01b03919091166000818152600a602090815260409182902084905581519283528201929092527fa16126d9473196242b0784325b30642b89f34442dd178a852f5b88ee483a30d89181908101610afd565b604051632242dac960e01b8152600490fd5b604051639f63004360e01b8152600490fd5b503461000e57600036600319011261000e576040517f00000000000000000000000000000000000000000000000000000000000000006001600160a01b03168152602090f35b503461000e57602036600319011261000e576004356120c981610787565b6003546001600160a01b03919082163303610743577fa7014d98341b07b23615cb6b4da7cca2a381932b46fb39ca4b8c3875c53aa7649160209116806001600160601b0360a01b600f541617600f55604051908152a1005b503461000e57602036600319011261000e5760043561213f81610787565b6003546001600160a01b03919082163303610743577f5db758e995a17ec1ad84bdef7e8c3293a0bd6179bcce400dff5d4c3d87db726b9160209116806001600160601b0360a01b6007541617600755604051908152a1005b503461000e57602036600319011261000e57600435600052600d60205260e06040600020546040519060ff81161515825261ffff808260081c166020840152808260181c1660408401528160281c16606083015263ffffffff831b8160a81b16608083015260ff8160581c16151560a083015260601c60c0820152f35b503461000e57608036600319011261000e5761222e6104a3565b6122366104b4565b6064356001600160401b03811161000e576122559036906004016104f6565b600354919390916001600160a01b039081163303610743577f00000000000000000000000000000000000000000000000000000000000000001690813b1561000e57600080946122dc604051978896879586946332fb62e760e21b865261ffff8092166004870152166024850152604435604485015260806064850152608484019161340e565b03925af18015612300575b6122ed57005b806122fa610626926111c4565b80610f12565b612308613671565b6122e7565b50608036600319011261000e576123226104a3565b6001600160401b0360243581811161000e57612342903690600401611303565b61234a610523565b9160643590811161000e576123639036906004016104f6565b9190936123ca6123a68561238e6123888561ffff166000526008602052604060002090565b8661186f565b906001600160401b0316600052602052604060002090565b546123b2811515614efb565b6123bd3686896112cc565b6020815191012014614f47565b6000948593846123f58761238e6123ef8761ffff166000526008602052604060002090565b8861186f565b55303b1561244b5761241c916040519687958695633356ae4560e11b875260048701614f93565b038183305af1801561243e575b612431575080f35b806122fa61072f926111c4565b612446613671565b612429565b8480fd5b503461000e57608036600319011261000e57600435602435612470816107b2565b6124786104c5565b916124816104d6565b6003549093906001600160a01b0316330361074357600c548210156125d0576124cc6124c56124ba84600052600d602052604060002090565b5460281c61ffff1690565b61ffff1690565b61ffff908186169081119182156125c4575b5050611b64577f3b25bf77fa688236b850bf89c87e353098688237aa18dc42593aff0f6387aea993610afd916125338561252286600052600d602052604060002090565b9060ff801983541691151516179055565b6125638161254b86600052600d602052604060002090565b9062ffff0082549160081b169062ffff001916179055565b6125978261257b86600052600d602052604060002090565b9064ffff00000082549160181b169064ffff0000001916179055565b6040519485948592909493606092608085019685521515602085015261ffff809216604085015216910152565b831611905038806124de565b60405163bd7056c760e01b8152600490fd5b503461000e57604036600319011261000e577fb738dd6073fae1a7128e3fcc6b4ca6e1356b7232f87cc98f8a2857bcd83dfc44600435612621816107b2565b60243561262d816107b2565b60001943014381116126d7575b336000908152602081905260409020805492914060801c919060010154936126b4575b612682575b506040805133815260208101929092528101919091528060608101610afd565b61268c9192612e14565b908160016126ac3360018060a01b03166000526000602052604060002090565b015538612662565b91816126bf91612e14565b3360009081526020819052604090208190559161265d565b6126df612dda565b61263a565b503461000e57606036600319011261000e576126fe6104a3565b6127066104b4565b60035460443592906001600160a01b0316330361074357821561279857610afd7f9d5c7c0b934da8fefa9c7760c98383778a12dfbfc0c3b3106518f43fb9508ac09361ffff83166000526006602052806127728560406000209061ffff16600052602052604060002090565b556040519384938460409194939294606082019561ffff80921683521660208201520152565b60405162461bcd60e51b81526020600482015260156024820152744c7a4170703a20696e76616c6964206d696e47617360581b6044820152606490fd5b503461000e57600036600319011261000e576004546040516001600160a01b039091168152602090f35b503461000e57604036600319011261000e5760043561281d81610787565b60018060a01b031660005260026020526040600020602435600052602052602060ff604060002054166040519015158152f35b503461000e5761285f36610d59565b600354909291906001600160a01b031633036107435760009161ffff8116835260206005815260408420906001600160401b0386116129a9575b6128ad866128a78454611413565b84614cbe565b8490601f8711600114612915575094611eb0918186977ffa41487ad5d6728f0b19276fa1eddc16558578f5109fc39d2dc33c3230470dab979161290a575b508260011b906000198460031b1c191617905560405193849384614ca3565b9050850135386128eb565b90601f19871661292a84600052602060002090565b9287905b82821061299157505091611eb09391887ffa41487ad5d6728f0b19276fa1eddc16558578f5109fc39d2dc33c3230470dab98999410612977575b5050600182811b019055611ea4565b860135600019600385901b60f8161c191690553880612968565b80600185968294968b0135815501950193019061292e565b6129b16111ad565b612899565b503461000e57602036600319011261000e576004356129d481610787565b6003546001600160a01b0391908216330361074357166001600160601b0360a01b6004541617600455600080f35b503461000e57608036600319011261000e57610d43612a1f6104a3565b612a276104b4565b90612a33604435610787565b604051633d7b2f6f60e21b815261ffff91821660048201529116602482015230604482015260648035908201526000816084817f00000000000000000000000000000000000000000000000000000000000000006001600160a01b03165afa908115612ad0575b600091612aaf575b5060405191829182611539565b612aca913d8091833e612ac28183611235565b810190614c45565b38612aa2565b612ad8613671565b612a9a565b503461000e57600036600319011261000e576020601154604051908152f35b9060018103612b5f5750612b4b612b597f9661287f7a4aa4867db46a2453ee15bebac4e8fc25667a58718da658f15de643925b6040805160208101958652908101919091529182906060820190565b03601f198101835282611235565b51902090565b60028103612b955750612b4b612b597fa54ab330ea9e1dfccee2b86f3666989e7fbd479704416c757c8de8e820142a0892612b2f565b60038103612bcb5750612b4b612b597f93390f5d45ede9dea305f16aec86b2472af4f823851637f1b7019ad0775cea4992612b2f565b60048103612c015750612b4b612b597f9dda2c8358da895e43d574bb15954ce5727b22e923a2d8f28261f297bce42f0b92612b2f565b60058103612c375750612b4b612b597f92dc717124e161262f9d10c7079e7d54dc51271893fba54aa4a0f270fecdcc9892612b2f565b60068103612c6d5750612b4b612b597fce02aee5a7a35d40d974463c4c6e5534954fb07a7e7bc966fee268a15337bfd892612b2f565b60078103612ca35750612b4b612b597ff7a65efd167a18f7091b2bb929d687dd94503cf0a43620487055ed7d6b72755992612b2f565b60088103612cd95750612b4b612b597fdef24acacad1318b664520f7c10e8bc6d1e7f6f6f7c8b031e70624ceb42266a692612b2f565b60098103612d0f5750612b4b612b597f4cb4080dc4e7bae88b4dc4307ad5117fa4f26195998a1b5f40368809d7f4c7f292612b2f565b600a8103612d455750612b4b612b597ff8b1f864164d8d6e0b45f1399bd711223117a4ab0b057a9c2d7779e86a7c88db92612b2f565b6040516375dec1c560e11b81526004810191909152602490fd5b50634e487b7160e01b600052603260045260246000fd5b9190811015612d87575b60051b0190565b612d8f612d5f565b612d80565b81835290916001600160fb1b03831161000e5760209260051b809284830137010190565b6001600160a01b03909116815260406020820181905261098c93910191612d94565b50634e487b7160e01b600052601160045260246000fd5b91908203918211612dfe57565b6107a5612dda565b90601f8201809211612dfe57565b91908201809211612dfe57565b3561098c81610787565b6002111561000e57565b35906107a582612e2b565b6020906001600160401b038111612e585760051b0190565b612d8f6111ad565b9291612e6b82612e40565b91612e796040519384611235565b829481845260208094019160051b810192831161000e57905b828210612e9f5750505050565b81358152908301908301612e92565b9080601f8301121561000e5781602061098c93359101612e60565b91906102008382031261000e57612ede611275565b92612ee881612e35565b845260208101356020850152604081013560408501526060810135606085015260808101356080850152612f1e60a08201612e35565b60a0850152612f2f60c082016107a7565b60c0850152612f4060e082016107a7565b60e0850152610100612f538183016107a7565b908501526101208181013590850152610140808201359085015261016080820135908501526001600160401b03916101808083013584811161000e5782612f9b918501612eae565b908601526101a08083013584811161000e5782612fb9918501612eae565b908601526101c0612fcb8184016104e7565b908601526101e0928383013590811161000e57612fe89201611303565b90830152565b999897969391959490600260ff600f5460a01c1614610a6b57600f805460ff60a01b1916600160a11b179055801580156132b1575b610b40576130649a60e09461306f61306b61304888613042858e6132c4565b01612e21565b6001600160a01b0381166000908152600b60205260409020909f565b5460ff1690565b1590565b610a505760009a156131875797969594939291906000985b828a106130c257505050505050505050506130a592935b339061424f565b6130ad61520f565b600f805460ff60a01b1916600160a01b179055565b9091929394959697989a88888f888f898f896130e0848b8e946132ee565b9584613151575b50936131268461313b97946131208261310c60019e9c99610e6f986131419f9c61331f565b9861311a610a24368b612ec9565b9a61334f565b9361337f565b90866131356101008701612e21565b9361452f565b90612e14565b9b01989796959493929190613087565b965050505050509150613165898301612e21565b6001600160a01b03918216911603610a5057888f91888f89898f968a906130e7565b8a9c98979493929c5b8d81106131ab575050505050505050506130a593945061309e565b8d816131b881858d6132ee565b918161328b575b61322692916131ce918761331f565b908a6132056131eb866131e4610a243687612ec9565b938d61334f565b6131f6878b8d61337f565b90846131356101008801612e21565b604051809481926337e8cc7160e01b83526020958695339160048601613632565b03816000305af191829160009361325c575b5050613248575b50600101613190565b613255906001929d612e14565b9b9061323f565b61327c929350803d10613284575b6132748183611235565b8101906133ce565b903880613238565b503d61326a565b5050613298888201612e21565b6001600160a01b038c8116911603610a5057818f6131bf565b5080851881831882861817171515613023565b90156132e1575b8035906101fe198136030182121561000e570190565b6132e9612d5f565b6132cb565b9190811015613312575b60051b810135906101fe198136030182121561000e570190565b61331a612d5f565b6132f8565b9190811015613342575b60051b81013590605e198136030182121561000e570190565b61334a612d5f565b613329565b9190811015613372575b60051b81013590603e198136030182121561000e570190565b61337a612d5f565b613359565b91908110156133c1575b60051b81013590601e198136030182121561000e5701908135916001600160401b03831161000e57602001823603811361000e579190565b6133c9612d5f565b613389565b9081602091031261000e575190565b9035601e198236030181121561000e5701602081359101916001600160401b03821161000e57813603831361000e57565b908060209392818452848401376000828201840152601f01601f1916010190565b90606061346e61098c93803561344481610787565b6001600160a01b0316845261ffff61345e602083016104e7565b16602085015260408101906133dd565b919092816040820152019161340e565b6002111561348857565b634e487b7160e01b600052602160045260246000fd5b906134a88261347e565b52565b9035601e198236030181121561000e5701602081359101916001600160401b03821161000e578160051b3603831361000e57565b61098c916134f5816134f084612e35565b61349e565b6020820135602082015260408201356040820152606082013560608201526080820135608082015261353661352c60a08401612e35565b60a083019061349e565b61355561354560c084016107a7565b6001600160a01b031660c0830152565b61357461356460e084016107a7565b6001600160a01b031660e0830152565b6135946101006135858185016107a7565b6001600160a01b031690830152565b6101208083013590820152610140808301359082015261016080830135908201526135f86135dc6101806135ca818601866134ab565b90916102008091870152850191612d94565b6101a06135eb818601866134ab565b9185840390860152612d94565b916136146101c061360a8184016104e7565b61ffff1690840152565b6136246101e091828101906133dd565b92909181850391015261340e565b9060609261364f61365d929796959760808552608085019061342f565b9083820360208501526134df565b6001600160a01b0390951660408201520152565b506040513d6000823e3d90fd5b3561098c81612e2b565b90815180825260208080930193019160005b8281106136a8575050505090565b83518552938101939281019260010161369a565b6000915b600283106136cd57505050565b81516001600160a01b0316815260019290920191602091820191016136c0565b6000915b600383106136fe57505050565b6001908251815260208091019201920191906136f1565b9561379d9061378d6137ca976137be976107a59d9f9e9c97613778906137686137af996101809f998f60406060928051835260208101516020840152015115156040820152019060018060a01b03169052565b6001600160a01b031660808d0152565b60a08b01526001600160a01b031660c08a0152565b6001600160a01b031660e0880152565b6101e080610100880152860190613688565b90848203610120860152613688565b966101408301906136bc565b01906136ed565b91906137dc8161367e565b6137e58161347e565b61399d576137f66101008201612e21565b6001600160a01b03811660009081526001602052604090209092909361382b6060840135809690600052602052604060002090565b546001600160a01b03851660009081526020819052604090205460208501351490811591613960575b8115613940575b5061392e5782339061386c92613b15565b8861388087849b8b859996999897986144a4565b60c088019161388e83612e21565b85858c3361389e60a08f0161367e565b6138a79561482f565b60e08901918a6138b684612e21565b906138c2918a8a614453565b6138ca611295565b9889526020890152151560408801526138e290612e21565b906138ec90612e21565b906040519860808a9901359033613903998b613715565b037f9aaa45d6db2ef74ead0751ea9113263d1dec1b50cea05f0ca2002cb8063564a491a16040015190565b604051631782f9fd60e31b8152600490fd5b9050828115159182613955575b50503861385b565b14159050823861394d565b90506139976130646139848760018060a01b03166000526002602052604060002090565b6040870135600052602052604060002090565b90613854565b60405163d641ac7b60e01b8152600490fd5b604051906139bc826111ff565b6040368337565b604051906139d0826111e4565b6060368337565b90916139ee61098c9360408452604084019061342f565b9160208184039101526134df565b3d15613a27573d90613a0d826112a2565b91613a1b6040519384611235565b82523d6000602084013e565b606090565b81601f8201121561000e57805191613a4383612e40565b92613a516040519485611235565b808452602092838086019260051b82010192831161000e578301905b828210613a7b575050505090565b81518152908301908301613a6d565b60808183031261000e578051926020820151926001600160401b039384811161000e5781613ab9918501613a2c565b93604084015190811161000e57606091613ad4918501613a2c565b92015161098c816107b2565b903590601e198136030182121561000e57018035906001600160401b03821161000e57602001918160051b3603831361000e57565b919290613b206139af565b91613b296139c3565b916000613b40610140830135610120840135613fd4565b60808201359081613c40578483928792613ba66101a0613b979b989701613b9e613b8e88613b88613b718583613ae0565b613b8061018085018095613ae0565b929050613fef565b89613ae0565b9d909289613ae0565b3691612e60565b9b3691612e60565b9a60019761016087013592613be1613bcb8f5b86613bc660c08d01612e21565b613dcf565b6020890152602089019060018060a01b03169052565b613bea8861367e565b613bf38161347e565b613c2d576107a597506001600160a01b03613c0d83612e21565b1615159050613c1d575091613ee8565b613c279150612e21565b91613ee8565b505050613c276101006107a59601612e21565b613c5761306483600052600d602052604060002090565b15613d4957613c658361367e565b613c86613c7c84600052600d602052604060002090565b5460581c60ff1690565b14613d3c578080613cab613ca485600052600d602052604060002090565b5460601c90565b613cd3613cc286600052600d602052604060002090565b5460a81b6001600160e01b03191690565b8287613cf28d612b4b60405193849260208401978852602484016139d7565b51925af197613cff6139fc565b9815613d3457613be194939287928792613d258c602080613bcb9f518301019101613a8a565b9d9294919d9a909d9e8f613bb9565b885160208a01fd5b63ab98484690526004601cfd5b604051636b9e163560e11b815260048101839052602490fd5b919082604091031261000e5760208251613d7b81610787565b92015190565b61098c939260609260018060a01b0316825260208201528160408201520190613688565b9061271091828102928184041490151715612dfe57565b81810292918115918404141715612dfe57565b600f546000948594909391613df4906001600160a01b03165b6001600160a01b031690565b6001600160a01b0393818516613e0c575b5050505050565b613e35975083949650926040938451988994859384936370c1092160e01b855260048501613d81565b03915afa8015613edb575b6000948591613ea7575b508093851615600014613e68575060009250505b3880808080613e05565b613e74613e8f91613da5565b91613e896124c5600e5461ffff9060a01c1690565b90613dbc565b1015613e5e576040516397d7dcfb60e01b8152600490fd5b9050613ecb91945060403d8111613ed4575b613ec38183611235565b810190613d62565b93909338613e4a565b503d613eb9565b613ee3613671565b613e40565b906107a59492939180600052600d6020526127109061ffff9082613f168360406000205460181c1686613dbc565b049260208601928351928315600014613f4e575050505050613f3d91816040850152612df1565b90526001600160a01b039091169052565b613f3d9693949592916040613f73926000908152600d602052205460081c1684613dbc565b049281818501808611613fc7575b10613fa4575b5050613f9c9192604086019384525190612df1565b905190612df1565b613f9c93508103908111613fba575b9138613f87565b613fc2612dda565b613fb3565b613fcf612dda565b613f81565b90421190421017613fe157565b637476320f6000526004601cfd5b9060009281188115176140215760051b90815b61400b57505050565b601f198083019282010135156140215781614002565b632e0c0f7183526004601cfd5b90929192600161403d8261367e565b6140468161347e565b0361399d576140586101008201612e21565b9061408b6140788360018060a01b03166000526001602052604060002090565b6060830135600052602052604060002090565b546001600160a01b03831660009081526020819052604090206001015460208301351490811591614212575b81156141f2575b5061392e576140ce338285613b15565b95938399898299849b60608a9896980135906140eb918a8d6144a4565b826140f860e08b01612e21565b90614104918989614453565b61411060c08a01612e21565b9961411d60a08b0161367e565b906001600160a01b0361412f84612e21565b161560001460409f7f3ee3de4684413690dee6fff1a0a4f92916a1b97d1c5a83cdf24671844306b2e39e60809e6141cc9d61419096614173956141e3578a9261482f565b61417b611295565b93845260608b0135602085015215158e840152565b61419c613de882612e21565b6141d4575081905b6141b060e08a01612e21565b916141bd60c08b01612e21565b938e519b8c9b0135928b613715565b0390a1015190565b6141dd90612e21565b906141a4565b6141ec89612e21565b9261482f565b9050848115159182614207575b5050386140be565b1415905084386141ff565b90506142496130646142368560018060a01b03166000526002602052604060002090565b6040850135600052602052604060002090565b906140b7565b909291928261425f575b50505050565b61428b936001600160a01b039081811680614294575b5050600e546001600160a01b0316905091614366565b38808080614259565b60ff6009541615614275576001600160a01b0382166000908152600a60205260409020612710906142c6905488613dbc565b0490816142d4575b50614275565b8161433c91888895947f49e92b6b3114f7e128555cd58c568f7c2e0e56fe9b4c46b6125bc308184623b3979a03908111614359575b98871603614348575b604080516001600160a01b0394851681529490931660208501529183019190915281906060820190565b0390a1388080806142ce565b61435481848887614366565b614312565b614361612dda565b614309565b919291906001600160a01b0382166143a9575050906107a591601254917f000000000000000000000000000000000000000000000000000000000000000061523c565b813b15614441576040516323b872dd60e01b602082019081526001600160a01b0392831660248301529490911660448201526064810192909252600092839283906143f78160848101612b4b565b51925af16144036139fc565b901561442f57805180614414575050565b8160208061306b9361442995010191016146ad565b61442f57565b60405163e560521360e01b8152600490fd5b6040516309ee12d560e01b8152600490fd5b929190602090805180614487575b50015191826144705750505050565b61428b93602060018060a01b039101511691614366565b855161449e91906001600160a01b03168686614366565b38614461565b909290156144f457507f53849a1acec87308423850dccd979fc7a4b74b75a79b19c3b98ec8df38a599db915b60018060a01b03166000526001602052604060002090600052602052604060002055565b916144d0565b903590601e198136030182121561000e57018035906001600160401b03821161000e57602001918160061b3603831361000e57565b939291906020948581019561454487836144fa565b8098915061455a575b5050506107a59450614638565b600a881161461f5761456e908394936144fa565b9335938493926000925b8284106145af57505050500361459d576107a59461459591612afc565b38808061454d565b60405163c8ac23c360e01b8152600490fd5b9193908395506145c18194868561496d565b01356145cc81612e2b565b6145d58161347e565b614600576145e485858461496d565b35600052825260016040600020945b0192909185949392614578565b61460b85858461496d565b3590600052825260016040600020946145f3565b6040516375dec1c560e11b815260048101899052602490fd5b92601054461460001461469b576107a5936011549060405190602082019261190160f01b84526022830152604282015260428152608081018181106001600160401b0382111761468e575b604052519020614ffe565b6146966111ad565b614683565b604051636fd794c760e01b8152600490fd5b9081602091031261000e575161098c816107b2565b6147a860c06107a5936146e481511515859060ff801983541691151516179055565b6020810151845462ffff00191660089190911b62ffff001617845561472561ffff6040830151865464ffff0000001916911660181b64ffff00000016178555565b606081015166ffff000000000085549160281b168066ffff00000000001983161786556affffffff00000000000000608084015160a81c16916affffffffffff000000000019161717845561479a61478060a0830151151590565b855460ff60581b191690151560581b60ff60581b16178555565b01516001600160a01b031690565b81546001600160601b031660609190911b6bffffffffffffffffffffffff1916179055565b60019060001981146147dd570190565b6147e5612dda565b0190565b6001600160a01b0391821681529181166020830152909116604082015260a06060820181905261098c93919261482191840190613688565b916080818403910152613688565b9394919061483c8161347e565b806148c557507f00000000000000000000000000000000000000000000000000000000000000006001600160a01b031691823b1561000e5760009461489986926040519889978896879563a7bc96d360e01b8752600487016147e9565b03925af180156148b8575b6148ab5750565b806122fa6107a5926111c4565b6148c0613671565b6148a4565b806148d160019261347e565b146148dd575050505050565b7f00000000000000000000000000000000000000000000000000000000000000006001600160a01b031691823b1561000e57600094614934869260405198899788968795635052036360e11b8752600487016147e9565b03925af18015614960575b61494d575b80808080613e05565b806122fa61495a926111c4565b38614944565b614968613671565b61493f565b919081101561497e575b60061b0190565b614986612d5f565b614977565b969491926101009693999894919961012089019a7f578c458ef0610f67a73705004b9ddc6ab6bcf1764005638471c3801daaa067e78a526149cb8161347e565b60208a015260408901526060880152608087015260a08601526149ed8161347e565b60c08501526001600160a01b0391821660e085015216910152565b805160208092019160005b828110614a21575050505090565b835185529381019392810192600101614a13565b60206107a5919392936040519481614a5687935180928680870191016114f1565b8201614a6a825180938680850191016114f1565b01038085520183611235565b614be2815191614a858361347e565b602092614bdd84614ade8185015160408601516060870151608088015160a089015191614ab18361347e565b60c08a01516001600160a01b031660e08b01519094906001600160a01b0316956040519a8b998a0161498b565b03614af1601f1991828101855284611235565b6101008401518690614bd1906001600160a01b03169561012081015190610140810151610160820151610180830151604051614b4081614b348a82018095614a08565b038a8101835282611235565b519020906101a0840151604051614b6a81614b5e8b82018095614a08565b038b8101835282611235565b519020926101e0614b816101c087015161ffff1690565b950151805190890120604080516001600160a01b03909e16998e01998a5260208a0197909752958801526060870152608086015260a085015261ffff1660c084015260e083015285916101000190565b03908101845283611235565b614a35565b805191012090565b15614bf157565b60405162461bcd60e51b815260206004820152602660248201527f4c7a4170703a20696e76616c696420736f757263652073656e64696e6720636f6044820152651b9d1c9858dd60d21b6064820152608490fd5b60208183031261000e578051906001600160401b03821161000e570181601f8201121561000e578051614c77816112a2565b92614c856040519485611235565b8184526020828401011161000e5761098c91602080850191016114f1565b60409061ffff61098c9593168152816020820152019161340e565b90601f8111614ccc57505050565b600091825260208220906020601f850160051c83019410614d08575b601f0160051c01915b828110614cfd57505050565b818155600101614cf1565b9092508290614ce8565b15614d1957565b60405162461bcd60e51b815260206004820152600e60248201526d736c6963655f6f766572666c6f7760901b6044820152606490fd5b15614d5657565b60405162461bcd60e51b8152602060048201526011602482015270736c6963655f6f75744f66426f756e647360781b6044820152606490fd5b614da382614d9c81612e06565b1015614d12565b614db08282511015614d4f565b81614dc8575050604051600081526020810160405290565b60405191601f811691821560051b808486010193838501920101905b808410614dfc5750508252601f01601f191660405290565b9092835181526020809101930190614de4565b90614e3861098c959361ffff6001600160401b0393168452608060208501526080840190611514565b931660408201526060818403910152611514565b9091303b1561000e57604051633356ae4560e11b815260008180614e768886898960048601614e0f565b038183305af19081614eec575b506142595783614ee7917fe6f254030bcb01ffd20558175c13fcaed6d1520be7becee4c961b65f79243b0d95516020830120614eda8261238e614ed48861ffff166000526008602052604060002090565b8961186f565b5560405194859485614e0f565b0390a1565b614ef5906111c4565b38614e83565b15614f0257565b60405162461bcd60e51b815260206004820152601d60248201527f4c7a52656365697665723a206e6f2073746f726564206d6573736167650000006044820152606490fd5b15614f4e57565b60405162461bcd60e51b815260206004820152601b60248201527f4c7a52656365697665723a20696e76616c6964207061796c6f616400000000006044820152606490fd5b90614fbe61098c9694959361ffff6001600160401b0393168452608060208501526080840190611514565b94166040820152606081850391015261340e565b9081602091031261000e575161098c8161192d565b60409061098c94928152816020820152019161340e565b929091823b6150355761501192936150d5565b6001600160a01b039081169116146107a55760405163d1085d1b60e01b8152600490fd5b9061505b92602092604051809581948293630b135d3f60e11b998a855260048501614fe7565b03916001600160a01b03165afa9081156150c8575b60009161509a575b506001600160e01b031916146107a55760405163f6cd0e2f60e01b8152600490fd5b6150bb915060203d81116150c1575b6150b38183611235565b810190614fd2565b38615078565b503d6150a9565b6150d0613671565b615070565b9091604181036151cc5750604082013560001a91602081013590355b7f7fffffffffffffffffffffffffffffff5d576e7357a4501ddfe92f46681b20a082116151ba5760ff8416601b81141590816151ae575b50615193576040805193845260ff9490941660208085019190915293830152606082015260008080529060809060015afa15615186575b600051906001600160a01b0382161561517457565b60405163f05a20c760e01b8152600490fd5b61518e613671565b61515f565b60405163105e24e960e21b815260ff85166004820152602490fd5b601c9150141538615128565b6040516360c2892960e11b8152600490fd5b604081036151f55750602082013560ff81901c601b01926001600160ff1b0390911690356150f1565b60405163d42b4bbd60e01b81526004810191909152602490fd5b476001811161521b5750565b600080808093811901335af11561522e57565b6307246cf46000526004601cfd5b615250828495600080809781948294f11590565b61525a5750505050565b6001600160a01b031691823b1561075457916152ca9391602093604051630d0e30db60e41b8152818160048188885af18015615320575b61530d575b5060405163a9059cbb60e01b81526001600160a01b0390921660048301526024820193909352938492839182906044820190565b03925af18015615300575b6152e2575b808080614259565b6152f99060203d8111611b3e57611b308183611235565b50386152da565b615308613671565b6152d5565b806122fa61531a926111c4565b38615296565b615328613671565b61529156fea264697066735822122002b6746accccccfbff6095d955b161a7081a854c13a0ce454a12e9bd7af1709164736f6c63430008110033",
    "linkReferences": {}
  },
  "methodIdentifiers": {
    "MAGIC_VALUE_ORDER_NONCE_EXECUTED()": "463357ec",
    "WETH()": "ad5c4648",
    "addStrategy(uint16,uint16,uint16,bytes4,bool,address)": "91be1360",
    "affiliateController()": "4cbac9dc",
    "affiliateRates(address)": "7a7d8851",
    "cancelOrderNonces(uint256[])": "79ed31d4",
    "cancelSubsetNonces(uint256[])": "134849a6",
    "chainId()": "9a8a0592",
    "claimOwnership()": "4e71e0c8",
    "creatorFeeManager()": "838b8f5c",
    "domainSeparator()": "f698da25",
    "executeMultipleTakerBids((address,uint16,bytes)[],(uint8,uint256,uint256,uint256,uint256,uint8,address,address,address,uint256,uint256,uint256,uint256[],uint256[],uint16,bytes)[],bytes[],(bytes32,(bytes32,uint8)[])[],address,bool)": "0db2bd1e",
    "executeTakerAsk((address,uint16,bytes),(uint8,uint256,uint256,uint256,uint256,uint8,address,address,address,uint256,uint256,uint256,uint256[],uint256[],uint16,bytes),bytes,(bytes32,(bytes32,uint8)[]),address)": "10e89db4",
    "executeTakerBid((address,uint16,bytes),(uint8,uint256,uint256,uint256,uint256,uint8,address,address,address,uint256,uint256,uint256,uint256[],uint256[],uint16,bytes),bytes,(bytes32,(bytes32,uint8)[]),address)": "41fb13d0",
    "failedMessages(uint16,bytes,uint256)": "8ee74912",
    "forceResumeReceive(uint16,bytes)": "42d65a8d",
    "getConfig(uint16,uint16,address,uint256)": "f5ecbdbc",
    "getTrustedRemoteAddress(uint16)": "9f38369a",
    "hashBatchOrder(bytes32,uint256)": "86c07642",
    "incrementBidAskNonces(bool,bool)": "d5b010f5",
    "isAffiliateProgramActive()": "67d9dd79",
    "isCurrencyAllowed(address)": "5a195d19",
    "isTrustedRemote(uint16,bytes)": "3d8b38f6",
    "lzEndpoint()": "b353aaa7",
    "lzReceive(uint16,bytes,uint64,bytes)": "001d3567",
    "maxCreatorFeeBp()": "6e90c014",
    "minDstGasLookup(uint16,uint16)": "8cfd8f5c",
    "nonblockingLzReceive(uint16,bytes,uint64,bytes)": "66ad5c8a",
    "owner()": "8da5cb5b",
    "pendingOwner()": "e30c3978",
    "precrime()": "950c8a74",
    "protocolFeeRecipient()": "64df049e",
    "restrictedExecuteTakerBid((address,uint16,bytes),(uint8,uint256,uint256,uint256,uint256,uint8,address,address,address,uint256,uint256,uint256,uint256[],uint256[],uint16,bytes),address,bytes32)": "37e8cc71",
    "retryMessage(uint16,bytes,uint64,bytes)": "d1deba1f",
    "setConfig(uint16,uint16,uint256,bytes)": "cbed8b9c",
    "setMinDstGas(uint16,uint16,uint256)": "df2a5b3b",
    "setPrecrime(address)": "baf3292d",
    "setReceiveVersion(uint16)": "10ddb137",
    "setSendVersion(uint16)": "07e0db17",
    "setTrustedRemote(uint16,bytes)": "eb8d72b7",
    "setTrustedRemoteAddress(uint16,bytes)": "a6c3d165",
    "strategyInfo(uint256)": "bb91c339",
    "transferManager()": "46ea2552",
    "transferOwnership(address)": "f2fde38b",
    "trustedRemoteLookup(uint16)": "7533d788",
    "updateAffiliateController(address)": "a02bab57",
    "updateAffiliateProgramStatus(bool)": "54878876",
    "updateAffiliateRate(address,uint256)": "ae1cce5a",
    "updateCreatorFeeManager(address)": "b647a404",
    "updateCurrencyStatus(address,bool)": "1d3c4268",
    "updateDomainSeparator()": "89ccfe89",
    "updateETHGasLimitForTransfer(uint256)": "974e7c9f",
    "updateMaxCreatorFeeBp(uint16)": "46b625bc",
    "updateProtocolFeeRecipient(address)": "1df47f80",
    "updateStrategy(uint256,bool,uint16,uint16)": "d5a06adf",
    "userBidAskNonces(address)": "a39bf29f",
    "userOrderNonce(address,uint256)": "20cd05c7",
    "userSubsetNonce(address,uint256)": "ea179b76"
  },
  "id": 11
}