{
  "abi": [
    {
      "inputs": [
        {
          "internalType": "uint256",
          "name": "_royaltyFeeLimit",
          "type": "uint256"
        }
      ],
      "stateMutability": "nonpayable",
      "type": "constructor"
    },
    {
      "anonymous": false,
      "inputs": [
        {
          "indexed": false,
          "internalType": "uint256",
          "name": "royaltyFeeLimit",
          "type": "uint256"
        }
      ],
      "name": "NewRoyaltyFeeLimit",
      "type": "event"
    },
    {
      "anonymous": false,
      "inputs": [
        {
          "indexed": true,
          "internalType": "bytes32",
          "name": "role",
          "type": "bytes32"
        },
        {
          "indexed": true,
          "internalType": "bytes32",
          "name": "previousAdminRole",
          "type": "bytes32"
        },
        {
          "indexed": true,
          "internalType": "bytes32",
          "name": "newAdminRole",
          "type": "bytes32"
        }
      ],
      "name": "RoleAdminChanged",
      "type": "event"
    },
    {
      "anonymous": false,
      "inputs": [
        {
          "indexed": true,
          "internalType": "bytes32",
          "name": "role",
          "type": "bytes32"
        },
        {
          "indexed": true,
          "internalType": "address",
          "name": "account",
          "type": "address"
        },
        {
          "indexed": true,
          "internalType": "address",
          "name": "sender",
          "type": "address"
        }
      ],
      "name": "RoleGranted",
      "type": "event"
    },
    {
      "anonymous": false,
      "inputs": [
        {
          "indexed": true,
          "internalType": "bytes32",
          "name": "role",
          "type": "bytes32"
        },
        {
          "indexed": true,
          "internalType": "address",
          "name": "account",
          "type": "address"
        },
        {
          "indexed": true,
          "internalType": "address",
          "name": "sender",
          "type": "address"
        }
      ],
      "name": "RoleRevoked",
      "type": "event"
    },
    {
      "anonymous": false,
      "inputs": [
        {
          "indexed": true,
          "internalType": "address",
          "name": "collection",
          "type": "address"
        },
        {
          "indexed": true,
          "internalType": "address",
          "name": "setter",
          "type": "address"
        },
        {
          "indexed": true,
          "internalType": "address",
          "name": "receiver",
          "type": "address"
        },
        {
          "indexed": false,
          "internalType": "uint256",
          "name": "fee",
          "type": "uint256"
        }
      ],
      "name": "RoyaltyFeeUpdate",
      "type": "event"
    },
    {
      "inputs": [],
      "name": "ADMIN_ROLE",
      "outputs": [
        {
          "internalType": "bytes32",
          "name": "",
          "type": "bytes32"
        }
      ],
      "stateMutability": "view",
      "type": "function"
    },
    {
      "inputs": [],
      "name": "DEFAULT_ADMIN_ROLE",
      "outputs": [
        {
          "internalType": "bytes32",
          "name": "",
          "type": "bytes32"
        }
      ],
      "stateMutability": "view",
      "type": "function"
    },
    {
      "inputs": [
        {
          "internalType": "bytes32",
          "name": "role",
          "type": "bytes32"
        }
      ],
      "name": "getRoleAdmin",
      "outputs": [
        {
          "internalType": "bytes32",
          "name": "",
          "type": "bytes32"
        }
      ],
      "stateMutability": "view",
      "type": "function"
    },
    {
      "inputs": [
        {
          "internalType": "bytes32",
          "name": "role",
          "type": "bytes32"
        },
        {
          "internalType": "address",
          "name": "account",
          "type": "address"
        }
      ],
      "name": "grantRole",
      "outputs": [],
      "stateMutability": "nonpayable",
      "type": "function"
    },
    {
      "inputs": [
        {
          "internalType": "bytes32",
          "name": "role",
          "type": "bytes32"
        },
        {
          "internalType": "address",
          "name": "account",
          "type": "address"
        }
      ],
      "name": "hasRole",
      "outputs": [
        {
          "internalType": "bool",
          "name": "",
          "type": "bool"
        }
      ],
      "stateMutability": "view",
      "type": "function"
    },
    {
      "inputs": [
        {
          "internalType": "bytes32",
          "name": "role",
          "type": "bytes32"
        },
        {
          "internalType": "address",
          "name": "account",
          "type": "address"
        }
      ],
      "name": "renounceRole",
      "outputs": [],
      "stateMutability": "nonpayable",
      "type": "function"
    },
    {
      "inputs": [
        {
          "internalType": "bytes32",
          "name": "role",
          "type": "bytes32"
        },
        {
          "internalType": "address",
          "name": "account",
          "type": "address"
        }
      ],
      "name": "revokeRole",
      "outputs": [],
      "stateMutability": "nonpayable",
      "type": "function"
    },
    {
      "inputs": [
        {
          "internalType": "address",
          "name": "collection",
          "type": "address"
        }
      ],
      "name": "royaltyFeeInfoCollection",
      "outputs": [
        {
          "internalType": "address",
          "name": "",
          "type": "address"
        },
        {
          "internalType": "address",
          "name": "",
          "type": "address"
        },
        {
          "internalType": "uint256",
          "name": "",
          "type": "uint256"
        }
      ],
      "stateMutability": "view",
      "type": "function"
    },
    {
      "inputs": [],
      "name": "royaltyFeeLimit",
      "outputs": [
        {
          "internalType": "uint256",
          "name": "",
          "type": "uint256"
        }
      ],
      "stateMutability": "view",
      "type": "function"
    },
    {
      "inputs": [
        {
          "internalType": "address",
          "name": "collection",
          "type": "address"
        },
        {
          "internalType": "uint256",
          "name": "amount",
          "type": "uint256"
        }
      ],
      "name": "royaltyInfo",
      "outputs": [
        {
          "internalType": "address",
          "name": "",
          "type": "address"
        },
        {
          "internalType": "uint256",
          "name": "",
          "type": "uint256"
        }
      ],
      "stateMutability": "view",
      "type": "function"
    },
    {
      "inputs": [
        {
          "internalType": "address[]",
          "name": "addresses",
          "type": "address[]"
        }
      ],
      "name": "setAllowList",
      "outputs": [],
      "stateMutability": "nonpayable",
      "type": "function"
    },
    {
      "inputs": [
        {
          "internalType": "bytes4",
          "name": "interfaceId",
          "type": "bytes4"
        }
      ],
      "name": "supportsInterface",
      "outputs": [
        {
          "internalType": "bool",
          "name": "",
          "type": "bool"
        }
      ],
      "stateMutability": "view",
      "type": "function"
    },
    {
      "inputs": [
        {
          "internalType": "uint256",
          "name": "_royaltyFeeLimit",
          "type": "uint256"
        }
      ],
      "name": "updateRoyaltyFeeLimit",
      "outputs": [],
      "stateMutability": "nonpayable",
      "type": "function"
    },
    {
      "inputs": [
        {
          "internalType": "address",
          "name": "collection",
          "type": "address"
        },
        {
          "internalType": "address",
          "name": "setter",
          "type": "address"
        },
        {
          "internalType": "address",
          "name": "receiver",
          "type": "address"
        },
        {
          "internalType": "uint256",
          "name": "fee",
          "type": "uint256"
        }
      ],
      "name": "updateRoyaltyInfoForCollection",
      "outputs": [],
      "stateMutability": "nonpayable",
      "type": "function"
    }
  ],
  "bytecode": {
    "object": "0x608060405234801561001057600080fd5b50604051610e1b380380610e1b83398101604081905261002f9161014e565b61251c81111561008f5760405162461bcd60e51b815260206004820152602160248201527f4f776e65723a20526f79616c747920666565206c696d697420746f6f206869676044820152600d60fb1b606482015260840160405180910390fd5b61009a6000336100a2565b600155610167565b6100ac82826100b0565b5050565b6000828152602081815260408083206001600160a01b038516845290915290205460ff166100ac576000828152602081815260408083206001600160a01b03851684529091529020805460ff1916600117905561010a3390565b6001600160a01b0316816001600160a01b0316837f2f8788117e7eff1d82e926ec794901d17c78024a50270940304540a733656f0d60405160405180910390a45050565b60006020828403121561016057600080fd5b5051919050565b610ca5806101766000396000f3fe608060405234801561001057600080fd5b50600436106100ea5760003560e01c806375b238fc1161008c578063b9223c9d11610066578063b9223c9d146101ee578063bbdf9b6814610201578063d547741f14610214578063e31ef91c1461022757600080fd5b806375b238fc146101be57806391d14854146101d3578063a217fddf146101e657600080fd5b80632f2ff15d116100c85780632f2ff15d1461017a57806336568abe1461018f5780634fb7d3f9146101a25780636447c35d146101ab57600080fd5b806301ffc9a7146100ef578063248a9ca3146101175780632782d6c714610148575b600080fd5b6101026100fd366004610935565b61028c565b60405190151581526020015b60405180910390f35b61013a61012536600461095f565b60009081526020819052604090206001015490565b60405190815260200161010e565b61015b610156366004610994565b6102c3565b604080516001600160a01b03909316835260208301919091520161010e565b61018d6101883660046109be565b610310565b005b61018d61019d3660046109be565b61033a565b61013a60015481565b61018d6101b93660046109ea565b6103bd565b61013a600080516020610c5083398151915281565b6101026101e13660046109be565b610424565b61013a600081565b61018d6101fc36600461095f565b61044d565b61018d61020f366004610a5f565b6104fd565b61018d6102223660046109be565b61060c565b610266610235366004610aaa565b6001600160a01b03908116600090815260026020819052604090912080546001820154919092015491831693921691565b604080516001600160a01b0394851681529390921660208401529082015260600161010e565b60006001600160e01b03198216637965db0b60e01b14806102bd57506301ffc9a760e01b6001600160e01b03198316145b92915050565b6001600160a01b0380831660009081526002602081905260408220600181015491015491928392911690612710906102fb9086610adb565b6103059190610af2565b915091509250929050565b60008281526020819052604090206001015461032b81610631565b610335838361063e565b505050565b6001600160a01b03811633146103af5760405162461bcd60e51b815260206004820152602f60248201527f416363657373436f6e74726f6c3a2063616e206f6e6c792072656e6f756e636560448201526e103937b632b9903337b91039b2b63360891b60648201526084015b60405180910390fd5b6103b982826106c2565b5050565b60006103c881610631565b60005b8281101561041e5761040c600080516020610c508339815191528585848181106103f7576103f7610b14565b90506020020160208101906101889190610aaa565b8061041681610b2a565b9150506103cb565b50505050565b6000918252602082815260408084206001600160a01b0393909316845291905290205460ff1690565b600080516020610c5083398151915261046581610631565b61251c8211156104c15760405162461bcd60e51b815260206004820152602160248201527f4f776e65723a20526f79616c747920666565206c696d697420746f6f206869676044820152600d60fb1b60648201526084016103a6565b60018290556040518281527f2da7166c72ef3860ef4fb2571105533c40615269a6dbc38ce0b264910df1c2569060200160405180910390a15050565b600080516020610c5083398151915261051581610631565b6001548211156105675760405162461bcd60e51b815260206004820152601e60248201527f52656769737472793a20526f79616c74792066656520746f6f2068696768000060448201526064016103a6565b604080516060810182526001600160a01b0386811680835286821660208085018281528587018981528c861660008181526002808652908a9020985189549089166001600160a01b0319918216178a55935160018a0180549190991694169390931790965551950194909455935186815290927fd01984afa6e37420452e575e7d99dd7e632b3ec8ea2adec998475b76ca494d64910160405180910390a45050505050565b60008281526020819052604090206001015461062781610631565b61033583836106c2565b61063b8133610727565b50565b6106488282610424565b6103b9576000828152602081815260408083206001600160a01b03851684529091529020805460ff1916600117905561067e3390565b6001600160a01b0316816001600160a01b0316837f2f8788117e7eff1d82e926ec794901d17c78024a50270940304540a733656f0d60405160405180910390a45050565b6106cc8282610424565b156103b9576000828152602081815260408083206001600160a01b0385168085529252808320805460ff1916905551339285917ff6391f5c32d9c69d2a47ea670b442974b53935d1edc7fd64eb21e047a839171b9190a45050565b6107318282610424565b6103b95761073e81610780565b610749836020610792565b60405160200161075a929190610b67565b60408051601f198184030181529082905262461bcd60e51b82526103a691600401610bdc565b60606102bd6001600160a01b03831660145b606060006107a1836002610adb565b6107ac906002610c0f565b67ffffffffffffffff8111156107c4576107c4610c22565b6040519080825280601f01601f1916602001820160405280156107ee576020820181803683370190505b509050600360fc1b8160008151811061080957610809610b14565b60200101906001600160f81b031916908160001a905350600f60fb1b8160018151811061083857610838610b14565b60200101906001600160f81b031916908160001a905350600061085c846002610adb565b610867906001610c0f565b90505b60018111156108df576f181899199a1a9b1b9c1cb0b131b232b360811b85600f166010811061089b5761089b610b14565b1a60f81b8282815181106108b1576108b1610b14565b60200101906001600160f81b031916908160001a90535060049490941c936108d881610c38565b905061086a565b50831561092e5760405162461bcd60e51b815260206004820181905260248201527f537472696e67733a20686578206c656e67746820696e73756666696369656e7460448201526064016103a6565b9392505050565b60006020828403121561094757600080fd5b81356001600160e01b03198116811461092e57600080fd5b60006020828403121561097157600080fd5b5035919050565b80356001600160a01b038116811461098f57600080fd5b919050565b600080604083850312156109a757600080fd5b6109b083610978565b946020939093013593505050565b600080604083850312156109d157600080fd5b823591506109e160208401610978565b90509250929050565b600080602083850312156109fd57600080fd5b823567ffffffffffffffff80821115610a1557600080fd5b818501915085601f830112610a2957600080fd5b813581811115610a3857600080fd5b8660208260051b8501011115610a4d57600080fd5b60209290920196919550909350505050565b60008060008060808587031215610a7557600080fd5b610a7e85610978565b9350610a8c60208601610978565b9250610a9a60408601610978565b9396929550929360600135925050565b600060208284031215610abc57600080fd5b61092e82610978565b634e487b7160e01b600052601160045260246000fd5b80820281158282048414176102bd576102bd610ac5565b600082610b0f57634e487b7160e01b600052601260045260246000fd5b500490565b634e487b7160e01b600052603260045260246000fd5b600060018201610b3c57610b3c610ac5565b5060010190565b60005b83811015610b5e578181015183820152602001610b46565b50506000910152565b7f416363657373436f6e74726f6c3a206163636f756e7420000000000000000000815260008351610b9f816017850160208801610b43565b7001034b99036b4b9b9b4b733903937b6329607d1b6017918401918201528351610bd0816028840160208801610b43565b01602801949350505050565b6020815260008251806020840152610bfb816040850160208701610b43565b601f01601f19169190910160400192915050565b808201808211156102bd576102bd610ac5565b634e487b7160e01b600052604160045260246000fd5b600081610c4757610c47610ac5565b50600019019056fea49807205ce4d355092ef5a8a18f56e8913cf4a201fbe287825b095693c21775a2646970667358221220d509ca229c8fdc33973e76145a4403afa7a4d5b886b387763af66c9208d9335f64736f6c63430008110033",
    "linkReferences": {}
  },
  "methodIdentifiers": {
    "ADMIN_ROLE()": "75b238fc",
    "DEFAULT_ADMIN_ROLE()": "a217fddf",
    "getRoleAdmin(bytes32)": "248a9ca3",
    "grantRole(bytes32,address)": "2f2ff15d",
    "hasRole(bytes32,address)": "91d14854",
    "renounceRole(bytes32,address)": "36568abe",
    "revokeRole(bytes32,address)": "d547741f",
    "royaltyFeeInfoCollection(address)": "e31ef91c",
    "royaltyFeeLimit()": "4fb7d3f9",
    "royaltyInfo(address,uint256)": "2782d6c7",
    "setAllowList(address[])": "6447c35d",
    "supportsInterface(bytes4)": "01ffc9a7",
    "updateRoyaltyFeeLimit(uint256)": "b9223c9d",
    "updateRoyaltyInfoForCollection(address,address,address,uint256)": "bbdf9b68"
  },
  "id": 59
}