{
  "abi": [
    {
      "inputs": [
        {
          "internalType": "string",
          "name": "_name",
          "type": "string"
        },
        {
          "internalType": "string",
          "name": "_symbol",
          "type": "string"
        },
        {
          "internalType": "uint256",
          "name": "_cap",
          "type": "uint256"
        },
        {
          "internalType": "address",
          "name": "_lzEndpoint",
          "type": "address"
        }
      ],
      "stateMutability": "nonpayable",
      "type": "constructor"
    },
    {
      "anonymous": false,
      "inputs": [
        {
          "indexed": true,
          "internalType": "address",
          "name": "owner",
          "type": "address"
        },
        {
          "indexed": true,
          "internalType": "address",
          "name": "spender",
          "type": "address"
        },
        {
          "indexed": false,
          "internalType": "uint256",
          "name": "value",
          "type": "uint256"
        }
      ],
      "name": "Approval",
      "type": "event"
    },
    {
      "anonymous": false,
      "inputs": [
        {
          "indexed": false,
          "internalType": "uint16",
          "name": "_srcChainId",
          "type": "uint16"
        },
        {
          "indexed": false,
          "internalType": "bytes",
          "name": "_srcAddress",
          "type": "bytes"
        },
        {
          "indexed": false,
          "internalType": "uint64",
          "name": "_nonce",
          "type": "uint64"
        },
        {
          "indexed": false,
          "internalType": "bytes",
          "name": "_payload",
          "type": "bytes"
        }
      ],
      "name": "MessageFailed",
      "type": "event"
    },
    {
      "anonymous": false,
      "inputs": [
        {
          "indexed": true,
          "internalType": "address",
          "name": "previousOwner",
          "type": "address"
        },
        {
          "indexed": true,
          "internalType": "address",
          "name": "newOwner",
          "type": "address"
        }
      ],
      "name": "OwnershipTransferred",
      "type": "event"
    },
    {
      "anonymous": false,
      "inputs": [
        {
          "indexed": true,
          "internalType": "uint16",
          "name": "_srcChainId",
          "type": "uint16"
        },
        {
          "indexed": true,
          "internalType": "bytes",
          "name": "_srcAddress",
          "type": "bytes"
        },
        {
          "indexed": true,
          "internalType": "address",
          "name": "_toAddress",
          "type": "address"
        },
        {
          "indexed": false,
          "internalType": "uint256",
          "name": "_amount",
          "type": "uint256"
        },
        {
          "indexed": false,
          "internalType": "uint64",
          "name": "_nonce",
          "type": "uint64"
        }
      ],
      "name": "ReceiveFromChain",
      "type": "event"
    },
    {
      "anonymous": false,
      "inputs": [
        {
          "indexed": true,
          "internalType": "address",
          "name": "_sender",
          "type": "address"
        },
        {
          "indexed": true,
          "internalType": "uint16",
          "name": "_dstChainId",
          "type": "uint16"
        },
        {
          "indexed": true,
          "internalType": "bytes",
          "name": "_toAddress",
          "type": "bytes"
        },
        {
          "indexed": false,
          "internalType": "uint256",
          "name": "_amount",
          "type": "uint256"
        },
        {
          "indexed": false,
          "internalType": "uint64",
          "name": "_nonce",
          "type": "uint64"
        }
      ],
      "name": "SendToChain",
      "type": "event"
    },
    {
      "anonymous": false,
      "inputs": [
        {
          "indexed": false,
          "internalType": "uint16",
          "name": "_dstChainId",
          "type": "uint16"
        },
        {
          "indexed": false,
          "internalType": "uint16",
          "name": "_type",
          "type": "uint16"
        },
        {
          "indexed": false,
          "internalType": "uint256",
          "name": "_minDstGas",
          "type": "uint256"
        }
      ],
      "name": "SetMinDstGas",
      "type": "event"
    },
    {
      "anonymous": false,
      "inputs": [
        {
          "indexed": false,
          "internalType": "address",
          "name": "precrime",
          "type": "address"
        }
      ],
      "name": "SetPrecrime",
      "type": "event"
    },
    {
      "anonymous": false,
      "inputs": [
        {
          "indexed": false,
          "internalType": "uint16",
          "name": "_remoteChainId",
          "type": "uint16"
        },
        {
          "indexed": false,
          "internalType": "bytes",
          "name": "_path",
          "type": "bytes"
        }
      ],
      "name": "SetTrustedRemote",
      "type": "event"
    },
    {
      "anonymous": false,
      "inputs": [
        {
          "indexed": false,
          "internalType": "uint16",
          "name": "_remoteChainId",
          "type": "uint16"
        },
        {
          "indexed": false,
          "internalType": "bytes",
          "name": "_remoteAddress",
          "type": "bytes"
        }
      ],
      "name": "SetTrustedRemoteAddress",
      "type": "event"
    },
    {
      "anonymous": false,
      "inputs": [
        {
          "indexed": true,
          "internalType": "address",
          "name": "from",
          "type": "address"
        },
        {
          "indexed": true,
          "internalType": "address",
          "name": "to",
          "type": "address"
        },
        {
          "indexed": false,
          "internalType": "uint256",
          "name": "value",
          "type": "uint256"
        }
      ],
      "name": "Transfer",
      "type": "event"
    },
    {
      "inputs": [
        {
          "internalType": "address",
          "name": "owner",
          "type": "address"
        },
        {
          "internalType": "address",
          "name": "spender",
          "type": "address"
        }
      ],
      "name": "allowance",
      "outputs": [
        {
          "internalType": "uint256",
          "name": "",
          "type": "uint256"
        }
      ],
      "stateMutability": "view",
      "type": "function"
    },
    {
      "inputs": [
        {
          "internalType": "address",
          "name": "spender",
          "type": "address"
        },
        {
          "internalType": "uint256",
          "name": "amount",
          "type": "uint256"
        }
      ],
      "name": "approve",
      "outputs": [
        {
          "internalType": "bool",
          "name": "",
          "type": "bool"
        }
      ],
      "stateMutability": "nonpayable",
      "type": "function"
    },
    {
      "inputs": [
        {
          "internalType": "address",
          "name": "account",
          "type": "address"
        }
      ],
      "name": "balanceOf",
      "outputs": [
        {
          "internalType": "uint256",
          "name": "",
          "type": "uint256"
        }
      ],
      "stateMutability": "view",
      "type": "function"
    },
    {
      "inputs": [],
      "name": "cap",
      "outputs": [
        {
          "internalType": "uint256",
          "name": "",
          "type": "uint256"
        }
      ],
      "stateMutability": "view",
      "type": "function"
    },
    {
      "inputs": [],
      "name": "circulatingSupply",
      "outputs": [
        {
          "internalType": "uint256",
          "name": "",
          "type": "uint256"
        }
      ],
      "stateMutability": "view",
      "type": "function"
    },
    {
      "inputs": [],
      "name": "decimals",
      "outputs": [
        {
          "internalType": "uint8",
          "name": "",
          "type": "uint8"
        }
      ],
      "stateMutability": "view",
      "type": "function"
    },
    {
      "inputs": [
        {
          "internalType": "address",
          "name": "spender",
          "type": "address"
        },
        {
          "internalType": "uint256",
          "name": "subtractedValue",
          "type": "uint256"
        }
      ],
      "name": "decreaseAllowance",
      "outputs": [
        {
          "internalType": "bool",
          "name": "",
          "type": "bool"
        }
      ],
      "stateMutability": "nonpayable",
      "type": "function"
    },
    {
      "inputs": [
        {
          "internalType": "uint16",
          "name": "_dstChainId",
          "type": "uint16"
        },
        {
          "internalType": "bytes",
          "name": "_toAddress",
          "type": "bytes"
        },
        {
          "internalType": "uint256",
          "name": "_amount",
          "type": "uint256"
        },
        {
          "internalType": "bool",
          "name": "_useZro",
          "type": "bool"
        },
        {
          "internalType": "bytes",
          "name": "_adapterParams",
          "type": "bytes"
        },
        {
          "internalType": "bytes",
          "name": "_payload",
          "type": "bytes"
        }
      ],
      "name": "estimateSendFee",
      "outputs": [
        {
          "internalType": "uint256",
          "name": "nativeFee",
          "type": "uint256"
        },
        {
          "internalType": "uint256",
          "name": "zroFee",
          "type": "uint256"
        }
      ],
      "stateMutability": "view",
      "type": "function"
    },
    {
      "inputs": [
        {
          "internalType": "uint16",
          "name": "",
          "type": "uint16"
        },
        {
          "internalType": "bytes",
          "name": "",
          "type": "bytes"
        },
        {
          "internalType": "uint256",
          "name": "",
          "type": "uint256"
        }
      ],
      "name": "failedMessages",
      "outputs": [
        {
          "internalType": "bytes32",
          "name": "",
          "type": "bytes32"
        }
      ],
      "stateMutability": "view",
      "type": "function"
    },
    {
      "inputs": [
        {
          "internalType": "uint16",
          "name": "_srcChainId",
          "type": "uint16"
        },
        {
          "internalType": "bytes",
          "name": "_srcAddress",
          "type": "bytes"
        }
      ],
      "name": "forceResumeReceive",
      "outputs": [],
      "stateMutability": "nonpayable",
      "type": "function"
    },
    {
      "inputs": [
        {
          "internalType": "uint16",
          "name": "_version",
          "type": "uint16"
        },
        {
          "internalType": "uint16",
          "name": "_chainId",
          "type": "uint16"
        },
        {
          "internalType": "address",
          "name": "",
          "type": "address"
        },
        {
          "internalType": "uint256",
          "name": "_configType",
          "type": "uint256"
        }
      ],
      "name": "getConfig",
      "outputs": [
        {
          "internalType": "bytes",
          "name": "",
          "type": "bytes"
        }
      ],
      "stateMutability": "view",
      "type": "function"
    },
    {
      "inputs": [
        {
          "internalType": "uint16",
          "name": "_remoteChainId",
          "type": "uint16"
        }
      ],
      "name": "getTrustedRemoteAddress",
      "outputs": [
        {
          "internalType": "bytes",
          "name": "",
          "type": "bytes"
        }
      ],
      "stateMutability": "view",
      "type": "function"
    },
    {
      "inputs": [
        {
          "internalType": "address",
          "name": "spender",
          "type": "address"
        },
        {
          "internalType": "uint256",
          "name": "addedValue",
          "type": "uint256"
        }
      ],
      "name": "increaseAllowance",
      "outputs": [
        {
          "internalType": "bool",
          "name": "",
          "type": "bool"
        }
      ],
      "stateMutability": "nonpayable",
      "type": "function"
    },
    {
      "inputs": [
        {
          "internalType": "uint16",
          "name": "_srcChainId",
          "type": "uint16"
        },
        {
          "internalType": "bytes",
          "name": "_srcAddress",
          "type": "bytes"
        }
      ],
      "name": "isTrustedRemote",
      "outputs": [
        {
          "internalType": "bool",
          "name": "",
          "type": "bool"
        }
      ],
      "stateMutability": "view",
      "type": "function"
    },
    {
      "inputs": [],
      "name": "lzEndpoint",
      "outputs": [
        {
          "internalType": "contract ILayerZeroEndpoint",
          "name": "",
          "type": "address"
        }
      ],
      "stateMutability": "view",
      "type": "function"
    },
    {
      "inputs": [
        {
          "internalType": "uint16",
          "name": "_srcChainId",
          "type": "uint16"
        },
        {
          "internalType": "bytes",
          "name": "_srcAddress",
          "type": "bytes"
        },
        {
          "internalType": "uint64",
          "name": "_nonce",
          "type": "uint64"
        },
        {
          "internalType": "bytes",
          "name": "_payload",
          "type": "bytes"
        }
      ],
      "name": "lzReceive",
      "outputs": [],
      "stateMutability": "nonpayable",
      "type": "function"
    },
    {
      "inputs": [
        {
          "internalType": "uint16",
          "name": "",
          "type": "uint16"
        },
        {
          "internalType": "uint16",
          "name": "",
          "type": "uint16"
        }
      ],
      "name": "minDstGasLookup",
      "outputs": [
        {
          "internalType": "uint256",
          "name": "",
          "type": "uint256"
        }
      ],
      "stateMutability": "view",
      "type": "function"
    },
    {
      "inputs": [],
      "name": "name",
      "outputs": [
        {
          "internalType": "string",
          "name": "",
          "type": "string"
        }
      ],
      "stateMutability": "view",
      "type": "function"
    },
    {
      "inputs": [
        {
          "internalType": "uint16",
          "name": "_srcChainId",
          "type": "uint16"
        },
        {
          "internalType": "bytes",
          "name": "_srcAddress",
          "type": "bytes"
        },
        {
          "internalType": "uint64",
          "name": "_nonce",
          "type": "uint64"
        },
        {
          "internalType": "bytes",
          "name": "_payload",
          "type": "bytes"
        }
      ],
      "name": "nonblockingLzReceive",
      "outputs": [],
      "stateMutability": "nonpayable",
      "type": "function"
    },
    {
      "inputs": [],
      "name": "owner",
      "outputs": [
        {
          "internalType": "address",
          "name": "",
          "type": "address"
        }
      ],
      "stateMutability": "view",
      "type": "function"
    },
    {
      "inputs": [],
      "name": "precrime",
      "outputs": [
        {
          "internalType": "address",
          "name": "",
          "type": "address"
        }
      ],
      "stateMutability": "view",
      "type": "function"
    },
    {
      "inputs": [],
      "name": "renounceOwnership",
      "outputs": [],
      "stateMutability": "nonpayable",
      "type": "function"
    },
    {
      "inputs": [
        {
          "internalType": "uint16",
          "name": "_srcChainId",
          "type": "uint16"
        },
        {
          "internalType": "bytes",
          "name": "_srcAddress",
          "type": "bytes"
        },
        {
          "internalType": "uint64",
          "name": "_nonce",
          "type": "uint64"
        },
        {
          "internalType": "bytes",
          "name": "_payload",
          "type": "bytes"
        }
      ],
      "name": "retryMessage",
      "outputs": [],
      "stateMutability": "payable",
      "type": "function"
    },
    {
      "inputs": [
        {
          "internalType": "address",
          "name": "_from",
          "type": "address"
        },
        {
          "internalType": "uint16",
          "name": "_dstChainId",
          "type": "uint16"
        },
        {
          "internalType": "bytes",
          "name": "_toAddress",
          "type": "bytes"
        },
        {
          "internalType": "uint256",
          "name": "_amount",
          "type": "uint256"
        },
        {
          "internalType": "address payable",
          "name": "_refundAddress",
          "type": "address"
        },
        {
          "internalType": "address",
          "name": "_zroPaymentAddress",
          "type": "address"
        },
        {
          "internalType": "bytes",
          "name": "_adapterParams",
          "type": "bytes"
        },
        {
          "internalType": "bytes",
          "name": "_payload",
          "type": "bytes"
        }
      ],
      "name": "sendFrom",
      "outputs": [],
      "stateMutability": "payable",
      "type": "function"
    },
    {
      "inputs": [
        {
          "internalType": "uint16",
          "name": "_version",
          "type": "uint16"
        },
        {
          "internalType": "uint16",
          "name": "_chainId",
          "type": "uint16"
        },
        {
          "internalType": "uint256",
          "name": "_configType",
          "type": "uint256"
        },
        {
          "internalType": "bytes",
          "name": "_config",
          "type": "bytes"
        }
      ],
      "name": "setConfig",
      "outputs": [],
      "stateMutability": "nonpayable",
      "type": "function"
    },
    {
      "inputs": [
        {
          "internalType": "uint16",
          "name": "_dstChainId",
          "type": "uint16"
        },
        {
          "internalType": "uint16",
          "name": "_packetType",
          "type": "uint16"
        },
        {
          "internalType": "uint256",
          "name": "_minGas",
          "type": "uint256"
        }
      ],
      "name": "setMinDstGas",
      "outputs": [],
      "stateMutability": "nonpayable",
      "type": "function"
    },
    {
      "inputs": [
        {
          "internalType": "address",
          "name": "_precrime",
          "type": "address"
        }
      ],
      "name": "setPrecrime",
      "outputs": [],
      "stateMutability": "nonpayable",
      "type": "function"
    },
    {
      "inputs": [
        {
          "internalType": "uint16",
          "name": "_version",
          "type": "uint16"
        }
      ],
      "name": "setReceiveVersion",
      "outputs": [],
      "stateMutability": "nonpayable",
      "type": "function"
    },
    {
      "inputs": [
        {
          "internalType": "uint16",
          "name": "_version",
          "type": "uint16"
        }
      ],
      "name": "setSendVersion",
      "outputs": [],
      "stateMutability": "nonpayable",
      "type": "function"
    },
    {
      "inputs": [
        {
          "internalType": "uint16",
          "name": "_srcChainId",
          "type": "uint16"
        },
        {
          "internalType": "bytes",
          "name": "_path",
          "type": "bytes"
        }
      ],
      "name": "setTrustedRemote",
      "outputs": [],
      "stateMutability": "nonpayable",
      "type": "function"
    },
    {
      "inputs": [
        {
          "internalType": "uint16",
          "name": "_remoteChainId",
          "type": "uint16"
        },
        {
          "internalType": "bytes",
          "name": "_remoteAddress",
          "type": "bytes"
        }
      ],
      "name": "setTrustedRemoteAddress",
      "outputs": [],
      "stateMutability": "nonpayable",
      "type": "function"
    },
    {
      "inputs": [
        {
          "internalType": "bytes4",
          "name": "interfaceId",
          "type": "bytes4"
        }
      ],
      "name": "supportsInterface",
      "outputs": [
        {
          "internalType": "bool",
          "name": "",
          "type": "bool"
        }
      ],
      "stateMutability": "view",
      "type": "function"
    },
    {
      "inputs": [],
      "name": "symbol",
      "outputs": [
        {
          "internalType": "string",
          "name": "",
          "type": "string"
        }
      ],
      "stateMutability": "view",
      "type": "function"
    },
    {
      "inputs": [],
      "name": "totalSupply",
      "outputs": [
        {
          "internalType": "uint256",
          "name": "",
          "type": "uint256"
        }
      ],
      "stateMutability": "view",
      "type": "function"
    },
    {
      "inputs": [
        {
          "internalType": "address",
          "name": "to",
          "type": "address"
        },
        {
          "internalType": "uint256",
          "name": "amount",
          "type": "uint256"
        }
      ],
      "name": "transfer",
      "outputs": [
        {
          "internalType": "bool",
          "name": "",
          "type": "bool"
        }
      ],
      "stateMutability": "nonpayable",
      "type": "function"
    },
    {
      "inputs": [
        {
          "internalType": "address",
          "name": "from",
          "type": "address"
        },
        {
          "internalType": "address",
          "name": "to",
          "type": "address"
        },
        {
          "internalType": "uint256",
          "name": "amount",
          "type": "uint256"
        }
      ],
      "name": "transferFrom",
      "outputs": [
        {
          "internalType": "bool",
          "name": "",
          "type": "bool"
        }
      ],
      "stateMutability": "nonpayable",
      "type": "function"
    },
    {
      "inputs": [
        {
          "internalType": "address",
          "name": "newOwner",
          "type": "address"
        }
      ],
      "name": "transferOwnership",
      "outputs": [],
      "stateMutability": "nonpayable",
      "type": "function"
    },
    {
      "inputs": [
        {
          "internalType": "uint16",
          "name": "",
          "type": "uint16"
        }
      ],
      "name": "trustedRemoteLookup",
      "outputs": [
        {
          "internalType": "bytes",
          "name": "",
          "type": "bytes"
        }
      ],
      "stateMutability": "view",
      "type": "function"
    }
  ],
  "bytecode": {
    "object": "0x60c0604052346200040a5762002eb5803803806200001d816200040f565b92833981016080828203126200040a5781516001600160401b03908181116200040a57826200004e9185016200044b565b9060209283850151908282116200040a576200006c9186016200044b565b60408501516060909501516001600160a01b039190828116908190036200040a5760008054336001600160a01b03198216811783559194167f8be0079c531659141344cd1fd0a4f28419497f9722a3daafe3b4186f6b6457e08580a36080528351918383116200031157600854926001958685811c95168015620003ff575b88861014620003eb578190601f9586811162000397575b5088908683116001146200033157849262000325575b5050600019600383901b1c191690861b176008555b815193841162000311576009548581811c9116801562000306575b87821014620002f257838111620002a9575b508592841160011462000243579183949184939462000237575b50501b916000199060031b1c1916176009555b8115620001f3575060a0526040516129f79081620004be82396080518181816103d9015281816106da0152818161093901528181610b77015281816115510152818161165f01528181611bdb015281816121c1015281816122d201526124ce015260a05181610a260152f35b6064906040519062461bcd60e51b82526004820152601560248201527f45524332304361707065643a20636170206973203000000000000000000000006044820152fd5b01519250388062000174565b919083601f19811660098552878520945b888883831062000291575050501062000277575b505050811b0160095562000187565b015160001960f88460031b161c1916905538808062000268565b86860151885590960195948501948793500162000254565b600982528682208480870160051c820192898810620002e8575b0160051c019086905b828110620002dc5750506200015a565b838155018690620002cc565b92508192620002c3565b634e487b7160e01b82526022600452602482fd5b90607f169062000148565b634e487b7160e01b81526041600452602490fd5b01519050388062000118565b600885528985208994509190601f198416865b8c82821062000380575050841162000366575b505050811b016008556200012d565b015160001960f88460031b161c1916905538808062000357565b8385015186558c9790950194938401930162000344565b909150600884528884208680850160051c8201928b8610620003e1575b918a91869594930160051c01915b828110620003d257505062000102565b8681558594508a9101620003c2565b92508192620003b4565b634e487b7160e01b83526022600452602483fd5b94607f1694620000eb565b600080fd5b6040519190601f01601f191682016001600160401b038111838210176200043557604052565b634e487b7160e01b600052604160045260246000fd5b919080601f840112156200040a5782516001600160401b038111620004355760209062000481601f8201601f191683016200040f565b928184528282870101116200040a5760005b818110620004a957508260009394955001015290565b85810183015184820184015282016200049356fe60806040526004361015610013575b600080fd5b60003560e01c80621d35671461030a57806301ffc9a71461030157806306fdde03146102f857806307e0db17146102ef578063095ea7b3146102e65780630e506192146102dd57806310ddb137146102d457806318160ddd146102cb57806323b872dd146102c2578063313ce567146102b9578063355274ea146102b057806339509351146102a75780633d8b38f61461029e57806342d65a8d1461029557806366ad5c8a1461028c5780636f7707901461028357806370a082311461027a578063715018a6146102715780637533d788146102685780638cfd8f5c1461025f5780638da5cb5b146102565780638ee749121461024d5780639358928b14610244578063950c8a741461023b57806395d89b41146102325780639f38369a14610229578063a457c2d714610220578063a6c3d16514610217578063a9059cbb1461020e578063b353aaa714610205578063baf3292d146101fc578063cbed8b9c146101f3578063d1deba1f146101ea578063dd62ed3e146101e1578063df2a5b3b146101d8578063eb8d72b7146101cf578063f2fde38b146101c65763f5ecbdbc146101be57600080fd5b61000e611b75565b5061000e611ada565b5061000e611975565b5061000e61187d565b5061000e611822565b5061000e6116fb565b5061000e6115fe565b5061000e611580565b5061000e61153a565b5061000e61150f565b5061000e611371565b5061000e6112b2565b5061000e611212565b5061000e61116a565b5061000e611140565b5061000e611111565b5061000e611079565b5061000e611029565b5061000e610fd5565b5061000e610f81565b5061000e610e34565b5061000e610df6565b5061000e610d5e565b5061000e610bd7565b5061000e610b4a565b5061000e610aed565b5061000e610a49565b5061000e610a0d565b5061000e6109f0565b5061000e6109af565b5061000e610990565b5061000e610905565b5061000e61086a565b5061000e610760565b5061000e6106a6565b5061000e6105c0565b5061000e6104d8565b5061000e610373565b6004359061ffff8216820361000e57565b6024359061ffff8216820361000e57565b9181601f8401121561000e578235916001600160401b03831161000e576020838186019501011161000e57565b6001600160401b0381160361000e57565b503461000e57608036600319011261000e5761038d610313565b6001600160401b039060243582811161000e576103ae903690600401610335565b9290604435916103bd83610362565b60643590811161000e576103d5903690600401610335565b91907f00000000000000000000000000000000000000000000000000000000000000006001600160a01b031633036104935761045661045e926104649761044f6104356104308a61ffff166000526001602052604060002090565b610f64565b8051908184149182610489575b5081610466575b50611c50565b3691610818565b923691610818565b92611f7d565b005b9050610473368486610818565b6020815191012090602081519101201438610449565b1515915038610442565b60405162461bcd60e51b815260206004820152601e60248201527f4c7a4170703a20696e76616c696420656e64706f696e742063616c6c657200006044820152606490fd5b503461000e57602036600319011261000e5760043563ffffffff60e01b811680910361000e578060209115908115610548575b811561051d575b506040519015158152f35b63f27ff48960e01b811491508115610537575b5038610512565b6301ffc9a760e01b14905038610530565b6336372b0760e01b8114915061050b565b600091031261000e57565b60005b8381106105775750506000910152565b8181015183820152602001610567565b906020916105a081518092818552858086019101610564565b601f01601f1916010190565b9060206105bd928181520190610587565b90565b503461000e576000806003193601126106a35760405190806008546105e481610e94565b80855291600191808316908115610679575060011461061e575b61061a8561060e818703826107cd565b604051918291826105ac565b0390f35b9250600883527ff3f7a9fe364faab93b216da50a3214154f22a0a2b415b23a84c8169e8b636ee35b82841061066157505050810160200161060e8261061a6105fe565b80546020858701810191909152909301928101610646565b86955061061a9693506020925061060e94915060ff191682840152151560051b82010192936105fe565b80fd5b503461000e57600060203660031901126106a3576106c2610313565b8160018060a01b036106d8818354163314611d1f565b7f00000000000000000000000000000000000000000000000000000000000000001691823b1561074b57602461ffff918360405195869485936307e0db1760e01b85521660048401525af1801561073e575b610732575080f35b61073b906107ad565b80f35b610746611d12565b61072a565b5080fd5b6001600160a01b0381160361000e57565b503461000e57604036600319011261000e5761078b6004356107818161074f565b60243590336127fe565b602060405160018152f35b50634e487b7160e01b600052604160045260246000fd5b6001600160401b0381116107c057604052565b6107c8610796565b604052565b90601f801991011681019081106001600160401b038211176107c057604052565b6020906001600160401b03811161080b575b601f01601f19160190565b610813610796565b610800565b929192610824826107ee565b9161083260405193846107cd565b82948184528183011161000e578281602093846000960137010152565b9080601f8301121561000e578160206105bd93359101610818565b5061010036600319011261000e576004356108848161074f565b61088c610324565b6001600160401b039160443583811161000e576108ad90369060040161084f565b906084356108ba8161074f565b60a435916108c78361074f565b60c43586811161000e576108df90369060040161084f565b9360e43596871161000e576108fb61046497369060040161084f565b9560643592612239565b503461000e57600060203660031901126106a357610921610313565b8160018060a01b03610937818354163314611d1f565b7f00000000000000000000000000000000000000000000000000000000000000001691823b1561074b57602461ffff918360405195869485936310ddb13760e01b85521660048401525af1801561073e57610732575080f35b503461000e57600036600319011261000e576020600754604051908152f35b503461000e57606036600319011261000e5761078b6004356109d08161074f565b6024356109dc8161074f565b604435916109eb833383612929565b6126dd565b503461000e57600036600319011261000e57602060405160128152f35b503461000e57600036600319011261000e5760206040517f00000000000000000000000000000000000000000000000000000000000000008152f35b503461000e57604036600319011261000e5761078b600435610a6a8161074f565b3360009081526006602090815260408083206001600160a01b0385168452909152902054906024358201809211610aa2575b336127fe565b610aaa611dfa565b610a9c565b90604060031983011261000e5760043561ffff8116810361000e5791602435906001600160401b03821161000e57610ae991600401610335565b9091565b503461000e57602061ffff610b3b610b0436610aaf565b9390911660005260018452610b26610b2d604060002060405192838092610ece565b03826107cd565b848151910120923691610818565b82815191012014604051908152f35b503461000e57610b5936610aaf565b9190600092839160018060a01b03610b75818554163314611d1f565b7f00000000000000000000000000000000000000000000000000000000000000001690813b15610bd35783610bc195604051968795869485936342d65a8d60e01b855260048501611d8b565b03925af1801561073e57610732575080f35b8380fd5b503461000e57608036600319011261000e57610bf1610313565b6001600160401b0360243581811161000e57610c1190369060040161084f565b60443591610c1e83610362565b60643590811161000e57610c3690369060040161084f565b90303303610d1a57610c538260208060149551830101910161237c565b919390930151610c6384826125d8565b6001600160a01b031694853b1561000e57610cfc610cd784866000898b7f64e10c37f404d128982dce114f5d233c14c5c7f6d8db93099e3d99dacb9e27ba998389610cc861ffff9c604051988997889687956331d97a6560e21b8752600487016123c4565b03925af1610d01575b50612408565b956040519384931695839092916001600160401b036020916040840195845216910152565b0390a4005b80610d0e610d14926107ad565b80610559565b38610cd1565b606460405162461bcd60e51b815260206004820152602060248201527f4c7a52656365697665723a2063616c6c6572206d757374206265204c7a4170706044820152fd5b503461000e5760c036600319011261000e57610d78610313565b6001600160401b039060243582811161000e57610d9990369060040161084f565b90606435801515810361000e5760843584811161000e57610dbe90369060040161084f565b9160a43594851161000e57610dda610de495369060040161084f565b9360443591612142565b60408051928352602083019190915290f35b503461000e57602036600319011261000e57600435610e148161074f565b60018060a01b031660005260056020526020604060002054604051908152f35b503461000e576000806003193601126106a357805481906001600160a01b03811690610e61338314611d1f565b6001600160a01b03191682557f8be0079c531659141344cd1fd0a4f28419497f9722a3daafe3b4186f6b6457e08280a380f35b90600182811c92168015610ec4575b6020831014610eae57565b634e487b7160e01b600052602260045260246000fd5b91607f1691610ea3565b9060009291805491610edf83610e94565b918282526001938481169081600014610f415750600114610f01575b50505050565b90919394506000526020928360002092846000945b838610610f2d575050505001019038808080610efb565b805485870183015294019385908201610f16565b9294505050602093945060ff191683830152151560051b01019038808080610efb565b90610f7f610f789260405193848092610ece565b03836107cd565b565b503461000e57602036600319011261000e5761ffff610f9e610313565b16600052600160205261061a610b26610fc1604060002060405192838092610ece565b604051918291602083526020830190610587565b503461000e57604036600319011261000e576020611020610ff4610313565b61ffff610fff610324565b91166000526002835260406000209061ffff16600052602052604060002090565b54604051908152f35b503461000e57600036600319011261000e576000546040516001600160a01b039091168152602090f35b60209061106d928260405194838680955193849201610564565b82019081520301902090565b503461000e57606036600319011261000e57611093610313565b6024356001600160401b03811161000e5761061a9161ffff6110bc61110093369060040161084f565b9116600052600460205260406000209060206110e16040519283815193849201610564565b8101918252602081604435930301902090600052602052604060002090565b546040519081529081906020820190565b503461000e57600036600319011261000e57602060075430600052600582526040600020549003604051908152f35b503461000e57600036600319011261000e576003546040516001600160a01b039091168152602090f35b503461000e576000806003193601126106a357604051908060095461118e81610e94565b8085529160019180831690811561067957506001146111b75761061a8561060e818703826107cd565b9250600983527f6e1540171b6c0c960b71a7020d9f60077f6af931a8bbf590da0223dacf75c7af5b8284106111fa57505050810160200161060e8261061a6105fe565b805460208587018101919091529093019281016111df565b503461000e57602036600319011261000e5761ffff61122f610313565b166000526001602052610b2661124f604060002060405192838092610ece565b80511561126d5761060e8161126761061a9351611e11565b90611ec0565b60405162461bcd60e51b815260206004820152601d60248201527f4c7a4170703a206e6f20747275737465642070617468207265636f72640000006044820152606490fd5b503461000e57604036600319011261000e576004356112d08161074f565b602435903360005260066020526112fd8160406000209060018060a01b0316600052602052604060002090565b549180831061131e57611312920390336127fe565b60405160018152602090f35b60405162461bcd60e51b815260206004820152602560248201527f45524332303a2064656372656173656420616c6c6f77616e63652062656c6f77604482015264207a65726f60d81b6064820152608490fd5b503461000e5761138036610aaf565b919060009161139960018060a01b038454163314611d1f565b6040519360208184828801376113c46034878481013060601b858201520360148101895201876107cd565b61ffff8316855260019081815260408620918751916001600160401b038311611502575b6113fc836113f68654610e94565b86611da6565b80601f841160011461146c57509180809261145b9695948a9b7f8c0400cfe2d1199b1a725c78960bcc2a344d869b80590d0f2bd005db15a572ce9b94611461575b50501b916000199060031b1c19161790555b60405193849384611d8b565b0390a180f35b01519250388061143d565b91939498601f19841661148487600052602060002090565b938a905b8282106114eb575050917f8c0400cfe2d1199b1a725c78960bcc2a344d869b80590d0f2bd005db15a572ce999a9593918561145b989694106114d2575b505050811b01905561144f565b015160001960f88460031b161c191690553880806114c5565b808886978294978701518155019601940190611488565b61150a610796565b6113e8565b503461000e57604036600319011261000e5761078b6004356115308161074f565b60243590336126dd565b503461000e57600036600319011261000e576040517f00000000000000000000000000000000000000000000000000000000000000006001600160a01b03168152602090f35b503461000e57602036600319011261000e577f5db758e995a17ec1ad84bdef7e8c3293a0bd6179bcce400dff5d4c3d87db726b60206004356115c18161074f565b6000546001600160a01b0391906115db9083163314611d1f565b16806bffffffffffffffffffffffff60a01b6003541617600355604051908152a1005b503461000e57608036600319011261000e57611618610313565b611620610324565b6064356001600160401b03811161000e5761163f903690600401610335565b60018060a09493941b03916000948361165d87958654163314611d1f565b7f00000000000000000000000000000000000000000000000000000000000000001691823b156116f75784906116ca604051978896879586946332fb62e760e21b865261ffff80921660048701521660248501526044356044850152608060648501526084840191611d6a565b03925af180156116ea575b6116dd575080f35b80610d0e61073b926107ad565b6116f2611d12565b6116d5565b8480fd5b50608036600319011261000e57611710610313565b6001600160401b0360243581811161000e5761173090369060040161084f565b6044359161173d83610362565b60643590811161000e57611755903690600401610335565b9190936117bc6117988561178061177a8561ffff166000526004602052604060002090565b86611053565b906001600160401b0316600052602052604060002090565b546117a481151561202c565b6117af368689610818565b6020815191012014612078565b6000948593846117e7876117806117e18761ffff166000526004602052604060002090565b88611053565b55303b156116f75761180e916040519687958695633356ae4560e11b8752600487016120c4565b038183305af180156116ea576116dd575080f35b503461000e57604036600319011261000e5760206110206004356118458161074f565b602435906118528261074f565b60018060a01b03166000526006835260406000209060018060a01b0316600052602052604060002090565b503461000e57606036600319011261000e57611897610313565b61189f610324565b604435916118b860018060a01b03600054163314611d1f565b8215611938576119337f9d5c7c0b934da8fefa9c7760c98383778a12dfbfc0c3b3106518f43fb9508ac09361ffff831660005260026020528061190d8560406000209061ffff16600052602052604060002090565b556040519384938460409194939294606082019561ffff80921683521660208201520152565b0390a1005b60405162461bcd60e51b81526020600482015260156024820152744c7a4170703a20696e76616c6964206d696e47617360581b6044820152606490fd5b503461000e5761198436610aaf565b919060009161199d60018060a01b038454163314611d1f565b61ffff81168352600160209080825260408520916001600160401b038711611acd575b6119d4876119ce8554610e94565b85611da6565b8590601f8811600114611a3b575091868087989361145b957ffa41487ad5d6728f0b19276fa1eddc16558578f5109fc39d2dc33c3230470dab9993611a30575b501b906000198460031b1c191617905560405193849384611d8b565b880135925038611a14565b90601f198816611a5085600052602060002090565b9288905b828210611ab6575050918893917ffa41487ad5d6728f0b19276fa1eddc16558578f5109fc39d2dc33c3230470dab989961145b969410611a9c575b505082811b01905561144f565b870135600019600386901b60f8161c191690553880611a8f565b808685968294968c01358155019501930190611a54565b611ad5610796565b6119c0565b503461000e57602036600319011261000e57600435611af88161074f565b6000546001600160a01b0390611b119082163314611d1f565b811615611b2157610464906125e3565b60405162461bcd60e51b815260206004820152602660248201527f4f776e61626c653a206e6577206f776e657220697320746865207a65726f206160448201526564647265737360d01b6064820152608490fd5b503461000e57608036600319011261000e5761061a611b92610313565b611b9a610324565b90611ba660443561074f565b604051633d7b2f6f60e21b815261ffff91821660048201529116602482015230604482015260648035908201526000816084817f00000000000000000000000000000000000000000000000000000000000000006001600160a01b03165afa908115611c43575b600091611c22575b50604051918291826105ac565b611c3d913d8091833e611c3581836107cd565b810190611ced565b38611c15565b611c4b611d12565b611c0d565b15611c5757565b60405162461bcd60e51b815260206004820152602660248201527f4c7a4170703a20696e76616c696420736f757263652073656e64696e6720636f6044820152651b9d1c9858dd60d21b6064820152608490fd5b81601f8201121561000e578051611cc1816107ee565b92611ccf60405194856107cd565b8184526020828401011161000e576105bd9160208085019101610564565b9060208282031261000e5781516001600160401b03811161000e576105bd9201611cab565b506040513d6000823e3d90fd5b15611d2657565b606460405162461bcd60e51b815260206004820152602060248201527f4f776e61626c653a2063616c6c6572206973206e6f7420746865206f776e65726044820152fd5b908060209392818452848401376000828201840152601f01601f1916010190565b60409061ffff6105bd95931681528160208201520191611d6a565b90601f8111611db457505050565b600091825260208220906020601f850160051c83019410611df0575b601f0160051c01915b828110611de557505050565b818155600101611dd9565b9092508290611dd0565b50634e487b7160e01b600052601160045260246000fd5b601319810191908211611e2057565b610f7f611dfa565b90601f8201809211611e2057565b91908201809211611e2057565b15611e4a57565b60405162461bcd60e51b815260206004820152600e60248201526d736c6963655f6f766572666c6f7760901b6044820152606490fd5b15611e8757565b60405162461bcd60e51b8152602060048201526011602482015270736c6963655f6f75744f66426f756e647360781b6044820152606490fd5b611ed482611ecd81611e28565b1015611e43565b611ee18282511015611e80565b81611ef9575050604051600081526020810160405290565b60405191601f811691821560051b808486010193838501920101905b808410611f2d5750508252601f01601f191660405290565b9092835181526020809101930190611f15565b90611f696105bd959361ffff6001600160401b0393168452608060208501526080840190610587565b931660408201526060818403910152610587565b9091303b1561000e57604051633356ae4560e11b815260008180611fa78886898960048601611f40565b038183305af1908161201d575b50610efb5783612018917fe6f254030bcb01ffd20558175c13fcaed6d1520be7becee4c961b65f79243b0d9551602083012061200b826117806120058861ffff166000526004602052604060002090565b89611053565b5560405194859485611f40565b0390a1565b612026906107ad565b38611fb4565b1561203357565b60405162461bcd60e51b815260206004820152601d60248201527f4c7a52656365697665723a206e6f2073746f726564206d6573736167650000006044820152606490fd5b1561207f57565b60405162461bcd60e51b815260206004820152601b60248201527f4c7a52656365697665723a20696e76616c6964207061796c6f616400000000006044820152606490fd5b906120ef6105bd9694959361ffff6001600160401b0393168452608060208501526080840190610587565b941660408201526060818503910152611d6a565b6121196105bd9492606083526060830190610587565b9260208201526040818403910152610587565b919082604091031261000e576020825192015190565b919594926040946121736121bd9361216561ffff9789519b8c9360208501612103565b03601f1981018a52896107cd565b6121a48651988996879663040a7bb160e41b885216600487015230602487015260a0604487015260a4860190610587565b9115156064850152838203600319016084850152610587565b03817f00000000000000000000000000000000000000000000000000000000000000006001600160a01b03165afa91821561222c575b600090819361220157509190565b9050610ae991925060403d8111612225575b61221d81836107cd565b81019061212c565b503d612213565b612234611d12565b6121f3565b959261ffff9381967f024797cc77ce15dc717112d54fb1df125fdfd8c81344fb046c5e074427ce1543966122978661228961229f97989d61227a888f6125ab565b60405197889360208501612103565b03601f1981018652856107cd565b349386612495565b604051630f428ae960e31b815261ffff821660048201523060248201526001600160a01b039661233691906020826044817f00000000000000000000000000000000000000000000000000000000000000008d165afa91821561236f575b60009261233b575b5061230f90612408565b9760405194859416971695839092916001600160401b036020916040840195845216910152565b0390a4565b61230f9192506123619060203d8111612368575b61235981836107cd565b810190612428565b9190612305565b503d61234f565b612377611d12565b6122fd565b909160608284031261000e578151916001600160401b039283811161000e57846123a7918301611cab565b93602082015193604083015190811161000e576105bd9201611cab565b916123ef6001600160401b039161ffff6105bd9896979416855260a0602086015260a0850190610587565b9416604083015260608201526080818403910152610587565b61242090602060405192828480945193849201610564565b810103902090565b9081602091031261000e57516105bd81610362565b926124626105bd97959361ffff6124709416865260c0602087015260c0860190610587565b908482036040860152610587565b6001600160a01b0391821660608401529316608082015280830360a090910152610587565b946124be9193929561ffff811660005260016020526124c5604060002060405194858092610ece565b03846107cd565b82511561254d577f00000000000000000000000000000000000000000000000000000000000000006001600160a01b031693843b1561000e5760009661252191604051998a988997889662c5803160e81b88526004880161243d565b03925af18015612540575b6125335750565b80610d0e610f7f926107ad565b612548611d12565b61252c565b60405162461bcd60e51b815260206004820152603060248201527f4c7a4170703a2064657374696e6174696f6e20636861696e206973206e6f742060448201526f61207472757374656420736f7572636560801b6064820152608490fd5b610f7f9190336001600160a01b038216036125c8575b30906126dd565b6125d3823383612929565b6125c1565b90610f7f91306126dd565b600080546001600160a01b039283166001600160a01b03198216811783559216907f8be0079c531659141344cd1fd0a4f28419497f9722a3daafe3b4186f6b6457e09080a3565b1561263157565b60405162461bcd60e51b815260206004820152602360248201527f45524332303a207472616e7366657220746f20746865207a65726f206164647260448201526265737360e81b6064820152608490fd5b1561268957565b60405162461bcd60e51b815260206004820152602660248201527f45524332303a207472616e7366657220616d6f756e7420657863656564732062604482015265616c616e636560d01b6064820152608490fd5b916001600160a01b0380841692909183156127ab57612789827fddf252ad1be2c89b69c2b068fc378daa952ba7f163c4a11628f55a4df523b3ef946127a694169661272988151561262a565b6001600160a01b038116600090815260056020526040902061276e9085905461275482821015612682565b039160018060a01b03166000526005602052604060002090565b556001600160a01b0316600090815260056020526040902090565b612794828254611e36565b90556040519081529081906020820190565b0390a3565b60405162461bcd60e51b815260206004820152602560248201527f45524332303a207472616e736665722066726f6d20746865207a65726f206164604482015264647265737360d81b6064820152608490fd5b6001600160a01b0380821692919083156128d857821693841561288857806128777f8c5be1e5ebec7d5bd14f71427d1e84f3dd0314c0f7b2291e5b200ac8c7c3b925946128606127a69560018060a01b03166000526006602052604060002090565b9060018060a01b0316600052602052604060002090565b556040519081529081906020820190565b60405162461bcd60e51b815260206004820152602260248201527f45524332303a20617070726f766520746f20746865207a65726f206164647265604482015261737360f01b6064820152608490fd5b60405162461bcd60e51b8152602060048201526024808201527f45524332303a20617070726f76652066726f6d20746865207a65726f206164646044820152637265737360e01b6064820152608490fd5b6001600160a01b0380821660009081526006602090815260408083209386168352929052209091905492600184016129615750505050565b80841061297c576129739303916127fe565b38808080610efb565b60405162461bcd60e51b815260206004820152601d60248201527f45524332303a20696e73756666696369656e7420616c6c6f77616e63650000006044820152606490fdfea2646970667358221220770b8f087b186f37832e8b05a1d5acc36b1e5942d0176ccb6a1aa1664265679c64736f6c63430008110033",
    "linkReferences": {}
  },
  "methodIdentifiers": {
    "allowance(address,address)": "dd62ed3e",
    "approve(address,uint256)": "095ea7b3",
    "balanceOf(address)": "70a08231",
    "cap()": "355274ea",
    "circulatingSupply()": "9358928b",
    "decimals()": "313ce567",
    "decreaseAllowance(address,uint256)": "a457c2d7",
    "estimateSendFee(uint16,bytes,uint256,bool,bytes,bytes)": "6f770790",
    "failedMessages(uint16,bytes,uint256)": "8ee74912",
    "forceResumeReceive(uint16,bytes)": "42d65a8d",
    "getConfig(uint16,uint16,address,uint256)": "f5ecbdbc",
    "getTrustedRemoteAddress(uint16)": "9f38369a",
    "increaseAllowance(address,uint256)": "39509351",
    "isTrustedRemote(uint16,bytes)": "3d8b38f6",
    "lzEndpoint()": "b353aaa7",
    "lzReceive(uint16,bytes,uint64,bytes)": "001d3567",
    "minDstGasLookup(uint16,uint16)": "8cfd8f5c",
    "name()": "06fdde03",
    "nonblockingLzReceive(uint16,bytes,uint64,bytes)": "66ad5c8a",
    "owner()": "8da5cb5b",
    "precrime()": "950c8a74",
    "renounceOwnership()": "715018a6",
    "retryMessage(uint16,bytes,uint64,bytes)": "d1deba1f",
    "sendFrom(address,uint16,bytes,uint256,address,address,bytes,bytes)": "0e506192",
    "setConfig(uint16,uint16,uint256,bytes)": "cbed8b9c",
    "setMinDstGas(uint16,uint16,uint256)": "df2a5b3b",
    "setPrecrime(address)": "baf3292d",
    "setReceiveVersion(uint16)": "10ddb137",
    "setSendVersion(uint16)": "07e0db17",
    "setTrustedRemote(uint16,bytes)": "eb8d72b7",
    "setTrustedRemoteAddress(uint16,bytes)": "a6c3d165",
    "supportsInterface(bytes4)": "01ffc9a7",
    "symbol()": "95d89b41",
    "totalSupply()": "18160ddd",
    "transfer(address,uint256)": "a9059cbb",
    "transferFrom(address,address,uint256)": "23b872dd",
    "transferOwnership(address)": "f2fde38b",
    "trustedRemoteLookup(uint16)": "7533d788"
  },
  "id": 155
}