{
  "abi": [
    {
      "inputs": [
        {
          "internalType": "string",
          "name": "_name",
          "type": "string"
        },
        {
          "internalType": "string",
          "name": "_symbol",
          "type": "string"
        },
        {
          "internalType": "address",
          "name": "_layerZeroEndpoint",
          "type": "address"
        }
      ],
      "stateMutability": "nonpayable",
      "type": "constructor"
    },
    {
      "inputs": [
        {
          "internalType": "address",
          "name": "operator",
          "type": "address"
        }
      ],
      "name": "OperatorNotAllowed",
      "type": "error"
    },
    {
      "anonymous": false,
      "inputs": [
        {
          "indexed": true,
          "internalType": "address",
          "name": "owner",
          "type": "address"
        },
        {
          "indexed": true,
          "internalType": "address",
          "name": "approved",
          "type": "address"
        },
        {
          "indexed": true,
          "internalType": "uint256",
          "name": "tokenId",
          "type": "uint256"
        }
      ],
      "name": "Approval",
      "type": "event"
    },
    {
      "anonymous": false,
      "inputs": [
        {
          "indexed": true,
          "internalType": "address",
          "name": "owner",
          "type": "address"
        },
        {
          "indexed": true,
          "internalType": "address",
          "name": "operator",
          "type": "address"
        },
        {
          "indexed": false,
          "internalType": "bool",
          "name": "approved",
          "type": "bool"
        }
      ],
      "name": "ApprovalForAll",
      "type": "event"
    },
    {
      "anonymous": false,
      "inputs": [
        {
          "indexed": false,
          "internalType": "bytes32",
          "name": "_hashedPayload",
          "type": "bytes32"
        }
      ],
      "name": "CreditCleared",
      "type": "event"
    },
    {
      "anonymous": false,
      "inputs": [
        {
          "indexed": false,
          "internalType": "bytes32",
          "name": "_hashedPayload",
          "type": "bytes32"
        },
        {
          "indexed": false,
          "internalType": "bytes",
          "name": "_payload",
          "type": "bytes"
        }
      ],
      "name": "CreditStored",
      "type": "event"
    },
    {
      "anonymous": false,
      "inputs": [
        {
          "indexed": false,
          "internalType": "uint16",
          "name": "_srcChainId",
          "type": "uint16"
        },
        {
          "indexed": false,
          "internalType": "bytes",
          "name": "_srcAddress",
          "type": "bytes"
        },
        {
          "indexed": false,
          "internalType": "uint64",
          "name": "_nonce",
          "type": "uint64"
        },
        {
          "indexed": false,
          "internalType": "bytes",
          "name": "_payload",
          "type": "bytes"
        },
        {
          "indexed": false,
          "internalType": "bytes",
          "name": "_reason",
          "type": "bytes"
        }
      ],
      "name": "MessageFailed",
      "type": "event"
    },
    {
      "anonymous": false,
      "inputs": [
        {
          "indexed": true,
          "internalType": "address",
          "name": "previousOwner",
          "type": "address"
        },
        {
          "indexed": true,
          "internalType": "address",
          "name": "newOwner",
          "type": "address"
        }
      ],
      "name": "OwnershipTransferred",
      "type": "event"
    },
    {
      "anonymous": false,
      "inputs": [
        {
          "indexed": true,
          "internalType": "uint16",
          "name": "_srcChainId",
          "type": "uint16"
        },
        {
          "indexed": true,
          "internalType": "bytes",
          "name": "_srcAddress",
          "type": "bytes"
        },
        {
          "indexed": true,
          "internalType": "address",
          "name": "_toAddress",
          "type": "address"
        },
        {
          "indexed": false,
          "internalType": "uint256[]",
          "name": "_tokenIds",
          "type": "uint256[]"
        }
      ],
      "name": "ReceiveFromChain",
      "type": "event"
    },
    {
      "anonymous": false,
      "inputs": [
        {
          "indexed": false,
          "internalType": "uint16",
          "name": "_srcChainId",
          "type": "uint16"
        },
        {
          "indexed": false,
          "internalType": "bytes",
          "name": "_srcAddress",
          "type": "bytes"
        },
        {
          "indexed": false,
          "internalType": "uint64",
          "name": "_nonce",
          "type": "uint64"
        },
        {
          "indexed": false,
          "internalType": "bytes32",
          "name": "_payloadHash",
          "type": "bytes32"
        }
      ],
      "name": "RetryMessageSuccess",
      "type": "event"
    },
    {
      "anonymous": false,
      "inputs": [
        {
          "indexed": true,
          "internalType": "uint16",
          "name": "_dstChainId",
          "type": "uint16"
        },
        {
          "indexed": true,
          "internalType": "address",
          "name": "_from",
          "type": "address"
        },
        {
          "indexed": true,
          "internalType": "bytes",
          "name": "_toAddress",
          "type": "bytes"
        },
        {
          "indexed": false,
          "internalType": "uint256[]",
          "name": "_tokenIds",
          "type": "uint256[]"
        }
      ],
      "name": "SendToChain",
      "type": "event"
    },
    {
      "anonymous": false,
      "inputs": [
        {
          "indexed": false,
          "internalType": "uint16",
          "name": "_dstChainId",
          "type": "uint16"
        },
        {
          "indexed": false,
          "internalType": "uint16",
          "name": "_type",
          "type": "uint16"
        },
        {
          "indexed": false,
          "internalType": "uint256",
          "name": "_minDstGas",
          "type": "uint256"
        }
      ],
      "name": "SetMinDstGas",
      "type": "event"
    },
    {
      "anonymous": false,
      "inputs": [
        {
          "indexed": false,
          "internalType": "address",
          "name": "precrime",
          "type": "address"
        }
      ],
      "name": "SetPrecrime",
      "type": "event"
    },
    {
      "anonymous": false,
      "inputs": [
        {
          "indexed": false,
          "internalType": "uint16",
          "name": "_remoteChainId",
          "type": "uint16"
        },
        {
          "indexed": false,
          "internalType": "bytes",
          "name": "_path",
          "type": "bytes"
        }
      ],
      "name": "SetTrustedRemote",
      "type": "event"
    },
    {
      "anonymous": false,
      "inputs": [
        {
          "indexed": false,
          "internalType": "uint16",
          "name": "_remoteChainId",
          "type": "uint16"
        },
        {
          "indexed": false,
          "internalType": "bytes",
          "name": "_remoteAddress",
          "type": "bytes"
        }
      ],
      "name": "SetTrustedRemoteAddress",
      "type": "event"
    },
    {
      "anonymous": false,
      "inputs": [
        {
          "indexed": true,
          "internalType": "address",
          "name": "from",
          "type": "address"
        },
        {
          "indexed": true,
          "internalType": "address",
          "name": "to",
          "type": "address"
        },
        {
          "indexed": true,
          "internalType": "uint256",
          "name": "tokenId",
          "type": "uint256"
        }
      ],
      "name": "Transfer",
      "type": "event"
    },
    {
      "inputs": [],
      "name": "DEFAULT_PAYLOAD_SIZE_LIMIT",
      "outputs": [
        {
          "internalType": "uint256",
          "name": "",
          "type": "uint256"
        }
      ],
      "stateMutability": "view",
      "type": "function"
    },
    {
      "inputs": [],
      "name": "FUNCTION_TYPE_SEND",
      "outputs": [
        {
          "internalType": "uint16",
          "name": "",
          "type": "uint16"
        }
      ],
      "stateMutability": "view",
      "type": "function"
    },
    {
      "inputs": [],
      "name": "OPERATOR_FILTER_REGISTRY",
      "outputs": [
        {
          "internalType": "contract IOperatorFilterRegistry",
          "name": "",
          "type": "address"
        }
      ],
      "stateMutability": "view",
      "type": "function"
    },
    {
      "inputs": [
        {
          "internalType": "address",
          "name": "operator",
          "type": "address"
        },
        {
          "internalType": "uint256",
          "name": "tokenId",
          "type": "uint256"
        }
      ],
      "name": "approve",
      "outputs": [],
      "stateMutability": "nonpayable",
      "type": "function"
    },
    {
      "inputs": [
        {
          "internalType": "address",
          "name": "owner",
          "type": "address"
        }
      ],
      "name": "balanceOf",
      "outputs": [
        {
          "internalType": "uint256",
          "name": "",
          "type": "uint256"
        }
      ],
      "stateMutability": "view",
      "type": "function"
    },
    {
      "inputs": [
        {
          "internalType": "bytes",
          "name": "_payload",
          "type": "bytes"
        }
      ],
      "name": "clearCredits",
      "outputs": [],
      "stateMutability": "nonpayable",
      "type": "function"
    },
    {
      "inputs": [
        {
          "internalType": "uint16",
          "name": "",
          "type": "uint16"
        }
      ],
      "name": "dstChainIdToBatchLimit",
      "outputs": [
        {
          "internalType": "uint256",
          "name": "",
          "type": "uint256"
        }
      ],
      "stateMutability": "view",
      "type": "function"
    },
    {
      "inputs": [
        {
          "internalType": "uint16",
          "name": "",
          "type": "uint16"
        }
      ],
      "name": "dstChainIdToTransferGas",
      "outputs": [
        {
          "internalType": "uint256",
          "name": "",
          "type": "uint256"
        }
      ],
      "stateMutability": "view",
      "type": "function"
    },
    {
      "inputs": [
        {
          "internalType": "uint16",
          "name": "_dstChainId",
          "type": "uint16"
        },
        {
          "internalType": "bytes",
          "name": "_toAddress",
          "type": "bytes"
        },
        {
          "internalType": "uint256[]",
          "name": "_tokenIds",
          "type": "uint256[]"
        },
        {
          "internalType": "bool",
          "name": "_useZro",
          "type": "bool"
        },
        {
          "internalType": "bytes",
          "name": "_adapterParams",
          "type": "bytes"
        }
      ],
      "name": "estimateSendBatchFee",
      "outputs": [
        {
          "internalType": "uint256",
          "name": "nativeFee",
          "type": "uint256"
        },
        {
          "internalType": "uint256",
          "name": "zroFee",
          "type": "uint256"
        }
      ],
      "stateMutability": "view",
      "type": "function"
    },
    {
      "inputs": [
        {
          "internalType": "uint16",
          "name": "_dstChainId",
          "type": "uint16"
        },
        {
          "internalType": "bytes",
          "name": "_toAddress",
          "type": "bytes"
        },
        {
          "internalType": "uint256",
          "name": "_tokenId",
          "type": "uint256"
        },
        {
          "internalType": "bool",
          "name": "_useZro",
          "type": "bool"
        },
        {
          "internalType": "bytes",
          "name": "_adapterParams",
          "type": "bytes"
        }
      ],
      "name": "estimateSendFee",
      "outputs": [
        {
          "internalType": "uint256",
          "name": "nativeFee",
          "type": "uint256"
        },
        {
          "internalType": "uint256",
          "name": "zroFee",
          "type": "uint256"
        }
      ],
      "stateMutability": "view",
      "type": "function"
    },
    {
      "inputs": [
        {
          "internalType": "uint16",
          "name": "",
          "type": "uint16"
        },
        {
          "internalType": "bytes",
          "name": "",
          "type": "bytes"
        },
        {
          "internalType": "uint64",
          "name": "",
          "type": "uint64"
        }
      ],
      "name": "failedMessages",
      "outputs": [
        {
          "internalType": "bytes32",
          "name": "",
          "type": "bytes32"
        }
      ],
      "stateMutability": "view",
      "type": "function"
    },
    {
      "inputs": [
        {
          "internalType": "uint16",
          "name": "_srcChainId",
          "type": "uint16"
        },
        {
          "internalType": "bytes",
          "name": "_srcAddress",
          "type": "bytes"
        }
      ],
      "name": "forceResumeReceive",
      "outputs": [],
      "stateMutability": "nonpayable",
      "type": "function"
    },
    {
      "inputs": [
        {
          "internalType": "uint256",
          "name": "tokenId",
          "type": "uint256"
        }
      ],
      "name": "getApproved",
      "outputs": [
        {
          "internalType": "address",
          "name": "",
          "type": "address"
        }
      ],
      "stateMutability": "view",
      "type": "function"
    },
    {
      "inputs": [
        {
          "internalType": "uint16",
          "name": "_version",
          "type": "uint16"
        },
        {
          "internalType": "uint16",
          "name": "_chainId",
          "type": "uint16"
        },
        {
          "internalType": "address",
          "name": "",
          "type": "address"
        },
        {
          "internalType": "uint256",
          "name": "_configType",
          "type": "uint256"
        }
      ],
      "name": "getConfig",
      "outputs": [
        {
          "internalType": "bytes",
          "name": "",
          "type": "bytes"
        }
      ],
      "stateMutability": "view",
      "type": "function"
    },
    {
      "inputs": [
        {
          "internalType": "uint16",
          "name": "_remoteChainId",
          "type": "uint16"
        }
      ],
      "name": "getTrustedRemoteAddress",
      "outputs": [
        {
          "internalType": "bytes",
          "name": "",
          "type": "bytes"
        }
      ],
      "stateMutability": "view",
      "type": "function"
    },
    {
      "inputs": [
        {
          "internalType": "address",
          "name": "owner",
          "type": "address"
        },
        {
          "internalType": "address",
          "name": "operator",
          "type": "address"
        }
      ],
      "name": "isApprovedForAll",
      "outputs": [
        {
          "internalType": "bool",
          "name": "",
          "type": "bool"
        }
      ],
      "stateMutability": "view",
      "type": "function"
    },
    {
      "inputs": [
        {
          "internalType": "uint16",
          "name": "_srcChainId",
          "type": "uint16"
        },
        {
          "internalType": "bytes",
          "name": "_srcAddress",
          "type": "bytes"
        }
      ],
      "name": "isTrustedRemote",
      "outputs": [
        {
          "internalType": "bool",
          "name": "",
          "type": "bool"
        }
      ],
      "stateMutability": "view",
      "type": "function"
    },
    {
      "inputs": [],
      "name": "lzEndpoint",
      "outputs": [
        {
          "internalType": "contract ILayerZeroEndpoint",
          "name": "",
          "type": "address"
        }
      ],
      "stateMutability": "view",
      "type": "function"
    },
    {
      "inputs": [
        {
          "internalType": "uint16",
          "name": "_srcChainId",
          "type": "uint16"
        },
        {
          "internalType": "bytes",
          "name": "_srcAddress",
          "type": "bytes"
        },
        {
          "internalType": "uint64",
          "name": "_nonce",
          "type": "uint64"
        },
        {
          "internalType": "bytes",
          "name": "_payload",
          "type": "bytes"
        }
      ],
      "name": "lzReceive",
      "outputs": [],
      "stateMutability": "nonpayable",
      "type": "function"
    },
    {
      "inputs": [
        {
          "internalType": "uint16",
          "name": "",
          "type": "uint16"
        },
        {
          "internalType": "uint16",
          "name": "",
          "type": "uint16"
        }
      ],
      "name": "minDstGasLookup",
      "outputs": [
        {
          "internalType": "uint256",
          "name": "",
          "type": "uint256"
        }
      ],
      "stateMutability": "view",
      "type": "function"
    },
    {
      "inputs": [],
      "name": "minGasToTransferAndStore",
      "outputs": [
        {
          "internalType": "uint256",
          "name": "",
          "type": "uint256"
        }
      ],
      "stateMutability": "view",
      "type": "function"
    },
    {
      "inputs": [
        {
          "internalType": "address",
          "name": "_tokenOwner",
          "type": "address"
        },
        {
          "internalType": "uint256",
          "name": "_newId",
          "type": "uint256"
        }
      ],
      "name": "mint",
      "outputs": [],
      "stateMutability": "payable",
      "type": "function"
    },
    {
      "inputs": [],
      "name": "name",
      "outputs": [
        {
          "internalType": "string",
          "name": "",
          "type": "string"
        }
      ],
      "stateMutability": "view",
      "type": "function"
    },
    {
      "inputs": [
        {
          "internalType": "uint16",
          "name": "_srcChainId",
          "type": "uint16"
        },
        {
          "internalType": "bytes",
          "name": "_srcAddress",
          "type": "bytes"
        },
        {
          "internalType": "uint64",
          "name": "_nonce",
          "type": "uint64"
        },
        {
          "internalType": "bytes",
          "name": "_payload",
          "type": "bytes"
        }
      ],
      "name": "nonblockingLzReceive",
      "outputs": [],
      "stateMutability": "nonpayable",
      "type": "function"
    },
    {
      "inputs": [],
      "name": "owner",
      "outputs": [
        {
          "internalType": "address",
          "name": "",
          "type": "address"
        }
      ],
      "stateMutability": "view",
      "type": "function"
    },
    {
      "inputs": [
        {
          "internalType": "uint256",
          "name": "tokenId",
          "type": "uint256"
        }
      ],
      "name": "ownerOf",
      "outputs": [
        {
          "internalType": "address",
          "name": "",
          "type": "address"
        }
      ],
      "stateMutability": "view",
      "type": "function"
    },
    {
      "inputs": [
        {
          "internalType": "uint16",
          "name": "",
          "type": "uint16"
        }
      ],
      "name": "payloadSizeLimitLookup",
      "outputs": [
        {
          "internalType": "uint256",
          "name": "",
          "type": "uint256"
        }
      ],
      "stateMutability": "view",
      "type": "function"
    },
    {
      "inputs": [],
      "name": "precrime",
      "outputs": [
        {
          "internalType": "address",
          "name": "",
          "type": "address"
        }
      ],
      "stateMutability": "view",
      "type": "function"
    },
    {
      "inputs": [],
      "name": "renounceOwnership",
      "outputs": [],
      "stateMutability": "nonpayable",
      "type": "function"
    },
    {
      "inputs": [
        {
          "internalType": "uint16",
          "name": "_srcChainId",
          "type": "uint16"
        },
        {
          "internalType": "bytes",
          "name": "_srcAddress",
          "type": "bytes"
        },
        {
          "internalType": "uint64",
          "name": "_nonce",
          "type": "uint64"
        },
        {
          "internalType": "bytes",
          "name": "_payload",
          "type": "bytes"
        }
      ],
      "name": "retryMessage",
      "outputs": [],
      "stateMutability": "payable",
      "type": "function"
    },
    {
      "inputs": [
        {
          "internalType": "address",
          "name": "from",
          "type": "address"
        },
        {
          "internalType": "address",
          "name": "to",
          "type": "address"
        },
        {
          "internalType": "uint256",
          "name": "tokenId",
          "type": "uint256"
        }
      ],
      "name": "safeTransferFrom",
      "outputs": [],
      "stateMutability": "nonpayable",
      "type": "function"
    },
    {
      "inputs": [
        {
          "internalType": "address",
          "name": "from",
          "type": "address"
        },
        {
          "internalType": "address",
          "name": "to",
          "type": "address"
        },
        {
          "internalType": "uint256",
          "name": "tokenId",
          "type": "uint256"
        },
        {
          "internalType": "bytes",
          "name": "data",
          "type": "bytes"
        }
      ],
      "name": "safeTransferFrom",
      "outputs": [],
      "stateMutability": "nonpayable",
      "type": "function"
    },
    {
      "inputs": [
        {
          "internalType": "address",
          "name": "_from",
          "type": "address"
        },
        {
          "internalType": "uint16",
          "name": "_dstChainId",
          "type": "uint16"
        },
        {
          "internalType": "bytes",
          "name": "_toAddress",
          "type": "bytes"
        },
        {
          "internalType": "uint256[]",
          "name": "_tokenIds",
          "type": "uint256[]"
        },
        {
          "internalType": "address payable",
          "name": "_refundAddress",
          "type": "address"
        },
        {
          "internalType": "address",
          "name": "_zroPaymentAddress",
          "type": "address"
        },
        {
          "internalType": "bytes",
          "name": "_adapterParams",
          "type": "bytes"
        }
      ],
      "name": "sendBatchFrom",
      "outputs": [],
      "stateMutability": "payable",
      "type": "function"
    },
    {
      "inputs": [
        {
          "internalType": "address",
          "name": "_from",
          "type": "address"
        },
        {
          "internalType": "uint16",
          "name": "_dstChainId",
          "type": "uint16"
        },
        {
          "internalType": "bytes",
          "name": "_toAddress",
          "type": "bytes"
        },
        {
          "internalType": "uint256",
          "name": "_tokenId",
          "type": "uint256"
        },
        {
          "internalType": "address payable",
          "name": "_refundAddress",
          "type": "address"
        },
        {
          "internalType": "address",
          "name": "_zroPaymentAddress",
          "type": "address"
        },
        {
          "internalType": "bytes",
          "name": "_adapterParams",
          "type": "bytes"
        }
      ],
      "name": "sendFrom",
      "outputs": [],
      "stateMutability": "payable",
      "type": "function"
    },
    {
      "inputs": [
        {
          "internalType": "address",
          "name": "operator",
          "type": "address"
        },
        {
          "internalType": "bool",
          "name": "approved",
          "type": "bool"
        }
      ],
      "name": "setApprovalForAll",
      "outputs": [],
      "stateMutability": "nonpayable",
      "type": "function"
    },
    {
      "inputs": [
        {
          "internalType": "uint16",
          "name": "_version",
          "type": "uint16"
        },
        {
          "internalType": "uint16",
          "name": "_chainId",
          "type": "uint16"
        },
        {
          "internalType": "uint256",
          "name": "_configType",
          "type": "uint256"
        },
        {
          "internalType": "bytes",
          "name": "_config",
          "type": "bytes"
        }
      ],
      "name": "setConfig",
      "outputs": [],
      "stateMutability": "nonpayable",
      "type": "function"
    },
    {
      "inputs": [
        {
          "internalType": "uint16",
          "name": "_dstChainId",
          "type": "uint16"
        },
        {
          "internalType": "uint256",
          "name": "_dstChainIdToBatchLimit",
          "type": "uint256"
        }
      ],
      "name": "setDstChainIdToBatchLimit",
      "outputs": [],
      "stateMutability": "nonpayable",
      "type": "function"
    },
    {
      "inputs": [
        {
          "internalType": "uint16",
          "name": "_dstChainId",
          "type": "uint16"
        },
        {
          "internalType": "uint256",
          "name": "_dstChainIdToTransferGas",
          "type": "uint256"
        }
      ],
      "name": "setDstChainIdToTransferGas",
      "outputs": [],
      "stateMutability": "nonpayable",
      "type": "function"
    },
    {
      "inputs": [
        {
          "internalType": "uint16",
          "name": "_dstChainId",
          "type": "uint16"
        },
        {
          "internalType": "uint16",
          "name": "_packetType",
          "type": "uint16"
        },
        {
          "internalType": "uint256",
          "name": "_minGas",
          "type": "uint256"
        }
      ],
      "name": "setMinDstGas",
      "outputs": [],
      "stateMutability": "nonpayable",
      "type": "function"
    },
    {
      "inputs": [
        {
          "internalType": "uint256",
          "name": "_minGasToTransferAndStore",
          "type": "uint256"
        }
      ],
      "name": "setMinGasToTransferAndStore",
      "outputs": [],
      "stateMutability": "nonpayable",
      "type": "function"
    },
    {
      "inputs": [
        {
          "internalType": "uint16",
          "name": "_dstChainId",
          "type": "uint16"
        },
        {
          "internalType": "uint256",
          "name": "_size",
          "type": "uint256"
        }
      ],
      "name": "setPayloadSizeLimit",
      "outputs": [],
      "stateMutability": "nonpayable",
      "type": "function"
    },
    {
      "inputs": [
        {
          "internalType": "address",
          "name": "_precrime",
          "type": "address"
        }
      ],
      "name": "setPrecrime",
      "outputs": [],
      "stateMutability": "nonpayable",
      "type": "function"
    },
    {
      "inputs": [
        {
          "internalType": "uint16",
          "name": "_version",
          "type": "uint16"
        }
      ],
      "name": "setReceiveVersion",
      "outputs": [],
      "stateMutability": "nonpayable",
      "type": "function"
    },
    {
      "inputs": [
        {
          "internalType": "uint16",
          "name": "_version",
          "type": "uint16"
        }
      ],
      "name": "setSendVersion",
      "outputs": [],
      "stateMutability": "nonpayable",
      "type": "function"
    },
    {
      "inputs": [
        {
          "internalType": "uint16",
          "name": "_srcChainId",
          "type": "uint16"
        },
        {
          "internalType": "bytes",
          "name": "_path",
          "type": "bytes"
        }
      ],
      "name": "setTrustedRemote",
      "outputs": [],
      "stateMutability": "nonpayable",
      "type": "function"
    },
    {
      "inputs": [
        {
          "internalType": "uint16",
          "name": "_remoteChainId",
          "type": "uint16"
        },
        {
          "internalType": "bytes",
          "name": "_remoteAddress",
          "type": "bytes"
        }
      ],
      "name": "setTrustedRemoteAddress",
      "outputs": [],
      "stateMutability": "nonpayable",
      "type": "function"
    },
    {
      "inputs": [
        {
          "internalType": "bytes32",
          "name": "",
          "type": "bytes32"
        }
      ],
      "name": "storedCredits",
      "outputs": [
        {
          "internalType": "uint16",
          "name": "srcChainId",
          "type": "uint16"
        },
        {
          "internalType": "address",
          "name": "toAddress",
          "type": "address"
        },
        {
          "internalType": "uint256",
          "name": "index",
          "type": "uint256"
        },
        {
          "internalType": "bool",
          "name": "creditsRemain",
          "type": "bool"
        }
      ],
      "stateMutability": "view",
      "type": "function"
    },
    {
      "inputs": [
        {
          "internalType": "bytes4",
          "name": "interfaceId",
          "type": "bytes4"
        }
      ],
      "name": "supportsInterface",
      "outputs": [
        {
          "internalType": "bool",
          "name": "",
          "type": "bool"
        }
      ],
      "stateMutability": "view",
      "type": "function"
    },
    {
      "inputs": [],
      "name": "symbol",
      "outputs": [
        {
          "internalType": "string",
          "name": "",
          "type": "string"
        }
      ],
      "stateMutability": "view",
      "type": "function"
    },
    {
      "inputs": [
        {
          "internalType": "uint256",
          "name": "tokenId",
          "type": "uint256"
        }
      ],
      "name": "tokenURI",
      "outputs": [
        {
          "internalType": "string",
          "name": "",
          "type": "string"
        }
      ],
      "stateMutability": "view",
      "type": "function"
    },
    {
      "inputs": [
        {
          "internalType": "address",
          "name": "from",
          "type": "address"
        },
        {
          "internalType": "address",
          "name": "to",
          "type": "address"
        },
        {
          "internalType": "uint256",
          "name": "tokenId",
          "type": "uint256"
        }
      ],
      "name": "transferFrom",
      "outputs": [],
      "stateMutability": "nonpayable",
      "type": "function"
    },
    {
      "inputs": [
        {
          "internalType": "address",
          "name": "newOwner",
          "type": "address"
        }
      ],
      "name": "transferOwnership",
      "outputs": [],
      "stateMutability": "nonpayable",
      "type": "function"
    },
    {
      "inputs": [
        {
          "internalType": "uint16",
          "name": "",
          "type": "uint16"
        }
      ],
      "name": "trustedRemoteLookup",
      "outputs": [
        {
          "internalType": "bytes",
          "name": "",
          "type": "bytes"
        }
      ],
      "stateMutability": "view",
      "type": "function"
    }
  ],
  "bytecode": {
    "object": "0x60a06040523480156200001157600080fd5b5060405162004d4d38038062004d4d833981016040819052620000349162000364565b828282617530733cc6cdda760b79bafa08df41ecfa224f810dceb6600185858486808062000062336200024f565b6001600160a01b03166080525081620000d75760405162461bcd60e51b815260206004820152602d60248201527f4f4e46543732313a206d696e476173546f5472616e73666572416e6453746f7260448201526c065206d757374206265203e203609c1b606482015260840160405180910390fd5b50600655600a620000e9838262000480565b50600b620000f8828262000480565b5050506daaeb6d7670e522a718067333cd4e3b15620002405780156200018e57604051633e9f1edf60e11b81523060048201526001600160a01b03831660248201526daaeb6d7670e522a718067333cd4e90637d3e3dbe906044015b600060405180830381600087803b1580156200016f57600080fd5b505af115801562000184573d6000803e3d6000fd5b5050505062000240565b6001600160a01b03821615620001df5760405163a0af290360e01b81523060048201526001600160a01b03831660248201526daaeb6d7670e522a718067333cd4e9063a0af29039060440162000154565b604051632210724360e11b81523060048201526daaeb6d7670e522a718067333cd4e90634420e48690602401600060405180830381600087803b1580156200022657600080fd5b505af11580156200023b573d6000803e3d6000fd5b505050505b5050505050505050506200054c565b600080546001600160a01b038381166001600160a01b0319831681178455604051919092169283917f8be0079c531659141344cd1fd0a4f28419497f9722a3daafe3b4186f6b6457e09190a35050565b634e487b7160e01b600052604160045260246000fd5b600082601f830112620002c757600080fd5b81516001600160401b0380821115620002e457620002e46200029f565b604051601f8301601f19908116603f011681019082821181831017156200030f576200030f6200029f565b816040528381526020925086838588010111156200032c57600080fd5b600091505b8382101562000350578582018301518183018401529082019062000331565b600093810190920192909252949350505050565b6000806000606084860312156200037a57600080fd5b83516001600160401b03808211156200039257600080fd5b620003a087838801620002b5565b94506020860151915080821115620003b757600080fd5b50620003c686828701620002b5565b604086015190935090506001600160a01b0381168114620003e657600080fd5b809150509250925092565b600181811c908216806200040657607f821691505b6020821081036200042757634e487b7160e01b600052602260045260246000fd5b50919050565b601f8211156200047b57600081815260208120601f850160051c81016020861015620004565750805b601f850160051c820191505b81811015620004775782815560010162000462565b5050505b505050565b81516001600160401b038111156200049c576200049c6200029f565b620004b481620004ad8454620003f1565b846200042d565b602080601f831160018114620004ec5760008415620004d35750858301515b600019600386901b1c1916600185901b17855562000477565b600085815260208120601f198616915b828110156200051d57888601518255948401946001909101908401620004fc565b50858210156200053c5787850151600019600388901b60f8161c191681555b5050505050600190811b01905550565b6080516147ad620005a0600039600081816108c901528181610aa401528181610da801528181610f03015281816110a90152818161194901528181611dd201528181611f080152612fed01526147ad6000f3fe6080604052600436106103195760003560e01c80637533d788116101ab578063b88d4fde116100f7578063df2a5b3b11610095578063f23536411161006f578063f235364114610a14578063f2fde38b14610a34578063f5ecbdbc14610a54578063fa25f9b614610a7457600080fd5b8063df2a5b3b146109b4578063e985e9c5146109d4578063eb8d72b7146109f457600080fd5b8063c87b56dd116100d1578063c87b56dd14610941578063cbed8b9c14610961578063d12473a514610981578063d1deba1f146109a157600080fd5b8063b88d4fde146108eb578063baf3292d1461090b578063c44618341461092b57600080fd5b80639ea5d6b111610164578063a6c3d1651161013e578063a6c3d1651461085c578063ab3ffb931461087c578063af3fb21c1461088f578063b353aaa7146108b757600080fd5b80639ea5d6b1146107fc5780639f38369a1461081c578063a22cb4651461083c57600080fd5b80637533d788146107315780638cfd8f5c146107515780638da5cb5b146107895780638ffa1f2a146107a7578063950c8a74146107c757806395d89b41146107e757600080fd5b80633f1f4fa41161026a5780634ac3f4ff116102235780636352211e116101fd5780636352211e146106bc57806366ad5c8a146106dc57806370a08231146106fc578063715018a61461071c57600080fd5b80634ac3f4ff1461062d578063519056361461065a5780635b8c41e61461066d57600080fd5b80633f1f4fa41461056757806340c10f19146105a257806341f43434146105b557806342842e0e146105d757806342d65a8d146105f7578063482881901461061757600080fd5b80630b4cad4c116102d757806322a3ecf9116102b157806322a3ecf91461046f57806323b872dd146104f25780632a205e3d146105125780633d8b38f61461054757600080fd5b80630b4cad4c1461040f5780630df374831461042f57806310ddb1371461044f57600080fd5b80621d35671461031e57806301ffc9a71461034057806306fdde031461037557806307e0db1714610397578063081812fc146103b7578063095ea7b3146103ef575b600080fd5b34801561032a57600080fd5b5061033e610339366004613650565b610aa1565b005b34801561034c57600080fd5b5061036061035b3660046136f9565b610cd2565b60405190151581526020015b60405180910390f35b34801561038157600080fd5b5061038a610cf5565b60405161036c9190613766565b3480156103a357600080fd5b5061033e6103b2366004613779565b610d87565b3480156103c357600080fd5b506103d76103d2366004613794565b610e10565b6040516001600160a01b03909116815260200161036c565b3480156103fb57600080fd5b5061033e61040a3660046137cd565b610e37565b34801561041b57600080fd5b5061033e61042a366004613794565b610e50565b34801561043b57600080fd5b5061033e61044a3660046137f9565b610ec3565b34801561045b57600080fd5b5061033e61046a366004613779565b610ee2565b34801561047b57600080fd5b506104c361048a366004613794565b60096020526000908152604090208054600182015460029092015461ffff821692620100009092046001600160a01b0316919060ff1684565b6040805161ffff90951685526001600160a01b039093166020850152918301521515606082015260800161036c565b3480156104fe57600080fd5b5061033e61050d366004613815565b610f3a565b34801561051e57600080fd5b5061053261052d366004613927565b610f65565b6040805192835260208301919091520161036c565b34801561055357600080fd5b506103606105623660046139b9565b610f8b565b34801561057357600080fd5b50610594610582366004613779565b60036020526000908152604090205481565b60405190815260200161036c565b61033e6105b03660046137cd565b611057565b3480156105c157600080fd5b506103d76daaeb6d7670e522a718067333cd4e81565b3480156105e357600080fd5b5061033e6105f2366004613815565b611065565b34801561060357600080fd5b5061033e6106123660046139b9565b61108a565b34801561062357600080fd5b5061059460065481565b34801561063957600080fd5b50610594610648366004613779565b60076020526000908152604090205481565b61033e610668366004613a0b565b611110565b34801561067957600080fd5b50610594610688366004613ac4565b6005602090815260009384526040808520845180860184018051928152908401958401959095209452929052825290205481565b3480156106c857600080fd5b506103d76106d7366004613794565b611127565b3480156106e857600080fd5b5061033e6106f7366004613650565b611187565b34801561070857600080fd5b50610594610717366004613b21565b611263565b34801561072857600080fd5b5061033e6112e9565b34801561073d57600080fd5b5061038a61074c366004613779565b6112fd565b34801561075d57600080fd5b5061059461076c366004613b3e565b600260209081526000928352604080842090915290825290205481565b34801561079557600080fd5b506000546001600160a01b03166103d7565b3480156107b357600080fd5b5061033e6107c2366004613b71565b611397565b3480156107d357600080fd5b506004546103d7906001600160a01b031681565b3480156107f357600080fd5b5061038a6115e1565b34801561080857600080fd5b5061033e6108173660046137f9565b6115f0565b34801561082857600080fd5b5061038a610837366004613779565b611673565b34801561084857600080fd5b5061033e610857366004613ba5565b611789565b34801561086857600080fd5b5061033e6108773660046139b9565b61179d565b61033e61088a366004613c67565b611826565b34801561089b57600080fd5b506108a4600181565b60405161ffff909116815260200161036c565b3480156108c357600080fd5b506103d77f000000000000000000000000000000000000000000000000000000000000000081565b3480156108f757600080fd5b5061033e610906366004613d1c565b611835565b34801561091757600080fd5b5061033e610926366004613b21565b61185b565b34801561093757600080fd5b5061059461271081565b34801561094d57600080fd5b5061038a61095c366004613794565b6118b7565b34801561096d57600080fd5b5061033e61097c366004613d87565b61192a565b34801561098d57600080fd5b5061033e61099c3660046137f9565b6119bf565b61033e6109af366004613650565b611a43565b3480156109c057600080fd5b5061033e6109cf366004613df5565b611c59565b3480156109e057600080fd5b506103606109ef366004613e31565b611d0b565b348015610a0057600080fd5b5061033e610a0f3660046139b9565b611d39565b348015610a2057600080fd5b50610532610a2f366004613e5f565b611d93565b348015610a4057600080fd5b5061033e610a4f366004613b21565b611e5e565b348015610a6057600080fd5b5061038a610a6f366004613edc565b611ed7565b348015610a8057600080fd5b50610594610a8f366004613779565b60086020526000908152604090205481565b337f00000000000000000000000000000000000000000000000000000000000000006001600160a01b031614610b1e5760405162461bcd60e51b815260206004820152601e60248201527f4c7a4170703a20696e76616c696420656e64706f696e742063616c6c6572000060448201526064015b60405180910390fd5b61ffff861660009081526001602052604081208054610b3c90613f29565b80601f0160208091040260200160405190810160405280929190818152602001828054610b6890613f29565b8015610bb55780601f10610b8a57610100808354040283529160200191610bb5565b820191906000526020600020905b815481529060010190602001808311610b9857829003601f168201915b50505050509050805186869050148015610bd0575060008151115b8015610bf8575080516020820120604051610bee9088908890613f63565b6040518091039020145b610c535760405162461bcd60e51b815260206004820152602660248201527f4c7a4170703a20696e76616c696420736f757263652073656e64696e6720636f6044820152651b9d1c9858dd60d21b6064820152608401610b15565b610cc98787878080601f01602080910402602001604051908101604052809392919081815260200183838082843760009201919091525050604080516020601f8a018190048102820181019092528881528a935091508890889081908401838280828437600092019190915250611f8a92505050565b50505050505050565b60006001600160e01b031982161580610cef5750610cef82612003565b92915050565b6060600a8054610d0490613f29565b80601f0160208091040260200160405190810160405280929190818152602001828054610d3090613f29565b8015610d7d5780601f10610d5257610100808354040283529160200191610d7d565b820191906000526020600020905b815481529060010190602001808311610d6057829003601f168201915b5050505050905090565b610d8f612043565b6040516307e0db1760e01b815261ffff821660048201527f00000000000000000000000000000000000000000000000000000000000000006001600160a01b0316906307e0db17906024015b600060405180830381600087803b158015610df557600080fd5b505af1158015610e09573d6000803e3d6000fd5b5050505050565b6000610e1b8261209d565b506000908152600e60205260409020546001600160a01b031690565b81610e41816120ed565b610e4b83836121a6565b505050565b610e58612043565b60008111610ebe5760405162461bcd60e51b815260206004820152602d60248201527f4f4e46543732313a206d696e476173546f5472616e73666572416e6453746f7260448201526c065206d757374206265203e203609c1b6064820152608401610b15565b600655565b610ecb612043565b61ffff909116600090815260036020526040902055565b610eea612043565b6040516310ddb13760e01b815261ffff821660048201527f00000000000000000000000000000000000000000000000000000000000000006001600160a01b0316906310ddb13790602401610ddb565b826001600160a01b0381163314610f5457610f54336120ed565b610f5f8484846122b6565b50505050565b600080610f7d8787610f76886122e8565b8787611d93565b915091509550959350505050565b61ffff831660009081526001602052604081208054829190610fac90613f29565b80601f0160208091040260200160405190810160405280929190818152602001828054610fd890613f29565b80156110255780601f10610ffa57610100808354040283529160200191611025565b820191906000526020600020905b81548152906001019060200180831161100857829003601f168201915b50505050509050838360405161103c929190613f63565b60405180910390208180519060200120149150509392505050565b6110618282612333565b5050565b826001600160a01b038116331461107f5761107f336120ed565b610f5f84848461234d565b611092612043565b6040516342d65a8d60e01b81526001600160a01b037f000000000000000000000000000000000000000000000000000000000000000016906342d65a8d906110e290869086908690600401613f9c565b600060405180830381600087803b1580156110fc57600080fd5b505af1158015610cc9573d6000803e3d6000fd5b610cc987878761111f886122e8565b878787612368565b6000818152600c60205260408120546001600160a01b031680610cef5760405162461bcd60e51b8152602060048201526018602482015277115490cdcc8c4e881a5b9d985b1a59081d1bdad95b88125160421b6044820152606401610b15565b3330146111e55760405162461bcd60e51b815260206004820152602660248201527f4e6f6e626c6f636b696e674c7a4170703a2063616c6c6572206d7573742062656044820152650204c7a4170760d41b6064820152608401610b15565b61125b8686868080601f01602080910402602001604051908101604052809392919081815260200183838082843760009201919091525050604080516020601f89018190048102820181019092528781528993509150879087908190840183828082843760009201919091525061254f92505050565b505050505050565b60006001600160a01b0382166112cd5760405162461bcd60e51b815260206004820152602960248201527f4552433732313a2061646472657373207a65726f206973206e6f7420612076616044820152683634b21037bbb732b960b91b6064820152608401610b15565b506001600160a01b03166000908152600d602052604090205490565b6112f1612043565b6112fb60006126a6565b565b6001602052600090815260409020805461131690613f29565b80601f016020809104026020016040519081016040528092919081815260200182805461134290613f29565b801561138f5780601f106113645761010080835404028352916020019161138f565b820191906000526020600020905b81548152906001019060200180831161137257829003601f168201915b505050505081565b80516020808301919091206000818152600990925260409091206002015460ff166114045760405162461bcd60e51b815260206004820152601a60248201527f4f4e46543732313a206e6f20637265646974732073746f7265640000000000006044820152606401610b15565b60008280602001905181019061141a9190613fff565b600084815260096020526040812080546001909101549294509092506114569161ffff8216916201000090046001600160a01b031690856126f6565b60008481526009602052604090206001015490915081116114d45760405162461bcd60e51b815260206004820152603260248201527f4f4e46543732313a206e6f7420656e6f7567682067617320746f2070726f636560448201527139b99031b932b234ba103a3930b739b332b960711b6064820152608401610b15565b8151810361154b5760008381526009602052604080822080546001600160b01b031916815560018101929092556002909101805460ff19169055517fd7be02b8dd0d27bd0517a9cb4d7469ce27df4313821ae5ec1ff69acc594ba2339061153e9085815260200190565b60405180910390a1610f5f565b60408051608081018252600085815260096020818152848320805461ffff8082168752620100008083046001600160a01b03908116868a019081529989019a8b52600160608a018181529d9098529590945295519651969095166001600160b01b031990951694909417949091160292909217815591519082015591516002909201805460ff1916921515929092179091555050565b6060600b8054610d0490613f29565b6115f8612043565b6000811161165c5760405162461bcd60e51b815260206004820152602b60248201527f4f4e46543732313a20647374436861696e4964546f42617463684c696d69742060448201526a06d757374206265203e20360ac1b6064820152608401610b15565b61ffff909116600090815260076020526040902055565b61ffff811660009081526001602052604081208054606092919061169690613f29565b80601f01602080910402602001604051908101604052809291908181526020018280546116c290613f29565b801561170f5780601f106116e45761010080835404028352916020019161170f565b820191906000526020600020905b8154815290600101906020018083116116f257829003601f168201915b5050505050905080516000036117675760405162461bcd60e51b815260206004820152601d60248201527f4c7a4170703a206e6f20747275737465642070617468207265636f72640000006044820152606401610b15565b61178260006014835161177a91906140cf565b839190612742565b9392505050565b81611793816120ed565b610e4b838361284f565b6117a5612043565b8181306040516020016117ba939291906140e2565b60408051601f1981840301815291815261ffff85166000908152600160205220906117e5908261414e565b507f8c0400cfe2d1199b1a725c78960bcc2a344d869b80590d0f2bd005db15a572ce83838360405161181993929190613f9c565b60405180910390a1505050565b610cc987878787878787612368565b836001600160a01b038116331461184f5761184f336120ed565b610e098585858561285a565b611863612043565b600480546001600160a01b0319166001600160a01b0383169081179091556040519081527f5db758e995a17ec1ad84bdef7e8c3293a0bd6179bcce400dff5d4c3d87db726b9060200160405180910390a150565b60606118c28261209d565b60006118d960408051602081019091526000815290565b905060008151116118f95760405180602001604052806000815250611782565b806119038461288c565b60405160200161191492919061420d565b6040516020818303038152906040529392505050565b611932612043565b6040516332fb62e760e21b81526001600160a01b037f0000000000000000000000000000000000000000000000000000000000000000169063cbed8b9c90611986908890889088908890889060040161423c565b600060405180830381600087803b1580156119a057600080fd5b505af11580156119b4573d6000803e3d6000fd5b505050505050505050565b6119c7612043565b60008111611a2c5760405162461bcd60e51b815260206004820152602c60248201527f4f4e46543732313a20647374436861696e4964546f5472616e7366657247617360448201526b0206d757374206265203e20360a41b6064820152608401610b15565b61ffff909116600090815260086020526040902055565b61ffff86166000908152600560205260408082209051611a669088908890613f63565b90815260408051602092819003830190206001600160401b03871660009081529252902054905080611ae65760405162461bcd60e51b815260206004820152602360248201527f4e6f6e626c6f636b696e674c7a4170703a206e6f2073746f726564206d65737360448201526261676560e81b6064820152608401610b15565b808383604051611af7929190613f63565b604051809103902014611b565760405162461bcd60e51b815260206004820152602160248201527f4e6f6e626c6f636b696e674c7a4170703a20696e76616c6964207061796c6f616044820152601960fa1b6064820152608401610b15565b61ffff87166000908152600560205260408082209051611b799089908990613f63565b90815260408051602092819003830181206001600160401b038916600090815290845282902093909355601f88018290048202830182019052868252611c11918991899089908190840183828082843760009201919091525050604080516020601f8a018190048102820181019092528881528a93509150889088908190840183828082843760009201919091525061254f92505050565b7fc264d91f3adc5588250e1551f547752ca0cfa8f6b530d243b9f9f4cab10ea8e58787878785604051611c48959493929190614275565b60405180910390a150505050505050565b611c61612043565b60008111611ca95760405162461bcd60e51b81526020600482015260156024820152744c7a4170703a20696e76616c6964206d696e47617360581b6044820152606401610b15565b61ffff83811660008181526002602090815260408083209487168084529482529182902085905581519283528201929092529081018290527f9d5c7c0b934da8fefa9c7760c98383778a12dfbfc0c3b3106518f43fb9508ac090606001611819565b6001600160a01b039182166000908152600f6020908152604080832093909416825291909152205460ff1690565b611d41612043565b61ffff83166000908152600160205260409020611d5f8284836142b0565b507ffa41487ad5d6728f0b19276fa1eddc16558578f5109fc39d2dc33c3230470dab83838360405161181993929190613f9c565b60008060008686604051602001611dab9291906143aa565b60408051601f198184030181529082905263040a7bb160e41b825291506001600160a01b037f000000000000000000000000000000000000000000000000000000000000000016906340a7bb1090611e0f908b90309086908b908b906004016143d8565b6040805180830381865afa158015611e2b573d6000803e3d6000fd5b505050506040513d601f19601f82011682018060405250810190611e4f919061442c565b92509250509550959350505050565b611e66612043565b6001600160a01b038116611ecb5760405162461bcd60e51b815260206004820152602660248201527f4f776e61626c653a206e6577206f776e657220697320746865207a65726f206160448201526564647265737360d01b6064820152608401610b15565b611ed4816126a6565b50565b604051633d7b2f6f60e21b815261ffff808616600483015284166024820152306044820152606481018290526060907f00000000000000000000000000000000000000000000000000000000000000006001600160a01b03169063f5ecbdbc90608401600060405180830381865afa158015611f57573d6000803e3d6000fd5b505050506040513d6000823e601f3d908101601f19168201604052611f7f9190810190614450565b90505b949350505050565b600080611fed5a60966366ad5c8a60e01b89898989604051602401611fb29493929190614484565b60408051601f198184030181529190526020810180516001600160e01b03166001600160e01b0319909316929092179091523092919061291e565b915091508161125b5761125b86868686856129a8565b60006001600160e01b031982166380ac58cd60e01b148061203457506001600160e01b03198216635b5e139f60e01b145b80610cef5750610cef82612a45565b6000546001600160a01b031633146112fb5760405162461bcd60e51b815260206004820181905260248201527f4f776e61626c653a2063616c6c6572206973206e6f7420746865206f776e65726044820152606401610b15565b6120a681612a7a565b611ed45760405162461bcd60e51b8152602060048201526018602482015277115490cdcc8c4e881a5b9d985b1a59081d1bdad95b88125160421b6044820152606401610b15565b6daaeb6d7670e522a718067333cd4e3b15611ed457604051633185c44d60e21b81523060048201526001600160a01b03821660248201526daaeb6d7670e522a718067333cd4e9063c617113490604401602060405180830381865afa15801561215a573d6000803e3d6000fd5b505050506040513d601f19601f8201168201806040525081019061217e91906144c2565b611ed457604051633b79c77360e21b81526001600160a01b0382166004820152602401610b15565b60006121b182611127565b9050806001600160a01b0316836001600160a01b03160361221e5760405162461bcd60e51b815260206004820152602160248201527f4552433732313a20617070726f76616c20746f2063757272656e74206f776e656044820152603960f91b6064820152608401610b15565b336001600160a01b038216148061223a575061223a8133611d0b565b6122ac5760405162461bcd60e51b815260206004820152603d60248201527f4552433732313a20617070726f76652063616c6c6572206973206e6f7420746f60448201527f6b656e206f776e6572206f7220617070726f76656420666f7220616c6c0000006064820152608401610b15565b610e4b8383612a97565b6122c1335b82612b05565b6122dd5760405162461bcd60e51b8152600401610b15906144df565b610e4b838383612b63565b604080516001808252818301909252606091600091906020808301908036833701905050905082816000815181106123225761232261452c565b602090810291909101015292915050565b611061828260405180602001604052806000815250612cc7565b610e4b83838360405180602001604052806000815250611835565b60008451116123b95760405162461bcd60e51b815260206004820152601a60248201527f4c7a4170703a20746f6b656e4964735b5d20697320656d7074790000000000006044820152606401610b15565b8351600114806123dd575061ffff8616600090815260076020526040902054845111155b61243d5760405162461bcd60e51b815260206004820152602b60248201527f4f4e46543732313a2062617463682073697a652065786365656473206473742060448201526a18985d18da081b1a5b5a5d60aa1b6064820152608401610b15565b60005b84518110156124805761246e8888888885815181106124615761246161452c565b6020026020010151612cfa565b8061247881614542565b915050612440565b50600085856040516020016124969291906143aa565b60405160208183030381529060405290506124db876001848851600860008d61ffff1661ffff168152602001908152602001600020546124d6919061455b565b612de5565b6124e9878286868634612ec4565b856040516124f79190614572565b6040518091039020886001600160a01b03168861ffff167fe1b87c47fdeb4f9cbadbca9df3af7aba453bb6e501075d0440d88125b711522a8860405161253d919061458e565b60405180910390a45050505050505050565b600080828060200190518101906125669190613fff565b60148201519193509150600061257e888383866126f6565b905082518110156126525784516020808701919091206040805160808101825261ffff808d1682526001600160a01b0380881683870190815283850188815260016060860181815260008981526009909a529887902095518654935190941662010000026001600160b01b03199093169390941692909217178355519082015592516002909301805493151560ff199094169390931790925590517f10e0b70d256bccc84b7027506978bd8b68984a870788b93b479def144c839ad79061264890839089906145a1565b60405180910390a1505b816001600160a01b03168760405161266a9190614572565b60405180910390208961ffff167f5b821db8a46f8ecbe1941ba2f51cfeea9643268b56631f70d45e2a745d9902658660405161253d919061458e565b600080546001600160a01b038381166001600160a01b0319831681178455604051919092169283917f8be0079c531659141344cd1fd0a4f28419497f9722a3daafe3b4186f6b6457e09190a35050565b6000825b8251811015611f7f576006545a10611f7f5761273086868584815181106127235761272361452c565b6020026020010151613069565b8061273a81614542565b9150506126fa565b60608161275081601f6145ba565b101561278f5760405162461bcd60e51b815260206004820152600e60248201526d736c6963655f6f766572666c6f7760901b6044820152606401610b15565b61279982846145ba565b845110156127dd5760405162461bcd60e51b8152602060048201526011602482015270736c6963655f6f75744f66426f756e647360781b6044820152606401610b15565b6060821580156127fc5760405191506000825260208201604052612846565b6040519150601f8416801560200281840101858101878315602002848b0101015b8183101561283557805183526020928301920161281d565b5050858452601f01601f1916604052505b50949350505050565b6110613383836130c9565b6128643383612b05565b6128805760405162461bcd60e51b8152600401610b15906144df565b610f5f84848484613197565b60606000612899836131ca565b60010190506000816001600160401b038111156128b8576128b8613856565b6040519080825280601f01601f1916602001820160405280156128e2576020820181803683370190505b5090508181016020015b600019016f181899199a1a9b1b9c1cb0b131b232b360811b600a86061a8153600a85049450846128ec57509392505050565b6000606060008060008661ffff166001600160401b0381111561294357612943613856565b6040519080825280601f01601f19166020018201604052801561296d576020820181803683370190505b50905060008087516020890160008d8df191503d92508683111561298f578692505b828152826000602083013e909890975095505050505050565b8180519060200120600560008761ffff1661ffff168152602001908152602001600020856040516129d99190614572565b9081526040805191829003602090810183206001600160401b0388166000908152915220919091557fe183f33de2837795525b4792ca4cd60535bd77c53b7e7030060bfcf5734d6b0c90612a3690879087908790879087906145cd565b60405180910390a15050505050565b60006001600160e01b031982166322bac5d960e01b1480610cef57506301ffc9a760e01b6001600160e01b0319831614610cef565b6000908152600c60205260409020546001600160a01b0316151590565b6000818152600e6020526040902080546001600160a01b0319166001600160a01b0384169081179091558190612acc82611127565b6001600160a01b03167f8c5be1e5ebec7d5bd14f71427d1e84f3dd0314c0f7b2291e5b200ac8c7c3b92560405160405180910390a45050565b600080612b1183611127565b9050806001600160a01b0316846001600160a01b03161480612b385750612b388185611d0b565b80611f825750836001600160a01b0316612b5184610e10565b6001600160a01b031614949350505050565b826001600160a01b0316612b7682611127565b6001600160a01b031614612b9c5760405162461bcd60e51b8152600401610b159061461f565b6001600160a01b038216612bfe5760405162461bcd60e51b8152602060048201526024808201527f4552433732313a207472616e7366657220746f20746865207a65726f206164646044820152637265737360e01b6064820152608401610b15565b826001600160a01b0316612c1182611127565b6001600160a01b031614612c375760405162461bcd60e51b8152600401610b159061461f565b6000818152600e6020908152604080832080546001600160a01b03199081169091556001600160a01b03878116808652600d8552838620805460001901905590871680865283862080546001019055868652600c90945282852080549092168417909155905184937fddf252ad1be2c89b69c2b068fc378daa952ba7f163c4a11628f55a4df523b3ef91a4505050565b612cd183836132a2565b612cde600084848461340f565b610e4b5760405162461bcd60e51b8152600401610b1590614664565b612d03336122bb565b612d665760405162461bcd60e51b815260206004820152602e60248201527f4f4e46543732313a2073656e642063616c6c6572206973206e6f74206f776e6560448201526d1c881b9bdc88185c1c1c9bdd995960921b6064820152608401610b15565b836001600160a01b0316612d7982611127565b6001600160a01b031614612dda5760405162461bcd60e51b815260206004820152602260248201527f4f4e46543732313a2073656e642066726f6d20696e636f7272656374206f776e60448201526132b960f11b6064820152608401610b15565b610f5f843083612b63565b6000612df08361350d565b61ffff808716600090815260026020908152604080832093891683529290529081205491925090612e229084906145ba565b905060008111612e745760405162461bcd60e51b815260206004820152601a60248201527f4c7a4170703a206d696e4761734c696d6974206e6f74207365740000000000006044820152606401610b15565b8082101561125b5760405162461bcd60e51b815260206004820152601b60248201527f4c7a4170703a20676173206c696d697420697320746f6f206c6f7700000000006044820152606401610b15565b61ffff861660009081526001602052604081208054612ee290613f29565b80601f0160208091040260200160405190810160405280929190818152602001828054612f0e90613f29565b8015612f5b5780601f10612f3057610100808354040283529160200191612f5b565b820191906000526020600020905b815481529060010190602001808311612f3e57829003601f168201915b505050505090508051600003612fcc5760405162461bcd60e51b815260206004820152603060248201527f4c7a4170703a2064657374696e6174696f6e20636861696e206973206e6f742060448201526f61207472757374656420736f7572636560801b6064820152608401610b15565b612fd7878751613569565b60405162c5803160e81b81526001600160a01b037f0000000000000000000000000000000000000000000000000000000000000000169063c580310090849061302e908b9086908c908c908c908c906004016146b6565b6000604051808303818588803b15801561304757600080fd5b505af115801561305b573d6000803e3d6000fd5b505050505050505050505050565b61307281612a7a565b158061309e575061308281612a7a565b801561309e57503061309382611127565b6001600160a01b0316145b6130a757600080fd5b6130b081612a7a565b6130be57610e4b8282612333565b610e4b308383612b63565b816001600160a01b0316836001600160a01b03160361312a5760405162461bcd60e51b815260206004820152601960248201527f4552433732313a20617070726f766520746f2063616c6c6572000000000000006044820152606401610b15565b6001600160a01b038381166000818152600f6020908152604080832094871680845294825291829020805460ff191686151590811790915591519182527f17307eab39ab6107e8899845ad3d59bd9653f200f220920489ca2b5937696c31910160405180910390a3505050565b6131a2848484612b63565b6131ae8484848461340f565b610f5f5760405162461bcd60e51b8152600401610b1590614664565b60008072184f03e93ff9f4daa797ed6e38ed64bf6a1f0160401b83106132095772184f03e93ff9f4daa797ed6e38ed64bf6a1f0160401b830492506040015b6d04ee2d6d415b85acef81000000008310613235576d04ee2d6d415b85acef8100000000830492506020015b662386f26fc10000831061325357662386f26fc10000830492506010015b6305f5e100831061326b576305f5e100830492506008015b612710831061327f57612710830492506004015b60648310613291576064830492506002015b600a8310610cef5760010192915050565b6001600160a01b0382166132f85760405162461bcd60e51b815260206004820181905260248201527f4552433732313a206d696e7420746f20746865207a65726f20616464726573736044820152606401610b15565b61330181612a7a565b1561334e5760405162461bcd60e51b815260206004820152601c60248201527f4552433732313a20746f6b656e20616c7265616479206d696e746564000000006044820152606401610b15565b61335781612a7a565b156133a45760405162461bcd60e51b815260206004820152601c60248201527f4552433732313a20746f6b656e20616c7265616479206d696e746564000000006044820152606401610b15565b6001600160a01b0382166000818152600d6020908152604080832080546001019055848352600c90915280822080546001600160a01b0319168417905551839291907fddf252ad1be2c89b69c2b068fc378daa952ba7f163c4a11628f55a4df523b3ef908290a45050565b60006001600160a01b0384163b1561350557604051630a85bd0160e11b81526001600160a01b0385169063150b7a029061345390339089908890889060040161471d565b6020604051808303816000875af192505050801561348e575060408051601f3d908101601f1916820190925261348b9181019061475a565b60015b6134eb573d8080156134bc576040519150601f19603f3d011682016040523d82523d6000602084013e6134c1565b606091505b5080516000036134e35760405162461bcd60e51b8152600401610b1590614664565b805181602001fd5b6001600160e01b031916630a85bd0160e11b149050611f82565b506001611f82565b60006022825110156135615760405162461bcd60e51b815260206004820152601c60248201527f4c7a4170703a20696e76616c69642061646170746572506172616d73000000006044820152606401610b15565b506022015190565b61ffff82166000908152600360205260408120549081900361358a57506127105b80821115610e4b5760405162461bcd60e51b815260206004820181905260248201527f4c7a4170703a207061796c6f61642073697a6520697320746f6f206c617267656044820152606401610b15565b803561ffff811681146135ec57600080fd5b919050565b60008083601f84011261360357600080fd5b5081356001600160401b0381111561361a57600080fd5b60208301915083602082850101111561363257600080fd5b9250929050565b80356001600160401b03811681146135ec57600080fd5b6000806000806000806080878903121561366957600080fd5b613672876135da565b955060208701356001600160401b038082111561368e57600080fd5b61369a8a838b016135f1565b90975095508591506136ae60408a01613639565b945060608901359150808211156136c457600080fd5b506136d189828a016135f1565b979a9699509497509295939492505050565b6001600160e01b031981168114611ed457600080fd5b60006020828403121561370b57600080fd5b8135611782816136e3565b60005b83811015613731578181015183820152602001613719565b50506000910152565b60008151808452613752816020860160208601613716565b601f01601f19169290920160200192915050565b602081526000611782602083018461373a565b60006020828403121561378b57600080fd5b611782826135da565b6000602082840312156137a657600080fd5b5035919050565b6001600160a01b0381168114611ed457600080fd5b80356135ec816137ad565b600080604083850312156137e057600080fd5b82356137eb816137ad565b946020939093013593505050565b6000806040838503121561380c57600080fd5b6137eb836135da565b60008060006060848603121561382a57600080fd5b8335613835816137ad565b92506020840135613845816137ad565b929592945050506040919091013590565b634e487b7160e01b600052604160045260246000fd5b604051601f8201601f191681016001600160401b038111828210171561389457613894613856565b604052919050565b60006001600160401b038211156138b5576138b5613856565b50601f01601f191660200190565b600082601f8301126138d457600080fd5b81356138e76138e28261389c565b61386c565b8181528460208386010111156138fc57600080fd5b816020850160208301376000918101602001919091529392505050565b8015158114611ed457600080fd5b600080600080600060a0868803121561393f57600080fd5b613948866135da565b945060208601356001600160401b038082111561396457600080fd5b61397089838a016138c3565b9550604088013594506060880135915061398982613919565b9092506080870135908082111561399f57600080fd5b506139ac888289016138c3565b9150509295509295909350565b6000806000604084860312156139ce57600080fd5b6139d7846135da565b925060208401356001600160401b038111156139f257600080fd5b6139fe868287016135f1565b9497909650939450505050565b600080600080600080600060e0888a031215613a2657600080fd5b8735613a31816137ad565b9650613a3f602089016135da565b955060408801356001600160401b0380821115613a5b57600080fd5b613a678b838c016138c3565b965060608a0135955060808a01359150613a80826137ad565b90935060a089013590613a92826137ad565b90925060c08901359080821115613aa857600080fd5b50613ab58a828b016138c3565b91505092959891949750929550565b600080600060608486031215613ad957600080fd5b613ae2846135da565b925060208401356001600160401b03811115613afd57600080fd5b613b09868287016138c3565b925050613b1860408501613639565b90509250925092565b600060208284031215613b3357600080fd5b8135611782816137ad565b60008060408385031215613b5157600080fd5b613b5a836135da565b9150613b68602084016135da565b90509250929050565b600060208284031215613b8357600080fd5b81356001600160401b03811115613b9957600080fd5b611f82848285016138c3565b60008060408385031215613bb857600080fd5b8235613bc3816137ad565b91506020830135613bd381613919565b809150509250929050565b60006001600160401b03821115613bf757613bf7613856565b5060051b60200190565b600082601f830112613c1257600080fd5b81356020613c226138e283613bde565b82815260059290921b84018101918181019086841115613c4157600080fd5b8286015b84811015613c5c5780358352918301918301613c45565b509695505050505050565b600080600080600080600060e0888a031215613c8257600080fd5b8735613c8d816137ad565b9650613c9b602089016135da565b955060408801356001600160401b0380821115613cb757600080fd5b613cc38b838c016138c3565b965060608a0135915080821115613cd957600080fd5b613ce58b838c01613c01565b955060808a01359150613cf7826137ad565b819450613d0660a08b016137c2565b935060c08a0135915080821115613aa857600080fd5b60008060008060808587031215613d3257600080fd5b8435613d3d816137ad565b93506020850135613d4d816137ad565b92506040850135915060608501356001600160401b03811115613d6f57600080fd5b613d7b878288016138c3565b91505092959194509250565b600080600080600060808688031215613d9f57600080fd5b613da8866135da565b9450613db6602087016135da565b93506040860135925060608601356001600160401b03811115613dd857600080fd5b613de4888289016135f1565b969995985093965092949392505050565b600080600060608486031215613e0a57600080fd5b613e13846135da565b9250613e21602085016135da565b9150604084013590509250925092565b60008060408385031215613e4457600080fd5b8235613e4f816137ad565b91506020830135613bd3816137ad565b600080600080600060a08688031215613e7757600080fd5b613e80866135da565b945060208601356001600160401b0380821115613e9c57600080fd5b613ea889838a016138c3565b95506040880135915080821115613ebe57600080fd5b613eca89838a01613c01565b94506060880135915061398982613919565b60008060008060808587031215613ef257600080fd5b613efb856135da565b9350613f09602086016135da565b92506040850135613f19816137ad565b9396929550929360600135925050565b600181811c90821680613f3d57607f821691505b602082108103613f5d57634e487b7160e01b600052602260045260246000fd5b50919050565b8183823760009101908152919050565b81835281816020850137506000828201602090810191909152601f909101601f19169091010190565b61ffff84168152604060208201526000611f7f604083018486613f73565b600082601f830112613fcb57600080fd5b8151613fd96138e28261389c565b818152846020838601011115613fee57600080fd5b611f82826020830160208701613716565b6000806040838503121561401257600080fd5b82516001600160401b038082111561402957600080fd5b61403586838701613fba565b935060209150818501518181111561404c57600080fd5b85019050601f8101861361405f57600080fd5b805161406d6138e282613bde565b81815260059190911b8201830190838101908883111561408c57600080fd5b928401925b828410156140aa57835182529284019290840190614091565b80955050505050509250929050565b634e487b7160e01b600052601160045260246000fd5b81810381811115610cef57610cef6140b9565b8284823760609190911b6bffffffffffffffffffffffff19169101908152601401919050565b601f821115610e4b57600081815260208120601f850160051c8101602086101561412f5750805b601f850160051c820191505b8181101561125b5782815560010161413b565b81516001600160401b0381111561416757614167613856565b61417b816141758454613f29565b84614108565b602080601f8311600181146141b057600084156141985750858301515b600019600386901b1c1916600185901b17855561125b565b600085815260208120601f198616915b828110156141df578886015182559484019460019091019084016141c0565b50858210156141fd5787850151600019600388901b60f8161c191681555b5050505050600190811b01905550565b6000835161421f818460208801613716565b835190830190614233818360208801613716565b01949350505050565b600061ffff80881683528087166020840152508460408301526080606083015261426a608083018486613f73565b979650505050505050565b61ffff86168152608060208201526000614293608083018688613f73565b6001600160401b0394909416604083015250606001529392505050565b6001600160401b038311156142c7576142c7613856565b6142db836142d58354613f29565b83614108565b6000601f84116001811461430f57600085156142f75750838201355b600019600387901b1c1916600186901b178355610e09565b600083815260209020601f19861690835b828110156143405786850135825560209485019460019092019101614320565b508682101561435d5760001960f88860031b161c19848701351681555b505060018560011b0183555050505050565b600081518084526020808501945080840160005b8381101561439f57815187529582019590820190600101614383565b509495945050505050565b6040815260006143bd604083018561373a565b82810360208401526143cf818561436f565b95945050505050565b61ffff861681526001600160a01b038516602082015260a0604082018190526000906144069083018661373a565b84151560608401528281036080840152614420818561373a565b98975050505050505050565b6000806040838503121561443f57600080fd5b505080516020909101519092909150565b60006020828403121561446257600080fd5b81516001600160401b0381111561447857600080fd5b611f8284828501613fba565b61ffff851681526080602082015260006144a1608083018661373a565b6001600160401b0385166040840152828103606084015261426a818561373a565b6000602082840312156144d457600080fd5b815161178281613919565b6020808252602d908201527f4552433732313a2063616c6c6572206973206e6f7420746f6b656e206f776e6560408201526c1c881bdc88185c1c1c9bdd9959609a1b606082015260800190565b634e487b7160e01b600052603260045260246000fd5b600060018201614554576145546140b9565b5060010190565b8082028115828204841417610cef57610cef6140b9565b60008251614584818460208701613716565b9190910192915050565b602081526000611782602083018461436f565b828152604060208201526000611f82604083018461373a565b80820180821115610cef57610cef6140b9565b61ffff8616815260a0602082015260006145ea60a083018761373a565b6001600160401b0386166040840152828103606084015261460b818661373a565b90508281036080840152614420818561373a565b60208082526025908201527f4552433732313a207472616e736665722066726f6d20696e636f72726563742060408201526437bbb732b960d91b606082015260800190565b60208082526032908201527f4552433732313a207472616e7366657220746f206e6f6e20455243373231526560408201527131b2b4bb32b91034b6b83632b6b2b73a32b960711b606082015260800190565b61ffff8716815260c0602082015260006146d360c083018861373a565b82810360408401526146e5818861373a565b6001600160a01b0387811660608601528616608085015283810360a08501529050614710818561373a565b9998505050505050505050565b6001600160a01b03858116825284166020820152604081018390526080606082018190526000906147509083018461373a565b9695505050505050565b60006020828403121561476c57600080fd5b8151611782816136e356fea26469706673582212201dc81b170637ea8bef3612df8debfdd7aa6220db87bbf39ab7cd688b4de3705364736f6c63430008110033",
    "linkReferences": {}
  },
  "methodIdentifiers": {
    "DEFAULT_PAYLOAD_SIZE_LIMIT()": "c4461834",
    "FUNCTION_TYPE_SEND()": "af3fb21c",
    "OPERATOR_FILTER_REGISTRY()": "41f43434",
    "approve(address,uint256)": "095ea7b3",
    "balanceOf(address)": "70a08231",
    "clearCredits(bytes)": "8ffa1f2a",
    "dstChainIdToBatchLimit(uint16)": "4ac3f4ff",
    "dstChainIdToTransferGas(uint16)": "fa25f9b6",
    "estimateSendBatchFee(uint16,bytes,uint256[],bool,bytes)": "f2353641",
    "estimateSendFee(uint16,bytes,uint256,bool,bytes)": "2a205e3d",
    "failedMessages(uint16,bytes,uint64)": "5b8c41e6",
    "forceResumeReceive(uint16,bytes)": "42d65a8d",
    "getApproved(uint256)": "081812fc",
    "getConfig(uint16,uint16,address,uint256)": "f5ecbdbc",
    "getTrustedRemoteAddress(uint16)": "9f38369a",
    "isApprovedForAll(address,address)": "e985e9c5",
    "isTrustedRemote(uint16,bytes)": "3d8b38f6",
    "lzEndpoint()": "b353aaa7",
    "lzReceive(uint16,bytes,uint64,bytes)": "001d3567",
    "minDstGasLookup(uint16,uint16)": "8cfd8f5c",
    "minGasToTransferAndStore()": "48288190",
    "mint(address,uint256)": "40c10f19",
    "name()": "06fdde03",
    "nonblockingLzReceive(uint16,bytes,uint64,bytes)": "66ad5c8a",
    "owner()": "8da5cb5b",
    "ownerOf(uint256)": "6352211e",
    "payloadSizeLimitLookup(uint16)": "3f1f4fa4",
    "precrime()": "950c8a74",
    "renounceOwnership()": "715018a6",
    "retryMessage(uint16,bytes,uint64,bytes)": "d1deba1f",
    "safeTransferFrom(address,address,uint256)": "42842e0e",
    "safeTransferFrom(address,address,uint256,bytes)": "b88d4fde",
    "sendBatchFrom(address,uint16,bytes,uint256[],address,address,bytes)": "ab3ffb93",
    "sendFrom(address,uint16,bytes,uint256,address,address,bytes)": "51905636",
    "setApprovalForAll(address,bool)": "a22cb465",
    "setConfig(uint16,uint16,uint256,bytes)": "cbed8b9c",
    "setDstChainIdToBatchLimit(uint16,uint256)": "9ea5d6b1",
    "setDstChainIdToTransferGas(uint16,uint256)": "d12473a5",
    "setMinDstGas(uint16,uint16,uint256)": "df2a5b3b",
    "setMinGasToTransferAndStore(uint256)": "0b4cad4c",
    "setPayloadSizeLimit(uint16,uint256)": "0df37483",
    "setPrecrime(address)": "baf3292d",
    "setReceiveVersion(uint16)": "10ddb137",
    "setSendVersion(uint16)": "07e0db17",
    "setTrustedRemote(uint16,bytes)": "eb8d72b7",
    "setTrustedRemoteAddress(uint16,bytes)": "a6c3d165",
    "storedCredits(bytes32)": "22a3ecf9",
    "supportsInterface(bytes4)": "01ffc9a7",
    "symbol()": "95d89b41",
    "tokenURI(uint256)": "c87b56dd",
    "transferFrom(address,address,uint256)": "23b872dd",
    "transferOwnership(address)": "f2fde38b",
    "trustedRemoteLookup(uint16)": "7533d788"
  },
  "id": 50
}