{
  "abi": [
    {
      "inputs": [
        {
          "internalType": "string",
          "name": "_name",
          "type": "string"
        },
        {
          "internalType": "string",
          "name": "_symbol",
          "type": "string"
        },
        {
          "internalType": "address",
          "name": "_layerZeroEndpoint",
          "type": "address"
        }
      ],
      "stateMutability": "nonpayable",
      "type": "constructor"
    },
    {
      "inputs": [
        {
          "internalType": "address",
          "name": "operator",
          "type": "address"
        }
      ],
      "name": "OperatorNotAllowed",
      "type": "error"
    },
    {
      "anonymous": false,
      "inputs": [
        {
          "indexed": true,
          "internalType": "address",
          "name": "owner",
          "type": "address"
        },
        {
          "indexed": true,
          "internalType": "address",
          "name": "approved",
          "type": "address"
        },
        {
          "indexed": true,
          "internalType": "uint256",
          "name": "tokenId",
          "type": "uint256"
        }
      ],
      "name": "Approval",
      "type": "event"
    },
    {
      "anonymous": false,
      "inputs": [
        {
          "indexed": true,
          "internalType": "address",
          "name": "owner",
          "type": "address"
        },
        {
          "indexed": true,
          "internalType": "address",
          "name": "operator",
          "type": "address"
        },
        {
          "indexed": false,
          "internalType": "bool",
          "name": "approved",
          "type": "bool"
        }
      ],
      "name": "ApprovalForAll",
      "type": "event"
    },
    {
      "anonymous": false,
      "inputs": [
        {
          "indexed": false,
          "internalType": "uint16",
          "name": "_srcChainId",
          "type": "uint16"
        },
        {
          "indexed": false,
          "internalType": "bytes",
          "name": "_srcAddress",
          "type": "bytes"
        },
        {
          "indexed": false,
          "internalType": "uint64",
          "name": "_nonce",
          "type": "uint64"
        },
        {
          "indexed": false,
          "internalType": "bytes",
          "name": "_payload",
          "type": "bytes"
        },
        {
          "indexed": false,
          "internalType": "bytes",
          "name": "_reason",
          "type": "bytes"
        }
      ],
      "name": "MessageFailed",
      "type": "event"
    },
    {
      "anonymous": false,
      "inputs": [
        {
          "indexed": true,
          "internalType": "address",
          "name": "previousOwner",
          "type": "address"
        },
        {
          "indexed": true,
          "internalType": "address",
          "name": "newOwner",
          "type": "address"
        }
      ],
      "name": "OwnershipTransferred",
      "type": "event"
    },
    {
      "anonymous": false,
      "inputs": [
        {
          "indexed": true,
          "internalType": "uint16",
          "name": "_srcChainId",
          "type": "uint16"
        },
        {
          "indexed": true,
          "internalType": "bytes",
          "name": "_srcAddress",
          "type": "bytes"
        },
        {
          "indexed": true,
          "internalType": "address",
          "name": "_toAddress",
          "type": "address"
        },
        {
          "indexed": false,
          "internalType": "uint256",
          "name": "_tokenId",
          "type": "uint256"
        },
        {
          "indexed": false,
          "internalType": "uint64",
          "name": "_nonce",
          "type": "uint64"
        }
      ],
      "name": "ReceiveFromChain",
      "type": "event"
    },
    {
      "anonymous": false,
      "inputs": [
        {
          "indexed": false,
          "internalType": "uint16",
          "name": "_srcChainId",
          "type": "uint16"
        },
        {
          "indexed": false,
          "internalType": "bytes",
          "name": "_srcAddress",
          "type": "bytes"
        },
        {
          "indexed": false,
          "internalType": "uint64",
          "name": "_nonce",
          "type": "uint64"
        },
        {
          "indexed": false,
          "internalType": "bytes32",
          "name": "_payloadHash",
          "type": "bytes32"
        }
      ],
      "name": "RetryMessageSuccess",
      "type": "event"
    },
    {
      "anonymous": false,
      "inputs": [
        {
          "indexed": true,
          "internalType": "address",
          "name": "_sender",
          "type": "address"
        },
        {
          "indexed": true,
          "internalType": "uint16",
          "name": "_dstChainId",
          "type": "uint16"
        },
        {
          "indexed": true,
          "internalType": "bytes",
          "name": "_toAddress",
          "type": "bytes"
        },
        {
          "indexed": false,
          "internalType": "uint256",
          "name": "_tokenId",
          "type": "uint256"
        },
        {
          "indexed": false,
          "internalType": "uint64",
          "name": "_nonce",
          "type": "uint64"
        }
      ],
      "name": "SendToChain",
      "type": "event"
    },
    {
      "anonymous": false,
      "inputs": [
        {
          "indexed": false,
          "internalType": "uint16",
          "name": "_dstChainId",
          "type": "uint16"
        },
        {
          "indexed": false,
          "internalType": "uint16",
          "name": "_type",
          "type": "uint16"
        },
        {
          "indexed": false,
          "internalType": "uint256",
          "name": "_minDstGas",
          "type": "uint256"
        }
      ],
      "name": "SetMinDstGas",
      "type": "event"
    },
    {
      "anonymous": false,
      "inputs": [
        {
          "indexed": false,
          "internalType": "address",
          "name": "precrime",
          "type": "address"
        }
      ],
      "name": "SetPrecrime",
      "type": "event"
    },
    {
      "anonymous": false,
      "inputs": [
        {
          "indexed": false,
          "internalType": "uint16",
          "name": "_remoteChainId",
          "type": "uint16"
        },
        {
          "indexed": false,
          "internalType": "bytes",
          "name": "_path",
          "type": "bytes"
        }
      ],
      "name": "SetTrustedRemote",
      "type": "event"
    },
    {
      "anonymous": false,
      "inputs": [
        {
          "indexed": false,
          "internalType": "uint16",
          "name": "_remoteChainId",
          "type": "uint16"
        },
        {
          "indexed": false,
          "internalType": "bytes",
          "name": "_remoteAddress",
          "type": "bytes"
        }
      ],
      "name": "SetTrustedRemoteAddress",
      "type": "event"
    },
    {
      "anonymous": false,
      "inputs": [
        {
          "indexed": true,
          "internalType": "address",
          "name": "from",
          "type": "address"
        },
        {
          "indexed": true,
          "internalType": "address",
          "name": "to",
          "type": "address"
        },
        {
          "indexed": true,
          "internalType": "uint256",
          "name": "tokenId",
          "type": "uint256"
        }
      ],
      "name": "Transfer",
      "type": "event"
    },
    {
      "inputs": [],
      "name": "DEFAULT_PAYLOAD_SIZE_LIMIT",
      "outputs": [
        {
          "internalType": "uint256",
          "name": "",
          "type": "uint256"
        }
      ],
      "stateMutability": "view",
      "type": "function"
    },
    {
      "inputs": [],
      "name": "OPERATOR_FILTER_REGISTRY",
      "outputs": [
        {
          "internalType": "contract IOperatorFilterRegistry",
          "name": "",
          "type": "address"
        }
      ],
      "stateMutability": "view",
      "type": "function"
    },
    {
      "inputs": [
        {
          "internalType": "address",
          "name": "operator",
          "type": "address"
        },
        {
          "internalType": "uint256",
          "name": "tokenId",
          "type": "uint256"
        }
      ],
      "name": "approve",
      "outputs": [],
      "stateMutability": "nonpayable",
      "type": "function"
    },
    {
      "inputs": [
        {
          "internalType": "address",
          "name": "owner",
          "type": "address"
        }
      ],
      "name": "balanceOf",
      "outputs": [
        {
          "internalType": "uint256",
          "name": "",
          "type": "uint256"
        }
      ],
      "stateMutability": "view",
      "type": "function"
    },
    {
      "inputs": [
        {
          "internalType": "uint16",
          "name": "_dstChainId",
          "type": "uint16"
        },
        {
          "internalType": "bytes",
          "name": "_toAddress",
          "type": "bytes"
        },
        {
          "internalType": "uint256",
          "name": "_tokenId",
          "type": "uint256"
        },
        {
          "internalType": "bool",
          "name": "_useZro",
          "type": "bool"
        },
        {
          "internalType": "bytes",
          "name": "_adapterParams",
          "type": "bytes"
        }
      ],
      "name": "estimateSendFee",
      "outputs": [
        {
          "internalType": "uint256",
          "name": "nativeFee",
          "type": "uint256"
        },
        {
          "internalType": "uint256",
          "name": "zroFee",
          "type": "uint256"
        }
      ],
      "stateMutability": "view",
      "type": "function"
    },
    {
      "inputs": [
        {
          "internalType": "uint16",
          "name": "",
          "type": "uint16"
        },
        {
          "internalType": "bytes",
          "name": "",
          "type": "bytes"
        },
        {
          "internalType": "uint64",
          "name": "",
          "type": "uint64"
        }
      ],
      "name": "failedMessages",
      "outputs": [
        {
          "internalType": "bytes32",
          "name": "",
          "type": "bytes32"
        }
      ],
      "stateMutability": "view",
      "type": "function"
    },
    {
      "inputs": [
        {
          "internalType": "uint16",
          "name": "_srcChainId",
          "type": "uint16"
        },
        {
          "internalType": "bytes",
          "name": "_srcAddress",
          "type": "bytes"
        }
      ],
      "name": "forceResumeReceive",
      "outputs": [],
      "stateMutability": "nonpayable",
      "type": "function"
    },
    {
      "inputs": [
        {
          "internalType": "uint256",
          "name": "tokenId",
          "type": "uint256"
        }
      ],
      "name": "getApproved",
      "outputs": [
        {
          "internalType": "address",
          "name": "",
          "type": "address"
        }
      ],
      "stateMutability": "view",
      "type": "function"
    },
    {
      "inputs": [
        {
          "internalType": "uint16",
          "name": "_version",
          "type": "uint16"
        },
        {
          "internalType": "uint16",
          "name": "_chainId",
          "type": "uint16"
        },
        {
          "internalType": "address",
          "name": "",
          "type": "address"
        },
        {
          "internalType": "uint256",
          "name": "_configType",
          "type": "uint256"
        }
      ],
      "name": "getConfig",
      "outputs": [
        {
          "internalType": "bytes",
          "name": "",
          "type": "bytes"
        }
      ],
      "stateMutability": "view",
      "type": "function"
    },
    {
      "inputs": [
        {
          "internalType": "uint16",
          "name": "_remoteChainId",
          "type": "uint16"
        }
      ],
      "name": "getTrustedRemoteAddress",
      "outputs": [
        {
          "internalType": "bytes",
          "name": "",
          "type": "bytes"
        }
      ],
      "stateMutability": "view",
      "type": "function"
    },
    {
      "inputs": [
        {
          "internalType": "address",
          "name": "owner",
          "type": "address"
        },
        {
          "internalType": "address",
          "name": "operator",
          "type": "address"
        }
      ],
      "name": "isApprovedForAll",
      "outputs": [
        {
          "internalType": "bool",
          "name": "",
          "type": "bool"
        }
      ],
      "stateMutability": "view",
      "type": "function"
    },
    {
      "inputs": [
        {
          "internalType": "uint16",
          "name": "_srcChainId",
          "type": "uint16"
        },
        {
          "internalType": "bytes",
          "name": "_srcAddress",
          "type": "bytes"
        }
      ],
      "name": "isTrustedRemote",
      "outputs": [
        {
          "internalType": "bool",
          "name": "",
          "type": "bool"
        }
      ],
      "stateMutability": "view",
      "type": "function"
    },
    {
      "inputs": [],
      "name": "lzEndpoint",
      "outputs": [
        {
          "internalType": "contract ILayerZeroEndpoint",
          "name": "",
          "type": "address"
        }
      ],
      "stateMutability": "view",
      "type": "function"
    },
    {
      "inputs": [
        {
          "internalType": "uint16",
          "name": "_srcChainId",
          "type": "uint16"
        },
        {
          "internalType": "bytes",
          "name": "_srcAddress",
          "type": "bytes"
        },
        {
          "internalType": "uint64",
          "name": "_nonce",
          "type": "uint64"
        },
        {
          "internalType": "bytes",
          "name": "_payload",
          "type": "bytes"
        }
      ],
      "name": "lzReceive",
      "outputs": [],
      "stateMutability": "nonpayable",
      "type": "function"
    },
    {
      "inputs": [
        {
          "internalType": "uint16",
          "name": "",
          "type": "uint16"
        },
        {
          "internalType": "uint16",
          "name": "",
          "type": "uint16"
        }
      ],
      "name": "minDstGasLookup",
      "outputs": [
        {
          "internalType": "uint256",
          "name": "",
          "type": "uint256"
        }
      ],
      "stateMutability": "view",
      "type": "function"
    },
    {
      "inputs": [
        {
          "internalType": "address",
          "name": "_tokenOwner",
          "type": "address"
        },
        {
          "internalType": "uint256",
          "name": "_newId",
          "type": "uint256"
        }
      ],
      "name": "mint",
      "outputs": [],
      "stateMutability": "payable",
      "type": "function"
    },
    {
      "inputs": [],
      "name": "name",
      "outputs": [
        {
          "internalType": "string",
          "name": "",
          "type": "string"
        }
      ],
      "stateMutability": "view",
      "type": "function"
    },
    {
      "inputs": [
        {
          "internalType": "uint16",
          "name": "_srcChainId",
          "type": "uint16"
        },
        {
          "internalType": "bytes",
          "name": "_srcAddress",
          "type": "bytes"
        },
        {
          "internalType": "uint64",
          "name": "_nonce",
          "type": "uint64"
        },
        {
          "internalType": "bytes",
          "name": "_payload",
          "type": "bytes"
        }
      ],
      "name": "nonblockingLzReceive",
      "outputs": [],
      "stateMutability": "nonpayable",
      "type": "function"
    },
    {
      "inputs": [],
      "name": "owner",
      "outputs": [
        {
          "internalType": "address",
          "name": "",
          "type": "address"
        }
      ],
      "stateMutability": "view",
      "type": "function"
    },
    {
      "inputs": [
        {
          "internalType": "uint256",
          "name": "tokenId",
          "type": "uint256"
        }
      ],
      "name": "ownerOf",
      "outputs": [
        {
          "internalType": "address",
          "name": "",
          "type": "address"
        }
      ],
      "stateMutability": "view",
      "type": "function"
    },
    {
      "inputs": [
        {
          "internalType": "uint16",
          "name": "",
          "type": "uint16"
        }
      ],
      "name": "payloadSizeLimitLookup",
      "outputs": [
        {
          "internalType": "uint256",
          "name": "",
          "type": "uint256"
        }
      ],
      "stateMutability": "view",
      "type": "function"
    },
    {
      "inputs": [],
      "name": "precrime",
      "outputs": [
        {
          "internalType": "address",
          "name": "",
          "type": "address"
        }
      ],
      "stateMutability": "view",
      "type": "function"
    },
    {
      "inputs": [],
      "name": "renounceOwnership",
      "outputs": [],
      "stateMutability": "nonpayable",
      "type": "function"
    },
    {
      "inputs": [
        {
          "internalType": "uint16",
          "name": "_srcChainId",
          "type": "uint16"
        },
        {
          "internalType": "bytes",
          "name": "_srcAddress",
          "type": "bytes"
        },
        {
          "internalType": "uint64",
          "name": "_nonce",
          "type": "uint64"
        },
        {
          "internalType": "bytes",
          "name": "_payload",
          "type": "bytes"
        }
      ],
      "name": "retryMessage",
      "outputs": [],
      "stateMutability": "payable",
      "type": "function"
    },
    {
      "inputs": [
        {
          "internalType": "address",
          "name": "from",
          "type": "address"
        },
        {
          "internalType": "address",
          "name": "to",
          "type": "address"
        },
        {
          "internalType": "uint256",
          "name": "tokenId",
          "type": "uint256"
        }
      ],
      "name": "safeTransferFrom",
      "outputs": [],
      "stateMutability": "nonpayable",
      "type": "function"
    },
    {
      "inputs": [
        {
          "internalType": "address",
          "name": "from",
          "type": "address"
        },
        {
          "internalType": "address",
          "name": "to",
          "type": "address"
        },
        {
          "internalType": "uint256",
          "name": "tokenId",
          "type": "uint256"
        },
        {
          "internalType": "bytes",
          "name": "data",
          "type": "bytes"
        }
      ],
      "name": "safeTransferFrom",
      "outputs": [],
      "stateMutability": "nonpayable",
      "type": "function"
    },
    {
      "inputs": [
        {
          "internalType": "address",
          "name": "_from",
          "type": "address"
        },
        {
          "internalType": "uint16",
          "name": "_dstChainId",
          "type": "uint16"
        },
        {
          "internalType": "bytes",
          "name": "_toAddress",
          "type": "bytes"
        },
        {
          "internalType": "uint256",
          "name": "_tokenId",
          "type": "uint256"
        },
        {
          "internalType": "address payable",
          "name": "_refundAddress",
          "type": "address"
        },
        {
          "internalType": "address",
          "name": "_zroPaymentAddress",
          "type": "address"
        },
        {
          "internalType": "bytes",
          "name": "_adapterParams",
          "type": "bytes"
        }
      ],
      "name": "sendFrom",
      "outputs": [],
      "stateMutability": "payable",
      "type": "function"
    },
    {
      "inputs": [
        {
          "internalType": "address",
          "name": "operator",
          "type": "address"
        },
        {
          "internalType": "bool",
          "name": "approved",
          "type": "bool"
        }
      ],
      "name": "setApprovalForAll",
      "outputs": [],
      "stateMutability": "nonpayable",
      "type": "function"
    },
    {
      "inputs": [
        {
          "internalType": "uint16",
          "name": "_version",
          "type": "uint16"
        },
        {
          "internalType": "uint16",
          "name": "_chainId",
          "type": "uint16"
        },
        {
          "internalType": "uint256",
          "name": "_configType",
          "type": "uint256"
        },
        {
          "internalType": "bytes",
          "name": "_config",
          "type": "bytes"
        }
      ],
      "name": "setConfig",
      "outputs": [],
      "stateMutability": "nonpayable",
      "type": "function"
    },
    {
      "inputs": [
        {
          "internalType": "uint16",
          "name": "_dstChainId",
          "type": "uint16"
        },
        {
          "internalType": "uint16",
          "name": "_packetType",
          "type": "uint16"
        },
        {
          "internalType": "uint256",
          "name": "_minGas",
          "type": "uint256"
        }
      ],
      "name": "setMinDstGas",
      "outputs": [],
      "stateMutability": "nonpayable",
      "type": "function"
    },
    {
      "inputs": [
        {
          "internalType": "uint16",
          "name": "_dstChainId",
          "type": "uint16"
        },
        {
          "internalType": "uint256",
          "name": "_size",
          "type": "uint256"
        }
      ],
      "name": "setPayloadSizeLimit",
      "outputs": [],
      "stateMutability": "nonpayable",
      "type": "function"
    },
    {
      "inputs": [
        {
          "internalType": "address",
          "name": "_precrime",
          "type": "address"
        }
      ],
      "name": "setPrecrime",
      "outputs": [],
      "stateMutability": "nonpayable",
      "type": "function"
    },
    {
      "inputs": [
        {
          "internalType": "uint16",
          "name": "_version",
          "type": "uint16"
        }
      ],
      "name": "setReceiveVersion",
      "outputs": [],
      "stateMutability": "nonpayable",
      "type": "function"
    },
    {
      "inputs": [
        {
          "internalType": "uint16",
          "name": "_version",
          "type": "uint16"
        }
      ],
      "name": "setSendVersion",
      "outputs": [],
      "stateMutability": "nonpayable",
      "type": "function"
    },
    {
      "inputs": [
        {
          "internalType": "uint16",
          "name": "_srcChainId",
          "type": "uint16"
        },
        {
          "internalType": "bytes",
          "name": "_path",
          "type": "bytes"
        }
      ],
      "name": "setTrustedRemote",
      "outputs": [],
      "stateMutability": "nonpayable",
      "type": "function"
    },
    {
      "inputs": [
        {
          "internalType": "uint16",
          "name": "_remoteChainId",
          "type": "uint16"
        },
        {
          "internalType": "bytes",
          "name": "_remoteAddress",
          "type": "bytes"
        }
      ],
      "name": "setTrustedRemoteAddress",
      "outputs": [],
      "stateMutability": "nonpayable",
      "type": "function"
    },
    {
      "inputs": [
        {
          "internalType": "bytes4",
          "name": "interfaceId",
          "type": "bytes4"
        }
      ],
      "name": "supportsInterface",
      "outputs": [
        {
          "internalType": "bool",
          "name": "",
          "type": "bool"
        }
      ],
      "stateMutability": "view",
      "type": "function"
    },
    {
      "inputs": [],
      "name": "symbol",
      "outputs": [
        {
          "internalType": "string",
          "name": "",
          "type": "string"
        }
      ],
      "stateMutability": "view",
      "type": "function"
    },
    {
      "inputs": [
        {
          "internalType": "uint256",
          "name": "tokenId",
          "type": "uint256"
        }
      ],
      "name": "tokenURI",
      "outputs": [
        {
          "internalType": "string",
          "name": "",
          "type": "string"
        }
      ],
      "stateMutability": "view",
      "type": "function"
    },
    {
      "inputs": [
        {
          "internalType": "address",
          "name": "from",
          "type": "address"
        },
        {
          "internalType": "address",
          "name": "to",
          "type": "address"
        },
        {
          "internalType": "uint256",
          "name": "tokenId",
          "type": "uint256"
        }
      ],
      "name": "transferFrom",
      "outputs": [],
      "stateMutability": "nonpayable",
      "type": "function"
    },
    {
      "inputs": [
        {
          "internalType": "address",
          "name": "newOwner",
          "type": "address"
        }
      ],
      "name": "transferOwnership",
      "outputs": [],
      "stateMutability": "nonpayable",
      "type": "function"
    },
    {
      "inputs": [
        {
          "internalType": "uint16",
          "name": "",
          "type": "uint16"
        }
      ],
      "name": "trustedRemoteLookup",
      "outputs": [
        {
          "internalType": "bytes",
          "name": "",
          "type": "bytes"
        }
      ],
      "stateMutability": "view",
      "type": "function"
    }
  ],
  "bytecode": {
    "object": "0x60a0604090808252346200044f5762003b9e803803809162000022828562000454565b833981016060828203126200044f5781516001600160401b0391908281116200044f5781620000539185016200048e565b90602090818501518481116200044f578691620000729187016200048e565b9401516001600160a01b039490858116908190036200044f5760008054336001600160a01b03198216811783559197167f8be0079c531659141344cd1fd0a4f28419497f9722a3daafe3b4186f6b6457e08880a36080528251908482116200043b57600654916001948584811c9416801562000430575b8585101462000337578190601f94858111620003dc575b508590858311600114620003765789926200036a575b5050600019600383901b1c191690851b176006555b80519285841162000356576007548581811c911680156200034b575b828210146200033757838111620002ee575b5080928411600114620002845750928293918392879462000278575b50501b916000199060031b1c1916176007555b6daaeb6d7670e522a718067333cd4e803b620001f6575b83516136989081620005068239608051818181610442015281816107700152818161099f01528181610c4501528181610e9e0152818161100b0152818161190001528181611b890152818161215101526124100152f35b803b156200027457908280926044865180968193633e9f1edf60e11b8352306004840152733cc6cdda760b79bafa08df41ecfa224f810dceb660248401525af180156200026a57156200019f57821162000256575081523880806200019f565b634e487b7160e01b81526041600452602490fd5b84513d84823e3d90fd5b8280fd5b01519250388062000175565b919083601f198116600789528489209489905b88838310620002d35750505010620002b9575b505050811b0160075562000188565b015160001960f88460031b161c19169055388080620002aa565b85870151885590960195948501948793509081019062000297565b600788528188208480870160051c8201928488106200032d575b0160051c019086905b8281106200032157505062000159565b89815501869062000311565b9250819262000308565b634e487b7160e01b88526022600452602488fd5b90607f169062000147565b634e487b7160e01b87526041600452602487fd5b01519050388062000116565b60068a52868a208894509190601f1984168b5b89828210620003c55750508411620003ab575b505050811b016006556200012b565b015160001960f88460031b161c191690553880806200039c565b8385015186558b9790950194938401930162000389565b909150600689528589208580850160051c82019288861062000426575b918991869594930160051c01915b8281106200041757505062000100565b8b815585945089910162000407565b92508192620003f9565b93607f1693620000e9565b634e487b7160e01b86526041600452602486fd5b600080fd5b601f909101601f19168101906001600160401b038211908210176200047857604052565b634e487b7160e01b600052604160045260246000fd5b919080601f840112156200044f578251906001600160401b038211620004785760405191602091620004ca601f8301601f191684018562000454565b8184528282870101116200044f5760005b818110620004f157508260009394955001015290565b8581018301518482018401528201620004db56fe60806040526004361015610013575b600080fd5b60003560e01c80621d35671461035a57806301ffc9a71461035157806306fdde031461034857806307e0db171461033f578063081812fc14610336578063095ea7b31461032d5780630df374831461032457806310ddb1371461031b57806323b872dd146103125780632a205e3d146103095780633d8b38f6146103005780633f1f4fa4146102f757806340c10f19146102ee57806341f43434146102e557806342842e0e146102dc57806342d65a8d146102d357806351905636146102ca5780635b8c41e6146102c15780636352211e146102b857806366ad5c8a146102af57806370a08231146102a6578063715018a61461029d5780637533d788146102945780638cfd8f5c1461028b5780638da5cb5b14610282578063950c8a741461027957806395d89b41146102705780639f38369a14610267578063a22cb4651461025e578063a6c3d16514610255578063b353aaa71461024c578063b88d4fde14610243578063baf3292d1461023a578063c446183414610231578063c87b56dd14610228578063cbed8b9c1461021f578063d1deba1f14610216578063df2a5b3b1461020d578063e985e9c514610204578063eb8d72b7146101fb578063f2fde38b146101f25763f5ecbdbc146101ea57600080fd5b61000e6120eb565b5061000e612050565b5061000e611eeb565b5061000e611e82565b5061000e611d8f565b5061000e611c2b565b5061000e611b28565b5061000e611a3e565b5061000e611a20565b5061000e6119a2565b5061000e61192f565b5061000e6118e9565b5061000e61174b565b5061000e611651565b5061000e6115b1565b5061000e611509565b5061000e6114df565b5061000e6114b5565b5061000e611461565b5061000e61140d565b5061000e6112c0565b5061000e611219565b5061000e611192565b5061000e611173565b5061000e6110cc565b5061000e610efe565b5061000e610e71565b5061000e610df1565b5061000e610dc7565b5061000e610da2565b5061000e610d6c565b5061000e610d0f565b5061000e610b64565b5061000e610a22565b5061000e61096b565b5061000e610922565b5061000e610827565b5061000e6107e5565b5061000e61073c565b5061000e610656565b5061000e610553565b5061000e61042a565b6004359061ffff8216820361000e57565b6024359061ffff8216820361000e57565b9181601f8401121561000e578235916001600160401b03831161000e576020838186019501011161000e57565b6001600160401b0381160361000e57565b90608060031983011261000e5760043561ffff8116810361000e57916001600160401b039060243582811161000e57816103ff91600401610385565b9390939260443561040f816103b2565b9260643591821161000e5761042691600401610385565b9091565b503461000e57610439366103c3565b929493919291907f00000000000000000000000000000000000000000000000000000000000000006001600160a01b031633036104fc576104bf6104c7926104cd976104b861049e6104998a61ffff166000526001602052604060002090565b6113f0565b80519081841491826104f2575b50816104cf575b50612319565b3691610b08565b923691610b08565b926126db565b005b90506104dc368486610b08565b60208151910120906020815191012014386104b2565b15159150386104ab565b60405162461bcd60e51b815260206004820152601e60248201527f4c7a4170703a20696e76616c696420656e64706f696e742063616c6c657200006044820152606490fd5b6001600160e01b031981160361000e57565b503461000e57602036600319011261000e57602060043561057381610541565b6001600160e01b0319168015908115610592575b506040519015158152f35b6380ac58cd60e01b8114915081156105de575b81156105b3575b5038610587565b637bb0080b60e01b8114915081156105cd575b50386105ac565b6301ffc9a760e01b149050386105c6565b635b5e139f60e01b811491506105a5565b600091031261000e57565b60005b83811061060d5750506000910152565b81810151838201526020016105fd565b90602091610636815180928185528580860191016105fa565b601f01601f1916010190565b90602061065392818152019061061d565b90565b503461000e5760008060031936011261073957604051908060065461067a81611320565b8085529160019180831690811561070f57506001146106b4575b6106b0856106a481870382610abd565b60405191829182610642565b0390f35b9250600683527ff652222313e28459528d920b65115c16c04f3efc82aaedc97be59f3f377c0d3f5b8284106106f75750505081016020016106a4826106b0610694565b805460208587018101919091529093019281016106dc565b8695506106b0969350602092506106a494915060ff191682840152151560051b8201019293610694565b80fd5b503461000e576000602036600319011261073957610758610363565b8160018060a01b0361076e8183541633146125c3565b7f00000000000000000000000000000000000000000000000000000000000000001691823b156107e157602461ffff918360405195869485936307e0db1760e01b85521660048401525af180156107d4575b6107c8575080f35b6107d190610a82565b80f35b6107dc6121f8565b6107c0565b5080fd5b503461000e57602036600319011261000e576020610804600435612c8e565b6040516001600160a01b039091168152f35b6001600160a01b0381160361000e57565b503461000e57604036600319011261000e5760043561084581610816565b602435610851826135a3565b61085a81612ba4565b916001600160a01b0380841690821681146108d3576104cd9361088791331490811561088c575b50612c1c565b61328f565b6001600160a01b03166000908152600b602052604090206108cd91506108c69033905b9060018060a01b0316600052602052604060002090565b5460ff1690565b38610881565b60405162461bcd60e51b815260206004820152602160248201527f4552433732313a20617070726f76616c20746f2063757272656e74206f776e656044820152603960f91b6064820152608490fd5b503461000e57604036600319011261000e5761ffff61093f610363565b61095460018060a01b036000541633146125c3565b166000526003602052602435604060002055600080f35b503461000e576000602036600319011261073957610987610363565b8160018060a01b0361099d8183541633146125c3565b7f00000000000000000000000000000000000000000000000000000000000000001691823b156107e157602461ffff918360405195869485936310ddb13760e01b85521660048401525af180156107d4576107c8575080f35b606090600319011261000e57600435610a0e81610816565b90602435610a1b81610816565b9060443590565b503461000e576104cd610a34366109f6565b91336001600160a01b03821603610a5d575b610a58610a538433612dfd565b612d20565b613124565b610a66336135a3565b610a46565b50634e487b7160e01b600052604160045260246000fd5b6001600160401b038111610a9557604052565b610a9d610a6b565b604052565b602081019081106001600160401b03821117610a9557604052565b90601f801991011681019081106001600160401b03821117610a9557604052565b6020906001600160401b038111610afb575b601f01601f19160190565b610b03610a6b565b610af0565b929192610b1482610ade565b91610b226040519384610abd565b82948184528183011161000e578281602093846000960137010152565b9080601f8301121561000e5781602061065393359101610b08565b8015150361000e57565b503461000e5760031960a03682011261000e57610b7f610363565b6001600160401b039160243583811161000e57610ba0903690600401610b3f565b9060643592610bae84610b5a565b60843594851161000e57610c41610bec9461ffff93610bd4610bfa983690600401610b3f565b9060409889978851998a9160443590602084016121c6565b03601f1981018a5289610abd565b610c2b8751988997889763040a7bb160e41b895216600488015230602488015260a0604488015260a487019061061d565b921515606486015284830301608485015261061d565b03817f00000000000000000000000000000000000000000000000000000000000000006001600160a01b03165afa918215610cc8575b6000918293610c93575b50519081526020810191909152604090f35b81610cb99294506106b093503d8511610cc1575b610cb18183610abd565b8101906121e2565b929091610c81565b503d610ca7565b610cd06121f8565b610c77565b90604060031983011261000e5760043561ffff8116810361000e5791602435906001600160401b03821161000e5761042691600401610385565b503461000e57602061ffff610d5d610d2636610cd5565b9390911660005260018452610d48610d4f60406000206040519283809261135a565b0382610abd565b848151910120923691610b08565b82815191012014604051908152f35b503461000e57602036600319011261000e5761ffff610d89610363565b1660005260036020526020604060002054604051908152f35b50604036600319011261000e576104cd600435610dbe81610816565b60243590612ee8565b503461000e57600036600319011261000e5760206040516daaeb6d7670e522a718067333cd4e8152f35b503461000e576104cd610e50610e06366109f6565b6001600160a01b0383163314159290919083610e63575b60405193610e2a85610aa2565b60008552610e55575b610e40610a538433612dfd565b610e4b838383613124565b613455565b612dd9565b610e5e336135a3565b610e33565b610e6c336135a3565b610e1d565b503461000e57610e8036610cd5565b9190600092839160018060a01b03610e9c8185541633146125c3565b7f00000000000000000000000000000000000000000000000000000000000000001690813b15610efa5783610ee895604051968795869485936342d65a8d60e01b85526004850161262f565b03925af180156107d4576107c8575080f35b8380fd5b5060e036600319011261000e57600435610f1781610816565b610f1f610374565b6001600160401b03919060443583811161000e57610f41903690600401610b3f565b926064359160843590610f5382610816565b60a435610f5f81610816565b60c43593841161000e578461ffff93610fd892610fa17f024797cc77ce15dc717112d54fb1df125fdfd8c81344fb046c5e074427ce1543973690600401610b3f565b91610fac848b61223a565b610fd08b610fc2604051968792602084016121c6565b03601f198101865285610abd565b3493866123cc565b604051630f428ae960e31b815261ffff821660048201523060248201526001600160a01b039661106f91906020826044817f00000000000000000000000000000000000000000000000000000000000000008d165afa9182156110a8575b600092611074575b506110489061221a565b9760405194859416971695839092916001600160401b036020916040840195845216910152565b0390a4005b61104891925061109a9060203d81116110a1575b6110928183610abd565b810190612205565b919061103e565b503d611088565b6110b06121f8565b611036565b906110c8602092828151948592016105fa565b0190565b503461000e57606036600319011261000e576110e6610363565b6024356001600160401b03811161000e576106b0916111416020611111611162943690600401610b3f565b61ffff60443594611121866103b2565b1660005260058252604060002082604051948386809551938492016105fa565b820190815203019020906001600160401b0316600052602052604060002090565b546040519081529081906020820190565b503461000e57602036600319011261000e576020610804600435612ba4565b503461000e576111a1366103c3565b91929493903033036111c5576104bf6111bf926104cd973691610b08565b92612846565b60405162461bcd60e51b815260206004820152602660248201527f4e6f6e626c6f636b696e674c7a4170703a2063616c6c6572206d7573742062656044820152650204c7a4170760d41b6064820152608490fd5b503461000e57602036600319011261000e5760043561123781610816565b6001600160a01b031680156112685760005260096020526106b0604060002054604051918291829190602083019252565b60405162461bcd60e51b815260206004820152602a60248201527f4552433732313a2062616c616e636520717565727920666f7220746865207a65604482015269726f206164647265737360b01b6064820152608490fd5b503461000e5760008060031936011261073957805481906001600160a01b038116906112ed3383146125c3565b6001600160a01b03191682557f8be0079c531659141344cd1fd0a4f28419497f9722a3daafe3b4186f6b6457e08280a380f35b90600182811c92168015611350575b602083101461133a57565b634e487b7160e01b600052602260045260246000fd5b91607f169161132f565b906000929180549161136b83611320565b9182825260019384811690816000146113cd575060011461138d575b50505050565b90919394506000526020928360002092846000945b8386106113b9575050505001019038808080611387565b8054858701830152940193859082016113a2565b9294505050602093945060ff191683830152151560051b01019038808080611387565b9061140b611404926040519384809261135a565b0383610abd565b565b503461000e57602036600319011261000e5761ffff61142a610363565b1660005260016020526106b0610d4861144d60406000206040519283809261135a565b60405191829160208352602083019061061d565b503461000e57604036600319011261000e5760206114ac611480610363565b61ffff61148b610374565b91166000526002835260406000209061ffff16600052602052604060002090565b54604051908152f35b503461000e57600036600319011261000e576000546040516001600160a01b039091168152602090f35b503461000e57600036600319011261000e576004546040516001600160a01b039091168152602090f35b503461000e5760008060031936011261073957604051908060075461152d81611320565b8085529160019180831690811561070f5750600114611556576106b0856106a481870382610abd565b9250600783527fa66cc928b5edb82af9bd49922954155ab7b0942694bea4ce44661d9a8736c6885b8284106115995750505081016020016106a4826106b0610694565b8054602085870181019190915290930192810161157e565b503461000e57602036600319011261000e5761ffff6115ce610363565b166000526001602052610d486115ee60406000206040519283809261135a565b80511561160c576106a4816116066106b093516126b5565b90612a41565b60405162461bcd60e51b815260206004820152601d60248201527f4c7a4170703a206e6f20747275737465642070617468207265636f72640000006044820152606490fd5b503461000e57604036600319011261000e5760043561166f81610816565b60243561167b81610b5a565b611684826135a3565b6001600160a01b0382169133831461170657816116c36116d49233600052600b60205260406000209060018060a01b0316600052602052604060002090565b9060ff801983541691151516179055565b604051901515815233907f17307eab39ab6107e8899845ad3d59bd9653f200f220920489ca2b5937696c3190602090a3005b60405162461bcd60e51b815260206004820152601960248201527f4552433732313a20617070726f766520746f2063616c6c6572000000000000006044820152606490fd5b503461000e5761175a36610cd5565b919060009161177360018060a01b0384541633146125c3565b60405193602081848288013761179e6034878481013060601b85820152036014810189520187610abd565b61ffff8316855260019081815260408620918751916001600160401b0383116118dc575b6117d6836117d08654611320565b8661264a565b80601f84116001146118465750918080926118359695948a9b7f8c0400cfe2d1199b1a725c78960bcc2a344d869b80590d0f2bd005db15a572ce9b9461183b575b50501b916000199060031b1c19161790555b6040519384938461262f565b0390a180f35b015192503880611817565b91939498601f19841661185e87600052602060002090565b938a905b8282106118c5575050917f8c0400cfe2d1199b1a725c78960bcc2a344d869b80590d0f2bd005db15a572ce999a95939185611835989694106118ac575b505050811b019055611829565b015160001960f88460031b161c1916905538808061189f565b808886978294978701518155019601940190611862565b6118e4610a6b565b6117c2565b503461000e57600036600319011261000e576040517f00000000000000000000000000000000000000000000000000000000000000006001600160a01b03168152602090f35b503461000e57608036600319011261000e5760043561194d81610816565b6024359061195a82610816565b606435906044356001600160401b03831161000e576104cd93611984610e50943690600401610b3f565b92336001600160a01b03821603610e5557610e40610a538433612dfd565b503461000e57602036600319011261000e577f5db758e995a17ec1ad84bdef7e8c3293a0bd6179bcce400dff5d4c3d87db726b60206004356119e381610816565b6000546001600160a01b0391906119fd90831633146125c3565b16806bffffffffffffffffffffffff60a01b6004541617600455604051908152a1005b503461000e57600036600319011261000e5760206040516127108152f35b503461000e57602036600319011261000e576004356000818152600860205260409020546001600160a01b031615611acb57611a78612ac1565b805115611ab9576106a4611aa591611aab611a956106b0956134b8565b60405194859360208501906110b5565b906110b5565b03601f198101835282610abd565b50506106b0611ac6612ac1565b6106a4565b60405162461bcd60e51b815260206004820152602f60248201527f4552433732314d657461646174613a2055524920717565727920666f72206e6f60448201526e3732bc34b9ba32b73a103a37b5b2b760891b6064820152608490fd5b503461000e57608036600319011261000e57611b42610363565b611b4a610374565b6064356001600160401b03811161000e57611b69903690600401610385565b60018060a09493941b039160009483611b87879586541633146125c3565b7f00000000000000000000000000000000000000000000000000000000000000001691823b15611c27578490611bf4604051978896879586946332fb62e760e21b865261ffff8092166004870152166024850152604435604485015260806064850152608484019161260e565b03925af18015611c1a575b611c07575080f35b80611c146107d192610a82565b806105ef565b611c226121f8565b611bff565b8480fd5b50611c35366103c3565b9161ffff86949296166000526005602052611c7c81604060002060206040518092878b833787820190815203019020906001600160401b0316600052602052604060002090565b54918215611d3e57611d2d8483611d267fc264d91f3adc5588250e1551f547752ca0cfa8f6b530d243b9f9f4cab10ea8e59a6000611d1284611cfa8e8a8f611d399f908f611ce090611cd3611cf49436908d610b08565b602081519101201461290d565b61ffff166000526005602052604060002090565b916128f4565b906001600160401b0316600052602052604060002090565b55611d1e36878d610b08565b933691610b08565b9188612846565b60405195869586612963565b0390a1005b60405162461bcd60e51b815260206004820152602360248201527f4e6f6e626c6f636b696e674c7a4170703a206e6f2073746f726564206d65737360448201526261676560e81b6064820152608490fd5b503461000e57606036600319011261000e57611da9610363565b611db1610374565b60443591611dca60018060a01b036000541633146125c3565b8215611e4557611d397f9d5c7c0b934da8fefa9c7760c98383778a12dfbfc0c3b3106518f43fb9508ac09361ffff8316600052600260205280611e1f8560406000209061ffff16600052602052604060002090565b556040519384938460409194939294606082019561ffff80921683521660208201520152565b60405162461bcd60e51b81526020600482015260156024820152744c7a4170703a20696e76616c6964206d696e47617360581b6044820152606490fd5b503461000e57604036600319011261000e57602060ff611edf600435611ea781610816565b60243590611eb482610816565b60018060a01b0316600052600b845260406000209060018060a01b0316600052602052604060002090565b54166040519015158152f35b503461000e57611efa36610cd5565b9190600091611f1360018060a01b0384541633146125c3565b61ffff81168352600160209080825260408520916001600160401b038711612043575b611f4a87611f448554611320565b8561264a565b8590601f8811600114611fb15750918680879893611835957ffa41487ad5d6728f0b19276fa1eddc16558578f5109fc39d2dc33c3230470dab9993611fa6575b501b906000198460031b1c19161790556040519384938461262f565b880135925038611f8a565b90601f198816611fc685600052602060002090565b9288905b82821061202c575050918893917ffa41487ad5d6728f0b19276fa1eddc16558578f5109fc39d2dc33c3230470dab9899611835969410612012575b505082811b019055611829565b870135600019600386901b60f8161c191690553880612005565b808685968294968c01358155019501930190611fca565b61204b610a6b565b611f36565b503461000e57602036600319011261000e5760043561206e81610816565b6000546001600160a01b039061208790821633146125c3565b811615612097576104cd90612b5d565b60405162461bcd60e51b815260206004820152602660248201527f4f776e61626c653a206e6577206f776e657220697320746865207a65726f206160448201526564647265737360d01b6064820152608490fd5b503461000e57608036600319011261000e576106b0612108610363565b612110610374565b9061211c604435610816565b604051633d7b2f6f60e21b815261ffff91821660048201529116602482015230604482015260648035908201526000816084817f00000000000000000000000000000000000000000000000000000000000000006001600160a01b03165afa9081156121b9575b600091612198575b5060405191829182610642565b6121b3913d8091833e6121ab8183610abd565b81019061259e565b3861218b565b6121c16121f8565b612183565b9291906121dd60209160408652604086019061061d565b930152565b919082604091031261000e576020825192015190565b506040513d6000823e3d90fd5b9081602091031261000e5751610653816103b2565b612232906020604051928284809451938492016105fa565b810103902090565b6122448233612dfd565b156122bd5761225282612ba4565b6001600160a01b0391821691160361226d5761140b90613042565b60405162461bcd60e51b815260206004820152602260248201527f4f4e46543732313a2073656e642066726f6d20696e636f7272656374206f776e60448201526132b960f11b6064820152608490fd5b60405162461bcd60e51b815260206004820152602e60248201527f4f4e46543732313a2073656e642063616c6c6572206973206e6f74206f776e6560448201526d1c881b9bdc88185c1c1c9bdd995960921b6064820152608490fd5b1561232057565b60405162461bcd60e51b815260206004820152602660248201527f4c7a4170703a20696e76616c696420736f757263652073656e64696e6720636f6044820152651b9d1c9858dd60d21b6064820152608490fd5b9261239961065397959361ffff6123a79416865260c0602087015260c086019061061d565b90848203604086015261061d565b6001600160a01b0391821660608401529316608082015280830360a09091015261061d565b946123f59193929561ffff811660005260016020526123fc60406000206040519485809261135a565b0384610abd565b82511561248f5761240e8551826124ed565b7f00000000000000000000000000000000000000000000000000000000000000006001600160a01b031693843b1561000e5760009661246391604051998a988997889662c5803160e81b885260048801612374565b03925af18015612482575b6124755750565b80611c1461140b92610a82565b61248a6121f8565b61246e565b60405162461bcd60e51b815260206004820152603060248201527f4c7a4170703a2064657374696e6174696f6e20636861696e206973206e6f742060448201526f61207472757374656420736f7572636560801b6064820152608490fd5b61ffff166000526003602052604060002054908115612552575b1161250e57565b606460405162461bcd60e51b815260206004820152602060248201527f4c7a4170703a207061796c6f61642073697a6520697320746f6f206c617267656044820152fd5b6127109150612507565b81601f8201121561000e57805161257281610ade565b926125806040519485610abd565b8184526020828401011161000e5761065391602080850191016105fa565b9060208282031261000e5781516001600160401b03811161000e57610653920161255c565b156125ca57565b606460405162461bcd60e51b815260206004820152602060248201527f4f776e61626c653a2063616c6c6572206973206e6f7420746865206f776e65726044820152fd5b908060209392818452848401376000828201840152601f01601f1916010190565b60409061ffff6106539593168152816020820152019161260e565b90601f811161265857505050565b600091825260208220906020601f850160051c83019410612694575b601f0160051c01915b82811061268957505050565b81815560010161267d565b9092508290612674565b50634e487b7160e01b600052601160045260246000fd5b6013198101919082116126c457565b61140b61269e565b6000198101919082116126c457565b9290915a926040519360208501633356ae4560e11b815261ffff87166024870152608060448701526127468661273861271760a483018761061d565b6001600160401b03881660648401528281036023190160848401528861061d565b03601f198101885287610abd565b600091829182612754612af2565b9851923090f13d6096811161278e575b8086526000602087013e1561277b575b5050505050565b61278494612796565b3880808080612774565b506096612764565b91936128337fe183f33de2837795525b4792ca4cd60535bd77c53b7e7030060bfcf5734d6b0c95612841939561ffff815160208301209616958660005260056020526127fa8361114160208b604060002082604051948386809551938492016105fa565b556001600160401b0361281f604051988998895260a060208a015260a089019061061d565b92166040870152858203606087015261061d565b90838203608085015261061d565b0390a1565b9290815182019060408383031261000e576020830151906001600160401b03821161000e576128ef6128c1601460406128ab61ffff966020807f64e10c37f404d128982dce114f5d233c14c5c7f6d8db93099e3d99dacb9e27ba9a01918b010161255c565b970151960151926128bc8785612ee8565b61221a565b9560405193849360018060a01b0316981695839092916001600160401b036020916040840195845216910152565b0390a4565b6020919283604051948593843782019081520301902090565b1561291457565b60405162461bcd60e51b815260206004820152602160248201527f4e6f6e626c6f636b696e674c7a4170703a20696e76616c6964207061796c6f616044820152601960fa1b6064820152608490fd5b9161298f9060609461ffff6001600160401b03949998979916855260806020860152608085019161260e565b951660408201520152565b90601f82018092116126c457565b90600182018092116126c457565b60300190816030116126c457565b156129cb57565b60405162461bcd60e51b815260206004820152600e60248201526d736c6963655f6f766572666c6f7760901b6044820152606490fd5b15612a0857565b60405162461bcd60e51b8152602060048201526011602482015270736c6963655f6f75744f66426f756e647360781b6044820152606490fd5b612a5582612a4e8161299a565b10156129c4565b612a628282511015612a01565b81612a7a575050604051600081526020810160405290565b60405191601f811691821560051b808486010193838501920101905b808410612aae5750508252601f01601f191660405290565b9092835181526020809101930190612a96565b60405190602082018281106001600160401b03821117612ae5575b60405260008252565b612aed610a6b565b612adc565b6040519060c082018281106001600160401b03821117612b1e575b6040526096825260a0366020840137565b612b26610a6b565b612b0d565b90612b3582610ade565b612b426040519182610abd565b8281528092612b53601f1991610ade565b0190602036910137565b600080546001600160a01b039283166001600160a01b03198216811783559216907f8be0079c531659141344cd1fd0a4f28419497f9722a3daafe3b4186f6b6457e09080a3565b6000908152600860205260409020546001600160a01b03168015612bc55790565b60405162461bcd60e51b815260206004820152602960248201527f4552433732313a206f776e657220717565727920666f72206e6f6e657869737460448201526832b73a103a37b5b2b760b91b6064820152608490fd5b15612c2357565b60405162461bcd60e51b815260206004820152603860248201527f4552433732313a20617070726f76652063616c6c6572206973206e6f74206f7760448201527f6e6572206e6f7220617070726f76656420666f7220616c6c00000000000000006064820152608490fd5b6000818152600860205260409020546001600160a01b031615612cc6576000908152600a60205260409020546001600160a01b031690565b60405162461bcd60e51b815260206004820152602c60248201527f4552433732313a20617070726f76656420717565727920666f72206e6f6e657860448201526b34b9ba32b73a103a37b5b2b760a11b6064820152608490fd5b15612d2757565b60405162461bcd60e51b815260206004820152603160248201527f4552433732313a207472616e736665722063616c6c6572206973206e6f74206f6044820152701ddb995c881b9bdc88185c1c1c9bdd9959607a1b6064820152608490fd5b60809060208152603260208201527f4552433732313a207472616e7366657220746f206e6f6e20455243373231526560408201527131b2b4bb32b91034b6b83632b6b2b73a32b960711b60608201520190565b15612de057565b60405162461bcd60e51b815280612df960048201612d86565b0390fd5b6000828152600860205260409020546001600160a01b031615612e8e57612e2382612ba4565b6001600160a01b038281168282168114949091908515612e76575b5050508215612e4c57505090565b6001600160a01b03166000908152600b6020526040902060ff9250612e7191906108af565b541690565b612e839192939550612c8e565b161491388080612e3e565b60405162461bcd60e51b815260206004820152602c60248201527f4552433732313a206f70657261746f7220717565727920666f72206e6f6e657860448201526b34b9ba32b73a103a37b5b2b760a11b6064820152608490fd5b90604051612ef581610aa2565b600081526001600160a01b038316918215612ffe576000818152600860205260409020546001600160a01b0316612fb9578381610e5094612f4b61140b9760018060a01b03166000526009602052604060002090565b612f5581546129a8565b9055612f8e83612f6f846000526008602052604060002090565b80546001600160a01b0319166001600160a01b03909216919091179055565b60007fddf252ad1be2c89b69c2b068fc378daa952ba7f163c4a11628f55a4df523b3ef8180a4613394565b60405162461bcd60e51b815260206004820152601c60248201527f4552433732313a20746f6b656e20616c7265616479206d696e746564000000006044820152606490fd5b606460405162461bcd60e51b815260206004820152602060248201527f4552433732313a206d696e7420746f20746865207a65726f20616464726573736044820152fd5b61304b81612ba4565b6130548261323b565b6001600160a01b0316600081815260096020526040812080549192916000198101919082116130bf575b5582825260086020526040822080546001600160a01b03191690557fddf252ad1be2c89b69c2b068fc378daa952ba7f163c4a11628f55a4df523b3ef8280a4565b6130c761269e565b61307e565b156130d357565b60405162461bcd60e51b8152602060048201526024808201527f4552433732313a207472616e7366657220746f20746865207a65726f206164646044820152637265737360e01b6064820152608490fd5b9061312e83612ba4565b6001600160a01b0383811692909182168390036131e85761317d6131c19282169461315a8615156130cc565b6131638761323b565b6001600160a01b0316600090815260096020526040902090565b61318781546126cc565b90556001600160a01b03811660009081526009602052604090206131ab81546129a8565b9055612f6f856000526008602052604060002090565b7fddf252ad1be2c89b69c2b068fc378daa952ba7f163c4a11628f55a4df523b3ef600080a4565b60405162461bcd60e51b815260206004820152602560248201527f4552433732313a207472616e736665722066726f6d20696e636f72726563742060448201526437bbb732b960d91b6064820152608490fd5b6000818152600a6020526040812080546001600160a01b03191690556001600160a01b0361326883612ba4565b167f8c5be1e5ebec7d5bd14f71427d1e84f3dd0314c0f7b2291e5b200ac8c7c3b9258280a4565b6000828152600a6020526040902080546001600160a01b0319166001600160a01b0383161790556001600160a01b03806132c884612ba4565b169116907f8c5be1e5ebec7d5bd14f71427d1e84f3dd0314c0f7b2291e5b200ac8c7c3b925600080a4565b9081602091031261000e575161065381610541565b610653939260809260018060a01b03168252600060208301526040820152816060820152019061061d565b6001600160a01b0391821681529116602082015260408101919091526080606082018190526106539291019061061d565b3d1561338f573d9061337582610ade565b916133836040519384610abd565b82523d6000602084013e565b606090565b909190803b1561344d576133c6602091600093604051948580948193630a85bd0160e11b998a84523360048501613308565b03926001600160a01b03165af16000918161341d575b5061340f576133e9613364565b8051908161340a5760405162461bcd60e51b815280612df960048201612d86565b602001fd5b6001600160e01b0319161490565b61343f91925060203d8111613446575b6134378183610abd565b8101906132f3565b90386133dc565b503d61342d565b505050600190565b92909190823b15613488576133c6926020926000604051809681958294630a85bd0160e11b9a8b85523360048601613333565b50505050600190565b9081518110156134a2570160200190565b634e487b7160e01b600052603260045260246000fd5b8015613552576000818181805b61352857506134d381612b2b565b935b6134df5750505090565b6134e8906126cc565b90600a906135136135036134fd8484066129b6565b60ff1690565b60f81b6001600160f81b03191690565b841a61351f8487613491565b530490816134d5565b91506001600a916000198114613545575b019104808492916134c5565b61354d61269e565b613539565b50604051604081018181106001600160401b03821117613581575b60405260018152600360fc1b602082015290565b613589610a6b565b61356d565b9081602091031261000e575161065381610b5a565b6daaeb6d7670e522a718067333cd4e803b6135bc575050565b604051633185c44d60e21b81523060048201526001600160a01b038316602482015290602090829060449082905afa908115613655575b600091613627575b50156136045750565b604051633b79c77360e21b81526001600160a01b03919091166004820152602490fd5b613648915060203d811161364e575b6136408183610abd565b81019061358e565b386135fb565b503d613636565b61365d6121f8565b6135f356fea264697066735822122070294971e909b1a1d31d4e79cdc8d332627118353d7f6af2a269b64d9d25a6b664736f6c63430008110033",
    "linkReferences": {}
  },
  "methodIdentifiers": {
    "DEFAULT_PAYLOAD_SIZE_LIMIT()": "c4461834",
    "OPERATOR_FILTER_REGISTRY()": "41f43434",
    "approve(address,uint256)": "095ea7b3",
    "balanceOf(address)": "70a08231",
    "estimateSendFee(uint16,bytes,uint256,bool,bytes)": "2a205e3d",
    "failedMessages(uint16,bytes,uint64)": "5b8c41e6",
    "forceResumeReceive(uint16,bytes)": "42d65a8d",
    "getApproved(uint256)": "081812fc",
    "getConfig(uint16,uint16,address,uint256)": "f5ecbdbc",
    "getTrustedRemoteAddress(uint16)": "9f38369a",
    "isApprovedForAll(address,address)": "e985e9c5",
    "isTrustedRemote(uint16,bytes)": "3d8b38f6",
    "lzEndpoint()": "b353aaa7",
    "lzReceive(uint16,bytes,uint64,bytes)": "001d3567",
    "minDstGasLookup(uint16,uint16)": "8cfd8f5c",
    "mint(address,uint256)": "40c10f19",
    "name()": "06fdde03",
    "nonblockingLzReceive(uint16,bytes,uint64,bytes)": "66ad5c8a",
    "owner()": "8da5cb5b",
    "ownerOf(uint256)": "6352211e",
    "payloadSizeLimitLookup(uint16)": "3f1f4fa4",
    "precrime()": "950c8a74",
    "renounceOwnership()": "715018a6",
    "retryMessage(uint16,bytes,uint64,bytes)": "d1deba1f",
    "safeTransferFrom(address,address,uint256)": "42842e0e",
    "safeTransferFrom(address,address,uint256,bytes)": "b88d4fde",
    "sendFrom(address,uint16,bytes,uint256,address,address,bytes)": "51905636",
    "setApprovalForAll(address,bool)": "a22cb465",
    "setConfig(uint16,uint16,uint256,bytes)": "cbed8b9c",
    "setMinDstGas(uint16,uint16,uint256)": "df2a5b3b",
    "setPayloadSizeLimit(uint16,uint256)": "0df37483",
    "setPrecrime(address)": "baf3292d",
    "setReceiveVersion(uint16)": "10ddb137",
    "setSendVersion(uint16)": "07e0db17",
    "setTrustedRemote(uint16,bytes)": "eb8d72b7",
    "setTrustedRemoteAddress(uint16,bytes)": "a6c3d165",
    "supportsInterface(bytes4)": "01ffc9a7",
    "symbol()": "95d89b41",
    "tokenURI(uint256)": "c87b56dd",
    "transferFrom(address,address,uint256)": "23b872dd",
    "transferOwnership(address)": "f2fde38b",
    "trustedRemoteLookup(uint16)": "7533d788"
  },
  "id": 88
}