{
  "abi": [
    {
      "inputs": [
        {
          "internalType": "address",
          "name": "_royaltyFeeRegistry",
          "type": "address"
        }
      ],
      "stateMutability": "nonpayable",
      "type": "constructor"
    },
    {
      "anonymous": false,
      "inputs": [
        {
          "indexed": true,
          "internalType": "bytes32",
          "name": "role",
          "type": "bytes32"
        },
        {
          "indexed": true,
          "internalType": "bytes32",
          "name": "previousAdminRole",
          "type": "bytes32"
        },
        {
          "indexed": true,
          "internalType": "bytes32",
          "name": "newAdminRole",
          "type": "bytes32"
        }
      ],
      "name": "RoleAdminChanged",
      "type": "event"
    },
    {
      "anonymous": false,
      "inputs": [
        {
          "indexed": true,
          "internalType": "bytes32",
          "name": "role",
          "type": "bytes32"
        },
        {
          "indexed": true,
          "internalType": "address",
          "name": "account",
          "type": "address"
        },
        {
          "indexed": true,
          "internalType": "address",
          "name": "sender",
          "type": "address"
        }
      ],
      "name": "RoleGranted",
      "type": "event"
    },
    {
      "anonymous": false,
      "inputs": [
        {
          "indexed": true,
          "internalType": "bytes32",
          "name": "role",
          "type": "bytes32"
        },
        {
          "indexed": true,
          "internalType": "address",
          "name": "account",
          "type": "address"
        },
        {
          "indexed": true,
          "internalType": "address",
          "name": "sender",
          "type": "address"
        }
      ],
      "name": "RoleRevoked",
      "type": "event"
    },
    {
      "inputs": [],
      "name": "ADMIN_ROLE",
      "outputs": [
        {
          "internalType": "bytes32",
          "name": "",
          "type": "bytes32"
        }
      ],
      "stateMutability": "view",
      "type": "function"
    },
    {
      "inputs": [],
      "name": "DEFAULT_ADMIN_ROLE",
      "outputs": [
        {
          "internalType": "bytes32",
          "name": "",
          "type": "bytes32"
        }
      ],
      "stateMutability": "view",
      "type": "function"
    },
    {
      "inputs": [],
      "name": "INTERFACE_ID_ERC1155",
      "outputs": [
        {
          "internalType": "bytes4",
          "name": "",
          "type": "bytes4"
        }
      ],
      "stateMutability": "view",
      "type": "function"
    },
    {
      "inputs": [],
      "name": "INTERFACE_ID_ERC2981",
      "outputs": [
        {
          "internalType": "bytes4",
          "name": "",
          "type": "bytes4"
        }
      ],
      "stateMutability": "view",
      "type": "function"
    },
    {
      "inputs": [],
      "name": "INTERFACE_ID_ERC721",
      "outputs": [
        {
          "internalType": "bytes4",
          "name": "",
          "type": "bytes4"
        }
      ],
      "stateMutability": "view",
      "type": "function"
    },
    {
      "inputs": [
        {
          "internalType": "address",
          "name": "collection",
          "type": "address"
        }
      ],
      "name": "checkForCollectionSetter",
      "outputs": [
        {
          "internalType": "address",
          "name": "",
          "type": "address"
        },
        {
          "internalType": "uint8",
          "name": "",
          "type": "uint8"
        }
      ],
      "stateMutability": "view",
      "type": "function"
    },
    {
      "inputs": [
        {
          "internalType": "bytes32",
          "name": "role",
          "type": "bytes32"
        }
      ],
      "name": "getRoleAdmin",
      "outputs": [
        {
          "internalType": "bytes32",
          "name": "",
          "type": "bytes32"
        }
      ],
      "stateMutability": "view",
      "type": "function"
    },
    {
      "inputs": [
        {
          "internalType": "bytes32",
          "name": "role",
          "type": "bytes32"
        },
        {
          "internalType": "address",
          "name": "account",
          "type": "address"
        }
      ],
      "name": "grantRole",
      "outputs": [],
      "stateMutability": "nonpayable",
      "type": "function"
    },
    {
      "inputs": [
        {
          "internalType": "bytes32",
          "name": "role",
          "type": "bytes32"
        },
        {
          "internalType": "address",
          "name": "account",
          "type": "address"
        }
      ],
      "name": "hasRole",
      "outputs": [
        {
          "internalType": "bool",
          "name": "",
          "type": "bool"
        }
      ],
      "stateMutability": "view",
      "type": "function"
    },
    {
      "inputs": [
        {
          "internalType": "bytes32",
          "name": "role",
          "type": "bytes32"
        },
        {
          "internalType": "address",
          "name": "account",
          "type": "address"
        }
      ],
      "name": "renounceRole",
      "outputs": [],
      "stateMutability": "nonpayable",
      "type": "function"
    },
    {
      "inputs": [
        {
          "internalType": "bytes32",
          "name": "role",
          "type": "bytes32"
        },
        {
          "internalType": "address",
          "name": "account",
          "type": "address"
        }
      ],
      "name": "revokeRole",
      "outputs": [],
      "stateMutability": "nonpayable",
      "type": "function"
    },
    {
      "inputs": [],
      "name": "royaltyFeeRegistry",
      "outputs": [
        {
          "internalType": "address",
          "name": "",
          "type": "address"
        }
      ],
      "stateMutability": "view",
      "type": "function"
    },
    {
      "inputs": [
        {
          "internalType": "address[]",
          "name": "addresses",
          "type": "address[]"
        }
      ],
      "name": "setAllowList",
      "outputs": [],
      "stateMutability": "nonpayable",
      "type": "function"
    },
    {
      "inputs": [
        {
          "internalType": "bytes4",
          "name": "interfaceId",
          "type": "bytes4"
        }
      ],
      "name": "supportsInterface",
      "outputs": [
        {
          "internalType": "bool",
          "name": "",
          "type": "bool"
        }
      ],
      "stateMutability": "view",
      "type": "function"
    },
    {
      "inputs": [
        {
          "internalType": "address",
          "name": "_owner",
          "type": "address"
        }
      ],
      "name": "updateOwnerOfRoyaltyFeeRegistry",
      "outputs": [],
      "stateMutability": "nonpayable",
      "type": "function"
    },
    {
      "inputs": [
        {
          "internalType": "uint256",
          "name": "_royaltyFeeLimit",
          "type": "uint256"
        }
      ],
      "name": "updateRoyaltyFeeLimit",
      "outputs": [],
      "stateMutability": "nonpayable",
      "type": "function"
    },
    {
      "inputs": [
        {
          "internalType": "address",
          "name": "collection",
          "type": "address"
        },
        {
          "internalType": "address",
          "name": "setter",
          "type": "address"
        },
        {
          "internalType": "address",
          "name": "receiver",
          "type": "address"
        },
        {
          "internalType": "uint256",
          "name": "fee",
          "type": "uint256"
        }
      ],
      "name": "updateRoyaltyInfoForCollection",
      "outputs": [],
      "stateMutability": "nonpayable",
      "type": "function"
    },
    {
      "inputs": [
        {
          "internalType": "address",
          "name": "collection",
          "type": "address"
        },
        {
          "internalType": "address",
          "name": "setter",
          "type": "address"
        },
        {
          "internalType": "address",
          "name": "receiver",
          "type": "address"
        },
        {
          "internalType": "uint256",
          "name": "fee",
          "type": "uint256"
        }
      ],
      "name": "updateRoyaltyInfoForCollectionIfAdmin",
      "outputs": [],
      "stateMutability": "nonpayable",
      "type": "function"
    },
    {
      "inputs": [
        {
          "internalType": "address",
          "name": "collection",
          "type": "address"
        },
        {
          "internalType": "address",
          "name": "setter",
          "type": "address"
        },
        {
          "internalType": "address",
          "name": "receiver",
          "type": "address"
        },
        {
          "internalType": "uint256",
          "name": "fee",
          "type": "uint256"
        }
      ],
      "name": "updateRoyaltyInfoForCollectionIfOwner",
      "outputs": [],
      "stateMutability": "nonpayable",
      "type": "function"
    },
    {
      "inputs": [
        {
          "internalType": "address",
          "name": "collection",
          "type": "address"
        },
        {
          "internalType": "address",
          "name": "setter",
          "type": "address"
        },
        {
          "internalType": "address",
          "name": "receiver",
          "type": "address"
        },
        {
          "internalType": "uint256",
          "name": "fee",
          "type": "uint256"
        }
      ],
      "name": "updateRoyaltyInfoForCollectionIfSetter",
      "outputs": [],
      "stateMutability": "nonpayable",
      "type": "function"
    }
  ],
  "bytecode": {
    "object": "0x60a06040523480156200001157600080fd5b50604051620016c1380380620016c1833981016040819052620000349162000103565b6200004160003362000053565b6001600160a01b031660805262000135565b6200005f828262000063565b5050565b6000828152602081815260408083206001600160a01b038516845290915290205460ff166200005f576000828152602081815260408083206001600160a01b03851684529091529020805460ff19166001179055620000bf3390565b6001600160a01b0316816001600160a01b0316837f2f8788117e7eff1d82e926ec794901d17c78024a50270940304540a733656f0d60405160405180910390a45050565b6000602082840312156200011657600080fd5b81516001600160a01b03811681146200012e57600080fd5b9392505050565b6080516115466200017b600039600081816102900152818161037d0152818161047b01528181610944015281816109eb01528181610c380152610d7f01526115466000f3fe608060405234801561001057600080fd5b506004361061012c5760003560e01c8063a217fddf116100ad578063bc6bc0cd11610071578063bc6bc0cd1461027d578063c16f51561461028b578063c54e5497146102ca578063d547741f146102fe578063e72ba4561461031157600080fd5b8063a217fddf1461022e578063ab01667014610236578063b060dd8614610249578063b9223c9d14610257578063bbdf9b681461026a57600080fd5b806336568abe116100f457806336568abe146101cd5780633755fa80146101e05780636447c35d146101f357806375b238fc1461020657806391d148541461021b57600080fd5b806301ffc9a714610131578063248a9ca314610159578063275da5ef1461018a5780632f2ff15d1461019f57806333bf6156146101b2575b600080fd5b61014461013f366004611186565b610324565b60405190151581526020015b60405180910390f35b61017c6101673660046111b0565b60009081526020819052604090206001015490565b604051908152602001610150565b61019d6101983660046111de565b61035b565b005b61019d6101ad36600461122f565b6104de565b6101c0636cdb3d1360e11b81565b604051610150919061125f565b61019d6101db36600461122f565b610508565b61019d6101ee3660046111de565b610586565b61019d610201366004611274565b610712565b61017c6000805160206114f183398151915281565b61014461022936600461122f565b610773565b61017c600081565b61019d6102443660046111de565b61079c565b6101c063152a902d60e11b81565b61019d6102653660046111b0565b610916565b61019d6102783660046111de565b6109ad565b6101c06380ac58cd60e01b81565b6102b27f000000000000000000000000000000000000000000000000000000000000000081565b6040516001600160a01b039091168152602001610150565b6102dd6102d83660046112e9565b6109c5565b604080516001600160a01b03909316835260ff909116602083015201610150565b61019d61030c36600461122f565b610bdc565b61019d61031f3660046112e9565b610c01565b60006001600160e01b03198216637965db0b60e01b148061035557506301ffc9a760e01b6001600160e01b03198316145b92915050565b6040516338c7be4760e21b81526001600160a01b0385811660048301526000917f00000000000000000000000000000000000000000000000000000000000000009091169063e31ef91c90602401606060405180830381865afa1580156103c6573d6000803e3d6000fd5b505050506040513d601f19601f820116820180604052508101906103ea9190611306565b5090915050336001600160a01b038216146104455760405162461bcd60e51b815260206004820152601660248201527529b2ba3a32b91d102737ba103a34329039b2ba3a32b960511b60448201526064015b60405180910390fd5b60405163177bf36d60e31b81526001600160a01b03868116600483015285811660248301528481166044830152606482018490527f0000000000000000000000000000000000000000000000000000000000000000169063bbdf9b6890608401600060405180830381600087803b1580156104bf57600080fd5b505af11580156104d3573d6000803e3d6000fd5b505050505050505050565b6000828152602081905260409020600101546104f981610c67565b6105038383610c74565b505050565b6001600160a01b03811633146105785760405162461bcd60e51b815260206004820152602f60248201527f416363657373436f6e74726f6c3a2063616e206f6e6c792072656e6f756e636560448201526e103937b632b9903337b91039b2b63360891b606482015260840161043c565b6105828282610cf8565b5050565b6040516301ffc9a760e01b81526001600160a01b038516906301ffc9a7906105b99063152a902d60e11b9060040161125f565b602060405180830381865afa1580156105d6573d6000803e3d6000fd5b505050506040513d601f19601f820116820180604052508101906105fa9190611349565b156106475760405162461bcd60e51b815260206004820152601a60248201527f4f776e65723a204d757374206e6f742062652045524332393831000000000000604482015260640161043c565b836001600160a01b0316638da5cb5b6040518163ffffffff1660e01b8152600401602060405180830381865afa158015610685573d6000803e3d6000fd5b505050506040513d601f19601f820116820180604052508101906106a9919061136b565b6001600160a01b0316336001600160a01b0316146107005760405162461bcd60e51b815260206004820152601460248201527327bbb732b91d102737ba103a34329037bbb732b960611b604482015260640161043c565b61070c84848484610d5d565b50505050565b600061071d81610c67565b60005b8281101561070c576107616000805160206114f183398151915285858481811061074c5761074c611388565b90506020020160208101906101ad91906112e9565b8061076b816113b4565b915050610720565b6000918252602082815260408084206001600160a01b0393909316845291905290205460ff1690565b6040516301ffc9a760e01b81526001600160a01b038516906301ffc9a7906107cf9063152a902d60e11b9060040161125f565b602060405180830381865afa1580156107ec573d6000803e3d6000fd5b505050506040513d601f19601f820116820180604052508101906108109190611349565b1561085d5760405162461bcd60e51b815260206004820152601a60248201527f41646d696e3a204d757374206e6f742062652045524332393831000000000000604482015260640161043c565b836001600160a01b031663f851a4406040518163ffffffff1660e01b8152600401602060405180830381865afa15801561089b573d6000803e3d6000fd5b505050506040513d601f19601f820116820180604052508101906108bf919061136b565b6001600160a01b0316336001600160a01b0316146107005760405162461bcd60e51b815260206004820152601460248201527320b236b4b71d102737ba103a34329030b236b4b760611b604482015260640161043c565b6000805160206114f183398151915261092e81610c67565b60405163b9223c9d60e01b8152600481018390527f00000000000000000000000000000000000000000000000000000000000000006001600160a01b03169063b9223c9d906024015b600060405180830381600087803b15801561099157600080fd5b505af11580156109a5573d6000803e3d6000fd5b505050505050565b6000805160206114f183398151915261044581610c67565b6040516338c7be4760e21b81526001600160a01b038281166004830152600091829182917f00000000000000000000000000000000000000000000000000000000000000009091169063e31ef91c90602401606060405180830381865afa158015610a34573d6000803e3d6000fd5b505050506040513d601f19601f82011682018060405250810190610a589190611306565b50909150506001600160a01b03811615610a76579360009350915050565b6040516301ffc9a760e01b81526001600160a01b038516906301ffc9a790610aa99063152a902d60e11b9060040161125f565b602060405180830381865afa925050508015610ae2575060408051601f3d908101601f19168201909252610adf91810190611349565b60015b15610afd578015610afb57506000946001945092505050565b505b836001600160a01b0316638da5cb5b6040518163ffffffff1660e01b8152600401602060405180830381865afa925050508015610b57575060408051601f3d908101601f19168201909252610b549181019061136b565b60015b610bd157836001600160a01b031663f851a4406040518163ffffffff1660e01b8152600401602060405180830381865afa925050508015610bb5575060408051601f3d908101601f19168201909252610bb29181019061136b565b60015b610bc6575060009360049350915050565b946003945092505050565b946002945092505050565b600082815260208190526040902060010154610bf781610c67565b6105038383610cf8565b6000805160206114f1833981519152610c1981610c67565b60405163f2fde38b60e01b81526001600160a01b0383811660048301527f0000000000000000000000000000000000000000000000000000000000000000169063f2fde38b90602401610977565b610c718133610f78565b50565b610c7e8282610773565b610582576000828152602081815260408083206001600160a01b03851684529091529020805460ff19166001179055610cb43390565b6001600160a01b0316816001600160a01b0316837f2f8788117e7eff1d82e926ec794901d17c78024a50270940304540a733656f0d60405160405180910390a45050565b610d028282610773565b15610582576000828152602081815260408083206001600160a01b0385168085529252808320805460ff1916905551339285917ff6391f5c32d9c69d2a47ea670b442974b53935d1edc7fd64eb21e047a839171b9190a45050565b6040516338c7be4760e21b81526001600160a01b0385811660048301526000917f00000000000000000000000000000000000000000000000000000000000000009091169063e31ef91c90602401606060405180830381865afa158015610dc8573d6000803e3d6000fd5b505050506040513d601f19601f82011682018060405250810190610dec9190611306565b50909150506001600160a01b03811615610e3e5760405162461bcd60e51b815260206004820152601360248201527214d95d1d195c8e88105b1c9958591e481cd95d606a1b604482015260640161043c565b6040516301ffc9a760e01b81526001600160a01b038616906301ffc9a790610e71906380ac58cd60e01b9060040161125f565b602060405180830381865afa158015610e8e573d6000803e3d6000fd5b505050506040513d601f19601f82011682018060405250810190610eb29190611349565b80610f2c57506040516301ffc9a760e01b81526001600160a01b038616906301ffc9a790610eeb90636cdb3d1360e11b9060040161125f565b602060405180830381865afa158015610f08573d6000803e3d6000fd5b505050506040513d601f19601f82011682018060405250810190610f2c9190611349565b6104455760405162461bcd60e51b815260206004820152601a60248201527f5365747465723a204e6f74204552433732312f45524331313535000000000000604482015260640161043c565b610f828282610773565b61058257610f8f81610fd1565b610f9a836020610fe3565b604051602001610fab9291906113f1565b60408051601f198184030181529082905262461bcd60e51b825261043c91600401611466565b60606103556001600160a01b03831660145b60606000610ff2836002611499565b610ffd9060026114b0565b67ffffffffffffffff811115611015576110156114c3565b6040519080825280601f01601f19166020018201604052801561103f576020820181803683370190505b509050600360fc1b8160008151811061105a5761105a611388565b60200101906001600160f81b031916908160001a905350600f60fb1b8160018151811061108957611089611388565b60200101906001600160f81b031916908160001a90535060006110ad846002611499565b6110b89060016114b0565b90505b6001811115611130576f181899199a1a9b1b9c1cb0b131b232b360811b85600f16601081106110ec576110ec611388565b1a60f81b82828151811061110257611102611388565b60200101906001600160f81b031916908160001a90535060049490941c93611129816114d9565b90506110bb565b50831561117f5760405162461bcd60e51b815260206004820181905260248201527f537472696e67733a20686578206c656e67746820696e73756666696369656e74604482015260640161043c565b9392505050565b60006020828403121561119857600080fd5b81356001600160e01b03198116811461117f57600080fd5b6000602082840312156111c257600080fd5b5035919050565b6001600160a01b0381168114610c7157600080fd5b600080600080608085870312156111f457600080fd5b84356111ff816111c9565b9350602085013561120f816111c9565b9250604085013561121f816111c9565b9396929550929360600135925050565b6000806040838503121561124257600080fd5b823591506020830135611254816111c9565b809150509250929050565b6001600160e01b031991909116815260200190565b6000806020838503121561128757600080fd5b823567ffffffffffffffff8082111561129f57600080fd5b818501915085601f8301126112b357600080fd5b8135818111156112c257600080fd5b8660208260051b85010111156112d757600080fd5b60209290920196919550909350505050565b6000602082840312156112fb57600080fd5b813561117f816111c9565b60008060006060848603121561131b57600080fd5b8351611326816111c9565b6020850151909350611337816111c9565b80925050604084015190509250925092565b60006020828403121561135b57600080fd5b8151801515811461117f57600080fd5b60006020828403121561137d57600080fd5b815161117f816111c9565b634e487b7160e01b600052603260045260246000fd5b634e487b7160e01b600052601160045260246000fd5b6000600182016113c6576113c661139e565b5060010190565b60005b838110156113e85781810151838201526020016113d0565b50506000910152565b7f416363657373436f6e74726f6c3a206163636f756e74200000000000000000008152600083516114298160178501602088016113cd565b7001034b99036b4b9b9b4b733903937b6329607d1b601791840191820152835161145a8160288401602088016113cd565b01602801949350505050565b60208152600082518060208401526114858160408501602087016113cd565b601f01601f19169190910160400192915050565b80820281158282048414176103555761035561139e565b808201808211156103555761035561139e565b634e487b7160e01b600052604160045260246000fd5b6000816114e8576114e861139e565b50600019019056fea49807205ce4d355092ef5a8a18f56e8913cf4a201fbe287825b095693c21775a264697066735822122018edc86087c0fa882ad43bd7ffce4bdb4554d9e8e4cb80bd3a3da8783bef9e0064736f6c63430008110033",
    "linkReferences": {}
  },
  "methodIdentifiers": {
    "ADMIN_ROLE()": "75b238fc",
    "DEFAULT_ADMIN_ROLE()": "a217fddf",
    "INTERFACE_ID_ERC1155()": "33bf6156",
    "INTERFACE_ID_ERC2981()": "b060dd86",
    "INTERFACE_ID_ERC721()": "bc6bc0cd",
    "checkForCollectionSetter(address)": "c54e5497",
    "getRoleAdmin(bytes32)": "248a9ca3",
    "grantRole(bytes32,address)": "2f2ff15d",
    "hasRole(bytes32,address)": "91d14854",
    "renounceRole(bytes32,address)": "36568abe",
    "revokeRole(bytes32,address)": "d547741f",
    "royaltyFeeRegistry()": "c16f5156",
    "setAllowList(address[])": "6447c35d",
    "supportsInterface(bytes4)": "01ffc9a7",
    "updateOwnerOfRoyaltyFeeRegistry(address)": "e72ba456",
    "updateRoyaltyFeeLimit(uint256)": "b9223c9d",
    "updateRoyaltyInfoForCollection(address,address,address,uint256)": "bbdf9b68",
    "updateRoyaltyInfoForCollectionIfAdmin(address,address,address,uint256)": "ab016670",
    "updateRoyaltyInfoForCollectionIfOwner(address,address,address,uint256)": "3755fa80",
    "updateRoyaltyInfoForCollectionIfSetter(address,address,address,uint256)": "275da5ef"
  },
  "id": 60
}