{
  "abi": [
    {
      "inputs": [
        {
          "internalType": "string",
          "name": "_name",
          "type": "string"
        },
        {
          "internalType": "string",
          "name": "_symbol",
          "type": "string"
        },
        {
          "internalType": "uint256",
          "name": "_cap",
          "type": "uint256"
        },
        {
          "internalType": "address",
          "name": "_lzEndpoint",
          "type": "address"
        }
      ],
      "stateMutability": "nonpayable",
      "type": "constructor"
    },
    {
      "anonymous": false,
      "inputs": [
        {
          "indexed": true,
          "internalType": "address",
          "name": "owner",
          "type": "address"
        },
        {
          "indexed": true,
          "internalType": "address",
          "name": "spender",
          "type": "address"
        },
        {
          "indexed": false,
          "internalType": "uint256",
          "name": "value",
          "type": "uint256"
        }
      ],
      "name": "Approval",
      "type": "event"
    },
    {
      "anonymous": false,
      "inputs": [
        {
          "indexed": false,
          "internalType": "uint16",
          "name": "_srcChainId",
          "type": "uint16"
        },
        {
          "indexed": false,
          "internalType": "bytes",
          "name": "_srcAddress",
          "type": "bytes"
        },
        {
          "indexed": false,
          "internalType": "uint64",
          "name": "_nonce",
          "type": "uint64"
        },
        {
          "indexed": false,
          "internalType": "bytes",
          "name": "_payload",
          "type": "bytes"
        }
      ],
      "name": "MessageFailed",
      "type": "event"
    },
    {
      "anonymous": false,
      "inputs": [
        {
          "indexed": true,
          "internalType": "address",
          "name": "previousOwner",
          "type": "address"
        },
        {
          "indexed": true,
          "internalType": "address",
          "name": "newOwner",
          "type": "address"
        }
      ],
      "name": "OwnershipTransferred",
      "type": "event"
    },
    {
      "anonymous": false,
      "inputs": [
        {
          "indexed": true,
          "internalType": "uint16",
          "name": "_srcChainId",
          "type": "uint16"
        },
        {
          "indexed": true,
          "internalType": "bytes",
          "name": "_srcAddress",
          "type": "bytes"
        },
        {
          "indexed": true,
          "internalType": "address",
          "name": "_toAddress",
          "type": "address"
        },
        {
          "indexed": false,
          "internalType": "uint256",
          "name": "_amount",
          "type": "uint256"
        },
        {
          "indexed": false,
          "internalType": "uint64",
          "name": "_nonce",
          "type": "uint64"
        }
      ],
      "name": "ReceiveFromChain",
      "type": "event"
    },
    {
      "anonymous": false,
      "inputs": [
        {
          "indexed": true,
          "internalType": "address",
          "name": "_sender",
          "type": "address"
        },
        {
          "indexed": true,
          "internalType": "uint16",
          "name": "_dstChainId",
          "type": "uint16"
        },
        {
          "indexed": true,
          "internalType": "bytes",
          "name": "_toAddress",
          "type": "bytes"
        },
        {
          "indexed": false,
          "internalType": "uint256",
          "name": "_amount",
          "type": "uint256"
        },
        {
          "indexed": false,
          "internalType": "uint64",
          "name": "_nonce",
          "type": "uint64"
        }
      ],
      "name": "SendToChain",
      "type": "event"
    },
    {
      "anonymous": false,
      "inputs": [
        {
          "indexed": false,
          "internalType": "uint16",
          "name": "_dstChainId",
          "type": "uint16"
        },
        {
          "indexed": false,
          "internalType": "uint16",
          "name": "_type",
          "type": "uint16"
        },
        {
          "indexed": false,
          "internalType": "uint256",
          "name": "_minDstGas",
          "type": "uint256"
        }
      ],
      "name": "SetMinDstGas",
      "type": "event"
    },
    {
      "anonymous": false,
      "inputs": [
        {
          "indexed": false,
          "internalType": "address",
          "name": "precrime",
          "type": "address"
        }
      ],
      "name": "SetPrecrime",
      "type": "event"
    },
    {
      "anonymous": false,
      "inputs": [
        {
          "indexed": false,
          "internalType": "uint16",
          "name": "_remoteChainId",
          "type": "uint16"
        },
        {
          "indexed": false,
          "internalType": "bytes",
          "name": "_path",
          "type": "bytes"
        }
      ],
      "name": "SetTrustedRemote",
      "type": "event"
    },
    {
      "anonymous": false,
      "inputs": [
        {
          "indexed": false,
          "internalType": "uint16",
          "name": "_remoteChainId",
          "type": "uint16"
        },
        {
          "indexed": false,
          "internalType": "bytes",
          "name": "_remoteAddress",
          "type": "bytes"
        }
      ],
      "name": "SetTrustedRemoteAddress",
      "type": "event"
    },
    {
      "anonymous": false,
      "inputs": [
        {
          "indexed": true,
          "internalType": "address",
          "name": "from",
          "type": "address"
        },
        {
          "indexed": true,
          "internalType": "address",
          "name": "to",
          "type": "address"
        },
        {
          "indexed": false,
          "internalType": "uint256",
          "name": "value",
          "type": "uint256"
        }
      ],
      "name": "Transfer",
      "type": "event"
    },
    {
      "inputs": [
        {
          "internalType": "address",
          "name": "owner",
          "type": "address"
        },
        {
          "internalType": "address",
          "name": "spender",
          "type": "address"
        }
      ],
      "name": "allowance",
      "outputs": [
        {
          "internalType": "uint256",
          "name": "",
          "type": "uint256"
        }
      ],
      "stateMutability": "view",
      "type": "function"
    },
    {
      "inputs": [
        {
          "internalType": "address",
          "name": "spender",
          "type": "address"
        },
        {
          "internalType": "uint256",
          "name": "amount",
          "type": "uint256"
        }
      ],
      "name": "approve",
      "outputs": [
        {
          "internalType": "bool",
          "name": "",
          "type": "bool"
        }
      ],
      "stateMutability": "nonpayable",
      "type": "function"
    },
    {
      "inputs": [
        {
          "internalType": "address",
          "name": "account",
          "type": "address"
        }
      ],
      "name": "balanceOf",
      "outputs": [
        {
          "internalType": "uint256",
          "name": "",
          "type": "uint256"
        }
      ],
      "stateMutability": "view",
      "type": "function"
    },
    {
      "inputs": [],
      "name": "circulatingSupply",
      "outputs": [
        {
          "internalType": "uint256",
          "name": "",
          "type": "uint256"
        }
      ],
      "stateMutability": "view",
      "type": "function"
    },
    {
      "inputs": [],
      "name": "decimals",
      "outputs": [
        {
          "internalType": "uint8",
          "name": "",
          "type": "uint8"
        }
      ],
      "stateMutability": "view",
      "type": "function"
    },
    {
      "inputs": [
        {
          "internalType": "address",
          "name": "spender",
          "type": "address"
        },
        {
          "internalType": "uint256",
          "name": "subtractedValue",
          "type": "uint256"
        }
      ],
      "name": "decreaseAllowance",
      "outputs": [
        {
          "internalType": "bool",
          "name": "",
          "type": "bool"
        }
      ],
      "stateMutability": "nonpayable",
      "type": "function"
    },
    {
      "inputs": [
        {
          "internalType": "uint16",
          "name": "_dstChainId",
          "type": "uint16"
        },
        {
          "internalType": "bytes",
          "name": "_toAddress",
          "type": "bytes"
        },
        {
          "internalType": "uint256",
          "name": "_amount",
          "type": "uint256"
        },
        {
          "internalType": "bool",
          "name": "_useZro",
          "type": "bool"
        },
        {
          "internalType": "bytes",
          "name": "_adapterParams",
          "type": "bytes"
        },
        {
          "internalType": "bytes",
          "name": "_payload",
          "type": "bytes"
        }
      ],
      "name": "estimateSendFee",
      "outputs": [
        {
          "internalType": "uint256",
          "name": "nativeFee",
          "type": "uint256"
        },
        {
          "internalType": "uint256",
          "name": "zroFee",
          "type": "uint256"
        }
      ],
      "stateMutability": "view",
      "type": "function"
    },
    {
      "inputs": [
        {
          "internalType": "uint16",
          "name": "",
          "type": "uint16"
        },
        {
          "internalType": "bytes",
          "name": "",
          "type": "bytes"
        },
        {
          "internalType": "uint256",
          "name": "",
          "type": "uint256"
        }
      ],
      "name": "failedMessages",
      "outputs": [
        {
          "internalType": "bytes32",
          "name": "",
          "type": "bytes32"
        }
      ],
      "stateMutability": "view",
      "type": "function"
    },
    {
      "inputs": [
        {
          "internalType": "uint16",
          "name": "_srcChainId",
          "type": "uint16"
        },
        {
          "internalType": "bytes",
          "name": "_srcAddress",
          "type": "bytes"
        }
      ],
      "name": "forceResumeReceive",
      "outputs": [],
      "stateMutability": "nonpayable",
      "type": "function"
    },
    {
      "inputs": [
        {
          "internalType": "uint16",
          "name": "_version",
          "type": "uint16"
        },
        {
          "internalType": "uint16",
          "name": "_chainId",
          "type": "uint16"
        },
        {
          "internalType": "address",
          "name": "",
          "type": "address"
        },
        {
          "internalType": "uint256",
          "name": "_configType",
          "type": "uint256"
        }
      ],
      "name": "getConfig",
      "outputs": [
        {
          "internalType": "bytes",
          "name": "",
          "type": "bytes"
        }
      ],
      "stateMutability": "view",
      "type": "function"
    },
    {
      "inputs": [
        {
          "internalType": "uint16",
          "name": "_remoteChainId",
          "type": "uint16"
        }
      ],
      "name": "getTrustedRemoteAddress",
      "outputs": [
        {
          "internalType": "bytes",
          "name": "",
          "type": "bytes"
        }
      ],
      "stateMutability": "view",
      "type": "function"
    },
    {
      "inputs": [
        {
          "internalType": "address",
          "name": "spender",
          "type": "address"
        },
        {
          "internalType": "uint256",
          "name": "addedValue",
          "type": "uint256"
        }
      ],
      "name": "increaseAllowance",
      "outputs": [
        {
          "internalType": "bool",
          "name": "",
          "type": "bool"
        }
      ],
      "stateMutability": "nonpayable",
      "type": "function"
    },
    {
      "inputs": [
        {
          "internalType": "uint16",
          "name": "_srcChainId",
          "type": "uint16"
        },
        {
          "internalType": "bytes",
          "name": "_srcAddress",
          "type": "bytes"
        }
      ],
      "name": "isTrustedRemote",
      "outputs": [
        {
          "internalType": "bool",
          "name": "",
          "type": "bool"
        }
      ],
      "stateMutability": "view",
      "type": "function"
    },
    {
      "inputs": [],
      "name": "lzEndpoint",
      "outputs": [
        {
          "internalType": "contract ILayerZeroEndpoint",
          "name": "",
          "type": "address"
        }
      ],
      "stateMutability": "view",
      "type": "function"
    },
    {
      "inputs": [
        {
          "internalType": "uint16",
          "name": "_srcChainId",
          "type": "uint16"
        },
        {
          "internalType": "bytes",
          "name": "_srcAddress",
          "type": "bytes"
        },
        {
          "internalType": "uint64",
          "name": "_nonce",
          "type": "uint64"
        },
        {
          "internalType": "bytes",
          "name": "_payload",
          "type": "bytes"
        }
      ],
      "name": "lzReceive",
      "outputs": [],
      "stateMutability": "nonpayable",
      "type": "function"
    },
    {
      "inputs": [
        {
          "internalType": "uint16",
          "name": "",
          "type": "uint16"
        },
        {
          "internalType": "uint16",
          "name": "",
          "type": "uint16"
        }
      ],
      "name": "minDstGasLookup",
      "outputs": [
        {
          "internalType": "uint256",
          "name": "",
          "type": "uint256"
        }
      ],
      "stateMutability": "view",
      "type": "function"
    },
    {
      "inputs": [
        {
          "internalType": "uint256",
          "name": "amount",
          "type": "uint256"
        }
      ],
      "name": "mint",
      "outputs": [],
      "stateMutability": "nonpayable",
      "type": "function"
    },
    {
      "inputs": [],
      "name": "name",
      "outputs": [
        {
          "internalType": "string",
          "name": "",
          "type": "string"
        }
      ],
      "stateMutability": "view",
      "type": "function"
    },
    {
      "inputs": [
        {
          "internalType": "uint16",
          "name": "_srcChainId",
          "type": "uint16"
        },
        {
          "internalType": "bytes",
          "name": "_srcAddress",
          "type": "bytes"
        },
        {
          "internalType": "uint64",
          "name": "_nonce",
          "type": "uint64"
        },
        {
          "internalType": "bytes",
          "name": "_payload",
          "type": "bytes"
        }
      ],
      "name": "nonblockingLzReceive",
      "outputs": [],
      "stateMutability": "nonpayable",
      "type": "function"
    },
    {
      "inputs": [],
      "name": "owner",
      "outputs": [
        {
          "internalType": "address",
          "name": "",
          "type": "address"
        }
      ],
      "stateMutability": "view",
      "type": "function"
    },
    {
      "inputs": [],
      "name": "precrime",
      "outputs": [
        {
          "internalType": "address",
          "name": "",
          "type": "address"
        }
      ],
      "stateMutability": "view",
      "type": "function"
    },
    {
      "inputs": [],
      "name": "renounceOwnership",
      "outputs": [],
      "stateMutability": "nonpayable",
      "type": "function"
    },
    {
      "inputs": [
        {
          "internalType": "uint16",
          "name": "_srcChainId",
          "type": "uint16"
        },
        {
          "internalType": "bytes",
          "name": "_srcAddress",
          "type": "bytes"
        },
        {
          "internalType": "uint64",
          "name": "_nonce",
          "type": "uint64"
        },
        {
          "internalType": "bytes",
          "name": "_payload",
          "type": "bytes"
        }
      ],
      "name": "retryMessage",
      "outputs": [],
      "stateMutability": "payable",
      "type": "function"
    },
    {
      "inputs": [
        {
          "internalType": "address",
          "name": "_from",
          "type": "address"
        },
        {
          "internalType": "uint16",
          "name": "_dstChainId",
          "type": "uint16"
        },
        {
          "internalType": "bytes",
          "name": "_toAddress",
          "type": "bytes"
        },
        {
          "internalType": "uint256",
          "name": "_amount",
          "type": "uint256"
        },
        {
          "internalType": "address payable",
          "name": "_refundAddress",
          "type": "address"
        },
        {
          "internalType": "address",
          "name": "_zroPaymentAddress",
          "type": "address"
        },
        {
          "internalType": "bytes",
          "name": "_adapterParams",
          "type": "bytes"
        },
        {
          "internalType": "bytes",
          "name": "_payload",
          "type": "bytes"
        }
      ],
      "name": "sendFrom",
      "outputs": [],
      "stateMutability": "payable",
      "type": "function"
    },
    {
      "inputs": [
        {
          "internalType": "uint16",
          "name": "_version",
          "type": "uint16"
        },
        {
          "internalType": "uint16",
          "name": "_chainId",
          "type": "uint16"
        },
        {
          "internalType": "uint256",
          "name": "_configType",
          "type": "uint256"
        },
        {
          "internalType": "bytes",
          "name": "_config",
          "type": "bytes"
        }
      ],
      "name": "setConfig",
      "outputs": [],
      "stateMutability": "nonpayable",
      "type": "function"
    },
    {
      "inputs": [
        {
          "internalType": "uint16",
          "name": "_dstChainId",
          "type": "uint16"
        },
        {
          "internalType": "uint16",
          "name": "_packetType",
          "type": "uint16"
        },
        {
          "internalType": "uint256",
          "name": "_minGas",
          "type": "uint256"
        }
      ],
      "name": "setMinDstGas",
      "outputs": [],
      "stateMutability": "nonpayable",
      "type": "function"
    },
    {
      "inputs": [
        {
          "internalType": "address",
          "name": "_precrime",
          "type": "address"
        }
      ],
      "name": "setPrecrime",
      "outputs": [],
      "stateMutability": "nonpayable",
      "type": "function"
    },
    {
      "inputs": [
        {
          "internalType": "uint16",
          "name": "_version",
          "type": "uint16"
        }
      ],
      "name": "setReceiveVersion",
      "outputs": [],
      "stateMutability": "nonpayable",
      "type": "function"
    },
    {
      "inputs": [
        {
          "internalType": "uint16",
          "name": "_version",
          "type": "uint16"
        }
      ],
      "name": "setSendVersion",
      "outputs": [],
      "stateMutability": "nonpayable",
      "type": "function"
    },
    {
      "inputs": [
        {
          "internalType": "uint16",
          "name": "_srcChainId",
          "type": "uint16"
        },
        {
          "internalType": "bytes",
          "name": "_path",
          "type": "bytes"
        }
      ],
      "name": "setTrustedRemote",
      "outputs": [],
      "stateMutability": "nonpayable",
      "type": "function"
    },
    {
      "inputs": [
        {
          "internalType": "uint16",
          "name": "_remoteChainId",
          "type": "uint16"
        },
        {
          "internalType": "bytes",
          "name": "_remoteAddress",
          "type": "bytes"
        }
      ],
      "name": "setTrustedRemoteAddress",
      "outputs": [],
      "stateMutability": "nonpayable",
      "type": "function"
    },
    {
      "inputs": [
        {
          "internalType": "bytes4",
          "name": "interfaceId",
          "type": "bytes4"
        }
      ],
      "name": "supportsInterface",
      "outputs": [
        {
          "internalType": "bool",
          "name": "",
          "type": "bool"
        }
      ],
      "stateMutability": "view",
      "type": "function"
    },
    {
      "inputs": [],
      "name": "symbol",
      "outputs": [
        {
          "internalType": "string",
          "name": "",
          "type": "string"
        }
      ],
      "stateMutability": "view",
      "type": "function"
    },
    {
      "inputs": [],
      "name": "totalSupply",
      "outputs": [
        {
          "internalType": "uint256",
          "name": "",
          "type": "uint256"
        }
      ],
      "stateMutability": "view",
      "type": "function"
    },
    {
      "inputs": [
        {
          "internalType": "address",
          "name": "to",
          "type": "address"
        },
        {
          "internalType": "uint256",
          "name": "amount",
          "type": "uint256"
        }
      ],
      "name": "transfer",
      "outputs": [
        {
          "internalType": "bool",
          "name": "",
          "type": "bool"
        }
      ],
      "stateMutability": "nonpayable",
      "type": "function"
    },
    {
      "inputs": [
        {
          "internalType": "address",
          "name": "from",
          "type": "address"
        },
        {
          "internalType": "address",
          "name": "to",
          "type": "address"
        },
        {
          "internalType": "uint256",
          "name": "amount",
          "type": "uint256"
        }
      ],
      "name": "transferFrom",
      "outputs": [
        {
          "internalType": "bool",
          "name": "",
          "type": "bool"
        }
      ],
      "stateMutability": "nonpayable",
      "type": "function"
    },
    {
      "inputs": [
        {
          "internalType": "address",
          "name": "newOwner",
          "type": "address"
        }
      ],
      "name": "transferOwnership",
      "outputs": [],
      "stateMutability": "nonpayable",
      "type": "function"
    },
    {
      "inputs": [
        {
          "internalType": "uint16",
          "name": "",
          "type": "uint16"
        }
      ],
      "name": "trustedRemoteLookup",
      "outputs": [
        {
          "internalType": "bytes",
          "name": "",
          "type": "bytes"
        }
      ],
      "stateMutability": "view",
      "type": "function"
    }
  ],
  "bytecode": {
    "object": "0x604060a08152346200044e57620030c3803803806200001e8162000453565b92833981016080828203126200044e5781516001600160401b0391908281116200044e5781620000509185016200048f565b60209182850151908482116200044e576200006d9186016200048f565b906060868601519501519360018060a01b03948581168091036200044e5760008054336001600160a01b03198216811783559197167f8be0079c531659141344cd1fd0a4f28419497f9722a3daafe3b4186f6b6457e08880a36080528151928184116200035557600854936001938486811c9616801562000443575b878710146200042f578190601f96878111620003db575b5087908783116001146200037557899262000369575b5050600019600383901b1c191690841b176008555b805191821162000355576009548381811c911680156200034a575b868210146200033657848111620002ed575b508490848311600114620002875792829391839288946200027b575b50501b916000199060031b1c1916176009555b33156200023957507fddf252ad1be2c89b69c2b068fc378daa952ba7f163c4a11628f55a4df523b3ef90620001bf8460075462000501565b60075533835260058152848320620001d985825462000501565b905584519384523393a351612b9d90816200052682396080518181816103d0015281816106d10152818161093001528181610b32015281816114fb0152818161160901528181611b85015281816121780152818161228901526124850152f35b6064925084519162461bcd60e51b8352600483015260248201527f45524332303a206d696e7420746f20746865207a65726f2061646472657373006044820152fd5b01519250388062000174565b60098752858720919083601f198116895b8988838310620002d55750505010620002bb575b505050811b0160095562000187565b015160001960f88460031b161c19169055388080620002ac565b86860151885590960195948501948793500162000298565b600987528587208580850160051c8201928886106200032c575b0160051c019084905b8281106200032057505062000158565b88815501849062000310565b9250819262000307565b634e487b7160e01b87526022600452602487fd5b90607f169062000146565b634e487b7160e01b86526041600452602486fd5b01519050388062000116565b60088a52888a208794509190601f1984168b5b8b828210620003c45750508411620003aa575b505050811b016008556200012b565b015160001960f88460031b161c191690553880806200039b565b8385015186558a9790950194938401930162000388565b909150600889528789208780850160051c8201928a861062000425575b918891869594930160051c01915b8281106200041657505062000100565b8b815585945088910162000406565b92508192620003f8565b634e487b7160e01b88526022600452602488fd5b95607f1695620000e9565b600080fd5b6040519190601f01601f191682016001600160401b038111838210176200047957604052565b634e487b7160e01b600052604160045260246000fd5b919080601f840112156200044e5782516001600160401b0381116200047957602090620004c5601f8201601f1916830162000453565b928184528282870101116200044e5760005b818110620004ed57508260009394955001015290565b8581018301518482018401528201620004d7565b919082018092116200050f57565b634e487b7160e01b600052601160045260246000fdfe60806040526004361015610013575b600080fd5b60003560e01c80621d35671461030157806301ffc9a7146102f857806306fdde03146102ef57806307e0db17146102e6578063095ea7b3146102dd5780630e506192146102d457806310ddb137146102cb57806318160ddd1461024d57806323b872dd146102c2578063313ce567146102b957806339509351146102b05780633d8b38f6146102a757806342d65a8d1461029e57806366ad5c8a146102955780636f7707901461028c57806370a0823114610283578063715018a61461027a5780637533d788146102715780638cfd8f5c146102685780638da5cb5b1461025f5780638ee74912146102565780639358928b1461024d578063950c8a741461024457806395d89b411461023b5780639f38369a14610232578063a0712d6814610229578063a457c2d714610220578063a6c3d16514610217578063a9059cbb1461020e578063b353aaa714610205578063baf3292d146101fc578063cbed8b9c146101f3578063d1deba1f146101ea578063dd62ed3e146101e1578063df2a5b3b146101d8578063eb8d72b7146101cf578063f2fde38b146101c65763f5ecbdbc146101be57600080fd5b61000e611b1f565b5061000e611a84565b5061000e61191f565b5061000e611827565b5061000e6117cc565b5061000e6116a5565b5061000e6115a8565b5061000e61152a565b5061000e6114e4565b5061000e6114b9565b5061000e61131b565b5061000e61125c565b5061000e61123e565b5061000e61119e565b5061000e6110f6565b5061000e6110cc565b5061000e610987565b5061000e611034565b5061000e610fe4565b5061000e610f90565b5061000e610f3c565b5061000e610def565b5061000e610db1565b5061000e610d19565b5061000e610b92565b5061000e610b05565b5061000e610aa8565b5061000e610a04565b5061000e6109e7565b5061000e6109a6565b5061000e6108fc565b5061000e610861565b5061000e610757565b5061000e61069d565b5061000e6105b7565b5061000e6104cf565b5061000e61036a565b6004359061ffff8216820361000e57565b6024359061ffff8216820361000e57565b9181601f8401121561000e578235916001600160401b03831161000e576020838186019501011161000e57565b6001600160401b0381160361000e57565b503461000e57608036600319011261000e5761038461030a565b6001600160401b039060243582811161000e576103a590369060040161032c565b9290604435916103b483610359565b60643590811161000e576103cc90369060040161032c565b91907f00000000000000000000000000000000000000000000000000000000000000006001600160a01b0316330361048a5761044d6104559261045b9761044661042c6104278a61ffff166000526001602052604060002090565b610f1f565b8051908184149182610480575b508161045d575b50611bfa565b369161080f565b92369161080f565b92611f34565b005b905061046a36848661080f565b6020815191012090602081519101201438610440565b1515915038610439565b60405162461bcd60e51b815260206004820152601e60248201527f4c7a4170703a20696e76616c696420656e64706f696e742063616c6c657200006044820152606490fd5b503461000e57602036600319011261000e5760043563ffffffff60e01b811680910361000e57806020911590811561053f575b8115610514575b506040519015158152f35b63f27ff48960e01b81149150811561052e575b5038610509565b6301ffc9a760e01b14905038610527565b6336372b0760e01b81149150610502565b600091031261000e57565b60005b83811061056e5750506000910152565b818101518382015260200161055e565b906020916105978151809281855285808601910161055b565b601f01601f1916010190565b9060206105b492818152019061057e565b90565b503461000e5760008060031936011261069a5760405190806008546105db81610e4f565b808552916001918083169081156106705750600114610615575b61061185610605818703826107c4565b604051918291826105a3565b0390f35b9250600883527ff3f7a9fe364faab93b216da50a3214154f22a0a2b415b23a84c8169e8b636ee35b828410610658575050508101602001610605826106116105f5565b8054602085870181019190915290930192810161063d565b8695506106119693506020925061060594915060ff191682840152151560051b82010192936105f5565b80fd5b503461000e576000602036600319011261069a576106b961030a565b8160018060a01b036106cf818354163314611cc9565b7f00000000000000000000000000000000000000000000000000000000000000001691823b1561074257602461ffff918360405195869485936307e0db1760e01b85521660048401525af18015610735575b610729575080f35b610732906107a4565b80f35b61073d611cbc565b610721565b5080fd5b6001600160a01b0381160361000e57565b503461000e57604036600319011261000e5761078260043561077881610746565b60243590336129a4565b602060405160018152f35b50634e487b7160e01b600052604160045260246000fd5b6001600160401b0381116107b757604052565b6107bf61078d565b604052565b90601f801991011681019081106001600160401b038211176107b757604052565b6020906001600160401b038111610802575b601f01601f19160190565b61080a61078d565b6107f7565b92919261081b826107e5565b9161082960405193846107c4565b82948184528183011161000e578281602093846000960137010152565b9080601f8301121561000e578160206105b49335910161080f565b5061010036600319011261000e5760043561087b81610746565b61088361031b565b6001600160401b039160443583811161000e576108a4903690600401610846565b906084356108b181610746565b60a435916108be83610746565b60c43586811161000e576108d6903690600401610846565b9360e43596871161000e576108f261045b973690600401610846565b95606435926121f0565b503461000e576000602036600319011261069a5761091861030a565b8160018060a01b0361092e818354163314611cc9565b7f00000000000000000000000000000000000000000000000000000000000000001691823b1561074257602461ffff918360405195869485936310ddb13760e01b85521660048401525af1801561073557610729575080f35b503461000e57600036600319011261000e576020600754604051908152f35b503461000e57606036600319011261000e576107826004356109c781610746565b6024356109d381610746565b604435916109e2833383612acf565b61276e565b503461000e57600036600319011261000e57602060405160128152f35b503461000e57604036600319011261000e57610782600435610a2581610746565b3360009081526006602090815260408083206001600160a01b0385168452909152902054906024358201809211610a5d575b336129a4565b610a65611da4565b610a57565b90604060031983011261000e5760043561ffff8116810361000e5791602435906001600160401b03821161000e57610aa49160040161032c565b9091565b503461000e57602061ffff610af6610abf36610a6a565b9390911660005260018452610ae1610ae8604060002060405192838092610e89565b03826107c4565b84815191012092369161080f565b82815191012014604051908152f35b503461000e57610b1436610a6a565b9190600092839160018060a01b03610b30818554163314611cc9565b7f00000000000000000000000000000000000000000000000000000000000000001690813b15610b8e5783610b7c95604051968795869485936342d65a8d60e01b855260048501611d35565b03925af1801561073557610729575080f35b8380fd5b503461000e57608036600319011261000e57610bac61030a565b6001600160401b0360243581811161000e57610bcc903690600401610846565b60443591610bd983610359565b60643590811161000e57610bf1903690600401610846565b90303303610cd557610c0e82602080601495518301019101612333565b919390930151610c1e8482612870565b6001600160a01b031694853b1561000e57610cb7610c9284866000898b7f64e10c37f404d128982dce114f5d233c14c5c7f6d8db93099e3d99dacb9e27ba998389610c8361ffff9c604051988997889687956331d97a6560e21b87526004870161237b565b03925af1610cbc575b506123bf565b956040519384931695839092916001600160401b036020916040840195845216910152565b0390a4005b80610cc9610ccf926107a4565b80610550565b38610c8c565b606460405162461bcd60e51b815260206004820152602060248201527f4c7a52656365697665723a2063616c6c6572206d757374206265204c7a4170706044820152fd5b503461000e5760c036600319011261000e57610d3361030a565b6001600160401b039060243582811161000e57610d54903690600401610846565b90606435801515810361000e5760843584811161000e57610d79903690600401610846565b9160a43594851161000e57610d95610d9f953690600401610846565b93604435916120f9565b60408051928352602083019190915290f35b503461000e57602036600319011261000e57600435610dcf81610746565b60018060a01b031660005260056020526020604060002054604051908152f35b503461000e5760008060031936011261069a57805481906001600160a01b03811690610e1c338314611cc9565b6001600160a01b03191682557f8be0079c531659141344cd1fd0a4f28419497f9722a3daafe3b4186f6b6457e08280a380f35b90600182811c92168015610e7f575b6020831014610e6957565b634e487b7160e01b600052602260045260246000fd5b91607f1691610e5e565b9060009291805491610e9a83610e4f565b918282526001938481169081600014610efc5750600114610ebc575b50505050565b90919394506000526020928360002092846000945b838610610ee8575050505001019038808080610eb6565b805485870183015294019385908201610ed1565b9294505050602093945060ff191683830152151560051b01019038808080610eb6565b90610f3a610f339260405193848092610e89565b03836107c4565b565b503461000e57602036600319011261000e5761ffff610f5961030a565b166000526001602052610611610ae1610f7c604060002060405192838092610e89565b60405191829160208352602083019061057e565b503461000e57604036600319011261000e576020610fdb610faf61030a565b61ffff610fba61031b565b91166000526002835260406000209061ffff16600052602052604060002090565b54604051908152f35b503461000e57600036600319011261000e576000546040516001600160a01b039091168152602090f35b60209061102892826040519483868095519384920161055b565b82019081520301902090565b503461000e57606036600319011261000e5761104e61030a565b6024356001600160401b03811161000e576106119161ffff6110776110bb933690600401610846565b91166000526004602052604060002090602061109c604051928381519384920161055b565b8101918252602081604435930301902090600052602052604060002090565b546040519081529081906020820190565b503461000e57600036600319011261000e576003546040516001600160a01b039091168152602090f35b503461000e5760008060031936011261069a57604051908060095461111a81610e4f565b8085529160019180831690811561067057506001146111435761061185610605818703826107c4565b9250600983527f6e1540171b6c0c960b71a7020d9f60077f6af931a8bbf590da0223dacf75c7af5b828410611186575050508101602001610605826106116105f5565b8054602085870181019190915290930192810161116b565b503461000e57602036600319011261000e5761ffff6111bb61030a565b166000526001602052610ae16111db604060002060405192838092610e89565b8051156111f957610605816111f36106119351611dbb565b90611e77565b60405162461bcd60e51b815260206004820152601d60248201527f4c7a4170703a206e6f20747275737465642070617468207265636f72640000006044820152606490fd5b503461000e57602036600319011261000e5761045b60043533612870565b503461000e57604036600319011261000e5760043561127a81610746565b602435903360005260066020526112a78160406000209060018060a01b0316600052602052604060002090565b54918083106112c8576112bc920390336129a4565b60405160018152602090f35b60405162461bcd60e51b815260206004820152602560248201527f45524332303a2064656372656173656420616c6c6f77616e63652062656c6f77604482015264207a65726f60d81b6064820152608490fd5b503461000e5761132a36610a6a565b919060009161134360018060a01b038454163314611cc9565b60405193602081848288013761136e6034878481013060601b858201520360148101895201876107c4565b61ffff8316855260019081815260408620918751916001600160401b0383116114ac575b6113a6836113a08654610e4f565b86611d50565b80601f84116001146114165750918080926114059695948a9b7f8c0400cfe2d1199b1a725c78960bcc2a344d869b80590d0f2bd005db15a572ce9b9461140b575b50501b916000199060031b1c19161790555b60405193849384611d35565b0390a180f35b0151925038806113e7565b91939498601f19841661142e87600052602060002090565b938a905b828210611495575050917f8c0400cfe2d1199b1a725c78960bcc2a344d869b80590d0f2bd005db15a572ce999a959391856114059896941061147c575b505050811b0190556113f9565b015160001960f88460031b161c1916905538808061146f565b808886978294978701518155019601940190611432565b6114b461078d565b611392565b503461000e57604036600319011261000e576107826004356114da81610746565b602435903361276e565b503461000e57600036600319011261000e576040517f00000000000000000000000000000000000000000000000000000000000000006001600160a01b03168152602090f35b503461000e57602036600319011261000e577f5db758e995a17ec1ad84bdef7e8c3293a0bd6179bcce400dff5d4c3d87db726b602060043561156b81610746565b6000546001600160a01b0391906115859083163314611cc9565b16806bffffffffffffffffffffffff60a01b6003541617600355604051908152a1005b503461000e57608036600319011261000e576115c261030a565b6115ca61031b565b6064356001600160401b03811161000e576115e990369060040161032c565b60018060a09493941b03916000948361160787958654163314611cc9565b7f00000000000000000000000000000000000000000000000000000000000000001691823b156116a1578490611674604051978896879586946332fb62e760e21b865261ffff80921660048701521660248501526044356044850152608060648501526084840191611d14565b03925af18015611694575b611687575080f35b80610cc9610732926107a4565b61169c611cbc565b61167f565b8480fd5b50608036600319011261000e576116ba61030a565b6001600160401b0360243581811161000e576116da903690600401610846565b604435916116e783610359565b60643590811161000e576116ff90369060040161032c565b9190936117666117428561172a6117248561ffff166000526004602052604060002090565b8661100e565b906001600160401b0316600052602052604060002090565b5461174e811515611fe3565b61175936868961080f565b602081519101201461202f565b6000948593846117918761172a61178b8761ffff166000526004602052604060002090565b8861100e565b55303b156116a1576117b8916040519687958695633356ae4560e11b87526004870161207b565b038183305af1801561169457611687575080f35b503461000e57604036600319011261000e576020610fdb6004356117ef81610746565b602435906117fc82610746565b60018060a01b03166000526006835260406000209060018060a01b0316600052602052604060002090565b503461000e57606036600319011261000e5761184161030a565b61184961031b565b6044359161186260018060a01b03600054163314611cc9565b82156118e2576118dd7f9d5c7c0b934da8fefa9c7760c98383778a12dfbfc0c3b3106518f43fb9508ac09361ffff83166000526002602052806118b78560406000209061ffff16600052602052604060002090565b556040519384938460409194939294606082019561ffff80921683521660208201520152565b0390a1005b60405162461bcd60e51b81526020600482015260156024820152744c7a4170703a20696e76616c6964206d696e47617360581b6044820152606490fd5b503461000e5761192e36610a6a565b919060009161194760018060a01b038454163314611cc9565b61ffff81168352600160209080825260408520916001600160401b038711611a77575b61197e876119788554610e4f565b85611d50565b8590601f88116001146119e55750918680879893611405957ffa41487ad5d6728f0b19276fa1eddc16558578f5109fc39d2dc33c3230470dab99936119da575b501b906000198460031b1c191617905560405193849384611d35565b8801359250386119be565b90601f1988166119fa85600052602060002090565b9288905b828210611a60575050918893917ffa41487ad5d6728f0b19276fa1eddc16558578f5109fc39d2dc33c3230470dab9899611405969410611a46575b505082811b0190556113f9565b870135600019600386901b60f8161c191690553880611a39565b808685968294968c013581550195019301906119fe565b611a7f61078d565b61196a565b503461000e57602036600319011261000e57600435611aa281610746565b6000546001600160a01b0390611abb9082163314611cc9565b811615611acb5761045b90612674565b60405162461bcd60e51b815260206004820152602660248201527f4f776e61626c653a206e6577206f776e657220697320746865207a65726f206160448201526564647265737360d01b6064820152608490fd5b503461000e57608036600319011261000e57610611611b3c61030a565b611b4461031b565b90611b50604435610746565b604051633d7b2f6f60e21b815261ffff91821660048201529116602482015230604482015260648035908201526000816084817f00000000000000000000000000000000000000000000000000000000000000006001600160a01b03165afa908115611bed575b600091611bcc575b50604051918291826105a3565b611be7913d8091833e611bdf81836107c4565b810190611c97565b38611bbf565b611bf5611cbc565b611bb7565b15611c0157565b60405162461bcd60e51b815260206004820152602660248201527f4c7a4170703a20696e76616c696420736f757263652073656e64696e6720636f6044820152651b9d1c9858dd60d21b6064820152608490fd5b81601f8201121561000e578051611c6b816107e5565b92611c7960405194856107c4565b8184526020828401011161000e576105b4916020808501910161055b565b9060208282031261000e5781516001600160401b03811161000e576105b49201611c55565b506040513d6000823e3d90fd5b15611cd057565b606460405162461bcd60e51b815260206004820152602060248201527f4f776e61626c653a2063616c6c6572206973206e6f7420746865206f776e65726044820152fd5b908060209392818452848401376000828201840152601f01601f1916010190565b60409061ffff6105b495931681528160208201520191611d14565b90601f8111611d5e57505050565b600091825260208220906020601f850160051c83019410611d9a575b601f0160051c01915b828110611d8f57505050565b818155600101611d83565b9092508290611d7a565b50634e487b7160e01b600052601160045260246000fd5b601319810191908211611dca57565b610f3a611da4565b91908203918211611dca57565b90601f8201809211611dca57565b91908201809211611dca57565b15611e0157565b60405162461bcd60e51b815260206004820152600e60248201526d736c6963655f6f766572666c6f7760901b6044820152606490fd5b15611e3e57565b60405162461bcd60e51b8152602060048201526011602482015270736c6963655f6f75744f66426f756e647360781b6044820152606490fd5b611e8b82611e8481611ddf565b1015611dfa565b611e988282511015611e37565b81611eb0575050604051600081526020810160405290565b60405191601f811691821560051b808486010193838501920101905b808410611ee45750508252601f01601f191660405290565b9092835181526020809101930190611ecc565b90611f206105b4959361ffff6001600160401b039316845260806020850152608084019061057e565b93166040820152606081840391015261057e565b9091303b1561000e57604051633356ae4560e11b815260008180611f5e8886898960048601611ef7565b038183305af19081611fd4575b50610eb65783611fcf917fe6f254030bcb01ffd20558175c13fcaed6d1520be7becee4c961b65f79243b0d95516020830120611fc28261172a611fbc8861ffff166000526004602052604060002090565b8961100e565b5560405194859485611ef7565b0390a1565b611fdd906107a4565b38611f6b565b15611fea57565b60405162461bcd60e51b815260206004820152601d60248201527f4c7a52656365697665723a206e6f2073746f726564206d6573736167650000006044820152606490fd5b1561203657565b60405162461bcd60e51b815260206004820152601b60248201527f4c7a52656365697665723a20696e76616c6964207061796c6f616400000000006044820152606490fd5b906120a66105b49694959361ffff6001600160401b039316845260806020850152608084019061057e565b941660408201526060818503910152611d14565b6120d06105b4949260608352606083019061057e565b926020820152604081840391015261057e565b919082604091031261000e576020825192015190565b9195949260409461212a6121749361211c61ffff9789519b8c93602085016120ba565b03601f1981018a52896107c4565b61215b8651988996879663040a7bb160e41b885216600487015230602487015260a0604487015260a486019061057e565b911515606485015283820360031901608485015261057e565b03817f00000000000000000000000000000000000000000000000000000000000000006001600160a01b03165afa9182156121e3575b60009081936121b857509190565b9050610aa491925060403d81116121dc575b6121d481836107c4565b8101906120e3565b503d6121ca565b6121eb611cbc565b6121aa565b959261ffff9381967f024797cc77ce15dc717112d54fb1df125fdfd8c81344fb046c5e074427ce15439661224e8661224061225697989d612231888f612562565b604051978893602085016120ba565b03601f1981018652856107c4565b34938661244c565b604051630f428ae960e31b815261ffff821660048201523060248201526001600160a01b03966122ed91906020826044817f00000000000000000000000000000000000000000000000000000000000000008d165afa918215612326575b6000926122f2575b506122c6906123bf565b9760405194859416971695839092916001600160401b036020916040840195845216910152565b0390a4565b6122c69192506123189060203d811161231f575b61231081836107c4565b8101906123df565b91906122bc565b503d612306565b61232e611cbc565b6122b4565b909160608284031261000e578151916001600160401b039283811161000e578461235e918301611c55565b93602082015193604083015190811161000e576105b49201611c55565b916123a66001600160401b039161ffff6105b49896979416855260a0602086015260a085019061057e565b941660408301526060820152608081840391015261057e565b6123d79060206040519282848094519384920161055b565b810103902090565b9081602091031261000e57516105b481610359565b926124196105b497959361ffff6124279416865260c0602087015260c086019061057e565b90848203604086015261057e565b6001600160a01b0391821660608401529316608082015280830360a09091015261057e565b946124759193929561ffff8116600052600160205261247c604060002060405194858092610e89565b03846107c4565b825115612504577f00000000000000000000000000000000000000000000000000000000000000006001600160a01b031693843b1561000e576000966124d891604051998a988997889662c5803160e81b8852600488016123f4565b03925af180156124f7575b6124ea5750565b80610cc9610f3a926107a4565b6124ff611cbc565b6124e3565b60405162461bcd60e51b815260206004820152603060248201527f4c7a4170703a2064657374696e6174696f6e20636861696e206973206e6f742060448201526f61207472757374656420736f7572636560801b6064820152608490fd5b906001600160a01b03821690338203612664575b81156126155761261081846125eb7fddf252ad1be2c89b69c2b068fc378daa952ba7f163c4a11628f55a4df523b3ef946125c460009860018060a01b03166000526005602052604060002090565b546125d18282101561294d565b039160018060a01b03166000526005602052604060002090565b556126006125fb82600754611dd2565b600755565b6040519081529081906020820190565b0390a3565b60405162461bcd60e51b815260206004820152602160248201527f45524332303a206275726e2066726f6d20746865207a65726f206164647265736044820152607360f81b6064820152608490fd5b61266f813385612acf565b612576565b600080546001600160a01b039283166001600160a01b03198216811783559216907f8be0079c531659141344cd1fd0a4f28419497f9722a3daafe3b4186f6b6457e09080a3565b156126c257565b60405162461bcd60e51b815260206004820152602360248201527f45524332303a207472616e7366657220746f20746865207a65726f206164647260448201526265737360e81b6064820152608490fd5b1561271a57565b60405162461bcd60e51b815260206004820152602660248201527f45524332303a207472616e7366657220616d6f756e7420657863656564732062604482015265616c616e636560d01b6064820152608490fd5b916001600160a01b03808416929091831561281d57612800827fddf252ad1be2c89b69c2b068fc378daa952ba7f163c4a11628f55a4df523b3ef946126109416966127ba8815156126bb565b6001600160a01b03811660009081526005602052604090206127e5908590546125d182821015612713565b556001600160a01b0316600090815260056020526040902090565b61280b828254611ded565b90556040519081529081906020820190565b60405162461bcd60e51b815260206004820152602560248201527f45524332303a207472616e736665722066726f6d20746865207a65726f206164604482015264647265737360d81b6064820152608490fd5b6001600160a01b0381169182156129085760207fddf252ad1be2c89b69c2b068fc378daa952ba7f163c4a11628f55a4df523b3ef916128d66000946007548381018091116128fb575b6007556001600160a01b0316600090815260056020526040902090565b8054908282018092116128ee575b55604051908152a3565b6128f6611da4565b6128e4565b612903611da4565b6128b9565b60405162461bcd60e51b815260206004820152601f60248201527f45524332303a206d696e7420746f20746865207a65726f2061646472657373006044820152606490fd5b1561295457565b60405162461bcd60e51b815260206004820152602260248201527f45524332303a206275726e20616d6f756e7420657863656564732062616c616e604482015261636560f01b6064820152608490fd5b6001600160a01b038082169291908315612a7e578216938415612a2e5780612a1d7f8c5be1e5ebec7d5bd14f71427d1e84f3dd0314c0f7b2291e5b200ac8c7c3b92594612a066126109560018060a01b03166000526006602052604060002090565b9060018060a01b0316600052602052604060002090565b556040519081529081906020820190565b60405162461bcd60e51b815260206004820152602260248201527f45524332303a20617070726f766520746f20746865207a65726f206164647265604482015261737360f01b6064820152608490fd5b60405162461bcd60e51b8152602060048201526024808201527f45524332303a20617070726f76652066726f6d20746865207a65726f206164646044820152637265737360e01b6064820152608490fd5b6001600160a01b038082166000908152600660209081526040808320938616835292905220909190549260018401612b075750505050565b808410612b2257612b199303916129a4565b38808080610eb6565b60405162461bcd60e51b815260206004820152601d60248201527f45524332303a20696e73756666696369656e7420616c6c6f77616e63650000006044820152606490fdfea26469706673582212202926484f906f0360136033ca3c2c6b4854a186145b31d2584e98209bed53193564736f6c63430008110033",
    "linkReferences": {}
  },
  "methodIdentifiers": {
    "allowance(address,address)": "dd62ed3e",
    "approve(address,uint256)": "095ea7b3",
    "balanceOf(address)": "70a08231",
    "circulatingSupply()": "9358928b",
    "decimals()": "313ce567",
    "decreaseAllowance(address,uint256)": "a457c2d7",
    "estimateSendFee(uint16,bytes,uint256,bool,bytes,bytes)": "6f770790",
    "failedMessages(uint16,bytes,uint256)": "8ee74912",
    "forceResumeReceive(uint16,bytes)": "42d65a8d",
    "getConfig(uint16,uint16,address,uint256)": "f5ecbdbc",
    "getTrustedRemoteAddress(uint16)": "9f38369a",
    "increaseAllowance(address,uint256)": "39509351",
    "isTrustedRemote(uint16,bytes)": "3d8b38f6",
    "lzEndpoint()": "b353aaa7",
    "lzReceive(uint16,bytes,uint64,bytes)": "001d3567",
    "minDstGasLookup(uint16,uint16)": "8cfd8f5c",
    "mint(uint256)": "a0712d68",
    "name()": "06fdde03",
    "nonblockingLzReceive(uint16,bytes,uint64,bytes)": "66ad5c8a",
    "owner()": "8da5cb5b",
    "precrime()": "950c8a74",
    "renounceOwnership()": "715018a6",
    "retryMessage(uint16,bytes,uint64,bytes)": "d1deba1f",
    "sendFrom(address,uint16,bytes,uint256,address,address,bytes,bytes)": "0e506192",
    "setConfig(uint16,uint16,uint256,bytes)": "cbed8b9c",
    "setMinDstGas(uint16,uint16,uint256)": "df2a5b3b",
    "setPrecrime(address)": "baf3292d",
    "setReceiveVersion(uint16)": "10ddb137",
    "setSendVersion(uint16)": "07e0db17",
    "setTrustedRemote(uint16,bytes)": "eb8d72b7",
    "setTrustedRemoteAddress(uint16,bytes)": "a6c3d165",
    "supportsInterface(bytes4)": "01ffc9a7",
    "symbol()": "95d89b41",
    "totalSupply()": "18160ddd",
    "transfer(address,uint256)": "a9059cbb",
    "transferFrom(address,address,uint256)": "23b872dd",
    "transferOwnership(address)": "f2fde38b",
    "trustedRemoteLookup(uint16)": "7533d788"
  },
  "id": 91
}