{
  "abi": [
    {
      "inputs": [
        {
          "internalType": "string",
          "name": "_name",
          "type": "string"
        },
        {
          "internalType": "string",
          "name": "_symbol",
          "type": "string"
        },
        {
          "internalType": "uint256",
          "name": "_cap",
          "type": "uint256"
        },
        {
          "internalType": "address",
          "name": "_lzEndpoint",
          "type": "address"
        }
      ],
      "stateMutability": "nonpayable",
      "type": "constructor"
    },
    {
      "anonymous": false,
      "inputs": [
        {
          "indexed": true,
          "internalType": "address",
          "name": "owner",
          "type": "address"
        },
        {
          "indexed": true,
          "internalType": "address",
          "name": "spender",
          "type": "address"
        },
        {
          "indexed": false,
          "internalType": "uint256",
          "name": "value",
          "type": "uint256"
        }
      ],
      "name": "Approval",
      "type": "event"
    },
    {
      "anonymous": false,
      "inputs": [
        {
          "indexed": false,
          "internalType": "uint16",
          "name": "_srcChainId",
          "type": "uint16"
        },
        {
          "indexed": false,
          "internalType": "bytes",
          "name": "_srcAddress",
          "type": "bytes"
        },
        {
          "indexed": false,
          "internalType": "uint64",
          "name": "_nonce",
          "type": "uint64"
        },
        {
          "indexed": false,
          "internalType": "bytes",
          "name": "_payload",
          "type": "bytes"
        }
      ],
      "name": "MessageFailed",
      "type": "event"
    },
    {
      "anonymous": false,
      "inputs": [
        {
          "indexed": true,
          "internalType": "address",
          "name": "previousOwner",
          "type": "address"
        },
        {
          "indexed": true,
          "internalType": "address",
          "name": "newOwner",
          "type": "address"
        }
      ],
      "name": "OwnershipTransferred",
      "type": "event"
    },
    {
      "anonymous": false,
      "inputs": [
        {
          "indexed": true,
          "internalType": "uint16",
          "name": "_srcChainId",
          "type": "uint16"
        },
        {
          "indexed": true,
          "internalType": "bytes",
          "name": "_srcAddress",
          "type": "bytes"
        },
        {
          "indexed": true,
          "internalType": "address",
          "name": "_toAddress",
          "type": "address"
        },
        {
          "indexed": false,
          "internalType": "uint256",
          "name": "_amount",
          "type": "uint256"
        },
        {
          "indexed": false,
          "internalType": "uint64",
          "name": "_nonce",
          "type": "uint64"
        }
      ],
      "name": "ReceiveFromChain",
      "type": "event"
    },
    {
      "anonymous": false,
      "inputs": [
        {
          "indexed": true,
          "internalType": "address",
          "name": "_sender",
          "type": "address"
        },
        {
          "indexed": true,
          "internalType": "uint16",
          "name": "_dstChainId",
          "type": "uint16"
        },
        {
          "indexed": true,
          "internalType": "bytes",
          "name": "_toAddress",
          "type": "bytes"
        },
        {
          "indexed": false,
          "internalType": "uint256",
          "name": "_amount",
          "type": "uint256"
        },
        {
          "indexed": false,
          "internalType": "uint64",
          "name": "_nonce",
          "type": "uint64"
        }
      ],
      "name": "SendToChain",
      "type": "event"
    },
    {
      "anonymous": false,
      "inputs": [
        {
          "indexed": false,
          "internalType": "uint16",
          "name": "_dstChainId",
          "type": "uint16"
        },
        {
          "indexed": false,
          "internalType": "uint16",
          "name": "_type",
          "type": "uint16"
        },
        {
          "indexed": false,
          "internalType": "uint256",
          "name": "_minDstGas",
          "type": "uint256"
        }
      ],
      "name": "SetMinDstGas",
      "type": "event"
    },
    {
      "anonymous": false,
      "inputs": [
        {
          "indexed": false,
          "internalType": "address",
          "name": "precrime",
          "type": "address"
        }
      ],
      "name": "SetPrecrime",
      "type": "event"
    },
    {
      "anonymous": false,
      "inputs": [
        {
          "indexed": false,
          "internalType": "uint16",
          "name": "_remoteChainId",
          "type": "uint16"
        },
        {
          "indexed": false,
          "internalType": "bytes",
          "name": "_path",
          "type": "bytes"
        }
      ],
      "name": "SetTrustedRemote",
      "type": "event"
    },
    {
      "anonymous": false,
      "inputs": [
        {
          "indexed": false,
          "internalType": "uint16",
          "name": "_remoteChainId",
          "type": "uint16"
        },
        {
          "indexed": false,
          "internalType": "bytes",
          "name": "_remoteAddress",
          "type": "bytes"
        }
      ],
      "name": "SetTrustedRemoteAddress",
      "type": "event"
    },
    {
      "anonymous": false,
      "inputs": [
        {
          "indexed": true,
          "internalType": "address",
          "name": "from",
          "type": "address"
        },
        {
          "indexed": true,
          "internalType": "address",
          "name": "to",
          "type": "address"
        },
        {
          "indexed": false,
          "internalType": "uint256",
          "name": "value",
          "type": "uint256"
        }
      ],
      "name": "Transfer",
      "type": "event"
    },
    {
      "inputs": [
        {
          "internalType": "address",
          "name": "owner",
          "type": "address"
        },
        {
          "internalType": "address",
          "name": "spender",
          "type": "address"
        }
      ],
      "name": "allowance",
      "outputs": [
        {
          "internalType": "uint256",
          "name": "",
          "type": "uint256"
        }
      ],
      "stateMutability": "view",
      "type": "function"
    },
    {
      "inputs": [
        {
          "internalType": "address",
          "name": "spender",
          "type": "address"
        },
        {
          "internalType": "uint256",
          "name": "amount",
          "type": "uint256"
        }
      ],
      "name": "approve",
      "outputs": [
        {
          "internalType": "bool",
          "name": "",
          "type": "bool"
        }
      ],
      "stateMutability": "nonpayable",
      "type": "function"
    },
    {
      "inputs": [
        {
          "internalType": "address",
          "name": "account",
          "type": "address"
        }
      ],
      "name": "balanceOf",
      "outputs": [
        {
          "internalType": "uint256",
          "name": "",
          "type": "uint256"
        }
      ],
      "stateMutability": "view",
      "type": "function"
    },
    {
      "inputs": [],
      "name": "circulatingSupply",
      "outputs": [
        {
          "internalType": "uint256",
          "name": "",
          "type": "uint256"
        }
      ],
      "stateMutability": "view",
      "type": "function"
    },
    {
      "inputs": [],
      "name": "decimals",
      "outputs": [
        {
          "internalType": "uint8",
          "name": "",
          "type": "uint8"
        }
      ],
      "stateMutability": "view",
      "type": "function"
    },
    {
      "inputs": [
        {
          "internalType": "address",
          "name": "spender",
          "type": "address"
        },
        {
          "internalType": "uint256",
          "name": "subtractedValue",
          "type": "uint256"
        }
      ],
      "name": "decreaseAllowance",
      "outputs": [
        {
          "internalType": "bool",
          "name": "",
          "type": "bool"
        }
      ],
      "stateMutability": "nonpayable",
      "type": "function"
    },
    {
      "inputs": [
        {
          "internalType": "uint16",
          "name": "_dstChainId",
          "type": "uint16"
        },
        {
          "internalType": "bytes",
          "name": "_toAddress",
          "type": "bytes"
        },
        {
          "internalType": "uint256",
          "name": "_amount",
          "type": "uint256"
        },
        {
          "internalType": "bool",
          "name": "_useZro",
          "type": "bool"
        },
        {
          "internalType": "bytes",
          "name": "_adapterParams",
          "type": "bytes"
        },
        {
          "internalType": "bytes",
          "name": "_payload",
          "type": "bytes"
        }
      ],
      "name": "estimateSendFee",
      "outputs": [
        {
          "internalType": "uint256",
          "name": "nativeFee",
          "type": "uint256"
        },
        {
          "internalType": "uint256",
          "name": "zroFee",
          "type": "uint256"
        }
      ],
      "stateMutability": "view",
      "type": "function"
    },
    {
      "inputs": [
        {
          "internalType": "uint16",
          "name": "",
          "type": "uint16"
        },
        {
          "internalType": "bytes",
          "name": "",
          "type": "bytes"
        },
        {
          "internalType": "uint256",
          "name": "",
          "type": "uint256"
        }
      ],
      "name": "failedMessages",
      "outputs": [
        {
          "internalType": "bytes32",
          "name": "",
          "type": "bytes32"
        }
      ],
      "stateMutability": "view",
      "type": "function"
    },
    {
      "inputs": [
        {
          "internalType": "uint16",
          "name": "_srcChainId",
          "type": "uint16"
        },
        {
          "internalType": "bytes",
          "name": "_srcAddress",
          "type": "bytes"
        }
      ],
      "name": "forceResumeReceive",
      "outputs": [],
      "stateMutability": "nonpayable",
      "type": "function"
    },
    {
      "inputs": [
        {
          "internalType": "uint16",
          "name": "_version",
          "type": "uint16"
        },
        {
          "internalType": "uint16",
          "name": "_chainId",
          "type": "uint16"
        },
        {
          "internalType": "address",
          "name": "",
          "type": "address"
        },
        {
          "internalType": "uint256",
          "name": "_configType",
          "type": "uint256"
        }
      ],
      "name": "getConfig",
      "outputs": [
        {
          "internalType": "bytes",
          "name": "",
          "type": "bytes"
        }
      ],
      "stateMutability": "view",
      "type": "function"
    },
    {
      "inputs": [
        {
          "internalType": "uint16",
          "name": "_remoteChainId",
          "type": "uint16"
        }
      ],
      "name": "getTrustedRemoteAddress",
      "outputs": [
        {
          "internalType": "bytes",
          "name": "",
          "type": "bytes"
        }
      ],
      "stateMutability": "view",
      "type": "function"
    },
    {
      "inputs": [
        {
          "internalType": "address",
          "name": "spender",
          "type": "address"
        },
        {
          "internalType": "uint256",
          "name": "addedValue",
          "type": "uint256"
        }
      ],
      "name": "increaseAllowance",
      "outputs": [
        {
          "internalType": "bool",
          "name": "",
          "type": "bool"
        }
      ],
      "stateMutability": "nonpayable",
      "type": "function"
    },
    {
      "inputs": [
        {
          "internalType": "uint16",
          "name": "_srcChainId",
          "type": "uint16"
        },
        {
          "internalType": "bytes",
          "name": "_srcAddress",
          "type": "bytes"
        }
      ],
      "name": "isTrustedRemote",
      "outputs": [
        {
          "internalType": "bool",
          "name": "",
          "type": "bool"
        }
      ],
      "stateMutability": "view",
      "type": "function"
    },
    {
      "inputs": [],
      "name": "lzEndpoint",
      "outputs": [
        {
          "internalType": "contract ILayerZeroEndpoint",
          "name": "",
          "type": "address"
        }
      ],
      "stateMutability": "view",
      "type": "function"
    },
    {
      "inputs": [
        {
          "internalType": "uint16",
          "name": "_srcChainId",
          "type": "uint16"
        },
        {
          "internalType": "bytes",
          "name": "_srcAddress",
          "type": "bytes"
        },
        {
          "internalType": "uint64",
          "name": "_nonce",
          "type": "uint64"
        },
        {
          "internalType": "bytes",
          "name": "_payload",
          "type": "bytes"
        }
      ],
      "name": "lzReceive",
      "outputs": [],
      "stateMutability": "nonpayable",
      "type": "function"
    },
    {
      "inputs": [
        {
          "internalType": "uint16",
          "name": "",
          "type": "uint16"
        },
        {
          "internalType": "uint16",
          "name": "",
          "type": "uint16"
        }
      ],
      "name": "minDstGasLookup",
      "outputs": [
        {
          "internalType": "uint256",
          "name": "",
          "type": "uint256"
        }
      ],
      "stateMutability": "view",
      "type": "function"
    },
    {
      "inputs": [
        {
          "internalType": "uint256",
          "name": "amount",
          "type": "uint256"
        }
      ],
      "name": "mint",
      "outputs": [],
      "stateMutability": "nonpayable",
      "type": "function"
    },
    {
      "inputs": [],
      "name": "name",
      "outputs": [
        {
          "internalType": "string",
          "name": "",
          "type": "string"
        }
      ],
      "stateMutability": "view",
      "type": "function"
    },
    {
      "inputs": [
        {
          "internalType": "uint16",
          "name": "_srcChainId",
          "type": "uint16"
        },
        {
          "internalType": "bytes",
          "name": "_srcAddress",
          "type": "bytes"
        },
        {
          "internalType": "uint64",
          "name": "_nonce",
          "type": "uint64"
        },
        {
          "internalType": "bytes",
          "name": "_payload",
          "type": "bytes"
        }
      ],
      "name": "nonblockingLzReceive",
      "outputs": [],
      "stateMutability": "nonpayable",
      "type": "function"
    },
    {
      "inputs": [],
      "name": "owner",
      "outputs": [
        {
          "internalType": "address",
          "name": "",
          "type": "address"
        }
      ],
      "stateMutability": "view",
      "type": "function"
    },
    {
      "inputs": [],
      "name": "precrime",
      "outputs": [
        {
          "internalType": "address",
          "name": "",
          "type": "address"
        }
      ],
      "stateMutability": "view",
      "type": "function"
    },
    {
      "inputs": [],
      "name": "renounceOwnership",
      "outputs": [],
      "stateMutability": "nonpayable",
      "type": "function"
    },
    {
      "inputs": [
        {
          "internalType": "uint16",
          "name": "_srcChainId",
          "type": "uint16"
        },
        {
          "internalType": "bytes",
          "name": "_srcAddress",
          "type": "bytes"
        },
        {
          "internalType": "uint64",
          "name": "_nonce",
          "type": "uint64"
        },
        {
          "internalType": "bytes",
          "name": "_payload",
          "type": "bytes"
        }
      ],
      "name": "retryMessage",
      "outputs": [],
      "stateMutability": "payable",
      "type": "function"
    },
    {
      "inputs": [
        {
          "internalType": "address",
          "name": "_from",
          "type": "address"
        },
        {
          "internalType": "uint16",
          "name": "_dstChainId",
          "type": "uint16"
        },
        {
          "internalType": "bytes",
          "name": "_toAddress",
          "type": "bytes"
        },
        {
          "internalType": "uint256",
          "name": "_amount",
          "type": "uint256"
        },
        {
          "internalType": "address payable",
          "name": "_refundAddress",
          "type": "address"
        },
        {
          "internalType": "address",
          "name": "_zroPaymentAddress",
          "type": "address"
        },
        {
          "internalType": "bytes",
          "name": "_adapterParams",
          "type": "bytes"
        },
        {
          "internalType": "bytes",
          "name": "_payload",
          "type": "bytes"
        }
      ],
      "name": "sendFrom",
      "outputs": [],
      "stateMutability": "payable",
      "type": "function"
    },
    {
      "inputs": [
        {
          "internalType": "uint16",
          "name": "_version",
          "type": "uint16"
        },
        {
          "internalType": "uint16",
          "name": "_chainId",
          "type": "uint16"
        },
        {
          "internalType": "uint256",
          "name": "_configType",
          "type": "uint256"
        },
        {
          "internalType": "bytes",
          "name": "_config",
          "type": "bytes"
        }
      ],
      "name": "setConfig",
      "outputs": [],
      "stateMutability": "nonpayable",
      "type": "function"
    },
    {
      "inputs": [
        {
          "internalType": "uint16",
          "name": "_dstChainId",
          "type": "uint16"
        },
        {
          "internalType": "uint16",
          "name": "_packetType",
          "type": "uint16"
        },
        {
          "internalType": "uint256",
          "name": "_minGas",
          "type": "uint256"
        }
      ],
      "name": "setMinDstGas",
      "outputs": [],
      "stateMutability": "nonpayable",
      "type": "function"
    },
    {
      "inputs": [
        {
          "internalType": "address",
          "name": "_precrime",
          "type": "address"
        }
      ],
      "name": "setPrecrime",
      "outputs": [],
      "stateMutability": "nonpayable",
      "type": "function"
    },
    {
      "inputs": [
        {
          "internalType": "uint16",
          "name": "_version",
          "type": "uint16"
        }
      ],
      "name": "setReceiveVersion",
      "outputs": [],
      "stateMutability": "nonpayable",
      "type": "function"
    },
    {
      "inputs": [
        {
          "internalType": "uint16",
          "name": "_version",
          "type": "uint16"
        }
      ],
      "name": "setSendVersion",
      "outputs": [],
      "stateMutability": "nonpayable",
      "type": "function"
    },
    {
      "inputs": [
        {
          "internalType": "uint16",
          "name": "_srcChainId",
          "type": "uint16"
        },
        {
          "internalType": "bytes",
          "name": "_path",
          "type": "bytes"
        }
      ],
      "name": "setTrustedRemote",
      "outputs": [],
      "stateMutability": "nonpayable",
      "type": "function"
    },
    {
      "inputs": [
        {
          "internalType": "uint16",
          "name": "_remoteChainId",
          "type": "uint16"
        },
        {
          "internalType": "bytes",
          "name": "_remoteAddress",
          "type": "bytes"
        }
      ],
      "name": "setTrustedRemoteAddress",
      "outputs": [],
      "stateMutability": "nonpayable",
      "type": "function"
    },
    {
      "inputs": [
        {
          "internalType": "bytes4",
          "name": "interfaceId",
          "type": "bytes4"
        }
      ],
      "name": "supportsInterface",
      "outputs": [
        {
          "internalType": "bool",
          "name": "",
          "type": "bool"
        }
      ],
      "stateMutability": "view",
      "type": "function"
    },
    {
      "inputs": [],
      "name": "symbol",
      "outputs": [
        {
          "internalType": "string",
          "name": "",
          "type": "string"
        }
      ],
      "stateMutability": "view",
      "type": "function"
    },
    {
      "inputs": [],
      "name": "totalSupply",
      "outputs": [
        {
          "internalType": "uint256",
          "name": "",
          "type": "uint256"
        }
      ],
      "stateMutability": "view",
      "type": "function"
    },
    {
      "inputs": [
        {
          "internalType": "address",
          "name": "to",
          "type": "address"
        },
        {
          "internalType": "uint256",
          "name": "amount",
          "type": "uint256"
        }
      ],
      "name": "transfer",
      "outputs": [
        {
          "internalType": "bool",
          "name": "",
          "type": "bool"
        }
      ],
      "stateMutability": "nonpayable",
      "type": "function"
    },
    {
      "inputs": [
        {
          "internalType": "address",
          "name": "from",
          "type": "address"
        },
        {
          "internalType": "address",
          "name": "to",
          "type": "address"
        },
        {
          "internalType": "uint256",
          "name": "amount",
          "type": "uint256"
        }
      ],
      "name": "transferFrom",
      "outputs": [
        {
          "internalType": "bool",
          "name": "",
          "type": "bool"
        }
      ],
      "stateMutability": "nonpayable",
      "type": "function"
    },
    {
      "inputs": [
        {
          "internalType": "address",
          "name": "newOwner",
          "type": "address"
        }
      ],
      "name": "transferOwnership",
      "outputs": [],
      "stateMutability": "nonpayable",
      "type": "function"
    },
    {
      "inputs": [
        {
          "internalType": "uint16",
          "name": "",
          "type": "uint16"
        }
      ],
      "name": "trustedRemoteLookup",
      "outputs": [
        {
          "internalType": "bytes",
          "name": "",
          "type": "bytes"
        }
      ],
      "stateMutability": "view",
      "type": "function"
    }
  ],
  "bytecode": {
    "object": "0x60a06040523480156200001157600080fd5b506040516200354638038062003546833981016040819052620000349162000277565b8383828282828080620000473362000095565b6001600160a01b031660805250600890506200006483826200039a565b5060096200007382826200039a565b5050505050506200008b3383620000e560201b60201c565b505050506200048e565b600080546001600160a01b038381166001600160a01b0319831681178455604051919092169283917f8be0079c531659141344cd1fd0a4f28419497f9722a3daafe3b4186f6b6457e09190a35050565b6001600160a01b038216620001405760405162461bcd60e51b815260206004820152601f60248201527f45524332303a206d696e7420746f20746865207a65726f206164647265737300604482015260640160405180910390fd5b806007600082825462000154919062000466565b90915550506001600160a01b0382166000818152600560209081526040808320805486019055518481527fddf252ad1be2c89b69c2b068fc378daa952ba7f163c4a11628f55a4df523b3ef910160405180910390a35050565b505050565b634e487b7160e01b600052604160045260246000fd5b600082601f830112620001da57600080fd5b81516001600160401b0380821115620001f757620001f7620001b2565b604051601f8301601f19908116603f01168101908282118183101715620002225762000222620001b2565b816040528381526020925086838588010111156200023f57600080fd5b600091505b8382101562000263578582018301518183018401529082019062000244565b600093810190920192909252949350505050565b600080600080608085870312156200028e57600080fd5b84516001600160401b0380821115620002a657600080fd5b620002b488838901620001c8565b95506020870151915080821115620002cb57600080fd5b50620002da87828801620001c8565b60408701516060880151919550935090506001600160a01b03811681146200030157600080fd5b939692955090935050565b600181811c908216806200032157607f821691505b6020821081036200034257634e487b7160e01b600052602260045260246000fd5b50919050565b601f821115620001ad57600081815260208120601f850160051c81016020861015620003715750805b601f850160051c820191505b8181101562000392578281556001016200037d565b505050505050565b81516001600160401b03811115620003b657620003b6620001b2565b620003ce81620003c784546200030c565b8462000348565b602080601f831160018114620004065760008415620003ed5750858301515b600019600386901b1c1916600185901b17855562000392565b600085815260208120601f198616915b82811015620004375788860151825594840194600190910190840162000416565b5085821015620004565787850151600019600388901b60f8161c191681555b5050505050600190811b01905550565b808201808211156200048857634e487b7160e01b600052601160045260246000fd5b92915050565b60805161305d620004e9600039600081816106450152818161075d01528181610a7c01528181610b3801528181610ca001528181610da9015281816111b3015281816115ad0152818161193501526120a0015261305d6000f3fe6080604052600436106102245760003560e01c80638da5cb5b11610123578063a9059cbb116100ab578063dd62ed3e1161006f578063dd62ed3e146106ba578063df2a5b3b146106da578063eb8d72b7146106fa578063f2fde38b1461071a578063f5ecbdbc1461073a57600080fd5b8063a9059cbb14610613578063b353aaa714610633578063baf3292d14610667578063cbed8b9c14610687578063d1deba1f146106a757600080fd5b806395d89b41116100f257806395d89b411461057e5780639f38369a14610593578063a0712d68146105b3578063a457c2d7146105d3578063a6c3d165146105f357600080fd5b80638da5cb5b146104c85780638ee74912146104fa5780639358928b14610549578063950c8a741461055e57600080fd5b8063313ce567116101b15780636f770790116101755780636f770790146103f057806370a0823114610425578063715018a61461045b5780637533d788146104705780638cfd8f5c1461049057600080fd5b8063313ce5671461035457806339509351146103705780633d8b38f61461039057806342d65a8d146103b057806366ad5c8a146103d057600080fd5b8063095ea7b3116101f8578063095ea7b3146102c25780630e506192146102e257806310ddb137146102f557806318160ddd1461031557806323b872dd1461033457600080fd5b80621d35671461022957806301ffc9a71461024b57806306fdde031461028057806307e0db17146102a2575b600080fd5b34801561023557600080fd5b506102496102443660046122d3565b61075a565b005b34801561025757600080fd5b5061026b610266366004612367565b61098b565b60405190151581526020015b60405180910390f35b34801561028c57600080fd5b506102956109c9565b60405161027791906123e1565b3480156102ae57600080fd5b506102496102bd3660046123f4565b610a5b565b3480156102ce57600080fd5b5061026b6102dd36600461242f565b610ae4565b6102496102f036600461251e565b610afc565b34801561030157600080fd5b506102496103103660046123f4565b610b17565b34801561032157600080fd5b506007545b604051908152602001610277565b34801561034057600080fd5b5061026b61034f3660046125f2565b610b6f565b34801561036057600080fd5b5060405160128152602001610277565b34801561037c57600080fd5b5061026b61038b36600461242f565b610b93565b34801561039c57600080fd5b5061026b6103ab366004612633565b610bb5565b3480156103bc57600080fd5b506102496103cb366004612633565b610c81565b3480156103dc57600080fd5b506102496103eb366004612685565b610d07565b3480156103fc57600080fd5b5061041061040b36600461270d565b610d68565b60408051928352602083019190915201610277565b34801561043157600080fd5b506103266104403660046127c7565b6001600160a01b031660009081526005602052604090205490565b34801561046757600080fd5b50610249610e36565b34801561047c57600080fd5b5061029561048b3660046123f4565b610e4a565b34801561049c57600080fd5b506103266104ab3660046127e4565b600260209081526000928352604080842090915290825290205481565b3480156104d457600080fd5b506000546001600160a01b03165b6040516001600160a01b039091168152602001610277565b34801561050657600080fd5b50610326610515366004612817565b6004602090815260009384526040808520845180860184018051928152908401958401959095209452929052825290205481565b34801561055557600080fd5b50610326610ee4565b34801561056a57600080fd5b506003546104e2906001600160a01b031681565b34801561058a57600080fd5b50610295610ef4565b34801561059f57600080fd5b506102956105ae3660046123f4565b610f03565b3480156105bf57600080fd5b506102496105ce36600461286d565b611019565b3480156105df57600080fd5b5061026b6105ee36600461242f565b611026565b3480156105ff57600080fd5b5061024961060e366004612633565b6110a1565b34801561061f57600080fd5b5061026b61062e36600461242f565b61112a565b34801561063f57600080fd5b506104e27f000000000000000000000000000000000000000000000000000000000000000081565b34801561067357600080fd5b506102496106823660046127c7565b611138565b34801561069357600080fd5b506102496106a2366004612886565b611194565b6102496106b53660046128f4565b611229565b3480156106c657600080fd5b506103266106d5366004612972565b6113cf565b3480156106e657600080fd5b506102496106f53660046129ab565b6113fa565b34801561070657600080fd5b50610249610715366004612633565b6114ac565b34801561072657600080fd5b506102496107353660046127c7565b611506565b34801561074657600080fd5b506102956107553660046129e7565b61157c565b337f00000000000000000000000000000000000000000000000000000000000000006001600160a01b0316146107d75760405162461bcd60e51b815260206004820152601e60248201527f4c7a4170703a20696e76616c696420656e64706f696e742063616c6c6572000060448201526064015b60405180910390fd5b61ffff8616600090815260016020526040812080546107f590612a34565b80601f016020809104026020016040519081016040528092919081815260200182805461082190612a34565b801561086e5780601f106108435761010080835404028352916020019161086e565b820191906000526020600020905b81548152906001019060200180831161085157829003601f168201915b50505050509050805186869050148015610889575060008151115b80156108b15750805160208201206040516108a79088908890612a6e565b6040518091039020145b61090c5760405162461bcd60e51b815260206004820152602660248201527f4c7a4170703a20696e76616c696420736f757263652073656e64696e6720636f6044820152651b9d1c9858dd60d21b60648201526084016107ce565b6109828787878080601f01602080910402602001604051908101604052809392919081815260200183838082843760009201919091525050604080516020601f8a018190048102820181019092528881528a93509150889088908190840183828082843760009201919091525061162d92505050565b50505050505050565b60006001600160e01b0319821615806109b457506001600160e01b031982166336372b0760e01b145b806109c357506109c38261171e565b92915050565b6060600880546109d890612a34565b80601f0160208091040260200160405190810160405280929190818152602001828054610a0490612a34565b8015610a515780601f10610a2657610100808354040283529160200191610a51565b820191906000526020600020905b815481529060010190602001808311610a3457829003601f168201915b5050505050905090565b610a63611753565b6040516307e0db1760e01b815261ffff821660048201527f00000000000000000000000000000000000000000000000000000000000000006001600160a01b0316906307e0db17906024015b600060405180830381600087803b158015610ac957600080fd5b505af1158015610add573d6000803e3d6000fd5b5050505050565b600033610af28185856117ad565b5060019392505050565b610b0d8888888888888888346118d1565b5050505050505050565b610b1f611753565b6040516310ddb13760e01b815261ffff821660048201527f00000000000000000000000000000000000000000000000000000000000000006001600160a01b0316906310ddb13790602401610aaf565b600033610b7d858285611a1e565b610b88858585611a92565b506001949350505050565b600033610af2818585610ba683836113cf565b610bb09190612a94565b6117ad565b61ffff831660009081526001602052604081208054829190610bd690612a34565b80601f0160208091040260200160405190810160405280929190818152602001828054610c0290612a34565b8015610c4f5780601f10610c2457610100808354040283529160200191610c4f565b820191906000526020600020905b815481529060010190602001808311610c3257829003601f168201915b505050505090508383604051610c66929190612a6e565b60405180910390208180519060200120149150509392505050565b610c89611753565b6040516342d65a8d60e01b81526001600160a01b037f000000000000000000000000000000000000000000000000000000000000000016906342d65a8d90610cd990869086908690600401612ad0565b600060405180830381600087803b158015610cf357600080fd5b505af1158015610982573d6000803e3d6000fd5b333014610d565760405162461bcd60e51b815260206004820181905260248201527f4c7a52656365697665723a2063616c6c6572206d757374206265204c7a41707060448201526064016107ce565b610d6284848484611c3d565b50505050565b6000806000878785604051602001610d8293929190612aee565b60408051601f198184030181529082905263040a7bb160e41b825291506001600160a01b037f000000000000000000000000000000000000000000000000000000000000000016906340a7bb1090610de6908c90309086908c908c90600401612b23565b6040805180830381865afa158015610e02573d6000803e3d6000fd5b505050506040513d601f19601f82011682018060405250810190610e269190612b77565b9250925050965096945050505050565b610e3e611753565b610e486000611d3e565b565b60016020526000908152604090208054610e6390612a34565b80601f0160208091040260200160405190810160405280929190818152602001828054610e8f90612a34565b8015610edc5780601f10610eb157610100808354040283529160200191610edc565b820191906000526020600020905b815481529060010190602001808311610ebf57829003601f168201915b505050505081565b6000610eef60075490565b905090565b6060600980546109d890612a34565b61ffff8116600090815260016020526040812080546060929190610f2690612a34565b80601f0160208091040260200160405190810160405280929190818152602001828054610f5290612a34565b8015610f9f5780601f10610f7457610100808354040283529160200191610f9f565b820191906000526020600020905b815481529060010190602001808311610f8257829003601f168201915b505050505090508051600003610ff75760405162461bcd60e51b815260206004820152601d60248201527f4c7a4170703a206e6f20747275737465642070617468207265636f726400000060448201526064016107ce565b61101260006014835161100a9190612b9b565b839190611d8e565b9392505050565b6110233382611e9b565b50565b6000338161103482866113cf565b9050838110156110945760405162461bcd60e51b815260206004820152602560248201527f45524332303a2064656372656173656420616c6c6f77616e63652062656c6f77604482015264207a65726f60d81b60648201526084016107ce565b610b8882868684036117ad565b6110a9611753565b8181306040516020016110be93929190612bae565b60408051601f1981840301815291815261ffff85166000908152600160205220906110e99082612c22565b507f8c0400cfe2d1199b1a725c78960bcc2a344d869b80590d0f2bd005db15a572ce83838360405161111d93929190612ad0565b60405180910390a1505050565b600033610af2818585611a92565b611140611753565b600380546001600160a01b0319166001600160a01b0383169081179091556040519081527f5db758e995a17ec1ad84bdef7e8c3293a0bd6179bcce400dff5d4c3d87db726b9060200160405180910390a150565b61119c611753565b6040516332fb62e760e21b81526001600160a01b037f0000000000000000000000000000000000000000000000000000000000000000169063cbed8b9c906111f09088908890889088908890600401612ce1565b600060405180830381600087803b15801561120a57600080fd5b505af115801561121e573d6000803e3d6000fd5b505050505050505050565b61ffff8516600090815260046020526040808220905161124a908790612d1a565b90815260408051602092819003830190206001600160401b038716600090815292529020549050806112be5760405162461bcd60e51b815260206004820152601d60248201527f4c7a52656365697665723a206e6f2073746f726564206d65737361676500000060448201526064016107ce565b8083836040516112cf929190612a6e565b6040518091039020146113245760405162461bcd60e51b815260206004820152601b60248201527f4c7a52656365697665723a20696e76616c6964207061796c6f6164000000000060448201526064016107ce565b61ffff86166000908152600460205260408082209051611345908890612d1a565b9081526040805191829003602090810183206001600160401b038916600090815291522091909155633356ae4560e11b815230906366ad5c8a906113959089908990899089908990600401612d36565b600060405180830381600087803b1580156113af57600080fd5b505af11580156113c3573d6000803e3d6000fd5b50505050505050505050565b6001600160a01b03918216600090815260066020908152604080832093909416825291909152205490565b611402611753565b6000811161144a5760405162461bcd60e51b81526020600482015260156024820152744c7a4170703a20696e76616c6964206d696e47617360581b60448201526064016107ce565b61ffff83811660008181526002602090815260408083209487168084529482529182902085905581519283528201929092529081018290527f9d5c7c0b934da8fefa9c7760c98383778a12dfbfc0c3b3106518f43fb9508ac09060600161111d565b6114b4611753565b61ffff831660009081526001602052604090206114d2828483612d75565b507ffa41487ad5d6728f0b19276fa1eddc16558578f5109fc39d2dc33c3230470dab83838360405161111d93929190612ad0565b61150e611753565b6001600160a01b0381166115735760405162461bcd60e51b815260206004820152602660248201527f4f776e61626c653a206e6577206f776e657220697320746865207a65726f206160448201526564647265737360d01b60648201526084016107ce565b61102381611d3e565b604051633d7b2f6f60e21b815261ffff808616600483015284166024820152306044820152606481018290526060907f00000000000000000000000000000000000000000000000000000000000000006001600160a01b03169063f5ecbdbc90608401600060405180830381865afa1580156115fc573d6000803e3d6000fd5b505050506040513d6000823e601f3d908101601f191682016040526116249190810190612e81565b95945050505050565b604051633356ae4560e11b815230906366ad5c8a90611656908790879087908790600401612eb5565b600060405180830381600087803b15801561167057600080fd5b505af1925050508015611681575060015b610d62578080519060200120600460008661ffff1661ffff168152602001908152602001600020846040516116b69190612d1a565b9081526040805191829003602090810183206001600160401b0387166000908152915220919091557fe6f254030bcb01ffd20558175c13fcaed6d1520be7becee4c961b65f79243b0d90611711908690869086908690612eb5565b60405180910390a1610d62565b60006001600160e01b0319821663f27ff48960e01b14806109c357506301ffc9a760e01b6001600160e01b03198316146109c3565b6000546001600160a01b03163314610e485760405162461bcd60e51b815260206004820181905260248201527f4f776e61626c653a2063616c6c6572206973206e6f7420746865206f776e657260448201526064016107ce565b6001600160a01b03831661180f5760405162461bcd60e51b8152602060048201526024808201527f45524332303a20617070726f76652066726f6d20746865207a65726f206164646044820152637265737360e01b60648201526084016107ce565b6001600160a01b0382166118705760405162461bcd60e51b815260206004820152602260248201527f45524332303a20617070726f766520746f20746865207a65726f206164647265604482015261737360f01b60648201526084016107ce565b6001600160a01b0383811660008181526006602090815260408083209487168084529482529182902085905590518481527f8c5be1e5ebec7d5bd14f71427d1e84f3dd0314c0f7b2291e5b200ac8c7c3b925910160405180910390a3505050565b6118dd89898989611f5c565b60008787846040516020016118f493929190612aee565b6040516020818303038152906040529050611913898288888887611f82565b604051630f428ae960e31b815261ffff8a1660048201523060248201526000907f00000000000000000000000000000000000000000000000000000000000000006001600160a01b031690637a14574890604401602060405180830381865afa158015611984573d6000803e3d6000fd5b505050506040513d601f19601f820116820180604052508101906119a89190612ef3565b9050886040516119b89190612d1a565b604080519182900382208a83526001600160401b03841660208401529161ffff8d16916001600160a01b038f16917f024797cc77ce15dc717112d54fb1df125fdfd8c81344fb046c5e074427ce1543910160405180910390a45050505050505050505050565b6000611a2a84846113cf565b90506000198114610d625781811015611a855760405162461bcd60e51b815260206004820152601d60248201527f45524332303a20696e73756666696369656e7420616c6c6f77616e636500000060448201526064016107ce565b610d6284848484036117ad565b6001600160a01b038316611af65760405162461bcd60e51b815260206004820152602560248201527f45524332303a207472616e736665722066726f6d20746865207a65726f206164604482015264647265737360d81b60648201526084016107ce565b6001600160a01b038216611b585760405162461bcd60e51b815260206004820152602360248201527f45524332303a207472616e7366657220746f20746865207a65726f206164647260448201526265737360e81b60648201526084016107ce565b6001600160a01b03831660009081526005602052604090205481811015611bd05760405162461bcd60e51b815260206004820152602660248201527f45524332303a207472616e7366657220616d6f756e7420657863656564732062604482015265616c616e636560d01b60648201526084016107ce565b6001600160a01b0380851660008181526005602052604080822086860390559286168082529083902080548601905591517fddf252ad1be2c89b69c2b068fc378daa952ba7f163c4a11628f55a4df523b3ef90611c309086815260200190565b60405180910390a3610d62565b600080600083806020019051810190611c569190612f10565b60148301519295509093509150611c6e888285612121565b6040516331d97a6560e21b81526001600160a01b0382169063c765e99490611ca2908b908b908b9089908990600401612f7c565b600060405180830381600087803b158015611cbc57600080fd5b505af1925050508015611ccd575060015b50806001600160a01b031687604051611ce69190612d1a565b604080519182900382208683526001600160401b038a1660208401529161ffff8c16917f64e10c37f404d128982dce114f5d233c14c5c7f6d8db93099e3d99dacb9e27ba910160405180910390a45050505050505050565b600080546001600160a01b038381166001600160a01b0319831681178455604051919092169283917f8be0079c531659141344cd1fd0a4f28419497f9722a3daafe3b4186f6b6457e09190a35050565b606081611d9c81601f612a94565b1015611ddb5760405162461bcd60e51b815260206004820152600e60248201526d736c6963655f6f766572666c6f7760901b60448201526064016107ce565b611de58284612a94565b84511015611e295760405162461bcd60e51b8152602060048201526011602482015270736c6963655f6f75744f66426f756e647360781b60448201526064016107ce565b606082158015611e485760405191506000825260208201604052611e92565b6040519150601f8416801560200281840101858101878315602002848b0101015b81831015611e81578051835260209283019201611e69565b5050858452601f01601f1916604052505b50949350505050565b6001600160a01b038216611ef15760405162461bcd60e51b815260206004820152601f60248201527f45524332303a206d696e7420746f20746865207a65726f20616464726573730060448201526064016107ce565b8060076000828254611f039190612a94565b90915550506001600160a01b0382166000818152600560209081526040808320805486019055518481527fddf252ad1be2c89b69c2b068fc378daa952ba7f163c4a11628f55a4df523b3ef910160405180910390a35050565b336001600160a01b0385168114611f7857611f78858284611a1e565b610add858361212b565b61ffff861660009081526001602052604081208054611fa090612a34565b80601f0160208091040260200160405190810160405280929190818152602001828054611fcc90612a34565b80156120195780601f10611fee57610100808354040283529160200191612019565b820191906000526020600020905b815481529060010190602001808311611ffc57829003601f168201915b50505050509050805160000361208a5760405162461bcd60e51b815260206004820152603060248201527f4c7a4170703a2064657374696e6174696f6e20636861696e206973206e6f742060448201526f61207472757374656420736f7572636560801b60648201526084016107ce565b60405162c5803160e81b81526001600160a01b037f0000000000000000000000000000000000000000000000000000000000000000169063c58031009084906120e1908b9086908c908c908c908c90600401612fc0565b6000604051808303818588803b1580156120fa57600080fd5b505af115801561210e573d6000803e3d6000fd5b505050505050505050505050565b505050565b61211c8282611e9b565b6001600160a01b03821661218b5760405162461bcd60e51b815260206004820152602160248201527f45524332303a206275726e2066726f6d20746865207a65726f206164647265736044820152607360f81b60648201526084016107ce565b6001600160a01b038216600090815260056020526040902054818110156121ff5760405162461bcd60e51b815260206004820152602260248201527f45524332303a206275726e20616d6f756e7420657863656564732062616c616e604482015261636560f01b60648201526084016107ce565b6001600160a01b03831660008181526005602090815260408083208686039055600780548790039055518581529192917fddf252ad1be2c89b69c2b068fc378daa952ba7f163c4a11628f55a4df523b3ef910160405180910390a3505050565b803561ffff8116811461227157600080fd5b919050565b60008083601f84011261228857600080fd5b5081356001600160401b0381111561229f57600080fd5b6020830191508360208285010111156122b757600080fd5b9250929050565b6001600160401b038116811461102357600080fd5b600080600080600080608087890312156122ec57600080fd5b6122f58761225f565b955060208701356001600160401b038082111561231157600080fd5b61231d8a838b01612276565b909750955060408901359150612332826122be565b9093506060880135908082111561234857600080fd5b5061235589828a01612276565b979a9699509497509295939492505050565b60006020828403121561237957600080fd5b81356001600160e01b03198116811461101257600080fd5b60005b838110156123ac578181015183820152602001612394565b50506000910152565b600081518084526123cd816020860160208601612391565b601f01601f19169290920160200192915050565b60208152600061101260208301846123b5565b60006020828403121561240657600080fd5b6110128261225f565b6001600160a01b038116811461102357600080fd5b80356122718161240f565b6000806040838503121561244257600080fd5b823561244d8161240f565b946020939093013593505050565b634e487b7160e01b600052604160045260246000fd5b604051601f8201601f191681016001600160401b03811182821017156124995761249961245b565b604052919050565b60006001600160401b038211156124ba576124ba61245b565b50601f01601f191660200190565b600082601f8301126124d957600080fd5b81356124ec6124e7826124a1565b612471565b81815284602083860101111561250157600080fd5b816020850160208301376000918101602001919091529392505050565b600080600080600080600080610100898b03121561253b57600080fd5b61254489612424565b975061255260208a0161225f565b965060408901356001600160401b038082111561256e57600080fd5b61257a8c838d016124c8565b975060608b0135965061258f60808c01612424565b955061259d60a08c01612424565b945060c08b01359150808211156125b357600080fd5b6125bf8c838d016124c8565b935060e08b01359150808211156125d557600080fd5b506125e28b828c016124c8565b9150509295985092959890939650565b60008060006060848603121561260757600080fd5b83356126128161240f565b925060208401356126228161240f565b929592945050506040919091013590565b60008060006040848603121561264857600080fd5b6126518461225f565b925060208401356001600160401b0381111561266c57600080fd5b61267886828701612276565b9497909650939450505050565b6000806000806080858703121561269b57600080fd5b6126a48561225f565b935060208501356001600160401b03808211156126c057600080fd5b6126cc888389016124c8565b9450604087013591506126de826122be565b909250606086013590808211156126f457600080fd5b50612701878288016124c8565b91505092959194509250565b60008060008060008060c0878903121561272657600080fd5b61272f8761225f565b955060208701356001600160401b038082111561274b57600080fd5b6127578a838b016124c8565b96506040890135955060608901359150811515821461277557600080fd5b9093506080880135908082111561278b57600080fd5b6127978a838b016124c8565b935060a08901359150808211156127ad57600080fd5b506127ba89828a016124c8565b9150509295509295509295565b6000602082840312156127d957600080fd5b81356110128161240f565b600080604083850312156127f757600080fd5b6128008361225f565b915061280e6020840161225f565b90509250929050565b60008060006060848603121561282c57600080fd5b6128358461225f565b925060208401356001600160401b0381111561285057600080fd5b61285c868287016124c8565b925050604084013590509250925092565b60006020828403121561287f57600080fd5b5035919050565b60008060008060006080868803121561289e57600080fd5b6128a78661225f565b94506128b56020870161225f565b93506040860135925060608601356001600160401b038111156128d757600080fd5b6128e388828901612276565b969995985093965092949392505050565b60008060008060006080868803121561290c57600080fd5b6129158661225f565b945060208601356001600160401b038082111561293157600080fd5b61293d89838a016124c8565b95506040880135915061294f826122be565b9093506060870135908082111561296557600080fd5b506128e388828901612276565b6000806040838503121561298557600080fd5b82356129908161240f565b915060208301356129a08161240f565b809150509250929050565b6000806000606084860312156129c057600080fd5b6129c98461225f565b92506129d76020850161225f565b9150604084013590509250925092565b600080600080608085870312156129fd57600080fd5b612a068561225f565b9350612a146020860161225f565b92506040850135612a248161240f565b9396929550929360600135925050565b600181811c90821680612a4857607f821691505b602082108103612a6857634e487b7160e01b600052602260045260246000fd5b50919050565b8183823760009101908152919050565b634e487b7160e01b600052601160045260246000fd5b808201808211156109c3576109c3612a7e565b81835281816020850137506000828201602090810191909152601f909101601f19169091010190565b61ffff84168152604060208201526000611624604083018486612aa7565b606081526000612b0160608301866123b5565b8460208401528281036040840152612b1981856123b5565b9695505050505050565b61ffff861681526001600160a01b038516602082015260a060408201819052600090612b51908301866123b5565b84151560608401528281036080840152612b6b81856123b5565b98975050505050505050565b60008060408385031215612b8a57600080fd5b505080516020909101519092909150565b818103818111156109c3576109c3612a7e565b8284823760609190911b6bffffffffffffffffffffffff19169101908152601401919050565b601f82111561211c57600081815260208120601f850160051c81016020861015612bfb5750805b601f850160051c820191505b81811015612c1a57828155600101612c07565b505050505050565b81516001600160401b03811115612c3b57612c3b61245b565b612c4f81612c498454612a34565b84612bd4565b602080601f831160018114612c845760008415612c6c5750858301515b600019600386901b1c1916600185901b178555612c1a565b600085815260208120601f198616915b82811015612cb357888601518255948401946001909101908401612c94565b5085821015612cd15787850151600019600388901b60f8161c191681555b5050505050600190811b01905550565b600061ffff808816835280871660208401525084604083015260806060830152612d0f608083018486612aa7565b979650505050505050565b60008251612d2c818460208701612391565b9190910192915050565b61ffff86168152608060208201526000612d5360808301876123b5565b6001600160401b03861660408401528281036060840152612b6b818587612aa7565b6001600160401b03831115612d8c57612d8c61245b565b612da083612d9a8354612a34565b83612bd4565b6000601f841160018114612dd45760008515612dbc5750838201355b600019600387901b1c1916600186901b178355610add565b600083815260209020601f19861690835b82811015612e055786850135825560209485019460019092019101612de5565b5086821015612e225760001960f88860031b161c19848701351681555b505060018560011b0183555050505050565b600082601f830112612e4557600080fd5b8151612e536124e7826124a1565b818152846020838601011115612e6857600080fd5b612e79826020830160208701612391565b949350505050565b600060208284031215612e9357600080fd5b81516001600160401b03811115612ea957600080fd5b612e7984828501612e34565b61ffff85168152608060208201526000612ed260808301866123b5565b6001600160401b03851660408401528281036060840152612d0f81856123b5565b600060208284031215612f0557600080fd5b8151611012816122be565b600080600060608486031215612f2557600080fd5b83516001600160401b0380821115612f3c57600080fd5b612f4887838801612e34565b9450602086015193506040860151915080821115612f6557600080fd5b50612f7286828701612e34565b9150509250925092565b61ffff8616815260a060208201526000612f9960a08301876123b5565b6001600160401b03861660408401528460608401528281036080840152612b6b81856123b5565b61ffff8716815260c060208201526000612fdd60c08301886123b5565b8281036040840152612fef81886123b5565b6001600160a01b0387811660608601528616608085015283810360a0850152905061301a81856123b5565b999850505050505050505056fea26469706673582212208e60f432e930394510443f97527f9bdc19d4618e3495b32d70e7a2fd2e79fc1f64736f6c63430008110033",
    "linkReferences": {}
  },
  "methodIdentifiers": {
    "allowance(address,address)": "dd62ed3e",
    "approve(address,uint256)": "095ea7b3",
    "balanceOf(address)": "70a08231",
    "circulatingSupply()": "9358928b",
    "decimals()": "313ce567",
    "decreaseAllowance(address,uint256)": "a457c2d7",
    "estimateSendFee(uint16,bytes,uint256,bool,bytes,bytes)": "6f770790",
    "failedMessages(uint16,bytes,uint256)": "8ee74912",
    "forceResumeReceive(uint16,bytes)": "42d65a8d",
    "getConfig(uint16,uint16,address,uint256)": "f5ecbdbc",
    "getTrustedRemoteAddress(uint16)": "9f38369a",
    "increaseAllowance(address,uint256)": "39509351",
    "isTrustedRemote(uint16,bytes)": "3d8b38f6",
    "lzEndpoint()": "b353aaa7",
    "lzReceive(uint16,bytes,uint64,bytes)": "001d3567",
    "minDstGasLookup(uint16,uint16)": "8cfd8f5c",
    "mint(uint256)": "a0712d68",
    "name()": "06fdde03",
    "nonblockingLzReceive(uint16,bytes,uint64,bytes)": "66ad5c8a",
    "owner()": "8da5cb5b",
    "precrime()": "950c8a74",
    "renounceOwnership()": "715018a6",
    "retryMessage(uint16,bytes,uint64,bytes)": "d1deba1f",
    "sendFrom(address,uint16,bytes,uint256,address,address,bytes,bytes)": "0e506192",
    "setConfig(uint16,uint16,uint256,bytes)": "cbed8b9c",
    "setMinDstGas(uint16,uint16,uint256)": "df2a5b3b",
    "setPrecrime(address)": "baf3292d",
    "setReceiveVersion(uint16)": "10ddb137",
    "setSendVersion(uint16)": "07e0db17",
    "setTrustedRemote(uint16,bytes)": "eb8d72b7",
    "setTrustedRemoteAddress(uint16,bytes)": "a6c3d165",
    "supportsInterface(bytes4)": "01ffc9a7",
    "symbol()": "95d89b41",
    "totalSupply()": "18160ddd",
    "transfer(address,uint256)": "a9059cbb",
    "transferFrom(address,address,uint256)": "23b872dd",
    "transferOwnership(address)": "f2fde38b",
    "trustedRemoteLookup(uint16)": "7533d788"
  },
  "id": 49
}