{
  "abi": [
    {
      "inputs": [
        {
          "internalType": "address",
          "name": "_factory",
          "type": "address"
        }
      ],
      "stateMutability": "nonpayable",
      "type": "constructor"
    },
    {
      "anonymous": false,
      "inputs": [
        {
          "indexed": true,
          "internalType": "address",
          "name": "previousOwner",
          "type": "address"
        },
        {
          "indexed": true,
          "internalType": "address",
          "name": "newOwner",
          "type": "address"
        }
      ],
      "name": "OwnershipTransferred",
      "type": "event"
    },
    {
      "inputs": [],
      "name": "DELTA_1",
      "outputs": [
        {
          "internalType": "uint256",
          "name": "",
          "type": "uint256"
        }
      ],
      "stateMutability": "view",
      "type": "function"
    },
    {
      "inputs": [],
      "name": "DELTA_2",
      "outputs": [
        {
          "internalType": "uint256",
          "name": "",
          "type": "uint256"
        }
      ],
      "stateMutability": "view",
      "type": "function"
    },
    {
      "inputs": [],
      "name": "DENOMINATOR",
      "outputs": [
        {
          "internalType": "uint256",
          "name": "",
          "type": "uint256"
        }
      ],
      "stateMutability": "view",
      "type": "function"
    },
    {
      "inputs": [],
      "name": "LAMBDA_1",
      "outputs": [
        {
          "internalType": "uint256",
          "name": "",
          "type": "uint256"
        }
      ],
      "stateMutability": "view",
      "type": "function"
    },
    {
      "inputs": [],
      "name": "LAMBDA_2",
      "outputs": [
        {
          "internalType": "uint256",
          "name": "",
          "type": "uint256"
        }
      ],
      "stateMutability": "view",
      "type": "function"
    },
    {
      "inputs": [],
      "name": "LP_FEE",
      "outputs": [
        {
          "internalType": "uint256",
          "name": "",
          "type": "uint256"
        }
      ],
      "stateMutability": "view",
      "type": "function"
    },
    {
      "inputs": [],
      "name": "PROTOCOL_FEE",
      "outputs": [
        {
          "internalType": "uint256",
          "name": "",
          "type": "uint256"
        }
      ],
      "stateMutability": "view",
      "type": "function"
    },
    {
      "inputs": [],
      "name": "PROTOCOL_SUBSIDY",
      "outputs": [
        {
          "internalType": "uint256",
          "name": "",
          "type": "uint256"
        }
      ],
      "stateMutability": "view",
      "type": "function"
    },
    {
      "inputs": [],
      "name": "factory",
      "outputs": [
        {
          "internalType": "contract Factory",
          "name": "",
          "type": "address"
        }
      ],
      "stateMutability": "view",
      "type": "function"
    },
    {
      "inputs": [
        {
          "internalType": "uint256",
          "name": "idealBalance",
          "type": "uint256"
        },
        {
          "internalType": "uint256",
          "name": "beforeBalance",
          "type": "uint256"
        },
        {
          "internalType": "uint256",
          "name": "amountSD",
          "type": "uint256"
        }
      ],
      "name": "getEquilibriumFee",
      "outputs": [
        {
          "internalType": "uint256",
          "name": "",
          "type": "uint256"
        },
        {
          "internalType": "uint256",
          "name": "",
          "type": "uint256"
        }
      ],
      "stateMutability": "pure",
      "type": "function"
    },
    {
      "inputs": [
        {
          "internalType": "uint256",
          "name": "_srcPoolId",
          "type": "uint256"
        },
        {
          "internalType": "uint256",
          "name": "_dstPoolId",
          "type": "uint256"
        },
        {
          "internalType": "uint16",
          "name": "_dstChainId",
          "type": "uint16"
        },
        {
          "internalType": "address",
          "name": "",
          "type": "address"
        },
        {
          "internalType": "uint256",
          "name": "_amountSD",
          "type": "uint256"
        }
      ],
      "name": "getFees",
      "outputs": [
        {
          "components": [
            {
              "internalType": "uint256",
              "name": "amount",
              "type": "uint256"
            },
            {
              "internalType": "uint256",
              "name": "eqFee",
              "type": "uint256"
            },
            {
              "internalType": "uint256",
              "name": "eqReward",
              "type": "uint256"
            },
            {
              "internalType": "uint256",
              "name": "lpFee",
              "type": "uint256"
            },
            {
              "internalType": "uint256",
              "name": "protocolFee",
              "type": "uint256"
            },
            {
              "internalType": "uint256",
              "name": "lkbRemove",
              "type": "uint256"
            }
          ],
          "internalType": "struct Pool.SwapObj",
          "name": "s",
          "type": "tuple"
        }
      ],
      "stateMutability": "view",
      "type": "function"
    },
    {
      "inputs": [
        {
          "internalType": "uint256",
          "name": "lambda",
          "type": "uint256"
        },
        {
          "internalType": "uint256",
          "name": "yOffset",
          "type": "uint256"
        },
        {
          "internalType": "uint256",
          "name": "xUpperBound",
          "type": "uint256"
        },
        {
          "internalType": "uint256",
          "name": "xLowerBound",
          "type": "uint256"
        },
        {
          "internalType": "uint256",
          "name": "xStart",
          "type": "uint256"
        },
        {
          "internalType": "uint256",
          "name": "xEnd",
          "type": "uint256"
        }
      ],
      "name": "getTrapezoidArea",
      "outputs": [
        {
          "internalType": "uint256",
          "name": "",
          "type": "uint256"
        }
      ],
      "stateMutability": "pure",
      "type": "function"
    },
    {
      "inputs": [],
      "name": "getVersion",
      "outputs": [
        {
          "internalType": "string",
          "name": "",
          "type": "string"
        }
      ],
      "stateMutability": "pure",
      "type": "function"
    },
    {
      "inputs": [],
      "name": "owner",
      "outputs": [
        {
          "internalType": "address",
          "name": "",
          "type": "address"
        }
      ],
      "stateMutability": "view",
      "type": "function"
    },
    {
      "inputs": [],
      "name": "renounceOwnership",
      "outputs": [],
      "stateMutability": "nonpayable",
      "type": "function"
    },
    {
      "inputs": [
        {
          "internalType": "address",
          "name": "newOwner",
          "type": "address"
        }
      ],
      "name": "transferOwnership",
      "outputs": [],
      "stateMutability": "nonpayable",
      "type": "function"
    }
  ],
  "bytecode": {
    "object": "0x60a060405234801561001057600080fd5b50604051610f52380380610f5283398101604081905261002f91610101565b610038336100b1565b600180556001600160a01b0381166100a05760405162461bcd60e51b815260206004820152602160248201527f4665654c6962726172793a20466163746f72792063616e6e6f742062652030786044820152600360fc1b606482015260840160405180910390fd5b6001600160a01b0316608052610131565b600080546001600160a01b038381166001600160a01b0319831681178455604051919092169283917f8be0079c531659141344cd1fd0a4f28419497f9722a3daafe3b4186f6b6457e09190a35050565b60006020828403121561011357600080fd5b81516001600160a01b038116811461012a57600080fd5b9392505050565b608051610dff6101536000396000818161027e015261032c0152610dff6000f3fe608060405234801561001057600080fd5b50600436106101005760003560e01c806360d86e7711610097578063918f867411610066578063918f86741461025c578063a810de6c1461026b578063c45a015514610279578063f2fde38b146102a057600080fd5b806360d86e771461020d578063715018a6146102205780637ba5c12f1461022a5780638da5cb5b1461023757600080fd5b806334b6a602116100d357806334b6a602146101ba5780633dad0dd5146101e2578063518a9f9f146101f15780635e3f2727146101ff57600080fd5b8063012a1c2d146101055780630b4501fd146101275780630d8e6e2c146101345780631ab624301461015b575b600080fd5b610114670dd280b9144a000081565b6040519081526020015b60405180910390f35b61011465886c98b7600081565b60408051808201825260058152640322e302e360dc1b6020820152905161011e9190610afa565b61016e610169366004610b6d565b6102b3565b60405161011e9190600060c082019050825182526020830151602083015260408301516040830152606083015160608301526080830151608083015260a083015160a083015292915050565b6101cd6101c8366004610bbf565b6106c7565b6040805192835260208301919091520161011e565b610114670853a0d2313c000081565b61011466b1a2bc2ec5000081565b61011466019945ca26200081565b61011461021b366004610beb565b6106e1565b6102286106fc565b005b610114651b48eb57e00081565b6000546001600160a01b03165b6040516001600160a01b03909116815260200161011e565b610114670de0b6b3a764000081565b610114660e35fa931a000081565b6102447f000000000000000000000000000000000000000000000000000000000000000081565b6102286102ae366004610c2e565b610710565b6102ec6040518060c001604052806000815260200160008152602001600081526020016000815260200160008152602001600081525090565b61030e670de0b6b3a76400006103088465886c98b7600061078e565b906107a3565b608082015260405163068bcd8d60e01b8152600481018790526000907f00000000000000000000000000000000000000000000000000000000000000006001600160a01b03169063068bcd8d90602401602060405180830381865afa15801561037b573d6000803e3d6000fd5b505050506040513d601f19601f8201168201806040525081019061039f9190610c52565b60405163159f6add60e01b815261ffff87166004820152602481018890529091506000906001600160a01b0383169063159f6add9060440161010060405180830381865afa1580156103f5573d6000803e3d6000fd5b505050506040513d601f19601f820116820180604052508101906104199190610c8f565b90506000806104318360e001518460800151886107af565b602087018290526080870151919350915061044c9082610952565b8560800181815250506000846001600160a01b031663fc0c546a6040518163ffffffff1660e01b8152600401602060405180830381865afa158015610495573d6000803e3d6000fd5b505050506040513d601f19601f820116820180604052508101906104b99190610c52565b9050600061058c866001600160a01b031663feb56b156040518163ffffffff1660e01b8152600401602060405180830381865afa1580156104fe573d6000803e3d6000fd5b505050506040513d601f19601f820116820180604052508101906105229190610d3b565b6040516370a0823160e01b81526001600160a01b0389811660048301528516906370a0823190602401602060405180830381865afa158015610568573d6000803e3d6000fd5b505050506040513d601f19601f820116820180604052508101906103089190610d3b565b90506000866001600160a01b03166315770f926040518163ffffffff1660e01b8152600401602060405180830381865afa1580156105ce573d6000803e3d6000fd5b505050506040513d601f19601f820116820180604052508101906105f29190610d3b565b9050818111156106955760006106088284610952565b90506000886001600160a01b0316639bb811196040518163ffffffff1660e01b8152600401602060405180830381865afa15801561064a573d6000803e3d6000fd5b505050506040513d601f19601f8201168201806040525081019061066e9190610d3b565b9050600061068083610308848f61078e565b90508181111561068d5750805b60408b015250505b6106b2670de0b6b3a76400006103088b66019945ca26200061078e565b60608901525050505050505095945050505050565b6000806106d58585856107af565b91509150935093915050565b60006106f187878787878761095e565b979650505050505050565b610704610a44565b61070e6000610a9e565b565b610718610a44565b6001600160a01b0381166107825760405162461bcd60e51b815260206004820152602660248201527f4f776e61626c653a206e6577206f776e657220697320746865207a65726f206160448201526564647265737360d01b60648201526084015b60405180910390fd5b61078b81610a9e565b50565b600061079a8284610d6a565b90505b92915050565b600061079a8284610d81565b600080828410156108025760405162461bcd60e51b815260206004820152601c60248201527f53746172676174653a206e6f7420656e6f7567682062616c616e6365000000006044820152606401610779565b600061080e8585610952565b90506000610830670de0b6b3a764000061030889670853a0d2313c000061078e565b90506000610851670de0b6b3a76400006103088a66b1a2bc2ec5000061078e565b905060008083851061088357610879670de0b6b3a76400006103088a651b48eb57e00061078e565b9150819050610943565b8285106108bb576000848a10610899578461089b565b895b90506108b3660e35fa931a000060008787858b61095e565b925050610943565b828910610918576000848a106108d157846108d3565b895b90506108f56108ee660e35fa931a000060008888868a61095e565b8490610aee565b92506108b36108ee670dd280b9144a0000660e35fa931a0000876000898c61095e565b610940610939670dd280b9144a0000660e35fa931a00008660008e8b61095e565b8390610aee565b91505b90999098509650505050505050565b600061079a8284610da3565b60008382101580156109705750848311155b6109bc5760405162461bcd60e51b815260206004820152601e60248201527f53746172676174653a2062616c616e6365206f7574206f6620626f756e6400006044820152606401610779565b60006109c88686610952565b905060006109ee886109e8846103088d6109e28d8c610952565b9061078e565b90610aee565b90506000610a08896109e8856103088e6109e28e8c610952565b90506000610a168787610952565b9050610a35670de0b6b3a7640000610308600281856109e28989610aee565b9b9a5050505050505050505050565b6000546001600160a01b0316331461070e5760405162461bcd60e51b815260206004820181905260248201527f4f776e61626c653a2063616c6c6572206973206e6f7420746865206f776e65726044820152606401610779565b600080546001600160a01b038381166001600160a01b0319831681178455604051919092169283917f8be0079c531659141344cd1fd0a4f28419497f9722a3daafe3b4186f6b6457e09190a35050565b600061079a8284610db6565b600060208083528351808285015260005b81811015610b2757858101830151858201604001528201610b0b565b506000604082860101526040601f19601f8301168501019250505092915050565b61ffff8116811461078b57600080fd5b6001600160a01b038116811461078b57600080fd5b600080600080600060a08688031215610b8557600080fd5b85359450602086013593506040860135610b9e81610b48565b92506060860135610bae81610b58565b949793965091946080013592915050565b600080600060608486031215610bd457600080fd5b505081359360208301359350604090920135919050565b60008060008060008060c08789031215610c0457600080fd5b505084359660208601359650604086013595606081013595506080810135945060a0013592509050565b600060208284031215610c4057600080fd5b8135610c4b81610b58565b9392505050565b600060208284031215610c6457600080fd5b8151610c4b81610b58565b80518015158114610c7f57600080fd5b919050565b8051610c7f81610b48565b6000610100808385031215610ca357600080fd5b6040519081019067ffffffffffffffff82118183101715610cd457634e487b7160e01b600052604160045260246000fd5b81604052610ce184610c6f565b8152610cef60208501610c84565b602082015260408401516040820152606084015160608201526080840151608082015260a084015160a082015260c084015160c082015260e084015160e0820152809250505092915050565b600060208284031215610d4d57600080fd5b5051919050565b634e487b7160e01b600052601160045260246000fd5b808202811582820484141761079d5761079d610d54565b600082610d9e57634e487b7160e01b600052601260045260246000fd5b500490565b8181038181111561079d5761079d610d54565b8082018082111561079d5761079d610d5456fea26469706673582212202e60bab93eb0dd6a612df1301500d8f9a335fa096160531cdddec23467fc113664736f6c63430008110033",
    "linkReferences": {}
  },
  "methodIdentifiers": {
    "DELTA_1()": "3dad0dd5",
    "DELTA_2()": "518a9f9f",
    "DENOMINATOR()": "918f8674",
    "LAMBDA_1()": "a810de6c",
    "LAMBDA_2()": "012a1c2d",
    "LP_FEE()": "5e3f2727",
    "PROTOCOL_FEE()": "0b4501fd",
    "PROTOCOL_SUBSIDY()": "7ba5c12f",
    "factory()": "c45a0155",
    "getEquilibriumFee(uint256,uint256,uint256)": "34b6a602",
    "getFees(uint256,uint256,uint16,address,uint256)": "1ab62430",
    "getTrapezoidArea(uint256,uint256,uint256,uint256,uint256,uint256)": "60d86e77",
    "getVersion()": "0d8e6e2c",
    "owner()": "8da5cb5b",
    "renounceOwnership()": "715018a6",
    "transferOwnership(address)": "f2fde38b"
  },
  "id": 67
}