{
  "abi": [
    {
      "inputs": [
        {
          "internalType": "address",
          "name": "_factory",
          "type": "address"
        }
      ],
      "stateMutability": "nonpayable",
      "type": "constructor"
    },
    {
      "anonymous": false,
      "inputs": [
        {
          "indexed": true,
          "internalType": "address",
          "name": "previousOwner",
          "type": "address"
        },
        {
          "indexed": true,
          "internalType": "address",
          "name": "newOwner",
          "type": "address"
        }
      ],
      "name": "OwnershipTransferred",
      "type": "event"
    },
    {
      "inputs": [],
      "name": "DELTA_1",
      "outputs": [
        {
          "internalType": "uint256",
          "name": "",
          "type": "uint256"
        }
      ],
      "stateMutability": "view",
      "type": "function"
    },
    {
      "inputs": [],
      "name": "DELTA_2",
      "outputs": [
        {
          "internalType": "uint256",
          "name": "",
          "type": "uint256"
        }
      ],
      "stateMutability": "view",
      "type": "function"
    },
    {
      "inputs": [],
      "name": "DENOMINATOR",
      "outputs": [
        {
          "internalType": "uint256",
          "name": "",
          "type": "uint256"
        }
      ],
      "stateMutability": "view",
      "type": "function"
    },
    {
      "inputs": [],
      "name": "LAMBDA_1",
      "outputs": [
        {
          "internalType": "uint256",
          "name": "",
          "type": "uint256"
        }
      ],
      "stateMutability": "view",
      "type": "function"
    },
    {
      "inputs": [],
      "name": "LAMBDA_2",
      "outputs": [
        {
          "internalType": "uint256",
          "name": "",
          "type": "uint256"
        }
      ],
      "stateMutability": "view",
      "type": "function"
    },
    {
      "inputs": [],
      "name": "LP_FEE",
      "outputs": [
        {
          "internalType": "uint256",
          "name": "",
          "type": "uint256"
        }
      ],
      "stateMutability": "view",
      "type": "function"
    },
    {
      "inputs": [],
      "name": "PROTOCOL_FEE",
      "outputs": [
        {
          "internalType": "uint256",
          "name": "",
          "type": "uint256"
        }
      ],
      "stateMutability": "view",
      "type": "function"
    },
    {
      "inputs": [],
      "name": "PROTOCOL_SUBSIDY",
      "outputs": [
        {
          "internalType": "uint256",
          "name": "",
          "type": "uint256"
        }
      ],
      "stateMutability": "view",
      "type": "function"
    },
    {
      "inputs": [],
      "name": "factory",
      "outputs": [
        {
          "internalType": "contract Factory",
          "name": "",
          "type": "address"
        }
      ],
      "stateMutability": "view",
      "type": "function"
    },
    {
      "inputs": [
        {
          "internalType": "uint256",
          "name": "idealBalance",
          "type": "uint256"
        },
        {
          "internalType": "uint256",
          "name": "beforeBalance",
          "type": "uint256"
        },
        {
          "internalType": "uint256",
          "name": "amountSD",
          "type": "uint256"
        }
      ],
      "name": "getEquilibriumFee",
      "outputs": [
        {
          "internalType": "uint256",
          "name": "",
          "type": "uint256"
        },
        {
          "internalType": "uint256",
          "name": "",
          "type": "uint256"
        }
      ],
      "stateMutability": "pure",
      "type": "function"
    },
    {
      "inputs": [
        {
          "internalType": "uint256",
          "name": "_srcPoolId",
          "type": "uint256"
        },
        {
          "internalType": "uint256",
          "name": "_dstPoolId",
          "type": "uint256"
        },
        {
          "internalType": "uint16",
          "name": "_dstChainId",
          "type": "uint16"
        },
        {
          "internalType": "address",
          "name": "",
          "type": "address"
        },
        {
          "internalType": "uint256",
          "name": "_amountSD",
          "type": "uint256"
        }
      ],
      "name": "getFees",
      "outputs": [
        {
          "components": [
            {
              "internalType": "uint256",
              "name": "amount",
              "type": "uint256"
            },
            {
              "internalType": "uint256",
              "name": "eqFee",
              "type": "uint256"
            },
            {
              "internalType": "uint256",
              "name": "eqReward",
              "type": "uint256"
            },
            {
              "internalType": "uint256",
              "name": "lpFee",
              "type": "uint256"
            },
            {
              "internalType": "uint256",
              "name": "protocolFee",
              "type": "uint256"
            },
            {
              "internalType": "uint256",
              "name": "lkbRemove",
              "type": "uint256"
            }
          ],
          "internalType": "struct Pool.SwapObj",
          "name": "s",
          "type": "tuple"
        }
      ],
      "stateMutability": "view",
      "type": "function"
    },
    {
      "inputs": [
        {
          "internalType": "uint256",
          "name": "lambda",
          "type": "uint256"
        },
        {
          "internalType": "uint256",
          "name": "yOffset",
          "type": "uint256"
        },
        {
          "internalType": "uint256",
          "name": "xUpperBound",
          "type": "uint256"
        },
        {
          "internalType": "uint256",
          "name": "xLowerBound",
          "type": "uint256"
        },
        {
          "internalType": "uint256",
          "name": "xStart",
          "type": "uint256"
        },
        {
          "internalType": "uint256",
          "name": "xEnd",
          "type": "uint256"
        }
      ],
      "name": "getTrapezoidArea",
      "outputs": [
        {
          "internalType": "uint256",
          "name": "",
          "type": "uint256"
        }
      ],
      "stateMutability": "pure",
      "type": "function"
    },
    {
      "inputs": [],
      "name": "getVersion",
      "outputs": [
        {
          "internalType": "string",
          "name": "",
          "type": "string"
        }
      ],
      "stateMutability": "pure",
      "type": "function"
    },
    {
      "inputs": [],
      "name": "owner",
      "outputs": [
        {
          "internalType": "address",
          "name": "",
          "type": "address"
        }
      ],
      "stateMutability": "view",
      "type": "function"
    },
    {
      "inputs": [],
      "name": "renounceOwnership",
      "outputs": [],
      "stateMutability": "nonpayable",
      "type": "function"
    },
    {
      "inputs": [
        {
          "internalType": "address",
          "name": "newOwner",
          "type": "address"
        }
      ],
      "name": "transferOwnership",
      "outputs": [],
      "stateMutability": "nonpayable",
      "type": "function"
    }
  ],
  "bytecode": {
    "object": "0x60a03461010957601f610f2038819003918201601f19168301916001600160401b0383118484101761010e5780849260209460405283398101031261010957516001600160a01b0380821691829003610109576000543360018060a01b0319821617600055604051913391167f8be0079c531659141344cd1fd0a4f28419497f9722a3daafe3b4186f6b6457e0600080a36001805581156100bd5750608052604051610dfb908161012582396080518181816101b4015261051d0152f35b62461bcd60e51b815260206004820152602160248201527f4665654c6962726172793a20466163746f72792063616e6e6f742062652030786044820152600360fc1b6064820152608490fd5b600080fd5b634e487b7160e01b600052604160045260246000fdfe608080604052600436101561001357600080fd5b60003560e01c908163012a1c2d14610a81575080630b4501fd14610a605780630d8e6e2c146109ce5780631ab624301461045c57806334b6a6021461042c5780633dad0dd514610409578063518a9f9f146103e75780635e3f2727146103c557806360d86e77146102cf578063715018a6146102725780637ba5c12f146102515780638da5cb5b14610228578063918f867414610205578063a810de6c146101e3578063c45a01551461019e5763f2fde38b146100cf57600080fd5b34610199576020366003190112610199576004356001600160a01b03818116918290036101995760005490811690610108338314610d2d565b8215610145576001600160a01b031916821760009081557f8be0079c531659141344cd1fd0a4f28419497f9722a3daafe3b4186f6b6457e09080a3005b60405162461bcd60e51b815260206004820152602660248201527f4f776e61626c653a206e6577206f776e657220697320746865207a65726f206160448201526564647265737360d01b6064820152608490fd5b600080fd5b34610199576000366003190112610199576040517f00000000000000000000000000000000000000000000000000000000000000006001600160a01b03168152602090f35b34610199576000366003190112610199576020604051660e35fa931a00008152f35b34610199576000366003190112610199576020604051670de0b6b3a76400008152f35b34610199576000366003190112610199576000546040516001600160a01b039091168152602090f35b34610199576000366003190112610199576020604051651b48eb57e0008152f35b3461019957600036600319011261019957600080546001600160a01b0381169061029d338314610d2d565b6001600160a01b03191682557f8be0079c531659141344cd1fd0a4f28419497f9722a3daafe3b4186f6b6457e08280a3005b346101995760c03660031901126101995760643560a43560043560443560243560843585851015806103bb575b15610376576103648561035e846103538561034e8a610349670de0b6b3a76400009d60209f6103499c61036a9f8f61034e610353926103496103416103589785610d85565b9b8c94610d85565b610d92565b610da5565b610d78565b9c610d85565b92610d85565b92610d78565b60011c04604051908152f35b60405162461bcd60e51b815260206004820152601e60248201527f53746172676174653a2062616c616e6365206f7574206f6620626f756e6400006044820152606490fd5b50828111156102fc565b3461019957600036600319011261019957602060405166019945ca2620008152f35b3461019957600036600319011261019957602060405166b1a2bc2ec500008152f35b34610199576000366003190112610199576020604051670853a0d2313c00008152f35b34610199576060366003190112610199576040610450604435602435600435610ac4565b82519182526020820152f35b346101995760a03660031901126101995760443561ffff81168103610199576064356001600160a01b03811603610199576040519060c0820182811067ffffffffffffffff82111761096c576040526000825260006020830152600060408301526000606083015260006080830152600060a083015265886c98b7600080608435029060843582041460843515171561071657670de0b6b3a76400009004608083015260405163068bcd8d60e01b81526004803590820152906020826024817f00000000000000000000000000000000000000000000000000000000000000006001600160a01b03165afa9182156107cf5760009261098a575b5060405163159f6add60e01b815261ffff9190911660048201526024803590820152610100816044816001600160a01b0386165afa9081156107cf576000916108ba575b506105b58160e06105c5930151608060843592015190610ac4565b9060208501526080840151610d85565b6080830152604051637e062a3560e11b81526020816004816001600160a01b0386165afa9081156107cf57600091610877575b506040516370a0823160e01b81526001600160a01b038381166004830152909160209183916024918391165afa9081156107cf57600091610845575b5060405163feb56b1560e01b8152906020826004816001600160a01b0387165afa9081156107cf5760009161080f575b61066e9250610da5565b604051630abb87c960e11b815291906020836004816001600160a01b0386165afa9283156107cf576000936107db575b5080831161072c575b50505066019945ca2620009081608435029160843583041460843515171561071657670de0b6b3a764000060c09204606082015260a0604051918051835260208101516020840152604081015160408401526060810151606084015260808101516080840152015160a0820152f35b634e487b7160e01b600052601160045260246000fd5b61073a602091600494610d85565b604051639bb8111960e01b815293909284919082906001600160a01b03165afa9182156107cf57600092610799575b5061077a9061034e60843584610d92565b90808211610791575b5060408201528180806106a7565b905082610783565b9091506020813d6020116107c7575b816107b560209383610aa2565b8101031261019957519061077a610769565b3d91506107a8565b6040513d6000823e3d90fd5b9092506020813d602011610807575b816107f760209383610aa2565b810103126101995751918461069e565b3d91506107ea565b90506020823d60201161083d575b8161082a60209383610aa2565b810103126101995761066e915190610664565b3d915061081d565b90506020813d60201161086f575b8161086060209383610aa2565b81010312610199575183610634565b3d9150610853565b90506020813d6020116108b2575b8161089260209383610aa2565b8101031261019957516001600160a01b03811681036101995760206105f8565b3d9150610885565b9050610100813d61010011610982575b816108d86101009383610aa2565b810103126101995760405190610100820182811067ffffffffffffffff82111761096c576040528051801515810361019957825260208101519161ffff831683036101995760e06105b5926105c594602084015260408101516040840152606081015160608401526080810151608084015260a081015160a084015260c081015160c0840152015160e0820152915061059a565b634e487b7160e01b600052604160045260246000fd5b3d91506108ca565b9091506020813d6020116109c6575b816109a660209383610aa2565b8101031261019957516001600160a01b0381168103610199579083610556565b3d9150610999565b34610199576000366003190112610199576040516040810181811067ffffffffffffffff82111761096c5760405260058152602090640322e302e360dc1b82820152604051828193825282519081818401526000935b828510610a47575050604092506000838284010152601f80199101168101030190f35b8481018201518686016040015293810193859350610a24565b3461019957600036600319011261019957602060405165886c98b760008152f35b346101995760003660031901126101995780670dd280b9144a000060209252f35b90601f8019910116810190811067ffffffffffffffff82111761096c57604052565b9190818110610bc057610ad78282610d85565b670853a0d2313c000090818502948015928187041483171561071657670de0b6b3a76400008096049266b1a2bc2ec500008083029283041417156107165760009390869004929084828410610b4c57505050505050651b48eb57e00090818102918183041490151715610716570490815b9190565b91939550919396955084841015600014610b7b5750610b48939082811015610b745791610c9f565b5081610c9f565b9190848110610bb457610ba792610ba786809694610b4898610bad95828110600014610b745791610c9f565b90610d78565b9280610c05565b915050610b4892610c05565b60405162461bcd60e51b815260206004820152601c60248201527f53746172676174653a206e6f7420656e6f7567682062616c616e6365000000006044820152606490fd5b9182821161037657610c178284610d85565b90670dd280b9144a000091828102908082048414901517156107165784610c3d91610da5565b91660e35fa931a00009485840180941161071657610c5b8382610d85565b82810292818404149015171561071657610c7491610da5565b93840180941161071657670de0b6b3a76400009361036461034992610c9895610d85565b60011c0490565b909291928083101580610d23575b1561037657610cbc9082610d85565b92610cc78183610d85565b90660e35fa931a000091828102908082048414901517156107165784610cf087610cf693610da5565b94610d85565b82810292818404149015171561071657610364610c989461035e670de0b6b3a76400009761034995610da5565b5081841115610cad565b15610d3457565b606460405162461bcd60e51b815260206004820152602060248201527f4f776e61626c653a2063616c6c6572206973206e6f7420746865206f776e65726044820152fd5b9190820180921161071657565b9190820391821161071657565b8181029291811591840414171561071657565b8115610daf570490565b634e487b7160e01b600052601260045260246000fdfea264697066735822122054d3503583af005552ded51bdc2e3e694639267b9605c1d3d34cc6df17f00ab464736f6c63430008110033",
    "linkReferences": {}
  },
  "methodIdentifiers": {
    "DELTA_1()": "3dad0dd5",
    "DELTA_2()": "518a9f9f",
    "DENOMINATOR()": "918f8674",
    "LAMBDA_1()": "a810de6c",
    "LAMBDA_2()": "012a1c2d",
    "LP_FEE()": "5e3f2727",
    "PROTOCOL_FEE()": "0b4501fd",
    "PROTOCOL_SUBSIDY()": "7ba5c12f",
    "factory()": "c45a0155",
    "getEquilibriumFee(uint256,uint256,uint256)": "34b6a602",
    "getFees(uint256,uint256,uint16,address,uint256)": "1ab62430",
    "getTrapezoidArea(uint256,uint256,uint256,uint256,uint256,uint256)": "60d86e77",
    "getVersion()": "0d8e6e2c",
    "owner()": "8da5cb5b",
    "renounceOwnership()": "715018a6",
    "transferOwnership(address)": "f2fde38b"
  },
  "id": 146
}