{
  "_format": "hh-sol-artifact-1",
  "contractName": "Gh0stlyGh0sts",
  "sourceName": "contracts/gg-eth.sol",
  "abi": [
    {
      "inputs": [
        {
          "internalType": "string",
          "name": "baseURI_",
          "type": "string"
        },
        {
          "internalType": "address",
          "name": "_layerZeroEndpoint",
          "type": "address"
        }
      ],
      "stateMutability": "nonpayable",
      "type": "constructor"
    },
    {
      "anonymous": false,
      "inputs": [
        {
          "indexed": true,
          "internalType": "address",
          "name": "owner",
          "type": "address"
        },
        {
          "indexed": true,
          "internalType": "address",
          "name": "approved",
          "type": "address"
        },
        {
          "indexed": true,
          "internalType": "uint256",
          "name": "tokenId",
          "type": "uint256"
        }
      ],
      "name": "Approval",
      "type": "event"
    },
    {
      "anonymous": false,
      "inputs": [
        {
          "indexed": true,
          "internalType": "address",
          "name": "owner",
          "type": "address"
        },
        {
          "indexed": true,
          "internalType": "address",
          "name": "operator",
          "type": "address"
        },
        {
          "indexed": false,
          "internalType": "bool",
          "name": "approved",
          "type": "bool"
        }
      ],
      "name": "ApprovalForAll",
      "type": "event"
    },
    {
      "anonymous": false,
      "inputs": [
        {
          "indexed": false,
          "internalType": "uint16",
          "name": "_srcChainId",
          "type": "uint16"
        },
        {
          "indexed": false,
          "internalType": "bytes",
          "name": "_srcAddress",
          "type": "bytes"
        },
        {
          "indexed": false,
          "internalType": "uint64",
          "name": "_nonce",
          "type": "uint64"
        },
        {
          "indexed": false,
          "internalType": "bytes",
          "name": "_payload",
          "type": "bytes"
        }
      ],
      "name": "MessageFailed",
      "type": "event"
    },
    {
      "anonymous": false,
      "inputs": [
        {
          "indexed": true,
          "internalType": "address",
          "name": "previousOwner",
          "type": "address"
        },
        {
          "indexed": true,
          "internalType": "address",
          "name": "newOwner",
          "type": "address"
        }
      ],
      "name": "OwnershipTransferred",
      "type": "event"
    },
    {
      "anonymous": false,
      "inputs": [
        {
          "indexed": true,
          "internalType": "address",
          "name": "from",
          "type": "address"
        },
        {
          "indexed": true,
          "internalType": "address",
          "name": "to",
          "type": "address"
        },
        {
          "indexed": true,
          "internalType": "uint256",
          "name": "tokenId",
          "type": "uint256"
        }
      ],
      "name": "Transfer",
      "type": "event"
    },
    {
      "inputs": [],
      "name": "_owner",
      "outputs": [
        {
          "internalType": "address",
          "name": "",
          "type": "address"
        }
      ],
      "stateMutability": "view",
      "type": "function"
    },
    {
      "inputs": [
        {
          "internalType": "address",
          "name": "to",
          "type": "address"
        },
        {
          "internalType": "uint256",
          "name": "tokenId",
          "type": "uint256"
        }
      ],
      "name": "approve",
      "outputs": [],
      "stateMutability": "nonpayable",
      "type": "function"
    },
    {
      "inputs": [
        {
          "internalType": "address",
          "name": "owner",
          "type": "address"
        }
      ],
      "name": "balanceOf",
      "outputs": [
        {
          "internalType": "uint256",
          "name": "",
          "type": "uint256"
        }
      ],
      "stateMutability": "view",
      "type": "function"
    },
    {
      "inputs": [],
      "name": "donate",
      "outputs": [],
      "stateMutability": "payable",
      "type": "function"
    },
    {
      "inputs": [
        {
          "internalType": "uint16",
          "name": "",
          "type": "uint16"
        },
        {
          "internalType": "bytes",
          "name": "",
          "type": "bytes"
        },
        {
          "internalType": "uint256",
          "name": "",
          "type": "uint256"
        }
      ],
      "name": "failedMessages",
      "outputs": [
        {
          "internalType": "uint256",
          "name": "payloadLength",
          "type": "uint256"
        },
        {
          "internalType": "bytes32",
          "name": "payloadHash",
          "type": "bytes32"
        }
      ],
      "stateMutability": "view",
      "type": "function"
    },
    {
      "inputs": [
        {
          "internalType": "uint256",
          "name": "tokenId",
          "type": "uint256"
        }
      ],
      "name": "getApproved",
      "outputs": [
        {
          "internalType": "address",
          "name": "",
          "type": "address"
        }
      ],
      "stateMutability": "view",
      "type": "function"
    },
    {
      "inputs": [
        {
          "internalType": "address",
          "name": "owner",
          "type": "address"
        },
        {
          "internalType": "address",
          "name": "operator",
          "type": "address"
        }
      ],
      "name": "isApprovedForAll",
      "outputs": [
        {
          "internalType": "bool",
          "name": "",
          "type": "bool"
        }
      ],
      "stateMutability": "view",
      "type": "function"
    },
    {
      "inputs": [
        {
          "internalType": "uint16",
          "name": "_srcChainId",
          "type": "uint16"
        },
        {
          "internalType": "bytes",
          "name": "_srcAddress",
          "type": "bytes"
        },
        {
          "internalType": "uint64",
          "name": "_nonce",
          "type": "uint64"
        },
        {
          "internalType": "bytes",
          "name": "_payload",
          "type": "bytes"
        }
      ],
      "name": "lzReceive",
      "outputs": [],
      "stateMutability": "nonpayable",
      "type": "function"
    },
    {
      "inputs": [
        {
          "internalType": "uint8",
          "name": "numTokens",
          "type": "uint8"
        }
      ],
      "name": "mint",
      "outputs": [],
      "stateMutability": "payable",
      "type": "function"
    },
    {
      "inputs": [],
      "name": "name",
      "outputs": [
        {
          "internalType": "string",
          "name": "",
          "type": "string"
        }
      ],
      "stateMutability": "view",
      "type": "function"
    },
    {
      "inputs": [
        {
          "internalType": "uint16",
          "name": "_srcChainId",
          "type": "uint16"
        },
        {
          "internalType": "bytes",
          "name": "_srcAddress",
          "type": "bytes"
        },
        {
          "internalType": "uint64",
          "name": "_nonce",
          "type": "uint64"
        },
        {
          "internalType": "bytes",
          "name": "_payload",
          "type": "bytes"
        }
      ],
      "name": "onLzReceive",
      "outputs": [],
      "stateMutability": "nonpayable",
      "type": "function"
    },
    {
      "inputs": [],
      "name": "owner",
      "outputs": [
        {
          "internalType": "address",
          "name": "",
          "type": "address"
        }
      ],
      "stateMutability": "view",
      "type": "function"
    },
    {
      "inputs": [
        {
          "internalType": "uint256",
          "name": "tokenId",
          "type": "uint256"
        }
      ],
      "name": "ownerOf",
      "outputs": [
        {
          "internalType": "address",
          "name": "",
          "type": "address"
        }
      ],
      "stateMutability": "view",
      "type": "function"
    },
    {
      "inputs": [],
      "name": "renounceOwnership",
      "outputs": [],
      "stateMutability": "nonpayable",
      "type": "function"
    },
    {
      "inputs": [
        {
          "internalType": "uint16",
          "name": "_srcChainId",
          "type": "uint16"
        },
        {
          "internalType": "bytes",
          "name": "_srcAddress",
          "type": "bytes"
        },
        {
          "internalType": "uint64",
          "name": "_nonce",
          "type": "uint64"
        },
        {
          "internalType": "bytes",
          "name": "_payload",
          "type": "bytes"
        }
      ],
      "name": "retryMessage",
      "outputs": [],
      "stateMutability": "payable",
      "type": "function"
    },
    {
      "inputs": [
        {
          "internalType": "address",
          "name": "from",
          "type": "address"
        },
        {
          "internalType": "address",
          "name": "to",
          "type": "address"
        },
        {
          "internalType": "uint256",
          "name": "tokenId",
          "type": "uint256"
        }
      ],
      "name": "safeTransferFrom",
      "outputs": [],
      "stateMutability": "nonpayable",
      "type": "function"
    },
    {
      "inputs": [
        {
          "internalType": "address",
          "name": "from",
          "type": "address"
        },
        {
          "internalType": "address",
          "name": "to",
          "type": "address"
        },
        {
          "internalType": "uint256",
          "name": "tokenId",
          "type": "uint256"
        },
        {
          "internalType": "bytes",
          "name": "_data",
          "type": "bytes"
        }
      ],
      "name": "safeTransferFrom",
      "outputs": [],
      "stateMutability": "nonpayable",
      "type": "function"
    },
    {
      "inputs": [
        {
          "internalType": "address",
          "name": "operator",
          "type": "address"
        },
        {
          "internalType": "bool",
          "name": "approved",
          "type": "bool"
        }
      ],
      "name": "setApprovalForAll",
      "outputs": [],
      "stateMutability": "nonpayable",
      "type": "function"
    },
    {
      "inputs": [
        {
          "internalType": "string",
          "name": "URI",
          "type": "string"
        }
      ],
      "name": "setBaseURI",
      "outputs": [],
      "stateMutability": "nonpayable",
      "type": "function"
    },
    {
      "inputs": [
        {
          "internalType": "uint256",
          "name": "newVal",
          "type": "uint256"
        }
      ],
      "name": "setGasForDestinationLzReceive",
      "outputs": [],
      "stateMutability": "nonpayable",
      "type": "function"
    },
    {
      "inputs": [
        {
          "internalType": "uint16",
          "name": "_chainId",
          "type": "uint16"
        },
        {
          "internalType": "bytes",
          "name": "_trustedRemote",
          "type": "bytes"
        }
      ],
      "name": "setTrustedRemote",
      "outputs": [],
      "stateMutability": "nonpayable",
      "type": "function"
    },
    {
      "inputs": [
        {
          "internalType": "bytes4",
          "name": "interfaceId",
          "type": "bytes4"
        }
      ],
      "name": "supportsInterface",
      "outputs": [
        {
          "internalType": "bool",
          "name": "",
          "type": "bool"
        }
      ],
      "stateMutability": "view",
      "type": "function"
    },
    {
      "inputs": [],
      "name": "symbol",
      "outputs": [
        {
          "internalType": "string",
          "name": "",
          "type": "string"
        }
      ],
      "stateMutability": "view",
      "type": "function"
    },
    {
      "inputs": [
        {
          "internalType": "uint256",
          "name": "tokenId",
          "type": "uint256"
        }
      ],
      "name": "tokenURI",
      "outputs": [
        {
          "internalType": "string",
          "name": "",
          "type": "string"
        }
      ],
      "stateMutability": "view",
      "type": "function"
    },
    {
      "inputs": [
        {
          "internalType": "address",
          "name": "from",
          "type": "address"
        },
        {
          "internalType": "address",
          "name": "to",
          "type": "address"
        },
        {
          "internalType": "uint256",
          "name": "tokenId",
          "type": "uint256"
        }
      ],
      "name": "transferFrom",
      "outputs": [],
      "stateMutability": "nonpayable",
      "type": "function"
    },
    {
      "inputs": [
        {
          "internalType": "address",
          "name": "newOwner",
          "type": "address"
        }
      ],
      "name": "transferOwnership",
      "outputs": [],
      "stateMutability": "nonpayable",
      "type": "function"
    },
    {
      "inputs": [
        {
          "internalType": "uint16",
          "name": "_chainId",
          "type": "uint16"
        },
        {
          "internalType": "uint256",
          "name": "tokenId",
          "type": "uint256"
        }
      ],
      "name": "traverseChains",
      "outputs": [],
      "stateMutability": "payable",
      "type": "function"
    },
    {
      "inputs": [
        {
          "internalType": "uint16",
          "name": "",
          "type": "uint16"
        }
      ],
      "name": "trustedRemoteLookup",
      "outputs": [
        {
          "internalType": "bytes",
          "name": "",
          "type": "bytes"
        }
      ],
      "stateMutability": "view",
      "type": "function"
    },
    {
      "inputs": [
        {
          "internalType": "uint256",
          "name": "amt",
          "type": "uint256"
        }
      ],
      "name": "withdraw",
      "outputs": [],
      "stateMutability": "nonpayable",
      "type": "function"
    }
  ],
  "bytecode": "0x60806040526000600c55610c0c600d5562055730600e553480156200002357600080fd5b5060405162002d8d38038062002d8d83398101604081905262000046916200022d565b6040518060400160405280600d81526020016c47683073746c7947683073747360981b81525060405180604001604052806002815260200161676760f01b815250620000a16200009b6200011660201b60201c565b6200011a565b8151620000b69060019060208501906200016a565b508051620000cc9060029060208401906200016a565b5050600a8054336001600160a01b031991821617909155600780549091166001600160a01b0384161790555081516200010d90600b9060208501906200016a565b5050506200036b565b3390565b600080546001600160a01b038381166001600160a01b0319831681178455604051919092169283917f8be0079c531659141344cd1fd0a4f28419497f9722a3daafe3b4186f6b6457e09190a35050565b828054620001789062000318565b90600052602060002090601f0160209004810192826200019c5760008555620001e7565b82601f10620001b757805160ff1916838001178555620001e7565b82800160010185558215620001e7579182015b82811115620001e7578251825591602001919060010190620001ca565b50620001f5929150620001f9565b5090565b5b80821115620001f55760008155600101620001fa565b80516001600160a01b03811681146200022857600080fd5b919050565b6000806040838503121562000240578182fd5b82516001600160401b038082111562000257578384fd5b818501915085601f8301126200026b578384fd5b81518181111562000280576200028062000355565b604051601f8201601f19908116603f01168101908382118183101715620002ab57620002ab62000355565b81604052828152602093508884848701011115620002c7578687fd5b8691505b82821015620002ea5784820184015181830185015290830190620002cb565b82821115620002fb57868484830101525b95506200030d91505085820162000210565b925050509250929050565b600181811c908216806200032d57607f821691505b602082108114156200034f57634e487b7160e01b600052602260045260246000fd5b50919050565b634e487b7160e01b600052604160045260246000fd5b612a12806200037b6000396000f3fe6080604052600436106101c15760003560e01c80637533d788116100f7578063b88d4fde11610095578063e985e9c511610064578063e985e9c514610531578063eb8d72b71461057a578063ed88c68e146101e6578063f2fde38b1461059a57600080fd5b8063b88d4fde146104cb578063c87b56dd146104eb578063cf89fa031461050b578063d1deba1f1461051e57600080fd5b8063943fb872116100d1578063943fb8721461045657806395d89b4114610476578063a22cb4651461048b578063b2bdfa7b146104ab57600080fd5b80637533d788146103ad5780638da5cb5b146103cd5780638ee74912146103eb57600080fd5b80632e1a7d4d116101645780636352211e1161013e5780636352211e146103375780636ecd23061461035757806370a082311461036a578063715018a61461039857600080fd5b80632e1a7d4d146102d757806342842e0e146102f757806355f804b31461031757600080fd5b8063081812fc116101a0578063081812fc1461023f578063095ea7b3146102775780631c37a8221461029757806323b872dd146102b757600080fd5b80621d3567146101c657806301ffc9a7146101e857806306fdde031461021d575b600080fd5b3480156101d257600080fd5b506101e66101e13660046123b3565b6105ba565b005b3480156101f457600080fd5b506102086102033660046121f0565b6107b4565b60405190151581526020015b60405180910390f35b34801561022957600080fd5b50610232610806565b60405161021491906125d2565b34801561024b57600080fd5b5061025f61025a366004612443565b610898565b6040516001600160a01b039091168152602001610214565b34801561028357600080fd5b506101e66102923660046121c5565b61092d565b3480156102a357600080fd5b506101e66102b23660046123b3565b610a43565b3480156102c357600080fd5b506101e66102d23660046120eb565b610ab2565b3480156102e357600080fd5b506101e66102f2366004612443565b610ae3565b34801561030357600080fd5b506101e66103123660046120eb565b610bb4565b34801561032357600080fd5b506101e6610332366004612228565b610bcf565b34801561034357600080fd5b5061025f610352366004612443565b610c0c565b6101e661036536600461247e565b610c83565b34801561037657600080fd5b5061038a61038536600461206a565b610d77565b604051908152602001610214565b3480156103a457600080fd5b506101e6610dfe565b3480156103b957600080fd5b506102326103c836600461226d565b610e34565b3480156103d957600080fd5b506000546001600160a01b031661025f565b3480156103f757600080fd5b506104416104063660046122d7565b600860209081526000938452604080852084518086018401805192815290840195840195909520945292905282529020805460019091015482565b60408051928352602083019190915201610214565b34801561046257600080fd5b506101e6610471366004612443565b610ece565b34801561048257600080fd5b50610232610efd565b34801561049757600080fd5b506101e66104a6366004612194565b610f0c565b3480156104b757600080fd5b50600a5461025f906001600160a01b031681565b3480156104d757600080fd5b506101e66104e636600461212b565b610f17565b3480156104f757600080fd5b50610232610506366004612443565b610f49565b6101e6610519366004612428565b611024565b6101e661052c36600461232b565b611305565b34801561053d57600080fd5b5061020861054c3660046120b3565b6001600160a01b03918216600090815260066020908152604080832093909416825291909152205460ff1690565b34801561058657600080fd5b506101e6610595366004612287565b611492565b3480156105a657600080fd5b506101e66105b536600461206a565b6114da565b6007546001600160a01b031633146105d157600080fd5b61ffff8416600090815260096020526040902080546105ef90612905565b9050835114801561062e575061ffff841660009081526009602052604090819020905161061c91906124f7565b60405180910390208380519060200120145b61069c5760405162461bcd60e51b815260206004820152603460248201527f4e6f6e626c6f636b696e6752656365697665723a20696e76616c696420736f756044820152731c98d9481cd95b991a5b99c818dbdb9d1c9858dd60621b60648201526084015b60405180910390fd5b604051630e1bd41160e11b81523090631c37a822906106c5908790879087908790600401612771565b600060405180830381600087803b1580156106df57600080fd5b505af19250505080156106f0575060015b6107ae576040518060400160405280825181526020018280519060200120815250600860008661ffff1661ffff1681526020019081526020016000208460405161073a91906124db565b9081526040805191829003602090810183206001600160401b038716600090815290825291909120835181559201516001909201919091557fe6f254030bcb01ffd20558175c13fcaed6d1520be7becee4c961b65f79243b0d906107a5908690869086908690612771565b60405180910390a15b50505050565b60006001600160e01b031982166380ac58cd60e01b14806107e557506001600160e01b03198216635b5e139f60e01b145b8061080057506301ffc9a760e01b6001600160e01b03198316145b92915050565b60606001805461081590612905565b80601f016020809104026020016040519081016040528092919081815260200182805461084190612905565b801561088e5780601f106108635761010080835404028352916020019161088e565b820191906000526020600020905b81548152906001019060200180831161087157829003601f168201915b5050505050905090565b6000818152600360205260408120546001600160a01b03166109115760405162461bcd60e51b815260206004820152602c60248201527f4552433732313a20617070726f76656420717565727920666f72206e6f6e657860448201526b34b9ba32b73a103a37b5b2b760a11b6064820152608401610693565b506000908152600560205260409020546001600160a01b031690565b600061093882610c0c565b9050806001600160a01b0316836001600160a01b031614156109a65760405162461bcd60e51b815260206004820152602160248201527f4552433732313a20617070726f76616c20746f2063757272656e74206f776e656044820152603960f91b6064820152608401610693565b336001600160a01b03821614806109c257506109c2813361054c565b610a345760405162461bcd60e51b815260206004820152603860248201527f4552433732313a20617070726f76652063616c6c6572206973206e6f74206f7760448201527f6e6572206e6f7220617070726f76656420666f7220616c6c00000000000000006064820152608401610693565b610a3e8383611572565b505050565b333014610aa65760405162461bcd60e51b815260206004820152602b60248201527f4e6f6e626c6f636b696e6752656365697665723a2063616c6c6572206d75737460448201526a10313290213934b233b29760a91b6064820152608401610693565b6107ae848484846115e0565b610abc338261160d565b610ad85760405162461bcd60e51b81526004016106939061266c565b610a3e838383611704565b6000546001600160a01b03163314610b0d5760405162461bcd60e51b815260040161069390612637565b600a546040516000916001600160a01b03169083908381818185875af1925050503d8060008114610b5a576040519150601f19603f3d011682016040523d82523d6000602084013e610b5f565b606091505b5050905080610bb05760405162461bcd60e51b815260206004820152601c60248201527f47473a204661696c656420746f207769746864726177204574686572000000006044820152606401610693565b5050565b610a3e83838360405180602001604052806000815250610f17565b6000546001600160a01b03163314610bf95760405162461bcd60e51b815260040161069390612637565b8051610bb090600b906020840190611e55565b6000818152600360205260408120546001600160a01b0316806108005760405162461bcd60e51b815260206004820152602960248201527f4552433732313a206f776e657220717565727920666f72206e6f6e657869737460448201526832b73a103a37b5b2b760b91b6064820152608401610693565b60038160ff1610610cd65760405162461bcd60e51b815260206004820152601e60248201527f47473a204d61782032204e46547320706572207472616e73616374696f6e00006044820152606401610693565b600d548160ff16600c54610cea9190612896565b1115610d385760405162461bcd60e51b815260206004820152601760248201527f47473a204d696e74206578636565647320737570706c790000000000000000006044820152606401610693565b610d5533600c60008154610d4b90612940565b91829055506118a4565b8060ff1660021415610d7457610d7433600c60008154610d4b90612940565b50565b60006001600160a01b038216610de25760405162461bcd60e51b815260206004820152602a60248201527f4552433732313a2062616c616e636520717565727920666f7220746865207a65604482015269726f206164647265737360b01b6064820152608401610693565b506001600160a01b031660009081526004602052604090205490565b6000546001600160a01b03163314610e285760405162461bcd60e51b815260040161069390612637565b610e3260006118be565b565b60096020526000908152604090208054610e4d90612905565b80601f0160208091040260200160405190810160405280929190818152602001828054610e7990612905565b8015610ec65780601f10610e9b57610100808354040283529160200191610ec6565b820191906000526020600020905b815481529060010190602001808311610ea957829003601f168201915b505050505081565b6000546001600160a01b03163314610ef85760405162461bcd60e51b815260040161069390612637565b600e55565b60606002805461081590612905565b610bb033838361190e565b610f21338361160d565b610f3d5760405162461bcd60e51b81526004016106939061266c565b6107ae848484846119dd565b6000818152600360205260409020546060906001600160a01b0316610fc85760405162461bcd60e51b815260206004820152602f60248201527f4552433732314d657461646174613a2055524920717565727920666f72206e6f60448201526e3732bc34b9ba32b73a103a37b5b2b760891b6064820152608401610693565b6000610fd2611a10565b90506000815111610ff2576040518060200160405280600081525061101d565b80610ffc84611a1f565b60405160200161100d929190612566565b6040516020818303038152906040525b9392505050565b61102d81610c0c565b6001600160a01b0316336001600160a01b0316146110985760405162461bcd60e51b815260206004820152602260248201527f596f75206d757374206f776e2074686520746f6b656e20746f20747261766572604482015261736560f01b6064820152608401610693565b61ffff8216600090815260096020526040812080546110b690612905565b90501161111c5760405162461bcd60e51b815260206004820152602e60248201527f5468697320636861696e2069732063757272656e746c7920756e617661696c6160448201526d189b1948199bdc881d1c985d995b60921b6064820152608401610693565b61112581611b38565b60408051336020820152808201839052815180820383018152606082018352600e54600160f01b60808401526082808401919091528351808403909101815260a283019384905260075463040a7bb160e41b90945290926001926000916001600160a01b0316906340a7bb10906111a8908990309089908790899060a6016126bd565b604080518083038186803b1580156111bf57600080fd5b505afa1580156111d3573d6000803e3d6000fd5b505050506040513d601f19601f820116820180604052508101906111f7919061245b565b509050803410156112805760405162461bcd60e51b815260206004820152604760248201527f47473a206d73672e76616c7565206e6f7420656e6f75676820746f20636f766560448201527f72206d6573736167654665652e2053656e642067617320666f72206d657373616064820152666765206665657360c81b608482015260a401610693565b60075461ffff8716600090815260096020526040808220905162c5803160e81b81526001600160a01b039093169263c58031009234926112cb928c928b913391908b906004016127ba565b6000604051808303818588803b1580156112e457600080fd5b505af11580156112f8573d6000803e3d6000fd5b5050505050505050505050565b61ffff851660009081526008602052604080822090516113269087906124db565b90815260408051602092819003830190206001600160401b03871660009081529252902060018101549091506113ad5760405162461bcd60e51b815260206004820152602660248201527f4e6f6e626c6f636b696e6752656365697665723a206e6f2073746f726564206d60448201526565737361676560d01b6064820152608401610693565b8054821480156113d75750806001015483836040516113cd9291906124cb565b6040518091039020145b6114235760405162461bcd60e51b815260206004820152601a60248201527f4c617965725a65726f3a20696e76616c6964207061796c6f61640000000000006044820152606401610693565b60008082556001820155604051630e1bd41160e11b81523090631c37a822906114589089908990899089908990600401612711565b600060405180830381600087803b15801561147257600080fd5b505af1158015611486573d6000803e3d6000fd5b50505050505050505050565b6000546001600160a01b031633146114bc5760405162461bcd60e51b815260040161069390612637565b61ffff831660009081526009602052604090206107ae908383611ed9565b6000546001600160a01b031633146115045760405162461bcd60e51b815260040161069390612637565b6001600160a01b0381166115695760405162461bcd60e51b815260206004820152602660248201527f4f776e61626c653a206e6577206f776e657220697320746865207a65726f206160448201526564647265737360d01b6064820152608401610693565b610d74816118be565b600081815260056020526040902080546001600160a01b0319166001600160a01b03841690811790915581906115a782610c0c565b6001600160a01b03167f8c5be1e5ebec7d5bd14f71427d1e84f3dd0314c0f7b2291e5b200ac8c7c3b92560405160405180910390a45050565b600080828060200190518101906115f79190612086565b9150915061160582826118a4565b505050505050565b6000818152600360205260408120546001600160a01b03166116865760405162461bcd60e51b815260206004820152602c60248201527f4552433732313a206f70657261746f7220717565727920666f72206e6f6e657860448201526b34b9ba32b73a103a37b5b2b760a11b6064820152608401610693565b600061169183610c0c565b9050806001600160a01b0316846001600160a01b031614806116cc5750836001600160a01b03166116c184610898565b6001600160a01b0316145b806116fc57506001600160a01b0380821660009081526006602090815260408083209388168352929052205460ff165b949350505050565b826001600160a01b031661171782610c0c565b6001600160a01b03161461177f5760405162461bcd60e51b815260206004820152602960248201527f4552433732313a207472616e73666572206f6620746f6b656e2074686174206960448201526839903737ba1037bbb760b91b6064820152608401610693565b6001600160a01b0382166117e15760405162461bcd60e51b8152602060048201526024808201527f4552433732313a207472616e7366657220746f20746865207a65726f206164646044820152637265737360e01b6064820152608401610693565b6117ec600082611572565b6001600160a01b03831660009081526004602052604081208054600192906118159084906128c2565b90915550506001600160a01b0382166000908152600460205260408120805460019290611843908490612896565b909155505060008181526003602052604080822080546001600160a01b0319166001600160a01b0386811691821790925591518493918716917fddf252ad1be2c89b69c2b068fc378daa952ba7f163c4a11628f55a4df523b3ef91a4505050565b610bb0828260405180602001604052806000815250611bd3565b600080546001600160a01b038381166001600160a01b0319831681178455604051919092169283917f8be0079c531659141344cd1fd0a4f28419497f9722a3daafe3b4186f6b6457e09190a35050565b816001600160a01b0316836001600160a01b031614156119705760405162461bcd60e51b815260206004820152601960248201527f4552433732313a20617070726f766520746f2063616c6c6572000000000000006044820152606401610693565b6001600160a01b03838116600081815260066020908152604080832094871680845294825291829020805460ff191686151590811790915591519182527f17307eab39ab6107e8899845ad3d59bd9653f200f220920489ca2b5937696c31910160405180910390a3505050565b6119e8848484611704565b6119f484848484611c06565b6107ae5760405162461bcd60e51b8152600401610693906125e5565b6060600b805461081590612905565b606081611a435750506040805180820190915260018152600360fc1b602082015290565b8160005b8115611a6d5780611a5781612940565b9150611a669050600a836128ae565b9150611a47565b6000816001600160401b03811115611a9557634e487b7160e01b600052604160045260246000fd5b6040519080825280601f01601f191660200182016040528015611abf576020820181803683370190505b5090505b84156116fc57611ad46001836128c2565b9150611ae1600a8661295b565b611aec906030612896565b60f81b818381518110611b0f57634e487b7160e01b600052603260045260246000fd5b60200101906001600160f81b031916908160001a905350611b31600a866128ae565b9450611ac3565b6000611b4382610c0c565b9050611b50600083611572565b6001600160a01b0381166000908152600460205260408120805460019290611b799084906128c2565b909155505060008281526003602052604080822080546001600160a01b0319169055518391906001600160a01b038416907fddf252ad1be2c89b69c2b068fc378daa952ba7f163c4a11628f55a4df523b3ef908390a45050565b611bdd8383611d13565b611bea6000848484611c06565b610a3e5760405162461bcd60e51b8152600401610693906125e5565b60006001600160a01b0384163b15611d0857604051630a85bd0160e11b81526001600160a01b0385169063150b7a0290611c4a903390899088908890600401612595565b602060405180830381600087803b158015611c6457600080fd5b505af1925050508015611c94575060408051601f3d908101601f19168201909252611c919181019061220c565b60015b611cee573d808015611cc2576040519150601f19603f3d011682016040523d82523d6000602084013e611cc7565b606091505b508051611ce65760405162461bcd60e51b8152600401610693906125e5565b805181602001fd5b6001600160e01b031916630a85bd0160e11b1490506116fc565b506001949350505050565b6001600160a01b038216611d695760405162461bcd60e51b815260206004820181905260248201527f4552433732313a206d696e7420746f20746865207a65726f20616464726573736044820152606401610693565b6000818152600360205260409020546001600160a01b031615611dce5760405162461bcd60e51b815260206004820152601c60248201527f4552433732313a20746f6b656e20616c7265616479206d696e746564000000006044820152606401610693565b6001600160a01b0382166000908152600460205260408120805460019290611df7908490612896565b909155505060008181526003602052604080822080546001600160a01b0319166001600160a01b03861690811790915590518392907fddf252ad1be2c89b69c2b068fc378daa952ba7f163c4a11628f55a4df523b3ef908290a45050565b828054611e6190612905565b90600052602060002090601f016020900481019282611e835760008555611ec9565b82601f10611e9c57805160ff1916838001178555611ec9565b82800160010185558215611ec9579182015b82811115611ec9578251825591602001919060010190611eae565b50611ed5929150611f4d565b5090565b828054611ee590612905565b90600052602060002090601f016020900481019282611f075760008555611ec9565b82601f10611f205782800160ff19823516178555611ec9565b82800160010185558215611ec9579182015b82811115611ec9578235825591602001919060010190611f32565b5b80821115611ed55760008155600101611f4e565b60006001600160401b0380841115611f7c57611f7c61299b565b604051601f8501601f19908116603f01168101908282118183101715611fa457611fa461299b565b81604052809350858152868686011115611fbd57600080fd5b858560208301376000602087830101525050509392505050565b60008083601f840112611fe8578182fd5b5081356001600160401b03811115611ffe578182fd5b60208301915083602082850101111561201657600080fd5b9250929050565b600082601f83011261202d578081fd5b61101d83833560208501611f62565b803561ffff8116811461204e57600080fd5b919050565b80356001600160401b038116811461204e57600080fd5b60006020828403121561207b578081fd5b813561101d816129b1565b60008060408385031215612098578081fd5b82516120a3816129b1565b6020939093015192949293505050565b600080604083850312156120c5578182fd5b82356120d0816129b1565b915060208301356120e0816129b1565b809150509250929050565b6000806000606084860312156120ff578081fd5b833561210a816129b1565b9250602084013561211a816129b1565b929592945050506040919091013590565b60008060008060808587031215612140578081fd5b843561214b816129b1565b9350602085013561215b816129b1565b92506040850135915060608501356001600160401b0381111561217c578182fd5b6121888782880161201d565b91505092959194509250565b600080604083850312156121a6578182fd5b82356121b1816129b1565b9150602083013580151581146120e0578182fd5b600080604083850312156121d7578182fd5b82356121e2816129b1565b946020939093013593505050565b600060208284031215612201578081fd5b813561101d816129c6565b60006020828403121561221d578081fd5b815161101d816129c6565b600060208284031215612239578081fd5b81356001600160401b0381111561224e578182fd5b8201601f8101841361225e578182fd5b6116fc84823560208401611f62565b60006020828403121561227e578081fd5b61101d8261203c565b60008060006040848603121561229b578081fd5b6122a48461203c565b925060208401356001600160401b038111156122be578182fd5b6122ca86828701611fd7565b9497909650939450505050565b6000806000606084860312156122eb578081fd5b6122f48461203c565b925060208401356001600160401b0381111561230e578182fd5b61231a8682870161201d565b925050604084013590509250925092565b600080600080600060808688031215612342578283fd5b61234b8661203c565b945060208601356001600160401b0380821115612366578485fd5b61237289838a0161201d565b955061238060408901612053565b94506060880135915080821115612395578283fd5b506123a288828901611fd7565b969995985093965092949392505050565b600080600080608085870312156123c8578182fd5b6123d18561203c565b935060208501356001600160401b03808211156123ec578384fd5b6123f88883890161201d565b945061240660408801612053565b9350606087013591508082111561241b578283fd5b506121888782880161201d565b6000806040838503121561243a578182fd5b6121e28361203c565b600060208284031215612454578081fd5b5035919050565b6000806040838503121561246d578182fd5b505080516020909101519092909150565b60006020828403121561248f578081fd5b813560ff8116811461101d578182fd5b600081518084526124b78160208601602086016128d9565b601f01601f19169290920160200192915050565b8183823760009101908152919050565b600082516124ed8184602087016128d9565b9190910192915050565b600080835461250581612905565b6001828116801561251d576001811461252e5761255a565b60ff1984168752828701945061255a565b8786526020808720875b858110156125515781548a820152908401908201612538565b50505082870194505b50929695505050505050565b600083516125788184602088016128d9565b83519083019061258c8183602088016128d9565b01949350505050565b6001600160a01b03858116825284166020820152604081018390526080606082018190526000906125c89083018461249f565b9695505050505050565b60208152600061101d602083018461249f565b60208082526032908201527f4552433732313a207472616e7366657220746f206e6f6e20455243373231526560408201527131b2b4bb32b91034b6b83632b6b2b73a32b960711b606082015260800190565b6020808252818101527f4f776e61626c653a2063616c6c6572206973206e6f7420746865206f776e6572604082015260600190565b60208082526031908201527f4552433732313a207472616e736665722063616c6c6572206973206e6f74206f6040820152701ddb995c881b9bdc88185c1c1c9bdd9959607a1b606082015260800190565b61ffff861681526001600160a01b038516602082015260a0604082018190526000906126eb9083018661249f565b84151560608401528281036080840152612705818561249f565b98975050505050505050565b61ffff8616815260806020820152600061272e608083018761249f565b6001600160401b038616604084015282810360608401528381528385602083013781602085830101526020601f19601f8601168201019150509695505050505050565b61ffff8516815260806020820152600061278e608083018661249f565b6001600160401b038516604084015282810360608401526127af818561249f565b979650505050505050565b61ffff871681526000602060c0818401528188546127d781612905565b8060c087015260e06001808416600081146127f9576001811461280e57612839565b60ff1985168984015261010089019550612839565b8d8852868820885b858110156128315781548b8201860152908301908801612816565b8a0184019650505b50505050508381036040850152612850818961249f565b91505061286860608401876001600160a01b03169052565b6001600160a01b038516608084015282810360a0840152612889818561249f565b9998505050505050505050565b600082198211156128a9576128a961296f565b500190565b6000826128bd576128bd612985565b500490565b6000828210156128d4576128d461296f565b500390565b60005b838110156128f45781810151838201526020016128dc565b838111156107ae5750506000910152565b600181811c9082168061291957607f821691505b6020821081141561293a57634e487b7160e01b600052602260045260246000fd5b50919050565b60006000198214156129545761295461296f565b5060010190565b60008261296a5761296a612985565b500690565b634e487b7160e01b600052601160045260246000fd5b634e487b7160e01b600052601260045260246000fd5b634e487b7160e01b600052604160045260246000fd5b6001600160a01b0381168114610d7457600080fd5b6001600160e01b031981168114610d7457600080fdfea26469706673582212203da16b748c0aed102c354fa2d18babdce4048e4868fa95a07c7942a103a9b03f64736f6c63430008040033",
  "linkReferences": {},
  "deployedLinkReferences": {}
}