{
  "abi": [
    {
      "inputs": [
        {
          "internalType": "uint256",
          "name": "",
          "type": "uint256"
        },
        {
          "internalType": "uint256",
          "name": "",
          "type": "uint256"
        },
        {
          "internalType": "uint16",
          "name": "",
          "type": "uint16"
        },
        {
          "internalType": "address",
          "name": "",
          "type": "address"
        },
        {
          "internalType": "uint256",
          "name": "_amountSD",
          "type": "uint256"
        }
      ],
      "name": "getFees",
      "outputs": [
        {
          "components": [
            {
              "internalType": "uint256",
              "name": "amount",
              "type": "uint256"
            },
            {
              "internalType": "uint256",
              "name": "eqFee",
              "type": "uint256"
            },
            {
              "internalType": "uint256",
              "name": "eqReward",
              "type": "uint256"
            },
            {
              "internalType": "uint256",
              "name": "lpFee",
              "type": "uint256"
            },
            {
              "internalType": "uint256",
              "name": "protocolFee",
              "type": "uint256"
            },
            {
              "internalType": "uint256",
              "name": "lkbRemove",
              "type": "uint256"
            }
          ],
          "internalType": "struct Pool.SwapObj",
          "name": "s",
          "type": "tuple"
        }
      ],
      "stateMutability": "pure",
      "type": "function"
    },
    {
      "inputs": [],
      "name": "getVersion",
      "outputs": [
        {
          "internalType": "string",
          "name": "",
          "type": "string"
        }
      ],
      "stateMutability": "pure",
      "type": "function"
    }
  ],
  "bytecode": {
    "object": "0x60808060405234610016576101be908161001c8239f35b600080fdfe6080604090808252600436101561001557600080fd5b600090813560e01c9081630d8e6e2c146100ef5750631ab624301461003957600080fd5b346100ec5760a03660031901126100ec5760443561ffff8116036100ec576064356001600160a01b038116036100ec576084359082519060c082019382851067ffffffffffffffff8611176100d85760c09481526020830190808401606085019260808601948760a0880197528082528083528085528086528652825196875251602087015251908501525160608401525160808301525160a0820152f35b634e487b7160e01b82526041600452602482fd5b80fd5b8391503461018457826003193601126101845781810181811067ffffffffffffffff82111761017057825260018152602090603160f81b8282015282519382859384528251928382860152825b84811061015a57505050828201840152601f01601f19168101030190f35b818101830151888201880152879550820161013c565b634e487b7160e01b84526041600452602484fd5b8280fdfea2646970667358221220da29af42b092835457ac79b0e2ce31257776184b2f6652a95168f48af153d0f964736f6c63430008110033",
    "linkReferences": {}
  },
  "methodIdentifiers": {
    "getFees(uint256,uint256,uint16,address,uint256)": "1ab62430",
    "getVersion()": "0d8e6e2c"
  },
  "id": 93
}