{
  "abi": [
    {
      "inputs": [
        {
          "internalType": "uint256",
          "name": "",
          "type": "uint256"
        },
        {
          "internalType": "uint256",
          "name": "",
          "type": "uint256"
        },
        {
          "internalType": "uint16",
          "name": "",
          "type": "uint16"
        },
        {
          "internalType": "address",
          "name": "",
          "type": "address"
        },
        {
          "internalType": "uint256",
          "name": "_amountSD",
          "type": "uint256"
        }
      ],
      "name": "getFees",
      "outputs": [
        {
          "components": [
            {
              "internalType": "uint256",
              "name": "amount",
              "type": "uint256"
            },
            {
              "internalType": "uint256",
              "name": "eqFee",
              "type": "uint256"
            },
            {
              "internalType": "uint256",
              "name": "eqReward",
              "type": "uint256"
            },
            {
              "internalType": "uint256",
              "name": "lpFee",
              "type": "uint256"
            },
            {
              "internalType": "uint256",
              "name": "protocolFee",
              "type": "uint256"
            },
            {
              "internalType": "uint256",
              "name": "lkbRemove",
              "type": "uint256"
            }
          ],
          "internalType": "struct Pool.SwapObj",
          "name": "s",
          "type": "tuple"
        }
      ],
      "stateMutability": "pure",
      "type": "function"
    },
    {
      "inputs": [],
      "name": "getVersion",
      "outputs": [
        {
          "internalType": "string",
          "name": "",
          "type": "string"
        }
      ],
      "stateMutability": "pure",
      "type": "function"
    }
  ],
  "bytecode": {
    "object": "0x608060405234801561001057600080fd5b50610216806100206000396000f3fe608060405234801561001057600080fd5b50600436106100365760003560e01c80630d8e6e2c1461003b5780631ab6243014610067575b600080fd5b60408051808201825260018152603160f81b6020820152905161005e919061012d565b60405180910390f35b61007a61007536600461017b565b6100c6565b60405161005e9190600060c082019050825182526020830151602083015260408301516040830152606083015160608301526080830151608083015260a083015160a083015292915050565b6100ff6040518060c001604052806000815260200160008152602001600081526020016000815260200160008152602001600081525090565b90815260006020820181905260408201819052606082018190526080820181905260a0820152949350505050565b600060208083528351808285015260005b8181101561015a5785810183015185820160400152820161013e565b506000604082860101526040601f19601f8301168501019250505092915050565b600080600080600060a0868803121561019357600080fd5b8535945060208601359350604086013561ffff811681146101b357600080fd5b925060608601356001600160a01b03811681146101cf57600080fd5b94979396509194608001359291505056fea2646970667358221220c9330eaf5ad7d4295268096cb1f841f6fa819472d2cb678f24885857cf4a517264736f6c63430008110033",
    "linkReferences": {}
  },
  "methodIdentifiers": {
    "getFees(uint256,uint256,uint16,address,uint256)": "1ab62430",
    "getVersion()": "0d8e6e2c"
  },
  "id": 51
}