{
  "abi": [
    {
      "inputs": [
        {
          "internalType": "address",
          "name": "_lzEndpoint",
          "type": "address"
        },
        {
          "internalType": "address",
          "name": "_proxyToken",
          "type": "address"
        }
      ],
      "stateMutability": "nonpayable",
      "type": "constructor"
    },
    {
      "anonymous": false,
      "inputs": [
        {
          "indexed": false,
          "internalType": "uint16",
          "name": "_srcChainId",
          "type": "uint16"
        },
        {
          "indexed": false,
          "internalType": "bytes",
          "name": "_srcAddress",
          "type": "bytes"
        },
        {
          "indexed": false,
          "internalType": "uint64",
          "name": "_nonce",
          "type": "uint64"
        },
        {
          "indexed": false,
          "internalType": "bytes",
          "name": "_payload",
          "type": "bytes"
        },
        {
          "indexed": false,
          "internalType": "bytes",
          "name": "_reason",
          "type": "bytes"
        }
      ],
      "name": "MessageFailed",
      "type": "event"
    },
    {
      "anonymous": false,
      "inputs": [
        {
          "indexed": true,
          "internalType": "address",
          "name": "previousOwner",
          "type": "address"
        },
        {
          "indexed": true,
          "internalType": "address",
          "name": "newOwner",
          "type": "address"
        }
      ],
      "name": "OwnershipTransferred",
      "type": "event"
    },
    {
      "anonymous": false,
      "inputs": [
        {
          "indexed": true,
          "internalType": "uint16",
          "name": "_srcChainId",
          "type": "uint16"
        },
        {
          "indexed": true,
          "internalType": "bytes",
          "name": "_srcAddress",
          "type": "bytes"
        },
        {
          "indexed": true,
          "internalType": "address",
          "name": "_toAddress",
          "type": "address"
        },
        {
          "indexed": false,
          "internalType": "uint256",
          "name": "_tokenId",
          "type": "uint256"
        },
        {
          "indexed": false,
          "internalType": "uint64",
          "name": "_nonce",
          "type": "uint64"
        }
      ],
      "name": "ReceiveFromChain",
      "type": "event"
    },
    {
      "anonymous": false,
      "inputs": [
        {
          "indexed": false,
          "internalType": "uint16",
          "name": "_srcChainId",
          "type": "uint16"
        },
        {
          "indexed": false,
          "internalType": "bytes",
          "name": "_srcAddress",
          "type": "bytes"
        },
        {
          "indexed": false,
          "internalType": "uint64",
          "name": "_nonce",
          "type": "uint64"
        },
        {
          "indexed": false,
          "internalType": "bytes32",
          "name": "_payloadHash",
          "type": "bytes32"
        }
      ],
      "name": "RetryMessageSuccess",
      "type": "event"
    },
    {
      "anonymous": false,
      "inputs": [
        {
          "indexed": true,
          "internalType": "address",
          "name": "_sender",
          "type": "address"
        },
        {
          "indexed": true,
          "internalType": "uint16",
          "name": "_dstChainId",
          "type": "uint16"
        },
        {
          "indexed": true,
          "internalType": "bytes",
          "name": "_toAddress",
          "type": "bytes"
        },
        {
          "indexed": false,
          "internalType": "uint256",
          "name": "_tokenId",
          "type": "uint256"
        },
        {
          "indexed": false,
          "internalType": "uint64",
          "name": "_nonce",
          "type": "uint64"
        }
      ],
      "name": "SendToChain",
      "type": "event"
    },
    {
      "anonymous": false,
      "inputs": [
        {
          "indexed": false,
          "internalType": "uint16",
          "name": "_dstChainId",
          "type": "uint16"
        },
        {
          "indexed": false,
          "internalType": "uint16",
          "name": "_type",
          "type": "uint16"
        },
        {
          "indexed": false,
          "internalType": "uint256",
          "name": "_minDstGas",
          "type": "uint256"
        }
      ],
      "name": "SetMinDstGas",
      "type": "event"
    },
    {
      "anonymous": false,
      "inputs": [
        {
          "indexed": false,
          "internalType": "address",
          "name": "precrime",
          "type": "address"
        }
      ],
      "name": "SetPrecrime",
      "type": "event"
    },
    {
      "anonymous": false,
      "inputs": [
        {
          "indexed": false,
          "internalType": "uint16",
          "name": "_remoteChainId",
          "type": "uint16"
        },
        {
          "indexed": false,
          "internalType": "bytes",
          "name": "_path",
          "type": "bytes"
        }
      ],
      "name": "SetTrustedRemote",
      "type": "event"
    },
    {
      "anonymous": false,
      "inputs": [
        {
          "indexed": false,
          "internalType": "uint16",
          "name": "_remoteChainId",
          "type": "uint16"
        },
        {
          "indexed": false,
          "internalType": "bytes",
          "name": "_remoteAddress",
          "type": "bytes"
        }
      ],
      "name": "SetTrustedRemoteAddress",
      "type": "event"
    },
    {
      "inputs": [],
      "name": "DEFAULT_PAYLOAD_SIZE_LIMIT",
      "outputs": [
        {
          "internalType": "uint256",
          "name": "",
          "type": "uint256"
        }
      ],
      "stateMutability": "view",
      "type": "function"
    },
    {
      "inputs": [
        {
          "internalType": "uint16",
          "name": "_dstChainId",
          "type": "uint16"
        },
        {
          "internalType": "bytes",
          "name": "_toAddress",
          "type": "bytes"
        },
        {
          "internalType": "uint256",
          "name": "_tokenId",
          "type": "uint256"
        },
        {
          "internalType": "bool",
          "name": "_useZro",
          "type": "bool"
        },
        {
          "internalType": "bytes",
          "name": "_adapterParams",
          "type": "bytes"
        }
      ],
      "name": "estimateSendFee",
      "outputs": [
        {
          "internalType": "uint256",
          "name": "nativeFee",
          "type": "uint256"
        },
        {
          "internalType": "uint256",
          "name": "zroFee",
          "type": "uint256"
        }
      ],
      "stateMutability": "view",
      "type": "function"
    },
    {
      "inputs": [
        {
          "internalType": "uint16",
          "name": "",
          "type": "uint16"
        },
        {
          "internalType": "bytes",
          "name": "",
          "type": "bytes"
        },
        {
          "internalType": "uint64",
          "name": "",
          "type": "uint64"
        }
      ],
      "name": "failedMessages",
      "outputs": [
        {
          "internalType": "bytes32",
          "name": "",
          "type": "bytes32"
        }
      ],
      "stateMutability": "view",
      "type": "function"
    },
    {
      "inputs": [
        {
          "internalType": "uint16",
          "name": "_srcChainId",
          "type": "uint16"
        },
        {
          "internalType": "bytes",
          "name": "_srcAddress",
          "type": "bytes"
        }
      ],
      "name": "forceResumeReceive",
      "outputs": [],
      "stateMutability": "nonpayable",
      "type": "function"
    },
    {
      "inputs": [
        {
          "internalType": "uint16",
          "name": "_version",
          "type": "uint16"
        },
        {
          "internalType": "uint16",
          "name": "_chainId",
          "type": "uint16"
        },
        {
          "internalType": "address",
          "name": "",
          "type": "address"
        },
        {
          "internalType": "uint256",
          "name": "_configType",
          "type": "uint256"
        }
      ],
      "name": "getConfig",
      "outputs": [
        {
          "internalType": "bytes",
          "name": "",
          "type": "bytes"
        }
      ],
      "stateMutability": "view",
      "type": "function"
    },
    {
      "inputs": [
        {
          "internalType": "uint16",
          "name": "_remoteChainId",
          "type": "uint16"
        }
      ],
      "name": "getTrustedRemoteAddress",
      "outputs": [
        {
          "internalType": "bytes",
          "name": "",
          "type": "bytes"
        }
      ],
      "stateMutability": "view",
      "type": "function"
    },
    {
      "inputs": [
        {
          "internalType": "uint16",
          "name": "_srcChainId",
          "type": "uint16"
        },
        {
          "internalType": "bytes",
          "name": "_srcAddress",
          "type": "bytes"
        }
      ],
      "name": "isTrustedRemote",
      "outputs": [
        {
          "internalType": "bool",
          "name": "",
          "type": "bool"
        }
      ],
      "stateMutability": "view",
      "type": "function"
    },
    {
      "inputs": [],
      "name": "lzEndpoint",
      "outputs": [
        {
          "internalType": "contract ILayerZeroEndpoint",
          "name": "",
          "type": "address"
        }
      ],
      "stateMutability": "view",
      "type": "function"
    },
    {
      "inputs": [
        {
          "internalType": "uint16",
          "name": "_srcChainId",
          "type": "uint16"
        },
        {
          "internalType": "bytes",
          "name": "_srcAddress",
          "type": "bytes"
        },
        {
          "internalType": "uint64",
          "name": "_nonce",
          "type": "uint64"
        },
        {
          "internalType": "bytes",
          "name": "_payload",
          "type": "bytes"
        }
      ],
      "name": "lzReceive",
      "outputs": [],
      "stateMutability": "nonpayable",
      "type": "function"
    },
    {
      "inputs": [
        {
          "internalType": "uint16",
          "name": "",
          "type": "uint16"
        },
        {
          "internalType": "uint16",
          "name": "",
          "type": "uint16"
        }
      ],
      "name": "minDstGasLookup",
      "outputs": [
        {
          "internalType": "uint256",
          "name": "",
          "type": "uint256"
        }
      ],
      "stateMutability": "view",
      "type": "function"
    },
    {
      "inputs": [
        {
          "internalType": "uint16",
          "name": "_srcChainId",
          "type": "uint16"
        },
        {
          "internalType": "bytes",
          "name": "_srcAddress",
          "type": "bytes"
        },
        {
          "internalType": "uint64",
          "name": "_nonce",
          "type": "uint64"
        },
        {
          "internalType": "bytes",
          "name": "_payload",
          "type": "bytes"
        }
      ],
      "name": "nonblockingLzReceive",
      "outputs": [],
      "stateMutability": "nonpayable",
      "type": "function"
    },
    {
      "inputs": [
        {
          "internalType": "address",
          "name": "_operator",
          "type": "address"
        },
        {
          "internalType": "address",
          "name": "",
          "type": "address"
        },
        {
          "internalType": "uint256",
          "name": "",
          "type": "uint256"
        },
        {
          "internalType": "bytes",
          "name": "",
          "type": "bytes"
        }
      ],
      "name": "onERC721Received",
      "outputs": [
        {
          "internalType": "bytes4",
          "name": "",
          "type": "bytes4"
        }
      ],
      "stateMutability": "nonpayable",
      "type": "function"
    },
    {
      "inputs": [],
      "name": "owner",
      "outputs": [
        {
          "internalType": "address",
          "name": "",
          "type": "address"
        }
      ],
      "stateMutability": "view",
      "type": "function"
    },
    {
      "inputs": [
        {
          "internalType": "uint16",
          "name": "",
          "type": "uint16"
        }
      ],
      "name": "payloadSizeLimitLookup",
      "outputs": [
        {
          "internalType": "uint256",
          "name": "",
          "type": "uint256"
        }
      ],
      "stateMutability": "view",
      "type": "function"
    },
    {
      "inputs": [],
      "name": "precrime",
      "outputs": [
        {
          "internalType": "address",
          "name": "",
          "type": "address"
        }
      ],
      "stateMutability": "view",
      "type": "function"
    },
    {
      "inputs": [],
      "name": "renounceOwnership",
      "outputs": [],
      "stateMutability": "nonpayable",
      "type": "function"
    },
    {
      "inputs": [
        {
          "internalType": "uint16",
          "name": "_srcChainId",
          "type": "uint16"
        },
        {
          "internalType": "bytes",
          "name": "_srcAddress",
          "type": "bytes"
        },
        {
          "internalType": "uint64",
          "name": "_nonce",
          "type": "uint64"
        },
        {
          "internalType": "bytes",
          "name": "_payload",
          "type": "bytes"
        }
      ],
      "name": "retryMessage",
      "outputs": [],
      "stateMutability": "payable",
      "type": "function"
    },
    {
      "inputs": [
        {
          "internalType": "address",
          "name": "_from",
          "type": "address"
        },
        {
          "internalType": "uint16",
          "name": "_dstChainId",
          "type": "uint16"
        },
        {
          "internalType": "bytes",
          "name": "_toAddress",
          "type": "bytes"
        },
        {
          "internalType": "uint256",
          "name": "_tokenId",
          "type": "uint256"
        },
        {
          "internalType": "address payable",
          "name": "_refundAddress",
          "type": "address"
        },
        {
          "internalType": "address",
          "name": "_zroPaymentAddress",
          "type": "address"
        },
        {
          "internalType": "bytes",
          "name": "_adapterParams",
          "type": "bytes"
        }
      ],
      "name": "sendFrom",
      "outputs": [],
      "stateMutability": "payable",
      "type": "function"
    },
    {
      "inputs": [
        {
          "internalType": "uint16",
          "name": "_version",
          "type": "uint16"
        },
        {
          "internalType": "uint16",
          "name": "_chainId",
          "type": "uint16"
        },
        {
          "internalType": "uint256",
          "name": "_configType",
          "type": "uint256"
        },
        {
          "internalType": "bytes",
          "name": "_config",
          "type": "bytes"
        }
      ],
      "name": "setConfig",
      "outputs": [],
      "stateMutability": "nonpayable",
      "type": "function"
    },
    {
      "inputs": [
        {
          "internalType": "uint16",
          "name": "_dstChainId",
          "type": "uint16"
        },
        {
          "internalType": "uint16",
          "name": "_packetType",
          "type": "uint16"
        },
        {
          "internalType": "uint256",
          "name": "_minGas",
          "type": "uint256"
        }
      ],
      "name": "setMinDstGas",
      "outputs": [],
      "stateMutability": "nonpayable",
      "type": "function"
    },
    {
      "inputs": [
        {
          "internalType": "uint16",
          "name": "_dstChainId",
          "type": "uint16"
        },
        {
          "internalType": "uint256",
          "name": "_size",
          "type": "uint256"
        }
      ],
      "name": "setPayloadSizeLimit",
      "outputs": [],
      "stateMutability": "nonpayable",
      "type": "function"
    },
    {
      "inputs": [
        {
          "internalType": "address",
          "name": "_precrime",
          "type": "address"
        }
      ],
      "name": "setPrecrime",
      "outputs": [],
      "stateMutability": "nonpayable",
      "type": "function"
    },
    {
      "inputs": [
        {
          "internalType": "uint16",
          "name": "_version",
          "type": "uint16"
        }
      ],
      "name": "setReceiveVersion",
      "outputs": [],
      "stateMutability": "nonpayable",
      "type": "function"
    },
    {
      "inputs": [
        {
          "internalType": "uint16",
          "name": "_version",
          "type": "uint16"
        }
      ],
      "name": "setSendVersion",
      "outputs": [],
      "stateMutability": "nonpayable",
      "type": "function"
    },
    {
      "inputs": [
        {
          "internalType": "uint16",
          "name": "_srcChainId",
          "type": "uint16"
        },
        {
          "internalType": "bytes",
          "name": "_path",
          "type": "bytes"
        }
      ],
      "name": "setTrustedRemote",
      "outputs": [],
      "stateMutability": "nonpayable",
      "type": "function"
    },
    {
      "inputs": [
        {
          "internalType": "uint16",
          "name": "_remoteChainId",
          "type": "uint16"
        },
        {
          "internalType": "bytes",
          "name": "_remoteAddress",
          "type": "bytes"
        }
      ],
      "name": "setTrustedRemoteAddress",
      "outputs": [],
      "stateMutability": "nonpayable",
      "type": "function"
    },
    {
      "inputs": [
        {
          "internalType": "bytes4",
          "name": "interfaceId",
          "type": "bytes4"
        }
      ],
      "name": "supportsInterface",
      "outputs": [
        {
          "internalType": "bool",
          "name": "",
          "type": "bool"
        }
      ],
      "stateMutability": "view",
      "type": "function"
    },
    {
      "inputs": [],
      "name": "token",
      "outputs": [
        {
          "internalType": "contract IERC721",
          "name": "",
          "type": "address"
        }
      ],
      "stateMutability": "view",
      "type": "function"
    },
    {
      "inputs": [
        {
          "internalType": "address",
          "name": "newOwner",
          "type": "address"
        }
      ],
      "name": "transferOwnership",
      "outputs": [],
      "stateMutability": "nonpayable",
      "type": "function"
    },
    {
      "inputs": [
        {
          "internalType": "uint16",
          "name": "",
          "type": "uint16"
        }
      ],
      "name": "trustedRemoteLookup",
      "outputs": [
        {
          "internalType": "bytes",
          "name": "",
          "type": "bytes"
        }
      ],
      "stateMutability": "view",
      "type": "function"
    }
  ],
  "bytecode": {
    "object": "0x60c080604052346200019a57604081620026b68038038091620000238285620001d1565b8339810103126200019a576200004760206200003f83620001f5565b9201620001f5565b60008054336001600160a01b03198216811783556001600160a01b0394859390928416907f8be0079c531659141344cd1fd0a4f28419497f9722a3daafe3b4186f6b6457e09080a3166080526200009e816200020a565b8062000187575b8062000175575b1562000125571660a0526040516123659081620003518239608051818181610352015281816104f6015281816105eb0152818161091901528181610a860152818161115c01528181611288015281816117e70152818161195f0152611c04015260a05181818161187301528181611a1f01526120430152f35b60405162461bcd60e51b815260206004820152602260248201527f50726f78794f4e46543732313a20696e76616c69642045524337323120746f6b60448201526132b760f11b6064820152608490fd5b5062000181816200031d565b620000ac565b506200019381620002e9565b15620000a5565b600080fd5b606081019081106001600160401b03821117620001bb57604052565b634e487b7160e01b600052604160045260246000fd5b601f909101601f19168101906001600160401b03821190821017620001bb57604052565b51906001600160a01b03821682036200019a57565b60405190602091828101906301ffc9a760e01b80835260248201526024815262000234816200019f565b600092839283925191617530fa903d15620002e0573d926001600160401b038411620002cc576040519362000273601f8201601f1916830186620001d1565b84523d828286013e5b835193818510620002c4578362000296575b505050905090565b81935080929481010312620002c0570151908115158203620002bd5750803880806200028e565b80fd5b8280fd5b505091505090565b634e487b7160e01b82526041600452602482fd5b6060926200027c565b6040516301ffc9a760e01b60208083019182526001600160e01b03196024808501919091528352929162000234816200019f565b6040516301ffc9a760e01b60208083019182526380ac58cd60e01b6024808501919091528352929162000234816200019f56fe60806040526004361015610013575b600080fd5b60003560e01c80621d35671461026a57806301ffc9a71461026157806307e0db17146102585780630df374831461024f57806310ddb13714610246578063150b7a021461023d5780632a205e3d146102345780633d8b38f61461022b5780633f1f4fa41461022257806342d65a8d1461021957806351905636146102105780635b8c41e61461020757806366ad5c8a146101fe578063715018a6146101f55780637533d788146101ec5780638cfd8f5c146101e35780638da5cb5b146101da578063950c8a74146101d15780639f38369a146101c8578063a6c3d165146101bf578063b353aaa7146101b6578063baf3292d146101ad578063c4461834146101a4578063cbed8b9c1461019b578063d1deba1f14610192578063df2a5b3b14610189578063eb8d72b714610180578063f2fde38b14610177578063f5ecbdbc1461016e5763fc0c546a1461016657600080fd5b61000e61185c565b5061000e611781565b5061000e6116e6565b5061000e611581565b5061000e61148e565b5061000e61132a565b5061000e611227565b5061000e611209565b5061000e61118b565b5061000e611145565b5061000e610fa7565b5061000e610ef4565b5061000e610eca565b5061000e610ea0565b5061000e610e4c565b5061000e610e02565b5061000e610c8c565b5061000e610bfa565b5061000e610b53565b5061000e610979565b5061000e6108ec565b5061000e6108b6565b5061000e61086a565b5061000e6107ac565b5061000e610745565b5061000e6105b7565b5061000e61056e565b5061000e6104c2565b5061000e610451565b5061000e61033a565b6004359061ffff8216820361000e57565b6024359061ffff8216820361000e57565b9181601f8401121561000e578235916001600160401b03831161000e576020838186019501011161000e57565b6001600160401b0381160361000e57565b90608060031983011261000e5760043561ffff8116810361000e57916001600160401b039060243582811161000e578161030f91600401610295565b9390939260443561031f816102c2565b9260643591821161000e5761033691600401610295565b9091565b503461000e57610349366102d3565b929493919291907f00000000000000000000000000000000000000000000000000000000000000006001600160a01b0316330361040c576103cf6103d7926103dd976103c86103ae6103a98a61ffff166000526001602052604060002090565b610d26565b8051908184149182610402575b50816103df575b50611b1e565b36916106f0565b9236916106f0565b92611e7d565b005b90506103ec3684866106f0565b60208151910120906020815191012014386103c2565b15159150386103bb565b60405162461bcd60e51b815260206004820152601e60248201527f4c7a4170703a20696e76616c696420656e64706f696e742063616c6c657200006044820152606490fd5b503461000e57602036600319011261000e5760043563ffffffff60e01b811680910361000e57602090630a85bd0160e11b8114908115610497575b506040519015158152f35b637bb0080b60e01b8114915081156104b1575b503861048c565b6301ffc9a760e01b149050386104aa565b503461000e576000602036600319011261056b576104de610273565b8160018060a01b036104f4818354163314611d8b565b7f00000000000000000000000000000000000000000000000000000000000000001691823b1561056757602461ffff918360405195869485936307e0db1760e01b85521660048401525af1801561055a575b61054e575080f35b6105579061066a565b80f35b6105626118d4565b610546565b5080fd5b80fd5b503461000e57604036600319011261000e5761ffff61058b610273565b6105a060018060a01b03600054163314611d8b565b166000526003602052602435604060002055600080f35b503461000e576000602036600319011261056b576105d3610273565b8160018060a01b036105e9818354163314611d8b565b7f00000000000000000000000000000000000000000000000000000000000000001691823b1561056757602461ffff918360405195869485936310ddb13760e01b85521660048401525af1801561055a5761054e575080f35b6001600160a01b0381160361000e57565b50634e487b7160e01b600052604160045260246000fd5b6001600160401b03811161067d57604052565b610685610653565b604052565b60c081019081106001600160401b0382111761067d57604052565b90601f801991011681019081106001600160401b0382111761067d57604052565b6020906001600160401b0381116106e3575b601f01601f19160190565b6106eb610653565b6106d8565b9291926106fc826106c6565b9161070a60405193846106a5565b82948184528183011161000e578281602093846000960137010152565b9080601f8301121561000e57816020610742933591016106f0565b90565b503461000e57608036600319011261000e5760043561076381610642565b61076e602435610642565b6064356001600160401b03811161000e57602091610793610799923690600401610727565b50611afd565b6040516001600160e01b03199091168152f35b503461000e5760a036600319011261000e576107c6610273565b6001600160401b039060243582811161000e576107e7903690600401610727565b9060643590811515820361000e5760843593841161000e5761081061081a943690600401610727565b92604435916118e1565b60408051928352602083019190915290f35b0390f35b90604060031983011261000e5760043561ffff8116810361000e5791602435906001600160401b03821161000e5761033691600401610295565b503461000e57602061ffff6108a761088136610830565b93909116600052600184526108996040600020610d26565b8481519101209236916106f0565b82815191012014604051908152f35b503461000e57602036600319011261000e5761ffff6108d3610273565b1660005260036020526020604060002054604051908152f35b503461000e576108fb36610830565b9190600092839160018060a01b03610917818554163314611d8b565b7f00000000000000000000000000000000000000000000000000000000000000001690813b15610975578361096395604051968795869485936342d65a8d60e01b855260048501611df7565b03925af1801561055a5761054e575080f35b8380fd5b5060e036600319011261000e5760043561099281610642565b61099a610284565b6001600160401b03919060443583811161000e576109bc903690600401610727565b9260643591608435906109ce82610642565b60a4356109da81610642565b60c43593841161000e578461ffff93610a5392610a1c7f024797cc77ce15dc717112d54fb1df125fdfd8c81344fb046c5e074427ce1543973690600401610727565b91610a27848b611a0c565b610a4b8b610a3d604051968792602084016118a2565b03601f1981018652856106a5565b349386611bd1565b604051630f428ae960e31b815261ffff821660048201523060248201526001600160a01b0396610aea91906020826044817f00000000000000000000000000000000000000000000000000000000000000008d165afa918215610b23575b600092610aef575b50610ac3906119ec565b9760405194859416971695839092916001600160401b036020916040840195845216910152565b0390a4005b610ac3919250610b159060203d8111610b1c575b610b0d81836106a5565b8101906119d7565b9190610ab9565b503d610b03565b610b2b6118d4565b610ab1565b60005b838110610b435750506000910152565b8181015183820152602001610b33565b503461000e57606036600319011261000e57610b6d610273565b6024356001600160401b03811161000e5761082c91610bc86020610b98610be9943690600401610727565b61ffff60443594610ba8866102c2565b166000526005825260406000208260405194838680955193849201610b30565b820190815203019020906001600160401b0316600052602052604060002090565b546040519081529081906020820190565b503461000e57610c09366102d3565b9192949390303303610c2d576103cf610c27926103dd9736916106f0565b92611ffa565b60405162461bcd60e51b815260206004820152602660248201527f4e6f6e626c6f636b696e674c7a4170703a2063616c6c6572206d7573742062656044820152650204c7a4170760d41b6064820152608490fd5b600091031261000e57565b503461000e5760008060031936011261056b57805481906001600160a01b03811690610cb9338314611d8b565b6001600160a01b03191682557f8be0079c531659141344cd1fd0a4f28419497f9722a3daafe3b4186f6b6457e08280a380f35b90600182811c92168015610d1c575b6020831014610d0657565b634e487b7160e01b600052602260045260246000fd5b91607f1691610cfb565b9060405191826000825492610d3a84610cec565b908184526001948581169081600014610da95750600114610d66575b5050610d64925003836106a5565b565b9093915060005260209081600020936000915b818310610d91575050610d6493508201013880610d56565b85548884018501529485019487945091830191610d79565b915050610d6494506020925060ff191682840152151560051b8201013880610d56565b90602091610de581518092818552858086019101610b30565b601f01601f1916010190565b906020610742928181520190610dcc565b503461000e57602036600319011261000e5761ffff610e1f610273565b16600052600160205261082c610e386040600020610d26565b604051918291602083526020830190610dcc565b503461000e57604036600319011261000e576020610e97610e6b610273565b61ffff610e76610284565b91166000526002835260406000209061ffff16600052602052604060002090565b54604051908152f35b503461000e57600036600319011261000e576000546040516001600160a01b039091168152602090f35b503461000e57600036600319011261000e576004546040516001600160a01b039091168152602090f35b503461000e57602036600319011261000e5761ffff610f11610273565b166000526001602052610f276040600020610d26565b805115610f6257610f498161082c9251906013198201918211610f5557612268565b60405191829182610df1565b610f5d611e66565b612268565b60405162461bcd60e51b815260206004820152601d60248201527f4c7a4170703a206e6f20747275737465642070617468207265636f72640000006044820152606490fd5b503461000e57610fb636610830565b9190600091610fcf60018060a01b038454163314611d8b565b604051936020818482880137610ffa6034878481013060601b858201520360148101895201876106a5565b61ffff8316855260019081815260408620918751916001600160401b038311611138575b6110328361102c8654610cec565b86611e12565b80601f84116001146110a25750918080926110919695948a9b7f8c0400cfe2d1199b1a725c78960bcc2a344d869b80590d0f2bd005db15a572ce9b94611097575b50501b916000199060031b1c19161790555b60405193849384611df7565b0390a180f35b015192503880611073565b91939498601f1984166110ba87600052602060002090565b938a905b828210611121575050917f8c0400cfe2d1199b1a725c78960bcc2a344d869b80590d0f2bd005db15a572ce999a9593918561109198969410611108575b505050811b019055611085565b015160001960f88460031b161c191690553880806110fb565b8088869782949787015181550196019401906110be565b611140610653565b61101e565b503461000e57600036600319011261000e576040517f00000000000000000000000000000000000000000000000000000000000000006001600160a01b03168152602090f35b503461000e57602036600319011261000e577f5db758e995a17ec1ad84bdef7e8c3293a0bd6179bcce400dff5d4c3d87db726b60206004356111cc81610642565b6000546001600160a01b0391906111e69083163314611d8b565b16806bffffffffffffffffffffffff60a01b6004541617600455604051908152a1005b503461000e57600036600319011261000e5760206040516127108152f35b503461000e57608036600319011261000e57611241610273565b611249610284565b6064356001600160401b03811161000e57611268903690600401610295565b60018060a09493941b03916000948361128687958654163314611d8b565b7f00000000000000000000000000000000000000000000000000000000000000001691823b156113265784906112f3604051978896879586946332fb62e760e21b865261ffff80921660048701521660248501526044356044850152608060648501526084840191611dd6565b03925af18015611319575b611306575080f35b806113136105579261066a565b80610c81565b6113216118d4565b6112fe565b8480fd5b50611334366102d3565b9161ffff8694929616600052600560205261137b81604060002060206040518092878b833787820190815203019020906001600160401b0316600052602052604060002090565b5491821561143d5761142c84836114257fc264d91f3adc5588250e1551f547752ca0cfa8f6b530d243b9f9f4cab10ea8e59a6000611411846113f98e8a8f6114389f908f6113df906113d26113f39436908d6106f0565b6020815191012014612148565b61ffff166000526005602052604060002090565b9161212f565b906001600160401b0316600052602052604060002090565b5561141d36878d6106f0565b9336916106f0565b9188611ffa565b6040519586958661219e565b0390a1005b60405162461bcd60e51b815260206004820152602360248201527f4e6f6e626c6f636b696e674c7a4170703a206e6f2073746f726564206d65737360448201526261676560e81b6064820152608490fd5b503461000e57606036600319011261000e576114a8610273565b6114b0610284565b604435916114c960018060a01b03600054163314611d8b565b8215611544576114387f9d5c7c0b934da8fefa9c7760c98383778a12dfbfc0c3b3106518f43fb9508ac09361ffff831660005260026020528061151e8560406000209061ffff16600052602052604060002090565b556040519384938460409194939294606082019561ffff80921683521660208201520152565b60405162461bcd60e51b81526020600482015260156024820152744c7a4170703a20696e76616c6964206d696e47617360581b6044820152606490fd5b503461000e5761159036610830565b91906000916115a960018060a01b038454163314611d8b565b61ffff81168352600160209080825260408520916001600160401b0387116116d9575b6115e0876115da8554610cec565b85611e12565b8590601f88116001146116475750918680879893611091957ffa41487ad5d6728f0b19276fa1eddc16558578f5109fc39d2dc33c3230470dab999361163c575b501b906000198460031b1c191617905560405193849384611df7565b880135925038611620565b90601f19881661165c85600052602060002090565b9288905b8282106116c2575050918893917ffa41487ad5d6728f0b19276fa1eddc16558578f5109fc39d2dc33c3230470dab98996110919694106116a8575b505082811b019055611085565b870135600019600386901b60f8161c19169055388061169b565b808685968294968c01358155019501930190611660565b6116e1610653565b6115cc565b503461000e57602036600319011261000e5760043561170481610642565b6000546001600160a01b039061171d9082163314611d8b565b81161561172d576103dd906122e8565b60405162461bcd60e51b815260206004820152602660248201527f4f776e61626c653a206e6577206f776e657220697320746865207a65726f206160448201526564647265737360d01b6064820152608490fd5b503461000e57608036600319011261000e5761082c61179e610273565b6117a6610284565b906117b2604435610642565b604051633d7b2f6f60e21b815261ffff91821660048201529116602482015230604482015260648035908201526000816084817f00000000000000000000000000000000000000000000000000000000000000006001600160a01b03165afa90811561184f575b60009161182e575b5060405191829182610df1565b611849913d8091833e61184181836106a5565b810190611d66565b38611821565b6118576118d4565b611819565b503461000e57600036600319011261000e576040517f00000000000000000000000000000000000000000000000000000000000000006001600160a01b03168152602090f35b9291906118b9602091604086526040860190610dcc565b930152565b919082604091031261000e576020825192015190565b506040513d6000823e3d90fd5b9060409361ffff93969561191161195b9361190388519a8b92602084016118a2565b03601f1981018a52896106a5565b6119428651988996879663040a7bb160e41b885216600487015230602487015260a0604487015260a4860190610dcc565b9115156064850152838203600319016084850152610dcc565b03817f00000000000000000000000000000000000000000000000000000000000000006001600160a01b03165afa9182156119ca575b600090819361199f57509190565b905061033691925060403d81116119c3575b6119bb81836106a5565b8101906118be565b503d6119b1565b6119d26118d4565b611991565b9081602091031261000e5751610742816102c2565b611a0490602060405192828480945193849201610b30565b810103902090565b6001600160a01b033382821603611aa9577f00000000000000000000000000000000000000000000000000000000000000001691823b1561000e57604051632142170760e11b81526001600160a01b0390921660048301523060248301526044820152906000908290818381606481015b03925af18015611a9c575b611a8f5750565b80611313610d649261066a565b611aa46118d4565b611a88565b60405162461bcd60e51b815260206004820152602660248201527f50726f78794f4e46543732313a206f776e6572206973206e6f742073656e642060448201526531b0b63632b960d11b6064820152608490fd5b306001600160a01b0390911603611b1957630a85bd0160e11b90565b600090565b15611b2557565b60405162461bcd60e51b815260206004820152602660248201527f4c7a4170703a20696e76616c696420736f757263652073656e64696e6720636f6044820152651b9d1c9858dd60d21b6064820152608490fd5b92611b9e61074297959361ffff611bac9416865260c0602087015260c0860190610dcc565b908482036040860152610dcc565b6001600160a01b0391821660608401529316608082015280830360a090910152610dcc565b9092919461ffff82166000526001602052611bef6040600020610d26565b91825115611c5757611c02855182611cb5565b7f00000000000000000000000000000000000000000000000000000000000000006001600160a01b031693843b1561000e57600096611a7d91604051998a988997889662c5803160e81b885260048801611b79565b60405162461bcd60e51b815260206004820152603060248201527f4c7a4170703a2064657374696e6174696f6e20636861696e206973206e6f742060448201526f61207472757374656420736f7572636560801b6064820152608490fd5b61ffff166000526003602052604060002054908115611d1a575b11611cd657565b606460405162461bcd60e51b815260206004820152602060248201527f4c7a4170703a207061796c6f61642073697a6520697320746f6f206c617267656044820152fd5b6127109150611ccf565b81601f8201121561000e578051611d3a816106c6565b92611d4860405194856106a5565b8184526020828401011161000e576107429160208085019101610b30565b9060208282031261000e5781516001600160401b03811161000e576107429201611d24565b15611d9257565b606460405162461bcd60e51b815260206004820152602060248201527f4f776e61626c653a2063616c6c6572206973206e6f7420746865206f776e65726044820152fd5b908060209392818452848401376000828201840152601f01601f1916010190565b60409061ffff61074295931681528160208201520191611dd6565b90601f8111611e2057505050565b600091825260208220906020601f850160051c83019410611e5c575b601f0160051c01915b828110611e5157505050565b818155600101611e45565b9092508290611e3c565b50634e487b7160e01b600052601160045260246000fd5b9290915a604051633356ae4560e11b6020820190815261ffff87166024830152608060448301529491611ee982611edb611eba60a4830187610dcc565b6001600160401b038816606484015282810360231901608484015288610dcc565b03601f1981018452836106a5565b6000809160405197611efa8961068a565b609689528260208a019560a036883751923090f1903d9060968211611f41575b6000908288523e15611f2e575b5050505050565b611f3794611f4a565b3880808080611f27565b60969150611f1a565b9193611fe77fe183f33de2837795525b4792ca4cd60535bd77c53b7e7030060bfcf5734d6b0c95611ff5939561ffff81516020830120961695866000526005602052611fae83610bc860208b60406000208260405194838680955193849201610b30565b556001600160401b03611fd3604051988998895260a060208a015260a0890190610dcc565b921660408701528582036060870152610dcc565b908382036080850152610dcc565b0390a1565b92908151820160408382031261000e5760208301516001600160401b03811161000e576120336040916020806014950191870101611d24565b9301519201516001600160a01b037f0000000000000000000000000000000000000000000000000000000000000000811692909190833b1561000e57604051632142170760e11b81523060048201526001600160a01b0383166024820152604481018690527f64e10c37f404d128982dce114f5d233c14c5c7f6d8db93099e3d99dacb9e27ba9461210e926120e49290916000908290606490829084905af18015612122575b612113575b506119ec565b9561ffff60405194859416981695839092916001600160401b036020916040840195845216910152565b0390a4565b61211c9061066a565b386120de565b61212a6118d4565b6120d9565b6020919283604051948593843782019081520301902090565b1561214f57565b60405162461bcd60e51b815260206004820152602160248201527f4e6f6e626c6f636b696e674c7a4170703a20696e76616c6964207061796c6f616044820152601960fa1b6064820152608490fd5b916121ca9060609461ffff6001600160401b039499989799168552608060208601526080850191611dd6565b951660408201520152565b90601f82018092116121e357565b610d64611e66565b156121f257565b60405162461bcd60e51b815260206004820152600e60248201526d736c6963655f6f766572666c6f7760901b6044820152606490fd5b1561222f57565b60405162461bcd60e51b8152602060048201526011602482015270736c6963655f6f75744f66426f756e647360781b6044820152606490fd5b61227c82612275816121d5565b10156121eb565b6122898282511015612228565b816122a1575050604051600081526020810160405290565b60405191601f811691821560051b808486010193838501920101905b8084106122d55750508252601f01601f191660405290565b90928351815260208091019301906122bd565b600080546001600160a01b039283166001600160a01b03198216811783559216907f8be0079c531659141344cd1fd0a4f28419497f9722a3daafe3b4186f6b6457e09080a356fea2646970667358221220a742379f413b7d4cba5f00e0e440aae45b22ff89a86f71809208e08e4346345e64736f6c63430008110033",
    "linkReferences": {}
  },
  "methodIdentifiers": {
    "DEFAULT_PAYLOAD_SIZE_LIMIT()": "c4461834",
    "estimateSendFee(uint16,bytes,uint256,bool,bytes)": "2a205e3d",
    "failedMessages(uint16,bytes,uint64)": "5b8c41e6",
    "forceResumeReceive(uint16,bytes)": "42d65a8d",
    "getConfig(uint16,uint16,address,uint256)": "f5ecbdbc",
    "getTrustedRemoteAddress(uint16)": "9f38369a",
    "isTrustedRemote(uint16,bytes)": "3d8b38f6",
    "lzEndpoint()": "b353aaa7",
    "lzReceive(uint16,bytes,uint64,bytes)": "001d3567",
    "minDstGasLookup(uint16,uint16)": "8cfd8f5c",
    "nonblockingLzReceive(uint16,bytes,uint64,bytes)": "66ad5c8a",
    "onERC721Received(address,address,uint256,bytes)": "150b7a02",
    "owner()": "8da5cb5b",
    "payloadSizeLimitLookup(uint16)": "3f1f4fa4",
    "precrime()": "950c8a74",
    "renounceOwnership()": "715018a6",
    "retryMessage(uint16,bytes,uint64,bytes)": "d1deba1f",
    "sendFrom(address,uint16,bytes,uint256,address,address,bytes)": "51905636",
    "setConfig(uint16,uint16,uint256,bytes)": "cbed8b9c",
    "setMinDstGas(uint16,uint16,uint256)": "df2a5b3b",
    "setPayloadSizeLimit(uint16,uint256)": "0df37483",
    "setPrecrime(address)": "baf3292d",
    "setReceiveVersion(uint16)": "10ddb137",
    "setSendVersion(uint16)": "07e0db17",
    "setTrustedRemote(uint16,bytes)": "eb8d72b7",
    "setTrustedRemoteAddress(uint16,bytes)": "a6c3d165",
    "supportsInterface(bytes4)": "01ffc9a7",
    "token()": "fc0c546a",
    "transferOwnership(address)": "f2fde38b",
    "trustedRemoteLookup(uint16)": "7533d788"
  },
  "id": 179
}