{
  "abi": [
    {
      "inputs": [
        {
          "internalType": "address",
          "name": "_lzEndpoint",
          "type": "address"
        },
        {
          "internalType": "address",
          "name": "_proxyToken",
          "type": "address"
        }
      ],
      "stateMutability": "nonpayable",
      "type": "constructor"
    },
    {
      "anonymous": false,
      "inputs": [
        {
          "indexed": false,
          "internalType": "bytes32",
          "name": "_hashedPayload",
          "type": "bytes32"
        }
      ],
      "name": "CreditCleared",
      "type": "event"
    },
    {
      "anonymous": false,
      "inputs": [
        {
          "indexed": false,
          "internalType": "bytes32",
          "name": "_hashedPayload",
          "type": "bytes32"
        },
        {
          "indexed": false,
          "internalType": "bytes",
          "name": "_payload",
          "type": "bytes"
        }
      ],
      "name": "CreditStored",
      "type": "event"
    },
    {
      "anonymous": false,
      "inputs": [
        {
          "indexed": false,
          "internalType": "uint16",
          "name": "_srcChainId",
          "type": "uint16"
        },
        {
          "indexed": false,
          "internalType": "bytes",
          "name": "_srcAddress",
          "type": "bytes"
        },
        {
          "indexed": false,
          "internalType": "uint64",
          "name": "_nonce",
          "type": "uint64"
        },
        {
          "indexed": false,
          "internalType": "bytes",
          "name": "_payload",
          "type": "bytes"
        },
        {
          "indexed": false,
          "internalType": "bytes",
          "name": "_reason",
          "type": "bytes"
        }
      ],
      "name": "MessageFailed",
      "type": "event"
    },
    {
      "anonymous": false,
      "inputs": [
        {
          "indexed": true,
          "internalType": "address",
          "name": "previousOwner",
          "type": "address"
        },
        {
          "indexed": true,
          "internalType": "address",
          "name": "newOwner",
          "type": "address"
        }
      ],
      "name": "OwnershipTransferred",
      "type": "event"
    },
    {
      "anonymous": false,
      "inputs": [
        {
          "indexed": true,
          "internalType": "uint16",
          "name": "_srcChainId",
          "type": "uint16"
        },
        {
          "indexed": true,
          "internalType": "bytes",
          "name": "_srcAddress",
          "type": "bytes"
        },
        {
          "indexed": true,
          "internalType": "address",
          "name": "_toAddress",
          "type": "address"
        },
        {
          "indexed": false,
          "internalType": "uint256[]",
          "name": "_tokenIds",
          "type": "uint256[]"
        }
      ],
      "name": "ReceiveFromChain",
      "type": "event"
    },
    {
      "anonymous": false,
      "inputs": [
        {
          "indexed": false,
          "internalType": "uint16",
          "name": "_srcChainId",
          "type": "uint16"
        },
        {
          "indexed": false,
          "internalType": "bytes",
          "name": "_srcAddress",
          "type": "bytes"
        },
        {
          "indexed": false,
          "internalType": "uint64",
          "name": "_nonce",
          "type": "uint64"
        },
        {
          "indexed": false,
          "internalType": "bytes32",
          "name": "_payloadHash",
          "type": "bytes32"
        }
      ],
      "name": "RetryMessageSuccess",
      "type": "event"
    },
    {
      "anonymous": false,
      "inputs": [
        {
          "indexed": true,
          "internalType": "uint16",
          "name": "_dstChainId",
          "type": "uint16"
        },
        {
          "indexed": true,
          "internalType": "address",
          "name": "_from",
          "type": "address"
        },
        {
          "indexed": true,
          "internalType": "bytes",
          "name": "_toAddress",
          "type": "bytes"
        },
        {
          "indexed": false,
          "internalType": "uint256[]",
          "name": "_tokenIds",
          "type": "uint256[]"
        }
      ],
      "name": "SendToChain",
      "type": "event"
    },
    {
      "anonymous": false,
      "inputs": [
        {
          "indexed": false,
          "internalType": "uint16",
          "name": "_dstChainId",
          "type": "uint16"
        },
        {
          "indexed": false,
          "internalType": "uint16",
          "name": "_type",
          "type": "uint16"
        },
        {
          "indexed": false,
          "internalType": "uint256",
          "name": "_minDstGas",
          "type": "uint256"
        }
      ],
      "name": "SetMinDstGas",
      "type": "event"
    },
    {
      "anonymous": false,
      "inputs": [
        {
          "indexed": false,
          "internalType": "address",
          "name": "precrime",
          "type": "address"
        }
      ],
      "name": "SetPrecrime",
      "type": "event"
    },
    {
      "anonymous": false,
      "inputs": [
        {
          "indexed": false,
          "internalType": "uint16",
          "name": "_remoteChainId",
          "type": "uint16"
        },
        {
          "indexed": false,
          "internalType": "bytes",
          "name": "_path",
          "type": "bytes"
        }
      ],
      "name": "SetTrustedRemote",
      "type": "event"
    },
    {
      "anonymous": false,
      "inputs": [
        {
          "indexed": false,
          "internalType": "uint16",
          "name": "_remoteChainId",
          "type": "uint16"
        },
        {
          "indexed": false,
          "internalType": "bytes",
          "name": "_remoteAddress",
          "type": "bytes"
        }
      ],
      "name": "SetTrustedRemoteAddress",
      "type": "event"
    },
    {
      "inputs": [],
      "name": "DEFAULT_PAYLOAD_SIZE_LIMIT",
      "outputs": [
        {
          "internalType": "uint256",
          "name": "",
          "type": "uint256"
        }
      ],
      "stateMutability": "view",
      "type": "function"
    },
    {
      "inputs": [],
      "name": "FUNCTION_TYPE_SEND",
      "outputs": [
        {
          "internalType": "uint16",
          "name": "",
          "type": "uint16"
        }
      ],
      "stateMutability": "view",
      "type": "function"
    },
    {
      "inputs": [
        {
          "internalType": "bytes",
          "name": "_payload",
          "type": "bytes"
        }
      ],
      "name": "clearCredits",
      "outputs": [],
      "stateMutability": "nonpayable",
      "type": "function"
    },
    {
      "inputs": [
        {
          "internalType": "uint16",
          "name": "",
          "type": "uint16"
        }
      ],
      "name": "dstChainIdToBatchLimit",
      "outputs": [
        {
          "internalType": "uint256",
          "name": "",
          "type": "uint256"
        }
      ],
      "stateMutability": "view",
      "type": "function"
    },
    {
      "inputs": [
        {
          "internalType": "uint16",
          "name": "",
          "type": "uint16"
        }
      ],
      "name": "dstChainIdToTransferGas",
      "outputs": [
        {
          "internalType": "uint256",
          "name": "",
          "type": "uint256"
        }
      ],
      "stateMutability": "view",
      "type": "function"
    },
    {
      "inputs": [
        {
          "internalType": "uint16",
          "name": "_dstChainId",
          "type": "uint16"
        },
        {
          "internalType": "bytes",
          "name": "_toAddress",
          "type": "bytes"
        },
        {
          "internalType": "uint256[]",
          "name": "_tokenIds",
          "type": "uint256[]"
        },
        {
          "internalType": "bool",
          "name": "_useZro",
          "type": "bool"
        },
        {
          "internalType": "bytes",
          "name": "_adapterParams",
          "type": "bytes"
        }
      ],
      "name": "estimateSendBatchFee",
      "outputs": [
        {
          "internalType": "uint256",
          "name": "nativeFee",
          "type": "uint256"
        },
        {
          "internalType": "uint256",
          "name": "zroFee",
          "type": "uint256"
        }
      ],
      "stateMutability": "view",
      "type": "function"
    },
    {
      "inputs": [
        {
          "internalType": "uint16",
          "name": "_dstChainId",
          "type": "uint16"
        },
        {
          "internalType": "bytes",
          "name": "_toAddress",
          "type": "bytes"
        },
        {
          "internalType": "uint256",
          "name": "_tokenId",
          "type": "uint256"
        },
        {
          "internalType": "bool",
          "name": "_useZro",
          "type": "bool"
        },
        {
          "internalType": "bytes",
          "name": "_adapterParams",
          "type": "bytes"
        }
      ],
      "name": "estimateSendFee",
      "outputs": [
        {
          "internalType": "uint256",
          "name": "nativeFee",
          "type": "uint256"
        },
        {
          "internalType": "uint256",
          "name": "zroFee",
          "type": "uint256"
        }
      ],
      "stateMutability": "view",
      "type": "function"
    },
    {
      "inputs": [
        {
          "internalType": "uint16",
          "name": "",
          "type": "uint16"
        },
        {
          "internalType": "bytes",
          "name": "",
          "type": "bytes"
        },
        {
          "internalType": "uint64",
          "name": "",
          "type": "uint64"
        }
      ],
      "name": "failedMessages",
      "outputs": [
        {
          "internalType": "bytes32",
          "name": "",
          "type": "bytes32"
        }
      ],
      "stateMutability": "view",
      "type": "function"
    },
    {
      "inputs": [
        {
          "internalType": "uint16",
          "name": "_srcChainId",
          "type": "uint16"
        },
        {
          "internalType": "bytes",
          "name": "_srcAddress",
          "type": "bytes"
        }
      ],
      "name": "forceResumeReceive",
      "outputs": [],
      "stateMutability": "nonpayable",
      "type": "function"
    },
    {
      "inputs": [
        {
          "internalType": "uint16",
          "name": "_version",
          "type": "uint16"
        },
        {
          "internalType": "uint16",
          "name": "_chainId",
          "type": "uint16"
        },
        {
          "internalType": "address",
          "name": "",
          "type": "address"
        },
        {
          "internalType": "uint256",
          "name": "_configType",
          "type": "uint256"
        }
      ],
      "name": "getConfig",
      "outputs": [
        {
          "internalType": "bytes",
          "name": "",
          "type": "bytes"
        }
      ],
      "stateMutability": "view",
      "type": "function"
    },
    {
      "inputs": [
        {
          "internalType": "uint16",
          "name": "_remoteChainId",
          "type": "uint16"
        }
      ],
      "name": "getTrustedRemoteAddress",
      "outputs": [
        {
          "internalType": "bytes",
          "name": "",
          "type": "bytes"
        }
      ],
      "stateMutability": "view",
      "type": "function"
    },
    {
      "inputs": [
        {
          "internalType": "uint16",
          "name": "_srcChainId",
          "type": "uint16"
        },
        {
          "internalType": "bytes",
          "name": "_srcAddress",
          "type": "bytes"
        }
      ],
      "name": "isTrustedRemote",
      "outputs": [
        {
          "internalType": "bool",
          "name": "",
          "type": "bool"
        }
      ],
      "stateMutability": "view",
      "type": "function"
    },
    {
      "inputs": [],
      "name": "lzEndpoint",
      "outputs": [
        {
          "internalType": "contract ILayerZeroEndpoint",
          "name": "",
          "type": "address"
        }
      ],
      "stateMutability": "view",
      "type": "function"
    },
    {
      "inputs": [
        {
          "internalType": "uint16",
          "name": "_srcChainId",
          "type": "uint16"
        },
        {
          "internalType": "bytes",
          "name": "_srcAddress",
          "type": "bytes"
        },
        {
          "internalType": "uint64",
          "name": "_nonce",
          "type": "uint64"
        },
        {
          "internalType": "bytes",
          "name": "_payload",
          "type": "bytes"
        }
      ],
      "name": "lzReceive",
      "outputs": [],
      "stateMutability": "nonpayable",
      "type": "function"
    },
    {
      "inputs": [
        {
          "internalType": "uint16",
          "name": "",
          "type": "uint16"
        },
        {
          "internalType": "uint16",
          "name": "",
          "type": "uint16"
        }
      ],
      "name": "minDstGasLookup",
      "outputs": [
        {
          "internalType": "uint256",
          "name": "",
          "type": "uint256"
        }
      ],
      "stateMutability": "view",
      "type": "function"
    },
    {
      "inputs": [],
      "name": "minGasToTransferAndStore",
      "outputs": [
        {
          "internalType": "uint256",
          "name": "",
          "type": "uint256"
        }
      ],
      "stateMutability": "view",
      "type": "function"
    },
    {
      "inputs": [
        {
          "internalType": "uint16",
          "name": "_srcChainId",
          "type": "uint16"
        },
        {
          "internalType": "bytes",
          "name": "_srcAddress",
          "type": "bytes"
        },
        {
          "internalType": "uint64",
          "name": "_nonce",
          "type": "uint64"
        },
        {
          "internalType": "bytes",
          "name": "_payload",
          "type": "bytes"
        }
      ],
      "name": "nonblockingLzReceive",
      "outputs": [],
      "stateMutability": "nonpayable",
      "type": "function"
    },
    {
      "inputs": [
        {
          "internalType": "address",
          "name": "_operator",
          "type": "address"
        },
        {
          "internalType": "address",
          "name": "",
          "type": "address"
        },
        {
          "internalType": "uint256",
          "name": "",
          "type": "uint256"
        },
        {
          "internalType": "bytes",
          "name": "",
          "type": "bytes"
        }
      ],
      "name": "onERC721Received",
      "outputs": [
        {
          "internalType": "bytes4",
          "name": "",
          "type": "bytes4"
        }
      ],
      "stateMutability": "nonpayable",
      "type": "function"
    },
    {
      "inputs": [],
      "name": "owner",
      "outputs": [
        {
          "internalType": "address",
          "name": "",
          "type": "address"
        }
      ],
      "stateMutability": "view",
      "type": "function"
    },
    {
      "inputs": [
        {
          "internalType": "uint16",
          "name": "",
          "type": "uint16"
        }
      ],
      "name": "payloadSizeLimitLookup",
      "outputs": [
        {
          "internalType": "uint256",
          "name": "",
          "type": "uint256"
        }
      ],
      "stateMutability": "view",
      "type": "function"
    },
    {
      "inputs": [],
      "name": "precrime",
      "outputs": [
        {
          "internalType": "address",
          "name": "",
          "type": "address"
        }
      ],
      "stateMutability": "view",
      "type": "function"
    },
    {
      "inputs": [],
      "name": "renounceOwnership",
      "outputs": [],
      "stateMutability": "nonpayable",
      "type": "function"
    },
    {
      "inputs": [
        {
          "internalType": "uint16",
          "name": "_srcChainId",
          "type": "uint16"
        },
        {
          "internalType": "bytes",
          "name": "_srcAddress",
          "type": "bytes"
        },
        {
          "internalType": "uint64",
          "name": "_nonce",
          "type": "uint64"
        },
        {
          "internalType": "bytes",
          "name": "_payload",
          "type": "bytes"
        }
      ],
      "name": "retryMessage",
      "outputs": [],
      "stateMutability": "payable",
      "type": "function"
    },
    {
      "inputs": [
        {
          "internalType": "address",
          "name": "_from",
          "type": "address"
        },
        {
          "internalType": "uint16",
          "name": "_dstChainId",
          "type": "uint16"
        },
        {
          "internalType": "bytes",
          "name": "_toAddress",
          "type": "bytes"
        },
        {
          "internalType": "uint256[]",
          "name": "_tokenIds",
          "type": "uint256[]"
        },
        {
          "internalType": "address payable",
          "name": "_refundAddress",
          "type": "address"
        },
        {
          "internalType": "address",
          "name": "_zroPaymentAddress",
          "type": "address"
        },
        {
          "internalType": "bytes",
          "name": "_adapterParams",
          "type": "bytes"
        }
      ],
      "name": "sendBatchFrom",
      "outputs": [],
      "stateMutability": "payable",
      "type": "function"
    },
    {
      "inputs": [
        {
          "internalType": "address",
          "name": "_from",
          "type": "address"
        },
        {
          "internalType": "uint16",
          "name": "_dstChainId",
          "type": "uint16"
        },
        {
          "internalType": "bytes",
          "name": "_toAddress",
          "type": "bytes"
        },
        {
          "internalType": "uint256",
          "name": "_tokenId",
          "type": "uint256"
        },
        {
          "internalType": "address payable",
          "name": "_refundAddress",
          "type": "address"
        },
        {
          "internalType": "address",
          "name": "_zroPaymentAddress",
          "type": "address"
        },
        {
          "internalType": "bytes",
          "name": "_adapterParams",
          "type": "bytes"
        }
      ],
      "name": "sendFrom",
      "outputs": [],
      "stateMutability": "payable",
      "type": "function"
    },
    {
      "inputs": [
        {
          "internalType": "uint16",
          "name": "_version",
          "type": "uint16"
        },
        {
          "internalType": "uint16",
          "name": "_chainId",
          "type": "uint16"
        },
        {
          "internalType": "uint256",
          "name": "_configType",
          "type": "uint256"
        },
        {
          "internalType": "bytes",
          "name": "_config",
          "type": "bytes"
        }
      ],
      "name": "setConfig",
      "outputs": [],
      "stateMutability": "nonpayable",
      "type": "function"
    },
    {
      "inputs": [
        {
          "internalType": "uint16",
          "name": "_dstChainId",
          "type": "uint16"
        },
        {
          "internalType": "uint256",
          "name": "_dstChainIdToBatchLimit",
          "type": "uint256"
        }
      ],
      "name": "setDstChainIdToBatchLimit",
      "outputs": [],
      "stateMutability": "nonpayable",
      "type": "function"
    },
    {
      "inputs": [
        {
          "internalType": "uint16",
          "name": "_dstChainId",
          "type": "uint16"
        },
        {
          "internalType": "uint256",
          "name": "_dstChainIdToTransferGas",
          "type": "uint256"
        }
      ],
      "name": "setDstChainIdToTransferGas",
      "outputs": [],
      "stateMutability": "nonpayable",
      "type": "function"
    },
    {
      "inputs": [
        {
          "internalType": "uint16",
          "name": "_dstChainId",
          "type": "uint16"
        },
        {
          "internalType": "uint16",
          "name": "_packetType",
          "type": "uint16"
        },
        {
          "internalType": "uint256",
          "name": "_minGas",
          "type": "uint256"
        }
      ],
      "name": "setMinDstGas",
      "outputs": [],
      "stateMutability": "nonpayable",
      "type": "function"
    },
    {
      "inputs": [
        {
          "internalType": "uint256",
          "name": "_minGasToTransferAndStore",
          "type": "uint256"
        }
      ],
      "name": "setMinGasToTransferAndStore",
      "outputs": [],
      "stateMutability": "nonpayable",
      "type": "function"
    },
    {
      "inputs": [
        {
          "internalType": "uint16",
          "name": "_dstChainId",
          "type": "uint16"
        },
        {
          "internalType": "uint256",
          "name": "_size",
          "type": "uint256"
        }
      ],
      "name": "setPayloadSizeLimit",
      "outputs": [],
      "stateMutability": "nonpayable",
      "type": "function"
    },
    {
      "inputs": [
        {
          "internalType": "address",
          "name": "_precrime",
          "type": "address"
        }
      ],
      "name": "setPrecrime",
      "outputs": [],
      "stateMutability": "nonpayable",
      "type": "function"
    },
    {
      "inputs": [
        {
          "internalType": "uint16",
          "name": "_version",
          "type": "uint16"
        }
      ],
      "name": "setReceiveVersion",
      "outputs": [],
      "stateMutability": "nonpayable",
      "type": "function"
    },
    {
      "inputs": [
        {
          "internalType": "uint16",
          "name": "_version",
          "type": "uint16"
        }
      ],
      "name": "setSendVersion",
      "outputs": [],
      "stateMutability": "nonpayable",
      "type": "function"
    },
    {
      "inputs": [
        {
          "internalType": "uint16",
          "name": "_srcChainId",
          "type": "uint16"
        },
        {
          "internalType": "bytes",
          "name": "_path",
          "type": "bytes"
        }
      ],
      "name": "setTrustedRemote",
      "outputs": [],
      "stateMutability": "nonpayable",
      "type": "function"
    },
    {
      "inputs": [
        {
          "internalType": "uint16",
          "name": "_remoteChainId",
          "type": "uint16"
        },
        {
          "internalType": "bytes",
          "name": "_remoteAddress",
          "type": "bytes"
        }
      ],
      "name": "setTrustedRemoteAddress",
      "outputs": [],
      "stateMutability": "nonpayable",
      "type": "function"
    },
    {
      "inputs": [
        {
          "internalType": "bytes32",
          "name": "",
          "type": "bytes32"
        }
      ],
      "name": "storedCredits",
      "outputs": [
        {
          "internalType": "uint16",
          "name": "srcChainId",
          "type": "uint16"
        },
        {
          "internalType": "address",
          "name": "toAddress",
          "type": "address"
        },
        {
          "internalType": "uint256",
          "name": "index",
          "type": "uint256"
        },
        {
          "internalType": "bool",
          "name": "creditsRemain",
          "type": "bool"
        }
      ],
      "stateMutability": "view",
      "type": "function"
    },
    {
      "inputs": [
        {
          "internalType": "bytes4",
          "name": "interfaceId",
          "type": "bytes4"
        }
      ],
      "name": "supportsInterface",
      "outputs": [
        {
          "internalType": "bool",
          "name": "",
          "type": "bool"
        }
      ],
      "stateMutability": "view",
      "type": "function"
    },
    {
      "inputs": [],
      "name": "token",
      "outputs": [
        {
          "internalType": "contract IERC721",
          "name": "",
          "type": "address"
        }
      ],
      "stateMutability": "view",
      "type": "function"
    },
    {
      "inputs": [
        {
          "internalType": "address",
          "name": "newOwner",
          "type": "address"
        }
      ],
      "name": "transferOwnership",
      "outputs": [],
      "stateMutability": "nonpayable",
      "type": "function"
    },
    {
      "inputs": [
        {
          "internalType": "uint16",
          "name": "",
          "type": "uint16"
        }
      ],
      "name": "trustedRemoteLookup",
      "outputs": [
        {
          "internalType": "bytes",
          "name": "",
          "type": "bytes"
        }
      ],
      "stateMutability": "view",
      "type": "function"
    }
  ],
  "bytecode": {
    "object": "0x60c06040523480156200001157600080fd5b5060405162003a4638038062003a468339810160408190526200003491620002ad565b62030d40828080620000463362000154565b6001600160a01b03166080525081620000bc5760405162461bcd60e51b815260206004820152602d60248201527f4f4e46543732313a206d696e476173546f5472616e73666572416e6453746f7260448201526c065206d757374206265203e203609c1b60648201526084015b60405180910390fd5b50600655620000e86001600160a01b0382166380ac58cd60e01b620001a4602090811b62001ab617901c565b620001415760405162461bcd60e51b815260206004820152602260248201527f50726f78794f4e46543732313a20696e76616c69642045524337323120746f6b60448201526132b760f11b6064820152608401620000b3565b6001600160a01b031660a05250620002e5565b600080546001600160a01b038381166001600160a01b0319831681178455604051919092169283917f8be0079c531659141344cd1fd0a4f28419497f9722a3daafe3b4186f6b6457e09190a35050565b6000620001b183620001cc565b8015620001c55750620001c5838362000205565b9392505050565b6000620001e1826301ffc9a760e01b62000205565b8015620001ff5750620001fd826001600160e01b031962000205565b155b92915050565b604080516001600160e01b03198316602480830191909152825180830390910181526044909101909152602080820180516001600160e01b03166301ffc9a760e01b178152825160009392849283928392918391908a617530fa92503d9150600051905082801562000278575060208210155b8015620002855750600081115b979650505050505050565b80516001600160a01b0381168114620002a857600080fd5b919050565b60008060408385031215620002c157600080fd5b620002cc8362000290565b9150620002dc6020840162000290565b90509250929050565b60805160a0516136f562000351600039600081816108750152818161238201526126940152600081816106eb0152818161089a01528181610b1401528181610c2f01528181610da3015281816114a50152818161190001528181611a3601526125ec01526136f56000f3fe6080604052600436106102455760003560e01c80638da5cb5b11610139578063c4461834116100b6578063eb8d72b71161007a578063eb8d72b7146107b6578063f2353641146107d6578063f2fde38b146107f6578063f5ecbdbc14610816578063fa25f9b614610836578063fc0c546a1461086357600080fd5b8063c44618341461072d578063cbed8b9c14610743578063d12473a514610763578063d1deba1f14610783578063df2a5b3b1461079657600080fd5b8063a6c3d165116100fd578063a6c3d1651461067e578063ab3ffb931461069e578063af3fb21c146106b1578063b353aaa7146106d9578063baf3292d1461070d57600080fd5b80638da5cb5b146105cc5780638ffa1f2a146105fe578063950c8a741461061e5780639ea5d6b11461063e5780639f38369a1461065e57600080fd5b80633f1f4fa4116101c75780635b8c41e61161018b5780635b8c41e6146104e357806366ad5c8a14610532578063715018a6146105525780637533d788146105675780638cfd8f5c1461059457600080fd5b80633f1f4fa41461043257806342d65a8d1461046d578063482881901461048d5780634ac3f4ff146104a357806351905636146104d057600080fd5b806310ddb1371161020e57806310ddb13714610301578063150b7a021461032157806322a3ecf91461035a5780632a205e3d146103dd5780633d8b38f61461041257600080fd5b80621d35671461024a57806301ffc9a71461026c57806307e0db17146102a15780630b4cad4c146102c15780630df37483146102e1575b600080fd5b34801561025657600080fd5b5061026a61026536600461280b565b610897565b005b34801561027857600080fd5b5061028c61028736600461289e565b610ac8565b60405190151581526020015b60405180910390f35b3480156102ad57600080fd5b5061026a6102bc3660046128c8565b610af3565b3480156102cd57600080fd5b5061026a6102dc3660046128e3565b610b7c565b3480156102ed57600080fd5b5061026a6102fc3660046128fc565b610bef565b34801561030d57600080fd5b5061026a61031c3660046128c8565b610c0e565b34801561032d57600080fd5b5061034161033c366004612a09565b610c66565b6040516001600160e01b03199091168152602001610298565b34801561036657600080fd5b506103ae6103753660046128e3565b60096020526000908152604090208054600182015460029092015461ffff821692620100009092046001600160a01b0316919060ff1684565b6040805161ffff90951685526001600160a01b0390931660208501529183015215156060820152608001610298565b3480156103e957600080fd5b506103fd6103f8366004612a84565b610c92565b60408051928352602083019190915201610298565b34801561041e57600080fd5b5061028c61042d366004612b12565b610cb8565b34801561043e57600080fd5b5061045f61044d3660046128c8565b60036020526000908152604090205481565b604051908152602001610298565b34801561047957600080fd5b5061026a610488366004612b12565b610d84565b34801561049957600080fd5b5061045f60065481565b3480156104af57600080fd5b5061045f6104be3660046128c8565b60076020526000908152604090205481565b61026a6104de366004612b64565b610e0a565b3480156104ef57600080fd5b5061045f6104fe366004612c1d565b6005602090815260009384526040808520845180860184018051928152908401958401959095209452929052825290205481565b34801561053e57600080fd5b5061026a61054d36600461280b565b610e21565b34801561055e57600080fd5b5061026a610efd565b34801561057357600080fd5b506105876105823660046128c8565b610f11565b6040516102989190612cca565b3480156105a057600080fd5b5061045f6105af366004612cdd565b600260209081526000928352604080842090915290825290205481565b3480156105d857600080fd5b506000546001600160a01b03165b6040516001600160a01b039091168152602001610298565b34801561060a57600080fd5b5061026a610619366004612d10565b610fab565b34801561062a57600080fd5b506004546105e6906001600160a01b031681565b34801561064a57600080fd5b5061026a6106593660046128fc565b6111f9565b34801561066a57600080fd5b506105876106793660046128c8565b61127c565b34801561068a57600080fd5b5061026a610699366004612b12565b611392565b61026a6106ac366004612dcd565b61141b565b3480156106bd57600080fd5b506106c6600181565b60405161ffff9091168152602001610298565b3480156106e557600080fd5b506105e67f000000000000000000000000000000000000000000000000000000000000000081565b34801561071957600080fd5b5061026a610728366004612e82565b61142a565b34801561073957600080fd5b5061045f61271081565b34801561074f57600080fd5b5061026a61075e366004612e9f565b611486565b34801561076f57600080fd5b5061026a61077e3660046128fc565b61151b565b61026a61079136600461280b565b61159f565b3480156107a257600080fd5b5061026a6107b1366004612f0d565b6117b5565b3480156107c257600080fd5b5061026a6107d1366004612b12565b611867565b3480156107e257600080fd5b506103fd6107f1366004612f49565b6118c1565b34801561080257600080fd5b5061026a610811366004612e82565b61198c565b34801561082257600080fd5b50610587610831366004612fc2565b611a05565b34801561084257600080fd5b5061045f6108513660046128c8565b60086020526000908152604090205481565b34801561086f57600080fd5b506105e67f000000000000000000000000000000000000000000000000000000000000000081565b337f00000000000000000000000000000000000000000000000000000000000000006001600160a01b0316146109145760405162461bcd60e51b815260206004820152601e60248201527f4c7a4170703a20696e76616c696420656e64706f696e742063616c6c6572000060448201526064015b60405180910390fd5b61ffff8616600090815260016020526040812080546109329061300f565b80601f016020809104026020016040519081016040528092919081815260200182805461095e9061300f565b80156109ab5780601f10610980576101008083540402835291602001916109ab565b820191906000526020600020905b81548152906001019060200180831161098e57829003601f168201915b505050505090508051868690501480156109c6575060008151115b80156109ee5750805160208201206040516109e49088908890613049565b6040518091039020145b610a495760405162461bcd60e51b815260206004820152602660248201527f4c7a4170703a20696e76616c696420736f757263652073656e64696e6720636f6044820152651b9d1c9858dd60d21b606482015260840161090b565b610abf8787878080601f01602080910402602001604051908101604052809392919081815260200183838082843760009201919091525050604080516020601f8a018190048102820181019092528881528a935091508890889081908401838280828437600092019190915250611ad292505050565b50505050505050565b60006001600160e01b03198216630a85bd0160e11b1480610aed5750610aed82611b4b565b92915050565b610afb611b80565b6040516307e0db1760e01b815261ffff821660048201527f00000000000000000000000000000000000000000000000000000000000000006001600160a01b0316906307e0db17906024015b600060405180830381600087803b158015610b6157600080fd5b505af1158015610b75573d6000803e3d6000fd5b5050505050565b610b84611b80565b60008111610bea5760405162461bcd60e51b815260206004820152602d60248201527f4f4e46543732313a206d696e476173546f5472616e73666572416e6453746f7260448201526c065206d757374206265203e203609c1b606482015260840161090b565b600655565b610bf7611b80565b61ffff909116600090815260036020526040902055565b610c16611b80565b6040516310ddb13760e01b815261ffff821660048201527f00000000000000000000000000000000000000000000000000000000000000006001600160a01b0316906310ddb13790602401610b47565b60006001600160a01b0385163014610c8057506000610c8a565b50630a85bd0160e11b5b949350505050565b600080610caa8787610ca388611bda565b87876118c1565b915091509550959350505050565b61ffff831660009081526001602052604081208054829190610cd99061300f565b80601f0160208091040260200160405190810160405280929190818152602001828054610d059061300f565b8015610d525780601f10610d2757610100808354040283529160200191610d52565b820191906000526020600020905b815481529060010190602001808311610d3557829003601f168201915b505050505090508383604051610d69929190613049565b60405180910390208180519060200120149150509392505050565b610d8c611b80565b6040516342d65a8d60e01b81526001600160a01b037f000000000000000000000000000000000000000000000000000000000000000016906342d65a8d90610ddc90869086908690600401613082565b600060405180830381600087803b158015610df657600080fd5b505af1158015610abf573d6000803e3d6000fd5b610abf878787610e1988611bda565b878787611c25565b333014610e7f5760405162461bcd60e51b815260206004820152602660248201527f4e6f6e626c6f636b696e674c7a4170703a2063616c6c6572206d7573742062656044820152650204c7a4170760d41b606482015260840161090b565b610ef58686868080601f01602080910402602001604051908101604052809392919081815260200183838082843760009201919091525050604080516020601f890181900481028201810190925287815289935091508790879081908401838280828437600092019190915250611e0c92505050565b505050505050565b610f05611b80565b610f0f6000611f63565b565b60016020526000908152604090208054610f2a9061300f565b80601f0160208091040260200160405190810160405280929190818152602001828054610f569061300f565b8015610fa35780601f10610f7857610100808354040283529160200191610fa3565b820191906000526020600020905b815481529060010190602001808311610f8657829003601f168201915b505050505081565b80516020808301919091206000818152600990925260409091206002015460ff166110185760405162461bcd60e51b815260206004820152601a60248201527f4f4e46543732313a206e6f20637265646974732073746f726564000000000000604482015260640161090b565b60008280602001905181019061102e91906130e5565b6000848152600960205260408120805460019091015492945090925061106a9161ffff8216916201000090046001600160a01b03169085611fb3565b60008481526009602052604090206001015490915081116110e85760405162461bcd60e51b815260206004820152603260248201527f4f4e46543732313a206e6f7420656e6f7567682067617320746f2070726f636560448201527139b99031b932b234ba103a3930b739b332b960711b606482015260840161090b565b8151810361115f5760008381526009602052604080822080546001600160b01b031916815560018101929092556002909101805460ff19169055517fd7be02b8dd0d27bd0517a9cb4d7469ce27df4313821ae5ec1ff69acc594ba233906111529085815260200190565b60405180910390a16111f3565b60408051608081018252600085815260096020818152848320805461ffff80821687526001600160a01b03620100008084048216868a019081529989018b8152600160608b01818152998f90529790965297519851169096026001600160b01b03199091169690951695909517939093178455915191830191909155516002909101805491151560ff199092169190911790555b50505050565b611201611b80565b600081116112655760405162461bcd60e51b815260206004820152602b60248201527f4f4e46543732313a20647374436861696e4964546f42617463684c696d69742060448201526a06d757374206265203e20360ac1b606482015260840161090b565b61ffff909116600090815260076020526040902055565b61ffff811660009081526001602052604081208054606092919061129f9061300f565b80601f01602080910402602001604051908101604052809291908181526020018280546112cb9061300f565b80156113185780601f106112ed57610100808354040283529160200191611318565b820191906000526020600020905b8154815290600101906020018083116112fb57829003601f168201915b5050505050905080516000036113705760405162461bcd60e51b815260206004820152601d60248201527f4c7a4170703a206e6f20747275737465642070617468207265636f7264000000604482015260640161090b565b61138b60006014835161138391906131b5565b839190611fff565b9392505050565b61139a611b80565b8181306040516020016113af939291906131c8565b60408051601f1981840301815291815261ffff85166000908152600160205220906113da9082613234565b507f8c0400cfe2d1199b1a725c78960bcc2a344d869b80590d0f2bd005db15a572ce83838360405161140e93929190613082565b60405180910390a1505050565b610abf87878787878787611c25565b611432611b80565b600480546001600160a01b0319166001600160a01b0383169081179091556040519081527f5db758e995a17ec1ad84bdef7e8c3293a0bd6179bcce400dff5d4c3d87db726b9060200160405180910390a150565b61148e611b80565b6040516332fb62e760e21b81526001600160a01b037f0000000000000000000000000000000000000000000000000000000000000000169063cbed8b9c906114e290889088908890889088906004016132f3565b600060405180830381600087803b1580156114fc57600080fd5b505af1158015611510573d6000803e3d6000fd5b505050505050505050565b611523611b80565b600081116115885760405162461bcd60e51b815260206004820152602c60248201527f4f4e46543732313a20647374436861696e4964546f5472616e7366657247617360448201526b0206d757374206265203e20360a41b606482015260840161090b565b61ffff909116600090815260086020526040902055565b61ffff861660009081526005602052604080822090516115c29088908890613049565b90815260408051602092819003830190206001600160401b038716600090815292529020549050806116425760405162461bcd60e51b815260206004820152602360248201527f4e6f6e626c6f636b696e674c7a4170703a206e6f2073746f726564206d65737360448201526261676560e81b606482015260840161090b565b808383604051611653929190613049565b6040518091039020146116b25760405162461bcd60e51b815260206004820152602160248201527f4e6f6e626c6f636b696e674c7a4170703a20696e76616c6964207061796c6f616044820152601960fa1b606482015260840161090b565b61ffff871660009081526005602052604080822090516116d59089908990613049565b90815260408051602092819003830181206001600160401b038916600090815290845282902093909355601f8801829004820283018201905286825261176d918991899089908190840183828082843760009201919091525050604080516020601f8a018190048102820181019092528881528a935091508890889081908401838280828437600092019190915250611e0c92505050565b7fc264d91f3adc5588250e1551f547752ca0cfa8f6b530d243b9f9f4cab10ea8e587878787856040516117a4959493929190613321565b60405180910390a150505050505050565b6117bd611b80565b600081116118055760405162461bcd60e51b81526020600482015260156024820152744c7a4170703a20696e76616c6964206d696e47617360581b604482015260640161090b565b61ffff83811660008181526002602090815260408083209487168084529482529182902085905581519283528201929092529081018290527f9d5c7c0b934da8fefa9c7760c98383778a12dfbfc0c3b3106518f43fb9508ac09060600161140e565b61186f611b80565b61ffff8316600090815260016020526040902061188d82848361335c565b507ffa41487ad5d6728f0b19276fa1eddc16558578f5109fc39d2dc33c3230470dab83838360405161140e93929190613082565b600080600086866040516020016118d9929190613456565b60408051601f198184030181529082905263040a7bb160e41b825291506001600160a01b037f000000000000000000000000000000000000000000000000000000000000000016906340a7bb109061193d908b90309086908b908b9060040161347b565b6040805180830381865afa158015611959573d6000803e3d6000fd5b505050506040513d601f19601f8201168201806040525081019061197d91906134cf565b92509250509550959350505050565b611994611b80565b6001600160a01b0381166119f95760405162461bcd60e51b815260206004820152602660248201527f4f776e61626c653a206e6577206f776e657220697320746865207a65726f206160448201526564647265737360d01b606482015260840161090b565b611a0281611f63565b50565b604051633d7b2f6f60e21b815261ffff808616600483015284166024820152306044820152606481018290526060907f00000000000000000000000000000000000000000000000000000000000000006001600160a01b03169063f5ecbdbc90608401600060405180830381865afa158015611a85573d6000803e3d6000fd5b505050506040513d6000823e601f3d908101601f19168201604052611aad91908101906134f3565b95945050505050565b6000611ac18361210c565b801561138b575061138b838361213f565b600080611b355a60966366ad5c8a60e01b89898989604051602401611afa9493929190613527565b60408051601f198184030181529190526020810180516001600160e01b03166001600160e01b031990931692909217909152309291906121c8565b9150915081610ef557610ef58686868685612252565b60006001600160e01b031982166322bac5d960e01b1480610aed57506301ffc9a760e01b6001600160e01b0319831614610aed565b6000546001600160a01b03163314610f0f5760405162461bcd60e51b815260206004820181905260248201527f4f776e61626c653a2063616c6c6572206973206e6f7420746865206f776e6572604482015260640161090b565b60408051600180825281830190925260609160009190602080830190803683370190505090508281600081518110611c1457611c14613565565b602090810291909101015292915050565b6000845111611c765760405162461bcd60e51b815260206004820152601a60248201527f4c7a4170703a20746f6b656e4964735b5d20697320656d707479000000000000604482015260640161090b565b835160011480611c9a575061ffff8616600090815260076020526040902054845111155b611cfa5760405162461bcd60e51b815260206004820152602b60248201527f4f4e46543732313a2062617463682073697a652065786365656473206473742060448201526a18985d18da081b1a5b5a5d60aa1b606482015260840161090b565b60005b8451811015611d3d57611d2b888888888581518110611d1e57611d1e613565565b60200260200101516122ef565b80611d358161357b565b915050611cfd565b5060008585604051602001611d53929190613456565b6040516020818303038152906040529050611d98876001848851600860008d61ffff1661ffff16815260200190815260200160002054611d939190613594565b6123e4565b611da68782868686346124c3565b85604051611db491906135ab565b6040518091039020886001600160a01b03168861ffff167fe1b87c47fdeb4f9cbadbca9df3af7aba453bb6e501075d0440d88125b711522a88604051611dfa91906135c7565b60405180910390a45050505050505050565b60008082806020019051810190611e2391906130e5565b601482015191935091506000611e3b88838386611fb3565b90508251811015611f0f5784516020808701919091206040805160808101825261ffff808d1682526001600160a01b0380881683870190815283850188815260016060860181815260008981526009909a529887902095518654935190941662010000026001600160b01b03199093169390941692909217178355519082015592516002909301805493151560ff199094169390931790925590517f10e0b70d256bccc84b7027506978bd8b68984a870788b93b479def144c839ad790611f0590839089906135da565b60405180910390a1505b816001600160a01b031687604051611f2791906135ab565b60405180910390208961ffff167f5b821db8a46f8ecbe1941ba2f51cfeea9643268b56631f70d45e2a745d99026586604051611dfa91906135c7565b600080546001600160a01b038381166001600160a01b0319831681178455604051919092169283917f8be0079c531659141344cd1fd0a4f28419497f9722a3daafe3b4186f6b6457e09190a35050565b6000825b8251811015611aad576006545a10611aad57611fed8686858481518110611fe057611fe0613565565b6020026020010151612668565b80611ff78161357b565b915050611fb7565b60608161200d81601f6135f3565b101561204c5760405162461bcd60e51b815260206004820152600e60248201526d736c6963655f6f766572666c6f7760901b604482015260640161090b565b61205682846135f3565b8451101561209a5760405162461bcd60e51b8152602060048201526011602482015270736c6963655f6f75744f66426f756e647360781b604482015260640161090b565b6060821580156120b95760405191506000825260208201604052612103565b6040519150601f8416801560200281840101858101878315602002848b0101015b818310156120f25780518352602092830192016120da565b5050858452601f01601f1916604052505b50949350505050565b600061211f826301ffc9a760e01b61213f565b8015610aed5750612138826001600160e01b031961213f565b1592915050565b604080516001600160e01b03198316602480830191909152825180830390910181526044909101909152602080820180516001600160e01b03166301ffc9a760e01b178152825160009392849283928392918391908a617530fa92503d915060005190508280156121b1575060208210155b80156121bd5750600081115b979650505050505050565b6000606060008060008661ffff166001600160401b038111156121ed576121ed612946565b6040519080825280601f01601f191660200182016040528015612217576020820181803683370190505b50905060008087516020890160008d8df191503d925086831115612239578692505b828152826000602083013e909890975095505050505050565b8180519060200120600560008761ffff1661ffff1681526020019081526020016000208560405161228391906135ab565b9081526040805191829003602090810183206001600160401b0388166000908152915220919091557fe183f33de2837795525b4792ca4cd60535bd77c53b7e7030060bfcf5734d6b0c906122e09087908790879087908790613606565b60405180910390a15050505050565b6001600160a01b03841633146123565760405162461bcd60e51b815260206004820152602660248201527f50726f78794f4e46543732313a206f776e6572206973206e6f742073656e642060448201526531b0b63632b960d11b606482015260840161090b565b604051632142170760e11b81526001600160a01b038581166004830152306024830152604482018390527f000000000000000000000000000000000000000000000000000000000000000016906342842e0e90606401600060405180830381600087803b1580156123c657600080fd5b505af11580156123da573d6000803e3d6000fd5b5050505050505050565b60006123ef836126c3565b61ffff8087166000908152600260209081526040808320938916835292905290812054919250906124219084906135f3565b9050600081116124735760405162461bcd60e51b815260206004820152601a60248201527f4c7a4170703a206d696e4761734c696d6974206e6f7420736574000000000000604482015260640161090b565b80821015610ef55760405162461bcd60e51b815260206004820152601b60248201527f4c7a4170703a20676173206c696d697420697320746f6f206c6f770000000000604482015260640161090b565b61ffff8616600090815260016020526040812080546124e19061300f565b80601f016020809104026020016040519081016040528092919081815260200182805461250d9061300f565b801561255a5780601f1061252f5761010080835404028352916020019161255a565b820191906000526020600020905b81548152906001019060200180831161253d57829003601f168201915b5050505050905080516000036125cb5760405162461bcd60e51b815260206004820152603060248201527f4c7a4170703a2064657374696e6174696f6e20636861696e206973206e6f742060448201526f61207472757374656420736f7572636560801b606482015260840161090b565b6125d687875161271f565b60405162c5803160e81b81526001600160a01b037f0000000000000000000000000000000000000000000000000000000000000000169063c580310090849061262d908b9086908c908c908c908c90600401613658565b6000604051808303818588803b15801561264657600080fd5b505af115801561265a573d6000803e3d6000fd5b505050505050505050505050565b604051632142170760e11b81523060048201526001600160a01b038381166024830152604482018390527f000000000000000000000000000000000000000000000000000000000000000016906342842e0e90606401610ddc565b60006022825110156127175760405162461bcd60e51b815260206004820152601c60248201527f4c7a4170703a20696e76616c69642061646170746572506172616d7300000000604482015260640161090b565b506022015190565b61ffff82166000908152600360205260408120549081900361274057506127105b808211156127905760405162461bcd60e51b815260206004820181905260248201527f4c7a4170703a207061796c6f61642073697a6520697320746f6f206c61726765604482015260640161090b565b505050565b803561ffff811681146127a757600080fd5b919050565b60008083601f8401126127be57600080fd5b5081356001600160401b038111156127d557600080fd5b6020830191508360208285010111156127ed57600080fd5b9250929050565b80356001600160401b03811681146127a757600080fd5b6000806000806000806080878903121561282457600080fd5b61282d87612795565b955060208701356001600160401b038082111561284957600080fd5b6128558a838b016127ac565b909750955085915061286960408a016127f4565b9450606089013591508082111561287f57600080fd5b5061288c89828a016127ac565b979a9699509497509295939492505050565b6000602082840312156128b057600080fd5b81356001600160e01b03198116811461138b57600080fd5b6000602082840312156128da57600080fd5b61138b82612795565b6000602082840312156128f557600080fd5b5035919050565b6000806040838503121561290f57600080fd5b61291883612795565b946020939093013593505050565b6001600160a01b0381168114611a0257600080fd5b80356127a781612926565b634e487b7160e01b600052604160045260246000fd5b604051601f8201601f191681016001600160401b038111828210171561298457612984612946565b604052919050565b60006001600160401b038211156129a5576129a5612946565b50601f01601f191660200190565b600082601f8301126129c457600080fd5b81356129d76129d28261298c565b61295c565b8181528460208386010111156129ec57600080fd5b816020850160208301376000918101602001919091529392505050565b60008060008060808587031215612a1f57600080fd5b8435612a2a81612926565b93506020850135612a3a81612926565b92506040850135915060608501356001600160401b03811115612a5c57600080fd5b612a68878288016129b3565b91505092959194509250565b803580151581146127a757600080fd5b600080600080600060a08688031215612a9c57600080fd5b612aa586612795565b945060208601356001600160401b0380821115612ac157600080fd5b612acd89838a016129b3565b955060408801359450612ae260608901612a74565b93506080880135915080821115612af857600080fd5b50612b05888289016129b3565b9150509295509295909350565b600080600060408486031215612b2757600080fd5b612b3084612795565b925060208401356001600160401b03811115612b4b57600080fd5b612b57868287016127ac565b9497909650939450505050565b600080600080600080600060e0888a031215612b7f57600080fd5b8735612b8a81612926565b9650612b9860208901612795565b955060408801356001600160401b0380821115612bb457600080fd5b612bc08b838c016129b3565b965060608a0135955060808a01359150612bd982612926565b90935060a089013590612beb82612926565b90925060c08901359080821115612c0157600080fd5b50612c0e8a828b016129b3565b91505092959891949750929550565b600080600060608486031215612c3257600080fd5b612c3b84612795565b925060208401356001600160401b03811115612c5657600080fd5b612c62868287016129b3565b925050612c71604085016127f4565b90509250925092565b60005b83811015612c95578181015183820152602001612c7d565b50506000910152565b60008151808452612cb6816020860160208601612c7a565b601f01601f19169290920160200192915050565b60208152600061138b6020830184612c9e565b60008060408385031215612cf057600080fd5b612cf983612795565b9150612d0760208401612795565b90509250929050565b600060208284031215612d2257600080fd5b81356001600160401b03811115612d3857600080fd5b610c8a848285016129b3565b60006001600160401b03821115612d5d57612d5d612946565b5060051b60200190565b600082601f830112612d7857600080fd5b81356020612d886129d283612d44565b82815260059290921b84018101918181019086841115612da757600080fd5b8286015b84811015612dc25780358352918301918301612dab565b509695505050505050565b600080600080600080600060e0888a031215612de857600080fd5b8735612df381612926565b9650612e0160208901612795565b955060408801356001600160401b0380821115612e1d57600080fd5b612e298b838c016129b3565b965060608a0135915080821115612e3f57600080fd5b612e4b8b838c01612d67565b955060808a01359150612e5d82612926565b819450612e6c60a08b0161293b565b935060c08a0135915080821115612c0157600080fd5b600060208284031215612e9457600080fd5b813561138b81612926565b600080600080600060808688031215612eb757600080fd5b612ec086612795565b9450612ece60208701612795565b93506040860135925060608601356001600160401b03811115612ef057600080fd5b612efc888289016127ac565b969995985093965092949392505050565b600080600060608486031215612f2257600080fd5b612f2b84612795565b9250612f3960208501612795565b9150604084013590509250925092565b600080600080600060a08688031215612f6157600080fd5b612f6a86612795565b945060208601356001600160401b0380821115612f8657600080fd5b612f9289838a016129b3565b95506040880135915080821115612fa857600080fd5b612fb489838a01612d67565b9450612ae260608901612a74565b60008060008060808587031215612fd857600080fd5b612fe185612795565b9350612fef60208601612795565b92506040850135612fff81612926565b9396929550929360600135925050565b600181811c9082168061302357607f821691505b60208210810361304357634e487b7160e01b600052602260045260246000fd5b50919050565b8183823760009101908152919050565b81835281816020850137506000828201602090810191909152601f909101601f19169091010190565b61ffff84168152604060208201526000611aad604083018486613059565b600082601f8301126130b157600080fd5b81516130bf6129d28261298c565b8181528460208386010111156130d457600080fd5b610c8a826020830160208701612c7a565b600080604083850312156130f857600080fd5b82516001600160401b038082111561310f57600080fd5b61311b868387016130a0565b935060209150818501518181111561313257600080fd5b85019050601f8101861361314557600080fd5b80516131536129d282612d44565b81815260059190911b8201830190838101908883111561317257600080fd5b928401925b8284101561319057835182529284019290840190613177565b80955050505050509250929050565b634e487b7160e01b600052601160045260246000fd5b81810381811115610aed57610aed61319f565b8284823760609190911b6bffffffffffffffffffffffff19169101908152601401919050565b601f82111561279057600081815260208120601f850160051c810160208610156132155750805b601f850160051c820191505b81811015610ef557828155600101613221565b81516001600160401b0381111561324d5761324d612946565b6132618161325b845461300f565b846131ee565b602080601f831160018114613296576000841561327e5750858301515b600019600386901b1c1916600185901b178555610ef5565b600085815260208120601f198616915b828110156132c5578886015182559484019460019091019084016132a6565b50858210156132e35787850151600019600388901b60f8161c191681555b5050505050600190811b01905550565b600061ffff8088168352808716602084015250846040830152608060608301526121bd608083018486613059565b61ffff8616815260806020820152600061333f608083018688613059565b6001600160401b0394909416604083015250606001529392505050565b6001600160401b0383111561337357613373612946565b61338783613381835461300f565b836131ee565b6000601f8411600181146133bb57600085156133a35750838201355b600019600387901b1c1916600186901b178355610b75565b600083815260209020601f19861690835b828110156133ec57868501358255602094850194600190920191016133cc565b50868210156134095760001960f88860031b161c19848701351681555b505060018560011b0183555050505050565b600081518084526020808501945080840160005b8381101561344b5781518752958201959082019060010161342f565b509495945050505050565b6040815260006134696040830185612c9e565b8281036020840152611aad818561341b565b61ffff861681526001600160a01b038516602082015260a0604082018190526000906134a990830186612c9e565b841515606084015282810360808401526134c38185612c9e565b98975050505050505050565b600080604083850312156134e257600080fd5b505080516020909101519092909150565b60006020828403121561350557600080fd5b81516001600160401b0381111561351b57600080fd5b610c8a848285016130a0565b61ffff851681526080602082015260006135446080830186612c9e565b6001600160401b038516604084015282810360608401526121bd8185612c9e565b634e487b7160e01b600052603260045260246000fd5b60006001820161358d5761358d61319f565b5060010190565b8082028115828204841417610aed57610aed61319f565b600082516135bd818460208701612c7a565b9190910192915050565b60208152600061138b602083018461341b565b828152604060208201526000610c8a6040830184612c9e565b80820180821115610aed57610aed61319f565b61ffff8616815260a06020820152600061362360a0830187612c9e565b6001600160401b038616604084015282810360608401526136448186612c9e565b905082810360808401526134c38185612c9e565b61ffff8716815260c06020820152600061367560c0830188612c9e565b82810360408401526136878188612c9e565b6001600160a01b0387811660608601528616608085015283810360a085015290506136b28185612c9e565b999850505050505050505056fea2646970667358221220b630e0b8de32efa776f5d306e5b3451b320a7fdb00511a08221fddac754c310e64736f6c63430008110033",
    "linkReferences": {}
  },
  "methodIdentifiers": {
    "DEFAULT_PAYLOAD_SIZE_LIMIT()": "c4461834",
    "FUNCTION_TYPE_SEND()": "af3fb21c",
    "clearCredits(bytes)": "8ffa1f2a",
    "dstChainIdToBatchLimit(uint16)": "4ac3f4ff",
    "dstChainIdToTransferGas(uint16)": "fa25f9b6",
    "estimateSendBatchFee(uint16,bytes,uint256[],bool,bytes)": "f2353641",
    "estimateSendFee(uint16,bytes,uint256,bool,bytes)": "2a205e3d",
    "failedMessages(uint16,bytes,uint64)": "5b8c41e6",
    "forceResumeReceive(uint16,bytes)": "42d65a8d",
    "getConfig(uint16,uint16,address,uint256)": "f5ecbdbc",
    "getTrustedRemoteAddress(uint16)": "9f38369a",
    "isTrustedRemote(uint16,bytes)": "3d8b38f6",
    "lzEndpoint()": "b353aaa7",
    "lzReceive(uint16,bytes,uint64,bytes)": "001d3567",
    "minDstGasLookup(uint16,uint16)": "8cfd8f5c",
    "minGasToTransferAndStore()": "48288190",
    "nonblockingLzReceive(uint16,bytes,uint64,bytes)": "66ad5c8a",
    "onERC721Received(address,address,uint256,bytes)": "150b7a02",
    "owner()": "8da5cb5b",
    "payloadSizeLimitLookup(uint16)": "3f1f4fa4",
    "precrime()": "950c8a74",
    "renounceOwnership()": "715018a6",
    "retryMessage(uint16,bytes,uint64,bytes)": "d1deba1f",
    "sendBatchFrom(address,uint16,bytes,uint256[],address,address,bytes)": "ab3ffb93",
    "sendFrom(address,uint16,bytes,uint256,address,address,bytes)": "51905636",
    "setConfig(uint16,uint16,uint256,bytes)": "cbed8b9c",
    "setDstChainIdToBatchLimit(uint16,uint256)": "9ea5d6b1",
    "setDstChainIdToTransferGas(uint16,uint256)": "d12473a5",
    "setMinDstGas(uint16,uint16,uint256)": "df2a5b3b",
    "setMinGasToTransferAndStore(uint256)": "0b4cad4c",
    "setPayloadSizeLimit(uint16,uint256)": "0df37483",
    "setPrecrime(address)": "baf3292d",
    "setReceiveVersion(uint16)": "10ddb137",
    "setSendVersion(uint16)": "07e0db17",
    "setTrustedRemote(uint16,bytes)": "eb8d72b7",
    "setTrustedRemoteAddress(uint16,bytes)": "a6c3d165",
    "storedCredits(bytes32)": "22a3ecf9",
    "supportsInterface(bytes4)": "01ffc9a7",
    "token()": "fc0c546a",
    "transferOwnership(address)": "f2fde38b",
    "trustedRemoteLookup(uint16)": "7533d788"
  },
  "id": 10
}