{
  "abi": [
    {
      "inputs": [
        {
          "internalType": "address",
          "name": "_stargateEthVault",
          "type": "address"
        },
        {
          "internalType": "address",
          "name": "_stargateRouter",
          "type": "address"
        },
        {
          "internalType": "uint16",
          "name": "_poolId",
          "type": "uint16"
        }
      ],
      "stateMutability": "nonpayable",
      "type": "constructor"
    },
    {
      "inputs": [],
      "name": "addLiquidityETH",
      "outputs": [],
      "stateMutability": "payable",
      "type": "function"
    },
    {
      "inputs": [],
      "name": "poolId",
      "outputs": [
        {
          "internalType": "uint16",
          "name": "",
          "type": "uint16"
        }
      ],
      "stateMutability": "view",
      "type": "function"
    },
    {
      "inputs": [],
      "name": "stargateEthVault",
      "outputs": [
        {
          "internalType": "address",
          "name": "",
          "type": "address"
        }
      ],
      "stateMutability": "view",
      "type": "function"
    },
    {
      "inputs": [],
      "name": "stargateRouter",
      "outputs": [
        {
          "internalType": "contract IStargateRouter",
          "name": "",
          "type": "address"
        }
      ],
      "stateMutability": "view",
      "type": "function"
    },
    {
      "inputs": [
        {
          "internalType": "uint16",
          "name": "_dstChainId",
          "type": "uint16"
        },
        {
          "internalType": "address payable",
          "name": "_refundAddress",
          "type": "address"
        },
        {
          "internalType": "bytes",
          "name": "_toAddress",
          "type": "bytes"
        },
        {
          "internalType": "uint256",
          "name": "_amountLD",
          "type": "uint256"
        },
        {
          "internalType": "uint256",
          "name": "_minAmountLD",
          "type": "uint256"
        },
        {
          "internalType": "bytes",
          "name": "_payload",
          "type": "bytes"
        }
      ],
      "name": "swapETH",
      "outputs": [],
      "stateMutability": "payable",
      "type": "function"
    },
    {
      "stateMutability": "payable",
      "type": "receive"
    }
  ],
  "bytecode": {
    "object": "0x60e03461019057601f6109e338819003918201601f19168301916001600160401b038311848410176101955780849260609460405283398101031261019057610047816101ab565b6040610055602084016101ab565b9201519161ffff83168303610190576001600160a01b03908282161561013a57169081156100e65760805260a05260c05260405161082390816101c08239608051818181607a015281816102eb0152610406015260a05181818160d80152818161026701528181610460015281816105270152610640015260c05181818161014f015281816102b1015261057c0152f35b60405162461bcd60e51b815260206004820152602660248201527f526f757465724554483a205f7374617267617465526f757465722063616e742060448201526506265203078360d41b6064820152608490fd5b60405162461bcd60e51b815260206004820152602860248201527f526f757465724554483a205f73746172676174654574685661756c742063616e604482015267074206265203078360c41b6064820152608490fd5b600080fd5b634e487b7160e01b600052604160045260246000fd5b51906001600160a01b03821682036101905756fe6080604052600436101561001b575b361561001957600080fd5b005b6000803560e01c80633483432a1461031a57806338e31d39146102d55780633e0dc34e14610296578063a9e56f3c146102515763ed9953071461005e575061000e565b8060031936011261019f57341561020c57806001600160a01b037f0000000000000000000000000000000000000000000000000000000000000000811690813b156101fd57604051630d0e30db60e41b8152838160048134875af19081156102015784916101e9575b505060405163095ea7b360e01b81527f0000000000000000000000000000000000000000000000000000000000000000919091166001600160a01b03811660048301523460248301529160209082908186816044810103925af180156101de576101b0575b50803b156101ad578180916064604051809481936321ec87bf60e21b835261ffff7f00000000000000000000000000000000000000000000000000000000000000001660048401523460248401523360448401525af180156101a25761018f5750f35b6101989061075a565b61019f5780f35b80fd5b6040513d84823e3d90fd5b50fd5b6101d09060203d81116101d7575b6101c8818361076e565b810190610790565b503861012c565b503d6101be565b6040513d85823e3d90fd5b6101f29061075a565b6101fd5782386100c7565b5050fd5b6040513d86823e3d90fd5b60405162461bcd60e51b815260206004820152601860248201527f53746172676174653a206d73672e76616c7565206973203000000000000000006044820152606490fd5b503461019f578060031936011261019f576040517f00000000000000000000000000000000000000000000000000000000000000006001600160a01b03168152602090f35b503461019f578060031936011261019f57602060405161ffff7f0000000000000000000000000000000000000000000000000000000000000000168152f35b503461019f578060031936011261019f576040517f00000000000000000000000000000000000000000000000000000000000000006001600160a01b03168152602090f35b5060c036600319011261019f5760043561ffff81168103610756576001600160a01b0360243581811681036107525767ffffffffffffffff60443511610752573660236044350112156107525767ffffffffffffffff604435600401351161075257366024604435600401356044350101116107525760a43567ffffffffffffffff811161066f573660238201121561066f57806004013567ffffffffffffffff811161073e578591906103d9601f8201601f1916602001608061076e565b80608052366024828401011161073a57602091819060240160a03760800101526064353411156106e557817f000000000000000000000000000000000000000000000000000000000000000016803b1561066f57604051630d0e30db60e41b81528581600481606435865af180156106da576106c7575b5060405163095ea7b360e01b81527f000000000000000000000000000000000000000000000000000000000000000084166001600160a01b031660048201526064356024820152906020908290604490829089905af180156106bc5761069d575b5034606435340311610689576040519081606081011067ffffffffffffffff60608401111761067357606082016040528482528460208301526040519384604081011067ffffffffffffffff604087011117610673578460408796016040526002815261060f60f31b60208201526040840152837f0000000000000000000000000000000000000000000000000000000000000000163b1561066f5761ffff849161063660206105ec60408a9881519a8b998a9889986327efc43f60e21b8a5216600489015261ffff7f0000000000000000000000000000000000000000000000000000000000000000168060248a01526044890152166064870152606435608487015260843560a487015261012060c4870152805161012487015283810151610144870152015160606101648601526101848501906107ad565b6003198482030160e485015260443560048101358083529060240183830137600460443501358181018301899052601f01601f191601838103601c016101048501520160806107ad565b03916064353403907f0000000000000000000000000000000000000000000000000000000000000000165af180156101a25761018f5750f35b8480fd5b634e487b7160e01b600052604160045260246000fd5b634e487b7160e01b84526011600452602484fd5b6106b59060203d6020116101d7576101c8818361076e565b50386104b1565b6040513d87823e3d90fd5b6106d39095919561075a565b9338610450565b6040513d88823e3d90fd5b60405162461bcd60e51b815260206004820152602760248201527f53746172676174653a206d73672e76616c7565206d757374206265203e205f616044820152661b5bdd5b9d131160ca1b6064820152608490fd5b8280fd5b634e487b7160e01b86526041600452602486fd5b8380fd5b5080fd5b67ffffffffffffffff811161067357604052565b90601f8019910116810190811067ffffffffffffffff82111761067357604052565b908160209103126107a8575180151581036107a85790565b600080fd5b919082519283825260005b8481106107d9575050826000602080949584010152601f8019910116010190565b6020818301810151848301820152016107b856fea2646970667358221220ae59bc4187cb63cb33ac0193cc6a55920b6545d4417fe4067db474ef87d05f5664736f6c63430008110033",
    "linkReferences": {}
  },
  "methodIdentifiers": {
    "addLiquidityETH()": "ed995307",
    "poolId()": "3e0dc34e",
    "stargateEthVault()": "38e31d39",
    "stargateRouter()": "a9e56f3c",
    "swapETH(uint16,address,bytes,uint256,uint256,bytes)": "3483432a"
  },
  "id": 145
}