{
  "abi": [
    {
      "inputs": [
        {
          "internalType": "address",
          "name": "_stargateEthVault",
          "type": "address"
        },
        {
          "internalType": "address",
          "name": "_stargateRouter",
          "type": "address"
        },
        {
          "internalType": "uint16",
          "name": "_poolId",
          "type": "uint16"
        }
      ],
      "stateMutability": "nonpayable",
      "type": "constructor"
    },
    {
      "inputs": [],
      "name": "addLiquidityETH",
      "outputs": [],
      "stateMutability": "payable",
      "type": "function"
    },
    {
      "inputs": [],
      "name": "poolId",
      "outputs": [
        {
          "internalType": "uint16",
          "name": "",
          "type": "uint16"
        }
      ],
      "stateMutability": "view",
      "type": "function"
    },
    {
      "inputs": [],
      "name": "stargateEthVault",
      "outputs": [
        {
          "internalType": "address",
          "name": "",
          "type": "address"
        }
      ],
      "stateMutability": "view",
      "type": "function"
    },
    {
      "inputs": [],
      "name": "stargateRouter",
      "outputs": [
        {
          "internalType": "contract IStargateRouter",
          "name": "",
          "type": "address"
        }
      ],
      "stateMutability": "view",
      "type": "function"
    },
    {
      "inputs": [
        {
          "internalType": "uint16",
          "name": "_dstChainId",
          "type": "uint16"
        },
        {
          "internalType": "address payable",
          "name": "_refundAddress",
          "type": "address"
        },
        {
          "internalType": "bytes",
          "name": "_toAddress",
          "type": "bytes"
        },
        {
          "internalType": "uint256",
          "name": "_amountLD",
          "type": "uint256"
        },
        {
          "internalType": "uint256",
          "name": "_minAmountLD",
          "type": "uint256"
        },
        {
          "internalType": "bytes",
          "name": "_payload",
          "type": "bytes"
        }
      ],
      "name": "swapETH",
      "outputs": [],
      "stateMutability": "payable",
      "type": "function"
    },
    {
      "stateMutability": "payable",
      "type": "receive"
    }
  ],
  "bytecode": {
    "object": "0x60e060405234801561001057600080fd5b50604051610b59380380610b5983398101604081905261002f9161013b565b6001600160a01b03831661009b5760405162461bcd60e51b815260206004820152602860248201527f526f757465724554483a205f73746172676174654574685661756c742063616e604482015267074206265203078360c41b60648201526084015b60405180910390fd5b6001600160a01b0382166101005760405162461bcd60e51b815260206004820152602660248201527f526f757465724554483a205f7374617267617465526f757465722063616e742060448201526506265203078360d41b6064820152608401610092565b6001600160a01b03928316608052911660a05261ffff1660c052610189565b80516001600160a01b038116811461013657600080fd5b919050565b60008060006060848603121561015057600080fd5b6101598461011f565b92506101676020850161011f565b9150604084015161ffff8116811461017e57600080fd5b809150509250925092565b60805160a05160c0516109566102036000396000818160d20152818161031101528181610332015261057f0152600081816101190152818161022f015281816102e0015281816104cc01526105b30152600081816081015281816101a90152818161025e0152818161044601526104fb01526109566000f3fe60806040526004361061004e5760003560e01c80633483432a1461005a57806338e31d391461006f5780633e0dc34e146100c0578063a9e56f3c14610107578063ed9953071461013b57600080fd5b3661005557005b600080fd5b61006d610068366004610706565b610143565b005b34801561007b57600080fd5b506100a37f000000000000000000000000000000000000000000000000000000000000000081565b6040516001600160a01b0390911681526020015b60405180910390f35b3480156100cc57600080fd5b506100f47f000000000000000000000000000000000000000000000000000000000000000081565b60405161ffff90911681526020016100b7565b34801561011357600080fd5b506100a37f000000000000000000000000000000000000000000000000000000000000000081565b61006d6103ef565b8234116101a75760405162461bcd60e51b815260206004820152602760248201527f53746172676174653a206d73672e76616c7565206d757374206265203e205f616044820152661b5bdd5b9d131160ca1b60648201526084015b60405180910390fd5b7f00000000000000000000000000000000000000000000000000000000000000006001600160a01b031663d0e30db0846040518263ffffffff1660e01b81526004016000604051808303818588803b15801561020257600080fd5b505af1158015610216573d6000803e3d6000fd5b505060405163095ea7b360e01b81526001600160a01b037f000000000000000000000000000000000000000000000000000000000000000081166004830152602482018890527f000000000000000000000000000000000000000000000000000000000000000016935063095ea7b3925060440190506020604051808303816000875af11580156102ab573d6000803e3d6000fd5b505050506040513d601f19601f820116820180604052508101906102cf91906107bb565b5060006102dc84346107e4565b90507f00000000000000000000000000000000000000000000000000000000000000006001600160a01b0316639fbf10fc828a7f00000000000000000000000000000000000000000000000000000000000000007f00000000000000000000000000000000000000000000000000000000000000008c8a8a6040518060600160405280600081526020016000815260200160405180604001604052806002815260200161060f60f31b8152508152508f8f8d6040518c63ffffffff1660e01b81526004016103b39a9998979695949392919061087a565b6000604051808303818588803b1580156103cc57600080fd5b505af11580156103e0573d6000803e3d6000fd5b50505050505050505050505050565b6000341161043f5760405162461bcd60e51b815260206004820152601860248201527f53746172676174653a206d73672e76616c756520697320300000000000000000604482015260640161019e565b60003490507f00000000000000000000000000000000000000000000000000000000000000006001600160a01b031663d0e30db0826040518263ffffffff1660e01b81526004016000604051808303818588803b15801561049f57600080fd5b505af11580156104b3573d6000803e3d6000fd5b505060405163095ea7b360e01b81526001600160a01b037f000000000000000000000000000000000000000000000000000000000000000081166004830152602482018690527f000000000000000000000000000000000000000000000000000000000000000016935063095ea7b3925060440190506020604051808303816000875af1158015610548573d6000803e3d6000fd5b505050506040513d601f19601f8201168201806040525081019061056c91906107bb565b506040516321ec87bf60e21b815261ffff7f0000000000000000000000000000000000000000000000000000000000000000166004820152602481018290523360448201527f00000000000000000000000000000000000000000000000000000000000000006001600160a01b0316906387b21efc90606401600060405180830381600087803b1580156105ff57600080fd5b505af1158015610613573d6000803e3d6000fd5b5050505050565b60008083601f84011261062c57600080fd5b50813567ffffffffffffffff81111561064457600080fd5b60208301915083602082850101111561065c57600080fd5b9250929050565b634e487b7160e01b600052604160045260246000fd5b600082601f83011261068a57600080fd5b813567ffffffffffffffff808211156106a5576106a5610663565b604051601f8301601f19908116603f011681019082821181831017156106cd576106cd610663565b816040528381528660208588010111156106e657600080fd5b836020870160208301376000602085830101528094505050505092915050565b600080600080600080600060c0888a03121561072157600080fd5b873561ffff8116811461073357600080fd5b965060208801356001600160a01b038116811461074f57600080fd5b9550604088013567ffffffffffffffff8082111561076c57600080fd5b6107788b838c0161061a565b909750955060608a0135945060808a0135935060a08a013591508082111561079f57600080fd5b506107ac8a828b01610679565b91505092959891949750929550565b6000602082840312156107cd57600080fd5b815180151581146107dd57600080fd5b9392505050565b8181038181111561080557634e487b7160e01b600052601160045260246000fd5b92915050565b6000815180845260005b8181101561083157602081850181015186830182015201610815565b506000602082860101526020601f19601f83011685010191505092915050565b81835281816020850137506000828201602090810191909152601f909101601f19169091010190565b600061012061ffff808e168452808d166020850152808c1660408501525060018060a01b038a1660608401528860808401528760a08401528060c0840152865181840152506020860151610140830152604086015160606101608401526108e561018084018261080b565b905082810360e08401526108fa818688610851565b905082810361010084015261090f818561080b565b9d9c5050505050505050505050505056fea2646970667358221220903f613e0bbfeca834c90ae859ee2b2f3c0074355a0bdec774042f54cac17c9d64736f6c63430008110033",
    "linkReferences": {}
  },
  "methodIdentifiers": {
    "addLiquidityETH()": "ed995307",
    "poolId()": "3e0dc34e",
    "stargateEthVault()": "38e31d39",
    "stargateRouter()": "a9e56f3c",
    "swapETH(uint16,address,bytes,uint256,uint256,bytes)": "3483432a"
  },
  "id": 66
}