{
  "abi": [
    {
      "inputs": [
        {
          "internalType": "address",
          "name": "_lzEndpoint",
          "type": "address"
        },
        {
          "internalType": "address",
          "name": "_proxyToken",
          "type": "address"
        }
      ],
      "stateMutability": "nonpayable",
      "type": "constructor"
    },
    {
      "anonymous": false,
      "inputs": [
        {
          "indexed": false,
          "internalType": "uint16",
          "name": "_srcChainId",
          "type": "uint16"
        },
        {
          "indexed": false,
          "internalType": "bytes",
          "name": "_srcAddress",
          "type": "bytes"
        },
        {
          "indexed": false,
          "internalType": "uint64",
          "name": "_nonce",
          "type": "uint64"
        },
        {
          "indexed": false,
          "internalType": "bytes",
          "name": "_payload",
          "type": "bytes"
        },
        {
          "indexed": false,
          "internalType": "bytes",
          "name": "_reason",
          "type": "bytes"
        }
      ],
      "name": "MessageFailed",
      "type": "event"
    },
    {
      "anonymous": false,
      "inputs": [
        {
          "indexed": true,
          "internalType": "address",
          "name": "previousOwner",
          "type": "address"
        },
        {
          "indexed": true,
          "internalType": "address",
          "name": "newOwner",
          "type": "address"
        }
      ],
      "name": "OwnershipTransferred",
      "type": "event"
    },
    {
      "anonymous": false,
      "inputs": [
        {
          "indexed": true,
          "internalType": "uint16",
          "name": "_srcChainId",
          "type": "uint16"
        },
        {
          "indexed": true,
          "internalType": "bytes",
          "name": "_srcAddress",
          "type": "bytes"
        },
        {
          "indexed": true,
          "internalType": "address",
          "name": "_toAddress",
          "type": "address"
        },
        {
          "indexed": false,
          "internalType": "uint256[]",
          "name": "_tokenIds",
          "type": "uint256[]"
        },
        {
          "indexed": false,
          "internalType": "uint256[]",
          "name": "_amounts",
          "type": "uint256[]"
        },
        {
          "indexed": false,
          "internalType": "uint64",
          "name": "_nonce",
          "type": "uint64"
        }
      ],
      "name": "ReceiveBatchFromChain",
      "type": "event"
    },
    {
      "anonymous": false,
      "inputs": [
        {
          "indexed": true,
          "internalType": "uint16",
          "name": "_srcChainId",
          "type": "uint16"
        },
        {
          "indexed": true,
          "internalType": "bytes",
          "name": "_srcAddress",
          "type": "bytes"
        },
        {
          "indexed": true,
          "internalType": "address",
          "name": "_toAddress",
          "type": "address"
        },
        {
          "indexed": false,
          "internalType": "uint256",
          "name": "_tokenId",
          "type": "uint256"
        },
        {
          "indexed": false,
          "internalType": "uint256",
          "name": "_amount",
          "type": "uint256"
        },
        {
          "indexed": false,
          "internalType": "uint64",
          "name": "_nonce",
          "type": "uint64"
        }
      ],
      "name": "ReceiveFromChain",
      "type": "event"
    },
    {
      "anonymous": false,
      "inputs": [
        {
          "indexed": false,
          "internalType": "uint16",
          "name": "_srcChainId",
          "type": "uint16"
        },
        {
          "indexed": false,
          "internalType": "bytes",
          "name": "_srcAddress",
          "type": "bytes"
        },
        {
          "indexed": false,
          "internalType": "uint64",
          "name": "_nonce",
          "type": "uint64"
        },
        {
          "indexed": false,
          "internalType": "bytes32",
          "name": "_payloadHash",
          "type": "bytes32"
        }
      ],
      "name": "RetryMessageSuccess",
      "type": "event"
    },
    {
      "anonymous": false,
      "inputs": [
        {
          "indexed": true,
          "internalType": "address",
          "name": "_sender",
          "type": "address"
        },
        {
          "indexed": true,
          "internalType": "uint16",
          "name": "_dstChainId",
          "type": "uint16"
        },
        {
          "indexed": true,
          "internalType": "bytes",
          "name": "_toAddress",
          "type": "bytes"
        },
        {
          "indexed": false,
          "internalType": "uint256[]",
          "name": "_tokenIds",
          "type": "uint256[]"
        },
        {
          "indexed": false,
          "internalType": "uint256[]",
          "name": "_amounts",
          "type": "uint256[]"
        },
        {
          "indexed": false,
          "internalType": "uint64",
          "name": "_nonce",
          "type": "uint64"
        }
      ],
      "name": "SendBatchToChain",
      "type": "event"
    },
    {
      "anonymous": false,
      "inputs": [
        {
          "indexed": true,
          "internalType": "address",
          "name": "_sender",
          "type": "address"
        },
        {
          "indexed": true,
          "internalType": "uint16",
          "name": "_dstChainId",
          "type": "uint16"
        },
        {
          "indexed": true,
          "internalType": "bytes",
          "name": "_toAddress",
          "type": "bytes"
        },
        {
          "indexed": false,
          "internalType": "uint256",
          "name": "_tokenId",
          "type": "uint256"
        },
        {
          "indexed": false,
          "internalType": "uint256",
          "name": "_amount",
          "type": "uint256"
        },
        {
          "indexed": false,
          "internalType": "uint64",
          "name": "_nonce",
          "type": "uint64"
        }
      ],
      "name": "SendToChain",
      "type": "event"
    },
    {
      "anonymous": false,
      "inputs": [
        {
          "indexed": false,
          "internalType": "uint16",
          "name": "_dstChainId",
          "type": "uint16"
        },
        {
          "indexed": false,
          "internalType": "uint16",
          "name": "_type",
          "type": "uint16"
        },
        {
          "indexed": false,
          "internalType": "uint256",
          "name": "_minDstGas",
          "type": "uint256"
        }
      ],
      "name": "SetMinDstGas",
      "type": "event"
    },
    {
      "anonymous": false,
      "inputs": [
        {
          "indexed": false,
          "internalType": "address",
          "name": "precrime",
          "type": "address"
        }
      ],
      "name": "SetPrecrime",
      "type": "event"
    },
    {
      "anonymous": false,
      "inputs": [
        {
          "indexed": false,
          "internalType": "uint16",
          "name": "_remoteChainId",
          "type": "uint16"
        },
        {
          "indexed": false,
          "internalType": "bytes",
          "name": "_path",
          "type": "bytes"
        }
      ],
      "name": "SetTrustedRemote",
      "type": "event"
    },
    {
      "anonymous": false,
      "inputs": [
        {
          "indexed": false,
          "internalType": "uint16",
          "name": "_remoteChainId",
          "type": "uint16"
        },
        {
          "indexed": false,
          "internalType": "bytes",
          "name": "_remoteAddress",
          "type": "bytes"
        }
      ],
      "name": "SetTrustedRemoteAddress",
      "type": "event"
    },
    {
      "inputs": [],
      "name": "DEFAULT_PAYLOAD_SIZE_LIMIT",
      "outputs": [
        {
          "internalType": "uint256",
          "name": "",
          "type": "uint256"
        }
      ],
      "stateMutability": "view",
      "type": "function"
    },
    {
      "inputs": [
        {
          "internalType": "uint16",
          "name": "_dstChainId",
          "type": "uint16"
        },
        {
          "internalType": "bytes",
          "name": "_toAddress",
          "type": "bytes"
        },
        {
          "internalType": "uint256[]",
          "name": "_tokenIds",
          "type": "uint256[]"
        },
        {
          "internalType": "uint256[]",
          "name": "_amounts",
          "type": "uint256[]"
        },
        {
          "internalType": "bool",
          "name": "_useZro",
          "type": "bool"
        },
        {
          "internalType": "bytes",
          "name": "_adapterParams",
          "type": "bytes"
        }
      ],
      "name": "estimateSendBatchFee",
      "outputs": [
        {
          "internalType": "uint256",
          "name": "nativeFee",
          "type": "uint256"
        },
        {
          "internalType": "uint256",
          "name": "zroFee",
          "type": "uint256"
        }
      ],
      "stateMutability": "view",
      "type": "function"
    },
    {
      "inputs": [
        {
          "internalType": "uint16",
          "name": "_dstChainId",
          "type": "uint16"
        },
        {
          "internalType": "bytes",
          "name": "_toAddress",
          "type": "bytes"
        },
        {
          "internalType": "uint256",
          "name": "_tokenId",
          "type": "uint256"
        },
        {
          "internalType": "uint256",
          "name": "_amount",
          "type": "uint256"
        },
        {
          "internalType": "bool",
          "name": "_useZro",
          "type": "bool"
        },
        {
          "internalType": "bytes",
          "name": "_adapterParams",
          "type": "bytes"
        }
      ],
      "name": "estimateSendFee",
      "outputs": [
        {
          "internalType": "uint256",
          "name": "nativeFee",
          "type": "uint256"
        },
        {
          "internalType": "uint256",
          "name": "zroFee",
          "type": "uint256"
        }
      ],
      "stateMutability": "view",
      "type": "function"
    },
    {
      "inputs": [
        {
          "internalType": "uint16",
          "name": "",
          "type": "uint16"
        },
        {
          "internalType": "bytes",
          "name": "",
          "type": "bytes"
        },
        {
          "internalType": "uint64",
          "name": "",
          "type": "uint64"
        }
      ],
      "name": "failedMessages",
      "outputs": [
        {
          "internalType": "bytes32",
          "name": "",
          "type": "bytes32"
        }
      ],
      "stateMutability": "view",
      "type": "function"
    },
    {
      "inputs": [
        {
          "internalType": "uint16",
          "name": "_srcChainId",
          "type": "uint16"
        },
        {
          "internalType": "bytes",
          "name": "_srcAddress",
          "type": "bytes"
        }
      ],
      "name": "forceResumeReceive",
      "outputs": [],
      "stateMutability": "nonpayable",
      "type": "function"
    },
    {
      "inputs": [
        {
          "internalType": "uint16",
          "name": "_version",
          "type": "uint16"
        },
        {
          "internalType": "uint16",
          "name": "_chainId",
          "type": "uint16"
        },
        {
          "internalType": "address",
          "name": "",
          "type": "address"
        },
        {
          "internalType": "uint256",
          "name": "_configType",
          "type": "uint256"
        }
      ],
      "name": "getConfig",
      "outputs": [
        {
          "internalType": "bytes",
          "name": "",
          "type": "bytes"
        }
      ],
      "stateMutability": "view",
      "type": "function"
    },
    {
      "inputs": [
        {
          "internalType": "uint16",
          "name": "_remoteChainId",
          "type": "uint16"
        }
      ],
      "name": "getTrustedRemoteAddress",
      "outputs": [
        {
          "internalType": "bytes",
          "name": "",
          "type": "bytes"
        }
      ],
      "stateMutability": "view",
      "type": "function"
    },
    {
      "inputs": [
        {
          "internalType": "uint16",
          "name": "_srcChainId",
          "type": "uint16"
        },
        {
          "internalType": "bytes",
          "name": "_srcAddress",
          "type": "bytes"
        }
      ],
      "name": "isTrustedRemote",
      "outputs": [
        {
          "internalType": "bool",
          "name": "",
          "type": "bool"
        }
      ],
      "stateMutability": "view",
      "type": "function"
    },
    {
      "inputs": [],
      "name": "lzEndpoint",
      "outputs": [
        {
          "internalType": "contract ILayerZeroEndpoint",
          "name": "",
          "type": "address"
        }
      ],
      "stateMutability": "view",
      "type": "function"
    },
    {
      "inputs": [
        {
          "internalType": "uint16",
          "name": "_srcChainId",
          "type": "uint16"
        },
        {
          "internalType": "bytes",
          "name": "_srcAddress",
          "type": "bytes"
        },
        {
          "internalType": "uint64",
          "name": "_nonce",
          "type": "uint64"
        },
        {
          "internalType": "bytes",
          "name": "_payload",
          "type": "bytes"
        }
      ],
      "name": "lzReceive",
      "outputs": [],
      "stateMutability": "nonpayable",
      "type": "function"
    },
    {
      "inputs": [
        {
          "internalType": "uint16",
          "name": "",
          "type": "uint16"
        },
        {
          "internalType": "uint16",
          "name": "",
          "type": "uint16"
        }
      ],
      "name": "minDstGasLookup",
      "outputs": [
        {
          "internalType": "uint256",
          "name": "",
          "type": "uint256"
        }
      ],
      "stateMutability": "view",
      "type": "function"
    },
    {
      "inputs": [
        {
          "internalType": "uint16",
          "name": "_srcChainId",
          "type": "uint16"
        },
        {
          "internalType": "bytes",
          "name": "_srcAddress",
          "type": "bytes"
        },
        {
          "internalType": "uint64",
          "name": "_nonce",
          "type": "uint64"
        },
        {
          "internalType": "bytes",
          "name": "_payload",
          "type": "bytes"
        }
      ],
      "name": "nonblockingLzReceive",
      "outputs": [],
      "stateMutability": "nonpayable",
      "type": "function"
    },
    {
      "inputs": [
        {
          "internalType": "address",
          "name": "_operator",
          "type": "address"
        },
        {
          "internalType": "address",
          "name": "",
          "type": "address"
        },
        {
          "internalType": "uint256[]",
          "name": "",
          "type": "uint256[]"
        },
        {
          "internalType": "uint256[]",
          "name": "",
          "type": "uint256[]"
        },
        {
          "internalType": "bytes",
          "name": "",
          "type": "bytes"
        }
      ],
      "name": "onERC1155BatchReceived",
      "outputs": [
        {
          "internalType": "bytes4",
          "name": "",
          "type": "bytes4"
        }
      ],
      "stateMutability": "nonpayable",
      "type": "function"
    },
    {
      "inputs": [
        {
          "internalType": "address",
          "name": "_operator",
          "type": "address"
        },
        {
          "internalType": "address",
          "name": "",
          "type": "address"
        },
        {
          "internalType": "uint256",
          "name": "",
          "type": "uint256"
        },
        {
          "internalType": "uint256",
          "name": "",
          "type": "uint256"
        },
        {
          "internalType": "bytes",
          "name": "",
          "type": "bytes"
        }
      ],
      "name": "onERC1155Received",
      "outputs": [
        {
          "internalType": "bytes4",
          "name": "",
          "type": "bytes4"
        }
      ],
      "stateMutability": "nonpayable",
      "type": "function"
    },
    {
      "inputs": [],
      "name": "owner",
      "outputs": [
        {
          "internalType": "address",
          "name": "",
          "type": "address"
        }
      ],
      "stateMutability": "view",
      "type": "function"
    },
    {
      "inputs": [
        {
          "internalType": "uint16",
          "name": "",
          "type": "uint16"
        }
      ],
      "name": "payloadSizeLimitLookup",
      "outputs": [
        {
          "internalType": "uint256",
          "name": "",
          "type": "uint256"
        }
      ],
      "stateMutability": "view",
      "type": "function"
    },
    {
      "inputs": [],
      "name": "precrime",
      "outputs": [
        {
          "internalType": "address",
          "name": "",
          "type": "address"
        }
      ],
      "stateMutability": "view",
      "type": "function"
    },
    {
      "inputs": [],
      "name": "renounceOwnership",
      "outputs": [],
      "stateMutability": "nonpayable",
      "type": "function"
    },
    {
      "inputs": [
        {
          "internalType": "uint16",
          "name": "_srcChainId",
          "type": "uint16"
        },
        {
          "internalType": "bytes",
          "name": "_srcAddress",
          "type": "bytes"
        },
        {
          "internalType": "uint64",
          "name": "_nonce",
          "type": "uint64"
        },
        {
          "internalType": "bytes",
          "name": "_payload",
          "type": "bytes"
        }
      ],
      "name": "retryMessage",
      "outputs": [],
      "stateMutability": "payable",
      "type": "function"
    },
    {
      "inputs": [
        {
          "internalType": "address",
          "name": "_from",
          "type": "address"
        },
        {
          "internalType": "uint16",
          "name": "_dstChainId",
          "type": "uint16"
        },
        {
          "internalType": "bytes",
          "name": "_toAddress",
          "type": "bytes"
        },
        {
          "internalType": "uint256[]",
          "name": "_tokenIds",
          "type": "uint256[]"
        },
        {
          "internalType": "uint256[]",
          "name": "_amounts",
          "type": "uint256[]"
        },
        {
          "internalType": "address payable",
          "name": "_refundAddress",
          "type": "address"
        },
        {
          "internalType": "address",
          "name": "_zroPaymentAddress",
          "type": "address"
        },
        {
          "internalType": "bytes",
          "name": "_adapterParams",
          "type": "bytes"
        }
      ],
      "name": "sendBatchFrom",
      "outputs": [],
      "stateMutability": "payable",
      "type": "function"
    },
    {
      "inputs": [
        {
          "internalType": "address",
          "name": "_from",
          "type": "address"
        },
        {
          "internalType": "uint16",
          "name": "_dstChainId",
          "type": "uint16"
        },
        {
          "internalType": "bytes",
          "name": "_toAddress",
          "type": "bytes"
        },
        {
          "internalType": "uint256",
          "name": "_tokenId",
          "type": "uint256"
        },
        {
          "internalType": "uint256",
          "name": "_amount",
          "type": "uint256"
        },
        {
          "internalType": "address payable",
          "name": "_refundAddress",
          "type": "address"
        },
        {
          "internalType": "address",
          "name": "_zroPaymentAddress",
          "type": "address"
        },
        {
          "internalType": "bytes",
          "name": "_adapterParams",
          "type": "bytes"
        }
      ],
      "name": "sendFrom",
      "outputs": [],
      "stateMutability": "payable",
      "type": "function"
    },
    {
      "inputs": [
        {
          "internalType": "uint16",
          "name": "_version",
          "type": "uint16"
        },
        {
          "internalType": "uint16",
          "name": "_chainId",
          "type": "uint16"
        },
        {
          "internalType": "uint256",
          "name": "_configType",
          "type": "uint256"
        },
        {
          "internalType": "bytes",
          "name": "_config",
          "type": "bytes"
        }
      ],
      "name": "setConfig",
      "outputs": [],
      "stateMutability": "nonpayable",
      "type": "function"
    },
    {
      "inputs": [
        {
          "internalType": "uint16",
          "name": "_dstChainId",
          "type": "uint16"
        },
        {
          "internalType": "uint16",
          "name": "_packetType",
          "type": "uint16"
        },
        {
          "internalType": "uint256",
          "name": "_minGas",
          "type": "uint256"
        }
      ],
      "name": "setMinDstGas",
      "outputs": [],
      "stateMutability": "nonpayable",
      "type": "function"
    },
    {
      "inputs": [
        {
          "internalType": "uint16",
          "name": "_dstChainId",
          "type": "uint16"
        },
        {
          "internalType": "uint256",
          "name": "_size",
          "type": "uint256"
        }
      ],
      "name": "setPayloadSizeLimit",
      "outputs": [],
      "stateMutability": "nonpayable",
      "type": "function"
    },
    {
      "inputs": [
        {
          "internalType": "address",
          "name": "_precrime",
          "type": "address"
        }
      ],
      "name": "setPrecrime",
      "outputs": [],
      "stateMutability": "nonpayable",
      "type": "function"
    },
    {
      "inputs": [
        {
          "internalType": "uint16",
          "name": "_version",
          "type": "uint16"
        }
      ],
      "name": "setReceiveVersion",
      "outputs": [],
      "stateMutability": "nonpayable",
      "type": "function"
    },
    {
      "inputs": [
        {
          "internalType": "uint16",
          "name": "_version",
          "type": "uint16"
        }
      ],
      "name": "setSendVersion",
      "outputs": [],
      "stateMutability": "nonpayable",
      "type": "function"
    },
    {
      "inputs": [
        {
          "internalType": "uint16",
          "name": "_srcChainId",
          "type": "uint16"
        },
        {
          "internalType": "bytes",
          "name": "_path",
          "type": "bytes"
        }
      ],
      "name": "setTrustedRemote",
      "outputs": [],
      "stateMutability": "nonpayable",
      "type": "function"
    },
    {
      "inputs": [
        {
          "internalType": "uint16",
          "name": "_remoteChainId",
          "type": "uint16"
        },
        {
          "internalType": "bytes",
          "name": "_remoteAddress",
          "type": "bytes"
        }
      ],
      "name": "setTrustedRemoteAddress",
      "outputs": [],
      "stateMutability": "nonpayable",
      "type": "function"
    },
    {
      "inputs": [
        {
          "internalType": "bytes4",
          "name": "interfaceId",
          "type": "bytes4"
        }
      ],
      "name": "supportsInterface",
      "outputs": [
        {
          "internalType": "bool",
          "name": "",
          "type": "bool"
        }
      ],
      "stateMutability": "view",
      "type": "function"
    },
    {
      "inputs": [],
      "name": "token",
      "outputs": [
        {
          "internalType": "contract IERC1155",
          "name": "",
          "type": "address"
        }
      ],
      "stateMutability": "view",
      "type": "function"
    },
    {
      "inputs": [
        {
          "internalType": "address",
          "name": "newOwner",
          "type": "address"
        }
      ],
      "name": "transferOwnership",
      "outputs": [],
      "stateMutability": "nonpayable",
      "type": "function"
    },
    {
      "inputs": [
        {
          "internalType": "uint16",
          "name": "",
          "type": "uint16"
        }
      ],
      "name": "trustedRemoteLookup",
      "outputs": [
        {
          "internalType": "bytes",
          "name": "",
          "type": "bytes"
        }
      ],
      "stateMutability": "view",
      "type": "function"
    }
  ],
  "bytecode": {
    "object": "0x60c080604052346200019b5760408162002cca8038038091620000238285620001d2565b8339810103126200019b576200004760206200003f83620001f6565b9201620001f6565b60008054336001600160a01b03198216811783556001600160a01b0394859390928416907f8be0079c531659141344cd1fd0a4f28419497f9722a3daafe3b4186f6b6457e09080a3166080526200009e816200020b565b8062000188575b8062000176575b1562000125571660a052604051612978908162000352823960805181818161038e01528181610532015281816106270152818161076701528181611217015281816113e6015281816119ac01528181611b7401528181611cfe01526120f4015260a051818181611a3801528181611f0201526126c50152f35b60405162461bcd60e51b8152602060048201526024808201527f50726f78794f4e4654313135353a20696e76616c69642045524331313535207460448201526337b5b2b760e11b6064820152608490fd5b5062000182816200031e565b620000ac565b506200019481620002ea565b15620000a5565b600080fd5b606081019081106001600160401b03821117620001bc57604052565b634e487b7160e01b600052604160045260246000fd5b601f909101601f19168101906001600160401b03821190821017620001bc57604052565b51906001600160a01b03821682036200019b57565b60405190602091828101906301ffc9a760e01b8083526024820152602481526200023581620001a0565b600092839283925191617530fa903d15620002e1573d926001600160401b038411620002cd576040519362000274601f8201601f1916830186620001d2565b84523d828286013e5b835193818510620002c5578362000297575b505050905090565b81935080929481010312620002c1570151908115158203620002be5750803880806200028f565b80fd5b8280fd5b505091505090565b634e487b7160e01b82526041600452602482fd5b6060926200027d565b6040516301ffc9a760e01b60208083019182526001600160e01b0319602480850191909152835292916200023581620001a0565b6040516301ffc9a760e01b6020808301918252636cdb3d1360e11b602480850191909152835292916200023581620001a056fe60806040526004361015610013575b600080fd5b60003560e01c80621d3567146102a657806301ffc9a71461029d57806307e0db17146102945780630df374831461028b57806310ddb137146102825780633d8b38f6146102795780633f1f4fa41461027057806342d65a8d146102675780634ab4e6871461025e5780634db8226a146102555780635b8c41e61461024c57806366ad5c8a14610243578063715018a61461023a5780637533d788146102315780638608e5f8146102285780638cfd8f5c1461021f5780638da5cb5b14610216578063950c8a741461020d5780639f38369a14610204578063a6c3d165146101fb578063b2535663146101f2578063b353aaa7146101e9578063baf3292d146101e0578063bc197c81146101d7578063c4461834146101ce578063cbed8b9c146101c5578063d1deba1f146101bc578063df2a5b3b146101b3578063eb8d72b7146101aa578063f23a6e61146101a1578063f2fde38b14610198578063f5ecbdbc1461018f5763fc0c546a1461018757600080fd5b61000e611a21565b5061000e611946565b5061000e6118ab565b5061000e611844565b5061000e6116df565b5061000e6115ec565b5061000e611488565b5061000e611385565b5061000e611367565b5061000e6112c4565b5061000e611246565b5061000e611200565b5061000e61116a565b5061000e610fcc565b5061000e610f19565b5061000e610eef565b5061000e610ec5565b5061000e610e71565b5061000e610de1565b5061000e610d88565b5061000e610c14565b5061000e610b82565b5061000e610ad7565b5061000e610a1b565b5061000e610977565b5061000e61073a565b5061000e610704565b5061000e6106b8565b5061000e6105f3565b5061000e6105aa565b5061000e6104fe565b5061000e61048d565b5061000e610376565b6004359061ffff8216820361000e57565b6024359061ffff8216820361000e57565b9181601f8401121561000e578235916001600160401b03831161000e576020838186019501011161000e57565b6001600160401b0381160361000e57565b90608060031983011261000e5760043561ffff8116810361000e57916001600160401b039060243582811161000e578161034b916004016102d1565b9390939260443561035b816102fe565b9260643591821161000e57610372916004016102d1565b9091565b503461000e576103853661030f565b929493919291907f00000000000000000000000000000000000000000000000000000000000000006001600160a01b031633036104485761040b61041392610419976104046103ea6103e58a61ffff166000526001602052604060002090565b610cae565b805190818414918261043e575b508161041b575b5061200e565b3691610891565b923691610891565b9261236d565b005b9050610428368486610891565b60208151910120906020815191012014386103fe565b15159150386103f7565b60405162461bcd60e51b815260206004820152601e60248201527f4c7a4170703a20696e76616c696420656e64706f696e742063616c6c657200006044820152606490fd5b503461000e57602036600319011261000e5760043563ffffffff60e01b811680910361000e57602090630271189760e51b81149081156104d3575b506040519015158152f35b6319abbbbb60e11b8114915081156104ed575b50386104c8565b6301ffc9a760e01b149050386104e6565b503461000e57600060203660031901126105a75761051a6102af565b8160018060a01b0361053081835416331461227b565b7f00000000000000000000000000000000000000000000000000000000000000001691823b156105a357602461ffff918360405195869485936307e0db1760e01b85521660048401525af18015610596575b61058a575080f35b6105939061080b565b80f35b61059e611ae8565b610582565b5080fd5b80fd5b503461000e57604036600319011261000e5761ffff6105c76102af565b6105dc60018060a01b0360005416331461227b565b166000526003602052602435604060002055600080f35b503461000e57600060203660031901126105a75761060f6102af565b8160018060a01b0361062581835416331461227b565b7f00000000000000000000000000000000000000000000000000000000000000001691823b156105a357602461ffff918360405195869485936310ddb13760e01b85521660048401525af180156105965761058a575080f35b90604060031983011261000e5760043561ffff8116810361000e5791602435906001600160401b03821161000e57610372916004016102d1565b503461000e57602061ffff6106f56106cf3661067e565b93909116600052600184526106e76040600020610cae565b848151910120923691610891565b82815191012014604051908152f35b503461000e57602036600319011261000e5761ffff6107216102af565b1660005260036020526020604060002054604051908152f35b503461000e576107493661067e565b9190600092839160018060a01b0361076581855416331461227b565b7f00000000000000000000000000000000000000000000000000000000000000001690813b156107c357836107b195604051968795869485936342d65a8d60e01b8552600485016122e7565b03925af180156105965761058a575080f35b8380fd5b6001600160a01b0381160361000e57565b600435906107e5826107c7565b565b60c435906107e5826107c7565b50634e487b7160e01b600052604160045260246000fd5b6001600160401b03811161081e57604052565b6108266107f4565b604052565b60c081019081106001600160401b0382111761081e57604052565b90601f801991011681019081106001600160401b0382111761081e57604052565b6020906001600160401b038111610884575b601f01601f19160190565b61088c6107f4565b610879565b92919261089d82610867565b916108ab6040519384610846565b82948184528183011161000e578281602093846000960137010152565b9080601f8301121561000e578160206108e393359101610891565b90565b6020906001600160401b0381116108ff575b60051b0190565b6109076107f4565b6108f8565b81601f8201121561000e57803591610923836108e6565b926109316040519485610846565b808452602092838086019260051b82010192831161000e578301905b82821061095b575050505090565b8135815290830190830161094d565b60a435906107e5826107c7565b5061010036600319011261000e5761098d6107d8565b6109956102c0565b6001600160401b03919060443583811161000e576109b79036906004016108c8565b60643584811161000e576109cf90369060040161090c565b60843585811161000e576109e790369060040161090c565b906109f061096a565b926109f96107e7565b9460e43597881161000e57610a156104199836906004016108c8565b96611bec565b5061010036600319011261000e57600435610a35816107c7565b610a3d6102c0565b6001600160401b03919060443583811161000e57610a5f9036906004016108c8565b9060a435610a6c816107c7565b60c43591610a79836107c7565b60e43595861161000e57610a946104199636906004016108c8565b93610aa0606435611e5c565b90610aac608435611e5c565b923497611c8e565b60005b838110610ac75750506000910152565b8181015183820152602001610ab7565b503461000e57606036600319011261000e57610af16102af565b6024356001600160401b03811161000e57610b7e91610b4c6020610b1c610b6d9436906004016108c8565b61ffff60443594610b2c866102fe565b166000526005825260406000208260405194838680955193849201610ab4565b820190815203019020906001600160401b0316600052602052604060002090565b546040519081529081906020820190565b0390f35b503461000e57610b913661030f565b9192949390303303610bb55761040b610baf92610419973691610891565b926125a3565b60405162461bcd60e51b815260206004820152602660248201527f4e6f6e626c6f636b696e674c7a4170703a2063616c6c6572206d7573742062656044820152650204c7a4170760d41b6064820152608490fd5b600091031261000e57565b503461000e576000806003193601126105a757805481906001600160a01b03811690610c4133831461227b565b6001600160a01b03191682557f8be0079c531659141344cd1fd0a4f28419497f9722a3daafe3b4186f6b6457e08280a380f35b90600182811c92168015610ca4575b6020831014610c8e57565b634e487b7160e01b600052602260045260246000fd5b91607f1691610c83565b9060405191826000825492610cc284610c74565b908184526001948581169081600014610d2f5750600114610cec575b50506107e592500383610846565b9093915060005260209081600020936000915b818310610d175750506107e593508201013880610cde565b85548884018501529485019487945091830191610cff565b9150506107e594506020925060ff191682840152151560051b8201013880610cde565b90602091610d6b81518092818552858086019101610ab4565b601f01601f1916010190565b9060206108e3928181520190610d52565b503461000e57602036600319011261000e5761ffff610da56102af565b166000526001602052610b7e610dbe6040600020610cae565b604051918291602083526020830190610d52565b60843590811515820361000e57565b503461000e5760c036600319011261000e57610dfb6102af565b6001600160401b039060243582811161000e57610e1c9036906004016108c8565b90610e25610dd2565b9060a43593841161000e57610e41610e5f9436906004016108c8565b92610e4d604435611e5c565b90610e59606435611e5c565b92611af5565b60408051928352602083019190915290f35b503461000e57604036600319011261000e576020610ebc610e906102af565b61ffff610e9b6102c0565b91166000526002835260406000209061ffff16600052602052604060002090565b54604051908152f35b503461000e57600036600319011261000e576000546040516001600160a01b039091168152602090f35b503461000e57600036600319011261000e576004546040516001600160a01b039091168152602090f35b503461000e57602036600319011261000e5761ffff610f366102af565b166000526001602052610f4c6040600020610cae565b805115610f8757610f6e81610b7e9251906013198201918211610f7a5761287b565b60405191829182610d77565b610f82612356565b61287b565b60405162461bcd60e51b815260206004820152601d60248201527f4c7a4170703a206e6f20747275737465642070617468207265636f72640000006044820152606490fd5b503461000e57610fdb3661067e565b9190600091610ff460018060a01b03845416331461227b565b60405193602081848288013761101f6034878481013060601b85820152036014810189520187610846565b61ffff8316855260019081815260408620918751916001600160401b03831161115d575b611057836110518654610c74565b86612302565b80601f84116001146110c75750918080926110b69695948a9b7f8c0400cfe2d1199b1a725c78960bcc2a344d869b80590d0f2bd005db15a572ce9b946110bc575b50501b916000199060031b1c19161790555b604051938493846122e7565b0390a180f35b015192503880611098565b91939498601f1984166110df87600052602060002090565b938a905b828210611146575050917f8c0400cfe2d1199b1a725c78960bcc2a344d869b80590d0f2bd005db15a572ce999a959391856110b69896941061112d575b505050811b0190556110aa565b015160001960f88460031b161c19169055388080611120565b8088869782949787015181550196019401906110e3565b6111656107f4565b611043565b503461000e5760c036600319011261000e576111846102af565b6001600160401b039060243582811161000e576111a59036906004016108c8565b60443583811161000e576111bd90369060040161090c565b60643584811161000e576111d590369060040161090c565b906111de610dd2565b9260a43595861161000e576111fa610e5f9636906004016108c8565b94611af5565b503461000e57600036600319011261000e576040517f00000000000000000000000000000000000000000000000000000000000000006001600160a01b03168152602090f35b503461000e57602036600319011261000e577f5db758e995a17ec1ad84bdef7e8c3293a0bd6179bcce400dff5d4c3d87db726b6020600435611287816107c7565b6000546001600160a01b0391906112a1908316331461227b565b16806bffffffffffffffffffffffff60a01b6004541617600455604051908152a1005b503461000e5760a036600319011261000e576004356112e2816107c7565b6112ed6024356107c7565b6001600160401b0360443581811161000e5761130d90369060040161090c565b5060643581811161000e5761132690369060040161090c565b5060843590811161000e57610b7e9161134661134c9236906004016108c8565b50611ff2565b6040516001600160e01b031990911681529081906020820190565b503461000e57600036600319011261000e5760206040516127108152f35b503461000e57608036600319011261000e5761139f6102af565b6113a76102c0565b6064356001600160401b03811161000e576113c69036906004016102d1565b60018060a09493941b0391600094836113e48795865416331461227b565b7f00000000000000000000000000000000000000000000000000000000000000001691823b15611484578490611451604051978896879586946332fb62e760e21b865261ffff809216600487015216602485015260443560448501526080606485015260848401916122c6565b03925af18015611477575b611464575080f35b806114716105939261080b565b80610c09565b61147f611ae8565b61145c565b8480fd5b506114923661030f565b9161ffff869492961660005260056020526114d981604060002060206040518092878b833787820190815203019020906001600160401b0316600052602052604060002090565b5491821561159b5761158a84836115837fc264d91f3adc5588250e1551f547752ca0cfa8f6b530d243b9f9f4cab10ea8e59a600061156f846115578e8a8f6115969f908f61153d906115306115519436908d610891565b602081519101201461275b565b61ffff166000526005602052604060002090565b91612742565b906001600160401b0316600052602052604060002090565b5561157b36878d610891565b933691610891565b91886125a3565b604051958695866127b1565b0390a1005b60405162461bcd60e51b815260206004820152602360248201527f4e6f6e626c6f636b696e674c7a4170703a206e6f2073746f726564206d65737360448201526261676560e81b6064820152608490fd5b503461000e57606036600319011261000e576116066102af565b61160e6102c0565b6044359161162760018060a01b0360005416331461227b565b82156116a2576115967f9d5c7c0b934da8fefa9c7760c98383778a12dfbfc0c3b3106518f43fb9508ac09361ffff831660005260026020528061167c8560406000209061ffff16600052602052604060002090565b556040519384938460409194939294606082019561ffff80921683521660208201520152565b60405162461bcd60e51b81526020600482015260156024820152744c7a4170703a20696e76616c6964206d696e47617360581b6044820152606490fd5b503461000e576116ee3661067e565b919060009161170760018060a01b03845416331461227b565b61ffff81168352600160209080825260408520916001600160401b038711611837575b61173e876117388554610c74565b85612302565b8590601f88116001146117a557509186808798936110b6957ffa41487ad5d6728f0b19276fa1eddc16558578f5109fc39d2dc33c3230470dab999361179a575b501b906000198460031b1c1916179055604051938493846122e7565b88013592503861177e565b90601f1988166117ba85600052602060002090565b9288905b828210611820575050918893917ffa41487ad5d6728f0b19276fa1eddc16558578f5109fc39d2dc33c3230470dab98996110b6969410611806575b505082811b0190556110aa565b870135600019600386901b60f8161c1916905538806117f9565b808685968294968c013581550195019301906117be565b61183f6107f4565b61172a565b503461000e5760a036600319011261000e57600435611862816107c7565b61186d6024356107c7565b6084356001600160401b03811161000e576020916118926118989236906004016108c8565b50611fd1565b6040516001600160e01b03199091168152f35b503461000e57602036600319011261000e576004356118c9816107c7565b6000546001600160a01b03906118e2908216331461227b565b8116156118f257610419906128fb565b60405162461bcd60e51b815260206004820152602660248201527f4f776e61626c653a206e6577206f776e657220697320746865207a65726f206160448201526564647265737360d01b6064820152608490fd5b503461000e57608036600319011261000e57610b7e6119636102af565b61196b6102c0565b906119776044356107c7565b604051633d7b2f6f60e21b815261ffff91821660048201529116602482015230604482015260648035908201526000816084817f00000000000000000000000000000000000000000000000000000000000000006001600160a01b03165afa908115611a14575b6000916119f3575b5060405191829182610d77565b611a0e913d8091833e611a068183610846565b810190612256565b386119e6565b611a1c611ae8565b6119de565b503461000e57600036600319011261000e576040517f00000000000000000000000000000000000000000000000000000000000000006001600160a01b03168152602090f35b90815180825260208080930193019160005b828110611a87575050505090565b835185529381019392810192600101611a79565b91611ac490611ab66108e39593606086526060860190610d52565b908482036020860152611a67565b916040818403910152611a67565b919082604091031261000e576020825192015190565b506040513d6000823e3d90fd5b91959493604094611b26611b7093611b1861ffff9789519b8c9360208501611a9b565b03601f1981018a5289610846565b611b578651988996879663040a7bb160e41b885216600487015230602487015260a0604487015260a4860190610d52565b9115156064850152838203600319016084850152610d52565b03817f00000000000000000000000000000000000000000000000000000000000000006001600160a01b03165afa918215611bdf575b6000908193611bb457509190565b905061037291925060403d8111611bd8575b611bd08183610846565b810190611ad2565b503d611bc6565b611be7611ae8565b611ba6565b9593916107e5979593913497611c8e565b9081602091031261000e57516108e3816102fe565b611c2a90602060405192828480945193849201610ab4565b810103902090565b91611c646001600160401b0391611c56604094979697606087526060870190611a67565b908582036020870152611a67565b9416910152565b805115611c785760200190565b634e487b7160e01b600052603260045260246000fd5b9690939495611cd09396989298611ca687898b611eed565b604051611cca81611cbc8a8c8f60208501611a9b565b03601f198101835282610846565b866120c1565b604051630f428ae960e31b815261ffff821660048201523060248201526001600160a01b03956020826044817f00000000000000000000000000000000000000000000000000000000000000008b165afa918215611e4f575b600092611e1f575b50845160018103611db7575061ffff9291611db291611d85611d7e611d777f65f8f231660ef9add3da95eb0bbdae4c246f6c10e274fae37b17190637080d4c9899611c6b565b5198611c6b565b5191611c12565b9860405195869516981696849160409194936001600160401b039160608501968552602085015216910152565b0390a4565b6001909493929411611dcd575b50505050505050565b7f2d31495ecbe799a81d5475c03585aa019860601fed836229d70e335b732eab3d9361ffff93611dff611e1093611c12565b986040519586951698169684611c32565b0390a438808080808080611dc4565b611e4191925060203d8111611e48575b611e398183610846565b810190611bfd565b9038611d31565b503d611e2f565b611e57611ae8565b611d29565b60405190604082018281106001600160401b03821117611e92575b60405260018252602082016020368237825115611c78575290565b611e9a6107f4565b611e77565b92611ece9060209592611edc9460018060a01b038092168752168686015260a0604086015260a0850190611a67565b908382036060850152611a67565b906080818303910152600081520190565b90916001600160a01b033381841603611f7c577f000000000000000000000000000000000000000000000000000000000000000016803b1561000e57611f50936000809460405196879586948593631759616b60e11b8552309060048601611e9f565b03925af18015611f6f575b611f625750565b806114716107e59261080b565b611f77611ae8565b611f5b565b60405162461bcd60e51b815260206004820152602760248201527f50726f78794f4e4654313135353a206f776e6572206973206e6f742073656e646044820152661031b0b63632b960c91b6064820152608490fd5b306001600160a01b0390911603611fed5763f23a6e6160e01b90565b600090565b306001600160a01b0390911603611fed5763bc197c8160e01b90565b1561201557565b60405162461bcd60e51b815260206004820152602660248201527f4c7a4170703a20696e76616c696420736f757263652073656e64696e6720636f6044820152651b9d1c9858dd60d21b6064820152608490fd5b9261208e6108e397959361ffff61209c9416865260c0602087015260c0860190610d52565b908482036040860152610d52565b6001600160a01b0391821660608401529316608082015280830360a090910152610d52565b9092919461ffff821660005260016020526120df6040600020610cae565b91825115612147576120f28551826121a5565b7f00000000000000000000000000000000000000000000000000000000000000006001600160a01b031693843b1561000e57600096611f5091604051998a988997889662c5803160e81b885260048801612069565b60405162461bcd60e51b815260206004820152603060248201527f4c7a4170703a2064657374696e6174696f6e20636861696e206973206e6f742060448201526f61207472757374656420736f7572636560801b6064820152608490fd5b61ffff16600052600360205260406000205490811561220a575b116121c657565b606460405162461bcd60e51b815260206004820152602060248201527f4c7a4170703a207061796c6f61642073697a6520697320746f6f206c617267656044820152fd5b61271091506121bf565b81601f8201121561000e57805161222a81610867565b926122386040519485610846565b8184526020828401011161000e576108e39160208085019101610ab4565b9060208282031261000e5781516001600160401b03811161000e576108e39201612214565b1561228257565b606460405162461bcd60e51b815260206004820152602060248201527f4f776e61626c653a2063616c6c6572206973206e6f7420746865206f776e65726044820152fd5b908060209392818452848401376000828201840152601f01601f1916010190565b60409061ffff6108e3959316815281602082015201916122c6565b90601f811161231057505050565b600091825260208220906020601f850160051c8301941061234c575b601f0160051c01915b82811061234157505050565b818155600101612335565b909250829061232c565b50634e487b7160e01b600052601160045260246000fd5b9290915a604051633356ae4560e11b6020820190815261ffff871660248301526080604483015294916123d9826123cb6123aa60a4830187610d52565b6001600160401b038816606484015282810360231901608484015288610d52565b03601f198101845283610846565b60008091604051976123ea8961082b565b609689528260208a019560a036883751923090f1903d9060968211612431575b6000908288523e1561241e575b5050505050565b6124279461243a565b3880808080612417565b6096915061240a565b91936124d77fe183f33de2837795525b4792ca4cd60535bd77c53b7e7030060bfcf5734d6b0c956124e5939561ffff8151602083012096169586600052600560205261249e83610b4c60208b60406000208260405194838680955193849201610ab4565b556001600160401b036124c3604051988998895260a060208a015260a0890190610d52565b921660408701528582036060870152610d52565b908382036080850152610d52565b0390a1565b81601f8201121561000e57805191612501836108e6565b9261250f6040519485610846565b808452602092838086019260051b82010192831161000e578301905b828210612539575050505090565b8151815290830190830161252b565b909160608284031261000e578151916001600160401b039283811161000e5784612573918301612214565b93602082015184811161000e578161258c9184016124ea565b93604083015190811161000e576108e392016124ea565b926125bc60149193929360208082518301019101612548565b93919290920151916125cf8482856126c1565b805160018103612654575091611db261ffff926126206126196126127f330378e2f010257b2fbe836316fb7ab303af5ed8f2795b82bca60d1c8c909f7697611c6b565b5197611c6b565b5197611c12565b9660405194859460018060a01b0316991696849160409194936001600160401b039160608501968552602085015216910152565b60019095939194951161266a575b505050505050565b6126b361ffff9261269b7f5604161d52abb20dbe3d4a2230e585a0b230b3d18179a0e00917b173f5f9adab95611c12565b9660405194859460018060a01b031699169684611c32565b0390a4388080808080612662565b90917f00000000000000000000000000000000000000000000000000000000000000006001600160a01b0316803b1561000e5761271a936000809460405196879586948593631759616b60e11b85523060048601611e9f565b03925af18015612735575b61272c5750565b6107e59061080b565b61273d611ae8565b612725565b6020919283604051948593843782019081520301902090565b1561276257565b60405162461bcd60e51b815260206004820152602160248201527f4e6f6e626c6f636b696e674c7a4170703a20696e76616c6964207061796c6f616044820152601960fa1b6064820152608490fd5b916127dd9060609461ffff6001600160401b0394999897991685526080602086015260808501916122c6565b951660408201520152565b90601f82018092116127f657565b6107e5612356565b1561280557565b60405162461bcd60e51b815260206004820152600e60248201526d736c6963655f6f766572666c6f7760901b6044820152606490fd5b1561284257565b60405162461bcd60e51b8152602060048201526011602482015270736c6963655f6f75744f66426f756e647360781b6044820152606490fd5b61288f82612888816127e8565b10156127fe565b61289c828251101561283b565b816128b4575050604051600081526020810160405290565b60405191601f811691821560051b808486010193838501920101905b8084106128e85750508252601f01601f191660405290565b90928351815260208091019301906128d0565b600080546001600160a01b039283166001600160a01b03198216811783559216907f8be0079c531659141344cd1fd0a4f28419497f9722a3daafe3b4186f6b6457e09080a356fea2646970667358221220c27d05660465ab39cdb7f27150ae6d3c9b99b9dccf00c7f636fea9f565ce0fa264736f6c63430008110033",
    "linkReferences": {}
  },
  "methodIdentifiers": {
    "DEFAULT_PAYLOAD_SIZE_LIMIT()": "c4461834",
    "estimateSendBatchFee(uint16,bytes,uint256[],uint256[],bool,bytes)": "b2535663",
    "estimateSendFee(uint16,bytes,uint256,uint256,bool,bytes)": "8608e5f8",
    "failedMessages(uint16,bytes,uint64)": "5b8c41e6",
    "forceResumeReceive(uint16,bytes)": "42d65a8d",
    "getConfig(uint16,uint16,address,uint256)": "f5ecbdbc",
    "getTrustedRemoteAddress(uint16)": "9f38369a",
    "isTrustedRemote(uint16,bytes)": "3d8b38f6",
    "lzEndpoint()": "b353aaa7",
    "lzReceive(uint16,bytes,uint64,bytes)": "001d3567",
    "minDstGasLookup(uint16,uint16)": "8cfd8f5c",
    "nonblockingLzReceive(uint16,bytes,uint64,bytes)": "66ad5c8a",
    "onERC1155BatchReceived(address,address,uint256[],uint256[],bytes)": "bc197c81",
    "onERC1155Received(address,address,uint256,uint256,bytes)": "f23a6e61",
    "owner()": "8da5cb5b",
    "payloadSizeLimitLookup(uint16)": "3f1f4fa4",
    "precrime()": "950c8a74",
    "renounceOwnership()": "715018a6",
    "retryMessage(uint16,bytes,uint64,bytes)": "d1deba1f",
    "sendBatchFrom(address,uint16,bytes,uint256[],uint256[],address,address,bytes)": "4ab4e687",
    "sendFrom(address,uint16,bytes,uint256,uint256,address,address,bytes)": "4db8226a",
    "setConfig(uint16,uint16,uint256,bytes)": "cbed8b9c",
    "setMinDstGas(uint16,uint16,uint256)": "df2a5b3b",
    "setPayloadSizeLimit(uint16,uint256)": "0df37483",
    "setPrecrime(address)": "baf3292d",
    "setReceiveVersion(uint16)": "10ddb137",
    "setSendVersion(uint16)": "07e0db17",
    "setTrustedRemote(uint16,bytes)": "eb8d72b7",
    "setTrustedRemoteAddress(uint16,bytes)": "a6c3d165",
    "supportsInterface(bytes4)": "01ffc9a7",
    "token()": "fc0c546a",
    "transferOwnership(address)": "f2fde38b",
    "trustedRemoteLookup(uint16)": "7533d788"
  },
  "id": 178
}