{
  "abi": [
    {
      "inputs": [
        {
          "internalType": "address",
          "name": "_lzEndpoint",
          "type": "address"
        },
        {
          "internalType": "address",
          "name": "_proxyToken",
          "type": "address"
        }
      ],
      "stateMutability": "nonpayable",
      "type": "constructor"
    },
    {
      "anonymous": false,
      "inputs": [
        {
          "indexed": false,
          "internalType": "uint16",
          "name": "_srcChainId",
          "type": "uint16"
        },
        {
          "indexed": false,
          "internalType": "bytes",
          "name": "_srcAddress",
          "type": "bytes"
        },
        {
          "indexed": false,
          "internalType": "uint64",
          "name": "_nonce",
          "type": "uint64"
        },
        {
          "indexed": false,
          "internalType": "bytes",
          "name": "_payload",
          "type": "bytes"
        },
        {
          "indexed": false,
          "internalType": "bytes",
          "name": "_reason",
          "type": "bytes"
        }
      ],
      "name": "MessageFailed",
      "type": "event"
    },
    {
      "anonymous": false,
      "inputs": [
        {
          "indexed": true,
          "internalType": "address",
          "name": "previousOwner",
          "type": "address"
        },
        {
          "indexed": true,
          "internalType": "address",
          "name": "newOwner",
          "type": "address"
        }
      ],
      "name": "OwnershipTransferred",
      "type": "event"
    },
    {
      "anonymous": false,
      "inputs": [
        {
          "indexed": true,
          "internalType": "uint16",
          "name": "_srcChainId",
          "type": "uint16"
        },
        {
          "indexed": true,
          "internalType": "bytes",
          "name": "_srcAddress",
          "type": "bytes"
        },
        {
          "indexed": true,
          "internalType": "address",
          "name": "_toAddress",
          "type": "address"
        },
        {
          "indexed": false,
          "internalType": "uint256[]",
          "name": "_tokenIds",
          "type": "uint256[]"
        },
        {
          "indexed": false,
          "internalType": "uint256[]",
          "name": "_amounts",
          "type": "uint256[]"
        },
        {
          "indexed": false,
          "internalType": "uint64",
          "name": "_nonce",
          "type": "uint64"
        }
      ],
      "name": "ReceiveBatchFromChain",
      "type": "event"
    },
    {
      "anonymous": false,
      "inputs": [
        {
          "indexed": true,
          "internalType": "uint16",
          "name": "_srcChainId",
          "type": "uint16"
        },
        {
          "indexed": true,
          "internalType": "bytes",
          "name": "_srcAddress",
          "type": "bytes"
        },
        {
          "indexed": true,
          "internalType": "address",
          "name": "_toAddress",
          "type": "address"
        },
        {
          "indexed": false,
          "internalType": "uint256",
          "name": "_tokenId",
          "type": "uint256"
        },
        {
          "indexed": false,
          "internalType": "uint256",
          "name": "_amount",
          "type": "uint256"
        },
        {
          "indexed": false,
          "internalType": "uint64",
          "name": "_nonce",
          "type": "uint64"
        }
      ],
      "name": "ReceiveFromChain",
      "type": "event"
    },
    {
      "anonymous": false,
      "inputs": [
        {
          "indexed": false,
          "internalType": "uint16",
          "name": "_srcChainId",
          "type": "uint16"
        },
        {
          "indexed": false,
          "internalType": "bytes",
          "name": "_srcAddress",
          "type": "bytes"
        },
        {
          "indexed": false,
          "internalType": "uint64",
          "name": "_nonce",
          "type": "uint64"
        },
        {
          "indexed": false,
          "internalType": "bytes32",
          "name": "_payloadHash",
          "type": "bytes32"
        }
      ],
      "name": "RetryMessageSuccess",
      "type": "event"
    },
    {
      "anonymous": false,
      "inputs": [
        {
          "indexed": true,
          "internalType": "address",
          "name": "_sender",
          "type": "address"
        },
        {
          "indexed": true,
          "internalType": "uint16",
          "name": "_dstChainId",
          "type": "uint16"
        },
        {
          "indexed": true,
          "internalType": "bytes",
          "name": "_toAddress",
          "type": "bytes"
        },
        {
          "indexed": false,
          "internalType": "uint256[]",
          "name": "_tokenIds",
          "type": "uint256[]"
        },
        {
          "indexed": false,
          "internalType": "uint256[]",
          "name": "_amounts",
          "type": "uint256[]"
        },
        {
          "indexed": false,
          "internalType": "uint64",
          "name": "_nonce",
          "type": "uint64"
        }
      ],
      "name": "SendBatchToChain",
      "type": "event"
    },
    {
      "anonymous": false,
      "inputs": [
        {
          "indexed": true,
          "internalType": "address",
          "name": "_sender",
          "type": "address"
        },
        {
          "indexed": true,
          "internalType": "uint16",
          "name": "_dstChainId",
          "type": "uint16"
        },
        {
          "indexed": true,
          "internalType": "bytes",
          "name": "_toAddress",
          "type": "bytes"
        },
        {
          "indexed": false,
          "internalType": "uint256",
          "name": "_tokenId",
          "type": "uint256"
        },
        {
          "indexed": false,
          "internalType": "uint256",
          "name": "_amount",
          "type": "uint256"
        },
        {
          "indexed": false,
          "internalType": "uint64",
          "name": "_nonce",
          "type": "uint64"
        }
      ],
      "name": "SendToChain",
      "type": "event"
    },
    {
      "anonymous": false,
      "inputs": [
        {
          "indexed": false,
          "internalType": "uint16",
          "name": "_dstChainId",
          "type": "uint16"
        },
        {
          "indexed": false,
          "internalType": "uint16",
          "name": "_type",
          "type": "uint16"
        },
        {
          "indexed": false,
          "internalType": "uint256",
          "name": "_minDstGas",
          "type": "uint256"
        }
      ],
      "name": "SetMinDstGas",
      "type": "event"
    },
    {
      "anonymous": false,
      "inputs": [
        {
          "indexed": false,
          "internalType": "address",
          "name": "precrime",
          "type": "address"
        }
      ],
      "name": "SetPrecrime",
      "type": "event"
    },
    {
      "anonymous": false,
      "inputs": [
        {
          "indexed": false,
          "internalType": "uint16",
          "name": "_remoteChainId",
          "type": "uint16"
        },
        {
          "indexed": false,
          "internalType": "bytes",
          "name": "_path",
          "type": "bytes"
        }
      ],
      "name": "SetTrustedRemote",
      "type": "event"
    },
    {
      "anonymous": false,
      "inputs": [
        {
          "indexed": false,
          "internalType": "uint16",
          "name": "_remoteChainId",
          "type": "uint16"
        },
        {
          "indexed": false,
          "internalType": "bytes",
          "name": "_remoteAddress",
          "type": "bytes"
        }
      ],
      "name": "SetTrustedRemoteAddress",
      "type": "event"
    },
    {
      "inputs": [],
      "name": "DEFAULT_PAYLOAD_SIZE_LIMIT",
      "outputs": [
        {
          "internalType": "uint256",
          "name": "",
          "type": "uint256"
        }
      ],
      "stateMutability": "view",
      "type": "function"
    },
    {
      "inputs": [
        {
          "internalType": "uint16",
          "name": "_dstChainId",
          "type": "uint16"
        },
        {
          "internalType": "bytes",
          "name": "_toAddress",
          "type": "bytes"
        },
        {
          "internalType": "uint256[]",
          "name": "_tokenIds",
          "type": "uint256[]"
        },
        {
          "internalType": "uint256[]",
          "name": "_amounts",
          "type": "uint256[]"
        },
        {
          "internalType": "bool",
          "name": "_useZro",
          "type": "bool"
        },
        {
          "internalType": "bytes",
          "name": "_adapterParams",
          "type": "bytes"
        }
      ],
      "name": "estimateSendBatchFee",
      "outputs": [
        {
          "internalType": "uint256",
          "name": "nativeFee",
          "type": "uint256"
        },
        {
          "internalType": "uint256",
          "name": "zroFee",
          "type": "uint256"
        }
      ],
      "stateMutability": "view",
      "type": "function"
    },
    {
      "inputs": [
        {
          "internalType": "uint16",
          "name": "_dstChainId",
          "type": "uint16"
        },
        {
          "internalType": "bytes",
          "name": "_toAddress",
          "type": "bytes"
        },
        {
          "internalType": "uint256",
          "name": "_tokenId",
          "type": "uint256"
        },
        {
          "internalType": "uint256",
          "name": "_amount",
          "type": "uint256"
        },
        {
          "internalType": "bool",
          "name": "_useZro",
          "type": "bool"
        },
        {
          "internalType": "bytes",
          "name": "_adapterParams",
          "type": "bytes"
        }
      ],
      "name": "estimateSendFee",
      "outputs": [
        {
          "internalType": "uint256",
          "name": "nativeFee",
          "type": "uint256"
        },
        {
          "internalType": "uint256",
          "name": "zroFee",
          "type": "uint256"
        }
      ],
      "stateMutability": "view",
      "type": "function"
    },
    {
      "inputs": [
        {
          "internalType": "uint16",
          "name": "",
          "type": "uint16"
        },
        {
          "internalType": "bytes",
          "name": "",
          "type": "bytes"
        },
        {
          "internalType": "uint64",
          "name": "",
          "type": "uint64"
        }
      ],
      "name": "failedMessages",
      "outputs": [
        {
          "internalType": "bytes32",
          "name": "",
          "type": "bytes32"
        }
      ],
      "stateMutability": "view",
      "type": "function"
    },
    {
      "inputs": [
        {
          "internalType": "uint16",
          "name": "_srcChainId",
          "type": "uint16"
        },
        {
          "internalType": "bytes",
          "name": "_srcAddress",
          "type": "bytes"
        }
      ],
      "name": "forceResumeReceive",
      "outputs": [],
      "stateMutability": "nonpayable",
      "type": "function"
    },
    {
      "inputs": [
        {
          "internalType": "uint16",
          "name": "_version",
          "type": "uint16"
        },
        {
          "internalType": "uint16",
          "name": "_chainId",
          "type": "uint16"
        },
        {
          "internalType": "address",
          "name": "",
          "type": "address"
        },
        {
          "internalType": "uint256",
          "name": "_configType",
          "type": "uint256"
        }
      ],
      "name": "getConfig",
      "outputs": [
        {
          "internalType": "bytes",
          "name": "",
          "type": "bytes"
        }
      ],
      "stateMutability": "view",
      "type": "function"
    },
    {
      "inputs": [
        {
          "internalType": "uint16",
          "name": "_remoteChainId",
          "type": "uint16"
        }
      ],
      "name": "getTrustedRemoteAddress",
      "outputs": [
        {
          "internalType": "bytes",
          "name": "",
          "type": "bytes"
        }
      ],
      "stateMutability": "view",
      "type": "function"
    },
    {
      "inputs": [
        {
          "internalType": "uint16",
          "name": "_srcChainId",
          "type": "uint16"
        },
        {
          "internalType": "bytes",
          "name": "_srcAddress",
          "type": "bytes"
        }
      ],
      "name": "isTrustedRemote",
      "outputs": [
        {
          "internalType": "bool",
          "name": "",
          "type": "bool"
        }
      ],
      "stateMutability": "view",
      "type": "function"
    },
    {
      "inputs": [],
      "name": "lzEndpoint",
      "outputs": [
        {
          "internalType": "contract ILayerZeroEndpoint",
          "name": "",
          "type": "address"
        }
      ],
      "stateMutability": "view",
      "type": "function"
    },
    {
      "inputs": [
        {
          "internalType": "uint16",
          "name": "_srcChainId",
          "type": "uint16"
        },
        {
          "internalType": "bytes",
          "name": "_srcAddress",
          "type": "bytes"
        },
        {
          "internalType": "uint64",
          "name": "_nonce",
          "type": "uint64"
        },
        {
          "internalType": "bytes",
          "name": "_payload",
          "type": "bytes"
        }
      ],
      "name": "lzReceive",
      "outputs": [],
      "stateMutability": "nonpayable",
      "type": "function"
    },
    {
      "inputs": [
        {
          "internalType": "uint16",
          "name": "",
          "type": "uint16"
        },
        {
          "internalType": "uint16",
          "name": "",
          "type": "uint16"
        }
      ],
      "name": "minDstGasLookup",
      "outputs": [
        {
          "internalType": "uint256",
          "name": "",
          "type": "uint256"
        }
      ],
      "stateMutability": "view",
      "type": "function"
    },
    {
      "inputs": [
        {
          "internalType": "uint16",
          "name": "_srcChainId",
          "type": "uint16"
        },
        {
          "internalType": "bytes",
          "name": "_srcAddress",
          "type": "bytes"
        },
        {
          "internalType": "uint64",
          "name": "_nonce",
          "type": "uint64"
        },
        {
          "internalType": "bytes",
          "name": "_payload",
          "type": "bytes"
        }
      ],
      "name": "nonblockingLzReceive",
      "outputs": [],
      "stateMutability": "nonpayable",
      "type": "function"
    },
    {
      "inputs": [
        {
          "internalType": "address",
          "name": "_operator",
          "type": "address"
        },
        {
          "internalType": "address",
          "name": "",
          "type": "address"
        },
        {
          "internalType": "uint256[]",
          "name": "",
          "type": "uint256[]"
        },
        {
          "internalType": "uint256[]",
          "name": "",
          "type": "uint256[]"
        },
        {
          "internalType": "bytes",
          "name": "",
          "type": "bytes"
        }
      ],
      "name": "onERC1155BatchReceived",
      "outputs": [
        {
          "internalType": "bytes4",
          "name": "",
          "type": "bytes4"
        }
      ],
      "stateMutability": "nonpayable",
      "type": "function"
    },
    {
      "inputs": [
        {
          "internalType": "address",
          "name": "_operator",
          "type": "address"
        },
        {
          "internalType": "address",
          "name": "",
          "type": "address"
        },
        {
          "internalType": "uint256",
          "name": "",
          "type": "uint256"
        },
        {
          "internalType": "uint256",
          "name": "",
          "type": "uint256"
        },
        {
          "internalType": "bytes",
          "name": "",
          "type": "bytes"
        }
      ],
      "name": "onERC1155Received",
      "outputs": [
        {
          "internalType": "bytes4",
          "name": "",
          "type": "bytes4"
        }
      ],
      "stateMutability": "nonpayable",
      "type": "function"
    },
    {
      "inputs": [],
      "name": "owner",
      "outputs": [
        {
          "internalType": "address",
          "name": "",
          "type": "address"
        }
      ],
      "stateMutability": "view",
      "type": "function"
    },
    {
      "inputs": [
        {
          "internalType": "uint16",
          "name": "",
          "type": "uint16"
        }
      ],
      "name": "payloadSizeLimitLookup",
      "outputs": [
        {
          "internalType": "uint256",
          "name": "",
          "type": "uint256"
        }
      ],
      "stateMutability": "view",
      "type": "function"
    },
    {
      "inputs": [],
      "name": "precrime",
      "outputs": [
        {
          "internalType": "address",
          "name": "",
          "type": "address"
        }
      ],
      "stateMutability": "view",
      "type": "function"
    },
    {
      "inputs": [],
      "name": "renounceOwnership",
      "outputs": [],
      "stateMutability": "nonpayable",
      "type": "function"
    },
    {
      "inputs": [
        {
          "internalType": "uint16",
          "name": "_srcChainId",
          "type": "uint16"
        },
        {
          "internalType": "bytes",
          "name": "_srcAddress",
          "type": "bytes"
        },
        {
          "internalType": "uint64",
          "name": "_nonce",
          "type": "uint64"
        },
        {
          "internalType": "bytes",
          "name": "_payload",
          "type": "bytes"
        }
      ],
      "name": "retryMessage",
      "outputs": [],
      "stateMutability": "payable",
      "type": "function"
    },
    {
      "inputs": [
        {
          "internalType": "address",
          "name": "_from",
          "type": "address"
        },
        {
          "internalType": "uint16",
          "name": "_dstChainId",
          "type": "uint16"
        },
        {
          "internalType": "bytes",
          "name": "_toAddress",
          "type": "bytes"
        },
        {
          "internalType": "uint256[]",
          "name": "_tokenIds",
          "type": "uint256[]"
        },
        {
          "internalType": "uint256[]",
          "name": "_amounts",
          "type": "uint256[]"
        },
        {
          "internalType": "address payable",
          "name": "_refundAddress",
          "type": "address"
        },
        {
          "internalType": "address",
          "name": "_zroPaymentAddress",
          "type": "address"
        },
        {
          "internalType": "bytes",
          "name": "_adapterParams",
          "type": "bytes"
        }
      ],
      "name": "sendBatchFrom",
      "outputs": [],
      "stateMutability": "payable",
      "type": "function"
    },
    {
      "inputs": [
        {
          "internalType": "address",
          "name": "_from",
          "type": "address"
        },
        {
          "internalType": "uint16",
          "name": "_dstChainId",
          "type": "uint16"
        },
        {
          "internalType": "bytes",
          "name": "_toAddress",
          "type": "bytes"
        },
        {
          "internalType": "uint256",
          "name": "_tokenId",
          "type": "uint256"
        },
        {
          "internalType": "uint256",
          "name": "_amount",
          "type": "uint256"
        },
        {
          "internalType": "address payable",
          "name": "_refundAddress",
          "type": "address"
        },
        {
          "internalType": "address",
          "name": "_zroPaymentAddress",
          "type": "address"
        },
        {
          "internalType": "bytes",
          "name": "_adapterParams",
          "type": "bytes"
        }
      ],
      "name": "sendFrom",
      "outputs": [],
      "stateMutability": "payable",
      "type": "function"
    },
    {
      "inputs": [
        {
          "internalType": "uint16",
          "name": "_version",
          "type": "uint16"
        },
        {
          "internalType": "uint16",
          "name": "_chainId",
          "type": "uint16"
        },
        {
          "internalType": "uint256",
          "name": "_configType",
          "type": "uint256"
        },
        {
          "internalType": "bytes",
          "name": "_config",
          "type": "bytes"
        }
      ],
      "name": "setConfig",
      "outputs": [],
      "stateMutability": "nonpayable",
      "type": "function"
    },
    {
      "inputs": [
        {
          "internalType": "uint16",
          "name": "_dstChainId",
          "type": "uint16"
        },
        {
          "internalType": "uint16",
          "name": "_packetType",
          "type": "uint16"
        },
        {
          "internalType": "uint256",
          "name": "_minGas",
          "type": "uint256"
        }
      ],
      "name": "setMinDstGas",
      "outputs": [],
      "stateMutability": "nonpayable",
      "type": "function"
    },
    {
      "inputs": [
        {
          "internalType": "uint16",
          "name": "_dstChainId",
          "type": "uint16"
        },
        {
          "internalType": "uint256",
          "name": "_size",
          "type": "uint256"
        }
      ],
      "name": "setPayloadSizeLimit",
      "outputs": [],
      "stateMutability": "nonpayable",
      "type": "function"
    },
    {
      "inputs": [
        {
          "internalType": "address",
          "name": "_precrime",
          "type": "address"
        }
      ],
      "name": "setPrecrime",
      "outputs": [],
      "stateMutability": "nonpayable",
      "type": "function"
    },
    {
      "inputs": [
        {
          "internalType": "uint16",
          "name": "_version",
          "type": "uint16"
        }
      ],
      "name": "setReceiveVersion",
      "outputs": [],
      "stateMutability": "nonpayable",
      "type": "function"
    },
    {
      "inputs": [
        {
          "internalType": "uint16",
          "name": "_version",
          "type": "uint16"
        }
      ],
      "name": "setSendVersion",
      "outputs": [],
      "stateMutability": "nonpayable",
      "type": "function"
    },
    {
      "inputs": [
        {
          "internalType": "uint16",
          "name": "_srcChainId",
          "type": "uint16"
        },
        {
          "internalType": "bytes",
          "name": "_path",
          "type": "bytes"
        }
      ],
      "name": "setTrustedRemote",
      "outputs": [],
      "stateMutability": "nonpayable",
      "type": "function"
    },
    {
      "inputs": [
        {
          "internalType": "uint16",
          "name": "_remoteChainId",
          "type": "uint16"
        },
        {
          "internalType": "bytes",
          "name": "_remoteAddress",
          "type": "bytes"
        }
      ],
      "name": "setTrustedRemoteAddress",
      "outputs": [],
      "stateMutability": "nonpayable",
      "type": "function"
    },
    {
      "inputs": [
        {
          "internalType": "bytes4",
          "name": "interfaceId",
          "type": "bytes4"
        }
      ],
      "name": "supportsInterface",
      "outputs": [
        {
          "internalType": "bool",
          "name": "",
          "type": "bool"
        }
      ],
      "stateMutability": "view",
      "type": "function"
    },
    {
      "inputs": [],
      "name": "token",
      "outputs": [
        {
          "internalType": "contract IERC1155",
          "name": "",
          "type": "address"
        }
      ],
      "stateMutability": "view",
      "type": "function"
    },
    {
      "inputs": [
        {
          "internalType": "address",
          "name": "newOwner",
          "type": "address"
        }
      ],
      "name": "transferOwnership",
      "outputs": [],
      "stateMutability": "nonpayable",
      "type": "function"
    },
    {
      "inputs": [
        {
          "internalType": "uint16",
          "name": "",
          "type": "uint16"
        }
      ],
      "name": "trustedRemoteLookup",
      "outputs": [
        {
          "internalType": "bytes",
          "name": "",
          "type": "bytes"
        }
      ],
      "stateMutability": "view",
      "type": "function"
    }
  ],
  "bytecode": {
    "object": "0x60c06040523480156200001157600080fd5b50604051620034653803806200346583398101604081905262000034916200023d565b8180806200004233620000e4565b6001600160a01b0390811660805262000074925083169050636cdb3d1360e11b62000134602090811b6200156217901c565b620000d15760405162461bcd60e51b8152602060048201526024808201527f50726f78794f4e4654313135353a20696e76616c69642045524331313535207460448201526337b5b2b760e11b606482015260840160405180910390fd5b6001600160a01b031660a0525062000275565b600080546001600160a01b038381166001600160a01b0319831681178455604051919092169283917f8be0079c531659141344cd1fd0a4f28419497f9722a3daafe3b4186f6b6457e09190a35050565b600062000141836200015c565b801562000155575062000155838362000195565b9392505050565b600062000171826301ffc9a760e01b62000195565b80156200018f57506200018d826001600160e01b031962000195565b155b92915050565b604080516001600160e01b03198316602480830191909152825180830390910181526044909101909152602080820180516001600160e01b03166301ffc9a760e01b178152825160009392849283928392918391908a617530fa92503d9150600051905082801562000208575060208210155b8015620002155750600081115b979650505050505050565b80516001600160a01b03811681146200023857600080fd5b919050565b600080604083850312156200025157600080fd5b6200025c8362000220565b91506200026c6020840162000220565b90509250929050565b60805160a05161317d620002e8600039600081816106a201528181611dec0152611fe301526000818161052c015281816106c701528181610941015281816109e901528181610b0b01528181610f480152818161107d015281816114eb015281816116eb0152611f50015261317d6000f3fe6080604052600436106101ed5760003560e01c80638da5cb5b1161010d578063c4461834116100a0578063eb8d72b71161006f578063eb8d72b714610610578063f23a6e6114610630578063f2fde38b14610650578063f5ecbdbc14610670578063fc0c546a1461069057600080fd5b8063c4461834146105a7578063cbed8b9c146105bd578063d1deba1f146105dd578063df2a5b3b146105f057600080fd5b8063b2535663116100dc578063b2535663146104fa578063b353aaa71461051a578063baf3292d1461054e578063bc197c811461056e57600080fd5b80638da5cb5b14610468578063950c8a741461049a5780639f38369a146104ba578063a6c3d165146104da57600080fd5b80634ab4e68711610185578063715018a611610154578063715018a6146103b95780637533d788146103ce5780638608e5f8146103fb5780638cfd8f5c1461043057600080fd5b80634ab4e687146103245780634db8226a146103375780635b8c41e61461034a57806366ad5c8a1461039957600080fd5b806310ddb137116101c157806310ddb137146102895780633d8b38f6146102a95780633f1f4fa4146102c957806342d65a8d1461030457600080fd5b80621d3567146101f257806301ffc9a71461021457806307e0db17146102495780630df3748314610269575b600080fd5b3480156101fe57600080fd5b5061021261020d366004612136565b6106c4565b005b34801561022057600080fd5b5061023461022f3660046121ca565b6108f5565b60405190151581526020015b60405180910390f35b34801561025557600080fd5b506102126102643660046121f4565b610920565b34801561027557600080fd5b5061021261028436600461220f565b6109a9565b34801561029557600080fd5b506102126102a43660046121f4565b6109c8565b3480156102b557600080fd5b506102346102c4366004612239565b610a20565b3480156102d557600080fd5b506102f66102e43660046121f4565b60036020526000908152604090205481565b604051908152602001610240565b34801561031057600080fd5b5061021261031f366004612239565b610aec565b6102126103323660046123f7565b610b72565b6102126103453660046124e6565b610b8d565b34801561035657600080fd5b506102f661036536600461258c565b6005602090815260009384526040808520845180860184018051928152908401958401959095209452929052825290205481565b3480156103a557600080fd5b506102126103b4366004612136565b610bae565b3480156103c557600080fd5b50610212610c8a565b3480156103da57600080fd5b506103ee6103e93660046121f4565b610c9e565b604051610240919061263d565b34801561040757600080fd5b5061041b610416366004612660565b610d38565b60408051928352602083019190915201610240565b34801561043c57600080fd5b506102f661044b3660046126f6565b600260209081526000928352604080842090915290825290205481565b34801561047457600080fd5b506000546001600160a01b03165b6040516001600160a01b039091168152602001610240565b3480156104a657600080fd5b50600454610482906001600160a01b031681565b3480156104c657600080fd5b506103ee6104d53660046121f4565b610d68565b3480156104e657600080fd5b506102126104f5366004612239565b610e7e565b34801561050657600080fd5b5061041b610515366004612729565b610f07565b34801561052657600080fd5b506104827f000000000000000000000000000000000000000000000000000000000000000081565b34801561055a57600080fd5b506102126105693660046127c5565b610fd5565b34801561057a57600080fd5b5061058e6105893660046127e2565b611031565b6040516001600160e01b03199091168152602001610240565b3480156105b357600080fd5b506102f661271081565b3480156105c957600080fd5b506102126105d836600461288f565b61105e565b6102126105eb366004612136565b6110f3565b3480156105fc57600080fd5b5061021261060b3660046128fd565b611309565b34801561061c57600080fd5b5061021261062b366004612239565b6113bb565b34801561063c57600080fd5b5061058e61064b366004612939565b611415565b34801561065c57600080fd5b5061021261066b3660046127c5565b611441565b34801561067c57600080fd5b506103ee61068b3660046129a1565b6114ba565b34801561069c57600080fd5b506104827f000000000000000000000000000000000000000000000000000000000000000081565b337f00000000000000000000000000000000000000000000000000000000000000006001600160a01b0316146107415760405162461bcd60e51b815260206004820152601e60248201527f4c7a4170703a20696e76616c696420656e64706f696e742063616c6c6572000060448201526064015b60405180910390fd5b61ffff86166000908152600160205260408120805461075f906129ee565b80601f016020809104026020016040519081016040528092919081815260200182805461078b906129ee565b80156107d85780601f106107ad576101008083540402835291602001916107d8565b820191906000526020600020905b8154815290600101906020018083116107bb57829003601f168201915b505050505090508051868690501480156107f3575060008151115b801561081b5750805160208201206040516108119088908890612a28565b6040518091039020145b6108765760405162461bcd60e51b815260206004820152602660248201527f4c7a4170703a20696e76616c696420736f757263652073656e64696e6720636f6044820152651b9d1c9858dd60d21b6064820152608401610738565b6108ec8787878080601f01602080910402602001604051908101604052809392919081815260200183838082843760009201919091525050604080516020601f8a018190048102820181019092528881528a93509150889088908190840183828082843760009201919091525061157e92505050565b50505050505050565b60006001600160e01b03198216630271189760e51b148061091a575061091a826115f7565b92915050565b61092861162c565b6040516307e0db1760e01b815261ffff821660048201527f00000000000000000000000000000000000000000000000000000000000000006001600160a01b0316906307e0db17906024015b600060405180830381600087803b15801561098e57600080fd5b505af11580156109a2573d6000803e3d6000fd5b5050505050565b6109b161162c565b61ffff909116600090815260036020526040902055565b6109d061162c565b6040516310ddb13760e01b815261ffff821660048201527f00000000000000000000000000000000000000000000000000000000000000006001600160a01b0316906310ddb13790602401610974565b61ffff831660009081526001602052604081208054829190610a41906129ee565b80601f0160208091040260200160405190810160405280929190818152602001828054610a6d906129ee565b8015610aba5780601f10610a8f57610100808354040283529160200191610aba565b820191906000526020600020905b815481529060010190602001808311610a9d57829003601f168201915b505050505090508383604051610ad1929190612a28565b60405180910390208180519060200120149150509392505050565b610af461162c565b6040516342d65a8d60e01b81526001600160a01b037f000000000000000000000000000000000000000000000000000000000000000016906342d65a8d90610b4490869086908690600401612a61565b600060405180830381600087803b158015610b5e57600080fd5b505af11580156108ec573d6000803e3d6000fd5b610b83888888888888888834611686565b5050505050505050565b610b83888888610b9c8961188a565b610ba58961188a565b88888834611686565b333014610c0c5760405162461bcd60e51b815260206004820152602660248201527f4e6f6e626c6f636b696e674c7a4170703a2063616c6c6572206d7573742062656044820152650204c7a4170760d41b6064820152608401610738565b610c828686868080601f01602080910402602001604051908101604052809392919081815260200183838082843760009201919091525050604080516020601f8901819004810282018101909252878152899350915087908790819084018382808284376000920191909152506118d592505050565b505050505050565b610c9261162c565b610c9c6000611a2d565b565b60016020526000908152604090208054610cb7906129ee565b80601f0160208091040260200160405190810160405280929190818152602001828054610ce3906129ee565b8015610d305780601f10610d0557610100808354040283529160200191610d30565b820191906000526020600020905b815481529060010190602001808311610d1357829003601f168201915b505050505081565b600080610d598888610d498961188a565b610d528961188a565b8888610f07565b91509150965096945050505050565b61ffff8116600090815260016020526040812080546060929190610d8b906129ee565b80601f0160208091040260200160405190810160405280929190818152602001828054610db7906129ee565b8015610e045780601f10610dd957610100808354040283529160200191610e04565b820191906000526020600020905b815481529060010190602001808311610de757829003601f168201915b505050505090508051600003610e5c5760405162461bcd60e51b815260206004820152601d60248201527f4c7a4170703a206e6f20747275737465642070617468207265636f72640000006044820152606401610738565b610e77600060148351610e6f9190612a95565b839190611a7d565b9392505050565b610e8661162c565b818130604051602001610e9b93929190612aa8565b60408051601f1981840301815291815261ffff8516600090815260016020522090610ec69082612b14565b507f8c0400cfe2d1199b1a725c78960bcc2a344d869b80590d0f2bd005db15a572ce838383604051610efa93929190612a61565b60405180910390a1505050565b6000806000878787604051602001610f2193929190612c0e565b60408051601f198184030181529082905263040a7bb160e41b825291506001600160a01b037f000000000000000000000000000000000000000000000000000000000000000016906340a7bb1090610f85908c90309086908b908b90600401612c51565b6040805180830381865afa158015610fa1573d6000803e3d6000fd5b505050506040513d601f19601f82011682018060405250810190610fc59190612ca5565b9250925050965096945050505050565b610fdd61162c565b600480546001600160a01b0319166001600160a01b0383169081179091556040519081527f5db758e995a17ec1ad84bdef7e8c3293a0bd6179bcce400dff5d4c3d87db726b9060200160405180910390a150565b60006001600160a01b038616301461104b57506000611055565b5063bc197c8160e01b5b95945050505050565b61106661162c565b6040516332fb62e760e21b81526001600160a01b037f0000000000000000000000000000000000000000000000000000000000000000169063cbed8b9c906110ba9088908890889088908890600401612cc9565b600060405180830381600087803b1580156110d457600080fd5b505af11580156110e8573d6000803e3d6000fd5b505050505050505050565b61ffff861660009081526005602052604080822090516111169088908890612a28565b90815260408051602092819003830190206001600160401b038716600090815292529020549050806111965760405162461bcd60e51b815260206004820152602360248201527f4e6f6e626c6f636b696e674c7a4170703a206e6f2073746f726564206d65737360448201526261676560e81b6064820152608401610738565b8083836040516111a7929190612a28565b6040518091039020146112065760405162461bcd60e51b815260206004820152602160248201527f4e6f6e626c6f636b696e674c7a4170703a20696e76616c6964207061796c6f616044820152601960fa1b6064820152608401610738565b61ffff871660009081526005602052604080822090516112299089908990612a28565b90815260408051602092819003830181206001600160401b038916600090815290845282902093909355601f880182900482028301820190528682526112c1918991899089908190840183828082843760009201919091525050604080516020601f8a018190048102820181019092528881528a9350915088908890819084018382808284376000920191909152506118d592505050565b7fc264d91f3adc5588250e1551f547752ca0cfa8f6b530d243b9f9f4cab10ea8e587878787856040516112f8959493929190612cf7565b60405180910390a150505050505050565b61131161162c565b600081116113595760405162461bcd60e51b81526020600482015260156024820152744c7a4170703a20696e76616c6964206d696e47617360581b6044820152606401610738565b61ffff83811660008181526002602090815260408083209487168084529482529182902085905581519283528201929092529081018290527f9d5c7c0b934da8fefa9c7760c98383778a12dfbfc0c3b3106518f43fb9508ac090606001610efa565b6113c361162c565b61ffff831660009081526001602052604090206113e1828483612d32565b507ffa41487ad5d6728f0b19276fa1eddc16558578f5109fc39d2dc33c3230470dab838383604051610efa93929190612a61565b60006001600160a01b038616301461142f57506000611055565b5063f23a6e6160e01b95945050505050565b61144961162c565b6001600160a01b0381166114ae5760405162461bcd60e51b815260206004820152602660248201527f4f776e61626c653a206e6577206f776e657220697320746865207a65726f206160448201526564647265737360d01b6064820152608401610738565b6114b781611a2d565b50565b604051633d7b2f6f60e21b815261ffff808616600483015284166024820152306044820152606481018290526060907f00000000000000000000000000000000000000000000000000000000000000006001600160a01b03169063f5ecbdbc90608401600060405180830381865afa15801561153a573d6000803e3d6000fd5b505050506040513d6000823e601f3d908101601f191682016040526110559190810190612e3e565b600061156d83611b8a565b8015610e775750610e778383611bbd565b6000806115e15a60966366ad5c8a60e01b898989896040516024016115a69493929190612e72565b60408051601f198184030181529190526020810180516001600160e01b03166001600160e01b03199093169290921790915230929190611c46565b9150915081610c8257610c828686868685611cd0565b60006001600160e01b031982166319abbbbb60e11b148061091a57506301ffc9a760e01b6001600160e01b031983161461091a565b6000546001600160a01b03163314610c9c5760405162461bcd60e51b815260206004820181905260248201527f4f776e61626c653a2063616c6c6572206973206e6f7420746865206f776e65726044820152606401610738565b6116938989898989611d6d565b60008787876040516020016116aa93929190612c0e565b60405160208183030381529060405290506116c9898287878787611e27565b604051630f428ae960e31b815261ffff8a1660048201523060248201526000907f00000000000000000000000000000000000000000000000000000000000000006001600160a01b031690637a14574890604401602060405180830381865afa15801561173a573d6000803e3d6000fd5b505050506040513d601f19601f8201168201806040525081019061175e9190612eb0565b9050875160010361181257886040516117779190612ecd565b60405180910390208a61ffff168c6001600160a01b03167f65f8f231660ef9add3da95eb0bbdae4c246f6c10e274fae37b17190637080d4c8b6000815181106117c2576117c2612ee9565b60200260200101518b6000815181106117dd576117dd612ee9565b60209081029190910181015160408051938452918301526001600160401b0387169082015260600160405180910390a461187d565b60018851111561187d578860405161182a9190612ecd565b60405180910390208a61ffff168c6001600160a01b03167f2d31495ecbe799a81d5475c03585aa019860601fed836229d70e335b732eab3d8b8b8660405161187493929190612eff565b60405180910390a45b5050505050505050505050565b604080516001808252818301909252606091600091906020808301908036833701905050905082816000815181106118c4576118c4612ee9565b602090810291909101015292915050565b6000806000838060200190518101906118ee9190612f99565b6014830151929550909350915061190788828585611fcc565b82516001036119b957806001600160a01b0316876040516119289190612ecd565b60405180910390208961ffff167f330378e2f010257b2fbe836316fb7ab303af5ed8f2795b82bca60d1c8c909f768660008151811061196957611969612ee9565b60200260200101518660008151811061198457611984612ee9565b60209081029190910181015160408051938452918301526001600160401b038c169082015260600160405180910390a4610b83565b600183511115610b8357806001600160a01b0316876040516119db9190612ecd565b60405180910390208961ffff167f5604161d52abb20dbe3d4a2230e585a0b230b3d18179a0e00917b173f5f9adab86868b604051611a1b93929190612eff565b60405180910390a45050505050505050565b600080546001600160a01b038381166001600160a01b0319831681178455604051919092169283917f8be0079c531659141344cd1fd0a4f28419497f9722a3daafe3b4186f6b6457e09190a35050565b606081611a8b81601f613020565b1015611aca5760405162461bcd60e51b815260206004820152600e60248201526d736c6963655f6f766572666c6f7760901b6044820152606401610738565b611ad48284613020565b84511015611b185760405162461bcd60e51b8152602060048201526011602482015270736c6963655f6f75744f66426f756e647360781b6044820152606401610738565b606082158015611b375760405191506000825260208201604052611b81565b6040519150601f8416801560200281840101858101878315602002848b0101015b81831015611b70578051835260209283019201611b58565b5050858452601f01601f1916604052505b50949350505050565b6000611b9d826301ffc9a760e01b611bbd565b801561091a5750611bb6826001600160e01b0319611bbd565b1592915050565b604080516001600160e01b03198316602480830191909152825180830390910181526044909101909152602080820180516001600160e01b03166301ffc9a760e01b178152825160009392849283928392918391908a617530fa92503d91506000519050828015611c2f575060208210155b8015611c3b5750600081115b979650505050505050565b6000606060008060008661ffff166001600160401b03811115611c6b57611c6b6122ab565b6040519080825280601f01601f191660200182016040528015611c95576020820181803683370190505b50905060008087516020890160008d8df191503d925086831115611cb7578692505b828152826000602083013e909890975095505050505050565b8180519060200120600560008761ffff1661ffff16815260200190815260200160002085604051611d019190612ecd565b9081526040805191829003602090810183206001600160401b0388166000908152915220919091557fe183f33de2837795525b4792ca4cd60535bd77c53b7e7030060bfcf5734d6b0c90611d5e9087908790879087908790613033565b60405180910390a15050505050565b6001600160a01b0385163314611dd55760405162461bcd60e51b815260206004820152602760248201527f50726f78794f4e4654313135353a206f776e6572206973206e6f742073656e646044820152661031b0b63632b960c91b6064820152608401610738565b604051631759616b60e11b81526001600160a01b037f00000000000000000000000000000000000000000000000000000000000000001690632eb2c2d6906110ba908890309087908790600401613085565b61ffff861660009081526001602052604081208054611e45906129ee565b80601f0160208091040260200160405190810160405280929190818152602001828054611e71906129ee565b8015611ebe5780601f10611e9357610100808354040283529160200191611ebe565b820191906000526020600020905b815481529060010190602001808311611ea157829003601f168201915b505050505090508051600003611f2f5760405162461bcd60e51b815260206004820152603060248201527f4c7a4170703a2064657374696e6174696f6e20636861696e206973206e6f742060448201526f61207472757374656420736f7572636560801b6064820152608401610738565b611f3a87875161204c565b60405162c5803160e81b81526001600160a01b037f0000000000000000000000000000000000000000000000000000000000000000169063c5803100908490611f91908b9086908c908c908c908c906004016130e0565b6000604051808303818588803b158015611faa57600080fd5b505af1158015611fbe573d6000803e3d6000fd5b505050505050505050505050565b604051631759616b60e11b81526001600160a01b037f00000000000000000000000000000000000000000000000000000000000000001690632eb2c2d69061201e903090879087908790600401613085565b600060405180830381600087803b15801561203857600080fd5b505af1158015610b83573d6000803e3d6000fd5b61ffff82166000908152600360205260408120549081900361206d57506127105b808211156120bd5760405162461bcd60e51b815260206004820181905260248201527f4c7a4170703a207061796c6f61642073697a6520697320746f6f206c617267656044820152606401610738565b505050565b803561ffff811681146120d457600080fd5b919050565b60008083601f8401126120eb57600080fd5b5081356001600160401b0381111561210257600080fd5b60208301915083602082850101111561211a57600080fd5b9250929050565b6001600160401b03811681146114b757600080fd5b6000806000806000806080878903121561214f57600080fd5b612158876120c2565b955060208701356001600160401b038082111561217457600080fd5b6121808a838b016120d9565b90975095506040890135915061219582612121565b909350606088013590808211156121ab57600080fd5b506121b889828a016120d9565b979a9699509497509295939492505050565b6000602082840312156121dc57600080fd5b81356001600160e01b031981168114610e7757600080fd5b60006020828403121561220657600080fd5b610e77826120c2565b6000806040838503121561222257600080fd5b61222b836120c2565b946020939093013593505050565b60008060006040848603121561224e57600080fd5b612257846120c2565b925060208401356001600160401b0381111561227257600080fd5b61227e868287016120d9565b9497909650939450505050565b6001600160a01b03811681146114b757600080fd5b80356120d48161228b565b634e487b7160e01b600052604160045260246000fd5b604051601f8201601f191681016001600160401b03811182821017156122e9576122e96122ab565b604052919050565b60006001600160401b0382111561230a5761230a6122ab565b50601f01601f191660200190565b600082601f83011261232957600080fd5b813561233c612337826122f1565b6122c1565b81815284602083860101111561235157600080fd5b816020850160208301376000918101602001919091529392505050565b60006001600160401b03821115612387576123876122ab565b5060051b60200190565b600082601f8301126123a257600080fd5b813560206123b26123378361236e565b82815260059290921b840181019181810190868411156123d157600080fd5b8286015b848110156123ec57803583529183019183016123d5565b509695505050505050565b600080600080600080600080610100898b03121561241457600080fd5b61241d896122a0565b975061242b60208a016120c2565b965060408901356001600160401b038082111561244757600080fd5b6124538c838d01612318565b975060608b013591508082111561246957600080fd5b6124758c838d01612391565b965060808b013591508082111561248b57600080fd5b6124978c838d01612391565b95506124a560a08c016122a0565b94506124b360c08c016122a0565b935060e08b01359150808211156124c957600080fd5b506124d68b828c01612318565b9150509295985092959890939650565b600080600080600080600080610100898b03121561250357600080fd5b883561250e8161228b565b975061251c60208a016120c2565b965060408901356001600160401b038082111561253857600080fd5b6125448c838d01612318565b975060608b0135965060808b0135955060a08b013591506125648261228b565b90935060c08a0135906125768261228b565b90925060e08a013590808211156124c957600080fd5b6000806000606084860312156125a157600080fd5b6125aa846120c2565b925060208401356001600160401b038111156125c557600080fd5b6125d186828701612318565b92505060408401356125e281612121565b809150509250925092565b60005b838110156126085781810151838201526020016125f0565b50506000910152565b600081518084526126298160208601602086016125ed565b601f01601f19169290920160200192915050565b602081526000610e776020830184612611565b803580151581146120d457600080fd5b60008060008060008060c0878903121561267957600080fd5b612682876120c2565b955060208701356001600160401b038082111561269e57600080fd5b6126aa8a838b01612318565b965060408901359550606089013594506126c660808a01612650565b935060a08901359150808211156126dc57600080fd5b506126e989828a01612318565b9150509295509295509295565b6000806040838503121561270957600080fd5b612712836120c2565b9150612720602084016120c2565b90509250929050565b60008060008060008060c0878903121561274257600080fd5b61274b876120c2565b955060208701356001600160401b038082111561276757600080fd5b6127738a838b01612318565b9650604089013591508082111561278957600080fd5b6127958a838b01612391565b955060608901359150808211156127ab57600080fd5b6127b78a838b01612391565b94506126c660808a01612650565b6000602082840312156127d757600080fd5b8135610e778161228b565b600080600080600060a086880312156127fa57600080fd5b85356128058161228b565b945060208601356128158161228b565b935060408601356001600160401b038082111561283157600080fd5b61283d89838a01612391565b9450606088013591508082111561285357600080fd5b61285f89838a01612391565b9350608088013591508082111561287557600080fd5b5061288288828901612318565b9150509295509295909350565b6000806000806000608086880312156128a757600080fd5b6128b0866120c2565b94506128be602087016120c2565b93506040860135925060608601356001600160401b038111156128e057600080fd5b6128ec888289016120d9565b969995985093965092949392505050565b60008060006060848603121561291257600080fd5b61291b846120c2565b9250612929602085016120c2565b9150604084013590509250925092565b600080600080600060a0868803121561295157600080fd5b853561295c8161228b565b9450602086013561296c8161228b565b9350604086013592506060860135915060808601356001600160401b0381111561299557600080fd5b61288288828901612318565b600080600080608085870312156129b757600080fd5b6129c0856120c2565b93506129ce602086016120c2565b925060408501356129de8161228b565b9396929550929360600135925050565b600181811c90821680612a0257607f821691505b602082108103612a2257634e487b7160e01b600052602260045260246000fd5b50919050565b8183823760009101908152919050565b81835281816020850137506000828201602090810191909152601f909101601f19169091010190565b61ffff84168152604060208201526000611055604083018486612a38565b634e487b7160e01b600052601160045260246000fd5b8181038181111561091a5761091a612a7f565b8284823760609190911b6bffffffffffffffffffffffff19169101908152601401919050565b601f8211156120bd57600081815260208120601f850160051c81016020861015612af55750805b601f850160051c820191505b81811015610c8257828155600101612b01565b81516001600160401b03811115612b2d57612b2d6122ab565b612b4181612b3b84546129ee565b84612ace565b602080601f831160018114612b765760008415612b5e5750858301515b600019600386901b1c1916600185901b178555610c82565b600085815260208120601f198616915b82811015612ba557888601518255948401946001909101908401612b86565b5085821015612bc35787850151600019600388901b60f8161c191681555b5050505050600190811b01905550565b600081518084526020808501945080840160005b83811015612c0357815187529582019590820190600101612be7565b509495945050505050565b606081526000612c216060830186612611565b8281036020840152612c338186612bd3565b90508281036040840152612c478185612bd3565b9695505050505050565b61ffff861681526001600160a01b038516602082015260a060408201819052600090612c7f90830186612611565b84151560608401528281036080840152612c998185612611565b98975050505050505050565b60008060408385031215612cb857600080fd5b505080516020909101519092909150565b600061ffff808816835280871660208401525084604083015260806060830152611c3b608083018486612a38565b61ffff86168152608060208201526000612d15608083018688612a38565b6001600160401b0394909416604083015250606001529392505050565b6001600160401b03831115612d4957612d496122ab565b612d5d83612d5783546129ee565b83612ace565b6000601f841160018114612d915760008515612d795750838201355b600019600387901b1c1916600186901b1783556109a2565b600083815260209020601f19861690835b82811015612dc25786850135825560209485019460019092019101612da2565b5086821015612ddf5760001960f88860031b161c19848701351681555b505060018560011b0183555050505050565b600082601f830112612e0257600080fd5b8151612e10612337826122f1565b818152846020838601011115612e2557600080fd5b612e368260208301602087016125ed565b949350505050565b600060208284031215612e5057600080fd5b81516001600160401b03811115612e6657600080fd5b612e3684828501612df1565b61ffff85168152608060208201526000612e8f6080830186612611565b6001600160401b03851660408401528281036060840152611c3b8185612611565b600060208284031215612ec257600080fd5b8151610e7781612121565b60008251612edf8184602087016125ed565b9190910192915050565b634e487b7160e01b600052603260045260246000fd5b606081526000612f126060830186612bd3565b8281036020840152612f248186612bd3565b9150506001600160401b0383166040830152949350505050565b600082601f830112612f4f57600080fd5b81516020612f5f6123378361236e565b82815260059290921b84018101918181019086841115612f7e57600080fd5b8286015b848110156123ec5780518352918301918301612f82565b600080600060608486031215612fae57600080fd5b83516001600160401b0380821115612fc557600080fd5b612fd187838801612df1565b94506020860151915080821115612fe757600080fd5b612ff387838801612f3e565b9350604086015191508082111561300957600080fd5b5061301686828701612f3e565b9150509250925092565b8082018082111561091a5761091a612a7f565b61ffff8616815260a06020820152600061305060a0830187612611565b6001600160401b038616604084015282810360608401526130718186612611565b90508281036080840152612c998185612611565b6001600160a01b0385811682528416602082015260a0604082018190526000906130b190830185612bd3565b82810360608401526130c38185612bd3565b838103608090940193909352505060008152602001949350505050565b61ffff8716815260c0602082015260006130fd60c0830188612611565b828103604084015261310f8188612611565b6001600160a01b0387811660608601528616608085015283810360a0850152905061313a8185612611565b999850505050505050505056fea2646970667358221220d44aebcbe144499bf438b7491e505719da2ac6502e1761ce791750e5ba18f14164736f6c63430008110033",
    "linkReferences": {}
  },
  "methodIdentifiers": {
    "DEFAULT_PAYLOAD_SIZE_LIMIT()": "c4461834",
    "estimateSendBatchFee(uint16,bytes,uint256[],uint256[],bool,bytes)": "b2535663",
    "estimateSendFee(uint16,bytes,uint256,uint256,bool,bytes)": "8608e5f8",
    "failedMessages(uint16,bytes,uint64)": "5b8c41e6",
    "forceResumeReceive(uint16,bytes)": "42d65a8d",
    "getConfig(uint16,uint16,address,uint256)": "f5ecbdbc",
    "getTrustedRemoteAddress(uint16)": "9f38369a",
    "isTrustedRemote(uint16,bytes)": "3d8b38f6",
    "lzEndpoint()": "b353aaa7",
    "lzReceive(uint16,bytes,uint64,bytes)": "001d3567",
    "minDstGasLookup(uint16,uint16)": "8cfd8f5c",
    "nonblockingLzReceive(uint16,bytes,uint64,bytes)": "66ad5c8a",
    "onERC1155BatchReceived(address,address,uint256[],uint256[],bytes)": "bc197c81",
    "onERC1155Received(address,address,uint256,uint256,bytes)": "f23a6e61",
    "owner()": "8da5cb5b",
    "payloadSizeLimitLookup(uint16)": "3f1f4fa4",
    "precrime()": "950c8a74",
    "renounceOwnership()": "715018a6",
    "retryMessage(uint16,bytes,uint64,bytes)": "d1deba1f",
    "sendBatchFrom(address,uint16,bytes,uint256[],uint256[],address,address,bytes)": "4ab4e687",
    "sendFrom(address,uint16,bytes,uint256,uint256,address,address,bytes)": "4db8226a",
    "setConfig(uint16,uint16,uint256,bytes)": "cbed8b9c",
    "setMinDstGas(uint16,uint16,uint256)": "df2a5b3b",
    "setPayloadSizeLimit(uint16,uint256)": "0df37483",
    "setPrecrime(address)": "baf3292d",
    "setReceiveVersion(uint16)": "10ddb137",
    "setSendVersion(uint16)": "07e0db17",
    "setTrustedRemote(uint16,bytes)": "eb8d72b7",
    "setTrustedRemoteAddress(uint16,bytes)": "a6c3d165",
    "supportsInterface(bytes4)": "01ffc9a7",
    "token()": "fc0c546a",
    "transferOwnership(address)": "f2fde38b",
    "trustedRemoteLookup(uint16)": "7533d788"
  },
  "id": 102
}