{
  "abi": [
    {
      "inputs": [
        {
          "internalType": "address",
          "name": "_lzEndpoint",
          "type": "address"
        }
      ],
      "stateMutability": "nonpayable",
      "type": "constructor"
    },
    {
      "inputs": [],
      "name": "NoZeroAddress",
      "type": "error"
    },
    {
      "anonymous": false,
      "inputs": [
        {
          "indexed": false,
          "internalType": "address",
          "name": "ercAddress",
          "type": "address"
        },
        {
          "indexed": false,
          "internalType": "address",
          "name": "toAddress",
          "type": "address"
        },
        {
          "indexed": false,
          "internalType": "uint256",
          "name": "tokenId",
          "type": "uint256"
        },
        {
          "indexed": false,
          "internalType": "bytes",
          "name": "payload",
          "type": "bytes"
        },
        {
          "indexed": false,
          "internalType": "address",
          "name": "persistentAddress",
          "type": "address"
        }
      ],
      "name": "LzReceive",
      "type": "event"
    },
    {
      "anonymous": false,
      "inputs": [
        {
          "indexed": false,
          "internalType": "uint16",
          "name": "_srcChainId",
          "type": "uint16"
        },
        {
          "indexed": false,
          "internalType": "bytes",
          "name": "_srcAddress",
          "type": "bytes"
        },
        {
          "indexed": false,
          "internalType": "uint64",
          "name": "_nonce",
          "type": "uint64"
        },
        {
          "indexed": false,
          "internalType": "bytes",
          "name": "_payload",
          "type": "bytes"
        }
      ],
      "name": "MessageFailed",
      "type": "event"
    },
    {
      "anonymous": false,
      "inputs": [
        {
          "indexed": true,
          "internalType": "address",
          "name": "previousOwner",
          "type": "address"
        },
        {
          "indexed": true,
          "internalType": "address",
          "name": "newOwner",
          "type": "address"
        }
      ],
      "name": "OwnershipTransferred",
      "type": "event"
    },
    {
      "anonymous": false,
      "inputs": [
        {
          "indexed": false,
          "internalType": "address",
          "name": "account",
          "type": "address"
        }
      ],
      "name": "Paused",
      "type": "event"
    },
    {
      "anonymous": false,
      "inputs": [
        {
          "indexed": true,
          "internalType": "uint16",
          "name": "_srcChainId",
          "type": "uint16"
        },
        {
          "indexed": true,
          "internalType": "bytes",
          "name": "_srcAddress",
          "type": "bytes"
        },
        {
          "indexed": true,
          "internalType": "address",
          "name": "_toAddress",
          "type": "address"
        },
        {
          "indexed": false,
          "internalType": "uint256",
          "name": "_tokenId",
          "type": "uint256"
        },
        {
          "indexed": false,
          "internalType": "uint64",
          "name": "_nonce",
          "type": "uint64"
        }
      ],
      "name": "ReceiveFromChain",
      "type": "event"
    },
    {
      "anonymous": false,
      "inputs": [
        {
          "indexed": true,
          "internalType": "address",
          "name": "_sender",
          "type": "address"
        },
        {
          "indexed": true,
          "internalType": "uint16",
          "name": "_dstChainId",
          "type": "uint16"
        },
        {
          "indexed": true,
          "internalType": "bytes",
          "name": "_toAddress",
          "type": "bytes"
        },
        {
          "indexed": false,
          "internalType": "uint256",
          "name": "_tokenId",
          "type": "uint256"
        },
        {
          "indexed": false,
          "internalType": "uint64",
          "name": "_nonce",
          "type": "uint64"
        }
      ],
      "name": "SendToChain",
      "type": "event"
    },
    {
      "anonymous": false,
      "inputs": [
        {
          "indexed": false,
          "internalType": "uint16",
          "name": "_dstChainId",
          "type": "uint16"
        },
        {
          "indexed": false,
          "internalType": "uint16",
          "name": "_type",
          "type": "uint16"
        },
        {
          "indexed": false,
          "internalType": "uint256",
          "name": "_minDstGas",
          "type": "uint256"
        }
      ],
      "name": "SetMinDstGas",
      "type": "event"
    },
    {
      "anonymous": false,
      "inputs": [
        {
          "indexed": false,
          "internalType": "address",
          "name": "precrime",
          "type": "address"
        }
      ],
      "name": "SetPrecrime",
      "type": "event"
    },
    {
      "anonymous": false,
      "inputs": [
        {
          "indexed": false,
          "internalType": "uint16",
          "name": "_remoteChainId",
          "type": "uint16"
        },
        {
          "indexed": false,
          "internalType": "bytes",
          "name": "_path",
          "type": "bytes"
        }
      ],
      "name": "SetTrustedRemote",
      "type": "event"
    },
    {
      "anonymous": false,
      "inputs": [
        {
          "indexed": false,
          "internalType": "uint16",
          "name": "_remoteChainId",
          "type": "uint16"
        },
        {
          "indexed": false,
          "internalType": "bytes",
          "name": "_remoteAddress",
          "type": "bytes"
        }
      ],
      "name": "SetTrustedRemoteAddress",
      "type": "event"
    },
    {
      "anonymous": false,
      "inputs": [
        {
          "indexed": false,
          "internalType": "address",
          "name": "account",
          "type": "address"
        }
      ],
      "name": "Unpaused",
      "type": "event"
    },
    {
      "inputs": [
        {
          "internalType": "address",
          "name": "",
          "type": "address"
        }
      ],
      "name": "collectionLockedCounter",
      "outputs": [
        {
          "internalType": "uint256",
          "name": "",
          "type": "uint256"
        }
      ],
      "stateMutability": "view",
      "type": "function"
    },
    {
      "inputs": [
        {
          "internalType": "uint16",
          "name": "",
          "type": "uint16"
        },
        {
          "internalType": "bytes",
          "name": "",
          "type": "bytes"
        },
        {
          "internalType": "uint256",
          "name": "",
          "type": "uint256"
        }
      ],
      "name": "failedMessages",
      "outputs": [
        {
          "internalType": "bytes32",
          "name": "",
          "type": "bytes32"
        }
      ],
      "stateMutability": "view",
      "type": "function"
    },
    {
      "inputs": [
        {
          "internalType": "uint16",
          "name": "_srcChainId",
          "type": "uint16"
        },
        {
          "internalType": "bytes",
          "name": "_srcAddress",
          "type": "bytes"
        }
      ],
      "name": "forceResumeReceive",
      "outputs": [],
      "stateMutability": "nonpayable",
      "type": "function"
    },
    {
      "inputs": [
        {
          "internalType": "uint16",
          "name": "_version",
          "type": "uint16"
        },
        {
          "internalType": "uint16",
          "name": "_chainId",
          "type": "uint16"
        },
        {
          "internalType": "address",
          "name": "",
          "type": "address"
        },
        {
          "internalType": "uint256",
          "name": "_configType",
          "type": "uint256"
        }
      ],
      "name": "getConfig",
      "outputs": [
        {
          "internalType": "bytes",
          "name": "",
          "type": "bytes"
        }
      ],
      "stateMutability": "view",
      "type": "function"
    },
    {
      "inputs": [
        {
          "internalType": "uint16",
          "name": "_remoteChainId",
          "type": "uint16"
        }
      ],
      "name": "getTrustedRemoteAddress",
      "outputs": [
        {
          "internalType": "bytes",
          "name": "",
          "type": "bytes"
        }
      ],
      "stateMutability": "view",
      "type": "function"
    },
    {
      "inputs": [
        {
          "internalType": "uint16",
          "name": "_srcChainId",
          "type": "uint16"
        },
        {
          "internalType": "bytes",
          "name": "_srcAddress",
          "type": "bytes"
        }
      ],
      "name": "isTrustedRemote",
      "outputs": [
        {
          "internalType": "bool",
          "name": "",
          "type": "bool"
        }
      ],
      "stateMutability": "view",
      "type": "function"
    },
    {
      "inputs": [],
      "name": "lzEndpoint",
      "outputs": [
        {
          "internalType": "contract ILayerZeroEndpoint",
          "name": "",
          "type": "address"
        }
      ],
      "stateMutability": "view",
      "type": "function"
    },
    {
      "inputs": [
        {
          "internalType": "uint16",
          "name": "_srcChainId",
          "type": "uint16"
        },
        {
          "internalType": "bytes",
          "name": "_srcAddress",
          "type": "bytes"
        },
        {
          "internalType": "uint64",
          "name": "_nonce",
          "type": "uint64"
        },
        {
          "internalType": "bytes",
          "name": "_payload",
          "type": "bytes"
        }
      ],
      "name": "lzReceive",
      "outputs": [],
      "stateMutability": "nonpayable",
      "type": "function"
    },
    {
      "inputs": [
        {
          "internalType": "uint16",
          "name": "",
          "type": "uint16"
        },
        {
          "internalType": "uint16",
          "name": "",
          "type": "uint16"
        }
      ],
      "name": "minDstGasLookup",
      "outputs": [
        {
          "internalType": "uint256",
          "name": "",
          "type": "uint256"
        }
      ],
      "stateMutability": "view",
      "type": "function"
    },
    {
      "inputs": [
        {
          "internalType": "uint16",
          "name": "_srcChainId",
          "type": "uint16"
        },
        {
          "internalType": "bytes",
          "name": "_srcAddress",
          "type": "bytes"
        },
        {
          "internalType": "uint64",
          "name": "_nonce",
          "type": "uint64"
        },
        {
          "internalType": "bytes",
          "name": "_payload",
          "type": "bytes"
        }
      ],
      "name": "nonblockingLzReceive",
      "outputs": [],
      "stateMutability": "nonpayable",
      "type": "function"
    },
    {
      "inputs": [
        {
          "internalType": "address",
          "name": "",
          "type": "address"
        }
      ],
      "name": "originAddresses",
      "outputs": [
        {
          "internalType": "address",
          "name": "",
          "type": "address"
        }
      ],
      "stateMutability": "view",
      "type": "function"
    },
    {
      "inputs": [],
      "name": "owner",
      "outputs": [
        {
          "internalType": "address",
          "name": "",
          "type": "address"
        }
      ],
      "stateMutability": "view",
      "type": "function"
    },
    {
      "inputs": [],
      "name": "paused",
      "outputs": [
        {
          "internalType": "bool",
          "name": "",
          "type": "bool"
        }
      ],
      "stateMutability": "view",
      "type": "function"
    },
    {
      "inputs": [
        {
          "internalType": "address",
          "name": "",
          "type": "address"
        }
      ],
      "name": "persistentAddresses",
      "outputs": [
        {
          "internalType": "address",
          "name": "",
          "type": "address"
        }
      ],
      "stateMutability": "view",
      "type": "function"
    },
    {
      "inputs": [],
      "name": "precrime",
      "outputs": [
        {
          "internalType": "address",
          "name": "",
          "type": "address"
        }
      ],
      "stateMutability": "view",
      "type": "function"
    },
    {
      "inputs": [],
      "name": "renounceOwnership",
      "outputs": [],
      "stateMutability": "nonpayable",
      "type": "function"
    },
    {
      "inputs": [
        {
          "internalType": "uint16",
          "name": "_srcChainId",
          "type": "uint16"
        },
        {
          "internalType": "bytes",
          "name": "_srcAddress",
          "type": "bytes"
        },
        {
          "internalType": "uint64",
          "name": "_nonce",
          "type": "uint64"
        },
        {
          "internalType": "bytes",
          "name": "_payload",
          "type": "bytes"
        }
      ],
      "name": "retryMessage",
      "outputs": [],
      "stateMutability": "payable",
      "type": "function"
    },
    {
      "inputs": [
        {
          "internalType": "uint16",
          "name": "_version",
          "type": "uint16"
        },
        {
          "internalType": "uint16",
          "name": "_chainId",
          "type": "uint16"
        },
        {
          "internalType": "uint256",
          "name": "_configType",
          "type": "uint256"
        },
        {
          "internalType": "bytes",
          "name": "_config",
          "type": "bytes"
        }
      ],
      "name": "setConfig",
      "outputs": [],
      "stateMutability": "nonpayable",
      "type": "function"
    },
    {
      "inputs": [
        {
          "internalType": "uint16",
          "name": "_dstChainId",
          "type": "uint16"
        },
        {
          "internalType": "uint16",
          "name": "_packetType",
          "type": "uint16"
        },
        {
          "internalType": "uint256",
          "name": "_minGas",
          "type": "uint256"
        }
      ],
      "name": "setMinDstGas",
      "outputs": [],
      "stateMutability": "nonpayable",
      "type": "function"
    },
    {
      "inputs": [
        {
          "internalType": "address",
          "name": "_precrime",
          "type": "address"
        }
      ],
      "name": "setPrecrime",
      "outputs": [],
      "stateMutability": "nonpayable",
      "type": "function"
    },
    {
      "inputs": [
        {
          "internalType": "uint16",
          "name": "_version",
          "type": "uint16"
        }
      ],
      "name": "setReceiveVersion",
      "outputs": [],
      "stateMutability": "nonpayable",
      "type": "function"
    },
    {
      "inputs": [
        {
          "internalType": "uint16",
          "name": "_version",
          "type": "uint16"
        }
      ],
      "name": "setSendVersion",
      "outputs": [],
      "stateMutability": "nonpayable",
      "type": "function"
    },
    {
      "inputs": [
        {
          "internalType": "uint16",
          "name": "_srcChainId",
          "type": "uint16"
        },
        {
          "internalType": "bytes",
          "name": "_path",
          "type": "bytes"
        }
      ],
      "name": "setTrustedRemote",
      "outputs": [],
      "stateMutability": "nonpayable",
      "type": "function"
    },
    {
      "inputs": [
        {
          "internalType": "uint16",
          "name": "_remoteChainId",
          "type": "uint16"
        },
        {
          "internalType": "bytes",
          "name": "_remoteAddress",
          "type": "bytes"
        }
      ],
      "name": "setTrustedRemoteAddress",
      "outputs": [],
      "stateMutability": "nonpayable",
      "type": "function"
    },
    {
      "inputs": [
        {
          "internalType": "bytes4",
          "name": "interfaceId",
          "type": "bytes4"
        }
      ],
      "name": "supportsInterface",
      "outputs": [
        {
          "internalType": "bool",
          "name": "",
          "type": "bool"
        }
      ],
      "stateMutability": "view",
      "type": "function"
    },
    {
      "inputs": [
        {
          "internalType": "address",
          "name": "newOwner",
          "type": "address"
        }
      ],
      "name": "transferOwnership",
      "outputs": [],
      "stateMutability": "nonpayable",
      "type": "function"
    },
    {
      "inputs": [
        {
          "internalType": "uint16",
          "name": "",
          "type": "uint16"
        }
      ],
      "name": "trustedRemoteLookup",
      "outputs": [
        {
          "internalType": "bytes",
          "name": "",
          "type": "bytes"
        }
      ],
      "stateMutability": "view",
      "type": "function"
    },
    {
      "inputs": [
        {
          "internalType": "address",
          "name": "_persistentAddress",
          "type": "address"
        },
        {
          "internalType": "uint256",
          "name": "_tokenId",
          "type": "uint256"
        }
      ],
      "name": "withdraw",
      "outputs": [],
      "stateMutability": "nonpayable",
      "type": "function"
    },
    {
      "inputs": [
        {
          "internalType": "uint16",
          "name": "_dstChainId",
          "type": "uint16"
        },
        {
          "internalType": "address",
          "name": "_toAddress",
          "type": "address"
        },
        {
          "internalType": "address",
          "name": "_erc721Address",
          "type": "address"
        },
        {
          "internalType": "uint256",
          "name": "_tokenId",
          "type": "uint256"
        },
        {
          "internalType": "bytes",
          "name": "_adapterParams",
          "type": "bytes"
        }
      ],
      "name": "wrap",
      "outputs": [],
      "stateMutability": "payable",
      "type": "function"
    }
  ],
  "bytecode": {
    "object": "0x60a0346100ed57601f62004cb938819003918201601f19168301916001600160401b038311848410176100f2578084926020946040528339810103126100ed57516001600160a01b0390818116908190036100ed576000543360018060a01b0319821617600055604051923391167f8be0079c531659141344cd1fd0a4f28419497f9722a3daafe3b4186f6b6457e0600080a360805260ff1960055416600555614bb0908162000109823960805181818161039001528181610519015281816105d30152818161078d01528181610b230152818161188f015281816119f2015281816120a901526123a40152f35b600080fd5b634e487b7160e01b600052604160045260246000fdfe6080604052600436101562000014575b600080fd5b60003560e01c80621d356714620002ac57806301ffc9a714620002a157806307e0db17146200029657806310ddb137146200028b57806315d4901e1462000280578063227fecb014620002755780633d8b38f6146200026a57806342d65a8d146200025f5780635c975abb146200025457806365ed8bfb146200024957806366ad5c8a146200023e578063715018a614620002335780637533d78814620002285780638cfd8f5c146200021d5780638da5cb5b14620002125780638ee749121462000207578063950c8a7414620001fc5780639f38369a14620001f1578063a6c3d16514620001e6578063b353aaa714620001db578063baf3292d14620001d0578063c7fb871e14620001c5578063cbed8b9c14620001ba578063d1deba1f14620001af578063df2a5b3b14620001a4578063eb8d72b71462000199578063f2fde38b146200018e578063f3fef3a314620001835763f5ecbdbc146200017957600080fd5b6200000f6200203a565b506200000f62001efa565b506200000f62001e56565b506200000f62001cd8565b506200000f62001bda565b506200000f62001a99565b506200000f62001986565b506200000f62001942565b506200000f620018be565b506200000f62001876565b506200000f620016bd565b506200000f620015fb565b506200000f620015cf565b506200000f6200152c565b506200000f620014bf565b506200000f62001464565b506200000f6200140e565b506200000f6200125c565b506200000f62000e28565b506200000f62000927565b506200000f620007fe565b506200000f6200075b565b506200000f62000708565b506200000f62000681565b506200000f6200063f565b506200000f62000599565b506200000f620004df565b506200000f620004a1565b506200000f62000322565b6004359061ffff821682036200000f57565b6024359061ffff821682036200000f57565b9181601f840112156200000f578235916001600160401b0383116200000f57602083818601950101116200000f57565b604435906001600160401b03821682036200000f57565b50346200000f5760803660031901126200000f5762000340620002b7565b6001600160401b03906024358281116200000f5762000364903690600401620002db565b9290620003706200030b565b916064359081116200000f576200038c903690600401620002db565b91907f00000000000000000000000000000000000000000000000000000000000000006001600160a01b031633036200045c57620004196200042292620004299762000411620003f4620003ee8a61ffff166000526001602052604060002090565b620012fd565b805190818414918262000451575b50816200042b575b50620022bf565b3691620008ca565b923691620008ca565b9262002731565b005b90506200043a368486620008ca565b60208151910120906020815191012014386200040a565b151591503862000402565b60405162461bcd60e51b815260206004820152601e60248201527f4c7a4170703a20696e76616c696420656e64706f696e742063616c6c657200006044820152606490fd5b50346200000f5760203660031901126200000f5760043563ffffffff60e01b81168091036200000f576040516312c26f0b60e31b9091148152602090f35b50346200000f57600060203660031901126200059657620004ff620002b7565b8160018060a01b0362000517818354163314620024c6565b7f00000000000000000000000000000000000000000000000000000000000000001691823b156200059257602461ffff918360405195869485936307e0db1760e01b85521660048401525af1801562000582575b62000574575080f35b6200057f906200083b565b80f35b6200058c62002129565b6200056b565b5080fd5b80fd5b50346200000f57600060203660031901126200059657620005b9620002b7565b8160018060a01b03620005d1818354163314620024c6565b7f00000000000000000000000000000000000000000000000000000000000000001691823b156200059257602461ffff918360405195869485936310ddb13760e01b85521660048401525af18015620005825762000574575080f35b6001600160a01b038116036200000f57565b50346200000f5760203660031901126200000f5760043562000661816200062d565b60018060a01b031660005260086020526020604060002054604051908152f35b50346200000f5760203660031901126200000f576020600435620006a5816200062d565b60018060a01b038091166000526006825260406000205416604051908152f35b9060406003198301126200000f5760043561ffff811681036200000f5791602435906001600160401b0382116200000f576200070491600401620002db565b9091565b50346200000f57602061ffff6200074c6200072336620006c5565b93909116600052600184526200073d6040600020620012fd565b848151910120923691620008ca565b82815191012014604051908152f35b50346200000f576200076d36620006c5565b9190600092839160018060a01b036200078b818554163314620024c6565b7f00000000000000000000000000000000000000000000000000000000000000001690813b15620007ee5783620007da95604051968795869485936342d65a8d60e01b85526004850162002533565b03925af18015620005825762000574575080f35b8380fd5b60009103126200000f57565b50346200000f5760003660031901126200000f57602060ff600554166040519015158152f35b50634e487b7160e01b600052604160045260246000fd5b6001600160401b0381116200084f57604052565b6200085962000824565b604052565b604081019081106001600160401b038211176200084f57604052565b90601f801991011681019081106001600160401b038211176200084f57604052565b6020906001600160401b038111620008ba575b601f01601f19160190565b620008c462000824565b620008af565b929192620008d8826200089c565b91620008e860405193846200087a565b8294818452818301116200000f578281602093846000960137010152565b9080601f830112156200000f578160206200092493359101620008ca565b90565b5060a03660031901126200000f576200093f620002b7565b602435906200094e826200062d565b6044356200095c816200062d565b606435916084356001600160401b0381116200000f57620009836004913690830162000906565b946001600160a01b0384811694909290851562000e18576001600160a01b0381166000908152600760205260408120620009d690620009ca905b546001600160a01b031690565b6001600160a01b031690565b1562000c7f57506001600160a01b03166000908152600760205260409020620009ff90620009bd565b916040516306fdde0360e01b815260008184818a5afa90811562000c6f575b60009162000c52575b50926040516395d89b4160e01b815260008185818b5afa90811562000c42575b60009162000c25575b509760405163c87b56dd60e01b81526000818062000a75858983019190602083019252565b03818c5afa90811562000c15575b60009162000bef575b50883b156200000f578a9860006040518092630852cd8d60e31b825281838162000abd898d83019190602083019252565b03925af1801562000bdf575b62000bc1575b505b604051998a96879562000ae89560208801620021b8565b03601f198101835262000afc90836200087a565b83604051978893849363040a7bb160e41b8552309085019362000b1f946200222b565b03917f00000000000000000000000000000000000000000000000000000000000000001691815a93604094fa620004299462000b719190811562000bb1575b60009162000b7b575b5034101562002272565b349233916200237a565b62000ba1915060403d811162000ba9575b62000b9881836200087a565b81019062002214565b503862000b67565b503d62000b8c565b62000bbb62002129565b62000b5e565b8062000bd162000bd8926200083b565b80620007f2565b3862000acf565b62000be962002129565b62000ac9565b62000c0e913d8091833e62000c0581836200087a565b8101906200218f565b3862000a8c565b62000c1f62002129565b62000a83565b62000c3b913d8091833e62000c0581836200087a565b3862000a50565b62000c4c62002129565b62000a47565b62000c68913d8091833e62000c0581836200087a565b3862000a27565b62000c7962002129565b62000a1e565b97969290863b1562000e1457604080516323b872dd60e01b815233858201908152306020820152918201869052989997988a98918290829081900360600181838e5af1801562000e04575b62000ded575b506040516306fdde0360e01b8152818186818d5afa91821562000ddd575b809262000dbe575b5050936040516395d89b4160e01b815260008186818d5afa90811562000dae575b60009162000d91575b50986000604051809263c87b56dd60e01b8252818062000d47878b83019190602083019252565b03915afa90811562000d81575b60009162000d64575b5062000ad1565b62000d7a913d8091833e62000c0581836200087a565b3862000d5d565b62000d8b62002129565b62000d54565b62000da7913d8091833e62000c0581836200087a565b3862000d20565b62000db862002129565b62000d17565b62000dd592503d8091833e62000c0581836200087a565b388062000cf6565b62000de762002129565b62000cee565b8062000bd162000dfd926200083b565b3862000cd0565b62000e0e62002129565b62000cca565b8880fd5b5060405163ddbadd5f60e01b8152fd5b50346200000f5760803660031901126200000f5762000e46620002b7565b506001600160401b036024358181116200000f5762000e6a90369060040162000906565b5062000e756200030b565b506064358181116200000f5762000e9190369060040162000906565b90303303620012185762000eaf6020835184010160208401620027f4565b6001600160a01b0395861660008181526006602052604081209688169891979396929593949392859062000ee390620009bd565b16620010d857508162000efe62000efa826200295b565b1590565b6200108d575b5062000f329060405193849361202380860193868510908511176200107d575b62002b5886393092620028aa565b03906000f080156200106d575b1694853b156200000f577f227df926aae3e96d57f2da8cdc461944f079e5992190abf470acc8ad5c8571d99562000f936000620010419560405180938192633349e71f60e21b8352888c6004850162002884565b038183865af180156200105d575b62001046575b506001600160a01b038516600090815260066020526040902062000fe79082905b80546001600160a01b0319166001600160a01b03909216919091179055565b6001600160a01b03811660009081526007602052604090206200100c90869062000fc8565b6001600160a01b0381166000908152600860205260409020620010308154620025c0565b9055915b60405195869586620028e8565b0390a1005b8062000bd162001056926200083b565b3862000fa7565b6200106762002129565b62000fa1565b6200107762002129565b62000f3f565b6200108762000824565b62000f24565b62000f32919250620010d0620010c191604051928391620010ba60208401600290614f7760f01b81520190565b90620014eb565b03601f1981018352826200087a565b919062000f04565b989495935050505062001109620009ca620009ca620009bd8760018060a01b03166000526006602052604060002090565b803b15620012145786849392620011609262001041967f227df926aae3e96d57f2da8cdc461944f079e5992190abf470acc8ad5c8571d99a8a60405196879586948593633349e71f60e21b85526004850162002884565b03925af1801562001204575b620011ed575b506001600160a01b0384166000908152600660205260409020620011b5906200119b90620009bd565b6001600160a01b0316600090815260086020526040902090565b620011c18154620025c0565b90556001600160a01b0384166000908152600660205260409020620011e690620009bd565b9162001034565b8062000bd1620011fd926200083b565b3862001172565b6200120e62002129565b6200116c565b8680fd5b606460405162461bcd60e51b815260206004820152602060248201527f4c7a52656365697665723a2063616c6c6572206d757374206265204c7a4170706044820152fd5b50346200000f576000806003193601126200059657805481906001600160a01b038116906200128d338314620024c6565b6001600160a01b03191682557f8be0079c531659141344cd1fd0a4f28419497f9722a3daafe3b4186f6b6457e08280a380f35b90600182811c92168015620012f2575b6020831014620012dc57565b634e487b7160e01b600052602260045260246000fd5b91607f1691620012d0565b90604051918260008254926200131384620012c0565b9081845260019485811690816000146200138a575060011462001343575b505062001341925003836200087a565b565b9093915060005260209081600020936000915b81831062001371575050620013419350820101388062001331565b8554888401850152948501948794509183019162001356565b9150506200134194506020925060ff191682840152151560051b820101388062001331565b60005b838110620013c35750506000910152565b8181015183820152602001620013b2565b90602091620013ef81518092818552858086019101620013af565b601f01601f1916010190565b90602062000924928181520190620013d4565b50346200000f5760203660031901126200000f5761ffff6200142f620002b7565b166000526001602052620014606200144b6040600020620012fd565b604051918291602083526020830190620013d4565b0390f35b50346200000f5760403660031901126200000f576020620014b662001488620002b7565b61ffff62001495620002c9565b91166000526002835260406000209061ffff16600052602052604060002090565b54604051908152f35b50346200000f5760003660031901126200000f576000546040516001600160a01b039091168152602090f35b906200150060209282815194859201620013af565b0190565b60209062001520928260405194838680955193849201620013af565b82019081520301902090565b50346200000f5760603660031901126200000f576200154a620002b7565b6024356001600160401b0381116200000f57620014609161ffff62001578620015be93369060040162000906565b9116600052600460205260406000209060206200159f6040519283815193849201620013af565b8101918252602081604435930301902090600052602052604060002090565b546040519081529081906020820190565b50346200000f5760003660031901126200000f576003546040516001600160a01b039091168152602090f35b50346200000f5760203660031901126200000f5761ffff6200161c620002b7565b166000526001602052620016346040600020620012fd565b80511562001678576200165b81620014609251906013198201918211620016685762002667565b60405191829182620013fb565b62001672620025a9565b62002667565b60405162461bcd60e51b815260206004820152601d60248201527f4c7a4170703a206e6f20747275737465642070617468207265636f72640000006044820152606490fd5b50346200000f57620016cf36620006c5565b9190600091620016ea60018060a01b038454163314620024c6565b604051936020818482880137620017176034878481013060601b858201520360148101895201876200087a565b61ffff8316855260019081815260408620918751916001600160401b03831162001866575b62001754836200174d8654620012c0565b8662002550565b80601f8411600114620017c9575091808092620017b79695948a9b7f8c0400cfe2d1199b1a725c78960bcc2a344d869b80590d0f2bd005db15a572ce9b94620017bd575b50501b916000199060031b1c19161790555b6040519384938462002533565b0390a180f35b01519250388062001798565b91939498601f198416620017e287600052602060002090565b938a905b8282106200184e575050917f8c0400cfe2d1199b1a725c78960bcc2a344d869b80590d0f2bd005db15a572ce999a95939185620017b79896941062001834575b505050811b019055620017aa565b015160001960f88460031b161c1916905538808062001826565b808886978294978701518155019601940190620017e6565b6200187062000824565b6200173c565b50346200000f5760003660031901126200000f576040517f00000000000000000000000000000000000000000000000000000000000000006001600160a01b03168152602090f35b50346200000f5760203660031901126200000f577f5db758e995a17ec1ad84bdef7e8c3293a0bd6179bcce400dff5d4c3d87db726b602060043562001903816200062d565b6000546001600160a01b0391906200191f9083163314620024c6565b16806bffffffffffffffffffffffff60a01b6003541617600355604051908152a1005b50346200000f5760203660031901126200000f57602060043562001966816200062d565b60018060a01b038091166000526007825260406000205416604051908152f35b50346200000f5760803660031901126200000f57620019a4620002b7565b620019ae620002c9565b6064356001600160401b0381116200000f57620019d0903690600401620002db565b60018060a09493941b039160009483620019f087958654163314620024c6565b7f00000000000000000000000000000000000000000000000000000000000000001691823b1562001a9557849062001a60604051978896879586946332fb62e760e21b865261ffff8092166004870152166024850152604435604485015260806064850152608484019162002512565b03925af1801562001a85575b62001a75575080f35b8062000bd16200057f926200083b565b62001a8f62002129565b62001a6c565b8480fd5b5060803660031901126200000f5762001ab1620002b7565b6001600160401b036024358181116200000f5762001ad490369060040162000906565b62001ade6200030b565b916064359081116200000f5762001afa903690600401620002db565b91909362001b6b62001b428562001b2a62001b238561ffff166000526004602052604060002090565b8662001504565b906001600160401b0316600052602052604060002090565b5462001b5081151562002a33565b62001b5d368689620008ca565b602081519101201462002a80565b60009485938462001b9a8762001b2a62001b938761ffff166000526004602052604060002090565b8862001504565b55303b1562001a955762001bc4916040519687958695633356ae4560e11b87526004870162002acd565b038183305af1801562001a855762001a75575080f35b50346200000f5760603660031901126200000f5762001bf8620002b7565b62001c02620002c9565b6044359162001c1d60018060a01b03600054163314620024c6565b821562001c9b57620010417f9d5c7c0b934da8fefa9c7760c98383778a12dfbfc0c3b3106518f43fb9508ac09361ffff831660005260026020528062001c758560406000209061ffff16600052602052604060002090565b556040519384938460409194939294606082019561ffff80921683521660208201520152565b60405162461bcd60e51b81526020600482015260156024820152744c7a4170703a20696e76616c6964206d696e47617360581b6044820152606490fd5b50346200000f5762001cea36620006c5565b919060009162001d0560018060a01b038454163314620024c6565b61ffff81168352600160209080825260408520916001600160401b03871162001e46575b62001d418762001d3a8554620012c0565b8562002550565b8590601f881160011462001dad5750918680879893620017b7957ffa41487ad5d6728f0b19276fa1eddc16558578f5109fc39d2dc33c3230470dab999362001da1575b501b906000198460031b1c19161790556040519384938462002533565b88013592503862001d84565b90601f19881662001dc385600052602060002090565b9288905b82821062001e2e575050918893917ffa41487ad5d6728f0b19276fa1eddc16558578f5109fc39d2dc33c3230470dab9899620017b796941062001e13575b505082811b019055620017aa565b870135600019600386901b60f8161c19169055388062001e05565b808685968294968c0135815501950193019062001dc7565b62001e5062000824565b62001d29565b50346200000f5760203660031901126200000f5760043562001e78816200062d565b6000546001600160a01b039062001e939082163314620024c6565b81161562001ea657620004299062002b10565b60405162461bcd60e51b815260206004820152602660248201527f4f776e61626c653a206e6577206f776e657220697320746865207a65726f206160448201526564647265737360d01b6064820152608490fd5b50346200000f5760403660031901126200000f5760043562001f1c816200062d565b6001600160a01b0381811660009081526007602052604090206024359190819062001f4790620009bd565b16156200202857821690813b156200000f5762001fc2620009ca620009ca620009bd60405196630852cd8d60e31b885287600081819a9981838162001f958d839f6004019190602083019252565b03925af1801562002018575b62002001575b506001600160a01b0316600090815260076020526040902090565b90813b1562001ffd576040516323b872dd60e01b81523060048201523360248201526044810191909152919082908183816064810162001a60565b5050fd5b8062000bd162002011926200083b565b3862001fa7565b6200202262002129565b62001fa1565b60405163ddbadd5f60e01b8152600490fd5b50346200000f5760803660031901126200000f57620014606200205c620002b7565b62002066620002c9565b90620020746044356200062d565b604051633d7b2f6f60e21b815261ffff91821660048201529116602482015230604482015260648035908201526000816084817f00000000000000000000000000000000000000000000000000000000000000006001600160a01b03165afa90811562002119575b600091620020f3575b5060405191829182620013fb565b62002112913d8091833e6200210981836200087a565b8101906200248b565b38620020e5565b6200212362002129565b620020dc565b506040513d6000823e3d90fd5b9092919262002145816200089c565b916200215560405193846200087a565b8294828452828201116200000f57602062001341930190620013af565b9080601f830112156200000f578151620009249260200162002136565b906020828203126200000f5781516001600160401b0381116200000f5762000924920162002172565b9695949193620021f16200220f94620022009360a0976001808a1b038092168c521660208b015260c060408b015260c08a0190620013d4565b9088820360608a0152620013d4565b908682036080880152620013d4565b930152565b91908260409103126200000f576020825192015190565b9262000924949261ffff6200225c9316855260018060a01b0316602085015260a0604085015260a0840190620013d4565b91600060608201526080818403910152620013d4565b156200227a57565b60405162461bcd60e51b815260206004820152601760248201527f496e73756666696369656e742066656520616d6f756e740000000000000000006044820152606490fd5b15620022c757565b60405162461bcd60e51b815260206004820152602660248201527f4c7a4170703a20696e76616c696420736f757263652073656e64696e6720636f6044820152651b9d1c9858dd60d21b6064820152608490fd5b91926200234462000924969461ffff620023539416855260c0602086015260c0850190620013d4565b908382036040850152620013d4565b6001600160a01b0390931660608201526000608082015280830360a09190910152620013d4565b90919361ffff82166000526001602052620023996040600020620012fd565b908151156200242d577f00000000000000000000000000000000000000000000000000000000000000006001600160a01b031692833b156200000f57620023f96000966040519889978896879562c5803160e81b8752600487016200231b565b03925af180156200241d575b6200240d5750565b8062000bd162001341926200083b565b6200242762002129565b62002405565b60405162461bcd60e51b815260206004820152603060248201527f4c7a4170703a2064657374696e6174696f6e20636861696e206973206e6f742060448201526f61207472757374656420736f7572636560801b6064820152608490fd5b6020818303126200000f578051906001600160401b0382116200000f57019080601f830112156200000f578151620009249260200162002136565b15620024ce57565b606460405162461bcd60e51b815260206004820152602060248201527f4f776e61626c653a2063616c6c6572206973206e6f7420746865206f776e65726044820152fd5b908060209392818452848401376000828201840152601f01601f1916010190565b60409061ffff620009249593168152816020820152019162002512565b90601f81116200255f57505050565b600091825260208220906020601f850160051c830194106200259e575b601f0160051c01915b8281106200259257505050565b81815560010162002585565b90925082906200257c565b50634e487b7160e01b600052601160045260246000fd5b9060018201809211620025cf57565b62001341620025a9565b90601f8201809211620025cf57565b15620025f057565b60405162461bcd60e51b815260206004820152600e60248201526d736c6963655f6f766572666c6f7760901b6044820152606490fd5b156200262e57565b60405162461bcd60e51b8152602060048201526011602482015270736c6963655f6f75744f66426f756e647360781b6044820152606490fd5b6200267f826200267781620025d9565b1015620025e8565b6200268e828251101562002626565b81620026a7575050604051600081526020810160405290565b60405191601f811691821560051b808486010193838501920101905b808410620026dc5750508252601f01601f191660405290565b9092835181526020809101930190620026c3565b906200271c62000924959361ffff6001600160401b0393168452608060208501526080840190620013d4565b931660408201526060818403910152620013d4565b9091303b156200000f57604051633356ae4560e11b8152600081806200275e8886898960048601620026f0565b038183305af19081620027e2575b50620027dc5783620027d7917fe6f254030bcb01ffd20558175c13fcaed6d1520be7becee4c961b65f79243b0d95516020830120620027c98262001b2a620027c28861ffff166000526004602052604060002090565b8962001504565b5560405194859485620026f0565b0390a1565b50505050565b620027ed906200083b565b386200276c565b9060c0828203126200000f5781516200280d816200062d565b9260208301516200281e816200062d565b926040810151916001600160401b03928381116200000f57846200284491840162002172565b9360608301518481116200000f57816200286091850162002172565b9360808401519081116200000f5760a0916200287e91850162002172565b92015190565b62000924939260609260018060a01b0316825260208201528160408201520190620013d4565b91620028d890620028c9604093969596606086526060860190620013d4565b908482036020860152620013d4565b6001600160a01b03909416910152565b936080936200291f9297969760018060a01b0394858092168852166020870152604086015260a0606086015260a0850190620013d4565b9416910152565b805115620029345760200190565b634e487b7160e01b600052603260045260246000fd5b805160011015620029345760210190565b60028151111562002a2d57620029ba62002997604051926200297d846200085e565b6002845260203681860137620029a5620029978262002926565b516001600160f81b03191690565b60001a620029b38562002926565b536200294a565b60001a620029c8826200294a565b536040519081620029de602082018093620014eb565b0391620029f4601f19938481018352826200087a565b5190209060405162002a2660208201928262002a1985600290614f7760f01b81520190565b039081018352826200087a565b5190201490565b50600090565b1562002a3b57565b60405162461bcd60e51b815260206004820152601d60248201527f4c7a52656365697665723a206e6f2073746f726564206d6573736167650000006044820152606490fd5b1562002a8857565b60405162461bcd60e51b815260206004820152601b60248201527f4c7a52656365697665723a20696e76616c6964207061796c6f616400000000006044820152606490fd5b9062002afb620009249694959361ffff6001600160401b0393168452608060208501526080840190620013d4565b94166040820152606081850391015262002512565b600080546001600160a01b039283166001600160a01b03198216811783559216907f8be0079c531659141344cd1fd0a4f28419497f9722a3daafe3b4186f6b6457e09080a356fe608060405234620003d65762002023803803806200001d81620003db565b928339810190606081830312620003d65780516001600160401b0390818111620003d657836200004f91840162000401565b9260209081840151838111620003d6576040916200006f91860162000401565b9301516001600160a01b038082169590939091869003620003d6578151818111620003c0576000958654916001948584811c94168015620003b5575b87851014620003a1578190601f948581116200034e575b508790858311600114620002ea578a92620002de575b5050600019600383901b1c191690851b1787555b8051928311620002ca5783548481811c91168015620002bf575b86821014620002ab579081838594931162000256575b5085918311600114620001f2578792620001e6575b5050600019600383901b1c191690821b1790555b60075460018060a01b03199333858316176007557f8be0079c531659141344cd1fd0a4f28419497f9722a3daafe3b4186f6b6457e0604051943393169180a38315620001a55750506008541617600855604051611baf9081620004748239f35b62461bcd60e51b82526004820152601560248201527f43616e2774206265207a65726f20616464726573730000000000000000000000604482015260649150fd5b01519050388062000131565b8488528588208594509190601f198416895b888282106200023f575050841162000225575b505050811b01905562000145565b015160001960f88460031b161c1916905538808062000217565b838501518655889790950194938401930162000204565b909192508488528588208380860160051c820192888710620002a1575b91869588929594930160051c01915b828110620002925750506200011c565b8a815586955087910162000282565b9250819262000273565b634e487b7160e01b88526022600452602488fd5b90607f169062000106565b634e487b7160e01b87526041600452602487fd5b015190503880620000d8565b8a8052888b208894509190601f1984168c5b8b8282106200033757505084116200031d575b505050811b018755620000ec565b015160001960f88460031b161c191690553880806200030f565b8385015186558b97909501949384019301620002fc565b909150898052878a208580850160051c8201928a861062000397575b918991869594930160051c01915b82811062000388575050620000c2565b8c815585945089910162000378565b925081926200036a565b634e487b7160e01b89526022600452602489fd5b93607f1693620000ab565b634e487b7160e01b600052604160045260246000fd5b600080fd5b6040519190601f01601f191682016001600160401b03811183821017620003c057604052565b919080601f84011215620003d65782516001600160401b038111620003c05760209062000437601f8201601f19168301620003db565b92818452828287010111620003d65760005b8181106200045f57508260009394955001015290565b85810183015184820184015282016200044956fe60806040526004361015610013575b600080fd5b60003560e01c806301ffc9a71461017b57806306fdde0314610172578063081812fc14610169578063095ea7b31461016057806323b872dd1461015757806342842e0e1461014e57806342966c68146101455780636352211e1461013c57806370a0823114610133578063715018a61461012a5780638da5cb5b1461012157806395d89b4114610118578063a22cb4651461010f578063b88d4fde14610106578063c87b56dd146100fd578063cd279c7c146100f4578063e985e9c5146100eb5763f2fde38b146100e357600080fd5b61000e610bda565b5061000e610b7c565b5061000e6109e5565b5061000e6109b1565b5061000e610950565b5061000e61079f565b5061000e6106f9565b5061000e6106cf565b5061000e61066d565b5061000e6105ca565b5061000e6105ab565b5061000e61051a565b5061000e6104f1565b5061000e6104c7565b5061000e6103a2565b5061000e610345565b5061000e610261565b5061000e610196565b6001600160e01b031981160361000e57565b503461000e57602036600319011261000e5760206004356101b681610184565b63ffffffff60e01b166380ac58cd60e01b81149081156101f4575b81156101e3575b506040519015158152f35b6301ffc9a760e01b149050386101d8565b635b5e139f60e01b811491506101d1565b60005b8381106102185750506000910152565b8181015183820152602001610208565b9060209161024181518092818552858086019101610205565b601f01601f1916010190565b90602061025e928181520190610228565b90565b503461000e57600080600319360112610342576040519080805461028481610d7d565b8085529160019180831690811561031857506001146102be575b6102ba856102ae818703826108cc565b6040519182918261024d565b0390f35b80809450527f290decd9548b62a8d60345a988386fc84ba6bc95484008f6362f93160ef3e5635b8284106103005750505081016020016102ae826102ba61029e565b805460208587018101919091529093019281016102e5565b8695506102ba969350602092506102ae94915060ff191682840152151560051b820101929361029e565b80fd5b503461000e57602036600319011261000e576020610364600435610ecf565b6040516001600160a01b039091168152f35b600435906001600160a01b038216820361000e57565b602435906001600160a01b038216820361000e57565b503461000e57604036600319011261000e576103bc610376565b6024356103c881610d05565b916001600160a01b038084169082168114610443576103fa936103f59133149081156103fc575b50610e5d565b6113bc565b005b6001600160a01b0316600090815260056020526040902061043d91506104369033905b9060018060a01b0316600052602052604060002090565b5460ff1690565b386103ef565b60405162461bcd60e51b815260206004820152602160248201527f4552433732313a20617070726f76616c20746f2063757272656e74206f776e656044820152603960f91b6064820152608490fd5b606090600319011261000e576001600160a01b0390600435828116810361000e5791602435908116810361000e579060443590565b503461000e576103fa6104d936610492565b916104ec6104e78433611078565b610f61565b611251565b503461000e576103fa61050336610492565b9060405192610511846108a3565b60008452610fda565b503461000e57602036600319011261000e576004356105398133611078565b15610582576008546001600160a01b03163303610559576103fa9061193c565b60405162461bcd60e51b81526020600482015260016024820152601960f91b6044820152606490fd5b60405162461bcd60e51b81526020600482015260016024820152603160f81b6044820152606490fd5b503461000e57602036600319011261000e576020610364600435610d05565b503461000e57602036600319011261000e576001600160a01b036105ec610376565b1680156106155760005260036020526102ba604060002054604051918291829190602083019252565b60405162461bcd60e51b815260206004820152602a60248201527f4552433732313a2062616c616e636520717565727920666f7220746865207a65604482015269726f206164647265737360b01b6064820152608490fd5b503461000e576000806003193601126103425760075481906001600160a01b0381169061069b338314610c71565b6001600160a01b0319166007557f8be0079c531659141344cd1fd0a4f28419497f9722a3daafe3b4186f6b6457e08280a380f35b503461000e57600036600319011261000e576007546040516001600160a01b039091168152602090f35b503461000e57600080600319360112610342576040519080600180549161071f83610d7d565b808652928281169081156103185750600114610745576102ba856102ae818703826108cc565b92508083527fb10e2d527612073b26eecdfd717e6a320cf44b4afac2b0732d9fcbe2b7fa0cf65b8284106107875750505081016020016102ae826102ba61029e565b8054602085870181019190915290930192810161076c565b503461000e57604036600319011261000e576107b9610376565b602435801515810361000e576001600160a01b0382169133831461084757816108046108159233600052600560205260406000209060018060a01b0316600052602052604060002090565b9060ff801983541691151516179055565b604051901515815233907f17307eab39ab6107e8899845ad3d59bd9653f200f220920489ca2b5937696c3190602090a3005b60405162461bcd60e51b815260206004820152601960248201527f4552433732313a20617070726f766520746f2063616c6c6572000000000000006044820152606490fd5b50634e487b7160e01b600052604160045260246000fd5b6020810190811067ffffffffffffffff8211176108bf57604052565b6108c761088c565b604052565b90601f8019910116810190811067ffffffffffffffff8211176108bf57604052565b60209067ffffffffffffffff811161090c575b601f01601f19160190565b61091461088c565b610901565b929192610925826108ee565b9161093360405193846108cc565b82948184528183011161000e578281602093846000960137010152565b503461000e57608036600319011261000e5761096a610376565b61097261038c565b6064359167ffffffffffffffff831161000e573660238401121561000e576109a76103fa933690602481600401359101610919565b9160443591610fda565b503461000e57602036600319011261000e576102ba6109d16004356115d5565b604051918291602083526020830190610228565b503461000e57606036600319011261000e576109ff610376565b6024359060443567ffffffffffffffff811161000e573660238201121561000e57610a34903690602481600401359101610919565b6007546001600160a01b039390610a4e9085163314610c71565b60405192610a5b846108a3565b6000948585528116908115610b3857610b359483610b2b9281610b3095610aa6610aa1610a9d84600052600260205260018060a01b0360406000205416151590565b1590565b611163565b6001600160a01b0383166000908152600360205260409020610ac881546111c6565b9055610b0183610ae2846000526002602052604060002090565b80546001600160a01b0319166001600160a01b03909216919091179055565b8a7fddf252ad1be2c89b69c2b068fc378daa952ba7f163c4a11628f55a4df523b3ef8180a46114c1565b611054565b6117d8565b80f35b606460405162461bcd60e51b815260206004820152602060248201527f4552433732313a206d696e7420746f20746865207a65726f20616464726573736044820152fd5b503461000e57604036600319011261000e57602060ff610bce610b9d610376565b610ba561038c565b6001600160a01b0391821660009081526005865260408082209290931681526020919091522090565b54166040519015158152f35b503461000e57602036600319011261000e57610bf4610376565b6007546001600160a01b0390610c0d9082163314610c71565b811615610c1d576103fa90610cbc565b60405162461bcd60e51b815260206004820152602660248201527f4f776e61626c653a206e6577206f776e657220697320746865207a65726f206160448201526564647265737360d01b6064820152608490fd5b15610c7857565b606460405162461bcd60e51b815260206004820152602060248201527f4f776e61626c653a2063616c6c6572206973206e6f7420746865206f776e65726044820152fd5b600780546001600160a01b039283166001600160a01b0319821681179092559091167f8be0079c531659141344cd1fd0a4f28419497f9722a3daafe3b4186f6b6457e0600080a3565b6000908152600260205260409020546001600160a01b03168015610d265790565b60405162461bcd60e51b815260206004820152602960248201527f4552433732313a206f776e657220717565727920666f72206e6f6e657869737460448201526832b73a103a37b5b2b760b91b6064820152608490fd5b90600182811c92168015610dad575b6020831014610d9757565b634e487b7160e01b600052602260045260246000fd5b91607f1691610d8c565b9060405191826000825492610dcb84610d7d565b908184526001948581169081600014610e3a5750600114610df7575b5050610df5925003836108cc565b565b9093915060005260209081600020936000915b818310610e22575050610df593508201013880610de7565b85548884018501529485019487945091830191610e0a565b915050610df594506020925060ff191682840152151560051b8201013880610de7565b15610e6457565b60405162461bcd60e51b815260206004820152603860248201527f4552433732313a20617070726f76652063616c6c6572206973206e6f74206f7760448201527f6e6572206e6f7220617070726f76656420666f7220616c6c00000000000000006064820152608490fd5b6000818152600260205260409020546001600160a01b031615610f07576000908152600460205260409020546001600160a01b031690565b60405162461bcd60e51b815260206004820152602c60248201527f4552433732313a20617070726f76656420717565727920666f72206e6f6e657860448201526b34b9ba32b73a103a37b5b2b760a11b6064820152608490fd5b15610f6857565b60405162461bcd60e51b815260206004820152603160248201527f4552433732313a207472616e736665722063616c6c6572206973206e6f74206f6044820152701ddb995c881b9bdc88185c1c1c9bdd9959607a1b6064820152608490fd5b60405190610fd4826108a3565b60008252565b91610df59391610b2b93610ff16104e78433611078565b610ffc838383611251565b611582565b60809060208152603260208201527f4552433732313a207472616e7366657220746f206e6f6e20455243373231526560408201527131b2b4bb32b91034b6b83632b6b2b73a32b960711b60608201520190565b1561105b57565b60405162461bcd60e51b81528061107460048201611001565b0390fd5b6000828152600260205260409020546001600160a01b0316156111095761109e82610d05565b6001600160a01b0382811682821681149490919085156110f1575b50505082156110c757505090565b6001600160a01b0316600090815260056020526040902060ff92506110ec919061041f565b541690565b6110fe9192939550610ecf565b1614913880806110b9565b60405162461bcd60e51b815260206004820152602c60248201527f4552433732313a206f70657261746f7220717565727920666f72206e6f6e657860448201526b34b9ba32b73a103a37b5b2b760a11b6064820152608490fd5b1561116a57565b60405162461bcd60e51b815260206004820152601c60248201527f4552433732313a20746f6b656e20616c7265616479206d696e746564000000006044820152606490fd5b50634e487b7160e01b600052601160045260246000fd5b90600182018092116111d457565b610df56111af565b60300190816030116111d457565b156111f157565b60405162461bcd60e51b8152602060048201526024808201527f4552433732313a207472616e7366657220746f20746865207a65726f206164646044820152637265737360e01b6064820152608490fd5b6000198101919082116111d457565b9061125b83610d05565b6001600160a01b038381169290918216839003611315576112aa6112ee928216946112878615156111ea565b61129087611368565b6001600160a01b0316600090815260036020526040902090565b6112b48154611242565b90556001600160a01b03811660009081526003602052604090206112d881546111c6565b9055610ae2856000526002602052604060002090565b7fddf252ad1be2c89b69c2b068fc378daa952ba7f163c4a11628f55a4df523b3ef600080a4565b60405162461bcd60e51b815260206004820152602560248201527f4552433732313a207472616e736665722066726f6d20696e636f72726563742060448201526437bbb732b960d91b6064820152608490fd5b600081815260046020526040812080546001600160a01b03191690556001600160a01b0361139583610d05565b167f8c5be1e5ebec7d5bd14f71427d1e84f3dd0314c0f7b2291e5b200ac8c7c3b9258280a4565b600082815260046020526040902080546001600160a01b0319166001600160a01b0383161790556001600160a01b03806113f584610d05565b169116907f8c5be1e5ebec7d5bd14f71427d1e84f3dd0314c0f7b2291e5b200ac8c7c3b925600080a4565b9081602091031261000e575161025e81610184565b61025e939260809260018060a01b031682526000602083015260408201528160608201520190610228565b6001600160a01b03918216815291166020820152604081019190915260806060820181905261025e92910190610228565b3d156114bc573d906114a2826108ee565b916114b060405193846108cc565b82523d6000602084013e565b606090565b909190803b1561157a576114f3602091600093604051948580948193630a85bd0160e11b998a84523360048501611435565b03926001600160a01b03165af16000918161154a575b5061153c57611516611491565b805190816115375760405162461bcd60e51b81528061107460048201611001565b602001fd5b6001600160e01b0319161490565b61156c91925060203d8111611573575b61156481836108cc565b810190611420565b9038611509565b503d61155a565b505050600190565b92909190823b156115b5576114f3926020926000604051809681958294630a85bd0160e11b9a8b85523360048601611460565b50505050600190565b906115d160209282815194859201610205565b0190565b6000818152600260205260409020546001600160a01b0316156116645761160e611609826000526006602052604060002090565b610db7565b90611617610fc7565b80511561165f57825161162f575061025e91506116c3565b61025e915061165161164b9360405194859360208501906115be565b906115be565b03601f1981018352826108cc565b505090565b60405162461bcd60e51b815260206004820152603160248201527f45524337323155524953746f726167653a2055524920717565727920666f72206044820152703737b732bc34b9ba32b73a103a37b5b2b760791b6064820152608490fd5b6000818152600260205260409020546001600160a01b03161561171f576116e8610fc7565b8051909190156117155761164b9161165161170561025e93611aa2565b60405194859360208501906115be565b505061025e610fc7565b60405162461bcd60e51b815260206004820152602f60248201527f4552433732314d657461646174613a2055524920717565727920666f72206e6f60448201526e3732bc34b9ba32b73a103a37b5b2b760891b6064820152608490fd5b818110611787575050565b6000815560010161177c565b9190601f81116117a257505050565b610df5926000526020600020906020601f840160051c830193106117ce575b601f0160051c019061177c565b90915081906117c1565b6000818152600260205260409020549192916001600160a01b0316156118e05760005260206006815260406000209083519067ffffffffffffffff82116118d3575b61182e826118288554610d7d565b85611793565b80601f831160011461186857508192939460009261185d575b50508160011b916000199060031b1c1916179055565b015190503880611847565b90601f1983169561187e85600052602060002090565b926000905b8882106118bb575050836001959697106118a2575b505050811b019055565b015160001960f88460031b161c19169055388080611898565b80600185968294968601518155019501930190611883565b6118db61088c565b61181a565b60405162461bcd60e51b815260206004820152602e60248201527f45524337323155524953746f726167653a2055524920736574206f66206e6f6e60448201526d32bc34b9ba32b73a103a37b5b2b760911b6064820152608490fd5b61194581610d05565b61194e82611368565b6001600160a01b031660008181526003602052604081208054919392839285926000198201918211611a3c575b5582825260026020526040822080546001600160a01b03191690557fddf252ad1be2c89b69c2b068fc378daa952ba7f163c4a11628f55a4df523b3ef8280a46119d76119d1826000526006602052604060002090565b54610d7d565b6119df575050565b6119f3906000526006602052604060002090565b6119fd8154610d7d565b80611a0757505050565b601f8111600114611a16575055565b81835260208320611a3291601f0160051c81019060010161177c565b8160208120915555565b611a446111af565b61197b565b90611a53826108ee565b611a6060405191826108cc565b8281528092611a71601f19916108ee565b0190602036910137565b908151811015611a8c570160200190565b634e487b7160e01b600052603260045260246000fd5b8015611b3c576000818181805b611b125750611abd81611a49565b935b611ac95750505090565b611ad290611242565b90600a90611afd611aed611ae78484066111dc565b60ff1690565b60f81b6001600160f81b03191690565b841a611b098487611a7b565b53049081611abf565b91506001600a916000198114611b2f575b01910480849291611aaf565b611b376111af565b611b23565b506040516040810181811067ffffffffffffffff821117611b6c575b60405260018152600360fc1b602082015290565b611b7461088c565b611b5856fea2646970667358221220b752359a26e6c0b5c63116ed07dd09511c52cd39d76d914dbdcb3b0b32d0a18c64736f6c63430008110033a26469706673582212208997073f1ed4b6b3f951057b06a4cccd519770f6e3ca0940ca79f153243cc2f864736f6c63430008110033",
    "linkReferences": {}
  },
  "methodIdentifiers": {
    "collectionLockedCounter(address)": "15d4901e",
    "failedMessages(uint16,bytes,uint256)": "8ee74912",
    "forceResumeReceive(uint16,bytes)": "42d65a8d",
    "getConfig(uint16,uint16,address,uint256)": "f5ecbdbc",
    "getTrustedRemoteAddress(uint16)": "9f38369a",
    "isTrustedRemote(uint16,bytes)": "3d8b38f6",
    "lzEndpoint()": "b353aaa7",
    "lzReceive(uint16,bytes,uint64,bytes)": "001d3567",
    "minDstGasLookup(uint16,uint16)": "8cfd8f5c",
    "nonblockingLzReceive(uint16,bytes,uint64,bytes)": "66ad5c8a",
    "originAddresses(address)": "c7fb871e",
    "owner()": "8da5cb5b",
    "paused()": "5c975abb",
    "persistentAddresses(address)": "227fecb0",
    "precrime()": "950c8a74",
    "renounceOwnership()": "715018a6",
    "retryMessage(uint16,bytes,uint64,bytes)": "d1deba1f",
    "setConfig(uint16,uint16,uint256,bytes)": "cbed8b9c",
    "setMinDstGas(uint16,uint16,uint256)": "df2a5b3b",
    "setPrecrime(address)": "baf3292d",
    "setReceiveVersion(uint16)": "10ddb137",
    "setSendVersion(uint16)": "07e0db17",
    "setTrustedRemote(uint16,bytes)": "eb8d72b7",
    "setTrustedRemoteAddress(uint16,bytes)": "a6c3d165",
    "supportsInterface(bytes4)": "01ffc9a7",
    "transferOwnership(address)": "f2fde38b",
    "trustedRemoteLookup(uint16)": "7533d788",
    "withdraw(address,uint256)": "f3fef3a3",
    "wrap(uint16,address,address,uint256,bytes)": "65ed8bfb"
  },
  "id": 0
}