{
  "abi": [
    {
      "inputs": [
        {
          "internalType": "address",
          "name": "_lzEndpoint",
          "type": "address"
        }
      ],
      "stateMutability": "nonpayable",
      "type": "constructor"
    },
    {
      "inputs": [],
      "name": "NoZeroAddress",
      "type": "error"
    },
    {
      "anonymous": false,
      "inputs": [
        {
          "indexed": false,
          "internalType": "address",
          "name": "ercAddress",
          "type": "address"
        },
        {
          "indexed": false,
          "internalType": "address",
          "name": "toAddress",
          "type": "address"
        },
        {
          "indexed": false,
          "internalType": "uint256",
          "name": "tokenId",
          "type": "uint256"
        },
        {
          "indexed": false,
          "internalType": "bytes",
          "name": "payload",
          "type": "bytes"
        },
        {
          "indexed": false,
          "internalType": "address",
          "name": "persistentAddress",
          "type": "address"
        }
      ],
      "name": "LzReceive",
      "type": "event"
    },
    {
      "anonymous": false,
      "inputs": [
        {
          "indexed": false,
          "internalType": "uint16",
          "name": "_srcChainId",
          "type": "uint16"
        },
        {
          "indexed": false,
          "internalType": "bytes",
          "name": "_srcAddress",
          "type": "bytes"
        },
        {
          "indexed": false,
          "internalType": "uint64",
          "name": "_nonce",
          "type": "uint64"
        },
        {
          "indexed": false,
          "internalType": "bytes",
          "name": "_payload",
          "type": "bytes"
        }
      ],
      "name": "MessageFailed",
      "type": "event"
    },
    {
      "anonymous": false,
      "inputs": [
        {
          "indexed": true,
          "internalType": "address",
          "name": "previousOwner",
          "type": "address"
        },
        {
          "indexed": true,
          "internalType": "address",
          "name": "newOwner",
          "type": "address"
        }
      ],
      "name": "OwnershipTransferred",
      "type": "event"
    },
    {
      "anonymous": false,
      "inputs": [
        {
          "indexed": false,
          "internalType": "address",
          "name": "account",
          "type": "address"
        }
      ],
      "name": "Paused",
      "type": "event"
    },
    {
      "anonymous": false,
      "inputs": [
        {
          "indexed": true,
          "internalType": "uint16",
          "name": "_srcChainId",
          "type": "uint16"
        },
        {
          "indexed": true,
          "internalType": "bytes",
          "name": "_srcAddress",
          "type": "bytes"
        },
        {
          "indexed": true,
          "internalType": "address",
          "name": "_toAddress",
          "type": "address"
        },
        {
          "indexed": false,
          "internalType": "uint256",
          "name": "_tokenId",
          "type": "uint256"
        },
        {
          "indexed": false,
          "internalType": "uint64",
          "name": "_nonce",
          "type": "uint64"
        }
      ],
      "name": "ReceiveFromChain",
      "type": "event"
    },
    {
      "anonymous": false,
      "inputs": [
        {
          "indexed": true,
          "internalType": "address",
          "name": "_sender",
          "type": "address"
        },
        {
          "indexed": true,
          "internalType": "uint16",
          "name": "_dstChainId",
          "type": "uint16"
        },
        {
          "indexed": true,
          "internalType": "bytes",
          "name": "_toAddress",
          "type": "bytes"
        },
        {
          "indexed": false,
          "internalType": "uint256",
          "name": "_tokenId",
          "type": "uint256"
        },
        {
          "indexed": false,
          "internalType": "uint64",
          "name": "_nonce",
          "type": "uint64"
        }
      ],
      "name": "SendToChain",
      "type": "event"
    },
    {
      "anonymous": false,
      "inputs": [
        {
          "indexed": false,
          "internalType": "uint16",
          "name": "_dstChainId",
          "type": "uint16"
        },
        {
          "indexed": false,
          "internalType": "uint16",
          "name": "_type",
          "type": "uint16"
        },
        {
          "indexed": false,
          "internalType": "uint256",
          "name": "_minDstGas",
          "type": "uint256"
        }
      ],
      "name": "SetMinDstGas",
      "type": "event"
    },
    {
      "anonymous": false,
      "inputs": [
        {
          "indexed": false,
          "internalType": "address",
          "name": "precrime",
          "type": "address"
        }
      ],
      "name": "SetPrecrime",
      "type": "event"
    },
    {
      "anonymous": false,
      "inputs": [
        {
          "indexed": false,
          "internalType": "uint16",
          "name": "_remoteChainId",
          "type": "uint16"
        },
        {
          "indexed": false,
          "internalType": "bytes",
          "name": "_path",
          "type": "bytes"
        }
      ],
      "name": "SetTrustedRemote",
      "type": "event"
    },
    {
      "anonymous": false,
      "inputs": [
        {
          "indexed": false,
          "internalType": "uint16",
          "name": "_remoteChainId",
          "type": "uint16"
        },
        {
          "indexed": false,
          "internalType": "bytes",
          "name": "_remoteAddress",
          "type": "bytes"
        }
      ],
      "name": "SetTrustedRemoteAddress",
      "type": "event"
    },
    {
      "anonymous": false,
      "inputs": [
        {
          "indexed": false,
          "internalType": "address",
          "name": "account",
          "type": "address"
        }
      ],
      "name": "Unpaused",
      "type": "event"
    },
    {
      "inputs": [
        {
          "internalType": "address",
          "name": "",
          "type": "address"
        }
      ],
      "name": "collectionLockedCounter",
      "outputs": [
        {
          "internalType": "uint256",
          "name": "",
          "type": "uint256"
        }
      ],
      "stateMutability": "view",
      "type": "function"
    },
    {
      "inputs": [
        {
          "internalType": "uint16",
          "name": "",
          "type": "uint16"
        },
        {
          "internalType": "bytes",
          "name": "",
          "type": "bytes"
        },
        {
          "internalType": "uint256",
          "name": "",
          "type": "uint256"
        }
      ],
      "name": "failedMessages",
      "outputs": [
        {
          "internalType": "bytes32",
          "name": "",
          "type": "bytes32"
        }
      ],
      "stateMutability": "view",
      "type": "function"
    },
    {
      "inputs": [
        {
          "internalType": "uint16",
          "name": "_srcChainId",
          "type": "uint16"
        },
        {
          "internalType": "bytes",
          "name": "_srcAddress",
          "type": "bytes"
        }
      ],
      "name": "forceResumeReceive",
      "outputs": [],
      "stateMutability": "nonpayable",
      "type": "function"
    },
    {
      "inputs": [
        {
          "internalType": "uint16",
          "name": "_version",
          "type": "uint16"
        },
        {
          "internalType": "uint16",
          "name": "_chainId",
          "type": "uint16"
        },
        {
          "internalType": "address",
          "name": "",
          "type": "address"
        },
        {
          "internalType": "uint256",
          "name": "_configType",
          "type": "uint256"
        }
      ],
      "name": "getConfig",
      "outputs": [
        {
          "internalType": "bytes",
          "name": "",
          "type": "bytes"
        }
      ],
      "stateMutability": "view",
      "type": "function"
    },
    {
      "inputs": [
        {
          "internalType": "uint16",
          "name": "_remoteChainId",
          "type": "uint16"
        }
      ],
      "name": "getTrustedRemoteAddress",
      "outputs": [
        {
          "internalType": "bytes",
          "name": "",
          "type": "bytes"
        }
      ],
      "stateMutability": "view",
      "type": "function"
    },
    {
      "inputs": [
        {
          "internalType": "uint16",
          "name": "_srcChainId",
          "type": "uint16"
        },
        {
          "internalType": "bytes",
          "name": "_srcAddress",
          "type": "bytes"
        }
      ],
      "name": "isTrustedRemote",
      "outputs": [
        {
          "internalType": "bool",
          "name": "",
          "type": "bool"
        }
      ],
      "stateMutability": "view",
      "type": "function"
    },
    {
      "inputs": [],
      "name": "lzEndpoint",
      "outputs": [
        {
          "internalType": "contract ILayerZeroEndpoint",
          "name": "",
          "type": "address"
        }
      ],
      "stateMutability": "view",
      "type": "function"
    },
    {
      "inputs": [
        {
          "internalType": "uint16",
          "name": "_srcChainId",
          "type": "uint16"
        },
        {
          "internalType": "bytes",
          "name": "_srcAddress",
          "type": "bytes"
        },
        {
          "internalType": "uint64",
          "name": "_nonce",
          "type": "uint64"
        },
        {
          "internalType": "bytes",
          "name": "_payload",
          "type": "bytes"
        }
      ],
      "name": "lzReceive",
      "outputs": [],
      "stateMutability": "nonpayable",
      "type": "function"
    },
    {
      "inputs": [
        {
          "internalType": "uint16",
          "name": "",
          "type": "uint16"
        },
        {
          "internalType": "uint16",
          "name": "",
          "type": "uint16"
        }
      ],
      "name": "minDstGasLookup",
      "outputs": [
        {
          "internalType": "uint256",
          "name": "",
          "type": "uint256"
        }
      ],
      "stateMutability": "view",
      "type": "function"
    },
    {
      "inputs": [
        {
          "internalType": "uint16",
          "name": "_srcChainId",
          "type": "uint16"
        },
        {
          "internalType": "bytes",
          "name": "_srcAddress",
          "type": "bytes"
        },
        {
          "internalType": "uint64",
          "name": "_nonce",
          "type": "uint64"
        },
        {
          "internalType": "bytes",
          "name": "_payload",
          "type": "bytes"
        }
      ],
      "name": "nonblockingLzReceive",
      "outputs": [],
      "stateMutability": "nonpayable",
      "type": "function"
    },
    {
      "inputs": [
        {
          "internalType": "address",
          "name": "",
          "type": "address"
        }
      ],
      "name": "originAddresses",
      "outputs": [
        {
          "internalType": "address",
          "name": "",
          "type": "address"
        }
      ],
      "stateMutability": "view",
      "type": "function"
    },
    {
      "inputs": [],
      "name": "owner",
      "outputs": [
        {
          "internalType": "address",
          "name": "",
          "type": "address"
        }
      ],
      "stateMutability": "view",
      "type": "function"
    },
    {
      "inputs": [],
      "name": "paused",
      "outputs": [
        {
          "internalType": "bool",
          "name": "",
          "type": "bool"
        }
      ],
      "stateMutability": "view",
      "type": "function"
    },
    {
      "inputs": [
        {
          "internalType": "address",
          "name": "",
          "type": "address"
        }
      ],
      "name": "persistentAddresses",
      "outputs": [
        {
          "internalType": "address",
          "name": "",
          "type": "address"
        }
      ],
      "stateMutability": "view",
      "type": "function"
    },
    {
      "inputs": [],
      "name": "precrime",
      "outputs": [
        {
          "internalType": "address",
          "name": "",
          "type": "address"
        }
      ],
      "stateMutability": "view",
      "type": "function"
    },
    {
      "inputs": [],
      "name": "renounceOwnership",
      "outputs": [],
      "stateMutability": "nonpayable",
      "type": "function"
    },
    {
      "inputs": [
        {
          "internalType": "uint16",
          "name": "_srcChainId",
          "type": "uint16"
        },
        {
          "internalType": "bytes",
          "name": "_srcAddress",
          "type": "bytes"
        },
        {
          "internalType": "uint64",
          "name": "_nonce",
          "type": "uint64"
        },
        {
          "internalType": "bytes",
          "name": "_payload",
          "type": "bytes"
        }
      ],
      "name": "retryMessage",
      "outputs": [],
      "stateMutability": "payable",
      "type": "function"
    },
    {
      "inputs": [
        {
          "internalType": "uint16",
          "name": "_version",
          "type": "uint16"
        },
        {
          "internalType": "uint16",
          "name": "_chainId",
          "type": "uint16"
        },
        {
          "internalType": "uint256",
          "name": "_configType",
          "type": "uint256"
        },
        {
          "internalType": "bytes",
          "name": "_config",
          "type": "bytes"
        }
      ],
      "name": "setConfig",
      "outputs": [],
      "stateMutability": "nonpayable",
      "type": "function"
    },
    {
      "inputs": [
        {
          "internalType": "uint16",
          "name": "_dstChainId",
          "type": "uint16"
        },
        {
          "internalType": "uint16",
          "name": "_packetType",
          "type": "uint16"
        },
        {
          "internalType": "uint256",
          "name": "_minGas",
          "type": "uint256"
        }
      ],
      "name": "setMinDstGas",
      "outputs": [],
      "stateMutability": "nonpayable",
      "type": "function"
    },
    {
      "inputs": [
        {
          "internalType": "address",
          "name": "_precrime",
          "type": "address"
        }
      ],
      "name": "setPrecrime",
      "outputs": [],
      "stateMutability": "nonpayable",
      "type": "function"
    },
    {
      "inputs": [
        {
          "internalType": "uint16",
          "name": "_version",
          "type": "uint16"
        }
      ],
      "name": "setReceiveVersion",
      "outputs": [],
      "stateMutability": "nonpayable",
      "type": "function"
    },
    {
      "inputs": [
        {
          "internalType": "uint16",
          "name": "_version",
          "type": "uint16"
        }
      ],
      "name": "setSendVersion",
      "outputs": [],
      "stateMutability": "nonpayable",
      "type": "function"
    },
    {
      "inputs": [
        {
          "internalType": "uint16",
          "name": "_srcChainId",
          "type": "uint16"
        },
        {
          "internalType": "bytes",
          "name": "_path",
          "type": "bytes"
        }
      ],
      "name": "setTrustedRemote",
      "outputs": [],
      "stateMutability": "nonpayable",
      "type": "function"
    },
    {
      "inputs": [
        {
          "internalType": "uint16",
          "name": "_remoteChainId",
          "type": "uint16"
        },
        {
          "internalType": "bytes",
          "name": "_remoteAddress",
          "type": "bytes"
        }
      ],
      "name": "setTrustedRemoteAddress",
      "outputs": [],
      "stateMutability": "nonpayable",
      "type": "function"
    },
    {
      "inputs": [
        {
          "internalType": "bytes4",
          "name": "interfaceId",
          "type": "bytes4"
        }
      ],
      "name": "supportsInterface",
      "outputs": [
        {
          "internalType": "bool",
          "name": "",
          "type": "bool"
        }
      ],
      "stateMutability": "view",
      "type": "function"
    },
    {
      "inputs": [
        {
          "internalType": "address",
          "name": "newOwner",
          "type": "address"
        }
      ],
      "name": "transferOwnership",
      "outputs": [],
      "stateMutability": "nonpayable",
      "type": "function"
    },
    {
      "inputs": [
        {
          "internalType": "uint16",
          "name": "",
          "type": "uint16"
        }
      ],
      "name": "trustedRemoteLookup",
      "outputs": [
        {
          "internalType": "bytes",
          "name": "",
          "type": "bytes"
        }
      ],
      "stateMutability": "view",
      "type": "function"
    },
    {
      "inputs": [
        {
          "internalType": "address",
          "name": "_persistentAddress",
          "type": "address"
        },
        {
          "internalType": "uint256",
          "name": "_tokenId",
          "type": "uint256"
        }
      ],
      "name": "withdraw",
      "outputs": [],
      "stateMutability": "nonpayable",
      "type": "function"
    },
    {
      "inputs": [
        {
          "internalType": "uint16",
          "name": "_dstChainId",
          "type": "uint16"
        },
        {
          "internalType": "address",
          "name": "_toAddress",
          "type": "address"
        },
        {
          "internalType": "address",
          "name": "_erc721Address",
          "type": "address"
        },
        {
          "internalType": "uint256",
          "name": "_tokenId",
          "type": "uint256"
        },
        {
          "internalType": "bytes",
          "name": "_adapterParams",
          "type": "bytes"
        }
      ],
      "name": "wrap",
      "outputs": [],
      "stateMutability": "payable",
      "type": "function"
    }
  ],
  "bytecode": {
    "object": "0x60a06040523480156200001157600080fd5b5060405162004f0d38038062004f0d8339810160408190526200003491620000af565b808062000041336200005f565b6001600160a01b031660805250506005805460ff19169055620000e1565b600080546001600160a01b038381166001600160a01b0319831681178455604051919092169283917f8be0079c531659141344cd1fd0a4f28419497f9722a3daafe3b4186f6b6457e09190a35050565b600060208284031215620000c257600080fd5b81516001600160a01b0381168114620000da57600080fd5b9392505050565b608051614dd86200013560003960008181610554015281816106cd0152818161092f015281816109bc01528181610aec01528181610f79015281816113ba015281816118c30152611bc50152614dd86000f3fe608060405260043610620001e65760003560e01c80638da5cb5b116200010b578063c7fb871e11620000a1578063eb8d72b7116200006c578063eb8d72b71462000636578063f2fde38b146200065b578063f3fef3a31462000680578063f5ecbdbc14620006a557600080fd5b8063c7fb871e146200059b578063cbed8b9c14620005d5578063d1deba1f14620005fa578063df2a5b3b146200061157600080fd5b80639f38369a11620000e25780639f38369a14620004f6578063a6c3d165146200051b578063b353aaa71462000540578063baf3292d146200057657600080fd5b80638da5cb5b14620004615780638ee749121462000481578063950c8a7414620004d457600080fd5b806342d65a8d116200018157806366ad5c8a116200015857806366ad5c8a14620003b4578063715018a614620003d95780637533d78814620003f15780638cfd8f5c146200042557600080fd5b806342d65a8d146200035e5780635c975abb146200038357806365ed8bfb146200039d57600080fd5b806310ddb13711620001c257806310ddb137146200028157806315d4901e14620002a6578063227fecb014620002e65780633d8b38f6146200033957600080fd5b80621d356714620001eb57806301ffc9a7146200021257806307e0db17146200025c575b600080fd5b348015620001f857600080fd5b50620002106200020a36600462002227565b620006ca565b005b3480156200021f57600080fd5b506200024762000231366004620022c5565b6001600160e01b0319166312c26f0b60e31b1490565b60405190151581526020015b60405180910390f35b3480156200026957600080fd5b50620002106200027b366004620022f1565b6200090c565b3480156200028e57600080fd5b5062000210620002a0366004620022f1565b62000999565b348015620002b357600080fd5b50620002d7620002c536600462002325565b60086020526000908152604090205481565b60405190815260200162000253565b348015620002f357600080fd5b50620003206200030536600462002325565b6006602052600090815260409020546001600160a01b031681565b6040516001600160a01b03909116815260200162000253565b3480156200034657600080fd5b50620002476200035836600462002345565b620009f4565b3480156200036b57600080fd5b50620002106200037d36600462002345565b62000acb565b3480156200039057600080fd5b5060055460ff1662000247565b62000210620003ae3660046200246c565b62000b57565b348015620003c157600080fd5b5062000210620003d3366004620024f2565b6200106e565b348015620003e657600080fd5b5062000210620010d3565b348015620003fe57600080fd5b506200041662000410366004620022f1565b620010eb565b604051620002539190620025d5565b3480156200043257600080fd5b50620002d762000444366004620025ea565b600260209081526000928352604080842090915290825290205481565b3480156200046e57600080fd5b506000546001600160a01b031662000320565b3480156200048e57600080fd5b50620002d7620004a036600462002622565b6004602090815260009384526040808520845180860184018051928152908401958401959095209452929052825290205481565b348015620004e157600080fd5b5060035462000320906001600160a01b031681565b3480156200050357600080fd5b506200041662000515366004620022f1565b6200118d565b3480156200052857600080fd5b50620002106200053a36600462002345565b620012aa565b3480156200054d57600080fd5b50620003207f000000000000000000000000000000000000000000000000000000000000000081565b3480156200058357600080fd5b50620002106200059536600462002325565b6200133b565b348015620005a857600080fd5b5062000320620005ba36600462002325565b6007602052600090815260409020546001600160a01b031681565b348015620005e257600080fd5b5062000210620005f43660046200267e565b62001399565b620002106200060b366004620026f4565b62001434565b3480156200061e57600080fd5b50620002106200063036600462002779565b620015e8565b3480156200064357600080fd5b50620002106200065536600462002345565b6200169f565b3480156200066857600080fd5b50620002106200067a36600462002325565b620016ff565b3480156200068d57600080fd5b50620002106200069f366004620027ba565b6200177e565b348015620006b257600080fd5b5062000416620006c4366004620027e9565b62001892565b337f00000000000000000000000000000000000000000000000000000000000000006001600160a01b031614620007485760405162461bcd60e51b815260206004820152601e60248201527f4c7a4170703a20696e76616c696420656e64706f696e742063616c6c6572000060448201526064015b60405180910390fd5b61ffff86166000908152600160205260408120805462000768906200283d565b80601f016020809104026020016040519081016040528092919081815260200182805462000796906200283d565b8015620007e75780601f10620007bb57610100808354040283529160200191620007e7565b820191906000526020600020905b815481529060010190602001808311620007c957829003601f168201915b5050505050905080518686905014801562000803575060008151115b80156200082e57508051602082012060405162000824908890889062002879565b6040518091039020145b6200088b5760405162461bcd60e51b815260206004820152602660248201527f4c7a4170703a20696e76616c696420736f757263652073656e64696e6720636f6044820152651b9d1c9858dd60d21b60648201526084016200073f565b620009038787878080601f01602080910402602001604051908101604052809392919081815260200183838082843760009201919091525050604080516020601f8a018190048102820181019092528881528a9350915088908890819084018382808284376000920191909152506200194692505050565b50505050505050565b6200091662001a41565b6040516307e0db1760e01b815261ffff821660048201527f00000000000000000000000000000000000000000000000000000000000000006001600160a01b0316906307e0db17906024015b600060405180830381600087803b1580156200097d57600080fd5b505af115801562000992573d6000803e3d6000fd5b5050505050565b620009a362001a41565b6040516310ddb13760e01b815261ffff821660048201527f00000000000000000000000000000000000000000000000000000000000000006001600160a01b0316906310ddb1379060240162000962565b61ffff83166000908152600160205260408120805482919062000a17906200283d565b80601f016020809104026020016040519081016040528092919081815260200182805462000a45906200283d565b801562000a965780601f1062000a6a5761010080835404028352916020019162000a96565b820191906000526020600020905b81548152906001019060200180831162000a7857829003601f168201915b50505050509050838360405162000aaf92919062002879565b60405180910390208180519060200120149150505b9392505050565b62000ad562001a41565b6040516342d65a8d60e01b81526001600160a01b037f000000000000000000000000000000000000000000000000000000000000000016906342d65a8d9062000b2790869086908690600401620028b2565b600060405180830381600087803b15801562000b4257600080fd5b505af115801562000903573d6000803e3d6000fd5b6001600160a01b03831662000b7f5760405163ddbadd5f60e01b815260040160405180910390fd5b6001600160a01b03838116600090815260076020526040812054606092839283929091161562000d6c57506001600160a01b038087166000818152600760205260408082205481516306fdde0360e01b815291519416936306fdde03926004808401939192918290030181865afa15801562000bff573d6000803e3d6000fd5b505050506040513d6000823e601f3d908101601f1916820160405262000c2991908101906200292b565b9350866001600160a01b03166395d89b416040518163ffffffff1660e01b8152600401600060405180830381865afa15801562000c6a573d6000803e3d6000fd5b505050506040513d6000823e601f3d908101601f1916820160405262000c9491908101906200292b565b60405163c87b56dd60e01b8152600481018890529093506001600160a01b0388169063c87b56dd90602401600060405180830381865afa15801562000cdd573d6000803e3d6000fd5b505050506040513d6000823e601f3d908101601f1916820160405262000d0791908101906200292b565b604051630852cd8d60e31b8152600481018890529092506001600160a01b038816906342966c6890602401600060405180830381600087803b15801562000d4d57600080fd5b505af115801562000d62573d6000803e3d6000fd5b5050505062000f30565b50856001600160a01b0381166323b872dd336040516001600160e01b031960e084901b1681526001600160a01b03909116600482015230602482015260448101899052606401600060405180830381600087803b15801562000dcd57600080fd5b505af115801562000de2573d6000803e3d6000fd5b50505050866001600160a01b03166306fdde036040518163ffffffff1660e01b8152600401600060405180830381865afa15801562000e25573d6000803e3d6000fd5b505050506040513d6000823e601f3d908101601f1916820160405262000e4f91908101906200292b565b9350866001600160a01b03166395d89b416040518163ffffffff1660e01b8152600401600060405180830381865afa15801562000e90573d6000803e3d6000fd5b505050506040513d6000823e601f3d908101601f1916820160405262000eba91908101906200292b565b60405163c87b56dd60e01b8152600481018890529093506001600160a01b0388169063c87b56dd90602401600060405180830381865afa15801562000f03573d6000803e3d6000fd5b505050506040513d6000823e601f3d908101601f1916820160405262000f2d91908101906200292b565b91505b600081898686868b60405160200162000f4f969594939291906200296b565b60408051601f198184030181529082905263040a7bb160e41b825291506000906001600160a01b037f000000000000000000000000000000000000000000000000000000000000000016906340a7bb109062000fb8908e903090879087908e90600401620029d7565b6040805180830381865afa15801562000fd5573d6000803e3d6000fd5b505050506040513d601f19601f8201168201806040525081019062000ffb919062002a2f565b50905080341015620010505760405162461bcd60e51b815260206004820152601760248201527f496e73756666696369656e742066656520616d6f756e7400000000000000000060448201526064016200073f565b620010618b833360008b3462001a9d565b5050505050505050505050565b333014620010bf5760405162461bcd60e51b815260206004820181905260248201527f4c7a52656365697665723a2063616c6c6572206d757374206265204c7a41707060448201526064016200073f565b620010cd8484848462001c45565b50505050565b620010dd62001a41565b620010e9600062001f0b565b565b6001602052600090815260409020805462001106906200283d565b80601f016020809104026020016040519081016040528092919081815260200182805462001134906200283d565b8015620011855780601f10620011595761010080835404028352916020019162001185565b820191906000526020600020905b8154815290600101906020018083116200116757829003601f168201915b505050505081565b61ffff8116600090815260016020526040812080546060929190620011b2906200283d565b80601f0160208091040260200160405190810160405280929190818152602001828054620011e0906200283d565b8015620012315780601f10620012055761010080835404028352916020019162001231565b820191906000526020600020905b8154815290600101906020018083116200121357829003601f168201915b5050505050905080516000036200128b5760405162461bcd60e51b815260206004820152601d60248201527f4c7a4170703a206e6f20747275737465642070617468207265636f726400000060448201526064016200073f565b62000ac4600060148351620012a1919062002a6a565b83919062001f5b565b620012b462001a41565b818130604051602001620012cb9392919062002a86565b60408051601f1981840301815291815261ffff8516600090815260016020522090620012f8908262002afb565b507f8c0400cfe2d1199b1a725c78960bcc2a344d869b80590d0f2bd005db15a572ce8383836040516200132e93929190620028b2565b60405180910390a1505050565b6200134562001a41565b600380546001600160a01b0319166001600160a01b0383169081179091556040519081527f5db758e995a17ec1ad84bdef7e8c3293a0bd6179bcce400dff5d4c3d87db726b9060200160405180910390a150565b620013a362001a41565b6040516332fb62e760e21b81526001600160a01b037f0000000000000000000000000000000000000000000000000000000000000000169063cbed8b9c90620013f9908890889088908890889060040162002bc7565b600060405180830381600087803b1580156200141457600080fd5b505af115801562001429573d6000803e3d6000fd5b505050505050505050565b61ffff851660009081526004602052604080822090516200145790879062002c02565b90815260408051602092819003830190206001600160401b03871660009081529252902054905080620014cd5760405162461bcd60e51b815260206004820152601d60248201527f4c7a52656365697665723a206e6f2073746f726564206d65737361676500000060448201526064016200073f565b808383604051620014e092919062002879565b604051809103902014620015375760405162461bcd60e51b815260206004820152601b60248201527f4c7a52656365697665723a20696e76616c6964207061796c6f6164000000000060448201526064016200073f565b61ffff861660009081526004602052604080822090516200155a90889062002c02565b9081526040805191829003602090810183206001600160401b038916600090815291522091909155633356ae4560e11b815230906366ad5c8a90620015ac908990899089908990899060040162002c20565b600060405180830381600087803b158015620015c757600080fd5b505af1158015620015dc573d6000803e3d6000fd5b50505050505050505050565b620015f262001a41565b600081116200163c5760405162461bcd60e51b81526020600482015260156024820152744c7a4170703a20696e76616c6964206d696e47617360581b60448201526064016200073f565b61ffff83811660008181526002602090815260408083209487168084529482529182902085905581519283528201929092529081018290527f9d5c7c0b934da8fefa9c7760c98383778a12dfbfc0c3b3106518f43fb9508ac0906060016200132e565b620016a962001a41565b61ffff83166000908152600160205260409020620016c982848362002c63565b507ffa41487ad5d6728f0b19276fa1eddc16558578f5109fc39d2dc33c3230470dab8383836040516200132e93929190620028b2565b6200170962001a41565b6001600160a01b038116620017705760405162461bcd60e51b815260206004820152602660248201527f4f776e61626c653a206e6577206f776e657220697320746865207a65726f206160448201526564647265737360d01b60648201526084016200073f565b6200177b8162001f0b565b50565b6001600160a01b0382811660009081526007602052604090205416620017b75760405163ddbadd5f60e01b815260040160405180910390fd5b604051630852cd8d60e31b8152600481018290526001600160a01b038316906342966c6890602401600060405180830381600087803b158015620017fa57600080fd5b505af11580156200180f573d6000803e3d6000fd5b505050506001600160a01b03828116600090815260076020526040908190205490516323b872dd60e01b8152306004820152336024820152604481018490529116906323b872dd90606401600060405180830381600087803b1580156200187557600080fd5b505af11580156200188a573d6000803e3d6000fd5b505050505050565b604051633d7b2f6f60e21b815261ffff808616600483015284166024820152306044820152606481018290526060907f00000000000000000000000000000000000000000000000000000000000000006001600160a01b03169063f5ecbdbc90608401600060405180830381865afa15801562001913573d6000803e3d6000fd5b505050506040513d6000823e601f3d908101601f191682016040526200193d919081019062002d2f565b95945050505050565b604051633356ae4560e11b815230906366ad5c8a906200197190879087908790879060040162002d7c565b600060405180830381600087803b1580156200198c57600080fd5b505af19250505080156200199e575060015b620010cd578080519060200120600460008661ffff1661ffff16815260200190815260200160002084604051620019d6919062002c02565b9081526040805191829003602090810183206001600160401b0387166000908152915220919091557fe6f254030bcb01ffd20558175c13fcaed6d1520be7becee4c961b65f79243b0d9062001a3390869086908690869062002d7c565b60405180910390a1620010cd565b6000546001600160a01b03163314620010e95760405162461bcd60e51b815260206004820181905260248201527f4f776e61626c653a2063616c6c6572206973206e6f7420746865206f776e657260448201526064016200073f565b61ffff86166000908152600160205260408120805462001abd906200283d565b80601f016020809104026020016040519081016040528092919081815260200182805462001aeb906200283d565b801562001b3c5780601f1062001b105761010080835404028352916020019162001b3c565b820191906000526020600020905b81548152906001019060200180831162001b1e57829003601f168201915b50505050509050805160000362001baf5760405162461bcd60e51b815260206004820152603060248201527f4c7a4170703a2064657374696e6174696f6e20636861696e206973206e6f742060448201526f61207472757374656420736f7572636560801b60648201526084016200073f565b60405162c5803160e81b81526001600160a01b037f0000000000000000000000000000000000000000000000000000000000000000169063c580310090849062001c08908b9086908c908c908c908c9060040162002dbe565b6000604051808303818588803b15801562001c2257600080fd5b505af115801562001c37573d6000803e3d6000fd5b505050505050505050505050565b6000806000806000808680602001905181019062001c64919062002e2b565b6001600160a01b03808716600090815260066020526040812054979d50959b509399509197509550935090911662001de6578462001ca28162002074565b62001ccc578560405160200162001cba919062002ef0565b60405160208183030381529060405290505b600081863060405162001cdf906200219e565b62001ced9392919062002f1c565b604051809103906000f08015801562001d0a573d6000803e3d6000fd5b50604051633349e71f60e21b81529091506001600160a01b0382169063cd279c7c9062001d40908b9088908a9060040162002f5e565b600060405180830381600087803b15801562001d5b57600080fd5b505af115801562001d70573d6000803e3d6000fd5b5050506001600160a01b03808b16600081815260066020908152604080832080549588166001600160a01b0319968716811790915583526007825280832080549095169093179093556008909252812080546001935090919062001dd690849062002f87565b9091555090925062001ebd915050565b6001600160a01b0380881660009081526006602052604090819020549051633349e71f60e21b815291169063cd279c7c9062001e2b9089908690889060040162002f5e565b600060405180830381600087803b15801562001e4657600080fd5b505af115801562001e5b573d6000803e3d6000fd5b505050506001600160a01b0387811660009081526006602090815260408083205490931682526008905290812080546001929062001e9b90849062002f87565b9091555050506001600160a01b03808716600090815260066020526040902054165b7f227df926aae3e96d57f2da8cdc461944f079e5992190abf470acc8ad5c8571d98787848b8560405162001ef695949392919062002f9d565b60405180910390a15050505050505050505050565b600080546001600160a01b038381166001600160a01b0319831681178455604051919092169283917f8be0079c531659141344cd1fd0a4f28419497f9722a3daafe3b4186f6b6457e09190a35050565b60608162001f6b81601f62002f87565b101562001fac5760405162461bcd60e51b815260206004820152600e60248201526d736c6963655f6f766572666c6f7760901b60448201526064016200073f565b62001fb8828462002f87565b8451101562001ffe5760405162461bcd60e51b8152602060048201526011602482015270736c6963655f6f75744f66426f756e647360781b60448201526064016200073f565b6060821580156200201f57604051915060008252602082016040526200206b565b6040519150601f8416801560200281840101858101878315602002848b0101015b818310156200205a57805183526020928301920162002040565b5050858452601f01601f1916604052505b50949350505050565b600060028251116200208857506000919050565b60408051600280825281830190925260009160208201818036833701905050905082600081518110620020bf57620020bf62002fe4565b602001015160f81c60f81b81600081518110620020e057620020e062002fe4565b60200101906001600160f81b031916908160001a905350826001815181106200210d576200210d62002fe4565b602001015160f81c60f81b816001815181106200212e576200212e62002fe4565b60200101906001600160f81b031916908160001a905350604051614f7760f01b602082015260220160405160208183030381529060405280519060200120816040516020016200217f919062002c02565b6040516020818303038152906040528051906020012014915050919050565b611da88062002ffb83390190565b803561ffff81168114620021bf57600080fd5b919050565b60008083601f840112620021d757600080fd5b5081356001600160401b03811115620021ef57600080fd5b6020830191508360208285010111156200220857600080fd5b9250929050565b80356001600160401b0381168114620021bf57600080fd5b600080600080600080608087890312156200224157600080fd5b6200224c87620021ac565b955060208701356001600160401b03808211156200226957600080fd5b620022778a838b01620021c4565b90975095508591506200228d60408a016200220f565b94506060890135915080821115620022a457600080fd5b50620022b389828a01620021c4565b979a9699509497509295939492505050565b600060208284031215620022d857600080fd5b81356001600160e01b03198116811462000ac457600080fd5b6000602082840312156200230457600080fd5b62000ac482620021ac565b6001600160a01b03811681146200177b57600080fd5b6000602082840312156200233857600080fd5b813562000ac4816200230f565b6000806000604084860312156200235b57600080fd5b6200236684620021ac565b925060208401356001600160401b038111156200238257600080fd5b6200239086828701620021c4565b9497909650939450505050565b634e487b7160e01b600052604160045260246000fd5b604051601f8201601f191681016001600160401b0381118282101715620023de57620023de6200239d565b604052919050565b60006001600160401b038211156200240257620024026200239d565b50601f01601f191660200190565b600082601f8301126200242257600080fd5b8135620024396200243382620023e6565b620023b3565b8181528460208386010111156200244f57600080fd5b816020850160208301376000918101602001919091529392505050565b600080600080600060a086880312156200248557600080fd5b6200249086620021ac565b94506020860135620024a2816200230f565b93506040860135620024b4816200230f565b92506060860135915060808601356001600160401b03811115620024d757600080fd5b620024e58882890162002410565b9150509295509295909350565b600080600080608085870312156200250957600080fd5b6200251485620021ac565b935060208501356001600160401b03808211156200253157600080fd5b6200253f8883890162002410565b94506200254f604088016200220f565b935060608701359150808211156200256657600080fd5b50620025758782880162002410565b91505092959194509250565b60005b838110156200259e57818101518382015260200162002584565b50506000910152565b60008151808452620025c181602086016020860162002581565b601f01601f19169290920160200192915050565b60208152600062000ac46020830184620025a7565b60008060408385031215620025fe57600080fd5b6200260983620021ac565b91506200261960208401620021ac565b90509250929050565b6000806000606084860312156200263857600080fd5b6200264384620021ac565b925060208401356001600160401b038111156200265f57600080fd5b6200266d8682870162002410565b925050604084013590509250925092565b6000806000806000608086880312156200269757600080fd5b620026a286620021ac565b9450620026b260208701620021ac565b93506040860135925060608601356001600160401b03811115620026d557600080fd5b620026e388828901620021c4565b969995985093965092949392505050565b6000806000806000608086880312156200270d57600080fd5b6200271886620021ac565b945060208601356001600160401b03808211156200273557600080fd5b6200274389838a0162002410565b955062002753604089016200220f565b945060608801359150808211156200276a57600080fd5b50620026e388828901620021c4565b6000806000606084860312156200278f57600080fd5b6200279a84620021ac565b9250620027aa60208501620021ac565b9150604084013590509250925092565b60008060408385031215620027ce57600080fd5b8235620027db816200230f565b946020939093013593505050565b600080600080608085870312156200280057600080fd5b6200280b85620021ac565b93506200281b60208601620021ac565b925060408501356200282d816200230f565b9396929550929360600135925050565b600181811c908216806200285257607f821691505b6020821081036200287357634e487b7160e01b600052602260045260246000fd5b50919050565b8183823760009101908152919050565b81835281816020850137506000828201602090810191909152601f909101601f19169091010190565b61ffff841681526040602082015260006200193d60408301848662002889565b6000620028e36200243384620023e6565b9050828152838383011115620028f857600080fd5b62000ac483602083018462002581565b600082601f8301126200291a57600080fd5b62000ac483835160208501620028d2565b6000602082840312156200293e57600080fd5b81516001600160401b038111156200295557600080fd5b620029638482850162002908565b949350505050565b6001600160a01b0387811682528616602082015260c0604082018190526000906200299990830187620025a7565b8281036060840152620029ad8187620025a7565b90508281036080840152620029c38186620025a7565b9150508260a0830152979650505050505050565b61ffff861681526001600160a01b038516602082015260a06040820181905260009062002a0790830186620025a7565b8415156060840152828103608084015262002a238185620025a7565b98975050505050505050565b6000806040838503121562002a4357600080fd5b505080516020909101519092909150565b634e487b7160e01b600052601160045260246000fd5b8181038181111562002a805762002a8062002a54565b92915050565b8284823760609190911b6bffffffffffffffffffffffff19169101908152601401919050565b601f82111562002af657600081815260208120601f850160051c8101602086101562002ad55750805b601f850160051c820191505b818110156200188a5782815560010162002ae1565b505050565b81516001600160401b0381111562002b175762002b176200239d565b62002b2f8162002b2884546200283d565b8462002aac565b602080601f83116001811462002b67576000841562002b4e5750858301515b600019600386901b1c1916600185901b1785556200188a565b600085815260208120601f198616915b8281101562002b985788860151825594840194600190910190840162002b77565b508582101562002bb75787850151600019600388901b60f8161c191681555b5050505050600190811b01905550565b600061ffff80881683528087166020840152508460408301526080606083015262002bf760808301848662002889565b979650505050505050565b6000825162002c1681846020870162002581565b9190910192915050565b61ffff8616815260806020820152600062002c3f6080830187620025a7565b6001600160401b0386166040840152828103606084015262002a2381858762002889565b6001600160401b0383111562002c7d5762002c7d6200239d565b62002c958362002c8e83546200283d565b8362002aac565b6000601f84116001811462002ccc576000851562002cb35750838201355b600019600387901b1c1916600186901b17835562000992565b600083815260209020601f19861690835b8281101562002cff578685013582556020948501946001909201910162002cdd565b508682101562002d1d5760001960f88860031b161c19848701351681555b505060018560011b0183555050505050565b60006020828403121562002d4257600080fd5b81516001600160401b0381111562002d5957600080fd5b8201601f8101841362002d6b57600080fd5b6200296384825160208401620028d2565b61ffff8516815260806020820152600062002d9b6080830186620025a7565b6001600160401b0385166040840152828103606084015262002bf78185620025a7565b61ffff8716815260c06020820152600062002ddd60c0830188620025a7565b828103604084015262002df18188620025a7565b6001600160a01b0387811660608601528616608085015283810360a0850152905062002e1e8185620025a7565b9998505050505050505050565b60008060008060008060c0878903121562002e4557600080fd5b865162002e52816200230f565b602088015190965062002e65816200230f565b60408801519095506001600160401b038082111562002e8357600080fd5b62002e918a838b0162002908565b9550606089015191508082111562002ea857600080fd5b62002eb68a838b0162002908565b9450608089015191508082111562002ecd57600080fd5b5062002edc89828a0162002908565b92505060a087015190509295509295509295565b614f7760f01b81526000825162002f0f81600285016020870162002581565b9190910160020192915050565b60608152600062002f316060830186620025a7565b828103602084015262002f458186620025a7565b91505060018060a01b0383166040830152949350505050565b60018060a01b03841681528260208201526060604082015260006200193d6060830184620025a7565b8082018082111562002a805762002a8062002a54565b600060018060a01b038088168352808716602084015285604084015260a0606084015262002fcf60a0840186620025a7565b91508084166080840152509695505050505050565b634e487b7160e01b600052603260045260246000fdfe60806040523480156200001157600080fd5b5060405162001da838038062001da883398101604081905262000034916200020f565b828260006200004483826200032b565b5060016200005382826200032b565b505050620000706200006a620000f460201b60201c565b620000f8565b6001600160a01b038116620000cb5760405162461bcd60e51b815260206004820152601560248201527f43616e2774206265207a65726f20616464726573730000000000000000000000604482015260640160405180910390fd5b600880546001600160a01b0319166001600160a01b039290921691909117905550620003f79050565b3390565b600780546001600160a01b038381166001600160a01b0319831681179093556040519116919082907f8be0079c531659141344cd1fd0a4f28419497f9722a3daafe3b4186f6b6457e090600090a35050565b634e487b7160e01b600052604160045260246000fd5b600082601f8301126200017257600080fd5b81516001600160401b03808211156200018f576200018f6200014a565b604051601f8301601f19908116603f01168101908282118183101715620001ba57620001ba6200014a565b81604052838152602092508683858801011115620001d757600080fd5b600091505b83821015620001fb5785820183015181830184015290820190620001dc565b600093810190920192909252949350505050565b6000806000606084860312156200022557600080fd5b83516001600160401b03808211156200023d57600080fd5b6200024b8783880162000160565b945060208601519150808211156200026257600080fd5b50620002718682870162000160565b604086015190935090506001600160a01b03811681146200029157600080fd5b809150509250925092565b600181811c90821680620002b157607f821691505b602082108103620002d257634e487b7160e01b600052602260045260246000fd5b50919050565b601f8211156200032657600081815260208120601f850160051c81016020861015620003015750805b601f850160051c820191505b8181101562000322578281556001016200030d565b5050505b505050565b81516001600160401b038111156200034757620003476200014a565b6200035f816200035884546200029c565b84620002d8565b602080601f8311600181146200039757600084156200037e5750858301515b600019600386901b1c1916600185901b17855562000322565b600085815260208120601f198616915b82811015620003c857888601518255948401946001909101908401620003a7565b5085821015620003e75787850151600019600388901b60f8161c191681555b5050505050600190811b01905550565b6119a180620004076000396000f3fe608060405234801561001057600080fd5b50600436106101165760003560e01c8063715018a6116100a2578063b88d4fde11610071578063b88d4fde14610239578063c87b56dd1461024c578063cd279c7c1461025f578063e985e9c514610272578063f2fde38b146102ae57600080fd5b8063715018a6146102055780638da5cb5b1461020d57806395d89b411461021e578063a22cb4651461022657600080fd5b806323b872dd116100e957806323b872dd1461019857806342842e0e146101ab57806342966c68146101be5780636352211e146101d157806370a08231146101e457600080fd5b806301ffc9a71461011b57806306fdde0314610143578063081812fc14610158578063095ea7b314610183575b600080fd5b61012e61012936600461139e565b6102c1565b60405190151581526020015b60405180910390f35b61014b610313565b60405161013a919061140b565b61016b61016636600461141e565b6103a5565b6040516001600160a01b03909116815260200161013a565b610196610191366004611453565b6103cc565b005b6101966101a636600461147d565b6104e6565b6101966101b936600461147d565b610518565b6101966101cc36600461141e565b610533565b61016b6101df36600461141e565b6105bf565b6101f76101f23660046114b9565b61061f565b60405190815260200161013a565b6101966106a5565b6007546001600160a01b031661016b565b61014b6106b9565b6101966102343660046114d4565b6106c8565b61019661024736600461159c565b6106d7565b61014b61025a36600461141e565b61070f565b61019661026d366004611618565b61071a565b61012e610280366004611683565b6001600160a01b03918216600090815260056020908152604080832093909416825291909152205460ff1690565b6101966102bc3660046114b9565b610736565b60006001600160e01b031982166380ac58cd60e01b14806102f257506001600160e01b03198216635b5e139f60e01b145b8061030d57506301ffc9a760e01b6001600160e01b03198316145b92915050565b606060008054610322906116b6565b80601f016020809104026020016040519081016040528092919081815260200182805461034e906116b6565b801561039b5780601f106103705761010080835404028352916020019161039b565b820191906000526020600020905b81548152906001019060200180831161037e57829003601f168201915b5050505050905090565b60006103b0826107ac565b506000908152600460205260409020546001600160a01b031690565b60006103d7826105bf565b9050806001600160a01b0316836001600160a01b0316036104495760405162461bcd60e51b815260206004820152602160248201527f4552433732313a20617070726f76616c20746f2063757272656e74206f776e656044820152603960f91b60648201526084015b60405180910390fd5b336001600160a01b038216148061046557506104658133610280565b6104d75760405162461bcd60e51b815260206004820152603d60248201527f4552433732313a20617070726f76652063616c6c6572206973206e6f7420746f60448201527f6b656e206f776e6572206f7220617070726f76656420666f7220616c6c0000006064820152608401610440565b6104e1838361080b565b505050565b6104f1335b82610879565b61050d5760405162461bcd60e51b8152600401610440906116f0565b6104e18383836108f8565b6104e1838383604051806020016040528060008152506106d7565b61053c336104eb565b61056c5760405162461bcd60e51b81526020600482015260016024820152603160f81b6044820152606401610440565b6008546001600160a01b0316336001600160a01b0316146105b35760405162461bcd60e51b81526020600482015260016024820152601960f91b6044820152606401610440565b6105bc81610a5c565b50565b6000818152600260205260408120546001600160a01b03168061030d5760405162461bcd60e51b8152602060048201526018602482015277115490cdcc8c4e881a5b9d985b1a59081d1bdad95b88125160421b6044820152606401610440565b60006001600160a01b0382166106895760405162461bcd60e51b815260206004820152602960248201527f4552433732313a2061646472657373207a65726f206973206e6f7420612076616044820152683634b21037bbb732b960b91b6064820152608401610440565b506001600160a01b031660009081526003602052604090205490565b6106ad610a65565b6106b76000610abf565b565b606060018054610322906116b6565b6106d3338383610b11565b5050565b6106e13383610879565b6106fd5760405162461bcd60e51b8152600401610440906116f0565b61070984848484610bdf565b50505050565b606061030d82610c12565b610722610a65565b61072c8383610d1a565b6104e18282610d34565b61073e610a65565b6001600160a01b0381166107a35760405162461bcd60e51b815260206004820152602660248201527f4f776e61626c653a206e6577206f776e657220697320746865207a65726f206160448201526564647265737360d01b6064820152608401610440565b6105bc81610abf565b6000818152600260205260409020546001600160a01b03166105bc5760405162461bcd60e51b8152602060048201526018602482015277115490cdcc8c4e881a5b9d985b1a59081d1bdad95b88125160421b6044820152606401610440565b600081815260046020526040902080546001600160a01b0319166001600160a01b0384169081179091558190610840826105bf565b6001600160a01b03167f8c5be1e5ebec7d5bd14f71427d1e84f3dd0314c0f7b2291e5b200ac8c7c3b92560405160405180910390a45050565b600080610885836105bf565b9050806001600160a01b0316846001600160a01b031614806108cc57506001600160a01b0380821660009081526005602090815260408083209388168352929052205460ff165b806108f05750836001600160a01b03166108e5846103a5565b6001600160a01b0316145b949350505050565b826001600160a01b031661090b826105bf565b6001600160a01b0316146109315760405162461bcd60e51b81526004016104409061173d565b6001600160a01b0382166109935760405162461bcd60e51b8152602060048201526024808201527f4552433732313a207472616e7366657220746f20746865207a65726f206164646044820152637265737360e01b6064820152608401610440565b826001600160a01b03166109a6826105bf565b6001600160a01b0316146109cc5760405162461bcd60e51b81526004016104409061173d565b600081815260046020908152604080832080546001600160a01b03199081169091556001600160a01b0387811680865260038552838620805460001901905590871680865283862080546001019055868652600290945282852080549092168417909155905184937fddf252ad1be2c89b69c2b068fc378daa952ba7f163c4a11628f55a4df523b3ef91a4505050565b6105bc81610dc7565b6007546001600160a01b031633146106b75760405162461bcd60e51b815260206004820181905260248201527f4f776e61626c653a2063616c6c6572206973206e6f7420746865206f776e65726044820152606401610440565b600780546001600160a01b038381166001600160a01b0319831681179093556040519116919082907f8be0079c531659141344cd1fd0a4f28419497f9722a3daafe3b4186f6b6457e090600090a35050565b816001600160a01b0316836001600160a01b031603610b725760405162461bcd60e51b815260206004820152601960248201527f4552433732313a20617070726f766520746f2063616c6c6572000000000000006044820152606401610440565b6001600160a01b03838116600081815260056020908152604080832094871680845294825291829020805460ff191686151590811790915591519182527f17307eab39ab6107e8899845ad3d59bd9653f200f220920489ca2b5937696c31910160405180910390a3505050565b610bea8484846108f8565b610bf684848484610e07565b6107095760405162461bcd60e51b815260040161044090611782565b6060610c1d826107ac565b60008281526006602052604081208054610c36906116b6565b80601f0160208091040260200160405190810160405280929190818152602001828054610c62906116b6565b8015610caf5780601f10610c8457610100808354040283529160200191610caf565b820191906000526020600020905b815481529060010190602001808311610c9257829003601f168201915b505050505090506000610ccd60408051602081019091526000815290565b90508051600003610cdf575092915050565b815115610d11578082604051602001610cf99291906117d4565b60405160208183030381529060405292505050919050565b6108f084610f08565b6106d3828260405180602001604052806000815250610f7c565b6000828152600260205260409020546001600160a01b0316610daf5760405162461bcd60e51b815260206004820152602e60248201527f45524337323155524953746f726167653a2055524920736574206f66206e6f6e60448201526d32bc34b9ba32b73a103a37b5b2b760911b6064820152608401610440565b60008281526006602052604090206104e18282611851565b610dd081610faf565b60008181526006602052604090208054610de9906116b6565b1590506105bc5760008181526006602052604081206105bc9161133a565b60006001600160a01b0384163b15610efd57604051630a85bd0160e11b81526001600160a01b0385169063150b7a0290610e4b903390899088908890600401611911565b6020604051808303816000875af1925050508015610e86575060408051601f3d908101601f19168201909252610e839181019061194e565b60015b610ee3573d808015610eb4576040519150601f19603f3d011682016040523d82523d6000602084013e610eb9565b606091505b508051600003610edb5760405162461bcd60e51b815260040161044090611782565b805181602001fd5b6001600160e01b031916630a85bd0160e11b1490506108f0565b506001949350505050565b6060610f13826107ac565b6000610f2a60408051602081019091526000815290565b90506000815111610f4a5760405180602001604052806000815250610f75565b80610f5484611044565b604051602001610f659291906117d4565b6040516020818303038152906040525b9392505050565b610f8683836110d7565b610f936000848484610e07565b6104e15760405162461bcd60e51b815260040161044090611782565b6000610fba826105bf565b9050610fc5826105bf565b600083815260046020908152604080832080546001600160a01b03199081169091556001600160a01b0385168085526003845282852080546000190190558785526002909352818420805490911690555192935084927fddf252ad1be2c89b69c2b068fc378daa952ba7f163c4a11628f55a4df523b3ef908390a45050565b6060600061105183611262565b600101905060008167ffffffffffffffff81111561107157611071611510565b6040519080825280601f01601f19166020018201604052801561109b576020820181803683370190505b5090508181016020015b600019016f181899199a1a9b1b9c1cb0b131b232b360811b600a86061a8153600a85049450846110a557509392505050565b6001600160a01b03821661112d5760405162461bcd60e51b815260206004820181905260248201527f4552433732313a206d696e7420746f20746865207a65726f20616464726573736044820152606401610440565b6000818152600260205260409020546001600160a01b0316156111925760405162461bcd60e51b815260206004820152601c60248201527f4552433732313a20746f6b656e20616c7265616479206d696e746564000000006044820152606401610440565b6000818152600260205260409020546001600160a01b0316156111f75760405162461bcd60e51b815260206004820152601c60248201527f4552433732313a20746f6b656e20616c7265616479206d696e746564000000006044820152606401610440565b6001600160a01b038216600081815260036020908152604080832080546001019055848352600290915280822080546001600160a01b0319168417905551839291907fddf252ad1be2c89b69c2b068fc378daa952ba7f163c4a11628f55a4df523b3ef908290a45050565b60008072184f03e93ff9f4daa797ed6e38ed64bf6a1f0160401b83106112a15772184f03e93ff9f4daa797ed6e38ed64bf6a1f0160401b830492506040015b6d04ee2d6d415b85acef810000000083106112cd576d04ee2d6d415b85acef8100000000830492506020015b662386f26fc1000083106112eb57662386f26fc10000830492506010015b6305f5e1008310611303576305f5e100830492506008015b612710831061131757612710830492506004015b60648310611329576064830492506002015b600a831061030d5760010192915050565b508054611346906116b6565b6000825580601f10611356575050565b601f0160209004906000526020600020908101906105bc91905b808211156113845760008155600101611370565b5090565b6001600160e01b0319811681146105bc57600080fd5b6000602082840312156113b057600080fd5b8135610f7581611388565b60005b838110156113d65781810151838201526020016113be565b50506000910152565b600081518084526113f78160208601602086016113bb565b601f01601f19169290920160200192915050565b602081526000610f7560208301846113df565b60006020828403121561143057600080fd5b5035919050565b80356001600160a01b038116811461144e57600080fd5b919050565b6000806040838503121561146657600080fd5b61146f83611437565b946020939093013593505050565b60008060006060848603121561149257600080fd5b61149b84611437565b92506114a960208501611437565b9150604084013590509250925092565b6000602082840312156114cb57600080fd5b610f7582611437565b600080604083850312156114e757600080fd5b6114f083611437565b91506020830135801515811461150557600080fd5b809150509250929050565b634e487b7160e01b600052604160045260246000fd5b600067ffffffffffffffff8084111561154157611541611510565b604051601f8501601f19908116603f0116810190828211818310171561156957611569611510565b8160405280935085815286868601111561158257600080fd5b858560208301376000602087830101525050509392505050565b600080600080608085870312156115b257600080fd5b6115bb85611437565b93506115c960208601611437565b925060408501359150606085013567ffffffffffffffff8111156115ec57600080fd5b8501601f810187136115fd57600080fd5b61160c87823560208401611526565b91505092959194509250565b60008060006060848603121561162d57600080fd5b61163684611437565b925060208401359150604084013567ffffffffffffffff81111561165957600080fd5b8401601f8101861361166a57600080fd5b61167986823560208401611526565b9150509250925092565b6000806040838503121561169657600080fd5b61169f83611437565b91506116ad60208401611437565b90509250929050565b600181811c908216806116ca57607f821691505b6020821081036116ea57634e487b7160e01b600052602260045260246000fd5b50919050565b6020808252602d908201527f4552433732313a2063616c6c6572206973206e6f7420746f6b656e206f776e6560408201526c1c881bdc88185c1c1c9bdd9959609a1b606082015260800190565b60208082526025908201527f4552433732313a207472616e736665722066726f6d20696e636f72726563742060408201526437bbb732b960d91b606082015260800190565b60208082526032908201527f4552433732313a207472616e7366657220746f206e6f6e20455243373231526560408201527131b2b4bb32b91034b6b83632b6b2b73a32b960711b606082015260800190565b600083516117e68184602088016113bb565b8351908301906117fa8183602088016113bb565b01949350505050565b601f8211156104e157600081815260208120601f850160051c8101602086101561182a5750805b601f850160051c820191505b8181101561184957828155600101611836565b505050505050565b815167ffffffffffffffff81111561186b5761186b611510565b61187f8161187984546116b6565b84611803565b602080601f8311600181146118b4576000841561189c5750858301515b600019600386901b1c1916600185901b178555611849565b600085815260208120601f198616915b828110156118e3578886015182559484019460019091019084016118c4565b50858210156119015787850151600019600388901b60f8161c191681555b5050505050600190811b01905550565b6001600160a01b0385811682528416602082015260408101839052608060608201819052600090611944908301846113df565b9695505050505050565b60006020828403121561196057600080fd5b8151610f758161138856fea26469706673582212201f9c390aeb53573a3d25a75ff66916937c664a6d95c9eeb4581003765c4cf0a064736f6c63430008110033a264697066735822122029aca492a8fcc39ad43e91b347f932f550d9f7161789145e30134f1538f084bc64736f6c63430008110033",
    "linkReferences": {}
  },
  "methodIdentifiers": {
    "collectionLockedCounter(address)": "15d4901e",
    "failedMessages(uint16,bytes,uint256)": "8ee74912",
    "forceResumeReceive(uint16,bytes)": "42d65a8d",
    "getConfig(uint16,uint16,address,uint256)": "f5ecbdbc",
    "getTrustedRemoteAddress(uint16)": "9f38369a",
    "isTrustedRemote(uint16,bytes)": "3d8b38f6",
    "lzEndpoint()": "b353aaa7",
    "lzReceive(uint16,bytes,uint64,bytes)": "001d3567",
    "minDstGasLookup(uint16,uint16)": "8cfd8f5c",
    "nonblockingLzReceive(uint16,bytes,uint64,bytes)": "66ad5c8a",
    "originAddresses(address)": "c7fb871e",
    "owner()": "8da5cb5b",
    "paused()": "5c975abb",
    "persistentAddresses(address)": "227fecb0",
    "precrime()": "950c8a74",
    "renounceOwnership()": "715018a6",
    "retryMessage(uint16,bytes,uint64,bytes)": "d1deba1f",
    "setConfig(uint16,uint16,uint256,bytes)": "cbed8b9c",
    "setMinDstGas(uint16,uint16,uint256)": "df2a5b3b",
    "setPrecrime(address)": "baf3292d",
    "setReceiveVersion(uint16)": "10ddb137",
    "setSendVersion(uint16)": "07e0db17",
    "setTrustedRemote(uint16,bytes)": "eb8d72b7",
    "setTrustedRemoteAddress(uint16,bytes)": "a6c3d165",
    "supportsInterface(bytes4)": "01ffc9a7",
    "transferOwnership(address)": "f2fde38b",
    "trustedRemoteLookup(uint16)": "7533d788",
    "withdraw(address,uint256)": "f3fef3a3",
    "wrap(uint16,address,address,uint256,bytes)": "65ed8bfb"
  },
  "id": 0
}