{
  "abi": [
    {
      "inputs": [
        {
          "internalType": "address",
          "name": "_layerZeroEndpoint",
          "type": "address"
        },
        {
          "internalType": "string",
          "name": "_baseTokenURI",
          "type": "string"
        },
        {
          "internalType": "string",
          "name": "_hiddenURI",
          "type": "string"
        },
        {
          "internalType": "uint256",
          "name": "_tax",
          "type": "uint256"
        },
        {
          "internalType": "address",
          "name": "_taxRecipient",
          "type": "address"
        }
      ],
      "stateMutability": "nonpayable",
      "type": "constructor"
    },
    {
      "inputs": [
        {
          "internalType": "address",
          "name": "operator",
          "type": "address"
        }
      ],
      "name": "OperatorNotAllowed",
      "type": "error"
    },
    {
      "anonymous": false,
      "inputs": [
        {
          "indexed": true,
          "internalType": "address",
          "name": "account",
          "type": "address"
        },
        {
          "indexed": true,
          "internalType": "address",
          "name": "operator",
          "type": "address"
        },
        {
          "indexed": false,
          "internalType": "bool",
          "name": "approved",
          "type": "bool"
        }
      ],
      "name": "ApprovalForAll",
      "type": "event"
    },
    {
      "anonymous": false,
      "inputs": [
        {
          "indexed": false,
          "internalType": "uint16",
          "name": "_srcChainId",
          "type": "uint16"
        },
        {
          "indexed": false,
          "internalType": "bytes",
          "name": "_srcAddress",
          "type": "bytes"
        },
        {
          "indexed": false,
          "internalType": "uint64",
          "name": "_nonce",
          "type": "uint64"
        },
        {
          "indexed": false,
          "internalType": "bytes",
          "name": "_payload",
          "type": "bytes"
        },
        {
          "indexed": false,
          "internalType": "bytes",
          "name": "_reason",
          "type": "bytes"
        }
      ],
      "name": "MessageFailed",
      "type": "event"
    },
    {
      "anonymous": false,
      "inputs": [
        {
          "indexed": true,
          "internalType": "address",
          "name": "previousOwner",
          "type": "address"
        },
        {
          "indexed": true,
          "internalType": "address",
          "name": "newOwner",
          "type": "address"
        }
      ],
      "name": "OwnershipTransferred",
      "type": "event"
    },
    {
      "anonymous": false,
      "inputs": [
        {
          "indexed": true,
          "internalType": "uint16",
          "name": "_srcChainId",
          "type": "uint16"
        },
        {
          "indexed": true,
          "internalType": "bytes",
          "name": "_srcAddress",
          "type": "bytes"
        },
        {
          "indexed": true,
          "internalType": "address",
          "name": "_toAddress",
          "type": "address"
        },
        {
          "indexed": false,
          "internalType": "uint256[]",
          "name": "_tokenIds",
          "type": "uint256[]"
        },
        {
          "indexed": false,
          "internalType": "uint256[]",
          "name": "_amounts",
          "type": "uint256[]"
        },
        {
          "indexed": false,
          "internalType": "uint64",
          "name": "_nonce",
          "type": "uint64"
        }
      ],
      "name": "ReceiveBatchFromChain",
      "type": "event"
    },
    {
      "anonymous": false,
      "inputs": [
        {
          "indexed": true,
          "internalType": "uint16",
          "name": "_srcChainId",
          "type": "uint16"
        },
        {
          "indexed": true,
          "internalType": "bytes",
          "name": "_srcAddress",
          "type": "bytes"
        },
        {
          "indexed": true,
          "internalType": "address",
          "name": "_toAddress",
          "type": "address"
        },
        {
          "indexed": false,
          "internalType": "uint256",
          "name": "_tokenId",
          "type": "uint256"
        },
        {
          "indexed": false,
          "internalType": "uint256",
          "name": "_amount",
          "type": "uint256"
        },
        {
          "indexed": false,
          "internalType": "uint64",
          "name": "_nonce",
          "type": "uint64"
        }
      ],
      "name": "ReceiveFromChain",
      "type": "event"
    },
    {
      "anonymous": false,
      "inputs": [
        {
          "indexed": false,
          "internalType": "uint16",
          "name": "_srcChainId",
          "type": "uint16"
        },
        {
          "indexed": false,
          "internalType": "bytes",
          "name": "_srcAddress",
          "type": "bytes"
        },
        {
          "indexed": false,
          "internalType": "uint64",
          "name": "_nonce",
          "type": "uint64"
        },
        {
          "indexed": false,
          "internalType": "bytes32",
          "name": "_payloadHash",
          "type": "bytes32"
        }
      ],
      "name": "RetryMessageSuccess",
      "type": "event"
    },
    {
      "anonymous": false,
      "inputs": [
        {
          "indexed": true,
          "internalType": "address",
          "name": "_sender",
          "type": "address"
        },
        {
          "indexed": true,
          "internalType": "uint16",
          "name": "_dstChainId",
          "type": "uint16"
        },
        {
          "indexed": true,
          "internalType": "bytes",
          "name": "_toAddress",
          "type": "bytes"
        },
        {
          "indexed": false,
          "internalType": "uint256[]",
          "name": "_tokenIds",
          "type": "uint256[]"
        },
        {
          "indexed": false,
          "internalType": "uint256[]",
          "name": "_amounts",
          "type": "uint256[]"
        },
        {
          "indexed": false,
          "internalType": "uint64",
          "name": "_nonce",
          "type": "uint64"
        }
      ],
      "name": "SendBatchToChain",
      "type": "event"
    },
    {
      "anonymous": false,
      "inputs": [
        {
          "indexed": true,
          "internalType": "address",
          "name": "_sender",
          "type": "address"
        },
        {
          "indexed": true,
          "internalType": "uint16",
          "name": "_dstChainId",
          "type": "uint16"
        },
        {
          "indexed": true,
          "internalType": "bytes",
          "name": "_toAddress",
          "type": "bytes"
        },
        {
          "indexed": false,
          "internalType": "uint256",
          "name": "_tokenId",
          "type": "uint256"
        },
        {
          "indexed": false,
          "internalType": "uint256",
          "name": "_amount",
          "type": "uint256"
        },
        {
          "indexed": false,
          "internalType": "uint64",
          "name": "_nonce",
          "type": "uint64"
        }
      ],
      "name": "SendToChain",
      "type": "event"
    },
    {
      "anonymous": false,
      "inputs": [
        {
          "indexed": false,
          "internalType": "uint16",
          "name": "_dstChainId",
          "type": "uint16"
        },
        {
          "indexed": false,
          "internalType": "uint16",
          "name": "_type",
          "type": "uint16"
        },
        {
          "indexed": false,
          "internalType": "uint256",
          "name": "_minDstGas",
          "type": "uint256"
        }
      ],
      "name": "SetMinDstGas",
      "type": "event"
    },
    {
      "anonymous": false,
      "inputs": [
        {
          "indexed": false,
          "internalType": "address",
          "name": "precrime",
          "type": "address"
        }
      ],
      "name": "SetPrecrime",
      "type": "event"
    },
    {
      "anonymous": false,
      "inputs": [
        {
          "indexed": false,
          "internalType": "uint16",
          "name": "_remoteChainId",
          "type": "uint16"
        },
        {
          "indexed": false,
          "internalType": "bytes",
          "name": "_path",
          "type": "bytes"
        }
      ],
      "name": "SetTrustedRemote",
      "type": "event"
    },
    {
      "anonymous": false,
      "inputs": [
        {
          "indexed": false,
          "internalType": "uint16",
          "name": "_remoteChainId",
          "type": "uint16"
        },
        {
          "indexed": false,
          "internalType": "bytes",
          "name": "_remoteAddress",
          "type": "bytes"
        }
      ],
      "name": "SetTrustedRemoteAddress",
      "type": "event"
    },
    {
      "anonymous": false,
      "inputs": [
        {
          "indexed": true,
          "internalType": "address",
          "name": "operator",
          "type": "address"
        },
        {
          "indexed": true,
          "internalType": "address",
          "name": "from",
          "type": "address"
        },
        {
          "indexed": true,
          "internalType": "address",
          "name": "to",
          "type": "address"
        },
        {
          "indexed": false,
          "internalType": "uint256[]",
          "name": "ids",
          "type": "uint256[]"
        },
        {
          "indexed": false,
          "internalType": "uint256[]",
          "name": "values",
          "type": "uint256[]"
        }
      ],
      "name": "TransferBatch",
      "type": "event"
    },
    {
      "anonymous": false,
      "inputs": [
        {
          "indexed": true,
          "internalType": "address",
          "name": "operator",
          "type": "address"
        },
        {
          "indexed": true,
          "internalType": "address",
          "name": "from",
          "type": "address"
        },
        {
          "indexed": true,
          "internalType": "address",
          "name": "to",
          "type": "address"
        },
        {
          "indexed": false,
          "internalType": "uint256",
          "name": "id",
          "type": "uint256"
        },
        {
          "indexed": false,
          "internalType": "uint256",
          "name": "value",
          "type": "uint256"
        }
      ],
      "name": "TransferSingle",
      "type": "event"
    },
    {
      "anonymous": false,
      "inputs": [
        {
          "indexed": false,
          "internalType": "string",
          "name": "value",
          "type": "string"
        },
        {
          "indexed": true,
          "internalType": "uint256",
          "name": "id",
          "type": "uint256"
        }
      ],
      "name": "URI",
      "type": "event"
    },
    {
      "inputs": [],
      "name": "DEFAULT_PAYLOAD_SIZE_LIMIT",
      "outputs": [
        {
          "internalType": "uint256",
          "name": "",
          "type": "uint256"
        }
      ],
      "stateMutability": "view",
      "type": "function"
    },
    {
      "inputs": [],
      "name": "OPERATOR_FILTER_REGISTRY",
      "outputs": [
        {
          "internalType": "contract IOperatorFilterRegistry",
          "name": "",
          "type": "address"
        }
      ],
      "stateMutability": "view",
      "type": "function"
    },
    {
      "inputs": [],
      "name": "_openEditionStarted",
      "outputs": [
        {
          "internalType": "bool",
          "name": "",
          "type": "bool"
        }
      ],
      "stateMutability": "view",
      "type": "function"
    },
    {
      "inputs": [
        {
          "internalType": "address",
          "name": "account",
          "type": "address"
        },
        {
          "internalType": "uint256",
          "name": "id",
          "type": "uint256"
        }
      ],
      "name": "balanceOf",
      "outputs": [
        {
          "internalType": "uint256",
          "name": "",
          "type": "uint256"
        }
      ],
      "stateMutability": "view",
      "type": "function"
    },
    {
      "inputs": [
        {
          "internalType": "address[]",
          "name": "accounts",
          "type": "address[]"
        },
        {
          "internalType": "uint256[]",
          "name": "ids",
          "type": "uint256[]"
        }
      ],
      "name": "balanceOfBatch",
      "outputs": [
        {
          "internalType": "uint256[]",
          "name": "",
          "type": "uint256[]"
        }
      ],
      "stateMutability": "view",
      "type": "function"
    },
    {
      "inputs": [],
      "name": "contractURI",
      "outputs": [
        {
          "internalType": "string",
          "name": "",
          "type": "string"
        }
      ],
      "stateMutability": "view",
      "type": "function"
    },
    {
      "inputs": [
        {
          "internalType": "uint16",
          "name": "_dstChainId",
          "type": "uint16"
        },
        {
          "internalType": "bytes",
          "name": "_toAddress",
          "type": "bytes"
        },
        {
          "internalType": "uint256[]",
          "name": "_tokenIds",
          "type": "uint256[]"
        },
        {
          "internalType": "uint256[]",
          "name": "_amounts",
          "type": "uint256[]"
        },
        {
          "internalType": "bool",
          "name": "_useZro",
          "type": "bool"
        },
        {
          "internalType": "bytes",
          "name": "_adapterParams",
          "type": "bytes"
        }
      ],
      "name": "estimateSendBatchFee",
      "outputs": [
        {
          "internalType": "uint256",
          "name": "nativeFee",
          "type": "uint256"
        },
        {
          "internalType": "uint256",
          "name": "zroFee",
          "type": "uint256"
        }
      ],
      "stateMutability": "view",
      "type": "function"
    },
    {
      "inputs": [
        {
          "internalType": "uint16",
          "name": "_dstChainId",
          "type": "uint16"
        },
        {
          "internalType": "bytes",
          "name": "_toAddress",
          "type": "bytes"
        },
        {
          "internalType": "uint256",
          "name": "_tokenId",
          "type": "uint256"
        },
        {
          "internalType": "uint256",
          "name": "_amount",
          "type": "uint256"
        },
        {
          "internalType": "bool",
          "name": "_useZro",
          "type": "bool"
        },
        {
          "internalType": "bytes",
          "name": "_adapterParams",
          "type": "bytes"
        }
      ],
      "name": "estimateSendFee",
      "outputs": [
        {
          "internalType": "uint256",
          "name": "nativeFee",
          "type": "uint256"
        },
        {
          "internalType": "uint256",
          "name": "zroFee",
          "type": "uint256"
        }
      ],
      "stateMutability": "view",
      "type": "function"
    },
    {
      "inputs": [
        {
          "internalType": "uint256",
          "name": "id",
          "type": "uint256"
        }
      ],
      "name": "exists",
      "outputs": [
        {
          "internalType": "bool",
          "name": "",
          "type": "bool"
        }
      ],
      "stateMutability": "view",
      "type": "function"
    },
    {
      "inputs": [
        {
          "internalType": "uint16",
          "name": "",
          "type": "uint16"
        },
        {
          "internalType": "bytes",
          "name": "",
          "type": "bytes"
        },
        {
          "internalType": "uint64",
          "name": "",
          "type": "uint64"
        }
      ],
      "name": "failedMessages",
      "outputs": [
        {
          "internalType": "bytes32",
          "name": "",
          "type": "bytes32"
        }
      ],
      "stateMutability": "view",
      "type": "function"
    },
    {
      "inputs": [],
      "name": "flipRevealed",
      "outputs": [],
      "stateMutability": "nonpayable",
      "type": "function"
    },
    {
      "inputs": [
        {
          "internalType": "uint16",
          "name": "_srcChainId",
          "type": "uint16"
        },
        {
          "internalType": "bytes",
          "name": "_srcAddress",
          "type": "bytes"
        }
      ],
      "name": "forceResumeReceive",
      "outputs": [],
      "stateMutability": "nonpayable",
      "type": "function"
    },
    {
      "inputs": [
        {
          "internalType": "uint16",
          "name": "_version",
          "type": "uint16"
        },
        {
          "internalType": "uint16",
          "name": "_chainId",
          "type": "uint16"
        },
        {
          "internalType": "address",
          "name": "",
          "type": "address"
        },
        {
          "internalType": "uint256",
          "name": "_configType",
          "type": "uint256"
        }
      ],
      "name": "getConfig",
      "outputs": [
        {
          "internalType": "bytes",
          "name": "",
          "type": "bytes"
        }
      ],
      "stateMutability": "view",
      "type": "function"
    },
    {
      "inputs": [
        {
          "internalType": "uint16",
          "name": "_remoteChainId",
          "type": "uint16"
        }
      ],
      "name": "getTrustedRemoteAddress",
      "outputs": [
        {
          "internalType": "bytes",
          "name": "",
          "type": "bytes"
        }
      ],
      "stateMutability": "view",
      "type": "function"
    },
    {
      "inputs": [
        {
          "internalType": "address",
          "name": "account",
          "type": "address"
        },
        {
          "internalType": "address",
          "name": "operator",
          "type": "address"
        }
      ],
      "name": "isApprovedForAll",
      "outputs": [
        {
          "internalType": "bool",
          "name": "",
          "type": "bool"
        }
      ],
      "stateMutability": "view",
      "type": "function"
    },
    {
      "inputs": [
        {
          "internalType": "uint16",
          "name": "_srcChainId",
          "type": "uint16"
        },
        {
          "internalType": "bytes",
          "name": "_srcAddress",
          "type": "bytes"
        }
      ],
      "name": "isTrustedRemote",
      "outputs": [
        {
          "internalType": "bool",
          "name": "",
          "type": "bool"
        }
      ],
      "stateMutability": "view",
      "type": "function"
    },
    {
      "inputs": [],
      "name": "lzEndpoint",
      "outputs": [
        {
          "internalType": "contract ILayerZeroEndpoint",
          "name": "",
          "type": "address"
        }
      ],
      "stateMutability": "view",
      "type": "function"
    },
    {
      "inputs": [
        {
          "internalType": "uint16",
          "name": "_srcChainId",
          "type": "uint16"
        },
        {
          "internalType": "bytes",
          "name": "_srcAddress",
          "type": "bytes"
        },
        {
          "internalType": "uint64",
          "name": "_nonce",
          "type": "uint64"
        },
        {
          "internalType": "bytes",
          "name": "_payload",
          "type": "bytes"
        }
      ],
      "name": "lzReceive",
      "outputs": [],
      "stateMutability": "nonpayable",
      "type": "function"
    },
    {
      "inputs": [
        {
          "internalType": "uint16",
          "name": "",
          "type": "uint16"
        },
        {
          "internalType": "uint16",
          "name": "",
          "type": "uint16"
        }
      ],
      "name": "minDstGasLookup",
      "outputs": [
        {
          "internalType": "uint256",
          "name": "",
          "type": "uint256"
        }
      ],
      "stateMutability": "view",
      "type": "function"
    },
    {
      "inputs": [
        {
          "internalType": "uint256",
          "name": "_tokenId",
          "type": "uint256"
        },
        {
          "internalType": "uint256",
          "name": "_amount",
          "type": "uint256"
        },
        {
          "internalType": "bytes32[]",
          "name": "_merkleProof",
          "type": "bytes32[]"
        }
      ],
      "name": "mint",
      "outputs": [],
      "stateMutability": "nonpayable",
      "type": "function"
    },
    {
      "inputs": [
        {
          "internalType": "uint256",
          "name": "_tokenId",
          "type": "uint256"
        },
        {
          "internalType": "uint256",
          "name": "_amount",
          "type": "uint256"
        },
        {
          "internalType": "address",
          "name": "_minter",
          "type": "address"
        }
      ],
      "name": "mintGasless",
      "outputs": [],
      "stateMutability": "nonpayable",
      "type": "function"
    },
    {
      "inputs": [
        {
          "internalType": "uint16",
          "name": "_srcChainId",
          "type": "uint16"
        },
        {
          "internalType": "bytes",
          "name": "_srcAddress",
          "type": "bytes"
        },
        {
          "internalType": "uint64",
          "name": "_nonce",
          "type": "uint64"
        },
        {
          "internalType": "bytes",
          "name": "_payload",
          "type": "bytes"
        }
      ],
      "name": "nonblockingLzReceive",
      "outputs": [],
      "stateMutability": "nonpayable",
      "type": "function"
    },
    {
      "inputs": [],
      "name": "openEditionEndedBy",
      "outputs": [
        {
          "internalType": "uint256",
          "name": "",
          "type": "uint256"
        }
      ],
      "stateMutability": "view",
      "type": "function"
    },
    {
      "inputs": [],
      "name": "owner",
      "outputs": [
        {
          "internalType": "address",
          "name": "",
          "type": "address"
        }
      ],
      "stateMutability": "view",
      "type": "function"
    },
    {
      "inputs": [
        {
          "internalType": "uint16",
          "name": "",
          "type": "uint16"
        }
      ],
      "name": "payloadSizeLimitLookup",
      "outputs": [
        {
          "internalType": "uint256",
          "name": "",
          "type": "uint256"
        }
      ],
      "stateMutability": "view",
      "type": "function"
    },
    {
      "inputs": [],
      "name": "precrime",
      "outputs": [
        {
          "internalType": "address",
          "name": "",
          "type": "address"
        }
      ],
      "stateMutability": "view",
      "type": "function"
    },
    {
      "inputs": [],
      "name": "price",
      "outputs": [
        {
          "internalType": "uint256",
          "name": "",
          "type": "uint256"
        }
      ],
      "stateMutability": "view",
      "type": "function"
    },
    {
      "inputs": [],
      "name": "renounceOwnership",
      "outputs": [],
      "stateMutability": "nonpayable",
      "type": "function"
    },
    {
      "inputs": [
        {
          "internalType": "uint16",
          "name": "_srcChainId",
          "type": "uint16"
        },
        {
          "internalType": "bytes",
          "name": "_srcAddress",
          "type": "bytes"
        },
        {
          "internalType": "uint64",
          "name": "_nonce",
          "type": "uint64"
        },
        {
          "internalType": "bytes",
          "name": "_payload",
          "type": "bytes"
        }
      ],
      "name": "retryMessage",
      "outputs": [],
      "stateMutability": "payable",
      "type": "function"
    },
    {
      "inputs": [
        {
          "internalType": "address",
          "name": "from",
          "type": "address"
        },
        {
          "internalType": "address",
          "name": "to",
          "type": "address"
        },
        {
          "internalType": "uint256[]",
          "name": "ids",
          "type": "uint256[]"
        },
        {
          "internalType": "uint256[]",
          "name": "amounts",
          "type": "uint256[]"
        },
        {
          "internalType": "bytes",
          "name": "data",
          "type": "bytes"
        }
      ],
      "name": "safeBatchTransferFrom",
      "outputs": [],
      "stateMutability": "nonpayable",
      "type": "function"
    },
    {
      "inputs": [
        {
          "internalType": "address",
          "name": "from",
          "type": "address"
        },
        {
          "internalType": "address",
          "name": "to",
          "type": "address"
        },
        {
          "internalType": "uint256",
          "name": "tokenId",
          "type": "uint256"
        },
        {
          "internalType": "uint256",
          "name": "amount",
          "type": "uint256"
        },
        {
          "internalType": "bytes",
          "name": "data",
          "type": "bytes"
        }
      ],
      "name": "safeTransferFrom",
      "outputs": [],
      "stateMutability": "nonpayable",
      "type": "function"
    },
    {
      "inputs": [
        {
          "internalType": "address",
          "name": "_from",
          "type": "address"
        },
        {
          "internalType": "uint16",
          "name": "_dstChainId",
          "type": "uint16"
        },
        {
          "internalType": "bytes",
          "name": "_toAddress",
          "type": "bytes"
        },
        {
          "internalType": "uint256[]",
          "name": "_tokenIds",
          "type": "uint256[]"
        },
        {
          "internalType": "uint256[]",
          "name": "_amounts",
          "type": "uint256[]"
        },
        {
          "internalType": "address payable",
          "name": "_refundAddress",
          "type": "address"
        },
        {
          "internalType": "address",
          "name": "_zroPaymentAddress",
          "type": "address"
        },
        {
          "internalType": "bytes",
          "name": "_adapterParams",
          "type": "bytes"
        }
      ],
      "name": "sendBatchFrom",
      "outputs": [],
      "stateMutability": "payable",
      "type": "function"
    },
    {
      "inputs": [
        {
          "internalType": "address",
          "name": "_from",
          "type": "address"
        },
        {
          "internalType": "uint16",
          "name": "_dstChainId",
          "type": "uint16"
        },
        {
          "internalType": "bytes",
          "name": "_toAddress",
          "type": "bytes"
        },
        {
          "internalType": "uint256",
          "name": "_tokenId",
          "type": "uint256"
        },
        {
          "internalType": "uint256",
          "name": "_amount",
          "type": "uint256"
        },
        {
          "internalType": "address payable",
          "name": "_refundAddress",
          "type": "address"
        },
        {
          "internalType": "address",
          "name": "_zroPaymentAddress",
          "type": "address"
        },
        {
          "internalType": "bytes",
          "name": "_adapterParams",
          "type": "bytes"
        }
      ],
      "name": "sendFrom",
      "outputs": [],
      "stateMutability": "payable",
      "type": "function"
    },
    {
      "inputs": [
        {
          "internalType": "address",
          "name": "operator",
          "type": "address"
        },
        {
          "internalType": "bool",
          "name": "approved",
          "type": "bool"
        }
      ],
      "name": "setApprovalForAll",
      "outputs": [],
      "stateMutability": "nonpayable",
      "type": "function"
    },
    {
      "inputs": [
        {
          "internalType": "string",
          "name": "baseUri",
          "type": "string"
        }
      ],
      "name": "setBaseURI",
      "outputs": [],
      "stateMutability": "nonpayable",
      "type": "function"
    },
    {
      "inputs": [
        {
          "internalType": "address payable",
          "name": "_beneficiary",
          "type": "address"
        }
      ],
      "name": "setBeneficiary",
      "outputs": [],
      "stateMutability": "nonpayable",
      "type": "function"
    },
    {
      "inputs": [
        {
          "internalType": "uint16",
          "name": "_version",
          "type": "uint16"
        },
        {
          "internalType": "uint16",
          "name": "_chainId",
          "type": "uint16"
        },
        {
          "internalType": "uint256",
          "name": "_configType",
          "type": "uint256"
        },
        {
          "internalType": "bytes",
          "name": "_config",
          "type": "bytes"
        }
      ],
      "name": "setConfig",
      "outputs": [],
      "stateMutability": "nonpayable",
      "type": "function"
    },
    {
      "inputs": [
        {
          "internalType": "string",
          "name": "_contractURI",
          "type": "string"
        }
      ],
      "name": "setContractURI",
      "outputs": [],
      "stateMutability": "nonpayable",
      "type": "function"
    },
    {
      "inputs": [
        {
          "internalType": "string",
          "name": "_hiddenMetadataUri",
          "type": "string"
        }
      ],
      "name": "setHiddenMetadataUri",
      "outputs": [],
      "stateMutability": "nonpayable",
      "type": "function"
    },
    {
      "inputs": [
        {
          "internalType": "uint16",
          "name": "_dstChainId",
          "type": "uint16"
        },
        {
          "internalType": "uint16",
          "name": "_packetType",
          "type": "uint16"
        },
        {
          "internalType": "uint256",
          "name": "_minGas",
          "type": "uint256"
        }
      ],
      "name": "setMinDstGas",
      "outputs": [],
      "stateMutability": "nonpayable",
      "type": "function"
    },
    {
      "inputs": [
        {
          "internalType": "uint16",
          "name": "_dstChainId",
          "type": "uint16"
        },
        {
          "internalType": "uint256",
          "name": "_size",
          "type": "uint256"
        }
      ],
      "name": "setPayloadSizeLimit",
      "outputs": [],
      "stateMutability": "nonpayable",
      "type": "function"
    },
    {
      "inputs": [
        {
          "internalType": "address",
          "name": "_precrime",
          "type": "address"
        }
      ],
      "name": "setPrecrime",
      "outputs": [],
      "stateMutability": "nonpayable",
      "type": "function"
    },
    {
      "inputs": [
        {
          "internalType": "uint256",
          "name": "newPrice",
          "type": "uint256"
        }
      ],
      "name": "setPrice",
      "outputs": [],
      "stateMutability": "nonpayable",
      "type": "function"
    },
    {
      "inputs": [
        {
          "internalType": "uint16",
          "name": "_version",
          "type": "uint16"
        }
      ],
      "name": "setReceiveVersion",
      "outputs": [],
      "stateMutability": "nonpayable",
      "type": "function"
    },
    {
      "inputs": [
        {
          "internalType": "uint16",
          "name": "_version",
          "type": "uint16"
        }
      ],
      "name": "setSendVersion",
      "outputs": [],
      "stateMutability": "nonpayable",
      "type": "function"
    },
    {
      "inputs": [
        {
          "internalType": "uint256",
          "name": "_tax",
          "type": "uint256"
        }
      ],
      "name": "setTax",
      "outputs": [],
      "stateMutability": "nonpayable",
      "type": "function"
    },
    {
      "inputs": [
        {
          "internalType": "address payable",
          "name": "_taxRecipient",
          "type": "address"
        }
      ],
      "name": "setTaxRecipient",
      "outputs": [],
      "stateMutability": "nonpayable",
      "type": "function"
    },
    {
      "inputs": [
        {
          "internalType": "uint16",
          "name": "_srcChainId",
          "type": "uint16"
        },
        {
          "internalType": "bytes",
          "name": "_path",
          "type": "bytes"
        }
      ],
      "name": "setTrustedRemote",
      "outputs": [],
      "stateMutability": "nonpayable",
      "type": "function"
    },
    {
      "inputs": [
        {
          "internalType": "uint16",
          "name": "_remoteChainId",
          "type": "uint16"
        },
        {
          "internalType": "bytes",
          "name": "_remoteAddress",
          "type": "bytes"
        }
      ],
      "name": "setTrustedRemoteAddress",
      "outputs": [],
      "stateMutability": "nonpayable",
      "type": "function"
    },
    {
      "inputs": [],
      "name": "stableToken",
      "outputs": [
        {
          "internalType": "contract IERC20",
          "name": "",
          "type": "address"
        }
      ],
      "stateMutability": "view",
      "type": "function"
    },
    {
      "inputs": [
        {
          "internalType": "uint256",
          "name": "openEditionStoppedBy",
          "type": "uint256"
        }
      ],
      "name": "startOpenEdition",
      "outputs": [],
      "stateMutability": "nonpayable",
      "type": "function"
    },
    {
      "inputs": [],
      "name": "stopOpenEdition",
      "outputs": [],
      "stateMutability": "nonpayable",
      "type": "function"
    },
    {
      "inputs": [
        {
          "internalType": "bytes4",
          "name": "interfaceId",
          "type": "bytes4"
        }
      ],
      "name": "supportsInterface",
      "outputs": [
        {
          "internalType": "bool",
          "name": "",
          "type": "bool"
        }
      ],
      "stateMutability": "view",
      "type": "function"
    },
    {
      "inputs": [],
      "name": "tax",
      "outputs": [
        {
          "internalType": "uint256",
          "name": "",
          "type": "uint256"
        }
      ],
      "stateMutability": "view",
      "type": "function"
    },
    {
      "inputs": [
        {
          "internalType": "uint256",
          "name": "id",
          "type": "uint256"
        }
      ],
      "name": "totalSupply",
      "outputs": [
        {
          "internalType": "uint256",
          "name": "",
          "type": "uint256"
        }
      ],
      "stateMutability": "view",
      "type": "function"
    },
    {
      "inputs": [
        {
          "internalType": "address",
          "name": "newOwner",
          "type": "address"
        }
      ],
      "name": "transferOwnership",
      "outputs": [],
      "stateMutability": "nonpayable",
      "type": "function"
    },
    {
      "inputs": [
        {
          "internalType": "uint16",
          "name": "",
          "type": "uint16"
        }
      ],
      "name": "trustedRemoteLookup",
      "outputs": [
        {
          "internalType": "bytes",
          "name": "",
          "type": "bytes"
        }
      ],
      "stateMutability": "view",
      "type": "function"
    },
    {
      "inputs": [
        {
          "internalType": "uint256",
          "name": "tokenId",
          "type": "uint256"
        }
      ],
      "name": "uri",
      "outputs": [
        {
          "internalType": "string",
          "name": "",
          "type": "string"
        }
      ],
      "stateMutability": "view",
      "type": "function"
    },
    {
      "inputs": [],
      "name": "withdraw",
      "outputs": [],
      "stateMutability": "nonpayable",
      "type": "function"
    }
  ],
  "bytecode": {
    "object": "0x60a060409080825234620004905760009062005933803803809162000025828562000495565b833981019160a0828403126200048d576200004082620004cf565b6020808401519193916001600160401b039081811162000489578662000068918501620004e4565b958784015182811162000485579062000083918501620004e4565b9562000097608060608601519501620004cf565b8554336001600160a01b031980831682178955996001600160a01b039993989390928a929083167f8be0079c531659141344cd1fd0a4f28419497f9722a3daafe3b4186f6b6457e08680a3166080528251918483116200030d57600854926001948585811c951680156200047a575b8886101462000466578190601f9586811162000412575b508890868311600114620003ac578492620003a0575b5050600019600383901b1c191690851b176008555b6daaeb6d7670e522a718067333cd4e803b62000321575b5083600a5580600c55338a600d541617600d5581519485116200030d576010548481811c9116801562000302575b87821014620002ee57838111620002a5575b50859285116001146200023c57939450849291908362000230575b50501b916000199060031b1c1916176010555b600b551690600e541617600e55516153d790816200055c8239608051818181610595015281816107d70152818161096001528181610f72015281816120b20152818161220601528181612a5c01528181612baa01528181612d640152613a700152f35b015192503880620001ba565b6010815285812093958591601f198316915b888383106200028a575050501062000270575b505050811b01601055620001cd565b015160001960f88460031b161c1916905538808062000261565b8587015188559096019594850194879350908101906200024e565b601082528682208480880160051c820192898910620002e4575b0160051c019085905b828110620002d85750506200019f565b838155018590620002c8565b92508192620002bf565b634e487b7160e01b82526022600452602482fd5b90607f16906200018d565b634e487b7160e01b81526041600452602490fd5b803b156200039c5781809160448e5180948193633e9f1edf60e11b8352306004840152733cc6cdda760b79bafa08df41ecfa224f810dceb660248401525af180156200039257156200015f578581116200037e578b52386200015f565b634e487b7160e01b82526041600452602482fd5b8c513d84823e3d90fd5b5080fd5b01519050388062000133565b600885528985208894509190601f198416865b8c828210620003fb5750508411620003e1575b505050811b0160085562000148565b015160001960f88460031b161c19169055388080620003d2565b8385015186558b97909501949384019301620003bf565b909150600884528884208680850160051c8201928b86106200045c575b918991869594930160051c01915b8281106200044d5750506200011d565b8681558594508991016200043d565b925081926200042f565b634e487b7160e01b83526022600452602483fd5b94607f169462000106565b8580fd5b8480fd5b80fd5b600080fd5b601f909101601f19168101906001600160401b03821190821017620004b957604052565b634e487b7160e01b600052604160045260246000fd5b51906001600160a01b03821682036200049057565b919080601f8401121562000490578251906001600160401b038211620004b9576040519160209162000520601f8301601f191684018562000495565b818452828287010111620004905760005b8181106200054757508260009394955001015290565b85810183015184820184015282016200053156fe60806040526004361015610013575b600080fd5b60003560e01c80621d3567146104ad578062fdd58e146104a457806301ffc9a71461049b57806307e0db17146104925780630df37483146104895780630e89341c1461048057806310ddb137146104775780631c31f7101461046e57806324a23d4f146104655780632e5bb6ff1461045c5780632eb2c2d6146104535780633b2c3fb61461044a5780633ccfd60b146104415780633d8b38f6146104385780633f1f4fa41461042f57806341f434341461042657806342d65a8d1461041d57806345e559c0146104145780634ab4e6871461040b5780634db8226a146104025780634e1273f4146103f95780634f558e79146103f05780634fdd43cb146103e757806355f804b3146103de5780635b8c41e6146103d557806366ad5c8a146103cc578063715018a6146103c35780637533d788146103ba57806378e3079e146103b15780638608e5f8146103a85780638cfd8f5c1461039f5780638da5cb5b1461039657806391b7f5ed1461038d578063938e3d7b14610384578063950c8a741461037b578063988d40381461037257806399c8d556146103695780639f38369a14610360578063a035b1fe14610357578063a22cb4651461034e578063a6c3d16514610345578063a9d75b2b1461033c578063b253566314610333578063b353aaa71461032a578063baf3292d14610321578063bd85b03914610318578063c44618341461030f578063cbed8b9c14610306578063d1deba1f146102fd578063df2a5b3b146102f4578063e6d37b88146102eb578063e87ebdfa146102e2578063e8a3d485146102d9578063e985e9c5146102d0578063eb8d72b7146102c7578063f242432a146102be578063f2d5d8de146102b5578063f2fde38b146102ac5763f5ecbdbc146102a457600080fd5b61000e6129f6565b5061000e61295b565b5061000e61293c565b5061000e612834565b5061000e6126cf565b5061000e612666565b5061000e612593565b5061000e612557565b5061000e6124ff565b5061000e61240c565b5061000e6122a8565b5061000e6121a5565b5061000e612187565b5061000e61215a565b5061000e6120e1565b5061000e61209b565b5061000e612005565b5061000e611fd7565b5061000e611e39565b5061000e611d28565b5061000e611d09565b5061000e611c5d565b5061000e611c3e565b5061000e611b1f565b5061000e611af5565b5061000e6119da565b5061000e6119ab565b5061000e611981565b5061000e61192d565b5061000e611899565b5061000e611831565b5061000e6117f1565b5061000e611602565b5061000e61157b565b5061000e6114d4565b5061000e6113b9565b5061000e61129e565b5061000e611234565b5061000e611178565b5061000e61109a565b5061000e610ff6565b5061000e610fd2565b5061000e610f45565b5061000e610f1b565b5061000e610ee5565b5061000e610e88565b5061000e610da4565b5061000e610d67565b5061000e610c2c565b5061000e610a54565b5061000e610a20565b5061000e6109c4565b5061000e61092c565b5061000e6108f4565b5061000e61084f565b5061000e6107a3565b5061000e610707565b5061000e6106c1565b5061000e61057d565b6004359061ffff8216820361000e57565b6024359061ffff8216820361000e57565b9181601f8401121561000e578235916001600160401b03831161000e576020838186019501011161000e57565b6001600160401b0381160361000e57565b90608060031983011261000e5760043561ffff8116810361000e57916001600160401b039060243582811161000e5781610552916004016104d8565b9390939260443561056281610505565b9260643591821161000e57610579916004016104d8565b9091565b503461000e5761058c36610516565b929493919291907f00000000000000000000000000000000000000000000000000000000000000006001600160a01b0316330361064f5761061261061a926106209761060b6105f16105ec8a61ffff166000526001602052604060002090565b6117d6565b8051908184149182610645575b5081610622575b50613979565b3691610bda565b923691610bda565b92613c5f565b005b905061062f368486610bda565b6020815191012090602081519101201438610605565b15159150386105fe565b60405162461bcd60e51b815260206004820152601e60248201527f4c7a4170703a20696e76616c696420656e64706f696e742063616c6c657200006044820152606490fd5b6001600160a01b0381160361000e57565b600435906106b282610694565b565b60c435906106b282610694565b503461000e57604036600319011261000e5760206106ed6004356106e481610694565b60243590614368565b604051908152f35b6001600160e01b031981160361000e57565b503461000e57602036600319011261000e576020600435610727816106f5565b6001600160e01b0319168015908115610746575b506040519015158152f35b636cdb3d1360e11b811491508115610792575b8115610767575b503861073b565b6319abbbbb60e11b811491508115610781575b5038610760565b6301ffc9a760e01b1490503861077a565b6303a24d0760e21b81149150610759565b503461000e576000602036600319011261084c576107bf6104b6565b8160018060a01b036107d58183541633146130e2565b7f00000000000000000000000000000000000000000000000000000000000000001691823b1561084857602461ffff918360405195869485936307e0db1760e01b85521660048401525af1801561083b575b61082f575080f35b61083890610a9a565b80f35b610843612b1e565b610827565b5080fd5b80fd5b503461000e57604036600319011261000e5761ffff61086c6104b6565b61088160018060a01b036000541633146130e2565b166000526003602052602435604060002055600080f35b60005b8381106108ab5750506000910152565b818101518382015260200161089b565b906020916108d481518092818552858086019101610898565b601f01601f1916010190565b9060206108f19281815201906108bb565b90565b503461000e57602036600319011261000e576109286109146004356136fd565b6040519182916020835260208301906108bb565b0390f35b503461000e576000602036600319011261084c576109486104b6565b8160018060a01b0361095e8183541633146130e2565b7f00000000000000000000000000000000000000000000000000000000000000001691823b1561084857602461ffff918360405195869485936310ddb13760e01b85521660048401525af1801561083b5761082f575080f35b60a435906106b282610694565b503461000e57602036600319011261000e576004356109e281610694565b6000546001600160a01b0391906109fc90831633146130e2565b166001600160601b0360a01b600d541617600d55600080f35b600091031261000e57565b503461000e5760008060031936011261084c57610a4760018060a01b0382541633146130e2565b60ff196011541660115580f35b503461000e57602036600319011261000e57610a7b60018060a01b036000541633146130e2565b600435600b55005b50634e487b7160e01b600052604160045260246000fd5b6001600160401b038111610aad57604052565b610ab5610a83565b604052565b604081019081106001600160401b03821117610aad57604052565b608081019081106001600160401b03821117610aad57604052565b602081019081106001600160401b03821117610aad57604052565b90601f801991011681019081106001600160401b03821117610aad57604052565b6020906001600160401b038111610b45575b60051b0190565b610b4d610a83565b610b3e565b81601f8201121561000e57803591610b6983610b2c565b92610b776040519485610b0b565b808452602092838086019260051b82010192831161000e578301905b828210610ba1575050505090565b81358152908301908301610b93565b6020906001600160401b038111610bcd575b601f01601f19160190565b610bd5610a83565b610bc2565b929192610be682610bb0565b91610bf46040519384610b0b565b82948184528183011161000e578281602093846000960137010152565b9080601f8301121561000e578160206108f193359101610bda565b503461000e5760a036600319011261000e57600435610c4a81610694565b602435610c5681610694565b6001600160401b0360443581811161000e57610c76903690600401610b52565b60643582811161000e57610c8e903690600401610b52565b9160843590811161000e57610ca7903690600401610c11565b926001600160a01b0385163381148015919082610d59575b91610d34575b5015610cd4576106209461478e565b60405162461bcd60e51b815260206004820152603260248201527f455243313135353a207472616e736665722063616c6c6572206973206e6f74206044820152711bdddb995c881b9bdc88185c1c1c9bdd995960721b6064820152608490fd5b6000908152600760209081526040808320338452909152902060ff9150541638610cc5565b610d62336152e2565b610cbf565b503461000e5760008060031936011261084c57610d8e60018060a01b0382541633146130e2565b60135460ff80821615169060ff19161760135580f35b503461000e5760008060031936011261084c57600d54336001600160a01b0391821614908115610e41575b5015610ddd576108386134c1565b60405162461bcd60e51b815260206004820152603660248201527f416476616e6365644f4e4654313135354761736c6573733a2063616c6c6572206044820152756973206e6f74207468652062656e656669636961727960501b6064820152608490fd5b9050815416331438610dcf565b90604060031983011261000e5760043561ffff8116810361000e5791602435906001600160401b03821161000e57610579916004016104d8565b503461000e57602061ffff610ed6610e9f36610e4e565b9390911660005260018452610ec1610ec8604060002060405192838092611740565b0382610b0b565b848151910120923691610bda565b82815191012014604051908152f35b503461000e57602036600319011261000e5761ffff610f026104b6565b1660005260036020526020604060002054604051908152f35b503461000e57600036600319011261000e5760206040516daaeb6d7670e522a718067333cd4e8152f35b503461000e57610f5436610e4e565b9190600092839160018060a01b03610f708185541633146130e2565b7f00000000000000000000000000000000000000000000000000000000000000001690813b15610fce5783610fbc95604051968795869485936342d65a8d60e01b855260048501613c44565b03925af1801561083b5761082f575080f35b8380fd5b503461000e57600036600319011261000e57602060ff601154166040519015158152f35b5061010036600319011261000e5761100c6106a5565b6110146104c7565b6001600160401b03919060443583811161000e57611036903690600401610c11565b60643584811161000e5761104e903690600401610b52565b60843585811161000e57611066903690600401610b52565b9061106f6109b7565b926110786106b4565b9460e43597881161000e57611094610620983690600401610c11565b96612c22565b5061010036600319011261000e576004356110b481610694565b6110bc6104c7565b6001600160401b03919060443583811161000e576110de903690600401610c11565b9060a4356110eb81610694565b60c435916110f883610694565b60e43595861161000e57611113610620963690600401610c11565b9361111f6064356130b1565b9061112b6084356130b1565b923497612cf4565b90815180825260208080930193019160005b828110611153575050505090565b835185529381019392810192600101611145565b9060206108f1928181520190611133565b503461000e57604036600319011261000e576004356001600160401b0380821161000e573660238301121561000e5781600401356111b581610b2c565b926111c36040519485610b0b565b81845260209160248386019160051b8301019136831161000e57602401905b82821061121b578560243586811161000e576109289161120961120f923690600401610b52565b90614414565b60405191829182611167565b838091833561122981610694565b8152019101906111e2565b503461000e57602036600319011261000e57600435600052600960205260206040600020541515604051908152f35b602060031982011261000e57600435906001600160401b03821161000e578060238301121561000e578160246108f193600401359101610bda565b503461000e576112ad36611263565b60006112c360018060a01b0382541633146130e2565b81516001600160401b0381116113ac575b6112e8816112e3601054611662565b6135b6565b602080601f831160011461132457508293829392611319575b50508160011b916000199060031b1c19161760105580f35b015190503880611301565b90601f1983169461135760106000527f1b6847dc741a1b0cd08d278845f9d819d87b734759afb55fe2de5cb82a9ae67290565b9285905b87821061139457505083600195961061137b575b505050811b0160105580f35b015160001960f88460031b161c1916905538808061136f565b8060018596829496860151815501950193019061135b565b6113b4610a83565b6112d4565b503461000e576113c836611263565b60006113de60018060a01b0382541633146130e2565b81516001600160401b0381116114c7575b611403816113fe600854611662565b613617565b602080601f831160011461143f57508293829392611434575b50508160011b916000199060031b1c19161760085580f35b01519050388061141c565b90601f1983169461147260086000527ff3f7a9fe364faab93b216da50a3214154f22a0a2b415b23a84c8169e8b636ee390565b9285905b8782106114af575050836001959610611496575b505050811b0160085580f35b015160001960f88460031b161c1916905538808061148a565b80600185968294968601518155019501930190611476565b6114cf610a83565b6113ef565b503461000e57606036600319011261000e576114ee6104b6565b6024356001600160401b03811161000e5761092891611549602061151961156a943690600401610c11565b61ffff6044359461152986610505565b166000526005825260406000208260405194838680955193849201610898565b820190815203019020906001600160401b0316600052602052604060002090565b546040519081529081906020820190565b503461000e5761158a36610516565b91929493903033036115ae576106126115a892610620973691610bda565b92613e83565b60405162461bcd60e51b815260206004820152602660248201527f4e6f6e626c6f636b696e674c7a4170703a2063616c6c6572206d7573742062656044820152650204c7a4170760d41b6064820152608490fd5b503461000e5760008060031936011261084c57805481906001600160a01b0381169061162f3383146130e2565b6001600160a01b03191682557f8be0079c531659141344cd1fd0a4f28419497f9722a3daafe3b4186f6b6457e08280a380f35b90600182811c92168015611692575b602083101461167c57565b634e487b7160e01b600052602260045260246000fd5b91607f1691611671565b600854600092916116ac82611662565b8082529160019081811690811561172357506001146116ca57505050565b9192935060086000527ff3f7a9fe364faab93b216da50a3214154f22a0a2b415b23a84c8169e8b636ee3916000925b84841061170b57505060209250010190565b805460208585018101919091529093019281016116f9565b915050602093945060ff929192191683830152151560051b010190565b906000929180549161175183611662565b9182825260019384811690816000146117b35750600114611773575b50505050565b90919394506000526020928360002092846000945b83861061179f57505050500101903880808061176d565b805485870183015294019385908201611788565b9294505050602093945060ff191683830152151560051b0101903880808061176d565b906106b26117ea9260405193848092611740565b0383610b0b565b503461000e57602036600319011261000e5761ffff61180e6104b6565b166000526001602052610928610ec1610914604060002060405192838092611740565b503461000e57602036600319011261000e5760043561184f81610694565b6000546001600160a01b03919061186990831633146130e2565b166001600160601b0360a01b600e541617600e55600080f35b8015150361000e57565b608435906106b282611882565b503461000e5760c036600319011261000e576118b36104b6565b6001600160401b039060243582811161000e576118d4903690600401610c11565b90608435906118e282611882565b60a43593841161000e576118fd61191b943690600401610c11565b926119096044356130b1565b906119156064356130b1565b92612b2b565b60408051928352602083019190915290f35b503461000e57604036600319011261000e57602061197861194c6104b6565b61ffff6119576104c7565b91166000526002835260406000209061ffff16600052602052604060002090565b54604051908152f35b503461000e57600036600319011261000e576000546040516001600160a01b039091168152602090f35b503461000e57602036600319011261000e576119d260018060a01b036000541633146130e2565b600435600c55005b503461000e576119e936611263565b60006119ff60018060a01b0382541633146130e2565b81516001600160401b038111611ae8575b611a2481611a1f600f54611662565b61366d565b602080601f8311600114611a6057508293829392611a55575b50508160011b916000199060031b1c191617600f5580f35b015190503880611a3d565b90601f19831694611a93600f6000527f8d1108e10bcb7c27dddfc02ed9d693a074039d026cf4ea4240b40f7d581ac80290565b9285905b878210611ad0575050836001959610611ab7575b505050811b01600f5580f35b015160001960f88460031b161c19169055388080611aab565b80600185968294968601518155019501930190611a97565b611af0610a83565b611a10565b503461000e57600036600319011261000e576004546040516001600160a01b039091168152602090f35b503461000e57606036600319011261000e57600435604435602435611b4382610694565b73abcc9b596420a9e9172fd5938620e265a0f9df923303611c075761062092611b75600160ff6011541615151461312d565b611b8360125442111561319f565b611b8e811515613211565b611b9b600c54151561327b565b601354611bc9906001600160a01b0390611bc19060081c82165b6001600160a01b031690565b1615156132ed565b611bd1613821565b601354611bf99060081c6001600160a01b0316611bf084600c5461336e565b90853091614fcc565b611c01613389565b926148ea565b60405162461bcd60e51b815260206004820152600f60248201526e6f6e6c7947656c61746f52656c617960881b6044820152606490fd5b503461000e57600036600319011261000e576020600b54604051908152f35b503461000e57602036600319011261000e5761ffff611c7a6104b6565b166000526001602052610ec1611c9a604060002060405192838092611740565b805115611cc457611cb881611cb2610928935161349e565b90614268565b604051918291826108e0565b60405162461bcd60e51b815260206004820152601d60248201527f4c7a4170703a206e6f20747275737465642070617468207265636f72640000006044820152606490fd5b503461000e57600036600319011261000e576020600c54604051908152f35b503461000e57604036600319011261000e57600435611d4681610694565b602435611d5281611882565b611d5b826152e2565b6001600160a01b03821691338314611de257336000908152600760205260409020611db0918391611d9f91905b9060018060a01b0316600052602052604060002090565b9060ff801983541691151516179055565b604051901515815233907f17307eab39ab6107e8899845ad3d59bd9653f200f220920489ca2b5937696c3190602090a3005b60405162461bcd60e51b815260206004820152602960248201527f455243313135353a2073657474696e6720617070726f76616c20737461747573604482015268103337b91039b2b63360b91b6064820152608490fd5b503461000e57611e4836610e4e565b9190600091611e6160018060a01b0384541633146130e2565b604051936020818482880137611e8c6034878481013060601b85820152036014810189520187610b0b565b61ffff8316855260019081815260408620918751916001600160401b038311611fca575b611ec483611ebe8654611662565b866136c3565b80601f8411600114611f34575091808092611f239695948a9b7f8c0400cfe2d1199b1a725c78960bcc2a344d869b80590d0f2bd005db15a572ce9b94611f29575b50501b916000199060031b1c19161790555b60405193849384613c44565b0390a180f35b015192503880611f05565b91939498601f198416611f4c87600052602060002090565b938a905b828210611fb3575050917f8c0400cfe2d1199b1a725c78960bcc2a344d869b80590d0f2bd005db15a572ce999a95939185611f2398969410611f9a575b505050811b019055611f17565b015160001960f88460031b161c19169055388080611f8d565b808886978294978701518155019601940190611f50565b611fd2610a83565b611eb0565b503461000e57600036600319011261000e5760135460405160089190911c6001600160a01b03168152602090f35b503461000e5760c036600319011261000e5761201f6104b6565b6001600160401b039060243582811161000e57612040903690600401610c11565b60443583811161000e57612058903690600401610b52565b60643584811161000e57612070903690600401610b52565b9061207961188c565b9260a43595861161000e5761209561191b963690600401610c11565b94612b2b565b503461000e57600036600319011261000e576040517f00000000000000000000000000000000000000000000000000000000000000006001600160a01b03168152602090f35b503461000e57602036600319011261000e577f5db758e995a17ec1ad84bdef7e8c3293a0bd6179bcce400dff5d4c3d87db726b602060043561212281610694565b6000546001600160a01b03919061213c90831633146130e2565b16806001600160601b0360a01b6004541617600455604051908152a1005b503461000e57602036600319011261000e5760043560005260096020526020604060002054604051908152f35b503461000e57600036600319011261000e5760206040516127108152f35b503461000e57608036600319011261000e576121bf6104b6565b6121c76104c7565b6064356001600160401b03811161000e576121e69036906004016104d8565b60018060a09493941b039160009483612204879586541633146130e2565b7f00000000000000000000000000000000000000000000000000000000000000001691823b156122a4578490612271604051978896879586946332fb62e760e21b865261ffff80921660048701521660248501526044356044850152608060648501526084840191613c23565b03925af18015612297575b612284575080f35b8061229161083892610a9a565b80610a15565b61229f612b1e565b61227c565b8480fd5b506122b236610516565b9161ffff869492961660005260056020526122f981604060002060206040518092878b833787820190815203019020906001600160401b0316600052602052604060002090565b549182156123bb576123aa84836123a37fc264d91f3adc5588250e1551f547752ca0cfa8f6b530d243b9f9f4cab10ea8e59a600061238f846123778e8a8f6123b69f908f61235d906123506123719436908d610bda565b6020815191012014614135565b61ffff166000526005602052604060002090565b9161411c565b906001600160401b0316600052602052604060002090565b5561239b36878d610bda565b933691610bda565b9188613e83565b6040519586958661418b565b0390a1005b60405162461bcd60e51b815260206004820152602360248201527f4e6f6e626c6f636b696e674c7a4170703a206e6f2073746f726564206d65737360448201526261676560e81b6064820152608490fd5b503461000e57606036600319011261000e576124266104b6565b61242e6104c7565b6044359161244760018060a01b036000541633146130e2565b82156124c2576123b67f9d5c7c0b934da8fefa9c7760c98383778a12dfbfc0c3b3106518f43fb9508ac09361ffff831660005260026020528061249c8560406000209061ffff16600052602052604060002090565b556040519384938460409194939294606082019561ffff80921683521660208201520152565b60405162461bcd60e51b81526020600482015260156024820152744c7a4170703a20696e76616c6964206d696e47617360581b6044820152606490fd5b503461000e57606036600319011261000e576001600160401b0360443581811161000e573660238201121561000e57806004013591821161000e57602490369260051b01011161000e576106206024356004356133ba565b503461000e57602036600319011261000e5761257e60018060a01b036000541633146130e2565b6011805460ff19166001179055600435601255005b503461000e5760008060031936011261084c576040519080600f546125b781611662565b8085529160019180831690811561263c57506001146125e1575b61092885611cb881870382610b0b565b9250600f83527f8d1108e10bcb7c27dddfc02ed9d693a074039d026cf4ea4240b40f7d581ac8025b828410612624575050508101602001611cb8826109286125d1565b80546020858701810191909152909301928101612609565b86955061092896935060209250611cb894915060ff191682840152151560051b82010192936125d1565b503461000e57604036600319011261000e57602060ff6126c360043561268b81610694565b6024359061269882610694565b60018060a01b03166000526007845260406000209060018060a01b0316600052602052604060002090565b54166040519015158152f35b503461000e576126de36610e4e565b91906000916126f760018060a01b0384541633146130e2565b61ffff81168352600160209080825260408520916001600160401b038711612827575b61272e876127288554611662565b856136c3565b8590601f88116001146127955750918680879893611f23957ffa41487ad5d6728f0b19276fa1eddc16558578f5109fc39d2dc33c3230470dab999361278a575b501b906000198460031b1c191617905560405193849384613c44565b88013592503861276e565b90601f1988166127aa85600052602060002090565b9288905b828210612810575050918893917ffa41487ad5d6728f0b19276fa1eddc16558578f5109fc39d2dc33c3230470dab9899611f239694106127f6575b505082811b019055611f17565b870135600019600386901b60f8161c1916905538806127e9565b808685968294968c013581550195019301906127ae565b61282f610a83565b61271a565b503461000e5760a036600319011261000e5760043561285281610694565b60243561285e81610694565b6084356001600160401b03811161000e5761287d903690600401610c11565b906001600160a01b038316338114801591908261292e575b91612909575b50156128b257610620926064359160443591614595565b60405162461bcd60e51b815260206004820152602960248201527f455243313135353a2063616c6c6572206973206e6f74206f776e6572206e6f7260448201526808185c1c1c9bdd995960ba1b6064820152608490fd5b6000908152600760209081526040808320338452909152902060ff915054163861289b565b612937336152e2565b612895565b503461000e57600036600319011261000e576020601254604051908152f35b503461000e57602036600319011261000e5760043561297981610694565b6000546001600160a01b039061299290821633146130e2565b8116156129a25761062090614321565b60405162461bcd60e51b815260206004820152602660248201527f4f776e61626c653a206e6577206f776e657220697320746865207a65726f206160448201526564647265737360d01b6064820152608490fd5b503461000e57608036600319011261000e57610928612a136104b6565b612a1b6104c7565b90612a27604435610694565b604051633d7b2f6f60e21b815261ffff91821660048201529116602482015230604482015260648035908201526000816084817f00000000000000000000000000000000000000000000000000000000000000006001600160a01b03165afa908115612ac4575b600091612aa3575b50604051918291826108e0565b612abe913d8091833e612ab68183610b0b565b810190613bfe565b38612a96565b612acc612b1e565b612a8e565b91612afa90612aec6108f195936060865260608601906108bb565b908482036020860152611133565b916040818403910152611133565b919082604091031261000e576020825192015190565b506040513d6000823e3d90fd5b91959493604094612b5c612ba693612b4e61ffff9789519b8c9360208501612ad1565b03601f1981018a5289610b0b565b612b8d8651988996879663040a7bb160e41b885216600487015230602487015260a0604487015260a48601906108bb565b91151560648501528382036003190160848501526108bb565b03817f00000000000000000000000000000000000000000000000000000000000000006001600160a01b03165afa918215612c15575b6000908193612bea57509190565b905061057991925060403d8111612c0e575b612c068183610b0b565b810190612b08565b503d612bfc565b612c1d612b1e565b612bdc565b9593916106b2979593913497612cf4565b9081602091031261000e57516108f181610505565b612c6090602060405192828480945193849201610898565b810103902090565b91612c9a6001600160401b0391612c8c604094979697606087526060870190611133565b908582036020870152611133565b9416910152565b50634e487b7160e01b600052603260045260246000fd5b602090805115612cc6570190565b612cce612ca1565b0190565b6020918151811015612ce7575b60051b010190565b612cef612ca1565b612cdf565b9690939495612d369396989298612d0c87898b612ec2565b604051612d3081612d228a8c8f60208501612ad1565b03601f198101835282610b0b565b86613a2c565b604051630f428ae960e31b815261ffff821660048201523060248201526001600160a01b03956020826044817f00000000000000000000000000000000000000000000000000000000000000008b165afa918215612eb5575b600092612e85575b50845160018103612e1d575061ffff9291612e1891612deb612de4612ddd7f65f8f231660ef9add3da95eb0bbdae4c246f6c10e274fae37b17190637080d4c9899612cb8565b5198612cb8565b5191612c48565b9860405195869516981696849160409194936001600160401b039160608501968552602085015216910152565b0390a4565b6001909493929411612e33575b50505050505050565b7f2d31495ecbe799a81d5475c03585aa019860601fed836229d70e335b732eab3d9361ffff93612e65612e7693612c48565b986040519586951698169684612c68565b0390a438808080808080612e2a565b612ea791925060203d8111612eae575b612e9f8183610b0b565b810190612c33565b9038612d97565b503d612e95565b612ebd612b1e565b612d8f565b6001600160a01b03811693909190338514801561305c575b15612fff578415612fae57612ef2825185511461470c565b612efa613389565b50612f06848385614ed8565b60005b8251811015612f755780612f20612f709285612cd2565b51612f6a86611d88612f32858b612cd2565b51612f4b83611d88876000526006602052604060002090565b54612f5882821015614a09565b03936000526006602052604060002090565b556143fc565b612f09565b509391507f4a39dc06d4c0dbc64b70af90fd698a233a518aa5d07e595d983b8c0526c8f7fb612e18600094604051918291339583614769565b60405162461bcd60e51b815260206004820152602360248201527f455243313135353a206275726e2066726f6d20746865207a65726f206164647260448201526265737360e81b6064820152608490fd5b60405162461bcd60e51b815260206004820152602f60248201527f4f4e4654313135353a2073656e642063616c6c6572206973206e6f74206f776e60448201526e195c881b9bdc88185c1c1c9bdd9959608a1b6064820152608490fd5b50600085815260076020908152604080832033845290915290205460ff16612eda565b9061308982610b2c565b6130966040519182610b0b565b82815280926130a7601f1991610b2c565b0190602036910137565b604051906130be82610aba565b600182526020820160203682378251156130d6575290565b6130de612ca1565b5290565b156130e957565b606460405162461bcd60e51b815260206004820152602060248201527f4f776e61626c653a2063616c6c6572206973206e6f7420746865206f776e65726044820152fd5b1561313457565b60405162461bcd60e51b815260206004820152603e60248201527f416476616e6365644f4e4654313135354761736c6573734f70656e3a204f706560448201527f6e2045646974696f6e20686173206e6f742073746172746564207965742100006064820152608490fd5b156131a657565b60405162461bcd60e51b815260206004820152603960248201527f416476616e6365644f4e4654313135354761736c6573734f70656e3a204f706560448201527f6e2045646974696f6e20686173206265656e20656e6465642e000000000000006064820152608490fd5b1561321857565b60405162461bcd60e51b815260206004820152603560248201527f416476616e6365644f4e4654313135354761736c6573734f70656e3a2043616e6044820152746e6f7420696e76616c696420746f6b656e2069642160581b6064820152608490fd5b1561328257565b60405162461bcd60e51b815260206004820152603960248201527f416476616e6365644f4e4654313135354761736c6573734f70656e3a20796f7560448201527f206e65656420746f2073657420737461626c65207072696365000000000000006064820152608490fd5b156132f457565b60405162461bcd60e51b815260206004820152603560248201527f416476616e6365644f4e4654313135354761736c6573734f70656e3a206e6f746044820152741039bab83837b93a1039ba30b13632903a37b5b2b760591b6064820152608490fd5b50634e487b7160e01b600052601160045260246000fd5b8181029291811591840414171561338157565b6106b2613357565b60405190602082018281106001600160401b038211176133ad575b60405260008252565b6133b5610a83565b6133a4565b6133cd600160ff6011541615151461312d565b6133db60125442111561319f565b801561343e576106b29161342f600c546133f681151561327b565b60135461342590849060081c6001600160a01b0316926134206001600160a01b03851615156132ed565b61336e565b9030903390614fcc565b613437613389565b91336148ea565b60405162461bcd60e51b815260206004820152603260248201527f416476616e6365644f4e4654313135354761736c6573734f70656e3a2043616e6044820152716e6f74206d696e74203020746f6b656e732160701b6064820152608490fd5b60131981019190821161338157565b9190820391821161338157565b1561000e57565b600d546001600160a01b031680156135405760008080806106b2946135158280808047956135066134ff6134f7600b548a61336e565b612710900490565b80986134ad565b90828215613537575bf16134ba565b600e5461352a906001600160a01b0316611bb5565b82821561353757f16134ba565b506108fc61350f565b60405162461bcd60e51b815260206004820152603160248201527f416476616e6365644f4e4654313135354761736c6573734f70656e3a2042656e6044820152706566696369617279206e6f74207365742160781b6064820152608490fd5b8181106135aa575050565b6000815560010161359f565b90601f82116135c3575050565b6106b29160106000527f1b6847dc741a1b0cd08d278845f9d819d87b734759afb55fe2de5cb82a9ae672906020601f840160051c8301931061360d575b601f0160051c019061359f565b9091508190613600565b90601f8211613624575050565b6106b29160086000527ff3f7a9fe364faab93b216da50a3214154f22a0a2b415b23a84c8169e8b636ee3906020601f840160051c8301931061360d57601f0160051c019061359f565b90601f821161367a575050565b6106b291600f6000527f8d1108e10bcb7c27dddfc02ed9d693a074039d026cf4ea4240b40f7d581ac802906020601f840160051c8301931061360d57601f0160051c019061359f565b9190601f81116136d257505050565b6106b2926000526020600020906020601f840160051c8301931061360d57601f0160051c019061359f565b60ff6013541615613766576108f1602061372d60405193613728856137218161169c565b0386610b0b565b615209565b9260405193816137468693518092868087019101610898565b820161375a82518093868085019101610898565b01038084520182610b0b565b5060405160105481600061377983611662565b808352926001908181169081156137ff57506001146137a0575b506108f192500382610b0b565b6010600090815291507f1b6847dc741a1b0cd08d278845f9d819d87b734759afb55fe2de5cb82a9ae6725b8483106137e457506108f1935050810160200138613793565b819350908160209254838589010152019101909184926137cb565b9050602092506108f194915060ff191682840152151560051b82010138613793565b6106b2601f1936013560471936013560601c60331936013560601c9190918115613974576001600160a01b0390811673eeeeeeeeeeeeeeeeeeeeeeeeeeeeeeeeeeeeeeee810361393f57508147106138fa57600092839283928392165af161388761517a565b501561388f57565b60405162461bcd60e51b815260206004820152603a60248201527f416464726573733a20756e61626c6520746f2073656e642076616c75652c207260448201527f6563697069656e74206d617920686176652072657665727465640000000000006064820152608490fd5b60405162461bcd60e51b815260206004820152601d60248201527f416464726573733a20696e73756666696369656e742062616c616e63650000006044820152606490fd5b90916106b293926040519363a9059cbb60e01b602086015216602484015260448301526044825261396f82610ad5565b6150a5565b505050565b1561398057565b60405162461bcd60e51b815260206004820152602660248201527f4c7a4170703a20696e76616c696420736f757263652073656e64696e6720636f6044820152651b9d1c9858dd60d21b6064820152608490fd5b926139f96108f197959361ffff613a079416865260c0602087015260c08601906108bb565b9084820360408601526108bb565b6001600160a01b0391821660608401529316608082015280830360a0909101526108bb565b94613a559193929561ffff81166000526001602052613a5c604060002060405194858092611740565b0384610b0b565b825115613aef57613a6e855182613b4d565b7f00000000000000000000000000000000000000000000000000000000000000006001600160a01b031693843b1561000e57600096613ac391604051998a988997889662c5803160e81b8852600488016139d4565b03925af18015613ae2575b613ad55750565b806122916106b292610a9a565b613aea612b1e565b613ace565b60405162461bcd60e51b815260206004820152603060248201527f4c7a4170703a2064657374696e6174696f6e20636861696e206973206e6f742060448201526f61207472757374656420736f7572636560801b6064820152608490fd5b61ffff166000526003602052604060002054908115613bb2575b11613b6e57565b606460405162461bcd60e51b815260206004820152602060248201527f4c7a4170703a207061796c6f61642073697a6520697320746f6f206c617267656044820152fd5b6127109150613b67565b81601f8201121561000e578051613bd281610bb0565b92613be06040519485610b0b565b8184526020828401011161000e576108f19160208085019101610898565b9060208282031261000e5781516001600160401b03811161000e576108f19201613bbc565b908060209392818452848401376000828201840152601f01601f1916010190565b60409061ffff6108f195931681528160208201520191613c23565b9290915a926040519360208501633356ae4560e11b815261ffff8716602487015260806044870152613cca86613cbc613c9b60a48301876108bb565b6001600160401b0388166064840152828103602319016084840152886108bb565b03601f198101885287610b0b565b600091829182613cd86142e8565b9851923090f13d60968111613d12575b8086526000602087013e15613cff575b5050505050565b613d0894613d1a565b3880808080613cf8565b506096613ce8565b9193613db77fe183f33de2837795525b4792ca4cd60535bd77c53b7e7030060bfcf5734d6b0c95613dc5939561ffff81516020830120961695866000526005602052613d7e8361154960208b60406000208260405194838680955193849201610898565b556001600160401b03613da3604051988998895260a060208a015260a08901906108bb565b9216604087015285820360608701526108bb565b9083820360808501526108bb565b0390a1565b81601f8201121561000e57805191613de183610b2c565b92613def6040519485610b0b565b808452602092838086019260051b82010192831161000e578301905b828210613e19575050505090565b81518152908301908301613e0b565b909160608284031261000e578151916001600160401b039283811161000e5784613e53918301613bbc565b93602082015184811161000e5781613e6c918401613dca565b93604083015190811161000e576108f19201613dca565b92613e9c60149193929360208082518301019101613e28565b9391929092015191613eaf848285613fa1565b805160018103613f34575091612e1861ffff92613f00613ef9613ef27f330378e2f010257b2fbe836316fb7ab303af5ed8f2795b82bca60d1c8c909f7697612cb8565b5197612cb8565b5197612c48565b9660405194859460018060a01b0316991696849160409194936001600160401b039160608501968552602085015216910152565b600190959391949511613f4a575b505050505050565b613f9361ffff92613f7b7f5604161d52abb20dbe3d4a2230e585a0b230b3d18179a0e00917b173f5f9adab95612c48565b9660405194859460018060a01b031699169684612c68565b0390a4388080808080613f42565b929160405192613fb084610af0565b600084526001600160a01b038516801594909190613fce8615614894565b613fdb855185511461470c565b60005b85518110156140385780613ff56140269287612cd2565b51614014614003838a612cd2565b516000526009602052604060002090565b805491820180921161402b57556143fc565b613fde565b614033613357565b612f6a565b509091946140da575b60005b8451811015614095578061405b6140909286612cd2565b516140896140818a611d88614070868c612cd2565b516000526006602052604060002090565b9182546141de565b90556143fc565b614044565b509290946106b29460006040517f4a39dc06d4c0dbc64b70af90fd698a233a518aa5d07e595d983b8c0526c8f7fb3391806140d1898983614769565b0390a433614e67565b939060005b845181101561411457806140f661410f9286612cd2565b51614089614107614003848a612cd2565b9182546134ad565b6140df565b509093614041565b6020919283604051948593843782019081520301902090565b1561413c57565b60405162461bcd60e51b815260206004820152602160248201527f4e6f6e626c6f636b696e674c7a4170703a20696e76616c6964207061796c6f616044820152601960fa1b6064820152608490fd5b916141b79060609461ffff6001600160401b039499989799168552608060208601526080850191613c23565b951660408201520152565b90601f820180921161338157565b603001908160301161338157565b9190820180921161338157565b156141f257565b60405162461bcd60e51b815260206004820152600e60248201526d736c6963655f6f766572666c6f7760901b6044820152606490fd5b1561422f57565b60405162461bcd60e51b8152602060048201526011602482015270736c6963655f6f75744f66426f756e647360781b6044820152606490fd5b61427c82614275816141c2565b10156141eb565b6142898282511015614228565b816142a1575050604051600081526020810160405290565b60405191601f811691821560051b808486010193838501920101905b8084106142d55750508252601f01601f191660405290565b90928351815260208091019301906142bd565b6040519060c082018281106001600160401b03821117614314575b6040526096825260a0366020840137565b61431c610a83565b614303565b600080546001600160a01b039283166001600160a01b03198216811783559216907f8be0079c531659141344cd1fd0a4f28419497f9722a3daafe3b4186f6b6457e09080a3565b6001600160a01b038116156143a35761439f91600052600660205260406000209060018060a01b0316600052602052604060002090565b5490565b60405162461bcd60e51b815260206004820152602b60248201527f455243313135353a2062616c616e636520717565727920666f7220746865207a60448201526a65726f206164647265737360a81b6064820152608490fd5b600190600019811461440c570190565b612cce613357565b91909180518351036144855761442a815161307f565b9060005b815181101561447e578061446961445861444b6144799486612cd2565b516001600160a01b031690565b6144628389612cd2565b5190614368565b6144738286612cd2565b526143fc565b61442e565b5090925050565b60405162461bcd60e51b815260206004820152602960248201527f455243313135353a206163636f756e747320616e6420696473206c656e677468604482015268040dad2e6dac2e8c6d60bb1b6064820152608490fd5b156144e357565b60405162461bcd60e51b815260206004820152602560248201527f455243313135353a207472616e7366657220746f20746865207a65726f206164604482015264647265737360d81b6064820152608490fd5b1561453d57565b60405162461bcd60e51b815260206004820152602a60248201527f455243313135353a20696e73756666696369656e742062616c616e636520666f60448201526939103a3930b739b332b960b11b6064820152608490fd5b6001600160a01b0395949392919086821680156145b281156144dc565b6145bb856130b1565b6145c4876130b1565b9984169182156146c8575b614679575b506106b2979850856145f484611d88886000526006602052604060002090565b5461460182821015614536565b0361461a84611d88886000526006602052604060002090565b5561463384611d88876000526006602052604060002090565b61463e8782546141de565b9055604080518681526020810188905233917fc3d58168c5ae7397731d063d5bbf3d657854427343f4c083240f7aacaa2d0f6291a433614d13565b969492909795939160005b88518110156146b35780896140896141076140038f956146a7816146ae98612cd2565b5194612cd2565b614684565b509193959850919395506106b29688976145d4565b98969492909795939160005b8b8a518210156146fc57908a614089614081614003846146a7816146f798612cd2565b6146d4565b50509193959790929496986145cf565b1561471357565b60405162461bcd60e51b815260206004820152602860248201527f455243313135353a2069647320616e6420616d6f756e7473206c656e677468206044820152670dad2e6dac2e8c6d60c31b6064820152608490fd5b90916147806108f193604084526040840190611133565b916020818403910152611133565b9394929190926147a1825184511461470c565b6001600160a01b03958487166147b88115156144dc565b6147c48585888a614f53565b60005b845181101561484c5780886140896140818a611d888b6147f5876147ee6148479a8f612cd2565b5192612cd2565b51956148368761481383611d88866000526006602052604060002090565b5461482082821015614536565b0391611d88846000526006602052604060002090565b556000526006602052604060002090565b6147c7565b506106b29691959297604051908316907f4a39dc06d4c0dbc64b70af90fd698a233a518aa5d07e595d983b8c0526c8f7fb33918061488b8a8a83614769565b0390a433614e9e565b1561489b57565b60405162461bcd60e51b815260206004820152602160248201527f455243313135353a206d696e7420746f20746865207a65726f206164647265736044820152607360f81b6064820152608490fd5b6001600160a01b03811694851594919390926149068615614894565b61490f816130b1565b94614919836130b1565b9760005b875181101561494a5780614934614945928c612cd2565b51614089614081614003848d612cd2565b61491d565b50919395909294966149c0575b506106b295965061497682611d88856000526006602052604060002090565b6149818582546141de565b9055604080518481526020810186905260009133917fc3d58168c5ae7397731d063d5bbf3d657854427343f4c083240f7aacaa2d0f629190a433614baf565b94929095939160005b86518110156149f657806149e06149f1928b612cd2565b51614089614107614003848c612cd2565b6149c9565b50919396509193506106b2948695614957565b15614a1057565b60405162461bcd60e51b8152602060048201526024808201527f455243313135353a206275726e20616d6f756e7420657863656564732062616c604482015263616e636560e01b6064820152608490fd5b9081602091031261000e57516108f1816106f5565b909260a0926108f19594600180861b03168352600060208401526040830152606082015281608082015201906108bb565b91926108f195949160a094600180871b0380921685521660208401526040830152606082015281608082015201906108bb565b60809060208152602860208201527f455243313135353a204552433131353552656365697665722072656a656374656040820152676420746f6b656e7360c01b60608201520190565b60009060033d11614b3057565b905060046000803e60005160e01c90565b600060443d106108f157604051600319913d83016004833e81516001600160401b03918282113d602484011117614b9e57818401948551938411614ba6573d85010160208487010111614b9e57506108f192910160200190610b0b565b949350505050565b50949350505050565b9390803b614bbe575050505050565b614be69360006020946040519687958694859363f23a6e6160e01b9b8c865260048601614a76565b03926001600160a01b03165af160009181614ce3575b50614cbb5750506001614c0d614b23565b6308c379a014614c8c575b614c26573880808080613cf8565b60405162461bcd60e51b815260206004820152603460248201527f455243313135353a207472616e7366657220746f206e6f6e20455243313135356044820152732932b1b2b4bb32b91034b6b83632b6b2b73a32b960611b6064820152608490fd5b0390fd5b614c94614b41565b80614c9f5750614c18565b60405162461bcd60e51b8152908190614c8890600483016108e0565b6001600160e01b03191614613d085760405162461bcd60e51b815280614c8860048201614ada565b614d0591925060203d8111614d0c575b614cfd8183610b0b565b810190614a61565b9038614bfc565b503d614cf3565b9493919092813b614d2657505050505050565b6000602094614d4d6040519788968795869463f23a6e6160e01b9c8d875260048701614aa7565b03926001600160a01b03165af160009181614dca575b50614da25750506001614d74614b23565b6308c379a014614d8f575b614c26575b388080808080613f42565b614d97614b41565b80614c9f5750614d7f565b6001600160e01b03191614614d845760405162461bcd60e51b815280614c8860048201614ada565b614de391925060203d8111614d0c57614cfd8183610b0b565b9038614d63565b92614e196108f19593614e279360018060a01b031686526000602087015260a0604087015260a0860190611133565b908482036060860152611133565b9160808184039101526108bb565b93906108f19593614e1991614e279460018060a01b03809216885216602087015260a0604087015260a0860190611133565b9390803b614e76575050505050565b614be69360006020946040519687958694859363bc197c8160e01b9b8c865260048601614dea565b9493919092813b614eb157505050505050565b6000602094614d4d6040519788968795869463bc197c8160e01b9c8d875260048701614e35565b9192916001600160a01b031615614f20575b60005b8151811015614f1a5780614f04614f159286612cd2565b516140896141076140038487612cd2565b614eed565b50509050565b60005b8151811015614f4d5780614f3a614f489286612cd2565b516140146140038386612cd2565b614f23565b50614eea565b9293926001600160a01b039190821615614f92575b1615614f7357509050565b60005b8151811015614f1a5780614f04614f8d9286612cd2565b614f76565b929060005b8351811015614fc45780614fae614fbf9288612cd2565b516140896140816140038489612cd2565b614f97565b509092614f68565b6040516323b872dd60e01b60208201526001600160a01b0392831660248201529290911660448301526064808301939093529181526106b29160a082018281106001600160401b03821117615024575b6040526150a5565b61502c610a83565b61501c565b9081602091031261000e57516108f181611882565b1561504d57565b60405162461bcd60e51b815260206004820152602a60248201527f5361666545524332303a204552433230206f7065726174696f6e20646964206e6044820152691bdd081cdd58d8d9595960b21b6064820152608490fd5b6040516001600160a01b0391909116916150be82610aba565b6020928383527f5361666545524332303a206c6f772d6c6576656c2063616c6c206661696c656484840152803b1561513557600082819282876151109796519301915af161510a61517a565b906151aa565b8051908161511d57505050565b826106b293615130938301019101615031565b615046565b60405162461bcd60e51b815260048101859052601d60248201527f416464726573733a2063616c6c20746f206e6f6e2d636f6e74726163740000006044820152606490fd5b3d156151a5573d9061518b82610bb0565b916151996040519384610b0b565b82523d6000602084013e565b606090565b909190156151b6575090565b8151156151c65750805190602001fd5b60405162461bcd60e51b815260206004820152908190614c889060248301906108bb565b9060209180518210156151fc57010190565b615204612ca1565b010190565b80156152c457806000908282935b6152b0575061522583610bb0565b926152336040519485610b0b565b80845281601f1961524383610bb0565b013660208701375b6152555750505090565b60001981019081116152a3575b8091600a9161529a61529161528161527b8686066141d0565b60ff1690565b60f81b6001600160f81b03191690565b861a91876151ea565b5304908161524b565b6152ab613357565b615262565b926152bc600a916143fc565b930480615217565b506040516152d181610aba565b60018152600360fc1b602082015290565b6daaeb6d7670e522a718067333cd4e803b6152fb575050565b604051633185c44d60e21b81523060048201526001600160a01b038316602482015290602090829060449082905afa908115615394575b600091615366575b50156153435750565b604051633b79c77360e21b81526001600160a01b03919091166004820152602490fd5b615387915060203d811161538d575b61537f8183610b0b565b810190615031565b3861533a565b503d615375565b61539c612b1e565b61533256fea26469706673582212200faffd3d06bbb6f1ae3c6719c20d6075274a1175545fd6c90a9cdf7d16f0b8c964736f6c63430008110033",
    "linkReferences": {}
  },
  "methodIdentifiers": {
    "DEFAULT_PAYLOAD_SIZE_LIMIT()": "c4461834",
    "OPERATOR_FILTER_REGISTRY()": "41f43434",
    "_openEditionStarted()": "45e559c0",
    "balanceOf(address,uint256)": "00fdd58e",
    "balanceOfBatch(address[],uint256[])": "4e1273f4",
    "contractURI()": "e8a3d485",
    "estimateSendBatchFee(uint16,bytes,uint256[],uint256[],bool,bytes)": "b2535663",
    "estimateSendFee(uint16,bytes,uint256,uint256,bool,bytes)": "8608e5f8",
    "exists(uint256)": "4f558e79",
    "failedMessages(uint16,bytes,uint64)": "5b8c41e6",
    "flipRevealed()": "3b2c3fb6",
    "forceResumeReceive(uint16,bytes)": "42d65a8d",
    "getConfig(uint16,uint16,address,uint256)": "f5ecbdbc",
    "getTrustedRemoteAddress(uint16)": "9f38369a",
    "isApprovedForAll(address,address)": "e985e9c5",
    "isTrustedRemote(uint16,bytes)": "3d8b38f6",
    "lzEndpoint()": "b353aaa7",
    "lzReceive(uint16,bytes,uint64,bytes)": "001d3567",
    "minDstGasLookup(uint16,uint16)": "8cfd8f5c",
    "mint(uint256,uint256,bytes32[])": "e6d37b88",
    "mintGasless(uint256,uint256,address)": "988d4038",
    "nonblockingLzReceive(uint16,bytes,uint64,bytes)": "66ad5c8a",
    "openEditionEndedBy()": "f2d5d8de",
    "owner()": "8da5cb5b",
    "payloadSizeLimitLookup(uint16)": "3f1f4fa4",
    "precrime()": "950c8a74",
    "price()": "a035b1fe",
    "renounceOwnership()": "715018a6",
    "retryMessage(uint16,bytes,uint64,bytes)": "d1deba1f",
    "safeBatchTransferFrom(address,address,uint256[],uint256[],bytes)": "2eb2c2d6",
    "safeTransferFrom(address,address,uint256,uint256,bytes)": "f242432a",
    "sendBatchFrom(address,uint16,bytes,uint256[],uint256[],address,address,bytes)": "4ab4e687",
    "sendFrom(address,uint16,bytes,uint256,uint256,address,address,bytes)": "4db8226a",
    "setApprovalForAll(address,bool)": "a22cb465",
    "setBaseURI(string)": "55f804b3",
    "setBeneficiary(address)": "1c31f710",
    "setConfig(uint16,uint16,uint256,bytes)": "cbed8b9c",
    "setContractURI(string)": "938e3d7b",
    "setHiddenMetadataUri(string)": "4fdd43cb",
    "setMinDstGas(uint16,uint16,uint256)": "df2a5b3b",
    "setPayloadSizeLimit(uint16,uint256)": "0df37483",
    "setPrecrime(address)": "baf3292d",
    "setPrice(uint256)": "91b7f5ed",
    "setReceiveVersion(uint16)": "10ddb137",
    "setSendVersion(uint16)": "07e0db17",
    "setTax(uint256)": "2e5bb6ff",
    "setTaxRecipient(address)": "78e3079e",
    "setTrustedRemote(uint16,bytes)": "eb8d72b7",
    "setTrustedRemoteAddress(uint16,bytes)": "a6c3d165",
    "stableToken()": "a9d75b2b",
    "startOpenEdition(uint256)": "e87ebdfa",
    "stopOpenEdition()": "24a23d4f",
    "supportsInterface(bytes4)": "01ffc9a7",
    "tax()": "99c8d556",
    "totalSupply(uint256)": "bd85b039",
    "transferOwnership(address)": "f2fde38b",
    "trustedRemoteLookup(uint16)": "7533d788",
    "uri(uint256)": "0e89341c",
    "withdraw()": "3ccfd60b"
  },
  "id": 174
}