{
  "abi": [
    {
      "inputs": [
        {
          "internalType": "address",
          "name": "_layerZeroEndpoint",
          "type": "address"
        },
        {
          "internalType": "string",
          "name": "_baseTokenURI",
          "type": "string"
        },
        {
          "internalType": "string",
          "name": "_hiddenURI",
          "type": "string"
        },
        {
          "internalType": "uint256",
          "name": "_tax",
          "type": "uint256"
        },
        {
          "internalType": "address",
          "name": "_taxRecipient",
          "type": "address"
        }
      ],
      "stateMutability": "nonpayable",
      "type": "constructor"
    },
    {
      "inputs": [
        {
          "internalType": "address",
          "name": "operator",
          "type": "address"
        }
      ],
      "name": "OperatorNotAllowed",
      "type": "error"
    },
    {
      "anonymous": false,
      "inputs": [
        {
          "indexed": true,
          "internalType": "address",
          "name": "account",
          "type": "address"
        },
        {
          "indexed": true,
          "internalType": "address",
          "name": "operator",
          "type": "address"
        },
        {
          "indexed": false,
          "internalType": "bool",
          "name": "approved",
          "type": "bool"
        }
      ],
      "name": "ApprovalForAll",
      "type": "event"
    },
    {
      "anonymous": false,
      "inputs": [
        {
          "indexed": false,
          "internalType": "uint16",
          "name": "_srcChainId",
          "type": "uint16"
        },
        {
          "indexed": false,
          "internalType": "bytes",
          "name": "_srcAddress",
          "type": "bytes"
        },
        {
          "indexed": false,
          "internalType": "uint64",
          "name": "_nonce",
          "type": "uint64"
        },
        {
          "indexed": false,
          "internalType": "bytes",
          "name": "_payload",
          "type": "bytes"
        },
        {
          "indexed": false,
          "internalType": "bytes",
          "name": "_reason",
          "type": "bytes"
        }
      ],
      "name": "MessageFailed",
      "type": "event"
    },
    {
      "anonymous": false,
      "inputs": [
        {
          "indexed": true,
          "internalType": "address",
          "name": "previousOwner",
          "type": "address"
        },
        {
          "indexed": true,
          "internalType": "address",
          "name": "newOwner",
          "type": "address"
        }
      ],
      "name": "OwnershipTransferred",
      "type": "event"
    },
    {
      "anonymous": false,
      "inputs": [
        {
          "indexed": true,
          "internalType": "uint16",
          "name": "_srcChainId",
          "type": "uint16"
        },
        {
          "indexed": true,
          "internalType": "bytes",
          "name": "_srcAddress",
          "type": "bytes"
        },
        {
          "indexed": true,
          "internalType": "address",
          "name": "_toAddress",
          "type": "address"
        },
        {
          "indexed": false,
          "internalType": "uint256[]",
          "name": "_tokenIds",
          "type": "uint256[]"
        },
        {
          "indexed": false,
          "internalType": "uint256[]",
          "name": "_amounts",
          "type": "uint256[]"
        },
        {
          "indexed": false,
          "internalType": "uint64",
          "name": "_nonce",
          "type": "uint64"
        }
      ],
      "name": "ReceiveBatchFromChain",
      "type": "event"
    },
    {
      "anonymous": false,
      "inputs": [
        {
          "indexed": true,
          "internalType": "uint16",
          "name": "_srcChainId",
          "type": "uint16"
        },
        {
          "indexed": true,
          "internalType": "bytes",
          "name": "_srcAddress",
          "type": "bytes"
        },
        {
          "indexed": true,
          "internalType": "address",
          "name": "_toAddress",
          "type": "address"
        },
        {
          "indexed": false,
          "internalType": "uint256",
          "name": "_tokenId",
          "type": "uint256"
        },
        {
          "indexed": false,
          "internalType": "uint256",
          "name": "_amount",
          "type": "uint256"
        },
        {
          "indexed": false,
          "internalType": "uint64",
          "name": "_nonce",
          "type": "uint64"
        }
      ],
      "name": "ReceiveFromChain",
      "type": "event"
    },
    {
      "anonymous": false,
      "inputs": [
        {
          "indexed": false,
          "internalType": "uint16",
          "name": "_srcChainId",
          "type": "uint16"
        },
        {
          "indexed": false,
          "internalType": "bytes",
          "name": "_srcAddress",
          "type": "bytes"
        },
        {
          "indexed": false,
          "internalType": "uint64",
          "name": "_nonce",
          "type": "uint64"
        },
        {
          "indexed": false,
          "internalType": "bytes32",
          "name": "_payloadHash",
          "type": "bytes32"
        }
      ],
      "name": "RetryMessageSuccess",
      "type": "event"
    },
    {
      "anonymous": false,
      "inputs": [
        {
          "indexed": true,
          "internalType": "address",
          "name": "_sender",
          "type": "address"
        },
        {
          "indexed": true,
          "internalType": "uint16",
          "name": "_dstChainId",
          "type": "uint16"
        },
        {
          "indexed": true,
          "internalType": "bytes",
          "name": "_toAddress",
          "type": "bytes"
        },
        {
          "indexed": false,
          "internalType": "uint256[]",
          "name": "_tokenIds",
          "type": "uint256[]"
        },
        {
          "indexed": false,
          "internalType": "uint256[]",
          "name": "_amounts",
          "type": "uint256[]"
        },
        {
          "indexed": false,
          "internalType": "uint64",
          "name": "_nonce",
          "type": "uint64"
        }
      ],
      "name": "SendBatchToChain",
      "type": "event"
    },
    {
      "anonymous": false,
      "inputs": [
        {
          "indexed": true,
          "internalType": "address",
          "name": "_sender",
          "type": "address"
        },
        {
          "indexed": true,
          "internalType": "uint16",
          "name": "_dstChainId",
          "type": "uint16"
        },
        {
          "indexed": true,
          "internalType": "bytes",
          "name": "_toAddress",
          "type": "bytes"
        },
        {
          "indexed": false,
          "internalType": "uint256",
          "name": "_tokenId",
          "type": "uint256"
        },
        {
          "indexed": false,
          "internalType": "uint256",
          "name": "_amount",
          "type": "uint256"
        },
        {
          "indexed": false,
          "internalType": "uint64",
          "name": "_nonce",
          "type": "uint64"
        }
      ],
      "name": "SendToChain",
      "type": "event"
    },
    {
      "anonymous": false,
      "inputs": [
        {
          "indexed": false,
          "internalType": "uint16",
          "name": "_dstChainId",
          "type": "uint16"
        },
        {
          "indexed": false,
          "internalType": "uint16",
          "name": "_type",
          "type": "uint16"
        },
        {
          "indexed": false,
          "internalType": "uint256",
          "name": "_minDstGas",
          "type": "uint256"
        }
      ],
      "name": "SetMinDstGas",
      "type": "event"
    },
    {
      "anonymous": false,
      "inputs": [
        {
          "indexed": false,
          "internalType": "address",
          "name": "precrime",
          "type": "address"
        }
      ],
      "name": "SetPrecrime",
      "type": "event"
    },
    {
      "anonymous": false,
      "inputs": [
        {
          "indexed": false,
          "internalType": "uint16",
          "name": "_remoteChainId",
          "type": "uint16"
        },
        {
          "indexed": false,
          "internalType": "bytes",
          "name": "_path",
          "type": "bytes"
        }
      ],
      "name": "SetTrustedRemote",
      "type": "event"
    },
    {
      "anonymous": false,
      "inputs": [
        {
          "indexed": false,
          "internalType": "uint16",
          "name": "_remoteChainId",
          "type": "uint16"
        },
        {
          "indexed": false,
          "internalType": "bytes",
          "name": "_remoteAddress",
          "type": "bytes"
        }
      ],
      "name": "SetTrustedRemoteAddress",
      "type": "event"
    },
    {
      "anonymous": false,
      "inputs": [
        {
          "indexed": true,
          "internalType": "address",
          "name": "operator",
          "type": "address"
        },
        {
          "indexed": true,
          "internalType": "address",
          "name": "from",
          "type": "address"
        },
        {
          "indexed": true,
          "internalType": "address",
          "name": "to",
          "type": "address"
        },
        {
          "indexed": false,
          "internalType": "uint256[]",
          "name": "ids",
          "type": "uint256[]"
        },
        {
          "indexed": false,
          "internalType": "uint256[]",
          "name": "values",
          "type": "uint256[]"
        }
      ],
      "name": "TransferBatch",
      "type": "event"
    },
    {
      "anonymous": false,
      "inputs": [
        {
          "indexed": true,
          "internalType": "address",
          "name": "operator",
          "type": "address"
        },
        {
          "indexed": true,
          "internalType": "address",
          "name": "from",
          "type": "address"
        },
        {
          "indexed": true,
          "internalType": "address",
          "name": "to",
          "type": "address"
        },
        {
          "indexed": false,
          "internalType": "uint256",
          "name": "id",
          "type": "uint256"
        },
        {
          "indexed": false,
          "internalType": "uint256",
          "name": "value",
          "type": "uint256"
        }
      ],
      "name": "TransferSingle",
      "type": "event"
    },
    {
      "anonymous": false,
      "inputs": [
        {
          "indexed": false,
          "internalType": "string",
          "name": "value",
          "type": "string"
        },
        {
          "indexed": true,
          "internalType": "uint256",
          "name": "id",
          "type": "uint256"
        }
      ],
      "name": "URI",
      "type": "event"
    },
    {
      "inputs": [],
      "name": "DEFAULT_PAYLOAD_SIZE_LIMIT",
      "outputs": [
        {
          "internalType": "uint256",
          "name": "",
          "type": "uint256"
        }
      ],
      "stateMutability": "view",
      "type": "function"
    },
    {
      "inputs": [],
      "name": "OPERATOR_FILTER_REGISTRY",
      "outputs": [
        {
          "internalType": "contract IOperatorFilterRegistry",
          "name": "",
          "type": "address"
        }
      ],
      "stateMutability": "view",
      "type": "function"
    },
    {
      "inputs": [],
      "name": "_openEditionStarted",
      "outputs": [
        {
          "internalType": "bool",
          "name": "",
          "type": "bool"
        }
      ],
      "stateMutability": "view",
      "type": "function"
    },
    {
      "inputs": [
        {
          "internalType": "address",
          "name": "account",
          "type": "address"
        },
        {
          "internalType": "uint256",
          "name": "id",
          "type": "uint256"
        }
      ],
      "name": "balanceOf",
      "outputs": [
        {
          "internalType": "uint256",
          "name": "",
          "type": "uint256"
        }
      ],
      "stateMutability": "view",
      "type": "function"
    },
    {
      "inputs": [
        {
          "internalType": "address[]",
          "name": "accounts",
          "type": "address[]"
        },
        {
          "internalType": "uint256[]",
          "name": "ids",
          "type": "uint256[]"
        }
      ],
      "name": "balanceOfBatch",
      "outputs": [
        {
          "internalType": "uint256[]",
          "name": "",
          "type": "uint256[]"
        }
      ],
      "stateMutability": "view",
      "type": "function"
    },
    {
      "inputs": [],
      "name": "contractURI",
      "outputs": [
        {
          "internalType": "string",
          "name": "",
          "type": "string"
        }
      ],
      "stateMutability": "view",
      "type": "function"
    },
    {
      "inputs": [
        {
          "internalType": "uint16",
          "name": "_dstChainId",
          "type": "uint16"
        },
        {
          "internalType": "bytes",
          "name": "_toAddress",
          "type": "bytes"
        },
        {
          "internalType": "uint256[]",
          "name": "_tokenIds",
          "type": "uint256[]"
        },
        {
          "internalType": "uint256[]",
          "name": "_amounts",
          "type": "uint256[]"
        },
        {
          "internalType": "bool",
          "name": "_useZro",
          "type": "bool"
        },
        {
          "internalType": "bytes",
          "name": "_adapterParams",
          "type": "bytes"
        }
      ],
      "name": "estimateSendBatchFee",
      "outputs": [
        {
          "internalType": "uint256",
          "name": "nativeFee",
          "type": "uint256"
        },
        {
          "internalType": "uint256",
          "name": "zroFee",
          "type": "uint256"
        }
      ],
      "stateMutability": "view",
      "type": "function"
    },
    {
      "inputs": [
        {
          "internalType": "uint16",
          "name": "_dstChainId",
          "type": "uint16"
        },
        {
          "internalType": "bytes",
          "name": "_toAddress",
          "type": "bytes"
        },
        {
          "internalType": "uint256",
          "name": "_tokenId",
          "type": "uint256"
        },
        {
          "internalType": "uint256",
          "name": "_amount",
          "type": "uint256"
        },
        {
          "internalType": "bool",
          "name": "_useZro",
          "type": "bool"
        },
        {
          "internalType": "bytes",
          "name": "_adapterParams",
          "type": "bytes"
        }
      ],
      "name": "estimateSendFee",
      "outputs": [
        {
          "internalType": "uint256",
          "name": "nativeFee",
          "type": "uint256"
        },
        {
          "internalType": "uint256",
          "name": "zroFee",
          "type": "uint256"
        }
      ],
      "stateMutability": "view",
      "type": "function"
    },
    {
      "inputs": [
        {
          "internalType": "uint256",
          "name": "id",
          "type": "uint256"
        }
      ],
      "name": "exists",
      "outputs": [
        {
          "internalType": "bool",
          "name": "",
          "type": "bool"
        }
      ],
      "stateMutability": "view",
      "type": "function"
    },
    {
      "inputs": [
        {
          "internalType": "uint16",
          "name": "",
          "type": "uint16"
        },
        {
          "internalType": "bytes",
          "name": "",
          "type": "bytes"
        },
        {
          "internalType": "uint64",
          "name": "",
          "type": "uint64"
        }
      ],
      "name": "failedMessages",
      "outputs": [
        {
          "internalType": "bytes32",
          "name": "",
          "type": "bytes32"
        }
      ],
      "stateMutability": "view",
      "type": "function"
    },
    {
      "inputs": [],
      "name": "flipRevealed",
      "outputs": [],
      "stateMutability": "nonpayable",
      "type": "function"
    },
    {
      "inputs": [
        {
          "internalType": "uint16",
          "name": "_srcChainId",
          "type": "uint16"
        },
        {
          "internalType": "bytes",
          "name": "_srcAddress",
          "type": "bytes"
        }
      ],
      "name": "forceResumeReceive",
      "outputs": [],
      "stateMutability": "nonpayable",
      "type": "function"
    },
    {
      "inputs": [
        {
          "internalType": "uint16",
          "name": "_version",
          "type": "uint16"
        },
        {
          "internalType": "uint16",
          "name": "_chainId",
          "type": "uint16"
        },
        {
          "internalType": "address",
          "name": "",
          "type": "address"
        },
        {
          "internalType": "uint256",
          "name": "_configType",
          "type": "uint256"
        }
      ],
      "name": "getConfig",
      "outputs": [
        {
          "internalType": "bytes",
          "name": "",
          "type": "bytes"
        }
      ],
      "stateMutability": "view",
      "type": "function"
    },
    {
      "inputs": [
        {
          "internalType": "uint16",
          "name": "_remoteChainId",
          "type": "uint16"
        }
      ],
      "name": "getTrustedRemoteAddress",
      "outputs": [
        {
          "internalType": "bytes",
          "name": "",
          "type": "bytes"
        }
      ],
      "stateMutability": "view",
      "type": "function"
    },
    {
      "inputs": [
        {
          "internalType": "address",
          "name": "account",
          "type": "address"
        },
        {
          "internalType": "address",
          "name": "operator",
          "type": "address"
        }
      ],
      "name": "isApprovedForAll",
      "outputs": [
        {
          "internalType": "bool",
          "name": "",
          "type": "bool"
        }
      ],
      "stateMutability": "view",
      "type": "function"
    },
    {
      "inputs": [
        {
          "internalType": "uint16",
          "name": "_srcChainId",
          "type": "uint16"
        },
        {
          "internalType": "bytes",
          "name": "_srcAddress",
          "type": "bytes"
        }
      ],
      "name": "isTrustedRemote",
      "outputs": [
        {
          "internalType": "bool",
          "name": "",
          "type": "bool"
        }
      ],
      "stateMutability": "view",
      "type": "function"
    },
    {
      "inputs": [],
      "name": "lzEndpoint",
      "outputs": [
        {
          "internalType": "contract ILayerZeroEndpoint",
          "name": "",
          "type": "address"
        }
      ],
      "stateMutability": "view",
      "type": "function"
    },
    {
      "inputs": [
        {
          "internalType": "uint16",
          "name": "_srcChainId",
          "type": "uint16"
        },
        {
          "internalType": "bytes",
          "name": "_srcAddress",
          "type": "bytes"
        },
        {
          "internalType": "uint64",
          "name": "_nonce",
          "type": "uint64"
        },
        {
          "internalType": "bytes",
          "name": "_payload",
          "type": "bytes"
        }
      ],
      "name": "lzReceive",
      "outputs": [],
      "stateMutability": "nonpayable",
      "type": "function"
    },
    {
      "inputs": [
        {
          "internalType": "uint16",
          "name": "",
          "type": "uint16"
        },
        {
          "internalType": "uint16",
          "name": "",
          "type": "uint16"
        }
      ],
      "name": "minDstGasLookup",
      "outputs": [
        {
          "internalType": "uint256",
          "name": "",
          "type": "uint256"
        }
      ],
      "stateMutability": "view",
      "type": "function"
    },
    {
      "inputs": [
        {
          "internalType": "uint256",
          "name": "_tokenId",
          "type": "uint256"
        },
        {
          "internalType": "uint256",
          "name": "_amount",
          "type": "uint256"
        },
        {
          "internalType": "bytes32[]",
          "name": "_merkleProof",
          "type": "bytes32[]"
        }
      ],
      "name": "mint",
      "outputs": [],
      "stateMutability": "nonpayable",
      "type": "function"
    },
    {
      "inputs": [
        {
          "internalType": "uint256",
          "name": "_tokenId",
          "type": "uint256"
        },
        {
          "internalType": "uint256",
          "name": "_amount",
          "type": "uint256"
        },
        {
          "internalType": "address",
          "name": "_minter",
          "type": "address"
        }
      ],
      "name": "mintGasless",
      "outputs": [],
      "stateMutability": "nonpayable",
      "type": "function"
    },
    {
      "inputs": [
        {
          "internalType": "uint16",
          "name": "_srcChainId",
          "type": "uint16"
        },
        {
          "internalType": "bytes",
          "name": "_srcAddress",
          "type": "bytes"
        },
        {
          "internalType": "uint64",
          "name": "_nonce",
          "type": "uint64"
        },
        {
          "internalType": "bytes",
          "name": "_payload",
          "type": "bytes"
        }
      ],
      "name": "nonblockingLzReceive",
      "outputs": [],
      "stateMutability": "nonpayable",
      "type": "function"
    },
    {
      "inputs": [],
      "name": "openEditionEndedBy",
      "outputs": [
        {
          "internalType": "uint256",
          "name": "",
          "type": "uint256"
        }
      ],
      "stateMutability": "view",
      "type": "function"
    },
    {
      "inputs": [],
      "name": "owner",
      "outputs": [
        {
          "internalType": "address",
          "name": "",
          "type": "address"
        }
      ],
      "stateMutability": "view",
      "type": "function"
    },
    {
      "inputs": [
        {
          "internalType": "uint16",
          "name": "",
          "type": "uint16"
        }
      ],
      "name": "payloadSizeLimitLookup",
      "outputs": [
        {
          "internalType": "uint256",
          "name": "",
          "type": "uint256"
        }
      ],
      "stateMutability": "view",
      "type": "function"
    },
    {
      "inputs": [],
      "name": "precrime",
      "outputs": [
        {
          "internalType": "address",
          "name": "",
          "type": "address"
        }
      ],
      "stateMutability": "view",
      "type": "function"
    },
    {
      "inputs": [],
      "name": "price",
      "outputs": [
        {
          "internalType": "uint256",
          "name": "",
          "type": "uint256"
        }
      ],
      "stateMutability": "view",
      "type": "function"
    },
    {
      "inputs": [],
      "name": "renounceOwnership",
      "outputs": [],
      "stateMutability": "nonpayable",
      "type": "function"
    },
    {
      "inputs": [
        {
          "internalType": "uint16",
          "name": "_srcChainId",
          "type": "uint16"
        },
        {
          "internalType": "bytes",
          "name": "_srcAddress",
          "type": "bytes"
        },
        {
          "internalType": "uint64",
          "name": "_nonce",
          "type": "uint64"
        },
        {
          "internalType": "bytes",
          "name": "_payload",
          "type": "bytes"
        }
      ],
      "name": "retryMessage",
      "outputs": [],
      "stateMutability": "payable",
      "type": "function"
    },
    {
      "inputs": [
        {
          "internalType": "address",
          "name": "from",
          "type": "address"
        },
        {
          "internalType": "address",
          "name": "to",
          "type": "address"
        },
        {
          "internalType": "uint256[]",
          "name": "ids",
          "type": "uint256[]"
        },
        {
          "internalType": "uint256[]",
          "name": "amounts",
          "type": "uint256[]"
        },
        {
          "internalType": "bytes",
          "name": "data",
          "type": "bytes"
        }
      ],
      "name": "safeBatchTransferFrom",
      "outputs": [],
      "stateMutability": "nonpayable",
      "type": "function"
    },
    {
      "inputs": [
        {
          "internalType": "address",
          "name": "from",
          "type": "address"
        },
        {
          "internalType": "address",
          "name": "to",
          "type": "address"
        },
        {
          "internalType": "uint256",
          "name": "tokenId",
          "type": "uint256"
        },
        {
          "internalType": "uint256",
          "name": "amount",
          "type": "uint256"
        },
        {
          "internalType": "bytes",
          "name": "data",
          "type": "bytes"
        }
      ],
      "name": "safeTransferFrom",
      "outputs": [],
      "stateMutability": "nonpayable",
      "type": "function"
    },
    {
      "inputs": [
        {
          "internalType": "address",
          "name": "_from",
          "type": "address"
        },
        {
          "internalType": "uint16",
          "name": "_dstChainId",
          "type": "uint16"
        },
        {
          "internalType": "bytes",
          "name": "_toAddress",
          "type": "bytes"
        },
        {
          "internalType": "uint256[]",
          "name": "_tokenIds",
          "type": "uint256[]"
        },
        {
          "internalType": "uint256[]",
          "name": "_amounts",
          "type": "uint256[]"
        },
        {
          "internalType": "address payable",
          "name": "_refundAddress",
          "type": "address"
        },
        {
          "internalType": "address",
          "name": "_zroPaymentAddress",
          "type": "address"
        },
        {
          "internalType": "bytes",
          "name": "_adapterParams",
          "type": "bytes"
        }
      ],
      "name": "sendBatchFrom",
      "outputs": [],
      "stateMutability": "payable",
      "type": "function"
    },
    {
      "inputs": [
        {
          "internalType": "address",
          "name": "_from",
          "type": "address"
        },
        {
          "internalType": "uint16",
          "name": "_dstChainId",
          "type": "uint16"
        },
        {
          "internalType": "bytes",
          "name": "_toAddress",
          "type": "bytes"
        },
        {
          "internalType": "uint256",
          "name": "_tokenId",
          "type": "uint256"
        },
        {
          "internalType": "uint256",
          "name": "_amount",
          "type": "uint256"
        },
        {
          "internalType": "address payable",
          "name": "_refundAddress",
          "type": "address"
        },
        {
          "internalType": "address",
          "name": "_zroPaymentAddress",
          "type": "address"
        },
        {
          "internalType": "bytes",
          "name": "_adapterParams",
          "type": "bytes"
        }
      ],
      "name": "sendFrom",
      "outputs": [],
      "stateMutability": "payable",
      "type": "function"
    },
    {
      "inputs": [
        {
          "internalType": "address",
          "name": "operator",
          "type": "address"
        },
        {
          "internalType": "bool",
          "name": "approved",
          "type": "bool"
        }
      ],
      "name": "setApprovalForAll",
      "outputs": [],
      "stateMutability": "nonpayable",
      "type": "function"
    },
    {
      "inputs": [
        {
          "internalType": "string",
          "name": "baseUri",
          "type": "string"
        }
      ],
      "name": "setBaseURI",
      "outputs": [],
      "stateMutability": "nonpayable",
      "type": "function"
    },
    {
      "inputs": [
        {
          "internalType": "address payable",
          "name": "_beneficiary",
          "type": "address"
        }
      ],
      "name": "setBeneficiary",
      "outputs": [],
      "stateMutability": "nonpayable",
      "type": "function"
    },
    {
      "inputs": [
        {
          "internalType": "uint16",
          "name": "_version",
          "type": "uint16"
        },
        {
          "internalType": "uint16",
          "name": "_chainId",
          "type": "uint16"
        },
        {
          "internalType": "uint256",
          "name": "_configType",
          "type": "uint256"
        },
        {
          "internalType": "bytes",
          "name": "_config",
          "type": "bytes"
        }
      ],
      "name": "setConfig",
      "outputs": [],
      "stateMutability": "nonpayable",
      "type": "function"
    },
    {
      "inputs": [
        {
          "internalType": "string",
          "name": "_contractURI",
          "type": "string"
        }
      ],
      "name": "setContractURI",
      "outputs": [],
      "stateMutability": "nonpayable",
      "type": "function"
    },
    {
      "inputs": [
        {
          "internalType": "string",
          "name": "_hiddenMetadataUri",
          "type": "string"
        }
      ],
      "name": "setHiddenMetadataUri",
      "outputs": [],
      "stateMutability": "nonpayable",
      "type": "function"
    },
    {
      "inputs": [
        {
          "internalType": "uint16",
          "name": "_dstChainId",
          "type": "uint16"
        },
        {
          "internalType": "uint16",
          "name": "_packetType",
          "type": "uint16"
        },
        {
          "internalType": "uint256",
          "name": "_minGas",
          "type": "uint256"
        }
      ],
      "name": "setMinDstGas",
      "outputs": [],
      "stateMutability": "nonpayable",
      "type": "function"
    },
    {
      "inputs": [
        {
          "internalType": "uint16",
          "name": "_dstChainId",
          "type": "uint16"
        },
        {
          "internalType": "uint256",
          "name": "_size",
          "type": "uint256"
        }
      ],
      "name": "setPayloadSizeLimit",
      "outputs": [],
      "stateMutability": "nonpayable",
      "type": "function"
    },
    {
      "inputs": [
        {
          "internalType": "address",
          "name": "_precrime",
          "type": "address"
        }
      ],
      "name": "setPrecrime",
      "outputs": [],
      "stateMutability": "nonpayable",
      "type": "function"
    },
    {
      "inputs": [
        {
          "internalType": "uint256",
          "name": "newPrice",
          "type": "uint256"
        }
      ],
      "name": "setPrice",
      "outputs": [],
      "stateMutability": "nonpayable",
      "type": "function"
    },
    {
      "inputs": [
        {
          "internalType": "uint16",
          "name": "_version",
          "type": "uint16"
        }
      ],
      "name": "setReceiveVersion",
      "outputs": [],
      "stateMutability": "nonpayable",
      "type": "function"
    },
    {
      "inputs": [
        {
          "internalType": "uint16",
          "name": "_version",
          "type": "uint16"
        }
      ],
      "name": "setSendVersion",
      "outputs": [],
      "stateMutability": "nonpayable",
      "type": "function"
    },
    {
      "inputs": [
        {
          "internalType": "uint256",
          "name": "_tax",
          "type": "uint256"
        }
      ],
      "name": "setTax",
      "outputs": [],
      "stateMutability": "nonpayable",
      "type": "function"
    },
    {
      "inputs": [
        {
          "internalType": "address payable",
          "name": "_taxRecipient",
          "type": "address"
        }
      ],
      "name": "setTaxRecipient",
      "outputs": [],
      "stateMutability": "nonpayable",
      "type": "function"
    },
    {
      "inputs": [
        {
          "internalType": "uint16",
          "name": "_srcChainId",
          "type": "uint16"
        },
        {
          "internalType": "bytes",
          "name": "_path",
          "type": "bytes"
        }
      ],
      "name": "setTrustedRemote",
      "outputs": [],
      "stateMutability": "nonpayable",
      "type": "function"
    },
    {
      "inputs": [
        {
          "internalType": "uint16",
          "name": "_remoteChainId",
          "type": "uint16"
        },
        {
          "internalType": "bytes",
          "name": "_remoteAddress",
          "type": "bytes"
        }
      ],
      "name": "setTrustedRemoteAddress",
      "outputs": [],
      "stateMutability": "nonpayable",
      "type": "function"
    },
    {
      "inputs": [],
      "name": "stableToken",
      "outputs": [
        {
          "internalType": "contract IERC20",
          "name": "",
          "type": "address"
        }
      ],
      "stateMutability": "view",
      "type": "function"
    },
    {
      "inputs": [
        {
          "internalType": "uint256",
          "name": "openEditionStoppedBy",
          "type": "uint256"
        }
      ],
      "name": "startOpenEdition",
      "outputs": [],
      "stateMutability": "nonpayable",
      "type": "function"
    },
    {
      "inputs": [],
      "name": "stopOpenEdition",
      "outputs": [],
      "stateMutability": "nonpayable",
      "type": "function"
    },
    {
      "inputs": [
        {
          "internalType": "bytes4",
          "name": "interfaceId",
          "type": "bytes4"
        }
      ],
      "name": "supportsInterface",
      "outputs": [
        {
          "internalType": "bool",
          "name": "",
          "type": "bool"
        }
      ],
      "stateMutability": "view",
      "type": "function"
    },
    {
      "inputs": [],
      "name": "tax",
      "outputs": [
        {
          "internalType": "uint256",
          "name": "",
          "type": "uint256"
        }
      ],
      "stateMutability": "view",
      "type": "function"
    },
    {
      "inputs": [
        {
          "internalType": "uint256",
          "name": "id",
          "type": "uint256"
        }
      ],
      "name": "totalSupply",
      "outputs": [
        {
          "internalType": "uint256",
          "name": "",
          "type": "uint256"
        }
      ],
      "stateMutability": "view",
      "type": "function"
    },
    {
      "inputs": [
        {
          "internalType": "address",
          "name": "newOwner",
          "type": "address"
        }
      ],
      "name": "transferOwnership",
      "outputs": [],
      "stateMutability": "nonpayable",
      "type": "function"
    },
    {
      "inputs": [
        {
          "internalType": "uint16",
          "name": "",
          "type": "uint16"
        }
      ],
      "name": "trustedRemoteLookup",
      "outputs": [
        {
          "internalType": "bytes",
          "name": "",
          "type": "bytes"
        }
      ],
      "stateMutability": "view",
      "type": "function"
    },
    {
      "inputs": [
        {
          "internalType": "uint256",
          "name": "tokenId",
          "type": "uint256"
        }
      ],
      "name": "uri",
      "outputs": [
        {
          "internalType": "string",
          "name": "",
          "type": "string"
        }
      ],
      "stateMutability": "view",
      "type": "function"
    },
    {
      "inputs": [],
      "name": "withdraw",
      "outputs": [],
      "stateMutability": "nonpayable",
      "type": "function"
    }
  ],
  "bytecode": {
    "object": "0x60a06040526103e8600b556000600c553480156200001c57600080fd5b5060405162005cd038038062005cd08339810160408190526200003f9162000364565b8385733cc6cdda760b79bafa08df41ecfa224f810dceb6600183838080620000673362000220565b6001600160a01b0316608052506200008190508162000270565b506daaeb6d7670e522a718067333cd4e3b15620001c75780156200011557604051633e9f1edf60e11b81523060048201526001600160a01b03831660248201526daaeb6d7670e522a718067333cd4e90637d3e3dbe906044015b600060405180830381600087803b158015620000f657600080fd5b505af11580156200010b573d6000803e3d6000fd5b50505050620001c7565b6001600160a01b03821615620001665760405163a0af290360e01b81523060048201526001600160a01b03831660248201526daaeb6d7670e522a718067333cd4e9063a0af290390604401620000db565b604051632210724360e11b81523060048201526daaeb6d7670e522a718067333cd4e90634420e48690602401600060405180830381600087803b158015620001ad57600080fd5b505af1158015620001c2573d6000803e3d6000fd5b505050505b50506001600a555050600d80546001600160a01b031916331790556010620001f084826200048d565b50600b91909155600e80546001600160a01b0319166001600160a01b039092169190911790555062000559915050565b600080546001600160a01b038381166001600160a01b0319831681178455604051919092169283917f8be0079c531659141344cd1fd0a4f28419497f9722a3daafe3b4186f6b6457e09190a35050565b60086200027e82826200048d565b5050565b80516001600160a01b03811681146200029a57600080fd5b919050565b634e487b7160e01b600052604160045260246000fd5b600082601f830112620002c757600080fd5b81516001600160401b0380821115620002e457620002e46200029f565b604051601f8301601f19908116603f011681019082821181831017156200030f576200030f6200029f565b816040528381526020925086838588010111156200032c57600080fd5b600091505b8382101562000350578582018301518183018401529082019062000331565b600093810190920192909252949350505050565b600080600080600060a086880312156200037d57600080fd5b620003888662000282565b60208701519095506001600160401b0380821115620003a657600080fd5b620003b489838a01620002b5565b95506040880151915080821115620003cb57600080fd5b50620003da88828901620002b5565b93505060608601519150620003f26080870162000282565b90509295509295909350565b600181811c908216806200041357607f821691505b6020821081036200043457634e487b7160e01b600052602260045260246000fd5b50919050565b601f8211156200048857600081815260208120601f850160051c81016020861015620004635750805b601f850160051c820191505b8181101562000484578281556001016200046f565b5050505b505050565b81516001600160401b03811115620004a957620004a96200029f565b620004c181620004ba8454620003fe565b846200043a565b602080601f831160018114620004f95760008415620004e05750858301515b600019600386901b1c1916600185901b17855562000484565b600085815260208120601f198616915b828110156200052a5788860151825594840194600190910190840162000509565b5085821015620005495787850151600019600388901b60f8161c191681555b5050505050600190811b01905550565b60805161571c620005b46000396000818161097501528181610b8401528181610e86015281816110060152818161135001528181611ae401528181611bec015281816121b001528181612549015261314a015261571c6000f3fe60806040526004361061038a5760003560e01c80638608e5f8116101dc578063baf3292d11610102578063e87ebdfa116100a0578063f242432a1161006f578063f242432a14610b0b578063f2d5d8de14610b2b578063f2fde38b14610b41578063f5ecbdbc14610b6157600080fd5b8063e87ebdfa14610a6d578063e8a3d48514610a8d578063e985e9c514610aa2578063eb8d72b714610aeb57600080fd5b8063cbed8b9c116100dc578063cbed8b9c146109fa578063d1deba1f14610a1a578063df2a5b3b14610a2d578063e6d37b8814610a4d57600080fd5b8063baf3292d14610997578063bd85b039146109b7578063c4461834146109e457600080fd5b806399c8d5561161017a578063a6c3d16511610149578063a6c3d165146108fe578063a9d75b2b1461091e578063b253566314610943578063b353aaa71461096357600080fd5b806399c8d556146108925780639f38369a146108a8578063a035b1fe146108c8578063a22cb465146108de57600080fd5b806391b7f5ed116101b657806391b7f5ed14610812578063938e3d7b14610832578063950c8a7414610852578063988d40381461087257600080fd5b80638608e5f8146107875780638cfd8f5c146107bc5780638da5cb5b146107f457600080fd5b80633f1f4fa4116102c15780634f558e791161025f57806366ad5c8a1161022e57806366ad5c8a14610712578063715018a6146107325780637533d7881461074757806378e3079e1461076757600080fd5b80634f558e79146106545780634fdd43cb1461068357806355f804b3146106a35780635b8c41e6146106c357600080fd5b806345e559c01161029b57806345e559c0146105e75780634ab4e687146106015780634db8226a146106145780634e1273f41461062757600080fd5b80633f1f4fa41461056057806341f434341461058d57806342d65a8d146105c757600080fd5b80631c31f7101161032e5780632eb2c2d6116103085780632eb2c2d6146104f65780633b2c3fb6146105165780633ccfd60b1461052b5780633d8b38f61461054057600080fd5b80631c31f710146104a157806324a23d4f146104c15780632e5bb6ff146104d657600080fd5b806307e0db171161036a57806307e0db17146104145780630df37483146104345780630e89341c1461045457806310ddb1371461048157600080fd5b80621d35671461038f578062fdd58e146103b157806301ffc9a7146103e4575b600080fd5b34801561039b57600080fd5b506103af6103aa366004613f4b565b610b81565b005b3480156103bd57600080fd5b506103d16103cc366004613fff565b610db2565b6040519081526020015b60405180910390f35b3480156103f057600080fd5b506104046103ff366004614041565b610e48565b60405190151581526020016103db565b34801561042057600080fd5b506103af61042f36600461405e565b610e65565b34801561044057600080fd5b506103af61044f366004614079565b610eee565b34801561046057600080fd5b5061047461046f366004614095565b610f0d565b6040516103db91906140fe565b34801561048d57600080fd5b506103af61049c36600461405e565b610fe5565b3480156104ad57600080fd5b506103af6104bc366004614111565b61103d565b3480156104cd57600080fd5b506103af611067565b3480156104e257600080fd5b506103af6104f1366004614095565b61107b565b34801561050257600080fd5b506103af610511366004614291565b611088565b34801561052257600080fd5b506103af6110b7565b34801561053757600080fd5b506103af6110d3565b34801561054c57600080fd5b5061040461055b36600461433e565b611265565b34801561056c57600080fd5b506103d161057b36600461405e565b60036020526000908152604090205481565b34801561059957600080fd5b506105af6daaeb6d7670e522a718067333cd4e81565b6040516001600160a01b0390911681526020016103db565b3480156105d357600080fd5b506103af6105e236600461433e565b611331565b3480156105f357600080fd5b506011546104049060ff1681565b6103af61060f366004614390565b6113b7565b6103af61062236600461447f565b6113d2565b34801561063357600080fd5b50610647610642366004614525565b6113f3565b6040516103db919061462c565b34801561066057600080fd5b5061040461066f366004614095565b600090815260096020526040902054151590565b34801561068f57600080fd5b506103af61069e36600461463f565b61151c565b3480156106af57600080fd5b506103af6106be36600461463f565b611530565b3480156106cf57600080fd5b506103d16106de366004614687565b6005602090815260009384526040808520845180860184018051928152908401958401959095209452929052825290205481565b34801561071e57600080fd5b506103af61072d366004613f4b565b611544565b34801561073e57600080fd5b506103af611618565b34801561075357600080fd5b5061047461076236600461405e565b61162c565b34801561077357600080fd5b506103af610782366004614111565b6116c6565b34801561079357600080fd5b506107a76107a2366004614701565b6116f0565b604080519283526020830191909152016103db565b3480156107c857600080fd5b506103d16107d736600461479b565b600260209081526000928352604080842090915290825290205481565b34801561080057600080fd5b506000546001600160a01b03166105af565b34801561081e57600080fd5b506103af61082d366004614095565b611720565b34801561083e57600080fd5b506103af61084d36600461463f565b61172d565b34801561085e57600080fd5b506004546105af906001600160a01b031681565b34801561087e57600080fd5b506103af61088d3660046147ce565b611741565b34801561089e57600080fd5b506103d1600b5481565b3480156108b457600080fd5b506104746108c336600461405e565b6118f0565b3480156108d457600080fd5b506103d1600c5481565b3480156108ea57600080fd5b506103af6108f93660046147fc565b611a06565b34801561090a57600080fd5b506103af61091936600461433e565b611a1a565b34801561092a57600080fd5b506013546105af9061010090046001600160a01b031681565b34801561094f57600080fd5b506107a761095e366004614835565b611aa3565b34801561096f57600080fd5b506105af7f000000000000000000000000000000000000000000000000000000000000000081565b3480156109a357600080fd5b506103af6109b2366004614111565b611b71565b3480156109c357600080fd5b506103d16109d2366004614095565b60009081526009602052604090205490565b3480156109f057600080fd5b506103d161271081565b348015610a0657600080fd5b506103af610a153660046148e7565b611bcd565b6103af610a28366004613f4b565b611c62565b348015610a3957600080fd5b506103af610a48366004614955565b611e78565b348015610a5957600080fd5b506103af610a68366004614991565b611f2a565b348015610a7957600080fd5b506103af610a88366004614095565b612061565b348015610a9957600080fd5b5061047461207b565b348015610aae57600080fd5b50610404610abd366004614a13565b6001600160a01b03918216600090815260076020908152604080832093909416825291909152205460ff1690565b348015610af757600080fd5b506103af610b0636600461433e565b612088565b348015610b1757600080fd5b506103af610b26366004614a41565b6120e2565b348015610b3757600080fd5b506103d160125481565b348015610b4d57600080fd5b506103af610b5c366004614111565b612109565b348015610b6d57600080fd5b50610474610b7c366004614aa9565b61217f565b337f00000000000000000000000000000000000000000000000000000000000000006001600160a01b031614610bfe5760405162461bcd60e51b815260206004820152601e60248201527f4c7a4170703a20696e76616c696420656e64706f696e742063616c6c6572000060448201526064015b60405180910390fd5b61ffff861660009081526001602052604081208054610c1c90614af6565b80601f0160208091040260200160405190810160405280929190818152602001828054610c4890614af6565b8015610c955780601f10610c6a57610100808354040283529160200191610c95565b820191906000526020600020905b815481529060010190602001808311610c7857829003601f168201915b50505050509050805186869050148015610cb0575060008151115b8015610cd8575080516020820120604051610cce9088908890614b30565b6040518091039020145b610d335760405162461bcd60e51b815260206004820152602660248201527f4c7a4170703a20696e76616c696420736f757263652073656e64696e6720636f6044820152651b9d1c9858dd60d21b6064820152608401610bf5565b610da98787878080601f01602080910402602001604051908101604052809392919081815260200183838082843760009201919091525050604080516020601f8a018190048102820181019092528881528a93509150889088908190840183828082843760009201919091525061223292505050565b50505050505050565b60006001600160a01b038316610e1d5760405162461bcd60e51b815260206004820152602a60248201527f455243313135353a2061646472657373207a65726f206973206e6f742061207660448201526930b634b21037bbb732b960b11b6064820152608401610bf5565b5060008181526006602090815260408083206001600160a01b03861684529091529020545b92915050565b60006001600160e01b031982161580610e425750610e42826122ab565b610e6d6122eb565b6040516307e0db1760e01b815261ffff821660048201527f00000000000000000000000000000000000000000000000000000000000000006001600160a01b0316906307e0db17906024015b600060405180830381600087803b158015610ed357600080fd5b505af1158015610ee7573d6000803e3d6000fd5b5050505050565b610ef66122eb565b61ffff909116600090815260036020526040902055565b60135460609060ff16610fac5760108054610f2790614af6565b80601f0160208091040260200160405190810160405280929190818152602001828054610f5390614af6565b8015610fa05780601f10610f7557610100808354040283529160200191610fa0565b820191906000526020600020905b815481529060010190602001808311610f8357829003601f168201915b50505050509050919050565b610fb582612345565b610fbe83612354565b604051602001610fcf929190614b40565b6040516020818303038152906040529050919050565b610fed6122eb565b6040516310ddb13760e01b815261ffff821660048201527f00000000000000000000000000000000000000000000000000000000000000006001600160a01b0316906310ddb13790602401610eb9565b6110456122eb565b600d80546001600160a01b0319166001600160a01b0392909216919091179055565b61106f6122eb565b6011805460ff19169055565b6110836122eb565b600b55565b846001600160a01b03811633146110a2576110a2336123e6565b6110af868686868661249f565b505050505050565b6110bf6122eb565b6013805460ff19811660ff90911615179055565b600d546001600160a01b03163314806110f657506000546001600160a01b031633145b6111615760405162461bcd60e51b815260206004820152603660248201527f416476616e6365644f4e4654313135354761736c6573733a2063616c6c6572206044820152756973206e6f74207468652062656e656669636961727960501b6064820152608401610bf5565b600d546001600160a01b03166111d35760405162461bcd60e51b815260206004820152603160248201527f416476616e6365644f4e4654313135354761736c6573734f70656e3a2042656e6044820152706566696369617279206e6f74207365742160781b6064820152608401610bf5565b600b544790600090612710906111e99084614b85565b6111f39190614b9c565b600d549091506001600160a01b03166108fc61120f8385614bbe565b6040518115909202916000818181858888f1935050505061122f57600080fd5b600e546040516001600160a01b039091169082156108fc029083906000818181858888f1935050505061126157600080fd5b5050565b61ffff83166000908152600160205260408120805482919061128690614af6565b80601f01602080910402602001604051908101604052809291908181526020018280546112b290614af6565b80156112ff5780601f106112d4576101008083540402835291602001916112ff565b820191906000526020600020905b8154815290600101906020018083116112e257829003601f168201915b505050505090508383604051611316929190614b30565b60405180910390208180519060200120149150509392505050565b6113396122eb565b6040516342d65a8d60e01b81526001600160a01b037f000000000000000000000000000000000000000000000000000000000000000016906342d65a8d9061138990869086908690600401614bfa565b600060405180830381600087803b1580156113a357600080fd5b505af1158015610da9573d6000803e3d6000fd5b6113c88888888888888888346124e4565b5050505050505050565b6113c88888886113e1896126e8565b6113ea896126e8565b888888346124e4565b606081518351146114585760405162461bcd60e51b815260206004820152602960248201527f455243313135353a206163636f756e747320616e6420696473206c656e677468604482015268040dad2e6dac2e8c6d60bb1b6064820152608401610bf5565b600083516001600160401b038111156114735761147361412e565b60405190808252806020026020018201604052801561149c578160200160208202803683370190505b50905060005b8451811015611514576114e78582815181106114c0576114c0614c18565b60200260200101518583815181106114da576114da614c18565b6020026020010151610db2565b8282815181106114f9576114f9614c18565b602090810291909101015261150d81614c2e565b90506114a2565b509392505050565b6115246122eb565b60106112618282614c8d565b6115386122eb565b61154181612733565b50565b3330146115a25760405162461bcd60e51b815260206004820152602660248201527f4e6f6e626c6f636b696e674c7a4170703a2063616c6c6572206d7573742062656044820152650204c7a4170760d41b6064820152608401610bf5565b6110af8686868080601f01602080910402602001604051908101604052809392919081815260200183838082843760009201919091525050604080516020601f89018190048102820181019092528781528993509150879087908190840183828082843760009201919091525061273f92505050565b6116206122eb565b61162a6000612897565b565b6001602052600090815260409020805461164590614af6565b80601f016020809104026020016040519081016040528092919081815260200182805461167190614af6565b80156116be5780601f10611693576101008083540402835291602001916116be565b820191906000526020600020905b8154815290600101906020018083116116a157829003601f168201915b505050505081565b6116ce6122eb565b600e80546001600160a01b0319166001600160a01b0392909216919091179055565b6000806117118888611701896126e8565b61170a896126e8565b8888611aa3565b91509150965096945050505050565b6117286122eb565b600c55565b6117356122eb565b600f6112618282614c8d565b73abcc9b596420a9e9172fd5938620e265a0f9df9233146117965760405162461bcd60e51b815260206004820152600f60248201526e6f6e6c7947656c61746f52656c617960881b6044820152606401610bf5565b60115460ff1615156001146117bd5760405162461bcd60e51b8152600401610bf590614d4c565b4260125410156117df5760405162461bcd60e51b8152600401610bf590614da9565b8260000361184d5760405162461bcd60e51b815260206004820152603560248201527f416476616e6365644f4e4654313135354761736c6573734f70656e3a2043616e6044820152746e6f7420696e76616c696420746f6b656e2069642160581b6064820152608401610bf5565b6000600c541161186f5760405162461bcd60e51b8152600401610bf590614e06565b60135461010090046001600160a01b031661189c5760405162461bcd60e51b8152600401610bf590614e63565b6118a46128e7565b6118d0813084600c546118b79190614b85565b60135461010090046001600160a01b0316929190612912565b6118eb8184846040518060200160405280600081525061297d565b505050565b61ffff811660009081526001602052604081208054606092919061191390614af6565b80601f016020809104026020016040519081016040528092919081815260200182805461193f90614af6565b801561198c5780601f106119615761010080835404028352916020019161198c565b820191906000526020600020905b81548152906001019060200180831161196f57829003601f168201915b5050505050905080516000036119e45760405162461bcd60e51b815260206004820152601d60248201527f4c7a4170703a206e6f20747275737465642070617468207265636f72640000006044820152606401610bf5565b6119ff6000601483516119f79190614bbe565b839190612a5f565b9392505050565b81611a10816123e6565b6118eb8383612b6c565b611a226122eb565b818130604051602001611a3793929190614eb8565b60408051601f1981840301815291815261ffff8516600090815260016020522090611a629082614c8d565b507f8c0400cfe2d1199b1a725c78960bcc2a344d869b80590d0f2bd005db15a572ce838383604051611a9693929190614bfa565b60405180910390a1505050565b6000806000878787604051602001611abd93929190614ede565b60408051601f198184030181529082905263040a7bb160e41b825291506001600160a01b037f000000000000000000000000000000000000000000000000000000000000000016906340a7bb1090611b21908c90309086908b908b90600401614f21565b6040805180830381865afa158015611b3d573d6000803e3d6000fd5b505050506040513d601f19601f82011682018060405250810190611b619190614f75565b9250925050965096945050505050565b611b796122eb565b600480546001600160a01b0319166001600160a01b0383169081179091556040519081527f5db758e995a17ec1ad84bdef7e8c3293a0bd6179bcce400dff5d4c3d87db726b9060200160405180910390a150565b611bd56122eb565b6040516332fb62e760e21b81526001600160a01b037f0000000000000000000000000000000000000000000000000000000000000000169063cbed8b9c90611c299088908890889088908890600401614f99565b600060405180830381600087803b158015611c4357600080fd5b505af1158015611c57573d6000803e3d6000fd5b505050505050505050565b61ffff86166000908152600560205260408082209051611c859088908890614b30565b90815260408051602092819003830190206001600160401b03871660009081529252902054905080611d055760405162461bcd60e51b815260206004820152602360248201527f4e6f6e626c6f636b696e674c7a4170703a206e6f2073746f726564206d65737360448201526261676560e81b6064820152608401610bf5565b808383604051611d16929190614b30565b604051809103902014611d755760405162461bcd60e51b815260206004820152602160248201527f4e6f6e626c6f636b696e674c7a4170703a20696e76616c6964207061796c6f616044820152601960fa1b6064820152608401610bf5565b61ffff87166000908152600560205260408082209051611d989089908990614b30565b90815260408051602092819003830181206001600160401b038916600090815290845282902093909355601f88018290048202830182019052868252611e30918991899089908190840183828082843760009201919091525050604080516020601f8a018190048102820181019092528881528a93509150889088908190840183828082843760009201919091525061273f92505050565b7fc264d91f3adc5588250e1551f547752ca0cfa8f6b530d243b9f9f4cab10ea8e58787878785604051611e67959493929190614fc7565b60405180910390a150505050505050565b611e806122eb565b60008111611ec85760405162461bcd60e51b81526020600482015260156024820152744c7a4170703a20696e76616c6964206d696e47617360581b6044820152606401610bf5565b61ffff83811660008181526002602090815260408083209487168084529482529182902085905581519283528201929092529081018290527f9d5c7c0b934da8fefa9c7760c98383778a12dfbfc0c3b3106518f43fb9508ac090606001611a96565b60115460ff161515600114611f515760405162461bcd60e51b8152600401610bf590614d4c565b426012541015611f735760405162461bcd60e51b8152600401610bf590614da9565b83600003611fde5760405162461bcd60e51b815260206004820152603260248201527f416476616e6365644f4e4654313135354761736c6573734f70656e3a2043616e6044820152716e6f74206d696e74203020746f6b656e732160701b6064820152608401610bf5565b6000600c54116120005760405162461bcd60e51b8152600401610bf590614e06565b60135461010090046001600160a01b031661202d5760405162461bcd60e51b8152600401610bf590614e63565b612040333085600c546118b79190614b85565b61205b3385856040518060200160405280600081525061297d565b50505050565b6120696122eb565b6011805460ff19166001179055601255565b600f805461164590614af6565b6120906122eb565b61ffff831660009081526001602052604090206120ae828483615002565b507ffa41487ad5d6728f0b19276fa1eddc16558578f5109fc39d2dc33c3230470dab838383604051611a9693929190614bfa565b846001600160a01b03811633146120fc576120fc336123e6565b6110af8686868686612b77565b6121116122eb565b6001600160a01b0381166121765760405162461bcd60e51b815260206004820152602660248201527f4f776e61626c653a206e6577206f776e657220697320746865207a65726f206160448201526564647265737360d01b6064820152608401610bf5565b61154181612897565b604051633d7b2f6f60e21b815261ffff808616600483015284166024820152306044820152606481018290526060907f00000000000000000000000000000000000000000000000000000000000000006001600160a01b03169063f5ecbdbc90608401600060405180830381865afa1580156121ff573d6000803e3d6000fd5b505050506040513d6000823e601f3d908101601f191682016040526122279190810190615119565b90505b949350505050565b6000806122955a60966366ad5c8a60e01b8989898960405160240161225a949392919061514d565b60408051601f198184030181529190526020810180516001600160e01b03166001600160e01b03199093169290921790915230929190612bbc565b91509150816110af576110af8686868685612c46565b60006001600160e01b03198216636cdb3d1360e11b14806122dc57506001600160e01b031982166303a24d0760e21b145b80610e425750610e4282612ce3565b6000546001600160a01b0316331461162a5760405162461bcd60e51b815260206004820181905260248201527f4f776e61626c653a2063616c6c6572206973206e6f7420746865206f776e65726044820152606401610bf5565b606060088054610f2790614af6565b6060600061236183612d18565b60010190506000816001600160401b038111156123805761238061412e565b6040519080825280601f01601f1916602001820160405280156123aa576020820181803683370190505b5090508181016020015b600019016f181899199a1a9b1b9c1cb0b131b232b360811b600a86061a8153600a85049450846123b457509392505050565b6daaeb6d7670e522a718067333cd4e3b1561154157604051633185c44d60e21b81523060048201526001600160a01b03821660248201526daaeb6d7670e522a718067333cd4e9063c617113490604401602060405180830381865afa158015612453573d6000803e3d6000fd5b505050506040513d601f19601f82011682018060405250810190612477919061518b565b61154157604051633b79c77360e21b81526001600160a01b0382166004820152602401610bf5565b6001600160a01b0385163314806124bb57506124bb8533610abd565b6124d75760405162461bcd60e51b8152600401610bf5906151a8565b610ee78585858585612df0565b6124f18989898989612f95565b600087878760405160200161250893929190614ede565b6040516020818303038152906040529050612527898287878787613021565b604051630f428ae960e31b815261ffff8a1660048201523060248201526000907f00000000000000000000000000000000000000000000000000000000000000006001600160a01b031690637a14574890604401602060405180830381865afa158015612598573d6000803e3d6000fd5b505050506040513d601f19601f820116820180604052508101906125bc91906151f6565b9050875160010361267057886040516125d59190615213565b60405180910390208a61ffff168c6001600160a01b03167f65f8f231660ef9add3da95eb0bbdae4c246f6c10e274fae37b17190637080d4c8b60008151811061262057612620614c18565b60200260200101518b60008151811061263b5761263b614c18565b60209081029190910181015160408051938452918301526001600160401b0387169082015260600160405180910390a46126db565b6001885111156126db57886040516126889190615213565b60405180910390208a61ffff168c6001600160a01b03167f2d31495ecbe799a81d5475c03585aa019860601fed836229d70e335b732eab3d8b8b866040516126d29392919061522f565b60405180910390a45b5050505050505050505050565b6040805160018082528183019092526060916000919060208083019080368337019050509050828160008151811061272257612722614c18565b602090810291909101015292915050565b60086112618282614c8d565b60008060008380602001905181019061275891906152d4565b60148301519295509093509150612771888285856131c6565b825160010361282357806001600160a01b0316876040516127929190615213565b60405180910390208961ffff167f330378e2f010257b2fbe836316fb7ab303af5ed8f2795b82bca60d1c8c909f76866000815181106127d3576127d3614c18565b6020026020010151866000815181106127ee576127ee614c18565b60209081029190910181015160408051938452918301526001600160401b038c169082015260600160405180910390a46113c8565b6001835111156113c857806001600160a01b0316876040516128459190615213565b60405180910390208961ffff167f5604161d52abb20dbe3d4a2230e585a0b230b3d18179a0e00917b173f5f9adab86868b6040516128859392919061522f565b60405180910390a45050505050505050565b600080546001600160a01b038381166001600160a01b0319831681178455604051919092169283917f8be0079c531659141344cd1fd0a4f28419497f9722a3daafe3b4186f6b6457e09190a35050565b61162a36604719013560601c36601f19013536603319013560601c6001600160a01b031691906131e1565b6040516001600160a01b038085166024830152831660448201526064810182905261205b9085906323b872dd60e01b906084015b60408051601f198184030181529190526020810180516001600160e01b03166001600160e01b031990931692909217909152613230565b6001600160a01b0384166129a35760405162461bcd60e51b8152600401610bf59061535b565b3360006129af856126e8565b905060006129bc856126e8565b90506129cd83600089858589613302565b60008681526006602090815260408083206001600160a01b038b168452909152812080548792906129ff90849061539c565b909155505060408051878152602081018790526001600160a01b03808a1692600092918716917fc3d58168c5ae7397731d063d5bbf3d657854427343f4c083240f7aacaa2d0f62910160405180910390a4610da98360008989898961347b565b606081612a6d81601f61539c565b1015612aac5760405162461bcd60e51b815260206004820152600e60248201526d736c6963655f6f766572666c6f7760901b6044820152606401610bf5565b612ab6828461539c565b84511015612afa5760405162461bcd60e51b8152602060048201526011602482015270736c6963655f6f75744f66426f756e647360781b6044820152606401610bf5565b606082158015612b195760405191506000825260208201604052612b63565b6040519150601f8416801560200281840101858101878315602002848b0101015b81831015612b52578051835260209283019201612b3a565b5050858452601f01601f1916604052505b50949350505050565b6112613383836135d6565b6001600160a01b038516331480612b935750612b938533610abd565b612baf5760405162461bcd60e51b8152600401610bf5906151a8565b610ee785858585856136b6565b6000606060008060008661ffff166001600160401b03811115612be157612be161412e565b6040519080825280601f01601f191660200182016040528015612c0b576020820181803683370190505b50905060008087516020890160008d8df191503d925086831115612c2d578692505b828152826000602083013e909890975095505050505050565b8180519060200120600560008761ffff1661ffff16815260200190815260200160002085604051612c779190615213565b9081526040805191829003602090810183206001600160401b0388166000908152915220919091557fe183f33de2837795525b4792ca4cd60535bd77c53b7e7030060bfcf5734d6b0c90612cd490879087908790879087906153af565b60405180910390a15050505050565b60006001600160e01b031982166319abbbbb60e11b1480610e4257506301ffc9a760e01b6001600160e01b0319831614610e42565b60008072184f03e93ff9f4daa797ed6e38ed64bf6a1f0160401b8310612d575772184f03e93ff9f4daa797ed6e38ed64bf6a1f0160401b830492506040015b6d04ee2d6d415b85acef81000000008310612d83576d04ee2d6d415b85acef8100000000830492506020015b662386f26fc100008310612da157662386f26fc10000830492506010015b6305f5e1008310612db9576305f5e100830492506008015b6127108310612dcd57612710830492506004015b60648310612ddf576064830492506002015b600a8310610e425760010192915050565b8151835114612e115760405162461bcd60e51b8152600401610bf590615401565b6001600160a01b038416612e375760405162461bcd60e51b8152600401610bf590615449565b33612e46818787878787613302565b60005b8451811015612f2f576000858281518110612e6657612e66614c18565b602002602001015190506000858381518110612e8457612e84614c18565b60209081029190910181015160008481526006835260408082206001600160a01b038e168352909352919091205490915081811015612ed55760405162461bcd60e51b8152600401610bf59061548e565b60008381526006602090815260408083206001600160a01b038e8116855292528083208585039055908b16825281208054849290612f1490849061539c565b9250508190555050505080612f2890614c2e565b9050612e49565b50846001600160a01b0316866001600160a01b0316826001600160a01b03167f4a39dc06d4c0dbc64b70af90fd698a233a518aa5d07e595d983b8c0526c8f7fb8787604051612f7f9291906154d8565b60405180910390a46110af8187878787876137e7565b336001600160a01b038616811480612fb25750612fb28682610abd565b6130165760405162461bcd60e51b815260206004820152602f60248201527f4f4e4654313135353a2073656e642063616c6c6572206973206e6f74206f776e60448201526e195c881b9bdc88185c1c1c9bdd9959608a1b6064820152608401610bf5565b6110af8684846138a2565b61ffff86166000908152600160205260408120805461303f90614af6565b80601f016020809104026020016040519081016040528092919081815260200182805461306b90614af6565b80156130b85780601f1061308d576101008083540402835291602001916130b8565b820191906000526020600020905b81548152906001019060200180831161309b57829003601f168201915b5050505050905080516000036131295760405162461bcd60e51b815260206004820152603060248201527f4c7a4170703a2064657374696e6174696f6e20636861696e206973206e6f742060448201526f61207472757374656420736f7572636560801b6064820152608401610bf5565b613134878751613ab9565b60405162c5803160e81b81526001600160a01b037f0000000000000000000000000000000000000000000000000000000000000000169063c580310090849061318b908b9086908c908c908c908c906004016154fd565b6000604051808303818588803b1580156131a457600080fd5b505af11580156131b8573d6000803e3d6000fd5b505050505050505050505050565b61205b83838360405180602001604052806000815250613b2a565b806000036131ee57505050565b6001600160a01b03831673eeeeeeeeeeeeeeeeeeeeeeeeeeeeeeeeeeeeeeee14613226576118eb6001600160a01b0384168383613c85565b6118eb8282613cb5565b6000613285826040518060400160405280602081526020017f5361666545524332303a206c6f772d6c6576656c2063616c6c206661696c6564815250856001600160a01b0316613dce9092919063ffffffff16565b8051909150156118eb57808060200190518101906132a3919061518b565b6118eb5760405162461bcd60e51b815260206004820152602a60248201527f5361666545524332303a204552433230206f7065726174696f6e20646964206e6044820152691bdd081cdd58d8d9595960b21b6064820152608401610bf5565b6001600160a01b0385166133895760005b83518110156133875782818151811061332e5761332e614c18565b60200260200101516009600086848151811061334c5761334c614c18565b602002602001015181526020019081526020016000206000828254613371919061539c565b90915550613380905081614c2e565b9050613313565b505b6001600160a01b0384166110af5760005b8351811015610da95760008482815181106133b7576133b7614c18565b6020026020010151905060008483815181106133d5576133d5614c18565b60200260200101519050600060096000848152602001908152602001600020549050818110156134585760405162461bcd60e51b815260206004820152602860248201527f455243313135353a206275726e20616d6f756e74206578636565647320746f74604482015267616c537570706c7960c01b6064820152608401610bf5565b6000928352600960205260409092209103905561347481614c2e565b905061339a565b6001600160a01b0384163b156110af5760405163f23a6e6160e01b81526001600160a01b0385169063f23a6e61906134bf9089908990889088908890600401615564565b6020604051808303816000875af19250505080156134fa575060408051601f3d908101601f191682019092526134f79181019061559e565b60015b6135a6576135066155bb565b806308c379a00361353f575061351a6155d7565b806135255750613541565b8060405162461bcd60e51b8152600401610bf591906140fe565b505b60405162461bcd60e51b815260206004820152603460248201527f455243313135353a207472616e7366657220746f206e6f6e2d455243313135356044820152732932b1b2b4bb32b91034b6b83632b6b2b73a32b960611b6064820152608401610bf5565b6001600160e01b0319811663f23a6e6160e01b14610da95760405162461bcd60e51b8152600401610bf590615660565b816001600160a01b0316836001600160a01b0316036136495760405162461bcd60e51b815260206004820152602960248201527f455243313135353a2073657474696e6720617070726f76616c20737461747573604482015268103337b91039b2b63360b91b6064820152608401610bf5565b6001600160a01b03838116600081815260076020908152604080832094871680845294825291829020805460ff191686151590811790915591519182527f17307eab39ab6107e8899845ad3d59bd9653f200f220920489ca2b5937696c31910160405180910390a3505050565b6001600160a01b0384166136dc5760405162461bcd60e51b8152600401610bf590615449565b3360006136e8856126e8565b905060006136f5856126e8565b9050613705838989858589613302565b60008681526006602090815260408083206001600160a01b038c168452909152902054858110156137485760405162461bcd60e51b8152600401610bf59061548e565b60008781526006602090815260408083206001600160a01b038d8116855292528083208985039055908a1682528120805488929061378790849061539c565b909155505060408051888152602081018890526001600160a01b03808b16928c821692918816917fc3d58168c5ae7397731d063d5bbf3d657854427343f4c083240f7aacaa2d0f62910160405180910390a4611c57848a8a8a8a8a61347b565b6001600160a01b0384163b156110af5760405163bc197c8160e01b81526001600160a01b0385169063bc197c819061382b90899089908890889088906004016156a8565b6020604051808303816000875af1925050508015613866575060408051601f3d908101601f191682019092526138639181019061559e565b60015b613872576135066155bb565b6001600160e01b0319811663bc197c8160e01b14610da95760405162461bcd60e51b8152600401610bf590615660565b6001600160a01b0383166139045760405162461bcd60e51b815260206004820152602360248201527f455243313135353a206275726e2066726f6d20746865207a65726f206164647260448201526265737360e81b6064820152608401610bf5565b80518251146139255760405162461bcd60e51b8152600401610bf590615401565b600033905061394881856000868660405180602001604052806000815250613302565b60005b8351811015613a4c57600084828151811061396857613968614c18565b60200260200101519050600084838151811061398657613986614c18565b60209081029190910181015160008481526006835260408082206001600160a01b038c168352909352919091205490915081811015613a135760405162461bcd60e51b8152602060048201526024808201527f455243313135353a206275726e20616d6f756e7420657863656564732062616c604482015263616e636560e01b6064820152608401610bf5565b60009283526006602090815260408085206001600160a01b038b1686529091529092209103905580613a4481614c2e565b91505061394b565b5060006001600160a01b0316846001600160a01b0316826001600160a01b03167f4a39dc06d4c0dbc64b70af90fd698a233a518aa5d07e595d983b8c0526c8f7fb8686604051613a9d9291906154d8565b60405180910390a460408051602081019091526000905261205b565b61ffff821660009081526003602052604081205490819003613ada57506127105b808211156118eb5760405162461bcd60e51b815260206004820181905260248201527f4c7a4170703a207061796c6f61642073697a6520697320746f6f206c617267656044820152606401610bf5565b6001600160a01b038416613b505760405162461bcd60e51b8152600401610bf59061535b565b8151835114613b715760405162461bcd60e51b8152600401610bf590615401565b33613b8181600087878787613302565b60005b8451811015613c1d57838181518110613b9f57613b9f614c18565b602002602001015160066000878481518110613bbd57613bbd614c18565b602002602001015181526020019081526020016000206000886001600160a01b03166001600160a01b031681526020019081526020016000206000828254613c05919061539c565b90915550819050613c1581614c2e565b915050613b84565b50846001600160a01b031660006001600160a01b0316826001600160a01b03167f4a39dc06d4c0dbc64b70af90fd698a233a518aa5d07e595d983b8c0526c8f7fb8787604051613c6e9291906154d8565b60405180910390a4610ee7816000878787876137e7565b6040516001600160a01b0383166024820152604481018290526118eb90849063a9059cbb60e01b90606401612946565b80471015613d055760405162461bcd60e51b815260206004820152601d60248201527f416464726573733a20696e73756666696369656e742062616c616e63650000006044820152606401610bf5565b6000826001600160a01b03168260405160006040518083038185875af1925050503d8060008114613d52576040519150601f19603f3d011682016040523d82523d6000602084013e613d57565b606091505b50509050806118eb5760405162461bcd60e51b815260206004820152603a60248201527f416464726573733a20756e61626c6520746f2073656e642076616c75652c207260448201527f6563697069656e74206d617920686176652072657665727465640000000000006064820152608401610bf5565b606061222a848460008585600080866001600160a01b03168587604051613df59190615213565b60006040518083038185875af1925050503d8060008114613e32576040519150601f19603f3d011682016040523d82523d6000602084013e613e37565b606091505b5091509150613e4887838387613e53565b979650505050505050565b60608315613ec2578251600003613ebb576001600160a01b0385163b613ebb5760405162461bcd60e51b815260206004820152601d60248201527f416464726573733a2063616c6c20746f206e6f6e2d636f6e74726163740000006044820152606401610bf5565b508161222a565b61222a83838151156135255781518083602001fd5b803561ffff81168114613ee957600080fd5b919050565b60008083601f840112613f0057600080fd5b5081356001600160401b03811115613f1757600080fd5b602083019150836020828501011115613f2f57600080fd5b9250929050565b6001600160401b038116811461154157600080fd5b60008060008060008060808789031215613f6457600080fd5b613f6d87613ed7565b955060208701356001600160401b0380821115613f8957600080fd5b613f958a838b01613eee565b909750955060408901359150613faa82613f36565b90935060608801359080821115613fc057600080fd5b50613fcd89828a01613eee565b979a9699509497509295939492505050565b6001600160a01b038116811461154157600080fd5b8035613ee981613fdf565b6000806040838503121561401257600080fd5b823561401d81613fdf565b946020939093013593505050565b6001600160e01b03198116811461154157600080fd5b60006020828403121561405357600080fd5b81356119ff8161402b565b60006020828403121561407057600080fd5b6119ff82613ed7565b6000806040838503121561408c57600080fd5b61401d83613ed7565b6000602082840312156140a757600080fd5b5035919050565b60005b838110156140c95781810151838201526020016140b1565b50506000910152565b600081518084526140ea8160208601602086016140ae565b601f01601f19169290920160200192915050565b6020815260006119ff60208301846140d2565b60006020828403121561412357600080fd5b81356119ff81613fdf565b634e487b7160e01b600052604160045260246000fd5b601f8201601f191681016001600160401b03811182821017156141695761416961412e565b6040525050565b60006001600160401b038211156141895761418961412e565b5060051b60200190565b600082601f8301126141a457600080fd5b813560206141b182614170565b6040516141be8282614144565b83815260059390931b85018201928281019150868411156141de57600080fd5b8286015b848110156141f957803583529183019183016141e2565b509695505050505050565b60006001600160401b0382111561421d5761421d61412e565b50601f01601f191660200190565b600061423683614204565b6040516142438282614144565b80925084815285858501111561425857600080fd5b8484602083013760006020868301015250509392505050565b600082601f83011261428257600080fd5b6119ff8383356020850161422b565b600080600080600060a086880312156142a957600080fd5b85356142b481613fdf565b945060208601356142c481613fdf565b935060408601356001600160401b03808211156142e057600080fd5b6142ec89838a01614193565b9450606088013591508082111561430257600080fd5b61430e89838a01614193565b9350608088013591508082111561432457600080fd5b5061433188828901614271565b9150509295509295909350565b60008060006040848603121561435357600080fd5b61435c84613ed7565b925060208401356001600160401b0381111561437757600080fd5b61438386828701613eee565b9497909650939450505050565b600080600080600080600080610100898b0312156143ad57600080fd5b6143b689613ff4565b97506143c460208a01613ed7565b965060408901356001600160401b03808211156143e057600080fd5b6143ec8c838d01614271565b975060608b013591508082111561440257600080fd5b61440e8c838d01614193565b965060808b013591508082111561442457600080fd5b6144308c838d01614193565b955061443e60a08c01613ff4565b945061444c60c08c01613ff4565b935060e08b013591508082111561446257600080fd5b5061446f8b828c01614271565b9150509295985092959890939650565b600080600080600080600080610100898b03121561449c57600080fd5b88356144a781613fdf565b97506144b560208a01613ed7565b965060408901356001600160401b03808211156144d157600080fd5b6144dd8c838d01614271565b975060608b0135965060808b0135955060a08b013591506144fd82613fdf565b90935060c08a01359061450f82613fdf565b90925060e08a0135908082111561446257600080fd5b6000806040838503121561453857600080fd5b82356001600160401b038082111561454f57600080fd5b818501915085601f83011261456357600080fd5b8135602061457082614170565b60405161457d8282614144565b83815260059390931b850182019282810191508984111561459d57600080fd5b948201945b838610156145c45785356145b581613fdf565b825294820194908201906145a2565b965050860135925050808211156145da57600080fd5b506145e785828601614193565b9150509250929050565b600081518084526020808501945080840160005b8381101561462157815187529582019590820190600101614605565b509495945050505050565b6020815260006119ff60208301846145f1565b60006020828403121561465157600080fd5b81356001600160401b0381111561466757600080fd5b8201601f8101841361467857600080fd5b61222a8482356020840161422b565b60008060006060848603121561469c57600080fd5b6146a584613ed7565b925060208401356001600160401b038111156146c057600080fd5b6146cc86828701614271565b92505060408401356146dd81613f36565b809150509250925092565b801515811461154157600080fd5b8035613ee9816146e8565b60008060008060008060c0878903121561471a57600080fd5b61472387613ed7565b955060208701356001600160401b038082111561473f57600080fd5b61474b8a838b01614271565b965060408901359550606089013594506080890135915061476b826146e8565b90925060a0880135908082111561478157600080fd5b5061478e89828a01614271565b9150509295509295509295565b600080604083850312156147ae57600080fd5b6147b783613ed7565b91506147c560208401613ed7565b90509250929050565b6000806000606084860312156147e357600080fd5b833592506020840135915060408401356146dd81613fdf565b6000806040838503121561480f57600080fd5b823561481a81613fdf565b9150602083013561482a816146e8565b809150509250929050565b60008060008060008060c0878903121561484e57600080fd5b61485787613ed7565b955060208701356001600160401b038082111561487357600080fd5b61487f8a838b01614271565b9650604089013591508082111561489557600080fd5b6148a18a838b01614193565b955060608901359150808211156148b757600080fd5b6148c38a838b01614193565b94506148d160808a016146f6565b935060a089013591508082111561478157600080fd5b6000806000806000608086880312156148ff57600080fd5b61490886613ed7565b945061491660208701613ed7565b93506040860135925060608601356001600160401b0381111561493857600080fd5b61494488828901613eee565b969995985093965092949392505050565b60008060006060848603121561496a57600080fd5b61497384613ed7565b925061498160208501613ed7565b9150604084013590509250925092565b600080600080606085870312156149a757600080fd5b843593506020850135925060408501356001600160401b03808211156149cc57600080fd5b818701915087601f8301126149e057600080fd5b8135818111156149ef57600080fd5b8860208260051b8501011115614a0457600080fd5b95989497505060200194505050565b60008060408385031215614a2657600080fd5b8235614a3181613fdf565b9150602083013561482a81613fdf565b600080600080600060a08688031215614a5957600080fd5b8535614a6481613fdf565b94506020860135614a7481613fdf565b9350604086013592506060860135915060808601356001600160401b03811115614a9d57600080fd5b61433188828901614271565b60008060008060808587031215614abf57600080fd5b614ac885613ed7565b9350614ad660208601613ed7565b92506040850135614ae681613fdf565b9396929550929360600135925050565b600181811c90821680614b0a57607f821691505b602082108103614b2a57634e487b7160e01b600052602260045260246000fd5b50919050565b8183823760009101908152919050565b60008351614b528184602088016140ae565b835190830190614b668183602088016140ae565b01949350505050565b634e487b7160e01b600052601160045260246000fd5b8082028115828204841417610e4257610e42614b6f565b600082614bb957634e487b7160e01b600052601260045260246000fd5b500490565b81810381811115610e4257610e42614b6f565b81835281816020850137506000828201602090810191909152601f909101601f19169091010190565b61ffff84168152604060208201526000612227604083018486614bd1565b634e487b7160e01b600052603260045260246000fd5b600060018201614c4057614c40614b6f565b5060010190565b601f8211156118eb57600081815260208120601f850160051c81016020861015614c6e5750805b601f850160051c820191505b818110156110af57828155600101614c7a565b81516001600160401b03811115614ca657614ca661412e565b614cba81614cb48454614af6565b84614c47565b602080601f831160018114614cef5760008415614cd75750858301515b600019600386901b1c1916600185901b1785556110af565b600085815260208120601f198616915b82811015614d1e57888601518255948401946001909101908401614cff565b5085821015614d3c5787850151600019600388901b60f8161c191681555b5050505050600190811b01905550565b6020808252603e908201527f416476616e6365644f4e4654313135354761736c6573734f70656e3a204f706560408201527f6e2045646974696f6e20686173206e6f74207374617274656420796574210000606082015260800190565b60208082526039908201527f416476616e6365644f4e4654313135354761736c6573734f70656e3a204f706560408201527f6e2045646974696f6e20686173206265656e20656e6465642e00000000000000606082015260800190565b60208082526039908201527f416476616e6365644f4e4654313135354761736c6573734f70656e3a20796f7560408201527f206e65656420746f2073657420737461626c6520707269636500000000000000606082015260800190565b60208082526035908201527f416476616e6365644f4e4654313135354761736c6573734f70656e3a206e6f746040820152741039bab83837b93a1039ba30b13632903a37b5b2b760591b606082015260800190565b8284823760609190911b6bffffffffffffffffffffffff19169101908152601401919050565b606081526000614ef160608301866140d2565b8281036020840152614f0381866145f1565b90508281036040840152614f1781856145f1565b9695505050505050565b61ffff861681526001600160a01b038516602082015260a060408201819052600090614f4f908301866140d2565b84151560608401528281036080840152614f6981856140d2565b98975050505050505050565b60008060408385031215614f8857600080fd5b505080516020909101519092909150565b600061ffff808816835280871660208401525084604083015260806060830152613e48608083018486614bd1565b61ffff86168152608060208201526000614fe5608083018688614bd1565b6001600160401b0394909416604083015250606001529392505050565b6001600160401b038311156150195761501961412e565b61502d836150278354614af6565b83614c47565b6000601f84116001811461506157600085156150495750838201355b600019600387901b1c1916600186901b178355610ee7565b600083815260209020601f19861690835b828110156150925786850135825560209485019460019092019101615072565b50868210156150af5760001960f88860031b161c19848701351681555b505060018560011b0183555050505050565b600082601f8301126150d257600080fd5b81516150dd81614204565b6040516150ea8282614144565b8281528560208487010111156150ff57600080fd5b6151108360208301602088016140ae565b95945050505050565b60006020828403121561512b57600080fd5b81516001600160401b0381111561514157600080fd5b61222a848285016150c1565b61ffff8516815260806020820152600061516a60808301866140d2565b6001600160401b03851660408401528281036060840152613e4881856140d2565b60006020828403121561519d57600080fd5b81516119ff816146e8565b6020808252602e908201527f455243313135353a2063616c6c6572206973206e6f7420746f6b656e206f776e60408201526d195c881bdc88185c1c1c9bdd995960921b606082015260800190565b60006020828403121561520857600080fd5b81516119ff81613f36565b600082516152258184602087016140ae565b9190910192915050565b60608152600061524260608301866145f1565b828103602084015261525481866145f1565b9150506001600160401b0383166040830152949350505050565b600082601f83011261527f57600080fd5b8151602061528c82614170565b6040516152998282614144565b83815260059390931b85018201928281019150868411156152b957600080fd5b8286015b848110156141f957805183529183019183016152bd565b6000806000606084860312156152e957600080fd5b83516001600160401b038082111561530057600080fd5b61530c878388016150c1565b9450602086015191508082111561532257600080fd5b61532e8783880161526e565b9350604086015191508082111561534457600080fd5b506153518682870161526e565b9150509250925092565b60208082526021908201527f455243313135353a206d696e7420746f20746865207a65726f206164647265736040820152607360f81b606082015260800190565b80820180821115610e4257610e42614b6f565b61ffff8616815260a0602082015260006153cc60a08301876140d2565b6001600160401b038616604084015282810360608401526153ed81866140d2565b90508281036080840152614f6981856140d2565b60208082526028908201527f455243313135353a2069647320616e6420616d6f756e7473206c656e677468206040820152670dad2e6dac2e8c6d60c31b606082015260800190565b60208082526025908201527f455243313135353a207472616e7366657220746f20746865207a65726f206164604082015264647265737360d81b606082015260800190565b6020808252602a908201527f455243313135353a20696e73756666696369656e742062616c616e636520666f60408201526939103a3930b739b332b960b11b606082015260800190565b6040815260006154eb60408301856145f1565b828103602084015261511081856145f1565b61ffff8716815260c06020820152600061551a60c08301886140d2565b828103604084015261552c81886140d2565b6001600160a01b0387811660608601528616608085015283810360a0850152905061555781856140d2565b9998505050505050505050565b6001600160a01b03868116825285166020820152604081018490526060810183905260a060808201819052600090613e48908301846140d2565b6000602082840312156155b057600080fd5b81516119ff8161402b565b600060033d11156155d45760046000803e5060005160e01c5b90565b600060443d10156155e55790565b6040516003193d81016004833e81513d6001600160401b03816024840111818411171561561457505050505090565b828501915081518181111561562c5750505050505090565b843d87010160208285010111156156465750505050505090565b61565560208286010187614144565b509095945050505050565b60208082526028908201527f455243313135353a204552433131353552656365697665722072656a656374656040820152676420746f6b656e7360c01b606082015260800190565b6001600160a01b0386811682528516602082015260a0604082018190526000906156d4908301866145f1565b82810360608401526153ed81866145f156fea2646970667358221220baa18bc09422030ed16491b6b4dbc88ab038a780aa431af14d5990104a0dca2164736f6c63430008110033",
    "linkReferences": {}
  },
  "methodIdentifiers": {
    "DEFAULT_PAYLOAD_SIZE_LIMIT()": "c4461834",
    "OPERATOR_FILTER_REGISTRY()": "41f43434",
    "_openEditionStarted()": "45e559c0",
    "balanceOf(address,uint256)": "00fdd58e",
    "balanceOfBatch(address[],uint256[])": "4e1273f4",
    "contractURI()": "e8a3d485",
    "estimateSendBatchFee(uint16,bytes,uint256[],uint256[],bool,bytes)": "b2535663",
    "estimateSendFee(uint16,bytes,uint256,uint256,bool,bytes)": "8608e5f8",
    "exists(uint256)": "4f558e79",
    "failedMessages(uint16,bytes,uint64)": "5b8c41e6",
    "flipRevealed()": "3b2c3fb6",
    "forceResumeReceive(uint16,bytes)": "42d65a8d",
    "getConfig(uint16,uint16,address,uint256)": "f5ecbdbc",
    "getTrustedRemoteAddress(uint16)": "9f38369a",
    "isApprovedForAll(address,address)": "e985e9c5",
    "isTrustedRemote(uint16,bytes)": "3d8b38f6",
    "lzEndpoint()": "b353aaa7",
    "lzReceive(uint16,bytes,uint64,bytes)": "001d3567",
    "minDstGasLookup(uint16,uint16)": "8cfd8f5c",
    "mint(uint256,uint256,bytes32[])": "e6d37b88",
    "mintGasless(uint256,uint256,address)": "988d4038",
    "nonblockingLzReceive(uint16,bytes,uint64,bytes)": "66ad5c8a",
    "openEditionEndedBy()": "f2d5d8de",
    "owner()": "8da5cb5b",
    "payloadSizeLimitLookup(uint16)": "3f1f4fa4",
    "precrime()": "950c8a74",
    "price()": "a035b1fe",
    "renounceOwnership()": "715018a6",
    "retryMessage(uint16,bytes,uint64,bytes)": "d1deba1f",
    "safeBatchTransferFrom(address,address,uint256[],uint256[],bytes)": "2eb2c2d6",
    "safeTransferFrom(address,address,uint256,uint256,bytes)": "f242432a",
    "sendBatchFrom(address,uint16,bytes,uint256[],uint256[],address,address,bytes)": "4ab4e687",
    "sendFrom(address,uint16,bytes,uint256,uint256,address,address,bytes)": "4db8226a",
    "setApprovalForAll(address,bool)": "a22cb465",
    "setBaseURI(string)": "55f804b3",
    "setBeneficiary(address)": "1c31f710",
    "setConfig(uint16,uint16,uint256,bytes)": "cbed8b9c",
    "setContractURI(string)": "938e3d7b",
    "setHiddenMetadataUri(string)": "4fdd43cb",
    "setMinDstGas(uint16,uint16,uint256)": "df2a5b3b",
    "setPayloadSizeLimit(uint16,uint256)": "0df37483",
    "setPrecrime(address)": "baf3292d",
    "setPrice(uint256)": "91b7f5ed",
    "setReceiveVersion(uint16)": "10ddb137",
    "setSendVersion(uint16)": "07e0db17",
    "setTax(uint256)": "2e5bb6ff",
    "setTaxRecipient(address)": "78e3079e",
    "setTrustedRemote(uint16,bytes)": "eb8d72b7",
    "setTrustedRemoteAddress(uint16,bytes)": "a6c3d165",
    "stableToken()": "a9d75b2b",
    "startOpenEdition(uint256)": "e87ebdfa",
    "stopOpenEdition()": "24a23d4f",
    "supportsInterface(bytes4)": "01ffc9a7",
    "tax()": "99c8d556",
    "totalSupply(uint256)": "bd85b039",
    "transferOwnership(address)": "f2fde38b",
    "trustedRemoteLookup(uint16)": "7533d788",
    "uri(uint256)": "0e89341c",
    "withdraw()": "3ccfd60b"
  },
  "id": 97
}