{
  "abi": [
    {
      "anonymous": false,
      "inputs": [
        {
          "indexed": true,
          "internalType": "address",
          "name": "currency",
          "type": "address"
        }
      ],
      "name": "CurrencyRemoved",
      "type": "event"
    },
    {
      "anonymous": false,
      "inputs": [
        {
          "indexed": true,
          "internalType": "address",
          "name": "currency",
          "type": "address"
        }
      ],
      "name": "CurrencyWhitelisted",
      "type": "event"
    },
    {
      "anonymous": false,
      "inputs": [
        {
          "indexed": true,
          "internalType": "address",
          "name": "previousOwner",
          "type": "address"
        },
        {
          "indexed": true,
          "internalType": "address",
          "name": "newOwner",
          "type": "address"
        }
      ],
      "name": "OwnershipTransferred",
      "type": "event"
    },
    {
      "inputs": [
        {
          "internalType": "address",
          "name": "currency",
          "type": "address"
        }
      ],
      "name": "addCurrency",
      "outputs": [],
      "stateMutability": "nonpayable",
      "type": "function"
    },
    {
      "inputs": [
        {
          "internalType": "address",
          "name": "currency",
          "type": "address"
        }
      ],
      "name": "isCurrencyWhitelisted",
      "outputs": [
        {
          "internalType": "bool",
          "name": "",
          "type": "bool"
        }
      ],
      "stateMutability": "view",
      "type": "function"
    },
    {
      "inputs": [
        {
          "internalType": "address",
          "name": "currency",
          "type": "address"
        }
      ],
      "name": "isOmniCurrency",
      "outputs": [
        {
          "internalType": "bool",
          "name": "",
          "type": "bool"
        }
      ],
      "stateMutability": "view",
      "type": "function"
    },
    {
      "inputs": [],
      "name": "owner",
      "outputs": [
        {
          "internalType": "address",
          "name": "",
          "type": "address"
        }
      ],
      "stateMutability": "view",
      "type": "function"
    },
    {
      "inputs": [
        {
          "internalType": "address",
          "name": "currency",
          "type": "address"
        }
      ],
      "name": "removeCurrency",
      "outputs": [],
      "stateMutability": "nonpayable",
      "type": "function"
    },
    {
      "inputs": [],
      "name": "renounceOwnership",
      "outputs": [],
      "stateMutability": "nonpayable",
      "type": "function"
    },
    {
      "inputs": [
        {
          "internalType": "address",
          "name": "newOwner",
          "type": "address"
        }
      ],
      "name": "transferOwnership",
      "outputs": [],
      "stateMutability": "nonpayable",
      "type": "function"
    },
    {
      "inputs": [],
      "name": "viewCountWhitelistedCurrencies",
      "outputs": [
        {
          "internalType": "uint256",
          "name": "",
          "type": "uint256"
        }
      ],
      "stateMutability": "view",
      "type": "function"
    },
    {
      "inputs": [
        {
          "internalType": "uint256",
          "name": "cursor",
          "type": "uint256"
        },
        {
          "internalType": "uint256",
          "name": "size",
          "type": "uint256"
        }
      ],
      "name": "viewWhitelistedCurrencies",
      "outputs": [
        {
          "internalType": "address[]",
          "name": "",
          "type": "address[]"
        },
        {
          "internalType": "uint256",
          "name": "",
          "type": "uint256"
        }
      ],
      "stateMutability": "view",
      "type": "function"
    }
  ],
  "bytecode": {
    "object": "0x608060405234801561001057600080fd5b5061001a3361001f565b61006f565b600080546001600160a01b038381166001600160a01b0319831681178455604051919092169283917f8be0079c531659141344cd1fd0a4f28419497f9722a3daafe3b4186f6b6457e09190a35050565b6109bc8061007e6000396000f3fe608060405234801561001057600080fd5b50600436106100935760003560e01c806385f39b0a1161006657806385f39b0a1461010c5780638ab234b61461012d5780638da5cb5b14610140578063c5d3a1071461015b578063f2fde38b1461016e57600080fd5b80631facfd9c1461009857806343b938c5146100b3578063715018a6146100d6578063748644c3146100e0575b600080fd5b6100a0610181565b6040519081526020015b60405180910390f35b6100c66100c1366004610802565b610192565b60405190151581526020016100aa565b6100de6101a5565b005b6100c66100ee366004610802565b6001600160a01b031660009081526003602052604090205460ff1690565b61011f61011a36600461082b565b6101b9565b6040516100aa92919061084d565b6100de61013b366004610802565b6102ae565b6000546040516001600160a01b0390911681526020016100aa565b6100de610169366004610802565b61037d565b6100de61017c366004610802565b610431565b600061018d60016104aa565b905090565b600061019f6001836104b4565b92915050565b6101ad6104d9565b6101b76000610533565b565b6060600082846101c960016104aa565b6101d391906108b4565b8111156101f257846101e560016104aa565b6101ef91906108b4565b90505b60008167ffffffffffffffff81111561020d5761020d6108c7565b604051908082528060200260200182016040528015610236578160200160208202803683370190505b50905060005b828110156102955761025961025182896108dd565b600190610583565b82828151811061026b5761026b6108f0565b6001600160a01b03909216602092830291909101909101528061028d81610906565b91505061023c565b50806102a183886108dd565b9350935050509250929050565b6102b66104d9565b6102c16001826104b4565b156103135760405162461bcd60e51b815260206004820152601d60248201527f43757272656e63793a20416c72656164792077686974656c697374656400000060448201526064015b60405180910390fd5b61031e60018261058f565b5061032a8160006105a4565b6001600160a01b038216600081815260036020526040808220805460ff191694151594909417909355915190917f3cbf62b327efb2d06d36e16c10a2f5c00cf0568e2b805bd56969b15d2736107891a250565b6103856104d9565b6103906001826104b4565b6103dc5760405162461bcd60e51b815260206004820152601960248201527f43757272656e63793a204e6f742077686974656c697374656400000000000000604482015260640161030a565b6103e7600182610681565b506001600160a01b038116600081815260036020526040808220805460ff19169055517fa40d69111be14f29022626d38310e47cc2d7f4cb728961509c2f65a4bee08c5b9190a250565b6104396104d9565b6001600160a01b03811661049e5760405162461bcd60e51b815260206004820152602660248201527f4f776e61626c653a206e6577206f776e657220697320746865207a65726f206160448201526564647265737360d01b606482015260840161030a565b6104a781610533565b50565b600061019f825490565b6001600160a01b038116600090815260018301602052604081205415155b9392505050565b6000546001600160a01b031633146101b75760405162461bcd60e51b815260206004820181905260248201527f4f776e61626c653a2063616c6c6572206973206e6f7420746865206f776e6572604482015260640161030a565b600080546001600160a01b038381166001600160a01b0319831681178455604051919092169283917f8be0079c531659141344cd1fd0a4f28419497f9722a3daafe3b4186f6b6457e09190a35050565b60006104d28383610696565b60006104d2836001600160a01b0384166106c0565b6040516001600160e01b031982166024820152600090819060440160408051601f198184030181529181526020820180516001600160e01b03166301ffc9a760e01b1790525190915060009081906001600160a01b0387169061060890859061091f565b6000604051808303816000865af19150503d8060008114610645576040519150601f19603f3d011682016040523d82523d6000602084013e61064a565b606091505b509150915081610660576000935050505061019f565b600081806020019051810190610676919061094e565b979650505050505050565b60006104d2836001600160a01b03841661070f565b60008260000182815481106106ad576106ad6108f0565b9060005260206000200154905092915050565b60008181526001830160205260408120546107075750815460018181018455600084815260208082209093018490558454848252828601909352604090209190915561019f565b50600061019f565b600081815260018301602052604081205480156107f85760006107336001836108b4565b8554909150600090610747906001906108b4565b90508181146107ac576000866000018281548110610767576107676108f0565b906000526020600020015490508087600001848154811061078a5761078a6108f0565b6000918252602080832090910192909255918252600188019052604090208390555b85548690806107bd576107bd610970565b60019003818190600052602060002001600090559055856001016000868152602001908152602001600020600090556001935050505061019f565b600091505061019f565b60006020828403121561081457600080fd5b81356001600160a01b03811681146104d257600080fd5b6000806040838503121561083e57600080fd5b50508035926020909101359150565b604080825283519082018190526000906020906060840190828701845b8281101561088f5781516001600160a01b03168452928401929084019060010161086a565b50505092019290925292915050565b634e487b7160e01b600052601160045260246000fd5b8181038181111561019f5761019f61089e565b634e487b7160e01b600052604160045260246000fd5b8082018082111561019f5761019f61089e565b634e487b7160e01b600052603260045260246000fd5b6000600182016109185761091861089e565b5060010190565b6000825160005b818110156109405760208186018101518583015201610926565b506000920191825250919050565b60006020828403121561096057600080fd5b815180151581146104d257600080fd5b634e487b7160e01b600052603160045260246000fdfea2646970667358221220f33e851eb397497178cf22d6f11cd2b42329c6a9584ddef47173a5f2dd65fc1464736f6c63430008110033",
    "linkReferences": {}
  },
  "methodIdentifiers": {
    "addCurrency(address)": "8ab234b6",
    "isCurrencyWhitelisted(address)": "43b938c5",
    "isOmniCurrency(address)": "748644c3",
    "owner()": "8da5cb5b",
    "removeCurrency(address)": "c5d3a107",
    "renounceOwnership()": "715018a6",
    "transferOwnership(address)": "f2fde38b",
    "viewCountWhitelistedCurrencies()": "1facfd9c",
    "viewWhitelistedCurrencies(uint256,uint256)": "85f39b0a"
  },
  "id": 3
}