{
  "abi": [
    {
      "inputs": [
        {
          "internalType": "address",
          "name": "_owner",
          "type": "address"
        }
      ],
      "stateMutability": "nonpayable",
      "type": "constructor"
    },
    {
      "inputs": [],
      "name": "NoOngoingTransferInProgress",
      "type": "error"
    },
    {
      "inputs": [],
      "name": "NotAffiliateController",
      "type": "error"
    },
    {
      "inputs": [],
      "name": "NotOwner",
      "type": "error"
    },
    {
      "inputs": [],
      "name": "PercentageTooHigh",
      "type": "error"
    },
    {
      "inputs": [],
      "name": "RenouncementNotInProgress",
      "type": "error"
    },
    {
      "inputs": [],
      "name": "TransferAlreadyInProgress",
      "type": "error"
    },
    {
      "inputs": [],
      "name": "TransferNotInProgress",
      "type": "error"
    },
    {
      "inputs": [],
      "name": "WrongPotentialOwner",
      "type": "error"
    },
    {
      "anonymous": false,
      "inputs": [],
      "name": "CancelOwnershipTransfer",
      "type": "event"
    },
    {
      "anonymous": false,
      "inputs": [
        {
          "indexed": false,
          "internalType": "address",
          "name": "currency",
          "type": "address"
        },
        {
          "indexed": false,
          "internalType": "bool",
          "name": "isAllowed",
          "type": "bool"
        }
      ],
      "name": "CurrencyStatusUpdated",
      "type": "event"
    },
    {
      "anonymous": false,
      "inputs": [],
      "name": "InitiateOwnershipRenouncement",
      "type": "event"
    },
    {
      "anonymous": false,
      "inputs": [
        {
          "indexed": false,
          "internalType": "address",
          "name": "previousOwner",
          "type": "address"
        },
        {
          "indexed": false,
          "internalType": "address",
          "name": "potentialOwner",
          "type": "address"
        }
      ],
      "name": "InitiateOwnershipTransfer",
      "type": "event"
    },
    {
      "anonymous": false,
      "inputs": [
        {
          "indexed": false,
          "internalType": "address",
          "name": "affiliateController",
          "type": "address"
        }
      ],
      "name": "NewAffiliateController",
      "type": "event"
    },
    {
      "anonymous": false,
      "inputs": [
        {
          "indexed": false,
          "internalType": "bool",
          "name": "isActive",
          "type": "bool"
        }
      ],
      "name": "NewAffiliateProgramStatus",
      "type": "event"
    },
    {
      "anonymous": false,
      "inputs": [
        {
          "indexed": false,
          "internalType": "address",
          "name": "affiliate",
          "type": "address"
        },
        {
          "indexed": false,
          "internalType": "uint256",
          "name": "rate",
          "type": "uint256"
        }
      ],
      "name": "NewAffiliateRate",
      "type": "event"
    },
    {
      "anonymous": false,
      "inputs": [
        {
          "indexed": false,
          "internalType": "address",
          "name": "newOwner",
          "type": "address"
        }
      ],
      "name": "NewOwner",
      "type": "event"
    },
    {
      "inputs": [],
      "name": "affiliateController",
      "outputs": [
        {
          "internalType": "address",
          "name": "",
          "type": "address"
        }
      ],
      "stateMutability": "view",
      "type": "function"
    },
    {
      "inputs": [
        {
          "internalType": "address",
          "name": "",
          "type": "address"
        }
      ],
      "name": "affiliateRates",
      "outputs": [
        {
          "internalType": "uint256",
          "name": "",
          "type": "uint256"
        }
      ],
      "stateMutability": "view",
      "type": "function"
    },
    {
      "inputs": [],
      "name": "cancelOwnershipTransfer",
      "outputs": [],
      "stateMutability": "nonpayable",
      "type": "function"
    },
    {
      "inputs": [],
      "name": "confirmOwnershipRenouncement",
      "outputs": [],
      "stateMutability": "nonpayable",
      "type": "function"
    },
    {
      "inputs": [],
      "name": "confirmOwnershipTransfer",
      "outputs": [],
      "stateMutability": "nonpayable",
      "type": "function"
    },
    {
      "inputs": [],
      "name": "initiateOwnershipRenouncement",
      "outputs": [],
      "stateMutability": "nonpayable",
      "type": "function"
    },
    {
      "inputs": [
        {
          "internalType": "address",
          "name": "newPotentialOwner",
          "type": "address"
        }
      ],
      "name": "initiateOwnershipTransfer",
      "outputs": [],
      "stateMutability": "nonpayable",
      "type": "function"
    },
    {
      "inputs": [],
      "name": "isAffiliateProgramActive",
      "outputs": [
        {
          "internalType": "bool",
          "name": "",
          "type": "bool"
        }
      ],
      "stateMutability": "view",
      "type": "function"
    },
    {
      "inputs": [
        {
          "internalType": "address",
          "name": "",
          "type": "address"
        }
      ],
      "name": "isCurrencyAllowed",
      "outputs": [
        {
          "internalType": "bool",
          "name": "",
          "type": "bool"
        }
      ],
      "stateMutability": "view",
      "type": "function"
    },
    {
      "inputs": [],
      "name": "owner",
      "outputs": [
        {
          "internalType": "address",
          "name": "",
          "type": "address"
        }
      ],
      "stateMutability": "view",
      "type": "function"
    },
    {
      "inputs": [],
      "name": "ownershipStatus",
      "outputs": [
        {
          "internalType": "enum IOwnableTwoSteps.Status",
          "name": "",
          "type": "uint8"
        }
      ],
      "stateMutability": "view",
      "type": "function"
    },
    {
      "inputs": [],
      "name": "potentialOwner",
      "outputs": [
        {
          "internalType": "address",
          "name": "",
          "type": "address"
        }
      ],
      "stateMutability": "view",
      "type": "function"
    },
    {
      "inputs": [
        {
          "internalType": "address",
          "name": "newAffiliateController",
          "type": "address"
        }
      ],
      "name": "updateAffiliateController",
      "outputs": [],
      "stateMutability": "nonpayable",
      "type": "function"
    },
    {
      "inputs": [
        {
          "internalType": "bool",
          "name": "isActive",
          "type": "bool"
        }
      ],
      "name": "updateAffiliateProgramStatus",
      "outputs": [],
      "stateMutability": "nonpayable",
      "type": "function"
    },
    {
      "inputs": [
        {
          "internalType": "address",
          "name": "affiliate",
          "type": "address"
        },
        {
          "internalType": "uint256",
          "name": "bp",
          "type": "uint256"
        }
      ],
      "name": "updateAffiliateRate",
      "outputs": [],
      "stateMutability": "nonpayable",
      "type": "function"
    },
    {
      "inputs": [
        {
          "internalType": "address",
          "name": "currency",
          "type": "address"
        },
        {
          "internalType": "bool",
          "name": "isAllowed",
          "type": "bool"
        }
      ],
      "name": "updateCurrencyStatus",
      "outputs": [],
      "stateMutability": "nonpayable",
      "type": "function"
    }
  ],
  "bytecode": {
    "object": "0x60803461009e57601f61087938819003918201601f19168301916001600160401b038311848410176100a35780849260209460405283398101031261009e57516001600160a01b0381169081900361009e57600080546001600160a01b031916821790556040519081527f3edd90e7770f06fafde38004653b33870066c33bfc923ff6102acd601f85dfbc90602090a16040516107bf90816100ba8239f35b600080fd5b634e487b7160e01b600052604160045260246000fdfe6040608081526004908136101561001557600080fd5b600090813560e01c80631d3c4268146106c357806323452b9c1461062e5780632bb5a9e6146105ed5780633e567539146105645780634cbac9dc1461053c57806354878876146104cf5780635a195d19146104925780635b6ac0111461040757806367d9dd79146103e15780637200b829146103195780637762df25146102f15780637a7d8851146102ba5780638da5cb5b14610293578063a02bab5714610225578063ae1cce5a1461018a5763c0b6f561146100d157600080fd5b34610186576020366003190112610186576100ea610748565b6100f2610763565b6001549060ff8260a01c1660038110156101735761016357600160a01b6001600160a01b039091166001600160a81b031992909216821717600155815133815260208101919091529192507fb86c75c9bffca616b2d314cc914f7c3f1d174255b16b941c3f3ededee276d5ef91a180f35b8251633a76bcd760e11b81528590fd5b634e487b7160e01b855260218652602485fd5b5080fd5b50346101865780600319360112610186576101a3610748565b600254602435916001600160a01b039182163303610215576127108311610205577fa16126d9473196242b0784325b30642b89f34442dd178a852f5b88ee483a30d894955016908185526003602052808386205582519182526020820152a180f35b8351632242dac960e01b81528690fd5b8351639f63004360e01b81528690fd5b50346101865760203660031901126101865760207fa92d85531a006d07fd0df4c61259b6dc18e4f492857e2454e5a20ee5e55cddcc91610263610748565b61026b610763565b600280546001600160a01b0319166001600160a01b039290921691821790559051908152a180f35b5034610186578160031936011261018657905490516001600160a01b039091168152602090f35b50346101865760203660031901126101865760209181906001600160a01b036102e1610748565b1681526003845220549051908152f35b503461018657816003193601126101865760015490516001600160a01b039091168152602090f35b5082346103dd57826003193601126103dd576001549060ff8260a01c1660038110156103ca576001036103bc576001600160a01b03821633036103ae57507f3edd90e7770f06fafde38004653b33870066c33bfc923ff6102acd601f85dfbc91602091336bffffffffffffffffffffffff60a01b8654161785556affffffffffffffffffffff60a81b1660015551338152a180f35b82516357ee7dc960e11b8152fd5b8251632f27941360e11b8152fd5b634e487b7160e01b855260218252602485fd5b8280fd5b503461018657816003193601126101865760209060ff60015460a81c1690519015158152f35b5082346103dd57826003193601126103dd57610421610763565b6001549160ff8360a01c16600381101561047f5761047257505060ff60a01b1916600160a11b176001557f3ff05a45e46337fa1cbf20996d2eeb927280bce099f37252bcca1040609604ec8180a180f35b51633a76bcd760e11b8152fd5b634e487b7160e01b855260218352602485fd5b5082346103dd5760203660031901126103dd5760209260ff918391906001600160a01b036104be610748565b168252855220541690519015158152f35b5082346103dd5760203660031901126103dd5735908115158092036103dd577fdca612ba3556b7c2603089071be1feb2404df55dcabceee9d5fd852fdb39bc349160209161051b610763565b6001805460ff60a81b191660a884901b60ff60a81b1617905551908152a180f35b503461018657816003193601126101865760025490516001600160a01b039091168152602090f35b5082346103dd57826003193601126103dd5761057e610763565b6001549060ff8260a01c1660038110156103ca576002036105df575082546001600160a01b031916835560ff60a01b1916600155518181527f3edd90e7770f06fafde38004653b33870066c33bfc923ff6102acd601f85dfbc90602090a180f35b825163022e289160e11b8152fd5b503461018657816003193601126101865760ff60015460a01c16905191600382101561061b57602083838152f35b634e487b7160e01b815260218452602490fd5b508290346103dd57826003193601126103dd57610649610763565b6001549160ff8360a01c169160038310156103ca5782156106b65750506001146106a3575b506001805460ff60a01b191690557f8eca980489e87f7dba4f26917aa4bfc906eb3f2b4f7b4b9fd0ff2b8bb3e21ae38180a180f35b6001600160a01b0319166001558161066e565b5163ccf69db760e01b8152fd5b508290346103dd57806003193601126103dd576106de610748565b91602435801515809103610744577fba28eda47a2e15b1dd3269e6d82f66730d20a5661aa40e9faf9f311c7872a54393610716610763565b6001600160a01b03168086526020928352838620805460ff191660ff8416179055835190815291820152a180f35b8480fd5b600435906001600160a01b038216820361075e57565b600080fd5b6000546001600160a01b0316330361077757565b6040516330cd747160e01b8152600490fdfea26469706673582212201a3c49f779949541514b6584da9bb3be65408551b426e10bbbfac9a9bab7a0af64736f6c63430008110033",
    "linkReferences": {}
  },
  "methodIdentifiers": {
    "affiliateController()": "4cbac9dc",
    "affiliateRates(address)": "7a7d8851",
    "cancelOwnershipTransfer()": "23452b9c",
    "confirmOwnershipRenouncement()": "3e567539",
    "confirmOwnershipTransfer()": "7200b829",
    "initiateOwnershipRenouncement()": "5b6ac011",
    "initiateOwnershipTransfer(address)": "c0b6f561",
    "isAffiliateProgramActive()": "67d9dd79",
    "isCurrencyAllowed(address)": "5a195d19",
    "owner()": "8da5cb5b",
    "ownershipStatus()": "2bb5a9e6",
    "potentialOwner()": "7762df25",
    "updateAffiliateController(address)": "a02bab57",
    "updateAffiliateProgramStatus(bool)": "54878876",
    "updateAffiliateRate(address,uint256)": "ae1cce5a",
    "updateCurrencyStatus(address,bool)": "1d3c4268"
  },
  "id": 10
}