{
  "address": "0xBD240EF6B388A5E270709cA51e6367fc238703F2",
  "abi": [
    {
      "inputs": [
        {
          "internalType": "string",
          "name": "_name",
          "type": "string"
        },
        {
          "internalType": "string",
          "name": "_symbol",
          "type": "string"
        },
        {
          "internalType": "address",
          "name": "_layerZeroEndpoint",
          "type": "address"
        },
        {
          "internalType": "uint256",
          "name": "_startMintId",
          "type": "uint256"
        },
        {
          "internalType": "uint256",
          "name": "_endMintId",
          "type": "uint256"
        },
        {
          "internalType": "uint256",
          "name": "_maxTokensPerMint",
          "type": "uint256"
        },
        {
          "internalType": "string",
          "name": "_baseTokenURI",
          "type": "string"
        },
        {
          "internalType": "string",
          "name": "_hiddenURI",
          "type": "string"
        }
      ],
      "stateMutability": "nonpayable",
      "type": "constructor"
    },
    {
      "anonymous": false,
      "inputs": [
        {
          "indexed": true,
          "internalType": "address",
          "name": "owner",
          "type": "address"
        },
        {
          "indexed": true,
          "internalType": "address",
          "name": "approved",
          "type": "address"
        },
        {
          "indexed": true,
          "internalType": "uint256",
          "name": "tokenId",
          "type": "uint256"
        }
      ],
      "name": "Approval",
      "type": "event"
    },
    {
      "anonymous": false,
      "inputs": [
        {
          "indexed": true,
          "internalType": "address",
          "name": "owner",
          "type": "address"
        },
        {
          "indexed": true,
          "internalType": "address",
          "name": "operator",
          "type": "address"
        },
        {
          "indexed": false,
          "internalType": "bool",
          "name": "approved",
          "type": "bool"
        }
      ],
      "name": "ApprovalForAll",
      "type": "event"
    },
    {
      "anonymous": false,
      "inputs": [
        {
          "indexed": false,
          "internalType": "uint16",
          "name": "_srcChainId",
          "type": "uint16"
        },
        {
          "indexed": false,
          "internalType": "bytes",
          "name": "_srcAddress",
          "type": "bytes"
        },
        {
          "indexed": false,
          "internalType": "uint64",
          "name": "_nonce",
          "type": "uint64"
        },
        {
          "indexed": false,
          "internalType": "bytes",
          "name": "_payload",
          "type": "bytes"
        }
      ],
      "name": "MessageFailed",
      "type": "event"
    },
    {
      "anonymous": false,
      "inputs": [
        {
          "indexed": true,
          "internalType": "address",
          "name": "previousOwner",
          "type": "address"
        },
        {
          "indexed": true,
          "internalType": "address",
          "name": "newOwner",
          "type": "address"
        }
      ],
      "name": "OwnershipTransferred",
      "type": "event"
    },
    {
      "anonymous": false,
      "inputs": [
        {
          "indexed": true,
          "internalType": "uint16",
          "name": "_srcChainId",
          "type": "uint16"
        },
        {
          "indexed": true,
          "internalType": "bytes",
          "name": "_srcAddress",
          "type": "bytes"
        },
        {
          "indexed": true,
          "internalType": "address",
          "name": "_toAddress",
          "type": "address"
        },
        {
          "indexed": false,
          "internalType": "uint256",
          "name": "_tokenId",
          "type": "uint256"
        },
        {
          "indexed": false,
          "internalType": "uint64",
          "name": "_nonce",
          "type": "uint64"
        }
      ],
      "name": "ReceiveFromChain",
      "type": "event"
    },
    {
      "anonymous": false,
      "inputs": [
        {
          "indexed": true,
          "internalType": "address",
          "name": "_sender",
          "type": "address"
        },
        {
          "indexed": true,
          "internalType": "uint16",
          "name": "_dstChainId",
          "type": "uint16"
        },
        {
          "indexed": true,
          "internalType": "bytes",
          "name": "_toAddress",
          "type": "bytes"
        },
        {
          "indexed": false,
          "internalType": "uint256",
          "name": "_tokenId",
          "type": "uint256"
        },
        {
          "indexed": false,
          "internalType": "uint64",
          "name": "_nonce",
          "type": "uint64"
        }
      ],
      "name": "SendToChain",
      "type": "event"
    },
    {
      "anonymous": false,
      "inputs": [
        {
          "indexed": false,
          "internalType": "uint16",
          "name": "_srcChainId",
          "type": "uint16"
        },
        {
          "indexed": false,
          "internalType": "bytes",
          "name": "_srcAddress",
          "type": "bytes"
        }
      ],
      "name": "SetTrustedRemote",
      "type": "event"
    },
    {
      "anonymous": false,
      "inputs": [
        {
          "indexed": true,
          "internalType": "address",
          "name": "from",
          "type": "address"
        },
        {
          "indexed": true,
          "internalType": "address",
          "name": "to",
          "type": "address"
        },
        {
          "indexed": true,
          "internalType": "uint256",
          "name": "tokenId",
          "type": "uint256"
        }
      ],
      "name": "Transfer",
      "type": "event"
    },
    {
      "inputs": [
        {
          "internalType": "address",
          "name": "",
          "type": "address"
        }
      ],
      "name": "_boughtCount",
      "outputs": [
        {
          "internalType": "uint256",
          "name": "",
          "type": "uint256"
        }
      ],
      "stateMutability": "view",
      "type": "function"
    },
    {
      "inputs": [],
      "name": "_publicSaleStarted",
      "outputs": [
        {
          "internalType": "bool",
          "name": "",
          "type": "bool"
        }
      ],
      "stateMutability": "view",
      "type": "function"
    },
    {
      "inputs": [],
      "name": "_saleStarted",
      "outputs": [
        {
          "internalType": "bool",
          "name": "",
          "type": "bool"
        }
      ],
      "stateMutability": "view",
      "type": "function"
    },
    {
      "inputs": [
        {
          "internalType": "address",
          "name": "to",
          "type": "address"
        },
        {
          "internalType": "uint256",
          "name": "tokenId",
          "type": "uint256"
        }
      ],
      "name": "approve",
      "outputs": [],
      "stateMutability": "nonpayable",
      "type": "function"
    },
    {
      "inputs": [
        {
          "internalType": "address",
          "name": "owner",
          "type": "address"
        }
      ],
      "name": "balanceOf",
      "outputs": [
        {
          "internalType": "uint256",
          "name": "",
          "type": "uint256"
        }
      ],
      "stateMutability": "view",
      "type": "function"
    },
    {
      "inputs": [],
      "name": "contractURI",
      "outputs": [
        {
          "internalType": "string",
          "name": "",
          "type": "string"
        }
      ],
      "stateMutability": "view",
      "type": "function"
    },
    {
      "inputs": [
        {
          "internalType": "uint16",
          "name": "_dstChainId",
          "type": "uint16"
        },
        {
          "internalType": "bytes",
          "name": "_toAddress",
          "type": "bytes"
        },
        {
          "internalType": "uint256",
          "name": "_tokenId",
          "type": "uint256"
        },
        {
          "internalType": "bool",
          "name": "_useZro",
          "type": "bool"
        },
        {
          "internalType": "bytes",
          "name": "_adapterParams",
          "type": "bytes"
        }
      ],
      "name": "estimateSendFee",
      "outputs": [
        {
          "internalType": "uint256",
          "name": "nativeFee",
          "type": "uint256"
        },
        {
          "internalType": "uint256",
          "name": "zroFee",
          "type": "uint256"
        }
      ],
      "stateMutability": "view",
      "type": "function"
    },
    {
      "inputs": [
        {
          "internalType": "uint16",
          "name": "",
          "type": "uint16"
        },
        {
          "internalType": "bytes",
          "name": "",
          "type": "bytes"
        },
        {
          "internalType": "uint256",
          "name": "",
          "type": "uint256"
        }
      ],
      "name": "failedMessages",
      "outputs": [
        {
          "internalType": "bytes32",
          "name": "",
          "type": "bytes32"
        }
      ],
      "stateMutability": "view",
      "type": "function"
    },
    {
      "inputs": [],
      "name": "flipPublicSaleStarted",
      "outputs": [],
      "stateMutability": "nonpayable",
      "type": "function"
    },
    {
      "inputs": [],
      "name": "flipRevealed",
      "outputs": [],
      "stateMutability": "nonpayable",
      "type": "function"
    },
    {
      "inputs": [],
      "name": "flipSaleStarted",
      "outputs": [],
      "stateMutability": "nonpayable",
      "type": "function"
    },
    {
      "inputs": [
        {
          "internalType": "uint16",
          "name": "_srcChainId",
          "type": "uint16"
        },
        {
          "internalType": "bytes",
          "name": "_srcAddress",
          "type": "bytes"
        }
      ],
      "name": "forceResumeReceive",
      "outputs": [],
      "stateMutability": "nonpayable",
      "type": "function"
    },
    {
      "inputs": [
        {
          "internalType": "uint256",
          "name": "tokenId",
          "type": "uint256"
        }
      ],
      "name": "getApproved",
      "outputs": [
        {
          "internalType": "address",
          "name": "",
          "type": "address"
        }
      ],
      "stateMutability": "view",
      "type": "function"
    },
    {
      "inputs": [
        {
          "internalType": "uint16",
          "name": "",
          "type": "uint16"
        },
        {
          "internalType": "uint16",
          "name": "_chainId",
          "type": "uint16"
        },
        {
          "internalType": "address",
          "name": "",
          "type": "address"
        },
        {
          "internalType": "uint256",
          "name": "_configType",
          "type": "uint256"
        }
      ],
      "name": "getConfig",
      "outputs": [
        {
          "internalType": "bytes",
          "name": "",
          "type": "bytes"
        }
      ],
      "stateMutability": "view",
      "type": "function"
    },
    {
      "inputs": [],
      "name": "getLzEndpoint",
      "outputs": [
        {
          "internalType": "address",
          "name": "",
          "type": "address"
        }
      ],
      "stateMutability": "view",
      "type": "function"
    },
    {
      "inputs": [
        {
          "internalType": "uint16",
          "name": "_chainId",
          "type": "uint16"
        }
      ],
      "name": "getTrustedRemote",
      "outputs": [
        {
          "internalType": "bytes",
          "name": "",
          "type": "bytes"
        }
      ],
      "stateMutability": "view",
      "type": "function"
    },
    {
      "inputs": [
        {
          "internalType": "address",
          "name": "owner",
          "type": "address"
        },
        {
          "internalType": "address",
          "name": "operator",
          "type": "address"
        }
      ],
      "name": "isApprovedForAll",
      "outputs": [
        {
          "internalType": "bool",
          "name": "",
          "type": "bool"
        }
      ],
      "stateMutability": "view",
      "type": "function"
    },
    {
      "inputs": [
        {
          "internalType": "uint16",
          "name": "_srcChainId",
          "type": "uint16"
        },
        {
          "internalType": "bytes",
          "name": "_srcAddress",
          "type": "bytes"
        }
      ],
      "name": "isTrustedRemote",
      "outputs": [
        {
          "internalType": "bool",
          "name": "",
          "type": "bool"
        }
      ],
      "stateMutability": "view",
      "type": "function"
    },
    {
      "inputs": [
        {
          "internalType": "uint16",
          "name": "_srcChainId",
          "type": "uint16"
        },
        {
          "internalType": "bytes",
          "name": "_srcAddress",
          "type": "bytes"
        },
        {
          "internalType": "uint64",
          "name": "_nonce",
          "type": "uint64"
        },
        {
          "internalType": "bytes",
          "name": "_payload",
          "type": "bytes"
        }
      ],
      "name": "lzReceive",
      "outputs": [],
      "stateMutability": "nonpayable",
      "type": "function"
    },
    {
      "inputs": [],
      "name": "maxMintId",
      "outputs": [
        {
          "internalType": "uint256",
          "name": "",
          "type": "uint256"
        }
      ],
      "stateMutability": "view",
      "type": "function"
    },
    {
      "inputs": [],
      "name": "maxTokensPerMint",
      "outputs": [
        {
          "internalType": "uint256",
          "name": "",
          "type": "uint256"
        }
      ],
      "stateMutability": "view",
      "type": "function"
    },
    {
      "inputs": [],
      "name": "merkleRoot",
      "outputs": [
        {
          "internalType": "bytes32",
          "name": "",
          "type": "bytes32"
        }
      ],
      "stateMutability": "view",
      "type": "function"
    },
    {
      "inputs": [
        {
          "internalType": "uint256",
          "name": "_nbTokens",
          "type": "uint256"
        },
        {
          "internalType": "bytes32[]",
          "name": "_merkleProof",
          "type": "bytes32[]"
        }
      ],
      "name": "mint",
      "outputs": [],
      "stateMutability": "payable",
      "type": "function"
    },
    {
      "inputs": [],
      "name": "name",
      "outputs": [
        {
          "internalType": "string",
          "name": "",
          "type": "string"
        }
      ],
      "stateMutability": "view",
      "type": "function"
    },
    {
      "inputs": [],
      "name": "nextMintId",
      "outputs": [
        {
          "internalType": "uint256",
          "name": "",
          "type": "uint256"
        }
      ],
      "stateMutability": "view",
      "type": "function"
    },
    {
      "inputs": [
        {
          "internalType": "uint16",
          "name": "_srcChainId",
          "type": "uint16"
        },
        {
          "internalType": "bytes",
          "name": "_srcAddress",
          "type": "bytes"
        },
        {
          "internalType": "uint64",
          "name": "_nonce",
          "type": "uint64"
        },
        {
          "internalType": "bytes",
          "name": "_payload",
          "type": "bytes"
        }
      ],
      "name": "nonblockingLzReceive",
      "outputs": [],
      "stateMutability": "nonpayable",
      "type": "function"
    },
    {
      "inputs": [],
      "name": "owner",
      "outputs": [
        {
          "internalType": "address",
          "name": "",
          "type": "address"
        }
      ],
      "stateMutability": "view",
      "type": "function"
    },
    {
      "inputs": [
        {
          "internalType": "uint256",
          "name": "tokenId",
          "type": "uint256"
        }
      ],
      "name": "ownerOf",
      "outputs": [
        {
          "internalType": "address",
          "name": "",
          "type": "address"
        }
      ],
      "stateMutability": "view",
      "type": "function"
    },
    {
      "inputs": [],
      "name": "price",
      "outputs": [
        {
          "internalType": "uint256",
          "name": "",
          "type": "uint256"
        }
      ],
      "stateMutability": "view",
      "type": "function"
    },
    {
      "inputs": [
        {
          "internalType": "uint256",
          "name": "_nbTokens",
          "type": "uint256"
        }
      ],
      "name": "publicMint",
      "outputs": [],
      "stateMutability": "payable",
      "type": "function"
    },
    {
      "inputs": [],
      "name": "renounceOwnership",
      "outputs": [],
      "stateMutability": "nonpayable",
      "type": "function"
    },
    {
      "inputs": [
        {
          "internalType": "uint16",
          "name": "_srcChainId",
          "type": "uint16"
        },
        {
          "internalType": "bytes",
          "name": "_srcAddress",
          "type": "bytes"
        },
        {
          "internalType": "uint64",
          "name": "_nonce",
          "type": "uint64"
        },
        {
          "internalType": "bytes",
          "name": "_payload",
          "type": "bytes"
        }
      ],
      "name": "retryMessage",
      "outputs": [],
      "stateMutability": "payable",
      "type": "function"
    },
    {
      "inputs": [
        {
          "internalType": "uint256",
          "name": "",
          "type": "uint256"
        },
        {
          "internalType": "uint256",
          "name": "salePrice",
          "type": "uint256"
        }
      ],
      "name": "royaltyInfo",
      "outputs": [
        {
          "internalType": "address",
          "name": "receiver",
          "type": "address"
        },
        {
          "internalType": "uint256",
          "name": "royaltyAmount",
          "type": "uint256"
        }
      ],
      "stateMutability": "view",
      "type": "function"
    },
    {
      "inputs": [
        {
          "internalType": "address",
          "name": "from",
          "type": "address"
        },
        {
          "internalType": "address",
          "name": "to",
          "type": "address"
        },
        {
          "internalType": "uint256",
          "name": "tokenId",
          "type": "uint256"
        }
      ],
      "name": "safeTransferFrom",
      "outputs": [],
      "stateMutability": "nonpayable",
      "type": "function"
    },
    {
      "inputs": [
        {
          "internalType": "address",
          "name": "from",
          "type": "address"
        },
        {
          "internalType": "address",
          "name": "to",
          "type": "address"
        },
        {
          "internalType": "uint256",
          "name": "tokenId",
          "type": "uint256"
        },
        {
          "internalType": "bytes",
          "name": "_data",
          "type": "bytes"
        }
      ],
      "name": "safeTransferFrom",
      "outputs": [],
      "stateMutability": "nonpayable",
      "type": "function"
    },
    {
      "inputs": [
        {
          "internalType": "address",
          "name": "_from",
          "type": "address"
        },
        {
          "internalType": "uint16",
          "name": "_dstChainId",
          "type": "uint16"
        },
        {
          "internalType": "bytes",
          "name": "_toAddress",
          "type": "bytes"
        },
        {
          "internalType": "uint256",
          "name": "_tokenId",
          "type": "uint256"
        },
        {
          "internalType": "address payable",
          "name": "_refundAddress",
          "type": "address"
        },
        {
          "internalType": "address",
          "name": "_zroPaymentAddress",
          "type": "address"
        },
        {
          "internalType": "bytes",
          "name": "_adapterParams",
          "type": "bytes"
        }
      ],
      "name": "sendFrom",
      "outputs": [],
      "stateMutability": "payable",
      "type": "function"
    },
    {
      "inputs": [
        {
          "internalType": "address",
          "name": "operator",
          "type": "address"
        },
        {
          "internalType": "bool",
          "name": "approved",
          "type": "bool"
        }
      ],
      "name": "setApprovalForAll",
      "outputs": [],
      "stateMutability": "nonpayable",
      "type": "function"
    },
    {
      "inputs": [
        {
          "internalType": "string",
          "name": "uri",
          "type": "string"
        }
      ],
      "name": "setBaseURI",
      "outputs": [],
      "stateMutability": "nonpayable",
      "type": "function"
    },
    {
      "inputs": [
        {
          "internalType": "address payable",
          "name": "_beneficiary",
          "type": "address"
        }
      ],
      "name": "setBeneficiary",
      "outputs": [],
      "stateMutability": "nonpayable",
      "type": "function"
    },
    {
      "inputs": [
        {
          "internalType": "uint16",
          "name": "_version",
          "type": "uint16"
        },
        {
          "internalType": "uint16",
          "name": "_chainId",
          "type": "uint16"
        },
        {
          "internalType": "uint256",
          "name": "_configType",
          "type": "uint256"
        },
        {
          "internalType": "bytes",
          "name": "_config",
          "type": "bytes"
        }
      ],
      "name": "setConfig",
      "outputs": [],
      "stateMutability": "nonpayable",
      "type": "function"
    },
    {
      "inputs": [
        {
          "internalType": "string",
          "name": "_contractURI",
          "type": "string"
        }
      ],
      "name": "setContractURI",
      "outputs": [],
      "stateMutability": "nonpayable",
      "type": "function"
    },
    {
      "inputs": [
        {
          "internalType": "string",
          "name": "_hiddenMetadataUri",
          "type": "string"
        }
      ],
      "name": "setHiddenMetadataUri",
      "outputs": [],
      "stateMutability": "nonpayable",
      "type": "function"
    },
    {
      "inputs": [
        {
          "internalType": "bytes32",
          "name": "_merkleRoot",
          "type": "bytes32"
        }
      ],
      "name": "setMerkleRoot",
      "outputs": [],
      "stateMutability": "nonpayable",
      "type": "function"
    },
    {
      "inputs": [
        {
          "internalType": "uint256",
          "name": "newPrice",
          "type": "uint256"
        }
      ],
      "name": "setPrice",
      "outputs": [],
      "stateMutability": "nonpayable",
      "type": "function"
    },
    {
      "inputs": [
        {
          "internalType": "uint16",
          "name": "_version",
          "type": "uint16"
        }
      ],
      "name": "setReceiveVersion",
      "outputs": [],
      "stateMutability": "nonpayable",
      "type": "function"
    },
    {
      "inputs": [
        {
          "internalType": "uint256",
          "name": "_royaltyBasisPoints",
          "type": "uint256"
        }
      ],
      "name": "setRoyaltyFee",
      "outputs": [],
      "stateMutability": "nonpayable",
      "type": "function"
    },
    {
      "inputs": [
        {
          "internalType": "uint16",
          "name": "_version",
          "type": "uint16"
        }
      ],
      "name": "setSendVersion",
      "outputs": [],
      "stateMutability": "nonpayable",
      "type": "function"
    },
    {
      "inputs": [
        {
          "internalType": "uint16",
          "name": "_srcChainId",
          "type": "uint16"
        },
        {
          "internalType": "bytes",
          "name": "_srcAddress",
          "type": "bytes"
        }
      ],
      "name": "setTrustedRemote",
      "outputs": [],
      "stateMutability": "nonpayable",
      "type": "function"
    },
    {
      "inputs": [
        {
          "internalType": "bytes4",
          "name": "interfaceId",
          "type": "bytes4"
        }
      ],
      "name": "supportsInterface",
      "outputs": [
        {
          "internalType": "bool",
          "name": "",
          "type": "bool"
        }
      ],
      "stateMutability": "view",
      "type": "function"
    },
    {
      "inputs": [],
      "name": "symbol",
      "outputs": [
        {
          "internalType": "string",
          "name": "",
          "type": "string"
        }
      ],
      "stateMutability": "view",
      "type": "function"
    },
    {
      "inputs": [
        {
          "internalType": "uint256",
          "name": "index",
          "type": "uint256"
        }
      ],
      "name": "tokenByIndex",
      "outputs": [
        {
          "internalType": "uint256",
          "name": "",
          "type": "uint256"
        }
      ],
      "stateMutability": "view",
      "type": "function"
    },
    {
      "inputs": [
        {
          "internalType": "address",
          "name": "owner",
          "type": "address"
        },
        {
          "internalType": "uint256",
          "name": "index",
          "type": "uint256"
        }
      ],
      "name": "tokenOfOwnerByIndex",
      "outputs": [
        {
          "internalType": "uint256",
          "name": "",
          "type": "uint256"
        }
      ],
      "stateMutability": "view",
      "type": "function"
    },
    {
      "inputs": [
        {
          "internalType": "uint256",
          "name": "tokenId",
          "type": "uint256"
        }
      ],
      "name": "tokenURI",
      "outputs": [
        {
          "internalType": "string",
          "name": "",
          "type": "string"
        }
      ],
      "stateMutability": "view",
      "type": "function"
    },
    {
      "inputs": [],
      "name": "totalSupply",
      "outputs": [
        {
          "internalType": "uint256",
          "name": "",
          "type": "uint256"
        }
      ],
      "stateMutability": "view",
      "type": "function"
    },
    {
      "inputs": [
        {
          "internalType": "address",
          "name": "from",
          "type": "address"
        },
        {
          "internalType": "address",
          "name": "to",
          "type": "address"
        },
        {
          "internalType": "uint256",
          "name": "tokenId",
          "type": "uint256"
        }
      ],
      "name": "transferFrom",
      "outputs": [],
      "stateMutability": "nonpayable",
      "type": "function"
    },
    {
      "inputs": [
        {
          "internalType": "address",
          "name": "newOwner",
          "type": "address"
        }
      ],
      "name": "transferOwnership",
      "outputs": [],
      "stateMutability": "nonpayable",
      "type": "function"
    },
    {
      "inputs": [],
      "name": "withdraw",
      "outputs": [],
      "stateMutability": "nonpayable",
      "type": "function"
    }
  ],
  "transactionHash": "0xbcd99317fde8108caa080fdd86047711a9a126e5d8c153c487a5522c24ee9893",
  "args": [
    "Gregs (POLY)",
    "GREG",
    "0xf69186dfBa60DdB133E91E9A4B5673624293d8F8",
    1350,
    2200,
    5,
    "POLYTokenURI",
    "https://gateway.pinata.cloud/ipfs/QmSsvAGwbi4Q9yACBCZ1jF8CC45LkgZZzdJjiQV2fkZmTj"
  ],
  "numDeployments": 1,
  "solcInputHash": "4c33992f5f03d71658a24d6d6cff81df",
  "bytecode": "0x60a06040526000600e556101f46012553480156200001c57600080fd5b5060405162004a1338038062004a138339810160408190526200003f91620002bb565b87878782828280806200005233620000f5565b60601b6001600160601b031916608052505081516200007990600390602085019062000145565b5080516200008f90600490602084019062000145565b50506001600d55505050600f8690555060108490556011839055601380546001600160a01b031916331790558151620000d090601690602085019062000145565b508051620000e690601790602084019062000145565b505050505050505050620003f2565b600080546001600160a01b038381166001600160a01b0319831681178455604051919092169283917f8be0079c531659141344cd1fd0a4f28419497f9722a3daafe3b4186f6b6457e09190a35050565b82805462000153906200039f565b90600052602060002090601f016020900481019282620001775760008555620001c2565b82601f106200019257805160ff1916838001178555620001c2565b82800160010185558215620001c2579182015b82811115620001c2578251825591602001919060010190620001a5565b50620001d0929150620001d4565b5090565b5b80821115620001d05760008155600101620001d5565b80516001600160a01b03811681146200020357600080fd5b919050565b600082601f83011262000219578081fd5b81516001600160401b0380821115620002365762000236620003dc565b604051601f8301601f19908116603f01168101908282118183101715620002615762000261620003dc565b816040528381526020925086838588010111156200027d578485fd5b8491505b83821015620002a0578582018301518183018401529082019062000281565b83821115620002b157848385830101525b9695505050505050565b600080600080600080600080610100898b031215620002d8578384fd5b88516001600160401b0380821115620002ef578586fd5b620002fd8c838d0162000208565b995060208b015191508082111562000313578586fd5b620003218c838d0162000208565b98506200033160408c01620001eb565b975060608b0151965060808b0151955060a08b0151945060c08b01519150808211156200035c578384fd5b6200036a8c838d0162000208565b935060e08b015191508082111562000380578283fd5b506200038f8b828c0162000208565b9150509295985092959890939650565b600181811c90821680620003b457607f821691505b60208210811415620003d657634e487b7160e01b600052602260045260246000fd5b50919050565b634e487b7160e01b600052604160045260246000fd5b60805160601c6145c362000450600039600081816109c601528181610ac101528181610cbf01528181610f15015281816110470152818161158801528181611e1f01528181612202015281816128ef0152612fbd01526145c36000f3fe6080604052600436106103755760003560e01c8063600e97f6116101d157806395d89b4111610102578063d1deba1f116100a0578063e985e9c51161006f578063e985e9c514610a15578063eb8d72b714610a5e578063f2fde38b14610a7e578063f5ecbdbc14610a9e57600080fd5b8063d1deba1f146109a4578063dacbcbe2146109b7578063e1d4c870146109ea578063e8a3d48514610a0057600080fd5b8063b88d4fde116100dc578063b88d4fde14610931578063ba41b0c614610951578063c87b56dd14610964578063cbed8b9c1461098457600080fd5b806395d89b41146108e6578063a035b1fe146108fb578063a22cb4651461091157600080fd5b80637cb647591161016f5780638da5cb5b116101495780638da5cb5b146108395780638ee749121461085757806391b7f5ed146108a6578063938e3d7b146108c657600080fd5b80637cb64759146107e557806387c348bf14610805578063899d7b381461082457600080fd5b806369b41f95116101ab57806369b41f951461077a5780636aa99da31461079a57806370a08231146107b0578063715018a6146107d057600080fd5b8063600e97f6146107205780636352211e1461073a57806366ad5c8a1461075a57600080fd5b80632a55205a116102ab5780633e4086e5116102495780634f6ccce7116102235780634f6ccce7146106ad5780634fdd43cb146106cd57806351905636146106ed57806355f804b31461070057600080fd5b80633e4086e51461064d57806342842e0e1461066d57806342d65a8d1461068d57600080fd5b80632f745c59116102855780632f745c59146105e35780633b2c3fb6146106035780633ccfd60b146106185780633d8b38f61461062d57600080fd5b80632a55205a1461057b5780632db11544146105ba5780632eb4a7ab146105cd57600080fd5b806310ddb1371161031857806318160ddd116102f257806318160ddd146104f15780631c31f7101461050657806323b872dd146105265780632a205e3d1461054657600080fd5b806310ddb137146104a65780631291e33e146104c657806317465471146104db57600080fd5b806307e0db171161035457806307e0db17146103f3578063081812fc14610413578063095ea7b31461044b57806309dc20ce1461046b57600080fd5b80621d35671461037a57806301ffc9a71461039c57806306fdde03146103d1575b600080fd5b34801561038657600080fd5b5061039a610395366004613baa565b610abe565b005b3480156103a857600080fd5b506103bc6103b73660046138bc565b610bc7565b60405190151581526020015b60405180910390f35b3480156103dd57600080fd5b506103e6610bea565b6040516103c89190613f09565b3480156103ff57600080fd5b5061039a61040e3660046139af565b610c7c565b34801561041f57600080fd5b5061043361042e3660046138a4565b610d27565b6040516001600160a01b0390911681526020016103c8565b34801561045757600080fd5b5061039a610466366004613879565b610dbc565b34801561047757600080fd5b50610498610486366004613699565b60186020526000908152604090205481565b6040519081526020016103c8565b3480156104b257600080fd5b5061039a6104c13660046139af565b610ed2565b3480156104d257600080fd5b5061039a610f4c565b3480156104e757600080fd5b5061049860115481565b3480156104fd57600080fd5b50600b54610498565b34801561051257600080fd5b5061039a610521366004613699565b610f8a565b34801561053257600080fd5b5061039a6105413660046136ed565b610fd6565b34801561055257600080fd5b50610566610561366004613a8f565b611008565b604080519283526020830191909152016103c8565b34801561058757600080fd5b5061059b610596366004613d4d565b6110e2565b604080516001600160a01b0390931683526020830191909152016103c8565b61039a6105c83660046138a4565b611118565b3480156105d957600080fd5b5061049860145481565b3480156105ef57600080fd5b506104986105fe366004613879565b61128d565b34801561060f57600080fd5b5061039a611323565b34801561062457600080fd5b5061039a61136c565b34801561063957600080fd5b506103bc6106483660046139e7565b611431565b34801561065957600080fd5b5061039a6106683660046138a4565b6114fd565b34801561067957600080fd5b5061039a6106883660046136ed565b61152c565b34801561069957600080fd5b5061039a6106a83660046139e7565b611547565b3480156106b957600080fd5b506104986106c83660046138a4565b6115f8565b3480156106d957600080fd5b5061039a6106e836600461396a565b611699565b61039a6106fb3660046137c1565b6116da565b34801561070c57600080fd5b5061039a61071b36600461396a565b6116e9565b34801561072c57600080fd5b506019546103bc9060ff1681565b34801561074657600080fd5b506104336107553660046138a4565b611726565b34801561076657600080fd5b5061039a610775366004613baa565b61179d565b34801561078657600080fd5b506103e66107953660046139af565b6117f8565b3480156107a657600080fd5b50610498600f5481565b3480156107bc57600080fd5b506104986107cb366004613699565b61189f565b3480156107dc57600080fd5b5061039a611926565b3480156107f157600080fd5b5061039a6108003660046138a4565b61195c565b34801561081157600080fd5b506019546103bc90610100900460ff1681565b34801561083057600080fd5b5061039a61198b565b34801561084557600080fd5b506000546001600160a01b0316610433565b34801561086357600080fd5b50610498610872366004613a39565b6002602090815260009384526040808520845180860184018051928152908401958401959095209452929052825290205481565b3480156108b257600080fd5b5061039a6108c13660046138a4565b6119d2565b3480156108d257600080fd5b5061039a6108e136600461396a565b611a01565b3480156108f257600080fd5b506103e6611a3e565b34801561090757600080fd5b50610498600e5481565b34801561091d57600080fd5b5061039a61092c366004613796565b611a4d565b34801561093d57600080fd5b5061039a61094c36600461372d565b611a58565b61039a61095f366004613cd4565b611a8a565b34801561097057600080fd5b506103e661097f3660046138a4565b611d0a565b34801561099057600080fd5b5061039a61099f366004613c75565b611dde565b61039a6109b2366004613b1c565b611e95565b3480156109c357600080fd5b507f0000000000000000000000000000000000000000000000000000000000000000610433565b3480156109f657600080fd5b5061049860105481565b348015610a0c57600080fd5b506103e661203b565b348015610a2157600080fd5b506103bc610a303660046136b5565b6001600160a01b03918216600090815260086020908152604080832093909416825291909152205460ff1690565b348015610a6a57600080fd5b5061039a610a793660046139e7565b6120c9565b348015610a8a57600080fd5b5061039a610a99366004613699565b612152565b348015610aaa57600080fd5b506103e6610ab9366004613c25565b6121ea565b337f00000000000000000000000000000000000000000000000000000000000000006001600160a01b031614610af357600080fd5b61ffff841660009081526001602052604090208054610b1190614491565b90508351148015610b50575061ffff8416600090815260016020526040908190209051610b3e9190613e2e565b60405180910390208380519060200120145b610bb55760405162461bcd60e51b815260206004820152602b60248201527f4c7a52656365697665723a20696e76616c696420736f757263652073656e646960448201526a1b99c818dbdb9d1c9858dd60aa1b60648201526084015b60405180910390fd5b610bc184848484612322565b50505050565b60006001600160e01b031982161580610be45750610be482612413565b92915050565b606060038054610bf990614491565b80601f0160208091040260200160405190810160405280929190818152602001828054610c2590614491565b8015610c725780601f10610c4757610100808354040283529160200191610c72565b820191906000526020600020905b815481529060010190602001808311610c5557829003601f168201915b5050505050905090565b6000546001600160a01b03163314610ca65760405162461bcd60e51b8152600401610bac90614091565b6040516307e0db1760e01b815261ffff821660048201527f00000000000000000000000000000000000000000000000000000000000000006001600160a01b0316906307e0db17906024015b600060405180830381600087803b158015610d0c57600080fd5b505af1158015610d20573d6000803e3d6000fd5b5050505050565b6000818152600560205260408120546001600160a01b0316610da05760405162461bcd60e51b815260206004820152602c60248201527f4552433732313a20617070726f76656420717565727920666f72206e6f6e657860448201526b34b9ba32b73a103a37b5b2b760a11b6064820152608401610bac565b506000908152600760205260409020546001600160a01b031690565b6000610dc782611726565b9050806001600160a01b0316836001600160a01b03161415610e355760405162461bcd60e51b815260206004820152602160248201527f4552433732313a20617070726f76616c20746f2063757272656e74206f776e656044820152603960f91b6064820152608401610bac565b336001600160a01b0382161480610e515750610e518133610a30565b610ec35760405162461bcd60e51b815260206004820152603860248201527f4552433732313a20617070726f76652063616c6c6572206973206e6f74206f7760448201527f6e6572206e6f7220617070726f76656420666f7220616c6c00000000000000006064820152608401610bac565b610ecd8383612438565b505050565b6000546001600160a01b03163314610efc5760405162461bcd60e51b8152600401610bac90614091565b6040516310ddb13760e01b815261ffff821660048201527f00000000000000000000000000000000000000000000000000000000000000006001600160a01b0316906310ddb13790602401610cf2565b6000546001600160a01b03163314610f765760405162461bcd60e51b8152600401610bac90614091565b6019805460ff19811660ff90911615179055565b6000546001600160a01b03163314610fb45760405162461bcd60e51b8152600401610bac90614091565b601380546001600160a01b0319166001600160a01b0392909216919091179055565b610fe1335b826124a6565b610ffd5760405162461bcd60e51b8152600401610bac9061410d565b610ecd838383612599565b60008060008686604051602001611020929190613f1c565b60408051601f198184030181529082905263040a7bb160e41b825291506001600160a01b037f000000000000000000000000000000000000000000000000000000000000000016906340a7bb1090611084908b90309086908b908b906004016141a8565b604080518083038186803b15801561109b57600080fd5b505afa1580156110af573d6000803e3d6000fd5b505050506040513d601f19601f820116820180604052508101906110d39190613d6e565b92509250509550959350505050565b6013546012546001600160a01b039091169060009061271090611105908561442f565b61110f919061441b565b90509250929050565b60195460ff1615156001146111895760405162461bcd60e51b815260206004820152603160248201527f416476616e6365644f4e46543732313a205075626c69632073616c6520686173604482015270206e6f742073746172746564207965742160781b6064820152608401610bac565b60195460ff6101009091041615156001146111b65760405162461bcd60e51b8152600401610bac90613f3e565b806111d35760405162461bcd60e51b8152600401610bac90613fda565b6011548111156111f55760405162461bcd60e51b8152600401610bac90614020565b60105481600f546112069190614403565b11156112245760405162461bcd60e51b8152600401610bac906140c6565b34600e5482611233919061442f565b11156112515760405162461bcd60e51b8152600401610bac9061415e565b600f5460005b82811015611286576112743361126c846144cc565b935083612740565b8061127e816144cc565b915050611257565b50600f5550565b60006112988361189f565b82106112fa5760405162461bcd60e51b815260206004820152602b60248201527f455243373231456e756d657261626c653a206f776e657220696e646578206f7560448201526a74206f6620626f756e647360a81b6064820152608401610bac565b506001600160a01b03919091166000908152600960209081526040808320938352929052205490565b6000546001600160a01b0316331461134d5760405162461bcd60e51b8152600401610bac90614091565b6019805462ff0000198116620100009182900460ff1615909102179055565b6000546001600160a01b031633146113965760405162461bcd60e51b8152600401610bac90614091565b6013546001600160a01b03166113fc5760405162461bcd60e51b815260206004820152602560248201527f416476616e6365644f4e46543732313a2042656e6566696369617279206e6f74604482015264207365742160d81b6064820152608401610bac565b60135460405147916001600160a01b03169082156108fc029083906000818181858888f1935050505061142e57600080fd5b50565b61ffff83166000908152600160205260408120805482919061145290614491565b80601f016020809104026020016040519081016040528092919081815260200182805461147e90614491565b80156114cb5780601f106114a0576101008083540402835291602001916114cb565b820191906000526020600020905b8154815290600101906020018083116114ae57829003601f168201915b5050505050905083836040516114e2929190613e02565b60405180910390208180519060200120149150509392505050565b6000546001600160a01b031633146115275760405162461bcd60e51b8152600401610bac90614091565b601255565b610ecd83838360405180602001604052806000815250611a58565b6000546001600160a01b031633146115715760405162461bcd60e51b8152600401610bac90614091565b6040516342d65a8d60e01b81526001600160a01b037f000000000000000000000000000000000000000000000000000000000000000016906342d65a8d906115c1908690869086906004016141fc565b600060405180830381600087803b1580156115db57600080fd5b505af11580156115ef573d6000803e3d6000fd5b50505050505050565b6000611603600b5490565b82106116665760405162461bcd60e51b815260206004820152602c60248201527f455243373231456e756d657261626c653a20676c6f62616c20696e646578206f60448201526b7574206f6620626f756e647360a01b6064820152608401610bac565b600b828154811061168757634e487b7160e01b600052603260045260246000fd5b90600052602060002001549050919050565b6000546001600160a01b031633146116c35760405162461bcd60e51b8152600401610bac90614091565b80516116d690601790602084019061348a565b5050565b6115ef8787878787878761288e565b6000546001600160a01b031633146117135760405162461bcd60e51b8152600401610bac90614091565b80516116d690601690602084019061348a565b6000818152600560205260408120546001600160a01b031680610be45760405162461bcd60e51b815260206004820152602960248201527f4552433732313a206f776e657220717565727920666f72206e6f6e657869737460448201526832b73a103a37b5b2b760b91b6064820152608401610bac565b3330146117ec5760405162461bcd60e51b815260206004820181905260248201527f4c7a52656365697665723a2063616c6c6572206d757374206265204c7a4170706044820152606401610bac565b610bc1848484846129e5565b61ffff8116600090815260016020526040902080546060919061181a90614491565b80601f016020809104026020016040519081016040528092919081815260200182805461184690614491565b80156118935780601f1061186857610100808354040283529160200191611893565b820191906000526020600020905b81548152906001019060200180831161187657829003601f168201915b50505050509050919050565b60006001600160a01b03821661190a5760405162461bcd60e51b815260206004820152602a60248201527f4552433732313a2062616c616e636520717565727920666f7220746865207a65604482015269726f206164647265737360b01b6064820152608401610bac565b506001600160a01b031660009081526006602052604090205490565b6000546001600160a01b031633146119505760405162461bcd60e51b8152600401610bac90614091565b61195a6000612a80565b565b6000546001600160a01b031633146119865760405162461bcd60e51b8152600401610bac90614091565b601455565b6000546001600160a01b031633146119b55760405162461bcd60e51b8152600401610bac90614091565b6019805461ff001981166101009182900460ff1615909102179055565b6000546001600160a01b031633146119fc5760405162461bcd60e51b8152600401610bac90614091565b600e55565b6000546001600160a01b03163314611a2b5760405162461bcd60e51b8152600401610bac90614091565b80516116d690601590602084019061348a565b606060048054610bf990614491565b6116d6338383612ad0565b611a6233836124a6565b611a7e5760405162461bcd60e51b8152600401610bac9061410d565b610bc184848484612b9f565b60195460ff610100909104161515600114611ab75760405162461bcd60e51b8152600401610bac90613f3e565b82611ad45760405162461bcd60e51b8152600401610bac90613fda565b601154831115611af65760405162461bcd60e51b8152600401610bac90614020565b60105483600f54611b079190614403565b1115611b255760405162461bcd60e51b8152600401610bac906140c6565b34600e5484611b34919061442f565b1115611b525760405162461bcd60e51b8152600401610bac9061415e565b60115433600090815260186020526040902054611b70908590614403565b1115611bd65760405162461bcd60e51b815260206004820152602f60248201527f416476616e6365644f4e46543732313a20596f7520657863656564656420796f60448201526e3ab9103a37b5b2b7103634b6b4ba1760891b6064820152608401610bac565b6000611c4d838380806020026020016040519081016040528093929190818152602001838360200280828437600092019190915250506014546040516bffffffffffffffffffffffff193360601b166020820152909250603401905060405160208183030381529060405280519060200120612bd2565b9050600181151514611caf5760405162461bcd60e51b815260206004820152602560248201527f416476616e6365644f4e46543732313a20496e76616c6964204d65726b6c6520604482015264283937b7b360d91b6064820152608401610bac565b3360009081526018602052604081208054869290611cce908490614403565b9091555050600f5460005b85811015611d0057611cee3361126c846144cc565b80611cf8816144cc565b915050611cd9565b50600f5550505050565b6000818152600560205260409020546060906001600160a01b0316611d895760405162461bcd60e51b815260206004820152602f60248201527f4552433732314d657461646174613a2055524920717565727920666f72206e6f60448201526e3732bc34b9ba32b73a103a37b5b2b760891b6064820152608401610bac565b60195462010000900460ff16611da6576017805461181a90614491565b611dae612be8565b611db783612bf7565b604051602001611dc8929190613e9d565b6040516020818303038152906040529050919050565b6000546001600160a01b03163314611e085760405162461bcd60e51b8152600401610bac90614091565b6040516332fb62e760e21b81526001600160a01b037f0000000000000000000000000000000000000000000000000000000000000000169063cbed8b9c90611e5c908890889088908890889060040161437e565b600060405180830381600087803b158015611e7657600080fd5b505af1158015611e8a573d6000803e3d6000fd5b505050505050505050565b61ffff85166000908152600260205260408082209051611eb6908790613e12565b90815260408051602092819003830190206001600160401b03871660009081529252902054905080611f2a5760405162461bcd60e51b815260206004820152601d60248201527f4c7a52656365697665723a206e6f2073746f726564206d6573736167650000006044820152606401610bac565b808383604051611f3b929190613e02565b604051809103902014611f905760405162461bcd60e51b815260206004820152601b60248201527f4c7a52656365697665723a20696e76616c6964207061796c6f616400000000006044820152606401610bac565b61ffff86166000908152600260205260408082209051611fb1908890613e12565b9081526040805191829003602090810183206001600160401b038916600090815291522091909155633356ae4560e11b815230906366ad5c8a90612001908990899089908990899060040161421a565b600060405180830381600087803b15801561201b57600080fd5b505af115801561202f573d6000803e3d6000fd5b50505050505050505050565b6015805461204890614491565b80601f016020809104026020016040519081016040528092919081815260200182805461207490614491565b80156120c15780601f10612096576101008083540402835291602001916120c1565b820191906000526020600020905b8154815290600101906020018083116120a457829003601f168201915b505050505081565b6000546001600160a01b031633146120f35760405162461bcd60e51b8152600401610bac90614091565b61ffff8316600090815260016020526040902061211190838361350e565b507ffa41487ad5d6728f0b19276fa1eddc16558578f5109fc39d2dc33c3230470dab838383604051612145939291906141fc565b60405180910390a1505050565b6000546001600160a01b0316331461217c5760405162461bcd60e51b8152600401610bac90614091565b6001600160a01b0381166121e15760405162461bcd60e51b815260206004820152602660248201527f4f776e61626c653a206e6577206f776e657220697320746865207a65726f206160448201526564647265737360d01b6064820152608401610bac565b61142e81612a80565b6040516304b2b47b60e11b81523060048201526060907f00000000000000000000000000000000000000000000000000000000000000006001600160a01b03169063f5ecbdbc90829063096568f69060240160206040518083038186803b15801561225457600080fd5b505afa158015612268573d6000803e3d6000fd5b505050506040513d601f19601f8201168201806040525081019061228c91906139cb565b6040516001600160e01b031960e084901b16815261ffff918216600482015290871660248201523060448201526064810185905260840160006040518083038186803b1580156122db57600080fd5b505afa1580156122ef573d6000803e3d6000fd5b505050506040513d6000823e601f3d908101601f1916820160405261231791908101906138f4565b90505b949350505050565b604051633356ae4560e11b815230906366ad5c8a9061234b908790879087908790600401614259565b600060405180830381600087803b15801561236557600080fd5b505af1925050508015612376575060015b610bc1578080519060200120600260008661ffff1661ffff168152602001908152602001600020846040516123ab9190613e12565b9081526040805191829003602090810183206001600160401b0387166000908152915220919091557fe6f254030bcb01ffd20558175c13fcaed6d1520be7becee4c961b65f79243b0d90612406908690869086908690614259565b60405180910390a1610bc1565b60006001600160e01b0319821663780e9d6360e01b1480610be45750610be482612d10565b600081815260076020526040902080546001600160a01b0319166001600160a01b038416908117909155819061246d82611726565b6001600160a01b03167f8c5be1e5ebec7d5bd14f71427d1e84f3dd0314c0f7b2291e5b200ac8c7c3b92560405160405180910390a45050565b6000818152600560205260408120546001600160a01b031661251f5760405162461bcd60e51b815260206004820152602c60248201527f4552433732313a206f70657261746f7220717565727920666f72206e6f6e657860448201526b34b9ba32b73a103a37b5b2b760a11b6064820152608401610bac565b600061252a83611726565b9050806001600160a01b0316846001600160a01b031614806125655750836001600160a01b031661255a84610d27565b6001600160a01b0316145b8061231a57506001600160a01b0380821660009081526008602090815260408083209388168352929052205460ff1661231a565b826001600160a01b03166125ac82611726565b6001600160a01b0316146126105760405162461bcd60e51b815260206004820152602560248201527f4552433732313a207472616e736665722066726f6d20696e636f72726563742060448201526437bbb732b960d91b6064820152608401610bac565b6001600160a01b0382166126725760405162461bcd60e51b8152602060048201526024808201527f4552433732313a207472616e7366657220746f20746865207a65726f206164646044820152637265737360e01b6064820152608401610bac565b61267d838383612d50565b612688600082612438565b6001600160a01b03831660009081526006602052604081208054600192906126b190849061444e565b90915550506001600160a01b03821660009081526006602052604081208054600192906126df908490614403565b909155505060008181526005602052604080822080546001600160a01b0319166001600160a01b0386811691821790925591518493918716917fddf252ad1be2c89b69c2b068fc378daa952ba7f163c4a11628f55a4df523b3ef91a4505050565b6001600160a01b0382166127965760405162461bcd60e51b815260206004820181905260248201527f4552433732313a206d696e7420746f20746865207a65726f20616464726573736044820152606401610bac565b6000818152600560205260409020546001600160a01b0316156127fb5760405162461bcd60e51b815260206004820152601c60248201527f4552433732313a20746f6b656e20616c7265616479206d696e746564000000006044820152606401610bac565b61280760008383612d50565b6001600160a01b0382166000908152600660205260408120805460019290612830908490614403565b909155505060008181526005602052604080822080546001600160a01b0319166001600160a01b03861690811790915590518392907fddf252ad1be2c89b69c2b068fc378daa952ba7f163c4a11628f55a4df523b3ef908290a45050565b61289a87878787612e08565b600085856040516020016128af929190613f1c565b60405160208183030381529060405290506128cd8782868686612f0a565b604051630f428ae960e31b815261ffff881660048201523060248201526000907f00000000000000000000000000000000000000000000000000000000000000006001600160a01b031690637a1457489060440160206040518083038186803b15801561293957600080fd5b505afa15801561294d573d6000803e3d6000fd5b505050506040513d601f19601f820116820180604052508101906129719190613d91565b9050866040516129819190613e12565b604080519182900382208883526001600160401b03841660208401529161ffff8b16916001600160a01b038d16917f024797cc77ce15dc717112d54fb1df125fdfd8c81344fb046c5e074427ce1543910160405180910390a4505050505050505050565b600080828060200190518101906129fc9190613926565b60148201519193509150612a11878284613016565b806001600160a01b031686604051612a299190613e12565b604080519182900382208583526001600160401b03891660208401529161ffff8b16917f64e10c37f404d128982dce114f5d233c14c5c7f6d8db93099e3d99dacb9e27ba910160405180910390a450505050505050565b600080546001600160a01b038381166001600160a01b0319831681178455604051919092169283917f8be0079c531659141344cd1fd0a4f28419497f9722a3daafe3b4186f6b6457e09190a35050565b816001600160a01b0316836001600160a01b03161415612b325760405162461bcd60e51b815260206004820152601960248201527f4552433732313a20617070726f766520746f2063616c6c6572000000000000006044820152606401610bac565b6001600160a01b03838116600081815260086020908152604080832094871680845294825291829020805460ff191686151590811790915591519182527f17307eab39ab6107e8899845ad3d59bd9653f200f220920489ca2b5937696c31910160405180910390a3505050565b612baa848484612599565b612bb684848484613020565b610bc15760405162461bcd60e51b8152600401610bac90613f88565b600082612bdf858461312a565b14949350505050565b606060168054610bf990614491565b606081612c1b5750506040805180820190915260018152600360fc1b602082015290565b8160005b8115612c455780612c2f816144cc565b9150612c3e9050600a8361441b565b9150612c1f565b6000816001600160401b03811115612c6d57634e487b7160e01b600052604160045260246000fd5b6040519080825280601f01601f191660200182016040528015612c97576020820181803683370190505b5090505b841561231a57612cac60018361444e565b9150612cb9600a866144e7565b612cc4906030614403565b60f81b818381518110612ce757634e487b7160e01b600052603260045260246000fd5b60200101906001600160f81b031916908160001a905350612d09600a8661441b565b9450612c9b565b60006001600160e01b031982166380ac58cd60e01b1480612d4157506001600160e01b03198216635b5e139f60e01b145b80610be45750610be4826131ac565b6001600160a01b038316612dab57612da681600b80546000838152600c60205260408120829055600182018355919091527f0175b7a638427703f0dbe7bb9bbf987a2551717b34e79f33b5b1008d1fa01db90155565b612dce565b816001600160a01b0316836001600160a01b031614612dce57612dce83826131e1565b6001600160a01b038216612de557610ecd8161327e565b826001600160a01b0316826001600160a01b031614610ecd57610ecd8282613357565b612e1133610fdb565b612e835760405162461bcd60e51b815260206004820152603860248201527f4f4e4654373231456e756d657261626c653a2073656e642063616c6c6572206960448201527f73206e6f74206f776e6572206e6f7220617070726f76656400000000000000006064820152608401610bac565b836001600160a01b0316612e9682611726565b6001600160a01b031614612f015760405162461bcd60e51b815260206004820152602c60248201527f4f4e4654373231456e756d657261626c653a2073656e642066726f6d20696e6360448201526b37b93932b1ba1037bbb732b960a11b6064820152608401610bac565b610bc18161339b565b61ffff851660009081526001602052604090208054612f2890614491565b15159050612f935760405162461bcd60e51b815260206004820152603260248201527f4c7a53656e643a2064657374696e6174696f6e20636861696e206973206e6f746044820152711030903a393ab9ba32b21039b7bab931b29760711b6064820152608401610bac565b61ffff851660009081526001602052604090819020905162c5803160e81b81526001600160a01b037f0000000000000000000000000000000000000000000000000000000000000000169163c5803100913491612ffd918a91908a908a908a908a906004016142a2565b6000604051808303818588803b15801561201b57600080fd5b610ecd8282613442565b60006001600160a01b0384163b1561312257604051630a85bd0160e11b81526001600160a01b0385169063150b7a0290613064903390899088908890600401613ecc565b602060405180830381600087803b15801561307e57600080fd5b505af19250505080156130ae575060408051601f3d908101601f191682019092526130ab918101906138d8565b60015b613108573d8080156130dc576040519150601f19603f3d011682016040523d82523d6000602084013e6130e1565b606091505b5080516131005760405162461bcd60e51b8152600401610bac90613f88565b805181602001fd5b6001600160e01b031916630a85bd0160e11b14905061231a565b50600161231a565b600081815b84518110156131a457600085828151811061315a57634e487b7160e01b600052603260045260246000fd5b602002602001015190508083116131805760008381526020829052604090209250613191565b600081815260208490526040902092505b508061319c816144cc565b91505061312f565b509392505050565b60006001600160e01b03198216637bb0080b60e01b1480610be457506301ffc9a760e01b6001600160e01b0319831614610be4565b600060016131ee8461189f565b6131f8919061444e565b6000838152600a602052604090205490915080821461324b576001600160a01b03841660009081526009602090815260408083208584528252808320548484528184208190558352600a90915290208190555b506000918252600a602090815260408084208490556001600160a01b039094168352600981528383209183525290812055565b600b546000906132909060019061444e565b6000838152600c6020526040812054600b80549394509092849081106132c657634e487b7160e01b600052603260045260246000fd5b9060005260206000200154905080600b83815481106132f557634e487b7160e01b600052603260045260246000fd5b6000918252602080832090910192909255828152600c9091526040808220849055858252812055600b80548061333b57634e487b7160e01b600052603160045260246000fd5b6001900381819060005260206000200160009055905550505050565b60006133628361189f565b6001600160a01b0390931660009081526009602090815260408083208684528252808320859055938252600a9052919091209190915550565b60006133a682611726565b90506133b481600084612d50565b6133bf600083612438565b6001600160a01b03811660009081526006602052604081208054600192906133e890849061444e565b909155505060008281526005602052604080822080546001600160a01b0319169055518391906001600160a01b038416907fddf252ad1be2c89b69c2b068fc378daa952ba7f163c4a11628f55a4df523b3ef908390a45050565b6116d68282604051806020016040528060008152506134618383612740565b61346e6000848484613020565b610ecd5760405162461bcd60e51b8152600401610bac90613f88565b82805461349690614491565b90600052602060002090601f0160209004810192826134b857600085556134fe565b82601f106134d157805160ff19168380011785556134fe565b828001600101855582156134fe579182015b828111156134fe5782518255916020019190600101906134e3565b5061350a929150613582565b5090565b82805461351a90614491565b90600052602060002090601f01602090048101928261353c57600085556134fe565b82601f106135555782800160ff198235161785556134fe565b828001600101855582156134fe579182015b828111156134fe578235825591602001919060010190613567565b5b8082111561350a5760008155600101613583565b60006135aa6135a5846143dc565b6143ac565b90508281528383830111156135be57600080fd5b828260208301376000602084830101529392505050565b803580151581146135e557600080fd5b919050565b60008083601f8401126135fb578182fd5b5081356001600160401b03811115613611578182fd5b60208301915083602082850101111561362957600080fd5b9250929050565b600082601f830112613640578081fd5b61364f83833560208501613597565b9392505050565b600082601f830112613666578081fd5b81516136746135a5826143dc565b818152846020838601011115613688578283fd5b61231a826020830160208701614465565b6000602082840312156136aa578081fd5b813561364f8161453d565b600080604083850312156136c7578081fd5b82356136d28161453d565b915060208301356136e28161453d565b809150509250929050565b600080600060608486031215613701578081fd5b833561370c8161453d565b9250602084013561371c8161453d565b929592945050506040919091013590565b60008060008060808587031215613742578081fd5b843561374d8161453d565b9350602085013561375d8161453d565b92506040850135915060608501356001600160401b0381111561377e578182fd5b61378a87828801613630565b91505092959194509250565b600080604083850312156137a8578182fd5b82356137b38161453d565b915061110f602084016135d5565b600080600080600080600060e0888a0312156137db578485fd5b87356137e68161453d565b965060208801356137f681614568565b955060408801356001600160401b0380821115613811578687fd5b61381d8b838c01613630565b965060608a0135955060808a013591506138368261453d565b90935060a0890135906138488261453d565b90925060c0890135908082111561385d578283fd5b5061386a8a828b01613630565b91505092959891949750929550565b6000806040838503121561388b578182fd5b82356138968161453d565b946020939093013593505050565b6000602082840312156138b5578081fd5b5035919050565b6000602082840312156138cd578081fd5b813561364f81614552565b6000602082840312156138e9578081fd5b815161364f81614552565b600060208284031215613905578081fd5b81516001600160401b0381111561391a578182fd5b61231a84828501613656565b60008060408385031215613938578182fd5b82516001600160401b0381111561394d578283fd5b61395985828601613656565b925050602083015190509250929050565b60006020828403121561397b578081fd5b81356001600160401b03811115613990578182fd5b8201601f810184136139a0578182fd5b61231a84823560208401613597565b6000602082840312156139c0578081fd5b813561364f81614568565b6000602082840312156139dc578081fd5b815161364f81614568565b6000806000604084860312156139fb578081fd5b8335613a0681614568565b925060208401356001600160401b03811115613a20578182fd5b613a2c868287016135ea565b9497909650939450505050565b600080600060608486031215613a4d578081fd5b8335613a5881614568565b925060208401356001600160401b03811115613a72578182fd5b613a7e86828701613630565b925050604084013590509250925092565b600080600080600060a08688031215613aa6578283fd5b8535613ab181614568565b945060208601356001600160401b0380821115613acc578485fd5b613ad889838a01613630565b955060408801359450613aed606089016135d5565b93506080880135915080821115613b02578283fd5b50613b0f88828901613630565b9150509295509295909350565b600080600080600060808688031215613b33578283fd5b8535613b3e81614568565b945060208601356001600160401b0380821115613b59578485fd5b613b6589838a01613630565b955060408801359150613b7782614578565b90935060608701359080821115613b8c578283fd5b50613b99888289016135ea565b969995985093965092949392505050565b60008060008060808587031215613bbf578182fd5b8435613bca81614568565b935060208501356001600160401b0380821115613be5578384fd5b613bf188838901613630565b945060408701359150613c0382614578565b90925060608601359080821115613c18578283fd5b5061378a87828801613630565b60008060008060808587031215613c3a578182fd5b8435613c4581614568565b93506020850135613c5581614568565b92506040850135613c658161453d565b9396929550929360600135925050565b600080600080600060808688031215613c8c578283fd5b8535613c9781614568565b94506020860135613ca781614568565b93506040860135925060608601356001600160401b03811115613cc8578182fd5b613b99888289016135ea565b600080600060408486031215613ce8578081fd5b8335925060208401356001600160401b0380821115613d05578283fd5b818601915086601f830112613d18578283fd5b813581811115613d26578384fd5b8760208260051b8501011115613d3a578384fd5b6020830194508093505050509250925092565b60008060408385031215613d5f578182fd5b50508035926020909101359150565b60008060408385031215613d80578182fd5b505080516020909101519092909150565b600060208284031215613da2578081fd5b815161364f81614578565b81835281816020850137506000828201602090810191909152601f909101601f19169091010190565b60008151808452613dee816020860160208601614465565b601f01601f19169290920160200192915050565b8183823760009101908152919050565b60008251613e24818460208701614465565b9190910192915050565b6000808354613e3c81614491565b60018281168015613e545760018114613e6557613e91565b60ff19841687528287019450613e91565b8786526020808720875b85811015613e885781548a820152908401908201613e6f565b50505082870194505b50929695505050505050565b60008351613eaf818460208801614465565b835190830190613ec3818360208801614465565b01949350505050565b6001600160a01b0385811682528416602082015260408101839052608060608201819052600090613eff90830184613dd6565b9695505050505050565b60208152600061364f6020830184613dd6565b604081526000613f2f6040830185613dd6565b90508260208301529392505050565b6020808252602a908201527f416476616e6365644f4e46543732313a2053616c6520686173206e6f742073746040820152696172746564207965742160b01b606082015260800190565b60208082526032908201527f4552433732313a207472616e7366657220746f206e6f6e20455243373231526560408201527131b2b4bb32b91034b6b83632b6b2b73a32b960711b606082015260800190565b60208082526026908201527f416476616e6365644f4e46543732313a2043616e6e6f74206d696e74203020746040820152656f6b656e732160d01b606082015260800190565b6020808252604b908201527f416476616e6365644f4e46543732313a20596f752063616e6e6f74206d696e7460408201527f206d6f7265207468616e206d6178546f6b656e735065724d696e7420746f6b6560608201526a6e73206174206f6e63652160a81b608082015260a00190565b6020808252818101527f4f776e61626c653a2063616c6c6572206973206e6f7420746865206f776e6572604082015260600190565b60208082526027908201527f416476616e6365644f4e46543732313a206d6178206d696e74206c696d6974206040820152661c995858da195960ca1b606082015260800190565b60208082526031908201527f4552433732313a207472616e736665722063616c6c6572206973206e6f74206f6040820152701ddb995c881b9bdc88185c1c1c9bdd9959607a1b606082015260800190565b6020808252602a908201527f416476616e6365644f4e46543732313a20496e636f6e73697374656e7420616d6040820152696f756e742073656e742160b01b606082015260800190565b61ffff861681526001600160a01b038516602082015260a0604082018190526000906141d690830186613dd6565b841515606084015282810360808401526141f08185613dd6565b98975050505050505050565b61ffff84168152604060208201526000612317604083018486613dad565b61ffff861681526080602082015260006142376080830187613dd6565b6001600160401b038616604084015282810360608401526141f0818587613dad565b61ffff851681526080602082015260006142766080830186613dd6565b6001600160401b038516604084015282810360608401526142978185613dd6565b979650505050505050565b61ffff871681526000602060c0818401528188546142bf81614491565b8060c087015260e06001808416600081146142e157600181146142f657614321565b60ff1985168984015261010089019550614321565b8d8852868820885b858110156143195781548b82018601529083019088016142fe565b8a0184019650505b505050505083810360408501526143388189613dd6565b91505061435060608401876001600160a01b03169052565b6001600160a01b038516608084015282810360a08401526143718185613dd6565b9998505050505050505050565b600061ffff808816835280871660208401525084604083015260806060830152614297608083018486613dad565b604051601f8201601f191681016001600160401b03811182821017156143d4576143d4614527565b604052919050565b60006001600160401b038211156143f5576143f5614527565b50601f01601f191660200190565b60008219821115614416576144166144fb565b500190565b60008261442a5761442a614511565b500490565b6000816000190483118215151615614449576144496144fb565b500290565b600082821015614460576144606144fb565b500390565b60005b83811015614480578181015183820152602001614468565b83811115610bc15750506000910152565b600181811c908216806144a557607f821691505b602082108114156144c657634e487b7160e01b600052602260045260246000fd5b50919050565b60006000198214156144e0576144e06144fb565b5060010190565b6000826144f6576144f6614511565b500690565b634e487b7160e01b600052601160045260246000fd5b634e487b7160e01b600052601260045260246000fd5b634e487b7160e01b600052604160045260246000fd5b6001600160a01b038116811461142e57600080fd5b6001600160e01b03198116811461142e57600080fd5b61ffff8116811461142e57600080fd5b6001600160401b038116811461142e57600080fdfea2646970667358221220a2b60a2b525249c771abe08b5e195766b515493550cc2f0b4885df2ce9e9689264736f6c63430008040033",
  "devdoc": {
    "author": "exakoss",
    "kind": "dev",
    "methods": {
      "approve(address,uint256)": {
        "details": "See {IERC721-approve}."
      },
      "balanceOf(address)": {
        "details": "See {IERC721-balanceOf}."
      },
      "constructor": {
        "params": {
          "_baseTokenURI": "the base URI for computing the tokenURI",
          "_endMintId": "the max number of mints on this chain",
          "_hiddenURI": "the URI for computing the hiddenMetadataUri",
          "_layerZeroEndpoint": "handles message transmission across chains",
          "_maxTokensPerMint": "the max number of tokens that could be minted in a single transaction",
          "_name": "the name of the token",
          "_startMintId": "the starting mint number on this chain, excluded",
          "_symbol": "the token symbol"
        }
      },
      "estimateSendFee(uint16,bytes,uint256,bool,bytes)": {
        "details": "estimate send token `_tokenId` to (`_dstChainId`, `_toAddress`) _dstChainId - L0 defined chain id to send tokens too _toAddress - dynamic bytes array which contains the address to whom you are sending tokens to on the dstChain _tokenId - token Id to transfer _useZro - indicates to use zro to pay L0 fees _adapterParams - flexible bytes array to indicate messaging adapter services in L0"
      },
      "getApproved(uint256)": {
        "details": "See {IERC721-getApproved}."
      },
      "isApprovedForAll(address,address)": {
        "details": "See {IERC721-isApprovedForAll}."
      },
      "name()": {
        "details": "See {IERC721Metadata-name}."
      },
      "owner()": {
        "details": "Returns the address of the current owner."
      },
      "ownerOf(uint256)": {
        "details": "See {IERC721-ownerOf}."
      },
      "renounceOwnership()": {
        "details": "Leaves the contract without owner. It will not be possible to call `onlyOwner` functions anymore. Can only be called by the current owner. NOTE: Renouncing ownership will leave the contract without an owner, thereby removing any functionality that is only available to the owner."
      },
      "safeTransferFrom(address,address,uint256)": {
        "details": "See {IERC721-safeTransferFrom}."
      },
      "safeTransferFrom(address,address,uint256,bytes)": {
        "details": "See {IERC721-safeTransferFrom}."
      },
      "sendFrom(address,uint16,bytes,uint256,address,address,bytes)": {
        "details": "send token `_tokenId` to (`_dstChainId`, `_toAddress`) from `_from` `_toAddress` can be any size depending on the `dstChainId`. `_zroPaymentAddress` set to address(0x0) if not paying in ZRO (LayerZero Token) `_adapterParams` is a flexible bytes array to indicate messaging adapter services"
      },
      "setApprovalForAll(address,bool)": {
        "details": "See {IERC721-setApprovalForAll}."
      },
      "symbol()": {
        "details": "See {IERC721Metadata-symbol}."
      },
      "tokenByIndex(uint256)": {
        "details": "See {IERC721Enumerable-tokenByIndex}."
      },
      "tokenOfOwnerByIndex(address,uint256)": {
        "details": "See {IERC721Enumerable-tokenOfOwnerByIndex}."
      },
      "tokenURI(uint256)": {
        "details": "See {IERC721Metadata-tokenURI}."
      },
      "totalSupply()": {
        "details": "See {IERC721Enumerable-totalSupply}."
      },
      "transferFrom(address,address,uint256)": {
        "details": "See {IERC721-transferFrom}."
      },
      "transferOwnership(address)": {
        "details": "Transfers ownership of the contract to a new account (`newOwner`). Can only be called by the current owner."
      }
    },
    "title": "Interface of the AdvancedONFT standard",
    "version": 1
  },
  "userdoc": {
    "kind": "user",
    "methods": {
      "constructor": {
        "notice": "Constructor for the AdvancedONFT"
      },
      "mint(uint256,bytes32[])": {
        "notice": "Mint your ONFTs, whitelisted addresses only"
      },
      "publicMint(uint256)": {
        "notice": "Mint your ONFTs"
      }
    },
    "notice": "this implementation supports: batch mint, payable public and private mint, reveal of metadata and EIP-2981 on-chain royalties",
    "version": 1
  },
  "storageLayout": {
    "storage": [
      {
        "astId": 7,
        "contract": "contracts/token/onft/extension/AdvancedONFT721.sol:AdvancedONFT721",
        "label": "_owner",
        "offset": 0,
        "slot": "0",
        "type": "t_address"
      },
      {
        "astId": 13893,
        "contract": "contracts/token/onft/extension/AdvancedONFT721.sol:AdvancedONFT721",
        "label": "trustedRemoteLookup",
        "offset": 0,
        "slot": "1",
        "type": "t_mapping(t_uint16,t_bytes_storage)"
      },
      {
        "astId": 14207,
        "contract": "contracts/token/onft/extension/AdvancedONFT721.sol:AdvancedONFT721",
        "label": "failedMessages",
        "offset": 0,
        "slot": "2",
        "type": "t_mapping(t_uint16,t_mapping(t_bytes_memory_ptr,t_mapping(t_uint256,t_bytes32)))"
      },
      {
        "astId": 2706,
        "contract": "contracts/token/onft/extension/AdvancedONFT721.sol:AdvancedONFT721",
        "label": "_name",
        "offset": 0,
        "slot": "3",
        "type": "t_string_storage"
      },
      {
        "astId": 2708,
        "contract": "contracts/token/onft/extension/AdvancedONFT721.sol:AdvancedONFT721",
        "label": "_symbol",
        "offset": 0,
        "slot": "4",
        "type": "t_string_storage"
      },
      {
        "astId": 2712,
        "contract": "contracts/token/onft/extension/AdvancedONFT721.sol:AdvancedONFT721",
        "label": "_owners",
        "offset": 0,
        "slot": "5",
        "type": "t_mapping(t_uint256,t_address)"
      },
      {
        "astId": 2716,
        "contract": "contracts/token/onft/extension/AdvancedONFT721.sol:AdvancedONFT721",
        "label": "_balances",
        "offset": 0,
        "slot": "6",
        "type": "t_mapping(t_address,t_uint256)"
      },
      {
        "astId": 2720,
        "contract": "contracts/token/onft/extension/AdvancedONFT721.sol:AdvancedONFT721",
        "label": "_tokenApprovals",
        "offset": 0,
        "slot": "7",
        "type": "t_mapping(t_uint256,t_address)"
      },
      {
        "astId": 2726,
        "contract": "contracts/token/onft/extension/AdvancedONFT721.sol:AdvancedONFT721",
        "label": "_operatorApprovals",
        "offset": 0,
        "slot": "8",
        "type": "t_mapping(t_address,t_mapping(t_address,t_bool))"
      },
      {
        "astId": 3695,
        "contract": "contracts/token/onft/extension/AdvancedONFT721.sol:AdvancedONFT721",
        "label": "_ownedTokens",
        "offset": 0,
        "slot": "9",
        "type": "t_mapping(t_address,t_mapping(t_uint256,t_uint256))"
      },
      {
        "astId": 3699,
        "contract": "contracts/token/onft/extension/AdvancedONFT721.sol:AdvancedONFT721",
        "label": "_ownedTokensIndex",
        "offset": 0,
        "slot": "10",
        "type": "t_mapping(t_uint256,t_uint256)"
      },
      {
        "astId": 3702,
        "contract": "contracts/token/onft/extension/AdvancedONFT721.sol:AdvancedONFT721",
        "label": "_allTokens",
        "offset": 0,
        "slot": "11",
        "type": "t_array(t_uint256)dyn_storage"
      },
      {
        "astId": 3706,
        "contract": "contracts/token/onft/extension/AdvancedONFT721.sol:AdvancedONFT721",
        "label": "_allTokensIndex",
        "offset": 0,
        "slot": "12",
        "type": "t_mapping(t_uint256,t_uint256)"
      },
      {
        "astId": 243,
        "contract": "contracts/token/onft/extension/AdvancedONFT721.sol:AdvancedONFT721",
        "label": "_status",
        "offset": 0,
        "slot": "13",
        "type": "t_uint256"
      },
      {
        "astId": 17659,
        "contract": "contracts/token/onft/extension/AdvancedONFT721.sol:AdvancedONFT721",
        "label": "price",
        "offset": 0,
        "slot": "14",
        "type": "t_uint256"
      },
      {
        "astId": 17661,
        "contract": "contracts/token/onft/extension/AdvancedONFT721.sol:AdvancedONFT721",
        "label": "nextMintId",
        "offset": 0,
        "slot": "15",
        "type": "t_uint256"
      },
      {
        "astId": 17663,
        "contract": "contracts/token/onft/extension/AdvancedONFT721.sol:AdvancedONFT721",
        "label": "maxMintId",
        "offset": 0,
        "slot": "16",
        "type": "t_uint256"
      },
      {
        "astId": 17665,
        "contract": "contracts/token/onft/extension/AdvancedONFT721.sol:AdvancedONFT721",
        "label": "maxTokensPerMint",
        "offset": 0,
        "slot": "17",
        "type": "t_uint256"
      },
      {
        "astId": 17668,
        "contract": "contracts/token/onft/extension/AdvancedONFT721.sol:AdvancedONFT721",
        "label": "royaltyBasisPoints",
        "offset": 0,
        "slot": "18",
        "type": "t_uint256"
      },
      {
        "astId": 17670,
        "contract": "contracts/token/onft/extension/AdvancedONFT721.sol:AdvancedONFT721",
        "label": "beneficiary",
        "offset": 0,
        "slot": "19",
        "type": "t_address_payable"
      },
      {
        "astId": 17672,
        "contract": "contracts/token/onft/extension/AdvancedONFT721.sol:AdvancedONFT721",
        "label": "merkleRoot",
        "offset": 0,
        "slot": "20",
        "type": "t_bytes32"
      },
      {
        "astId": 17674,
        "contract": "contracts/token/onft/extension/AdvancedONFT721.sol:AdvancedONFT721",
        "label": "contractURI",
        "offset": 0,
        "slot": "21",
        "type": "t_string_storage"
      },
      {
        "astId": 17676,
        "contract": "contracts/token/onft/extension/AdvancedONFT721.sol:AdvancedONFT721",
        "label": "baseURI",
        "offset": 0,
        "slot": "22",
        "type": "t_string_storage"
      },
      {
        "astId": 17678,
        "contract": "contracts/token/onft/extension/AdvancedONFT721.sol:AdvancedONFT721",
        "label": "hiddenMetadataURI",
        "offset": 0,
        "slot": "23",
        "type": "t_string_storage"
      },
      {
        "astId": 17682,
        "contract": "contracts/token/onft/extension/AdvancedONFT721.sol:AdvancedONFT721",
        "label": "_boughtCount",
        "offset": 0,
        "slot": "24",
        "type": "t_mapping(t_address,t_uint256)"
      },
      {
        "astId": 17684,
        "contract": "contracts/token/onft/extension/AdvancedONFT721.sol:AdvancedONFT721",
        "label": "_publicSaleStarted",
        "offset": 0,
        "slot": "25",
        "type": "t_bool"
      },
      {
        "astId": 17686,
        "contract": "contracts/token/onft/extension/AdvancedONFT721.sol:AdvancedONFT721",
        "label": "_saleStarted",
        "offset": 1,
        "slot": "25",
        "type": "t_bool"
      },
      {
        "astId": 17688,
        "contract": "contracts/token/onft/extension/AdvancedONFT721.sol:AdvancedONFT721",
        "label": "revealed",
        "offset": 2,
        "slot": "25",
        "type": "t_bool"
      }
    ],
    "types": {
      "t_address": {
        "encoding": "inplace",
        "label": "address",
        "numberOfBytes": "20"
      },
      "t_address_payable": {
        "encoding": "inplace",
        "label": "address payable",
        "numberOfBytes": "20"
      },
      "t_array(t_uint256)dyn_storage": {
        "base": "t_uint256",
        "encoding": "dynamic_array",
        "label": "uint256[]",
        "numberOfBytes": "32"
      },
      "t_bool": {
        "encoding": "inplace",
        "label": "bool",
        "numberOfBytes": "1"
      },
      "t_bytes32": {
        "encoding": "inplace",
        "label": "bytes32",
        "numberOfBytes": "32"
      },
      "t_bytes_memory_ptr": {
        "encoding": "bytes",
        "label": "bytes",
        "numberOfBytes": "32"
      },
      "t_bytes_storage": {
        "encoding": "bytes",
        "label": "bytes",
        "numberOfBytes": "32"
      },
      "t_mapping(t_address,t_bool)": {
        "encoding": "mapping",
        "key": "t_address",
        "label": "mapping(address => bool)",
        "numberOfBytes": "32",
        "value": "t_bool"
      },
      "t_mapping(t_address,t_mapping(t_address,t_bool))": {
        "encoding": "mapping",
        "key": "t_address",
        "label": "mapping(address => mapping(address => bool))",
        "numberOfBytes": "32",
        "value": "t_mapping(t_address,t_bool)"
      },
      "t_mapping(t_address,t_mapping(t_uint256,t_uint256))": {
        "encoding": "mapping",
        "key": "t_address",
        "label": "mapping(address => mapping(uint256 => uint256))",
        "numberOfBytes": "32",
        "value": "t_mapping(t_uint256,t_uint256)"
      },
      "t_mapping(t_address,t_uint256)": {
        "encoding": "mapping",
        "key": "t_address",
        "label": "mapping(address => uint256)",
        "numberOfBytes": "32",
        "value": "t_uint256"
      },
      "t_mapping(t_bytes_memory_ptr,t_mapping(t_uint256,t_bytes32))": {
        "encoding": "mapping",
        "key": "t_bytes_memory_ptr",
        "label": "mapping(bytes => mapping(uint256 => bytes32))",
        "numberOfBytes": "32",
        "value": "t_mapping(t_uint256,t_bytes32)"
      },
      "t_mapping(t_uint16,t_bytes_storage)": {
        "encoding": "mapping",
        "key": "t_uint16",
        "label": "mapping(uint16 => bytes)",
        "numberOfBytes": "32",
        "value": "t_bytes_storage"
      },
      "t_mapping(t_uint16,t_mapping(t_bytes_memory_ptr,t_mapping(t_uint256,t_bytes32)))": {
        "encoding": "mapping",
        "key": "t_uint16",
        "label": "mapping(uint16 => mapping(bytes => mapping(uint256 => bytes32)))",
        "numberOfBytes": "32",
        "value": "t_mapping(t_bytes_memory_ptr,t_mapping(t_uint256,t_bytes32))"
      },
      "t_mapping(t_uint256,t_address)": {
        "encoding": "mapping",
        "key": "t_uint256",
        "label": "mapping(uint256 => address)",
        "numberOfBytes": "32",
        "value": "t_address"
      },
      "t_mapping(t_uint256,t_bytes32)": {
        "encoding": "mapping",
        "key": "t_uint256",
        "label": "mapping(uint256 => bytes32)",
        "numberOfBytes": "32",
        "value": "t_bytes32"
      },
      "t_mapping(t_uint256,t_uint256)": {
        "encoding": "mapping",
        "key": "t_uint256",
        "label": "mapping(uint256 => uint256)",
        "numberOfBytes": "32",
        "value": "t_uint256"
      },
      "t_string_storage": {
        "encoding": "bytes",
        "label": "string",
        "numberOfBytes": "32"
      },
      "t_uint16": {
        "encoding": "inplace",
        "label": "uint16",
        "numberOfBytes": "2"
      },
      "t_uint256": {
        "encoding": "inplace",
        "label": "uint256",
        "numberOfBytes": "32"
      }
    }
  }
}