{
  "abi": [
    {
      "inputs": [],
      "stateMutability": "nonpayable",
      "type": "constructor"
    },
    {
      "anonymous": false,
      "inputs": [
        {
          "indexed": true,
          "internalType": "address",
          "name": "owner",
          "type": "address"
        },
        {
          "indexed": true,
          "internalType": "address",
          "name": "approved",
          "type": "address"
        },
        {
          "indexed": true,
          "internalType": "uint256",
          "name": "tokenId",
          "type": "uint256"
        }
      ],
      "name": "Approval",
      "type": "event"
    },
    {
      "anonymous": false,
      "inputs": [
        {
          "indexed": true,
          "internalType": "address",
          "name": "owner",
          "type": "address"
        },
        {
          "indexed": true,
          "internalType": "address",
          "name": "operator",
          "type": "address"
        },
        {
          "indexed": false,
          "internalType": "bool",
          "name": "approved",
          "type": "bool"
        }
      ],
      "name": "ApprovalForAll",
      "type": "event"
    },
    {
      "anonymous": false,
      "inputs": [
        {
          "indexed": true,
          "internalType": "address",
          "name": "from",
          "type": "address"
        },
        {
          "indexed": true,
          "internalType": "address",
          "name": "to",
          "type": "address"
        },
        {
          "indexed": true,
          "internalType": "uint256",
          "name": "tokenId",
          "type": "uint256"
        }
      ],
      "name": "Transfer",
      "type": "event"
    },
    {
      "inputs": [
        {
          "internalType": "address",
          "name": "to",
          "type": "address"
        },
        {
          "internalType": "uint256",
          "name": "tokenId",
          "type": "uint256"
        }
      ],
      "name": "approve",
      "outputs": [],
      "stateMutability": "nonpayable",
      "type": "function"
    },
    {
      "inputs": [
        {
          "internalType": "address",
          "name": "owner",
          "type": "address"
        }
      ],
      "name": "balanceOf",
      "outputs": [
        {
          "internalType": "uint256",
          "name": "",
          "type": "uint256"
        }
      ],
      "stateMutability": "view",
      "type": "function"
    },
    {
      "inputs": [
        {
          "internalType": "uint256",
          "name": "tokenId",
          "type": "uint256"
        }
      ],
      "name": "getApproved",
      "outputs": [
        {
          "internalType": "address",
          "name": "",
          "type": "address"
        }
      ],
      "stateMutability": "view",
      "type": "function"
    },
    {
      "inputs": [
        {
          "internalType": "address",
          "name": "owner",
          "type": "address"
        },
        {
          "internalType": "address",
          "name": "operator",
          "type": "address"
        }
      ],
      "name": "isApprovedForAll",
      "outputs": [
        {
          "internalType": "bool",
          "name": "",
          "type": "bool"
        }
      ],
      "stateMutability": "view",
      "type": "function"
    },
    {
      "inputs": [
        {
          "internalType": "address",
          "name": "to",
          "type": "address"
        }
      ],
      "name": "mint",
      "outputs": [],
      "stateMutability": "nonpayable",
      "type": "function"
    },
    {
      "inputs": [],
      "name": "name",
      "outputs": [
        {
          "internalType": "string",
          "name": "",
          "type": "string"
        }
      ],
      "stateMutability": "view",
      "type": "function"
    },
    {
      "inputs": [
        {
          "internalType": "uint256",
          "name": "tokenId",
          "type": "uint256"
        }
      ],
      "name": "ownerOf",
      "outputs": [
        {
          "internalType": "address",
          "name": "",
          "type": "address"
        }
      ],
      "stateMutability": "view",
      "type": "function"
    },
    {
      "inputs": [
        {
          "internalType": "address",
          "name": "from",
          "type": "address"
        },
        {
          "internalType": "address",
          "name": "to",
          "type": "address"
        },
        {
          "internalType": "uint256",
          "name": "tokenId",
          "type": "uint256"
        }
      ],
      "name": "safeTransferFrom",
      "outputs": [],
      "stateMutability": "nonpayable",
      "type": "function"
    },
    {
      "inputs": [
        {
          "internalType": "address",
          "name": "from",
          "type": "address"
        },
        {
          "internalType": "address",
          "name": "to",
          "type": "address"
        },
        {
          "internalType": "uint256",
          "name": "tokenId",
          "type": "uint256"
        },
        {
          "internalType": "bytes",
          "name": "data",
          "type": "bytes"
        }
      ],
      "name": "safeTransferFrom",
      "outputs": [],
      "stateMutability": "nonpayable",
      "type": "function"
    },
    {
      "inputs": [
        {
          "internalType": "address",
          "name": "operator",
          "type": "address"
        },
        {
          "internalType": "bool",
          "name": "approved",
          "type": "bool"
        }
      ],
      "name": "setApprovalForAll",
      "outputs": [],
      "stateMutability": "nonpayable",
      "type": "function"
    },
    {
      "inputs": [
        {
          "internalType": "bytes4",
          "name": "interfaceId",
          "type": "bytes4"
        }
      ],
      "name": "supportsInterface",
      "outputs": [
        {
          "internalType": "bool",
          "name": "",
          "type": "bool"
        }
      ],
      "stateMutability": "view",
      "type": "function"
    },
    {
      "inputs": [],
      "name": "symbol",
      "outputs": [
        {
          "internalType": "string",
          "name": "",
          "type": "string"
        }
      ],
      "stateMutability": "view",
      "type": "function"
    },
    {
      "inputs": [
        {
          "internalType": "uint256",
          "name": "tokenId",
          "type": "uint256"
        }
      ],
      "name": "tokenURI",
      "outputs": [
        {
          "internalType": "string",
          "name": "",
          "type": "string"
        }
      ],
      "stateMutability": "view",
      "type": "function"
    },
    {
      "inputs": [
        {
          "internalType": "address",
          "name": "from",
          "type": "address"
        },
        {
          "internalType": "address",
          "name": "to",
          "type": "address"
        },
        {
          "internalType": "uint256",
          "name": "tokenId",
          "type": "uint256"
        }
      ],
      "name": "transferFrom",
      "outputs": [],
      "stateMutability": "nonpayable",
      "type": "function"
    }
  ],
  "bytecode": {
    "object": "0x60806040523480156200001157600080fd5b506040518060400160405280600d81526020016c131bdbdadcd4985c9948139195609a1b81525060405180604001604052806002815260200161262960f11b815250816000908162000064919062000126565b50600162000073828262000126565b5050600060065550620001f2565b634e487b7160e01b600052604160045260246000fd5b600181811c90821680620000ac57607f821691505b602082108103620000cd57634e487b7160e01b600052602260045260246000fd5b50919050565b601f8211156200012157600081815260208120601f850160051c81016020861015620000fc5750805b601f850160051c820191505b818110156200011d5782815560010162000108565b5050505b505050565b81516001600160401b0381111562000142576200014262000081565b6200015a8162000153845462000097565b84620000d3565b602080601f831160018114620001925760008415620001795750858301515b600019600386901b1c1916600185901b1785556200011d565b600085815260208120601f198616915b82811015620001c357888601518255948401946001909101908401620001a2565b5085821015620001e25787850151600019600388901b60f8161c191681555b5050505050600190811b01905550565b6112d080620002026000396000f3fe608060405234801561001057600080fd5b50600436106100ea5760003560e01c80636a6278421161008c578063a22cb46511610066578063a22cb465146101e1578063b88d4fde146101f4578063c87b56dd14610207578063e985e9c51461021a57600080fd5b80636a627842146101a557806370a08231146101b857806395d89b41146101d957600080fd5b8063095ea7b3116100c8578063095ea7b31461015757806323b872dd1461016c57806342842e0e1461017f5780636352211e1461019257600080fd5b806301ffc9a7146100ef57806306fdde0314610117578063081812fc1461012c575b600080fd5b6101026100fd366004610e3b565b61022d565b60405190151581526020015b60405180910390f35b61011f61027f565b60405161010e9190610ea8565b61013f61013a366004610ebb565b610311565b6040516001600160a01b03909116815260200161010e565b61016a610165366004610ef0565b610338565b005b61016a61017a366004610f1a565b610452565b61016a61018d366004610f1a565b610483565b61013f6101a0366004610ebb565b61049e565b61016a6101b3366004610f56565b6104fe565b6101cb6101c6366004610f56565b61051f565b60405190815260200161010e565b61011f6105a5565b61016a6101ef366004610f71565b6105b4565b61016a610202366004610fc3565b6105c3565b61011f610215366004610ebb565b6105fb565b61010261022836600461109f565b61066f565b60006001600160e01b031982166380ac58cd60e01b148061025e57506001600160e01b03198216635b5e139f60e01b145b8061027957506301ffc9a760e01b6001600160e01b03198316145b92915050565b60606000805461028e906110d2565b80601f01602080910402602001604051908101604052809291908181526020018280546102ba906110d2565b80156103075780601f106102dc57610100808354040283529160200191610307565b820191906000526020600020905b8154815290600101906020018083116102ea57829003601f168201915b5050505050905090565b600061031c8261069d565b506000908152600460205260409020546001600160a01b031690565b60006103438261049e565b9050806001600160a01b0316836001600160a01b0316036103b55760405162461bcd60e51b815260206004820152602160248201527f4552433732313a20617070726f76616c20746f2063757272656e74206f776e656044820152603960f91b60648201526084015b60405180910390fd5b336001600160a01b03821614806103d157506103d1813361066f565b6104435760405162461bcd60e51b815260206004820152603d60248201527f4552433732313a20617070726f76652063616c6c6572206973206e6f7420746f60448201527f6b656e206f776e6572206f7220617070726f76656420666f7220616c6c00000060648201526084016103ac565b61044d83836106fc565b505050565b61045c338261076a565b6104785760405162461bcd60e51b81526004016103ac9061110c565b61044d8383836107c9565b61044d838383604051806020016040528060008152506105c3565b6000818152600260205260408120546001600160a01b0316806102795760405162461bcd60e51b8152602060048201526018602482015277115490cdcc8c4e881a5b9d985b1a59081d1bdad95b88125160421b60448201526064016103ac565b60065461050c906001611159565b600681905561051c90829061092d565b50565b60006001600160a01b0382166105895760405162461bcd60e51b815260206004820152602960248201527f4552433732313a2061646472657373207a65726f206973206e6f7420612076616044820152683634b21037bbb732b960b91b60648201526084016103ac565b506001600160a01b031660009081526003602052604090205490565b60606001805461028e906110d2565b6105bf338383610ab8565b5050565b6105cd338361076a565b6105e95760405162461bcd60e51b81526004016103ac9061110c565b6105f584848484610b86565b50505050565b60606106068261069d565b600061061d60408051602081019091526000815290565b9050600081511161063d5760405180602001604052806000815250610668565b8061064784610bb9565b60405160200161065892919061117a565b6040516020818303038152906040525b9392505050565b6001600160a01b03918216600090815260056020908152604080832093909416825291909152205460ff1690565b6000818152600260205260409020546001600160a01b031661051c5760405162461bcd60e51b8152602060048201526018602482015277115490cdcc8c4e881a5b9d985b1a59081d1bdad95b88125160421b60448201526064016103ac565b600081815260046020526040902080546001600160a01b0319166001600160a01b03841690811790915581906107318261049e565b6001600160a01b03167f8c5be1e5ebec7d5bd14f71427d1e84f3dd0314c0f7b2291e5b200ac8c7c3b92560405160405180910390a45050565b6000806107768361049e565b9050806001600160a01b0316846001600160a01b0316148061079d575061079d818561066f565b806107c15750836001600160a01b03166107b684610311565b6001600160a01b0316145b949350505050565b826001600160a01b03166107dc8261049e565b6001600160a01b0316146108025760405162461bcd60e51b81526004016103ac906111a9565b6001600160a01b0382166108645760405162461bcd60e51b8152602060048201526024808201527f4552433732313a207472616e7366657220746f20746865207a65726f206164646044820152637265737360e01b60648201526084016103ac565b826001600160a01b03166108778261049e565b6001600160a01b03161461089d5760405162461bcd60e51b81526004016103ac906111a9565b600081815260046020908152604080832080546001600160a01b03199081169091556001600160a01b0387811680865260038552838620805460001901905590871680865283862080546001019055868652600290945282852080549092168417909155905184937fddf252ad1be2c89b69c2b068fc378daa952ba7f163c4a11628f55a4df523b3ef91a4505050565b6001600160a01b0382166109835760405162461bcd60e51b815260206004820181905260248201527f4552433732313a206d696e7420746f20746865207a65726f206164647265737360448201526064016103ac565b6000818152600260205260409020546001600160a01b0316156109e85760405162461bcd60e51b815260206004820152601c60248201527f4552433732313a20746f6b656e20616c7265616479206d696e7465640000000060448201526064016103ac565b6000818152600260205260409020546001600160a01b031615610a4d5760405162461bcd60e51b815260206004820152601c60248201527f4552433732313a20746f6b656e20616c7265616479206d696e7465640000000060448201526064016103ac565b6001600160a01b038216600081815260036020908152604080832080546001019055848352600290915280822080546001600160a01b0319168417905551839291907fddf252ad1be2c89b69c2b068fc378daa952ba7f163c4a11628f55a4df523b3ef908290a45050565b816001600160a01b0316836001600160a01b031603610b195760405162461bcd60e51b815260206004820152601960248201527f4552433732313a20617070726f766520746f2063616c6c65720000000000000060448201526064016103ac565b6001600160a01b03838116600081815260056020908152604080832094871680845294825291829020805460ff191686151590811790915591519182527f17307eab39ab6107e8899845ad3d59bd9653f200f220920489ca2b5937696c31910160405180910390a3505050565b610b918484846107c9565b610b9d84848484610c4c565b6105f55760405162461bcd60e51b81526004016103ac906111ee565b60606000610bc683610d4d565b600101905060008167ffffffffffffffff811115610be657610be6610fad565b6040519080825280601f01601f191660200182016040528015610c10576020820181803683370190505b5090508181016020015b600019016f181899199a1a9b1b9c1cb0b131b232b360811b600a86061a8153600a8504945084610c1a57509392505050565b60006001600160a01b0384163b15610d4257604051630a85bd0160e11b81526001600160a01b0385169063150b7a0290610c90903390899088908890600401611240565b6020604051808303816000875af1925050508015610ccb575060408051601f3d908101601f19168201909252610cc89181019061127d565b60015b610d28573d808015610cf9576040519150601f19603f3d011682016040523d82523d6000602084013e610cfe565b606091505b508051600003610d205760405162461bcd60e51b81526004016103ac906111ee565b805181602001fd5b6001600160e01b031916630a85bd0160e11b1490506107c1565b506001949350505050565b60008072184f03e93ff9f4daa797ed6e38ed64bf6a1f0160401b8310610d8c5772184f03e93ff9f4daa797ed6e38ed64bf6a1f0160401b830492506040015b6d04ee2d6d415b85acef81000000008310610db8576d04ee2d6d415b85acef8100000000830492506020015b662386f26fc100008310610dd657662386f26fc10000830492506010015b6305f5e1008310610dee576305f5e100830492506008015b6127108310610e0257612710830492506004015b60648310610e14576064830492506002015b600a83106102795760010192915050565b6001600160e01b03198116811461051c57600080fd5b600060208284031215610e4d57600080fd5b813561066881610e25565b60005b83811015610e73578181015183820152602001610e5b565b50506000910152565b60008151808452610e94816020860160208601610e58565b601f01601f19169290920160200192915050565b6020815260006106686020830184610e7c565b600060208284031215610ecd57600080fd5b5035919050565b80356001600160a01b0381168114610eeb57600080fd5b919050565b60008060408385031215610f0357600080fd5b610f0c83610ed4565b946020939093013593505050565b600080600060608486031215610f2f57600080fd5b610f3884610ed4565b9250610f4660208501610ed4565b9150604084013590509250925092565b600060208284031215610f6857600080fd5b61066882610ed4565b60008060408385031215610f8457600080fd5b610f8d83610ed4565b915060208301358015158114610fa257600080fd5b809150509250929050565b634e487b7160e01b600052604160045260246000fd5b60008060008060808587031215610fd957600080fd5b610fe285610ed4565b9350610ff060208601610ed4565b925060408501359150606085013567ffffffffffffffff8082111561101457600080fd5b818701915087601f83011261102857600080fd5b81358181111561103a5761103a610fad565b604051601f8201601f19908116603f0116810190838211818310171561106257611062610fad565b816040528281528a602084870101111561107b57600080fd5b82602086016020830137600060208483010152809550505050505092959194509250565b600080604083850312156110b257600080fd5b6110bb83610ed4565b91506110c960208401610ed4565b90509250929050565b600181811c908216806110e657607f821691505b60208210810361110657634e487b7160e01b600052602260045260246000fd5b50919050565b6020808252602d908201527f4552433732313a2063616c6c6572206973206e6f7420746f6b656e206f776e6560408201526c1c881bdc88185c1c1c9bdd9959609a1b606082015260800190565b8082018082111561027957634e487b7160e01b600052601160045260246000fd5b6000835161118c818460208801610e58565b8351908301906111a0818360208801610e58565b01949350505050565b60208082526025908201527f4552433732313a207472616e736665722066726f6d20696e636f72726563742060408201526437bbb732b960d91b606082015260800190565b60208082526032908201527f4552433732313a207472616e7366657220746f206e6f6e20455243373231526560408201527131b2b4bb32b91034b6b83632b6b2b73a32b960711b606082015260800190565b6001600160a01b038581168252841660208201526040810183905260806060820181905260009061127390830184610e7c565b9695505050505050565b60006020828403121561128f57600080fd5b815161066881610e2556fea26469706673582212204000a76a0dc3fc446c58d28999df6e95bdf6be2b02787c5dfc5cc62f72aa187364736f6c63430008110033",
    "linkReferences": {}
  },
  "methodIdentifiers": {
    "approve(address,uint256)": "095ea7b3",
    "balanceOf(address)": "70a08231",
    "getApproved(uint256)": "081812fc",
    "isApprovedForAll(address,address)": "e985e9c5",
    "mint(address)": "6a627842",
    "name()": "06fdde03",
    "ownerOf(uint256)": "6352211e",
    "safeTransferFrom(address,address,uint256)": "42842e0e",
    "safeTransferFrom(address,address,uint256,bytes)": "b88d4fde",
    "setApprovalForAll(address,bool)": "a22cb465",
    "supportsInterface(bytes4)": "01ffc9a7",
    "symbol()": "95d89b41",
    "tokenURI(uint256)": "c87b56dd",
    "transferFrom(address,address,uint256)": "23b872dd"
  },
  "id": 48
}