{
  "abi": [
    {
      "inputs": [],
      "stateMutability": "nonpayable",
      "type": "constructor"
    },
    {
      "anonymous": false,
      "inputs": [
        {
          "indexed": true,
          "internalType": "address",
          "name": "owner",
          "type": "address"
        },
        {
          "indexed": true,
          "internalType": "address",
          "name": "approved",
          "type": "address"
        },
        {
          "indexed": true,
          "internalType": "uint256",
          "name": "tokenId",
          "type": "uint256"
        }
      ],
      "name": "Approval",
      "type": "event"
    },
    {
      "anonymous": false,
      "inputs": [
        {
          "indexed": true,
          "internalType": "address",
          "name": "owner",
          "type": "address"
        },
        {
          "indexed": true,
          "internalType": "address",
          "name": "operator",
          "type": "address"
        },
        {
          "indexed": false,
          "internalType": "bool",
          "name": "approved",
          "type": "bool"
        }
      ],
      "name": "ApprovalForAll",
      "type": "event"
    },
    {
      "anonymous": false,
      "inputs": [
        {
          "indexed": true,
          "internalType": "address",
          "name": "from",
          "type": "address"
        },
        {
          "indexed": true,
          "internalType": "address",
          "name": "to",
          "type": "address"
        },
        {
          "indexed": true,
          "internalType": "uint256",
          "name": "tokenId",
          "type": "uint256"
        }
      ],
      "name": "Transfer",
      "type": "event"
    },
    {
      "inputs": [
        {
          "internalType": "address",
          "name": "to",
          "type": "address"
        },
        {
          "internalType": "uint256",
          "name": "tokenId",
          "type": "uint256"
        }
      ],
      "name": "approve",
      "outputs": [],
      "stateMutability": "nonpayable",
      "type": "function"
    },
    {
      "inputs": [
        {
          "internalType": "address",
          "name": "owner",
          "type": "address"
        }
      ],
      "name": "balanceOf",
      "outputs": [
        {
          "internalType": "uint256",
          "name": "",
          "type": "uint256"
        }
      ],
      "stateMutability": "view",
      "type": "function"
    },
    {
      "inputs": [
        {
          "internalType": "uint256",
          "name": "tokenId",
          "type": "uint256"
        }
      ],
      "name": "getApproved",
      "outputs": [
        {
          "internalType": "address",
          "name": "",
          "type": "address"
        }
      ],
      "stateMutability": "view",
      "type": "function"
    },
    {
      "inputs": [
        {
          "internalType": "address",
          "name": "owner",
          "type": "address"
        },
        {
          "internalType": "address",
          "name": "operator",
          "type": "address"
        }
      ],
      "name": "isApprovedForAll",
      "outputs": [
        {
          "internalType": "bool",
          "name": "",
          "type": "bool"
        }
      ],
      "stateMutability": "view",
      "type": "function"
    },
    {
      "inputs": [
        {
          "internalType": "uint256",
          "name": "nftId",
          "type": "uint256"
        }
      ],
      "name": "mint",
      "outputs": [],
      "stateMutability": "nonpayable",
      "type": "function"
    },
    {
      "inputs": [
        {
          "internalType": "address",
          "name": "to",
          "type": "address"
        }
      ],
      "name": "mintTo",
      "outputs": [],
      "stateMutability": "nonpayable",
      "type": "function"
    },
    {
      "inputs": [],
      "name": "name",
      "outputs": [
        {
          "internalType": "string",
          "name": "",
          "type": "string"
        }
      ],
      "stateMutability": "view",
      "type": "function"
    },
    {
      "inputs": [
        {
          "internalType": "uint256",
          "name": "tokenId",
          "type": "uint256"
        }
      ],
      "name": "ownerOf",
      "outputs": [
        {
          "internalType": "address",
          "name": "",
          "type": "address"
        }
      ],
      "stateMutability": "view",
      "type": "function"
    },
    {
      "inputs": [
        {
          "internalType": "address",
          "name": "from",
          "type": "address"
        },
        {
          "internalType": "address",
          "name": "to",
          "type": "address"
        },
        {
          "internalType": "uint256",
          "name": "tokenId",
          "type": "uint256"
        }
      ],
      "name": "safeTransferFrom",
      "outputs": [],
      "stateMutability": "nonpayable",
      "type": "function"
    },
    {
      "inputs": [
        {
          "internalType": "address",
          "name": "from",
          "type": "address"
        },
        {
          "internalType": "address",
          "name": "to",
          "type": "address"
        },
        {
          "internalType": "uint256",
          "name": "tokenId",
          "type": "uint256"
        },
        {
          "internalType": "bytes",
          "name": "_data",
          "type": "bytes"
        }
      ],
      "name": "safeTransferFrom",
      "outputs": [],
      "stateMutability": "nonpayable",
      "type": "function"
    },
    {
      "inputs": [
        {
          "internalType": "address",
          "name": "operator",
          "type": "address"
        },
        {
          "internalType": "bool",
          "name": "approved",
          "type": "bool"
        }
      ],
      "name": "setApprovalForAll",
      "outputs": [],
      "stateMutability": "nonpayable",
      "type": "function"
    },
    {
      "inputs": [
        {
          "internalType": "bytes4",
          "name": "interfaceId",
          "type": "bytes4"
        }
      ],
      "name": "supportsInterface",
      "outputs": [
        {
          "internalType": "bool",
          "name": "",
          "type": "bool"
        }
      ],
      "stateMutability": "view",
      "type": "function"
    },
    {
      "inputs": [],
      "name": "symbol",
      "outputs": [
        {
          "internalType": "string",
          "name": "",
          "type": "string"
        }
      ],
      "stateMutability": "view",
      "type": "function"
    },
    {
      "inputs": [
        {
          "internalType": "uint256",
          "name": "tokenId",
          "type": "uint256"
        }
      ],
      "name": "tokenURI",
      "outputs": [
        {
          "internalType": "string",
          "name": "",
          "type": "string"
        }
      ],
      "stateMutability": "view",
      "type": "function"
    },
    {
      "inputs": [
        {
          "internalType": "address",
          "name": "from",
          "type": "address"
        },
        {
          "internalType": "address",
          "name": "to",
          "type": "address"
        },
        {
          "internalType": "uint256",
          "name": "tokenId",
          "type": "uint256"
        }
      ],
      "name": "transferFrom",
      "outputs": [],
      "stateMutability": "nonpayable",
      "type": "function"
    }
  ],
  "bytecode": {
    "object": "0x60803462000316576001600160401b03906040908082018381118282101762000300578252600d81526020906c131bdbdadcd4985c9948139195609a1b8282015282519383850185811082821117620003005784526002855261262960f11b83860152815181811162000300576000938454916001948584811c94168015620002f5575b83851014620002e1578190601f948581116200028e575b5083908583116001146200022a5788926200021e575b5050600019600383901b1c191690851b1785555b86519283116200020a5783548481811c91168015620001ff575b82821014620001eb57828111620001a3575b50809183116001146200013c57508394958293949262000130575b5050600019600383901b1c191690821b1790555b6006555161143690816200031c8239f35b0151905038806200010b565b90601f198316968486528286209286905b8982106200018b57505083859697981062000171575b505050811b0190556200011f565b015160001960f88460031b161c1916905538808062000163565b8087859682949686015181550195019301906200014d565b8486528186208380860160051c820192848710620001e1575b0160051c019085905b828110620001d5575050620000f0565b878155018590620001c5565b92508192620001bc565b634e487b7160e01b86526022600452602486fd5b90607f1690620000de565b634e487b7160e01b85526041600452602485fd5b015190503880620000b0565b8880528489208894509190601f1984168a5b878282106200027757505084116200025d575b505050811b018555620000c4565b015160001960f88460031b161c191690553880806200024f565b8385015186558b979095019493840193016200023c565b9091508780528388208580850160051c820192868610620002d7575b918991869594930160051c01915b828110620002c85750506200009a565b8a8155859450899101620002b8565b92508192620002aa565b634e487b7160e01b87526022600452602487fd5b93607f169362000083565b634e487b7160e01b600052604160045260246000fd5b600080fdfe60806040526004361015610013575b600080fd5b60003560e01c806301ffc9a71461013f57806306fdde0314610136578063081812fc1461012d578063095ea7b31461012457806323b872dd1461011b57806342842e0e146101125780636352211e1461010957806370a0823114610100578063755edd17146100f757806395d89b41146100ee578063a0712d68146100e5578063a22cb465146100dc578063b88d4fde146100d3578063c87b56dd146100ca5763e985e9c5146100c257600080fd5b61000e6109db565b5061000e6108f1565b5061000e610867565b5061000e610709565b5061000e6106eb565b5061000e610629565b5061000e6105e6565b5061000e610543565b5061000e610524565b5061000e6104dc565b5061000e6104b2565b5061000e61038d565b5061000e610330565b5061000e610225565b5061000e61015a565b6001600160e01b031981160361000e57565b503461000e57602036600319011261000e57602060043561017a81610148565b63ffffffff60e01b166380ac58cd60e01b81149081156101b8575b81156101a7575b506040519015158152f35b6301ffc9a760e01b1490503861019c565b635b5e139f60e01b81149150610195565b60005b8381106101dc5750506000910152565b81810151838201526020016101cc565b90602091610205815180928185528580860191016101c9565b601f01601f1916010190565b9060206102229281815201906101ec565b90565b503461000e5760008060031936011261032d57604051908080549060019180831c92808216928315610323575b602092838610851461030f5785885260208801949081156102ee5750600114610296575b610292876102868189038261080d565b60405191829182610211565b0390f35b6000805294509192917f290decd9548b62a8d60345a988386fc84ba6bc95484008f6362f93160ef3e5635b8386106102dd5750505091019050610286826102923880610276565b8054858701529482019481016102c1565b60ff191685525050505090151560051b019050610286826102923880610276565b634e487b7160e01b82526022600452602482fd5b93607f1693610252565b80fd5b503461000e57602036600319011261000e57602061034f600435610ba9565b6040516001600160a01b039091168152f35b600435906001600160a01b038216820361000e57565b602435906001600160a01b038216820361000e57565b503461000e57604036600319011261000e576103a7610361565b6024356103b381610a76565b916001600160a01b03808416908216811461042e576103e5936103e09133149081156103e7575b50610b37565b611133565b005b6001600160a01b0316600090815260056020526040902061042891506104219033905b9060018060a01b0316600052602052604060002090565b5460ff1690565b386103da565b60405162461bcd60e51b815260206004820152602160248201527f4552433732313a20617070726f76616c20746f2063757272656e74206f776e656044820152603960f91b6064820152608490fd5b606090600319011261000e576001600160a01b0390600435828116810361000e5791602435908116810361000e579060443590565b503461000e576103e56104c43661047d565b916104d76104d28433610d3c565b610c3b565b610fc8565b503461000e576103e56104ee3661047d565b90604051926020840184811067ffffffffffffffff821117610517575b60405260008452610ca1565b61051f6107f6565b61050b565b503461000e57602036600319011261000e57602061034f600435610a76565b503461000e57602036600319011261000e576001600160a01b03610565610361565b16801561058e576000526003602052610292604060002054604051918291829190602083019252565b60405162461bcd60e51b815260206004820152602a60248201527f4552433732313a2062616c616e636520717565727920666f7220746865207a65604482015269726f206164647265737360b01b6064820152608490fd5b503461000e57602036600319011261000e576103e5610603610361565b600654906001820180921161061c575b81600655610e27565b610624610a39565b610613565b503461000e5760008060031936011261032d576040519080600190815480831c928082169283156106e1575b602092838610851461030f5785885260208801949081156102ee575060011461068857610292876102868189038261080d565b600160005294509192917fb10e2d527612073b26eecdfd717e6a320cf44b4afac2b0732d9fcbe2b7fa0cf65b8386106106d05750505091019050610286826102923880610276565b8054858701529482019481016106b4565b93607f1693610655565b503461000e57602036600319011261000e576103e560043533610e27565b503461000e57604036600319011261000e57610723610361565b602435801515810361000e576001600160a01b038216913383146107b1578161076e61077f9233600052600560205260406000209060018060a01b0316600052602052604060002090565b9060ff801983541691151516179055565b604051901515815233907f17307eab39ab6107e8899845ad3d59bd9653f200f220920489ca2b5937696c3190602090a3005b60405162461bcd60e51b815260206004820152601960248201527f4552433732313a20617070726f766520746f2063616c6c6572000000000000006044820152606490fd5b50634e487b7160e01b600052604160045260246000fd5b90601f8019910116810190811067ffffffffffffffff82111761082f57604052565b6108376107f6565b604052565b60209067ffffffffffffffff811161085a575b601f01601f19160190565b6108626107f6565b61084f565b503461000e57608036600319011261000e57610881610361565b610889610377565b6064359167ffffffffffffffff831161000e573660238401121561000e578260040135916108b68361083c565b926108c4604051948561080d565b808452366024828701011161000e5760208160009260246103e59801838801378501015260443591610ca1565b503461000e57602036600319011261000e576004356000818152600260205260409020546001600160a01b03161561097e5761092b610aee565b80511561096c576102866109589161095e61094861029295611329565b6040519485936020850190610b20565b90610b20565b03601f19810183528261080d565b5050610292610979610aee565b610286565b60405162461bcd60e51b815260206004820152602f60248201527f4552433732314d657461646174613a2055524920717565727920666f72206e6f60448201526e3732bc34b9ba32b73a103a37b5b2b760891b6064820152608490fd5b503461000e57604036600319011261000e57602060ff610a2d6109fc610361565b610a04610377565b6001600160a01b0391821660009081526005865260408082209290931681526020919091522090565b54166040519015158152f35b50634e487b7160e01b600052601160045260246000fd5b9060018201809211610a5e57565b610a66610a39565b565b6030019081603011610a5e57565b6000908152600260205260409020546001600160a01b03168015610a975790565b60405162461bcd60e51b815260206004820152602960248201527f4552433732313a206f776e657220717565727920666f72206e6f6e657869737460448201526832b73a103a37b5b2b760b91b6064820152608490fd5b604051906020820182811067ffffffffffffffff821117610b13575b60405260008252565b610b1b6107f6565b610b0a565b90610b33602092828151948592016101c9565b0190565b15610b3e57565b60405162461bcd60e51b815260206004820152603860248201527f4552433732313a20617070726f76652063616c6c6572206973206e6f74206f7760448201527f6e6572206e6f7220617070726f76656420666f7220616c6c00000000000000006064820152608490fd5b6000818152600260205260409020546001600160a01b031615610be1576000908152600460205260409020546001600160a01b031690565b60405162461bcd60e51b815260206004820152602c60248201527f4552433732313a20617070726f76656420717565727920666f72206e6f6e657860448201526b34b9ba32b73a103a37b5b2b760a11b6064820152608490fd5b15610c4257565b60405162461bcd60e51b815260206004820152603160248201527f4552433732313a207472616e736665722063616c6c6572206973206e6f74206f6044820152701ddb995c881b9bdc88185c1c1c9bdd9959607a1b6064820152608490fd5b90610cc5939291610cb56104d28433610d3c565b610cc0838383610fc8565b61120d565b15610ccc57565b60405162461bcd60e51b815280610ce560048201610ce9565b0390fd5b60809060208152603260208201527f4552433732313a207472616e7366657220746f206e6f6e20455243373231526560408201527131b2b4bb32b91034b6b83632b6b2b73a32b960711b60608201520190565b6000828152600260205260409020546001600160a01b031615610dcd57610d6282610a76565b6001600160a01b038281168282168114949091908515610db5575b5050508215610d8b57505090565b6001600160a01b0316600090815260056020526040902060ff9250610db0919061040a565b541690565b610dc29192939550610ba9565b161491388080610d7d565b60405162461bcd60e51b815260206004820152602c60248201527f4552433732313a206f70657261746f7220717565727920666f72206e6f6e657860448201526b34b9ba32b73a103a37b5b2b760a11b6064820152608490fd5b6001600160a01b038116908115610f1d576000838152600260205260409020546001600160a01b0316610ed8576001600160a01b0381166000908152600360205260409020610eb09190610e7b8154610a50565b9055610e91846000526002602052604060002090565b80546001600160a01b0319166001600160a01b03909216919091179055565b60007fddf252ad1be2c89b69c2b068fc378daa952ba7f163c4a11628f55a4df523b3ef8180a4565b60405162461bcd60e51b815260206004820152601c60248201527f4552433732313a20746f6b656e20616c7265616479206d696e746564000000006044820152606490fd5b606460405162461bcd60e51b815260206004820152602060248201527f4552433732313a206d696e7420746f20746865207a65726f20616464726573736044820152fd5b15610f6857565b60405162461bcd60e51b8152602060048201526024808201527f4552433732313a207472616e7366657220746f20746865207a65726f206164646044820152637265737360e01b6064820152608490fd5b600019810191908211610a5e57565b90610fd283610a76565b6001600160a01b03838116929091821683900361108c5761102161106592821694610ffe861515610f61565b611007876110df565b6001600160a01b0316600090815260036020526040902090565b61102b8154610fb9565b90556001600160a01b038116600090815260036020526040902061104f8154610a50565b9055610e91856000526002602052604060002090565b7fddf252ad1be2c89b69c2b068fc378daa952ba7f163c4a11628f55a4df523b3ef600080a4565b60405162461bcd60e51b815260206004820152602560248201527f4552433732313a207472616e736665722066726f6d20696e636f72726563742060448201526437bbb732b960d91b6064820152608490fd5b600081815260046020526040812080546001600160a01b03191690556001600160a01b0361110c83610a76565b167f8c5be1e5ebec7d5bd14f71427d1e84f3dd0314c0f7b2291e5b200ac8c7c3b9258280a4565b600082815260046020526040902080546001600160a01b0319166001600160a01b0383161790556001600160a01b038061116c84610a76565b169116907f8c5be1e5ebec7d5bd14f71427d1e84f3dd0314c0f7b2291e5b200ac8c7c3b925600080a4565b9081602091031261000e575161022281610148565b6001600160a01b039182168152911660208201526040810191909152608060608201819052610222929101906101ec565b3d15611208573d906111ee8261083c565b916111fc604051938461080d565b82523d6000602084013e565b606090565b92909190823b156112c757611240926020926000604051809681958294630a85bd0160e11b9a8b855233600486016111ac565b03926001600160a01b03165af160009181611297575b50611289576112636111dd565b805190816112845760405162461bcd60e51b815280610ce560048201610ce9565b602001fd5b6001600160e01b0319161490565b6112b991925060203d81116112c0575b6112b1818361080d565b810190611197565b9038611256565b503d6112a7565b50505050600190565b906112da8261083c565b6112e7604051918261080d565b82815280926112f8601f199161083c565b0190602036910137565b908151811015611313570160200190565b634e487b7160e01b600052603260045260246000fd5b80156113c3576000818181805b6113995750611344816112d0565b935b6113505750505090565b61135990610fb9565b90600a9061138461137461136e848406610a68565b60ff1690565b60f81b6001600160f81b03191690565b841a6113908487611302565b53049081611346565b91506001600a9160001981146113b6575b01910480849291611336565b6113be610a39565b6113aa565b506040516040810181811067ffffffffffffffff8211176113f3575b60405260018152600360fc1b602082015290565b6113fb6107f6565b6113df56fea264697066735822122070e8405f634e6745f61ac508a2d6c5cc56ce8eab573d3d36becb1f779f0754e364736f6c63430008110033",
    "linkReferences": {}
  },
  "methodIdentifiers": {
    "approve(address,uint256)": "095ea7b3",
    "balanceOf(address)": "70a08231",
    "getApproved(uint256)": "081812fc",
    "isApprovedForAll(address,address)": "e985e9c5",
    "mint(uint256)": "a0712d68",
    "mintTo(address)": "755edd17",
    "name()": "06fdde03",
    "ownerOf(uint256)": "6352211e",
    "safeTransferFrom(address,address,uint256)": "42842e0e",
    "safeTransferFrom(address,address,uint256,bytes)": "b88d4fde",
    "setApprovalForAll(address,bool)": "a22cb465",
    "supportsInterface(bytes4)": "01ffc9a7",
    "symbol()": "95d89b41",
    "tokenURI(uint256)": "c87b56dd",
    "transferFrom(address,address,uint256)": "23b872dd"
  },
  "id": 90
}