{
  "address": "0xA27b1C61DEc8fd89592a7D789Ada023e554B5f96",
  "abi": [
    {
      "inputs": [
        {
          "internalType": "string",
          "name": "_name",
          "type": "string"
        },
        {
          "internalType": "string",
          "name": "_symbol",
          "type": "string"
        },
        {
          "internalType": "address",
          "name": "_layerZeroEndpoint",
          "type": "address"
        },
        {
          "internalType": "uint256",
          "name": "_startMintId",
          "type": "uint256"
        },
        {
          "internalType": "uint256",
          "name": "_endMintId",
          "type": "uint256"
        },
        {
          "internalType": "uint256",
          "name": "_maxTokensPerMint",
          "type": "uint256"
        },
        {
          "internalType": "string",
          "name": "_baseTokenURI",
          "type": "string"
        },
        {
          "internalType": "address",
          "name": "_stableToken",
          "type": "address"
        }
      ],
      "stateMutability": "nonpayable",
      "type": "constructor"
    },
    {
      "anonymous": false,
      "inputs": [
        {
          "indexed": true,
          "internalType": "address",
          "name": "owner",
          "type": "address"
        },
        {
          "indexed": true,
          "internalType": "address",
          "name": "approved",
          "type": "address"
        },
        {
          "indexed": true,
          "internalType": "uint256",
          "name": "tokenId",
          "type": "uint256"
        }
      ],
      "name": "Approval",
      "type": "event"
    },
    {
      "anonymous": false,
      "inputs": [
        {
          "indexed": true,
          "internalType": "address",
          "name": "owner",
          "type": "address"
        },
        {
          "indexed": true,
          "internalType": "address",
          "name": "operator",
          "type": "address"
        },
        {
          "indexed": false,
          "internalType": "bool",
          "name": "approved",
          "type": "bool"
        }
      ],
      "name": "ApprovalForAll",
      "type": "event"
    },
    {
      "anonymous": false,
      "inputs": [
        {
          "indexed": false,
          "internalType": "uint16",
          "name": "_srcChainId",
          "type": "uint16"
        },
        {
          "indexed": false,
          "internalType": "bytes",
          "name": "_srcAddress",
          "type": "bytes"
        },
        {
          "indexed": false,
          "internalType": "uint64",
          "name": "_nonce",
          "type": "uint64"
        },
        {
          "indexed": false,
          "internalType": "bytes",
          "name": "_payload",
          "type": "bytes"
        }
      ],
      "name": "MessageFailed",
      "type": "event"
    },
    {
      "anonymous": false,
      "inputs": [
        {
          "indexed": true,
          "internalType": "address",
          "name": "previousOwner",
          "type": "address"
        },
        {
          "indexed": true,
          "internalType": "address",
          "name": "newOwner",
          "type": "address"
        }
      ],
      "name": "OwnershipTransferred",
      "type": "event"
    },
    {
      "anonymous": false,
      "inputs": [
        {
          "indexed": true,
          "internalType": "uint16",
          "name": "_srcChainId",
          "type": "uint16"
        },
        {
          "indexed": true,
          "internalType": "bytes",
          "name": "_srcAddress",
          "type": "bytes"
        },
        {
          "indexed": true,
          "internalType": "address",
          "name": "_toAddress",
          "type": "address"
        },
        {
          "indexed": false,
          "internalType": "uint256",
          "name": "_tokenId",
          "type": "uint256"
        },
        {
          "indexed": false,
          "internalType": "uint64",
          "name": "_nonce",
          "type": "uint64"
        }
      ],
      "name": "ReceiveFromChain",
      "type": "event"
    },
    {
      "anonymous": false,
      "inputs": [
        {
          "indexed": true,
          "internalType": "address",
          "name": "_sender",
          "type": "address"
        },
        {
          "indexed": true,
          "internalType": "uint16",
          "name": "_dstChainId",
          "type": "uint16"
        },
        {
          "indexed": true,
          "internalType": "bytes",
          "name": "_toAddress",
          "type": "bytes"
        },
        {
          "indexed": false,
          "internalType": "uint256",
          "name": "_tokenId",
          "type": "uint256"
        },
        {
          "indexed": false,
          "internalType": "uint64",
          "name": "_nonce",
          "type": "uint64"
        }
      ],
      "name": "SendToChain",
      "type": "event"
    },
    {
      "anonymous": false,
      "inputs": [
        {
          "indexed": false,
          "internalType": "uint16",
          "name": "_srcChainId",
          "type": "uint16"
        },
        {
          "indexed": false,
          "internalType": "bytes",
          "name": "_srcAddress",
          "type": "bytes"
        }
      ],
      "name": "SetTrustedRemote",
      "type": "event"
    },
    {
      "anonymous": false,
      "inputs": [
        {
          "indexed": true,
          "internalType": "address",
          "name": "from",
          "type": "address"
        },
        {
          "indexed": true,
          "internalType": "address",
          "name": "to",
          "type": "address"
        },
        {
          "indexed": true,
          "internalType": "uint256",
          "name": "tokenId",
          "type": "uint256"
        }
      ],
      "name": "Transfer",
      "type": "event"
    },
    {
      "inputs": [
        {
          "internalType": "address",
          "name": "",
          "type": "address"
        }
      ],
      "name": "_boughtCount",
      "outputs": [
        {
          "internalType": "uint256",
          "name": "",
          "type": "uint256"
        }
      ],
      "stateMutability": "view",
      "type": "function"
    },
    {
      "inputs": [],
      "name": "_publicSaleStarted",
      "outputs": [
        {
          "internalType": "bool",
          "name": "",
          "type": "bool"
        }
      ],
      "stateMutability": "view",
      "type": "function"
    },
    {
      "inputs": [],
      "name": "_saleStarted",
      "outputs": [
        {
          "internalType": "bool",
          "name": "",
          "type": "bool"
        }
      ],
      "stateMutability": "view",
      "type": "function"
    },
    {
      "inputs": [
        {
          "internalType": "address",
          "name": "to",
          "type": "address"
        },
        {
          "internalType": "uint256",
          "name": "tokenId",
          "type": "uint256"
        }
      ],
      "name": "approve",
      "outputs": [],
      "stateMutability": "nonpayable",
      "type": "function"
    },
    {
      "inputs": [
        {
          "internalType": "address",
          "name": "owner",
          "type": "address"
        }
      ],
      "name": "balanceOf",
      "outputs": [
        {
          "internalType": "uint256",
          "name": "",
          "type": "uint256"
        }
      ],
      "stateMutability": "view",
      "type": "function"
    },
    {
      "inputs": [],
      "name": "contractURI",
      "outputs": [
        {
          "internalType": "string",
          "name": "",
          "type": "string"
        }
      ],
      "stateMutability": "view",
      "type": "function"
    },
    {
      "inputs": [
        {
          "internalType": "uint16",
          "name": "_dstChainId",
          "type": "uint16"
        },
        {
          "internalType": "bytes",
          "name": "_toAddress",
          "type": "bytes"
        },
        {
          "internalType": "uint256",
          "name": "_tokenId",
          "type": "uint256"
        },
        {
          "internalType": "bool",
          "name": "_useZro",
          "type": "bool"
        },
        {
          "internalType": "bytes",
          "name": "_adapterParams",
          "type": "bytes"
        }
      ],
      "name": "estimateSendFee",
      "outputs": [
        {
          "internalType": "uint256",
          "name": "nativeFee",
          "type": "uint256"
        },
        {
          "internalType": "uint256",
          "name": "zroFee",
          "type": "uint256"
        }
      ],
      "stateMutability": "view",
      "type": "function"
    },
    {
      "inputs": [
        {
          "internalType": "uint16",
          "name": "",
          "type": "uint16"
        },
        {
          "internalType": "bytes",
          "name": "",
          "type": "bytes"
        },
        {
          "internalType": "uint256",
          "name": "",
          "type": "uint256"
        }
      ],
      "name": "failedMessages",
      "outputs": [
        {
          "internalType": "bytes32",
          "name": "",
          "type": "bytes32"
        }
      ],
      "stateMutability": "view",
      "type": "function"
    },
    {
      "inputs": [],
      "name": "flipPublicSaleStarted",
      "outputs": [],
      "stateMutability": "nonpayable",
      "type": "function"
    },
    {
      "inputs": [],
      "name": "flipRevealed",
      "outputs": [],
      "stateMutability": "nonpayable",
      "type": "function"
    },
    {
      "inputs": [],
      "name": "flipSaleStarted",
      "outputs": [],
      "stateMutability": "nonpayable",
      "type": "function"
    },
    {
      "inputs": [
        {
          "internalType": "uint16",
          "name": "_srcChainId",
          "type": "uint16"
        },
        {
          "internalType": "bytes",
          "name": "_srcAddress",
          "type": "bytes"
        }
      ],
      "name": "forceResumeReceive",
      "outputs": [],
      "stateMutability": "nonpayable",
      "type": "function"
    },
    {
      "inputs": [
        {
          "internalType": "uint256",
          "name": "_nbTokens",
          "type": "uint256"
        }
      ],
      "name": "gaslessMint",
      "outputs": [],
      "stateMutability": "nonpayable",
      "type": "function"
    },
    {
      "inputs": [
        {
          "internalType": "uint256",
          "name": "tokenId",
          "type": "uint256"
        }
      ],
      "name": "getApproved",
      "outputs": [
        {
          "internalType": "address",
          "name": "",
          "type": "address"
        }
      ],
      "stateMutability": "view",
      "type": "function"
    },
    {
      "inputs": [
        {
          "internalType": "uint16",
          "name": "",
          "type": "uint16"
        },
        {
          "internalType": "uint16",
          "name": "_chainId",
          "type": "uint16"
        },
        {
          "internalType": "address",
          "name": "",
          "type": "address"
        },
        {
          "internalType": "uint256",
          "name": "_configType",
          "type": "uint256"
        }
      ],
      "name": "getConfig",
      "outputs": [
        {
          "internalType": "bytes",
          "name": "",
          "type": "bytes"
        }
      ],
      "stateMutability": "view",
      "type": "function"
    },
    {
      "inputs": [],
      "name": "getLzEndpoint",
      "outputs": [
        {
          "internalType": "address",
          "name": "",
          "type": "address"
        }
      ],
      "stateMutability": "view",
      "type": "function"
    },
    {
      "inputs": [
        {
          "internalType": "uint16",
          "name": "_chainId",
          "type": "uint16"
        }
      ],
      "name": "getTrustedRemote",
      "outputs": [
        {
          "internalType": "bytes",
          "name": "",
          "type": "bytes"
        }
      ],
      "stateMutability": "view",
      "type": "function"
    },
    {
      "inputs": [
        {
          "internalType": "address",
          "name": "owner",
          "type": "address"
        },
        {
          "internalType": "address",
          "name": "operator",
          "type": "address"
        }
      ],
      "name": "isApprovedForAll",
      "outputs": [
        {
          "internalType": "bool",
          "name": "",
          "type": "bool"
        }
      ],
      "stateMutability": "view",
      "type": "function"
    },
    {
      "inputs": [
        {
          "internalType": "uint16",
          "name": "_srcChainId",
          "type": "uint16"
        },
        {
          "internalType": "bytes",
          "name": "_srcAddress",
          "type": "bytes"
        }
      ],
      "name": "isTrustedRemote",
      "outputs": [
        {
          "internalType": "bool",
          "name": "",
          "type": "bool"
        }
      ],
      "stateMutability": "view",
      "type": "function"
    },
    {
      "inputs": [
        {
          "internalType": "uint16",
          "name": "_srcChainId",
          "type": "uint16"
        },
        {
          "internalType": "bytes",
          "name": "_srcAddress",
          "type": "bytes"
        },
        {
          "internalType": "uint64",
          "name": "_nonce",
          "type": "uint64"
        },
        {
          "internalType": "bytes",
          "name": "_payload",
          "type": "bytes"
        }
      ],
      "name": "lzReceive",
      "outputs": [],
      "stateMutability": "nonpayable",
      "type": "function"
    },
    {
      "inputs": [],
      "name": "maxMintId",
      "outputs": [
        {
          "internalType": "uint256",
          "name": "",
          "type": "uint256"
        }
      ],
      "stateMutability": "view",
      "type": "function"
    },
    {
      "inputs": [],
      "name": "maxTokensPerMint",
      "outputs": [
        {
          "internalType": "uint256",
          "name": "",
          "type": "uint256"
        }
      ],
      "stateMutability": "view",
      "type": "function"
    },
    {
      "inputs": [],
      "name": "merkleRoot",
      "outputs": [
        {
          "internalType": "bytes32",
          "name": "",
          "type": "bytes32"
        }
      ],
      "stateMutability": "view",
      "type": "function"
    },
    {
      "inputs": [
        {
          "internalType": "uint256",
          "name": "_nbTokens",
          "type": "uint256"
        },
        {
          "internalType": "bytes32[]",
          "name": "_merkleProof",
          "type": "bytes32[]"
        }
      ],
      "name": "mint",
      "outputs": [],
      "stateMutability": "payable",
      "type": "function"
    },
    {
      "inputs": [],
      "name": "name",
      "outputs": [
        {
          "internalType": "string",
          "name": "",
          "type": "string"
        }
      ],
      "stateMutability": "view",
      "type": "function"
    },
    {
      "inputs": [],
      "name": "nextMintId",
      "outputs": [
        {
          "internalType": "uint256",
          "name": "",
          "type": "uint256"
        }
      ],
      "stateMutability": "view",
      "type": "function"
    },
    {
      "inputs": [
        {
          "internalType": "uint16",
          "name": "_srcChainId",
          "type": "uint16"
        },
        {
          "internalType": "bytes",
          "name": "_srcAddress",
          "type": "bytes"
        },
        {
          "internalType": "uint64",
          "name": "_nonce",
          "type": "uint64"
        },
        {
          "internalType": "bytes",
          "name": "_payload",
          "type": "bytes"
        }
      ],
      "name": "nonblockingLzReceive",
      "outputs": [],
      "stateMutability": "nonpayable",
      "type": "function"
    },
    {
      "inputs": [],
      "name": "owner",
      "outputs": [
        {
          "internalType": "address",
          "name": "",
          "type": "address"
        }
      ],
      "stateMutability": "view",
      "type": "function"
    },
    {
      "inputs": [
        {
          "internalType": "uint256",
          "name": "tokenId",
          "type": "uint256"
        }
      ],
      "name": "ownerOf",
      "outputs": [
        {
          "internalType": "address",
          "name": "",
          "type": "address"
        }
      ],
      "stateMutability": "view",
      "type": "function"
    },
    {
      "inputs": [],
      "name": "price",
      "outputs": [
        {
          "internalType": "uint256",
          "name": "",
          "type": "uint256"
        }
      ],
      "stateMutability": "view",
      "type": "function"
    },
    {
      "inputs": [
        {
          "internalType": "uint256",
          "name": "_nbTokens",
          "type": "uint256"
        }
      ],
      "name": "publicMint",
      "outputs": [],
      "stateMutability": "payable",
      "type": "function"
    },
    {
      "inputs": [],
      "name": "renounceOwnership",
      "outputs": [],
      "stateMutability": "nonpayable",
      "type": "function"
    },
    {
      "inputs": [
        {
          "internalType": "uint16",
          "name": "_srcChainId",
          "type": "uint16"
        },
        {
          "internalType": "bytes",
          "name": "_srcAddress",
          "type": "bytes"
        },
        {
          "internalType": "uint64",
          "name": "_nonce",
          "type": "uint64"
        },
        {
          "internalType": "bytes",
          "name": "_payload",
          "type": "bytes"
        }
      ],
      "name": "retryMessage",
      "outputs": [],
      "stateMutability": "payable",
      "type": "function"
    },
    {
      "inputs": [
        {
          "internalType": "uint256",
          "name": "",
          "type": "uint256"
        },
        {
          "internalType": "uint256",
          "name": "salePrice",
          "type": "uint256"
        }
      ],
      "name": "royaltyInfo",
      "outputs": [
        {
          "internalType": "address",
          "name": "receiver",
          "type": "address"
        },
        {
          "internalType": "uint256",
          "name": "royaltyAmount",
          "type": "uint256"
        }
      ],
      "stateMutability": "view",
      "type": "function"
    },
    {
      "inputs": [
        {
          "internalType": "address",
          "name": "from",
          "type": "address"
        },
        {
          "internalType": "address",
          "name": "to",
          "type": "address"
        },
        {
          "internalType": "uint256",
          "name": "tokenId",
          "type": "uint256"
        }
      ],
      "name": "safeTransferFrom",
      "outputs": [],
      "stateMutability": "nonpayable",
      "type": "function"
    },
    {
      "inputs": [
        {
          "internalType": "address",
          "name": "from",
          "type": "address"
        },
        {
          "internalType": "address",
          "name": "to",
          "type": "address"
        },
        {
          "internalType": "uint256",
          "name": "tokenId",
          "type": "uint256"
        },
        {
          "internalType": "bytes",
          "name": "_data",
          "type": "bytes"
        }
      ],
      "name": "safeTransferFrom",
      "outputs": [],
      "stateMutability": "nonpayable",
      "type": "function"
    },
    {
      "inputs": [
        {
          "internalType": "address",
          "name": "_from",
          "type": "address"
        },
        {
          "internalType": "uint16",
          "name": "_dstChainId",
          "type": "uint16"
        },
        {
          "internalType": "bytes",
          "name": "_toAddress",
          "type": "bytes"
        },
        {
          "internalType": "uint256",
          "name": "_tokenId",
          "type": "uint256"
        },
        {
          "internalType": "address payable",
          "name": "_refundAddress",
          "type": "address"
        },
        {
          "internalType": "address",
          "name": "_zroPaymentAddress",
          "type": "address"
        },
        {
          "internalType": "bytes",
          "name": "_adapterParams",
          "type": "bytes"
        }
      ],
      "name": "sendFrom",
      "outputs": [],
      "stateMutability": "payable",
      "type": "function"
    },
    {
      "inputs": [
        {
          "internalType": "address",
          "name": "operator",
          "type": "address"
        },
        {
          "internalType": "bool",
          "name": "approved",
          "type": "bool"
        }
      ],
      "name": "setApprovalForAll",
      "outputs": [],
      "stateMutability": "nonpayable",
      "type": "function"
    },
    {
      "inputs": [
        {
          "internalType": "string",
          "name": "uri",
          "type": "string"
        }
      ],
      "name": "setBaseURI",
      "outputs": [],
      "stateMutability": "nonpayable",
      "type": "function"
    },
    {
      "inputs": [
        {
          "internalType": "address payable",
          "name": "_beneficiary",
          "type": "address"
        }
      ],
      "name": "setBeneficiary",
      "outputs": [],
      "stateMutability": "nonpayable",
      "type": "function"
    },
    {
      "inputs": [
        {
          "internalType": "uint16",
          "name": "_version",
          "type": "uint16"
        },
        {
          "internalType": "uint16",
          "name": "_chainId",
          "type": "uint16"
        },
        {
          "internalType": "uint256",
          "name": "_configType",
          "type": "uint256"
        },
        {
          "internalType": "bytes",
          "name": "_config",
          "type": "bytes"
        }
      ],
      "name": "setConfig",
      "outputs": [],
      "stateMutability": "nonpayable",
      "type": "function"
    },
    {
      "inputs": [
        {
          "internalType": "string",
          "name": "_contractURI",
          "type": "string"
        }
      ],
      "name": "setContractURI",
      "outputs": [],
      "stateMutability": "nonpayable",
      "type": "function"
    },
    {
      "inputs": [
        {
          "internalType": "bytes32",
          "name": "_merkleRoot",
          "type": "bytes32"
        }
      ],
      "name": "setMerkleRoot",
      "outputs": [],
      "stateMutability": "nonpayable",
      "type": "function"
    },
    {
      "inputs": [
        {
          "internalType": "uint256",
          "name": "newPrice",
          "type": "uint256"
        }
      ],
      "name": "setPrice",
      "outputs": [],
      "stateMutability": "nonpayable",
      "type": "function"
    },
    {
      "inputs": [
        {
          "internalType": "uint16",
          "name": "_version",
          "type": "uint16"
        }
      ],
      "name": "setReceiveVersion",
      "outputs": [],
      "stateMutability": "nonpayable",
      "type": "function"
    },
    {
      "inputs": [
        {
          "internalType": "uint256",
          "name": "_royaltyBasisPoints",
          "type": "uint256"
        }
      ],
      "name": "setRoyaltyFee",
      "outputs": [],
      "stateMutability": "nonpayable",
      "type": "function"
    },
    {
      "inputs": [
        {
          "internalType": "uint16",
          "name": "_version",
          "type": "uint16"
        }
      ],
      "name": "setSendVersion",
      "outputs": [],
      "stateMutability": "nonpayable",
      "type": "function"
    },
    {
      "inputs": [
        {
          "internalType": "uint256",
          "name": "newPrice",
          "type": "uint256"
        }
      ],
      "name": "setStablePrice",
      "outputs": [],
      "stateMutability": "nonpayable",
      "type": "function"
    },
    {
      "inputs": [
        {
          "internalType": "uint16",
          "name": "_srcChainId",
          "type": "uint16"
        },
        {
          "internalType": "bytes",
          "name": "_srcAddress",
          "type": "bytes"
        }
      ],
      "name": "setTrustedRemote",
      "outputs": [],
      "stateMutability": "nonpayable",
      "type": "function"
    },
    {
      "inputs": [],
      "name": "stablePrice",
      "outputs": [
        {
          "internalType": "uint256",
          "name": "",
          "type": "uint256"
        }
      ],
      "stateMutability": "view",
      "type": "function"
    },
    {
      "inputs": [],
      "name": "stableToken",
      "outputs": [
        {
          "internalType": "contract IERC20",
          "name": "",
          "type": "address"
        }
      ],
      "stateMutability": "view",
      "type": "function"
    },
    {
      "inputs": [
        {
          "internalType": "bytes4",
          "name": "interfaceId",
          "type": "bytes4"
        }
      ],
      "name": "supportsInterface",
      "outputs": [
        {
          "internalType": "bool",
          "name": "",
          "type": "bool"
        }
      ],
      "stateMutability": "view",
      "type": "function"
    },
    {
      "inputs": [],
      "name": "symbol",
      "outputs": [
        {
          "internalType": "string",
          "name": "",
          "type": "string"
        }
      ],
      "stateMutability": "view",
      "type": "function"
    },
    {
      "inputs": [
        {
          "internalType": "uint256",
          "name": "index",
          "type": "uint256"
        }
      ],
      "name": "tokenByIndex",
      "outputs": [
        {
          "internalType": "uint256",
          "name": "",
          "type": "uint256"
        }
      ],
      "stateMutability": "view",
      "type": "function"
    },
    {
      "inputs": [
        {
          "internalType": "address",
          "name": "owner",
          "type": "address"
        },
        {
          "internalType": "uint256",
          "name": "index",
          "type": "uint256"
        }
      ],
      "name": "tokenOfOwnerByIndex",
      "outputs": [
        {
          "internalType": "uint256",
          "name": "",
          "type": "uint256"
        }
      ],
      "stateMutability": "view",
      "type": "function"
    },
    {
      "inputs": [
        {
          "internalType": "uint256",
          "name": "tokenId",
          "type": "uint256"
        }
      ],
      "name": "tokenURI",
      "outputs": [
        {
          "internalType": "string",
          "name": "",
          "type": "string"
        }
      ],
      "stateMutability": "view",
      "type": "function"
    },
    {
      "inputs": [],
      "name": "totalSupply",
      "outputs": [
        {
          "internalType": "uint256",
          "name": "",
          "type": "uint256"
        }
      ],
      "stateMutability": "view",
      "type": "function"
    },
    {
      "inputs": [
        {
          "internalType": "address",
          "name": "from",
          "type": "address"
        },
        {
          "internalType": "address",
          "name": "to",
          "type": "address"
        },
        {
          "internalType": "uint256",
          "name": "tokenId",
          "type": "uint256"
        }
      ],
      "name": "transferFrom",
      "outputs": [],
      "stateMutability": "nonpayable",
      "type": "function"
    },
    {
      "inputs": [
        {
          "internalType": "address",
          "name": "newOwner",
          "type": "address"
        }
      ],
      "name": "transferOwnership",
      "outputs": [],
      "stateMutability": "nonpayable",
      "type": "function"
    },
    {
      "inputs": [],
      "name": "withdraw",
      "outputs": [],
      "stateMutability": "nonpayable",
      "type": "function"
    },
    {
      "stateMutability": "payable",
      "type": "receive"
    }
  ],
  "transactionHash": "0x46a9b2abaf8fe5b8129ae5f4e10b8310c7ecc7dafe0446f1893384cb276e00ed",
  "args": [
    "Kanpai Pandas",
    "KPD",
    "0x93f54D755A063cE7bB9e6Ac47Eccc8e33411d706",
    2200,
    3050,
    5,
    "ipfs://QmV8cx4TAMX4ghZJTXKFYG37Fq4uLmqXrKNB1jUTXqke3R/images/",
    "0x4A0D1092E9df255cf95D72834Ea9255132782318"
  ],
  "numDeployments": 1,
  "solcInputHash": "69ca047d24a2e49abd2db968c70bbd53",
  "bytecode": "0x60c06040526000600e556101f460125560006019553480156200002157600080fd5b5060405162005240380380620052408339810160408190526200004491620002ba565b87878782828280806200005733620000f4565b60601b6001600160601b031916608052505081516200007e90600390602085019062000144565b5080516200009490600490602084019062000144565b50506001600d55505050600f8690555060108490556011839055601380546001600160a01b031916331790558151620000d590601690602085019062000144565b5060601b6001600160601b03191660a05250620003dd95505050505050565b600080546001600160a01b038381166001600160a01b0319831681178455604051919092169283917f8be0079c531659141344cd1fd0a4f28419497f9722a3daafe3b4186f6b6457e09190a35050565b82805462000152906200038a565b90600052602060002090601f016020900481019282620001765760008555620001c1565b82601f106200019157805160ff1916838001178555620001c1565b82800160010185558215620001c1579182015b82811115620001c1578251825591602001919060010190620001a4565b50620001cf929150620001d3565b5090565b5b80821115620001cf5760008155600101620001d4565b80516001600160a01b03811681146200020257600080fd5b919050565b600082601f83011262000218578081fd5b81516001600160401b0380821115620002355762000235620003c7565b604051601f8301601f19908116603f01168101908282118183101715620002605762000260620003c7565b816040528381526020925086838588010111156200027c578485fd5b8491505b838210156200029f578582018301518183018401529082019062000280565b83821115620002b057848385830101525b9695505050505050565b600080600080600080600080610100898b031215620002d7578384fd5b88516001600160401b0380821115620002ee578586fd5b620002fc8c838d0162000207565b995060208b015191508082111562000312578586fd5b620003208c838d0162000207565b98506200033060408c01620001ea565b975060608b0151965060808b0151955060a08b0151945060c08b01519150808211156200035b578384fd5b506200036a8b828c0162000207565b9250506200037b60e08a01620001ea565b90509295985092959890939650565b600181811c908216806200039f57607f821691505b60208210811415620003c157634e487b7160e01b600052602260045260246000fd5b50919050565b634e487b7160e01b600052604160045260246000fd5b60805160601c60a05160601c614dea620004566000396000818161096f01528181611c2b0152611ce2015260008181610a4601528181610b5701528181610d5501528181610fab015281816110dd015281816115d2015281816120db015281816124be01528181612bab015261330f0152614dea6000f3fe60806040526004361061039a5760003560e01c806369b41f95116101dc578063a9d75b2b11610102578063dacbcbe2116100a0578063e985e9c51161006f578063e985e9c514610aab578063eb8d72b714610af4578063f2fde38b14610b14578063f5ecbdbc14610b3457600080fd5b8063dacbcbe214610a37578063db61e31714610a6a578063e1d4c87014610a80578063e8a3d48514610a9657600080fd5b8063ba41b0c6116100dc578063ba41b0c6146109d1578063c87b56dd146109e4578063cbed8b9c14610a04578063d1deba1f14610a2457600080fd5b8063a9d75b2b1461095d578063abc2175114610991578063b88d4fde146109b157600080fd5b80638da5cb5b1161017a57806395d89b411161014957806395d89b41146108f2578063a035b1fe14610907578063a20f04541461091d578063a22cb4651461093d57600080fd5b80638da5cb5b146108455780638ee749121461086357806391b7f5ed146108b2578063938e3d7b146108d257600080fd5b8063715018a6116101b6578063715018a6146107dc5780637cb64759146107f157806387c348bf14610811578063899d7b381461083057600080fd5b806369b41f95146107865780636aa99da3146107a657806370a08231146107bc57600080fd5b80632db11544116102c157806342842e0e1161025f57806355f804b31161022e57806355f804b31461070c578063600e97f61461072c5780636352211e1461074657806366ad5c8a1461076657600080fd5b806342842e0e1461069957806342d65a8d146106b95780634f6ccce7146106d957806351905636146106f957600080fd5b80633b2c3fb61161029b5780633b2c3fb61461062f5780633ccfd60b146106445780633d8b38f6146106595780633e4086e51461067957600080fd5b80632db11544146105e65780632eb4a7ab146105f95780632f745c591461060f57600080fd5b806310ddb137116103395780631c31f710116103085780631c31f7101461053257806323b872dd146105525780632a205e3d146105725780632a55205a146105a757600080fd5b806310ddb137146104d25780631291e33e146104f2578063174654711461050757806318160ddd1461051d57600080fd5b806307e0db171161037557806307e0db171461041f578063081812fc1461043f578063095ea7b31461047757806309dc20ce1461049757600080fd5b80621d3567146103a657806301ffc9a7146103c857806306fdde03146103fd57600080fd5b366103a157005b600080fd5b3480156103b257600080fd5b506103c66103c1366004614367565b610b54565b005b3480156103d457600080fd5b506103e86103e3366004614075565b610c5d565b60405190151581526020015b60405180910390f35b34801561040957600080fd5b50610412610c80565b6040516103f491906146c6565b34801561042b57600080fd5b506103c661043a366004614168565b610d12565b34801561044b57600080fd5b5061045f61045a36600461405d565b610dbd565b6040516001600160a01b0390911681526020016103f4565b34801561048357600080fd5b506103c6610492366004614016565b610e52565b3480156104a357600080fd5b506104c46104b2366004613e34565b60176020526000908152604090205481565b6040519081526020016103f4565b3480156104de57600080fd5b506103c66104ed366004614168565b610f68565b3480156104fe57600080fd5b506103c6610fe2565b34801561051357600080fd5b506104c460115481565b34801561052957600080fd5b50600b546104c4565b34801561053e57600080fd5b506103c661054d366004613e34565b611020565b34801561055e57600080fd5b506103c661056d366004613e88565b61106c565b34801561057e57600080fd5b5061059261058d366004614248565b61109e565b604080519283526020830191909152016103f4565b3480156105b357600080fd5b506105c76105c236600461450a565b611178565b604080516001600160a01b0390931683526020830191909152016103f4565b6103c66105f436600461405d565b6111ae565b34801561060557600080fd5b506104c460145481565b34801561061b57600080fd5b506104c461062a366004614016565b6112d9565b34801561063b57600080fd5b506103c661136f565b34801561065057600080fd5b506103c66113b8565b34801561066557600080fd5b506103e86106743660046141a0565b61147a565b34801561068557600080fd5b506103c661069436600461405d565b611547565b3480156106a557600080fd5b506103c66106b4366004613e88565b611576565b3480156106c557600080fd5b506103c66106d43660046141a0565b611591565b3480156106e557600080fd5b506104c46106f436600461405d565b611642565b6103c6610707366004613f5e565b6116e3565b34801561071857600080fd5b506103c6610727366004614123565b6116f2565b34801561073857600080fd5b506018546103e89060ff1681565b34801561075257600080fd5b5061045f61076136600461405d565b611733565b34801561077257600080fd5b506103c6610781366004614367565b6117aa565b34801561079257600080fd5b506104126107a1366004614168565b611805565b3480156107b257600080fd5b506104c4600f5481565b3480156107c857600080fd5b506104c46107d7366004613e34565b6118ac565b3480156107e857600080fd5b506103c6611933565b3480156107fd57600080fd5b506103c661080c36600461405d565b611969565b34801561081d57600080fd5b506018546103e890610100900460ff1681565b34801561083c57600080fd5b506103c6611998565b34801561085157600080fd5b506000546001600160a01b031661045f565b34801561086f57600080fd5b506104c461087e3660046141f2565b6002602090815260009384526040808520845180860184018051928152908401958401959095209452929052825290205481565b3480156108be57600080fd5b506103c66108cd36600461405d565b6119df565b3480156108de57600080fd5b506103c66108ed366004614123565b611a0e565b3480156108fe57600080fd5b50610412611a4b565b34801561091357600080fd5b506104c4600e5481565b34801561092957600080fd5b506103c661093836600461405d565b611a5a565b34801561094957600080fd5b506103c6610958366004613f31565b611a89565b34801561096957600080fd5b5061045f7f000000000000000000000000000000000000000000000000000000000000000081565b34801561099d57600080fd5b506103c66109ac36600461405d565b611a94565b3480156109bd57600080fd5b506103c66109cc366004613ec8565b611d37565b6103c66109df366004614491565b611d69565b3480156109f057600080fd5b506104126109ff36600461405d565b611fe3565b348015610a1057600080fd5b506103c6610a1f366004614432565b61209a565b6103c6610a323660046142d9565b612151565b348015610a4357600080fd5b507f000000000000000000000000000000000000000000000000000000000000000061045f565b348015610a7657600080fd5b506104c460195481565b348015610a8c57600080fd5b506104c460105481565b348015610aa257600080fd5b506104126122f7565b348015610ab757600080fd5b506103e8610ac6366004613e50565b6001600160a01b03918216600090815260086020908152604080832093909416825291909152205460ff1690565b348015610b0057600080fd5b506103c6610b0f3660046141a0565b612385565b348015610b2057600080fd5b506103c6610b2f366004613e34565b61240e565b348015610b4057600080fd5b50610412610b4f3660046143e2565b6124a6565b337f00000000000000000000000000000000000000000000000000000000000000006001600160a01b031614610b8957600080fd5b61ffff841660009081526001602052604090208054610ba790614caa565b90508351148015610be6575061ffff8416600090815260016020526040908190209051610bd491906145eb565b60405180910390208380519060200120145b610c4b5760405162461bcd60e51b815260206004820152602b60248201527f4c7a52656365697665723a20696e76616c696420736f757263652073656e646960448201526a1b99c818dbdb9d1c9858dd60aa1b60648201526084015b60405180910390fd5b610c57848484846125de565b50505050565b60006001600160e01b031982161580610c7a5750610c7a826126cf565b92915050565b606060038054610c8f90614caa565b80601f0160208091040260200160405190810160405280929190818152602001828054610cbb90614caa565b8015610d085780601f10610cdd57610100808354040283529160200191610d08565b820191906000526020600020905b815481529060010190602001808311610ceb57829003601f168201915b5050505050905090565b6000546001600160a01b03163314610d3c5760405162461bcd60e51b8152600401610c4290614893565b6040516307e0db1760e01b815261ffff821660048201527f00000000000000000000000000000000000000000000000000000000000000006001600160a01b0316906307e0db17906024015b600060405180830381600087803b158015610da257600080fd5b505af1158015610db6573d6000803e3d6000fd5b5050505050565b6000818152600560205260408120546001600160a01b0316610e365760405162461bcd60e51b815260206004820152602c60248201527f4552433732313a20617070726f76656420717565727920666f72206e6f6e657860448201526b34b9ba32b73a103a37b5b2b760a11b6064820152608401610c42565b506000908152600760205260409020546001600160a01b031690565b6000610e5d82611733565b9050806001600160a01b0316836001600160a01b03161415610ecb5760405162461bcd60e51b815260206004820152602160248201527f4552433732313a20617070726f76616c20746f2063757272656e74206f776e656044820152603960f91b6064820152608401610c42565b336001600160a01b0382161480610ee75750610ee78133610ac6565b610f595760405162461bcd60e51b815260206004820152603860248201527f4552433732313a20617070726f76652063616c6c6572206973206e6f74206f7760448201527f6e6572206e6f7220617070726f76656420666f7220616c6c00000000000000006064820152608401610c42565b610f6383836126f4565b505050565b6000546001600160a01b03163314610f925760405162461bcd60e51b8152600401610c4290614893565b6040516310ddb13760e01b815261ffff821660048201527f00000000000000000000000000000000000000000000000000000000000000006001600160a01b0316906310ddb13790602401610d88565b6000546001600160a01b0316331461100c5760405162461bcd60e51b8152600401610c4290614893565b6018805460ff19811660ff90911615179055565b6000546001600160a01b0316331461104a5760405162461bcd60e51b8152600401610c4290614893565b601380546001600160a01b0319166001600160a01b0392909216919091179055565b611077335b82612762565b6110935760405162461bcd60e51b8152600401610c429061490c565b610f63838383612855565b600080600086866040516020016110b69291906146d9565b60408051601f198184030181529082905263040a7bb160e41b825291506001600160a01b037f000000000000000000000000000000000000000000000000000000000000000016906340a7bb109061111a908b90309086908b908b906004016149a4565b604080518083038186803b15801561113157600080fd5b505afa158015611145573d6000803e3d6000fd5b505050506040513d601f19601f82011682018060405250810190611169919061452b565b92509250509550959350505050565b6013546012546001600160a01b03909116906000906127109061119b9085614c48565b6111a59190614c34565b90509250929050565b60185460ff1615156001146111d55760405162461bcd60e51b8152600401610c4290614790565b60185460ff6101009091041615156001146112025760405162461bcd60e51b8152600401610c42906147de565b8061121f5760405162461bcd60e51b8152600401610c429061474d565b6011548111156112415760405162461bcd60e51b8152600401610c4290614825565b60105481600f546112529190614c1c565b11156112705760405162461bcd60e51b8152600401610c42906148c8565b34600e548261127f9190614c48565b111561129d5760405162461bcd60e51b8152600401610c429061495d565b600f5460005b828110156112d2576112c0336112b884614ce5565b9350836129fc565b806112ca81614ce5565b9150506112a3565b50600f5550565b60006112e4836118ac565b82106113465760405162461bcd60e51b815260206004820152602b60248201527f455243373231456e756d657261626c653a206f776e657220696e646578206f7560448201526a74206f6620626f756e647360a81b6064820152608401610c42565b506001600160a01b03919091166000908152600960209081526040808320938352929052205490565b6000546001600160a01b031633146113995760405162461bcd60e51b8152600401610c4290614893565b6018805462ff0000198116620100009182900460ff1615909102179055565b6000546001600160a01b031633146113e25760405162461bcd60e51b8152600401610c4290614893565b6013546001600160a01b03166114455760405162461bcd60e51b815260206004820152602260248201527f4b616e70616950616e6461733a2042656e6566696369617279206e6f74207365604482015261742160f01b6064820152608401610c42565b60135460405147916001600160a01b03169082156108fc029083906000818181858888f1935050505061147757600080fd5b50565b61ffff83166000908152600160205260408120805482919061149b90614caa565b80601f01602080910402602001604051908101604052809291908181526020018280546114c790614caa565b80156115145780601f106114e957610100808354040283529160200191611514565b820191906000526020600020905b8154815290600101906020018083116114f757829003601f168201915b50505050509050838360405161152b9291906145bf565b60405180910390208180519060200120149150505b9392505050565b6000546001600160a01b031633146115715760405162461bcd60e51b8152600401610c4290614893565b601255565b610f6383838360405180602001604052806000815250611d37565b6000546001600160a01b031633146115bb5760405162461bcd60e51b8152600401610c4290614893565b6040516342d65a8d60e01b81526001600160a01b037f000000000000000000000000000000000000000000000000000000000000000016906342d65a8d9061160b908690869086906004016149f8565b600060405180830381600087803b15801561162557600080fd5b505af1158015611639573d6000803e3d6000fd5b50505050505050565b600061164d600b5490565b82106116b05760405162461bcd60e51b815260206004820152602c60248201527f455243373231456e756d657261626c653a20676c6f62616c20696e646578206f60448201526b7574206f6620626f756e647360a01b6064820152608401610c42565b600b82815481106116d157634e487b7160e01b600052603260045260246000fd5b90600052602060002001549050919050565b61163987878787878787612b4a565b6000546001600160a01b0316331461171c5760405162461bcd60e51b8152600401610c4290614893565b805161172f906016906020840190613c41565b5050565b6000818152600560205260408120546001600160a01b031680610c7a5760405162461bcd60e51b815260206004820152602960248201527f4552433732313a206f776e657220717565727920666f72206e6f6e657869737460448201526832b73a103a37b5b2b760b91b6064820152608401610c42565b3330146117f95760405162461bcd60e51b815260206004820181905260248201527f4c7a52656365697665723a2063616c6c6572206d757374206265204c7a4170706044820152606401610c42565b610c5784848484612ca1565b61ffff8116600090815260016020526040902080546060919061182790614caa565b80601f016020809104026020016040519081016040528092919081815260200182805461185390614caa565b80156118a05780601f10611875576101008083540402835291602001916118a0565b820191906000526020600020905b81548152906001019060200180831161188357829003601f168201915b50505050509050919050565b60006001600160a01b0382166119175760405162461bcd60e51b815260206004820152602a60248201527f4552433732313a2062616c616e636520717565727920666f7220746865207a65604482015269726f206164647265737360b01b6064820152608401610c42565b506001600160a01b031660009081526006602052604090205490565b6000546001600160a01b0316331461195d5760405162461bcd60e51b8152600401610c4290614893565b6119676000612d3c565b565b6000546001600160a01b031633146119935760405162461bcd60e51b8152600401610c4290614893565b601455565b6000546001600160a01b031633146119c25760405162461bcd60e51b8152600401610c4290614893565b6018805461ff001981166101009182900460ff1615909102179055565b6000546001600160a01b03163314611a095760405162461bcd60e51b8152600401610c4290614893565b600e55565b6000546001600160a01b03163314611a385760405162461bcd60e51b8152600401610c4290614893565b805161172f906015906020840190613c41565b606060048054610c8f90614caa565b6000546001600160a01b03163314611a845760405162461bcd60e51b8152600401610c4290614893565b601955565b61172f338383612d8c565b73abcc9b596420a9e9172fd5938620e265a0f9df923314611b025760405162461bcd60e51b815260206004820152602260248201527f47656c61746f52656c6179436f6e746578742e6f6e6c7947656c61746f52656c604482015261617960f01b6064820152608401610c42565b60185460ff161515600114611b295760405162461bcd60e51b8152600401610c4290614790565b60185460ff610100909104161515600114611b565760405162461bcd60e51b8152600401610c42906147de565b80611b735760405162461bcd60e51b8152600401610c429061474d565b601154811115611b955760405162461bcd60e51b8152600401610c4290614825565b60105481600f54611ba69190614c1c565b1115611bc45760405162461bcd60e51b8152600401610c42906148c8565b600060195411611c295760405162461bcd60e51b815260206004820152602a60248201527f4b616e70616950616e6461733a20796f75206e65656420746f2073657420737460448201526961626c6520707269636560b01b6064820152608401610c42565b7f00000000000000000000000000000000000000000000000000000000000000006001600160a01b0316611cad5760405162461bcd60e51b815260206004820152602560248201527f4b616e70616950616e6461733a206e6f7420737570706f727420737461626c65604482015264081b5a5b9d60da1b6064820152608401610c42565b611cb5612e5b565b601354601954611d0a9133916001600160a01b0390911690611cd8908590614c48565b6001600160a01b037f000000000000000000000000000000000000000000000000000000000000000016929190612e86565b600f5460005b828110156112d257611d25336112b884614ce5565b80611d2f81614ce5565b915050611d10565b611d413383612762565b611d5d5760405162461bcd60e51b8152600401610c429061490c565b610c5784848484612ef1565b60185460ff610100909104161515600114611d965760405162461bcd60e51b8152600401610c42906147de565b82611db35760405162461bcd60e51b8152600401610c429061474d565b601154831115611dd55760405162461bcd60e51b8152600401610c4290614825565b60105483600f54611de69190614c1c565b1115611e045760405162461bcd60e51b8152600401610c42906148c8565b34600e5484611e139190614c48565b1115611e315760405162461bcd60e51b8152600401610c429061495d565b60115433600090815260176020526040902054611e4f908590614c1c565b1115611eb25760405162461bcd60e51b815260206004820152602c60248201527f4b616e70616950616e6461733a20596f7520657863656564656420796f75722060448201526b3a37b5b2b7103634b6b4ba1760a11b6064820152608401610c42565b6000611f29838380806020026020016040519081016040528093929190818152602001838360200280828437600092019190915250506014546040516bffffffffffffffffffffffff193360601b166020820152909250603401905060405160208183030381529060405280519060200120612f24565b9050600181151514611f885760405162461bcd60e51b815260206004820152602260248201527f4b616e70616950616e6461733a20496e76616c6964204d65726b6c652050726f60448201526137b360f11b6064820152608401610c42565b3360009081526017602052604081208054869290611fa7908490614c1c565b9091555050600f5460005b85811015611fd957611fc7336112b884614ce5565b80611fd181614ce5565b915050611fb2565b50600f5550505050565b6000818152600560205260409020546060906001600160a01b03166120625760405162461bcd60e51b815260206004820152602f60248201527f4552433732314d657461646174613a2055524920717565727920666f72206e6f60448201526e3732bc34b9ba32b73a103a37b5b2b760891b6064820152608401610c42565b61206a612f3a565b61207383612f49565b60405160200161208492919061465a565b6040516020818303038152906040529050919050565b6000546001600160a01b031633146120c45760405162461bcd60e51b8152600401610c4290614893565b6040516332fb62e760e21b81526001600160a01b037f0000000000000000000000000000000000000000000000000000000000000000169063cbed8b9c906121189088908890889088908890600401614b6f565b600060405180830381600087803b15801561213257600080fd5b505af1158015612146573d6000803e3d6000fd5b505050505050505050565b61ffff851660009081526002602052604080822090516121729087906145cf565b90815260408051602092819003830190206001600160401b038716600090815292529020549050806121e65760405162461bcd60e51b815260206004820152601d60248201527f4c7a52656365697665723a206e6f2073746f726564206d6573736167650000006044820152606401610c42565b8083836040516121f79291906145bf565b60405180910390201461224c5760405162461bcd60e51b815260206004820152601b60248201527f4c7a52656365697665723a20696e76616c6964207061796c6f616400000000006044820152606401610c42565b61ffff8616600090815260026020526040808220905161226d9088906145cf565b9081526040805191829003602090810183206001600160401b038916600090815291522091909155633356ae4560e11b815230906366ad5c8a906122bd9089908990899089908990600401614a16565b600060405180830381600087803b1580156122d757600080fd5b505af11580156122eb573d6000803e3d6000fd5b50505050505050505050565b6015805461230490614caa565b80601f016020809104026020016040519081016040528092919081815260200182805461233090614caa565b801561237d5780601f106123525761010080835404028352916020019161237d565b820191906000526020600020905b81548152906001019060200180831161236057829003601f168201915b505050505081565b6000546001600160a01b031633146123af5760405162461bcd60e51b8152600401610c4290614893565b61ffff831660009081526001602052604090206123cd908383613cc5565b507ffa41487ad5d6728f0b19276fa1eddc16558578f5109fc39d2dc33c3230470dab838383604051612401939291906149f8565b60405180910390a1505050565b6000546001600160a01b031633146124385760405162461bcd60e51b8152600401610c4290614893565b6001600160a01b03811661249d5760405162461bcd60e51b815260206004820152602660248201527f4f776e61626c653a206e6577206f776e657220697320746865207a65726f206160448201526564647265737360d01b6064820152608401610c42565b61147781612d3c565b6040516304b2b47b60e11b81523060048201526060907f00000000000000000000000000000000000000000000000000000000000000006001600160a01b03169063f5ecbdbc90829063096568f69060240160206040518083038186803b15801561251057600080fd5b505afa158015612524573d6000803e3d6000fd5b505050506040513d601f19601f820116820180604052508101906125489190614184565b6040516001600160e01b031960e084901b16815261ffff918216600482015290871660248201523060448201526064810185905260840160006040518083038186803b15801561259757600080fd5b505afa1580156125ab573d6000803e3d6000fd5b505050506040513d6000823e601f3d908101601f191682016040526125d391908101906140ad565b90505b949350505050565b604051633356ae4560e11b815230906366ad5c8a90612607908790879087908790600401614a55565b600060405180830381600087803b15801561262157600080fd5b505af1925050508015612632575060015b610c57578080519060200120600260008661ffff1661ffff1681526020019081526020016000208460405161266791906145cf565b9081526040805191829003602090810183206001600160401b0387166000908152915220919091557fe6f254030bcb01ffd20558175c13fcaed6d1520be7becee4c961b65f79243b0d906126c2908690869086908690614a55565b60405180910390a1610c57565b60006001600160e01b0319821663780e9d6360e01b1480610c7a5750610c7a82613062565b600081815260076020526040902080546001600160a01b0319166001600160a01b038416908117909155819061272982611733565b6001600160a01b03167f8c5be1e5ebec7d5bd14f71427d1e84f3dd0314c0f7b2291e5b200ac8c7c3b92560405160405180910390a45050565b6000818152600560205260408120546001600160a01b03166127db5760405162461bcd60e51b815260206004820152602c60248201527f4552433732313a206f70657261746f7220717565727920666f72206e6f6e657860448201526b34b9ba32b73a103a37b5b2b760a11b6064820152608401610c42565b60006127e683611733565b9050806001600160a01b0316846001600160a01b031614806128215750836001600160a01b031661281684610dbd565b6001600160a01b0316145b806125d657506001600160a01b0380821660009081526008602090815260408083209388168352929052205460ff166125d6565b826001600160a01b031661286882611733565b6001600160a01b0316146128cc5760405162461bcd60e51b815260206004820152602560248201527f4552433732313a207472616e736665722066726f6d20696e636f72726563742060448201526437bbb732b960d91b6064820152608401610c42565b6001600160a01b03821661292e5760405162461bcd60e51b8152602060048201526024808201527f4552433732313a207472616e7366657220746f20746865207a65726f206164646044820152637265737360e01b6064820152608401610c42565b6129398383836130a2565b6129446000826126f4565b6001600160a01b038316600090815260066020526040812080546001929061296d908490614c67565b90915550506001600160a01b038216600090815260066020526040812080546001929061299b908490614c1c565b909155505060008181526005602052604080822080546001600160a01b0319166001600160a01b0386811691821790925591518493918716917fddf252ad1be2c89b69c2b068fc378daa952ba7f163c4a11628f55a4df523b3ef91a4505050565b6001600160a01b038216612a525760405162461bcd60e51b815260206004820181905260248201527f4552433732313a206d696e7420746f20746865207a65726f20616464726573736044820152606401610c42565b6000818152600560205260409020546001600160a01b031615612ab75760405162461bcd60e51b815260206004820152601c60248201527f4552433732313a20746f6b656e20616c7265616479206d696e746564000000006044820152606401610c42565b612ac3600083836130a2565b6001600160a01b0382166000908152600660205260408120805460019290612aec908490614c1c565b909155505060008181526005602052604080822080546001600160a01b0319166001600160a01b03861690811790915590518392907fddf252ad1be2c89b69c2b068fc378daa952ba7f163c4a11628f55a4df523b3ef908290a45050565b612b568787878761315a565b60008585604051602001612b6b9291906146d9565b6040516020818303038152906040529050612b89878286868661325c565b604051630f428ae960e31b815261ffff881660048201523060248201526000907f00000000000000000000000000000000000000000000000000000000000000006001600160a01b031690637a1457489060440160206040518083038186803b158015612bf557600080fd5b505afa158015612c09573d6000803e3d6000fd5b505050506040513d601f19601f82011682018060405250810190612c2d919061454e565b905086604051612c3d91906145cf565b604080519182900382208883526001600160401b03841660208401529161ffff8b16916001600160a01b038d16917f024797cc77ce15dc717112d54fb1df125fdfd8c81344fb046c5e074427ce1543910160405180910390a4505050505050505050565b60008082806020019051810190612cb891906140df565b60148201519193509150612ccd878284613368565b806001600160a01b031686604051612ce591906145cf565b604080519182900382208583526001600160401b03891660208401529161ffff8b16917f64e10c37f404d128982dce114f5d233c14c5c7f6d8db93099e3d99dacb9e27ba910160405180910390a450505050505050565b600080546001600160a01b038381166001600160a01b0319831681178455604051919092169283917f8be0079c531659141344cd1fd0a4f28419497f9722a3daafe3b4186f6b6457e09190a35050565b816001600160a01b0316836001600160a01b03161415612dee5760405162461bcd60e51b815260206004820152601960248201527f4552433732313a20617070726f766520746f2063616c6c6572000000000000006044820152606401610c42565b6001600160a01b03838116600081815260086020908152604080832094871680845294825291829020805460ff191686151590811790915591519182527f17307eab39ab6107e8899845ad3d59bd9653f200f220920489ca2b5937696c31910160405180910390a3505050565b611967612e66613372565b612e6e613381565b612e7661338b565b6001600160a01b03169190613395565b6040516001600160a01b0380851660248301528316604482015260648101829052610c579085906323b872dd60e01b906084015b60408051601f198184030181529190526020810180516001600160e01b03166001600160e01b0319909316929092179091526133e1565b612efc848484612855565b612f08848484846134b3565b610c575760405162461bcd60e51b8152600401610c42906146fb565b600082612f3185846135bd565b14949350505050565b606060168054610c8f90614caa565b606081612f6d5750506040805180820190915260018152600360fc1b602082015290565b8160005b8115612f975780612f8181614ce5565b9150612f909050600a83614c34565b9150612f71565b6000816001600160401b03811115612fbf57634e487b7160e01b600052604160045260246000fd5b6040519080825280601f01601f191660200182016040528015612fe9576020820181803683370190505b5090505b84156125d657612ffe600183614c67565b915061300b600a86614d00565b613016906030614c1c565b60f81b81838151811061303957634e487b7160e01b600052603260045260246000fd5b60200101906001600160f81b031916908160001a90535061305b600a86614c34565b9450612fed565b60006001600160e01b031982166380ac58cd60e01b148061309357506001600160e01b03198216635b5e139f60e01b145b80610c7a5750610c7a8261363f565b6001600160a01b0383166130fd576130f881600b80546000838152600c60205260408120829055600182018355919091527f0175b7a638427703f0dbe7bb9bbf987a2551717b34e79f33b5b1008d1fa01db90155565b613120565b816001600160a01b0316836001600160a01b031614613120576131208382613674565b6001600160a01b03821661313757610f6381613711565b826001600160a01b0316826001600160a01b031614610f6357610f6382826137ea565b61316333611071565b6131d55760405162461bcd60e51b815260206004820152603860248201527f4f4e4654373231456e756d657261626c653a2073656e642063616c6c6572206960448201527f73206e6f74206f776e6572206e6f7220617070726f76656400000000000000006064820152608401610c42565b836001600160a01b03166131e882611733565b6001600160a01b0316146132535760405162461bcd60e51b815260206004820152602c60248201527f4f4e4654373231456e756d657261626c653a2073656e642066726f6d20696e6360448201526b37b93932b1ba1037bbb732b960a11b6064820152608401610c42565b610c578161382e565b61ffff85166000908152600160205260409020805461327a90614caa565b151590506132e55760405162461bcd60e51b815260206004820152603260248201527f4c7a53656e643a2064657374696e6174696f6e20636861696e206973206e6f746044820152711030903a393ab9ba32b21039b7bab931b29760711b6064820152608401610c42565b61ffff851660009081526001602052604090819020905162c5803160e81b81526001600160a01b037f0000000000000000000000000000000000000000000000000000000000000000169163c580310091349161334f918a91908a908a908a908a90600401614a93565b6000604051808303818588803b1580156122d757600080fd5b610f6382826138d5565b600061337c6138ef565b905090565b600061337c613916565b600061337c61393d565b8061339f57505050565b6001600160a01b03831673eeeeeeeeeeeeeeeeeeeeeeeeeeeeeeeeeeeeeeee146133d757610f636001600160a01b038416838361394c565b610f63828261397c565b6000613436826040518060400160405280602081526020017f5361666545524332303a206c6f772d6c6576656c2063616c6c206661696c6564815250856001600160a01b0316613a959092919063ffffffff16565b805190915015610f6357808060200190518101906134549190614041565b610f635760405162461bcd60e51b815260206004820152602a60248201527f5361666545524332303a204552433230206f7065726174696f6e20646964206e6044820152691bdd081cdd58d8d9595960b21b6064820152608401610c42565b60006001600160a01b0384163b156135b557604051630a85bd0160e11b81526001600160a01b0385169063150b7a02906134f7903390899088908890600401614689565b602060405180830381600087803b15801561351157600080fd5b505af1925050508015613541575060408051601f3d908101601f1916820190925261353e91810190614091565b60015b61359b573d80801561356f576040519150601f19603f3d011682016040523d82523d6000602084013e613574565b606091505b5080516135935760405162461bcd60e51b8152600401610c42906146fb565b805181602001fd5b6001600160e01b031916630a85bd0160e11b1490506125d6565b5060016125d6565b600081815b84518110156136375760008582815181106135ed57634e487b7160e01b600052603260045260246000fd5b602002602001015190508083116136135760008381526020829052604090209250613624565b600081815260208490526040902092505b508061362f81614ce5565b9150506135c2565b509392505050565b60006001600160e01b03198216637bb0080b60e01b1480610c7a57506301ffc9a760e01b6001600160e01b0319831614610c7a565b60006001613681846118ac565b61368b9190614c67565b6000838152600a60205260409020549091508082146136de576001600160a01b03841660009081526009602090815260408083208584528252808320548484528184208190558352600a90915290208190555b506000918252600a602090815260408084208490556001600160a01b039094168352600981528383209183525290812055565b600b5460009061372390600190614c67565b6000838152600c6020526040812054600b805493945090928490811061375957634e487b7160e01b600052603260045260246000fd5b9060005260206000200154905080600b838154811061378857634e487b7160e01b600052603260045260246000fd5b6000918252602080832090910192909255828152600c9091526040808220849055858252812055600b8054806137ce57634e487b7160e01b600052603160045260246000fd5b6001900381819060005260206000200160009055905550505050565b60006137f5836118ac565b6001600160a01b0390931660009081526009602090815260408083208684528252808320859055938252600a9052919091209190915550565b600061383982611733565b9050613847816000846130a2565b6138526000836126f4565b6001600160a01b038116600090815260066020526040812080546001929061387b908490614c67565b909155505060008281526005602052604080822080546001600160a01b0319169055518391906001600160a01b038416907fddf252ad1be2c89b69c2b068fc378daa952ba7f163c4a11628f55a4df523b3ef908390a45050565b61172f828260405180602001604052806000815250613aa4565b600080366138fe606082614c67565b613909928290614bf4565b81019061337c9190613e34565b60008036613925602082614c67565b613930928290614bf4565b81019061337c919061405d565b600080366138fe604082614c67565b6040516001600160a01b038316602482015260448101829052610f6390849063a9059cbb60e01b90606401612eba565b804710156139cc5760405162461bcd60e51b815260206004820152601d60248201527f416464726573733a20696e73756666696369656e742062616c616e63650000006044820152606401610c42565b6000826001600160a01b03168260405160006040518083038185875af1925050503d8060008114613a19576040519150601f19603f3d011682016040523d82523d6000602084013e613a1e565b606091505b5050905080610f635760405162461bcd60e51b815260206004820152603a60248201527f416464726573733a20756e61626c6520746f2073656e642076616c75652c207260448201527f6563697069656e74206d617920686176652072657665727465640000000000006064820152608401610c42565b60606125d68484600085613ad7565b613aae83836129fc565b613abb60008484846134b3565b610f635760405162461bcd60e51b8152600401610c42906146fb565b606082471015613b385760405162461bcd60e51b815260206004820152602660248201527f416464726573733a20696e73756666696369656e742062616c616e636520666f6044820152651c8818d85b1b60d21b6064820152608401610c42565b6001600160a01b0385163b613b8f5760405162461bcd60e51b815260206004820152601d60248201527f416464726573733a2063616c6c20746f206e6f6e2d636f6e74726163740000006044820152606401610c42565b600080866001600160a01b03168587604051613bab91906145cf565b60006040518083038185875af1925050503d8060008114613be8576040519150601f19603f3d011682016040523d82523d6000602084013e613bed565b606091505b5091509150613bfd828286613c08565b979650505050505050565b60608315613c17575081611540565b825115613c275782518084602001fd5b8160405162461bcd60e51b8152600401610c4291906146c6565b828054613c4d90614caa565b90600052602060002090601f016020900481019282613c6f5760008555613cb5565b82601f10613c8857805160ff1916838001178555613cb5565b82800160010185558215613cb5579182015b82811115613cb5578251825591602001919060010190613c9a565b50613cc1929150613d39565b5090565b828054613cd190614caa565b90600052602060002090601f016020900481019282613cf35760008555613cb5565b82601f10613d0c5782800160ff19823516178555613cb5565b82800160010185558215613cb5579182015b82811115613cb5578235825591602001919060010190613d1e565b5b80821115613cc15760008155600101613d3a565b6000613d61613d5c84614bcd565b614b9d565b9050828152838383011115613d7557600080fd5b828260208301376000602084830101529392505050565b60008083601f840112613d9d578182fd5b5081356001600160401b03811115613db3578182fd5b602083019150836020828501011115613dcb57600080fd5b9250929050565b600082601f830112613de2578081fd5b61154083833560208501613d4e565b600082601f830112613e01578081fd5b8151613e0f613d5c82614bcd565b818152846020838601011115613e23578283fd5b6125d6826020830160208701614c7e565b600060208284031215613e45578081fd5b813561154081614d56565b60008060408385031215613e62578081fd5b8235613e6d81614d56565b91506020830135613e7d81614d56565b809150509250929050565b600080600060608486031215613e9c578081fd5b8335613ea781614d56565b92506020840135613eb781614d56565b929592945050506040919091013590565b60008060008060808587031215613edd578081fd5b8435613ee881614d56565b93506020850135613ef881614d56565b92506040850135915060608501356001600160401b03811115613f19578182fd5b613f2587828801613dd2565b91505092959194509250565b60008060408385031215613f43578182fd5b8235613f4e81614d56565b91506020830135613e7d81614d6b565b600080600080600080600060e0888a031215613f78578485fd5b8735613f8381614d56565b96506020880135613f9381614d8f565b955060408801356001600160401b0380821115613fae578687fd5b613fba8b838c01613dd2565b965060608a0135955060808a01359150613fd382614d56565b90935060a089013590613fe582614d56565b90925060c08901359080821115613ffa578283fd5b506140078a828b01613dd2565b91505092959891949750929550565b60008060408385031215614028578182fd5b823561403381614d56565b946020939093013593505050565b600060208284031215614052578081fd5b815161154081614d6b565b60006020828403121561406e578081fd5b5035919050565b600060208284031215614086578081fd5b813561154081614d79565b6000602082840312156140a2578081fd5b815161154081614d79565b6000602082840312156140be578081fd5b81516001600160401b038111156140d3578182fd5b6125d684828501613df1565b600080604083850312156140f1578182fd5b82516001600160401b03811115614106578283fd5b61411285828601613df1565b925050602083015190509250929050565b600060208284031215614134578081fd5b81356001600160401b03811115614149578182fd5b8201601f81018413614159578182fd5b6125d684823560208401613d4e565b600060208284031215614179578081fd5b813561154081614d8f565b600060208284031215614195578081fd5b815161154081614d8f565b6000806000604084860312156141b4578081fd5b83356141bf81614d8f565b925060208401356001600160401b038111156141d9578182fd5b6141e586828701613d8c565b9497909650939450505050565b600080600060608486031215614206578081fd5b833561421181614d8f565b925060208401356001600160401b0381111561422b578182fd5b61423786828701613dd2565b925050604084013590509250925092565b600080600080600060a0868803121561425f578283fd5b853561426a81614d8f565b945060208601356001600160401b0380821115614285578485fd5b61429189838a01613dd2565b955060408801359450606088013591506142aa82614d6b565b909250608087013590808211156142bf578283fd5b506142cc88828901613dd2565b9150509295509295909350565b6000806000806000608086880312156142f0578283fd5b85356142fb81614d8f565b945060208601356001600160401b0380821115614316578485fd5b61432289838a01613dd2565b95506040880135915061433482614d9f565b90935060608701359080821115614349578283fd5b5061435688828901613d8c565b969995985093965092949392505050565b6000806000806080858703121561437c578182fd5b843561438781614d8f565b935060208501356001600160401b03808211156143a2578384fd5b6143ae88838901613dd2565b9450604087013591506143c082614d9f565b909250606086013590808211156143d5578283fd5b50613f2587828801613dd2565b600080600080608085870312156143f7578182fd5b843561440281614d8f565b9350602085013561441281614d8f565b9250604085013561442281614d56565b9396929550929360600135925050565b600080600080600060808688031215614449578283fd5b853561445481614d8f565b9450602086013561446481614d8f565b93506040860135925060608601356001600160401b03811115614485578182fd5b61435688828901613d8c565b6000806000604084860312156144a5578081fd5b8335925060208401356001600160401b03808211156144c2578283fd5b818601915086601f8301126144d5578283fd5b8135818111156144e3578384fd5b8760208260051b85010111156144f7578384fd5b6020830194508093505050509250925092565b6000806040838503121561451c578182fd5b50508035926020909101359150565b6000806040838503121561453d578182fd5b505080516020909101519092909150565b60006020828403121561455f578081fd5b815161154081614d9f565b81835281816020850137506000828201602090810191909152601f909101601f19169091010190565b600081518084526145ab816020860160208601614c7e565b601f01601f19169290920160200192915050565b8183823760009101908152919050565b600082516145e1818460208701614c7e565b9190910192915050565b60008083546145f981614caa565b6001828116801561461157600181146146225761464e565b60ff1984168752828701945061464e565b8786526020808720875b858110156146455781548a82015290840190820161462c565b50505082870194505b50929695505050505050565b6000835161466c818460208801614c7e565b835190830190614680818360208801614c7e565b01949350505050565b6001600160a01b03858116825284166020820152604081018390526080606082018190526000906146bc90830184614593565b9695505050505050565b6020815260006115406020830184614593565b6040815260006146ec6040830185614593565b90508260208301529392505050565b60208082526032908201527f4552433732313a207472616e7366657220746f206e6f6e20455243373231526560408201527131b2b4bb32b91034b6b83632b6b2b73a32b960711b606082015260800190565b60208082526023908201527f4b616e70616950616e6461733a2043616e6e6f74206d696e74203020746f6b656040820152626e732160e81b606082015260800190565b6020808252602e908201527f4b616e70616950616e6461733a205075626c69632073616c6520686173206e6f60408201526d742073746172746564207965742160901b606082015260800190565b60208082526027908201527f4b616e70616950616e6461733a2053616c6520686173206e6f742073746172746040820152666564207965742160c81b606082015260800190565b60208082526048908201527f4b616e70616950616e6461733a20596f752063616e6e6f74206d696e74206d6f60408201527f7265207468616e206d6178546f6b656e735065724d696e7420746f6b656e73206060820152676174206f6e63652160c01b608082015260a00190565b6020808252818101527f4f776e61626c653a2063616c6c6572206973206e6f7420746865206f776e6572604082015260600190565b60208082526024908201527f4b616e70616950616e6461733a206d6178206d696e74206c696d69742072656160408201526318da195960e21b606082015260800190565b60208082526031908201527f4552433732313a207472616e736665722063616c6c6572206973206e6f74206f6040820152701ddb995c881b9bdc88185c1c1c9bdd9959607a1b606082015260800190565b60208082526027908201527f4b616e70616950616e6461733a20496e636f6e73697374656e7420616d6f756e604082015266742073656e742160c81b606082015260800190565b61ffff861681526001600160a01b038516602082015260a0604082018190526000906149d290830186614593565b841515606084015282810360808401526149ec8185614593565b98975050505050505050565b61ffff841681526040602082015260006125d360408301848661456a565b61ffff86168152608060208201526000614a336080830187614593565b6001600160401b038616604084015282810360608401526149ec81858761456a565b61ffff85168152608060208201526000614a726080830186614593565b6001600160401b03851660408401528281036060840152613bfd8185614593565b61ffff871681526000602060c081840152818854614ab081614caa565b8060c087015260e0600180841660008114614ad25760018114614ae757614b12565b60ff1985168984015261010089019550614b12565b8d8852868820885b85811015614b0a5781548b8201860152908301908801614aef565b8a0184019650505b50505050508381036040850152614b298189614593565b915050614b4160608401876001600160a01b03169052565b6001600160a01b038516608084015282810360a0840152614b628185614593565b9998505050505050505050565b600061ffff808816835280871660208401525084604083015260806060830152613bfd60808301848661456a565b604051601f8201601f191681016001600160401b0381118282101715614bc557614bc5614d40565b604052919050565b60006001600160401b03821115614be657614be6614d40565b50601f01601f191660200190565b60008085851115614c03578182fd5b83861115614c0f578182fd5b5050820193919092039150565b60008219821115614c2f57614c2f614d14565b500190565b600082614c4357614c43614d2a565b500490565b6000816000190483118215151615614c6257614c62614d14565b500290565b600082821015614c7957614c79614d14565b500390565b60005b83811015614c99578181015183820152602001614c81565b83811115610c575750506000910152565b600181811c90821680614cbe57607f821691505b60208210811415614cdf57634e487b7160e01b600052602260045260246000fd5b50919050565b6000600019821415614cf957614cf9614d14565b5060010190565b600082614d0f57614d0f614d2a565b500690565b634e487b7160e01b600052601160045260246000fd5b634e487b7160e01b600052601260045260246000fd5b634e487b7160e01b600052604160045260246000fd5b6001600160a01b038116811461147757600080fd5b801515811461147757600080fd5b6001600160e01b03198116811461147757600080fd5b61ffff8116811461147757600080fd5b6001600160401b038116811461147757600080fdfea2646970667358221220a81950a1c474ba5de90758974e8449464c146249081a40106a5aedf669d67b3964736f6c63430008040033",
  "devdoc": {
    "author": "exakoss",
    "kind": "dev",
    "methods": {
      "approve(address,uint256)": {
        "details": "See {IERC721-approve}."
      },
      "balanceOf(address)": {
        "details": "See {IERC721-balanceOf}."
      },
      "constructor": {
        "params": {
          "_baseTokenURI": "the base URI for computing the tokenURI",
          "_endMintId": "the max number of mints on this chain",
          "_layerZeroEndpoint": "handles message transmission across chains",
          "_maxTokensPerMint": "the max number of tokens that could be minted in a single transaction",
          "_name": "the name of the token",
          "_stableToken": "stable coin address to be paid for minting",
          "_startMintId": "the starting mint number on this chain, excluded",
          "_symbol": "the token symbol"
        }
      },
      "estimateSendFee(uint16,bytes,uint256,bool,bytes)": {
        "details": "estimate send token `_tokenId` to (`_dstChainId`, `_toAddress`) _dstChainId - L0 defined chain id to send tokens too _toAddress - dynamic bytes array which contains the address to whom you are sending tokens to on the dstChain _tokenId - token Id to transfer _useZro - indicates to use zro to pay L0 fees _adapterParams - flexible bytes array to indicate messaging adapter services in L0"
      },
      "getApproved(uint256)": {
        "details": "See {IERC721-getApproved}."
      },
      "isApprovedForAll(address,address)": {
        "details": "See {IERC721-isApprovedForAll}."
      },
      "name()": {
        "details": "See {IERC721Metadata-name}."
      },
      "owner()": {
        "details": "Returns the address of the current owner."
      },
      "ownerOf(uint256)": {
        "details": "See {IERC721-ownerOf}."
      },
      "renounceOwnership()": {
        "details": "Leaves the contract without owner. It will not be possible to call `onlyOwner` functions anymore. Can only be called by the current owner. NOTE: Renouncing ownership will leave the contract without an owner, thereby removing any functionality that is only available to the owner."
      },
      "safeTransferFrom(address,address,uint256)": {
        "details": "See {IERC721-safeTransferFrom}."
      },
      "safeTransferFrom(address,address,uint256,bytes)": {
        "details": "See {IERC721-safeTransferFrom}."
      },
      "sendFrom(address,uint16,bytes,uint256,address,address,bytes)": {
        "details": "send token `_tokenId` to (`_dstChainId`, `_toAddress`) from `_from` `_toAddress` can be any size depending on the `dstChainId`. `_zroPaymentAddress` set to address(0x0) if not paying in ZRO (LayerZero Token) `_adapterParams` is a flexible bytes array to indicate messaging adapter services"
      },
      "setApprovalForAll(address,bool)": {
        "details": "See {IERC721-setApprovalForAll}."
      },
      "symbol()": {
        "details": "See {IERC721Metadata-symbol}."
      },
      "tokenByIndex(uint256)": {
        "details": "See {IERC721Enumerable-tokenByIndex}."
      },
      "tokenOfOwnerByIndex(address,uint256)": {
        "details": "See {IERC721Enumerable-tokenOfOwnerByIndex}."
      },
      "tokenURI(uint256)": {
        "details": "See {IERC721Metadata-tokenURI}."
      },
      "totalSupply()": {
        "details": "See {IERC721Enumerable-totalSupply}."
      },
      "transferFrom(address,address,uint256)": {
        "details": "See {IERC721-transferFrom}."
      },
      "transferOwnership(address)": {
        "details": "Transfers ownership of the contract to a new account (`newOwner`). Can only be called by the current owner."
      }
    },
    "title": "Interface of the AdvancedONFT standard",
    "version": 1
  },
  "userdoc": {
    "kind": "user",
    "methods": {
      "constructor": {
        "notice": "Constructor for the AdvancedONFT"
      },
      "gaslessMint(uint256)": {
        "notice": "gasless mint "
      },
      "mint(uint256,bytes32[])": {
        "notice": "Mint your ONFTs, whitelisted addresses only"
      },
      "publicMint(uint256)": {
        "notice": "Mint your ONFTs"
      },
      "stablePrice()": {
        "notice": "For stable minting"
      }
    },
    "notice": "this implementation supports: batch mint, payable public and private mint, reveal of metadata and EIP-2981 on-chain royalties",
    "version": 1
  },
  "storageLayout": {
    "storage": [
      {
        "astId": 338,
        "contract": "contracts/token/onft/extension/KanpaiPandas.sol:KanpaiPandas",
        "label": "_owner",
        "offset": 0,
        "slot": "0",
        "type": "t_address"
      },
      {
        "astId": 14233,
        "contract": "contracts/token/onft/extension/KanpaiPandas.sol:KanpaiPandas",
        "label": "trustedRemoteLookup",
        "offset": 0,
        "slot": "1",
        "type": "t_mapping(t_uint16,t_bytes_storage)"
      },
      {
        "astId": 14547,
        "contract": "contracts/token/onft/extension/KanpaiPandas.sol:KanpaiPandas",
        "label": "failedMessages",
        "offset": 0,
        "slot": "2",
        "type": "t_mapping(t_uint16,t_mapping(t_bytes_memory_ptr,t_mapping(t_uint256,t_bytes32)))"
      },
      {
        "astId": 3037,
        "contract": "contracts/token/onft/extension/KanpaiPandas.sol:KanpaiPandas",
        "label": "_name",
        "offset": 0,
        "slot": "3",
        "type": "t_string_storage"
      },
      {
        "astId": 3039,
        "contract": "contracts/token/onft/extension/KanpaiPandas.sol:KanpaiPandas",
        "label": "_symbol",
        "offset": 0,
        "slot": "4",
        "type": "t_string_storage"
      },
      {
        "astId": 3043,
        "contract": "contracts/token/onft/extension/KanpaiPandas.sol:KanpaiPandas",
        "label": "_owners",
        "offset": 0,
        "slot": "5",
        "type": "t_mapping(t_uint256,t_address)"
      },
      {
        "astId": 3047,
        "contract": "contracts/token/onft/extension/KanpaiPandas.sol:KanpaiPandas",
        "label": "_balances",
        "offset": 0,
        "slot": "6",
        "type": "t_mapping(t_address,t_uint256)"
      },
      {
        "astId": 3051,
        "contract": "contracts/token/onft/extension/KanpaiPandas.sol:KanpaiPandas",
        "label": "_tokenApprovals",
        "offset": 0,
        "slot": "7",
        "type": "t_mapping(t_uint256,t_address)"
      },
      {
        "astId": 3057,
        "contract": "contracts/token/onft/extension/KanpaiPandas.sol:KanpaiPandas",
        "label": "_operatorApprovals",
        "offset": 0,
        "slot": "8",
        "type": "t_mapping(t_address,t_mapping(t_address,t_bool))"
      },
      {
        "astId": 4026,
        "contract": "contracts/token/onft/extension/KanpaiPandas.sol:KanpaiPandas",
        "label": "_ownedTokens",
        "offset": 0,
        "slot": "9",
        "type": "t_mapping(t_address,t_mapping(t_uint256,t_uint256))"
      },
      {
        "astId": 4030,
        "contract": "contracts/token/onft/extension/KanpaiPandas.sol:KanpaiPandas",
        "label": "_ownedTokensIndex",
        "offset": 0,
        "slot": "10",
        "type": "t_mapping(t_uint256,t_uint256)"
      },
      {
        "astId": 4033,
        "contract": "contracts/token/onft/extension/KanpaiPandas.sol:KanpaiPandas",
        "label": "_allTokens",
        "offset": 0,
        "slot": "11",
        "type": "t_array(t_uint256)dyn_storage"
      },
      {
        "astId": 4037,
        "contract": "contracts/token/onft/extension/KanpaiPandas.sol:KanpaiPandas",
        "label": "_allTokensIndex",
        "offset": 0,
        "slot": "12",
        "type": "t_mapping(t_uint256,t_uint256)"
      },
      {
        "astId": 574,
        "contract": "contracts/token/onft/extension/KanpaiPandas.sol:KanpaiPandas",
        "label": "_status",
        "offset": 0,
        "slot": "13",
        "type": "t_uint256"
      },
      {
        "astId": 18526,
        "contract": "contracts/token/onft/extension/KanpaiPandas.sol:KanpaiPandas",
        "label": "price",
        "offset": 0,
        "slot": "14",
        "type": "t_uint256"
      },
      {
        "astId": 18528,
        "contract": "contracts/token/onft/extension/KanpaiPandas.sol:KanpaiPandas",
        "label": "nextMintId",
        "offset": 0,
        "slot": "15",
        "type": "t_uint256"
      },
      {
        "astId": 18530,
        "contract": "contracts/token/onft/extension/KanpaiPandas.sol:KanpaiPandas",
        "label": "maxMintId",
        "offset": 0,
        "slot": "16",
        "type": "t_uint256"
      },
      {
        "astId": 18532,
        "contract": "contracts/token/onft/extension/KanpaiPandas.sol:KanpaiPandas",
        "label": "maxTokensPerMint",
        "offset": 0,
        "slot": "17",
        "type": "t_uint256"
      },
      {
        "astId": 18535,
        "contract": "contracts/token/onft/extension/KanpaiPandas.sol:KanpaiPandas",
        "label": "royaltyBasisPoints",
        "offset": 0,
        "slot": "18",
        "type": "t_uint256"
      },
      {
        "astId": 18537,
        "contract": "contracts/token/onft/extension/KanpaiPandas.sol:KanpaiPandas",
        "label": "beneficiary",
        "offset": 0,
        "slot": "19",
        "type": "t_address_payable"
      },
      {
        "astId": 18539,
        "contract": "contracts/token/onft/extension/KanpaiPandas.sol:KanpaiPandas",
        "label": "merkleRoot",
        "offset": 0,
        "slot": "20",
        "type": "t_bytes32"
      },
      {
        "astId": 18541,
        "contract": "contracts/token/onft/extension/KanpaiPandas.sol:KanpaiPandas",
        "label": "contractURI",
        "offset": 0,
        "slot": "21",
        "type": "t_string_storage"
      },
      {
        "astId": 18543,
        "contract": "contracts/token/onft/extension/KanpaiPandas.sol:KanpaiPandas",
        "label": "baseURI",
        "offset": 0,
        "slot": "22",
        "type": "t_string_storage"
      },
      {
        "astId": 18547,
        "contract": "contracts/token/onft/extension/KanpaiPandas.sol:KanpaiPandas",
        "label": "_boughtCount",
        "offset": 0,
        "slot": "23",
        "type": "t_mapping(t_address,t_uint256)"
      },
      {
        "astId": 18549,
        "contract": "contracts/token/onft/extension/KanpaiPandas.sol:KanpaiPandas",
        "label": "_publicSaleStarted",
        "offset": 0,
        "slot": "24",
        "type": "t_bool"
      },
      {
        "astId": 18551,
        "contract": "contracts/token/onft/extension/KanpaiPandas.sol:KanpaiPandas",
        "label": "_saleStarted",
        "offset": 1,
        "slot": "24",
        "type": "t_bool"
      },
      {
        "astId": 18553,
        "contract": "contracts/token/onft/extension/KanpaiPandas.sol:KanpaiPandas",
        "label": "revealed",
        "offset": 2,
        "slot": "24",
        "type": "t_bool"
      },
      {
        "astId": 18557,
        "contract": "contracts/token/onft/extension/KanpaiPandas.sol:KanpaiPandas",
        "label": "stablePrice",
        "offset": 0,
        "slot": "25",
        "type": "t_uint256"
      }
    ],
    "types": {
      "t_address": {
        "encoding": "inplace",
        "label": "address",
        "numberOfBytes": "20"
      },
      "t_address_payable": {
        "encoding": "inplace",
        "label": "address payable",
        "numberOfBytes": "20"
      },
      "t_array(t_uint256)dyn_storage": {
        "base": "t_uint256",
        "encoding": "dynamic_array",
        "label": "uint256[]",
        "numberOfBytes": "32"
      },
      "t_bool": {
        "encoding": "inplace",
        "label": "bool",
        "numberOfBytes": "1"
      },
      "t_bytes32": {
        "encoding": "inplace",
        "label": "bytes32",
        "numberOfBytes": "32"
      },
      "t_bytes_memory_ptr": {
        "encoding": "bytes",
        "label": "bytes",
        "numberOfBytes": "32"
      },
      "t_bytes_storage": {
        "encoding": "bytes",
        "label": "bytes",
        "numberOfBytes": "32"
      },
      "t_mapping(t_address,t_bool)": {
        "encoding": "mapping",
        "key": "t_address",
        "label": "mapping(address => bool)",
        "numberOfBytes": "32",
        "value": "t_bool"
      },
      "t_mapping(t_address,t_mapping(t_address,t_bool))": {
        "encoding": "mapping",
        "key": "t_address",
        "label": "mapping(address => mapping(address => bool))",
        "numberOfBytes": "32",
        "value": "t_mapping(t_address,t_bool)"
      },
      "t_mapping(t_address,t_mapping(t_uint256,t_uint256))": {
        "encoding": "mapping",
        "key": "t_address",
        "label": "mapping(address => mapping(uint256 => uint256))",
        "numberOfBytes": "32",
        "value": "t_mapping(t_uint256,t_uint256)"
      },
      "t_mapping(t_address,t_uint256)": {
        "encoding": "mapping",
        "key": "t_address",
        "label": "mapping(address => uint256)",
        "numberOfBytes": "32",
        "value": "t_uint256"
      },
      "t_mapping(t_bytes_memory_ptr,t_mapping(t_uint256,t_bytes32))": {
        "encoding": "mapping",
        "key": "t_bytes_memory_ptr",
        "label": "mapping(bytes => mapping(uint256 => bytes32))",
        "numberOfBytes": "32",
        "value": "t_mapping(t_uint256,t_bytes32)"
      },
      "t_mapping(t_uint16,t_bytes_storage)": {
        "encoding": "mapping",
        "key": "t_uint16",
        "label": "mapping(uint16 => bytes)",
        "numberOfBytes": "32",
        "value": "t_bytes_storage"
      },
      "t_mapping(t_uint16,t_mapping(t_bytes_memory_ptr,t_mapping(t_uint256,t_bytes32)))": {
        "encoding": "mapping",
        "key": "t_uint16",
        "label": "mapping(uint16 => mapping(bytes => mapping(uint256 => bytes32)))",
        "numberOfBytes": "32",
        "value": "t_mapping(t_bytes_memory_ptr,t_mapping(t_uint256,t_bytes32))"
      },
      "t_mapping(t_uint256,t_address)": {
        "encoding": "mapping",
        "key": "t_uint256",
        "label": "mapping(uint256 => address)",
        "numberOfBytes": "32",
        "value": "t_address"
      },
      "t_mapping(t_uint256,t_bytes32)": {
        "encoding": "mapping",
        "key": "t_uint256",
        "label": "mapping(uint256 => bytes32)",
        "numberOfBytes": "32",
        "value": "t_bytes32"
      },
      "t_mapping(t_uint256,t_uint256)": {
        "encoding": "mapping",
        "key": "t_uint256",
        "label": "mapping(uint256 => uint256)",
        "numberOfBytes": "32",
        "value": "t_uint256"
      },
      "t_string_storage": {
        "encoding": "bytes",
        "label": "string",
        "numberOfBytes": "32"
      },
      "t_uint16": {
        "encoding": "inplace",
        "label": "uint16",
        "numberOfBytes": "2"
      },
      "t_uint256": {
        "encoding": "inplace",
        "label": "uint256",
        "numberOfBytes": "32"
      }
    }
  }
}