{
  "abi": [
    {
      "inputs": [],
      "stateMutability": "nonpayable",
      "type": "constructor"
    },
    {
      "anonymous": false,
      "inputs": [
        {
          "indexed": false,
          "internalType": "uint16",
          "name": "chainId",
          "type": "uint16"
        },
        {
          "indexed": false,
          "internalType": "bytes",
          "name": "srcAddress",
          "type": "bytes"
        },
        {
          "indexed": false,
          "internalType": "uint256",
          "name": "nonce",
          "type": "uint256"
        },
        {
          "indexed": false,
          "internalType": "address",
          "name": "token",
          "type": "address"
        },
        {
          "indexed": false,
          "internalType": "uint256",
          "name": "amountLD",
          "type": "uint256"
        },
        {
          "indexed": false,
          "internalType": "address",
          "name": "to",
          "type": "address"
        },
        {
          "indexed": false,
          "internalType": "bytes",
          "name": "payload",
          "type": "bytes"
        },
        {
          "indexed": false,
          "internalType": "bytes",
          "name": "reason",
          "type": "bytes"
        }
      ],
      "name": "CachedSwapSaved",
      "type": "event"
    },
    {
      "anonymous": false,
      "inputs": [
        {
          "indexed": true,
          "internalType": "address",
          "name": "previousOwner",
          "type": "address"
        },
        {
          "indexed": true,
          "internalType": "address",
          "name": "newOwner",
          "type": "address"
        }
      ],
      "name": "OwnershipTransferred",
      "type": "event"
    },
    {
      "anonymous": false,
      "inputs": [
        {
          "indexed": false,
          "internalType": "uint16",
          "name": "srcChainId",
          "type": "uint16"
        },
        {
          "indexed": true,
          "internalType": "bytes",
          "name": "srcAddress",
          "type": "bytes"
        },
        {
          "indexed": true,
          "internalType": "uint256",
          "name": "nonce",
          "type": "uint256"
        },
        {
          "indexed": false,
          "internalType": "uint256",
          "name": "srcPoolId",
          "type": "uint256"
        },
        {
          "indexed": false,
          "internalType": "uint256",
          "name": "dstPoolId",
          "type": "uint256"
        },
        {
          "indexed": false,
          "internalType": "address",
          "name": "to",
          "type": "address"
        },
        {
          "indexed": false,
          "internalType": "uint256",
          "name": "amountSD",
          "type": "uint256"
        },
        {
          "indexed": false,
          "internalType": "uint256",
          "name": "mintAmountSD",
          "type": "uint256"
        }
      ],
      "name": "RedeemLocalCallback",
      "type": "event"
    },
    {
      "anonymous": false,
      "inputs": [
        {
          "indexed": false,
          "internalType": "uint8",
          "name": "bridgeFunctionType",
          "type": "uint8"
        },
        {
          "indexed": false,
          "internalType": "uint16",
          "name": "chainId",
          "type": "uint16"
        },
        {
          "indexed": false,
          "internalType": "bytes",
          "name": "srcAddress",
          "type": "bytes"
        },
        {
          "indexed": false,
          "internalType": "uint256",
          "name": "nonce",
          "type": "uint256"
        }
      ],
      "name": "Revert",
      "type": "event"
    },
    {
      "anonymous": false,
      "inputs": [
        {
          "indexed": false,
          "internalType": "uint16",
          "name": "srcChainId",
          "type": "uint16"
        },
        {
          "indexed": false,
          "internalType": "uint256",
          "name": "_srcPoolId",
          "type": "uint256"
        },
        {
          "indexed": false,
          "internalType": "uint256",
          "name": "_dstPoolId",
          "type": "uint256"
        },
        {
          "indexed": false,
          "internalType": "bytes",
          "name": "to",
          "type": "bytes"
        },
        {
          "indexed": false,
          "internalType": "uint256",
          "name": "redeemAmountSD",
          "type": "uint256"
        },
        {
          "indexed": false,
          "internalType": "uint256",
          "name": "mintAmountSD",
          "type": "uint256"
        },
        {
          "indexed": true,
          "internalType": "uint256",
          "name": "nonce",
          "type": "uint256"
        },
        {
          "indexed": true,
          "internalType": "bytes",
          "name": "srcAddress",
          "type": "bytes"
        }
      ],
      "name": "RevertRedeemLocal",
      "type": "event"
    },
    {
      "inputs": [
        {
          "internalType": "uint256",
          "name": "_poolId",
          "type": "uint256"
        },
        {
          "internalType": "uint16",
          "name": "_dstChainId",
          "type": "uint16"
        },
        {
          "internalType": "uint256",
          "name": "_dstPoolId",
          "type": "uint256"
        }
      ],
      "name": "activateChainPath",
      "outputs": [],
      "stateMutability": "nonpayable",
      "type": "function"
    },
    {
      "inputs": [
        {
          "internalType": "uint256",
          "name": "_poolId",
          "type": "uint256"
        },
        {
          "internalType": "uint256",
          "name": "_amountLD",
          "type": "uint256"
        },
        {
          "internalType": "address",
          "name": "_to",
          "type": "address"
        }
      ],
      "name": "addLiquidity",
      "outputs": [],
      "stateMutability": "nonpayable",
      "type": "function"
    },
    {
      "inputs": [],
      "name": "bridge",
      "outputs": [
        {
          "internalType": "contract Bridge",
          "name": "",
          "type": "address"
        }
      ],
      "stateMutability": "view",
      "type": "function"
    },
    {
      "inputs": [
        {
          "internalType": "uint16",
          "name": "",
          "type": "uint16"
        },
        {
          "internalType": "bytes",
          "name": "",
          "type": "bytes"
        },
        {
          "internalType": "uint256",
          "name": "",
          "type": "uint256"
        }
      ],
      "name": "cachedSwapLookup",
      "outputs": [
        {
          "internalType": "address",
          "name": "token",
          "type": "address"
        },
        {
          "internalType": "uint256",
          "name": "amountLD",
          "type": "uint256"
        },
        {
          "internalType": "address",
          "name": "to",
          "type": "address"
        },
        {
          "internalType": "bytes",
          "name": "payload",
          "type": "bytes"
        }
      ],
      "stateMutability": "view",
      "type": "function"
    },
    {
      "inputs": [
        {
          "internalType": "uint256",
          "name": "_poolId",
          "type": "uint256"
        },
        {
          "internalType": "bool",
          "name": "_fullMode",
          "type": "bool"
        }
      ],
      "name": "callDelta",
      "outputs": [],
      "stateMutability": "nonpayable",
      "type": "function"
    },
    {
      "inputs": [
        {
          "internalType": "uint16",
          "name": "_srcChainId",
          "type": "uint16"
        },
        {
          "internalType": "bytes",
          "name": "_srcAddress",
          "type": "bytes"
        },
        {
          "internalType": "uint256",
          "name": "_nonce",
          "type": "uint256"
        }
      ],
      "name": "clearCachedSwap",
      "outputs": [],
      "stateMutability": "nonpayable",
      "type": "function"
    },
    {
      "inputs": [
        {
          "internalType": "uint256",
          "name": "_poolId",
          "type": "uint256"
        },
        {
          "internalType": "uint16",
          "name": "_dstChainId",
          "type": "uint16"
        },
        {
          "internalType": "uint256",
          "name": "_dstPoolId",
          "type": "uint256"
        },
        {
          "internalType": "uint256",
          "name": "_weight",
          "type": "uint256"
        }
      ],
      "name": "createChainPath",
      "outputs": [],
      "stateMutability": "nonpayable",
      "type": "function"
    },
    {
      "inputs": [
        {
          "internalType": "uint256",
          "name": "_poolId",
          "type": "uint256"
        },
        {
          "internalType": "address",
          "name": "_token",
          "type": "address"
        },
        {
          "internalType": "uint8",
          "name": "_sharedDecimals",
          "type": "uint8"
        },
        {
          "internalType": "uint8",
          "name": "_localDecimals",
          "type": "uint8"
        },
        {
          "internalType": "string",
          "name": "_name",
          "type": "string"
        },
        {
          "internalType": "string",
          "name": "_symbol",
          "type": "string"
        }
      ],
      "name": "createPool",
      "outputs": [
        {
          "internalType": "address",
          "name": "",
          "type": "address"
        }
      ],
      "stateMutability": "nonpayable",
      "type": "function"
    },
    {
      "inputs": [
        {
          "internalType": "uint16",
          "name": "_dstChainId",
          "type": "uint16"
        },
        {
          "internalType": "uint256",
          "name": "_dstPoolId",
          "type": "uint256"
        },
        {
          "internalType": "uint256",
          "name": "_srcPoolId",
          "type": "uint256"
        },
        {
          "components": [
            {
              "internalType": "uint256",
              "name": "credits",
              "type": "uint256"
            },
            {
              "internalType": "uint256",
              "name": "idealBalance",
              "type": "uint256"
            }
          ],
          "internalType": "struct Pool.CreditObj",
          "name": "_c",
          "type": "tuple"
        }
      ],
      "name": "creditChainPath",
      "outputs": [],
      "stateMutability": "nonpayable",
      "type": "function"
    },
    {
      "inputs": [],
      "name": "factory",
      "outputs": [
        {
          "internalType": "contract Factory",
          "name": "",
          "type": "address"
        }
      ],
      "stateMutability": "view",
      "type": "function"
    },
    {
      "inputs": [
        {
          "internalType": "uint16",
          "name": "_srcPoolId",
          "type": "uint16"
        },
        {
          "internalType": "uint256",
          "name": "_amountLP",
          "type": "uint256"
        },
        {
          "internalType": "address",
          "name": "_to",
          "type": "address"
        }
      ],
      "name": "instantRedeemLocal",
      "outputs": [
        {
          "internalType": "uint256",
          "name": "amountSD",
          "type": "uint256"
        }
      ],
      "stateMutability": "nonpayable",
      "type": "function"
    },
    {
      "inputs": [],
      "name": "mintFeeOwner",
      "outputs": [
        {
          "internalType": "address",
          "name": "",
          "type": "address"
        }
      ],
      "stateMutability": "view",
      "type": "function"
    },
    {
      "inputs": [],
      "name": "owner",
      "outputs": [
        {
          "internalType": "address",
          "name": "",
          "type": "address"
        }
      ],
      "stateMutability": "view",
      "type": "function"
    },
    {
      "inputs": [],
      "name": "protocolFeeOwner",
      "outputs": [
        {
          "internalType": "address",
          "name": "",
          "type": "address"
        }
      ],
      "stateMutability": "view",
      "type": "function"
    },
    {
      "inputs": [
        {
          "internalType": "uint16",
          "name": "_dstChainId",
          "type": "uint16"
        },
        {
          "internalType": "uint8",
          "name": "_functionType",
          "type": "uint8"
        },
        {
          "internalType": "bytes",
          "name": "_toAddress",
          "type": "bytes"
        },
        {
          "internalType": "bytes",
          "name": "_transferAndCallPayload",
          "type": "bytes"
        },
        {
          "components": [
            {
              "internalType": "uint256",
              "name": "dstGasForCall",
              "type": "uint256"
            },
            {
              "internalType": "uint256",
              "name": "dstNativeAmount",
              "type": "uint256"
            },
            {
              "internalType": "bytes",
              "name": "dstNativeAddr",
              "type": "bytes"
            }
          ],
          "internalType": "struct IStargateRouter.lzTxObj",
          "name": "_lzTxParams",
          "type": "tuple"
        }
      ],
      "name": "quoteLayerZeroFee",
      "outputs": [
        {
          "internalType": "uint256",
          "name": "",
          "type": "uint256"
        },
        {
          "internalType": "uint256",
          "name": "",
          "type": "uint256"
        }
      ],
      "stateMutability": "view",
      "type": "function"
    },
    {
      "inputs": [
        {
          "internalType": "uint16",
          "name": "_dstChainId",
          "type": "uint16"
        },
        {
          "internalType": "uint256",
          "name": "_srcPoolId",
          "type": "uint256"
        },
        {
          "internalType": "uint256",
          "name": "_dstPoolId",
          "type": "uint256"
        },
        {
          "internalType": "address payable",
          "name": "_refundAddress",
          "type": "address"
        },
        {
          "internalType": "uint256",
          "name": "_amountLP",
          "type": "uint256"
        },
        {
          "internalType": "bytes",
          "name": "_to",
          "type": "bytes"
        },
        {
          "components": [
            {
              "internalType": "uint256",
              "name": "dstGasForCall",
              "type": "uint256"
            },
            {
              "internalType": "uint256",
              "name": "dstNativeAmount",
              "type": "uint256"
            },
            {
              "internalType": "bytes",
              "name": "dstNativeAddr",
              "type": "bytes"
            }
          ],
          "internalType": "struct IStargateRouter.lzTxObj",
          "name": "_lzTxParams",
          "type": "tuple"
        }
      ],
      "name": "redeemLocal",
      "outputs": [],
      "stateMutability": "payable",
      "type": "function"
    },
    {
      "inputs": [
        {
          "internalType": "uint16",
          "name": "_srcChainId",
          "type": "uint16"
        },
        {
          "internalType": "bytes",
          "name": "_srcAddress",
          "type": "bytes"
        },
        {
          "internalType": "uint256",
          "name": "_nonce",
          "type": "uint256"
        },
        {
          "internalType": "uint256",
          "name": "_srcPoolId",
          "type": "uint256"
        },
        {
          "internalType": "uint256",
          "name": "_dstPoolId",
          "type": "uint256"
        },
        {
          "internalType": "address",
          "name": "_to",
          "type": "address"
        },
        {
          "internalType": "uint256",
          "name": "_amountSD",
          "type": "uint256"
        },
        {
          "internalType": "uint256",
          "name": "_mintAmountSD",
          "type": "uint256"
        }
      ],
      "name": "redeemLocalCallback",
      "outputs": [],
      "stateMutability": "nonpayable",
      "type": "function"
    },
    {
      "inputs": [
        {
          "internalType": "uint16",
          "name": "_srcChainId",
          "type": "uint16"
        },
        {
          "internalType": "bytes",
          "name": "_srcAddress",
          "type": "bytes"
        },
        {
          "internalType": "uint256",
          "name": "_nonce",
          "type": "uint256"
        },
        {
          "internalType": "uint256",
          "name": "_srcPoolId",
          "type": "uint256"
        },
        {
          "internalType": "uint256",
          "name": "_dstPoolId",
          "type": "uint256"
        },
        {
          "internalType": "uint256",
          "name": "_amountSD",
          "type": "uint256"
        },
        {
          "internalType": "bytes",
          "name": "_to",
          "type": "bytes"
        }
      ],
      "name": "redeemLocalCheckOnRemote",
      "outputs": [],
      "stateMutability": "nonpayable",
      "type": "function"
    },
    {
      "inputs": [
        {
          "internalType": "uint16",
          "name": "_dstChainId",
          "type": "uint16"
        },
        {
          "internalType": "uint256",
          "name": "_srcPoolId",
          "type": "uint256"
        },
        {
          "internalType": "uint256",
          "name": "_dstPoolId",
          "type": "uint256"
        },
        {
          "internalType": "address payable",
          "name": "_refundAddress",
          "type": "address"
        },
        {
          "internalType": "uint256",
          "name": "_amountLP",
          "type": "uint256"
        },
        {
          "internalType": "uint256",
          "name": "_minAmountLD",
          "type": "uint256"
        },
        {
          "internalType": "bytes",
          "name": "_to",
          "type": "bytes"
        },
        {
          "components": [
            {
              "internalType": "uint256",
              "name": "dstGasForCall",
              "type": "uint256"
            },
            {
              "internalType": "uint256",
              "name": "dstNativeAmount",
              "type": "uint256"
            },
            {
              "internalType": "bytes",
              "name": "dstNativeAddr",
              "type": "bytes"
            }
          ],
          "internalType": "struct IStargateRouter.lzTxObj",
          "name": "_lzTxParams",
          "type": "tuple"
        }
      ],
      "name": "redeemRemote",
      "outputs": [],
      "stateMutability": "payable",
      "type": "function"
    },
    {
      "inputs": [],
      "name": "renounceOwnership",
      "outputs": [],
      "stateMutability": "nonpayable",
      "type": "function"
    },
    {
      "inputs": [
        {
          "internalType": "uint16",
          "name": "_srcChainId",
          "type": "uint16"
        },
        {
          "internalType": "bytes",
          "name": "_srcAddress",
          "type": "bytes"
        },
        {
          "internalType": "uint256",
          "name": "_nonce",
          "type": "uint256"
        }
      ],
      "name": "retryRevert",
      "outputs": [],
      "stateMutability": "payable",
      "type": "function"
    },
    {
      "inputs": [
        {
          "internalType": "uint16",
          "name": "",
          "type": "uint16"
        },
        {
          "internalType": "bytes",
          "name": "",
          "type": "bytes"
        },
        {
          "internalType": "uint256",
          "name": "",
          "type": "uint256"
        }
      ],
      "name": "revertLookup",
      "outputs": [
        {
          "internalType": "bytes",
          "name": "",
          "type": "bytes"
        }
      ],
      "stateMutability": "view",
      "type": "function"
    },
    {
      "inputs": [
        {
          "internalType": "uint16",
          "name": "_dstChainId",
          "type": "uint16"
        },
        {
          "internalType": "bytes",
          "name": "_srcAddress",
          "type": "bytes"
        },
        {
          "internalType": "uint256",
          "name": "_nonce",
          "type": "uint256"
        },
        {
          "internalType": "address payable",
          "name": "_refundAddress",
          "type": "address"
        },
        {
          "components": [
            {
              "internalType": "uint256",
              "name": "dstGasForCall",
              "type": "uint256"
            },
            {
              "internalType": "uint256",
              "name": "dstNativeAmount",
              "type": "uint256"
            },
            {
              "internalType": "bytes",
              "name": "dstNativeAddr",
              "type": "bytes"
            }
          ],
          "internalType": "struct IStargateRouter.lzTxObj",
          "name": "_lzTxParams",
          "type": "tuple"
        }
      ],
      "name": "revertRedeemLocal",
      "outputs": [],
      "stateMutability": "payable",
      "type": "function"
    },
    {
      "inputs": [
        {
          "internalType": "uint16",
          "name": "_dstChainId",
          "type": "uint16"
        },
        {
          "internalType": "uint256",
          "name": "_srcPoolId",
          "type": "uint256"
        },
        {
          "internalType": "uint256",
          "name": "_dstPoolId",
          "type": "uint256"
        },
        {
          "internalType": "address payable",
          "name": "_refundAddress",
          "type": "address"
        }
      ],
      "name": "sendCredits",
      "outputs": [],
      "stateMutability": "payable",
      "type": "function"
    },
    {
      "inputs": [
        {
          "internalType": "contract Bridge",
          "name": "_bridge",
          "type": "address"
        },
        {
          "internalType": "contract Factory",
          "name": "_factory",
          "type": "address"
        }
      ],
      "name": "setBridgeAndFactory",
      "outputs": [],
      "stateMutability": "nonpayable",
      "type": "function"
    },
    {
      "inputs": [
        {
          "internalType": "uint256",
          "name": "_poolId",
          "type": "uint256"
        },
        {
          "internalType": "bool",
          "name": "_batched",
          "type": "bool"
        },
        {
          "internalType": "uint256",
          "name": "_swapDeltaBP",
          "type": "uint256"
        },
        {
          "internalType": "uint256",
          "name": "_lpDeltaBP",
          "type": "uint256"
        },
        {
          "internalType": "bool",
          "name": "_defaultSwapMode",
          "type": "bool"
        },
        {
          "internalType": "bool",
          "name": "_defaultLPMode",
          "type": "bool"
        }
      ],
      "name": "setDeltaParam",
      "outputs": [],
      "stateMutability": "nonpayable",
      "type": "function"
    },
    {
      "inputs": [
        {
          "internalType": "uint256",
          "name": "_poolId",
          "type": "uint256"
        },
        {
          "internalType": "address",
          "name": "_feeLibraryAddr",
          "type": "address"
        }
      ],
      "name": "setFeeLibrary",
      "outputs": [],
      "stateMutability": "nonpayable",
      "type": "function"
    },
    {
      "inputs": [
        {
          "internalType": "uint256",
          "name": "_poolId",
          "type": "uint256"
        },
        {
          "internalType": "uint256",
          "name": "_mintFeeBP",
          "type": "uint256"
        }
      ],
      "name": "setFees",
      "outputs": [],
      "stateMutability": "nonpayable",
      "type": "function"
    },
    {
      "inputs": [
        {
          "internalType": "address",
          "name": "_owner",
          "type": "address"
        }
      ],
      "name": "setMintFeeOwner",
      "outputs": [],
      "stateMutability": "nonpayable",
      "type": "function"
    },
    {
      "inputs": [
        {
          "internalType": "address",
          "name": "_owner",
          "type": "address"
        }
      ],
      "name": "setProtocolFeeOwner",
      "outputs": [],
      "stateMutability": "nonpayable",
      "type": "function"
    },
    {
      "inputs": [
        {
          "internalType": "uint256",
          "name": "_poolId",
          "type": "uint256"
        },
        {
          "internalType": "bool",
          "name": "_swapStop",
          "type": "bool"
        }
      ],
      "name": "setSwapStop",
      "outputs": [],
      "stateMutability": "nonpayable",
      "type": "function"
    },
    {
      "inputs": [
        {
          "internalType": "uint256",
          "name": "_poolId",
          "type": "uint256"
        },
        {
          "internalType": "uint16",
          "name": "_dstChainId",
          "type": "uint16"
        },
        {
          "internalType": "uint256",
          "name": "_dstPoolId",
          "type": "uint256"
        },
        {
          "internalType": "uint16",
          "name": "_weight",
          "type": "uint16"
        }
      ],
      "name": "setWeightForChainPath",
      "outputs": [],
      "stateMutability": "nonpayable",
      "type": "function"
    },
    {
      "inputs": [
        {
          "internalType": "uint16",
          "name": "_dstChainId",
          "type": "uint16"
        },
        {
          "internalType": "uint256",
          "name": "_srcPoolId",
          "type": "uint256"
        },
        {
          "internalType": "uint256",
          "name": "_dstPoolId",
          "type": "uint256"
        },
        {
          "internalType": "address payable",
          "name": "_refundAddress",
          "type": "address"
        },
        {
          "internalType": "uint256",
          "name": "_amountLD",
          "type": "uint256"
        },
        {
          "internalType": "uint256",
          "name": "_minAmountLD",
          "type": "uint256"
        },
        {
          "components": [
            {
              "internalType": "uint256",
              "name": "dstGasForCall",
              "type": "uint256"
            },
            {
              "internalType": "uint256",
              "name": "dstNativeAmount",
              "type": "uint256"
            },
            {
              "internalType": "bytes",
              "name": "dstNativeAddr",
              "type": "bytes"
            }
          ],
          "internalType": "struct IStargateRouter.lzTxObj",
          "name": "_lzTxParams",
          "type": "tuple"
        },
        {
          "internalType": "bytes",
          "name": "_to",
          "type": "bytes"
        },
        {
          "internalType": "bytes",
          "name": "_payload",
          "type": "bytes"
        }
      ],
      "name": "swap",
      "outputs": [],
      "stateMutability": "payable",
      "type": "function"
    },
    {
      "inputs": [
        {
          "internalType": "uint16",
          "name": "_srcChainId",
          "type": "uint16"
        },
        {
          "internalType": "bytes",
          "name": "_srcAddress",
          "type": "bytes"
        },
        {
          "internalType": "uint256",
          "name": "_nonce",
          "type": "uint256"
        },
        {
          "internalType": "uint256",
          "name": "_srcPoolId",
          "type": "uint256"
        },
        {
          "internalType": "uint256",
          "name": "_dstPoolId",
          "type": "uint256"
        },
        {
          "internalType": "uint256",
          "name": "_dstGasForCall",
          "type": "uint256"
        },
        {
          "internalType": "address",
          "name": "_to",
          "type": "address"
        },
        {
          "components": [
            {
              "internalType": "uint256",
              "name": "amount",
              "type": "uint256"
            },
            {
              "internalType": "uint256",
              "name": "eqFee",
              "type": "uint256"
            },
            {
              "internalType": "uint256",
              "name": "eqReward",
              "type": "uint256"
            },
            {
              "internalType": "uint256",
              "name": "lpFee",
              "type": "uint256"
            },
            {
              "internalType": "uint256",
              "name": "protocolFee",
              "type": "uint256"
            },
            {
              "internalType": "uint256",
              "name": "lkbRemove",
              "type": "uint256"
            }
          ],
          "internalType": "struct Pool.SwapObj",
          "name": "_s",
          "type": "tuple"
        },
        {
          "internalType": "bytes",
          "name": "_payload",
          "type": "bytes"
        }
      ],
      "name": "swapRemote",
      "outputs": [],
      "stateMutability": "nonpayable",
      "type": "function"
    },
    {
      "inputs": [
        {
          "internalType": "address",
          "name": "newOwner",
          "type": "address"
        }
      ],
      "name": "transferOwnership",
      "outputs": [],
      "stateMutability": "nonpayable",
      "type": "function"
    },
    {
      "inputs": [
        {
          "internalType": "uint256",
          "name": "_poolId",
          "type": "uint256"
        },
        {
          "internalType": "address",
          "name": "_to",
          "type": "address"
        }
      ],
      "name": "withdrawMintFee",
      "outputs": [],
      "stateMutability": "nonpayable",
      "type": "function"
    },
    {
      "inputs": [
        {
          "internalType": "uint256",
          "name": "_poolId",
          "type": "uint256"
        },
        {
          "internalType": "address",
          "name": "_to",
          "type": "address"
        }
      ],
      "name": "withdrawProtocolFee",
      "outputs": [],
      "stateMutability": "nonpayable",
      "type": "function"
    }
  ],
  "bytecode": {
    "object": "0x6080806040523461005f5760008054336001600160a01b0319821681178355916001600160a01b03909116907f8be0079c531659141344cd1fd0a4f28419497f9722a3daafe3b4186f6b6457e09080a360018055613f7190816100658239f35b600080fdfe60806040526004361015610013575b600080fd5b60003560e01c80630403bce5146102f75780630a512369146102ee5780630b78f9c0146102e557806316fb60f5146102dc57806323fd4647146102d35780632f925555146102ca57806334aba410146102c1578063403a9f7a146102b8578063424c9119146102af57806343a30630146102a65780635500585c1461029d57806360a3b95c146102945780636a7982da1461028b578063715018a6146102825780637af935a1146102795780637b84d287146102705780637f7212981461026757806384d0dba31461025e57806387b21efc146102555780638da5cb5b1461024c5780638f2e1d181461024357806398e391a11461023a5780639ba3aa74146102315780639fbf10fc14610228578063a18fa8041461021f578063a96fbed414610216578063af640d821461020d578063c45a015514610204578063c4de93a5146101fb578063c6a27624146101f2578063c7d968e3146101e9578063c8adf12d146101e0578063cefbdde2146101d7578063da133a06146101ce578063e78cea92146101c5578063f2fde38b146101bc5763fba6e280146101b457600080fd5b61000e6124b1565b5061000e612416565b5061000e6123ec565b5061000e61237e565b5061000e612322565b5061000e61226a565b5061000e6121ee565b5061000e612177565b5061000e612092565b5061000e612068565b5061000e61203e565b5061000e612014565b5061000e611f52565b5061000e611ec6565b5061000e611d7f565b5061000e611d06565b5061000e611aef565b5061000e611ac5565b5061000e61192f565b5061000e6115ff565b5061000e611587565b5061000e6114f5565b5061000e611459565b5061000e6113f9565b5061000e61120d565b5061000e6110bf565b5061000e610fe0565b5061000e610f2b565b5061000e610e08565b5061000e610cc5565b5061000e610c27565b5061000e610b60565b5061000e610ab4565b5061000e61088c565b5061000e610803565b5061000e610766565b5061000e6104a7565b6004359061ffff8216820361000e57565b6024359061ffff8216820361000e57565b6064359061ffff8216820361000e57565b50634e487b7160e01b600052604160045260246000fd5b6001600160401b03811161035d57604052565b610365610333565b604052565b60c081019081106001600160401b0382111761035d57604052565b604081019081106001600160401b0382111761035d57604052565b60a081019081106001600160401b0382111761035d57604052565b90601f801991011681019081106001600160401b0382111761035d57604052565b60405190608082018281106001600160401b0382111761035d57604052565b6020906001600160401b038111610418575b601f01601f19160190565b610420610333565b61040d565b929192610431826103fb565b9161043f60405193846103bb565b82948184528183011161000e578281602093846000960137010152565b9080601f8301121561000e5781602061047793359101610425565b90565b9181601f8401121561000e578235916001600160401b03831161000e576020838186019501011161000e57565b503461000e5760e036600319011261000e576104c1610300565b6001600160401b039060243582811161000e576104e290369060040161045c565b90604435606435936084359460a4359160c43590811161000e5761050a90369060040161047a565b9061052060018060a01b036005541633146135d1565b8361057761053c6105308b61267a565b6001600160a01b031690565b60408051637544f15560e11b815261ffff8b166004820152602481018890526044810198909852969187918391829060009082906064820190565b03925af1908160009182936106c2575b5061062657505084936105d0610617947fa5d2ba6de30cc2f2e91c5a29ba66b148c27826954217e2f67cb8983541da21cf9b946105de946106219a9951968795602087016136a7565b03601f1981018352826103bb565b610612846106036105fd8961ffff166000526006602052604060002090565b8a610989565b90600052602052604060002090565b61338d565b51938493846136d8565b0390a1005b9290939150896106b2889a6106ad899d6106128a9c6106037f6ace246fa15cf1d5decabf654b1e8581a4422e0fcf4c1ed4bf83f41687caec199f9d8e6106936106bd9f8f8f8f908f9092610685936106a798519c8d966020880161361d565b03601f1981018852876103bb565b61ffff166000526006602052604060002090565b86610989565b61364d565b9a519788978861366d565b0390a3005b9092506106e59150873d89116106ec575b6106dd81836103bb565b810190612fe3565b9138610587565b503d6106d3565b60ff81160361000e57565b91909160608184031261000e57604051906001600160401b03906060830182811184821017610759575b60405282948135845260208201356020850152604082013592831161000e57604092610754920161045c565b910152565b610761610333565b610728565b503461000e5760a036600319011261000e57610780610300565b6024359061078d826106f3565b6001600160401b039160443583811161000e576107ae90369060040161047a565b60649291923585811161000e576107c990369060040161047a565b93909260843596871161000e576107e76107ed9736906004016106fe565b95612ff9565b60408051928352602083019190915290f35b0390f35b503461000e5760006040366003190112610889578060018060a01b0361082d81835416331461251a565b61083860043561267a565b16803b156108865781906024604051809481936369fe0e2d60e01b8352833560048401525af18015610879575b61086d575080f35b6108769061034a565b80f35b610881612658565b610865565b50fd5b80fd5b503461000e576000608036600319011261088957806108a9610311565b81546001600160a01b03906108c1908216331461251a565b6108cc60043561267a565b1690813b15610921576040516320d6bc7560e01b815261ffff90911660048201526044803560248301526064803591830191909152909291839182908490829081015b03925af180156108795761086d575080f35b5050fd5b90606060031983011261000e5760043561ffff8116810361000e5791602435906001600160401b03821161000e5761095f9160040161045c565b9060443590565b60005b8381106109795750506000910152565b8181015183820152602001610969565b6020906109a3928260405194838680955193849201610966565b82019081520301902090565b90600182811c921680156109df575b60208310146109c957565b634e487b7160e01b600052602260045260246000fd5b91607f16916109be565b90604051918260008254926109fd846109af565b908184526001948581169081600014610a6c5750600114610a29575b5050610a27925003836103bb565b565b9093915060005260209081600020936000915b818310610a54575050610a2793508201013880610a19565b85548884018501529485019487945091830191610a3c565b915050610a2794506020925060ff191682840152151560051b8201013880610a19565b90602091610aa881518092818552858086019101610966565b601f01601f1916010190565b503461000e5761ffff610aee6020610acb36610925565b949091166000526007825260406000208260405194838680955193849201610966565b82019081520301902090600052602052604060002060018060a01b03906107ff8282541691610b2b600360018301549560028401541692016109e9565b90604051948594855260208501526040840152608060608401526080830190610a8f565b6001600160a01b0381160361000e57565b503461000e576101c036600319011261000e57610b7b610300565b6001600160401b039060243582811161000e57610b9c90369060040161045c565b60c435610ba881610b4f565b60c03660e319011261000e5760405191610bc18361036a565b60e43583526101043560208401526101243560408401526101443560608401526101643560808401526101843560a08401526101a43594851161000e57610c0f610c2595369060040161045c565b9360a435916084359160643591604435916138e3565b005b503461000e57602036600319011261000e57600435610c4581610b4f565b6000546001600160a01b039190610c5f908316331461251a565b16610c6b811515613e5f565b6001600160601b0360a01b6003541617600355600080f35b90606060031983011261000e5760043561ffff8116810361000e5791602435906001600160401b03821161000e57610cbd9160040161047a565b909160443590565b503461000e57610d82610cd736610c83565b92610d06610d0185610603610cfa8561ffff166000526007602052604060002090565b86886130b5565b6132e5565b60408101805190949190610d24906001600160a01b03161515613341565b610d8f610530610530610d356103dc565b9760009a898c809b528a60208201528a6040820152610d52612730565b6060820152610d7d8c610603610d768c61ffff166000526007602052604060002090565b8d8c6130b5565b613469565b516001600160a01b031690565b81519093906001600160a01b031660606020840151930151853b15610e04578793610dd1926040519a8b998a98899763ab8236f360e01b895260048901613583565b03925af18015610df7575b610de4575080f35b80610df16108769261034a565b806113ee565b610dff612658565b610ddc565b8780fd5b503461000e57604036600319011261000e57600435610e2681610b4f565b602435610e3281610b4f565b6000546001600160a01b0390610e4b908216331461251a565b80600554161580610f15575b15610eb75782610e7d82610e74610e9a94610c2597161515612565565b841615156125b1565b60018060a01b03166001600160601b0360a01b6005541617600555565b60018060a01b03166001600160601b0360a01b6002541617600255565b60405162461bcd60e51b815260206004820152603060248201527f53746172676174653a2062726964676520616e6420666163746f727920616c7260448201526f1958591e481a5b9a5d1a585b1a5e995960821b6064820152608490fd5b50806002541615610e57565b8015150361000e57565b503461000e5760c036600319011261000e57602435610f4981610f21565b608435610f5581610f21565b60a43590610f6282610f21565b60018060a01b039060009382610f7d8694855416331461251a565b610f8860043561267a565b1690813b15610fdc578360a492604051968795869463e065608b60e01b8652151560048601526044356024860152606435604486015215156064850152151560848401525af18015610df757610de4575080f35b8380fd5b503461000e57604036600319011261000e57602435610ffe81610b4f565b6004546001600160a01b0316330361107a5761101e61053060043561267a565b803b1561000e5760405163011dbbf960e61b81526001600160a01b0383166004820152906000908290818381602481015b03925af1801561106d575b61106057005b80610df1610c259261034a565b611075612658565b61105a565b60405162461bcd60e51b815260206004820152601b60248201527f53746172676174653a206f6e6c79206d696e744665654f776e657200000000006044820152606490fd5b506110c936610c83565b9192906110fa6110f5846106036110ee8661ffff166000526006602052604060002090565b85896130b5565b6109e9565b93611107855115156130ce565b611135611130856106036111298761ffff166000526006602052604060002090565b86866130b5565b61317d565b60208501805160ff166002810361117d575061115e61117791602088610c2599510101906132a5565b99945097929491959060018060a01b0316963691610425565b90613755565b6003036111bb5761119b6111b591602088610c259951010190613207565b9a94955098929591969060018060a01b0316973691610425565b90613a0c565b60405162461bcd60e51b815260206004820152601f60248201527f53746172676174653a20696e76616c69642066756e6374696f6e2074797065006044820152606490fd5b60643590610a2782610b4f565b5060a036600319011261000e57611222610300565b6001600160401b039060243582811161000e5761124390369060040161047a565b90916064359160443561125584610b4f565b60843595861161000e576111306112f69161060361127a6113459936906004016106fe565b9761128f6001600160a01b0389161515612b57565b6112b86110f5846106036112b18b61ffff166000526006602052604060002090565b8a866130b5565b956112c5875115156130ce565b6112d8600160ff60208a0151161461311a565b6112f08861ffff166000526006602052604060002090565b916130b5565b60409283820151926113176105306060850151611311612c02565b5061267a565b9480805180809a8198630474ec6160e11b835286600484016020909392919361ffff60408201951681520152565b0360009a8b809a5af19485156113e1575b86956113b2575b50600554611373906001600160a01b0316610530565b93843b156113ae5761139a9151978896879586956396aae4af60e01b8752600487016131b2565b039134905af18015610df757610de4575080f35b8680fd5b816113d39296503d87116113da575b6113cb81836103bb565b810190612c7f565b933861135d565b503d6113c1565b6113e9612658565b611356565b600091031261000e57565b503461000e5760008060031936011261088957805481906001600160a01b0381169061142633831461251a565b6001600160a01b03191682557f8be0079c531659141344cd1fd0a4f28419497f9722a3daafe3b4186f6b6457e08280a380f35b503461000e5760c036600319011261000e5760243561147781610b4f565b60443590611484826106f3565b60643590611491826106f3565b6001600160401b039160843583811161000e576114b290369060040161045c565b9060a43593841161000e576107ff946114d26114db95369060040161045c565b93600435613d43565b6040516001600160a01b0390911681529081906020820190565b503461000e576000608036600319011261088957611511610311565b8161151a610322565b9160018060a01b0361153081845416331461251a565b61153b60043561267a565b1692833b156115835760649083604051958694859363a985565f60e01b855261ffff809216600486015260443560248601521660448401525af180156108795761086d575080f35b8280fd5b503461000e5761010036600319011261000e576115a2610300565b602435906001600160401b03821161000e576115c5610c2592369060040161045c565b60a4356115d181610b4f565b6115e660018060a01b036005541633146135d1565b60e4359260c43592608435916064359160443591613755565b5061010036600319011261000e57611615610300565b60243590604435916064359161162a83610b4f565b6084359060c4356001600160401b0380821161000e5761164f6004923690840161047a565b909160e43590811161000e5761166890369085016106fe565b91611678600260015414156125fd565b60026001556116916001600160a01b0389161515612b57565b61169c861515612dac565b6116a4612bb2565b506116ad612c02565b506116ba6105308861267a565b92604093845190637b669af760e11b8252602082806116e08c8b83019190602083019252565b0381845afa918215611922575b6000926118f2575b508551630db98cdb60e11b815261ffff8916818901908152602081018e9052336040820152606081019390935260a4356080840152600060a08401529160c09083908190830103816000855af19182156118e5575b6000926118b5575b50803b1561000e578551631ca6297760e21b815261ffff8916818901908152602081018e9052336040820152606081019a909a526117dc9987928e92909160009082908190608001038183865af180156118a8575b611895575b508960008a85519d8e9586948593630474ec6160e11b855284016020909392919361ffff60408201951681520152565b03925af1978815611888575b600098611869575b50600554611806906001600160a01b0316610530565b97883b1561000e5760009a61182e96519c8d9b8c9a8b9a6351156e7360e01b8c528b01612e08565b039134905af1801561185c575b611849575b610c2560018055565b80610df16118569261034a565b38611840565b611864612658565b61183b565b611881919850853d87116113da576113cb81836103bb565b96386117f0565b611890612658565b6117e8565b80610df16118a29261034a565b386117ac565b6118b0612658565b6117a7565b6118d791925060c03d81116118de575b6118cf81836103bb565b810190612c6b565b9038611752565b503d6118c5565b6118ed612658565b61174a565b61191491925060203d811161191b575b61190c81836103bb565b810190612649565b90386116f5565b503d611902565b61192a612658565b6116ed565b503461000e57606036600319011261000e576119b3611a1e60443561195381610b4f565b611962600260015414156125fd565b600260015561197561053060043561267a565b60405163feb56b1560e01b8152602094859392918481600481865afa908115611ab8575b600091611a9b575b506119ae81602435613f1b565b613ef2565b916119e68383604051637e062a3560e11b81528781600481855afa908115611a8e575b600091611a61575b503390612791565b6040516340c10f1960e01b81526001600160a01b03909116600482015260248101929092529092839190829060009082906044820190565b03925af18015611a54575b611a3657610c2560018055565b81611a4c92903d1061191b5761190c81836103bb565b503880611840565b611a5c612658565b611a29565b611a819150883d8a11611a87575b611a7981836103bb565b810190612665565b386119de565b503d611a6f565b611a96612658565b6119d6565b611ab29150853d871161191b5761190c81836103bb565b386119a1565b611ac0612658565b611999565b503461000e57600036600319011261000e576000546040516001600160a01b039091168152602090f35b5060e036600319011261000e57611b04610300565b606435604435602435611b1683610b4f565b60843560a435916001600160401b039283811161000e57611b3b90369060040161047a565b96909260c43594851161000e57602097611b5a879636906004016106fe565b90611b6a600260015414156125fd565b60026001556001600160a01b03611b848a82161515612b57565b611b8d8661267a565b611b98851515612e8d565b16958460408095611bbf858584519e8f968795632c3eac2f60e21b87523360048801612ee3565b039860009d838f9d9b8e9c8d855af1928315611cf9575b8a93611cd5575b50611c1990611bed841515612f17565b8251630474ec6160e11b815261ffff8a166004820152602481018d90529a8b9283919082906044820190565b03925af1978815611cc8575b8a98611ca9575b50600554611c42906001600160a01b0316610530565b97883b15611ca557611c6995519b8c9a8b998a99633cef94b960e01b8b5260048b01612f7b565b039134905af18015611c98575b611c85575b5061087660018055565b80610df1611c929261034a565b38611c7b565b611ca0612658565b611c76565b8a80fd5b611cc1919850853d87116113da576113cb81836103bb565b9638611c2c565b611cd0612658565b611c25565b611c19919350611cf29060203d811161191b5761190c81836103bb565b9290611bdd565b611d01612658565b611bd6565b503461000e57600060403660031901126108895780602435611d2781610f21565b81546001600160a01b0390611d3f908216331461251a565b611d4a60043561267a565b16803b156109215760248392604051948593849263ac2cc36b60e01b8452151560048401525af180156108795761086d575080f35b50608036600319011261000e57611d94610300565b6024359060643590604435611da883610b4f565b611db7600260015414156125fd565b6002600155611dd06001600160a01b0384161515612b57565b611ddc6105308561267a565b60408051630474ec6160e11b815261ffff8516600482015260248101849052959193869291838060448101036000998a80995af1928315611eb9575b8593611e99575b50600554611e35906001600160a01b0316610530565b92833b15611e9557604051632fa7502b60e21b815261ffff9092166004830152602482019290925260448101939093526001600160a01b0390941660648301528351608483015260209093015160a4820152918290818060c48101611c69565b8580fd5b611eb291935060403d81116113da576113cb81836103bb565b9138611e1f565b611ec1612658565b611e18565b5061012036600319011261000e57611edc610300565b611ee4611200565b6001600160401b039160c43583811161000e57611f059036906004016106fe565b60e43584811161000e57611f1d90369060040161047a565b916101043595861161000e57611f3a610c2596369060040161047a565b95909460a4359160843591604435906024359061286b565b503461000e57600060a036600319011261088957611f6e610300565b6040366063190112612010578160405191611f8883610385565b606435835260843560208401526005546001600160a01b0390611fae90821633146135d1565b611fb960443561267a565b16803b156115835761ffff9183608492612000604051978896879563b6addec760e01b87521660048601526024356024860152604485019060208091805184520151910152565b5af180156108795761086d575080f35b5080fd5b503461000e57600036600319011261000e576003546040516001600160a01b039091168152602090f35b503461000e57600036600319011261000e576004546040516001600160a01b039091168152602090f35b503461000e57600036600319011261000e576002546040516001600160a01b039091168152602090f35b503461000e57606036600319011261000e576107ff61ffff60206120b4610300565b60646024356000604435936120c885610b4f565b6120d7600260015414156125fd565b60026001556120e7831515612e8d565b6001600160a01b039687916120fc911661267a565b1660405196879586946304c35b0d60e11b865233600487015260248601521660448401525af190811561216a575b60009161214c575b5061213c60018055565b6040519081529081906020820190565b612164915060203d811161191b5761190c81836103bb565b38612132565b612172612658565b61212a565b503461000e57600060403660031901126108895760243561219781610b4f565b8160018060a01b036121ad81835416331461251a565b806121b960043561267a565b1692833b15611583576024908360405195869485936312d72b2f60e21b85521660048401525af180156108795761086d575080f35b503461000e5760006060366003190112610889578061220b610311565b81546001600160a01b0390612223908216331461251a565b61222e60043561267a565b1690813b15610921576040516345ec368560e11b815261ffff90911660048201526044803560248301529092918391829084908290810161090f565b503461000e57604036600319011261000e5760243561228881610b4f565b6003546001600160a01b031633036122dd576122a861053060043561267a565b803b1561000e57604051632f8c40a560e21b81526001600160a01b03831660048201529060009082908183816024810161104f565b60405162461bcd60e51b815260206004820152601f60248201527f53746172676174653a206f6e6c792070726f746f636f6c4665654f776e6572006044820152606490fd5b503461000e57602036600319011261000e5760043561234081610b4f565b6000546001600160a01b03919061235a908316331461251a565b16612366811515613e5f565b6001600160601b0360a01b6004541617600455600080f35b503461000e5761ffff61239036610925565b91929092166000526123bb602080936006825260406000208260405194838680955193849201610966565b8201908152030190209060005281526123d760406000206109e9565b906107ff604051928284938452830190610a8f565b503461000e57600036600319011261000e576005546040516001600160a01b039091168152602090f35b503461000e57602036600319011261000e5760043561243481610b4f565b6000546001600160a01b039061244d908216331461251a565b81161561245d57610c2590613eab565b60405162461bcd60e51b815260206004820152602660248201527f4f776e61626c653a206e6577206f776e657220697320746865207a65726f206160448201526564647265737360d01b6064820152608490fd5b503461000e576000604036600319011261088957806024356124d281610f21565b6001600160a01b036124e560043561267a565b16803b1561092157602483926040519485938492637fb6526560e01b8452151560048401525af180156108795761086d575080f35b1561252157565b606460405162461bcd60e51b815260206004820152602060248201527f4f776e61626c653a2063616c6c6572206973206e6f7420746865206f776e65726044820152fd5b1561256c57565b60405162461bcd60e51b815260206004820152601c60248201527f53746172676174653a206272696467652063616e7420626520307830000000006044820152606490fd5b156125b857565b60405162461bcd60e51b815260206004820152601d60248201527f53746172676174653a20666163746f72792063616e74206265203078300000006044820152606490fd5b1561260457565b60405162461bcd60e51b815260206004820152601f60248201527f5265656e7472616e637947756172643a207265656e7472616e742063616c6c006044820152606490fd5b9081602091031261000e575190565b506040513d6000823e3d90fd5b9081602091031261000e575161047781610b4f565b9060018060a01b03602081600254169360246040518096819363068bcd8d60e01b835260048301525afa928315612723575b600093612703575b508216156126be57565b60405162461bcd60e51b815260206004820152601d60248201527f53746172676174653a20506f6f6c20646f6573206e6f742065786973740000006044820152606490fd5b61271c91935060203d8111611a8757611a7981836103bb565b91386126b4565b61272b612658565b6126ac565b60405190602082018281106001600160401b03821117612754575b60405260008252565b61275c610333565b61274b565b3d1561278c573d90612772826103fb565b9161278060405193846103bb565b82523d6000602084013e565b606090565b9091600080949381946040519160208301946323b872dd60e01b865260018060a01b0380921660248501521660448301526064820152606481526127d4816103a0565b51925af16127e0612761565b81612833575b50156127ee57565b60405162461bcd60e51b815260206004820152601e60248201527f53746172676174653a205452414e534645525f46524f4d5f4641494c454400006044820152606490fd5b8051801592508215612848575b5050386127e6565b819250906020918101031261000e576020015161286481610f21565b3880612840565b94968299929891969a939a612885600260015414156125fd565b6002600155612895861515612b0b565b6128a96001600160a01b038d161515612b57565b6128b1612bb2565b506128ba612c02565b506128c76105308961267a565b6040805163feb56b1560e01b81529097602082600481865afa918215612afe575b600092612ad9575b50816128fb91613f1b565b9061290591613ef2565b8751630db98cdb60e11b815261ffff8a166004820152602481018d905233604482015260648101829052608481019b909b52600160a48c0152818b60c4815a60c094600091f19a8b15612acc575b60009b612aa6575b5087918991835190637e062a3560e11b8252602082600481865afa918215612a99575b600092612a78575b50823361299293612791565b8251630474ec6160e11b815261ffff929092166004830152602482019d909d529b8c9060449082905a90600091f19a8b15612a6b575b60009b612a4c575b506005546129e6906001600160a01b0316610530565b98893b1561000e5760009b612a1097519d8e9c8d9b8c9b6351156e7360e01b8d5260048d01612d26565b039134905af18015612a3f575b612a2c575b50610a2760018055565b80610df1612a399261034a565b38612a22565b612a47612658565b612a1d565b612a64919b50863d88116113da576113cb81836103bb565b99386129d0565b612a73612658565b6129c8565b612a9291925060203d602011611a8757611a7981836103bb565b9038612986565b612aa1612658565b61297e565b89919b5091612ac3899360c03d81116118de576118cf81836103bb565b9b91509161295b565b612ad4612658565b612953565b6128fb919250612af79060203d60201161191b5761190c81836103bb565b91906128f0565b612b06612658565b6128e8565b15612b1257565b60405162461bcd60e51b815260206004820152601760248201527f53746172676174653a2063616e6e6f74207377617020300000000000000000006044820152606490fd5b15612b5e57565b60405162461bcd60e51b815260206004820152602660248201527f53746172676174653a205f726566756e64416464726573732063616e6e6f742060448201526506265203078360d41b6064820152608490fd5b6040519060c082018281106001600160401b03821117612bf5575b6040528160a06000918281528260208201528260408201528260608201528260808201520152565b612bfd610333565b612bcd565b60405190612c0f82610385565b60006020838281520152565b91908260c091031261000e57604051612c338161036a565b60a080829480518452602081015160208501526040810151604085015260608101516060850152608081015160808501520151910152565b9060c08282031261000e5761047791612c1b565b9081604091031261000e57602060405191612c9983610385565b805183520151602082015290565b60a0809180518452602081015160208501526040810151604085015260608101516060850152608081015160808501520151910152565b90606060406104779380518452602081015160208501520151918160408201520190610a8f565b908060209392818452848401376000828201840152601f01601f1916010190565b999795906104779b9995612d8e95612d9d999560408e612d7c9761ffff612d72971682526020820152015260018060a01b031660608d015260808c019060208091805184520151910152565b60c08a0190612ca7565b6101e0806101808a0152880190612cde565b918683036101a0880152612d05565b926101c0818503910152612d05565b15612db357565b60405162461bcd60e51b815260206004820152602760248201527f53746172676174653a206e6f7420656e6f756768206c7020746f2072656465656044820152666d52656d6f746560c81b6064820152608490fd5b97959060209995612e6c95612e7b9995612e5a9561ffff612e5095168d528d8d015260408c015260018060a01b031660608b015260808a019060208091805184520151910152565b60c0880190612ca7565b6101e080610180880152860190612cde565b918483036101a0860152612d05565b906101c0818303910152600081520190565b15612e9457565b60405162461bcd60e51b815260206004820152602160248201527f53746172676174653a206e6f7420656e6f756768206c7020746f2072656465656044820152606d60f81b6064820152608490fd5b9160a09361ffff91610477989693600180881b03168552602085015216604083015260608201528160808201520191612d05565b15612f1e57565b60405162461bcd60e51b815260206004820152602f60248201527f53746172676174653a206e6f7420656e6f756768206c7020746f20726564656560448201526e1b481dda5d1a08185b5bdd5b9d14d1608a1b6064820152608490fd5b9793612fd49693612fbe9361ffff6104779c9a9894168b5260208b015260408a015260018060a01b03166060890152608088019060208091805184520151910152565b60c08601526101208060e0870152850191612d05565b91610100818403910152612cde565b919082604091031261000e576020825192015190565b909361306f9060ff989761306060409861304c61ffff9760018060a01b0360055416998c519e8f9c8d9b8c9b630a51236960e01b8d521660048c01521660248a015260a060448a015260a4890191612d05565b906003199485888403016064890152612d05565b91848303016084850152612cde565b03915afa9182156130a8575b600090819361308957509190565b90506130a491925060403d81116106ec576106dd81836103bb565b9091565b6130b0612658565b61307b565b6020919283604051948593843782019081520301902090565b156130d557565b60405162461bcd60e51b815260206004820152601960248201527f53746172676174653a206e6f20726574727920726576657274000000000000006044820152606490fd5b156111bb57565b81811061312c575050565b60008155600101613121565b9190601f811161314757505050565b610a27926000526020600020906020601f840160051c83019310613173575b601f0160051c0190613121565b9091508190613166565b60009061318a81546109af565b601f8111613196575055565b818352602083206131af91601f0160051c810190613121565b55565b939061047795936131f99361ffff6131e89316875260018060a01b03166020870152604086019060208091805184520151910152565b60c0608085015260c0840190612cde565b9160a0818403910152610a8f565b6101808183031261000e57805161321d816106f3565b92602082015192604083015192606081015192608082015161323e81610b4f565b9261324c8160a08501612c1b565b92610160810151906001600160401b03821161000e570181601f8201121561000e578051613279816103fb565b9261328760405194856103bb565b8184526020828401011161000e576104779160208085019101610966565b91908260c091031261000e5781516132bc816106f3565b9160208101519160408201519160608101516132d781610b4f565b9160a0608083015192015190565b90604051608081018181106001600160401b03821117613334575b60405260606107546003839560018060a01b03808254168652600182015460208701526002820154166040860152016109e9565b61333c610333565b613300565b1561334857565b60405162461bcd60e51b815260206004820152601f60248201527f53746172676174653a20636163686520616c726561647920636c6561726564006044820152606490fd5b91909182516001600160401b03811161345c575b6133b5816133af84546109af565b84613138565b602080601f83116001146133f15750819293946000926133e6575b50508160011b916000199060031b1c1916179055565b0151905038806133d0565b90601f1983169561340785600052602060002090565b926000905b8882106134445750508360019596971061342b575b505050811b019055565b015160001960f88460031b161c19169055388080613421565b8060018596829496860151815501950193019061340c565b613464610333565b6133a1565b815181546001600160a01b0319166001600160a01b0391821617825590606060036020926134c2848701519560019687840155604088015116600283019060018060a01b03166001600160601b0360a01b825416179055565b01930151908151916001600160401b038311613576575b6134ed836134e787546109af565b87613138565b81601f8411600114613526575092829391839260009461351b575b50501b916000199060031b1c1916179055565b015192503880613508565b919083601f19811661353d88600052602060002090565b946000905b8883831061355c575050501061342b57505050811b019055565b858701518855909601959485019487935090810190613542565b61357e610333565b6134d9565b9395929161047797959261ffff6135a89316865260c0602087015260c0860191612d05565b60408401959095526001600160a01b03166060830152608082015280830360a090910152610a8f565b156135d857565b60405162461bcd60e51b815260206004820152601e60248201527f4272696467653a2063616c6c6572206d757374206265204272696467652e00006044820152606490fd5b919260c0936104779795926001855260208501526040840152606083015260808201528160a08201520191612d05565b61366590602060405192828480945193849201610966565b810103902090565b93919261369d9361ffff60a097939a99989a1686526020860152604085015260c0606085015260c0840191612d05565b9460808201520152565b909260c092610477969460018452602084015260408301526000606083015260808201528160a08201520191612d05565b9392916137009061ffff60609360018852166020870152608060408701526080860190610a8f565b930152565b9392916137009061ffff60609360028852166020870152608060408701526080860190610a8f565b9392916137009061ffff60609360038852166020870152608060408701526080860190610a8f565b929395969091966137686105308861267a565b95863b1561000e57604051632cc36bab60e21b815261ffff86166004820152602481018790526001600160a01b038216604482015260648101839052608481018490527fc7379a02e530fbd0a46ea1ce6fd91987e96535798231a796bdc0e1a688a50873976138cb95613890929091600090829060a490829084905af190816138d0575b506106ad576040805160026020820152908101899052606081018b90526001600160a01b038416608082015260a0810185905260c08101869052613856906138378160e081016105d0565b6106128d6106036106a78c61ffff166000526006602052604060002090565b6040517fa5d2ba6de30cc2f2e91c5a29ba66b148c27826954217e2f67cb8983541da21cf90806138888e858c84613705565b0390a161364d565b97604051968796879260a094919796959261ffff60c086019916855260208501526040840152600180851b0316606083015260808201520152565b0390a3565b80610df16138dd9261034a565b386137ec565b90610a27989796959493929161390460018060a01b036005541633146135d1565b613a0c565b610a279360609296959361ffff610120840198168352602083015260018060a01b031660408201520190612ca7565b9294916135a89061ffff61047798969316855260c0602086015260c0850190610a8f565b96929391946139856139b59661ffff6104779b9994168a526101008060208c01528a0190610a8f565b60408901959095526001600160a01b03928316606089015260808801521660a086015284820360c0860152610a8f565b9160e0818403910152610a8f565b9390926104779695926139fa946003875260208701526040860152606085015260018060a01b0316608084015260a0830190612ca7565b61018090816101608201520190610a8f565b959096919792939481613a216105308861267a565b6020878a613a4488604051968794859463902b8ab760e01b865260048601613909565b03816000855af160009281613d22575b50613ad4575050936105d0613ac394613acf9794613a9e947fa5d2ba6de30cc2f2e91c5a29ba66b148c27826954217e2f67cb8983541da21cf9c98604051978896602088016139c3565b61061283610603613abd8861ffff166000526006602052604060002090565b89610989565b6040519384938461372d565b0390a1565b96509894509091508251613aed575b5050505050505050565b604051637e062a3560e11b8152906001600160a01b0383166020836004818a5afa928315613d15575b600093613cf4575b50803b1561000e57600091898388938b613b518f8b906040519a8b998a98899663ab8236f360e01b885260048801613938565b0393f19081613ce1575b50613cd557866004846020613c5397613c227f8186389e97ff190cd5e17304ed8188a4a98a6c8add46e6df94462ac7f7e8dd349c8b8d9a613b9a612761565b9b60405192637e062a3560e11b84528c8c89868d818c5afa958615613cc8575b600096613c92575b5091613c1c91613c036106039594610d7d9899613bef613be06103dc565b6001600160a01b03909c168c52565b8a8e01526001600160a01b031660408a0152565b606088015261ffff166000526007602052604060002090565b90610989565b604051637e062a3560e11b815293849182905afa918215613c85575b600092613c64575b506040519889988961395c565b0390a15b3880808080808080613ae3565b613c7e91925060203d602011611a8757611a7981836103bb565b9038613c46565b613c8d612658565b613c3e565b610d7d965091613c03610603959492613cbb613c1c958e3d602011611a8757611a7981836103bb565b9850929495505091613bc2565b613cd0612658565b613bba565b50505050505050613c57565b80610df1613cee9261034a565b38613b5b565b613d0e91935060203d602011611a8757611a7981836103bb565b9138613b1e565b613d1d612658565b613b16565b613d3c91935060203d60201161191b5761190c81836103bb565b9138613a54565b9391929460018060a01b03613d5d8160005416331461251a565b821615613ddb57602094613d9f600092613d8161053060025460018060a01b031690565b95604051998a9889978896637af935a160e01b885260048801613e20565b03925af1908115613dce575b600091613db6575090565b610477915060203d8111611a8757611a7981836103bb565b613dd6612658565b613dab565b60405162461bcd60e51b815260206004820152601e60248201527f53746172676174653a205f746f6b656e2063616e6e6f742062652030783000006044820152606490fd5b9081526001600160a01b03909116602082015260ff91821660408201529116606082015260c0608082018190526104779391926131f991840190610a8f565b15613e6657565b60405162461bcd60e51b815260206004820152601e60248201527f53746172676174653a205f6f776e65722063616e6e6f742062652030783000006044820152606490fd5b600080546001600160a01b039283166001600160a01b03198216811783559216907f8be0079c531659141344cd1fd0a4f28419497f9722a3daafe3b4186f6b6457e09080a3565b81810292918115918404141715613f0557565b634e487b7160e01b600052601160045260246000fd5b8115613f25570490565b634e487b7160e01b600052601260045260246000fdfea264697066735822122026b629d33e30730e6c5435c03e82721808d8df835740eda05780662964fa38ad64736f6c63430008110033",
    "linkReferences": {}
  },
  "methodIdentifiers": {
    "activateChainPath(uint256,uint16,uint256)": "c7d968e3",
    "addLiquidity(uint256,uint256,address)": "87b21efc",
    "bridge()": "e78cea92",
    "cachedSwapLookup(uint16,bytes,uint256)": "23fd4647",
    "callDelta(uint256,bool)": "fba6e280",
    "clearCachedSwap(uint16,bytes,uint256)": "403a9f7a",
    "createChainPath(uint256,uint16,uint256,uint256)": "16fb60f5",
    "createPool(uint256,address,uint8,uint8,string,string)": "7af935a1",
    "creditChainPath(uint16,uint256,uint256,(uint256,uint256))": "a18fa804",
    "factory()": "c45a0155",
    "instantRedeemLocal(uint16,uint256,address)": "c4de93a5",
    "mintFeeOwner()": "af640d82",
    "owner()": "8da5cb5b",
    "protocolFeeOwner()": "a96fbed4",
    "quoteLayerZeroFee(uint16,uint8,bytes,bytes,(uint256,uint256,bytes))": "0a512369",
    "redeemLocal(uint16,uint256,uint256,address,uint256,bytes,(uint256,uint256,bytes))": "8f2e1d18",
    "redeemLocalCallback(uint16,bytes,uint256,uint256,uint256,address,uint256,uint256)": "7f721298",
    "redeemLocalCheckOnRemote(uint16,bytes,uint256,uint256,uint256,uint256,bytes)": "0403bce5",
    "redeemRemote(uint16,uint256,uint256,address,uint256,uint256,bytes,(uint256,uint256,bytes))": "84d0dba3",
    "renounceOwnership()": "715018a6",
    "retryRevert(uint16,bytes,uint256)": "60a3b95c",
    "revertLookup(uint16,bytes,uint256)": "da133a06",
    "revertRedeemLocal(uint16,bytes,uint256,address,(uint256,uint256,bytes))": "6a7982da",
    "sendCredits(uint16,uint256,uint256,address)": "9ba3aa74",
    "setBridgeAndFactory(address,address)": "424c9119",
    "setDeltaParam(uint256,bool,uint256,uint256,bool,bool)": "43a30630",
    "setFeeLibrary(uint256,address)": "c6a27624",
    "setFees(uint256,uint256)": "0b78f9c0",
    "setMintFeeOwner(address)": "cefbdde2",
    "setProtocolFeeOwner(address)": "34aba410",
    "setSwapStop(uint256,bool)": "98e391a1",
    "setWeightForChainPath(uint256,uint16,uint256,uint16)": "7b84d287",
    "swap(uint16,uint256,uint256,address,uint256,uint256,(uint256,uint256,bytes),bytes,bytes)": "9fbf10fc",
    "swapRemote(uint16,bytes,uint256,uint256,uint256,uint256,address,(uint256,uint256,uint256,uint256,uint256,uint256),bytes)": "2f925555",
    "transferOwnership(address)": "f2fde38b",
    "withdrawMintFee(uint256,address)": "5500585c",
    "withdrawProtocolFee(uint256,address)": "c8adf12d"
  },
  "id": 148
}