{
  "abi": [
    {
      "inputs": [],
      "stateMutability": "nonpayable",
      "type": "constructor"
    },
    {
      "anonymous": false,
      "inputs": [
        {
          "indexed": false,
          "internalType": "uint16",
          "name": "chainId",
          "type": "uint16"
        },
        {
          "indexed": false,
          "internalType": "bytes",
          "name": "srcAddress",
          "type": "bytes"
        },
        {
          "indexed": false,
          "internalType": "uint256",
          "name": "nonce",
          "type": "uint256"
        },
        {
          "indexed": false,
          "internalType": "address",
          "name": "token",
          "type": "address"
        },
        {
          "indexed": false,
          "internalType": "uint256",
          "name": "amountLD",
          "type": "uint256"
        },
        {
          "indexed": false,
          "internalType": "address",
          "name": "to",
          "type": "address"
        },
        {
          "indexed": false,
          "internalType": "bytes",
          "name": "payload",
          "type": "bytes"
        },
        {
          "indexed": false,
          "internalType": "bytes",
          "name": "reason",
          "type": "bytes"
        }
      ],
      "name": "CachedSwapSaved",
      "type": "event"
    },
    {
      "anonymous": false,
      "inputs": [
        {
          "indexed": true,
          "internalType": "address",
          "name": "previousOwner",
          "type": "address"
        },
        {
          "indexed": true,
          "internalType": "address",
          "name": "newOwner",
          "type": "address"
        }
      ],
      "name": "OwnershipTransferred",
      "type": "event"
    },
    {
      "anonymous": false,
      "inputs": [
        {
          "indexed": false,
          "internalType": "uint16",
          "name": "srcChainId",
          "type": "uint16"
        },
        {
          "indexed": true,
          "internalType": "bytes",
          "name": "srcAddress",
          "type": "bytes"
        },
        {
          "indexed": true,
          "internalType": "uint256",
          "name": "nonce",
          "type": "uint256"
        },
        {
          "indexed": false,
          "internalType": "uint256",
          "name": "srcPoolId",
          "type": "uint256"
        },
        {
          "indexed": false,
          "internalType": "uint256",
          "name": "dstPoolId",
          "type": "uint256"
        },
        {
          "indexed": false,
          "internalType": "address",
          "name": "to",
          "type": "address"
        },
        {
          "indexed": false,
          "internalType": "uint256",
          "name": "amountSD",
          "type": "uint256"
        },
        {
          "indexed": false,
          "internalType": "uint256",
          "name": "mintAmountSD",
          "type": "uint256"
        }
      ],
      "name": "RedeemLocalCallback",
      "type": "event"
    },
    {
      "anonymous": false,
      "inputs": [
        {
          "indexed": false,
          "internalType": "uint8",
          "name": "bridgeFunctionType",
          "type": "uint8"
        },
        {
          "indexed": false,
          "internalType": "uint16",
          "name": "chainId",
          "type": "uint16"
        },
        {
          "indexed": false,
          "internalType": "bytes",
          "name": "srcAddress",
          "type": "bytes"
        },
        {
          "indexed": false,
          "internalType": "uint256",
          "name": "nonce",
          "type": "uint256"
        }
      ],
      "name": "Revert",
      "type": "event"
    },
    {
      "anonymous": false,
      "inputs": [
        {
          "indexed": false,
          "internalType": "uint16",
          "name": "srcChainId",
          "type": "uint16"
        },
        {
          "indexed": false,
          "internalType": "uint256",
          "name": "_srcPoolId",
          "type": "uint256"
        },
        {
          "indexed": false,
          "internalType": "uint256",
          "name": "_dstPoolId",
          "type": "uint256"
        },
        {
          "indexed": false,
          "internalType": "bytes",
          "name": "to",
          "type": "bytes"
        },
        {
          "indexed": false,
          "internalType": "uint256",
          "name": "redeemAmountSD",
          "type": "uint256"
        },
        {
          "indexed": false,
          "internalType": "uint256",
          "name": "mintAmountSD",
          "type": "uint256"
        },
        {
          "indexed": true,
          "internalType": "uint256",
          "name": "nonce",
          "type": "uint256"
        },
        {
          "indexed": true,
          "internalType": "bytes",
          "name": "srcAddress",
          "type": "bytes"
        }
      ],
      "name": "RevertRedeemLocal",
      "type": "event"
    },
    {
      "inputs": [
        {
          "internalType": "uint256",
          "name": "_poolId",
          "type": "uint256"
        },
        {
          "internalType": "uint16",
          "name": "_dstChainId",
          "type": "uint16"
        },
        {
          "internalType": "uint256",
          "name": "_dstPoolId",
          "type": "uint256"
        }
      ],
      "name": "activateChainPath",
      "outputs": [],
      "stateMutability": "nonpayable",
      "type": "function"
    },
    {
      "inputs": [
        {
          "internalType": "uint256",
          "name": "_poolId",
          "type": "uint256"
        },
        {
          "internalType": "uint256",
          "name": "_amountLD",
          "type": "uint256"
        },
        {
          "internalType": "address",
          "name": "_to",
          "type": "address"
        }
      ],
      "name": "addLiquidity",
      "outputs": [],
      "stateMutability": "nonpayable",
      "type": "function"
    },
    {
      "inputs": [],
      "name": "bridge",
      "outputs": [
        {
          "internalType": "contract Bridge",
          "name": "",
          "type": "address"
        }
      ],
      "stateMutability": "view",
      "type": "function"
    },
    {
      "inputs": [
        {
          "internalType": "uint16",
          "name": "",
          "type": "uint16"
        },
        {
          "internalType": "bytes",
          "name": "",
          "type": "bytes"
        },
        {
          "internalType": "uint256",
          "name": "",
          "type": "uint256"
        }
      ],
      "name": "cachedSwapLookup",
      "outputs": [
        {
          "internalType": "address",
          "name": "token",
          "type": "address"
        },
        {
          "internalType": "uint256",
          "name": "amountLD",
          "type": "uint256"
        },
        {
          "internalType": "address",
          "name": "to",
          "type": "address"
        },
        {
          "internalType": "bytes",
          "name": "payload",
          "type": "bytes"
        }
      ],
      "stateMutability": "view",
      "type": "function"
    },
    {
      "inputs": [
        {
          "internalType": "uint256",
          "name": "_poolId",
          "type": "uint256"
        },
        {
          "internalType": "bool",
          "name": "_fullMode",
          "type": "bool"
        }
      ],
      "name": "callDelta",
      "outputs": [],
      "stateMutability": "nonpayable",
      "type": "function"
    },
    {
      "inputs": [
        {
          "internalType": "uint16",
          "name": "_srcChainId",
          "type": "uint16"
        },
        {
          "internalType": "bytes",
          "name": "_srcAddress",
          "type": "bytes"
        },
        {
          "internalType": "uint256",
          "name": "_nonce",
          "type": "uint256"
        }
      ],
      "name": "clearCachedSwap",
      "outputs": [],
      "stateMutability": "nonpayable",
      "type": "function"
    },
    {
      "inputs": [
        {
          "internalType": "uint256",
          "name": "_poolId",
          "type": "uint256"
        },
        {
          "internalType": "uint16",
          "name": "_dstChainId",
          "type": "uint16"
        },
        {
          "internalType": "uint256",
          "name": "_dstPoolId",
          "type": "uint256"
        },
        {
          "internalType": "uint256",
          "name": "_weight",
          "type": "uint256"
        }
      ],
      "name": "createChainPath",
      "outputs": [],
      "stateMutability": "nonpayable",
      "type": "function"
    },
    {
      "inputs": [
        {
          "internalType": "uint256",
          "name": "_poolId",
          "type": "uint256"
        },
        {
          "internalType": "address",
          "name": "_token",
          "type": "address"
        },
        {
          "internalType": "uint8",
          "name": "_sharedDecimals",
          "type": "uint8"
        },
        {
          "internalType": "uint8",
          "name": "_localDecimals",
          "type": "uint8"
        },
        {
          "internalType": "string",
          "name": "_name",
          "type": "string"
        },
        {
          "internalType": "string",
          "name": "_symbol",
          "type": "string"
        }
      ],
      "name": "createPool",
      "outputs": [
        {
          "internalType": "address",
          "name": "",
          "type": "address"
        }
      ],
      "stateMutability": "nonpayable",
      "type": "function"
    },
    {
      "inputs": [
        {
          "internalType": "uint16",
          "name": "_dstChainId",
          "type": "uint16"
        },
        {
          "internalType": "uint256",
          "name": "_dstPoolId",
          "type": "uint256"
        },
        {
          "internalType": "uint256",
          "name": "_srcPoolId",
          "type": "uint256"
        },
        {
          "components": [
            {
              "internalType": "uint256",
              "name": "credits",
              "type": "uint256"
            },
            {
              "internalType": "uint256",
              "name": "idealBalance",
              "type": "uint256"
            }
          ],
          "internalType": "struct Pool.CreditObj",
          "name": "_c",
          "type": "tuple"
        }
      ],
      "name": "creditChainPath",
      "outputs": [],
      "stateMutability": "nonpayable",
      "type": "function"
    },
    {
      "inputs": [],
      "name": "factory",
      "outputs": [
        {
          "internalType": "contract Factory",
          "name": "",
          "type": "address"
        }
      ],
      "stateMutability": "view",
      "type": "function"
    },
    {
      "inputs": [
        {
          "internalType": "uint16",
          "name": "_srcPoolId",
          "type": "uint16"
        },
        {
          "internalType": "uint256",
          "name": "_amountLP",
          "type": "uint256"
        },
        {
          "internalType": "address",
          "name": "_to",
          "type": "address"
        }
      ],
      "name": "instantRedeemLocal",
      "outputs": [
        {
          "internalType": "uint256",
          "name": "amountSD",
          "type": "uint256"
        }
      ],
      "stateMutability": "nonpayable",
      "type": "function"
    },
    {
      "inputs": [],
      "name": "mintFeeOwner",
      "outputs": [
        {
          "internalType": "address",
          "name": "",
          "type": "address"
        }
      ],
      "stateMutability": "view",
      "type": "function"
    },
    {
      "inputs": [],
      "name": "owner",
      "outputs": [
        {
          "internalType": "address",
          "name": "",
          "type": "address"
        }
      ],
      "stateMutability": "view",
      "type": "function"
    },
    {
      "inputs": [],
      "name": "protocolFeeOwner",
      "outputs": [
        {
          "internalType": "address",
          "name": "",
          "type": "address"
        }
      ],
      "stateMutability": "view",
      "type": "function"
    },
    {
      "inputs": [
        {
          "internalType": "uint16",
          "name": "_dstChainId",
          "type": "uint16"
        },
        {
          "internalType": "uint8",
          "name": "_functionType",
          "type": "uint8"
        },
        {
          "internalType": "bytes",
          "name": "_toAddress",
          "type": "bytes"
        },
        {
          "internalType": "bytes",
          "name": "_transferAndCallPayload",
          "type": "bytes"
        },
        {
          "components": [
            {
              "internalType": "uint256",
              "name": "dstGasForCall",
              "type": "uint256"
            },
            {
              "internalType": "uint256",
              "name": "dstNativeAmount",
              "type": "uint256"
            },
            {
              "internalType": "bytes",
              "name": "dstNativeAddr",
              "type": "bytes"
            }
          ],
          "internalType": "struct IStargateRouter.lzTxObj",
          "name": "_lzTxParams",
          "type": "tuple"
        }
      ],
      "name": "quoteLayerZeroFee",
      "outputs": [
        {
          "internalType": "uint256",
          "name": "",
          "type": "uint256"
        },
        {
          "internalType": "uint256",
          "name": "",
          "type": "uint256"
        }
      ],
      "stateMutability": "view",
      "type": "function"
    },
    {
      "inputs": [
        {
          "internalType": "uint16",
          "name": "_dstChainId",
          "type": "uint16"
        },
        {
          "internalType": "uint256",
          "name": "_srcPoolId",
          "type": "uint256"
        },
        {
          "internalType": "uint256",
          "name": "_dstPoolId",
          "type": "uint256"
        },
        {
          "internalType": "address payable",
          "name": "_refundAddress",
          "type": "address"
        },
        {
          "internalType": "uint256",
          "name": "_amountLP",
          "type": "uint256"
        },
        {
          "internalType": "bytes",
          "name": "_to",
          "type": "bytes"
        },
        {
          "components": [
            {
              "internalType": "uint256",
              "name": "dstGasForCall",
              "type": "uint256"
            },
            {
              "internalType": "uint256",
              "name": "dstNativeAmount",
              "type": "uint256"
            },
            {
              "internalType": "bytes",
              "name": "dstNativeAddr",
              "type": "bytes"
            }
          ],
          "internalType": "struct IStargateRouter.lzTxObj",
          "name": "_lzTxParams",
          "type": "tuple"
        }
      ],
      "name": "redeemLocal",
      "outputs": [],
      "stateMutability": "payable",
      "type": "function"
    },
    {
      "inputs": [
        {
          "internalType": "uint16",
          "name": "_srcChainId",
          "type": "uint16"
        },
        {
          "internalType": "bytes",
          "name": "_srcAddress",
          "type": "bytes"
        },
        {
          "internalType": "uint256",
          "name": "_nonce",
          "type": "uint256"
        },
        {
          "internalType": "uint256",
          "name": "_srcPoolId",
          "type": "uint256"
        },
        {
          "internalType": "uint256",
          "name": "_dstPoolId",
          "type": "uint256"
        },
        {
          "internalType": "address",
          "name": "_to",
          "type": "address"
        },
        {
          "internalType": "uint256",
          "name": "_amountSD",
          "type": "uint256"
        },
        {
          "internalType": "uint256",
          "name": "_mintAmountSD",
          "type": "uint256"
        }
      ],
      "name": "redeemLocalCallback",
      "outputs": [],
      "stateMutability": "nonpayable",
      "type": "function"
    },
    {
      "inputs": [
        {
          "internalType": "uint16",
          "name": "_srcChainId",
          "type": "uint16"
        },
        {
          "internalType": "bytes",
          "name": "_srcAddress",
          "type": "bytes"
        },
        {
          "internalType": "uint256",
          "name": "_nonce",
          "type": "uint256"
        },
        {
          "internalType": "uint256",
          "name": "_srcPoolId",
          "type": "uint256"
        },
        {
          "internalType": "uint256",
          "name": "_dstPoolId",
          "type": "uint256"
        },
        {
          "internalType": "uint256",
          "name": "_amountSD",
          "type": "uint256"
        },
        {
          "internalType": "bytes",
          "name": "_to",
          "type": "bytes"
        }
      ],
      "name": "redeemLocalCheckOnRemote",
      "outputs": [],
      "stateMutability": "nonpayable",
      "type": "function"
    },
    {
      "inputs": [
        {
          "internalType": "uint16",
          "name": "_dstChainId",
          "type": "uint16"
        },
        {
          "internalType": "uint256",
          "name": "_srcPoolId",
          "type": "uint256"
        },
        {
          "internalType": "uint256",
          "name": "_dstPoolId",
          "type": "uint256"
        },
        {
          "internalType": "address payable",
          "name": "_refundAddress",
          "type": "address"
        },
        {
          "internalType": "uint256",
          "name": "_amountLP",
          "type": "uint256"
        },
        {
          "internalType": "uint256",
          "name": "_minAmountLD",
          "type": "uint256"
        },
        {
          "internalType": "bytes",
          "name": "_to",
          "type": "bytes"
        },
        {
          "components": [
            {
              "internalType": "uint256",
              "name": "dstGasForCall",
              "type": "uint256"
            },
            {
              "internalType": "uint256",
              "name": "dstNativeAmount",
              "type": "uint256"
            },
            {
              "internalType": "bytes",
              "name": "dstNativeAddr",
              "type": "bytes"
            }
          ],
          "internalType": "struct IStargateRouter.lzTxObj",
          "name": "_lzTxParams",
          "type": "tuple"
        }
      ],
      "name": "redeemRemote",
      "outputs": [],
      "stateMutability": "payable",
      "type": "function"
    },
    {
      "inputs": [],
      "name": "renounceOwnership",
      "outputs": [],
      "stateMutability": "nonpayable",
      "type": "function"
    },
    {
      "inputs": [
        {
          "internalType": "uint16",
          "name": "_srcChainId",
          "type": "uint16"
        },
        {
          "internalType": "bytes",
          "name": "_srcAddress",
          "type": "bytes"
        },
        {
          "internalType": "uint256",
          "name": "_nonce",
          "type": "uint256"
        }
      ],
      "name": "retryRevert",
      "outputs": [],
      "stateMutability": "payable",
      "type": "function"
    },
    {
      "inputs": [
        {
          "internalType": "uint16",
          "name": "",
          "type": "uint16"
        },
        {
          "internalType": "bytes",
          "name": "",
          "type": "bytes"
        },
        {
          "internalType": "uint256",
          "name": "",
          "type": "uint256"
        }
      ],
      "name": "revertLookup",
      "outputs": [
        {
          "internalType": "bytes",
          "name": "",
          "type": "bytes"
        }
      ],
      "stateMutability": "view",
      "type": "function"
    },
    {
      "inputs": [
        {
          "internalType": "uint16",
          "name": "_dstChainId",
          "type": "uint16"
        },
        {
          "internalType": "bytes",
          "name": "_srcAddress",
          "type": "bytes"
        },
        {
          "internalType": "uint256",
          "name": "_nonce",
          "type": "uint256"
        },
        {
          "internalType": "address payable",
          "name": "_refundAddress",
          "type": "address"
        },
        {
          "components": [
            {
              "internalType": "uint256",
              "name": "dstGasForCall",
              "type": "uint256"
            },
            {
              "internalType": "uint256",
              "name": "dstNativeAmount",
              "type": "uint256"
            },
            {
              "internalType": "bytes",
              "name": "dstNativeAddr",
              "type": "bytes"
            }
          ],
          "internalType": "struct IStargateRouter.lzTxObj",
          "name": "_lzTxParams",
          "type": "tuple"
        }
      ],
      "name": "revertRedeemLocal",
      "outputs": [],
      "stateMutability": "payable",
      "type": "function"
    },
    {
      "inputs": [
        {
          "internalType": "uint16",
          "name": "_dstChainId",
          "type": "uint16"
        },
        {
          "internalType": "uint256",
          "name": "_srcPoolId",
          "type": "uint256"
        },
        {
          "internalType": "uint256",
          "name": "_dstPoolId",
          "type": "uint256"
        },
        {
          "internalType": "address payable",
          "name": "_refundAddress",
          "type": "address"
        }
      ],
      "name": "sendCredits",
      "outputs": [],
      "stateMutability": "payable",
      "type": "function"
    },
    {
      "inputs": [
        {
          "internalType": "contract Bridge",
          "name": "_bridge",
          "type": "address"
        },
        {
          "internalType": "contract Factory",
          "name": "_factory",
          "type": "address"
        }
      ],
      "name": "setBridgeAndFactory",
      "outputs": [],
      "stateMutability": "nonpayable",
      "type": "function"
    },
    {
      "inputs": [
        {
          "internalType": "uint256",
          "name": "_poolId",
          "type": "uint256"
        },
        {
          "internalType": "bool",
          "name": "_batched",
          "type": "bool"
        },
        {
          "internalType": "uint256",
          "name": "_swapDeltaBP",
          "type": "uint256"
        },
        {
          "internalType": "uint256",
          "name": "_lpDeltaBP",
          "type": "uint256"
        },
        {
          "internalType": "bool",
          "name": "_defaultSwapMode",
          "type": "bool"
        },
        {
          "internalType": "bool",
          "name": "_defaultLPMode",
          "type": "bool"
        }
      ],
      "name": "setDeltaParam",
      "outputs": [],
      "stateMutability": "nonpayable",
      "type": "function"
    },
    {
      "inputs": [
        {
          "internalType": "uint256",
          "name": "_poolId",
          "type": "uint256"
        },
        {
          "internalType": "address",
          "name": "_feeLibraryAddr",
          "type": "address"
        }
      ],
      "name": "setFeeLibrary",
      "outputs": [],
      "stateMutability": "nonpayable",
      "type": "function"
    },
    {
      "inputs": [
        {
          "internalType": "uint256",
          "name": "_poolId",
          "type": "uint256"
        },
        {
          "internalType": "uint256",
          "name": "_mintFeeBP",
          "type": "uint256"
        }
      ],
      "name": "setFees",
      "outputs": [],
      "stateMutability": "nonpayable",
      "type": "function"
    },
    {
      "inputs": [
        {
          "internalType": "address",
          "name": "_owner",
          "type": "address"
        }
      ],
      "name": "setMintFeeOwner",
      "outputs": [],
      "stateMutability": "nonpayable",
      "type": "function"
    },
    {
      "inputs": [
        {
          "internalType": "address",
          "name": "_owner",
          "type": "address"
        }
      ],
      "name": "setProtocolFeeOwner",
      "outputs": [],
      "stateMutability": "nonpayable",
      "type": "function"
    },
    {
      "inputs": [
        {
          "internalType": "uint256",
          "name": "_poolId",
          "type": "uint256"
        },
        {
          "internalType": "bool",
          "name": "_swapStop",
          "type": "bool"
        }
      ],
      "name": "setSwapStop",
      "outputs": [],
      "stateMutability": "nonpayable",
      "type": "function"
    },
    {
      "inputs": [
        {
          "internalType": "uint256",
          "name": "_poolId",
          "type": "uint256"
        },
        {
          "internalType": "uint16",
          "name": "_dstChainId",
          "type": "uint16"
        },
        {
          "internalType": "uint256",
          "name": "_dstPoolId",
          "type": "uint256"
        },
        {
          "internalType": "uint16",
          "name": "_weight",
          "type": "uint16"
        }
      ],
      "name": "setWeightForChainPath",
      "outputs": [],
      "stateMutability": "nonpayable",
      "type": "function"
    },
    {
      "inputs": [
        {
          "internalType": "uint16",
          "name": "_dstChainId",
          "type": "uint16"
        },
        {
          "internalType": "uint256",
          "name": "_srcPoolId",
          "type": "uint256"
        },
        {
          "internalType": "uint256",
          "name": "_dstPoolId",
          "type": "uint256"
        },
        {
          "internalType": "address payable",
          "name": "_refundAddress",
          "type": "address"
        },
        {
          "internalType": "uint256",
          "name": "_amountLD",
          "type": "uint256"
        },
        {
          "internalType": "uint256",
          "name": "_minAmountLD",
          "type": "uint256"
        },
        {
          "components": [
            {
              "internalType": "uint256",
              "name": "dstGasForCall",
              "type": "uint256"
            },
            {
              "internalType": "uint256",
              "name": "dstNativeAmount",
              "type": "uint256"
            },
            {
              "internalType": "bytes",
              "name": "dstNativeAddr",
              "type": "bytes"
            }
          ],
          "internalType": "struct IStargateRouter.lzTxObj",
          "name": "_lzTxParams",
          "type": "tuple"
        },
        {
          "internalType": "bytes",
          "name": "_to",
          "type": "bytes"
        },
        {
          "internalType": "bytes",
          "name": "_payload",
          "type": "bytes"
        }
      ],
      "name": "swap",
      "outputs": [],
      "stateMutability": "payable",
      "type": "function"
    },
    {
      "inputs": [
        {
          "internalType": "uint16",
          "name": "_srcChainId",
          "type": "uint16"
        },
        {
          "internalType": "bytes",
          "name": "_srcAddress",
          "type": "bytes"
        },
        {
          "internalType": "uint256",
          "name": "_nonce",
          "type": "uint256"
        },
        {
          "internalType": "uint256",
          "name": "_srcPoolId",
          "type": "uint256"
        },
        {
          "internalType": "uint256",
          "name": "_dstPoolId",
          "type": "uint256"
        },
        {
          "internalType": "uint256",
          "name": "_dstGasForCall",
          "type": "uint256"
        },
        {
          "internalType": "address",
          "name": "_to",
          "type": "address"
        },
        {
          "components": [
            {
              "internalType": "uint256",
              "name": "amount",
              "type": "uint256"
            },
            {
              "internalType": "uint256",
              "name": "eqFee",
              "type": "uint256"
            },
            {
              "internalType": "uint256",
              "name": "eqReward",
              "type": "uint256"
            },
            {
              "internalType": "uint256",
              "name": "lpFee",
              "type": "uint256"
            },
            {
              "internalType": "uint256",
              "name": "protocolFee",
              "type": "uint256"
            },
            {
              "internalType": "uint256",
              "name": "lkbRemove",
              "type": "uint256"
            }
          ],
          "internalType": "struct Pool.SwapObj",
          "name": "_s",
          "type": "tuple"
        },
        {
          "internalType": "bytes",
          "name": "_payload",
          "type": "bytes"
        }
      ],
      "name": "swapRemote",
      "outputs": [],
      "stateMutability": "nonpayable",
      "type": "function"
    },
    {
      "inputs": [
        {
          "internalType": "address",
          "name": "newOwner",
          "type": "address"
        }
      ],
      "name": "transferOwnership",
      "outputs": [],
      "stateMutability": "nonpayable",
      "type": "function"
    },
    {
      "inputs": [
        {
          "internalType": "uint256",
          "name": "_poolId",
          "type": "uint256"
        },
        {
          "internalType": "address",
          "name": "_to",
          "type": "address"
        }
      ],
      "name": "withdrawMintFee",
      "outputs": [],
      "stateMutability": "nonpayable",
      "type": "function"
    },
    {
      "inputs": [
        {
          "internalType": "uint256",
          "name": "_poolId",
          "type": "uint256"
        },
        {
          "internalType": "address",
          "name": "_to",
          "type": "address"
        }
      ],
      "name": "withdrawProtocolFee",
      "outputs": [],
      "stateMutability": "nonpayable",
      "type": "function"
    }
  ],
  "bytecode": {
    "object": "0x60806040523480156200001157600080fd5b506200001d3362000027565b6001805562000077565b600080546001600160a01b038381166001600160a01b0319831681178455604051919092169283917f8be0079c531659141344cd1fd0a4f28419497f9722a3daafe3b4186f6b6457e09190a35050565b614a2e80620000876000396000f3fe60806040526004361061021a5760003560e01c806387b21efc11610123578063c45a0155116100ab578063cefbdde21161006f578063cefbdde214610616578063da133a0614610636578063e78cea9214610663578063f2fde38b14610683578063fba6e280146106a357600080fd5b8063c45a015514610568578063c4de93a514610588578063c6a27624146105b6578063c7d968e3146105d6578063c8adf12d146105f657600080fd5b80639ba3aa74116100f25780639ba3aa74146104e25780639fbf10fc146104f5578063a18fa80414610508578063a96fbed414610528578063af640d821461054857600080fd5b806387b21efc146104715780638da5cb5b146104915780638f2e1d18146104af57806398e391a1146104c257600080fd5b806343a30630116101a6578063715018a611610175578063715018a6146103d15780637af935a1146103e65780637b84d2871461041e5780637f7212981461043e57806384d0dba31461045e57600080fd5b806343a306301461036b5780635500585c1461038b57806360a3b95c146103ab5780636a7982da146103be57600080fd5b806323fd4647116101ed57806323fd4647146102bb5780632f925555146102eb57806334aba4101461030b578063403a9f7a1461032b578063424c91191461034b57600080fd5b80630403bce51461021f5780630a512369146102415780630b78f9c01461027b57806316fb60f51461029b575b600080fd5b34801561022b57600080fd5b5061023f61023a366004613358565b6106c3565b005b34801561024d57600080fd5b5061026161025c36600461347f565b61090f565b604080519283526020830191909152015b60405180910390f35b34801561028757600080fd5b5061023f610296366004613535565b6109a0565b3480156102a757600080fd5b5061023f6102b6366004613557565b610a16565b3480156102c757600080fd5b506102db6102d6366004613592565b610a94565b6040516102729493929190613638565b3480156102f757600080fd5b5061023f610306366004613680565b610b75565b34801561031757600080fd5b5061023f61032636600461378f565b610bb0565b34801561033757600080fd5b5061023f6103463660046137ac565b610c30565b34801561035757600080fd5b5061023f610366366004613805565b610e98565b34801561037757600080fd5b5061023f61038636600461384c565b611001565b34801561039757600080fd5b5061023f6103a63660046138b3565b611099565b61023f6103b93660046137ac565b611130565b61023f6103cc3660046138e3565b611405565b3480156103dd57600080fd5b5061023f611710565b3480156103f257600080fd5b50610406610401366004613979565b611724565b6040516001600160a01b039091168152602001610272565b34801561042a57600080fd5b5061023f610439366004613a0f565b61180e565b34801561044a57600080fd5b5061023f610459366004613a55565b611863565b61023f61046c366004613ae5565b6118a7565b34801561047d57600080fd5b5061023f61048c366004613b87565b611bfe565b34801561049d57600080fd5b506000546001600160a01b0316610406565b61023f6104bd366004613bc0565b611d80565b3480156104ce57600080fd5b5061023f6104dd366004613c68565b611fca565b61023f6104f0366004613c8d565b61200e565b61023f610503366004613cd5565b61213f565b34801561051457600080fd5b5061023f610523366004613db9565b612481565b34801561053457600080fd5b50600354610406906001600160a01b031681565b34801561055457600080fd5b50600454610406906001600160a01b031681565b34801561057457600080fd5b50600254610406906001600160a01b031681565b34801561059457600080fd5b506105a86105a3366004613e20565b6124e9565b604051908152602001610272565b3480156105c257600080fd5b5061023f6105d13660046138b3565b6125b2565b3480156105e257600080fd5b5061023f6105f1366004613e55565b6125f7565b34801561060257600080fd5b5061023f6106113660046138b3565b61266d565b34801561062257600080fd5b5061023f61063136600461378f565b612704565b34801561064257600080fd5b50610656610651366004613592565b612784565b6040516102729190613e8a565b34801561066f57600080fd5b50600554610406906001600160a01b031681565b34801561068f57600080fd5b5061023f61069e36600461378f565b612840565b3480156106af57600080fd5b5061023f6106be366004613c68565b6128b9565b6005546001600160a01b031633146106f65760405162461bcd60e51b81526004016106ed90613e9d565b60405180910390fd5b6000610701856128f5565b604051637544f15560e11b815261ffff8b16600482015260248101889052604481018690529091506001600160a01b0382169063ea89e2aa9060640160408051808303816000875af1925050508015610777575060408051601f3d908101601f1916820190925261077491810190613ed4565b60015b6108335760018686600087878760405160200161079a9796959493929190613f21565b60408051601f1981840301815282825261ffff8c16600090815260066020529190912090916107ca908b90613f66565b908152604080516020928190038301902060008b815292529020906107ef9082614002565b507fa5d2ba6de30cc2f2e91c5a29ba66b148c27826954217e2f67cb8983541da21cf60018a8a8a60405161082694939291906140c1565b60405180910390a1610904565b600188888484898960405160200161085197969594939291906140f8565b60408051601f1981840301815282825261ffff8e1660009081526006602052919091209091610881908d90613f66565b908152604080516020928190038301902060008d815292529020906108a69082614002565b50896040516108b59190613f66565b6040518091039020897f6ace246fa15cf1d5decabf654b1e8581a4422e0fcf4c1ed4bf83f41687caec198d8b8b8a8a89896040516108f9979695949392919061412d565b60405180910390a350505b505050505050505050565b600554604051630a51236960e01b815260009182916001600160a01b0390911690630a51236990610950908c908c908c908c908c908c908c9060040161419e565b6040805180830381865afa15801561096c573d6000803e3d6000fd5b505050506040513d601f19601f820116820180604052508101906109909190613ed4565b9150915097509795505050505050565b6109a86129c0565b60006109b3836128f5565b6040516369fe0e2d60e01b8152600481018490529091506001600160a01b038216906369fe0e2d906024015b600060405180830381600087803b1580156109f957600080fd5b505af1158015610a0d573d6000803e3d6000fd5b50505050505050565b610a1e6129c0565b6000610a29856128f5565b6040516320d6bc7560e01b815261ffff8616600482015260248101859052604481018490529091506001600160a01b038216906320d6bc75906064015b600060405180830381600087803b158015610a8057600080fd5b505af1158015610904573d6000803e3d6000fd5b6007602090815260009384526040808520845180860184018051928152908401958401959095209452929052825290208054600182015460028301546003840180546001600160a01b039485169593949092169291610af290613f82565b80601f0160208091040260200160405190810160405280929190818152602001828054610b1e90613f82565b8015610b6b5780601f10610b4057610100808354040283529160200191610b6b565b820191906000526020600020905b815481529060010190602001808311610b4e57829003601f168201915b5050505050905084565b6005546001600160a01b03163314610b9f5760405162461bcd60e51b81526004016106ed90613e9d565b610904898989898989898989612a1a565b610bb86129c0565b6001600160a01b038116610c0e5760405162461bcd60e51b815260206004820152601e60248201527f53746172676174653a205f6f776e65722063616e6e6f7420626520307830000060448201526064016106ed565b600380546001600160a01b0319166001600160a01b0392909216919091179055565b61ffff84166000908152600760205260408082209051610c5390869086906141fa565b908152604080519182900360209081018320600086815290825282902060808401835280546001600160a01b039081168552600182015492850192909252600281015490911691830191909152600381018054606084019190610cb590613f82565b80601f0160208091040260200160405190810160405280929190818152602001828054610ce190613f82565b8015610d2e5780601f10610d0357610100808354040283529160200191610d2e565b820191906000526020600020905b815481529060010190602001808311610d1157829003601f168201915b5050509190925250505060408101519091506001600160a01b0316610d955760405162461bcd60e51b815260206004820152601f60248201527f53746172676174653a20636163686520616c726561647920636c65617265640060448201526064016106ed565b604080516080810182526000808252602080830182905282840182905283518082018552828152606084015261ffff89168252600790528290209151909190610de190879087906141fa565b90815260408051602092819003830190206000868152908352819020835181546001600160a01b03199081166001600160a01b039283161783559385015160018301559184015160028201805490941692169190911790915560608201516003820190610e4e9082614002565b505050604080820151825160208401516060850151935163ab8236f360e01b81526001600160a01b039093169363ab8236f393610a66938b938b938b938b9392919060040161420a565b610ea06129c0565b6005546001600160a01b0316158015610ec257506002546001600160a01b0316155b610f275760405162461bcd60e51b815260206004820152603060248201527f53746172676174653a2062726964676520616e6420666163746f727920616c7260448201526f1958591e481a5b9a5d1a585b1a5e995960821b60648201526084016106ed565b6001600160a01b038216610f7d5760405162461bcd60e51b815260206004820152601c60248201527f53746172676174653a206272696467652063616e74206265203078300000000060448201526064016106ed565b6001600160a01b038116610fd35760405162461bcd60e51b815260206004820152601d60248201527f53746172676174653a20666163746f72792063616e742062652030783000000060448201526064016106ed565b600580546001600160a01b039384166001600160a01b03199182161790915560028054929093169116179055565b6110096129c0565b6000611014876128f5565b60405163e065608b60e01b815287151560048201526024810187905260448101869052841515606482015283151560848201529091506001600160a01b0382169063e065608b9060a401600060405180830381600087803b15801561107857600080fd5b505af115801561108c573d6000803e3d6000fd5b5050505050505050505050565b6004546001600160a01b031633146110f35760405162461bcd60e51b815260206004820152601b60248201527f53746172676174653a206f6e6c79206d696e744665654f776e6572000000000060448201526064016106ed565b60006110fe836128f5565b60405163011dbbf960e61b81526001600160a01b0384811660048301529192509082169063476efe40906024016109df565b61ffff8416600090815260066020526040808220905161115390869086906141fa565b90815260200160405180910390206000838152602001908152602001600020805461117d90613f82565b80601f01602080910402602001604051908101604052809291908181526020018280546111a990613f82565b80156111f65780601f106111cb576101008083540402835291602001916111f6565b820191906000526020600020905b8154815290600101906020018083116111d957829003601f168201915b50505050509050600081511161124a5760405162461bcd60e51b815260206004820152601960248201527814dd185c99d85d194e881b9bc81c995d1c9e481c995d995c9d603a1b60448201526064016106ed565b6040805160208082018352600080835261ffff891681526006909152829020915190919061127b90879087906141fa565b9081526040805160209281900383019020600086815292529020906112a09082614002565b50602081015160011960ff82160161132b576000806000806000868060200190518101906112ce9190614257565b95509550955095509550506113218b8b8b8080601f0160208091040260200160405190810160405280939291908181526020018383808284376000920191909152508d92508a9150899050888888612e35565b50505050506113fd565b60021960ff8216016113b55760008060008060008087806020019051810190611354919061430f565b965096509650965096509650506113aa8c8c8c8080601f0160208091040260200160405190810160405280939291908181526020018383808284376000920191909152508e92508b91508a905089898989612a1a565b5050505050506113fd565b60405162461bcd60e51b815260206004820152601f60248201527f53746172676174653a20696e76616c69642066756e6374696f6e20747970650060448201526064016106ed565b505050505050565b6001600160a01b03821661142b5760405162461bcd60e51b81526004016106ed906143df565b61ffff8616600090815260066020526040808220905161144e90889088906141fa565b90815260200160405180910390206000858152602001908152602001600020805461147890613f82565b80601f01602080910402602001604051908101604052809291908181526020018280546114a490613f82565b80156114f15780601f106114c6576101008083540402835291602001916114f1565b820191906000526020600020905b8154815290600101906020018083116114d457829003601f168201915b5050505050905060008151116115455760405162461bcd60e51b815260206004820152601960248201527814dd185c99d85d194e881b9bc81c995d1c9e481c995d995c9d603a1b60448201526064016106ed565b602081015160ff811660011461159d5760405162461bcd60e51b815260206004820152601f60248201527f53746172676174653a20696e76616c69642066756e6374696f6e20747970650060448201526064016106ed565b506040805160208082018352600080835261ffff8b168152600690915282902091519091906115cf90899089906141fa565b9081526040805160209281900383019020600088815292529020906115f49082614002565b5060408181015160608301518251808401909352600080845260208401529091600061161f836128f5565b604051630474ec6160e11b815261ffff8d166004820152602481018690529091506001600160a01b038216906308e9d8c29060440160408051808303816000875af1158015611672573d6000803e3d6000fd5b505050506040513d601f19601f820116820180604052508101906116969190614425565b6005546040516396aae4af60e01b81529193506001600160a01b031691506396aae4af9034906116d2908e908b9087908c908c90600401614457565b6000604051808303818588803b1580156116eb57600080fd5b505af11580156116ff573d6000803e3d6000fd5b505050505050505050505050505050565b6117186129c0565b611722600061300b565b565b600061172e6129c0565b6001600160a01b0386166117845760405162461bcd60e51b815260206004820152601e60248201527f53746172676174653a205f746f6b656e2063616e6e6f7420626520307830000060448201526064016106ed565b600254604051637af935a160e01b81526001600160a01b0390911690637af935a1906117be908a908a908a908a908a908a906004016144b8565b6020604051808303816000875af11580156117dd573d6000803e3d6000fd5b505050506040513d601f19601f820116820180604052508101906118019190614505565b90505b9695505050505050565b6118166129c0565b6000611821856128f5565b60405163a985565f60e01b815261ffff808716600483015260248201869052841660448201529091506001600160a01b0382169063a985565f90606401610a66565b6005546001600160a01b0316331461188d5760405162461bcd60e51b81526004016106ed90613e9d565b61189d8888888888888888612e35565b5050505050505050565b6118af61305b565b6001600160a01b0386166118d55760405162461bcd60e51b81526004016106ed906143df565b600085116119355760405162461bcd60e51b815260206004820152602760248201527f53746172676174653a206e6f7420656e6f756768206c7020746f2072656465656044820152666d52656d6f746560c81b60648201526084016106ed565b61196e6040518060c001604052806000815260200160008152602001600081526020016000815260200160008152602001600081525090565b6040805180820190915260008082526020820152600061198d8b6128f5565b604051637b669af760e11b8152600481018a90529091506000906001600160a01b0383169063f6cd35ee90602401602060405180830381865afa1580156119d8573d6000803e3d6000fd5b505050506040513d601f19601f820116820180604052508101906119fc9190614522565b9050816001600160a01b0316631b7319b68e8d33858d60006040518763ffffffff1660e01b8152600401611a359695949392919061453b565b60c0604051808303816000875af1158015611a54573d6000803e3d6000fd5b505050506040513d601f19601f82011682018060405250810190611a789190614574565b604051631ca6297760e21b815261ffff8f166004820152602481018d9052336044820152606481018b90529094506001600160a01b03831690637298a5dc90608401600060405180830381600087803b158015611ad457600080fd5b505af1158015611ae8573d6000803e3d6000fd5b50505050816001600160a01b03166308e9d8c28e8d6040518363ffffffff1660e01b8152600401611b2992919061ffff929092168252602082015260400190565b60408051808303816000875af1158015611b47573d6000803e3d6000fd5b505050506040513d601f19601f82011682018060405250810190611b6b9190614425565b92505050600560009054906101000a90046001600160a01b03166001600160a01b03166351156e73348d8d8d8d87898b8e8e6040518b63ffffffff1660e01b8152600401611bc1999897969594939291906145ca565b6000604051808303818588803b158015611bda57600080fd5b505af1158015611bee573d6000803e3d6000fd5b5050505050505061090460018055565b611c0661305b565b6000611c11846128f5565b90506000816001600160a01b031663feb56b156040518163ffffffff1660e01b8152600401602060405180830381865afa158015611c53573d6000803e3d6000fd5b505050506040513d601f19601f82011682018060405250810190611c779190614522565b9050611c8d81611c8786826130b4565b906130c9565b9350611cfc826001600160a01b031663fc0c546a6040518163ffffffff1660e01b8152600401602060405180830381865afa158015611cd0573d6000803e3d6000fd5b505050506040513d601f19601f82011682018060405250810190611cf49190614505565b3384876130d5565b6040516340c10f1960e01b81526001600160a01b038481166004830152602482018690528316906340c10f19906044016020604051808303816000875af1158015611d4b573d6000803e3d6000fd5b505050506040513d601f19601f82011682018060405250810190611d6f9190614522565b505050611d7b60018055565b505050565b611d8861305b565b6001600160a01b038516611dae5760405162461bcd60e51b81526004016106ed906143df565b6000611db9886128f5565b905060008511611ddb5760405162461bcd60e51b81526004016106ed9061465c565b604051632c3eac2f60e21b81526000906001600160a01b0383169063b0fab0bc90611e149033908a908f908e908c908c9060040161469d565b6020604051808303816000875af1158015611e33573d6000803e3d6000fd5b505050506040513d601f19601f82011682018060405250810190611e579190614522565b905060008111611ec15760405162461bcd60e51b815260206004820152602f60248201527f53746172676174653a206e6f7420656e6f756768206c7020746f20726564656560448201526e1b481dda5d1a08185b5bdd5b9d14d1608a1b60648201526084016106ed565b604051630474ec6160e11b815261ffff8b166004820152602481018990526000906001600160a01b038416906308e9d8c29060440160408051808303816000875af1158015611f14573d6000803e3d6000fd5b505050506040513d601f19601f82011682018060405250810190611f389190614425565b9050600560009054906101000a90046001600160a01b03166001600160a01b0316633cef94b9348d8d8d8d87898e8e8e6040518b63ffffffff1660e01b8152600401611f8c999897969594939291906146d5565b6000604051808303818588803b158015611fa557600080fd5b505af1158015611fb9573d6000803e3d6000fd5b505050505050505061189d60018055565b611fd26129c0565b6000611fdd836128f5565b60405163ac2cc36b60e01b815283151560048201529091506001600160a01b0382169063ac2cc36b906024016109df565b61201661305b565b6001600160a01b03811661203c5760405162461bcd60e51b81526004016106ed906143df565b6000612047846128f5565b604051630474ec6160e11b815261ffff87166004820152602481018590529091506000906001600160a01b038316906308e9d8c29060440160408051808303816000875af115801561209d573d6000803e3d6000fd5b505050506040513d601f19601f820116820180604052508101906120c19190614425565b600554604051632fa7502b60e21b81529192506001600160a01b03169063be9d40ac9034906120fc908a908a908a908a90899060040161474c565b6000604051808303818588803b15801561211557600080fd5b505af1158015612129573d6000803e3d6000fd5b5050505050505061213960018055565b50505050565b61214761305b565b600087116121975760405162461bcd60e51b815260206004820152601760248201527f53746172676174653a2063616e6e6f742073776170203000000000000000000060448201526064016106ed565b6001600160a01b0388166121bd5760405162461bcd60e51b81526004016106ed906143df565b6121f66040518060c001604052806000815260200160008152602001600081526020016000815260200160008152602001600081525090565b604080518082019091526000808252602082015260006122158d6128f5565b90506000816001600160a01b031663feb56b156040518163ffffffff1660e01b8152600401602060405180830381865afa158015612257573d6000803e3d6000fd5b505050506040513d601f19601f8201168201806040525081019061227b9190614522565b905061228b81611c878d826130b4565b9a5050806001600160a01b0316631b7319b68f8e338e8e60016040518763ffffffff1660e01b81526004016122c59695949392919061453b565b60c0604051808303816000875af11580156122e4573d6000803e3d6000fd5b505050506040513d601f19601f820116820180604052508101906123089190614574565b9250612377816001600160a01b031663fc0c546a6040518163ffffffff1660e01b8152600401602060405180830381865afa15801561234b573d6000803e3d6000fd5b505050506040513d601f19601f8201168201806040525081019061236f9190614505565b33838d6130d5565b604051630474ec6160e11b815261ffff8f166004820152602481018d90526001600160a01b038216906308e9d8c29060440160408051808303816000875af11580156123c7573d6000803e3d6000fd5b505050506040513d601f19601f820116820180604052508101906123eb9190614425565b915050600560009054906101000a90046001600160a01b03166001600160a01b03166351156e73348f8f8f8f87898f8f8f8f8f6040518d63ffffffff1660e01b81526004016124449b9a99989796959493929190614789565b6000604051808303818588803b15801561245d57600080fd5b505af1158015612471573d6000803e3d6000fd5b5050505050505061108c60018055565b6005546001600160a01b031633146124ab5760405162461bcd60e51b81526004016106ed90613e9d565b60006124b6836128f5565b60405163b6addec760e01b81529091506001600160a01b0382169063b6addec790610a6690889088908790600401614820565b60006124f361305b565b600083116125135760405162461bcd60e51b81526004016106ed9061465c565b60006125228561ffff166128f5565b6040516304c35b0d60e11b8152336004820152602481018690526001600160a01b03858116604483015291925090821690630986b61a906064016020604051808303816000875af115801561257b573d6000803e3d6000fd5b505050506040513d601f19601f8201168201806040525081019061259f9190614522565b9150506125ab60018055565b9392505050565b6125ba6129c0565b60006125c5836128f5565b6040516312d72b2f60e21b81526001600160a01b03848116600483015291925090821690634b5cacbc906024016109df565b6125ff6129c0565b600061260a846128f5565b6040516345ec368560e11b815261ffff85166004820152602481018490529091506001600160a01b03821690638bd86d0a90604401600060405180830381600087803b15801561265957600080fd5b505af115801561189d573d6000803e3d6000fd5b6003546001600160a01b031633146126c75760405162461bcd60e51b815260206004820152601f60248201527f53746172676174653a206f6e6c792070726f746f636f6c4665654f776e65720060448201526064016106ed565b60006126d2836128f5565b604051632f8c40a560e21b81526001600160a01b0384811660048301529192509082169063be310294906024016109df565b61270c6129c0565b6001600160a01b0381166127625760405162461bcd60e51b815260206004820152601e60248201527f53746172676174653a205f6f776e65722063616e6e6f7420626520307830000060448201526064016106ed565b600480546001600160a01b0319166001600160a01b0392909216919091179055565b60066020908152600093845260408085208451808601840180519281529084019584019590952094529290528252902080546127bf90613f82565b80601f01602080910402602001604051908101604052809291908181526020018280546127eb90613f82565b80156128385780601f1061280d57610100808354040283529160200191612838565b820191906000526020600020905b81548152906001019060200180831161281b57829003601f168201915b505050505081565b6128486129c0565b6001600160a01b0381166128ad5760405162461bcd60e51b815260206004820152602660248201527f4f776e61626c653a206e6577206f776e657220697320746865207a65726f206160448201526564647265737360d01b60648201526084016106ed565b6128b68161300b565b50565b60006128c4836128f5565b604051637fb6526560e01b815283151560048201529091506001600160a01b03821690637fb65265906024016109df565b60025460405163068bcd8d60e01b8152600481018390526000916001600160a01b03169063068bcd8d90602401602060405180830381865afa15801561293f573d6000803e3d6000fd5b505050506040513d601f19601f820116820180604052508101906129639190614505565b90506001600160a01b0381166129bb5760405162461bcd60e51b815260206004820152601d60248201527f53746172676174653a20506f6f6c20646f6573206e6f7420657869737400000060448201526064016106ed565b919050565b6000546001600160a01b031633146117225760405162461bcd60e51b815260206004820181905260248201527f4f776e61626c653a2063616c6c6572206973206e6f7420746865206f776e657260448201526064016106ed565b6000612a25866128f5565b60405163902b8ab760e01b81529091506001600160a01b0382169063902b8ab790612a5a908d908b9089908990600401614847565b6020604051808303816000875af1925050508015612a95575060408051601f3d908101601f19168201909252612a9291810190614522565b60015b612b50576003878787878787604051602001612ab7979695949392919061487f565b60408051601f1981840301815282825261ffff8d1660009081526006602052919091209091612ae7908c90613f66565b908152604080516020928190038301902060008c81529252902090612b0c9082614002565b507fa5d2ba6de30cc2f2e91c5a29ba66b148c27826954217e2f67cb8983541da21cf60038b8b8b604051612b4394939291906140c1565b60405180910390a1612e29565b82511561108c57846001600160a01b031663ab8236f3878d8d8d876001600160a01b031663fc0c546a6040518163ffffffff1660e01b8152600401602060405180830381865afa158015612ba8573d6000803e3d6000fd5b505050506040513d601f19601f82011682018060405250810190612bcc9190614505565b878a6040518863ffffffff1660e01b8152600401612bef969594939291906148ce565b600060405180830381600088803b158015612c0957600080fd5b5087f193505050508015612c1b575060015b61108c573d808015612c49576040519150601f19603f3d011682016040523d82523d6000602084013e612c4e565b606091505b506040518060800160405280846001600160a01b031663fc0c546a6040518163ffffffff1660e01b8152600401602060405180830381865afa158015612c98573d6000803e3d6000fd5b505050506040513d601f19601f82011682018060405250810190612cbc9190614505565b6001600160a01b03168152602001838152602001876001600160a01b0316815260200185815250600760008e61ffff1661ffff1681526020019081526020016000208c604051612d0c9190613f66565b908152604080516020928190038301902060008e8152908352819020835181546001600160a01b03199081166001600160a01b039283161783559385015160018301559184015160028201805490941692169190911790915560608201516003820190612d799082614002565b509050507f8186389e97ff190cd5e17304ed8188a4a98a6c8add46e6df94462ac7f7e8dd348c8c8c866001600160a01b031663fc0c546a6040518163ffffffff1660e01b8152600401602060405180830381865afa158015612ddf573d6000803e3d6000fd5b505050506040513d601f19601f82011682018060405250810190612e039190614505565b868b8a88604051612e1b98979695949392919061491a565b60405180910390a15061108c565b50505050505050505050565b6000612e40856128f5565b604051632cc36bab60e21b815261ffff8b166004820152602481018890526001600160a01b03868116604483015260648201869052608482018590529192509082169063b30daeac9060a401600060405180830381600087803b158015612ea657600080fd5b505af1925050508015612eb7575060015b612f88576040805160026020820152908101879052606081018690526001600160a01b038516608082015260a0810184905260c0810183905260e00160408051601f1981840301815282825261ffff8c1660009081526006602052919091209091612f23908b90613f66565b908152604080516020928190038301902060008b81529252902090612f489082614002565b507fa5d2ba6de30cc2f2e91c5a29ba66b148c27826954217e2f67cb8983541da21cf60028a8a8a604051612f7f94939291906140c1565b60405180910390a15b8688604051612f979190613f66565b6040805191829003822061ffff8d168352602083018a90529082018890526001600160a01b03871660608301526080820186905260a08201859052907fc7379a02e530fbd0a46ea1ce6fd91987e96535798231a796bdc0e1a688a508739060c00160405180910390a3505050505050505050565b600080546001600160a01b038381166001600160a01b0319831681178455604051919092169283917f8be0079c531659141344cd1fd0a4f28419497f9722a3daafe3b4186f6b6457e09190a35050565b6002600154036130ad5760405162461bcd60e51b815260206004820152601f60248201527f5265656e7472616e637947756172643a207265656e7472616e742063616c6c0060448201526064016106ed565b6002600155565b60006130c08284614994565b90505b92915050565b60006130c082846149b6565b604080516001600160a01b0385811660248301528481166044830152606480830185905283518084039091018152608490920183526020820180516001600160e01b03166323b872dd60e01b17905291516000928392908816916131399190613f66565b6000604051808303816000865af19150503d8060008114613176576040519150601f19603f3d011682016040523d82523d6000602084013e61317b565b606091505b50915091508180156131a55750805115806131a55750808060200190518101906131a591906149db565b6113fd5760405162461bcd60e51b815260206004820152601e60248201527f53746172676174653a205452414e534645525f46524f4d5f4641494c4544000060448201526064016106ed565b803561ffff811681146129bb57600080fd5b634e487b7160e01b600052604160045260246000fd5b60405160c081016001600160401b038111828210171561323b5761323b613203565b60405290565b604080519081016001600160401b038111828210171561323b5761323b613203565b604051601f8201601f191681016001600160401b038111828210171561328b5761328b613203565b604052919050565b60006001600160401b038211156132ac576132ac613203565b50601f01601f191660200190565b600082601f8301126132cb57600080fd5b81356132de6132d982613293565b613263565b8181528460208386010111156132f357600080fd5b816020850160208301376000918101602001919091529392505050565b60008083601f84011261332257600080fd5b5081356001600160401b0381111561333957600080fd5b60208301915083602082850101111561335157600080fd5b9250929050565b60008060008060008060008060e0898b03121561337457600080fd5b61337d896131f1565b975060208901356001600160401b038082111561339957600080fd5b6133a58c838d016132ba565b985060408b0135975060608b0135965060808b0135955060a08b0135945060c08b01359150808211156133d757600080fd5b506133e48b828c01613310565b999c989b5096995094979396929594505050565b60ff811681146128b657600080fd5b60006060828403121561341957600080fd5b604051606081016001600160401b03828210818311171561343c5761343c613203565b816040528293508435835260208501356020840152604085013591508082111561346557600080fd5b50613472858286016132ba565b6040830152505092915050565b600080600080600080600060a0888a03121561349a57600080fd5b6134a3886131f1565b965060208801356134b3816133f8565b955060408801356001600160401b03808211156134cf57600080fd5b6134db8b838c01613310565b909750955060608a01359150808211156134f457600080fd5b6135008b838c01613310565b909550935060808a013591508082111561351957600080fd5b506135268a828b01613407565b91505092959891949750929550565b6000806040838503121561354857600080fd5b50508035926020909101359150565b6000806000806080858703121561356d57600080fd5b8435935061357d602086016131f1565b93969395505050506040820135916060013590565b6000806000606084860312156135a757600080fd5b6135b0846131f1565b925060208401356001600160401b038111156135cb57600080fd5b6135d7868287016132ba565b925050604084013590509250925092565b60005b838110156136035781810151838201526020016135eb565b50506000910152565b600081518084526136248160208601602086016135e8565b601f01601f19169290920160200192915050565b6001600160a01b03858116825260208201859052831660408201526080606082018190526000906118049083018461360c565b6001600160a01b03811681146128b657600080fd5b6000806000806000806000806000898b036101c08112156136a057600080fd5b6136a98b6131f1565b995060208b01356001600160401b03808211156136c557600080fd5b6136d18e838f016132ba565b9a5060408d0135995060608d0135985060808d0135975060a08d0135965060c08d013591506136ff8261366b565b81955060c060df198401121561371457600080fd5b61371c613219565b60e08e013581526101008e013560208201526101208e013560408201526101408e013560608201526101608e013560808201526101808e013560a082015294506101a08d013592508083111561377157600080fd5b505061377f8c828d016132ba565b9150509295985092959850929598565b6000602082840312156137a157600080fd5b81356125ab8161366b565b600080600080606085870312156137c257600080fd5b6137cb856131f1565b935060208501356001600160401b038111156137e657600080fd5b6137f287828801613310565b9598909750949560400135949350505050565b6000806040838503121561381857600080fd5b82356138238161366b565b915060208301356138338161366b565b809150509250929050565b80151581146128b657600080fd5b60008060008060008060c0878903121561386557600080fd5b8635955060208701356138778161383e565b9450604087013593506060870135925060808701356138958161383e565b915060a08701356138a58161383e565b809150509295509295509295565b600080604083850312156138c657600080fd5b8235915060208301356138338161366b565b80356129bb8161366b565b60008060008060008060a087890312156138fc57600080fd5b613905876131f1565b955060208701356001600160401b038082111561392157600080fd5b61392d8a838b01613310565b909750955060408901359450606089013591506139498261366b565b9092506080880135908082111561395f57600080fd5b5061396c89828a01613407565b9150509295509295509295565b60008060008060008060c0878903121561399257600080fd5b8635955060208701356139a48161366b565b945060408701356139b4816133f8565b935060608701356139c4816133f8565b925060808701356001600160401b03808211156139e057600080fd5b6139ec8a838b016132ba565b935060a0890135915080821115613a0257600080fd5b5061396c89828a016132ba565b60008060008060808587031215613a2557600080fd5b84359350613a35602086016131f1565b925060408501359150613a4a606086016131f1565b905092959194509250565b600080600080600080600080610100898b031215613a7257600080fd5b613a7b896131f1565b975060208901356001600160401b03811115613a9657600080fd5b613aa28b828c016132ba565b97505060408901359550606089013594506080890135935060a0890135613ac88161366b565b979a969950949793969295929450505060c08201359160e0013590565b60008060008060008060008060006101008a8c031215613b0457600080fd5b613b0d8a6131f1565b985060208a0135975060408a0135965060608a0135613b2b8161366b565b955060808a0135945060a08a0135935060c08a01356001600160401b0380821115613b5557600080fd5b613b618d838e01613310565b909550935060e08c0135915080821115613b7a57600080fd5b5061377f8c828d01613407565b600080600060608486031215613b9c57600080fd5b83359250602084013591506040840135613bb58161366b565b809150509250925092565b60008060008060008060008060e0898b031215613bdc57600080fd5b613be5896131f1565b975060208901359650604089013595506060890135613c038161366b565b94506080890135935060a08901356001600160401b0380821115613c2657600080fd5b613c328c838d01613310565b909550935060c08b0135915080821115613c4b57600080fd5b50613c588b828c01613407565b9150509295985092959890939650565b60008060408385031215613c7b57600080fd5b8235915060208301356138338161383e565b60008060008060808587031215613ca357600080fd5b613cac856131f1565b935060208501359250604085013591506060850135613cca8161366b565b939692955090935050565b60008060008060008060008060008060006101208c8e031215613cf757600080fd5b613d008c6131f1565b9a5060208c0135995060408c01359850613d1c60608d016138d8565b975060808c0135965060a08c013595506001600160401b038060c08e01351115613d4557600080fd5b613d558e60c08f01358f01613407565b95508060e08e01351115613d6857600080fd5b613d788e60e08f01358f01613310565b90955093506101008d0135811015613d8f57600080fd5b50613da18d6101008e01358e01613310565b81935080925050509295989b509295989b9093969950565b60008060008084860360a0811215613dd057600080fd5b613dd9866131f1565b9450602086013593506040808701359350605f1982011215613dfa57600080fd5b50613e03613241565b606086013581526080909501356020860152509194909350909190565b600080600060608486031215613e3557600080fd5b613e3e846131f1565b9250602084013591506040840135613bb58161366b565b600080600060608486031215613e6a57600080fd5b83359250613e7a602085016131f1565b9150604084013590509250925092565b6020815260006130c0602083018461360c565b6020808252601e908201527f4272696467653a2063616c6c6572206d757374206265204272696467652e0000604082015260600190565b60008060408385031215613ee757600080fd5b505080516020909101519092909150565b81835281816020850137506000828201602090810191909152601f909101601f19169091010190565b60ff8816815286602082015285604082015260ff8516606082015283608082015260c060a08201526000613f5960c083018486613ef8565b9998505050505050505050565b60008251613f788184602087016135e8565b9190910192915050565b600181811c90821680613f9657607f821691505b602082108103613fb657634e487b7160e01b600052602260045260246000fd5b50919050565b601f821115611d7b57600081815260208120601f850160051c81016020861015613fe35750805b601f850160051c820191505b818110156113fd57828155600101613fef565b81516001600160401b0381111561401b5761401b613203565b61402f816140298454613f82565b84613fbc565b602080601f831160018114614064576000841561404c5750858301515b600019600386901b1c1916600185901b1785556113fd565b600085815260208120601f198616915b8281101561409357888601518255948401946001909101908401614074565b50858210156140b15787850151600019600388901b60f8161c191681555b5050505050600190811b01905550565b60ff8516815261ffff841660208201526080604082015260006140e7608083018561360c565b905082606083015295945050505050565b60ff8816815286602082015285604082015284606082015283608082015260c060a08201526000613f5960c083018486613ef8565b61ffff8816815286602082015285604082015260c06060820152600061415760c083018688613ef8565b60808301949094525060a0015295945050505050565b80518252602081015160208301526000604082015160606040850152614196606085018261360c565b949350505050565b61ffff8816815260ff8716602082015260a0604082015260006141c560a083018789613ef8565b82810360608401526141d8818688613ef8565b905082810360808401526141ec818561416d565b9a9950505050505050505050565b8183823760009101908152919050565b61ffff8816815260c06020820152600061422860c08301888a613ef8565b604083018790526001600160a01b03861660608401526080830185905282810360a08401526141ec818561360c565b60008060008060008060c0878903121561427057600080fd5b865161427b816133f8565b809650506020870151945060408701519350606087015161429b8161366b565b809350506080870151915060a087015190509295509295509295565b600060c082840312156142c957600080fd5b6142d1613219565b9050815181526020820151602082015260408201516040820152606082015160608201526080820151608082015260a082015160a082015292915050565b6000806000806000806000610180888a03121561432b57600080fd5b8751614336816133f8565b80975050602088015195506040880151945060608801519350608088015161435d8161366b565b925061436c8960a08a016142b7565b91506101608801516001600160401b0381111561438857600080fd5b8801601f81018a1361439957600080fd5b80516143a76132d982613293565b8181528b60208385010111156143bc57600080fd5b6143cd8260208301602086016135e8565b80935050505092959891949750929550565b60208082526026908201527f53746172676174653a205f726566756e64416464726573732063616e6e6f742060408201526506265203078360d41b606082015260800190565b60006040828403121561443757600080fd5b61443f613241565b82518152602083015160208201528091505092915050565b61ffff861681526001600160a01b0385166020820152614484604082018580518252602090810151910152565b60c06080820152600061449a60c083018561416d565b82810360a08401526144ac818561360c565b98975050505050505050565b8681526001600160a01b038616602082015260ff85811660408301528416606082015260c0608082018190526000906144f39083018561360c565b82810360a0840152613f59818561360c565b60006020828403121561451757600080fd5b81516125ab8161366b565b60006020828403121561453457600080fd5b5051919050565b61ffff96909616865260208601949094526001600160a01b0392909216604085015260608401526080830152151560a082015260c00190565b600060c0828403121561458657600080fd5b6130c083836142b7565b805182526020810151602083015260408101516040830152606081015160608301526080810151608083015260a081015160a08301525050565b61ffff8a16815260208082018a9052604082018990526001600160a01b03881660608301528651608083015286015160a082015260006101e061461060c0840188614590565b806101808401526146238184018761416d565b90508281036101a0840152614639818587613ef8565b8381036101c0909401939093525050600081526020019998505050505050505050565b60208082526021908201527f53746172676174653a206e6f7420656e6f756768206c7020746f2072656465656040820152606d60f81b606082015260800190565b60018060a01b038716815285602082015261ffff8516604082015283606082015260a0608082015260006144ac60a083018486613ef8565b61ffff8a16815260208082018a9052604082018990526001600160a01b03881660608301528651608083015286015160a082015260006101208660c08401528060e08401526147278184018688613ef8565b905082810361010084015261473c818561416d565b9c9b505050505050505050505050565b61ffff861681526020808201869052604082018590526001600160a01b03841660608301528251608083015282015160a082015260c08101611804565b61ffff8c16815260208082018c9052604082018b90526001600160a01b038a1660608301528851608083015288015160a082015260006101e06147cf60c084018a614590565b806101808401526147e28184018961416d565b90508281036101a08401526147f8818789613ef8565b90508281036101c084015261480e818587613ef8565b9e9d5050505050505050505050505050565b61ffff84168152602080820184905282516040830152820151606082015260808101614196565b61ffff85168152602081018490526001600160a01b038316604082015261012081016148766060830184614590565b95945050505050565b60ff881681526020810187905260408101869052606081018590526001600160a01b038416608082015260006101806148bb60a0840186614590565b806101608401526141ec8184018561360c565b61ffff8716815260c0602082015260006148eb60c083018861360c565b604083018790526001600160a01b03861660608401526080830185905282810360a0840152613f59818561360c565b600061010061ffff8b1683528060208401526149388184018b61360c565b604084018a90526001600160a01b03898116606086015260808501899052871660a085015283810360c08501529050614971818661360c565b905082810360e0840152614985818561360c565b9b9a5050505050505050505050565b6000826149b157634e487b7160e01b600052601260045260246000fd5b500490565b80820281158282048414176130c357634e487b7160e01b600052601160045260246000fd5b6000602082840312156149ed57600080fd5b81516125ab8161383e56fea2646970667358221220b817038f69ada200196e8da6e695dd5b40c07377ed9f2763f442a12a6adf26ad64736f6c63430008110033",
    "linkReferences": {}
  },
  "methodIdentifiers": {
    "activateChainPath(uint256,uint16,uint256)": "c7d968e3",
    "addLiquidity(uint256,uint256,address)": "87b21efc",
    "bridge()": "e78cea92",
    "cachedSwapLookup(uint16,bytes,uint256)": "23fd4647",
    "callDelta(uint256,bool)": "fba6e280",
    "clearCachedSwap(uint16,bytes,uint256)": "403a9f7a",
    "createChainPath(uint256,uint16,uint256,uint256)": "16fb60f5",
    "createPool(uint256,address,uint8,uint8,string,string)": "7af935a1",
    "creditChainPath(uint16,uint256,uint256,(uint256,uint256))": "a18fa804",
    "factory()": "c45a0155",
    "instantRedeemLocal(uint16,uint256,address)": "c4de93a5",
    "mintFeeOwner()": "af640d82",
    "owner()": "8da5cb5b",
    "protocolFeeOwner()": "a96fbed4",
    "quoteLayerZeroFee(uint16,uint8,bytes,bytes,(uint256,uint256,bytes))": "0a512369",
    "redeemLocal(uint16,uint256,uint256,address,uint256,bytes,(uint256,uint256,bytes))": "8f2e1d18",
    "redeemLocalCallback(uint16,bytes,uint256,uint256,uint256,address,uint256,uint256)": "7f721298",
    "redeemLocalCheckOnRemote(uint16,bytes,uint256,uint256,uint256,uint256,bytes)": "0403bce5",
    "redeemRemote(uint16,uint256,uint256,address,uint256,uint256,bytes,(uint256,uint256,bytes))": "84d0dba3",
    "renounceOwnership()": "715018a6",
    "retryRevert(uint16,bytes,uint256)": "60a3b95c",
    "revertLookup(uint16,bytes,uint256)": "da133a06",
    "revertRedeemLocal(uint16,bytes,uint256,address,(uint256,uint256,bytes))": "6a7982da",
    "sendCredits(uint16,uint256,uint256,address)": "9ba3aa74",
    "setBridgeAndFactory(address,address)": "424c9119",
    "setDeltaParam(uint256,bool,uint256,uint256,bool,bool)": "43a30630",
    "setFeeLibrary(uint256,address)": "c6a27624",
    "setFees(uint256,uint256)": "0b78f9c0",
    "setMintFeeOwner(address)": "cefbdde2",
    "setProtocolFeeOwner(address)": "34aba410",
    "setSwapStop(uint256,bool)": "98e391a1",
    "setWeightForChainPath(uint256,uint16,uint256,uint16)": "7b84d287",
    "swap(uint16,uint256,uint256,address,uint256,uint256,(uint256,uint256,bytes),bytes,bytes)": "9fbf10fc",
    "swapRemote(uint16,bytes,uint256,uint256,uint256,uint256,address,(uint256,uint256,uint256,uint256,uint256,uint256),bytes)": "2f925555",
    "transferOwnership(address)": "f2fde38b",
    "withdrawMintFee(uint256,address)": "5500585c",
    "withdrawProtocolFee(uint256,address)": "c8adf12d"
  },
  "id": 65
}