{
  "abi": [
    {
      "anonymous": false,
      "inputs": [
        {
          "indexed": false,
          "internalType": "uint256",
          "name": "protocolFee",
          "type": "uint256"
        }
      ],
      "name": "NewProtocolFee",
      "type": "event"
    },
    {
      "anonymous": false,
      "inputs": [
        {
          "indexed": true,
          "internalType": "address",
          "name": "previousOwner",
          "type": "address"
        },
        {
          "indexed": true,
          "internalType": "address",
          "name": "newOwner",
          "type": "address"
        }
      ],
      "name": "OwnershipTransferred",
      "type": "event"
    },
    {
      "inputs": [
        {
          "components": [
            {
              "internalType": "bool",
              "name": "isOrderAsk",
              "type": "bool"
            },
            {
              "internalType": "address",
              "name": "taker",
              "type": "address"
            },
            {
              "internalType": "uint256",
              "name": "price",
              "type": "uint256"
            },
            {
              "internalType": "uint256",
              "name": "tokenId",
              "type": "uint256"
            },
            {
              "internalType": "bytes",
              "name": "params",
              "type": "bytes"
            }
          ],
          "internalType": "struct OrderTypes.TakerOrder",
          "name": "takerAsk",
          "type": "tuple"
        },
        {
          "components": [
            {
              "internalType": "bool",
              "name": "isOrderAsk",
              "type": "bool"
            },
            {
              "internalType": "address",
              "name": "signer",
              "type": "address"
            },
            {
              "internalType": "address",
              "name": "collection",
              "type": "address"
            },
            {
              "internalType": "uint256",
              "name": "price",
              "type": "uint256"
            },
            {
              "internalType": "uint256",
              "name": "tokenId",
              "type": "uint256"
            },
            {
              "internalType": "uint256",
              "name": "amount",
              "type": "uint256"
            },
            {
              "internalType": "address",
              "name": "strategy",
              "type": "address"
            },
            {
              "internalType": "address",
              "name": "currency",
              "type": "address"
            },
            {
              "internalType": "uint256",
              "name": "nonce",
              "type": "uint256"
            },
            {
              "internalType": "uint256",
              "name": "startTime",
              "type": "uint256"
            },
            {
              "internalType": "uint256",
              "name": "endTime",
              "type": "uint256"
            },
            {
              "internalType": "bytes",
              "name": "params",
              "type": "bytes"
            },
            {
              "internalType": "bytes",
              "name": "signature",
              "type": "bytes"
            }
          ],
          "internalType": "struct OrderTypes.MakerOrder",
          "name": "makerBid",
          "type": "tuple"
        }
      ],
      "name": "canExecuteTakerAsk",
      "outputs": [
        {
          "internalType": "bool",
          "name": "",
          "type": "bool"
        },
        {
          "internalType": "uint256",
          "name": "",
          "type": "uint256"
        },
        {
          "internalType": "uint256",
          "name": "",
          "type": "uint256"
        }
      ],
      "stateMutability": "view",
      "type": "function"
    },
    {
      "inputs": [
        {
          "components": [
            {
              "internalType": "bool",
              "name": "isOrderAsk",
              "type": "bool"
            },
            {
              "internalType": "address",
              "name": "taker",
              "type": "address"
            },
            {
              "internalType": "uint256",
              "name": "price",
              "type": "uint256"
            },
            {
              "internalType": "uint256",
              "name": "tokenId",
              "type": "uint256"
            },
            {
              "internalType": "bytes",
              "name": "params",
              "type": "bytes"
            }
          ],
          "internalType": "struct OrderTypes.TakerOrder",
          "name": "takerBid",
          "type": "tuple"
        },
        {
          "components": [
            {
              "internalType": "bool",
              "name": "isOrderAsk",
              "type": "bool"
            },
            {
              "internalType": "address",
              "name": "signer",
              "type": "address"
            },
            {
              "internalType": "address",
              "name": "collection",
              "type": "address"
            },
            {
              "internalType": "uint256",
              "name": "price",
              "type": "uint256"
            },
            {
              "internalType": "uint256",
              "name": "tokenId",
              "type": "uint256"
            },
            {
              "internalType": "uint256",
              "name": "amount",
              "type": "uint256"
            },
            {
              "internalType": "address",
              "name": "strategy",
              "type": "address"
            },
            {
              "internalType": "address",
              "name": "currency",
              "type": "address"
            },
            {
              "internalType": "uint256",
              "name": "nonce",
              "type": "uint256"
            },
            {
              "internalType": "uint256",
              "name": "startTime",
              "type": "uint256"
            },
            {
              "internalType": "uint256",
              "name": "endTime",
              "type": "uint256"
            },
            {
              "internalType": "bytes",
              "name": "params",
              "type": "bytes"
            },
            {
              "internalType": "bytes",
              "name": "signature",
              "type": "bytes"
            }
          ],
          "internalType": "struct OrderTypes.MakerOrder",
          "name": "makerAsk",
          "type": "tuple"
        }
      ],
      "name": "canExecuteTakerBid",
      "outputs": [
        {
          "internalType": "bool",
          "name": "",
          "type": "bool"
        },
        {
          "internalType": "uint256",
          "name": "",
          "type": "uint256"
        },
        {
          "internalType": "uint256",
          "name": "",
          "type": "uint256"
        }
      ],
      "stateMutability": "view",
      "type": "function"
    },
    {
      "inputs": [],
      "name": "owner",
      "outputs": [
        {
          "internalType": "address",
          "name": "",
          "type": "address"
        }
      ],
      "stateMutability": "view",
      "type": "function"
    },
    {
      "inputs": [],
      "name": "renounceOwnership",
      "outputs": [],
      "stateMutability": "nonpayable",
      "type": "function"
    },
    {
      "inputs": [
        {
          "internalType": "uint256",
          "name": "newProtocolFee",
          "type": "uint256"
        }
      ],
      "name": "setProtocolFee",
      "outputs": [],
      "stateMutability": "nonpayable",
      "type": "function"
    },
    {
      "inputs": [
        {
          "internalType": "address",
          "name": "newOwner",
          "type": "address"
        }
      ],
      "name": "transferOwnership",
      "outputs": [],
      "stateMutability": "nonpayable",
      "type": "function"
    },
    {
      "inputs": [],
      "name": "viewProtocolFee",
      "outputs": [
        {
          "internalType": "uint256",
          "name": "",
          "type": "uint256"
        }
      ],
      "stateMutability": "view",
      "type": "function"
    }
  ],
  "bytecode": {
    "object": "0x608060405260c860015534801561001557600080fd5b5061001f33610024565b610074565b600080546001600160a01b038381166001600160a01b0319831681178455604051919092169283917f8be0079c531659141344cd1fd0a4f28419497f9722a3daafe3b4186f6b6457e09190a35050565b6107a2806100836000396000f3fe608060405234801561001057600080fd5b506004361061007d5760003560e01c80639dd1cda61161005b5780639dd1cda6146100bf578063a22233b5146100d0578063c346b3b9146100d0578063f2fde38b1461010057600080fd5b8063715018a614610082578063787dce3d1461008c5780638da5cb5b1461009f575b600080fd5b61008a610113565b005b61008a61009a36600461039f565b610127565b6000546040516001600160a01b0390911681526020015b60405180910390f35b6001546040519081526020016100b6565b6100e36100de3660046103b8565b61016a565b6040805193151584526020840192909252908201526060016100b6565b61008a61010e366004610441565b6101e4565b61011b610262565b61012560006102bc565b565b61012f610262565b60018190556040518181527f3e1c6f794380f768303ee10adb978482d0ee037b0517bdabf3118141632078a69060200160405180910390a150565b600080808061018061017b87610501565b61030c565b945050505050610199856060013587604001358361033e565b80156101ac575085606001358560800135145b80156101bd57504285610120013511155b80156101ce57504285610140013510155b966080860135965060a090950135949350505050565b6101ec610262565b6001600160a01b0381166102565760405162461bcd60e51b815260206004820152602660248201527f4f776e61626c653a206e6577206f776e657220697320746865207a65726f206160448201526564647265737360d01b60648201526084015b60405180910390fd5b61025f816102bc565b50565b6000546001600160a01b031633146101255760405162461bcd60e51b815260206004820181905260248201527f4f776e61626c653a2063616c6c6572206973206e6f7420746865206f776e6572604482015260640161024d565b600080546001600160a01b038381166001600160a01b0319831681178455604051919092169283917f8be0079c531659141344cd1fd0a4f28419497f9722a3daafe3b4186f6b6457e09190a35050565b6000806000806000856080015180602001905181019061032c91906105a6565b939a9299509097509550909350915050565b6000816000036103515750828214610398565b60648210156103785761036582600a610714565b61036f9084610720565b84149050610398565b610383606483610737565b61038e90600a610714565b61036f908461074a565b9392505050565b6000602082840312156103b157600080fd5b5035919050565b600080604083850312156103cb57600080fd5b823567ffffffffffffffff808211156103e357600080fd5b9084019060a082870312156103f757600080fd5b9092506020840135908082111561040d57600080fd5b5083016101a0818603121561042157600080fd5b809150509250929050565b6001600160a01b038116811461025f57600080fd5b60006020828403121561045357600080fd5b81356103988161042c565b634e487b7160e01b600052604160045260246000fd5b600082601f83011261048557600080fd5b813567ffffffffffffffff808211156104a0576104a061045e565b604051601f8301601f19908116603f011681019082821181831017156104c8576104c861045e565b816040528381528660208588010111156104e157600080fd5b836020870160208301376000602085830101528094505050505092915050565b600060a0823603121561051357600080fd5b60405160a0810167ffffffffffffffff82821081831117156105375761053761045e565b8160405284359150811515821461054d57600080fd5b90825260208401359061055f8261042c565b8160208401526040850135604084015260608501356060840152608085013591508082111561058d57600080fd5b5061059a36828601610474565b60808301525092915050565b600080600080600060a086880312156105be57600080fd5b855161ffff811681146105d057600080fd5b60208701519095506105e18161042c565b60408701519094506105f28161042c565b60608701519093506106038161042c565b80925050608086015190509295509295909350565b634e487b7160e01b600052601160045260246000fd5b600181815b8085111561066957816000190482111561064f5761064f610618565b8085161561065c57918102915b93841c9390800290610633565b509250929050565b6000826106805750600161070e565b8161068d5750600061070e565b81600181146106a357600281146106ad576106c9565b600191505061070e565b60ff8411156106be576106be610618565b50506001821b61070e565b5060208310610133831016604e8410600b84101617156106ec575081810a61070e565b6106f6838361062e565b806000190482111561070a5761070a610618565b0290505b92915050565b60006103988383610671565b808202811582820484141761070e5761070e610618565b8181038181111561070e5761070e610618565b60008261076757634e487b7160e01b600052601260045260246000fd5b50049056fea26469706673582212204f3c44f10815b06660e71ac2feadb1499d11c273b1ac4340bea728f1ebba51f164736f6c63430008110033",
    "linkReferences": {}
  },
  "methodIdentifiers": {
    "canExecuteTakerAsk((bool,address,uint256,uint256,bytes),(bool,address,address,uint256,uint256,uint256,address,address,uint256,uint256,uint256,bytes,bytes))": "c346b3b9",
    "canExecuteTakerBid((bool,address,uint256,uint256,bytes),(bool,address,address,uint256,uint256,uint256,address,address,uint256,uint256,uint256,bytes,bytes))": "a22233b5",
    "owner()": "8da5cb5b",
    "renounceOwnership()": "715018a6",
    "setProtocolFee(uint256)": "787dce3d",
    "transferOwnership(address)": "f2fde38b",
    "viewProtocolFee()": "9dd1cda6"
  },
  "id": 71
}