{
  "abi": [
    {
      "inputs": [
        {
          "internalType": "address",
          "name": "_lzEndpoint",
          "type": "address"
        },
        {
          "internalType": "address",
          "name": "_proxyToken",
          "type": "address"
        }
      ],
      "stateMutability": "nonpayable",
      "type": "constructor"
    },
    {
      "anonymous": false,
      "inputs": [
        {
          "indexed": false,
          "internalType": "uint16",
          "name": "_srcChainId",
          "type": "uint16"
        },
        {
          "indexed": false,
          "internalType": "bytes",
          "name": "_srcAddress",
          "type": "bytes"
        },
        {
          "indexed": false,
          "internalType": "uint64",
          "name": "_nonce",
          "type": "uint64"
        },
        {
          "indexed": false,
          "internalType": "bytes",
          "name": "_payload",
          "type": "bytes"
        }
      ],
      "name": "MessageFailed",
      "type": "event"
    },
    {
      "anonymous": false,
      "inputs": [
        {
          "indexed": true,
          "internalType": "address",
          "name": "previousOwner",
          "type": "address"
        },
        {
          "indexed": true,
          "internalType": "address",
          "name": "newOwner",
          "type": "address"
        }
      ],
      "name": "OwnershipTransferred",
      "type": "event"
    },
    {
      "anonymous": false,
      "inputs": [
        {
          "indexed": true,
          "internalType": "uint16",
          "name": "_srcChainId",
          "type": "uint16"
        },
        {
          "indexed": true,
          "internalType": "bytes",
          "name": "_srcAddress",
          "type": "bytes"
        },
        {
          "indexed": true,
          "internalType": "address",
          "name": "_toAddress",
          "type": "address"
        },
        {
          "indexed": false,
          "internalType": "uint256",
          "name": "_amount",
          "type": "uint256"
        },
        {
          "indexed": false,
          "internalType": "uint64",
          "name": "_nonce",
          "type": "uint64"
        }
      ],
      "name": "ReceiveFromChain",
      "type": "event"
    },
    {
      "anonymous": false,
      "inputs": [
        {
          "indexed": true,
          "internalType": "address",
          "name": "_sender",
          "type": "address"
        },
        {
          "indexed": true,
          "internalType": "uint16",
          "name": "_dstChainId",
          "type": "uint16"
        },
        {
          "indexed": true,
          "internalType": "bytes",
          "name": "_toAddress",
          "type": "bytes"
        },
        {
          "indexed": false,
          "internalType": "uint256",
          "name": "_amount",
          "type": "uint256"
        },
        {
          "indexed": false,
          "internalType": "uint64",
          "name": "_nonce",
          "type": "uint64"
        }
      ],
      "name": "SendToChain",
      "type": "event"
    },
    {
      "anonymous": false,
      "inputs": [
        {
          "indexed": false,
          "internalType": "uint16",
          "name": "_dstChainId",
          "type": "uint16"
        },
        {
          "indexed": false,
          "internalType": "uint16",
          "name": "_type",
          "type": "uint16"
        },
        {
          "indexed": false,
          "internalType": "uint256",
          "name": "_minDstGas",
          "type": "uint256"
        }
      ],
      "name": "SetMinDstGas",
      "type": "event"
    },
    {
      "anonymous": false,
      "inputs": [
        {
          "indexed": false,
          "internalType": "address",
          "name": "precrime",
          "type": "address"
        }
      ],
      "name": "SetPrecrime",
      "type": "event"
    },
    {
      "anonymous": false,
      "inputs": [
        {
          "indexed": false,
          "internalType": "uint16",
          "name": "_remoteChainId",
          "type": "uint16"
        },
        {
          "indexed": false,
          "internalType": "bytes",
          "name": "_path",
          "type": "bytes"
        }
      ],
      "name": "SetTrustedRemote",
      "type": "event"
    },
    {
      "anonymous": false,
      "inputs": [
        {
          "indexed": false,
          "internalType": "uint16",
          "name": "_remoteChainId",
          "type": "uint16"
        },
        {
          "indexed": false,
          "internalType": "bytes",
          "name": "_remoteAddress",
          "type": "bytes"
        }
      ],
      "name": "SetTrustedRemoteAddress",
      "type": "event"
    },
    {
      "inputs": [],
      "name": "circulatingSupply",
      "outputs": [
        {
          "internalType": "uint256",
          "name": "",
          "type": "uint256"
        }
      ],
      "stateMutability": "view",
      "type": "function"
    },
    {
      "inputs": [
        {
          "internalType": "uint16",
          "name": "_dstChainId",
          "type": "uint16"
        },
        {
          "internalType": "bytes",
          "name": "_toAddress",
          "type": "bytes"
        },
        {
          "internalType": "uint256",
          "name": "_amount",
          "type": "uint256"
        },
        {
          "internalType": "bool",
          "name": "_useZro",
          "type": "bool"
        },
        {
          "internalType": "bytes",
          "name": "_adapterParams",
          "type": "bytes"
        },
        {
          "internalType": "bytes",
          "name": "_payload",
          "type": "bytes"
        }
      ],
      "name": "estimateSendFee",
      "outputs": [
        {
          "internalType": "uint256",
          "name": "nativeFee",
          "type": "uint256"
        },
        {
          "internalType": "uint256",
          "name": "zroFee",
          "type": "uint256"
        }
      ],
      "stateMutability": "view",
      "type": "function"
    },
    {
      "inputs": [
        {
          "internalType": "uint16",
          "name": "",
          "type": "uint16"
        },
        {
          "internalType": "bytes",
          "name": "",
          "type": "bytes"
        },
        {
          "internalType": "uint256",
          "name": "",
          "type": "uint256"
        }
      ],
      "name": "failedMessages",
      "outputs": [
        {
          "internalType": "bytes32",
          "name": "",
          "type": "bytes32"
        }
      ],
      "stateMutability": "view",
      "type": "function"
    },
    {
      "inputs": [
        {
          "internalType": "uint16",
          "name": "_srcChainId",
          "type": "uint16"
        },
        {
          "internalType": "bytes",
          "name": "_srcAddress",
          "type": "bytes"
        }
      ],
      "name": "forceResumeReceive",
      "outputs": [],
      "stateMutability": "nonpayable",
      "type": "function"
    },
    {
      "inputs": [
        {
          "internalType": "uint16",
          "name": "_version",
          "type": "uint16"
        },
        {
          "internalType": "uint16",
          "name": "_chainId",
          "type": "uint16"
        },
        {
          "internalType": "address",
          "name": "",
          "type": "address"
        },
        {
          "internalType": "uint256",
          "name": "_configType",
          "type": "uint256"
        }
      ],
      "name": "getConfig",
      "outputs": [
        {
          "internalType": "bytes",
          "name": "",
          "type": "bytes"
        }
      ],
      "stateMutability": "view",
      "type": "function"
    },
    {
      "inputs": [
        {
          "internalType": "uint16",
          "name": "_remoteChainId",
          "type": "uint16"
        }
      ],
      "name": "getTrustedRemoteAddress",
      "outputs": [
        {
          "internalType": "bytes",
          "name": "",
          "type": "bytes"
        }
      ],
      "stateMutability": "view",
      "type": "function"
    },
    {
      "inputs": [
        {
          "internalType": "uint16",
          "name": "_srcChainId",
          "type": "uint16"
        },
        {
          "internalType": "bytes",
          "name": "_srcAddress",
          "type": "bytes"
        }
      ],
      "name": "isTrustedRemote",
      "outputs": [
        {
          "internalType": "bool",
          "name": "",
          "type": "bool"
        }
      ],
      "stateMutability": "view",
      "type": "function"
    },
    {
      "inputs": [],
      "name": "lzEndpoint",
      "outputs": [
        {
          "internalType": "contract ILayerZeroEndpoint",
          "name": "",
          "type": "address"
        }
      ],
      "stateMutability": "view",
      "type": "function"
    },
    {
      "inputs": [
        {
          "internalType": "uint16",
          "name": "_srcChainId",
          "type": "uint16"
        },
        {
          "internalType": "bytes",
          "name": "_srcAddress",
          "type": "bytes"
        },
        {
          "internalType": "uint64",
          "name": "_nonce",
          "type": "uint64"
        },
        {
          "internalType": "bytes",
          "name": "_payload",
          "type": "bytes"
        }
      ],
      "name": "lzReceive",
      "outputs": [],
      "stateMutability": "nonpayable",
      "type": "function"
    },
    {
      "inputs": [
        {
          "internalType": "uint16",
          "name": "",
          "type": "uint16"
        },
        {
          "internalType": "uint16",
          "name": "",
          "type": "uint16"
        }
      ],
      "name": "minDstGasLookup",
      "outputs": [
        {
          "internalType": "uint256",
          "name": "",
          "type": "uint256"
        }
      ],
      "stateMutability": "view",
      "type": "function"
    },
    {
      "inputs": [
        {
          "internalType": "uint16",
          "name": "_srcChainId",
          "type": "uint16"
        },
        {
          "internalType": "bytes",
          "name": "_srcAddress",
          "type": "bytes"
        },
        {
          "internalType": "uint64",
          "name": "_nonce",
          "type": "uint64"
        },
        {
          "internalType": "bytes",
          "name": "_payload",
          "type": "bytes"
        }
      ],
      "name": "nonblockingLzReceive",
      "outputs": [],
      "stateMutability": "nonpayable",
      "type": "function"
    },
    {
      "inputs": [],
      "name": "owner",
      "outputs": [
        {
          "internalType": "address",
          "name": "",
          "type": "address"
        }
      ],
      "stateMutability": "view",
      "type": "function"
    },
    {
      "inputs": [],
      "name": "precrime",
      "outputs": [
        {
          "internalType": "address",
          "name": "",
          "type": "address"
        }
      ],
      "stateMutability": "view",
      "type": "function"
    },
    {
      "inputs": [],
      "name": "renounceOwnership",
      "outputs": [],
      "stateMutability": "nonpayable",
      "type": "function"
    },
    {
      "inputs": [
        {
          "internalType": "uint16",
          "name": "_srcChainId",
          "type": "uint16"
        },
        {
          "internalType": "bytes",
          "name": "_srcAddress",
          "type": "bytes"
        },
        {
          "internalType": "uint64",
          "name": "_nonce",
          "type": "uint64"
        },
        {
          "internalType": "bytes",
          "name": "_payload",
          "type": "bytes"
        }
      ],
      "name": "retryMessage",
      "outputs": [],
      "stateMutability": "payable",
      "type": "function"
    },
    {
      "inputs": [
        {
          "internalType": "address",
          "name": "_from",
          "type": "address"
        },
        {
          "internalType": "uint16",
          "name": "_dstChainId",
          "type": "uint16"
        },
        {
          "internalType": "bytes",
          "name": "_toAddress",
          "type": "bytes"
        },
        {
          "internalType": "uint256",
          "name": "_amount",
          "type": "uint256"
        },
        {
          "internalType": "address payable",
          "name": "_refundAddress",
          "type": "address"
        },
        {
          "internalType": "address",
          "name": "_zroPaymentAddress",
          "type": "address"
        },
        {
          "internalType": "bytes",
          "name": "_adapterParams",
          "type": "bytes"
        },
        {
          "internalType": "bytes",
          "name": "_payload",
          "type": "bytes"
        }
      ],
      "name": "sendFrom",
      "outputs": [],
      "stateMutability": "payable",
      "type": "function"
    },
    {
      "inputs": [
        {
          "internalType": "uint16",
          "name": "_version",
          "type": "uint16"
        },
        {
          "internalType": "uint16",
          "name": "_chainId",
          "type": "uint16"
        },
        {
          "internalType": "uint256",
          "name": "_configType",
          "type": "uint256"
        },
        {
          "internalType": "bytes",
          "name": "_config",
          "type": "bytes"
        }
      ],
      "name": "setConfig",
      "outputs": [],
      "stateMutability": "nonpayable",
      "type": "function"
    },
    {
      "inputs": [
        {
          "internalType": "uint16",
          "name": "_dstChainId",
          "type": "uint16"
        },
        {
          "internalType": "uint16",
          "name": "_packetType",
          "type": "uint16"
        },
        {
          "internalType": "uint256",
          "name": "_minGas",
          "type": "uint256"
        }
      ],
      "name": "setMinDstGas",
      "outputs": [],
      "stateMutability": "nonpayable",
      "type": "function"
    },
    {
      "inputs": [
        {
          "internalType": "address",
          "name": "_precrime",
          "type": "address"
        }
      ],
      "name": "setPrecrime",
      "outputs": [],
      "stateMutability": "nonpayable",
      "type": "function"
    },
    {
      "inputs": [
        {
          "internalType": "uint16",
          "name": "_version",
          "type": "uint16"
        }
      ],
      "name": "setReceiveVersion",
      "outputs": [],
      "stateMutability": "nonpayable",
      "type": "function"
    },
    {
      "inputs": [
        {
          "internalType": "uint16",
          "name": "_version",
          "type": "uint16"
        }
      ],
      "name": "setSendVersion",
      "outputs": [],
      "stateMutability": "nonpayable",
      "type": "function"
    },
    {
      "inputs": [
        {
          "internalType": "uint16",
          "name": "_srcChainId",
          "type": "uint16"
        },
        {
          "internalType": "bytes",
          "name": "_path",
          "type": "bytes"
        }
      ],
      "name": "setTrustedRemote",
      "outputs": [],
      "stateMutability": "nonpayable",
      "type": "function"
    },
    {
      "inputs": [
        {
          "internalType": "uint16",
          "name": "_remoteChainId",
          "type": "uint16"
        },
        {
          "internalType": "bytes",
          "name": "_remoteAddress",
          "type": "bytes"
        }
      ],
      "name": "setTrustedRemoteAddress",
      "outputs": [],
      "stateMutability": "nonpayable",
      "type": "function"
    },
    {
      "inputs": [
        {
          "internalType": "bytes4",
          "name": "interfaceId",
          "type": "bytes4"
        }
      ],
      "name": "supportsInterface",
      "outputs": [
        {
          "internalType": "bool",
          "name": "",
          "type": "bool"
        }
      ],
      "stateMutability": "view",
      "type": "function"
    },
    {
      "inputs": [],
      "name": "token",
      "outputs": [
        {
          "internalType": "contract IERC20",
          "name": "",
          "type": "address"
        }
      ],
      "stateMutability": "view",
      "type": "function"
    },
    {
      "inputs": [
        {
          "internalType": "address",
          "name": "newOwner",
          "type": "address"
        }
      ],
      "name": "transferOwnership",
      "outputs": [],
      "stateMutability": "nonpayable",
      "type": "function"
    },
    {
      "inputs": [
        {
          "internalType": "uint16",
          "name": "",
          "type": "uint16"
        }
      ],
      "name": "trustedRemoteLookup",
      "outputs": [
        {
          "internalType": "bytes",
          "name": "",
          "type": "bytes"
        }
      ],
      "stateMutability": "view",
      "type": "function"
    }
  ],
  "bytecode": {
    "object": "0x60c0346200012357601f6200263e38819003918201601f19168301916001600160401b038311848410176200012857808492604094855283398101031262000123576200005a602062000052836200013e565b92016200013e565b60008054336001600160a01b0319821681178355604051946001600160a01b03949385939192918416907f8be0079c531659141344cd1fd0a4f28419497f9722a3daafe3b4186f6b6457e09080a3166080521660a0526124ea90816200015482396080518181816102fd01528181610487015281816106ec015281816107fa0152818161114e0152818161125c0152818161177d01528181611d9301528181611ea4015261208f015260a051818181610dd501528181611809015281816121bf015261227f0152f35b600080fd5b634e487b7160e01b600052604160045260246000fd5b51906001600160a01b0382168203620001235756fe60806040526004361015610013575b600080fd5b60003560e01c80621d35671461022e57806301ffc9a71461022557806307e0db171461021c5780630e5061921461021357806310ddb1371461020a5780633d8b38f61461020157806342d65a8d146101f857806366ad5c8a146101ef5780636f770790146101e6578063715018a6146101dd5780637533d788146101d45780638cfd8f5c146101cb5780638da5cb5b146101c25780638ee74912146101b95780639358928b146101b0578063950c8a74146101a75780639f38369a1461019e578063a6c3d16514610195578063b353aaa71461018c578063baf3292d14610183578063cbed8b9c1461017a578063d1deba1f14610171578063df2a5b3b14610168578063eb8d72b71461015f578063f2fde38b14610156578063f5ecbdbc1461014d5763fc0c546a1461014557600080fd5b61000e6117f2565b5061000e611717565b5061000e61167c565b5061000e611517565b5061000e61141f565b5061000e6112f8565b5061000e6111fb565b5061000e61117d565b5061000e611137565b5061000e610f99565b5061000e610ee6565b5061000e610ebc565b5061000e610db1565b5061000e610d19565b5061000e610cc9565b5061000e610c75565b5061000e610c2b565b5061000e610a92565b5061000e6109eb565b5061000e61085a565b5061000e6107cd565b5061000e610781565b5061000e6106b8565b5061000e61061d565b5061000e610453565b5061000e6103fc565b5061000e610297565b6004359061ffff8216820361000e57565b6024359061ffff8216820361000e57565b9181601f8401121561000e578235916001600160401b03831161000e576020838186019501011161000e57565b6001600160401b0381160361000e57565b503461000e57608036600319011261000e576102b1610237565b6001600160401b039060243582811161000e576102d2903690600401610259565b9290604435916102e183610286565b60643590811161000e576102f9903690600401610259565b91907f00000000000000000000000000000000000000000000000000000000000000006001600160a01b031633036103b75761037a61038292610388976103736103596103548a61ffff166000526001602052604060002090565b610b2c565b80519081841491826103ad575b508161038a575b50611838565b36916105c8565b9236916105c8565b92611b49565b005b90506103973684866105c8565b602081519101209060208151910120143861036d565b1515915038610366565b60405162461bcd60e51b815260206004820152601e60248201527f4c7a4170703a20696e76616c696420656e64706f696e742063616c6c657200006044820152606490fd5b503461000e57602036600319011261000e5760043563ffffffff60e01b811680910361000e5760209063f27ff48960e01b8114908115610442575b506040519015158152f35b6301ffc9a760e01b14905038610437565b503461000e57600060203660031901126104fc5761046f610237565b8160018060a01b03610485818354163314611907565b7f00000000000000000000000000000000000000000000000000000000000000001691823b156104f857602461ffff918360405195869485936307e0db1760e01b85521660048401525af180156104eb575b6104df575080f35b6104e890610527565b80f35b6104f36118fa565b6104d7565b5080fd5b80fd5b6001600160a01b0381160361000e57565b50634e487b7160e01b600052604160045260246000fd5b6001600160401b03811161053a57604052565b610542610510565b604052565b60a081019081106001600160401b0382111761053a57604052565b604081019081106001600160401b0382111761053a57604052565b90601f801991011681019081106001600160401b0382111761053a57604052565b6020906001600160401b0381116105bb575b601f01601f19160190565b6105c3610510565b6105b0565b9291926105d48261059e565b916105e2604051938461057d565b82948184528183011161000e578281602093846000960137010152565b9080601f8301121561000e5781602061061a933591016105c8565b90565b5061010036600319011261000e57600435610637816104ff565b61063f610248565b6001600160401b039160443583811161000e576106609036906004016105ff565b9060843561066d816104ff565b60a4359161067a836104ff565b60c43586811161000e576106929036906004016105ff565b9360e43596871161000e576106ae6103889736906004016105ff565b9560643592611e0b565b503461000e57600060203660031901126104fc576106d4610237565b8160018060a01b036106ea818354163314611907565b7f00000000000000000000000000000000000000000000000000000000000000001691823b156104f857602461ffff918360405195869485936310ddb13760e01b85521660048401525af180156104eb576104df575080f35b90604060031983011261000e5760043561ffff8116810361000e5791602435906001600160401b03821161000e5761077d91600401610259565b9091565b503461000e57602061ffff6107be61079836610743565b93909116600052600184526107b06040600020610b2c565b8481519101209236916105c8565b82815191012014604051908152f35b503461000e576107dc36610743565b9190600092839160018060a01b036107f8818554163314611907565b7f00000000000000000000000000000000000000000000000000000000000000001690813b15610856578361084495604051968795869485936342d65a8d60e01b855260048501611973565b03925af180156104eb576104df575080f35b8380fd5b503461000e57608036600319011261000e57610874610237565b6001600160401b0360243581811161000e576108949036906004016105ff565b604435916108a183610286565b60643590811161000e576108b99036906004016105ff565b9030330361099d576108d682602080601495518301019101611f4e565b9193909301516108e68482612233565b6001600160a01b031694853b1561000e5761097f61095a84866000898b7f64e10c37f404d128982dce114f5d233c14c5c7f6d8db93099e3d99dacb9e27ba99838961094b61ffff9c604051988997889687956331d97a6560e21b875260048701611f96565b03925af1610984575b50611fda565b956040519384931695839092916001600160401b036020916040840195845216910152565b0390a4005b8061099161099792610527565b80610a87565b38610954565b606460405162461bcd60e51b815260206004820152602060248201527f4c7a52656365697665723a2063616c6c6572206d757374206265204c7a4170706044820152fd5b8015150361000e57565b503461000e5760c036600319011261000e57610a05610237565b6001600160401b039060243582811161000e57610a269036906004016105ff565b90606435610a33816109e1565b60843584811161000e57610a4b9036906004016105ff565b9160a43594851161000e57610a67610a719536906004016105ff565b9360443591611d14565b60408051928352602083019190915290f35b0390f35b600091031261000e57565b503461000e576000806003193601126104fc57805481906001600160a01b03811690610abf338314611907565b6001600160a01b03191682557f8be0079c531659141344cd1fd0a4f28419497f9722a3daafe3b4186f6b6457e08280a380f35b90600182811c92168015610b22575b6020831014610b0c57565b634e487b7160e01b600052602260045260246000fd5b91607f1691610b01565b9060405191826000825492610b4084610af2565b908184526001948581169081600014610baf5750600114610b6c575b5050610b6a9250038361057d565b565b9093915060005260209081600020936000915b818310610b97575050610b6a93508201013880610b5c565b85548884018501529485019487945091830191610b7f565b915050610b6a94506020925060ff191682840152151560051b8201013880610b5c565b60005b838110610be55750506000910152565b8181015183820152602001610bd5565b90602091610c0e81518092818552858086019101610bd2565b601f01601f1916010190565b90602061061a928181520190610bf5565b503461000e57602036600319011261000e5761ffff610c48610237565b166000526001602052610a83610c616040600020610b2c565b604051918291602083526020830190610bf5565b503461000e57604036600319011261000e576020610cc0610c94610237565b61ffff610c9f610248565b91166000526002835260406000209061ffff16600052602052604060002090565b54604051908152f35b503461000e57600036600319011261000e576000546040516001600160a01b039091168152602090f35b602090610d0d928260405194838680955193849201610bd2565b82019081520301902090565b503461000e57606036600319011261000e57610d33610237565b6024356001600160401b03811161000e57610a839161ffff610d5c610da09336906004016105ff565b911660005260046020526040600020906020610d816040519283815193849201610bd2565b8101918252602081604435930301902090600052602052604060002090565b546040519081529081906020820190565b503461000e57600036600319011261000e576040516318160ddd60e01b81526020907f00000000000000000000000000000000000000000000000000000000000000006001600160a01b03168282600481845afa918215610eaf575b600092610e90575b506040516370a0823160e01b8152306004820152908390829060249082905afa928315610e83575b600093610e54575b50506040519190038152602090f35b610e74929350803d10610e7c575b610e6c818361057d565b81019061216c565b903880610e45565b503d610e62565b610e8b6118fa565b610e3d565b610ea8919250833d8511610e7c57610e6c818361057d565b9038610e15565b610eb76118fa565b610e0d565b503461000e57600036600319011261000e576003546040516001600160a01b039091168152602090f35b503461000e57602036600319011261000e5761ffff610f03610237565b166000526001602052610f196040600020610b2c565b805115610f5457610f3b81610a839251906013198201918211610f4757611a8c565b60405191829182610c1a565b610f4f6119e2565b611a8c565b60405162461bcd60e51b815260206004820152601d60248201527f4c7a4170703a206e6f20747275737465642070617468207265636f72640000006044820152606490fd5b503461000e57610fa836610743565b9190600091610fc160018060a01b038454163314611907565b604051936020818482880137610fec6034878481013060601b8582015203601481018952018761057d565b61ffff8316855260019081815260408620918751916001600160401b03831161112a575b6110248361101e8654610af2565b8661198e565b80601f84116001146110945750918080926110839695948a9b7f8c0400cfe2d1199b1a725c78960bcc2a344d869b80590d0f2bd005db15a572ce9b94611089575b50501b916000199060031b1c19161790555b60405193849384611973565b0390a180f35b015192503880611065565b91939498601f1984166110ac87600052602060002090565b938a905b828210611113575050917f8c0400cfe2d1199b1a725c78960bcc2a344d869b80590d0f2bd005db15a572ce999a95939185611083989694106110fa575b505050811b019055611077565b015160001960f88460031b161c191690553880806110ed565b8088869782949787015181550196019401906110b0565b611132610510565b611010565b503461000e57600036600319011261000e576040517f00000000000000000000000000000000000000000000000000000000000000006001600160a01b03168152602090f35b503461000e57602036600319011261000e577f5db758e995a17ec1ad84bdef7e8c3293a0bd6179bcce400dff5d4c3d87db726b60206004356111be816104ff565b6000546001600160a01b0391906111d89083163314611907565b16806bffffffffffffffffffffffff60a01b6003541617600355604051908152a1005b503461000e57608036600319011261000e57611215610237565b61121d610248565b6064356001600160401b03811161000e5761123c903690600401610259565b60018060a09493941b03916000948361125a87958654163314611907565b7f00000000000000000000000000000000000000000000000000000000000000001691823b156112f45784906112c7604051978896879586946332fb62e760e21b865261ffff80921660048701521660248501526044356044850152608060648501526084840191611952565b03925af180156112e7575b6112da575080f35b806109916104e892610527565b6112ef6118fa565b6112d2565b8480fd5b50608036600319011261000e5761130d610237565b6001600160401b0360243581811161000e5761132d9036906004016105ff565b6044359161133a83610286565b60643590811161000e57611352903690600401610259565b9190936113b96113958561137d6113778561ffff166000526004602052604060002090565b86610cf3565b906001600160401b0316600052602052604060002090565b546113a1811515611bfe565b6113ac3686896105c8565b6020815191012014611c4a565b6000948593846113e48761137d6113de8761ffff166000526004602052604060002090565b88610cf3565b55303b156112f45761140b916040519687958695633356ae4560e11b875260048701611c96565b038183305af180156112e7576112da575080f35b503461000e57606036600319011261000e57611439610237565b611441610248565b6044359161145a60018060a01b03600054163314611907565b82156114da576114d57f9d5c7c0b934da8fefa9c7760c98383778a12dfbfc0c3b3106518f43fb9508ac09361ffff83166000526002602052806114af8560406000209061ffff16600052602052604060002090565b556040519384938460409194939294606082019561ffff80921683521660208201520152565b0390a1005b60405162461bcd60e51b81526020600482015260156024820152744c7a4170703a20696e76616c6964206d696e47617360581b6044820152606490fd5b503461000e5761152636610743565b919060009161153f60018060a01b038454163314611907565b61ffff81168352600160209080825260408520916001600160401b03871161166f575b611576876115708554610af2565b8561198e565b8590601f88116001146115dd5750918680879893611083957ffa41487ad5d6728f0b19276fa1eddc16558578f5109fc39d2dc33c3230470dab99936115d2575b501b906000198460031b1c191617905560405193849384611973565b8801359250386115b6565b90601f1988166115f285600052602060002090565b9288905b828210611658575050918893917ffa41487ad5d6728f0b19276fa1eddc16558578f5109fc39d2dc33c3230470dab989961108396941061163e575b505082811b019055611077565b870135600019600386901b60f8161c191690553880611631565b808685968294968c013581550195019301906115f6565b611677610510565b611562565b503461000e57602036600319011261000e5760043561169a816104ff565b6000546001600160a01b03906116b39082163314611907565b8116156116c357610388906122b0565b60405162461bcd60e51b815260206004820152602660248201527f4f776e61626c653a206e6577206f776e657220697320746865207a65726f206160448201526564647265737360d01b6064820152608490fd5b503461000e57608036600319011261000e57610a83611734610237565b61173c610248565b906117486044356104ff565b604051633d7b2f6f60e21b815261ffff91821660048201529116602482015230604482015260648035908201526000816084817f00000000000000000000000000000000000000000000000000000000000000006001600160a01b03165afa9081156117e5575b6000916117c4575b5060405191829182610c1a565b6117df913d8091833e6117d7818361057d565b8101906118d5565b386117b7565b6117ed6118fa565b6117af565b503461000e57600036600319011261000e576040517f00000000000000000000000000000000000000000000000000000000000000006001600160a01b03168152602090f35b1561183f57565b60405162461bcd60e51b815260206004820152602660248201527f4c7a4170703a20696e76616c696420736f757263652073656e64696e6720636f6044820152651b9d1c9858dd60d21b6064820152608490fd5b81601f8201121561000e5780516118a98161059e565b926118b7604051948561057d565b8184526020828401011161000e5761061a9160208085019101610bd2565b9060208282031261000e5781516001600160401b03811161000e5761061a9201611893565b506040513d6000823e3d90fd5b1561190e57565b606460405162461bcd60e51b815260206004820152602060248201527f4f776e61626c653a2063616c6c6572206973206e6f7420746865206f776e65726044820152fd5b908060209392818452848401376000828201840152601f01601f1916010190565b60409061ffff61061a95931681528160208201520191611952565b90601f811161199c57505050565b600091825260208220906020601f850160051c830194106119d8575b601f0160051c01915b8281106119cd57505050565b8181556001016119c1565b90925082906119b8565b50634e487b7160e01b600052601160045260246000fd5b90601f8201809211611a0757565b610b6a6119e2565b15611a1657565b60405162461bcd60e51b815260206004820152600e60248201526d736c6963655f6f766572666c6f7760901b6044820152606490fd5b15611a5357565b60405162461bcd60e51b8152602060048201526011602482015270736c6963655f6f75744f66426f756e647360781b6044820152606490fd5b611aa082611a99816119f9565b1015611a0f565b611aad8282511015611a4c565b81611ac5575050604051600081526020810160405290565b60405191601f811691821560051b808486010193838501920101905b808410611af95750508252601f01601f191660405290565b9092835181526020809101930190611ae1565b90611b3561061a959361ffff6001600160401b0393168452608060208501526080840190610bf5565b931660408201526060818403910152610bf5565b9091303b1561000e57604051633356ae4560e11b815260008180611b738886898960048601611b0c565b038183305af19081611bef575b50611be95783611be4917fe6f254030bcb01ffd20558175c13fcaed6d1520be7becee4c961b65f79243b0d95516020830120611bd78261137d611bd18861ffff166000526004602052604060002090565b89610cf3565b5560405194859485611b0c565b0390a1565b50505050565b611bf890610527565b38611b80565b15611c0557565b60405162461bcd60e51b815260206004820152601d60248201527f4c7a52656365697665723a206e6f2073746f726564206d6573736167650000006044820152606490fd5b15611c5157565b60405162461bcd60e51b815260206004820152601b60248201527f4c7a52656365697665723a20696e76616c6964207061796c6f616400000000006044820152606490fd5b90611cc161061a9694959361ffff6001600160401b0393168452608060208501526080840190610bf5565b941660408201526060818503910152611952565b611ceb61061a9492606083526060830190610bf5565b9260208201526040818403910152610bf5565b919082604091031261000e576020825192015190565b91959492604094611d45611d8f93611d3761ffff9789519b8c9360208501611cd5565b03601f1981018a528961057d565b611d768651988996879663040a7bb160e41b885216600487015230602487015260a0604487015260a4860190610bf5565b9115156064850152838203600319016084850152610bf5565b03817f00000000000000000000000000000000000000000000000000000000000000006001600160a01b03165afa918215611dfe575b6000908193611dd357509190565b905061077d91925060403d8111611df7575b611def818361057d565b810190611cfe565b503d611de5565b611e066118fa565b611dc5565b959261ffff9381967f024797cc77ce15dc717112d54fb1df125fdfd8c81344fb046c5e074427ce154396611e6986611e5b611e7197989d611e4c888f61217b565b60405197889360208501611cd5565b03601f19810186528561057d565b349386612067565b604051630f428ae960e31b815261ffff821660048201523060248201526001600160a01b0396611f0891906020826044817f00000000000000000000000000000000000000000000000000000000000000008d165afa918215611f41575b600092611f0d575b50611ee190611fda565b9760405194859416971695839092916001600160401b036020916040840195845216910152565b0390a4565b611ee1919250611f339060203d8111611f3a575b611f2b818361057d565b810190611ffa565b9190611ed7565b503d611f21565b611f496118fa565b611ecf565b909160608284031261000e578151916001600160401b039283811161000e5784611f79918301611893565b93602082015193604083015190811161000e5761061a9201611893565b91611fc16001600160401b039161ffff61061a9896979416855260a0602086015260a0850190610bf5565b9416604083015260608201526080818403910152610bf5565b611ff290602060405192828480945193849201610bd2565b810103902090565b9081602091031261000e575161061a81610286565b9261203461061a97959361ffff6120429416865260c0602087015260c0860190610bf5565b908482036040860152610bf5565b6001600160a01b0391821660608401529316608082015280830360a090910152610bf5565b9092919461ffff821660005260016020526120856040600020610b2c565b9182511561210e577f00000000000000000000000000000000000000000000000000000000000000006001600160a01b031693843b1561000e576000966120e291604051998a988997889662c5803160e81b88526004880161200f565b03925af18015612101575b6120f45750565b80610991610b6a92610527565b6121096118fa565b6120ed565b60405162461bcd60e51b815260206004820152603060248201527f4c7a4170703a2064657374696e6174696f6e20636861696e206973206e6f742060448201526f61207472757374656420736f7572636560801b6064820152608490fd5b9081602091031261000e575190565b6001600160a01b03163381036121e357610b6a91604051916323b872dd60e01b602084015260248301523060448301526064820152606481526121bd81610547565b7f000000000000000000000000000000000000000000000000000000000000000061236b565b60405162461bcd60e51b815260206004820152602260248201527f50726f78794f46543a206f776e6572206973206e6f742073656e642063616c6c60448201526132b960f11b6064820152608490fd5b60405163a9059cbb60e01b60208201526001600160a01b039091166024820152604480820192909252908152610b6a90608081016001600160401b038111828210176122a3575b6040527f000000000000000000000000000000000000000000000000000000000000000061236b565b6122ab610510565b61227a565b600080546001600160a01b039283166001600160a01b03198216811783559216907f8be0079c531659141344cd1fd0a4f28419497f9722a3daafe3b4186f6b6457e09080a3565b9081602091031261000e575161061a816109e1565b1561231357565b60405162461bcd60e51b815260206004820152602a60248201527f5361666545524332303a204552433230206f7065726174696f6e20646964206e6044820152691bdd081cdd58d8d9595960b21b6064820152608490fd5b6040516001600160a01b03919091169161238482610562565b6020928383527f5361666545524332303a206c6f772d6c6576656c2063616c6c206661696c656484840152803b156123fb57600082819282876123d69796519301915af16123d0612440565b90612470565b805190816123e357505050565b82610b6a936123f69383010191016122f7565b61230c565b60405162461bcd60e51b815260048101859052601d60248201527f416464726573733a2063616c6c20746f206e6f6e2d636f6e74726163740000006044820152606490fd5b3d1561246b573d906124518261059e565b9161245f604051938461057d565b82523d6000602084013e565b606090565b9091901561247c575090565b81511561248c5750805190602001fd5b60405162461bcd60e51b8152602060048201529081906124b0906024830190610bf5565b0390fdfea2646970667358221220d77be524fa38c349f31416ba8a9c1eb4dceaf927d991a6216101aef0bd0b634964736f6c63430008110033",
    "linkReferences": {}
  },
  "methodIdentifiers": {
    "circulatingSupply()": "9358928b",
    "estimateSendFee(uint16,bytes,uint256,bool,bytes,bytes)": "6f770790",
    "failedMessages(uint16,bytes,uint256)": "8ee74912",
    "forceResumeReceive(uint16,bytes)": "42d65a8d",
    "getConfig(uint16,uint16,address,uint256)": "f5ecbdbc",
    "getTrustedRemoteAddress(uint16)": "9f38369a",
    "isTrustedRemote(uint16,bytes)": "3d8b38f6",
    "lzEndpoint()": "b353aaa7",
    "lzReceive(uint16,bytes,uint64,bytes)": "001d3567",
    "minDstGasLookup(uint16,uint16)": "8cfd8f5c",
    "nonblockingLzReceive(uint16,bytes,uint64,bytes)": "66ad5c8a",
    "owner()": "8da5cb5b",
    "precrime()": "950c8a74",
    "renounceOwnership()": "715018a6",
    "retryMessage(uint16,bytes,uint64,bytes)": "d1deba1f",
    "sendFrom(address,uint16,bytes,uint256,address,address,bytes,bytes)": "0e506192",
    "setConfig(uint16,uint16,uint256,bytes)": "cbed8b9c",
    "setMinDstGas(uint16,uint16,uint256)": "df2a5b3b",
    "setPrecrime(address)": "baf3292d",
    "setReceiveVersion(uint16)": "10ddb137",
    "setSendVersion(uint16)": "07e0db17",
    "setTrustedRemote(uint16,bytes)": "eb8d72b7",
    "setTrustedRemoteAddress(uint16,bytes)": "a6c3d165",
    "supportsInterface(bytes4)": "01ffc9a7",
    "token()": "fc0c546a",
    "transferOwnership(address)": "f2fde38b",
    "trustedRemoteLookup(uint16)": "7533d788"
  },
  "id": 161
}