{
  "abi": [
    {
      "inputs": [
        {
          "internalType": "address",
          "name": "_lzEndpoint",
          "type": "address"
        },
        {
          "internalType": "address",
          "name": "_proxyToken",
          "type": "address"
        }
      ],
      "stateMutability": "nonpayable",
      "type": "constructor"
    },
    {
      "anonymous": false,
      "inputs": [
        {
          "indexed": false,
          "internalType": "uint16",
          "name": "_srcChainId",
          "type": "uint16"
        },
        {
          "indexed": false,
          "internalType": "bytes",
          "name": "_srcAddress",
          "type": "bytes"
        },
        {
          "indexed": false,
          "internalType": "uint64",
          "name": "_nonce",
          "type": "uint64"
        },
        {
          "indexed": false,
          "internalType": "bytes",
          "name": "_payload",
          "type": "bytes"
        }
      ],
      "name": "MessageFailed",
      "type": "event"
    },
    {
      "anonymous": false,
      "inputs": [
        {
          "indexed": true,
          "internalType": "address",
          "name": "previousOwner",
          "type": "address"
        },
        {
          "indexed": true,
          "internalType": "address",
          "name": "newOwner",
          "type": "address"
        }
      ],
      "name": "OwnershipTransferred",
      "type": "event"
    },
    {
      "anonymous": false,
      "inputs": [
        {
          "indexed": true,
          "internalType": "uint16",
          "name": "_srcChainId",
          "type": "uint16"
        },
        {
          "indexed": true,
          "internalType": "bytes",
          "name": "_srcAddress",
          "type": "bytes"
        },
        {
          "indexed": true,
          "internalType": "address",
          "name": "_toAddress",
          "type": "address"
        },
        {
          "indexed": false,
          "internalType": "uint256",
          "name": "_amount",
          "type": "uint256"
        },
        {
          "indexed": false,
          "internalType": "uint64",
          "name": "_nonce",
          "type": "uint64"
        }
      ],
      "name": "ReceiveFromChain",
      "type": "event"
    },
    {
      "anonymous": false,
      "inputs": [
        {
          "indexed": true,
          "internalType": "address",
          "name": "_sender",
          "type": "address"
        },
        {
          "indexed": true,
          "internalType": "uint16",
          "name": "_dstChainId",
          "type": "uint16"
        },
        {
          "indexed": true,
          "internalType": "bytes",
          "name": "_toAddress",
          "type": "bytes"
        },
        {
          "indexed": false,
          "internalType": "uint256",
          "name": "_amount",
          "type": "uint256"
        },
        {
          "indexed": false,
          "internalType": "uint64",
          "name": "_nonce",
          "type": "uint64"
        }
      ],
      "name": "SendToChain",
      "type": "event"
    },
    {
      "anonymous": false,
      "inputs": [
        {
          "indexed": false,
          "internalType": "uint16",
          "name": "_dstChainId",
          "type": "uint16"
        },
        {
          "indexed": false,
          "internalType": "uint16",
          "name": "_type",
          "type": "uint16"
        },
        {
          "indexed": false,
          "internalType": "uint256",
          "name": "_minDstGas",
          "type": "uint256"
        }
      ],
      "name": "SetMinDstGas",
      "type": "event"
    },
    {
      "anonymous": false,
      "inputs": [
        {
          "indexed": false,
          "internalType": "address",
          "name": "precrime",
          "type": "address"
        }
      ],
      "name": "SetPrecrime",
      "type": "event"
    },
    {
      "anonymous": false,
      "inputs": [
        {
          "indexed": false,
          "internalType": "uint16",
          "name": "_remoteChainId",
          "type": "uint16"
        },
        {
          "indexed": false,
          "internalType": "bytes",
          "name": "_path",
          "type": "bytes"
        }
      ],
      "name": "SetTrustedRemote",
      "type": "event"
    },
    {
      "anonymous": false,
      "inputs": [
        {
          "indexed": false,
          "internalType": "uint16",
          "name": "_remoteChainId",
          "type": "uint16"
        },
        {
          "indexed": false,
          "internalType": "bytes",
          "name": "_remoteAddress",
          "type": "bytes"
        }
      ],
      "name": "SetTrustedRemoteAddress",
      "type": "event"
    },
    {
      "inputs": [],
      "name": "circulatingSupply",
      "outputs": [
        {
          "internalType": "uint256",
          "name": "",
          "type": "uint256"
        }
      ],
      "stateMutability": "view",
      "type": "function"
    },
    {
      "inputs": [
        {
          "internalType": "uint16",
          "name": "_dstChainId",
          "type": "uint16"
        },
        {
          "internalType": "bytes",
          "name": "_toAddress",
          "type": "bytes"
        },
        {
          "internalType": "uint256",
          "name": "_amount",
          "type": "uint256"
        },
        {
          "internalType": "bool",
          "name": "_useZro",
          "type": "bool"
        },
        {
          "internalType": "bytes",
          "name": "_adapterParams",
          "type": "bytes"
        },
        {
          "internalType": "bytes",
          "name": "_payload",
          "type": "bytes"
        }
      ],
      "name": "estimateSendFee",
      "outputs": [
        {
          "internalType": "uint256",
          "name": "nativeFee",
          "type": "uint256"
        },
        {
          "internalType": "uint256",
          "name": "zroFee",
          "type": "uint256"
        }
      ],
      "stateMutability": "view",
      "type": "function"
    },
    {
      "inputs": [
        {
          "internalType": "uint16",
          "name": "",
          "type": "uint16"
        },
        {
          "internalType": "bytes",
          "name": "",
          "type": "bytes"
        },
        {
          "internalType": "uint256",
          "name": "",
          "type": "uint256"
        }
      ],
      "name": "failedMessages",
      "outputs": [
        {
          "internalType": "bytes32",
          "name": "",
          "type": "bytes32"
        }
      ],
      "stateMutability": "view",
      "type": "function"
    },
    {
      "inputs": [
        {
          "internalType": "uint16",
          "name": "_srcChainId",
          "type": "uint16"
        },
        {
          "internalType": "bytes",
          "name": "_srcAddress",
          "type": "bytes"
        }
      ],
      "name": "forceResumeReceive",
      "outputs": [],
      "stateMutability": "nonpayable",
      "type": "function"
    },
    {
      "inputs": [
        {
          "internalType": "uint16",
          "name": "_version",
          "type": "uint16"
        },
        {
          "internalType": "uint16",
          "name": "_chainId",
          "type": "uint16"
        },
        {
          "internalType": "address",
          "name": "",
          "type": "address"
        },
        {
          "internalType": "uint256",
          "name": "_configType",
          "type": "uint256"
        }
      ],
      "name": "getConfig",
      "outputs": [
        {
          "internalType": "bytes",
          "name": "",
          "type": "bytes"
        }
      ],
      "stateMutability": "view",
      "type": "function"
    },
    {
      "inputs": [
        {
          "internalType": "uint16",
          "name": "_remoteChainId",
          "type": "uint16"
        }
      ],
      "name": "getTrustedRemoteAddress",
      "outputs": [
        {
          "internalType": "bytes",
          "name": "",
          "type": "bytes"
        }
      ],
      "stateMutability": "view",
      "type": "function"
    },
    {
      "inputs": [
        {
          "internalType": "uint16",
          "name": "_srcChainId",
          "type": "uint16"
        },
        {
          "internalType": "bytes",
          "name": "_srcAddress",
          "type": "bytes"
        }
      ],
      "name": "isTrustedRemote",
      "outputs": [
        {
          "internalType": "bool",
          "name": "",
          "type": "bool"
        }
      ],
      "stateMutability": "view",
      "type": "function"
    },
    {
      "inputs": [],
      "name": "lzEndpoint",
      "outputs": [
        {
          "internalType": "contract ILayerZeroEndpoint",
          "name": "",
          "type": "address"
        }
      ],
      "stateMutability": "view",
      "type": "function"
    },
    {
      "inputs": [
        {
          "internalType": "uint16",
          "name": "_srcChainId",
          "type": "uint16"
        },
        {
          "internalType": "bytes",
          "name": "_srcAddress",
          "type": "bytes"
        },
        {
          "internalType": "uint64",
          "name": "_nonce",
          "type": "uint64"
        },
        {
          "internalType": "bytes",
          "name": "_payload",
          "type": "bytes"
        }
      ],
      "name": "lzReceive",
      "outputs": [],
      "stateMutability": "nonpayable",
      "type": "function"
    },
    {
      "inputs": [
        {
          "internalType": "uint16",
          "name": "",
          "type": "uint16"
        },
        {
          "internalType": "uint16",
          "name": "",
          "type": "uint16"
        }
      ],
      "name": "minDstGasLookup",
      "outputs": [
        {
          "internalType": "uint256",
          "name": "",
          "type": "uint256"
        }
      ],
      "stateMutability": "view",
      "type": "function"
    },
    {
      "inputs": [
        {
          "internalType": "uint16",
          "name": "_srcChainId",
          "type": "uint16"
        },
        {
          "internalType": "bytes",
          "name": "_srcAddress",
          "type": "bytes"
        },
        {
          "internalType": "uint64",
          "name": "_nonce",
          "type": "uint64"
        },
        {
          "internalType": "bytes",
          "name": "_payload",
          "type": "bytes"
        }
      ],
      "name": "nonblockingLzReceive",
      "outputs": [],
      "stateMutability": "nonpayable",
      "type": "function"
    },
    {
      "inputs": [],
      "name": "owner",
      "outputs": [
        {
          "internalType": "address",
          "name": "",
          "type": "address"
        }
      ],
      "stateMutability": "view",
      "type": "function"
    },
    {
      "inputs": [],
      "name": "precrime",
      "outputs": [
        {
          "internalType": "address",
          "name": "",
          "type": "address"
        }
      ],
      "stateMutability": "view",
      "type": "function"
    },
    {
      "inputs": [],
      "name": "renounceOwnership",
      "outputs": [],
      "stateMutability": "nonpayable",
      "type": "function"
    },
    {
      "inputs": [
        {
          "internalType": "uint16",
          "name": "_srcChainId",
          "type": "uint16"
        },
        {
          "internalType": "bytes",
          "name": "_srcAddress",
          "type": "bytes"
        },
        {
          "internalType": "uint64",
          "name": "_nonce",
          "type": "uint64"
        },
        {
          "internalType": "bytes",
          "name": "_payload",
          "type": "bytes"
        }
      ],
      "name": "retryMessage",
      "outputs": [],
      "stateMutability": "payable",
      "type": "function"
    },
    {
      "inputs": [
        {
          "internalType": "address",
          "name": "_from",
          "type": "address"
        },
        {
          "internalType": "uint16",
          "name": "_dstChainId",
          "type": "uint16"
        },
        {
          "internalType": "bytes",
          "name": "_toAddress",
          "type": "bytes"
        },
        {
          "internalType": "uint256",
          "name": "_amount",
          "type": "uint256"
        },
        {
          "internalType": "address payable",
          "name": "_refundAddress",
          "type": "address"
        },
        {
          "internalType": "address",
          "name": "_zroPaymentAddress",
          "type": "address"
        },
        {
          "internalType": "bytes",
          "name": "_adapterParams",
          "type": "bytes"
        },
        {
          "internalType": "bytes",
          "name": "_payload",
          "type": "bytes"
        }
      ],
      "name": "sendFrom",
      "outputs": [],
      "stateMutability": "payable",
      "type": "function"
    },
    {
      "inputs": [
        {
          "internalType": "uint16",
          "name": "_version",
          "type": "uint16"
        },
        {
          "internalType": "uint16",
          "name": "_chainId",
          "type": "uint16"
        },
        {
          "internalType": "uint256",
          "name": "_configType",
          "type": "uint256"
        },
        {
          "internalType": "bytes",
          "name": "_config",
          "type": "bytes"
        }
      ],
      "name": "setConfig",
      "outputs": [],
      "stateMutability": "nonpayable",
      "type": "function"
    },
    {
      "inputs": [
        {
          "internalType": "uint16",
          "name": "_dstChainId",
          "type": "uint16"
        },
        {
          "internalType": "uint16",
          "name": "_packetType",
          "type": "uint16"
        },
        {
          "internalType": "uint256",
          "name": "_minGas",
          "type": "uint256"
        }
      ],
      "name": "setMinDstGas",
      "outputs": [],
      "stateMutability": "nonpayable",
      "type": "function"
    },
    {
      "inputs": [
        {
          "internalType": "address",
          "name": "_precrime",
          "type": "address"
        }
      ],
      "name": "setPrecrime",
      "outputs": [],
      "stateMutability": "nonpayable",
      "type": "function"
    },
    {
      "inputs": [
        {
          "internalType": "uint16",
          "name": "_version",
          "type": "uint16"
        }
      ],
      "name": "setReceiveVersion",
      "outputs": [],
      "stateMutability": "nonpayable",
      "type": "function"
    },
    {
      "inputs": [
        {
          "internalType": "uint16",
          "name": "_version",
          "type": "uint16"
        }
      ],
      "name": "setSendVersion",
      "outputs": [],
      "stateMutability": "nonpayable",
      "type": "function"
    },
    {
      "inputs": [
        {
          "internalType": "uint16",
          "name": "_srcChainId",
          "type": "uint16"
        },
        {
          "internalType": "bytes",
          "name": "_path",
          "type": "bytes"
        }
      ],
      "name": "setTrustedRemote",
      "outputs": [],
      "stateMutability": "nonpayable",
      "type": "function"
    },
    {
      "inputs": [
        {
          "internalType": "uint16",
          "name": "_remoteChainId",
          "type": "uint16"
        },
        {
          "internalType": "bytes",
          "name": "_remoteAddress",
          "type": "bytes"
        }
      ],
      "name": "setTrustedRemoteAddress",
      "outputs": [],
      "stateMutability": "nonpayable",
      "type": "function"
    },
    {
      "inputs": [
        {
          "internalType": "bytes4",
          "name": "interfaceId",
          "type": "bytes4"
        }
      ],
      "name": "supportsInterface",
      "outputs": [
        {
          "internalType": "bool",
          "name": "",
          "type": "bool"
        }
      ],
      "stateMutability": "view",
      "type": "function"
    },
    {
      "inputs": [],
      "name": "token",
      "outputs": [
        {
          "internalType": "contract IERC20",
          "name": "",
          "type": "address"
        }
      ],
      "stateMutability": "view",
      "type": "function"
    },
    {
      "inputs": [
        {
          "internalType": "address",
          "name": "newOwner",
          "type": "address"
        }
      ],
      "name": "transferOwnership",
      "outputs": [],
      "stateMutability": "nonpayable",
      "type": "function"
    },
    {
      "inputs": [
        {
          "internalType": "uint16",
          "name": "",
          "type": "uint16"
        }
      ],
      "name": "trustedRemoteLookup",
      "outputs": [
        {
          "internalType": "bytes",
          "name": "",
          "type": "bytes"
        }
      ],
      "stateMutability": "view",
      "type": "function"
    }
  ],
  "bytecode": {
    "object": "0x60c06040523480156200001157600080fd5b5060405162002c8f38038062002c8f8339810160408190526200003491620000ce565b818080620000423362000061565b6001600160a01b039081166080529290921660a0525062000106915050565b600080546001600160a01b038381166001600160a01b0319831681178455604051919092169283917f8be0079c531659141344cd1fd0a4f28419497f9722a3daafe3b4186f6b6457e09190a35050565b80516001600160a01b0381168114620000c957600080fd5b919050565b60008060408385031215620000e257600080fd5b620000ed83620000b1565b9150620000fd60208401620000b1565b90509250929050565b60805160a051612b08620001876000396000818161057601528181610c4301528181610cb8015281816119120152611ae101526000818161046f0152818161059b01528181610821015281816108c5015281816109e701528181610af001528181610f580152818161132a0152818161155b0152611a580152612b086000f3fe60806040526004361061019b5760003560e01c80638ee74912116100ec578063cbed8b9c1161008a578063eb8d72b711610064578063eb8d72b714610504578063f2fde38b14610524578063f5ecbdbc14610544578063fc0c546a1461056457600080fd5b8063cbed8b9c146104b1578063d1deba1f146104d1578063df2a5b3b146104e457600080fd5b80639f38369a116100c65780639f38369a1461041d578063a6c3d1651461043d578063b353aaa71461045d578063baf3292d1461049157600080fd5b80638ee74912146103995780639358928b146103e8578063950c8a74146103fd57600080fd5b806342d65a8d11610159578063715018a611610133578063715018a6146102df5780637533d788146102f45780638cfd8f5c146103215780638da5cb5b1461036757600080fd5b806342d65a8d1461026a57806366ad5c8a1461028a5780636f770790146102aa57600080fd5b80621d3567146101a057806301ffc9a7146101c257806307e0db17146101f75780630e5061921461021757806310ddb1371461022a5780633d8b38f61461024a575b600080fd5b3480156101ac57600080fd5b506101c06101bb366004611e11565b610598565b005b3480156101ce57600080fd5b506101e26101dd366004611ea5565b6107c9565b60405190151581526020015b60405180910390f35b34801561020357600080fd5b506101c0610212366004611ecf565b610800565b6101c0610225366004611fcd565b610889565b34801561023657600080fd5b506101c0610245366004611ecf565b6108a4565b34801561025657600080fd5b506101e26102653660046120a1565b6108fc565b34801561027657600080fd5b506101c06102853660046120a1565b6109c8565b34801561029657600080fd5b506101c06102a53660046120f3565b610a4e565b3480156102b657600080fd5b506102ca6102c5366004612189565b610aaf565b604080519283526020830191909152016101ee565b3480156102eb57600080fd5b506101c0610b7d565b34801561030057600080fd5b5061031461030f366004611ecf565b610b91565b6040516101ee919061228e565b34801561032d57600080fd5b5061035961033c3660046122a1565b600260209081526000928352604080842090915290825290205481565b6040519081526020016101ee565b34801561037357600080fd5b506000546001600160a01b03165b6040516001600160a01b0390911681526020016101ee565b3480156103a557600080fd5b506103596103b43660046122d4565b6004602090815260009384526040808520845180860184018051928152908401958401959095209452929052825290205481565b3480156103f457600080fd5b50610359610c2b565b34801561040957600080fd5b50600354610381906001600160a01b031681565b34801561042957600080fd5b50610314610438366004611ecf565b610d3e565b34801561044957600080fd5b506101c06104583660046120a1565b610e54565b34801561046957600080fd5b506103817f000000000000000000000000000000000000000000000000000000000000000081565b34801561049d57600080fd5b506101c06104ac36600461232a565b610edd565b3480156104bd57600080fd5b506101c06104cc366004612347565b610f39565b6101c06104df3660046123b5565b610fce565b3480156104f057600080fd5b506101c06104ff366004612433565b611174565b34801561051057600080fd5b506101c061051f3660046120a1565b611226565b34801561053057600080fd5b506101c061053f36600461232a565b611280565b34801561055057600080fd5b5061031461055f36600461246f565b6112f9565b34801561057057600080fd5b506103817f000000000000000000000000000000000000000000000000000000000000000081565b337f00000000000000000000000000000000000000000000000000000000000000006001600160a01b0316146106155760405162461bcd60e51b815260206004820152601e60248201527f4c7a4170703a20696e76616c696420656e64706f696e742063616c6c6572000060448201526064015b60405180910390fd5b61ffff861660009081526001602052604081208054610633906124bc565b80601f016020809104026020016040519081016040528092919081815260200182805461065f906124bc565b80156106ac5780601f10610681576101008083540402835291602001916106ac565b820191906000526020600020905b81548152906001019060200180831161068f57829003601f168201915b505050505090508051868690501480156106c7575060008151115b80156106ef5750805160208201206040516106e590889088906124f6565b6040518091039020145b61074a5760405162461bcd60e51b815260206004820152602660248201527f4c7a4170703a20696e76616c696420736f757263652073656e64696e6720636f6044820152651b9d1c9858dd60d21b606482015260840161060c565b6107c08787878080601f01602080910402602001604051908101604052809392919081815260200183838082843760009201919091525050604080516020601f8a018190048102820181019092528881528a9350915088908890819084018382808284376000920191909152506113ac92505050565b50505050505050565b60006001600160e01b0319821663f27ff48960e01b14806107fa57506301ffc9a760e01b6001600160e01b03198316145b92915050565b61080861149d565b6040516307e0db1760e01b815261ffff821660048201527f00000000000000000000000000000000000000000000000000000000000000006001600160a01b0316906307e0db17906024015b600060405180830381600087803b15801561086e57600080fd5b505af1158015610882573d6000803e3d6000fd5b5050505050565b61089a8888888888888888346114f7565b5050505050505050565b6108ac61149d565b6040516310ddb13760e01b815261ffff821660048201527f00000000000000000000000000000000000000000000000000000000000000006001600160a01b0316906310ddb13790602401610854565b61ffff83166000908152600160205260408120805482919061091d906124bc565b80601f0160208091040260200160405190810160405280929190818152602001828054610949906124bc565b80156109965780601f1061096b57610100808354040283529160200191610996565b820191906000526020600020905b81548152906001019060200180831161097957829003601f168201915b5050505050905083836040516109ad9291906124f6565b60405180910390208180519060200120149150509392505050565b6109d061149d565b6040516342d65a8d60e01b81526001600160a01b037f000000000000000000000000000000000000000000000000000000000000000016906342d65a8d90610a209086908690869060040161252f565b600060405180830381600087803b158015610a3a57600080fd5b505af11580156107c0573d6000803e3d6000fd5b333014610a9d5760405162461bcd60e51b815260206004820181905260248201527f4c7a52656365697665723a2063616c6c6572206d757374206265204c7a417070604482015260640161060c565b610aa984848484611644565b50505050565b6000806000878785604051602001610ac99392919061254d565b60408051601f198184030181529082905263040a7bb160e41b825291506001600160a01b037f000000000000000000000000000000000000000000000000000000000000000016906340a7bb1090610b2d908c90309086908c908c90600401612582565b6040805180830381865afa158015610b49573d6000803e3d6000fd5b505050506040513d601f19601f82011682018060405250810190610b6d91906125d6565b9250925050965096945050505050565b610b8561149d565b610b8f6000611745565b565b60016020526000908152604090208054610baa906124bc565b80601f0160208091040260200160405190810160405280929190818152602001828054610bd6906124bc565b8015610c235780601f10610bf857610100808354040283529160200191610c23565b820191906000526020600020905b815481529060010190602001808311610c0657829003601f168201915b505050505081565b6040516370a0823160e01b81523060048201526000907f00000000000000000000000000000000000000000000000000000000000000006001600160a01b0316906370a0823190602401602060405180830381865afa158015610c92573d6000803e3d6000fd5b505050506040513d601f19601f82011682018060405250810190610cb691906125fa565b7f00000000000000000000000000000000000000000000000000000000000000006001600160a01b03166318160ddd6040518163ffffffff1660e01b8152600401602060405180830381865afa158015610d14573d6000803e3d6000fd5b505050506040513d601f19601f82011682018060405250810190610d3891906125fa565b03905090565b61ffff8116600090815260016020526040812080546060929190610d61906124bc565b80601f0160208091040260200160405190810160405280929190818152602001828054610d8d906124bc565b8015610dda5780601f10610daf57610100808354040283529160200191610dda565b820191906000526020600020905b815481529060010190602001808311610dbd57829003601f168201915b505050505090508051600003610e325760405162461bcd60e51b815260206004820152601d60248201527f4c7a4170703a206e6f20747275737465642070617468207265636f7264000000604482015260640161060c565b610e4d600060148351610e459190612629565b839190611795565b9392505050565b610e5c61149d565b818130604051602001610e719392919061263c565b60408051601f1981840301815291815261ffff8516600090815260016020522090610e9c90826126b0565b507f8c0400cfe2d1199b1a725c78960bcc2a344d869b80590d0f2bd005db15a572ce838383604051610ed09392919061252f565b60405180910390a1505050565b610ee561149d565b600380546001600160a01b0319166001600160a01b0383169081179091556040519081527f5db758e995a17ec1ad84bdef7e8c3293a0bd6179bcce400dff5d4c3d87db726b9060200160405180910390a150565b610f4161149d565b6040516332fb62e760e21b81526001600160a01b037f0000000000000000000000000000000000000000000000000000000000000000169063cbed8b9c90610f95908890889088908890889060040161276f565b600060405180830381600087803b158015610faf57600080fd5b505af1158015610fc3573d6000803e3d6000fd5b505050505050505050565b61ffff85166000908152600460205260408082209051610fef90879061279d565b90815260408051602092819003830190206001600160401b038716600090815292529020549050806110635760405162461bcd60e51b815260206004820152601d60248201527f4c7a52656365697665723a206e6f2073746f726564206d657373616765000000604482015260640161060c565b8083836040516110749291906124f6565b6040518091039020146110c95760405162461bcd60e51b815260206004820152601b60248201527f4c7a52656365697665723a20696e76616c6964207061796c6f61640000000000604482015260640161060c565b61ffff861660009081526004602052604080822090516110ea90889061279d565b9081526040805191829003602090810183206001600160401b038916600090815291522091909155633356ae4560e11b815230906366ad5c8a9061113a90899089908990899089906004016127b9565b600060405180830381600087803b15801561115457600080fd5b505af1158015611168573d6000803e3d6000fd5b50505050505050505050565b61117c61149d565b600081116111c45760405162461bcd60e51b81526020600482015260156024820152744c7a4170703a20696e76616c6964206d696e47617360581b604482015260640161060c565b61ffff83811660008181526002602090815260408083209487168084529482529182902085905581519283528201929092529081018290527f9d5c7c0b934da8fefa9c7760c98383778a12dfbfc0c3b3106518f43fb9508ac090606001610ed0565b61122e61149d565b61ffff8316600090815260016020526040902061124c8284836127f8565b507ffa41487ad5d6728f0b19276fa1eddc16558578f5109fc39d2dc33c3230470dab838383604051610ed09392919061252f565b61128861149d565b6001600160a01b0381166112ed5760405162461bcd60e51b815260206004820152602660248201527f4f776e61626c653a206e6577206f776e657220697320746865207a65726f206160448201526564647265737360d01b606482015260840161060c565b6112f681611745565b50565b604051633d7b2f6f60e21b815261ffff808616600483015284166024820152306044820152606481018290526060907f00000000000000000000000000000000000000000000000000000000000000006001600160a01b03169063f5ecbdbc90608401600060405180830381865afa158015611379573d6000803e3d6000fd5b505050506040513d6000823e601f3d908101601f191682016040526113a191908101906128fc565b90505b949350505050565b604051633356ae4560e11b815230906366ad5c8a906113d5908790879087908790600401612930565b600060405180830381600087803b1580156113ef57600080fd5b505af1925050508015611400575060015b610aa9578080519060200120600460008661ffff1661ffff16815260200190815260200160002084604051611435919061279d565b9081526040805191829003602090810183206001600160401b0387166000908152915220919091557fe6f254030bcb01ffd20558175c13fcaed6d1520be7becee4c961b65f79243b0d90611490908690869086908690612930565b60405180910390a1610aa9565b6000546001600160a01b03163314610b8f5760405162461bcd60e51b815260206004820181905260248201527f4f776e61626c653a2063616c6c6572206973206e6f7420746865206f776e6572604482015260640161060c565b611503898989896118a2565b600087878460405160200161151a9392919061254d565b604051602081830303815290604052905061153989828888888761193a565b604051630f428ae960e31b815261ffff8a1660048201523060248201526000907f00000000000000000000000000000000000000000000000000000000000000006001600160a01b031690637a14574890604401602060405180830381865afa1580156115aa573d6000803e3d6000fd5b505050506040513d601f19601f820116820180604052508101906115ce919061296e565b9050886040516115de919061279d565b604080519182900382208a83526001600160401b03841660208401529161ffff8d16916001600160a01b038f16917f024797cc77ce15dc717112d54fb1df125fdfd8c81344fb046c5e074427ce1543910160405180910390a45050505050505050505050565b60008060008380602001905181019061165d919061298b565b60148301519295509093509150611675888285611ad4565b6040516331d97a6560e21b81526001600160a01b0382169063c765e994906116a9908b908b908b90899089906004016129f7565b600060405180830381600087803b1580156116c357600080fd5b505af19250505080156116d4575060015b50806001600160a01b0316876040516116ed919061279d565b604080519182900382208683526001600160401b038a1660208401529161ffff8c16917f64e10c37f404d128982dce114f5d233c14c5c7f6d8db93099e3d99dacb9e27ba910160405180910390a45050505050505050565b600080546001600160a01b038381166001600160a01b0319831681178455604051919092169283917f8be0079c531659141344cd1fd0a4f28419497f9722a3daafe3b4186f6b6457e09190a35050565b6060816117a381601f612a3b565b10156117e25760405162461bcd60e51b815260206004820152600e60248201526d736c6963655f6f766572666c6f7760901b604482015260640161060c565b6117ec8284612a3b565b845110156118305760405162461bcd60e51b8152602060048201526011602482015270736c6963655f6f75744f66426f756e647360781b604482015260640161060c565b60608215801561184f5760405191506000825260208201604052611899565b6040519150601f8416801560200281840101858101878315602002848b0101015b81831015611888578051835260209283019201611870565b5050858452601f01601f1916604052505b50949350505050565b6001600160a01b03841633146119055760405162461bcd60e51b815260206004820152602260248201527f50726f78794f46543a206f776e6572206973206e6f742073656e642063616c6c60448201526132b960f11b606482015260840161060c565b610aa96001600160a01b037f000000000000000000000000000000000000000000000000000000000000000016853084611b0d565b61ffff861660009081526001602052604081208054611958906124bc565b80601f0160208091040260200160405190810160405280929190818152602001828054611984906124bc565b80156119d15780601f106119a6576101008083540402835291602001916119d1565b820191906000526020600020905b8154815290600101906020018083116119b457829003601f168201915b505050505090508051600003611a425760405162461bcd60e51b815260206004820152603060248201527f4c7a4170703a2064657374696e6174696f6e20636861696e206973206e6f742060448201526f61207472757374656420736f7572636560801b606482015260840161060c565b60405162c5803160e81b81526001600160a01b037f0000000000000000000000000000000000000000000000000000000000000000169063c5803100908490611a99908b9086908c908c908c908c90600401612a4e565b6000604051808303818588803b158015611ab257600080fd5b505af1158015611ac6573d6000803e3d6000fd5b505050505050505050505050565b611b086001600160a01b037f0000000000000000000000000000000000000000000000000000000000000000168383611b78565b505050565b6040516001600160a01b0380851660248301528316604482015260648101829052610aa99085906323b872dd60e01b906084015b60408051601f198184030181529190526020810180516001600160e01b03166001600160e01b031990931692909217909152611ba8565b6040516001600160a01b038316602482015260448101829052611b0890849063a9059cbb60e01b90606401611b41565b6000611bfd826040518060400160405280602081526020017f5361666545524332303a206c6f772d6c6576656c2063616c6c206661696c6564815250856001600160a01b0316611c7a9092919063ffffffff16565b805190915015611b085780806020019051810190611c1b9190612ab5565b611b085760405162461bcd60e51b815260206004820152602a60248201527f5361666545524332303a204552433230206f7065726174696f6e20646964206e6044820152691bdd081cdd58d8d9595960b21b606482015260840161060c565b60606113a4848460008585600080866001600160a01b03168587604051611ca1919061279d565b60006040518083038185875af1925050503d8060008114611cde576040519150601f19603f3d011682016040523d82523d6000602084013e611ce3565b606091505b5091509150611cf487838387611cff565b979650505050505050565b60608315611d6e578251600003611d67576001600160a01b0385163b611d675760405162461bcd60e51b815260206004820152601d60248201527f416464726573733a2063616c6c20746f206e6f6e2d636f6e7472616374000000604482015260640161060c565b50816113a4565b6113a48383815115611d835781518083602001fd5b8060405162461bcd60e51b815260040161060c919061228e565b803561ffff81168114611daf57600080fd5b919050565b60008083601f840112611dc657600080fd5b5081356001600160401b03811115611ddd57600080fd5b602083019150836020828501011115611df557600080fd5b9250929050565b6001600160401b03811681146112f657600080fd5b60008060008060008060808789031215611e2a57600080fd5b611e3387611d9d565b955060208701356001600160401b0380821115611e4f57600080fd5b611e5b8a838b01611db4565b909750955060408901359150611e7082611dfc565b90935060608801359080821115611e8657600080fd5b50611e9389828a01611db4565b979a9699509497509295939492505050565b600060208284031215611eb757600080fd5b81356001600160e01b031981168114610e4d57600080fd5b600060208284031215611ee157600080fd5b610e4d82611d9d565b6001600160a01b03811681146112f657600080fd5b8035611daf81611eea565b634e487b7160e01b600052604160045260246000fd5b604051601f8201601f191681016001600160401b0381118282101715611f4857611f48611f0a565b604052919050565b60006001600160401b03821115611f6957611f69611f0a565b50601f01601f191660200190565b600082601f830112611f8857600080fd5b8135611f9b611f9682611f50565b611f20565b818152846020838601011115611fb057600080fd5b816020850160208301376000918101602001919091529392505050565b600080600080600080600080610100898b031215611fea57600080fd5b611ff389611eff565b975061200160208a01611d9d565b965060408901356001600160401b038082111561201d57600080fd5b6120298c838d01611f77565b975060608b0135965061203e60808c01611eff565b955061204c60a08c01611eff565b945060c08b013591508082111561206257600080fd5b61206e8c838d01611f77565b935060e08b013591508082111561208457600080fd5b506120918b828c01611f77565b9150509295985092959890939650565b6000806000604084860312156120b657600080fd5b6120bf84611d9d565b925060208401356001600160401b038111156120da57600080fd5b6120e686828701611db4565b9497909650939450505050565b6000806000806080858703121561210957600080fd5b61211285611d9d565b935060208501356001600160401b038082111561212e57600080fd5b61213a88838901611f77565b94506040870135915061214c82611dfc565b9092506060860135908082111561216257600080fd5b5061216f87828801611f77565b91505092959194509250565b80151581146112f657600080fd5b60008060008060008060c087890312156121a257600080fd5b6121ab87611d9d565b955060208701356001600160401b03808211156121c757600080fd5b6121d38a838b01611f77565b965060408901359550606089013591506121ec8261217b565b9093506080880135908082111561220257600080fd5b61220e8a838b01611f77565b935060a089013591508082111561222457600080fd5b5061223189828a01611f77565b9150509295509295509295565b60005b83811015612259578181015183820152602001612241565b50506000910152565b6000815180845261227a81602086016020860161223e565b601f01601f19169290920160200192915050565b602081526000610e4d6020830184612262565b600080604083850312156122b457600080fd5b6122bd83611d9d565b91506122cb60208401611d9d565b90509250929050565b6000806000606084860312156122e957600080fd5b6122f284611d9d565b925060208401356001600160401b0381111561230d57600080fd5b61231986828701611f77565b925050604084013590509250925092565b60006020828403121561233c57600080fd5b8135610e4d81611eea565b60008060008060006080868803121561235f57600080fd5b61236886611d9d565b945061237660208701611d9d565b93506040860135925060608601356001600160401b0381111561239857600080fd5b6123a488828901611db4565b969995985093965092949392505050565b6000806000806000608086880312156123cd57600080fd5b6123d686611d9d565b945060208601356001600160401b03808211156123f257600080fd5b6123fe89838a01611f77565b95506040880135915061241082611dfc565b9093506060870135908082111561242657600080fd5b506123a488828901611db4565b60008060006060848603121561244857600080fd5b61245184611d9d565b925061245f60208501611d9d565b9150604084013590509250925092565b6000806000806080858703121561248557600080fd5b61248e85611d9d565b935061249c60208601611d9d565b925060408501356124ac81611eea565b9396929550929360600135925050565b600181811c908216806124d057607f821691505b6020821081036124f057634e487b7160e01b600052602260045260246000fd5b50919050565b8183823760009101908152919050565b81835281816020850137506000828201602090810191909152601f909101601f19169091010190565b61ffff841681526040602082015260006113a1604083018486612506565b6060815260006125606060830186612262565b84602084015282810360408401526125788185612262565b9695505050505050565b61ffff861681526001600160a01b038516602082015260a0604082018190526000906125b090830186612262565b841515606084015282810360808401526125ca8185612262565b98975050505050505050565b600080604083850312156125e957600080fd5b505080516020909101519092909150565b60006020828403121561260c57600080fd5b5051919050565b634e487b7160e01b600052601160045260246000fd5b818103818111156107fa576107fa612613565b8284823760609190911b6bffffffffffffffffffffffff19169101908152601401919050565b601f821115611b0857600081815260208120601f850160051c810160208610156126895750805b601f850160051c820191505b818110156126a857828155600101612695565b505050505050565b81516001600160401b038111156126c9576126c9611f0a565b6126dd816126d784546124bc565b84612662565b602080601f83116001811461271257600084156126fa5750858301515b600019600386901b1c1916600185901b1785556126a8565b600085815260208120601f198616915b8281101561274157888601518255948401946001909101908401612722565b508582101561275f5787850151600019600388901b60f8161c191681555b5050505050600190811b01905550565b600061ffff808816835280871660208401525084604083015260806060830152611cf4608083018486612506565b600082516127af81846020870161223e565b9190910192915050565b61ffff861681526080602082015260006127d66080830187612262565b6001600160401b038616604084015282810360608401526125ca818587612506565b6001600160401b0383111561280f5761280f611f0a565b6128238361281d83546124bc565b83612662565b6000601f841160018114612857576000851561283f5750838201355b600019600387901b1c1916600186901b178355610882565b600083815260209020601f19861690835b828110156128885786850135825560209485019460019092019101612868565b50868210156128a55760001960f88860031b161c19848701351681555b505060018560011b0183555050505050565b600082601f8301126128c857600080fd5b81516128d6611f9682611f50565b8181528460208386010111156128eb57600080fd5b6113a482602083016020870161223e565b60006020828403121561290e57600080fd5b81516001600160401b0381111561292457600080fd5b6113a4848285016128b7565b61ffff8516815260806020820152600061294d6080830186612262565b6001600160401b03851660408401528281036060840152611cf48185612262565b60006020828403121561298057600080fd5b8151610e4d81611dfc565b6000806000606084860312156129a057600080fd5b83516001600160401b03808211156129b757600080fd5b6129c3878388016128b7565b94506020860151935060408601519150808211156129e057600080fd5b506129ed868287016128b7565b9150509250925092565b61ffff8616815260a060208201526000612a1460a0830187612262565b6001600160401b038616604084015284606084015282810360808401526125ca8185612262565b808201808211156107fa576107fa612613565b61ffff8716815260c060208201526000612a6b60c0830188612262565b8281036040840152612a7d8188612262565b6001600160a01b0387811660608601528616608085015283810360a08501529050612aa88185612262565b9998505050505050505050565b600060208284031215612ac757600080fd5b8151610e4d8161217b56fea2646970667358221220d11b3fbe32d1225afec1dd2ba29accca9fe16715ac69914b6cc53ba4acc1cdba64736f6c63430008110033",
    "linkReferences": {}
  },
  "methodIdentifiers": {
    "circulatingSupply()": "9358928b",
    "estimateSendFee(uint16,bytes,uint256,bool,bytes,bytes)": "6f770790",
    "failedMessages(uint16,bytes,uint256)": "8ee74912",
    "forceResumeReceive(uint16,bytes)": "42d65a8d",
    "getConfig(uint16,uint16,address,uint256)": "f5ecbdbc",
    "getTrustedRemoteAddress(uint16)": "9f38369a",
    "isTrustedRemote(uint16,bytes)": "3d8b38f6",
    "lzEndpoint()": "b353aaa7",
    "lzReceive(uint16,bytes,uint64,bytes)": "001d3567",
    "minDstGasLookup(uint16,uint16)": "8cfd8f5c",
    "nonblockingLzReceive(uint16,bytes,uint64,bytes)": "66ad5c8a",
    "owner()": "8da5cb5b",
    "precrime()": "950c8a74",
    "renounceOwnership()": "715018a6",
    "retryMessage(uint16,bytes,uint64,bytes)": "d1deba1f",
    "sendFrom(address,uint16,bytes,uint256,address,address,bytes,bytes)": "0e506192",
    "setConfig(uint16,uint16,uint256,bytes)": "cbed8b9c",
    "setMinDstGas(uint16,uint16,uint256)": "df2a5b3b",
    "setPrecrime(address)": "baf3292d",
    "setReceiveVersion(uint16)": "10ddb137",
    "setSendVersion(uint16)": "07e0db17",
    "setTrustedRemote(uint16,bytes)": "eb8d72b7",
    "setTrustedRemoteAddress(uint16,bytes)": "a6c3d165",
    "supportsInterface(bytes4)": "01ffc9a7",
    "token()": "fc0c546a",
    "transferOwnership(address)": "f2fde38b",
    "trustedRemoteLookup(uint16)": "7533d788"
  },
  "id": 83
}