{
  "address": "0xc375C320Cae7B874Cb54a46F7158BBfB09Bbf879",
  "abi": [
    {
      "inputs": [
        {
          "internalType": "string",
          "name": "_name",
          "type": "string"
        },
        {
          "internalType": "string",
          "name": "_symbol",
          "type": "string"
        },
        {
          "internalType": "address",
          "name": "_layerZeroEndpoint",
          "type": "address"
        },
        {
          "internalType": "uint256",
          "name": "_startMintId",
          "type": "uint256"
        },
        {
          "internalType": "uint256",
          "name": "_endMintId",
          "type": "uint256"
        },
        {
          "internalType": "uint256",
          "name": "_maxTokensPerMint",
          "type": "uint256"
        },
        {
          "internalType": "string",
          "name": "_baseTokenURI",
          "type": "string"
        },
        {
          "internalType": "string",
          "name": "_hiddenURI",
          "type": "string"
        },
        {
          "internalType": "address",
          "name": "_stableToken",
          "type": "address"
        }
      ],
      "stateMutability": "nonpayable",
      "type": "constructor"
    },
    {
      "anonymous": false,
      "inputs": [
        {
          "indexed": true,
          "internalType": "address",
          "name": "owner",
          "type": "address"
        },
        {
          "indexed": true,
          "internalType": "address",
          "name": "approved",
          "type": "address"
        },
        {
          "indexed": true,
          "internalType": "uint256",
          "name": "tokenId",
          "type": "uint256"
        }
      ],
      "name": "Approval",
      "type": "event"
    },
    {
      "anonymous": false,
      "inputs": [
        {
          "indexed": true,
          "internalType": "address",
          "name": "owner",
          "type": "address"
        },
        {
          "indexed": true,
          "internalType": "address",
          "name": "operator",
          "type": "address"
        },
        {
          "indexed": false,
          "internalType": "bool",
          "name": "approved",
          "type": "bool"
        }
      ],
      "name": "ApprovalForAll",
      "type": "event"
    },
    {
      "anonymous": false,
      "inputs": [
        {
          "indexed": false,
          "internalType": "uint16",
          "name": "_srcChainId",
          "type": "uint16"
        },
        {
          "indexed": false,
          "internalType": "bytes",
          "name": "_srcAddress",
          "type": "bytes"
        },
        {
          "indexed": false,
          "internalType": "uint64",
          "name": "_nonce",
          "type": "uint64"
        },
        {
          "indexed": false,
          "internalType": "bytes",
          "name": "_payload",
          "type": "bytes"
        }
      ],
      "name": "MessageFailed",
      "type": "event"
    },
    {
      "anonymous": false,
      "inputs": [
        {
          "indexed": true,
          "internalType": "address",
          "name": "previousOwner",
          "type": "address"
        },
        {
          "indexed": true,
          "internalType": "address",
          "name": "newOwner",
          "type": "address"
        }
      ],
      "name": "OwnershipTransferred",
      "type": "event"
    },
    {
      "anonymous": false,
      "inputs": [
        {
          "indexed": true,
          "internalType": "uint16",
          "name": "_srcChainId",
          "type": "uint16"
        },
        {
          "indexed": true,
          "internalType": "bytes",
          "name": "_srcAddress",
          "type": "bytes"
        },
        {
          "indexed": true,
          "internalType": "address",
          "name": "_toAddress",
          "type": "address"
        },
        {
          "indexed": false,
          "internalType": "uint256",
          "name": "_tokenId",
          "type": "uint256"
        },
        {
          "indexed": false,
          "internalType": "uint64",
          "name": "_nonce",
          "type": "uint64"
        }
      ],
      "name": "ReceiveFromChain",
      "type": "event"
    },
    {
      "anonymous": false,
      "inputs": [
        {
          "indexed": true,
          "internalType": "address",
          "name": "_sender",
          "type": "address"
        },
        {
          "indexed": true,
          "internalType": "uint16",
          "name": "_dstChainId",
          "type": "uint16"
        },
        {
          "indexed": true,
          "internalType": "bytes",
          "name": "_toAddress",
          "type": "bytes"
        },
        {
          "indexed": false,
          "internalType": "uint256",
          "name": "_tokenId",
          "type": "uint256"
        },
        {
          "indexed": false,
          "internalType": "uint64",
          "name": "_nonce",
          "type": "uint64"
        }
      ],
      "name": "SendToChain",
      "type": "event"
    },
    {
      "anonymous": false,
      "inputs": [
        {
          "indexed": false,
          "internalType": "uint16",
          "name": "_srcChainId",
          "type": "uint16"
        },
        {
          "indexed": false,
          "internalType": "bytes",
          "name": "_srcAddress",
          "type": "bytes"
        }
      ],
      "name": "SetTrustedRemote",
      "type": "event"
    },
    {
      "anonymous": false,
      "inputs": [
        {
          "indexed": true,
          "internalType": "address",
          "name": "from",
          "type": "address"
        },
        {
          "indexed": true,
          "internalType": "address",
          "name": "to",
          "type": "address"
        },
        {
          "indexed": true,
          "internalType": "uint256",
          "name": "tokenId",
          "type": "uint256"
        }
      ],
      "name": "Transfer",
      "type": "event"
    },
    {
      "inputs": [
        {
          "internalType": "address",
          "name": "",
          "type": "address"
        }
      ],
      "name": "_boughtCount",
      "outputs": [
        {
          "internalType": "uint256",
          "name": "",
          "type": "uint256"
        }
      ],
      "stateMutability": "view",
      "type": "function"
    },
    {
      "inputs": [],
      "name": "_publicSaleStarted",
      "outputs": [
        {
          "internalType": "bool",
          "name": "",
          "type": "bool"
        }
      ],
      "stateMutability": "view",
      "type": "function"
    },
    {
      "inputs": [],
      "name": "_saleStarted",
      "outputs": [
        {
          "internalType": "bool",
          "name": "",
          "type": "bool"
        }
      ],
      "stateMutability": "view",
      "type": "function"
    },
    {
      "inputs": [
        {
          "internalType": "address",
          "name": "to",
          "type": "address"
        },
        {
          "internalType": "uint256",
          "name": "tokenId",
          "type": "uint256"
        }
      ],
      "name": "approve",
      "outputs": [],
      "stateMutability": "nonpayable",
      "type": "function"
    },
    {
      "inputs": [
        {
          "internalType": "address",
          "name": "owner",
          "type": "address"
        }
      ],
      "name": "balanceOf",
      "outputs": [
        {
          "internalType": "uint256",
          "name": "",
          "type": "uint256"
        }
      ],
      "stateMutability": "view",
      "type": "function"
    },
    {
      "inputs": [],
      "name": "contractURI",
      "outputs": [
        {
          "internalType": "string",
          "name": "",
          "type": "string"
        }
      ],
      "stateMutability": "view",
      "type": "function"
    },
    {
      "inputs": [
        {
          "internalType": "uint16",
          "name": "_dstChainId",
          "type": "uint16"
        },
        {
          "internalType": "bytes",
          "name": "_toAddress",
          "type": "bytes"
        },
        {
          "internalType": "uint256",
          "name": "_tokenId",
          "type": "uint256"
        },
        {
          "internalType": "bool",
          "name": "_useZro",
          "type": "bool"
        },
        {
          "internalType": "bytes",
          "name": "_adapterParams",
          "type": "bytes"
        }
      ],
      "name": "estimateSendFee",
      "outputs": [
        {
          "internalType": "uint256",
          "name": "nativeFee",
          "type": "uint256"
        },
        {
          "internalType": "uint256",
          "name": "zroFee",
          "type": "uint256"
        }
      ],
      "stateMutability": "view",
      "type": "function"
    },
    {
      "inputs": [
        {
          "internalType": "uint16",
          "name": "",
          "type": "uint16"
        },
        {
          "internalType": "bytes",
          "name": "",
          "type": "bytes"
        },
        {
          "internalType": "uint256",
          "name": "",
          "type": "uint256"
        }
      ],
      "name": "failedMessages",
      "outputs": [
        {
          "internalType": "bytes32",
          "name": "",
          "type": "bytes32"
        }
      ],
      "stateMutability": "view",
      "type": "function"
    },
    {
      "inputs": [],
      "name": "flipPublicSaleStarted",
      "outputs": [],
      "stateMutability": "nonpayable",
      "type": "function"
    },
    {
      "inputs": [],
      "name": "flipRevealed",
      "outputs": [],
      "stateMutability": "nonpayable",
      "type": "function"
    },
    {
      "inputs": [],
      "name": "flipSaleStarted",
      "outputs": [],
      "stateMutability": "nonpayable",
      "type": "function"
    },
    {
      "inputs": [
        {
          "internalType": "uint16",
          "name": "_srcChainId",
          "type": "uint16"
        },
        {
          "internalType": "bytes",
          "name": "_srcAddress",
          "type": "bytes"
        }
      ],
      "name": "forceResumeReceive",
      "outputs": [],
      "stateMutability": "nonpayable",
      "type": "function"
    },
    {
      "inputs": [
        {
          "internalType": "uint256",
          "name": "_nbTokens",
          "type": "uint256"
        },
        {
          "internalType": "address",
          "name": "minter",
          "type": "address"
        }
      ],
      "name": "gaslessMint",
      "outputs": [],
      "stateMutability": "nonpayable",
      "type": "function"
    },
    {
      "inputs": [
        {
          "internalType": "uint256",
          "name": "tokenId",
          "type": "uint256"
        }
      ],
      "name": "getApproved",
      "outputs": [
        {
          "internalType": "address",
          "name": "",
          "type": "address"
        }
      ],
      "stateMutability": "view",
      "type": "function"
    },
    {
      "inputs": [
        {
          "internalType": "uint16",
          "name": "",
          "type": "uint16"
        },
        {
          "internalType": "uint16",
          "name": "_chainId",
          "type": "uint16"
        },
        {
          "internalType": "address",
          "name": "",
          "type": "address"
        },
        {
          "internalType": "uint256",
          "name": "_configType",
          "type": "uint256"
        }
      ],
      "name": "getConfig",
      "outputs": [
        {
          "internalType": "bytes",
          "name": "",
          "type": "bytes"
        }
      ],
      "stateMutability": "view",
      "type": "function"
    },
    {
      "inputs": [],
      "name": "getLzEndpoint",
      "outputs": [
        {
          "internalType": "address",
          "name": "",
          "type": "address"
        }
      ],
      "stateMutability": "view",
      "type": "function"
    },
    {
      "inputs": [
        {
          "internalType": "uint16",
          "name": "_chainId",
          "type": "uint16"
        }
      ],
      "name": "getTrustedRemote",
      "outputs": [
        {
          "internalType": "bytes",
          "name": "",
          "type": "bytes"
        }
      ],
      "stateMutability": "view",
      "type": "function"
    },
    {
      "inputs": [
        {
          "internalType": "address",
          "name": "owner",
          "type": "address"
        },
        {
          "internalType": "address",
          "name": "operator",
          "type": "address"
        }
      ],
      "name": "isApprovedForAll",
      "outputs": [
        {
          "internalType": "bool",
          "name": "",
          "type": "bool"
        }
      ],
      "stateMutability": "view",
      "type": "function"
    },
    {
      "inputs": [
        {
          "internalType": "uint16",
          "name": "_srcChainId",
          "type": "uint16"
        },
        {
          "internalType": "bytes",
          "name": "_srcAddress",
          "type": "bytes"
        }
      ],
      "name": "isTrustedRemote",
      "outputs": [
        {
          "internalType": "bool",
          "name": "",
          "type": "bool"
        }
      ],
      "stateMutability": "view",
      "type": "function"
    },
    {
      "inputs": [
        {
          "internalType": "uint16",
          "name": "_srcChainId",
          "type": "uint16"
        },
        {
          "internalType": "bytes",
          "name": "_srcAddress",
          "type": "bytes"
        },
        {
          "internalType": "uint64",
          "name": "_nonce",
          "type": "uint64"
        },
        {
          "internalType": "bytes",
          "name": "_payload",
          "type": "bytes"
        }
      ],
      "name": "lzReceive",
      "outputs": [],
      "stateMutability": "nonpayable",
      "type": "function"
    },
    {
      "inputs": [],
      "name": "maxMintId",
      "outputs": [
        {
          "internalType": "uint256",
          "name": "",
          "type": "uint256"
        }
      ],
      "stateMutability": "view",
      "type": "function"
    },
    {
      "inputs": [],
      "name": "maxTokensPerMint",
      "outputs": [
        {
          "internalType": "uint256",
          "name": "",
          "type": "uint256"
        }
      ],
      "stateMutability": "view",
      "type": "function"
    },
    {
      "inputs": [],
      "name": "merkleRoot",
      "outputs": [
        {
          "internalType": "bytes32",
          "name": "",
          "type": "bytes32"
        }
      ],
      "stateMutability": "view",
      "type": "function"
    },
    {
      "inputs": [
        {
          "internalType": "uint256",
          "name": "_nbTokens",
          "type": "uint256"
        },
        {
          "internalType": "bytes32[]",
          "name": "_merkleProof",
          "type": "bytes32[]"
        }
      ],
      "name": "mint",
      "outputs": [],
      "stateMutability": "payable",
      "type": "function"
    },
    {
      "inputs": [],
      "name": "name",
      "outputs": [
        {
          "internalType": "string",
          "name": "",
          "type": "string"
        }
      ],
      "stateMutability": "view",
      "type": "function"
    },
    {
      "inputs": [],
      "name": "nextMintId",
      "outputs": [
        {
          "internalType": "uint256",
          "name": "",
          "type": "uint256"
        }
      ],
      "stateMutability": "view",
      "type": "function"
    },
    {
      "inputs": [
        {
          "internalType": "uint16",
          "name": "_srcChainId",
          "type": "uint16"
        },
        {
          "internalType": "bytes",
          "name": "_srcAddress",
          "type": "bytes"
        },
        {
          "internalType": "uint64",
          "name": "_nonce",
          "type": "uint64"
        },
        {
          "internalType": "bytes",
          "name": "_payload",
          "type": "bytes"
        }
      ],
      "name": "nonblockingLzReceive",
      "outputs": [],
      "stateMutability": "nonpayable",
      "type": "function"
    },
    {
      "inputs": [],
      "name": "owner",
      "outputs": [
        {
          "internalType": "address",
          "name": "",
          "type": "address"
        }
      ],
      "stateMutability": "view",
      "type": "function"
    },
    {
      "inputs": [
        {
          "internalType": "uint256",
          "name": "tokenId",
          "type": "uint256"
        }
      ],
      "name": "ownerOf",
      "outputs": [
        {
          "internalType": "address",
          "name": "",
          "type": "address"
        }
      ],
      "stateMutability": "view",
      "type": "function"
    },
    {
      "inputs": [],
      "name": "price",
      "outputs": [
        {
          "internalType": "uint256",
          "name": "",
          "type": "uint256"
        }
      ],
      "stateMutability": "view",
      "type": "function"
    },
    {
      "inputs": [
        {
          "internalType": "uint256",
          "name": "_nbTokens",
          "type": "uint256"
        }
      ],
      "name": "publicMint",
      "outputs": [],
      "stateMutability": "payable",
      "type": "function"
    },
    {
      "inputs": [],
      "name": "renounceOwnership",
      "outputs": [],
      "stateMutability": "nonpayable",
      "type": "function"
    },
    {
      "inputs": [
        {
          "internalType": "uint16",
          "name": "_srcChainId",
          "type": "uint16"
        },
        {
          "internalType": "bytes",
          "name": "_srcAddress",
          "type": "bytes"
        },
        {
          "internalType": "uint64",
          "name": "_nonce",
          "type": "uint64"
        },
        {
          "internalType": "bytes",
          "name": "_payload",
          "type": "bytes"
        }
      ],
      "name": "retryMessage",
      "outputs": [],
      "stateMutability": "payable",
      "type": "function"
    },
    {
      "inputs": [
        {
          "internalType": "uint256",
          "name": "",
          "type": "uint256"
        },
        {
          "internalType": "uint256",
          "name": "salePrice",
          "type": "uint256"
        }
      ],
      "name": "royaltyInfo",
      "outputs": [
        {
          "internalType": "address",
          "name": "receiver",
          "type": "address"
        },
        {
          "internalType": "uint256",
          "name": "royaltyAmount",
          "type": "uint256"
        }
      ],
      "stateMutability": "view",
      "type": "function"
    },
    {
      "inputs": [
        {
          "internalType": "address",
          "name": "from",
          "type": "address"
        },
        {
          "internalType": "address",
          "name": "to",
          "type": "address"
        },
        {
          "internalType": "uint256",
          "name": "tokenId",
          "type": "uint256"
        }
      ],
      "name": "safeTransferFrom",
      "outputs": [],
      "stateMutability": "nonpayable",
      "type": "function"
    },
    {
      "inputs": [
        {
          "internalType": "address",
          "name": "from",
          "type": "address"
        },
        {
          "internalType": "address",
          "name": "to",
          "type": "address"
        },
        {
          "internalType": "uint256",
          "name": "tokenId",
          "type": "uint256"
        },
        {
          "internalType": "bytes",
          "name": "_data",
          "type": "bytes"
        }
      ],
      "name": "safeTransferFrom",
      "outputs": [],
      "stateMutability": "nonpayable",
      "type": "function"
    },
    {
      "inputs": [
        {
          "internalType": "address",
          "name": "_from",
          "type": "address"
        },
        {
          "internalType": "uint16",
          "name": "_dstChainId",
          "type": "uint16"
        },
        {
          "internalType": "bytes",
          "name": "_toAddress",
          "type": "bytes"
        },
        {
          "internalType": "uint256",
          "name": "_tokenId",
          "type": "uint256"
        },
        {
          "internalType": "address payable",
          "name": "_refundAddress",
          "type": "address"
        },
        {
          "internalType": "address",
          "name": "_zroPaymentAddress",
          "type": "address"
        },
        {
          "internalType": "bytes",
          "name": "_adapterParams",
          "type": "bytes"
        }
      ],
      "name": "sendFrom",
      "outputs": [],
      "stateMutability": "payable",
      "type": "function"
    },
    {
      "inputs": [
        {
          "internalType": "address",
          "name": "operator",
          "type": "address"
        },
        {
          "internalType": "bool",
          "name": "approved",
          "type": "bool"
        }
      ],
      "name": "setApprovalForAll",
      "outputs": [],
      "stateMutability": "nonpayable",
      "type": "function"
    },
    {
      "inputs": [
        {
          "internalType": "string",
          "name": "uri",
          "type": "string"
        }
      ],
      "name": "setBaseURI",
      "outputs": [],
      "stateMutability": "nonpayable",
      "type": "function"
    },
    {
      "inputs": [
        {
          "internalType": "address payable",
          "name": "_beneficiary",
          "type": "address"
        }
      ],
      "name": "setBeneficiary",
      "outputs": [],
      "stateMutability": "nonpayable",
      "type": "function"
    },
    {
      "inputs": [
        {
          "internalType": "uint16",
          "name": "_version",
          "type": "uint16"
        },
        {
          "internalType": "uint16",
          "name": "_chainId",
          "type": "uint16"
        },
        {
          "internalType": "uint256",
          "name": "_configType",
          "type": "uint256"
        },
        {
          "internalType": "bytes",
          "name": "_config",
          "type": "bytes"
        }
      ],
      "name": "setConfig",
      "outputs": [],
      "stateMutability": "nonpayable",
      "type": "function"
    },
    {
      "inputs": [
        {
          "internalType": "string",
          "name": "_contractURI",
          "type": "string"
        }
      ],
      "name": "setContractURI",
      "outputs": [],
      "stateMutability": "nonpayable",
      "type": "function"
    },
    {
      "inputs": [
        {
          "internalType": "string",
          "name": "_hiddenMetadataUri",
          "type": "string"
        }
      ],
      "name": "setHiddenMetadataUri",
      "outputs": [],
      "stateMutability": "nonpayable",
      "type": "function"
    },
    {
      "inputs": [
        {
          "internalType": "bytes32",
          "name": "_merkleRoot",
          "type": "bytes32"
        }
      ],
      "name": "setMerkleRoot",
      "outputs": [],
      "stateMutability": "nonpayable",
      "type": "function"
    },
    {
      "inputs": [
        {
          "internalType": "uint256",
          "name": "newPrice",
          "type": "uint256"
        }
      ],
      "name": "setPrice",
      "outputs": [],
      "stateMutability": "nonpayable",
      "type": "function"
    },
    {
      "inputs": [
        {
          "internalType": "uint16",
          "name": "_version",
          "type": "uint16"
        }
      ],
      "name": "setReceiveVersion",
      "outputs": [],
      "stateMutability": "nonpayable",
      "type": "function"
    },
    {
      "inputs": [
        {
          "internalType": "uint256",
          "name": "_royaltyBasisPoints",
          "type": "uint256"
        }
      ],
      "name": "setRoyaltyFee",
      "outputs": [],
      "stateMutability": "nonpayable",
      "type": "function"
    },
    {
      "inputs": [
        {
          "internalType": "uint16",
          "name": "_version",
          "type": "uint16"
        }
      ],
      "name": "setSendVersion",
      "outputs": [],
      "stateMutability": "nonpayable",
      "type": "function"
    },
    {
      "inputs": [
        {
          "internalType": "uint256",
          "name": "newPrice",
          "type": "uint256"
        }
      ],
      "name": "setStablePrice",
      "outputs": [],
      "stateMutability": "nonpayable",
      "type": "function"
    },
    {
      "inputs": [
        {
          "internalType": "uint16",
          "name": "_srcChainId",
          "type": "uint16"
        },
        {
          "internalType": "bytes",
          "name": "_srcAddress",
          "type": "bytes"
        }
      ],
      "name": "setTrustedRemote",
      "outputs": [],
      "stateMutability": "nonpayable",
      "type": "function"
    },
    {
      "inputs": [],
      "name": "stablePrice",
      "outputs": [
        {
          "internalType": "uint256",
          "name": "",
          "type": "uint256"
        }
      ],
      "stateMutability": "view",
      "type": "function"
    },
    {
      "inputs": [],
      "name": "stableToken",
      "outputs": [
        {
          "internalType": "contract IERC20",
          "name": "",
          "type": "address"
        }
      ],
      "stateMutability": "view",
      "type": "function"
    },
    {
      "inputs": [
        {
          "internalType": "bytes4",
          "name": "interfaceId",
          "type": "bytes4"
        }
      ],
      "name": "supportsInterface",
      "outputs": [
        {
          "internalType": "bool",
          "name": "",
          "type": "bool"
        }
      ],
      "stateMutability": "view",
      "type": "function"
    },
    {
      "inputs": [],
      "name": "symbol",
      "outputs": [
        {
          "internalType": "string",
          "name": "",
          "type": "string"
        }
      ],
      "stateMutability": "view",
      "type": "function"
    },
    {
      "inputs": [
        {
          "internalType": "uint256",
          "name": "index",
          "type": "uint256"
        }
      ],
      "name": "tokenByIndex",
      "outputs": [
        {
          "internalType": "uint256",
          "name": "",
          "type": "uint256"
        }
      ],
      "stateMutability": "view",
      "type": "function"
    },
    {
      "inputs": [
        {
          "internalType": "address",
          "name": "owner",
          "type": "address"
        },
        {
          "internalType": "uint256",
          "name": "index",
          "type": "uint256"
        }
      ],
      "name": "tokenOfOwnerByIndex",
      "outputs": [
        {
          "internalType": "uint256",
          "name": "",
          "type": "uint256"
        }
      ],
      "stateMutability": "view",
      "type": "function"
    },
    {
      "inputs": [
        {
          "internalType": "uint256",
          "name": "tokenId",
          "type": "uint256"
        }
      ],
      "name": "tokenURI",
      "outputs": [
        {
          "internalType": "string",
          "name": "",
          "type": "string"
        }
      ],
      "stateMutability": "view",
      "type": "function"
    },
    {
      "inputs": [],
      "name": "totalSupply",
      "outputs": [
        {
          "internalType": "uint256",
          "name": "",
          "type": "uint256"
        }
      ],
      "stateMutability": "view",
      "type": "function"
    },
    {
      "inputs": [
        {
          "internalType": "address",
          "name": "from",
          "type": "address"
        },
        {
          "internalType": "address",
          "name": "to",
          "type": "address"
        },
        {
          "internalType": "uint256",
          "name": "tokenId",
          "type": "uint256"
        }
      ],
      "name": "transferFrom",
      "outputs": [],
      "stateMutability": "nonpayable",
      "type": "function"
    },
    {
      "inputs": [
        {
          "internalType": "address",
          "name": "newOwner",
          "type": "address"
        }
      ],
      "name": "transferOwnership",
      "outputs": [],
      "stateMutability": "nonpayable",
      "type": "function"
    },
    {
      "inputs": [],
      "name": "withdraw",
      "outputs": [],
      "stateMutability": "nonpayable",
      "type": "function"
    },
    {
      "stateMutability": "payable",
      "type": "receive"
    }
  ],
  "transactionHash": "0x2ac367d51c84187263bc131914fec601806395f931171da043771e3ec3e6dc2f",
  "args": [
    "Milady (ARB)",
    "MLD",
    "0x6aB5Ae6822647046626e83ee6dB8187151E1d5ab",
    5000,
    5999,
    5,
    "https://www.miladymaker.net/milady/json/",
    "https://www.miladymaker.net/milady/json/",
    "0x6aAd876244E7A1Ad44Ec4824Ce813729E5B6C291"
  ],
  "numDeployments": 1,
  "solcInputHash": "94aa4a5eabeb09ed14308bae95c28cd1",
  "bytecode": "0x60c06040526000600e556101f46012556000601a553480156200002157600080fd5b50604051620054bb380380620054bb8339810160408190526200004491620002e3565b888888888888888888888888828282808062000060336200011d565b60601b6001600160601b03191660805250508151620000879060039060208501906200016d565b5080516200009d9060049060208401906200016d565b50506001600d55505050600f8790555060108590556011849055601380546001600160a01b031916331790558251620000de9060169060208601906200016d565b508151620000f49060179060208501906200016d565b5060601b6001600160601b03191660a052506200042d9f50505050505050505050505050505050565b600080546001600160a01b038381166001600160a01b0319831681178455604051919092169283917f8be0079c531659141344cd1fd0a4f28419497f9722a3daafe3b4186f6b6457e09190a35050565b8280546200017b90620003da565b90600052602060002090601f0160209004810192826200019f5760008555620001ea565b82601f10620001ba57805160ff1916838001178555620001ea565b82800160010185558215620001ea579182015b82811115620001ea578251825591602001919060010190620001cd565b50620001f8929150620001fc565b5090565b5b80821115620001f85760008155600101620001fd565b80516001600160a01b03811681146200022b57600080fd5b919050565b600082601f83011262000241578081fd5b81516001600160401b03808211156200025e576200025e62000417565b604051601f8301601f19908116603f0116810190828211818310171562000289576200028962000417565b81604052838152602092508683858801011115620002a5578485fd5b8491505b83821015620002c85785820183015181830184015290820190620002a9565b83821115620002d957848385830101525b9695505050505050565b60008060008060008060008060006101208a8c03121562000302578485fd5b89516001600160401b038082111562000319578687fd5b620003278d838e0162000230565b9a5060208c01519150808211156200033d578687fd5b6200034b8d838e0162000230565b99506200035b60408d0162000213565b985060608c0151975060808c0151965060a08c0151955060c08c015191508082111562000386578485fd5b620003948d838e0162000230565b945060e08c0151915080821115620003aa578384fd5b50620003b98c828d0162000230565b925050620003cb6101008b0162000213565b90509295985092959850929598565b600181811c90821680620003ef57607f821691505b602082108114156200041157634e487b7160e01b600052602260045260246000fd5b50919050565b634e487b7160e01b600052604160045260246000fd5b60805160601c60a05160601c615015620004a6600039600081816109ba015281816112900152611347015260008181610a7101528181610b8201528181610d80015281816113ef0152818161152101528181611a5b015281816123210152818161270401528181612e87015261369601526150156000f3fe6080604052600436106103a55760003560e01c80636352211e116101e7578063a20f04541161010d578063dacbcbe2116100a0578063e985e9c51161006f578063e985e9c514610ad6578063eb8d72b714610b1f578063f2fde38b14610b3f578063f5ecbdbc14610b5f57600080fd5b8063dacbcbe214610a62578063db61e31714610a95578063e1d4c87014610aab578063e8a3d48514610ac157600080fd5b8063ba41b0c6116100dc578063ba41b0c6146109fc578063c87b56dd14610a0f578063cbed8b9c14610a2f578063d1deba1f14610a4f57600080fd5b8063a20f045414610968578063a22cb46514610988578063a9d75b2b146109a8578063b88d4fde146109dc57600080fd5b806387c348bf1161018557806391b7f5ed1161015457806391b7f5ed146108fd578063938e3d7b1461091d57806395d89b411461093d578063a035b1fe1461095257600080fd5b806387c348bf1461085c578063899d7b381461087b5780638da5cb5b146108905780638ee74912146108ae57600080fd5b80636aa99da3116101c15780636aa99da3146107f157806370a0823114610807578063715018a6146108275780637cb647591461083c57600080fd5b80636352211e1461079157806366ad5c8a146107b157806369b41f95146107d157600080fd5b80632a55205a116102cc5780633e4086e51161026a5780634fdd43cb116102395780634fdd43cb14610724578063519056361461074457806355f804b314610757578063600e97f61461077757600080fd5b80633e4086e5146106a457806342842e0e146106c457806342d65a8d146106e45780634f6ccce71461070457600080fd5b80632f745c59116102a65780632f745c591461063a5780633b2c3fb61461065a5780633ccfd60b1461066f5780633d8b38f61461068457600080fd5b80632a55205a146105d25780632db11544146106115780632eb4a7ab1461062457600080fd5b8063105dc7d21161034457806318160ddd1161031357806318160ddd146105485780631c31f7101461055d57806323b872dd1461057d5780632a205e3d1461059d57600080fd5b8063105dc7d2146104dd57806310ddb137146104fd5780631291e33e1461051d578063174654711461053257600080fd5b806307e0db171161038057806307e0db171461042a578063081812fc1461044a578063095ea7b31461048257806309dc20ce146104a257600080fd5b80621d3567146103b157806301ffc9a7146103d357806306fdde031461040857600080fd5b366103ac57005b600080fd5b3480156103bd57600080fd5b506103d16103cc3660046145ad565b610b7f565b005b3480156103df57600080fd5b506103f36103ee3660046142bb565b610c88565b60405190151581526020015b60405180910390f35b34801561041457600080fd5b5061041d610cab565b6040516103ff9190614930565b34801561043657600080fd5b506103d16104453660046143ae565b610d3d565b34801561045657600080fd5b5061046a6104653660046142a3565b610de8565b6040516001600160a01b0390911681526020016103ff565b34801561048e57600080fd5b506103d161049d36600461425c565b610e7d565b3480156104ae57600080fd5b506104cf6104bd36600461407a565b60186020526000908152604090205481565b6040519081526020016103ff565b3480156104e957600080fd5b506103d16104f83660046146d7565b610f93565b34801561050957600080fd5b506103d16105183660046143ae565b6113ac565b34801561052957600080fd5b506103d1611426565b34801561053e57600080fd5b506104cf60115481565b34801561055457600080fd5b50600b546104cf565b34801561056957600080fd5b506103d161057836600461407a565b611464565b34801561058957600080fd5b506103d16105983660046140ce565b6114b0565b3480156105a957600080fd5b506105bd6105b836600461448e565b6114e2565b604080519283526020830191909152016103ff565b3480156105de57600080fd5b506105f26105ed366004614774565b6115bc565b604080516001600160a01b0390931683526020830191909152016103ff565b6103d161061f3660046142a3565b6115f2565b34801561063057600080fd5b506104cf60145481565b34801561064657600080fd5b506104cf61065536600461425c565b61175f565b34801561066657600080fd5b506103d16117f5565b34801561067b57600080fd5b506103d161183e565b34801561069057600080fd5b506103f361069f3660046143e6565b611903565b3480156106b057600080fd5b506103d16106bf3660046142a3565b6119d0565b3480156106d057600080fd5b506103d16106df3660046140ce565b6119ff565b3480156106f057600080fd5b506103d16106ff3660046143e6565b611a1a565b34801561071057600080fd5b506104cf61071f3660046142a3565b611acb565b34801561073057600080fd5b506103d161073f366004614369565b611b6c565b6103d16107523660046141a4565b611bad565b34801561076357600080fd5b506103d1610772366004614369565b611bbc565b34801561078357600080fd5b506019546103f39060ff1681565b34801561079d57600080fd5b5061046a6107ac3660046142a3565b611bf9565b3480156107bd57600080fd5b506103d16107cc3660046145ad565b611c70565b3480156107dd57600080fd5b5061041d6107ec3660046143ae565b611ccb565b3480156107fd57600080fd5b506104cf600f5481565b34801561081357600080fd5b506104cf61082236600461407a565b611d72565b34801561083357600080fd5b506103d1611df9565b34801561084857600080fd5b506103d16108573660046142a3565b611e2f565b34801561086857600080fd5b506019546103f390610100900460ff1681565b34801561088757600080fd5b506103d1611e5e565b34801561089c57600080fd5b506000546001600160a01b031661046a565b3480156108ba57600080fd5b506104cf6108c9366004614438565b6002602090815260009384526040808520845180860184018051928152908401958401959095209452929052825290205481565b34801561090957600080fd5b506103d16109183660046142a3565b611ea5565b34801561092957600080fd5b506103d1610938366004614369565b611ed4565b34801561094957600080fd5b5061041d611f11565b34801561095e57600080fd5b506104cf600e5481565b34801561097457600080fd5b506103d16109833660046142a3565b611f20565b34801561099457600080fd5b506103d16109a3366004614177565b611f4f565b3480156109b457600080fd5b5061046a7f000000000000000000000000000000000000000000000000000000000000000081565b3480156109e857600080fd5b506103d16109f736600461410e565b611f5a565b6103d1610a0a3660046146fb565b611f8c565b348015610a1b57600080fd5b5061041d610a2a3660046142a3565b61220c565b348015610a3b57600080fd5b506103d1610a4a366004614678565b6122e0565b6103d1610a5d36600461451f565b612397565b348015610a6e57600080fd5b507f000000000000000000000000000000000000000000000000000000000000000061046a565b348015610aa157600080fd5b506104cf601a5481565b348015610ab757600080fd5b506104cf60105481565b348015610acd57600080fd5b5061041d61253d565b348015610ae257600080fd5b506103f3610af1366004614096565b6001600160a01b03918216600090815260086020908152604080832093909416825291909152205460ff1690565b348015610b2b57600080fd5b506103d1610b3a3660046143e6565b6125cb565b348015610b4b57600080fd5b506103d1610b5a36600461407a565b612654565b348015610b6b57600080fd5b5061041d610b7a366004614628565b6126ec565b337f00000000000000000000000000000000000000000000000000000000000000006001600160a01b031614610bb457600080fd5b61ffff841660009081526001602052604090208054610bd290614ed5565b90508351148015610c11575061ffff8416600090815260016020526040908190209051610bff9190614855565b60405180910390208380519060200120145b610c765760405162461bcd60e51b815260206004820152602b60248201527f4c7a52656365697665723a20696e76616c696420736f757263652073656e646960448201526a1b99c818dbdb9d1c9858dd60aa1b60648201526084015b60405180910390fd5b610c8284848484612824565b50505050565b60006001600160e01b031982161580610ca55750610ca582612915565b92915050565b606060038054610cba90614ed5565b80601f0160208091040260200160405190810160405280929190818152602001828054610ce690614ed5565b8015610d335780601f10610d0857610100808354040283529160200191610d33565b820191906000526020600020905b815481529060010190602001808311610d1657829003601f168201915b5050505050905090565b6000546001600160a01b03163314610d675760405162461bcd60e51b8152600401610c6d90614ab8565b6040516307e0db1760e01b815261ffff821660048201527f00000000000000000000000000000000000000000000000000000000000000006001600160a01b0316906307e0db17906024015b600060405180830381600087803b158015610dcd57600080fd5b505af1158015610de1573d6000803e3d6000fd5b5050505050565b6000818152600560205260408120546001600160a01b0316610e615760405162461bcd60e51b815260206004820152602c60248201527f4552433732313a20617070726f76656420717565727920666f72206e6f6e657860448201526b34b9ba32b73a103a37b5b2b760a11b6064820152608401610c6d565b506000908152600760205260409020546001600160a01b031690565b6000610e8882611bf9565b9050806001600160a01b0316836001600160a01b03161415610ef65760405162461bcd60e51b815260206004820152602160248201527f4552433732313a20617070726f76616c20746f2063757272656e74206f776e656044820152603960f91b6064820152608401610c6d565b336001600160a01b0382161480610f125750610f128133610af1565b610f845760405162461bcd60e51b815260206004820152603860248201527f4552433732313a20617070726f76652063616c6c6572206973206e6f74206f7760448201527f6e6572206e6f7220617070726f76656420666f7220616c6c00000000000000006064820152608401610c6d565b610f8e838361293a565b505050565b73abcc9b596420a9e9172fd5938620e265a0f9df9233146110015760405162461bcd60e51b815260206004820152602260248201527f47656c61746f52656c6179436f6e746578742e6f6e6c7947656c61746f52656c604482015261617960f01b6064820152608401610c6d565b60195460ff16151560011461106f5760405162461bcd60e51b815260206004820152602e60248201527f4b616e70616950616e6461733a205075626c69632073616c6520686173206e6f60448201526d742073746172746564207965742160901b6064820152608401610c6d565b60195460ff6101009091041615156001146110dc5760405162461bcd60e51b815260206004820152602760248201527f4b616e70616950616e6461733a2053616c6520686173206e6f742073746172746044820152666564207965742160c81b6064820152608401610c6d565b816111355760405162461bcd60e51b815260206004820152602360248201527f4b616e70616950616e6461733a2043616e6e6f74206d696e74203020746f6b656044820152626e732160e81b6064820152608401610c6d565b6011548211156111be5760405162461bcd60e51b815260206004820152604860248201527f4b616e70616950616e6461733a20596f752063616e6e6f74206d696e74206d6f60448201527f7265207468616e206d6178546f6b656e735065724d696e7420746f6b656e73206064820152676174206f6e63652160c01b608482015260a401610c6d565b60105482600f546111cf9190614e47565b11156112295760405162461bcd60e51b8152602060048201526024808201527f4b616e70616950616e6461733a206d6178206d696e74206c696d69742072656160448201526318da195960e21b6064820152608401610c6d565b6000601a541161128e5760405162461bcd60e51b815260206004820152602a60248201527f4b616e70616950616e6461733a20796f75206e65656420746f2073657420737460448201526961626c6520707269636560b01b6064820152608401610c6d565b7f00000000000000000000000000000000000000000000000000000000000000006001600160a01b03166113125760405162461bcd60e51b815260206004820152602560248201527f4b616e70616950616e6461733a206e6f7420737570706f727420737461626c65604482015264081b5a5b9d60da1b6064820152608401610c6d565b61131a6129a8565b601354601a5461136f9183916001600160a01b039091169061133d908690614e73565b6001600160a01b037f0000000000000000000000000000000000000000000000000000000000000000169291906129d3565b600f5460005b838110156113a4576113928361138a84614f10565b935083612a3e565b8061139c81614f10565b915050611375565b50600f555050565b6000546001600160a01b031633146113d65760405162461bcd60e51b8152600401610c6d90614ab8565b6040516310ddb13760e01b815261ffff821660048201527f00000000000000000000000000000000000000000000000000000000000000006001600160a01b0316906310ddb13790602401610db3565b6000546001600160a01b031633146114505760405162461bcd60e51b8152600401610c6d90614ab8565b6019805460ff19811660ff90911615179055565b6000546001600160a01b0316331461148e5760405162461bcd60e51b8152600401610c6d90614ab8565b601380546001600160a01b0319166001600160a01b0392909216919091179055565b6114bb335b82612b8c565b6114d75760405162461bcd60e51b8152600401610c6d90614b34565b610f8e838383612c7f565b600080600086866040516020016114fa929190614943565b60408051601f198184030181529082905263040a7bb160e41b825291506001600160a01b037f000000000000000000000000000000000000000000000000000000000000000016906340a7bb109061155e908b90309086908b908b90600401614bcf565b604080518083038186803b15801561157557600080fd5b505afa158015611589573d6000803e3d6000fd5b505050506040513d601f19601f820116820180604052508101906115ad9190614795565b92509250509550959350505050565b6013546012546001600160a01b0390911690600090612710906115df9085614e73565b6115e99190614e5f565b90509250929050565b60195460ff1615156001146116635760405162461bcd60e51b815260206004820152603160248201527f416476616e6365644f4e46543732313a205075626c69632073616c6520686173604482015270206e6f742073746172746564207965742160781b6064820152608401610c6d565b60195460ff6101009091041615156001146116905760405162461bcd60e51b8152600401610c6d90614965565b806116ad5760405162461bcd60e51b8152600401610c6d90614a01565b6011548111156116cf5760405162461bcd60e51b8152600401610c6d90614a47565b60105481600f546116e09190614e47565b11156116fe5760405162461bcd60e51b8152600401610c6d90614aed565b34600e548261170d9190614e73565b111561172b5760405162461bcd60e51b8152600401610c6d90614b85565b600f5460005b82811015611758576117463361138a84614f10565b8061175081614f10565b915050611731565b50600f5550565b600061176a83611d72565b82106117cc5760405162461bcd60e51b815260206004820152602b60248201527f455243373231456e756d657261626c653a206f776e657220696e646578206f7560448201526a74206f6620626f756e647360a81b6064820152608401610c6d565b506001600160a01b03919091166000908152600960209081526040808320938352929052205490565b6000546001600160a01b0316331461181f5760405162461bcd60e51b8152600401610c6d90614ab8565b6019805462ff0000198116620100009182900460ff1615909102179055565b6000546001600160a01b031633146118685760405162461bcd60e51b8152600401610c6d90614ab8565b6013546001600160a01b03166118ce5760405162461bcd60e51b815260206004820152602560248201527f416476616e6365644f4e46543732313a2042656e6566696369617279206e6f74604482015264207365742160d81b6064820152608401610c6d565b60135460405147916001600160a01b03169082156108fc029083906000818181858888f1935050505061190057600080fd5b50565b61ffff83166000908152600160205260408120805482919061192490614ed5565b80601f016020809104026020016040519081016040528092919081815260200182805461195090614ed5565b801561199d5780601f106119725761010080835404028352916020019161199d565b820191906000526020600020905b81548152906001019060200180831161198057829003601f168201915b5050505050905083836040516119b4929190614829565b60405180910390208180519060200120149150505b9392505050565b6000546001600160a01b031633146119fa5760405162461bcd60e51b8152600401610c6d90614ab8565b601255565b610f8e83838360405180602001604052806000815250611f5a565b6000546001600160a01b03163314611a445760405162461bcd60e51b8152600401610c6d90614ab8565b6040516342d65a8d60e01b81526001600160a01b037f000000000000000000000000000000000000000000000000000000000000000016906342d65a8d90611a9490869086908690600401614c23565b600060405180830381600087803b158015611aae57600080fd5b505af1158015611ac2573d6000803e3d6000fd5b50505050505050565b6000611ad6600b5490565b8210611b395760405162461bcd60e51b815260206004820152602c60248201527f455243373231456e756d657261626c653a20676c6f62616c20696e646578206f60448201526b7574206f6620626f756e647360a01b6064820152608401610c6d565b600b8281548110611b5a57634e487b7160e01b600052603260045260246000fd5b90600052602060002001549050919050565b6000546001600160a01b03163314611b965760405162461bcd60e51b8152600401610c6d90614ab8565b8051611ba9906017906020840190613e87565b5050565b611ac287878787878787612e26565b6000546001600160a01b03163314611be65760405162461bcd60e51b8152600401610c6d90614ab8565b8051611ba9906016906020840190613e87565b6000818152600560205260408120546001600160a01b031680610ca55760405162461bcd60e51b815260206004820152602960248201527f4552433732313a206f776e657220717565727920666f72206e6f6e657869737460448201526832b73a103a37b5b2b760b91b6064820152608401610c6d565b333014611cbf5760405162461bcd60e51b815260206004820181905260248201527f4c7a52656365697665723a2063616c6c6572206d757374206265204c7a4170706044820152606401610c6d565b610c8284848484612f7d565b61ffff81166000908152600160205260409020805460609190611ced90614ed5565b80601f0160208091040260200160405190810160405280929190818152602001828054611d1990614ed5565b8015611d665780601f10611d3b57610100808354040283529160200191611d66565b820191906000526020600020905b815481529060010190602001808311611d4957829003601f168201915b50505050509050919050565b60006001600160a01b038216611ddd5760405162461bcd60e51b815260206004820152602a60248201527f4552433732313a2062616c616e636520717565727920666f7220746865207a65604482015269726f206164647265737360b01b6064820152608401610c6d565b506001600160a01b031660009081526006602052604090205490565b6000546001600160a01b03163314611e235760405162461bcd60e51b8152600401610c6d90614ab8565b611e2d6000613018565b565b6000546001600160a01b03163314611e595760405162461bcd60e51b8152600401610c6d90614ab8565b601455565b6000546001600160a01b03163314611e885760405162461bcd60e51b8152600401610c6d90614ab8565b6019805461ff001981166101009182900460ff1615909102179055565b6000546001600160a01b03163314611ecf5760405162461bcd60e51b8152600401610c6d90614ab8565b600e55565b6000546001600160a01b03163314611efe5760405162461bcd60e51b8152600401610c6d90614ab8565b8051611ba9906015906020840190613e87565b606060048054610cba90614ed5565b6000546001600160a01b03163314611f4a5760405162461bcd60e51b8152600401610c6d90614ab8565b601a55565b611ba9338383613068565b611f643383612b8c565b611f805760405162461bcd60e51b8152600401610c6d90614b34565b610c8284848484613137565b60195460ff610100909104161515600114611fb95760405162461bcd60e51b8152600401610c6d90614965565b82611fd65760405162461bcd60e51b8152600401610c6d90614a01565b601154831115611ff85760405162461bcd60e51b8152600401610c6d90614a47565b60105483600f546120099190614e47565b11156120275760405162461bcd60e51b8152600401610c6d90614aed565b34600e54846120369190614e73565b11156120545760405162461bcd60e51b8152600401610c6d90614b85565b60115433600090815260186020526040902054612072908590614e47565b11156120d85760405162461bcd60e51b815260206004820152602f60248201527f416476616e6365644f4e46543732313a20596f7520657863656564656420796f60448201526e3ab9103a37b5b2b7103634b6b4ba1760891b6064820152608401610c6d565b600061214f838380806020026020016040519081016040528093929190818152602001838360200280828437600092019190915250506014546040516bffffffffffffffffffffffff193360601b16602082015290925060340190506040516020818303038152906040528051906020012061316a565b90506001811515146121b15760405162461bcd60e51b815260206004820152602560248201527f416476616e6365644f4e46543732313a20496e76616c6964204d65726b6c6520604482015264283937b7b360d91b6064820152608401610c6d565b33600090815260186020526040812080548692906121d0908490614e47565b9091555050600f5460005b85811015612202576121f03361138a84614f10565b806121fa81614f10565b9150506121db565b50600f5550505050565b6000818152600560205260409020546060906001600160a01b031661228b5760405162461bcd60e51b815260206004820152602f60248201527f4552433732314d657461646174613a2055524920717565727920666f72206e6f60448201526e3732bc34b9ba32b73a103a37b5b2b760891b6064820152608401610c6d565b60195462010000900460ff166122a85760178054611ced90614ed5565b6122b0613180565b6122b98361318f565b6040516020016122ca9291906148c4565b6040516020818303038152906040529050919050565b6000546001600160a01b0316331461230a5760405162461bcd60e51b8152600401610c6d90614ab8565b6040516332fb62e760e21b81526001600160a01b037f0000000000000000000000000000000000000000000000000000000000000000169063cbed8b9c9061235e9088908890889088908890600401614d9a565b600060405180830381600087803b15801561237857600080fd5b505af115801561238c573d6000803e3d6000fd5b505050505050505050565b61ffff851660009081526002602052604080822090516123b8908790614839565b90815260408051602092819003830190206001600160401b0387166000908152925290205490508061242c5760405162461bcd60e51b815260206004820152601d60248201527f4c7a52656365697665723a206e6f2073746f726564206d6573736167650000006044820152606401610c6d565b80838360405161243d929190614829565b6040518091039020146124925760405162461bcd60e51b815260206004820152601b60248201527f4c7a52656365697665723a20696e76616c6964207061796c6f616400000000006044820152606401610c6d565b61ffff861660009081526002602052604080822090516124b3908890614839565b9081526040805191829003602090810183206001600160401b038916600090815291522091909155633356ae4560e11b815230906366ad5c8a906125039089908990899089908990600401614c41565b600060405180830381600087803b15801561251d57600080fd5b505af1158015612531573d6000803e3d6000fd5b50505050505050505050565b6015805461254a90614ed5565b80601f016020809104026020016040519081016040528092919081815260200182805461257690614ed5565b80156125c35780601f10612598576101008083540402835291602001916125c3565b820191906000526020600020905b8154815290600101906020018083116125a657829003601f168201915b505050505081565b6000546001600160a01b031633146125f55760405162461bcd60e51b8152600401610c6d90614ab8565b61ffff83166000908152600160205260409020612613908383613f0b565b507ffa41487ad5d6728f0b19276fa1eddc16558578f5109fc39d2dc33c3230470dab83838360405161264793929190614c23565b60405180910390a1505050565b6000546001600160a01b0316331461267e5760405162461bcd60e51b8152600401610c6d90614ab8565b6001600160a01b0381166126e35760405162461bcd60e51b815260206004820152602660248201527f4f776e61626c653a206e6577206f776e657220697320746865207a65726f206160448201526564647265737360d01b6064820152608401610c6d565b61190081613018565b6040516304b2b47b60e11b81523060048201526060907f00000000000000000000000000000000000000000000000000000000000000006001600160a01b03169063f5ecbdbc90829063096568f69060240160206040518083038186803b15801561275657600080fd5b505afa15801561276a573d6000803e3d6000fd5b505050506040513d601f19601f8201168201806040525081019061278e91906143ca565b6040516001600160e01b031960e084901b16815261ffff918216600482015290871660248201523060448201526064810185905260840160006040518083038186803b1580156127dd57600080fd5b505afa1580156127f1573d6000803e3d6000fd5b505050506040513d6000823e601f3d908101601f1916820160405261281991908101906142f3565b90505b949350505050565b604051633356ae4560e11b815230906366ad5c8a9061284d908790879087908790600401614c80565b600060405180830381600087803b15801561286757600080fd5b505af1925050508015612878575060015b610c82578080519060200120600260008661ffff1661ffff168152602001908152602001600020846040516128ad9190614839565b9081526040805191829003602090810183206001600160401b0387166000908152915220919091557fe6f254030bcb01ffd20558175c13fcaed6d1520be7becee4c961b65f79243b0d90612908908690869086908690614c80565b60405180910390a1610c82565b60006001600160e01b0319821663780e9d6360e01b1480610ca55750610ca5826132a8565b600081815260076020526040902080546001600160a01b0319166001600160a01b038416908117909155819061296f82611bf9565b6001600160a01b03167f8c5be1e5ebec7d5bd14f71427d1e84f3dd0314c0f7b2291e5b200ac8c7c3b92560405160405180910390a45050565b611e2d6129b36132e8565b6129bb6132f7565b6129c3613301565b6001600160a01b0316919061330b565b6040516001600160a01b0380851660248301528316604482015260648101829052610c829085906323b872dd60e01b906084015b60408051601f198184030181529190526020810180516001600160e01b03166001600160e01b031990931692909217909152613357565b6001600160a01b038216612a945760405162461bcd60e51b815260206004820181905260248201527f4552433732313a206d696e7420746f20746865207a65726f20616464726573736044820152606401610c6d565b6000818152600560205260409020546001600160a01b031615612af95760405162461bcd60e51b815260206004820152601c60248201527f4552433732313a20746f6b656e20616c7265616479206d696e746564000000006044820152606401610c6d565b612b0560008383613429565b6001600160a01b0382166000908152600660205260408120805460019290612b2e908490614e47565b909155505060008181526005602052604080822080546001600160a01b0319166001600160a01b03861690811790915590518392907fddf252ad1be2c89b69c2b068fc378daa952ba7f163c4a11628f55a4df523b3ef908290a45050565b6000818152600560205260408120546001600160a01b0316612c055760405162461bcd60e51b815260206004820152602c60248201527f4552433732313a206f70657261746f7220717565727920666f72206e6f6e657860448201526b34b9ba32b73a103a37b5b2b760a11b6064820152608401610c6d565b6000612c1083611bf9565b9050806001600160a01b0316846001600160a01b03161480612c4b5750836001600160a01b0316612c4084610de8565b6001600160a01b0316145b8061281c57506001600160a01b0380821660009081526008602090815260408083209388168352929052205460ff1661281c565b826001600160a01b0316612c9282611bf9565b6001600160a01b031614612cf65760405162461bcd60e51b815260206004820152602560248201527f4552433732313a207472616e736665722066726f6d20696e636f72726563742060448201526437bbb732b960d91b6064820152608401610c6d565b6001600160a01b038216612d585760405162461bcd60e51b8152602060048201526024808201527f4552433732313a207472616e7366657220746f20746865207a65726f206164646044820152637265737360e01b6064820152608401610c6d565b612d63838383613429565b612d6e60008261293a565b6001600160a01b0383166000908152600660205260408120805460019290612d97908490614e92565b90915550506001600160a01b0382166000908152600660205260408120805460019290612dc5908490614e47565b909155505060008181526005602052604080822080546001600160a01b0319166001600160a01b0386811691821790925591518493918716917fddf252ad1be2c89b69c2b068fc378daa952ba7f163c4a11628f55a4df523b3ef91a4505050565b612e32878787876134e1565b60008585604051602001612e47929190614943565b6040516020818303038152906040529050612e6587828686866135e3565b604051630f428ae960e31b815261ffff881660048201523060248201526000907f00000000000000000000000000000000000000000000000000000000000000006001600160a01b031690637a1457489060440160206040518083038186803b158015612ed157600080fd5b505afa158015612ee5573d6000803e3d6000fd5b505050506040513d601f19601f82011682018060405250810190612f0991906147b8565b905086604051612f199190614839565b604080519182900382208883526001600160401b03841660208401529161ffff8b16916001600160a01b038d16917f024797cc77ce15dc717112d54fb1df125fdfd8c81344fb046c5e074427ce1543910160405180910390a4505050505050505050565b60008082806020019051810190612f949190614325565b60148201519193509150612fa98782846136ef565b806001600160a01b031686604051612fc19190614839565b604080519182900382208583526001600160401b03891660208401529161ffff8b16917f64e10c37f404d128982dce114f5d233c14c5c7f6d8db93099e3d99dacb9e27ba910160405180910390a450505050505050565b600080546001600160a01b038381166001600160a01b0319831681178455604051919092169283917f8be0079c531659141344cd1fd0a4f28419497f9722a3daafe3b4186f6b6457e09190a35050565b816001600160a01b0316836001600160a01b031614156130ca5760405162461bcd60e51b815260206004820152601960248201527f4552433732313a20617070726f766520746f2063616c6c6572000000000000006044820152606401610c6d565b6001600160a01b03838116600081815260086020908152604080832094871680845294825291829020805460ff191686151590811790915591519182527f17307eab39ab6107e8899845ad3d59bd9653f200f220920489ca2b5937696c31910160405180910390a3505050565b613142848484612c7f565b61314e848484846136f9565b610c825760405162461bcd60e51b8152600401610c6d906149af565b6000826131778584613803565b14949350505050565b606060168054610cba90614ed5565b6060816131b35750506040805180820190915260018152600360fc1b602082015290565b8160005b81156131dd57806131c781614f10565b91506131d69050600a83614e5f565b91506131b7565b6000816001600160401b0381111561320557634e487b7160e01b600052604160045260246000fd5b6040519080825280601f01601f19166020018201604052801561322f576020820181803683370190505b5090505b841561281c57613244600183614e92565b9150613251600a86614f2b565b61325c906030614e47565b60f81b81838151811061327f57634e487b7160e01b600052603260045260246000fd5b60200101906001600160f81b031916908160001a9053506132a1600a86614e5f565b9450613233565b60006001600160e01b031982166380ac58cd60e01b14806132d957506001600160e01b03198216635b5e139f60e01b145b80610ca55750610ca582613885565b60006132f26138ba565b905090565b60006132f26138e1565b60006132f2613908565b8061331557505050565b6001600160a01b03831673eeeeeeeeeeeeeeeeeeeeeeeeeeeeeeeeeeeeeeee1461334d57610f8e6001600160a01b0384168383613917565b610f8e8282613947565b60006133ac826040518060400160405280602081526020017f5361666545524332303a206c6f772d6c6576656c2063616c6c206661696c6564815250856001600160a01b0316613a609092919063ffffffff16565b805190915015610f8e57808060200190518101906133ca9190614287565b610f8e5760405162461bcd60e51b815260206004820152602a60248201527f5361666545524332303a204552433230206f7065726174696f6e20646964206e6044820152691bdd081cdd58d8d9595960b21b6064820152608401610c6d565b6001600160a01b0383166134845761347f81600b80546000838152600c60205260408120829055600182018355919091527f0175b7a638427703f0dbe7bb9bbf987a2551717b34e79f33b5b1008d1fa01db90155565b6134a7565b816001600160a01b0316836001600160a01b0316146134a7576134a78382613a6f565b6001600160a01b0382166134be57610f8e81613b0c565b826001600160a01b0316826001600160a01b031614610f8e57610f8e8282613be5565b6134ea336114b5565b61355c5760405162461bcd60e51b815260206004820152603860248201527f4f4e4654373231456e756d657261626c653a2073656e642063616c6c6572206960448201527f73206e6f74206f776e6572206e6f7220617070726f76656400000000000000006064820152608401610c6d565b836001600160a01b031661356f82611bf9565b6001600160a01b0316146135da5760405162461bcd60e51b815260206004820152602c60248201527f4f4e4654373231456e756d657261626c653a2073656e642066726f6d20696e6360448201526b37b93932b1ba1037bbb732b960a11b6064820152608401610c6d565b610c8281613c29565b61ffff85166000908152600160205260409020805461360190614ed5565b1515905061366c5760405162461bcd60e51b815260206004820152603260248201527f4c7a53656e643a2064657374696e6174696f6e20636861696e206973206e6f746044820152711030903a393ab9ba32b21039b7bab931b29760711b6064820152608401610c6d565b61ffff851660009081526001602052604090819020905162c5803160e81b81526001600160a01b037f0000000000000000000000000000000000000000000000000000000000000000169163c58031009134916136d6918a91908a908a908a908a90600401614cbe565b6000604051808303818588803b15801561251d57600080fd5b610f8e8282613cd0565b60006001600160a01b0384163b156137fb57604051630a85bd0160e11b81526001600160a01b0385169063150b7a029061373d9033908990889088906004016148f3565b602060405180830381600087803b15801561375757600080fd5b505af1925050508015613787575060408051601f3d908101601f19168201909252613784918101906142d7565b60015b6137e1573d8080156137b5576040519150601f19603f3d011682016040523d82523d6000602084013e6137ba565b606091505b5080516137d95760405162461bcd60e51b8152600401610c6d906149af565b805181602001fd5b6001600160e01b031916630a85bd0160e11b14905061281c565b50600161281c565b600081815b845181101561387d57600085828151811061383357634e487b7160e01b600052603260045260246000fd5b60200260200101519050808311613859576000838152602082905260409020925061386a565b600081815260208490526040902092505b508061387581614f10565b915050613808565b509392505050565b60006001600160e01b03198216637bb0080b60e01b1480610ca557506301ffc9a760e01b6001600160e01b0319831614610ca5565b600080366138c9606082614e92565b6138d4928290614e1f565b8101906132f2919061407a565b600080366138f0602082614e92565b6138fb928290614e1f565b8101906132f291906142a3565b600080366138c9604082614e92565b6040516001600160a01b038316602482015260448101829052610f8e90849063a9059cbb60e01b90606401612a07565b804710156139975760405162461bcd60e51b815260206004820152601d60248201527f416464726573733a20696e73756666696369656e742062616c616e63650000006044820152606401610c6d565b6000826001600160a01b03168260405160006040518083038185875af1925050503d80600081146139e4576040519150601f19603f3d011682016040523d82523d6000602084013e6139e9565b606091505b5050905080610f8e5760405162461bcd60e51b815260206004820152603a60248201527f416464726573733a20756e61626c6520746f2073656e642076616c75652c207260448201527f6563697069656e74206d617920686176652072657665727465640000000000006064820152608401610c6d565b606061281c8484600085613cea565b60006001613a7c84611d72565b613a869190614e92565b6000838152600a6020526040902054909150808214613ad9576001600160a01b03841660009081526009602090815260408083208584528252808320548484528184208190558352600a90915290208190555b506000918252600a602090815260408084208490556001600160a01b039094168352600981528383209183525290812055565b600b54600090613b1e90600190614e92565b6000838152600c6020526040812054600b8054939450909284908110613b5457634e487b7160e01b600052603260045260246000fd5b9060005260206000200154905080600b8381548110613b8357634e487b7160e01b600052603260045260246000fd5b6000918252602080832090910192909255828152600c9091526040808220849055858252812055600b805480613bc957634e487b7160e01b600052603160045260246000fd5b6001900381819060005260206000200160009055905550505050565b6000613bf083611d72565b6001600160a01b0390931660009081526009602090815260408083208684528252808320859055938252600a9052919091209190915550565b6000613c3482611bf9565b9050613c4281600084613429565b613c4d60008361293a565b6001600160a01b0381166000908152600660205260408120805460019290613c76908490614e92565b909155505060008281526005602052604080822080546001600160a01b0319169055518391906001600160a01b038416907fddf252ad1be2c89b69c2b068fc378daa952ba7f163c4a11628f55a4df523b3ef908390a45050565b611ba9828260405180602001604052806000815250613e1b565b606082471015613d4b5760405162461bcd60e51b815260206004820152602660248201527f416464726573733a20696e73756666696369656e742062616c616e636520666f6044820152651c8818d85b1b60d21b6064820152608401610c6d565b6001600160a01b0385163b613da25760405162461bcd60e51b815260206004820152601d60248201527f416464726573733a2063616c6c20746f206e6f6e2d636f6e74726163740000006044820152606401610c6d565b600080866001600160a01b03168587604051613dbe9190614839565b60006040518083038185875af1925050503d8060008114613dfb576040519150601f19603f3d011682016040523d82523d6000602084013e613e00565b606091505b5091509150613e10828286613e4e565b979650505050505050565b613e258383612a3e565b613e3260008484846136f9565b610f8e5760405162461bcd60e51b8152600401610c6d906149af565b60608315613e5d5750816119c9565b825115613e6d5782518084602001fd5b8160405162461bcd60e51b8152600401610c6d9190614930565b828054613e9390614ed5565b90600052602060002090601f016020900481019282613eb55760008555613efb565b82601f10613ece57805160ff1916838001178555613efb565b82800160010185558215613efb579182015b82811115613efb578251825591602001919060010190613ee0565b50613f07929150613f7f565b5090565b828054613f1790614ed5565b90600052602060002090601f016020900481019282613f395760008555613efb565b82601f10613f525782800160ff19823516178555613efb565b82800160010185558215613efb579182015b82811115613efb578235825591602001919060010190613f64565b5b80821115613f075760008155600101613f80565b6000613fa7613fa284614df8565b614dc8565b9050828152838383011115613fbb57600080fd5b828260208301376000602084830101529392505050565b60008083601f840112613fe3578182fd5b5081356001600160401b03811115613ff9578182fd5b60208301915083602082850101111561401157600080fd5b9250929050565b600082601f830112614028578081fd5b6119c983833560208501613f94565b600082601f830112614047578081fd5b8151614055613fa282614df8565b818152846020838601011115614069578283fd5b61281c826020830160208701614ea9565b60006020828403121561408b578081fd5b81356119c981614f81565b600080604083850312156140a8578081fd5b82356140b381614f81565b915060208301356140c381614f81565b809150509250929050565b6000806000606084860312156140e2578081fd5b83356140ed81614f81565b925060208401356140fd81614f81565b929592945050506040919091013590565b60008060008060808587031215614123578081fd5b843561412e81614f81565b9350602085013561413e81614f81565b92506040850135915060608501356001600160401b0381111561415f578182fd5b61416b87828801614018565b91505092959194509250565b60008060408385031215614189578182fd5b823561419481614f81565b915060208301356140c381614f96565b600080600080600080600060e0888a0312156141be578485fd5b87356141c981614f81565b965060208801356141d981614fba565b955060408801356001600160401b03808211156141f4578687fd5b6142008b838c01614018565b965060608a0135955060808a0135915061421982614f81565b90935060a08901359061422b82614f81565b90925060c08901359080821115614240578283fd5b5061424d8a828b01614018565b91505092959891949750929550565b6000806040838503121561426e578182fd5b823561427981614f81565b946020939093013593505050565b600060208284031215614298578081fd5b81516119c981614f96565b6000602082840312156142b4578081fd5b5035919050565b6000602082840312156142cc578081fd5b81356119c981614fa4565b6000602082840312156142e8578081fd5b81516119c981614fa4565b600060208284031215614304578081fd5b81516001600160401b03811115614319578182fd5b61281c84828501614037565b60008060408385031215614337578182fd5b82516001600160401b0381111561434c578283fd5b61435885828601614037565b925050602083015190509250929050565b60006020828403121561437a578081fd5b81356001600160401b0381111561438f578182fd5b8201601f8101841361439f578182fd5b61281c84823560208401613f94565b6000602082840312156143bf578081fd5b81356119c981614fba565b6000602082840312156143db578081fd5b81516119c981614fba565b6000806000604084860312156143fa578081fd5b833561440581614fba565b925060208401356001600160401b0381111561441f578182fd5b61442b86828701613fd2565b9497909650939450505050565b60008060006060848603121561444c578081fd5b833561445781614fba565b925060208401356001600160401b03811115614471578182fd5b61447d86828701614018565b925050604084013590509250925092565b600080600080600060a086880312156144a5578283fd5b85356144b081614fba565b945060208601356001600160401b03808211156144cb578485fd5b6144d789838a01614018565b955060408801359450606088013591506144f082614f96565b90925060808701359080821115614505578283fd5b5061451288828901614018565b9150509295509295909350565b600080600080600060808688031215614536578283fd5b853561454181614fba565b945060208601356001600160401b038082111561455c578485fd5b61456889838a01614018565b95506040880135915061457a82614fca565b9093506060870135908082111561458f578283fd5b5061459c88828901613fd2565b969995985093965092949392505050565b600080600080608085870312156145c2578182fd5b84356145cd81614fba565b935060208501356001600160401b03808211156145e8578384fd5b6145f488838901614018565b94506040870135915061460682614fca565b9092506060860135908082111561461b578283fd5b5061416b87828801614018565b6000806000806080858703121561463d578182fd5b843561464881614fba565b9350602085013561465881614fba565b9250604085013561466881614f81565b9396929550929360600135925050565b60008060008060006080868803121561468f578283fd5b853561469a81614fba565b945060208601356146aa81614fba565b93506040860135925060608601356001600160401b038111156146cb578182fd5b61459c88828901613fd2565b600080604083850312156146e9578182fd5b8235915060208301356140c381614f81565b60008060006040848603121561470f578081fd5b8335925060208401356001600160401b038082111561472c578283fd5b818601915086601f83011261473f578283fd5b81358181111561474d578384fd5b8760208260051b8501011115614761578384fd5b6020830194508093505050509250925092565b60008060408385031215614786578182fd5b50508035926020909101359150565b600080604083850312156147a7578182fd5b505080516020909101519092909150565b6000602082840312156147c9578081fd5b81516119c981614fca565b81835281816020850137506000828201602090810191909152601f909101601f19169091010190565b60008151808452614815816020860160208601614ea9565b601f01601f19169290920160200192915050565b8183823760009101908152919050565b6000825161484b818460208701614ea9565b9190910192915050565b600080835461486381614ed5565b6001828116801561487b576001811461488c576148b8565b60ff198416875282870194506148b8565b8786526020808720875b858110156148af5781548a820152908401908201614896565b50505082870194505b50929695505050505050565b600083516148d6818460208801614ea9565b8351908301906148ea818360208801614ea9565b01949350505050565b6001600160a01b0385811682528416602082015260408101839052608060608201819052600090614926908301846147fd565b9695505050505050565b6020815260006119c960208301846147fd565b60408152600061495660408301856147fd565b90508260208301529392505050565b6020808252602a908201527f416476616e6365644f4e46543732313a2053616c6520686173206e6f742073746040820152696172746564207965742160b01b606082015260800190565b60208082526032908201527f4552433732313a207472616e7366657220746f206e6f6e20455243373231526560408201527131b2b4bb32b91034b6b83632b6b2b73a32b960711b606082015260800190565b60208082526026908201527f416476616e6365644f4e46543732313a2043616e6e6f74206d696e74203020746040820152656f6b656e732160d01b606082015260800190565b6020808252604b908201527f416476616e6365644f4e46543732313a20596f752063616e6e6f74206d696e7460408201527f206d6f7265207468616e206d6178546f6b656e735065724d696e7420746f6b6560608201526a6e73206174206f6e63652160a81b608082015260a00190565b6020808252818101527f4f776e61626c653a2063616c6c6572206973206e6f7420746865206f776e6572604082015260600190565b60208082526027908201527f416476616e6365644f4e46543732313a206d6178206d696e74206c696d6974206040820152661c995858da195960ca1b606082015260800190565b60208082526031908201527f4552433732313a207472616e736665722063616c6c6572206973206e6f74206f6040820152701ddb995c881b9bdc88185c1c1c9bdd9959607a1b606082015260800190565b6020808252602a908201527f416476616e6365644f4e46543732313a20496e636f6e73697374656e7420616d6040820152696f756e742073656e742160b01b606082015260800190565b61ffff861681526001600160a01b038516602082015260a060408201819052600090614bfd908301866147fd565b84151560608401528281036080840152614c1781856147fd565b98975050505050505050565b61ffff841681526040602082015260006128196040830184866147d4565b61ffff86168152608060208201526000614c5e60808301876147fd565b6001600160401b03861660408401528281036060840152614c178185876147d4565b61ffff85168152608060208201526000614c9d60808301866147fd565b6001600160401b03851660408401528281036060840152613e1081856147fd565b61ffff871681526000602060c081840152818854614cdb81614ed5565b8060c087015260e0600180841660008114614cfd5760018114614d1257614d3d565b60ff1985168984015261010089019550614d3d565b8d8852868820885b85811015614d355781548b8201860152908301908801614d1a565b8a0184019650505b50505050508381036040850152614d5481896147fd565b915050614d6c60608401876001600160a01b03169052565b6001600160a01b038516608084015282810360a0840152614d8d81856147fd565b9998505050505050505050565b600061ffff808816835280871660208401525084604083015260806060830152613e106080830184866147d4565b604051601f8201601f191681016001600160401b0381118282101715614df057614df0614f6b565b604052919050565b60006001600160401b03821115614e1157614e11614f6b565b50601f01601f191660200190565b60008085851115614e2e578182fd5b83861115614e3a578182fd5b5050820193919092039150565b60008219821115614e5a57614e5a614f3f565b500190565b600082614e6e57614e6e614f55565b500490565b6000816000190483118215151615614e8d57614e8d614f3f565b500290565b600082821015614ea457614ea4614f3f565b500390565b60005b83811015614ec4578181015183820152602001614eac565b83811115610c825750506000910152565b600181811c90821680614ee957607f821691505b60208210811415614f0a57634e487b7160e01b600052602260045260246000fd5b50919050565b6000600019821415614f2457614f24614f3f565b5060010190565b600082614f3a57614f3a614f55565b500690565b634e487b7160e01b600052601160045260246000fd5b634e487b7160e01b600052601260045260246000fd5b634e487b7160e01b600052604160045260246000fd5b6001600160a01b038116811461190057600080fd5b801515811461190057600080fd5b6001600160e01b03198116811461190057600080fd5b61ffff8116811461190057600080fd5b6001600160401b038116811461190057600080fdfea26469706673582212207745f47eb2890c9b15c81e2c382230563ffabf4500eefe2c8837f1229f25eae064736f6c63430008040033",
  "devdoc": {
    "author": "exakoss",
    "kind": "dev",
    "methods": {
      "approve(address,uint256)": {
        "details": "See {IERC721-approve}."
      },
      "balanceOf(address)": {
        "details": "See {IERC721-balanceOf}."
      },
      "constructor": {
        "params": {
          "_baseTokenURI": "the base URI for computing the tokenURI",
          "_endMintId": "the max number of mints on this chain",
          "_hiddenURI": "the URI for computing the hiddenMetadataUri",
          "_layerZeroEndpoint": "handles message transmission across chains",
          "_maxTokensPerMint": "the max number of tokens that could be minted in a single transaction",
          "_name": "the name of the token",
          "_startMintId": "the starting mint number on this chain, excluded",
          "_symbol": "the token symbol"
        }
      },
      "estimateSendFee(uint16,bytes,uint256,bool,bytes)": {
        "details": "estimate send token `_tokenId` to (`_dstChainId`, `_toAddress`) _dstChainId - L0 defined chain id to send tokens too _toAddress - dynamic bytes array which contains the address to whom you are sending tokens to on the dstChain _tokenId - token Id to transfer _useZro - indicates to use zro to pay L0 fees _adapterParams - flexible bytes array to indicate messaging adapter services in L0"
      },
      "getApproved(uint256)": {
        "details": "See {IERC721-getApproved}."
      },
      "isApprovedForAll(address,address)": {
        "details": "See {IERC721-isApprovedForAll}."
      },
      "name()": {
        "details": "See {IERC721Metadata-name}."
      },
      "owner()": {
        "details": "Returns the address of the current owner."
      },
      "ownerOf(uint256)": {
        "details": "See {IERC721-ownerOf}."
      },
      "renounceOwnership()": {
        "details": "Leaves the contract without owner. It will not be possible to call `onlyOwner` functions anymore. Can only be called by the current owner. NOTE: Renouncing ownership will leave the contract without an owner, thereby removing any functionality that is only available to the owner."
      },
      "safeTransferFrom(address,address,uint256)": {
        "details": "See {IERC721-safeTransferFrom}."
      },
      "safeTransferFrom(address,address,uint256,bytes)": {
        "details": "See {IERC721-safeTransferFrom}."
      },
      "sendFrom(address,uint16,bytes,uint256,address,address,bytes)": {
        "details": "send token `_tokenId` to (`_dstChainId`, `_toAddress`) from `_from` `_toAddress` can be any size depending on the `dstChainId`. `_zroPaymentAddress` set to address(0x0) if not paying in ZRO (LayerZero Token) `_adapterParams` is a flexible bytes array to indicate messaging adapter services"
      },
      "setApprovalForAll(address,bool)": {
        "details": "See {IERC721-setApprovalForAll}."
      },
      "symbol()": {
        "details": "See {IERC721Metadata-symbol}."
      },
      "tokenByIndex(uint256)": {
        "details": "See {IERC721Enumerable-tokenByIndex}."
      },
      "tokenOfOwnerByIndex(address,uint256)": {
        "details": "See {IERC721Enumerable-tokenOfOwnerByIndex}."
      },
      "tokenURI(uint256)": {
        "details": "See {IERC721Metadata-tokenURI}."
      },
      "totalSupply()": {
        "details": "See {IERC721Enumerable-totalSupply}."
      },
      "transferFrom(address,address,uint256)": {
        "details": "See {IERC721-transferFrom}."
      },
      "transferOwnership(address)": {
        "details": "Transfers ownership of the contract to a new account (`newOwner`). Can only be called by the current owner."
      }
    },
    "title": "Interface of the AdvancedONFT standard",
    "version": 1
  },
  "userdoc": {
    "kind": "user",
    "methods": {
      "constructor": {
        "notice": "Constructor for the AdvancedONFT"
      },
      "gaslessMint(uint256,address)": {
        "notice": "gasless mint "
      },
      "mint(uint256,bytes32[])": {
        "notice": "Mint your ONFTs, whitelisted addresses only"
      },
      "publicMint(uint256)": {
        "notice": "Mint your ONFTs"
      },
      "stablePrice()": {
        "notice": "For stable minting"
      }
    },
    "notice": "this implementation supports: batch mint, payable public and private mint, reveal of metadata and EIP-2981 on-chain royalties",
    "version": 1
  },
  "storageLayout": {
    "storage": [
      {
        "astId": 338,
        "contract": "contracts/token/onft/extension/Milady.sol:Milady",
        "label": "_owner",
        "offset": 0,
        "slot": "0",
        "type": "t_address"
      },
      {
        "astId": 14233,
        "contract": "contracts/token/onft/extension/Milady.sol:Milady",
        "label": "trustedRemoteLookup",
        "offset": 0,
        "slot": "1",
        "type": "t_mapping(t_uint16,t_bytes_storage)"
      },
      {
        "astId": 14547,
        "contract": "contracts/token/onft/extension/Milady.sol:Milady",
        "label": "failedMessages",
        "offset": 0,
        "slot": "2",
        "type": "t_mapping(t_uint16,t_mapping(t_bytes_memory_ptr,t_mapping(t_uint256,t_bytes32)))"
      },
      {
        "astId": 3037,
        "contract": "contracts/token/onft/extension/Milady.sol:Milady",
        "label": "_name",
        "offset": 0,
        "slot": "3",
        "type": "t_string_storage"
      },
      {
        "astId": 3039,
        "contract": "contracts/token/onft/extension/Milady.sol:Milady",
        "label": "_symbol",
        "offset": 0,
        "slot": "4",
        "type": "t_string_storage"
      },
      {
        "astId": 3043,
        "contract": "contracts/token/onft/extension/Milady.sol:Milady",
        "label": "_owners",
        "offset": 0,
        "slot": "5",
        "type": "t_mapping(t_uint256,t_address)"
      },
      {
        "astId": 3047,
        "contract": "contracts/token/onft/extension/Milady.sol:Milady",
        "label": "_balances",
        "offset": 0,
        "slot": "6",
        "type": "t_mapping(t_address,t_uint256)"
      },
      {
        "astId": 3051,
        "contract": "contracts/token/onft/extension/Milady.sol:Milady",
        "label": "_tokenApprovals",
        "offset": 0,
        "slot": "7",
        "type": "t_mapping(t_uint256,t_address)"
      },
      {
        "astId": 3057,
        "contract": "contracts/token/onft/extension/Milady.sol:Milady",
        "label": "_operatorApprovals",
        "offset": 0,
        "slot": "8",
        "type": "t_mapping(t_address,t_mapping(t_address,t_bool))"
      },
      {
        "astId": 4026,
        "contract": "contracts/token/onft/extension/Milady.sol:Milady",
        "label": "_ownedTokens",
        "offset": 0,
        "slot": "9",
        "type": "t_mapping(t_address,t_mapping(t_uint256,t_uint256))"
      },
      {
        "astId": 4030,
        "contract": "contracts/token/onft/extension/Milady.sol:Milady",
        "label": "_ownedTokensIndex",
        "offset": 0,
        "slot": "10",
        "type": "t_mapping(t_uint256,t_uint256)"
      },
      {
        "astId": 4033,
        "contract": "contracts/token/onft/extension/Milady.sol:Milady",
        "label": "_allTokens",
        "offset": 0,
        "slot": "11",
        "type": "t_array(t_uint256)dyn_storage"
      },
      {
        "astId": 4037,
        "contract": "contracts/token/onft/extension/Milady.sol:Milady",
        "label": "_allTokensIndex",
        "offset": 0,
        "slot": "12",
        "type": "t_mapping(t_uint256,t_uint256)"
      },
      {
        "astId": 574,
        "contract": "contracts/token/onft/extension/Milady.sol:Milady",
        "label": "_status",
        "offset": 0,
        "slot": "13",
        "type": "t_uint256"
      },
      {
        "astId": 18009,
        "contract": "contracts/token/onft/extension/Milady.sol:Milady",
        "label": "price",
        "offset": 0,
        "slot": "14",
        "type": "t_uint256"
      },
      {
        "astId": 18011,
        "contract": "contracts/token/onft/extension/Milady.sol:Milady",
        "label": "nextMintId",
        "offset": 0,
        "slot": "15",
        "type": "t_uint256"
      },
      {
        "astId": 18013,
        "contract": "contracts/token/onft/extension/Milady.sol:Milady",
        "label": "maxMintId",
        "offset": 0,
        "slot": "16",
        "type": "t_uint256"
      },
      {
        "astId": 18015,
        "contract": "contracts/token/onft/extension/Milady.sol:Milady",
        "label": "maxTokensPerMint",
        "offset": 0,
        "slot": "17",
        "type": "t_uint256"
      },
      {
        "astId": 18018,
        "contract": "contracts/token/onft/extension/Milady.sol:Milady",
        "label": "royaltyBasisPoints",
        "offset": 0,
        "slot": "18",
        "type": "t_uint256"
      },
      {
        "astId": 18020,
        "contract": "contracts/token/onft/extension/Milady.sol:Milady",
        "label": "beneficiary",
        "offset": 0,
        "slot": "19",
        "type": "t_address_payable"
      },
      {
        "astId": 18022,
        "contract": "contracts/token/onft/extension/Milady.sol:Milady",
        "label": "merkleRoot",
        "offset": 0,
        "slot": "20",
        "type": "t_bytes32"
      },
      {
        "astId": 18024,
        "contract": "contracts/token/onft/extension/Milady.sol:Milady",
        "label": "contractURI",
        "offset": 0,
        "slot": "21",
        "type": "t_string_storage"
      },
      {
        "astId": 18026,
        "contract": "contracts/token/onft/extension/Milady.sol:Milady",
        "label": "baseURI",
        "offset": 0,
        "slot": "22",
        "type": "t_string_storage"
      },
      {
        "astId": 18028,
        "contract": "contracts/token/onft/extension/Milady.sol:Milady",
        "label": "hiddenMetadataURI",
        "offset": 0,
        "slot": "23",
        "type": "t_string_storage"
      },
      {
        "astId": 18032,
        "contract": "contracts/token/onft/extension/Milady.sol:Milady",
        "label": "_boughtCount",
        "offset": 0,
        "slot": "24",
        "type": "t_mapping(t_address,t_uint256)"
      },
      {
        "astId": 18034,
        "contract": "contracts/token/onft/extension/Milady.sol:Milady",
        "label": "_publicSaleStarted",
        "offset": 0,
        "slot": "25",
        "type": "t_bool"
      },
      {
        "astId": 18036,
        "contract": "contracts/token/onft/extension/Milady.sol:Milady",
        "label": "_saleStarted",
        "offset": 1,
        "slot": "25",
        "type": "t_bool"
      },
      {
        "astId": 18038,
        "contract": "contracts/token/onft/extension/Milady.sol:Milady",
        "label": "revealed",
        "offset": 2,
        "slot": "25",
        "type": "t_bool"
      },
      {
        "astId": 18042,
        "contract": "contracts/token/onft/extension/Milady.sol:Milady",
        "label": "stablePrice",
        "offset": 0,
        "slot": "26",
        "type": "t_uint256"
      }
    ],
    "types": {
      "t_address": {
        "encoding": "inplace",
        "label": "address",
        "numberOfBytes": "20"
      },
      "t_address_payable": {
        "encoding": "inplace",
        "label": "address payable",
        "numberOfBytes": "20"
      },
      "t_array(t_uint256)dyn_storage": {
        "base": "t_uint256",
        "encoding": "dynamic_array",
        "label": "uint256[]",
        "numberOfBytes": "32"
      },
      "t_bool": {
        "encoding": "inplace",
        "label": "bool",
        "numberOfBytes": "1"
      },
      "t_bytes32": {
        "encoding": "inplace",
        "label": "bytes32",
        "numberOfBytes": "32"
      },
      "t_bytes_memory_ptr": {
        "encoding": "bytes",
        "label": "bytes",
        "numberOfBytes": "32"
      },
      "t_bytes_storage": {
        "encoding": "bytes",
        "label": "bytes",
        "numberOfBytes": "32"
      },
      "t_mapping(t_address,t_bool)": {
        "encoding": "mapping",
        "key": "t_address",
        "label": "mapping(address => bool)",
        "numberOfBytes": "32",
        "value": "t_bool"
      },
      "t_mapping(t_address,t_mapping(t_address,t_bool))": {
        "encoding": "mapping",
        "key": "t_address",
        "label": "mapping(address => mapping(address => bool))",
        "numberOfBytes": "32",
        "value": "t_mapping(t_address,t_bool)"
      },
      "t_mapping(t_address,t_mapping(t_uint256,t_uint256))": {
        "encoding": "mapping",
        "key": "t_address",
        "label": "mapping(address => mapping(uint256 => uint256))",
        "numberOfBytes": "32",
        "value": "t_mapping(t_uint256,t_uint256)"
      },
      "t_mapping(t_address,t_uint256)": {
        "encoding": "mapping",
        "key": "t_address",
        "label": "mapping(address => uint256)",
        "numberOfBytes": "32",
        "value": "t_uint256"
      },
      "t_mapping(t_bytes_memory_ptr,t_mapping(t_uint256,t_bytes32))": {
        "encoding": "mapping",
        "key": "t_bytes_memory_ptr",
        "label": "mapping(bytes => mapping(uint256 => bytes32))",
        "numberOfBytes": "32",
        "value": "t_mapping(t_uint256,t_bytes32)"
      },
      "t_mapping(t_uint16,t_bytes_storage)": {
        "encoding": "mapping",
        "key": "t_uint16",
        "label": "mapping(uint16 => bytes)",
        "numberOfBytes": "32",
        "value": "t_bytes_storage"
      },
      "t_mapping(t_uint16,t_mapping(t_bytes_memory_ptr,t_mapping(t_uint256,t_bytes32)))": {
        "encoding": "mapping",
        "key": "t_uint16",
        "label": "mapping(uint16 => mapping(bytes => mapping(uint256 => bytes32)))",
        "numberOfBytes": "32",
        "value": "t_mapping(t_bytes_memory_ptr,t_mapping(t_uint256,t_bytes32))"
      },
      "t_mapping(t_uint256,t_address)": {
        "encoding": "mapping",
        "key": "t_uint256",
        "label": "mapping(uint256 => address)",
        "numberOfBytes": "32",
        "value": "t_address"
      },
      "t_mapping(t_uint256,t_bytes32)": {
        "encoding": "mapping",
        "key": "t_uint256",
        "label": "mapping(uint256 => bytes32)",
        "numberOfBytes": "32",
        "value": "t_bytes32"
      },
      "t_mapping(t_uint256,t_uint256)": {
        "encoding": "mapping",
        "key": "t_uint256",
        "label": "mapping(uint256 => uint256)",
        "numberOfBytes": "32",
        "value": "t_uint256"
      },
      "t_string_storage": {
        "encoding": "bytes",
        "label": "string",
        "numberOfBytes": "32"
      },
      "t_uint16": {
        "encoding": "inplace",
        "label": "uint16",
        "numberOfBytes": "2"
      },
      "t_uint256": {
        "encoding": "inplace",
        "label": "uint256",
        "numberOfBytes": "32"
      }
    }
  }
}