{
  "abi": [
    {
      "inputs": [
        {
          "internalType": "string",
          "name": "_name",
          "type": "string"
        },
        {
          "internalType": "string",
          "name": "_symbol",
          "type": "string"
        },
        {
          "internalType": "address",
          "name": "_layerZeroEndpoint",
          "type": "address"
        }
      ],
      "stateMutability": "nonpayable",
      "type": "constructor"
    },
    {
      "inputs": [
        {
          "internalType": "address",
          "name": "operator",
          "type": "address"
        }
      ],
      "name": "OperatorNotAllowed",
      "type": "error"
    },
    {
      "anonymous": false,
      "inputs": [
        {
          "indexed": true,
          "internalType": "address",
          "name": "owner",
          "type": "address"
        },
        {
          "indexed": true,
          "internalType": "address",
          "name": "approved",
          "type": "address"
        },
        {
          "indexed": true,
          "internalType": "uint256",
          "name": "tokenId",
          "type": "uint256"
        }
      ],
      "name": "Approval",
      "type": "event"
    },
    {
      "anonymous": false,
      "inputs": [
        {
          "indexed": true,
          "internalType": "address",
          "name": "owner",
          "type": "address"
        },
        {
          "indexed": true,
          "internalType": "address",
          "name": "operator",
          "type": "address"
        },
        {
          "indexed": false,
          "internalType": "bool",
          "name": "approved",
          "type": "bool"
        }
      ],
      "name": "ApprovalForAll",
      "type": "event"
    },
    {
      "anonymous": false,
      "inputs": [
        {
          "indexed": false,
          "internalType": "bytes32",
          "name": "_hashedPayload",
          "type": "bytes32"
        }
      ],
      "name": "CreditCleared",
      "type": "event"
    },
    {
      "anonymous": false,
      "inputs": [
        {
          "indexed": false,
          "internalType": "bytes32",
          "name": "_hashedPayload",
          "type": "bytes32"
        },
        {
          "indexed": false,
          "internalType": "bytes",
          "name": "_payload",
          "type": "bytes"
        }
      ],
      "name": "CreditStored",
      "type": "event"
    },
    {
      "anonymous": false,
      "inputs": [
        {
          "indexed": false,
          "internalType": "uint16",
          "name": "_srcChainId",
          "type": "uint16"
        },
        {
          "indexed": false,
          "internalType": "bytes",
          "name": "_srcAddress",
          "type": "bytes"
        },
        {
          "indexed": false,
          "internalType": "uint64",
          "name": "_nonce",
          "type": "uint64"
        },
        {
          "indexed": false,
          "internalType": "bytes",
          "name": "_payload",
          "type": "bytes"
        },
        {
          "indexed": false,
          "internalType": "bytes",
          "name": "_reason",
          "type": "bytes"
        }
      ],
      "name": "MessageFailed",
      "type": "event"
    },
    {
      "anonymous": false,
      "inputs": [
        {
          "indexed": true,
          "internalType": "address",
          "name": "previousOwner",
          "type": "address"
        },
        {
          "indexed": true,
          "internalType": "address",
          "name": "newOwner",
          "type": "address"
        }
      ],
      "name": "OwnershipTransferred",
      "type": "event"
    },
    {
      "anonymous": false,
      "inputs": [
        {
          "indexed": true,
          "internalType": "uint16",
          "name": "_srcChainId",
          "type": "uint16"
        },
        {
          "indexed": true,
          "internalType": "bytes",
          "name": "_srcAddress",
          "type": "bytes"
        },
        {
          "indexed": true,
          "internalType": "address",
          "name": "_toAddress",
          "type": "address"
        },
        {
          "indexed": false,
          "internalType": "uint256[]",
          "name": "_tokenIds",
          "type": "uint256[]"
        }
      ],
      "name": "ReceiveFromChain",
      "type": "event"
    },
    {
      "anonymous": false,
      "inputs": [
        {
          "indexed": false,
          "internalType": "uint16",
          "name": "_srcChainId",
          "type": "uint16"
        },
        {
          "indexed": false,
          "internalType": "bytes",
          "name": "_srcAddress",
          "type": "bytes"
        },
        {
          "indexed": false,
          "internalType": "uint64",
          "name": "_nonce",
          "type": "uint64"
        },
        {
          "indexed": false,
          "internalType": "bytes32",
          "name": "_payloadHash",
          "type": "bytes32"
        }
      ],
      "name": "RetryMessageSuccess",
      "type": "event"
    },
    {
      "anonymous": false,
      "inputs": [
        {
          "indexed": true,
          "internalType": "uint16",
          "name": "_dstChainId",
          "type": "uint16"
        },
        {
          "indexed": true,
          "internalType": "address",
          "name": "_from",
          "type": "address"
        },
        {
          "indexed": true,
          "internalType": "bytes",
          "name": "_toAddress",
          "type": "bytes"
        },
        {
          "indexed": false,
          "internalType": "uint256[]",
          "name": "_tokenIds",
          "type": "uint256[]"
        }
      ],
      "name": "SendToChain",
      "type": "event"
    },
    {
      "anonymous": false,
      "inputs": [
        {
          "indexed": false,
          "internalType": "uint16",
          "name": "_dstChainId",
          "type": "uint16"
        },
        {
          "indexed": false,
          "internalType": "uint16",
          "name": "_type",
          "type": "uint16"
        },
        {
          "indexed": false,
          "internalType": "uint256",
          "name": "_minDstGas",
          "type": "uint256"
        }
      ],
      "name": "SetMinDstGas",
      "type": "event"
    },
    {
      "anonymous": false,
      "inputs": [
        {
          "indexed": false,
          "internalType": "address",
          "name": "precrime",
          "type": "address"
        }
      ],
      "name": "SetPrecrime",
      "type": "event"
    },
    {
      "anonymous": false,
      "inputs": [
        {
          "indexed": false,
          "internalType": "uint16",
          "name": "_remoteChainId",
          "type": "uint16"
        },
        {
          "indexed": false,
          "internalType": "bytes",
          "name": "_path",
          "type": "bytes"
        }
      ],
      "name": "SetTrustedRemote",
      "type": "event"
    },
    {
      "anonymous": false,
      "inputs": [
        {
          "indexed": false,
          "internalType": "uint16",
          "name": "_remoteChainId",
          "type": "uint16"
        },
        {
          "indexed": false,
          "internalType": "bytes",
          "name": "_remoteAddress",
          "type": "bytes"
        }
      ],
      "name": "SetTrustedRemoteAddress",
      "type": "event"
    },
    {
      "anonymous": false,
      "inputs": [
        {
          "indexed": true,
          "internalType": "address",
          "name": "from",
          "type": "address"
        },
        {
          "indexed": true,
          "internalType": "address",
          "name": "to",
          "type": "address"
        },
        {
          "indexed": true,
          "internalType": "uint256",
          "name": "tokenId",
          "type": "uint256"
        }
      ],
      "name": "Transfer",
      "type": "event"
    },
    {
      "inputs": [],
      "name": "DEFAULT_PAYLOAD_SIZE_LIMIT",
      "outputs": [
        {
          "internalType": "uint256",
          "name": "",
          "type": "uint256"
        }
      ],
      "stateMutability": "view",
      "type": "function"
    },
    {
      "inputs": [],
      "name": "FUNCTION_TYPE_SEND",
      "outputs": [
        {
          "internalType": "uint16",
          "name": "",
          "type": "uint16"
        }
      ],
      "stateMutability": "view",
      "type": "function"
    },
    {
      "inputs": [],
      "name": "OPERATOR_FILTER_REGISTRY",
      "outputs": [
        {
          "internalType": "contract IOperatorFilterRegistry",
          "name": "",
          "type": "address"
        }
      ],
      "stateMutability": "view",
      "type": "function"
    },
    {
      "inputs": [
        {
          "internalType": "address",
          "name": "operator",
          "type": "address"
        },
        {
          "internalType": "uint256",
          "name": "tokenId",
          "type": "uint256"
        }
      ],
      "name": "approve",
      "outputs": [],
      "stateMutability": "nonpayable",
      "type": "function"
    },
    {
      "inputs": [
        {
          "internalType": "address",
          "name": "owner",
          "type": "address"
        }
      ],
      "name": "balanceOf",
      "outputs": [
        {
          "internalType": "uint256",
          "name": "",
          "type": "uint256"
        }
      ],
      "stateMutability": "view",
      "type": "function"
    },
    {
      "inputs": [
        {
          "internalType": "bytes",
          "name": "_payload",
          "type": "bytes"
        }
      ],
      "name": "clearCredits",
      "outputs": [],
      "stateMutability": "nonpayable",
      "type": "function"
    },
    {
      "inputs": [
        {
          "internalType": "uint16",
          "name": "",
          "type": "uint16"
        }
      ],
      "name": "dstChainIdToBatchLimit",
      "outputs": [
        {
          "internalType": "uint256",
          "name": "",
          "type": "uint256"
        }
      ],
      "stateMutability": "view",
      "type": "function"
    },
    {
      "inputs": [
        {
          "internalType": "uint16",
          "name": "",
          "type": "uint16"
        }
      ],
      "name": "dstChainIdToTransferGas",
      "outputs": [
        {
          "internalType": "uint256",
          "name": "",
          "type": "uint256"
        }
      ],
      "stateMutability": "view",
      "type": "function"
    },
    {
      "inputs": [
        {
          "internalType": "uint16",
          "name": "_dstChainId",
          "type": "uint16"
        },
        {
          "internalType": "bytes",
          "name": "_toAddress",
          "type": "bytes"
        },
        {
          "internalType": "uint256[]",
          "name": "_tokenIds",
          "type": "uint256[]"
        },
        {
          "internalType": "bool",
          "name": "_useZro",
          "type": "bool"
        },
        {
          "internalType": "bytes",
          "name": "_adapterParams",
          "type": "bytes"
        }
      ],
      "name": "estimateSendBatchFee",
      "outputs": [
        {
          "internalType": "uint256",
          "name": "nativeFee",
          "type": "uint256"
        },
        {
          "internalType": "uint256",
          "name": "zroFee",
          "type": "uint256"
        }
      ],
      "stateMutability": "view",
      "type": "function"
    },
    {
      "inputs": [
        {
          "internalType": "uint16",
          "name": "_dstChainId",
          "type": "uint16"
        },
        {
          "internalType": "bytes",
          "name": "_toAddress",
          "type": "bytes"
        },
        {
          "internalType": "uint256",
          "name": "_tokenId",
          "type": "uint256"
        },
        {
          "internalType": "bool",
          "name": "_useZro",
          "type": "bool"
        },
        {
          "internalType": "bytes",
          "name": "_adapterParams",
          "type": "bytes"
        }
      ],
      "name": "estimateSendFee",
      "outputs": [
        {
          "internalType": "uint256",
          "name": "nativeFee",
          "type": "uint256"
        },
        {
          "internalType": "uint256",
          "name": "zroFee",
          "type": "uint256"
        }
      ],
      "stateMutability": "view",
      "type": "function"
    },
    {
      "inputs": [
        {
          "internalType": "uint16",
          "name": "",
          "type": "uint16"
        },
        {
          "internalType": "bytes",
          "name": "",
          "type": "bytes"
        },
        {
          "internalType": "uint64",
          "name": "",
          "type": "uint64"
        }
      ],
      "name": "failedMessages",
      "outputs": [
        {
          "internalType": "bytes32",
          "name": "",
          "type": "bytes32"
        }
      ],
      "stateMutability": "view",
      "type": "function"
    },
    {
      "inputs": [
        {
          "internalType": "uint16",
          "name": "_srcChainId",
          "type": "uint16"
        },
        {
          "internalType": "bytes",
          "name": "_srcAddress",
          "type": "bytes"
        }
      ],
      "name": "forceResumeReceive",
      "outputs": [],
      "stateMutability": "nonpayable",
      "type": "function"
    },
    {
      "inputs": [
        {
          "internalType": "uint256",
          "name": "tokenId",
          "type": "uint256"
        }
      ],
      "name": "getApproved",
      "outputs": [
        {
          "internalType": "address",
          "name": "",
          "type": "address"
        }
      ],
      "stateMutability": "view",
      "type": "function"
    },
    {
      "inputs": [
        {
          "internalType": "uint16",
          "name": "_version",
          "type": "uint16"
        },
        {
          "internalType": "uint16",
          "name": "_chainId",
          "type": "uint16"
        },
        {
          "internalType": "address",
          "name": "",
          "type": "address"
        },
        {
          "internalType": "uint256",
          "name": "_configType",
          "type": "uint256"
        }
      ],
      "name": "getConfig",
      "outputs": [
        {
          "internalType": "bytes",
          "name": "",
          "type": "bytes"
        }
      ],
      "stateMutability": "view",
      "type": "function"
    },
    {
      "inputs": [
        {
          "internalType": "uint16",
          "name": "_remoteChainId",
          "type": "uint16"
        }
      ],
      "name": "getTrustedRemoteAddress",
      "outputs": [
        {
          "internalType": "bytes",
          "name": "",
          "type": "bytes"
        }
      ],
      "stateMutability": "view",
      "type": "function"
    },
    {
      "inputs": [
        {
          "internalType": "address",
          "name": "owner",
          "type": "address"
        },
        {
          "internalType": "address",
          "name": "operator",
          "type": "address"
        }
      ],
      "name": "isApprovedForAll",
      "outputs": [
        {
          "internalType": "bool",
          "name": "",
          "type": "bool"
        }
      ],
      "stateMutability": "view",
      "type": "function"
    },
    {
      "inputs": [
        {
          "internalType": "uint16",
          "name": "_srcChainId",
          "type": "uint16"
        },
        {
          "internalType": "bytes",
          "name": "_srcAddress",
          "type": "bytes"
        }
      ],
      "name": "isTrustedRemote",
      "outputs": [
        {
          "internalType": "bool",
          "name": "",
          "type": "bool"
        }
      ],
      "stateMutability": "view",
      "type": "function"
    },
    {
      "inputs": [],
      "name": "lzEndpoint",
      "outputs": [
        {
          "internalType": "contract ILayerZeroEndpoint",
          "name": "",
          "type": "address"
        }
      ],
      "stateMutability": "view",
      "type": "function"
    },
    {
      "inputs": [
        {
          "internalType": "uint16",
          "name": "_srcChainId",
          "type": "uint16"
        },
        {
          "internalType": "bytes",
          "name": "_srcAddress",
          "type": "bytes"
        },
        {
          "internalType": "uint64",
          "name": "_nonce",
          "type": "uint64"
        },
        {
          "internalType": "bytes",
          "name": "_payload",
          "type": "bytes"
        }
      ],
      "name": "lzReceive",
      "outputs": [],
      "stateMutability": "nonpayable",
      "type": "function"
    },
    {
      "inputs": [
        {
          "internalType": "uint16",
          "name": "",
          "type": "uint16"
        },
        {
          "internalType": "uint16",
          "name": "",
          "type": "uint16"
        }
      ],
      "name": "minDstGasLookup",
      "outputs": [
        {
          "internalType": "uint256",
          "name": "",
          "type": "uint256"
        }
      ],
      "stateMutability": "view",
      "type": "function"
    },
    {
      "inputs": [],
      "name": "minGasToTransferAndStore",
      "outputs": [
        {
          "internalType": "uint256",
          "name": "",
          "type": "uint256"
        }
      ],
      "stateMutability": "view",
      "type": "function"
    },
    {
      "inputs": [
        {
          "internalType": "uint8",
          "name": "_newId",
          "type": "uint8"
        }
      ],
      "name": "mint",
      "outputs": [],
      "stateMutability": "payable",
      "type": "function"
    },
    {
      "inputs": [],
      "name": "name",
      "outputs": [
        {
          "internalType": "string",
          "name": "",
          "type": "string"
        }
      ],
      "stateMutability": "view",
      "type": "function"
    },
    {
      "inputs": [
        {
          "internalType": "uint16",
          "name": "_srcChainId",
          "type": "uint16"
        },
        {
          "internalType": "bytes",
          "name": "_srcAddress",
          "type": "bytes"
        },
        {
          "internalType": "uint64",
          "name": "_nonce",
          "type": "uint64"
        },
        {
          "internalType": "bytes",
          "name": "_payload",
          "type": "bytes"
        }
      ],
      "name": "nonblockingLzReceive",
      "outputs": [],
      "stateMutability": "nonpayable",
      "type": "function"
    },
    {
      "inputs": [],
      "name": "owner",
      "outputs": [
        {
          "internalType": "address",
          "name": "",
          "type": "address"
        }
      ],
      "stateMutability": "view",
      "type": "function"
    },
    {
      "inputs": [
        {
          "internalType": "uint256",
          "name": "tokenId",
          "type": "uint256"
        }
      ],
      "name": "ownerOf",
      "outputs": [
        {
          "internalType": "address",
          "name": "",
          "type": "address"
        }
      ],
      "stateMutability": "view",
      "type": "function"
    },
    {
      "inputs": [
        {
          "internalType": "uint16",
          "name": "",
          "type": "uint16"
        }
      ],
      "name": "payloadSizeLimitLookup",
      "outputs": [
        {
          "internalType": "uint256",
          "name": "",
          "type": "uint256"
        }
      ],
      "stateMutability": "view",
      "type": "function"
    },
    {
      "inputs": [],
      "name": "precrime",
      "outputs": [
        {
          "internalType": "address",
          "name": "",
          "type": "address"
        }
      ],
      "stateMutability": "view",
      "type": "function"
    },
    {
      "inputs": [],
      "name": "renounceOwnership",
      "outputs": [],
      "stateMutability": "nonpayable",
      "type": "function"
    },
    {
      "inputs": [
        {
          "internalType": "uint16",
          "name": "_srcChainId",
          "type": "uint16"
        },
        {
          "internalType": "bytes",
          "name": "_srcAddress",
          "type": "bytes"
        },
        {
          "internalType": "uint64",
          "name": "_nonce",
          "type": "uint64"
        },
        {
          "internalType": "bytes",
          "name": "_payload",
          "type": "bytes"
        }
      ],
      "name": "retryMessage",
      "outputs": [],
      "stateMutability": "payable",
      "type": "function"
    },
    {
      "inputs": [
        {
          "internalType": "address",
          "name": "from",
          "type": "address"
        },
        {
          "internalType": "address",
          "name": "to",
          "type": "address"
        },
        {
          "internalType": "uint256",
          "name": "tokenId",
          "type": "uint256"
        }
      ],
      "name": "safeTransferFrom",
      "outputs": [],
      "stateMutability": "nonpayable",
      "type": "function"
    },
    {
      "inputs": [
        {
          "internalType": "address",
          "name": "from",
          "type": "address"
        },
        {
          "internalType": "address",
          "name": "to",
          "type": "address"
        },
        {
          "internalType": "uint256",
          "name": "tokenId",
          "type": "uint256"
        },
        {
          "internalType": "bytes",
          "name": "data",
          "type": "bytes"
        }
      ],
      "name": "safeTransferFrom",
      "outputs": [],
      "stateMutability": "nonpayable",
      "type": "function"
    },
    {
      "inputs": [
        {
          "internalType": "address",
          "name": "_from",
          "type": "address"
        },
        {
          "internalType": "uint16",
          "name": "_dstChainId",
          "type": "uint16"
        },
        {
          "internalType": "bytes",
          "name": "_toAddress",
          "type": "bytes"
        },
        {
          "internalType": "uint256[]",
          "name": "_tokenIds",
          "type": "uint256[]"
        },
        {
          "internalType": "address payable",
          "name": "_refundAddress",
          "type": "address"
        },
        {
          "internalType": "address",
          "name": "_zroPaymentAddress",
          "type": "address"
        },
        {
          "internalType": "bytes",
          "name": "_adapterParams",
          "type": "bytes"
        }
      ],
      "name": "sendBatchFrom",
      "outputs": [],
      "stateMutability": "payable",
      "type": "function"
    },
    {
      "inputs": [
        {
          "internalType": "address",
          "name": "_from",
          "type": "address"
        },
        {
          "internalType": "uint16",
          "name": "_dstChainId",
          "type": "uint16"
        },
        {
          "internalType": "bytes",
          "name": "_toAddress",
          "type": "bytes"
        },
        {
          "internalType": "uint256",
          "name": "_tokenId",
          "type": "uint256"
        },
        {
          "internalType": "address payable",
          "name": "_refundAddress",
          "type": "address"
        },
        {
          "internalType": "address",
          "name": "_zroPaymentAddress",
          "type": "address"
        },
        {
          "internalType": "bytes",
          "name": "_adapterParams",
          "type": "bytes"
        }
      ],
      "name": "sendFrom",
      "outputs": [],
      "stateMutability": "payable",
      "type": "function"
    },
    {
      "inputs": [
        {
          "internalType": "address",
          "name": "operator",
          "type": "address"
        },
        {
          "internalType": "bool",
          "name": "approved",
          "type": "bool"
        }
      ],
      "name": "setApprovalForAll",
      "outputs": [],
      "stateMutability": "nonpayable",
      "type": "function"
    },
    {
      "inputs": [
        {
          "internalType": "uint16",
          "name": "_version",
          "type": "uint16"
        },
        {
          "internalType": "uint16",
          "name": "_chainId",
          "type": "uint16"
        },
        {
          "internalType": "uint256",
          "name": "_configType",
          "type": "uint256"
        },
        {
          "internalType": "bytes",
          "name": "_config",
          "type": "bytes"
        }
      ],
      "name": "setConfig",
      "outputs": [],
      "stateMutability": "nonpayable",
      "type": "function"
    },
    {
      "inputs": [
        {
          "internalType": "uint16",
          "name": "_dstChainId",
          "type": "uint16"
        },
        {
          "internalType": "uint256",
          "name": "_dstChainIdToBatchLimit",
          "type": "uint256"
        }
      ],
      "name": "setDstChainIdToBatchLimit",
      "outputs": [],
      "stateMutability": "nonpayable",
      "type": "function"
    },
    {
      "inputs": [
        {
          "internalType": "uint16",
          "name": "_dstChainId",
          "type": "uint16"
        },
        {
          "internalType": "uint256",
          "name": "_dstChainIdToTransferGas",
          "type": "uint256"
        }
      ],
      "name": "setDstChainIdToTransferGas",
      "outputs": [],
      "stateMutability": "nonpayable",
      "type": "function"
    },
    {
      "inputs": [
        {
          "internalType": "uint16",
          "name": "_dstChainId",
          "type": "uint16"
        },
        {
          "internalType": "uint16",
          "name": "_packetType",
          "type": "uint16"
        },
        {
          "internalType": "uint256",
          "name": "_minGas",
          "type": "uint256"
        }
      ],
      "name": "setMinDstGas",
      "outputs": [],
      "stateMutability": "nonpayable",
      "type": "function"
    },
    {
      "inputs": [
        {
          "internalType": "uint256",
          "name": "_minGasToTransferAndStore",
          "type": "uint256"
        }
      ],
      "name": "setMinGasToTransferAndStore",
      "outputs": [],
      "stateMutability": "nonpayable",
      "type": "function"
    },
    {
      "inputs": [
        {
          "internalType": "uint16",
          "name": "_dstChainId",
          "type": "uint16"
        },
        {
          "internalType": "uint256",
          "name": "_size",
          "type": "uint256"
        }
      ],
      "name": "setPayloadSizeLimit",
      "outputs": [],
      "stateMutability": "nonpayable",
      "type": "function"
    },
    {
      "inputs": [
        {
          "internalType": "address",
          "name": "_precrime",
          "type": "address"
        }
      ],
      "name": "setPrecrime",
      "outputs": [],
      "stateMutability": "nonpayable",
      "type": "function"
    },
    {
      "inputs": [
        {
          "internalType": "uint16",
          "name": "_version",
          "type": "uint16"
        }
      ],
      "name": "setReceiveVersion",
      "outputs": [],
      "stateMutability": "nonpayable",
      "type": "function"
    },
    {
      "inputs": [
        {
          "internalType": "uint16",
          "name": "_version",
          "type": "uint16"
        }
      ],
      "name": "setSendVersion",
      "outputs": [],
      "stateMutability": "nonpayable",
      "type": "function"
    },
    {
      "inputs": [
        {
          "internalType": "uint16",
          "name": "_srcChainId",
          "type": "uint16"
        },
        {
          "internalType": "bytes",
          "name": "_path",
          "type": "bytes"
        }
      ],
      "name": "setTrustedRemote",
      "outputs": [],
      "stateMutability": "nonpayable",
      "type": "function"
    },
    {
      "inputs": [
        {
          "internalType": "uint16",
          "name": "_remoteChainId",
          "type": "uint16"
        },
        {
          "internalType": "bytes",
          "name": "_remoteAddress",
          "type": "bytes"
        }
      ],
      "name": "setTrustedRemoteAddress",
      "outputs": [],
      "stateMutability": "nonpayable",
      "type": "function"
    },
    {
      "inputs": [
        {
          "internalType": "bytes32",
          "name": "",
          "type": "bytes32"
        }
      ],
      "name": "storedCredits",
      "outputs": [
        {
          "internalType": "uint16",
          "name": "srcChainId",
          "type": "uint16"
        },
        {
          "internalType": "address",
          "name": "toAddress",
          "type": "address"
        },
        {
          "internalType": "uint256",
          "name": "index",
          "type": "uint256"
        },
        {
          "internalType": "bool",
          "name": "creditsRemain",
          "type": "bool"
        }
      ],
      "stateMutability": "view",
      "type": "function"
    },
    {
      "inputs": [
        {
          "internalType": "bytes4",
          "name": "interfaceId",
          "type": "bytes4"
        }
      ],
      "name": "supportsInterface",
      "outputs": [
        {
          "internalType": "bool",
          "name": "",
          "type": "bool"
        }
      ],
      "stateMutability": "view",
      "type": "function"
    },
    {
      "inputs": [],
      "name": "symbol",
      "outputs": [
        {
          "internalType": "string",
          "name": "",
          "type": "string"
        }
      ],
      "stateMutability": "view",
      "type": "function"
    },
    {
      "inputs": [
        {
          "internalType": "uint256",
          "name": "tokenId",
          "type": "uint256"
        }
      ],
      "name": "tokenURI",
      "outputs": [
        {
          "internalType": "string",
          "name": "",
          "type": "string"
        }
      ],
      "stateMutability": "view",
      "type": "function"
    },
    {
      "inputs": [
        {
          "internalType": "address",
          "name": "from",
          "type": "address"
        },
        {
          "internalType": "address",
          "name": "to",
          "type": "address"
        },
        {
          "internalType": "uint256",
          "name": "tokenId",
          "type": "uint256"
        }
      ],
      "name": "transferFrom",
      "outputs": [],
      "stateMutability": "nonpayable",
      "type": "function"
    },
    {
      "inputs": [
        {
          "internalType": "address",
          "name": "newOwner",
          "type": "address"
        }
      ],
      "name": "transferOwnership",
      "outputs": [],
      "stateMutability": "nonpayable",
      "type": "function"
    },
    {
      "inputs": [
        {
          "internalType": "uint16",
          "name": "_chainId",
          "type": "uint16"
        },
        {
          "internalType": "uint256",
          "name": "tokenId",
          "type": "uint256"
        }
      ],
      "name": "traverseChains",
      "outputs": [],
      "stateMutability": "payable",
      "type": "function"
    },
    {
      "inputs": [
        {
          "internalType": "uint16",
          "name": "",
          "type": "uint16"
        }
      ],
      "name": "trustedRemoteLookup",
      "outputs": [
        {
          "internalType": "bytes",
          "name": "",
          "type": "bytes"
        }
      ],
      "stateMutability": "view",
      "type": "function"
    }
  ],
  "bytecode": {
    "object": "0x60a0604052620557306010553480156200001857600080fd5b5060405162005285380380620052858339810160408190526200003b916200036b565b828282617530733cc6cdda760b79bafa08df41ecfa224f810dceb66001858584868080620000693362000256565b6001600160a01b03166080525081620000de5760405162461bcd60e51b815260206004820152602d60248201527f4f4e46543732313a206d696e476173546f5472616e73666572416e6453746f7260448201526c065206d757374206265203e203609c1b606482015260840160405180910390fd5b50600655600a620000f0838262000487565b50600b620000ff828262000487565b5050506daaeb6d7670e522a718067333cd4e3b15620002475780156200019557604051633e9f1edf60e11b81523060048201526001600160a01b03831660248201526daaeb6d7670e522a718067333cd4e90637d3e3dbe906044015b600060405180830381600087803b1580156200017657600080fd5b505af11580156200018b573d6000803e3d6000fd5b5050505062000247565b6001600160a01b03821615620001e65760405163a0af290360e01b81523060048201526001600160a01b03831660248201526daaeb6d7670e522a718067333cd4e9063a0af2903906044016200015b565b604051632210724360e11b81523060048201526daaeb6d7670e522a718067333cd4e90634420e48690602401600060405180830381600087803b1580156200022d57600080fd5b505af115801562000242573d6000803e3d6000fd5b505050505b50505050505050505062000553565b600080546001600160a01b038381166001600160a01b0319831681178455604051919092169283917f8be0079c531659141344cd1fd0a4f28419497f9722a3daafe3b4186f6b6457e09190a35050565b634e487b7160e01b600052604160045260246000fd5b600082601f830112620002ce57600080fd5b81516001600160401b0380821115620002eb57620002eb620002a6565b604051601f8301601f19908116603f01168101908282118183101715620003165762000316620002a6565b816040528381526020925086838588010111156200033357600080fd5b600091505b8382101562000357578582018301518183018401529082019062000338565b600093810190920192909252949350505050565b6000806000606084860312156200038157600080fd5b83516001600160401b03808211156200039957600080fd5b620003a787838801620002bc565b94506020860151915080821115620003be57600080fd5b50620003cd86828701620002bc565b604086015190935090506001600160a01b0381168114620003ed57600080fd5b809150509250925092565b600181811c908216806200040d57607f821691505b6020821081036200042e57634e487b7160e01b600052602260045260246000fd5b50919050565b601f8211156200048257600081815260208120601f850160051c810160208610156200045d5750805b601f850160051c820191505b818110156200047e5782815560010162000469565b5050505b505050565b81516001600160401b03811115620004a357620004a3620002a6565b620004bb81620004b48454620003f8565b8462000434565b602080601f831160018114620004f35760008415620004da5750858301515b600019600386901b1c1916600185901b1785556200047e565b600085815260208120601f198616915b82811015620005245788860151825594840194600190910190840162000503565b5085821015620005435787850151600019600388901b60f8161c191681555b5050505050600190811b01905550565b608051614cd0620005b5600039600081816108e401528181610ad201528181610dd601528181610f31015281816110c90152818161197901528181611b8801528181611cb7015281816121420152818161227501526133c00152614cd06000f3fe6080604052600436106103345760003560e01c80638cfd8f5c116101ab578063baf3292d116100f7578063df2a5b3b11610095578063f23536411161006f578063f235364114610a42578063f2fde38b14610a62578063f5ecbdbc14610a82578063fa25f9b614610aa257600080fd5b8063df2a5b3b146109e2578063e985e9c514610a02578063eb8d72b714610a2257600080fd5b8063cbed8b9c116100d1578063cbed8b9c1461097c578063cf89fa031461099c578063d12473a5146109af578063d1deba1f146109cf57600080fd5b8063baf3292d14610926578063c446183414610946578063c87b56dd1461095c57600080fd5b80639f38369a11610164578063ab3ffb931161013e578063ab3ffb9314610897578063af3fb21c146108aa578063b353aaa7146108d2578063b88d4fde1461090657600080fd5b80639f38369a14610837578063a22cb46514610857578063a6c3d1651461087757600080fd5b80638cfd8f5c1461076c5780638da5cb5b146107a45780638ffa1f2a146107c2578063950c8a74146107e257806395d89b41146108025780639ea5d6b11461081757600080fd5b80633f1f4fa4116102855780635b8c41e6116102235780636ecd2306116101fd5780636ecd23061461070457806370a0823114610717578063715018a6146107375780637533d7881461074c57600080fd5b80635b8c41e6146106755780636352211e146106c457806366ad5c8a146106e457600080fd5b806342d65a8d1161025f57806342d65a8d146105ff578063482881901461061f5780634ac3f4ff14610635578063519056361461066257600080fd5b80633f1f4fa41461058257806341f43434146105bd57806342842e0e146105df57600080fd5b80630b4cad4c116102f257806322a3ecf9116102cc57806322a3ecf91461048a57806323b872dd1461050d5780632a205e3d1461052d5780633d8b38f61461056257600080fd5b80630b4cad4c1461042a5780630df374831461044a57806310ddb1371461046a57600080fd5b80621d35671461033957806301ffc9a71461035b57806306fdde031461039057806307e0db17146103b2578063081812fc146103d2578063095ea7b31461040a575b600080fd5b34801561034557600080fd5b50610359610354366004613a56565b610acf565b005b34801561036757600080fd5b5061037b610376366004613aff565b610d00565b60405190151581526020015b60405180910390f35b34801561039c57600080fd5b506103a5610d23565b6040516103879190613b6c565b3480156103be57600080fd5b506103596103cd366004613b7f565b610db5565b3480156103de57600080fd5b506103f26103ed366004613b9a565b610e3e565b6040516001600160a01b039091168152602001610387565b34801561041657600080fd5b50610359610425366004613bd3565b610e65565b34801561043657600080fd5b50610359610445366004613b9a565b610e7e565b34801561045657600080fd5b50610359610465366004613bff565b610ef1565b34801561047657600080fd5b50610359610485366004613b7f565b610f10565b34801561049657600080fd5b506104de6104a5366004613b9a565b60096020526000908152604090208054600182015460029092015461ffff821692620100009092046001600160a01b0316919060ff1684565b6040805161ffff90951685526001600160a01b0390931660208501529183015215156060820152608001610387565b34801561051957600080fd5b50610359610528366004613c1b565b610f68565b34801561053957600080fd5b5061054d610548366004613d2d565b610f93565b60408051928352602083019190915201610387565b34801561056e57600080fd5b5061037b61057d366004613dbf565b610fb9565b34801561058e57600080fd5b506105af61059d366004613b7f565b60036020526000908152604090205481565b604051908152602001610387565b3480156105c957600080fd5b506103f26daaeb6d7670e522a718067333cd4e81565b3480156105eb57600080fd5b506103596105fa366004613c1b565b611085565b34801561060b57600080fd5b5061035961061a366004613dbf565b6110aa565b34801561062b57600080fd5b506105af60065481565b34801561064157600080fd5b506105af610650366004613b7f565b60076020526000908152604090205481565b610359610670366004613e11565b611130565b34801561068157600080fd5b506105af610690366004613eca565b6005602090815260009384526040808520845180860184018051928152908401958401959095209452929052825290205481565b3480156106d057600080fd5b506103f26106df366004613b9a565b611147565b3480156106f057600080fd5b506103596106ff366004613a56565b6111a7565b610359610712366004613f27565b611283565b34801561072357600080fd5b506105af610732366004613f4a565b611293565b34801561074357600080fd5b50610359611319565b34801561075857600080fd5b506103a5610767366004613b7f565b61132d565b34801561077857600080fd5b506105af610787366004613f67565b600260209081526000928352604080842090915290825290205481565b3480156107b057600080fd5b506000546001600160a01b03166103f2565b3480156107ce57600080fd5b506103596107dd366004613f9a565b6113c7565b3480156107ee57600080fd5b506004546103f2906001600160a01b031681565b34801561080e57600080fd5b506103a5611611565b34801561082357600080fd5b50610359610832366004613bff565b611620565b34801561084357600080fd5b506103a5610852366004613b7f565b6116a3565b34801561086357600080fd5b50610359610872366004613fce565b6117b9565b34801561088357600080fd5b50610359610892366004613dbf565b6117cd565b6103596108a5366004614090565b611856565b3480156108b657600080fd5b506108bf600181565b60405161ffff9091168152602001610387565b3480156108de57600080fd5b506103f27f000000000000000000000000000000000000000000000000000000000000000081565b34801561091257600080fd5b50610359610921366004614145565b611865565b34801561093257600080fd5b50610359610941366004613f4a565b61188b565b34801561095257600080fd5b506105af61271081565b34801561096857600080fd5b506103a5610977366004613b9a565b6118e7565b34801561098857600080fd5b506103596109973660046141b0565b61195a565b6103596109aa366004613bff565b6119ef565b3480156109bb57600080fd5b506103596109ca366004613bff565b611d2f565b6103596109dd366004613a56565b611db3565b3480156109ee57600080fd5b506103596109fd36600461421e565b611fc9565b348015610a0e57600080fd5b5061037b610a1d36600461425a565b61207b565b348015610a2e57600080fd5b50610359610a3d366004613dbf565b6120a9565b348015610a4e57600080fd5b5061054d610a5d366004614288565b612103565b348015610a6e57600080fd5b50610359610a7d366004613f4a565b6121ce565b348015610a8e57600080fd5b506103a5610a9d366004614305565b612244565b348015610aae57600080fd5b506105af610abd366004613b7f565b60086020526000908152604090205481565b337f00000000000000000000000000000000000000000000000000000000000000006001600160a01b031614610b4c5760405162461bcd60e51b815260206004820152601e60248201527f4c7a4170703a20696e76616c696420656e64706f696e742063616c6c6572000060448201526064015b60405180910390fd5b61ffff861660009081526001602052604081208054610b6a90614352565b80601f0160208091040260200160405190810160405280929190818152602001828054610b9690614352565b8015610be35780601f10610bb857610100808354040283529160200191610be3565b820191906000526020600020905b815481529060010190602001808311610bc657829003601f168201915b50505050509050805186869050148015610bfe575060008151115b8015610c26575080516020820120604051610c1c908890889061438c565b6040518091039020145b610c815760405162461bcd60e51b815260206004820152602660248201527f4c7a4170703a20696e76616c696420736f757263652073656e64696e6720636f6044820152651b9d1c9858dd60d21b6064820152608401610b43565b610cf78787878080601f01602080910402602001604051908101604052809392919081815260200183838082843760009201919091525050604080516020601f8a018190048102820181019092528881528a9350915088908890819084018382808284376000920191909152506122f792505050565b50505050505050565b60006001600160e01b031982161580610d1d5750610d1d82612370565b92915050565b6060600a8054610d3290614352565b80601f0160208091040260200160405190810160405280929190818152602001828054610d5e90614352565b8015610dab5780601f10610d8057610100808354040283529160200191610dab565b820191906000526020600020905b815481529060010190602001808311610d8e57829003601f168201915b5050505050905090565b610dbd6123b0565b6040516307e0db1760e01b815261ffff821660048201527f00000000000000000000000000000000000000000000000000000000000000006001600160a01b0316906307e0db17906024015b600060405180830381600087803b158015610e2357600080fd5b505af1158015610e37573d6000803e3d6000fd5b5050505050565b6000610e498261240a565b506000908152600e60205260409020546001600160a01b031690565b81610e6f8161245a565b610e798383612513565b505050565b610e866123b0565b60008111610eec5760405162461bcd60e51b815260206004820152602d60248201527f4f4e46543732313a206d696e476173546f5472616e73666572416e6453746f7260448201526c065206d757374206265203e203609c1b6064820152608401610b43565b600655565b610ef96123b0565b61ffff909116600090815260036020526040902055565b610f186123b0565b6040516310ddb13760e01b815261ffff821660048201527f00000000000000000000000000000000000000000000000000000000000000006001600160a01b0316906310ddb13790602401610e09565b826001600160a01b0381163314610f8257610f823361245a565b610f8d848484612623565b50505050565b600080610fab8787610fa488612655565b8787612103565b915091509550959350505050565b61ffff831660009081526001602052604081208054829190610fda90614352565b80601f016020809104026020016040519081016040528092919081815260200182805461100690614352565b80156110535780601f1061102857610100808354040283529160200191611053565b820191906000526020600020905b81548152906001019060200180831161103657829003601f168201915b50505050509050838360405161106a92919061438c565b60405180910390208180519060200120149150509392505050565b826001600160a01b038116331461109f5761109f3361245a565b610f8d8484846126a0565b6110b26123b0565b6040516342d65a8d60e01b81526001600160a01b037f000000000000000000000000000000000000000000000000000000000000000016906342d65a8d90611102908690869086906004016143c5565b600060405180830381600087803b15801561111c57600080fd5b505af1158015610cf7573d6000803e3d6000fd5b610cf787878761113f88612655565b8787876126bb565b6000818152600c60205260408120546001600160a01b031680610d1d5760405162461bcd60e51b8152602060048201526018602482015277115490cdcc8c4e881a5b9d985b1a59081d1bdad95b88125160421b6044820152606401610b43565b3330146112055760405162461bcd60e51b815260206004820152602660248201527f4e6f6e626c6f636b696e674c7a4170703a2063616c6c6572206d7573742062656044820152650204c7a4170760d41b6064820152608401610b43565b61127b8686868080601f01602080910402602001604051908101604052809392919081815260200183838082843760009201919091525050604080516020601f8901819004810282018101909252878152899350915087908790819084018382808284376000920191909152506128a292505050565b505050505050565b611290338260ff166129f9565b50565b60006001600160a01b0382166112fd5760405162461bcd60e51b815260206004820152602960248201527f4552433732313a2061646472657373207a65726f206973206e6f7420612076616044820152683634b21037bbb732b960b91b6064820152608401610b43565b506001600160a01b03166000908152600d602052604090205490565b6113216123b0565b61132b6000612a17565b565b6001602052600090815260409020805461134690614352565b80601f016020809104026020016040519081016040528092919081815260200182805461137290614352565b80156113bf5780601f10611394576101008083540402835291602001916113bf565b820191906000526020600020905b8154815290600101906020018083116113a257829003601f168201915b505050505081565b80516020808301919091206000818152600990925260409091206002015460ff166114345760405162461bcd60e51b815260206004820152601a60248201527f4f4e46543732313a206e6f20637265646974732073746f7265640000000000006044820152606401610b43565b60008280602001905181019061144a9190614428565b600084815260096020526040812080546001909101549294509092506114869161ffff8216916201000090046001600160a01b03169085612a67565b60008481526009602052604090206001015490915081116115045760405162461bcd60e51b815260206004820152603260248201527f4f4e46543732313a206e6f7420656e6f7567682067617320746f2070726f636560448201527139b99031b932b234ba103a3930b739b332b960711b6064820152608401610b43565b8151810361157b5760008381526009602052604080822080546001600160b01b031916815560018101929092556002909101805460ff19169055517fd7be02b8dd0d27bd0517a9cb4d7469ce27df4313821ae5ec1ff69acc594ba2339061156e9085815260200190565b60405180910390a1610f8d565b60408051608081018252600085815260096020818152848320805461ffff8082168752620100008083046001600160a01b03908116868a019081529989019a8b52600160608a018181529d9098529590945295519651969095166001600160b01b031990951694909417949091160292909217815591519082015591516002909201805460ff1916921515929092179091555050565b6060600b8054610d3290614352565b6116286123b0565b6000811161168c5760405162461bcd60e51b815260206004820152602b60248201527f4f4e46543732313a20647374436861696e4964546f42617463684c696d69742060448201526a06d757374206265203e20360ac1b6064820152608401610b43565b61ffff909116600090815260076020526040902055565b61ffff81166000908152600160205260408120805460609291906116c690614352565b80601f01602080910402602001604051908101604052809291908181526020018280546116f290614352565b801561173f5780601f106117145761010080835404028352916020019161173f565b820191906000526020600020905b81548152906001019060200180831161172257829003601f168201915b5050505050905080516000036117975760405162461bcd60e51b815260206004820152601d60248201527f4c7a4170703a206e6f20747275737465642070617468207265636f72640000006044820152606401610b43565b6117b26000601483516117aa91906144f8565b839190612ab3565b9392505050565b816117c38161245a565b610e798383612bc0565b6117d56123b0565b8181306040516020016117ea9392919061450b565b60408051601f1981840301815291815261ffff85166000908152600160205220906118159082614577565b507f8c0400cfe2d1199b1a725c78960bcc2a344d869b80590d0f2bd005db15a572ce838383604051611849939291906143c5565b60405180910390a1505050565b610cf7878787878787876126bb565b836001600160a01b038116331461187f5761187f3361245a565b610e3785858585612bcb565b6118936123b0565b600480546001600160a01b0319166001600160a01b0383169081179091556040519081527f5db758e995a17ec1ad84bdef7e8c3293a0bd6179bcce400dff5d4c3d87db726b9060200160405180910390a150565b60606118f28261240a565b600061190960408051602081019091526000815290565b9050600081511161192957604051806020016040528060008152506117b2565b8061193384612bfd565b604051602001611944929190614636565b6040516020818303038152906040529392505050565b6119626123b0565b6040516332fb62e760e21b81526001600160a01b037f0000000000000000000000000000000000000000000000000000000000000000169063cbed8b9c906119b69088908890889088908890600401614665565b600060405180830381600087803b1580156119d057600080fd5b505af11580156119e4573d6000803e3d6000fd5b505050505050505050565b6119f881611147565b6001600160a01b0316336001600160a01b031614611a635760405162461bcd60e51b815260206004820152602260248201527f596f75206d757374206f776e2074686520746f6b656e20746f20747261766572604482015261736560f01b6064820152608401610b43565b61ffff821660009081526001602052604081208054611a8190614352565b905011611ae75760405162461bcd60e51b815260206004820152602e60248201527f5468697320636861696e2069732063757272656e746c7920756e617661696c6160448201526d189b1948199bdc881d1c985d995b60921b6064820152608401610b43565b611af081612c8f565b6040516bffffffffffffffffffffffff193360601b16602082015260009060340160408051601f1981840301815290829052611b3091849060200161469e565b60408051601f1981840301815290829052601054600160f01b60208401526022830152915060019060009060420160408051601f198184030181529082905263040a7bb160e41b825291506000906001600160a01b037f000000000000000000000000000000000000000000000000000000000000000016906340a7bb1090611bc590899030908990879089906004016146c0565b6040805180830381865afa158015611be1573d6000803e3d6000fd5b505050506040513d601f19601f82011682018060405250810190611c059190614714565b50905080341015611c8e5760405162461bcd60e51b815260206004820152604760248201527f47473a206d73672e76616c7565206e6f7420656e6f75676820746f20636f766560448201527f72206d6573736167654665652e2053656e642067617320666f72206d657373616064820152666765206665657360c81b608482015260a401610b43565b61ffff8616600090815260016020526040808220905162c5803160e81b81526001600160a01b037f0000000000000000000000000000000000000000000000000000000000000000169263c5803100923492611cf5928c92918b9133918b90600401614738565b6000604051808303818588803b158015611d0e57600080fd5b505af1158015611d22573d6000803e3d6000fd5b5050505050505050505050565b611d376123b0565b60008111611d9c5760405162461bcd60e51b815260206004820152602c60248201527f4f4e46543732313a20647374436861696e4964546f5472616e7366657247617360448201526b0206d757374206265203e20360a41b6064820152608401610b43565b61ffff909116600090815260086020526040902055565b61ffff86166000908152600560205260408082209051611dd6908890889061438c565b90815260408051602092819003830190206001600160401b03871660009081529252902054905080611e565760405162461bcd60e51b815260206004820152602360248201527f4e6f6e626c6f636b696e674c7a4170703a206e6f2073746f726564206d65737360448201526261676560e81b6064820152608401610b43565b808383604051611e6792919061438c565b604051809103902014611ec65760405162461bcd60e51b815260206004820152602160248201527f4e6f6e626c6f636b696e674c7a4170703a20696e76616c6964207061796c6f616044820152601960fa1b6064820152608401610b43565b61ffff87166000908152600560205260408082209051611ee9908990899061438c565b90815260408051602092819003830181206001600160401b038916600090815290845282902093909355601f88018290048202830182019052868252611f81918991899089908190840183828082843760009201919091525050604080516020601f8a018190048102820181019092528881528a9350915088908890819084018382808284376000920191909152506128a292505050565b7fc264d91f3adc5588250e1551f547752ca0cfa8f6b530d243b9f9f4cab10ea8e58787878785604051611fb895949392919061481d565b60405180910390a150505050505050565b611fd16123b0565b600081116120195760405162461bcd60e51b81526020600482015260156024820152744c7a4170703a20696e76616c6964206d696e47617360581b6044820152606401610b43565b61ffff83811660008181526002602090815260408083209487168084529482529182902085905581519283528201929092529081018290527f9d5c7c0b934da8fefa9c7760c98383778a12dfbfc0c3b3106518f43fb9508ac090606001611849565b6001600160a01b039182166000908152600f6020908152604080832093909416825291909152205460ff1690565b6120b16123b0565b61ffff831660009081526001602052604090206120cf828483614858565b507ffa41487ad5d6728f0b19276fa1eddc16558578f5109fc39d2dc33c3230470dab838383604051611849939291906143c5565b6000806000868660405160200161211b929190614952565b60408051601f198184030181529082905263040a7bb160e41b825291506001600160a01b037f000000000000000000000000000000000000000000000000000000000000000016906340a7bb109061217f908b90309086908b908b906004016146c0565b6040805180830381865afa15801561219b573d6000803e3d6000fd5b505050506040513d601f19601f820116820180604052508101906121bf9190614714565b92509250509550959350505050565b6121d66123b0565b6001600160a01b03811661223b5760405162461bcd60e51b815260206004820152602660248201527f4f776e61626c653a206e6577206f776e657220697320746865207a65726f206160448201526564647265737360d01b6064820152608401610b43565b61129081612a17565b604051633d7b2f6f60e21b815261ffff808616600483015284166024820152306044820152606481018290526060907f00000000000000000000000000000000000000000000000000000000000000006001600160a01b03169063f5ecbdbc90608401600060405180830381865afa1580156122c4573d6000803e3d6000fd5b505050506040513d6000823e601f3d908101601f191682016040526122ec9190810190614980565b90505b949350505050565b60008061235a5a60966366ad5c8a60e01b8989898960405160240161231f94939291906149b4565b60408051601f198184030181529190526020810180516001600160e01b03166001600160e01b03199093169290921790915230929190612d24565b915091508161127b5761127b8686868685612dae565b60006001600160e01b031982166380ac58cd60e01b14806123a157506001600160e01b03198216635b5e139f60e01b145b80610d1d5750610d1d82612e4b565b6000546001600160a01b0316331461132b5760405162461bcd60e51b815260206004820181905260248201527f4f776e61626c653a2063616c6c6572206973206e6f7420746865206f776e65726044820152606401610b43565b61241381612e80565b6112905760405162461bcd60e51b8152602060048201526018602482015277115490cdcc8c4e881a5b9d985b1a59081d1bdad95b88125160421b6044820152606401610b43565b6daaeb6d7670e522a718067333cd4e3b1561129057604051633185c44d60e21b81523060048201526001600160a01b03821660248201526daaeb6d7670e522a718067333cd4e9063c617113490604401602060405180830381865afa1580156124c7573d6000803e3d6000fd5b505050506040513d601f19601f820116820180604052508101906124eb91906149f2565b61129057604051633b79c77360e21b81526001600160a01b0382166004820152602401610b43565b600061251e82611147565b9050806001600160a01b0316836001600160a01b03160361258b5760405162461bcd60e51b815260206004820152602160248201527f4552433732313a20617070726f76616c20746f2063757272656e74206f776e656044820152603960f91b6064820152608401610b43565b336001600160a01b03821614806125a757506125a7813361207b565b6126195760405162461bcd60e51b815260206004820152603d60248201527f4552433732313a20617070726f76652063616c6c6572206973206e6f7420746f60448201527f6b656e206f776e6572206f7220617070726f76656420666f7220616c6c0000006064820152608401610b43565b610e798383612e9d565b61262e335b82612f0b565b61264a5760405162461bcd60e51b8152600401610b4390614a0f565b610e79838383612f69565b6040805160018082528183019092526060916000919060208083019080368337019050509050828160008151811061268f5761268f614a5c565b602090810291909101015292915050565b610e7983838360405180602001604052806000815250611865565b600084511161270c5760405162461bcd60e51b815260206004820152601a60248201527f4c7a4170703a20746f6b656e4964735b5d20697320656d7074790000000000006044820152606401610b43565b835160011480612730575061ffff8616600090815260076020526040902054845111155b6127905760405162461bcd60e51b815260206004820152602b60248201527f4f4e46543732313a2062617463682073697a652065786365656473206473742060448201526a18985d18da081b1a5b5a5d60aa1b6064820152608401610b43565b60005b84518110156127d3576127c18888888885815181106127b4576127b4614a5c565b60200260200101516130cd565b806127cb81614a72565b915050612793565b50600085856040516020016127e9929190614952565b604051602081830303815290604052905061282e876001848851600860008d61ffff1661ffff168152602001908152602001600020546128299190614a8b565b6131b8565b61283c878286868634613297565b8560405161284a9190614aa2565b6040518091039020886001600160a01b03168861ffff167fe1b87c47fdeb4f9cbadbca9df3af7aba453bb6e501075d0440d88125b711522a886040516128909190614abe565b60405180910390a45050505050505050565b600080828060200190518101906128b99190614428565b6014820151919350915060006128d188838386612a67565b905082518110156129a55784516020808701919091206040805160808101825261ffff808d1682526001600160a01b0380881683870190815283850188815260016060860181815260008981526009909a529887902095518654935190941662010000026001600160b01b03199093169390941692909217178355519082015592516002909301805493151560ff199094169390931790925590517f10e0b70d256bccc84b7027506978bd8b68984a870788b93b479def144c839ad79061299b9083908990614ad1565b60405180910390a1505b816001600160a01b0316876040516129bd9190614aa2565b60405180910390208961ffff167f5b821db8a46f8ecbe1941ba2f51cfeea9643268b56631f70d45e2a745d990265866040516128909190614abe565b612a1382826040518060200160405280600081525061343c565b5050565b600080546001600160a01b038381166001600160a01b0319831681178455604051919092169283917f8be0079c531659141344cd1fd0a4f28419497f9722a3daafe3b4186f6b6457e09190a35050565b6000825b82518110156122ec576006545a106122ec57612aa18686858481518110612a9457612a94614a5c565b602002602001015161346f565b80612aab81614a72565b915050612a6b565b606081612ac181601f614aea565b1015612b005760405162461bcd60e51b815260206004820152600e60248201526d736c6963655f6f766572666c6f7760901b6044820152606401610b43565b612b0a8284614aea565b84511015612b4e5760405162461bcd60e51b8152602060048201526011602482015270736c6963655f6f75744f66426f756e647360781b6044820152606401610b43565b606082158015612b6d5760405191506000825260208201604052612bb7565b6040519150601f8416801560200281840101858101878315602002848b0101015b81831015612ba6578051835260209283019201612b8e565b5050858452601f01601f1916604052505b50949350505050565b612a133383836134cf565b612bd53383612f0b565b612bf15760405162461bcd60e51b8152600401610b4390614a0f565b610f8d8484848461359d565b60606000612c0a836135d0565b60010190506000816001600160401b03811115612c2957612c29613c5c565b6040519080825280601f01601f191660200182016040528015612c53576020820181803683370190505b5090508181016020015b600019016f181899199a1a9b1b9c1cb0b131b232b360811b600a86061a8153600a8504945084612c5d57509392505050565b6000612c9a82611147565b9050612ca582611147565b6000838152600e6020908152604080832080546001600160a01b03199081169091556001600160a01b038516808552600d84528285208054600019019055878552600c909352818420805490911690555192935084927fddf252ad1be2c89b69c2b068fc378daa952ba7f163c4a11628f55a4df523b3ef908390a45050565b6000606060008060008661ffff166001600160401b03811115612d4957612d49613c5c565b6040519080825280601f01601f191660200182016040528015612d73576020820181803683370190505b50905060008087516020890160008d8df191503d925086831115612d95578692505b828152826000602083013e909890975095505050505050565b8180519060200120600560008761ffff1661ffff16815260200190815260200160002085604051612ddf9190614aa2565b9081526040805191829003602090810183206001600160401b0388166000908152915220919091557fe183f33de2837795525b4792ca4cd60535bd77c53b7e7030060bfcf5734d6b0c90612e3c9087908790879087908790614afd565b60405180910390a15050505050565b60006001600160e01b031982166322bac5d960e01b1480610d1d57506301ffc9a760e01b6001600160e01b0319831614610d1d565b6000908152600c60205260409020546001600160a01b0316151590565b6000818152600e6020526040902080546001600160a01b0319166001600160a01b0384169081179091558190612ed282611147565b6001600160a01b03167f8c5be1e5ebec7d5bd14f71427d1e84f3dd0314c0f7b2291e5b200ac8c7c3b92560405160405180910390a45050565b600080612f1783611147565b9050806001600160a01b0316846001600160a01b03161480612f3e5750612f3e818561207b565b806122ef5750836001600160a01b0316612f5784610e3e565b6001600160a01b031614949350505050565b826001600160a01b0316612f7c82611147565b6001600160a01b031614612fa25760405162461bcd60e51b8152600401610b4390614b4f565b6001600160a01b0382166130045760405162461bcd60e51b8152602060048201526024808201527f4552433732313a207472616e7366657220746f20746865207a65726f206164646044820152637265737360e01b6064820152608401610b43565b826001600160a01b031661301782611147565b6001600160a01b03161461303d5760405162461bcd60e51b8152600401610b4390614b4f565b6000818152600e6020908152604080832080546001600160a01b03199081169091556001600160a01b03878116808652600d8552838620805460001901905590871680865283862080546001019055868652600c90945282852080549092168417909155905184937fddf252ad1be2c89b69c2b068fc378daa952ba7f163c4a11628f55a4df523b3ef91a4505050565b6130d633612628565b6131395760405162461bcd60e51b815260206004820152602e60248201527f4f4e46543732313a2073656e642063616c6c6572206973206e6f74206f776e6560448201526d1c881b9bdc88185c1c1c9bdd995960921b6064820152608401610b43565b836001600160a01b031661314c82611147565b6001600160a01b0316146131ad5760405162461bcd60e51b815260206004820152602260248201527f4f4e46543732313a2073656e642066726f6d20696e636f7272656374206f776e60448201526132b960f11b6064820152608401610b43565b610f8d843083612f69565b60006131c3836136a8565b61ffff8087166000908152600260209081526040808320938916835292905290812054919250906131f5908490614aea565b9050600081116132475760405162461bcd60e51b815260206004820152601a60248201527f4c7a4170703a206d696e4761734c696d6974206e6f74207365740000000000006044820152606401610b43565b8082101561127b5760405162461bcd60e51b815260206004820152601b60248201527f4c7a4170703a20676173206c696d697420697320746f6f206c6f7700000000006044820152606401610b43565b61ffff8616600090815260016020526040812080546132b590614352565b80601f01602080910402602001604051908101604052809291908181526020018280546132e190614352565b801561332e5780601f106133035761010080835404028352916020019161332e565b820191906000526020600020905b81548152906001019060200180831161331157829003601f168201915b50505050509050805160000361339f5760405162461bcd60e51b815260206004820152603060248201527f4c7a4170703a2064657374696e6174696f6e20636861696e206973206e6f742060448201526f61207472757374656420736f7572636560801b6064820152608401610b43565b6133aa878751613704565b60405162c5803160e81b81526001600160a01b037f0000000000000000000000000000000000000000000000000000000000000000169063c5803100908490613401908b9086908c908c908c908c90600401614b94565b6000604051808303818588803b15801561341a57600080fd5b505af115801561342e573d6000803e3d6000fd5b505050505050505050505050565b6134468383613775565b61345360008484846138e2565b610e795760405162461bcd60e51b8152600401610b4390614bee565b61347881612e80565b15806134a4575061348881612e80565b80156134a457503061349982611147565b6001600160a01b0316145b6134ad57600080fd5b6134b681612e80565b6134c457610e7982826129f9565b610e79308383612f69565b816001600160a01b0316836001600160a01b0316036135305760405162461bcd60e51b815260206004820152601960248201527f4552433732313a20617070726f766520746f2063616c6c6572000000000000006044820152606401610b43565b6001600160a01b038381166000818152600f6020908152604080832094871680845294825291829020805460ff191686151590811790915591519182527f17307eab39ab6107e8899845ad3d59bd9653f200f220920489ca2b5937696c31910160405180910390a3505050565b6135a8848484612f69565b6135b4848484846138e2565b610f8d5760405162461bcd60e51b8152600401610b4390614bee565b60008072184f03e93ff9f4daa797ed6e38ed64bf6a1f0160401b831061360f5772184f03e93ff9f4daa797ed6e38ed64bf6a1f0160401b830492506040015b6d04ee2d6d415b85acef8100000000831061363b576d04ee2d6d415b85acef8100000000830492506020015b662386f26fc10000831061365957662386f26fc10000830492506010015b6305f5e1008310613671576305f5e100830492506008015b612710831061368557612710830492506004015b60648310613697576064830492506002015b600a8310610d1d5760010192915050565b60006022825110156136fc5760405162461bcd60e51b815260206004820152601c60248201527f4c7a4170703a20696e76616c69642061646170746572506172616d73000000006044820152606401610b43565b506022015190565b61ffff82166000908152600360205260408120549081900361372557506127105b80821115610e795760405162461bcd60e51b815260206004820181905260248201527f4c7a4170703a207061796c6f61642073697a6520697320746f6f206c617267656044820152606401610b43565b6001600160a01b0382166137cb5760405162461bcd60e51b815260206004820181905260248201527f4552433732313a206d696e7420746f20746865207a65726f20616464726573736044820152606401610b43565b6137d481612e80565b156138215760405162461bcd60e51b815260206004820152601c60248201527f4552433732313a20746f6b656e20616c7265616479206d696e746564000000006044820152606401610b43565b61382a81612e80565b156138775760405162461bcd60e51b815260206004820152601c60248201527f4552433732313a20746f6b656e20616c7265616479206d696e746564000000006044820152606401610b43565b6001600160a01b0382166000818152600d6020908152604080832080546001019055848352600c90915280822080546001600160a01b0319168417905551839291907fddf252ad1be2c89b69c2b068fc378daa952ba7f163c4a11628f55a4df523b3ef908290a45050565b60006001600160a01b0384163b156139d857604051630a85bd0160e11b81526001600160a01b0385169063150b7a0290613926903390899088908890600401614c40565b6020604051808303816000875af1925050508015613961575060408051601f3d908101601f1916820190925261395e91810190614c7d565b60015b6139be573d80801561398f576040519150601f19603f3d011682016040523d82523d6000602084013e613994565b606091505b5080516000036139b65760405162461bcd60e51b8152600401610b4390614bee565b805181602001fd5b6001600160e01b031916630a85bd0160e11b1490506122ef565b5060016122ef565b803561ffff811681146139f257600080fd5b919050565b60008083601f840112613a0957600080fd5b5081356001600160401b03811115613a2057600080fd5b602083019150836020828501011115613a3857600080fd5b9250929050565b80356001600160401b03811681146139f257600080fd5b60008060008060008060808789031215613a6f57600080fd5b613a78876139e0565b955060208701356001600160401b0380821115613a9457600080fd5b613aa08a838b016139f7565b9097509550859150613ab460408a01613a3f565b94506060890135915080821115613aca57600080fd5b50613ad789828a016139f7565b979a9699509497509295939492505050565b6001600160e01b03198116811461129057600080fd5b600060208284031215613b1157600080fd5b81356117b281613ae9565b60005b83811015613b37578181015183820152602001613b1f565b50506000910152565b60008151808452613b58816020860160208601613b1c565b601f01601f19169290920160200192915050565b6020815260006117b26020830184613b40565b600060208284031215613b9157600080fd5b6117b2826139e0565b600060208284031215613bac57600080fd5b5035919050565b6001600160a01b038116811461129057600080fd5b80356139f281613bb3565b60008060408385031215613be657600080fd5b8235613bf181613bb3565b946020939093013593505050565b60008060408385031215613c1257600080fd5b613bf1836139e0565b600080600060608486031215613c3057600080fd5b8335613c3b81613bb3565b92506020840135613c4b81613bb3565b929592945050506040919091013590565b634e487b7160e01b600052604160045260246000fd5b604051601f8201601f191681016001600160401b0381118282101715613c9a57613c9a613c5c565b604052919050565b60006001600160401b03821115613cbb57613cbb613c5c565b50601f01601f191660200190565b600082601f830112613cda57600080fd5b8135613ced613ce882613ca2565b613c72565b818152846020838601011115613d0257600080fd5b816020850160208301376000918101602001919091529392505050565b801515811461129057600080fd5b600080600080600060a08688031215613d4557600080fd5b613d4e866139e0565b945060208601356001600160401b0380821115613d6a57600080fd5b613d7689838a01613cc9565b95506040880135945060608801359150613d8f82613d1f565b90925060808701359080821115613da557600080fd5b50613db288828901613cc9565b9150509295509295909350565b600080600060408486031215613dd457600080fd5b613ddd846139e0565b925060208401356001600160401b03811115613df857600080fd5b613e04868287016139f7565b9497909650939450505050565b600080600080600080600060e0888a031215613e2c57600080fd5b8735613e3781613bb3565b9650613e45602089016139e0565b955060408801356001600160401b0380821115613e6157600080fd5b613e6d8b838c01613cc9565b965060608a0135955060808a01359150613e8682613bb3565b90935060a089013590613e9882613bb3565b90925060c08901359080821115613eae57600080fd5b50613ebb8a828b01613cc9565b91505092959891949750929550565b600080600060608486031215613edf57600080fd5b613ee8846139e0565b925060208401356001600160401b03811115613f0357600080fd5b613f0f86828701613cc9565b925050613f1e60408501613a3f565b90509250925092565b600060208284031215613f3957600080fd5b813560ff811681146117b257600080fd5b600060208284031215613f5c57600080fd5b81356117b281613bb3565b60008060408385031215613f7a57600080fd5b613f83836139e0565b9150613f91602084016139e0565b90509250929050565b600060208284031215613fac57600080fd5b81356001600160401b03811115613fc257600080fd5b6122ef84828501613cc9565b60008060408385031215613fe157600080fd5b8235613fec81613bb3565b91506020830135613ffc81613d1f565b809150509250929050565b60006001600160401b0382111561402057614020613c5c565b5060051b60200190565b600082601f83011261403b57600080fd5b8135602061404b613ce883614007565b82815260059290921b8401810191818101908684111561406a57600080fd5b8286015b84811015614085578035835291830191830161406e565b509695505050505050565b600080600080600080600060e0888a0312156140ab57600080fd5b87356140b681613bb3565b96506140c4602089016139e0565b955060408801356001600160401b03808211156140e057600080fd5b6140ec8b838c01613cc9565b965060608a013591508082111561410257600080fd5b61410e8b838c0161402a565b955060808a0135915061412082613bb3565b81945061412f60a08b01613bc8565b935060c08a0135915080821115613eae57600080fd5b6000806000806080858703121561415b57600080fd5b843561416681613bb3565b9350602085013561417681613bb3565b92506040850135915060608501356001600160401b0381111561419857600080fd5b6141a487828801613cc9565b91505092959194509250565b6000806000806000608086880312156141c857600080fd5b6141d1866139e0565b94506141df602087016139e0565b93506040860135925060608601356001600160401b0381111561420157600080fd5b61420d888289016139f7565b969995985093965092949392505050565b60008060006060848603121561423357600080fd5b61423c846139e0565b925061424a602085016139e0565b9150604084013590509250925092565b6000806040838503121561426d57600080fd5b823561427881613bb3565b91506020830135613ffc81613bb3565b600080600080600060a086880312156142a057600080fd5b6142a9866139e0565b945060208601356001600160401b03808211156142c557600080fd5b6142d189838a01613cc9565b955060408801359150808211156142e757600080fd5b6142f389838a0161402a565b945060608801359150613d8f82613d1f565b6000806000806080858703121561431b57600080fd5b614324856139e0565b9350614332602086016139e0565b9250604085013561434281613bb3565b9396929550929360600135925050565b600181811c9082168061436657607f821691505b60208210810361438657634e487b7160e01b600052602260045260246000fd5b50919050565b8183823760009101908152919050565b81835281816020850137506000828201602090810191909152601f909101601f19169091010190565b61ffff841681526040602082015260006122ec60408301848661439c565b600082601f8301126143f457600080fd5b8151614402613ce882613ca2565b81815284602083860101111561441757600080fd5b6122ef826020830160208701613b1c565b6000806040838503121561443b57600080fd5b82516001600160401b038082111561445257600080fd5b61445e868387016143e3565b935060209150818501518181111561447557600080fd5b85019050601f8101861361448857600080fd5b8051614496613ce882614007565b81815260059190911b820183019083810190888311156144b557600080fd5b928401925b828410156144d3578351825292840192908401906144ba565b80955050505050509250929050565b634e487b7160e01b600052601160045260246000fd5b81810381811115610d1d57610d1d6144e2565b8284823760609190911b6bffffffffffffffffffffffff19169101908152601401919050565b601f821115610e7957600081815260208120601f850160051c810160208610156145585750805b601f850160051c820191505b8181101561127b57828155600101614564565b81516001600160401b0381111561459057614590613c5c565b6145a48161459e8454614352565b84614531565b602080601f8311600181146145d957600084156145c15750858301515b600019600386901b1c1916600185901b17855561127b565b600085815260208120601f198616915b82811015614608578886015182559484019460019091019084016145e9565b50858210156146265787850151600019600388901b60f8161c191681555b5050505050600190811b01905550565b60008351614648818460208801613b1c565b83519083019061465c818360208801613b1c565b01949350505050565b600061ffff80881683528087166020840152508460408301526080606083015261469360808301848661439c565b979650505050505050565b6040815260006146b16040830185613b40565b90508260208301529392505050565b61ffff861681526001600160a01b038516602082015260a0604082018190526000906146ee90830186613b40565b841515606084015282810360808401526147088185613b40565b98975050505050505050565b6000806040838503121561472757600080fd5b505080516020909101519092909150565b61ffff871681526000602060c0818401526000885461475681614352565b8060c087015260e06001808416600081146147785760018114614792576147c0565b60ff1985168984015283151560051b8901830195506147c0565b8d6000528660002060005b858110156147b85781548b820186015290830190880161479d565b8a0184019650505b505050505083810360408501526147d78189613b40565b9150506147ef60608401876001600160a01b03169052565b6001600160a01b038516608084015282810360a08401526148108185613b40565b9998505050505050505050565b61ffff8616815260806020820152600061483b60808301868861439c565b6001600160401b0394909416604083015250606001529392505050565b6001600160401b0383111561486f5761486f613c5c565b6148838361487d8354614352565b83614531565b6000601f8411600181146148b7576000851561489f5750838201355b600019600387901b1c1916600186901b178355610e37565b600083815260209020601f19861690835b828110156148e857868501358255602094850194600190920191016148c8565b50868210156149055760001960f88860031b161c19848701351681555b505060018560011b0183555050505050565b600081518084526020808501945080840160005b838110156149475781518752958201959082019060010161492b565b509495945050505050565b6040815260006149656040830185613b40565b82810360208401526149778185614917565b95945050505050565b60006020828403121561499257600080fd5b81516001600160401b038111156149a857600080fd5b6122ef848285016143e3565b61ffff851681526080602082015260006149d16080830186613b40565b6001600160401b038516604084015282810360608401526146938185613b40565b600060208284031215614a0457600080fd5b81516117b281613d1f565b6020808252602d908201527f4552433732313a2063616c6c6572206973206e6f7420746f6b656e206f776e6560408201526c1c881bdc88185c1c1c9bdd9959609a1b606082015260800190565b634e487b7160e01b600052603260045260246000fd5b600060018201614a8457614a846144e2565b5060010190565b8082028115828204841417610d1d57610d1d6144e2565b60008251614ab4818460208701613b1c565b9190910192915050565b6020815260006117b26020830184614917565b8281526040602082015260006122ef6040830184613b40565b80820180821115610d1d57610d1d6144e2565b61ffff8616815260a060208201526000614b1a60a0830187613b40565b6001600160401b03861660408401528281036060840152614b3b8186613b40565b905082810360808401526147088185613b40565b60208082526025908201527f4552433732313a207472616e736665722066726f6d20696e636f72726563742060408201526437bbb732b960d91b606082015260800190565b61ffff8716815260c060208201526000614bb160c0830188613b40565b8281036040840152614bc38188613b40565b6001600160a01b0387811660608601528616608085015283810360a085015290506148108185613b40565b60208082526032908201527f4552433732313a207472616e7366657220746f206e6f6e20455243373231526560408201527131b2b4bb32b91034b6b83632b6b2b73a32b960711b606082015260800190565b6001600160a01b0385811682528416602082015260408101839052608060608201819052600090614c7390830184613b40565b9695505050505050565b600060208284031215614c8f57600080fd5b81516117b281613ae956fea264697066735822122092580cd362299bdbf7864f29d4e1d560361a0a96f6a7313b1ec5fbd9d595cacd64736f6c63430008110033",
    "linkReferences": {}
  },
  "methodIdentifiers": {
    "DEFAULT_PAYLOAD_SIZE_LIMIT()": "c4461834",
    "FUNCTION_TYPE_SEND()": "af3fb21c",
    "OPERATOR_FILTER_REGISTRY()": "41f43434",
    "approve(address,uint256)": "095ea7b3",
    "balanceOf(address)": "70a08231",
    "clearCredits(bytes)": "8ffa1f2a",
    "dstChainIdToBatchLimit(uint16)": "4ac3f4ff",
    "dstChainIdToTransferGas(uint16)": "fa25f9b6",
    "estimateSendBatchFee(uint16,bytes,uint256[],bool,bytes)": "f2353641",
    "estimateSendFee(uint16,bytes,uint256,bool,bytes)": "2a205e3d",
    "failedMessages(uint16,bytes,uint64)": "5b8c41e6",
    "forceResumeReceive(uint16,bytes)": "42d65a8d",
    "getApproved(uint256)": "081812fc",
    "getConfig(uint16,uint16,address,uint256)": "f5ecbdbc",
    "getTrustedRemoteAddress(uint16)": "9f38369a",
    "isApprovedForAll(address,address)": "e985e9c5",
    "isTrustedRemote(uint16,bytes)": "3d8b38f6",
    "lzEndpoint()": "b353aaa7",
    "lzReceive(uint16,bytes,uint64,bytes)": "001d3567",
    "minDstGasLookup(uint16,uint16)": "8cfd8f5c",
    "minGasToTransferAndStore()": "48288190",
    "mint(uint8)": "6ecd2306",
    "name()": "06fdde03",
    "nonblockingLzReceive(uint16,bytes,uint64,bytes)": "66ad5c8a",
    "owner()": "8da5cb5b",
    "ownerOf(uint256)": "6352211e",
    "payloadSizeLimitLookup(uint16)": "3f1f4fa4",
    "precrime()": "950c8a74",
    "renounceOwnership()": "715018a6",
    "retryMessage(uint16,bytes,uint64,bytes)": "d1deba1f",
    "safeTransferFrom(address,address,uint256)": "42842e0e",
    "safeTransferFrom(address,address,uint256,bytes)": "b88d4fde",
    "sendBatchFrom(address,uint16,bytes,uint256[],address,address,bytes)": "ab3ffb93",
    "sendFrom(address,uint16,bytes,uint256,address,address,bytes)": "51905636",
    "setApprovalForAll(address,bool)": "a22cb465",
    "setConfig(uint16,uint16,uint256,bytes)": "cbed8b9c",
    "setDstChainIdToBatchLimit(uint16,uint256)": "9ea5d6b1",
    "setDstChainIdToTransferGas(uint16,uint256)": "d12473a5",
    "setMinDstGas(uint16,uint16,uint256)": "df2a5b3b",
    "setMinGasToTransferAndStore(uint256)": "0b4cad4c",
    "setPayloadSizeLimit(uint16,uint256)": "0df37483",
    "setPrecrime(address)": "baf3292d",
    "setReceiveVersion(uint16)": "10ddb137",
    "setSendVersion(uint16)": "07e0db17",
    "setTrustedRemote(uint16,bytes)": "eb8d72b7",
    "setTrustedRemoteAddress(uint16,bytes)": "a6c3d165",
    "storedCredits(bytes32)": "22a3ecf9",
    "supportsInterface(bytes4)": "01ffc9a7",
    "symbol()": "95d89b41",
    "tokenURI(uint256)": "c87b56dd",
    "transferFrom(address,address,uint256)": "23b872dd",
    "transferOwnership(address)": "f2fde38b",
    "traverseChains(uint16,uint256)": "cf89fa03",
    "trustedRemoteLookup(uint16)": "7533d788"
  },
  "id": 46
}