{
  "abi": [
    {
      "inputs": [
        {
          "internalType": "string",
          "name": "_name",
          "type": "string"
        },
        {
          "internalType": "string",
          "name": "_symbol",
          "type": "string"
        },
        {
          "internalType": "address",
          "name": "_layerZeroEndpoint",
          "type": "address"
        }
      ],
      "stateMutability": "nonpayable",
      "type": "constructor"
    },
    {
      "inputs": [
        {
          "internalType": "address",
          "name": "operator",
          "type": "address"
        }
      ],
      "name": "OperatorNotAllowed",
      "type": "error"
    },
    {
      "anonymous": false,
      "inputs": [
        {
          "indexed": true,
          "internalType": "address",
          "name": "owner",
          "type": "address"
        },
        {
          "indexed": true,
          "internalType": "address",
          "name": "approved",
          "type": "address"
        },
        {
          "indexed": true,
          "internalType": "uint256",
          "name": "tokenId",
          "type": "uint256"
        }
      ],
      "name": "Approval",
      "type": "event"
    },
    {
      "anonymous": false,
      "inputs": [
        {
          "indexed": true,
          "internalType": "address",
          "name": "owner",
          "type": "address"
        },
        {
          "indexed": true,
          "internalType": "address",
          "name": "operator",
          "type": "address"
        },
        {
          "indexed": false,
          "internalType": "bool",
          "name": "approved",
          "type": "bool"
        }
      ],
      "name": "ApprovalForAll",
      "type": "event"
    },
    {
      "anonymous": false,
      "inputs": [
        {
          "indexed": false,
          "internalType": "uint16",
          "name": "_srcChainId",
          "type": "uint16"
        },
        {
          "indexed": false,
          "internalType": "bytes",
          "name": "_srcAddress",
          "type": "bytes"
        },
        {
          "indexed": false,
          "internalType": "uint64",
          "name": "_nonce",
          "type": "uint64"
        },
        {
          "indexed": false,
          "internalType": "bytes",
          "name": "_payload",
          "type": "bytes"
        },
        {
          "indexed": false,
          "internalType": "bytes",
          "name": "_reason",
          "type": "bytes"
        }
      ],
      "name": "MessageFailed",
      "type": "event"
    },
    {
      "anonymous": false,
      "inputs": [
        {
          "indexed": true,
          "internalType": "address",
          "name": "previousOwner",
          "type": "address"
        },
        {
          "indexed": true,
          "internalType": "address",
          "name": "newOwner",
          "type": "address"
        }
      ],
      "name": "OwnershipTransferred",
      "type": "event"
    },
    {
      "anonymous": false,
      "inputs": [
        {
          "indexed": true,
          "internalType": "uint16",
          "name": "_srcChainId",
          "type": "uint16"
        },
        {
          "indexed": true,
          "internalType": "bytes",
          "name": "_srcAddress",
          "type": "bytes"
        },
        {
          "indexed": true,
          "internalType": "address",
          "name": "_toAddress",
          "type": "address"
        },
        {
          "indexed": false,
          "internalType": "uint256",
          "name": "_tokenId",
          "type": "uint256"
        },
        {
          "indexed": false,
          "internalType": "uint64",
          "name": "_nonce",
          "type": "uint64"
        }
      ],
      "name": "ReceiveFromChain",
      "type": "event"
    },
    {
      "anonymous": false,
      "inputs": [
        {
          "indexed": false,
          "internalType": "uint16",
          "name": "_srcChainId",
          "type": "uint16"
        },
        {
          "indexed": false,
          "internalType": "bytes",
          "name": "_srcAddress",
          "type": "bytes"
        },
        {
          "indexed": false,
          "internalType": "uint64",
          "name": "_nonce",
          "type": "uint64"
        },
        {
          "indexed": false,
          "internalType": "bytes32",
          "name": "_payloadHash",
          "type": "bytes32"
        }
      ],
      "name": "RetryMessageSuccess",
      "type": "event"
    },
    {
      "anonymous": false,
      "inputs": [
        {
          "indexed": true,
          "internalType": "address",
          "name": "_sender",
          "type": "address"
        },
        {
          "indexed": true,
          "internalType": "uint16",
          "name": "_dstChainId",
          "type": "uint16"
        },
        {
          "indexed": true,
          "internalType": "bytes",
          "name": "_toAddress",
          "type": "bytes"
        },
        {
          "indexed": false,
          "internalType": "uint256",
          "name": "_tokenId",
          "type": "uint256"
        },
        {
          "indexed": false,
          "internalType": "uint64",
          "name": "_nonce",
          "type": "uint64"
        }
      ],
      "name": "SendToChain",
      "type": "event"
    },
    {
      "anonymous": false,
      "inputs": [
        {
          "indexed": false,
          "internalType": "uint16",
          "name": "_dstChainId",
          "type": "uint16"
        },
        {
          "indexed": false,
          "internalType": "uint16",
          "name": "_type",
          "type": "uint16"
        },
        {
          "indexed": false,
          "internalType": "uint256",
          "name": "_minDstGas",
          "type": "uint256"
        }
      ],
      "name": "SetMinDstGas",
      "type": "event"
    },
    {
      "anonymous": false,
      "inputs": [
        {
          "indexed": false,
          "internalType": "address",
          "name": "precrime",
          "type": "address"
        }
      ],
      "name": "SetPrecrime",
      "type": "event"
    },
    {
      "anonymous": false,
      "inputs": [
        {
          "indexed": false,
          "internalType": "uint16",
          "name": "_remoteChainId",
          "type": "uint16"
        },
        {
          "indexed": false,
          "internalType": "bytes",
          "name": "_path",
          "type": "bytes"
        }
      ],
      "name": "SetTrustedRemote",
      "type": "event"
    },
    {
      "anonymous": false,
      "inputs": [
        {
          "indexed": false,
          "internalType": "uint16",
          "name": "_remoteChainId",
          "type": "uint16"
        },
        {
          "indexed": false,
          "internalType": "bytes",
          "name": "_remoteAddress",
          "type": "bytes"
        }
      ],
      "name": "SetTrustedRemoteAddress",
      "type": "event"
    },
    {
      "anonymous": false,
      "inputs": [
        {
          "indexed": true,
          "internalType": "address",
          "name": "from",
          "type": "address"
        },
        {
          "indexed": true,
          "internalType": "address",
          "name": "to",
          "type": "address"
        },
        {
          "indexed": true,
          "internalType": "uint256",
          "name": "tokenId",
          "type": "uint256"
        }
      ],
      "name": "Transfer",
      "type": "event"
    },
    {
      "inputs": [],
      "name": "DEFAULT_PAYLOAD_SIZE_LIMIT",
      "outputs": [
        {
          "internalType": "uint256",
          "name": "",
          "type": "uint256"
        }
      ],
      "stateMutability": "view",
      "type": "function"
    },
    {
      "inputs": [],
      "name": "OPERATOR_FILTER_REGISTRY",
      "outputs": [
        {
          "internalType": "contract IOperatorFilterRegistry",
          "name": "",
          "type": "address"
        }
      ],
      "stateMutability": "view",
      "type": "function"
    },
    {
      "inputs": [
        {
          "internalType": "address",
          "name": "operator",
          "type": "address"
        },
        {
          "internalType": "uint256",
          "name": "tokenId",
          "type": "uint256"
        }
      ],
      "name": "approve",
      "outputs": [],
      "stateMutability": "nonpayable",
      "type": "function"
    },
    {
      "inputs": [
        {
          "internalType": "address",
          "name": "owner",
          "type": "address"
        }
      ],
      "name": "balanceOf",
      "outputs": [
        {
          "internalType": "uint256",
          "name": "",
          "type": "uint256"
        }
      ],
      "stateMutability": "view",
      "type": "function"
    },
    {
      "inputs": [
        {
          "internalType": "uint16",
          "name": "_dstChainId",
          "type": "uint16"
        },
        {
          "internalType": "bytes",
          "name": "_toAddress",
          "type": "bytes"
        },
        {
          "internalType": "uint256",
          "name": "_tokenId",
          "type": "uint256"
        },
        {
          "internalType": "bool",
          "name": "_useZro",
          "type": "bool"
        },
        {
          "internalType": "bytes",
          "name": "_adapterParams",
          "type": "bytes"
        }
      ],
      "name": "estimateSendFee",
      "outputs": [
        {
          "internalType": "uint256",
          "name": "nativeFee",
          "type": "uint256"
        },
        {
          "internalType": "uint256",
          "name": "zroFee",
          "type": "uint256"
        }
      ],
      "stateMutability": "view",
      "type": "function"
    },
    {
      "inputs": [
        {
          "internalType": "uint16",
          "name": "",
          "type": "uint16"
        },
        {
          "internalType": "bytes",
          "name": "",
          "type": "bytes"
        },
        {
          "internalType": "uint64",
          "name": "",
          "type": "uint64"
        }
      ],
      "name": "failedMessages",
      "outputs": [
        {
          "internalType": "bytes32",
          "name": "",
          "type": "bytes32"
        }
      ],
      "stateMutability": "view",
      "type": "function"
    },
    {
      "inputs": [
        {
          "internalType": "uint16",
          "name": "_srcChainId",
          "type": "uint16"
        },
        {
          "internalType": "bytes",
          "name": "_srcAddress",
          "type": "bytes"
        }
      ],
      "name": "forceResumeReceive",
      "outputs": [],
      "stateMutability": "nonpayable",
      "type": "function"
    },
    {
      "inputs": [
        {
          "internalType": "uint256",
          "name": "tokenId",
          "type": "uint256"
        }
      ],
      "name": "getApproved",
      "outputs": [
        {
          "internalType": "address",
          "name": "",
          "type": "address"
        }
      ],
      "stateMutability": "view",
      "type": "function"
    },
    {
      "inputs": [
        {
          "internalType": "uint16",
          "name": "_version",
          "type": "uint16"
        },
        {
          "internalType": "uint16",
          "name": "_chainId",
          "type": "uint16"
        },
        {
          "internalType": "address",
          "name": "",
          "type": "address"
        },
        {
          "internalType": "uint256",
          "name": "_configType",
          "type": "uint256"
        }
      ],
      "name": "getConfig",
      "outputs": [
        {
          "internalType": "bytes",
          "name": "",
          "type": "bytes"
        }
      ],
      "stateMutability": "view",
      "type": "function"
    },
    {
      "inputs": [
        {
          "internalType": "uint16",
          "name": "_remoteChainId",
          "type": "uint16"
        }
      ],
      "name": "getTrustedRemoteAddress",
      "outputs": [
        {
          "internalType": "bytes",
          "name": "",
          "type": "bytes"
        }
      ],
      "stateMutability": "view",
      "type": "function"
    },
    {
      "inputs": [
        {
          "internalType": "address",
          "name": "owner",
          "type": "address"
        },
        {
          "internalType": "address",
          "name": "operator",
          "type": "address"
        }
      ],
      "name": "isApprovedForAll",
      "outputs": [
        {
          "internalType": "bool",
          "name": "",
          "type": "bool"
        }
      ],
      "stateMutability": "view",
      "type": "function"
    },
    {
      "inputs": [
        {
          "internalType": "uint16",
          "name": "_srcChainId",
          "type": "uint16"
        },
        {
          "internalType": "bytes",
          "name": "_srcAddress",
          "type": "bytes"
        }
      ],
      "name": "isTrustedRemote",
      "outputs": [
        {
          "internalType": "bool",
          "name": "",
          "type": "bool"
        }
      ],
      "stateMutability": "view",
      "type": "function"
    },
    {
      "inputs": [],
      "name": "lzEndpoint",
      "outputs": [
        {
          "internalType": "contract ILayerZeroEndpoint",
          "name": "",
          "type": "address"
        }
      ],
      "stateMutability": "view",
      "type": "function"
    },
    {
      "inputs": [
        {
          "internalType": "uint16",
          "name": "_srcChainId",
          "type": "uint16"
        },
        {
          "internalType": "bytes",
          "name": "_srcAddress",
          "type": "bytes"
        },
        {
          "internalType": "uint64",
          "name": "_nonce",
          "type": "uint64"
        },
        {
          "internalType": "bytes",
          "name": "_payload",
          "type": "bytes"
        }
      ],
      "name": "lzReceive",
      "outputs": [],
      "stateMutability": "nonpayable",
      "type": "function"
    },
    {
      "inputs": [
        {
          "internalType": "uint16",
          "name": "",
          "type": "uint16"
        },
        {
          "internalType": "uint16",
          "name": "",
          "type": "uint16"
        }
      ],
      "name": "minDstGasLookup",
      "outputs": [
        {
          "internalType": "uint256",
          "name": "",
          "type": "uint256"
        }
      ],
      "stateMutability": "view",
      "type": "function"
    },
    {
      "inputs": [
        {
          "internalType": "uint8",
          "name": "_newId",
          "type": "uint8"
        }
      ],
      "name": "mint",
      "outputs": [],
      "stateMutability": "payable",
      "type": "function"
    },
    {
      "inputs": [],
      "name": "name",
      "outputs": [
        {
          "internalType": "string",
          "name": "",
          "type": "string"
        }
      ],
      "stateMutability": "view",
      "type": "function"
    },
    {
      "inputs": [
        {
          "internalType": "uint16",
          "name": "_srcChainId",
          "type": "uint16"
        },
        {
          "internalType": "bytes",
          "name": "_srcAddress",
          "type": "bytes"
        },
        {
          "internalType": "uint64",
          "name": "_nonce",
          "type": "uint64"
        },
        {
          "internalType": "bytes",
          "name": "_payload",
          "type": "bytes"
        }
      ],
      "name": "nonblockingLzReceive",
      "outputs": [],
      "stateMutability": "nonpayable",
      "type": "function"
    },
    {
      "inputs": [],
      "name": "owner",
      "outputs": [
        {
          "internalType": "address",
          "name": "",
          "type": "address"
        }
      ],
      "stateMutability": "view",
      "type": "function"
    },
    {
      "inputs": [
        {
          "internalType": "uint256",
          "name": "tokenId",
          "type": "uint256"
        }
      ],
      "name": "ownerOf",
      "outputs": [
        {
          "internalType": "address",
          "name": "",
          "type": "address"
        }
      ],
      "stateMutability": "view",
      "type": "function"
    },
    {
      "inputs": [
        {
          "internalType": "uint16",
          "name": "",
          "type": "uint16"
        }
      ],
      "name": "payloadSizeLimitLookup",
      "outputs": [
        {
          "internalType": "uint256",
          "name": "",
          "type": "uint256"
        }
      ],
      "stateMutability": "view",
      "type": "function"
    },
    {
      "inputs": [],
      "name": "precrime",
      "outputs": [
        {
          "internalType": "address",
          "name": "",
          "type": "address"
        }
      ],
      "stateMutability": "view",
      "type": "function"
    },
    {
      "inputs": [],
      "name": "renounceOwnership",
      "outputs": [],
      "stateMutability": "nonpayable",
      "type": "function"
    },
    {
      "inputs": [
        {
          "internalType": "uint16",
          "name": "_srcChainId",
          "type": "uint16"
        },
        {
          "internalType": "bytes",
          "name": "_srcAddress",
          "type": "bytes"
        },
        {
          "internalType": "uint64",
          "name": "_nonce",
          "type": "uint64"
        },
        {
          "internalType": "bytes",
          "name": "_payload",
          "type": "bytes"
        }
      ],
      "name": "retryMessage",
      "outputs": [],
      "stateMutability": "payable",
      "type": "function"
    },
    {
      "inputs": [
        {
          "internalType": "address",
          "name": "from",
          "type": "address"
        },
        {
          "internalType": "address",
          "name": "to",
          "type": "address"
        },
        {
          "internalType": "uint256",
          "name": "tokenId",
          "type": "uint256"
        }
      ],
      "name": "safeTransferFrom",
      "outputs": [],
      "stateMutability": "nonpayable",
      "type": "function"
    },
    {
      "inputs": [
        {
          "internalType": "address",
          "name": "from",
          "type": "address"
        },
        {
          "internalType": "address",
          "name": "to",
          "type": "address"
        },
        {
          "internalType": "uint256",
          "name": "tokenId",
          "type": "uint256"
        },
        {
          "internalType": "bytes",
          "name": "data",
          "type": "bytes"
        }
      ],
      "name": "safeTransferFrom",
      "outputs": [],
      "stateMutability": "nonpayable",
      "type": "function"
    },
    {
      "inputs": [
        {
          "internalType": "address",
          "name": "_from",
          "type": "address"
        },
        {
          "internalType": "uint16",
          "name": "_dstChainId",
          "type": "uint16"
        },
        {
          "internalType": "bytes",
          "name": "_toAddress",
          "type": "bytes"
        },
        {
          "internalType": "uint256",
          "name": "_tokenId",
          "type": "uint256"
        },
        {
          "internalType": "address payable",
          "name": "_refundAddress",
          "type": "address"
        },
        {
          "internalType": "address",
          "name": "_zroPaymentAddress",
          "type": "address"
        },
        {
          "internalType": "bytes",
          "name": "_adapterParams",
          "type": "bytes"
        }
      ],
      "name": "sendFrom",
      "outputs": [],
      "stateMutability": "payable",
      "type": "function"
    },
    {
      "inputs": [
        {
          "internalType": "address",
          "name": "operator",
          "type": "address"
        },
        {
          "internalType": "bool",
          "name": "approved",
          "type": "bool"
        }
      ],
      "name": "setApprovalForAll",
      "outputs": [],
      "stateMutability": "nonpayable",
      "type": "function"
    },
    {
      "inputs": [
        {
          "internalType": "uint16",
          "name": "_version",
          "type": "uint16"
        },
        {
          "internalType": "uint16",
          "name": "_chainId",
          "type": "uint16"
        },
        {
          "internalType": "uint256",
          "name": "_configType",
          "type": "uint256"
        },
        {
          "internalType": "bytes",
          "name": "_config",
          "type": "bytes"
        }
      ],
      "name": "setConfig",
      "outputs": [],
      "stateMutability": "nonpayable",
      "type": "function"
    },
    {
      "inputs": [
        {
          "internalType": "uint16",
          "name": "_dstChainId",
          "type": "uint16"
        },
        {
          "internalType": "uint16",
          "name": "_packetType",
          "type": "uint16"
        },
        {
          "internalType": "uint256",
          "name": "_minGas",
          "type": "uint256"
        }
      ],
      "name": "setMinDstGas",
      "outputs": [],
      "stateMutability": "nonpayable",
      "type": "function"
    },
    {
      "inputs": [
        {
          "internalType": "uint16",
          "name": "_dstChainId",
          "type": "uint16"
        },
        {
          "internalType": "uint256",
          "name": "_size",
          "type": "uint256"
        }
      ],
      "name": "setPayloadSizeLimit",
      "outputs": [],
      "stateMutability": "nonpayable",
      "type": "function"
    },
    {
      "inputs": [
        {
          "internalType": "address",
          "name": "_precrime",
          "type": "address"
        }
      ],
      "name": "setPrecrime",
      "outputs": [],
      "stateMutability": "nonpayable",
      "type": "function"
    },
    {
      "inputs": [
        {
          "internalType": "uint16",
          "name": "_version",
          "type": "uint16"
        }
      ],
      "name": "setReceiveVersion",
      "outputs": [],
      "stateMutability": "nonpayable",
      "type": "function"
    },
    {
      "inputs": [
        {
          "internalType": "uint16",
          "name": "_version",
          "type": "uint16"
        }
      ],
      "name": "setSendVersion",
      "outputs": [],
      "stateMutability": "nonpayable",
      "type": "function"
    },
    {
      "inputs": [
        {
          "internalType": "uint16",
          "name": "_srcChainId",
          "type": "uint16"
        },
        {
          "internalType": "bytes",
          "name": "_path",
          "type": "bytes"
        }
      ],
      "name": "setTrustedRemote",
      "outputs": [],
      "stateMutability": "nonpayable",
      "type": "function"
    },
    {
      "inputs": [
        {
          "internalType": "uint16",
          "name": "_remoteChainId",
          "type": "uint16"
        },
        {
          "internalType": "bytes",
          "name": "_remoteAddress",
          "type": "bytes"
        }
      ],
      "name": "setTrustedRemoteAddress",
      "outputs": [],
      "stateMutability": "nonpayable",
      "type": "function"
    },
    {
      "inputs": [
        {
          "internalType": "bytes4",
          "name": "interfaceId",
          "type": "bytes4"
        }
      ],
      "name": "supportsInterface",
      "outputs": [
        {
          "internalType": "bool",
          "name": "",
          "type": "bool"
        }
      ],
      "stateMutability": "view",
      "type": "function"
    },
    {
      "inputs": [],
      "name": "symbol",
      "outputs": [
        {
          "internalType": "string",
          "name": "",
          "type": "string"
        }
      ],
      "stateMutability": "view",
      "type": "function"
    },
    {
      "inputs": [
        {
          "internalType": "uint256",
          "name": "tokenId",
          "type": "uint256"
        }
      ],
      "name": "tokenURI",
      "outputs": [
        {
          "internalType": "string",
          "name": "",
          "type": "string"
        }
      ],
      "stateMutability": "view",
      "type": "function"
    },
    {
      "inputs": [
        {
          "internalType": "address",
          "name": "from",
          "type": "address"
        },
        {
          "internalType": "address",
          "name": "to",
          "type": "address"
        },
        {
          "internalType": "uint256",
          "name": "tokenId",
          "type": "uint256"
        }
      ],
      "name": "transferFrom",
      "outputs": [],
      "stateMutability": "nonpayable",
      "type": "function"
    },
    {
      "inputs": [
        {
          "internalType": "address",
          "name": "newOwner",
          "type": "address"
        }
      ],
      "name": "transferOwnership",
      "outputs": [],
      "stateMutability": "nonpayable",
      "type": "function"
    },
    {
      "inputs": [
        {
          "internalType": "uint16",
          "name": "_chainId",
          "type": "uint16"
        },
        {
          "internalType": "uint256",
          "name": "tokenId",
          "type": "uint256"
        }
      ],
      "name": "traverseChains",
      "outputs": [],
      "stateMutability": "payable",
      "type": "function"
    },
    {
      "inputs": [
        {
          "internalType": "uint16",
          "name": "",
          "type": "uint16"
        }
      ],
      "name": "trustedRemoteLookup",
      "outputs": [
        {
          "internalType": "bytes",
          "name": "",
          "type": "bytes"
        }
      ],
      "stateMutability": "view",
      "type": "function"
    }
  ],
  "bytecode": {
    "object": "0x60a0604090808252346200045d5762003f97803803809162000022828562000462565b833981016060828203126200045d5781516001600160401b0391908281116200045d5781620000539185016200049c565b90602090818501518481116200045d578691620000729187016200049c565b9401516001600160a01b039490858116908190036200045d5760008054336001600160a01b03198216811783559197167f8be0079c531659141344cd1fd0a4f28419497f9722a3daafe3b4186f6b6457e08880a36080528251908482116200044957600654916001948584811c941680156200043e575b8585101462000345578190601f94858111620003ea575b5085908583116001146200038457899262000378575b5050600019600383901b1c191690851b176006555b80519285841162000364576007548581811c9116801562000359575b828210146200034557838111620002fc575b5080928411600114620002925750928293918392879462000286575b50501b916000199060031b1c1916176007555b6daaeb6d7670e522a718067333cd4e803b62000204575b8362055730600c5551613a83908162000514823960805181818161045601528181610784015281816109b301528181610c5901528181610e8d01528181610ffa0152818161191401528181611b9d01528181611d3c0152818161235a01526127fb0152f35b803b156200028257908280926044865180968193633e9f1edf60e11b8352306004840152733cc6cdda760b79bafa08df41ecfa224f810dceb660248401525af180156200027857156200019f57821162000264575081523880806200019f565b634e487b7160e01b81526041600452602490fd5b84513d84823e3d90fd5b8280fd5b01519250388062000175565b919083601f198116600789528489209489905b88838310620002e15750505010620002c7575b505050811b0160075562000188565b015160001960f88460031b161c19169055388080620002b8565b858701518855909601959485019487935090810190620002a5565b600788528188208480870160051c8201928488106200033b575b0160051c019086905b8281106200032f57505062000159565b8981550186906200031f565b9250819262000316565b634e487b7160e01b88526022600452602488fd5b90607f169062000147565b634e487b7160e01b87526041600452602487fd5b01519050388062000116565b60068a52868a208894509190601f1984168b5b89828210620003d35750508411620003b9575b505050811b016006556200012b565b015160001960f88460031b161c19169055388080620003aa565b8385015186558b9790950194938401930162000397565b909150600689528589208580850160051c82019288861062000434575b918991869594930160051c01915b8281106200042557505062000100565b8b815585945089910162000415565b9250819262000407565b93607f1693620000e9565b634e487b7160e01b86526041600452602486fd5b600080fd5b601f909101601f19168101906001600160401b038211908210176200048657604052565b634e487b7160e01b600052604160045260246000fd5b919080601f840112156200045d578251906001600160401b038211620004865760405191602091620004d8601f8301601f191684018562000462565b8184528282870101116200045d5760005b818110620004ff57508260009394955001015290565b8581018301518482018401528201620004e956fe60806040526004361015610013575b600080fd5b60003560e01c80621d35671461036e57806301ffc9a71461036557806306fdde031461035c57806307e0db1714610353578063081812fc1461034a578063095ea7b3146103415780630df374831461033857806310ddb1371461032f57806323b872dd146103265780632a205e3d1461031d5780633d8b38f6146103145780633f1f4fa41461030b57806341f434341461030257806342842e0e146102f957806342d65a8d146102f057806351905636146102e75780635b8c41e6146102de5780636352211e146102d557806366ad5c8a146102cc5780636ecd2306146102c357806370a08231146102ba578063715018a6146102b15780637533d788146102a85780638cfd8f5c1461029f5780638da5cb5b14610296578063950c8a741461028d57806395d89b41146102845780639f38369a1461027b578063a22cb46514610272578063a6c3d16514610269578063b353aaa714610260578063b88d4fde14610257578063baf3292d1461024e578063c446183414610245578063c87b56dd1461023c578063cbed8b9c14610233578063cf89fa031461022a578063d1deba1f14610221578063df2a5b3b14610218578063e985e9c51461020f578063eb8d72b714610206578063f2fde38b146101fd5763f5ecbdbc146101f557600080fd5b61000e6122f4565b5061000e612259565b5061000e6120f4565b5061000e61208b565b5061000e611f98565b5061000e611e34565b5061000e611c3f565b5061000e611b3c565b5061000e611a52565b5061000e611a34565b5061000e6119b6565b5061000e611943565b5061000e6118fd565b5061000e61175f565b5061000e611665565b5061000e6115c5565b5061000e61151d565b5061000e6114f3565b5061000e6114c9565b5061000e611475565b5061000e611421565b5061000e6112d4565b5061000e61122d565b5061000e611208565b5061000e611181565b5061000e611162565b5061000e6110bb565b5061000e610eed565b5061000e610e60565b5061000e610de0565b5061000e610db6565b5061000e610d80565b5061000e610d23565b5061000e610b78565b5061000e610a36565b5061000e61097f565b5061000e610936565b5061000e61083b565b5061000e6107f9565b5061000e610750565b5061000e61066a565b5061000e610567565b5061000e61043e565b6004359061ffff8216820361000e57565b6024359061ffff8216820361000e57565b9181601f8401121561000e578235916001600160401b03831161000e576020838186019501011161000e57565b6001600160401b0381160361000e57565b90608060031983011261000e5760043561ffff8116810361000e57916001600160401b039060243582811161000e578161041391600401610399565b93909392604435610423816103c6565b9260643591821161000e5761043a91600401610399565b9091565b503461000e5761044d366103d7565b929493919291907f00000000000000000000000000000000000000000000000000000000000000006001600160a01b03163303610510576104d36104db926104e1976104cc6104b26104ad8a61ffff166000526001602052604060002090565b611404565b8051908184149182610506575b50816104e3575b50612704565b3691610b1c565b923691610b1c565b92612ac6565b005b90506104f0368486610b1c565b60208151910120906020815191012014386104c6565b15159150386104bf565b60405162461bcd60e51b815260206004820152601e60248201527f4c7a4170703a20696e76616c696420656e64706f696e742063616c6c657200006044820152606490fd5b6001600160e01b031981160361000e57565b503461000e57602036600319011261000e57602060043561058781610555565b6001600160e01b03191680159081156105a6575b506040519015158152f35b6380ac58cd60e01b8114915081156105f2575b81156105c7575b503861059b565b637bb0080b60e01b8114915081156105e1575b50386105c0565b6301ffc9a760e01b149050386105da565b635b5e139f60e01b811491506105b9565b600091031261000e57565b60005b8381106106215750506000910152565b8181015183820152602001610611565b9060209161064a8151809281855285808601910161060e565b601f01601f1916010190565b906020610667928181520190610631565b90565b503461000e5760008060031936011261074d57604051908060065461068e81611334565b8085529160019180831690811561072357506001146106c8575b6106c4856106b881870382610ad1565b60405191829182610656565b0390f35b9250600683527ff652222313e28459528d920b65115c16c04f3efc82aaedc97be59f3f377c0d3f5b82841061070b5750505081016020016106b8826106c46106a8565b805460208587018101919091529093019281016106f0565b8695506106c4969350602092506106b894915060ff191682840152151560051b82010192936106a8565b80fd5b503461000e576000602036600319011261074d5761076c610377565b8160018060a01b036107828183541633146129ae565b7f00000000000000000000000000000000000000000000000000000000000000001691823b156107f557602461ffff918360405195869485936307e0db1760e01b85521660048401525af180156107e8575b6107dc575080f35b6107e590610a96565b80f35b6107f0612508565b6107d4565b5080fd5b503461000e57602036600319011261000e576020610818600435613079565b6040516001600160a01b039091168152f35b6001600160a01b0381160361000e57565b503461000e57604036600319011261000e576004356108598161082a565b6024356108658261398e565b61086e81612f8f565b916001600160a01b0380841690821681146108e7576104e19361089b9133149081156108a0575b50613007565b61367a565b6001600160a01b03166000908152600b602052604090206108e191506108da9033905b9060018060a01b0316600052602052604060002090565b5460ff1690565b38610895565b60405162461bcd60e51b815260206004820152602160248201527f4552433732313a20617070726f76616c20746f2063757272656e74206f776e656044820152603960f91b6064820152608490fd5b503461000e57604036600319011261000e5761ffff610953610377565b61096860018060a01b036000541633146129ae565b166000526003602052602435604060002055600080f35b503461000e576000602036600319011261074d5761099b610377565b8160018060a01b036109b18183541633146129ae565b7f00000000000000000000000000000000000000000000000000000000000000001691823b156107f557602461ffff918360405195869485936310ddb13760e01b85521660048401525af180156107e8576107dc575080f35b606090600319011261000e57600435610a228161082a565b90602435610a2f8161082a565b9060443590565b503461000e576104e1610a4836610a0a565b91336001600160a01b03821603610a71575b610a6c610a6784336131e8565b61310b565b61350f565b610a7a3361398e565b610a5a565b50634e487b7160e01b600052604160045260246000fd5b6001600160401b038111610aa957604052565b610ab1610a7f565b604052565b602081019081106001600160401b03821117610aa957604052565b90601f801991011681019081106001600160401b03821117610aa957604052565b6020906001600160401b038111610b0f575b601f01601f19160190565b610b17610a7f565b610b04565b929192610b2882610af2565b91610b366040519384610ad1565b82948184528183011161000e578281602093846000960137010152565b9080601f8301121561000e5781602061066793359101610b1c565b8015150361000e57565b503461000e5760031960a03682011261000e57610b93610377565b6001600160401b039160243583811161000e57610bb4903690600401610b53565b9060643592610bc284610b6e565b60843594851161000e57610c55610c009461ffff93610be8610c0e983690600401610b53565b9060409889978851998a916044359060208401612493565b03601f1981018a5289610ad1565b610c3f8751988997889763040a7bb160e41b895216600488015230602488015260a0604488015260a4870190610631565b9215156064860152848303016084850152610631565b03817f00000000000000000000000000000000000000000000000000000000000000006001600160a01b03165afa918215610cdc575b6000918293610ca7575b50519081526020810191909152604090f35b81610ccd9294506106c493503d8511610cd5575b610cc58183610ad1565b8101906124af565b929091610c95565b503d610cbb565b610ce4612508565b610c8b565b90604060031983011261000e5760043561ffff8116810361000e5791602435906001600160401b03821161000e5761043a91600401610399565b503461000e57602061ffff610d71610d3a36610ce9565b9390911660005260018452610d5c610d6360406000206040519283809261136e565b0382610ad1565b848151910120923691610b1c565b82815191012014604051908152f35b503461000e57602036600319011261000e5761ffff610d9d610377565b1660005260036020526020604060002054604051908152f35b503461000e57600036600319011261000e5760206040516daaeb6d7670e522a718067333cd4e8152f35b503461000e576104e1610e3f610df536610a0a565b6001600160a01b0383163314159290919083610e52575b60405193610e1985610ab6565b60008552610e44575b610e2f610a6784336131e8565b610e3a83838361350f565b613840565b6131c4565b610e4d3361398e565b610e22565b610e5b3361398e565b610e0c565b503461000e57610e6f36610ce9565b9190600092839160018060a01b03610e8b8185541633146129ae565b7f00000000000000000000000000000000000000000000000000000000000000001690813b15610ee95783610ed795604051968795869485936342d65a8d60e01b855260048501612a1a565b03925af180156107e8576107dc575080f35b8380fd5b5060e036600319011261000e57600435610f068161082a565b610f0e610388565b6001600160401b03919060443583811161000e57610f30903690600401610b53565b926064359160843590610f428261082a565b60a435610f4e8161082a565b60c43593841161000e578461ffff93610fc792610f907f024797cc77ce15dc717112d54fb1df125fdfd8c81344fb046c5e074427ce1543973690600401610b53565b91610f9b848b612625565b610fbf8b610fb160405196879260208401612493565b03601f198101865285610ad1565b3493866127b7565b604051630f428ae960e31b815261ffff821660048201523060248201526001600160a01b039661105e91906020826044817f00000000000000000000000000000000000000000000000000000000000000008d165afa918215611097575b600092611063575b5061103790612605565b9760405194859416971695839092916001600160401b036020916040840195845216910152565b0390a4005b6110379192506110899060203d8111611090575b6110818183610ad1565b8101906125f0565b919061102d565b503d611077565b61109f612508565b611025565b906110b76020928281519485920161060e565b0190565b503461000e57606036600319011261000e576110d5610377565b6024356001600160401b03811161000e576106c4916111306020611100611151943690600401610b53565b61ffff60443594611110866103c6565b16600052600582526040600020826040519483868095519384920161060e565b820190815203019020906001600160401b0316600052602052604060002090565b546040519081529081906020820190565b503461000e57602036600319011261000e576020610818600435612f8f565b503461000e57611190366103d7565b91929493903033036111b4576104d36111ae926104e1973691610b1c565b92612c31565b60405162461bcd60e51b815260206004820152602660248201527f4e6f6e626c6f636b696e674c7a4170703a2063616c6c6572206d7573742062656044820152650204c7a4170760d41b6064820152608490fd5b50602036600319011261000e5760043560ff811680910361000e576104e190336132d3565b503461000e57602036600319011261000e5760043561124b8161082a565b6001600160a01b0316801561127c5760005260096020526106c4604060002054604051918291829190602083019252565b60405162461bcd60e51b815260206004820152602a60248201527f4552433732313a2062616c616e636520717565727920666f7220746865207a65604482015269726f206164647265737360b01b6064820152608490fd5b503461000e5760008060031936011261074d57805481906001600160a01b038116906113013383146129ae565b6001600160a01b03191682557f8be0079c531659141344cd1fd0a4f28419497f9722a3daafe3b4186f6b6457e08280a380f35b90600182811c92168015611364575b602083101461134e57565b634e487b7160e01b600052602260045260246000fd5b91607f1691611343565b906000929180549161137f83611334565b9182825260019384811690816000146113e157506001146113a1575b50505050565b90919394506000526020928360002092846000945b8386106113cd57505050500101903880808061139b565b8054858701830152940193859082016113b6565b9294505050602093945060ff191683830152151560051b0101903880808061139b565b9061141f611418926040519384809261136e565b0383610ad1565b565b503461000e57602036600319011261000e5761ffff61143e610377565b1660005260016020526106c4610d5c61146160406000206040519283809261136e565b604051918291602083526020830190610631565b503461000e57604036600319011261000e5760206114c0611494610377565b61ffff61149f610388565b91166000526002835260406000209061ffff16600052602052604060002090565b54604051908152f35b503461000e57600036600319011261000e576000546040516001600160a01b039091168152602090f35b503461000e57600036600319011261000e576004546040516001600160a01b039091168152602090f35b503461000e5760008060031936011261074d57604051908060075461154181611334565b80855291600191808316908115610723575060011461156a576106c4856106b881870382610ad1565b9250600783527fa66cc928b5edb82af9bd49922954155ab7b0942694bea4ce44661d9a8736c6885b8284106115ad5750505081016020016106b8826106c46106a8565b80546020858701810191909152909301928101611592565b503461000e57602036600319011261000e5761ffff6115e2610377565b166000526001602052610d5c61160260406000206040519283809261136e565b805115611620576106b88161161a6106c49351612aa0565b90612e2c565b60405162461bcd60e51b815260206004820152601d60248201527f4c7a4170703a206e6f20747275737465642070617468207265636f72640000006044820152606490fd5b503461000e57604036600319011261000e576004356116838161082a565b60243561168f81610b6e565b6116988261398e565b6001600160a01b0382169133831461171a57816116d76116e89233600052600b60205260406000209060018060a01b0316600052602052604060002090565b9060ff801983541691151516179055565b604051901515815233907f17307eab39ab6107e8899845ad3d59bd9653f200f220920489ca2b5937696c3190602090a3005b60405162461bcd60e51b815260206004820152601960248201527f4552433732313a20617070726f766520746f2063616c6c6572000000000000006044820152606490fd5b503461000e5761176e36610ce9565b919060009161178760018060a01b0384541633146129ae565b6040519360208184828801376117b26034878481013060601b85820152036014810189520187610ad1565b61ffff8316855260019081815260408620918751916001600160401b0383116118f0575b6117ea836117e48654611334565b86612a35565b80601f841160011461185a5750918080926118499695948a9b7f8c0400cfe2d1199b1a725c78960bcc2a344d869b80590d0f2bd005db15a572ce9b9461184f575b50501b916000199060031b1c19161790555b60405193849384612a1a565b0390a180f35b01519250388061182b565b91939498601f19841661187287600052602060002090565b938a905b8282106118d9575050917f8c0400cfe2d1199b1a725c78960bcc2a344d869b80590d0f2bd005db15a572ce999a95939185611849989694106118c0575b505050811b01905561183d565b015160001960f88460031b161c191690553880806118b3565b808886978294978701518155019601940190611876565b6118f8610a7f565b6117d6565b503461000e57600036600319011261000e576040517f00000000000000000000000000000000000000000000000000000000000000006001600160a01b03168152602090f35b503461000e57608036600319011261000e576004356119618161082a565b6024359061196e8261082a565b606435906044356001600160401b03831161000e576104e193611998610e3f943690600401610b53565b92336001600160a01b03821603610e4457610e2f610a6784336131e8565b503461000e57602036600319011261000e577f5db758e995a17ec1ad84bdef7e8c3293a0bd6179bcce400dff5d4c3d87db726b60206004356119f78161082a565b6000546001600160a01b039190611a1190831633146129ae565b16806bffffffffffffffffffffffff60a01b6004541617600455604051908152a1005b503461000e57600036600319011261000e5760206040516127108152f35b503461000e57602036600319011261000e576004356000818152600860205260409020546001600160a01b031615611adf57611a8c612eac565b805115611acd576106b8611ab991611abf611aa96106c4956138a3565b60405194859360208501906110a4565b906110a4565b03601f198101835282610ad1565b50506106c4611ada612eac565b6106b8565b60405162461bcd60e51b815260206004820152602f60248201527f4552433732314d657461646174613a2055524920717565727920666f72206e6f60448201526e3732bc34b9ba32b73a103a37b5b2b760891b6064820152608490fd5b503461000e57608036600319011261000e57611b56610377565b611b5e610388565b6064356001600160401b03811161000e57611b7d903690600401610399565b60018060a09493941b039160009483611b9b879586541633146129ae565b7f00000000000000000000000000000000000000000000000000000000000000001691823b15611c3b578490611c08604051978896879586946332fb62e760e21b865261ffff809216600487015216602485015260443560448501526080606485015260848401916129f9565b03925af18015611c2e575b611c1b575080f35b80611c286107e592610a96565b80610603565b611c36612508565b611c13565b8480fd5b5060408060031936011261000e57611d2290611c59610377565b602435611c7e611c77611c6b83612f8f565b6001600160a01b031690565b33146123cf565b611ca8611ca1611c9c8461ffff166000526001602052604060002090565b612426565b1515612430565b611cb18161342d565b82516bffffffffffffffffffffffff193360601b16602082015260148152611d2e90601f1990611d0390611ce6603482610ad1565b611cf7875195869260208401612493565b03828101855284610ad1565b600c54855196879160208301602291600160f01b825260028201520190565b03908101865285610ad1565b825163040a7bb160e41b81527f00000000000000000000000000000000000000000000000000000000000000006001600160a01b03169190611d9b90858180611d7d8a87308b600486016124c5565b0381875afa908115611e27575b600091611e09575b50341015612515565b611db38361ffff166000526001602052604060002090565b823b1561000e57611ddc600095519687958694859462c5803160e81b8652339260048701612597565b039134905af18015611dfc575b611def57005b80611c286104e192610a96565b611e04612508565b611de9565b611e209150863d8811610cd557610cc58183610ad1565b5038611d92565b611e2f612508565b611d8a565b50611e3e366103d7565b9161ffff86949296166000526005602052611e8581604060002060206040518092878b833787820190815203019020906001600160401b0316600052602052604060002090565b54918215611f4757611f368483611f2f7fc264d91f3adc5588250e1551f547752ca0cfa8f6b530d243b9f9f4cab10ea8e59a6000611f1b84611f038e8a8f611f429f908f611ee990611edc611efd9436908d610b1c565b6020815191012014612cf8565b61ffff166000526005602052604060002090565b91612cdf565b906001600160401b0316600052602052604060002090565b55611f2736878d610b1c565b933691610b1c565b9188612c31565b60405195869586612d4e565b0390a1005b60405162461bcd60e51b815260206004820152602360248201527f4e6f6e626c6f636b696e674c7a4170703a206e6f2073746f726564206d65737360448201526261676560e81b6064820152608490fd5b503461000e57606036600319011261000e57611fb2610377565b611fba610388565b60443591611fd360018060a01b036000541633146129ae565b821561204e57611f427f9d5c7c0b934da8fefa9c7760c98383778a12dfbfc0c3b3106518f43fb9508ac09361ffff83166000526002602052806120288560406000209061ffff16600052602052604060002090565b556040519384938460409194939294606082019561ffff80921683521660208201520152565b60405162461bcd60e51b81526020600482015260156024820152744c7a4170703a20696e76616c6964206d696e47617360581b6044820152606490fd5b503461000e57604036600319011261000e57602060ff6120e86004356120b08161082a565b602435906120bd8261082a565b60018060a01b0316600052600b845260406000209060018060a01b0316600052602052604060002090565b54166040519015158152f35b503461000e5761210336610ce9565b919060009161211c60018060a01b0384541633146129ae565b61ffff81168352600160209080825260408520916001600160401b03871161224c575b6121538761214d8554611334565b85612a35565b8590601f88116001146121ba5750918680879893611849957ffa41487ad5d6728f0b19276fa1eddc16558578f5109fc39d2dc33c3230470dab99936121af575b501b906000198460031b1c191617905560405193849384612a1a565b880135925038612193565b90601f1988166121cf85600052602060002090565b9288905b828210612235575050918893917ffa41487ad5d6728f0b19276fa1eddc16558578f5109fc39d2dc33c3230470dab989961184996941061221b575b505082811b01905561183d565b870135600019600386901b60f8161c19169055388061220e565b808685968294968c013581550195019301906121d3565b612254610a7f565b61213f565b503461000e57602036600319011261000e576004356122778161082a565b6000546001600160a01b039061229090821633146129ae565b8116156122a0576104e190612f48565b60405162461bcd60e51b815260206004820152602660248201527f4f776e61626c653a206e6577206f776e657220697320746865207a65726f206160448201526564647265737360d01b6064820152608490fd5b503461000e57608036600319011261000e576106c4612311610377565b612319610388565b9061232560443561082a565b604051633d7b2f6f60e21b815261ffff91821660048201529116602482015230604482015260648035908201526000816084817f00000000000000000000000000000000000000000000000000000000000000006001600160a01b03165afa9081156123c2575b6000916123a1575b5060405191829182610656565b6123bc913d8091833e6123b48183610ad1565b810190612989565b38612394565b6123ca612508565b61238c565b156123d657565b60405162461bcd60e51b815260206004820152602260248201527f596f75206d757374206f776e2074686520746f6b656e20746f20747261766572604482015261736560f01b6064820152608490fd5b6106679054611334565b1561243757565b60405162461bcd60e51b815260206004820152602e60248201527f5468697320636861696e2069732063757272656e746c7920756e617661696c6160448201526d189b1948199bdc881d1c985d995b60921b6064820152608490fd5b9291906124aa602091604086526040860190610631565b930152565b919082604091031261000e576020825192015190565b92610667949261ffff6124f39316855260018060a01b0316602085015260a0604085015260a0840190610631565b91600060608201526080818403910152610631565b506040513d6000823e3d90fd5b1561251c57565b60405162461bcd60e51b815260206004820152604760248201527f47473a206d73672e76616c7565206e6f7420656e6f75676820746f20636f766560448201527f72206d6573736167654665652e2053656e642067617320666f72206d657373616064820152666765206665657360c81b608482015260a490fd5b91926125bc610667969461ffff6125ca9416855260c0602086015260c085019061136e565b908382036040850152610631565b6001600160a01b0390931660608201526000608082015280830360a09190910152610631565b9081602091031261000e5751610667816103c6565b61261d9060206040519282848094519384920161060e565b810103902090565b61262f82336131e8565b156126a85761263d82612f8f565b6001600160a01b039182169116036126585761141f9061342d565b60405162461bcd60e51b815260206004820152602260248201527f4f4e46543732313a2073656e642066726f6d20696e636f7272656374206f776e60448201526132b960f11b6064820152608490fd5b60405162461bcd60e51b815260206004820152602e60248201527f4f4e46543732313a2073656e642063616c6c6572206973206e6f74206f776e6560448201526d1c881b9bdc88185c1c1c9bdd995960921b6064820152608490fd5b1561270b57565b60405162461bcd60e51b815260206004820152602660248201527f4c7a4170703a20696e76616c696420736f757263652073656e64696e6720636f6044820152651b9d1c9858dd60d21b6064820152608490fd5b9261278461066797959361ffff6127929416865260c0602087015260c0860190610631565b908482036040860152610631565b6001600160a01b0391821660608401529316608082015280830360a090910152610631565b946127e09193929561ffff811660005260016020526127e760406000206040519485809261136e565b0384610ad1565b82511561287a576127f98551826128d8565b7f00000000000000000000000000000000000000000000000000000000000000006001600160a01b031693843b1561000e5760009661284e91604051998a988997889662c5803160e81b88526004880161275f565b03925af1801561286d575b6128605750565b80611c2861141f92610a96565b612875612508565b612859565b60405162461bcd60e51b815260206004820152603060248201527f4c7a4170703a2064657374696e6174696f6e20636861696e206973206e6f742060448201526f61207472757374656420736f7572636560801b6064820152608490fd5b61ffff16600052600360205260406000205490811561293d575b116128f957565b606460405162461bcd60e51b815260206004820152602060248201527f4c7a4170703a207061796c6f61642073697a6520697320746f6f206c617267656044820152fd5b61271091506128f2565b81601f8201121561000e57805161295d81610af2565b9261296b6040519485610ad1565b8184526020828401011161000e57610667916020808501910161060e565b9060208282031261000e5781516001600160401b03811161000e576106679201612947565b156129b557565b606460405162461bcd60e51b815260206004820152602060248201527f4f776e61626c653a2063616c6c6572206973206e6f7420746865206f776e65726044820152fd5b908060209392818452848401376000828201840152601f01601f1916010190565b60409061ffff610667959316815281602082015201916129f9565b90601f8111612a4357505050565b600091825260208220906020601f850160051c83019410612a7f575b601f0160051c01915b828110612a7457505050565b818155600101612a68565b9092508290612a5f565b50634e487b7160e01b600052601160045260246000fd5b601319810191908211612aaf57565b61141f612a89565b600019810191908211612aaf57565b9290915a926040519360208501633356ae4560e11b815261ffff8716602487015260806044870152612b3186612b23612b0260a4830187610631565b6001600160401b038816606484015282810360231901608484015288610631565b03601f198101885287610ad1565b600091829182612b3f612edd565b9851923090f13d60968111612b79575b8086526000602087013e15612b66575b5050505050565b612b6f94612b81565b3880808080612b5f565b506096612b4f565b9193612c1e7fe183f33de2837795525b4792ca4cd60535bd77c53b7e7030060bfcf5734d6b0c95612c2c939561ffff81516020830120961695866000526005602052612be58361113060208b6040600020826040519483868095519384920161060e565b556001600160401b03612c0a604051988998895260a060208a015260a0890190610631565b921660408701528582036060870152610631565b908382036080850152610631565b0390a1565b9290815182019060408383031261000e576020830151906001600160401b03821161000e57612cda612cac60146040612c9661ffff966020807f64e10c37f404d128982dce114f5d233c14c5c7f6d8db93099e3d99dacb9e27ba9a01918b0101612947565b97015196015192612ca787856132d3565b612605565b9560405193849360018060a01b0316981695839092916001600160401b036020916040840195845216910152565b0390a4565b6020919283604051948593843782019081520301902090565b15612cff57565b60405162461bcd60e51b815260206004820152602160248201527f4e6f6e626c6f636b696e674c7a4170703a20696e76616c6964207061796c6f616044820152601960fa1b6064820152608490fd5b91612d7a9060609461ffff6001600160401b0394999897991685526080602086015260808501916129f9565b951660408201520152565b90601f8201809211612aaf57565b9060018201809211612aaf57565b6030019081603011612aaf57565b15612db657565b60405162461bcd60e51b815260206004820152600e60248201526d736c6963655f6f766572666c6f7760901b6044820152606490fd5b15612df357565b60405162461bcd60e51b8152602060048201526011602482015270736c6963655f6f75744f66426f756e647360781b6044820152606490fd5b612e4082612e3981612d85565b1015612daf565b612e4d8282511015612dec565b81612e65575050604051600081526020810160405290565b60405191601f811691821560051b808486010193838501920101905b808410612e995750508252601f01601f191660405290565b9092835181526020809101930190612e81565b60405190602082018281106001600160401b03821117612ed0575b60405260008252565b612ed8610a7f565b612ec7565b6040519060c082018281106001600160401b03821117612f09575b6040526096825260a0366020840137565b612f11610a7f565b612ef8565b90612f2082610af2565b612f2d6040519182610ad1565b8281528092612f3e601f1991610af2565b0190602036910137565b600080546001600160a01b039283166001600160a01b03198216811783559216907f8be0079c531659141344cd1fd0a4f28419497f9722a3daafe3b4186f6b6457e09080a3565b6000908152600860205260409020546001600160a01b03168015612fb05790565b60405162461bcd60e51b815260206004820152602960248201527f4552433732313a206f776e657220717565727920666f72206e6f6e657869737460448201526832b73a103a37b5b2b760b91b6064820152608490fd5b1561300e57565b60405162461bcd60e51b815260206004820152603860248201527f4552433732313a20617070726f76652063616c6c6572206973206e6f74206f7760448201527f6e6572206e6f7220617070726f76656420666f7220616c6c00000000000000006064820152608490fd5b6000818152600860205260409020546001600160a01b0316156130b1576000908152600a60205260409020546001600160a01b031690565b60405162461bcd60e51b815260206004820152602c60248201527f4552433732313a20617070726f76656420717565727920666f72206e6f6e657860448201526b34b9ba32b73a103a37b5b2b760a11b6064820152608490fd5b1561311257565b60405162461bcd60e51b815260206004820152603160248201527f4552433732313a207472616e736665722063616c6c6572206973206e6f74206f6044820152701ddb995c881b9bdc88185c1c1c9bdd9959607a1b6064820152608490fd5b60809060208152603260208201527f4552433732313a207472616e7366657220746f206e6f6e20455243373231526560408201527131b2b4bb32b91034b6b83632b6b2b73a32b960711b60608201520190565b156131cb57565b60405162461bcd60e51b8152806131e460048201613171565b0390fd5b6000828152600860205260409020546001600160a01b0316156132795761320e82612f8f565b6001600160a01b038281168282168114949091908515613261575b505050821561323757505090565b6001600160a01b03166000908152600b6020526040902060ff925061325c91906108c3565b541690565b61326e9192939550613079565b161491388080613229565b60405162461bcd60e51b815260206004820152602c60248201527f4552433732313a206f70657261746f7220717565727920666f72206e6f6e657860448201526b34b9ba32b73a103a37b5b2b760a11b6064820152608490fd5b906040516132e081610ab6565b600081526001600160a01b0383169182156133e9576000818152600860205260409020546001600160a01b03166133a4578381610e3f9461333661141f9760018060a01b03166000526009602052604060002090565b6133408154612d93565b90556133798361335a846000526008602052604060002090565b80546001600160a01b0319166001600160a01b03909216919091179055565b60007fddf252ad1be2c89b69c2b068fc378daa952ba7f163c4a11628f55a4df523b3ef8180a461377f565b60405162461bcd60e51b815260206004820152601c60248201527f4552433732313a20746f6b656e20616c7265616479206d696e746564000000006044820152606490fd5b606460405162461bcd60e51b815260206004820152602060248201527f4552433732313a206d696e7420746f20746865207a65726f20616464726573736044820152fd5b61343681612f8f565b61343f82613626565b6001600160a01b0316600081815260096020526040812080549192916000198101919082116134aa575b5582825260086020526040822080546001600160a01b03191690557fddf252ad1be2c89b69c2b068fc378daa952ba7f163c4a11628f55a4df523b3ef8280a4565b6134b2612a89565b613469565b156134be57565b60405162461bcd60e51b8152602060048201526024808201527f4552433732313a207472616e7366657220746f20746865207a65726f206164646044820152637265737360e01b6064820152608490fd5b9061351983612f8f565b6001600160a01b0383811692909182168390036135d3576135686135ac928216946135458615156134b7565b61354e87613626565b6001600160a01b0316600090815260096020526040902090565b6135728154612ab7565b90556001600160a01b03811660009081526009602052604090206135968154612d93565b905561335a856000526008602052604060002090565b7fddf252ad1be2c89b69c2b068fc378daa952ba7f163c4a11628f55a4df523b3ef600080a4565b60405162461bcd60e51b815260206004820152602560248201527f4552433732313a207472616e736665722066726f6d20696e636f72726563742060448201526437bbb732b960d91b6064820152608490fd5b6000818152600a6020526040812080546001600160a01b03191690556001600160a01b0361365383612f8f565b167f8c5be1e5ebec7d5bd14f71427d1e84f3dd0314c0f7b2291e5b200ac8c7c3b9258280a4565b6000828152600a6020526040902080546001600160a01b0319166001600160a01b0383161790556001600160a01b03806136b384612f8f565b169116907f8c5be1e5ebec7d5bd14f71427d1e84f3dd0314c0f7b2291e5b200ac8c7c3b925600080a4565b9081602091031261000e575161066781610555565b610667939260809260018060a01b031682526000602083015260408201528160608201520190610631565b6001600160a01b03918216815291166020820152604081019190915260806060820181905261066792910190610631565b3d1561377a573d9061376082610af2565b9161376e6040519384610ad1565b82523d6000602084013e565b606090565b909190803b15613838576137b1602091600093604051948580948193630a85bd0160e11b998a845233600485016136f3565b03926001600160a01b03165af160009181613808575b506137fa576137d461374f565b805190816137f55760405162461bcd60e51b8152806131e460048201613171565b602001fd5b6001600160e01b0319161490565b61382a91925060203d8111613831575b6138228183610ad1565b8101906136de565b90386137c7565b503d613818565b505050600190565b92909190823b15613873576137b1926020926000604051809681958294630a85bd0160e11b9a8b8552336004860161371e565b50505050600190565b90815181101561388d570160200190565b634e487b7160e01b600052603260045260246000fd5b801561393d576000818181805b61391357506138be81612f16565b935b6138ca5750505090565b6138d390612ab7565b90600a906138fe6138ee6138e8848406612da1565b60ff1690565b60f81b6001600160f81b03191690565b841a61390a848761387c565b530490816138c0565b91506001600a916000198114613930575b019104808492916138b0565b613938612a89565b613924565b50604051604081018181106001600160401b0382111761396c575b60405260018152600360fc1b602082015290565b613974610a7f565b613958565b9081602091031261000e575161066781610b6e565b6daaeb6d7670e522a718067333cd4e803b6139a7575050565b604051633185c44d60e21b81523060048201526001600160a01b038316602482015290602090829060449082905afa908115613a40575b600091613a12575b50156139ef5750565b604051633b79c77360e21b81526001600160a01b03919091166004820152602490fd5b613a33915060203d8111613a39575b613a2b8183610ad1565b810190613979565b386139e6565b503d613a21565b613a48612508565b6139de56fea264697066735822122009bad41c5a95d257b8689bed43dd1eade6aee2d7b7240302fdae9bcac633005e64736f6c63430008110033",
    "linkReferences": {}
  },
  "methodIdentifiers": {
    "DEFAULT_PAYLOAD_SIZE_LIMIT()": "c4461834",
    "OPERATOR_FILTER_REGISTRY()": "41f43434",
    "approve(address,uint256)": "095ea7b3",
    "balanceOf(address)": "70a08231",
    "estimateSendFee(uint16,bytes,uint256,bool,bytes)": "2a205e3d",
    "failedMessages(uint16,bytes,uint64)": "5b8c41e6",
    "forceResumeReceive(uint16,bytes)": "42d65a8d",
    "getApproved(uint256)": "081812fc",
    "getConfig(uint16,uint16,address,uint256)": "f5ecbdbc",
    "getTrustedRemoteAddress(uint16)": "9f38369a",
    "isApprovedForAll(address,address)": "e985e9c5",
    "isTrustedRemote(uint16,bytes)": "3d8b38f6",
    "lzEndpoint()": "b353aaa7",
    "lzReceive(uint16,bytes,uint64,bytes)": "001d3567",
    "minDstGasLookup(uint16,uint16)": "8cfd8f5c",
    "mint(uint8)": "6ecd2306",
    "name()": "06fdde03",
    "nonblockingLzReceive(uint16,bytes,uint64,bytes)": "66ad5c8a",
    "owner()": "8da5cb5b",
    "ownerOf(uint256)": "6352211e",
    "payloadSizeLimitLookup(uint16)": "3f1f4fa4",
    "precrime()": "950c8a74",
    "renounceOwnership()": "715018a6",
    "retryMessage(uint16,bytes,uint64,bytes)": "d1deba1f",
    "safeTransferFrom(address,address,uint256)": "42842e0e",
    "safeTransferFrom(address,address,uint256,bytes)": "b88d4fde",
    "sendFrom(address,uint16,bytes,uint256,address,address,bytes)": "51905636",
    "setApprovalForAll(address,bool)": "a22cb465",
    "setConfig(uint16,uint16,uint256,bytes)": "cbed8b9c",
    "setMinDstGas(uint16,uint16,uint256)": "df2a5b3b",
    "setPayloadSizeLimit(uint16,uint256)": "0df37483",
    "setPrecrime(address)": "baf3292d",
    "setReceiveVersion(uint16)": "10ddb137",
    "setSendVersion(uint16)": "07e0db17",
    "setTrustedRemote(uint16,bytes)": "eb8d72b7",
    "setTrustedRemoteAddress(uint16,bytes)": "a6c3d165",
    "supportsInterface(bytes4)": "01ffc9a7",
    "symbol()": "95d89b41",
    "tokenURI(uint256)": "c87b56dd",
    "transferFrom(address,address,uint256)": "23b872dd",
    "transferOwnership(address)": "f2fde38b",
    "traverseChains(uint16,uint256)": "cf89fa03",
    "trustedRemoteLookup(uint16)": "7533d788"
  },
  "id": 88
}