{
  "abi": [
    {
      "inputs": [
        {
          "internalType": "address",
          "name": "stargateRouter_",
          "type": "address"
        },
        {
          "internalType": "address",
          "name": "stargateEthVault_",
          "type": "address"
        }
      ],
      "stateMutability": "nonpayable",
      "type": "constructor"
    },
    {
      "anonymous": false,
      "inputs": [
        {
          "indexed": true,
          "internalType": "address",
          "name": "previousOwner",
          "type": "address"
        },
        {
          "indexed": true,
          "internalType": "address",
          "name": "newOwner",
          "type": "address"
        }
      ],
      "name": "OwnershipTransferred",
      "type": "event"
    },
    {
      "inputs": [],
      "name": "ETH_POOL_ID",
      "outputs": [
        {
          "internalType": "uint16",
          "name": "",
          "type": "uint16"
        }
      ],
      "stateMutability": "view",
      "type": "function"
    },
    {
      "inputs": [],
      "name": "gasForSgReceive",
      "outputs": [
        {
          "internalType": "uint256",
          "name": "",
          "type": "uint256"
        }
      ],
      "stateMutability": "view",
      "type": "function"
    },
    {
      "inputs": [
        {
          "internalType": "address",
          "name": "token",
          "type": "address"
        },
        {
          "internalType": "uint16",
          "name": "dstChainId",
          "type": "uint16"
        }
      ],
      "name": "getPoolId",
      "outputs": [
        {
          "components": [
            {
              "internalType": "uint256",
              "name": "srcPoolId",
              "type": "uint256"
            },
            {
              "internalType": "uint256",
              "name": "dstPoolId",
              "type": "uint256"
            }
          ],
          "internalType": "struct IStargatePoolManager.PoolID",
          "name": "",
          "type": "tuple"
        }
      ],
      "stateMutability": "view",
      "type": "function"
    },
    {
      "inputs": [
        {
          "internalType": "uint16",
          "name": "dstChainId",
          "type": "uint16"
        },
        {
          "internalType": "address",
          "name": "to",
          "type": "address"
        },
        {
          "internalType": "bytes",
          "name": "payload",
          "type": "bytes"
        }
      ],
      "name": "getSwapFee",
      "outputs": [
        {
          "internalType": "uint256",
          "name": "",
          "type": "uint256"
        },
        {
          "internalType": "uint256",
          "name": "",
          "type": "uint256"
        }
      ],
      "stateMutability": "view",
      "type": "function"
    },
    {
      "inputs": [
        {
          "internalType": "uint16",
          "name": "dstChainId",
          "type": "uint16"
        },
        {
          "internalType": "address",
          "name": "to",
          "type": "address"
        }
      ],
      "name": "getSwapFeeETH",
      "outputs": [
        {
          "internalType": "uint256",
          "name": "",
          "type": "uint256"
        },
        {
          "internalType": "uint256",
          "name": "",
          "type": "uint256"
        }
      ],
      "stateMutability": "view",
      "type": "function"
    },
    {
      "inputs": [
        {
          "internalType": "address",
          "name": "token",
          "type": "address"
        },
        {
          "internalType": "uint16",
          "name": "dstChainId",
          "type": "uint16"
        }
      ],
      "name": "isSwappable",
      "outputs": [
        {
          "internalType": "bool",
          "name": "",
          "type": "bool"
        }
      ],
      "stateMutability": "view",
      "type": "function"
    },
    {
      "inputs": [],
      "name": "owner",
      "outputs": [
        {
          "internalType": "address",
          "name": "",
          "type": "address"
        }
      ],
      "stateMutability": "view",
      "type": "function"
    },
    {
      "inputs": [
        {
          "internalType": "address",
          "name": "",
          "type": "address"
        },
        {
          "internalType": "uint16",
          "name": "",
          "type": "uint16"
        }
      ],
      "name": "poolIds",
      "outputs": [
        {
          "internalType": "uint256",
          "name": "srcPoolId",
          "type": "uint256"
        },
        {
          "internalType": "uint256",
          "name": "dstPoolId",
          "type": "uint256"
        }
      ],
      "stateMutability": "view",
      "type": "function"
    },
    {
      "inputs": [],
      "name": "renounceOwnership",
      "outputs": [],
      "stateMutability": "nonpayable",
      "type": "function"
    },
    {
      "inputs": [
        {
          "internalType": "uint256",
          "name": "gas",
          "type": "uint256"
        }
      ],
      "name": "setGasForSgReceive",
      "outputs": [],
      "stateMutability": "nonpayable",
      "type": "function"
    },
    {
      "inputs": [
        {
          "internalType": "address",
          "name": "token",
          "type": "address"
        },
        {
          "internalType": "uint16",
          "name": "dstChainId",
          "type": "uint16"
        },
        {
          "internalType": "uint256",
          "name": "srcPoolId",
          "type": "uint256"
        },
        {
          "internalType": "uint256",
          "name": "dstPoolId",
          "type": "uint256"
        }
      ],
      "name": "setPoolId",
      "outputs": [],
      "stateMutability": "nonpayable",
      "type": "function"
    },
    {
      "inputs": [
        {
          "internalType": "address",
          "name": "stargateRouter_",
          "type": "address"
        }
      ],
      "name": "setStargateRouter",
      "outputs": [],
      "stateMutability": "nonpayable",
      "type": "function"
    },
    {
      "inputs": [],
      "name": "stargateEthVault",
      "outputs": [
        {
          "internalType": "address",
          "name": "",
          "type": "address"
        }
      ],
      "stateMutability": "view",
      "type": "function"
    },
    {
      "inputs": [],
      "name": "stargateRouter",
      "outputs": [
        {
          "internalType": "contract IStargateRouter",
          "name": "",
          "type": "address"
        }
      ],
      "stateMutability": "view",
      "type": "function"
    },
    {
      "inputs": [
        {
          "internalType": "address",
          "name": "token",
          "type": "address"
        },
        {
          "internalType": "uint16",
          "name": "dstChainId",
          "type": "uint16"
        },
        {
          "internalType": "address payable",
          "name": "refundAddress",
          "type": "address"
        },
        {
          "internalType": "uint256",
          "name": "amount",
          "type": "uint256"
        },
        {
          "internalType": "address",
          "name": "from",
          "type": "address"
        },
        {
          "internalType": "address",
          "name": "to",
          "type": "address"
        },
        {
          "internalType": "bytes",
          "name": "payload",
          "type": "bytes"
        }
      ],
      "name": "swap",
      "outputs": [],
      "stateMutability": "payable",
      "type": "function"
    },
    {
      "inputs": [
        {
          "internalType": "uint16",
          "name": "dstChainId",
          "type": "uint16"
        },
        {
          "internalType": "address payable",
          "name": "refundAddress",
          "type": "address"
        },
        {
          "internalType": "uint256",
          "name": "amount",
          "type": "uint256"
        },
        {
          "internalType": "address",
          "name": "to",
          "type": "address"
        },
        {
          "internalType": "bytes",
          "name": "payload",
          "type": "bytes"
        }
      ],
      "name": "swapETH",
      "outputs": [],
      "stateMutability": "payable",
      "type": "function"
    },
    {
      "inputs": [
        {
          "internalType": "address",
          "name": "newOwner",
          "type": "address"
        }
      ],
      "name": "transferOwnership",
      "outputs": [],
      "stateMutability": "nonpayable",
      "type": "function"
    }
  ],
  "bytecode": {
    "object": "0x60a0346100dc57601f610feb38819003918201601f19168301916001600160401b038311848410176100e15780849260409485528339810103126100dc57610052602061004b836100f7565b92016100f7565b600080546001600160a01b03198082163390811784556040519591936001600160a01b03938416907f8be0079c531659141344cd1fd0a4f28419497f9722a3daafe3b4186f6b6457e09080a362055730600355600d61ffff19600454161760045516906002541617600255608052610edf908161010c82396080518181816106ed0152610a2b0152f35b600080fd5b634e487b7160e01b600052604160045260246000fd5b51906001600160a01b03821682036100dc5756fe6040608081526004908136101561001557600080fd5b6000803560e01c80632b23ee9214610a8857806332ce777514610a5a57806338e31d3914610a1657806351b78b47146109cc57806355a13fb9146109775780635fa7a7ff1461068c5780636124afb21461064f578063715018a6146105f05780637b3485f1146105d15780638da5cb5b146105a9578063a4b2b31d14610572578063a9e56f3c14610549578063b682a24414610528578063d065a1251461029e578063daec426d1461021d578063f2fde38b146101495763facfbcf9146100db57600080fd5b346101465781600319360112610146576100f3610ad7565b6100fb610af9565b908351926020840184811067ffffffffffffffff8211176101315785610125969750528352610d74565b82519182526020820152f35b604187634e487b7160e01b6000525260246000fd5b80fd5b50913461021957602036600319011261021957610164610b0f565b83546001600160a01b039291839161017f9083163314610c00565b169283156101c7575050600054826001600160601b0360a01b821617600055167f8be0079c531659141344cd1fd0a4f28419497f9722a3daafe3b4186f6b6457e0600080a380f35b906020608492519162461bcd60e51b8352820152602660248201527f4f776e61626c653a206e6577206f776e657220697320746865207a65726f206160448201526564647265737360d01b6064820152fd5b8280fd5b50903461029a57608036600319011261029a57610238610b0f565b610240610ae8565b835490916001600160a01b039161025a9083163314610c00565b16808452600160205261ffff8385209216918260005260205260443583600020558352600160205281832090600052602052600160643591600020015580f35b5080fd5b50916003199160e036840112610524576102b6610b0f565b916102bf610ae8565b926001600160a01b03604435818116939084900361051f576064359560843583811680910361051f5760a43598848a168a0361051f578a9960c43567ffffffffffffffff811161051b57868c8c8a8d9436908b019061031d91610ba9565b976003549580519661032e88610b4f565b87528b60209d8e9487868b0152610343610cec565b848b015283519a6001600160601b03199060601b16868c015260148b528d61036a8c610b6b565b61037391610c4b565b9f169586925195869485936323b872dd60e01b855284015230602484015260448301525a92606493f1801561050f578f928f918f90948d946103ed966104f2575b50600254915163095ea7b360e01b81529187166001600160a01b03168d8301908152602081019490945290948593849291839160400190565b03925af180156104e6576104b9575b50600254169688519801519a873b156104b5578c998b519c8d9a8b998a996327efc43f60e21b8b5261ffff16908a0152602489015260448801526064870152608486015260a48501612710905260c485016101209052610124850161046091610d4a565b828582030160e486015261047391610d0a565b908382030161010484015261048791610d0a565b039134905af19081156104ac575061049c5750f35b6104a590610b25565b6101465780f35b513d84823e3d90fd5b8c80fd5b6104d890893d8b116104df575b6104d08183610b87565b810190610e91565b50386103fc565b503d6104c6565b8e8d51903d90823e3d90fd5b61050890863d88116104df576104d08183610b87565b50386103b4565b8f8e51903d90823e3d90fd5b8b80fd5b600080fd5b8380fd5b50346101465780600319360112610146575061ffff60209254169051908152f35b50903461029a578160031936011261029a5760025490516001600160a01b039091168152602090f35b50903461029a578060031936011261029a576020906105a0610592610b0f565b61059a610ae8565b90610ca0565b90519015158152f35b50903461029a578160031936011261029a57905490516001600160a01b039091168152602090f35b50903461029a578160031936011261029a576020906003549051908152f35b5034610146578060031936011261014657600060018060a01b03610618818454163314610c00565b81546001600160a01b031981168355167f8be0079c531659141344cd1fd0a4f28419497f9722a3daafe3b4186f6b6457e08280a380f35b50346101465781600319360112610146575061067a61066c610b0f565b610674610ae8565b90610c4b565b60208251918051835201516020820152f35b50826003199260a084360112610219576106a4610ad7565b916106ad610af9565b6001600160a01b0393909190606435906044359086831683036109735760843567ffffffffffffffff811161096f576106e99036908601610ba9565b90877f000000000000000000000000000000000000000000000000000000000000000016801561093757833411156108e4578751946001600160601b03199060601b1660208601526014855261073e85610b6b565b803b156108e0578751630d0e30db60e41b81528a81888188865af180156108d6576108bc575b50600254885163095ea7b360e01b8152908a166001600160a01b031687820190815260208082018790529192839182908e9082906040015b03925af180156108b257610894575b508234039134831161088157899a600354958951966107c988610b4f565b87528b60208801526107d9610cec565b8a8801528a600254169661ffff96878a54169c893b1561087d578e9b8d519e8f9c8d9b8c9a6327efc43f60e21b8c5216908a01528060248a01526044890152166064870152608486015260a48501612710905260c485016101209052610124850161084391610d4a565b828582030160e486015261085691610d0a565b908382030161010484015261086a91610d0a565b03925af19081156104ac575061049c5750f35b8e80fd5b634e487b7160e01b8a526011865260248afd5b6108ab9060203d81116104df576104d08183610b87565b508a6107ab565b88513d8c823e3d90fd5b8461079c929b6108cd602093610b25565b9b925050610764565b89513d8d823e3d90fd5b8980fd5b875162461bcd60e51b8152602081880152602760248201527f53746172676174653a206d73672e76616c7565206d757374206265203e205f616044820152661b5bdd5b9d131160ca1b6064820152608490fd5b875162461bcd60e51b815260208188015260126024820152710d2dcecc2d8d2c840e4deeae8cae440cae8d60731b6044820152606490fd5b8880fd5b8780fd5b50903461029a578060031936011261029a578091610993610b0f565b61099b610ae8565b9060018060a01b03168252600160205261ffff83832091168252602052206001815491015482519182526020820152f35b5034610146576020366003190112610146576109e6610b0f565b81546001600160a01b0391906109ff9083163314610c00565b166001600160601b0360a01b600254161760025580f35b50903461029a578160031936011261029a57517f00000000000000000000000000000000000000000000000000000000000000006001600160a01b03168152602090f35b50823461029a57602036600319011261029a57610a8160018060a01b038354163314610c00565b3560035580f35b503461014657606036600319011261014657610aa2610ad7565b90610aab610af9565b906044359067ffffffffffffffff821161014657506101259394610ad191369101610ba9565b91610d74565b6004359061ffff8216820361051f57565b6024359061ffff8216820361051f57565b602435906001600160a01b038216820361051f57565b600435906001600160a01b038216820361051f57565b67ffffffffffffffff8111610b3957604052565b634e487b7160e01b600052604160045260246000fd5b6060810190811067ffffffffffffffff821117610b3957604052565b6040810190811067ffffffffffffffff821117610b3957604052565b90601f8019910116810190811067ffffffffffffffff821117610b3957604052565b81601f8201121561051f5780359067ffffffffffffffff8211610b395760405192610bde601f8401601f191660200185610b87565b8284526020838301011161051f57816000926020809301838601378301015290565b15610c0757565b606460405162461bcd60e51b815260206004820152602060248201527f4f776e61626c653a2063616c6c6572206973206e6f7420746865206f776e65726044820152fd5b6040916020918351610c5c81610b6b565b6000938185809352015260018060a01b03168252600160205261ffff8383209116825260205220600160405191610c9283610b6b565b805483520154602082015290565b60018060a01b0316600052600160205261ffff604060002091166000526020526040600020805415908115610cdf575b50610cda57600190565b600090565b6001915001541538610cd0565b60405190610cf982610b6b565b6002825261060f60f31b6020830152565b919082519283825260005b848110610d36575050826000602080949584010152601f8019910116010190565b602081830181015184830182015201610d15565b9060606040610d719380518452602081015160208501520151918160408201520190610d0a565b90565b610e109061ffff929493946003546040948593845192610d9384610b4f565b8352610e326000998a6020860152610da9610cec565b878601528651956001600160601b03199060601b16602087015260148652610dd086610b6b565b60018060a01b036002541694610e238851998a9889978897630a51236960e01b89521660048801526001602488015260a0604488015260a4870190610d0a565b6003199384878303016064880152610d0a565b91848303016084850152610d4a565b03915afa938415610e865780928195610e4d575b5050509190565b919450915083813d8111610e7f575b610e668183610b87565b8101031261014657506020825192015191388080610e46565b503d610e5c565b8251903d90823e3d90fd5b9081602091031261051f5751801515810361051f579056fea2646970667358221220e3b54783016abb0d4ad88616c4f9d8dc2779306f8cb5a7792bee0d5b7ce8f9f964736f6c63430008110033",
    "linkReferences": {}
  },
  "methodIdentifiers": {
    "ETH_POOL_ID()": "b682a244",
    "gasForSgReceive()": "7b3485f1",
    "getPoolId(address,uint16)": "6124afb2",
    "getSwapFee(uint16,address,bytes)": "2b23ee92",
    "getSwapFeeETH(uint16,address)": "facfbcf9",
    "isSwappable(address,uint16)": "a4b2b31d",
    "owner()": "8da5cb5b",
    "poolIds(address,uint16)": "55a13fb9",
    "renounceOwnership()": "715018a6",
    "setGasForSgReceive(uint256)": "32ce7775",
    "setPoolId(address,uint16,uint256,uint256)": "daec426d",
    "setStargateRouter(address)": "51b78b47",
    "stargateEthVault()": "38e31d39",
    "stargateRouter()": "a9e56f3c",
    "swap(address,uint16,address,uint256,address,address,bytes)": "d065a125",
    "swapETH(uint16,address,uint256,address,bytes)": "5fa7a7ff",
    "transferOwnership(address)": "f2fde38b"
  },
  "id": 18
}