{
  "abi": [
    {
      "inputs": [
        {
          "internalType": "address",
          "name": "stargateRouter_",
          "type": "address"
        },
        {
          "internalType": "address",
          "name": "stargateEthVault_",
          "type": "address"
        }
      ],
      "stateMutability": "nonpayable",
      "type": "constructor"
    },
    {
      "anonymous": false,
      "inputs": [
        {
          "indexed": true,
          "internalType": "address",
          "name": "previousOwner",
          "type": "address"
        },
        {
          "indexed": true,
          "internalType": "address",
          "name": "newOwner",
          "type": "address"
        }
      ],
      "name": "OwnershipTransferred",
      "type": "event"
    },
    {
      "inputs": [],
      "name": "ETH_POOL_ID",
      "outputs": [
        {
          "internalType": "uint16",
          "name": "",
          "type": "uint16"
        }
      ],
      "stateMutability": "view",
      "type": "function"
    },
    {
      "inputs": [],
      "name": "gasForSgReceive",
      "outputs": [
        {
          "internalType": "uint256",
          "name": "",
          "type": "uint256"
        }
      ],
      "stateMutability": "view",
      "type": "function"
    },
    {
      "inputs": [
        {
          "internalType": "address",
          "name": "token",
          "type": "address"
        },
        {
          "internalType": "uint16",
          "name": "dstChainId",
          "type": "uint16"
        }
      ],
      "name": "getPoolId",
      "outputs": [
        {
          "components": [
            {
              "internalType": "uint256",
              "name": "srcPoolId",
              "type": "uint256"
            },
            {
              "internalType": "uint256",
              "name": "dstPoolId",
              "type": "uint256"
            }
          ],
          "internalType": "struct IStargatePoolManager.PoolID",
          "name": "",
          "type": "tuple"
        }
      ],
      "stateMutability": "view",
      "type": "function"
    },
    {
      "inputs": [
        {
          "internalType": "uint16",
          "name": "dstChainId",
          "type": "uint16"
        },
        {
          "internalType": "address",
          "name": "to",
          "type": "address"
        },
        {
          "internalType": "bytes",
          "name": "payload",
          "type": "bytes"
        }
      ],
      "name": "getSwapFee",
      "outputs": [
        {
          "internalType": "uint256",
          "name": "",
          "type": "uint256"
        },
        {
          "internalType": "uint256",
          "name": "",
          "type": "uint256"
        }
      ],
      "stateMutability": "view",
      "type": "function"
    },
    {
      "inputs": [
        {
          "internalType": "uint16",
          "name": "dstChainId",
          "type": "uint16"
        },
        {
          "internalType": "address",
          "name": "to",
          "type": "address"
        }
      ],
      "name": "getSwapFeeETH",
      "outputs": [
        {
          "internalType": "uint256",
          "name": "",
          "type": "uint256"
        },
        {
          "internalType": "uint256",
          "name": "",
          "type": "uint256"
        }
      ],
      "stateMutability": "view",
      "type": "function"
    },
    {
      "inputs": [
        {
          "internalType": "address",
          "name": "token",
          "type": "address"
        },
        {
          "internalType": "uint16",
          "name": "dstChainId",
          "type": "uint16"
        }
      ],
      "name": "isSwappable",
      "outputs": [
        {
          "internalType": "bool",
          "name": "",
          "type": "bool"
        }
      ],
      "stateMutability": "view",
      "type": "function"
    },
    {
      "inputs": [],
      "name": "owner",
      "outputs": [
        {
          "internalType": "address",
          "name": "",
          "type": "address"
        }
      ],
      "stateMutability": "view",
      "type": "function"
    },
    {
      "inputs": [
        {
          "internalType": "address",
          "name": "",
          "type": "address"
        },
        {
          "internalType": "uint16",
          "name": "",
          "type": "uint16"
        }
      ],
      "name": "poolIds",
      "outputs": [
        {
          "internalType": "uint256",
          "name": "srcPoolId",
          "type": "uint256"
        },
        {
          "internalType": "uint256",
          "name": "dstPoolId",
          "type": "uint256"
        }
      ],
      "stateMutability": "view",
      "type": "function"
    },
    {
      "inputs": [],
      "name": "renounceOwnership",
      "outputs": [],
      "stateMutability": "nonpayable",
      "type": "function"
    },
    {
      "inputs": [
        {
          "internalType": "uint256",
          "name": "gas",
          "type": "uint256"
        }
      ],
      "name": "setGasForSgReceive",
      "outputs": [],
      "stateMutability": "nonpayable",
      "type": "function"
    },
    {
      "inputs": [
        {
          "internalType": "address",
          "name": "token",
          "type": "address"
        },
        {
          "internalType": "uint16",
          "name": "dstChainId",
          "type": "uint16"
        },
        {
          "internalType": "uint256",
          "name": "srcPoolId",
          "type": "uint256"
        },
        {
          "internalType": "uint256",
          "name": "dstPoolId",
          "type": "uint256"
        }
      ],
      "name": "setPoolId",
      "outputs": [],
      "stateMutability": "nonpayable",
      "type": "function"
    },
    {
      "inputs": [
        {
          "internalType": "address",
          "name": "stargateRouter_",
          "type": "address"
        }
      ],
      "name": "setStargateRouter",
      "outputs": [],
      "stateMutability": "nonpayable",
      "type": "function"
    },
    {
      "inputs": [],
      "name": "stargateEthVault",
      "outputs": [
        {
          "internalType": "address",
          "name": "",
          "type": "address"
        }
      ],
      "stateMutability": "view",
      "type": "function"
    },
    {
      "inputs": [],
      "name": "stargateRouter",
      "outputs": [
        {
          "internalType": "contract IStargateRouter",
          "name": "",
          "type": "address"
        }
      ],
      "stateMutability": "view",
      "type": "function"
    },
    {
      "inputs": [
        {
          "internalType": "address",
          "name": "token",
          "type": "address"
        },
        {
          "internalType": "uint16",
          "name": "dstChainId",
          "type": "uint16"
        },
        {
          "internalType": "address payable",
          "name": "refundAddress",
          "type": "address"
        },
        {
          "internalType": "uint256",
          "name": "amount",
          "type": "uint256"
        },
        {
          "internalType": "address",
          "name": "from",
          "type": "address"
        },
        {
          "internalType": "address",
          "name": "to",
          "type": "address"
        },
        {
          "internalType": "bytes",
          "name": "payload",
          "type": "bytes"
        }
      ],
      "name": "swap",
      "outputs": [],
      "stateMutability": "payable",
      "type": "function"
    },
    {
      "inputs": [
        {
          "internalType": "uint16",
          "name": "dstChainId",
          "type": "uint16"
        },
        {
          "internalType": "address payable",
          "name": "refundAddress",
          "type": "address"
        },
        {
          "internalType": "uint256",
          "name": "amount",
          "type": "uint256"
        },
        {
          "internalType": "address",
          "name": "to",
          "type": "address"
        },
        {
          "internalType": "bytes",
          "name": "payload",
          "type": "bytes"
        }
      ],
      "name": "swapETH",
      "outputs": [],
      "stateMutability": "payable",
      "type": "function"
    },
    {
      "inputs": [
        {
          "internalType": "address",
          "name": "newOwner",
          "type": "address"
        }
      ],
      "name": "transferOwnership",
      "outputs": [],
      "stateMutability": "nonpayable",
      "type": "function"
    }
  ],
  "bytecode": {
    "object": "0x60a0604052620557306003556004805461ffff1916600d17905534801561002557600080fd5b506040516112cb3803806112cb833981016040819052610044916100de565b61004d33610072565b600280546001600160a01b0319166001600160a01b0393841617905516608052610111565b600080546001600160a01b038381166001600160a01b0319831681178455604051919092169283917f8be0079c531659141344cd1fd0a4f28419497f9722a3daafe3b4186f6b6457e09190a35050565b80516001600160a01b03811681146100d957600080fd5b919050565b600080604083850312156100f157600080fd5b6100fa836100c2565b9150610108602084016100c2565b90509250929050565b60805161118a61014160003960008181610171015281816104d8015281816105d5015261066d015261118a6000f3fe6080604052600436106100fe5760003560e01c80637b3485f111610095578063b682a24411610064578063b682a244146102fc578063d065a1251461032a578063daec426d1461033d578063f2fde38b1461035d578063facfbcf91461037d57600080fd5b80637b3485f11461026a5780638da5cb5b1461028e578063a4b2b31d146102ac578063a9e56f3c146102dc57600080fd5b806355a13fb9116100d157806355a13fb9146101cb5780635fa7a7ff146102075780636124afb21461021a578063715018a61461025557600080fd5b80632b23ee921461010357806332ce77751461013d57806338e31d391461015f57806351b78b47146101ab575b600080fd5b34801561010f57600080fd5b5061012361011e366004610ce8565b61039d565b604080519283526020830191909152015b60405180910390f35b34801561014957600080fd5b5061015d610158366004610d48565b61049f565b005b34801561016b57600080fd5b506101937f000000000000000000000000000000000000000000000000000000000000000081565b6040516001600160a01b039091168152602001610134565b3480156101b757600080fd5b5061015d6101c6366004610d61565b6104ac565b3480156101d757600080fd5b506101236101e6366004610d85565b60016020818152600093845260408085209091529183529120805491015482565b61015d610215366004610dba565b6104d6565b34801561022657600080fd5b5061023a610235366004610d85565b6107db565b60408051825181526020928301519281019290925201610134565b34801561026157600080fd5b5061015d61082b565b34801561027657600080fd5b5061028060035481565b604051908152602001610134565b34801561029a57600080fd5b506000546001600160a01b0316610193565b3480156102b857600080fd5b506102cc6102c7366004610d85565b61083f565b6040519015158152602001610134565b3480156102e857600080fd5b50600254610193906001600160a01b031681565b34801561030857600080fd5b506004546103179061ffff1681565b60405161ffff9091168152602001610134565b61015d610338366004610e37565b61088f565b34801561034957600080fd5b5061015d610358366004610ed9565b610a93565b34801561036957600080fd5b5061015d610378366004610d61565b610ace565b34801561038957600080fd5b50610123610398366004610f1d565b610b47565b6000806000604051806060016040528060035481526020016000815260200160405180604001604052806002815260200161060f60f31b8152508152509050600085604051602001610402919060609190911b6001600160601b031916815260140190565b60408051601f1981840301815290829052600254630a51236960e01b835290925060009182916001600160a01b031690630a5123699061044f908c9060019088908d908b90600401610fcb565b6040805180830381865afa15801561046b573d6000803e3d6000fd5b505050506040513d601f19601f8201168201806040525081019061048f9190611023565b909a909950975050505050505050565b6104a7610b6f565b600355565b6104b4610b6f565b600280546001600160a01b0319166001600160a01b0392909216919091179055565b7f00000000000000000000000000000000000000000000000000000000000000006001600160a01b03166105465760405162461bcd60e51b81526020600482015260126024820152710d2dcecc2d8d2c840e4deeae8cae440cae8d60731b60448201526064015b60405180910390fd5b8234116105a55760405162461bcd60e51b815260206004820152602760248201527f53746172676174653a206d73672e76616c7565206d757374206265203e205f616044820152661b5bdd5b9d131160ca1b606482015260840161053d565b6040516001600160601b0319606084901b16602082015260009060340160405160208183030381529060405290507f00000000000000000000000000000000000000000000000000000000000000006001600160a01b031663d0e30db0856040518263ffffffff1660e01b81526004016000604051808303818588803b15801561062e57600080fd5b505af1158015610642573d6000803e3d6000fd5b505060025460405163095ea7b360e01b81526001600160a01b039182166004820152602481018990527f0000000000000000000000000000000000000000000000000000000000000000909116935063095ea7b3925060440190506020604051808303816000875af11580156106bc573d6000803e3d6000fd5b505050506040513d601f19601f820116820180604052508101906106e09190611047565b5060006106ed8534611069565b90506000604051806060016040528060035481526020016000815260200160405180604001604052806002815260200161060f60f31b8152508152509050600260009054906101000a90046001600160a01b03166001600160a01b0316639fbf10fc838a600460009054906101000a900461ffff16600460009054906101000a900461ffff168c8c612710898c8e6040518b63ffffffff1660e01b815260040161079f9998979695949392919061108a565b6000604051808303818588803b1580156107b857600080fd5b505af11580156107cc573d6000803e3d6000fd5b50505050505050505050505050565b604080518082018252600080825260209182018190526001600160a01b0385168152600180835283822061ffff861683528352908390208351808501909452805484520154908201525b92915050565b610833610b6f565b61083d6000610bc9565b565b6001600160a01b038216600090815260016020908152604080832061ffff8516845290915281208054158061087657506001810154155b15610885576000915050610825565b5060019392505050565b60408051606081018252600354815260006020808301829052835180850185526002815261060f60f31b81830152838501529251919290916108e69186910160609190911b6001600160601b031916815260140190565b604051602081830303815290604052905060006109038a8a6107db565b6040516323b872dd60e01b81526001600160a01b038881166004830152306024830152604482018a9052919250908b16906323b872dd906064016020604051808303816000875af115801561095c573d6000803e3d6000fd5b505050506040513d601f19601f820116820180604052508101906109809190611047565b5060025460405163095ea7b360e01b81526001600160a01b03918216600482015260248101899052908b169063095ea7b3906044016020604051808303816000875af11580156109d4573d6000803e3d6000fd5b505050506040513d601f19601f820116820180604052508101906109f89190611047565b50600260009054906101000a90046001600160a01b03166001600160a01b0316639fbf10fc348b846000015185602001518d8d6127108b8b8e6040518b63ffffffff1660e01b8152600401610a5599989796959493929190611110565b6000604051808303818588803b158015610a6e57600080fd5b505af1158015610a82573d6000803e3d6000fd5b505050505050505050505050505050565b610a9b610b6f565b6001600160a01b0393909316600090815260016020818152604080842061ffff9690961684529490529290209081550155565b610ad6610b6f565b6001600160a01b038116610b3b5760405162461bcd60e51b815260206004820152602660248201527f4f776e61626c653a206e6577206f776e657220697320746865207a65726f206160448201526564647265737360d01b606482015260840161053d565b610b4481610bc9565b50565b600080610b6484846040518060200160405280600081525061039d565b915091509250929050565b6000546001600160a01b0316331461083d5760405162461bcd60e51b815260206004820181905260248201527f4f776e61626c653a2063616c6c6572206973206e6f7420746865206f776e6572604482015260640161053d565b600080546001600160a01b038381166001600160a01b0319831681178455604051919092169283917f8be0079c531659141344cd1fd0a4f28419497f9722a3daafe3b4186f6b6457e09190a35050565b803561ffff81168114610c2b57600080fd5b919050565b6001600160a01b0381168114610b4457600080fd5b634e487b7160e01b600052604160045260246000fd5b600082601f830112610c6c57600080fd5b813567ffffffffffffffff80821115610c8757610c87610c45565b604051601f8301601f19908116603f01168101908282118183101715610caf57610caf610c45565b81604052838152866020858801011115610cc857600080fd5b836020870160208301376000602085830101528094505050505092915050565b600080600060608486031215610cfd57600080fd5b610d0684610c19565b92506020840135610d1681610c30565b9150604084013567ffffffffffffffff811115610d3257600080fd5b610d3e86828701610c5b565b9150509250925092565b600060208284031215610d5a57600080fd5b5035919050565b600060208284031215610d7357600080fd5b8135610d7e81610c30565b9392505050565b60008060408385031215610d9857600080fd5b8235610da381610c30565b9150610db160208401610c19565b90509250929050565b600080600080600060a08688031215610dd257600080fd5b610ddb86610c19565b94506020860135610deb81610c30565b9350604086013592506060860135610e0281610c30565b9150608086013567ffffffffffffffff811115610e1e57600080fd5b610e2a88828901610c5b565b9150509295509295909350565b600080600080600080600060e0888a031215610e5257600080fd5b8735610e5d81610c30565b9650610e6b60208901610c19565b95506040880135610e7b81610c30565b9450606088013593506080880135610e9281610c30565b925060a0880135610ea281610c30565b915060c088013567ffffffffffffffff811115610ebe57600080fd5b610eca8a828b01610c5b565b91505092959891949750929550565b60008060008060808587031215610eef57600080fd5b8435610efa81610c30565b9350610f0860208601610c19565b93969395505050506040820135916060013590565b60008060408385031215610f3057600080fd5b610f3983610c19565b91506020830135610f4981610c30565b809150509250929050565b6000815180845260005b81811015610f7a57602081850181015186830182015201610f5e565b506000602082860101526020601f19601f83011685010191505092915050565b80518252602081015160208301526000604082015160606040850152610fc36060850182610f54565b949350505050565b61ffff8616815260ff8516602082015260a060408201526000610ff160a0830186610f54565b82810360608401526110038186610f54565b905082810360808401526110178185610f9a565b98975050505050505050565b6000806040838503121561103657600080fd5b505080516020909101519092909150565b60006020828403121561105957600080fd5b81518015158114610d7e57600080fd5b8181038181111561082557634e487b7160e01b600052601160045260246000fd5b61ffff8a811682528981166020830152881660408201526001600160a01b03871660608201526080810186905260a0810185905261012060c082018190526000906110d783820187610f9a565b905082810360e08401526110eb8186610f54565b90508281036101008401526111008185610f54565b9c9b505050505050505050505050565b600061012061ffff8c1683528a602084015289604084015260018060a01b03891660608401528760808401528660a08401528060c08401526110d781840187610f9a56fea26469706673582212207f2e98f01e0095c06c0010427e8379861247117f9a75de2580c8246ebd980f4764736f6c63430008110033",
    "linkReferences": {}
  },
  "methodIdentifiers": {
    "ETH_POOL_ID()": "b682a244",
    "gasForSgReceive()": "7b3485f1",
    "getPoolId(address,uint16)": "6124afb2",
    "getSwapFee(uint16,address,bytes)": "2b23ee92",
    "getSwapFeeETH(uint16,address)": "facfbcf9",
    "isSwappable(address,uint16)": "a4b2b31d",
    "owner()": "8da5cb5b",
    "poolIds(address,uint16)": "55a13fb9",
    "renounceOwnership()": "715018a6",
    "setGasForSgReceive(uint256)": "32ce7775",
    "setPoolId(address,uint16,uint256,uint256)": "daec426d",
    "setStargateRouter(address)": "51b78b47",
    "stargateEthVault()": "38e31d39",
    "stargateRouter()": "a9e56f3c",
    "swap(address,uint16,address,uint256,address,address,bytes)": "d065a125",
    "swapETH(uint16,address,uint256,address,bytes)": "5fa7a7ff",
    "transferOwnership(address)": "f2fde38b"
  },
  "id": 8
}