{
  "abi": [
    {
      "inputs": [
        {
          "internalType": "address",
          "name": "_transferManagerERC721",
          "type": "address"
        },
        {
          "internalType": "address",
          "name": "_transferManagerERC1155",
          "type": "address"
        }
      ],
      "stateMutability": "nonpayable",
      "type": "constructor"
    },
    {
      "anonymous": false,
      "inputs": [
        {
          "indexed": true,
          "internalType": "address",
          "name": "collection",
          "type": "address"
        },
        {
          "indexed": true,
          "internalType": "address",
          "name": "transferManager",
          "type": "address"
        }
      ],
      "name": "CollectionTransferManagerAdded",
      "type": "event"
    },
    {
      "anonymous": false,
      "inputs": [
        {
          "indexed": true,
          "internalType": "address",
          "name": "collection",
          "type": "address"
        }
      ],
      "name": "CollectionTransferManagerRemoved",
      "type": "event"
    },
    {
      "anonymous": false,
      "inputs": [
        {
          "indexed": true,
          "internalType": "address",
          "name": "previousOwner",
          "type": "address"
        },
        {
          "indexed": true,
          "internalType": "address",
          "name": "newOwner",
          "type": "address"
        }
      ],
      "name": "OwnershipTransferred",
      "type": "event"
    },
    {
      "inputs": [],
      "name": "INTERFACE_ID_ERC1155",
      "outputs": [
        {
          "internalType": "bytes4",
          "name": "",
          "type": "bytes4"
        }
      ],
      "stateMutability": "view",
      "type": "function"
    },
    {
      "inputs": [],
      "name": "INTERFACE_ID_ERC721",
      "outputs": [
        {
          "internalType": "bytes4",
          "name": "",
          "type": "bytes4"
        }
      ],
      "stateMutability": "view",
      "type": "function"
    },
    {
      "inputs": [],
      "name": "TRANSFER_MANAGER_ERC1155",
      "outputs": [
        {
          "internalType": "address",
          "name": "",
          "type": "address"
        }
      ],
      "stateMutability": "view",
      "type": "function"
    },
    {
      "inputs": [],
      "name": "TRANSFER_MANAGER_ERC721",
      "outputs": [
        {
          "internalType": "address",
          "name": "",
          "type": "address"
        }
      ],
      "stateMutability": "view",
      "type": "function"
    },
    {
      "inputs": [
        {
          "internalType": "address",
          "name": "collection",
          "type": "address"
        },
        {
          "internalType": "address",
          "name": "transferManager",
          "type": "address"
        }
      ],
      "name": "addCollectionTransferManager",
      "outputs": [],
      "stateMutability": "nonpayable",
      "type": "function"
    },
    {
      "inputs": [
        {
          "internalType": "address",
          "name": "collection",
          "type": "address"
        }
      ],
      "name": "checkTransferManagerForToken",
      "outputs": [
        {
          "internalType": "address",
          "name": "transferManager",
          "type": "address"
        }
      ],
      "stateMutability": "view",
      "type": "function"
    },
    {
      "inputs": [],
      "name": "owner",
      "outputs": [
        {
          "internalType": "address",
          "name": "",
          "type": "address"
        }
      ],
      "stateMutability": "view",
      "type": "function"
    },
    {
      "inputs": [
        {
          "internalType": "address",
          "name": "collection",
          "type": "address"
        }
      ],
      "name": "removeCollectionTransferManager",
      "outputs": [],
      "stateMutability": "nonpayable",
      "type": "function"
    },
    {
      "inputs": [],
      "name": "renounceOwnership",
      "outputs": [],
      "stateMutability": "nonpayable",
      "type": "function"
    },
    {
      "inputs": [
        {
          "internalType": "address",
          "name": "",
          "type": "address"
        }
      ],
      "name": "transferManagerSelectorForCollection",
      "outputs": [
        {
          "internalType": "address",
          "name": "",
          "type": "address"
        }
      ],
      "stateMutability": "view",
      "type": "function"
    },
    {
      "inputs": [
        {
          "internalType": "address",
          "name": "newOwner",
          "type": "address"
        }
      ],
      "name": "transferOwnership",
      "outputs": [],
      "stateMutability": "nonpayable",
      "type": "function"
    }
  ],
  "bytecode": {
    "object": "0x60c060405234801561001057600080fd5b5060405161085738038061085783398101604081905261002f916100bb565b6100383361004f565b6001600160a01b039182166080521660a0526100ee565b600080546001600160a01b038381166001600160a01b0319831681178455604051919092169283917f8be0079c531659141344cd1fd0a4f28419497f9722a3daafe3b4186f6b6457e09190a35050565b80516001600160a01b03811681146100b657600080fd5b919050565b600080604083850312156100ce57600080fd5b6100d78361009f565b91506100e56020840161009f565b90509250929050565b60805160a0516107376101206000396000818160f4015261052b015260008181610188015261049001526107376000f3fe608060405234801561001057600080fd5b50600436106100a95760003560e01c8063715018a611610071578063715018a61461016a5780638da5cb5b14610172578063b1357ddd14610183578063bc6bc0cd146101aa578063cc159493146101b8578063f2fde38b146101cb57600080fd5b806325c6a895146100ae57806333bf6156146100c357806338928956146100ef5780634216a7531461012e5780637053fb7914610157575b600080fd5b6100c16100bc36600461068a565b6101de565b005b6100d1636cdb3d1360e11b81565b6040516001600160e01b031990911681526020015b60405180910390f35b6101167f000000000000000000000000000000000000000000000000000000000000000081565b6040516001600160a01b0390911681526020016100e6565b61011661013c3660046106bd565b6001602052600090815260409020546001600160a01b031681565b6100c16101653660046106bd565b610315565b6100c16103e5565b6000546001600160a01b0316610116565b6101167f000000000000000000000000000000000000000000000000000000000000000081565b6100d16380ac58cd60e01b81565b6101166101c63660046106bd565b6103f9565b6100c16101d93660046106bd565b610550565b6101e66105c9565b6001600160a01b0382166102525760405162461bcd60e51b815260206004820152602860248201527f4f776e65723a20436f6c6c656374696f6e2063616e6e6f74206265206e756c6c604482015267206164647265737360c01b60648201526084015b60405180910390fd5b6001600160a01b0381166102be5760405162461bcd60e51b815260206004820152602d60248201527f4f776e65723a205472616e736665724d616e616765722063616e6e6f7420626560448201526c206e756c6c206164647265737360981b6064820152608401610249565b6001600160a01b0382811660008181526001602052604080822080546001600160a01b0319169486169485179055517fda166be6ba0ebb71be3f83e7d669765de552ea08978bfe3e3e42d54174111b629190a35050565b61031d6105c9565b6001600160a01b03818116600090815260016020526040902054166103965760405162461bcd60e51b815260206004820152602960248201527f4f776e65723a20436f6c6c656374696f6e20686173206e6f207472616e736665604482015268391036b0b730b3b2b960b91b6064820152608401610249565b6001600160a01b03811660008181526001602052604080822080546001600160a01b0319169055517f8c3bf4babc197f3db0e7ec65aaf23fc0efb0e689436aeea8514c3f01fd97841f9190a250565b6103ed6105c9565b6103f76000610623565b565b6001600160a01b03808216600090815260016020526040902054168061054b576040516301ffc9a760e01b81526380ac58cd60e01b60048201526001600160a01b038316906301ffc9a790602401602060405180830381865afa158015610464573d6000803e3d6000fd5b505050506040513d601f19601f8201168201806040525081019061048891906106df565b156104b457507f0000000000000000000000000000000000000000000000000000000000000000919050565b6040516301ffc9a760e01b8152636cdb3d1360e11b60048201526001600160a01b038316906301ffc9a790602401602060405180830381865afa1580156104ff573d6000803e3d6000fd5b505050506040513d601f19601f8201168201806040525081019061052391906106df565b1561054b57507f00000000000000000000000000000000000000000000000000000000000000005b919050565b6105586105c9565b6001600160a01b0381166105bd5760405162461bcd60e51b815260206004820152602660248201527f4f776e61626c653a206e6577206f776e657220697320746865207a65726f206160448201526564647265737360d01b6064820152608401610249565b6105c681610623565b50565b6000546001600160a01b031633146103f75760405162461bcd60e51b815260206004820181905260248201527f4f776e61626c653a2063616c6c6572206973206e6f7420746865206f776e65726044820152606401610249565b600080546001600160a01b038381166001600160a01b0319831681178455604051919092169283917f8be0079c531659141344cd1fd0a4f28419497f9722a3daafe3b4186f6b6457e09190a35050565b80356001600160a01b038116811461054b57600080fd5b6000806040838503121561069d57600080fd5b6106a683610673565b91506106b460208401610673565b90509250929050565b6000602082840312156106cf57600080fd5b6106d882610673565b9392505050565b6000602082840312156106f157600080fd5b815180151581146106d857600080fdfea2646970667358221220b17920ce8f36e5e52eb8ffd8037a34925756fbf252e7c23ec2f409a9d5ad2a9564736f6c63430008110033",
    "linkReferences": {}
  },
  "methodIdentifiers": {
    "INTERFACE_ID_ERC1155()": "33bf6156",
    "INTERFACE_ID_ERC721()": "bc6bc0cd",
    "TRANSFER_MANAGER_ERC1155()": "38928956",
    "TRANSFER_MANAGER_ERC721()": "b1357ddd",
    "addCollectionTransferManager(address,address)": "25c6a895",
    "checkTransferManagerForToken(address)": "cc159493",
    "owner()": "8da5cb5b",
    "removeCollectionTransferManager(address)": "7053fb79",
    "renounceOwnership()": "715018a6",
    "transferManagerSelectorForCollection(address)": "4216a753",
    "transferOwnership(address)": "f2fde38b"
  },
  "id": 9
}