{
  "abi": [
    {
      "inputs": [
        {
          "internalType": "address",
          "name": "_owner",
          "type": "address"
        },
        {
          "internalType": "address",
          "name": "_protocolFeeRecipient",
          "type": "address"
        },
        {
          "internalType": "address",
          "name": "_transferManager",
          "type": "address"
        }
      ],
      "stateMutability": "nonpayable",
      "type": "constructor"
    },
    {
      "inputs": [],
      "name": "CreatorFeeBpTooHigh",
      "type": "error"
    },
    {
      "inputs": [],
      "name": "LengthsInvalid",
      "type": "error"
    },
    {
      "inputs": [],
      "name": "NewProtocolFeeRecipientCannotBeNullAddress",
      "type": "error"
    },
    {
      "inputs": [],
      "name": "NoOngoingTransferInProgress",
      "type": "error"
    },
    {
      "inputs": [],
      "name": "NoSelectorForStrategy",
      "type": "error"
    },
    {
      "inputs": [],
      "name": "NotAffiliateController",
      "type": "error"
    },
    {
      "inputs": [],
      "name": "NotOwner",
      "type": "error"
    },
    {
      "inputs": [],
      "name": "NotV2Strategy",
      "type": "error"
    },
    {
      "inputs": [],
      "name": "OutsideOfTimeRange",
      "type": "error"
    },
    {
      "inputs": [],
      "name": "PercentageTooHigh",
      "type": "error"
    },
    {
      "inputs": [],
      "name": "ReentrancyFail",
      "type": "error"
    },
    {
      "inputs": [],
      "name": "RenouncementNotInProgress",
      "type": "error"
    },
    {
      "inputs": [],
      "name": "StrategyHasNoSelector",
      "type": "error"
    },
    {
      "inputs": [
        {
          "internalType": "uint256",
          "name": "strategyId",
          "type": "uint256"
        }
      ],
      "name": "StrategyNotAvailable",
      "type": "error"
    },
    {
      "inputs": [],
      "name": "StrategyNotUsed",
      "type": "error"
    },
    {
      "inputs": [],
      "name": "StrategyProtocolFeeTooHigh",
      "type": "error"
    },
    {
      "inputs": [],
      "name": "TransferAlreadyInProgress",
      "type": "error"
    },
    {
      "inputs": [],
      "name": "TransferNotInProgress",
      "type": "error"
    },
    {
      "inputs": [],
      "name": "WrongPotentialOwner",
      "type": "error"
    },
    {
      "anonymous": false,
      "inputs": [],
      "name": "CancelOwnershipTransfer",
      "type": "event"
    },
    {
      "anonymous": false,
      "inputs": [
        {
          "indexed": false,
          "internalType": "address",
          "name": "currency",
          "type": "address"
        },
        {
          "indexed": false,
          "internalType": "bool",
          "name": "isAllowed",
          "type": "bool"
        }
      ],
      "name": "CurrencyStatusUpdated",
      "type": "event"
    },
    {
      "anonymous": false,
      "inputs": [],
      "name": "InitiateOwnershipRenouncement",
      "type": "event"
    },
    {
      "anonymous": false,
      "inputs": [
        {
          "indexed": false,
          "internalType": "address",
          "name": "previousOwner",
          "type": "address"
        },
        {
          "indexed": false,
          "internalType": "address",
          "name": "potentialOwner",
          "type": "address"
        }
      ],
      "name": "InitiateOwnershipTransfer",
      "type": "event"
    },
    {
      "anonymous": false,
      "inputs": [
        {
          "indexed": false,
          "internalType": "address",
          "name": "affiliateController",
          "type": "address"
        }
      ],
      "name": "NewAffiliateController",
      "type": "event"
    },
    {
      "anonymous": false,
      "inputs": [
        {
          "indexed": false,
          "internalType": "bool",
          "name": "isActive",
          "type": "bool"
        }
      ],
      "name": "NewAffiliateProgramStatus",
      "type": "event"
    },
    {
      "anonymous": false,
      "inputs": [
        {
          "indexed": false,
          "internalType": "address",
          "name": "affiliate",
          "type": "address"
        },
        {
          "indexed": false,
          "internalType": "uint256",
          "name": "rate",
          "type": "uint256"
        }
      ],
      "name": "NewAffiliateRate",
      "type": "event"
    },
    {
      "anonymous": false,
      "inputs": [
        {
          "indexed": false,
          "internalType": "address",
          "name": "user",
          "type": "address"
        },
        {
          "indexed": false,
          "internalType": "uint256",
          "name": "bidNonce",
          "type": "uint256"
        },
        {
          "indexed": false,
          "internalType": "uint256",
          "name": "askNonce",
          "type": "uint256"
        }
      ],
      "name": "NewBidAskNonces",
      "type": "event"
    },
    {
      "anonymous": false,
      "inputs": [
        {
          "indexed": false,
          "internalType": "address",
          "name": "creatorFeeManager",
          "type": "address"
        }
      ],
      "name": "NewCreatorFeeManager",
      "type": "event"
    },
    {
      "anonymous": false,
      "inputs": [
        {
          "indexed": false,
          "internalType": "uint256",
          "name": "maxCreatorFeeBp",
          "type": "uint256"
        }
      ],
      "name": "NewMaxCreatorFeeBp",
      "type": "event"
    },
    {
      "anonymous": false,
      "inputs": [
        {
          "indexed": false,
          "internalType": "address",
          "name": "newOwner",
          "type": "address"
        }
      ],
      "name": "NewOwner",
      "type": "event"
    },
    {
      "anonymous": false,
      "inputs": [
        {
          "indexed": false,
          "internalType": "address",
          "name": "protocolFeeRecipient",
          "type": "address"
        }
      ],
      "name": "NewProtocolFeeRecipient",
      "type": "event"
    },
    {
      "anonymous": false,
      "inputs": [
        {
          "indexed": false,
          "internalType": "uint256",
          "name": "strategyId",
          "type": "uint256"
        },
        {
          "indexed": false,
          "internalType": "uint16",
          "name": "standardProtocolFeeBp",
          "type": "uint16"
        },
        {
          "indexed": false,
          "internalType": "uint16",
          "name": "minTotalFeeBp",
          "type": "uint16"
        },
        {
          "indexed": false,
          "internalType": "uint16",
          "name": "maxProtocolFeeBp",
          "type": "uint16"
        },
        {
          "indexed": false,
          "internalType": "bytes4",
          "name": "selector",
          "type": "bytes4"
        },
        {
          "indexed": false,
          "internalType": "bool",
          "name": "isMakerBid",
          "type": "bool"
        },
        {
          "indexed": false,
          "internalType": "address",
          "name": "implementation",
          "type": "address"
        }
      ],
      "name": "NewStrategy",
      "type": "event"
    },
    {
      "anonymous": false,
      "inputs": [
        {
          "indexed": false,
          "internalType": "address",
          "name": "user",
          "type": "address"
        },
        {
          "indexed": false,
          "internalType": "uint256[]",
          "name": "orderNonces",
          "type": "uint256[]"
        }
      ],
      "name": "OrderNoncesCancelled",
      "type": "event"
    },
    {
      "anonymous": false,
      "inputs": [
        {
          "indexed": false,
          "internalType": "uint256",
          "name": "strategyId",
          "type": "uint256"
        },
        {
          "indexed": false,
          "internalType": "bool",
          "name": "isActive",
          "type": "bool"
        },
        {
          "indexed": false,
          "internalType": "uint16",
          "name": "standardProtocolFeeBp",
          "type": "uint16"
        },
        {
          "indexed": false,
          "internalType": "uint16",
          "name": "minTotalFeeBp",
          "type": "uint16"
        }
      ],
      "name": "StrategyUpdated",
      "type": "event"
    },
    {
      "anonymous": false,
      "inputs": [
        {
          "indexed": false,
          "internalType": "address",
          "name": "user",
          "type": "address"
        },
        {
          "indexed": false,
          "internalType": "uint256[]",
          "name": "subsetNonces",
          "type": "uint256[]"
        }
      ],
      "name": "SubsetNoncesCancelled",
      "type": "event"
    },
    {
      "inputs": [],
      "name": "MAGIC_VALUE_ORDER_NONCE_EXECUTED",
      "outputs": [
        {
          "internalType": "bytes32",
          "name": "",
          "type": "bytes32"
        }
      ],
      "stateMutability": "view",
      "type": "function"
    },
    {
      "inputs": [
        {
          "internalType": "uint16",
          "name": "standardProtocolFeeBp",
          "type": "uint16"
        },
        {
          "internalType": "uint16",
          "name": "minTotalFeeBp",
          "type": "uint16"
        },
        {
          "internalType": "uint16",
          "name": "maxProtocolFeeBp",
          "type": "uint16"
        },
        {
          "internalType": "bytes4",
          "name": "selector",
          "type": "bytes4"
        },
        {
          "internalType": "bool",
          "name": "isMakerBid",
          "type": "bool"
        },
        {
          "internalType": "address",
          "name": "implementation",
          "type": "address"
        }
      ],
      "name": "addStrategy",
      "outputs": [],
      "stateMutability": "nonpayable",
      "type": "function"
    },
    {
      "inputs": [],
      "name": "affiliateController",
      "outputs": [
        {
          "internalType": "address",
          "name": "",
          "type": "address"
        }
      ],
      "stateMutability": "view",
      "type": "function"
    },
    {
      "inputs": [
        {
          "internalType": "address",
          "name": "",
          "type": "address"
        }
      ],
      "name": "affiliateRates",
      "outputs": [
        {
          "internalType": "uint256",
          "name": "",
          "type": "uint256"
        }
      ],
      "stateMutability": "view",
      "type": "function"
    },
    {
      "inputs": [
        {
          "internalType": "uint256[]",
          "name": "orderNonces",
          "type": "uint256[]"
        }
      ],
      "name": "cancelOrderNonces",
      "outputs": [],
      "stateMutability": "nonpayable",
      "type": "function"
    },
    {
      "inputs": [],
      "name": "cancelOwnershipTransfer",
      "outputs": [],
      "stateMutability": "nonpayable",
      "type": "function"
    },
    {
      "inputs": [
        {
          "internalType": "uint256[]",
          "name": "subsetNonces",
          "type": "uint256[]"
        }
      ],
      "name": "cancelSubsetNonces",
      "outputs": [],
      "stateMutability": "nonpayable",
      "type": "function"
    },
    {
      "inputs": [],
      "name": "confirmOwnershipRenouncement",
      "outputs": [],
      "stateMutability": "nonpayable",
      "type": "function"
    },
    {
      "inputs": [],
      "name": "confirmOwnershipTransfer",
      "outputs": [],
      "stateMutability": "nonpayable",
      "type": "function"
    },
    {
      "inputs": [],
      "name": "creatorFeeManager",
      "outputs": [
        {
          "internalType": "contract ICreatorFeeManager",
          "name": "",
          "type": "address"
        }
      ],
      "stateMutability": "view",
      "type": "function"
    },
    {
      "inputs": [
        {
          "internalType": "bool",
          "name": "bid",
          "type": "bool"
        },
        {
          "internalType": "bool",
          "name": "ask",
          "type": "bool"
        }
      ],
      "name": "incrementBidAskNonces",
      "outputs": [],
      "stateMutability": "nonpayable",
      "type": "function"
    },
    {
      "inputs": [],
      "name": "initiateOwnershipRenouncement",
      "outputs": [],
      "stateMutability": "nonpayable",
      "type": "function"
    },
    {
      "inputs": [
        {
          "internalType": "address",
          "name": "newPotentialOwner",
          "type": "address"
        }
      ],
      "name": "initiateOwnershipTransfer",
      "outputs": [],
      "stateMutability": "nonpayable",
      "type": "function"
    },
    {
      "inputs": [],
      "name": "isAffiliateProgramActive",
      "outputs": [
        {
          "internalType": "bool",
          "name": "",
          "type": "bool"
        }
      ],
      "stateMutability": "view",
      "type": "function"
    },
    {
      "inputs": [
        {
          "internalType": "address",
          "name": "",
          "type": "address"
        }
      ],
      "name": "isCurrencyAllowed",
      "outputs": [
        {
          "internalType": "bool",
          "name": "",
          "type": "bool"
        }
      ],
      "stateMutability": "view",
      "type": "function"
    },
    {
      "inputs": [],
      "name": "maxCreatorFeeBp",
      "outputs": [
        {
          "internalType": "uint16",
          "name": "",
          "type": "uint16"
        }
      ],
      "stateMutability": "view",
      "type": "function"
    },
    {
      "inputs": [],
      "name": "owner",
      "outputs": [
        {
          "internalType": "address",
          "name": "",
          "type": "address"
        }
      ],
      "stateMutability": "view",
      "type": "function"
    },
    {
      "inputs": [],
      "name": "ownershipStatus",
      "outputs": [
        {
          "internalType": "enum IOwnableTwoSteps.Status",
          "name": "",
          "type": "uint8"
        }
      ],
      "stateMutability": "view",
      "type": "function"
    },
    {
      "inputs": [],
      "name": "potentialOwner",
      "outputs": [
        {
          "internalType": "address",
          "name": "",
          "type": "address"
        }
      ],
      "stateMutability": "view",
      "type": "function"
    },
    {
      "inputs": [],
      "name": "protocolFeeRecipient",
      "outputs": [
        {
          "internalType": "address",
          "name": "",
          "type": "address"
        }
      ],
      "stateMutability": "view",
      "type": "function"
    },
    {
      "inputs": [
        {
          "internalType": "uint256",
          "name": "",
          "type": "uint256"
        }
      ],
      "name": "strategyInfo",
      "outputs": [
        {
          "internalType": "bool",
          "name": "isActive",
          "type": "bool"
        },
        {
          "internalType": "uint16",
          "name": "standardProtocolFeeBp",
          "type": "uint16"
        },
        {
          "internalType": "uint16",
          "name": "minTotalFeeBp",
          "type": "uint16"
        },
        {
          "internalType": "uint16",
          "name": "maxProtocolFeeBp",
          "type": "uint16"
        },
        {
          "internalType": "bytes4",
          "name": "selector",
          "type": "bytes4"
        },
        {
          "internalType": "bool",
          "name": "isMakerBid",
          "type": "bool"
        },
        {
          "internalType": "address",
          "name": "implementation",
          "type": "address"
        }
      ],
      "stateMutability": "view",
      "type": "function"
    },
    {
      "inputs": [],
      "name": "transferManager",
      "outputs": [
        {
          "internalType": "contract TransferManager",
          "name": "",
          "type": "address"
        }
      ],
      "stateMutability": "view",
      "type": "function"
    },
    {
      "inputs": [
        {
          "internalType": "address",
          "name": "newAffiliateController",
          "type": "address"
        }
      ],
      "name": "updateAffiliateController",
      "outputs": [],
      "stateMutability": "nonpayable",
      "type": "function"
    },
    {
      "inputs": [
        {
          "internalType": "bool",
          "name": "isActive",
          "type": "bool"
        }
      ],
      "name": "updateAffiliateProgramStatus",
      "outputs": [],
      "stateMutability": "nonpayable",
      "type": "function"
    },
    {
      "inputs": [
        {
          "internalType": "address",
          "name": "affiliate",
          "type": "address"
        },
        {
          "internalType": "uint256",
          "name": "bp",
          "type": "uint256"
        }
      ],
      "name": "updateAffiliateRate",
      "outputs": [],
      "stateMutability": "nonpayable",
      "type": "function"
    },
    {
      "inputs": [
        {
          "internalType": "address",
          "name": "newCreatorFeeManager",
          "type": "address"
        }
      ],
      "name": "updateCreatorFeeManager",
      "outputs": [],
      "stateMutability": "nonpayable",
      "type": "function"
    },
    {
      "inputs": [
        {
          "internalType": "address",
          "name": "currency",
          "type": "address"
        },
        {
          "internalType": "bool",
          "name": "isAllowed",
          "type": "bool"
        }
      ],
      "name": "updateCurrencyStatus",
      "outputs": [],
      "stateMutability": "nonpayable",
      "type": "function"
    },
    {
      "inputs": [
        {
          "internalType": "uint16",
          "name": "newMaxCreatorFeeBp",
          "type": "uint16"
        }
      ],
      "name": "updateMaxCreatorFeeBp",
      "outputs": [],
      "stateMutability": "nonpayable",
      "type": "function"
    },
    {
      "inputs": [
        {
          "internalType": "address",
          "name": "newProtocolFeeRecipient",
          "type": "address"
        }
      ],
      "name": "updateProtocolFeeRecipient",
      "outputs": [],
      "stateMutability": "nonpayable",
      "type": "function"
    },
    {
      "inputs": [
        {
          "internalType": "uint256",
          "name": "strategyId",
          "type": "uint256"
        },
        {
          "internalType": "bool",
          "name": "isActive",
          "type": "bool"
        },
        {
          "internalType": "uint16",
          "name": "newStandardProtocolFee",
          "type": "uint16"
        },
        {
          "internalType": "uint16",
          "name": "newMinTotalFee",
          "type": "uint16"
        }
      ],
      "name": "updateStrategy",
      "outputs": [],
      "stateMutability": "nonpayable",
      "type": "function"
    },
    {
      "inputs": [
        {
          "internalType": "address",
          "name": "",
          "type": "address"
        }
      ],
      "name": "userBidAskNonces",
      "outputs": [
        {
          "internalType": "uint256",
          "name": "bidNonce",
          "type": "uint256"
        },
        {
          "internalType": "uint256",
          "name": "askNonce",
          "type": "uint256"
        }
      ],
      "stateMutability": "view",
      "type": "function"
    },
    {
      "inputs": [
        {
          "internalType": "address",
          "name": "",
          "type": "address"
        },
        {
          "internalType": "uint256",
          "name": "",
          "type": "uint256"
        }
      ],
      "name": "userOrderNonce",
      "outputs": [
        {
          "internalType": "bytes32",
          "name": "",
          "type": "bytes32"
        }
      ],
      "stateMutability": "view",
      "type": "function"
    },
    {
      "inputs": [
        {
          "internalType": "address",
          "name": "",
          "type": "address"
        },
        {
          "internalType": "uint256",
          "name": "",
          "type": "uint256"
        }
      ],
      "name": "userSubsetNonce",
      "outputs": [
        {
          "internalType": "bool",
          "name": "",
          "type": "bool"
        }
      ],
      "stateMutability": "view",
      "type": "function"
    }
  ],
  "bytecode": {
    "object": "0x60a03461026b57601f6200162e38819003918201601f1916830192916001600160401b03918285118486101761025557816060928592604097885283398101031261026b5761004d82610270565b9160209061006785610060848401610270565b9201610270565b600380546001600160a01b0319166001600160a01b0396871690811790915586519081529093907f3edd90e7770f06fafde38004653b33870066c33bfc923ff6102acd601f85dfbc908490a1600160085585519060e082019081118282101761025557865260018152828101906032825286810160328152606082019260c88452608083019360009485815260a085019186835260c086019387855287805260098a528c88209651151560ff16905160081b62ffff0016955160181b64ffff00000016915160281b66ffff000000000016925160a81c6affffffff00000000000000169351151560581b6bff00000000000000000000001694600160601b6001900319905160601b1695171717171717905585519080825283820160329052868201603290526060820160c890528060808301528060a083015260c082015260e07f5290475107686ff8d28cd104943b127d453b23622ac55346373fa25c0c8957a291a183600a549116908115610244576001600160b01b0319168117607d60a31b17600a5584519081527f8cffb07faa2874440346743bdc0a86b06c3335cc47dc49b327d10e77b73ceb109190a1600b805460ff60a01b1916600160a01b17905516608052516113a9908162000285823960805181610df50152f35b8551630f966bcb60e41b8152600490fd5b634e487b7160e01b600052604160045260246000fd5b600080fd5b51906001600160a01b038216820361026b5756fe608060408181526004918236101561001657600080fd5b600092833560e01c918263134849a61461118c575081631d3c42681461110b5781631df47f801461108957816320cd05c71461104857816323452b9c14610fb65781632bb5a9e614610f755781633e56753914610eed578163463357ec14610eb257816346b625bc14610e2457816346ea255214610de05781634cbac9dc14610db75781635487887614610d485781635a195d1914610d0a5781635b6ac01114610c7f57816364df049e14610c5657816367d9dd7914610c2d5781636e90c01414610c075781637200b82914610b425781637762df2514610b1a57816379ed31d414610a675781637a7d885114610a2f578163838b8f5c14610a065781638da5cb5b146109dd57816391be1360146106d5578163a02bab5714610666578163a39bf29f14610625578163ae1cce5a14610589578163b647a4041461051a578163bb91c339146104a1578163c0b6f561146103eb578163d5a06adf146102b4578163d5b010f5146101d9575063ea179b761461019057600080fd5b346101d557806003193601126101d55760209160ff9082906001600160a01b036101b8611274565b168152600285528181206024358252855220541690519015158152f35b5080fd5b8383346101d557806003193601126101d5576101f3611299565b6101fb61128a565b9160001943014381116102a157917fb738dd6073fae1a7128e3fcc6b4ca6e1356b7232f87cc98f8a2857bcd83dfc4493916060934060801c3387528660205281872054936001838920015493610284575b610264575b508051923384526020840152820152a180f35b61026e919261132a565b9033865285602052816001828820015586610251565b938161028f9161132a565b9333885287602052848389205561024c565b634e487b7160e01b855260118652602485fd5b9050346103e75760803660031901126103e7578035916102d261128a565b6102da6112b9565b6064359161ffff92838116958682036103e3576102f561134d565b6008548810156103d557878952600960205284868a205460281c16871180156103ca575b6103bc57509160809593916103a28896947f3b25bf77fa688236b850bf89c87e353098688237aa18dc42593aff0f6387aea9998b52600960205261036b83878d209060ff801983541691151516179055565b858b20805462ffff001916600886901b62ffff0016179055858b209064ffff00000082549160181b169064ffff0000001916179055565b83519586521515602086015216908301526060820152a180f35b855163b704b7c160e01b8152fd5b508685851611610319565b855163bd7056c760e01b8152fd5b8880fd5b8280fd5b8383346101d55760203660031901126101d557610406611274565b61040e61134d565b83549060ff8260a01c16600381101561048e5761047e576001600160a81b03199091166001600160a01b03909116908117600160a01b179093558051338152602081019390935290917fb86c75c9bffca616b2d314cc914f7c3f1d174255b16b941c3f3ededee276d5ef9190a180f35b8251633a76bcd760e11b81528590fd5b634e487b7160e01b855260218652602485fd5b9050346103e75760203660031901126103e75760e09282913581526009602052205481519160ff82161515835261ffff90818360081c166020850152818360181c16908401528160281c16606083015263ffffffff831b8160a81b16608083015260ff8160581c16151560a083015260601c60c0820152f35b5050346101d55760203660031901126101d55760207fa7014d98341b07b23615cb6b4da7cca2a381932b46fb39ca4b8c3875c53aa76491610559611274565b61056161134d565b600b80546001600160a01b0319166001600160a01b039290921691821790559051908152a180f35b8383346101d557806003193601126101d5576105a3611274565b600554602435916001600160a01b039182163303610615576127108311610605577fa16126d9473196242b0784325b30642b89f34442dd178a852f5b88ee483a30d894955016908185526006602052808386205582519182526020820152a180f35b8351632242dac960e01b81528690fd5b8351639f63004360e01b81528690fd5b5050346101d55760203660031901126101d5579081906001600160a01b0361064b611274565b16815280602052206001815491015482519182526020820152f35b5050346101d55760203660031901126101d55760207fa92d85531a006d07fd0df4c61259b6dc18e4f492857e2454e5a20ee5e55cddcc916106a5611274565b6106ad61134d565b600580546001600160a01b0319166001600160a01b039290921691821790559051908152a180f35b8383346101d55760c03660031901126101d5576106f06112a8565b6024359161ffff928381168091036109d95761070a6112b9565b926064359163ffffffff60e01b83168093036109d557608435938415158095036109d15760a4356001600160a01b03811696908790036103e357879061074e61134d565b169283831180156109c6575b80156109bb575b6109ab57841561099b5781516345b2b38160e01b81526020989089818d818c5afa908115610991578b9161092c575b501561091c5782519160e0830183811067ffffffffffffffff82111761090957888784888f968f9897968f968e988c91825260018b52838c8c0193169b8c8452828c0195865260608c0197885260808c019a8b5260a08c0198895260c08c01998a526008548252600990522098511515610816908a9060ff801983541691151516179055565b51885462ffff001916911660081b62ffff001617875551865464ffff0000001916911660181b64ffff0000001617855551928454905160a81c6affffffff00000000000000169160ff60581b9051151560581b16926bffffffffffffffffffffffff19905160601b169360281b66ffff0000000000169064ffffffffff161717171790556008549760001989146108f6576001890160085582519889528801528601526060850152608084015260a083015260c08201527f5290475107686ff8d28cd104943b127d453b23622ac55346373fa25c0c8957a29060e090a180f35b634e487b7160e01b8a5260118b5260248afd5b634e487b7160e01b8c5260418d5260248cfd5b825163ef8c37d760e01b81528b90fd5b9050893d8b1161098a575b601f8101601f1916820167ffffffffffffffff811183821017610976578b91839187528101031261097257518015158103610972578c610790565b8a80fd5b50634e487b7160e01b8c5260418d5260248cfd5b503d610937565b84513d8d823e3d90fd5b8151636168384960e11b81528a90fd5b815163b704b7c160e01b81528a90fd5b506101f48411610761565b50828882161161075a565b8780fd5b8680fd5b8480fd5b5050346101d557816003193601126101d55760035490516001600160a01b039091168152602090f35b5050346101d557816003193601126101d557600b5490516001600160a01b039091168152602090f35b5050346101d55760203660031901126101d55760209181906001600160a01b03610a57611274565b1681526006845220549051908152f35b9050346103e757610a7736611222565b9290918315610b0c5750835b838110610ac3575090610abd7f0560c6093fba8a508d0e6ea3b4d7260d7afa9b152731f03a2d05dfe39b0ec42593925192839233846112f0565b0390a180f35b338552600190602082815283872090610add8388886112ca565b358852527f53849a1acec87308423850dccd979fc7a4b74b75a79b19c3b98ec8df38a599db8387205501610a83565b90516397983bdb60e01b8152fd5b9050346103e757826003193601126103e7575490516001600160a01b03909116815260209150f35b9050346103e757826003193601126103e757805460ff8160a01c166003811015610bf457600103610be5576001600160a01b0381163303610bd657916020917f3edd90e7770f06fafde38004653b33870066c33bfc923ff6102acd601f85dfbc93336bffffffffffffffffffffffff60a01b60035416176003556affffffffffffffffffffff60a81b16905551338152a180f35b5090516357ee7dc960e11b8152fd5b509051632f27941360e11b8152fd5b634e487b7160e01b855260218352602485fd5b5050346101d557816003193601126101d55760209061ffff600a5460a01c169051908152f35b828434610c535780600319360112610c53575060ff6020925460a81c1690519015158152f35b80fd5b5050346101d557816003193601126101d557600a5490516001600160a01b039091168152602090f35b919050346103e757826003193601126103e757610c9a61134d565b81549060ff8260a01c166003811015610cf757610ce8575060ff60a01b1916600160a11b1790557f3ff05a45e46337fa1cbf20996d2eeb927280bce099f37252bcca1040609604ec8180a180f35b51633a76bcd760e11b81529050fd5b634e487b7160e01b855260218452602485fd5b5050346101d55760203660031901126101d55760209160ff9082906001600160a01b03610d35611274565b1681526007855220541690519015158152f35b919050346103e75760203660031901126103e7577fdca612ba3556b7c2603089071be1feb2404df55dcabceee9d5fd852fdb39bc3491602091610d89611299565b610d9161134d565b825460ff60a81b191690151560a881901b60ff60a81b169190911790925551908152a180f35b5050346101d557816003193601126101d55760055490516001600160a01b039091168152602090f35b5050346101d557816003193601126101d557517f00000000000000000000000000000000000000000000000000000000000000006001600160a01b03168152602090f35b919050346103e75760203660031901126103e757610e406112a8565b610e4861134d565b61ffff8116926109c48411610ea45750600a805461ffff60a01b191660a09290921b61ffff60a01b16919091179055519081527fcaba16bb74e50491b14ebf4755083b43aaf56a765134681af613a2ef8d732f4f90602090a180f35b82516397d7dcfb60e01b8152fd5b5050346101d557816003193601126101d557602090517f53849a1acec87308423850dccd979fc7a4b74b75a79b19c3b98ec8df38a599db8152f35b9050346103e757826003193601126103e757610f0761134d565b805460ff8160a01c166003811015610bf457600203610f6657600380546001600160a01b031916905560ff60a01b19169055518181527f3edd90e7770f06fafde38004653b33870066c33bfc923ff6102acd601f85dfbc90602090a180f35b50905163022e289160e11b8152fd5b8383346101d557816003193601126101d55760ff835460a01c169051916003821015610fa357602083838152f35b634e487b7160e01b815260218452602490fd5b919050346103e757826003193601126103e757610fd161134d565b81549060ff8260a01c16906003821015610cf75781156110395750600114611027575b50805460ff60a01b191690557f8eca980489e87f7dba4f26917aa4bfc906eb3f2b4f7b4b9fd0ff2b8bb3e21ae38180a180f35b6001600160a01b031916815538610ff4565b5163ccf69db760e01b81528390fd5b5050346101d557806003193601126101d55760209181906001600160a01b0361106f611274565b168152600184528181206024358252845220549051908152f35b919050346103e75760203660031901126103e7576110a5611274565b6110ad61134d565b6001600160a01b03169182156110fd5750600a80546001600160a01b03191683179055519081527f8cffb07faa2874440346743bdc0a86b06c3335cc47dc49b327d10e77b73ceb1090602090a180f35b9051630f966bcb60e41b8152fd5b5050346101d557806003193601126101d5577fba28eda47a2e15b1dd3269e6d82f66730d20a5661aa40e9faf9f311c7872a54390611147611274565b61114f61128a565b9061115861134d565b6001600160a01b03168085526007602052828520805460ff191660ff8415151617905590825191825215156020820152a180f35b849250346103e75761119d36611222565b9290918315611216575050825b8281106111e35750610abd7fe8036d6fb143373f3ff63e551373f5fffe4267f6809bf6d3934014a18a9b38f693945192839233846112f0565b338452602060028152858520906111fb8386866112ca565b35865252848420805460ff19166001908117909155016111aa565b6397983bdb60e01b8152fd5b90602060031983011261126f5760043567ffffffffffffffff9283821161126f578060238301121561126f57816004013593841161126f5760248460051b8301011161126f576024019190565b600080fd5b600435906001600160a01b038216820361126f57565b60243590811515820361126f57565b60043590811515820361126f57565b6004359061ffff8216820361126f57565b6044359061ffff8216820361126f57565b91908110156112da5760051b0190565b634e487b7160e01b600052603260045260246000fd5b6001600160a01b03909116815260406020820181905281018390526001600160fb1b03831161126f5760609260051b809284830137010190565b9190820180921161133757565b634e487b7160e01b600052601160045260246000fd5b6003546001600160a01b0316330361136157565b6040516330cd747160e01b8152600490fdfea2646970667358221220d3e451855c1abf0be9185f5ecdc15caf027bba84a3ff288875c5cf3c8fd5670d64736f6c63430008110033",
    "linkReferences": {}
  },
  "methodIdentifiers": {
    "MAGIC_VALUE_ORDER_NONCE_EXECUTED()": "463357ec",
    "addStrategy(uint16,uint16,uint16,bytes4,bool,address)": "91be1360",
    "affiliateController()": "4cbac9dc",
    "affiliateRates(address)": "7a7d8851",
    "cancelOrderNonces(uint256[])": "79ed31d4",
    "cancelOwnershipTransfer()": "23452b9c",
    "cancelSubsetNonces(uint256[])": "134849a6",
    "confirmOwnershipRenouncement()": "3e567539",
    "confirmOwnershipTransfer()": "7200b829",
    "creatorFeeManager()": "838b8f5c",
    "incrementBidAskNonces(bool,bool)": "d5b010f5",
    "initiateOwnershipRenouncement()": "5b6ac011",
    "initiateOwnershipTransfer(address)": "c0b6f561",
    "isAffiliateProgramActive()": "67d9dd79",
    "isCurrencyAllowed(address)": "5a195d19",
    "maxCreatorFeeBp()": "6e90c014",
    "owner()": "8da5cb5b",
    "ownershipStatus()": "2bb5a9e6",
    "potentialOwner()": "7762df25",
    "protocolFeeRecipient()": "64df049e",
    "strategyInfo(uint256)": "bb91c339",
    "transferManager()": "46ea2552",
    "updateAffiliateController(address)": "a02bab57",
    "updateAffiliateProgramStatus(bool)": "54878876",
    "updateAffiliateRate(address,uint256)": "ae1cce5a",
    "updateCreatorFeeManager(address)": "b647a404",
    "updateCurrencyStatus(address,bool)": "1d3c4268",
    "updateMaxCreatorFeeBp(uint16)": "46b625bc",
    "updateProtocolFeeRecipient(address)": "1df47f80",
    "updateStrategy(uint256,bool,uint16,uint16)": "d5a06adf",
    "userBidAskNonces(address)": "a39bf29f",
    "userOrderNonce(address,uint256)": "20cd05c7",
    "userSubsetNonce(address,uint256)": "ea179b76"
  },
  "id": 21
}