{
  "abi": [
    {
      "inputs": [],
      "stateMutability": "nonpayable",
      "type": "constructor"
    },
    {
      "anonymous": false,
      "inputs": [
        {
          "indexed": true,
          "internalType": "address",
          "name": "previousOwner",
          "type": "address"
        },
        {
          "indexed": true,
          "internalType": "address",
          "name": "newOwner",
          "type": "address"
        }
      ],
      "name": "OwnershipTransferred",
      "type": "event"
    },
    {
      "inputs": [],
      "name": "INTERFACE_ID_ERC2981",
      "outputs": [
        {
          "internalType": "bytes4",
          "name": "",
          "type": "bytes4"
        }
      ],
      "stateMutability": "view",
      "type": "function"
    },
    {
      "inputs": [
        {
          "internalType": "address",
          "name": "collection",
          "type": "address"
        },
        {
          "internalType": "uint256",
          "name": "tokenId",
          "type": "uint256"
        },
        {
          "internalType": "uint256",
          "name": "amount",
          "type": "uint256"
        },
        {
          "internalType": "bytes",
          "name": "royaltyInfo",
          "type": "bytes"
        }
      ],
      "name": "calculateRoyaltyFeeAndGetRecipient",
      "outputs": [
        {
          "internalType": "address",
          "name": "",
          "type": "address"
        },
        {
          "internalType": "uint256",
          "name": "",
          "type": "uint256"
        }
      ],
      "stateMutability": "view",
      "type": "function"
    },
    {
      "inputs": [],
      "name": "owner",
      "outputs": [
        {
          "internalType": "address",
          "name": "",
          "type": "address"
        }
      ],
      "stateMutability": "view",
      "type": "function"
    },
    {
      "inputs": [],
      "name": "renounceOwnership",
      "outputs": [],
      "stateMutability": "nonpayable",
      "type": "function"
    },
    {
      "inputs": [
        {
          "internalType": "address",
          "name": "newOwner",
          "type": "address"
        }
      ],
      "name": "transferOwnership",
      "outputs": [],
      "stateMutability": "nonpayable",
      "type": "function"
    }
  ],
  "bytecode": {
    "object": "0x6080806040523461005b5760008054336001600160a01b0319821681178355916001600160a01b03909116907f8be0079c531659141344cd1fd0a4f28419497f9722a3daafe3b4186f6b6457e09080a36104ea90816100618239f35b600080fdfe6080604081815260048036101561001557600080fd5b600092833560e01c9081634137ca9b146101d257508063715018a6146101715780638da5cb5b14610149578063b060dd86146101235763f2fde38b1461005a57600080fd5b3461011f57602036600319011261011f57610073610416565b83546001600160a01b0380821693919261008e338614610469565b169384156100cd5750506001600160a01b031916821783557f8be0079c531659141344cd1fd0a4f28419497f9722a3daafe3b4186f6b6457e08380a380f35b906020608492519162461bcd60e51b8352820152602660248201527f4f776e61626c653a206e6577206f776e657220697320746865207a65726f206160448201526564647265737360d01b6064820152fd5b8280fd5b5050346101455781600319360112610145575163152a902d60e11b8152602090f35b5080fd5b505034610145578160031936011261014557905490516001600160a01b039091168152602090f35b83346101cf57806003193601126101cf57805481906001600160a01b0381169061019c338314610469565b6001600160a01b03191682557f8be0079c531659141344cd1fd0a4f28419497f9722a3daafe3b4186f6b6457e08280a380f35b80fd5b9184915034610145576080366003190112610145576101ef610416565b92604435926064359067ffffffffffffffff938483116101455736602384011215610145578281013594851161040357602094610235601f8201601f1916870186610431565b80855285850190602494368683830101116103ff57818592878a9301853787010152888580518101031261011f57516001600160a01b0380821697909590918890036103fb57890151969787891580156103f3575b156103c1575089516301ffc9a760e01b815263152a902d60e11b84820181905292918716919088818881865afa9081156103b757908c95949392918791610371575b506102e5575b505050505050505b845193168352820152f35b909192949699508360449496995051988995869485528135908501528301525afa9081156103665780938192610326575b50509192858086818080806102d2565b86809295508193503d831161035f575b6103408183610431565b8101031261011f5780519284841684036101cf57508101518580610316565b503d610336565b8551903d90823e3d90fd5b809293949596508a8092503d83116103b0575b61038e8183610431565b810103126103ac575180151581036103ac57908b949392918d6102cc565b8580fd5b503d610384565b8c513d88823e3d90fd5b959750508481029481860414901517156103e3575050506127109004916102da565b634e487b7160e01b825260119052fd5b50801561028a565b8380fd5b8480fd5b634e487b7160e01b825260419052602490fd5b600435906001600160a01b038216820361042c57565b600080fd5b90601f8019910116810190811067ffffffffffffffff82111761045357604052565b634e487b7160e01b600052604160045260246000fd5b1561047057565b606460405162461bcd60e51b815260206004820152602060248201527f4f776e61626c653a2063616c6c6572206973206e6f7420746865206f776e65726044820152fdfea264697066735822122050b5b67c229b5831b2786c34c1a64cda1e48870ccdccb1ccc22f2ab3f3c55b1a64736f6c63430008110033",
    "linkReferences": {}
  },
  "methodIdentifiers": {
    "INTERFACE_ID_ERC2981()": "b060dd86",
    "calculateRoyaltyFeeAndGetRecipient(address,uint256,uint256,bytes)": "4137ca9b",
    "owner()": "8da5cb5b",
    "renounceOwnership()": "715018a6",
    "transferOwnership(address)": "f2fde38b"
  },
  "id": 17
}