{
  "abi": [
    {
      "inputs": [],
      "stateMutability": "nonpayable",
      "type": "constructor"
    },
    {
      "anonymous": false,
      "inputs": [
        {
          "indexed": true,
          "internalType": "address",
          "name": "previousOwner",
          "type": "address"
        },
        {
          "indexed": true,
          "internalType": "address",
          "name": "newOwner",
          "type": "address"
        }
      ],
      "name": "OwnershipTransferred",
      "type": "event"
    },
    {
      "inputs": [],
      "name": "INTERFACE_ID_ERC2981",
      "outputs": [
        {
          "internalType": "bytes4",
          "name": "",
          "type": "bytes4"
        }
      ],
      "stateMutability": "view",
      "type": "function"
    },
    {
      "inputs": [
        {
          "internalType": "address",
          "name": "collection",
          "type": "address"
        },
        {
          "internalType": "uint256",
          "name": "tokenId",
          "type": "uint256"
        },
        {
          "internalType": "uint256",
          "name": "amount",
          "type": "uint256"
        },
        {
          "internalType": "bytes",
          "name": "royaltyInfo",
          "type": "bytes"
        }
      ],
      "name": "calculateRoyaltyFeeAndGetRecipient",
      "outputs": [
        {
          "internalType": "address",
          "name": "",
          "type": "address"
        },
        {
          "internalType": "uint256",
          "name": "",
          "type": "uint256"
        }
      ],
      "stateMutability": "view",
      "type": "function"
    },
    {
      "inputs": [],
      "name": "owner",
      "outputs": [
        {
          "internalType": "address",
          "name": "",
          "type": "address"
        }
      ],
      "stateMutability": "view",
      "type": "function"
    },
    {
      "inputs": [],
      "name": "renounceOwnership",
      "outputs": [],
      "stateMutability": "nonpayable",
      "type": "function"
    },
    {
      "inputs": [
        {
          "internalType": "address",
          "name": "newOwner",
          "type": "address"
        }
      ],
      "name": "transferOwnership",
      "outputs": [],
      "stateMutability": "nonpayable",
      "type": "function"
    }
  ],
  "bytecode": {
    "object": "0x608060405234801561001057600080fd5b5061001a3361001f565b61006f565b600080546001600160a01b038381166001600160a01b0319831681178455604051919092169283917f8be0079c531659141344cd1fd0a4f28419497f9722a3daafe3b4186f6b6457e09190a35050565b6105748061007e6000396000f3fe608060405234801561001057600080fd5b50600436106100575760003560e01c80634137ca9b1461005c578063715018a6146100935780638da5cb5b1461009d578063b060dd86146100b8578063f2fde38b146100df575b600080fd5b61006f61006a3660046103a6565b6100f2565b604080516001600160a01b0390931683526020830191909152015b60405180910390f35b61009b61023f565b005b6000546040516001600160a01b03909116815260200161008a565b6100c663152a902d60e11b81565b6040516001600160e01b0319909116815260200161008a565b61009b6100ed36600461047d565b610253565b6000806000808480602001905181019061010c91906104a1565b90925090506001600160a01b0382161580610125575080155b15610218576040516301ffc9a760e01b815263152a902d60e11b60048201526001600160a01b038916906301ffc9a790602401602060405180830381865afa158015610175573d6000803e3d6000fd5b505050506040513d601f19601f8201168201806040525081019061019991906104cf565b156102135760405163152a902d60e11b815260048101889052602481018790526001600160a01b03891690632a55205a906044016040805180830381865afa1580156101e9573d6000803e3d6000fd5b505050506040513d601f19601f8201168201806040525081019061020d91906104a1565b90925090505b610232565b61271061022582886104f1565b61022f919061051c565b90505b9097909650945050505050565b6102476102d1565b610251600061032b565b565b61025b6102d1565b6001600160a01b0381166102c55760405162461bcd60e51b815260206004820152602660248201527f4f776e61626c653a206e6577206f776e657220697320746865207a65726f206160448201526564647265737360d01b60648201526084015b60405180910390fd5b6102ce8161032b565b50565b6000546001600160a01b031633146102515760405162461bcd60e51b815260206004820181905260248201527f4f776e61626c653a2063616c6c6572206973206e6f7420746865206f776e657260448201526064016102bc565b600080546001600160a01b038381166001600160a01b0319831681178455604051919092169283917f8be0079c531659141344cd1fd0a4f28419497f9722a3daafe3b4186f6b6457e09190a35050565b6001600160a01b03811681146102ce57600080fd5b634e487b7160e01b600052604160045260246000fd5b600080600080608085870312156103bc57600080fd5b84356103c78161037b565b93506020850135925060408501359150606085013567ffffffffffffffff808211156103f257600080fd5b818701915087601f83011261040657600080fd5b81358181111561041857610418610390565b604051601f8201601f19908116603f0116810190838211818310171561044057610440610390565b816040528281528a602084870101111561045957600080fd5b82602086016020830137600060208483010152809550505050505092959194509250565b60006020828403121561048f57600080fd5b813561049a8161037b565b9392505050565b600080604083850312156104b457600080fd5b82516104bf8161037b565b6020939093015192949293505050565b6000602082840312156104e157600080fd5b8151801515811461049a57600080fd5b808202811582820484141761051657634e487b7160e01b600052601160045260246000fd5b92915050565b60008261053957634e487b7160e01b600052601260045260246000fd5b50049056fea26469706673582212205266aaaef83dd2f2349912361c10f036505c42b11b9a343b4f5d56983e6ff65164736f6c63430008110033",
    "linkReferences": {}
  },
  "methodIdentifiers": {
    "INTERFACE_ID_ERC2981()": "b060dd86",
    "calculateRoyaltyFeeAndGetRecipient(address,uint256,uint256,bytes)": "4137ca9b",
    "owner()": "8da5cb5b",
    "renounceOwnership()": "715018a6",
    "transferOwnership(address)": "f2fde38b"
  },
  "id": 7
}