{
  "abi": [
    {
      "inputs": [],
      "stateMutability": "nonpayable",
      "type": "constructor"
    },
    {
      "inputs": [
        {
          "internalType": "address",
          "name": "collection",
          "type": "address"
        },
        {
          "internalType": "address",
          "name": "from",
          "type": "address"
        },
        {
          "internalType": "address",
          "name": "to",
          "type": "address"
        },
        {
          "internalType": "uint256",
          "name": "tokenId",
          "type": "uint256"
        },
        {
          "internalType": "uint256",
          "name": "amount",
          "type": "uint256"
        }
      ],
      "name": "transferNFT",
      "outputs": [],
      "stateMutability": "nonpayable",
      "type": "function"
    }
  ],
  "bytecode": {
    "object": "0x6080806040523461001657610129908161001c8239f35b600080fdfe6080806040526004361015601257600080fd5b600090813560e01c63c4d6866f14602857600080fd5b3460ef5760a036600319011260ef57816001600160a01b036004358181169081900360eb576024359180831680930360e75760443590811680910360e757813b1560e7578360c4928694928593637921219560e11b8552600485015260248401526064356044840152608435606484015260a060848401528160a48401525af1801560dc5760b4575080f35b67ffffffffffffffff811160c85760405280f35b634e487b7160e01b82526041600452602482fd5b6040513d84823e3d90fd5b8380fd5b8280fd5b5080fdfea264697066735822122033db942882eb2241269cf715db9fcea0f8df42bc07caded780b62a1f9f65381d64736f6c63430008110033",
    "linkReferences": {}
  },
  "methodIdentifiers": {
    "transferNFT(address,address,address,uint256,uint256)": "c4d6866f"
  },
  "id": 177
}