{
  "abi": [
    {
      "inputs": [
        {
          "internalType": "address",
          "name": "_looksRareToken",
          "type": "address"
        },
        {
          "internalType": "address",
          "name": "_tokenSplitter",
          "type": "address"
        },
        {
          "internalType": "uint256",
          "name": "_startBlock",
          "type": "uint256"
        },
        {
          "internalType": "uint256[]",
          "name": "_rewardsPerBlockForStaking",
          "type": "uint256[]"
        },
        {
          "internalType": "uint256[]",
          "name": "_rewardsPerBlockForOthers",
          "type": "uint256[]"
        },
        {
          "internalType": "uint256[]",
          "name": "_periodLengthesInBlocks",
          "type": "uint256[]"
        },
        {
          "internalType": "uint256",
          "name": "_numberPeriods",
          "type": "uint256"
        }
      ],
      "stateMutability": "nonpayable",
      "type": "constructor"
    },
    {
      "anonymous": false,
      "inputs": [
        {
          "indexed": true,
          "internalType": "address",
          "name": "user",
          "type": "address"
        },
        {
          "indexed": false,
          "internalType": "uint256",
          "name": "harvestedAmount",
          "type": "uint256"
        }
      ],
      "name": "Compound",
      "type": "event"
    },
    {
      "anonymous": false,
      "inputs": [
        {
          "indexed": true,
          "internalType": "address",
          "name": "user",
          "type": "address"
        },
        {
          "indexed": false,
          "internalType": "uint256",
          "name": "amount",
          "type": "uint256"
        },
        {
          "indexed": false,
          "internalType": "uint256",
          "name": "harvestedAmount",
          "type": "uint256"
        }
      ],
      "name": "Deposit",
      "type": "event"
    },
    {
      "anonymous": false,
      "inputs": [
        {
          "indexed": true,
          "internalType": "uint256",
          "name": "currentPhase",
          "type": "uint256"
        },
        {
          "indexed": false,
          "internalType": "uint256",
          "name": "startBlock",
          "type": "uint256"
        },
        {
          "indexed": false,
          "internalType": "uint256",
          "name": "rewardPerBlockForStaking",
          "type": "uint256"
        },
        {
          "indexed": false,
          "internalType": "uint256",
          "name": "rewardPerBlockForOthers",
          "type": "uint256"
        }
      ],
      "name": "NewRewardsPerBlock",
      "type": "event"
    },
    {
      "anonymous": false,
      "inputs": [
        {
          "indexed": true,
          "internalType": "address",
          "name": "user",
          "type": "address"
        },
        {
          "indexed": false,
          "internalType": "uint256",
          "name": "amount",
          "type": "uint256"
        },
        {
          "indexed": false,
          "internalType": "uint256",
          "name": "harvestedAmount",
          "type": "uint256"
        }
      ],
      "name": "Withdraw",
      "type": "event"
    },
    {
      "inputs": [],
      "name": "NUMBER_PERIODS",
      "outputs": [
        {
          "internalType": "uint256",
          "name": "",
          "type": "uint256"
        }
      ],
      "stateMutability": "view",
      "type": "function"
    },
    {
      "inputs": [],
      "name": "PRECISION_FACTOR",
      "outputs": [
        {
          "internalType": "uint256",
          "name": "",
          "type": "uint256"
        }
      ],
      "stateMutability": "view",
      "type": "function"
    },
    {
      "inputs": [],
      "name": "START_BLOCK",
      "outputs": [
        {
          "internalType": "uint256",
          "name": "",
          "type": "uint256"
        }
      ],
      "stateMutability": "view",
      "type": "function"
    },
    {
      "inputs": [],
      "name": "accTokenPerShare",
      "outputs": [
        {
          "internalType": "uint256",
          "name": "",
          "type": "uint256"
        }
      ],
      "stateMutability": "view",
      "type": "function"
    },
    {
      "inputs": [
        {
          "internalType": "address",
          "name": "user",
          "type": "address"
        }
      ],
      "name": "calculatePendingRewards",
      "outputs": [
        {
          "internalType": "uint256",
          "name": "",
          "type": "uint256"
        }
      ],
      "stateMutability": "view",
      "type": "function"
    },
    {
      "inputs": [],
      "name": "currentPhase",
      "outputs": [
        {
          "internalType": "uint256",
          "name": "",
          "type": "uint256"
        }
      ],
      "stateMutability": "view",
      "type": "function"
    },
    {
      "inputs": [
        {
          "internalType": "uint256",
          "name": "amount",
          "type": "uint256"
        }
      ],
      "name": "deposit",
      "outputs": [],
      "stateMutability": "nonpayable",
      "type": "function"
    },
    {
      "inputs": [],
      "name": "endBlock",
      "outputs": [
        {
          "internalType": "uint256",
          "name": "",
          "type": "uint256"
        }
      ],
      "stateMutability": "view",
      "type": "function"
    },
    {
      "inputs": [],
      "name": "harvestAndCompound",
      "outputs": [],
      "stateMutability": "nonpayable",
      "type": "function"
    },
    {
      "inputs": [],
      "name": "lastRewardBlock",
      "outputs": [
        {
          "internalType": "uint256",
          "name": "",
          "type": "uint256"
        }
      ],
      "stateMutability": "view",
      "type": "function"
    },
    {
      "inputs": [],
      "name": "looksRareToken",
      "outputs": [
        {
          "internalType": "contract ILooksRareToken",
          "name": "",
          "type": "address"
        }
      ],
      "stateMutability": "view",
      "type": "function"
    },
    {
      "inputs": [],
      "name": "rewardPerBlockForOthers",
      "outputs": [
        {
          "internalType": "uint256",
          "name": "",
          "type": "uint256"
        }
      ],
      "stateMutability": "view",
      "type": "function"
    },
    {
      "inputs": [],
      "name": "rewardPerBlockForStaking",
      "outputs": [
        {
          "internalType": "uint256",
          "name": "",
          "type": "uint256"
        }
      ],
      "stateMutability": "view",
      "type": "function"
    },
    {
      "inputs": [
        {
          "internalType": "uint256",
          "name": "",
          "type": "uint256"
        }
      ],
      "name": "stakingPeriod",
      "outputs": [
        {
          "internalType": "uint256",
          "name": "rewardPerBlockForStaking",
          "type": "uint256"
        },
        {
          "internalType": "uint256",
          "name": "rewardPerBlockForOthers",
          "type": "uint256"
        },
        {
          "internalType": "uint256",
          "name": "periodLengthInBlock",
          "type": "uint256"
        }
      ],
      "stateMutability": "view",
      "type": "function"
    },
    {
      "inputs": [],
      "name": "tokenSplitter",
      "outputs": [
        {
          "internalType": "address",
          "name": "",
          "type": "address"
        }
      ],
      "stateMutability": "view",
      "type": "function"
    },
    {
      "inputs": [],
      "name": "totalAmountStaked",
      "outputs": [
        {
          "internalType": "uint256",
          "name": "",
          "type": "uint256"
        }
      ],
      "stateMutability": "view",
      "type": "function"
    },
    {
      "inputs": [],
      "name": "updatePool",
      "outputs": [],
      "stateMutability": "nonpayable",
      "type": "function"
    },
    {
      "inputs": [
        {
          "internalType": "address",
          "name": "",
          "type": "address"
        }
      ],
      "name": "userInfo",
      "outputs": [
        {
          "internalType": "uint256",
          "name": "amount",
          "type": "uint256"
        },
        {
          "internalType": "uint256",
          "name": "rewardDebt",
          "type": "uint256"
        }
      ],
      "stateMutability": "view",
      "type": "function"
    },
    {
      "inputs": [
        {
          "internalType": "uint256",
          "name": "amount",
          "type": "uint256"
        }
      ],
      "name": "withdraw",
      "outputs": [],
      "stateMutability": "nonpayable",
      "type": "function"
    },
    {
      "inputs": [],
      "name": "withdrawAll",
      "outputs": [],
      "stateMutability": "nonpayable",
      "type": "function"
    }
  ],
  "bytecode": {
    "object": "0x6101006040523480156200001257600080fd5b5060405162001a5538038062001a558339810160408190526200003591620004d7565b60016000558151811480156200004b5750808451145b8015620000585750808451145b620000c15760405162461bcd60e51b815260206004820152602e60248201527f4469737472696275746f723a204c656e6774686573206d757374206d6174636860448201526d206e756d626572506572696f647360901b60648201526084015b60405180910390fd5b6000876001600160a01b03166318160ddd6040518163ffffffff1660e01b8152600401602060405180830381865afa15801562000102573d6000803e3d6000fd5b505050506040513d601f19601f82011682018060405250810190620001289190620005a2565b886001600160a01b0316630cfccc836040518163ffffffff1660e01b8152600401602060405180830381865afa15801562000167573d6000803e3d6000fd5b505050506040513d601f19601f820116820180604052508101906200018d9190620005a2565b620001999190620005d2565b90506000805b83811015620002fd57848181518110620001bd57620001bd620005ee565b6020026020010151868281518110620001da57620001da620005ee565b6020026020010151620001ee919062000604565b858281518110620002035762000203620005ee565b6020026020010151888381518110620002205762000220620005ee565b602002602001015162000234919062000604565b6200024091906200061e565b6200024c90836200061e565b915060405180606001604052808883815181106200026e576200026e620005ee565b60200260200101518152602001878381518110620002905762000290620005ee565b60200260200101518152602001868381518110620002b257620002b2620005ee565b60209081029190910181015190915260008381526008825260409081902083518155918301516001830155919091015160029091015580620002f48162000634565b9150506200019f565b508181146200035b5760405162461bcd60e51b8152602060048201526024808201527f4469737472696275746f723a2057726f6e672072657761726420706172616d656044820152637465727360e01b6064820152608401620000b8565b6001600160a01b03808a16608052881660a05285518690600090620003845762000384620005ee565b602002602001015160068190555084600081518110620003a857620003a8620005ee565b60200260200101516005819055508660e0818152505083600081518110620003d457620003d4620005ee565b602002602001015187620003e991906200061e565b600355505060c05250505060045550620006509050565b80516001600160a01b03811681146200041857600080fd5b919050565b634e487b7160e01b600052604160045260246000fd5b600082601f8301126200044557600080fd5b815160206001600160401b03808311156200046457620004646200041d565b8260051b604051601f19603f830116810181811084821117156200048c576200048c6200041d565b604052938452858101830193838101925087851115620004ab57600080fd5b83870191505b84821015620004cc57815183529183019190830190620004b1565b979650505050505050565b600080600080600080600060e0888a031215620004f357600080fd5b620004fe8862000400565b96506200050e6020890162000400565b604089015160608a015191975095506001600160401b03808211156200053357600080fd5b620005418b838c0162000433565b955060808a01519150808211156200055857600080fd5b620005668b838c0162000433565b945060a08a01519150808211156200057d57600080fd5b506200058c8a828b0162000433565b92505060c0880151905092959891949750929550565b600060208284031215620005b557600080fd5b5051919050565b634e487b7160e01b600052601160045260246000fd5b81810381811115620005e857620005e8620005bc565b92915050565b634e487b7160e01b600052603260045260246000fd5b8082028115828204841417620005e857620005e8620005bc565b80820180821115620005e857620005e8620005bc565b600060018201620006495762000649620005bc565b5060010190565b60805160a05160c05160e051611393620006c2600039600061020601526000818161022d015281816103710152610c3a01526000818161026e0152610dcf0152600081816101c7015281816107900152818161090a015281816109ed01528181610d0e0152610dfe01526113936000f3fe608060405234801561001057600080fd5b506004361061012c5760003560e01c8063853828b6116100ad578063c1027c9811610071578063c1027c98146102ac578063ccd34cd5146102f6578063e3161ddd14610302578063e683d96f1461030a578063fe961f611461031357600080fd5b8063853828b6146102585780638f66291514610260578063a46074c314610269578063a9f8d18114610290578063b6b55f251461029957600080fd5b80632e1a7d4d116100f45780632e1a7d4d146101af57806336db9fb2146101c257806339b3e8261461020157806352bf348c146102285780635a9477e91461024f57600080fd5b8063055ad42e14610131578063083c63231461014d578063097aad10146101565780631959a002146101695780632a4e051b146101a5575b600080fd5b61013a60025481565b6040519081526020015b60405180910390f35b61013a60035481565b61013a6101643660046111f1565b61031c565b6101906101773660046111f1565b6009602052600090815260409020805460019091015482565b60408051928352602083019190915201610144565b6101ad6104ea565b005b6101ad6101bd366004611221565b610613565b6101e97f000000000000000000000000000000000000000000000000000000000000000081565b6040516001600160a01b039091168152602001610144565b61013a7f000000000000000000000000000000000000000000000000000000000000000081565b61013a7f000000000000000000000000000000000000000000000000000000000000000081565b61013a60065481565b6101ad610801565b61013a60015481565b6101e97f000000000000000000000000000000000000000000000000000000000000000081565b61013a60045481565b6101ad6102a7366004611221565b610980565b6102db6102ba366004611221565b60086020526000908152604090208054600182015460029092015490919083565b60408051938452602084019290925290820152606001610144565b61013a64e8d4a5100081565b6101ad610b33565b61013a60055481565b61013a60075481565b600060045443118015610330575060075415155b1561049b57600061034360045443610b43565b90506000600654826103559190611250565b600354600254919250905b8143118015610398575061039560017f0000000000000000000000000000000000000000000000000000000000000000611267565b81105b1561041b57806103a78161127a565b60008181526008602052604090208054600290910154919350915083906103ce9082611293565b93506000844311156103f1576000848152600860205260409020600201546103fb565b6103fb8243611267565b90506104078382611250565b6104119087611293565b9550505050610360565b60075460009061043064e8d4a5100086611250565b61043a91906112a6565b6001546104479190611293565b6001600160a01b0388166000908152600960205260409020600181015490549192509064e8d4a510009061047c908490611250565b61048691906112a6565b6104909190611267565b979650505050505050565b6001600160a01b038216600090815260096020526040902060018082015490549154909164e8d4a51000916104d09190611250565b6104da91906112a6565b6104e49190611267565b92915050565b6104f2610b7e565b6104fa610bd7565b33600090815260096020526040812060018082015490549154909164e8d4a51000916105269190611250565b61053091906112a6565b61053a9190611267565b90508060000361054a5750610607565b3360009081526009602052604081208054839290610569908490611293565b9250508190555080600760008282546105829190611293565b90915550506001543360009081526009602052604090205464e8d4a51000916105aa91611250565b6105b491906112a6565b33600081815260096020526040908190206001019290925590517f169f1815ebdea059aac3bb00ec9a9594c7a5ffcb64a17e8392b5d84909a14556906105fd9084815260200190565b60405180910390a2505b6106116001600055565b565b61061b610b7e565b33600090815260096020526040902054811180159061063a5750600081115b6106b15760405162461bcd60e51b815260206004820152603760248201527f57697468647261773a20416d6f756e74206d757374206265203e2030206f722060448201527f6c6f776572207468616e20757365722062616c616e636500000000000000000060648201526084015b60405180910390fd5b6106b9610bd7565b33600090815260096020526040812060018082015490549154909164e8d4a51000916106e59190611250565b6106ef91906112a6565b6106f99190611267565b336000908152600960205260409020549091508290610719908390611293565b6107239190611267565b33600090815260096020526040902081905560015464e8d4a51000916107499190611250565b61075391906112a6565b336000908152600960205260409020600101556007548290610776908390611293565b6107809190611267565b6007556107b76001600160a01b037f0000000000000000000000000000000000000000000000000000000000000000163384610e83565b604080518381526020810183905233917ff279e6a1f5e320cca91135676d9cb6e44ca8a08c0b88342bcdb1144f6511b56891015b60405180910390a2506107fe6001600055565b50565b610809610b7e565b336000908152600960205260409020546108655760405162461bcd60e51b815260206004820152601c60248201527f57697468647261773a20416d6f756e74206d757374206265203e20300000000060448201526064016106a8565b61086d610bd7565b33600090815260096020526040812060018082015490549154909164e8d4a51000916108999190611250565b6108a391906112a6565b6108ad9190611267565b33600090815260096020526040812054919250906108cc908390611293565b336000908152600960205260409020546007549192506108eb91611267565b60075533600081815260096020526040812081815560010155610939907f00000000000000000000000000000000000000000000000000000000000000006001600160a01b03169083610e83565b604080518281526020810184905233917ff279e6a1f5e320cca91135676d9cb6e44ca8a08c0b88342bcdb1144f6511b568910160405180910390a250506106116001600055565b610988610b7e565b600081116109d85760405162461bcd60e51b815260206004820152601b60248201527f4465706f7369743a20416d6f756e74206d757374206265203e2030000000000060448201526064016106a8565b6109e0610bd7565b610a156001600160a01b037f000000000000000000000000000000000000000000000000000000000000000016333084610ee6565b3360009081526009602052604081205415610a6d5733600090815260096020526040902060018082015490549154909164e8d4a5100091610a569190611250565b610a6091906112a6565b610a6a9190611267565b90505b610a778183611293565b3360009081526009602052604081208054909190610a96908490611293565b90915550506001543360009081526009602052604090205464e8d4a5100091610abe91611250565b610ac891906112a6565b33600090815260096020526040902060010155610ae58183611293565b60076000828254610af69190611293565b9091555050604080518381526020810183905233917f90890809c654f11d6e72a28fa60149770a0d11ec6c92319d6ceb2bb0a4ea1a1591016107eb565b610b3b610b7e565b610607610bd7565b60006003548211610b5f57610b588383611267565b90506104e4565b6003548310610b70575060006104e4565b82600354610b589190611267565b600260005403610bd05760405162461bcd60e51b815260206004820152601f60248201527f5265656e7472616e637947756172643a207265656e7472616e742063616c6c0060448201526064016106a8565b6002600055565b6004544311610be257565b600754600003610bf25743600455565b6000610c0060045443610b43565b9050600060065482610c129190611250565b9050600060055483610c249190611250565b90505b60035443118015610c635750610c5e60017f0000000000000000000000000000000000000000000000000000000000000000611267565b600254105b15610ce957610c73600354610f24565b6003805460028054600090815260086020526040812090910154919290610c9a8385611293565b9091555060009050610cac8243610b43565b905060065481610cbc9190611250565b610cc69085611293565b935060055481610cd69190611250565b610ce09084611293565b92505050610c27565b8115610e6e576040516340c10f1960e01b8152306004820152602481018390526000907f00000000000000000000000000000000000000000000000000000000000000006001600160a01b0316906340c10f19906044016020604051808303816000875af1158015610d5f573d6000803e3d6000fd5b505050506040513d601f19601f82011682018060405250810190610d8391906112c8565b90508015610db857600754610d9d64e8d4a5100085611250565b610da791906112a6565b600154610db49190611293565b6001555b6040516340c10f1960e01b81526001600160a01b037f000000000000000000000000000000000000000000000000000000000000000081166004830152602482018490527f000000000000000000000000000000000000000000000000000000000000000016906340c10f19906044016020604051808303816000875af1158015610e47573d6000803e3d6000fd5b505050506040513d601f19601f82011682018060405250810190610e6b91906112c8565b50505b60035460045411610e7e57436004555b505050565b6040516001600160a01b038316602482015260448101829052610e7e90849063a9059cbb60e01b906064015b60408051601f198184030181529190526020810180516001600160e01b03166001600160e01b031990931692909217909152610f9f565b6040516001600160a01b0380851660248301528316604482015260648101829052610f1e9085906323b872dd60e01b90608401610eaf565b50505050565b60028054906000610f348361127a565b90915550506002546000818152600860209081526040918290208054600681905560019091015460058190558351868152928301919091528183015290517f40181eb77bccfdef1a73b669bb4290d98e2fbec678c7cf4578ae256210420e179181900360600190a250565b6000610ff4826040518060400160405280602081526020017f5361666545524332303a206c6f772d6c6576656c2063616c6c206661696c6564815250856001600160a01b03166110719092919063ffffffff16565b805190915015610e7e578080602001905181019061101291906112c8565b610e7e5760405162461bcd60e51b815260206004820152602a60248201527f5361666545524332303a204552433230206f7065726174696f6e20646964206e6044820152691bdd081cdd58d8d9595960b21b60648201526084016106a8565b60606110808484600085611088565b949350505050565b6060824710156110e95760405162461bcd60e51b815260206004820152602660248201527f416464726573733a20696e73756666696369656e742062616c616e636520666f6044820152651c8818d85b1b60d21b60648201526084016106a8565b600080866001600160a01b03168587604051611105919061130e565b60006040518083038185875af1925050503d8060008114611142576040519150601f19603f3d011682016040523d82523d6000602084013e611147565b606091505b509150915061049087838387606083156111c25782516000036111bb576001600160a01b0385163b6111bb5760405162461bcd60e51b815260206004820152601d60248201527f416464726573733a2063616c6c20746f206e6f6e2d636f6e747261637400000060448201526064016106a8565b5081611080565b61108083838151156111d75781518083602001fd5b8060405162461bcd60e51b81526004016106a8919061132a565b60006020828403121561120357600080fd5b81356001600160a01b038116811461121a57600080fd5b9392505050565b60006020828403121561123357600080fd5b5035919050565b634e487b7160e01b600052601160045260246000fd5b80820281158282048414176104e4576104e461123a565b818103818111156104e4576104e461123a565b60006001820161128c5761128c61123a565b5060010190565b808201808211156104e4576104e461123a565b6000826112c357634e487b7160e01b600052601260045260246000fd5b500490565b6000602082840312156112da57600080fd5b8151801515811461121a57600080fd5b60005b838110156113055781810151838201526020016112ed565b50506000910152565b600082516113208184602087016112ea565b9190910192915050565b60208152600082518060208401526113498160408501602087016112ea565b601f01601f1916919091016040019291505056fea264697066735822122028721d0b992b0dc07a26467f56773eb078be5a93d480be463740ecd52602fee264736f6c63430008110033",
    "linkReferences": {}
  },
  "methodIdentifiers": {
    "NUMBER_PERIODS()": "52bf348c",
    "PRECISION_FACTOR()": "ccd34cd5",
    "START_BLOCK()": "39b3e826",
    "accTokenPerShare()": "8f662915",
    "calculatePendingRewards(address)": "097aad10",
    "currentPhase()": "055ad42e",
    "deposit(uint256)": "b6b55f25",
    "endBlock()": "083c6323",
    "harvestAndCompound()": "2a4e051b",
    "lastRewardBlock()": "a9f8d181",
    "looksRareToken()": "36db9fb2",
    "rewardPerBlockForOthers()": "e683d96f",
    "rewardPerBlockForStaking()": "5a9477e9",
    "stakingPeriod(uint256)": "c1027c98",
    "tokenSplitter()": "a46074c3",
    "totalAmountStaked()": "fe961f61",
    "updatePool()": "e3161ddd",
    "userInfo(address)": "1959a002",
    "withdraw(uint256)": "2e1a7d4d",
    "withdrawAll()": "853828b6"
  },
  "id": 55
}