{
  "abi": [
    {
      "inputs": [
        {
          "internalType": "address",
          "name": "_owner",
          "type": "address"
        },
        {
          "internalType": "address",
          "name": "_protocolFeeRecipient",
          "type": "address"
        }
      ],
      "stateMutability": "nonpayable",
      "type": "constructor"
    },
    {
      "inputs": [],
      "name": "CreatorFeeBpTooHigh",
      "type": "error"
    },
    {
      "inputs": [],
      "name": "LengthsInvalid",
      "type": "error"
    },
    {
      "inputs": [],
      "name": "NewProtocolFeeRecipientCannotBeNullAddress",
      "type": "error"
    },
    {
      "inputs": [],
      "name": "NoOngoingTransferInProgress",
      "type": "error"
    },
    {
      "inputs": [],
      "name": "NoSelectorForStrategy",
      "type": "error"
    },
    {
      "inputs": [],
      "name": "NotAffiliateController",
      "type": "error"
    },
    {
      "inputs": [],
      "name": "NotOwner",
      "type": "error"
    },
    {
      "inputs": [],
      "name": "NotV2Strategy",
      "type": "error"
    },
    {
      "inputs": [],
      "name": "OutsideOfTimeRange",
      "type": "error"
    },
    {
      "inputs": [],
      "name": "PercentageTooHigh",
      "type": "error"
    },
    {
      "inputs": [],
      "name": "RenouncementNotInProgress",
      "type": "error"
    },
    {
      "inputs": [],
      "name": "StrategyHasNoSelector",
      "type": "error"
    },
    {
      "inputs": [
        {
          "internalType": "uint256",
          "name": "strategyId",
          "type": "uint256"
        }
      ],
      "name": "StrategyNotAvailable",
      "type": "error"
    },
    {
      "inputs": [],
      "name": "StrategyNotUsed",
      "type": "error"
    },
    {
      "inputs": [],
      "name": "StrategyProtocolFeeTooHigh",
      "type": "error"
    },
    {
      "inputs": [],
      "name": "TransferAlreadyInProgress",
      "type": "error"
    },
    {
      "inputs": [],
      "name": "TransferNotInProgress",
      "type": "error"
    },
    {
      "inputs": [],
      "name": "WrongPotentialOwner",
      "type": "error"
    },
    {
      "anonymous": false,
      "inputs": [],
      "name": "CancelOwnershipTransfer",
      "type": "event"
    },
    {
      "anonymous": false,
      "inputs": [
        {
          "indexed": false,
          "internalType": "address",
          "name": "currency",
          "type": "address"
        },
        {
          "indexed": false,
          "internalType": "bool",
          "name": "isAllowed",
          "type": "bool"
        }
      ],
      "name": "CurrencyStatusUpdated",
      "type": "event"
    },
    {
      "anonymous": false,
      "inputs": [],
      "name": "InitiateOwnershipRenouncement",
      "type": "event"
    },
    {
      "anonymous": false,
      "inputs": [
        {
          "indexed": false,
          "internalType": "address",
          "name": "previousOwner",
          "type": "address"
        },
        {
          "indexed": false,
          "internalType": "address",
          "name": "potentialOwner",
          "type": "address"
        }
      ],
      "name": "InitiateOwnershipTransfer",
      "type": "event"
    },
    {
      "anonymous": false,
      "inputs": [
        {
          "indexed": false,
          "internalType": "address",
          "name": "affiliateController",
          "type": "address"
        }
      ],
      "name": "NewAffiliateController",
      "type": "event"
    },
    {
      "anonymous": false,
      "inputs": [
        {
          "indexed": false,
          "internalType": "bool",
          "name": "isActive",
          "type": "bool"
        }
      ],
      "name": "NewAffiliateProgramStatus",
      "type": "event"
    },
    {
      "anonymous": false,
      "inputs": [
        {
          "indexed": false,
          "internalType": "address",
          "name": "affiliate",
          "type": "address"
        },
        {
          "indexed": false,
          "internalType": "uint256",
          "name": "rate",
          "type": "uint256"
        }
      ],
      "name": "NewAffiliateRate",
      "type": "event"
    },
    {
      "anonymous": false,
      "inputs": [
        {
          "indexed": false,
          "internalType": "address",
          "name": "user",
          "type": "address"
        },
        {
          "indexed": false,
          "internalType": "uint256",
          "name": "bidNonce",
          "type": "uint256"
        },
        {
          "indexed": false,
          "internalType": "uint256",
          "name": "askNonce",
          "type": "uint256"
        }
      ],
      "name": "NewBidAskNonces",
      "type": "event"
    },
    {
      "anonymous": false,
      "inputs": [
        {
          "indexed": false,
          "internalType": "address",
          "name": "creatorFeeManager",
          "type": "address"
        }
      ],
      "name": "NewCreatorFeeManager",
      "type": "event"
    },
    {
      "anonymous": false,
      "inputs": [
        {
          "indexed": false,
          "internalType": "uint256",
          "name": "maxCreatorFeeBp",
          "type": "uint256"
        }
      ],
      "name": "NewMaxCreatorFeeBp",
      "type": "event"
    },
    {
      "anonymous": false,
      "inputs": [
        {
          "indexed": false,
          "internalType": "address",
          "name": "newOwner",
          "type": "address"
        }
      ],
      "name": "NewOwner",
      "type": "event"
    },
    {
      "anonymous": false,
      "inputs": [
        {
          "indexed": false,
          "internalType": "address",
          "name": "protocolFeeRecipient",
          "type": "address"
        }
      ],
      "name": "NewProtocolFeeRecipient",
      "type": "event"
    },
    {
      "anonymous": false,
      "inputs": [
        {
          "indexed": false,
          "internalType": "uint256",
          "name": "strategyId",
          "type": "uint256"
        },
        {
          "indexed": false,
          "internalType": "uint16",
          "name": "standardProtocolFeeBp",
          "type": "uint16"
        },
        {
          "indexed": false,
          "internalType": "uint16",
          "name": "minTotalFeeBp",
          "type": "uint16"
        },
        {
          "indexed": false,
          "internalType": "uint16",
          "name": "maxProtocolFeeBp",
          "type": "uint16"
        },
        {
          "indexed": false,
          "internalType": "bytes4",
          "name": "selector",
          "type": "bytes4"
        },
        {
          "indexed": false,
          "internalType": "bool",
          "name": "isMakerBid",
          "type": "bool"
        },
        {
          "indexed": false,
          "internalType": "address",
          "name": "implementation",
          "type": "address"
        }
      ],
      "name": "NewStrategy",
      "type": "event"
    },
    {
      "anonymous": false,
      "inputs": [
        {
          "indexed": false,
          "internalType": "address",
          "name": "user",
          "type": "address"
        },
        {
          "indexed": false,
          "internalType": "uint256[]",
          "name": "orderNonces",
          "type": "uint256[]"
        }
      ],
      "name": "OrderNoncesCancelled",
      "type": "event"
    },
    {
      "anonymous": false,
      "inputs": [
        {
          "indexed": false,
          "internalType": "uint256",
          "name": "strategyId",
          "type": "uint256"
        },
        {
          "indexed": false,
          "internalType": "bool",
          "name": "isActive",
          "type": "bool"
        },
        {
          "indexed": false,
          "internalType": "uint16",
          "name": "standardProtocolFeeBp",
          "type": "uint16"
        },
        {
          "indexed": false,
          "internalType": "uint16",
          "name": "minTotalFeeBp",
          "type": "uint16"
        }
      ],
      "name": "StrategyUpdated",
      "type": "event"
    },
    {
      "anonymous": false,
      "inputs": [
        {
          "indexed": false,
          "internalType": "address",
          "name": "user",
          "type": "address"
        },
        {
          "indexed": false,
          "internalType": "uint256[]",
          "name": "subsetNonces",
          "type": "uint256[]"
        }
      ],
      "name": "SubsetNoncesCancelled",
      "type": "event"
    },
    {
      "inputs": [],
      "name": "MAGIC_VALUE_ORDER_NONCE_EXECUTED",
      "outputs": [
        {
          "internalType": "bytes32",
          "name": "",
          "type": "bytes32"
        }
      ],
      "stateMutability": "view",
      "type": "function"
    },
    {
      "inputs": [
        {
          "internalType": "uint16",
          "name": "standardProtocolFeeBp",
          "type": "uint16"
        },
        {
          "internalType": "uint16",
          "name": "minTotalFeeBp",
          "type": "uint16"
        },
        {
          "internalType": "uint16",
          "name": "maxProtocolFeeBp",
          "type": "uint16"
        },
        {
          "internalType": "bytes4",
          "name": "selector",
          "type": "bytes4"
        },
        {
          "internalType": "bool",
          "name": "isMakerBid",
          "type": "bool"
        },
        {
          "internalType": "address",
          "name": "implementation",
          "type": "address"
        }
      ],
      "name": "addStrategy",
      "outputs": [],
      "stateMutability": "nonpayable",
      "type": "function"
    },
    {
      "inputs": [],
      "name": "affiliateController",
      "outputs": [
        {
          "internalType": "address",
          "name": "",
          "type": "address"
        }
      ],
      "stateMutability": "view",
      "type": "function"
    },
    {
      "inputs": [
        {
          "internalType": "address",
          "name": "",
          "type": "address"
        }
      ],
      "name": "affiliateRates",
      "outputs": [
        {
          "internalType": "uint256",
          "name": "",
          "type": "uint256"
        }
      ],
      "stateMutability": "view",
      "type": "function"
    },
    {
      "inputs": [
        {
          "internalType": "uint256[]",
          "name": "orderNonces",
          "type": "uint256[]"
        }
      ],
      "name": "cancelOrderNonces",
      "outputs": [],
      "stateMutability": "nonpayable",
      "type": "function"
    },
    {
      "inputs": [],
      "name": "cancelOwnershipTransfer",
      "outputs": [],
      "stateMutability": "nonpayable",
      "type": "function"
    },
    {
      "inputs": [
        {
          "internalType": "uint256[]",
          "name": "subsetNonces",
          "type": "uint256[]"
        }
      ],
      "name": "cancelSubsetNonces",
      "outputs": [],
      "stateMutability": "nonpayable",
      "type": "function"
    },
    {
      "inputs": [],
      "name": "confirmOwnershipRenouncement",
      "outputs": [],
      "stateMutability": "nonpayable",
      "type": "function"
    },
    {
      "inputs": [],
      "name": "confirmOwnershipTransfer",
      "outputs": [],
      "stateMutability": "nonpayable",
      "type": "function"
    },
    {
      "inputs": [],
      "name": "creatorFeeManager",
      "outputs": [
        {
          "internalType": "contract ICreatorFeeManager",
          "name": "",
          "type": "address"
        }
      ],
      "stateMutability": "view",
      "type": "function"
    },
    {
      "inputs": [
        {
          "internalType": "bool",
          "name": "bid",
          "type": "bool"
        },
        {
          "internalType": "bool",
          "name": "ask",
          "type": "bool"
        }
      ],
      "name": "incrementBidAskNonces",
      "outputs": [],
      "stateMutability": "nonpayable",
      "type": "function"
    },
    {
      "inputs": [],
      "name": "initiateOwnershipRenouncement",
      "outputs": [],
      "stateMutability": "nonpayable",
      "type": "function"
    },
    {
      "inputs": [
        {
          "internalType": "address",
          "name": "newPotentialOwner",
          "type": "address"
        }
      ],
      "name": "initiateOwnershipTransfer",
      "outputs": [],
      "stateMutability": "nonpayable",
      "type": "function"
    },
    {
      "inputs": [],
      "name": "isAffiliateProgramActive",
      "outputs": [
        {
          "internalType": "bool",
          "name": "",
          "type": "bool"
        }
      ],
      "stateMutability": "view",
      "type": "function"
    },
    {
      "inputs": [
        {
          "internalType": "address",
          "name": "",
          "type": "address"
        }
      ],
      "name": "isCurrencyAllowed",
      "outputs": [
        {
          "internalType": "bool",
          "name": "",
          "type": "bool"
        }
      ],
      "stateMutability": "view",
      "type": "function"
    },
    {
      "inputs": [],
      "name": "maxCreatorFeeBp",
      "outputs": [
        {
          "internalType": "uint16",
          "name": "",
          "type": "uint16"
        }
      ],
      "stateMutability": "view",
      "type": "function"
    },
    {
      "inputs": [],
      "name": "owner",
      "outputs": [
        {
          "internalType": "address",
          "name": "",
          "type": "address"
        }
      ],
      "stateMutability": "view",
      "type": "function"
    },
    {
      "inputs": [],
      "name": "ownershipStatus",
      "outputs": [
        {
          "internalType": "enum IOwnableTwoSteps.Status",
          "name": "",
          "type": "uint8"
        }
      ],
      "stateMutability": "view",
      "type": "function"
    },
    {
      "inputs": [],
      "name": "potentialOwner",
      "outputs": [
        {
          "internalType": "address",
          "name": "",
          "type": "address"
        }
      ],
      "stateMutability": "view",
      "type": "function"
    },
    {
      "inputs": [],
      "name": "protocolFeeRecipient",
      "outputs": [
        {
          "internalType": "address",
          "name": "",
          "type": "address"
        }
      ],
      "stateMutability": "view",
      "type": "function"
    },
    {
      "inputs": [
        {
          "internalType": "uint256",
          "name": "",
          "type": "uint256"
        }
      ],
      "name": "strategyInfo",
      "outputs": [
        {
          "internalType": "bool",
          "name": "isActive",
          "type": "bool"
        },
        {
          "internalType": "uint16",
          "name": "standardProtocolFeeBp",
          "type": "uint16"
        },
        {
          "internalType": "uint16",
          "name": "minTotalFeeBp",
          "type": "uint16"
        },
        {
          "internalType": "uint16",
          "name": "maxProtocolFeeBp",
          "type": "uint16"
        },
        {
          "internalType": "bytes4",
          "name": "selector",
          "type": "bytes4"
        },
        {
          "internalType": "bool",
          "name": "isMakerBid",
          "type": "bool"
        },
        {
          "internalType": "address",
          "name": "implementation",
          "type": "address"
        }
      ],
      "stateMutability": "view",
      "type": "function"
    },
    {
      "inputs": [
        {
          "internalType": "address",
          "name": "newAffiliateController",
          "type": "address"
        }
      ],
      "name": "updateAffiliateController",
      "outputs": [],
      "stateMutability": "nonpayable",
      "type": "function"
    },
    {
      "inputs": [
        {
          "internalType": "bool",
          "name": "isActive",
          "type": "bool"
        }
      ],
      "name": "updateAffiliateProgramStatus",
      "outputs": [],
      "stateMutability": "nonpayable",
      "type": "function"
    },
    {
      "inputs": [
        {
          "internalType": "address",
          "name": "affiliate",
          "type": "address"
        },
        {
          "internalType": "uint256",
          "name": "bp",
          "type": "uint256"
        }
      ],
      "name": "updateAffiliateRate",
      "outputs": [],
      "stateMutability": "nonpayable",
      "type": "function"
    },
    {
      "inputs": [
        {
          "internalType": "address",
          "name": "newCreatorFeeManager",
          "type": "address"
        }
      ],
      "name": "updateCreatorFeeManager",
      "outputs": [],
      "stateMutability": "nonpayable",
      "type": "function"
    },
    {
      "inputs": [
        {
          "internalType": "address",
          "name": "currency",
          "type": "address"
        },
        {
          "internalType": "bool",
          "name": "isAllowed",
          "type": "bool"
        }
      ],
      "name": "updateCurrencyStatus",
      "outputs": [],
      "stateMutability": "nonpayable",
      "type": "function"
    },
    {
      "inputs": [
        {
          "internalType": "uint16",
          "name": "newMaxCreatorFeeBp",
          "type": "uint16"
        }
      ],
      "name": "updateMaxCreatorFeeBp",
      "outputs": [],
      "stateMutability": "nonpayable",
      "type": "function"
    },
    {
      "inputs": [
        {
          "internalType": "address",
          "name": "newProtocolFeeRecipient",
          "type": "address"
        }
      ],
      "name": "updateProtocolFeeRecipient",
      "outputs": [],
      "stateMutability": "nonpayable",
      "type": "function"
    },
    {
      "inputs": [
        {
          "internalType": "uint256",
          "name": "strategyId",
          "type": "uint256"
        },
        {
          "internalType": "bool",
          "name": "isActive",
          "type": "bool"
        },
        {
          "internalType": "uint16",
          "name": "newStandardProtocolFee",
          "type": "uint16"
        },
        {
          "internalType": "uint16",
          "name": "newMinTotalFee",
          "type": "uint16"
        }
      ],
      "name": "updateStrategy",
      "outputs": [],
      "stateMutability": "nonpayable",
      "type": "function"
    },
    {
      "inputs": [
        {
          "internalType": "address",
          "name": "",
          "type": "address"
        }
      ],
      "name": "userBidAskNonces",
      "outputs": [
        {
          "internalType": "uint256",
          "name": "bidNonce",
          "type": "uint256"
        },
        {
          "internalType": "uint256",
          "name": "askNonce",
          "type": "uint256"
        }
      ],
      "stateMutability": "view",
      "type": "function"
    },
    {
      "inputs": [
        {
          "internalType": "address",
          "name": "",
          "type": "address"
        },
        {
          "internalType": "uint256",
          "name": "",
          "type": "uint256"
        }
      ],
      "name": "userOrderNonce",
      "outputs": [
        {
          "internalType": "bytes32",
          "name": "",
          "type": "bytes32"
        }
      ],
      "stateMutability": "view",
      "type": "function"
    },
    {
      "inputs": [
        {
          "internalType": "address",
          "name": "",
          "type": "address"
        },
        {
          "internalType": "uint256",
          "name": "",
          "type": "uint256"
        }
      ],
      "name": "userSubsetNonce",
      "outputs": [
        {
          "internalType": "bool",
          "name": "",
          "type": "bool"
        }
      ],
      "stateMutability": "view",
      "type": "function"
    }
  ],
  "bytecode": {
    "object": "0x60803461023d576001600160401b03906115b190601f38839003908101601f191682019084821183831017610227578083916040958694855283398101031261023d5761004b81610242565b6100586020809301610242565b600380546001600160a01b0319166001600160a01b0393841690811790915584519081529094907f3edd90e7770f06fafde38004653b33870066c33bfc923ff6102acd601f85dfbc908490a1600160085583519060e082019081118282101761022757845260018152828101906032825284810160328152606082019260c88452608083019360009485815260a085019186835260c086019387855287805260098a528a88209651151560ff16905160081b62ffff0016955160181b64ffff00000016915160281b66ffff000000000016925160a81c6affffffff00000000000000169351151560581b6bff00000000000000000000001694600160601b6001900319905160601b1695171717171717905583519080825283820160329052848201603290526060820160c890528060808301528060a083015260c082015260e07f5290475107686ff8d28cd104943b127d453b23622ac55346373fa25c0c8957a291a1600a5493168015610216576001600160b01b03199093168317607d60a31b17600a55815192835290917f8cffb07faa2874440346743bdc0a86b06c3335cc47dc49b327d10e77b73ceb109190a15161135a90816102578239f35b8251630f966bcb60e41b8152600490fd5b634e487b7160e01b600052604160045260246000fd5b600080fd5b51906001600160a01b038216820361023d5756fe608060408181526004918236101561001657600080fd5b600092833560e01c918263134849a61461113d575081631d3c4268146110bc5781631df47f801461103a57816320cd05c714610ff957816323452b9c14610f675781632bb5a9e614610f265781633e56753914610e9e578163463357ec14610e6357816346b625bc14610dd55781634cbac9dc14610dac5781635487887614610d3d5781635a195d1914610cff5781635b6ac01114610c7457816364df049e14610c4b57816367d9dd7914610c225781636e90c01414610bfc5781637200b82914610b375781637762df2514610b0f57816379ed31d414610a5c5781637a7d885114610a24578163838b8f5c146109fb5781638da5cb5b146109d257816391be1360146106ca578163a02bab571461065b578163a39bf29f1461061a578163ae1cce5a1461057e578163b647a4041461050f578163bb91c33914610496578163c0b6f561146103e0578163d5a06adf146102a9578163d5b010f5146101ce575063ea179b761461018557600080fd5b346101ca57806003193601126101ca5760209160ff9082906001600160a01b036101ad611225565b168152600285528181206024358252855220541690519015158152f35b5080fd5b8383346101ca57806003193601126101ca576101e861124a565b6101f061123b565b91600019430143811161029657917fb738dd6073fae1a7128e3fcc6b4ca6e1356b7232f87cc98f8a2857bcd83dfc4493916060934060801c3387528660205281872054936001838920015493610279575b610259575b508051923384526020840152820152a180f35b61026391926112db565b9033865285602052816001828820015586610246565b9381610284916112db565b93338852876020528483892055610241565b634e487b7160e01b855260118652602485fd5b9050346103dc5760803660031901126103dc578035916102c761123b565b6102cf61126a565b6064359161ffff92838116958682036103d8576102ea6112fe565b6008548810156103ca57878952600960205284868a205460281c16871180156103bf575b6103b157509160809593916103978896947f3b25bf77fa688236b850bf89c87e353098688237aa18dc42593aff0f6387aea9998b52600960205261036083878d209060ff801983541691151516179055565b858b20805462ffff001916600886901b62ffff0016179055858b209064ffff00000082549160181b169064ffff0000001916179055565b83519586521515602086015216908301526060820152a180f35b855163b704b7c160e01b8152fd5b50868585161161030e565b855163bd7056c760e01b8152fd5b8880fd5b8280fd5b8383346101ca5760203660031901126101ca576103fb611225565b6104036112fe565b83549060ff8260a01c16600381101561048357610473576001600160a81b03199091166001600160a01b03909116908117600160a01b179093558051338152602081019390935290917fb86c75c9bffca616b2d314cc914f7c3f1d174255b16b941c3f3ededee276d5ef9190a180f35b8251633a76bcd760e11b81528590fd5b634e487b7160e01b855260218652602485fd5b9050346103dc5760203660031901126103dc5760e09282913581526009602052205481519160ff82161515835261ffff90818360081c166020850152818360181c16908401528160281c16606083015263ffffffff831b8160a81b16608083015260ff8160581c16151560a083015260601c60c0820152f35b5050346101ca5760203660031901126101ca5760207fa7014d98341b07b23615cb6b4da7cca2a381932b46fb39ca4b8c3875c53aa7649161054e611225565b6105566112fe565b600b80546001600160a01b0319166001600160a01b039290921691821790559051908152a180f35b8383346101ca57806003193601126101ca57610598611225565b600554602435916001600160a01b03918216330361060a5761271083116105fa577fa16126d9473196242b0784325b30642b89f34442dd178a852f5b88ee483a30d894955016908185526006602052808386205582519182526020820152a180f35b8351632242dac960e01b81528690fd5b8351639f63004360e01b81528690fd5b5050346101ca5760203660031901126101ca579081906001600160a01b03610640611225565b16815280602052206001815491015482519182526020820152f35b5050346101ca5760203660031901126101ca5760207fa92d85531a006d07fd0df4c61259b6dc18e4f492857e2454e5a20ee5e55cddcc9161069a611225565b6106a26112fe565b600580546001600160a01b0319166001600160a01b039290921691821790559051908152a180f35b8383346101ca5760c03660031901126101ca576106e5611259565b6024359161ffff928381168091036109ce576106ff61126a565b926064359163ffffffff60e01b83168093036109ca57608435938415158095036109c65760a4356001600160a01b03811696908790036103d85787906107436112fe565b169283831180156109bb575b80156109b0575b6109a05784156109905781516345b2b38160e01b81526020989089818d818c5afa908115610986578b91610921575b50156109115782519160e0830183811067ffffffffffffffff8211176108fe57888784888f968f9897968f968e988c91825260018b52838c8c0193169b8c8452828c0195865260608c0197885260808c019a8b5260a08c0198895260c08c01998a52600854825260099052209851151561080b908a9060ff801983541691151516179055565b51885462ffff001916911660081b62ffff001617875551865464ffff0000001916911660181b64ffff0000001617855551928454905160a81c6affffffff00000000000000169160ff60581b9051151560581b16926bffffffffffffffffffffffff19905160601b169360281b66ffff0000000000169064ffffffffff161717171790556008549760001989146108eb576001890160085582519889528801528601526060850152608084015260a083015260c08201527f5290475107686ff8d28cd104943b127d453b23622ac55346373fa25c0c8957a29060e090a180f35b634e487b7160e01b8a5260118b5260248afd5b634e487b7160e01b8c5260418d5260248cfd5b825163ef8c37d760e01b81528b90fd5b9050893d8b1161097f575b601f8101601f1916820167ffffffffffffffff81118382101761096b578b91839187528101031261096757518015158103610967578c610785565b8a80fd5b50634e487b7160e01b8c5260418d5260248cfd5b503d61092c565b84513d8d823e3d90fd5b8151636168384960e11b81528a90fd5b815163b704b7c160e01b81528a90fd5b506101f48411610756565b50828882161161074f565b8780fd5b8680fd5b8480fd5b5050346101ca57816003193601126101ca5760035490516001600160a01b039091168152602090f35b5050346101ca57816003193601126101ca57600b5490516001600160a01b039091168152602090f35b5050346101ca5760203660031901126101ca5760209181906001600160a01b03610a4c611225565b1681526006845220549051908152f35b9050346103dc57610a6c366111d3565b9290918315610b015750835b838110610ab8575090610ab27f0560c6093fba8a508d0e6ea3b4d7260d7afa9b152731f03a2d05dfe39b0ec42593925192839233846112a1565b0390a180f35b338552600190602082815283872090610ad283888861127b565b358852527f53849a1acec87308423850dccd979fc7a4b74b75a79b19c3b98ec8df38a599db8387205501610a78565b90516397983bdb60e01b8152fd5b9050346103dc57826003193601126103dc575490516001600160a01b03909116815260209150f35b9050346103dc57826003193601126103dc57805460ff8160a01c166003811015610be957600103610bda576001600160a01b0381163303610bcb57916020917f3edd90e7770f06fafde38004653b33870066c33bfc923ff6102acd601f85dfbc93336bffffffffffffffffffffffff60a01b60035416176003556affffffffffffffffffffff60a81b16905551338152a180f35b5090516357ee7dc960e11b8152fd5b509051632f27941360e11b8152fd5b634e487b7160e01b855260218352602485fd5b5050346101ca57816003193601126101ca5760209061ffff600a5460a01c169051908152f35b828434610c485780600319360112610c48575060ff6020925460a81c1690519015158152f35b80fd5b5050346101ca57816003193601126101ca57600a5490516001600160a01b039091168152602090f35b919050346103dc57826003193601126103dc57610c8f6112fe565b81549060ff8260a01c166003811015610cec57610cdd575060ff60a01b1916600160a11b1790557f3ff05a45e46337fa1cbf20996d2eeb927280bce099f37252bcca1040609604ec8180a180f35b51633a76bcd760e11b81529050fd5b634e487b7160e01b855260218452602485fd5b5050346101ca5760203660031901126101ca5760209160ff9082906001600160a01b03610d2a611225565b1681526007855220541690519015158152f35b919050346103dc5760203660031901126103dc577fdca612ba3556b7c2603089071be1feb2404df55dcabceee9d5fd852fdb39bc3491602091610d7e61124a565b610d866112fe565b825460ff60a81b191690151560a881901b60ff60a81b169190911790925551908152a180f35b5050346101ca57816003193601126101ca5760055490516001600160a01b039091168152602090f35b919050346103dc5760203660031901126103dc57610df1611259565b610df96112fe565b61ffff8116926109c48411610e555750600a805461ffff60a01b191660a09290921b61ffff60a01b16919091179055519081527fcaba16bb74e50491b14ebf4755083b43aaf56a765134681af613a2ef8d732f4f90602090a180f35b82516397d7dcfb60e01b8152fd5b5050346101ca57816003193601126101ca57602090517f53849a1acec87308423850dccd979fc7a4b74b75a79b19c3b98ec8df38a599db8152f35b9050346103dc57826003193601126103dc57610eb86112fe565b805460ff8160a01c166003811015610be957600203610f1757600380546001600160a01b031916905560ff60a01b19169055518181527f3edd90e7770f06fafde38004653b33870066c33bfc923ff6102acd601f85dfbc90602090a180f35b50905163022e289160e11b8152fd5b8383346101ca57816003193601126101ca5760ff835460a01c169051916003821015610f5457602083838152f35b634e487b7160e01b815260218452602490fd5b919050346103dc57826003193601126103dc57610f826112fe565b81549060ff8260a01c16906003821015610cec578115610fea5750600114610fd8575b50805460ff60a01b191690557f8eca980489e87f7dba4f26917aa4bfc906eb3f2b4f7b4b9fd0ff2b8bb3e21ae38180a180f35b6001600160a01b031916815538610fa5565b5163ccf69db760e01b81528390fd5b5050346101ca57806003193601126101ca5760209181906001600160a01b03611020611225565b168152600184528181206024358252845220549051908152f35b919050346103dc5760203660031901126103dc57611056611225565b61105e6112fe565b6001600160a01b03169182156110ae5750600a80546001600160a01b03191683179055519081527f8cffb07faa2874440346743bdc0a86b06c3335cc47dc49b327d10e77b73ceb1090602090a180f35b9051630f966bcb60e41b8152fd5b5050346101ca57806003193601126101ca577fba28eda47a2e15b1dd3269e6d82f66730d20a5661aa40e9faf9f311c7872a543906110f8611225565b61110061123b565b906111096112fe565b6001600160a01b03168085526007602052828520805460ff191660ff8415151617905590825191825215156020820152a180f35b849250346103dc5761114e366111d3565b92909183156111c7575050825b8281106111945750610ab27fe8036d6fb143373f3ff63e551373f5fffe4267f6809bf6d3934014a18a9b38f693945192839233846112a1565b338452602060028152858520906111ac83868661127b565b35865252848420805460ff191660019081179091550161115b565b6397983bdb60e01b8152fd5b9060206003198301126112205760043567ffffffffffffffff9283821161122057806023830112156112205781600401359384116112205760248460051b83010111611220576024019190565b600080fd5b600435906001600160a01b038216820361122057565b60243590811515820361122057565b60043590811515820361122057565b6004359061ffff8216820361122057565b6044359061ffff8216820361122057565b919081101561128b5760051b0190565b634e487b7160e01b600052603260045260246000fd5b6001600160a01b03909116815260406020820181905281018390526001600160fb1b0383116112205760609260051b809284830137010190565b919082018092116112e857565b634e487b7160e01b600052601160045260246000fd5b6003546001600160a01b0316330361131257565b6040516330cd747160e01b8152600490fdfea2646970667358221220d9ce2dc062a720117ed3e00ced74036ad707441d54aae3a0acaf895d0be9c5fc64736f6c63430008110033",
    "linkReferences": {}
  },
  "methodIdentifiers": {
    "MAGIC_VALUE_ORDER_NONCE_EXECUTED()": "463357ec",
    "addStrategy(uint16,uint16,uint16,bytes4,bool,address)": "91be1360",
    "affiliateController()": "4cbac9dc",
    "affiliateRates(address)": "7a7d8851",
    "cancelOrderNonces(uint256[])": "79ed31d4",
    "cancelOwnershipTransfer()": "23452b9c",
    "cancelSubsetNonces(uint256[])": "134849a6",
    "confirmOwnershipRenouncement()": "3e567539",
    "confirmOwnershipTransfer()": "7200b829",
    "creatorFeeManager()": "838b8f5c",
    "incrementBidAskNonces(bool,bool)": "d5b010f5",
    "initiateOwnershipRenouncement()": "5b6ac011",
    "initiateOwnershipTransfer(address)": "c0b6f561",
    "isAffiliateProgramActive()": "67d9dd79",
    "isCurrencyAllowed(address)": "5a195d19",
    "maxCreatorFeeBp()": "6e90c014",
    "owner()": "8da5cb5b",
    "ownershipStatus()": "2bb5a9e6",
    "potentialOwner()": "7762df25",
    "protocolFeeRecipient()": "64df049e",
    "strategyInfo(uint256)": "bb91c339",
    "updateAffiliateController(address)": "a02bab57",
    "updateAffiliateProgramStatus(bool)": "54878876",
    "updateAffiliateRate(address,uint256)": "ae1cce5a",
    "updateCreatorFeeManager(address)": "b647a404",
    "updateCurrencyStatus(address,bool)": "1d3c4268",
    "updateMaxCreatorFeeBp(uint16)": "46b625bc",
    "updateProtocolFeeRecipient(address)": "1df47f80",
    "updateStrategy(uint256,bool,uint16,uint16)": "d5a06adf",
    "userBidAskNonces(address)": "a39bf29f",
    "userOrderNonce(address,uint256)": "20cd05c7",
    "userSubsetNonce(address,uint256)": "ea179b76"
  },
  "id": 12
}