{
  "abi": [
    {
      "inputs": [
        {
          "internalType": "uint256",
          "name": "_poolId",
          "type": "uint256"
        },
        {
          "internalType": "address",
          "name": "_router",
          "type": "address"
        },
        {
          "internalType": "address",
          "name": "_token",
          "type": "address"
        },
        {
          "internalType": "uint256",
          "name": "_sharedDecimals",
          "type": "uint256"
        },
        {
          "internalType": "uint256",
          "name": "_localDecimals",
          "type": "uint256"
        },
        {
          "internalType": "address",
          "name": "_feeLibrary",
          "type": "address"
        },
        {
          "internalType": "string",
          "name": "_name",
          "type": "string"
        },
        {
          "internalType": "string",
          "name": "_symbol",
          "type": "string"
        }
      ],
      "stateMutability": "nonpayable",
      "type": "constructor"
    },
    {
      "anonymous": false,
      "inputs": [
        {
          "indexed": true,
          "internalType": "address",
          "name": "owner",
          "type": "address"
        },
        {
          "indexed": true,
          "internalType": "address",
          "name": "spender",
          "type": "address"
        },
        {
          "indexed": false,
          "internalType": "uint256",
          "name": "value",
          "type": "uint256"
        }
      ],
      "name": "Approval",
      "type": "event"
    },
    {
      "anonymous": false,
      "inputs": [
        {
          "indexed": false,
          "internalType": "address",
          "name": "from",
          "type": "address"
        },
        {
          "indexed": false,
          "internalType": "uint256",
          "name": "amountLP",
          "type": "uint256"
        },
        {
          "indexed": false,
          "internalType": "uint256",
          "name": "amountSD",
          "type": "uint256"
        }
      ],
      "name": "Burn",
      "type": "event"
    },
    {
      "anonymous": false,
      "inputs": [
        {
          "indexed": false,
          "internalType": "uint16",
          "name": "dstChainId",
          "type": "uint16"
        },
        {
          "indexed": false,
          "internalType": "uint256",
          "name": "dstPoolId",
          "type": "uint256"
        },
        {
          "indexed": false,
          "internalType": "uint256",
          "name": "weight",
          "type": "uint256"
        }
      ],
      "name": "ChainPathUpdate",
      "type": "event"
    },
    {
      "anonymous": false,
      "inputs": [
        {
          "indexed": false,
          "internalType": "uint16",
          "name": "chainId",
          "type": "uint16"
        },
        {
          "indexed": false,
          "internalType": "uint256",
          "name": "srcPoolId",
          "type": "uint256"
        },
        {
          "indexed": false,
          "internalType": "uint256",
          "name": "amountSD",
          "type": "uint256"
        },
        {
          "indexed": false,
          "internalType": "uint256",
          "name": "idealBalance",
          "type": "uint256"
        }
      ],
      "name": "CreditChainPath",
      "type": "event"
    },
    {
      "anonymous": false,
      "inputs": [
        {
          "indexed": false,
          "internalType": "bool",
          "name": "batched",
          "type": "bool"
        },
        {
          "indexed": false,
          "internalType": "uint256",
          "name": "swapDeltaBP",
          "type": "uint256"
        },
        {
          "indexed": false,
          "internalType": "uint256",
          "name": "lpDeltaBP",
          "type": "uint256"
        },
        {
          "indexed": false,
          "internalType": "bool",
          "name": "defaultSwapMode",
          "type": "bool"
        },
        {
          "indexed": false,
          "internalType": "bool",
          "name": "defaultLPMode",
          "type": "bool"
        }
      ],
      "name": "DeltaParamUpdated",
      "type": "event"
    },
    {
      "anonymous": false,
      "inputs": [
        {
          "indexed": false,
          "internalType": "address",
          "name": "feeLibraryAddr",
          "type": "address"
        }
      ],
      "name": "FeeLibraryUpdated",
      "type": "event"
    },
    {
      "anonymous": false,
      "inputs": [
        {
          "indexed": false,
          "internalType": "uint256",
          "name": "mintFeeBP",
          "type": "uint256"
        }
      ],
      "name": "FeesUpdated",
      "type": "event"
    },
    {
      "anonymous": false,
      "inputs": [
        {
          "indexed": false,
          "internalType": "address",
          "name": "from",
          "type": "address"
        },
        {
          "indexed": false,
          "internalType": "uint256",
          "name": "amountLP",
          "type": "uint256"
        },
        {
          "indexed": false,
          "internalType": "uint256",
          "name": "amountSD",
          "type": "uint256"
        },
        {
          "indexed": false,
          "internalType": "address",
          "name": "to",
          "type": "address"
        }
      ],
      "name": "InstantRedeemLocal",
      "type": "event"
    },
    {
      "anonymous": false,
      "inputs": [
        {
          "indexed": false,
          "internalType": "address",
          "name": "to",
          "type": "address"
        },
        {
          "indexed": false,
          "internalType": "uint256",
          "name": "amountLP",
          "type": "uint256"
        },
        {
          "indexed": false,
          "internalType": "uint256",
          "name": "amountSD",
          "type": "uint256"
        },
        {
          "indexed": false,
          "internalType": "uint256",
          "name": "mintFeeAmountSD",
          "type": "uint256"
        }
      ],
      "name": "Mint",
      "type": "event"
    },
    {
      "anonymous": false,
      "inputs": [
        {
          "indexed": false,
          "internalType": "address",
          "name": "from",
          "type": "address"
        },
        {
          "indexed": false,
          "internalType": "uint256",
          "name": "amountLP",
          "type": "uint256"
        },
        {
          "indexed": false,
          "internalType": "uint256",
          "name": "amountSD",
          "type": "uint256"
        },
        {
          "indexed": false,
          "internalType": "uint16",
          "name": "chainId",
          "type": "uint16"
        },
        {
          "indexed": false,
          "internalType": "uint256",
          "name": "dstPoolId",
          "type": "uint256"
        },
        {
          "indexed": false,
          "internalType": "bytes",
          "name": "to",
          "type": "bytes"
        }
      ],
      "name": "RedeemLocal",
      "type": "event"
    },
    {
      "anonymous": false,
      "inputs": [
        {
          "indexed": false,
          "internalType": "address",
          "name": "_to",
          "type": "address"
        },
        {
          "indexed": false,
          "internalType": "uint256",
          "name": "_amountSD",
          "type": "uint256"
        },
        {
          "indexed": false,
          "internalType": "uint256",
          "name": "_amountToMintSD",
          "type": "uint256"
        }
      ],
      "name": "RedeemLocalCallback",
      "type": "event"
    },
    {
      "anonymous": false,
      "inputs": [
        {
          "indexed": false,
          "internalType": "uint16",
          "name": "chainId",
          "type": "uint16"
        },
        {
          "indexed": false,
          "internalType": "uint256",
          "name": "dstPoolId",
          "type": "uint256"
        },
        {
          "indexed": false,
          "internalType": "address",
          "name": "from",
          "type": "address"
        },
        {
          "indexed": false,
          "internalType": "uint256",
          "name": "amountLP",
          "type": "uint256"
        },
        {
          "indexed": false,
          "internalType": "uint256",
          "name": "amountSD",
          "type": "uint256"
        }
      ],
      "name": "RedeemRemote",
      "type": "event"
    },
    {
      "anonymous": false,
      "inputs": [
        {
          "indexed": false,
          "internalType": "uint16",
          "name": "dstChainId",
          "type": "uint16"
        },
        {
          "indexed": false,
          "internalType": "uint256",
          "name": "dstPoolId",
          "type": "uint256"
        },
        {
          "indexed": false,
          "internalType": "uint256",
          "name": "credits",
          "type": "uint256"
        },
        {
          "indexed": false,
          "internalType": "uint256",
          "name": "idealBalance",
          "type": "uint256"
        }
      ],
      "name": "SendCredits",
      "type": "event"
    },
    {
      "anonymous": false,
      "inputs": [
        {
          "indexed": false,
          "internalType": "bool",
          "name": "swapStop",
          "type": "bool"
        }
      ],
      "name": "StopSwapUpdated",
      "type": "event"
    },
    {
      "anonymous": false,
      "inputs": [
        {
          "indexed": false,
          "internalType": "uint16",
          "name": "chainId",
          "type": "uint16"
        },
        {
          "indexed": false,
          "internalType": "uint256",
          "name": "dstPoolId",
          "type": "uint256"
        },
        {
          "indexed": false,
          "internalType": "address",
          "name": "from",
          "type": "address"
        },
        {
          "indexed": false,
          "internalType": "uint256",
          "name": "amountSD",
          "type": "uint256"
        },
        {
          "indexed": false,
          "internalType": "uint256",
          "name": "eqReward",
          "type": "uint256"
        },
        {
          "indexed": false,
          "internalType": "uint256",
          "name": "eqFee",
          "type": "uint256"
        },
        {
          "indexed": false,
          "internalType": "uint256",
          "name": "protocolFee",
          "type": "uint256"
        },
        {
          "indexed": false,
          "internalType": "uint256",
          "name": "lpFee",
          "type": "uint256"
        }
      ],
      "name": "Swap",
      "type": "event"
    },
    {
      "anonymous": false,
      "inputs": [
        {
          "indexed": false,
          "internalType": "address",
          "name": "to",
          "type": "address"
        },
        {
          "indexed": false,
          "internalType": "uint256",
          "name": "amountSD",
          "type": "uint256"
        },
        {
          "indexed": false,
          "internalType": "uint256",
          "name": "protocolFee",
          "type": "uint256"
        },
        {
          "indexed": false,
          "internalType": "uint256",
          "name": "dstFee",
          "type": "uint256"
        }
      ],
      "name": "SwapRemote",
      "type": "event"
    },
    {
      "anonymous": false,
      "inputs": [
        {
          "indexed": true,
          "internalType": "address",
          "name": "from",
          "type": "address"
        },
        {
          "indexed": true,
          "internalType": "address",
          "name": "to",
          "type": "address"
        },
        {
          "indexed": false,
          "internalType": "uint256",
          "name": "value",
          "type": "uint256"
        }
      ],
      "name": "Transfer",
      "type": "event"
    },
    {
      "anonymous": false,
      "inputs": [
        {
          "indexed": false,
          "internalType": "address",
          "name": "to",
          "type": "address"
        },
        {
          "indexed": false,
          "internalType": "uint256",
          "name": "amountSD",
          "type": "uint256"
        }
      ],
      "name": "WithdrawMintFeeBalance",
      "type": "event"
    },
    {
      "anonymous": false,
      "inputs": [
        {
          "indexed": false,
          "internalType": "address",
          "name": "to",
          "type": "address"
        },
        {
          "indexed": false,
          "internalType": "uint256",
          "name": "amountSD",
          "type": "uint256"
        }
      ],
      "name": "WithdrawProtocolFeeBalance",
      "type": "event"
    },
    {
      "anonymous": false,
      "inputs": [
        {
          "indexed": false,
          "internalType": "uint16",
          "name": "srcChainId",
          "type": "uint16"
        },
        {
          "indexed": false,
          "internalType": "uint256",
          "name": "srcPoolId",
          "type": "uint256"
        },
        {
          "indexed": false,
          "internalType": "uint256",
          "name": "swapAmount",
          "type": "uint256"
        },
        {
          "indexed": false,
          "internalType": "uint256",
          "name": "mintAmount",
          "type": "uint256"
        }
      ],
      "name": "WithdrawRemote",
      "type": "event"
    },
    {
      "inputs": [],
      "name": "BP_DENOMINATOR",
      "outputs": [
        {
          "internalType": "uint256",
          "name": "",
          "type": "uint256"
        }
      ],
      "stateMutability": "view",
      "type": "function"
    },
    {
      "inputs": [],
      "name": "DOMAIN_SEPARATOR",
      "outputs": [
        {
          "internalType": "bytes32",
          "name": "",
          "type": "bytes32"
        }
      ],
      "stateMutability": "view",
      "type": "function"
    },
    {
      "inputs": [],
      "name": "PERMIT_TYPEHASH",
      "outputs": [
        {
          "internalType": "bytes32",
          "name": "",
          "type": "bytes32"
        }
      ],
      "stateMutability": "view",
      "type": "function"
    },
    {
      "inputs": [
        {
          "internalType": "uint16",
          "name": "_dstChainId",
          "type": "uint16"
        },
        {
          "internalType": "uint256",
          "name": "_dstPoolId",
          "type": "uint256"
        }
      ],
      "name": "activateChainPath",
      "outputs": [],
      "stateMutability": "nonpayable",
      "type": "function"
    },
    {
      "inputs": [
        {
          "internalType": "address",
          "name": "",
          "type": "address"
        },
        {
          "internalType": "address",
          "name": "",
          "type": "address"
        }
      ],
      "name": "allowance",
      "outputs": [
        {
          "internalType": "uint256",
          "name": "",
          "type": "uint256"
        }
      ],
      "stateMutability": "view",
      "type": "function"
    },
    {
      "inputs": [
        {
          "internalType": "uint256",
          "name": "_amountLP",
          "type": "uint256"
        }
      ],
      "name": "amountLPtoLD",
      "outputs": [
        {
          "internalType": "uint256",
          "name": "",
          "type": "uint256"
        }
      ],
      "stateMutability": "view",
      "type": "function"
    },
    {
      "inputs": [
        {
          "internalType": "address",
          "name": "spender",
          "type": "address"
        },
        {
          "internalType": "uint256",
          "name": "value",
          "type": "uint256"
        }
      ],
      "name": "approve",
      "outputs": [
        {
          "internalType": "bool",
          "name": "",
          "type": "bool"
        }
      ],
      "stateMutability": "nonpayable",
      "type": "function"
    },
    {
      "inputs": [
        {
          "internalType": "address",
          "name": "",
          "type": "address"
        }
      ],
      "name": "balanceOf",
      "outputs": [
        {
          "internalType": "uint256",
          "name": "",
          "type": "uint256"
        }
      ],
      "stateMutability": "view",
      "type": "function"
    },
    {
      "inputs": [],
      "name": "batched",
      "outputs": [
        {
          "internalType": "bool",
          "name": "",
          "type": "bool"
        }
      ],
      "stateMutability": "view",
      "type": "function"
    },
    {
      "inputs": [
        {
          "internalType": "bool",
          "name": "_fullMode",
          "type": "bool"
        }
      ],
      "name": "callDelta",
      "outputs": [],
      "stateMutability": "nonpayable",
      "type": "function"
    },
    {
      "inputs": [
        {
          "internalType": "uint16",
          "name": "",
          "type": "uint16"
        },
        {
          "internalType": "uint256",
          "name": "",
          "type": "uint256"
        }
      ],
      "name": "chainPathIndexLookup",
      "outputs": [
        {
          "internalType": "uint256",
          "name": "",
          "type": "uint256"
        }
      ],
      "stateMutability": "view",
      "type": "function"
    },
    {
      "inputs": [
        {
          "internalType": "uint256",
          "name": "",
          "type": "uint256"
        }
      ],
      "name": "chainPaths",
      "outputs": [
        {
          "internalType": "bool",
          "name": "ready",
          "type": "bool"
        },
        {
          "internalType": "uint16",
          "name": "dstChainId",
          "type": "uint16"
        },
        {
          "internalType": "uint256",
          "name": "dstPoolId",
          "type": "uint256"
        },
        {
          "internalType": "uint256",
          "name": "weight",
          "type": "uint256"
        },
        {
          "internalType": "uint256",
          "name": "balance",
          "type": "uint256"
        },
        {
          "internalType": "uint256",
          "name": "lkb",
          "type": "uint256"
        },
        {
          "internalType": "uint256",
          "name": "credits",
          "type": "uint256"
        },
        {
          "internalType": "uint256",
          "name": "idealBalance",
          "type": "uint256"
        }
      ],
      "stateMutability": "view",
      "type": "function"
    },
    {
      "inputs": [],
      "name": "convertRate",
      "outputs": [
        {
          "internalType": "uint256",
          "name": "",
          "type": "uint256"
        }
      ],
      "stateMutability": "view",
      "type": "function"
    },
    {
      "inputs": [
        {
          "internalType": "uint16",
          "name": "_dstChainId",
          "type": "uint16"
        },
        {
          "internalType": "uint256",
          "name": "_dstPoolId",
          "type": "uint256"
        },
        {
          "internalType": "uint256",
          "name": "_weight",
          "type": "uint256"
        }
      ],
      "name": "createChainPath",
      "outputs": [],
      "stateMutability": "nonpayable",
      "type": "function"
    },
    {
      "inputs": [
        {
          "internalType": "uint16",
          "name": "_dstChainId",
          "type": "uint16"
        },
        {
          "internalType": "uint256",
          "name": "_dstPoolId",
          "type": "uint256"
        },
        {
          "components": [
            {
              "internalType": "uint256",
              "name": "credits",
              "type": "uint256"
            },
            {
              "internalType": "uint256",
              "name": "idealBalance",
              "type": "uint256"
            }
          ],
          "internalType": "struct Pool.CreditObj",
          "name": "_c",
          "type": "tuple"
        }
      ],
      "name": "creditChainPath",
      "outputs": [],
      "stateMutability": "nonpayable",
      "type": "function"
    },
    {
      "inputs": [],
      "name": "decimals",
      "outputs": [
        {
          "internalType": "uint256",
          "name": "",
          "type": "uint256"
        }
      ],
      "stateMutability": "view",
      "type": "function"
    },
    {
      "inputs": [
        {
          "internalType": "address",
          "name": "spender",
          "type": "address"
        },
        {
          "internalType": "uint256",
          "name": "subtractedValue",
          "type": "uint256"
        }
      ],
      "name": "decreaseAllowance",
      "outputs": [
        {
          "internalType": "bool",
          "name": "",
          "type": "bool"
        }
      ],
      "stateMutability": "nonpayable",
      "type": "function"
    },
    {
      "inputs": [],
      "name": "defaultLPMode",
      "outputs": [
        {
          "internalType": "bool",
          "name": "",
          "type": "bool"
        }
      ],
      "stateMutability": "view",
      "type": "function"
    },
    {
      "inputs": [],
      "name": "defaultSwapMode",
      "outputs": [
        {
          "internalType": "bool",
          "name": "",
          "type": "bool"
        }
      ],
      "stateMutability": "view",
      "type": "function"
    },
    {
      "inputs": [],
      "name": "deltaCredit",
      "outputs": [
        {
          "internalType": "uint256",
          "name": "",
          "type": "uint256"
        }
      ],
      "stateMutability": "view",
      "type": "function"
    },
    {
      "inputs": [],
      "name": "eqFeePool",
      "outputs": [
        {
          "internalType": "uint256",
          "name": "",
          "type": "uint256"
        }
      ],
      "stateMutability": "view",
      "type": "function"
    },
    {
      "inputs": [],
      "name": "feeLibrary",
      "outputs": [
        {
          "internalType": "address",
          "name": "",
          "type": "address"
        }
      ],
      "stateMutability": "view",
      "type": "function"
    },
    {
      "inputs": [
        {
          "internalType": "uint16",
          "name": "_dstChainId",
          "type": "uint16"
        },
        {
          "internalType": "uint256",
          "name": "_dstPoolId",
          "type": "uint256"
        }
      ],
      "name": "getChainPath",
      "outputs": [
        {
          "components": [
            {
              "internalType": "bool",
              "name": "ready",
              "type": "bool"
            },
            {
              "internalType": "uint16",
              "name": "dstChainId",
              "type": "uint16"
            },
            {
              "internalType": "uint256",
              "name": "dstPoolId",
              "type": "uint256"
            },
            {
              "internalType": "uint256",
              "name": "weight",
              "type": "uint256"
            },
            {
              "internalType": "uint256",
              "name": "balance",
              "type": "uint256"
            },
            {
              "internalType": "uint256",
              "name": "lkb",
              "type": "uint256"
            },
            {
              "internalType": "uint256",
              "name": "credits",
              "type": "uint256"
            },
            {
              "internalType": "uint256",
              "name": "idealBalance",
              "type": "uint256"
            }
          ],
          "internalType": "struct Pool.ChainPath",
          "name": "",
          "type": "tuple"
        }
      ],
      "stateMutability": "view",
      "type": "function"
    },
    {
      "inputs": [],
      "name": "getChainPathsLength",
      "outputs": [
        {
          "internalType": "uint256",
          "name": "",
          "type": "uint256"
        }
      ],
      "stateMutability": "view",
      "type": "function"
    },
    {
      "inputs": [
        {
          "internalType": "address",
          "name": "spender",
          "type": "address"
        },
        {
          "internalType": "uint256",
          "name": "addedValue",
          "type": "uint256"
        }
      ],
      "name": "increaseAllowance",
      "outputs": [
        {
          "internalType": "bool",
          "name": "",
          "type": "bool"
        }
      ],
      "stateMutability": "nonpayable",
      "type": "function"
    },
    {
      "inputs": [
        {
          "internalType": "address",
          "name": "_from",
          "type": "address"
        },
        {
          "internalType": "uint256",
          "name": "_amountLP",
          "type": "uint256"
        },
        {
          "internalType": "address",
          "name": "_to",
          "type": "address"
        }
      ],
      "name": "instantRedeemLocal",
      "outputs": [
        {
          "internalType": "uint256",
          "name": "amountSD",
          "type": "uint256"
        }
      ],
      "stateMutability": "nonpayable",
      "type": "function"
    },
    {
      "inputs": [],
      "name": "localDecimals",
      "outputs": [
        {
          "internalType": "uint256",
          "name": "",
          "type": "uint256"
        }
      ],
      "stateMutability": "view",
      "type": "function"
    },
    {
      "inputs": [],
      "name": "lpDeltaBP",
      "outputs": [
        {
          "internalType": "uint256",
          "name": "",
          "type": "uint256"
        }
      ],
      "stateMutability": "view",
      "type": "function"
    },
    {
      "inputs": [
        {
          "internalType": "address",
          "name": "_to",
          "type": "address"
        },
        {
          "internalType": "uint256",
          "name": "_amountLD",
          "type": "uint256"
        }
      ],
      "name": "mint",
      "outputs": [
        {
          "internalType": "uint256",
          "name": "",
          "type": "uint256"
        }
      ],
      "stateMutability": "nonpayable",
      "type": "function"
    },
    {
      "inputs": [],
      "name": "mintFeeBP",
      "outputs": [
        {
          "internalType": "uint256",
          "name": "",
          "type": "uint256"
        }
      ],
      "stateMutability": "view",
      "type": "function"
    },
    {
      "inputs": [],
      "name": "mintFeeBalance",
      "outputs": [
        {
          "internalType": "uint256",
          "name": "",
          "type": "uint256"
        }
      ],
      "stateMutability": "view",
      "type": "function"
    },
    {
      "inputs": [],
      "name": "name",
      "outputs": [
        {
          "internalType": "string",
          "name": "",
          "type": "string"
        }
      ],
      "stateMutability": "view",
      "type": "function"
    },
    {
      "inputs": [
        {
          "internalType": "address",
          "name": "",
          "type": "address"
        }
      ],
      "name": "nonces",
      "outputs": [
        {
          "internalType": "uint256",
          "name": "",
          "type": "uint256"
        }
      ],
      "stateMutability": "view",
      "type": "function"
    },
    {
      "inputs": [
        {
          "internalType": "address",
          "name": "owner",
          "type": "address"
        },
        {
          "internalType": "address",
          "name": "spender",
          "type": "address"
        },
        {
          "internalType": "uint256",
          "name": "value",
          "type": "uint256"
        },
        {
          "internalType": "uint256",
          "name": "deadline",
          "type": "uint256"
        },
        {
          "internalType": "uint8",
          "name": "v",
          "type": "uint8"
        },
        {
          "internalType": "bytes32",
          "name": "r",
          "type": "bytes32"
        },
        {
          "internalType": "bytes32",
          "name": "s",
          "type": "bytes32"
        }
      ],
      "name": "permit",
      "outputs": [],
      "stateMutability": "nonpayable",
      "type": "function"
    },
    {
      "inputs": [],
      "name": "poolId",
      "outputs": [
        {
          "internalType": "uint256",
          "name": "",
          "type": "uint256"
        }
      ],
      "stateMutability": "view",
      "type": "function"
    },
    {
      "inputs": [],
      "name": "protocolFeeBalance",
      "outputs": [
        {
          "internalType": "uint256",
          "name": "",
          "type": "uint256"
        }
      ],
      "stateMutability": "view",
      "type": "function"
    },
    {
      "inputs": [
        {
          "internalType": "address",
          "name": "_from",
          "type": "address"
        },
        {
          "internalType": "uint256",
          "name": "_amountLP",
          "type": "uint256"
        },
        {
          "internalType": "uint16",
          "name": "_dstChainId",
          "type": "uint16"
        },
        {
          "internalType": "uint256",
          "name": "_dstPoolId",
          "type": "uint256"
        },
        {
          "internalType": "bytes",
          "name": "_to",
          "type": "bytes"
        }
      ],
      "name": "redeemLocal",
      "outputs": [
        {
          "internalType": "uint256",
          "name": "amountSD",
          "type": "uint256"
        }
      ],
      "stateMutability": "nonpayable",
      "type": "function"
    },
    {
      "inputs": [
        {
          "internalType": "uint16",
          "name": "_srcChainId",
          "type": "uint16"
        },
        {
          "internalType": "uint256",
          "name": "_srcPoolId",
          "type": "uint256"
        },
        {
          "internalType": "address",
          "name": "_to",
          "type": "address"
        },
        {
          "internalType": "uint256",
          "name": "_amountSD",
          "type": "uint256"
        },
        {
          "internalType": "uint256",
          "name": "_amountToMintSD",
          "type": "uint256"
        }
      ],
      "name": "redeemLocalCallback",
      "outputs": [],
      "stateMutability": "nonpayable",
      "type": "function"
    },
    {
      "inputs": [
        {
          "internalType": "uint16",
          "name": "_srcChainId",
          "type": "uint16"
        },
        {
          "internalType": "uint256",
          "name": "_srcPoolId",
          "type": "uint256"
        },
        {
          "internalType": "uint256",
          "name": "_amountSD",
          "type": "uint256"
        }
      ],
      "name": "redeemLocalCheckOnRemote",
      "outputs": [
        {
          "internalType": "uint256",
          "name": "swapAmount",
          "type": "uint256"
        },
        {
          "internalType": "uint256",
          "name": "mintAmount",
          "type": "uint256"
        }
      ],
      "stateMutability": "nonpayable",
      "type": "function"
    },
    {
      "inputs": [
        {
          "internalType": "uint16",
          "name": "_dstChainId",
          "type": "uint16"
        },
        {
          "internalType": "uint256",
          "name": "_dstPoolId",
          "type": "uint256"
        },
        {
          "internalType": "address",
          "name": "_from",
          "type": "address"
        },
        {
          "internalType": "uint256",
          "name": "_amountLP",
          "type": "uint256"
        }
      ],
      "name": "redeemRemote",
      "outputs": [],
      "stateMutability": "nonpayable",
      "type": "function"
    },
    {
      "inputs": [],
      "name": "router",
      "outputs": [
        {
          "internalType": "address",
          "name": "",
          "type": "address"
        }
      ],
      "stateMutability": "view",
      "type": "function"
    },
    {
      "inputs": [
        {
          "internalType": "uint16",
          "name": "_dstChainId",
          "type": "uint16"
        },
        {
          "internalType": "uint256",
          "name": "_dstPoolId",
          "type": "uint256"
        }
      ],
      "name": "sendCredits",
      "outputs": [
        {
          "components": [
            {
              "internalType": "uint256",
              "name": "credits",
              "type": "uint256"
            },
            {
              "internalType": "uint256",
              "name": "idealBalance",
              "type": "uint256"
            }
          ],
          "internalType": "struct Pool.CreditObj",
          "name": "c",
          "type": "tuple"
        }
      ],
      "stateMutability": "nonpayable",
      "type": "function"
    },
    {
      "inputs": [
        {
          "internalType": "bool",
          "name": "_batched",
          "type": "bool"
        },
        {
          "internalType": "uint256",
          "name": "_swapDeltaBP",
          "type": "uint256"
        },
        {
          "internalType": "uint256",
          "name": "_lpDeltaBP",
          "type": "uint256"
        },
        {
          "internalType": "bool",
          "name": "_defaultSwapMode",
          "type": "bool"
        },
        {
          "internalType": "bool",
          "name": "_defaultLPMode",
          "type": "bool"
        }
      ],
      "name": "setDeltaParam",
      "outputs": [],
      "stateMutability": "nonpayable",
      "type": "function"
    },
    {
      "inputs": [
        {
          "internalType": "uint256",
          "name": "_mintFeeBP",
          "type": "uint256"
        }
      ],
      "name": "setFee",
      "outputs": [],
      "stateMutability": "nonpayable",
      "type": "function"
    },
    {
      "inputs": [
        {
          "internalType": "address",
          "name": "_feeLibraryAddr",
          "type": "address"
        }
      ],
      "name": "setFeeLibrary",
      "outputs": [],
      "stateMutability": "nonpayable",
      "type": "function"
    },
    {
      "inputs": [
        {
          "internalType": "bool",
          "name": "_swapStop",
          "type": "bool"
        }
      ],
      "name": "setSwapStop",
      "outputs": [],
      "stateMutability": "nonpayable",
      "type": "function"
    },
    {
      "inputs": [
        {
          "internalType": "uint16",
          "name": "_dstChainId",
          "type": "uint16"
        },
        {
          "internalType": "uint256",
          "name": "_dstPoolId",
          "type": "uint256"
        },
        {
          "internalType": "uint16",
          "name": "_weight",
          "type": "uint16"
        }
      ],
      "name": "setWeightForChainPath",
      "outputs": [],
      "stateMutability": "nonpayable",
      "type": "function"
    },
    {
      "inputs": [],
      "name": "sharedDecimals",
      "outputs": [
        {
          "internalType": "uint256",
          "name": "",
          "type": "uint256"
        }
      ],
      "stateMutability": "view",
      "type": "function"
    },
    {
      "inputs": [],
      "name": "stopSwap",
      "outputs": [
        {
          "internalType": "bool",
          "name": "",
          "type": "bool"
        }
      ],
      "stateMutability": "view",
      "type": "function"
    },
    {
      "inputs": [
        {
          "internalType": "uint16",
          "name": "_dstChainId",
          "type": "uint16"
        },
        {
          "internalType": "uint256",
          "name": "_dstPoolId",
          "type": "uint256"
        },
        {
          "internalType": "address",
          "name": "_from",
          "type": "address"
        },
        {
          "internalType": "uint256",
          "name": "_amountLD",
          "type": "uint256"
        },
        {
          "internalType": "uint256",
          "name": "_minAmountLD",
          "type": "uint256"
        },
        {
          "internalType": "bool",
          "name": "newLiquidity",
          "type": "bool"
        }
      ],
      "name": "swap",
      "outputs": [
        {
          "components": [
            {
              "internalType": "uint256",
              "name": "amount",
              "type": "uint256"
            },
            {
              "internalType": "uint256",
              "name": "eqFee",
              "type": "uint256"
            },
            {
              "internalType": "uint256",
              "name": "eqReward",
              "type": "uint256"
            },
            {
              "internalType": "uint256",
              "name": "lpFee",
              "type": "uint256"
            },
            {
              "internalType": "uint256",
              "name": "protocolFee",
              "type": "uint256"
            },
            {
              "internalType": "uint256",
              "name": "lkbRemove",
              "type": "uint256"
            }
          ],
          "internalType": "struct Pool.SwapObj",
          "name": "",
          "type": "tuple"
        }
      ],
      "stateMutability": "nonpayable",
      "type": "function"
    },
    {
      "inputs": [],
      "name": "swapDeltaBP",
      "outputs": [
        {
          "internalType": "uint256",
          "name": "",
          "type": "uint256"
        }
      ],
      "stateMutability": "view",
      "type": "function"
    },
    {
      "inputs": [
        {
          "internalType": "uint16",
          "name": "_srcChainId",
          "type": "uint16"
        },
        {
          "internalType": "uint256",
          "name": "_srcPoolId",
          "type": "uint256"
        },
        {
          "internalType": "address",
          "name": "_to",
          "type": "address"
        },
        {
          "components": [
            {
              "internalType": "uint256",
              "name": "amount",
              "type": "uint256"
            },
            {
              "internalType": "uint256",
              "name": "eqFee",
              "type": "uint256"
            },
            {
              "internalType": "uint256",
              "name": "eqReward",
              "type": "uint256"
            },
            {
              "internalType": "uint256",
              "name": "lpFee",
              "type": "uint256"
            },
            {
              "internalType": "uint256",
              "name": "protocolFee",
              "type": "uint256"
            },
            {
              "internalType": "uint256",
              "name": "lkbRemove",
              "type": "uint256"
            }
          ],
          "internalType": "struct Pool.SwapObj",
          "name": "_s",
          "type": "tuple"
        }
      ],
      "name": "swapRemote",
      "outputs": [
        {
          "internalType": "uint256",
          "name": "amountLD",
          "type": "uint256"
        }
      ],
      "stateMutability": "nonpayable",
      "type": "function"
    },
    {
      "inputs": [],
      "name": "symbol",
      "outputs": [
        {
          "internalType": "string",
          "name": "",
          "type": "string"
        }
      ],
      "stateMutability": "view",
      "type": "function"
    },
    {
      "inputs": [],
      "name": "token",
      "outputs": [
        {
          "internalType": "address",
          "name": "",
          "type": "address"
        }
      ],
      "stateMutability": "view",
      "type": "function"
    },
    {
      "inputs": [],
      "name": "totalLiquidity",
      "outputs": [
        {
          "internalType": "uint256",
          "name": "",
          "type": "uint256"
        }
      ],
      "stateMutability": "view",
      "type": "function"
    },
    {
      "inputs": [],
      "name": "totalSupply",
      "outputs": [
        {
          "internalType": "uint256",
          "name": "",
          "type": "uint256"
        }
      ],
      "stateMutability": "view",
      "type": "function"
    },
    {
      "inputs": [],
      "name": "totalWeight",
      "outputs": [
        {
          "internalType": "uint256",
          "name": "",
          "type": "uint256"
        }
      ],
      "stateMutability": "view",
      "type": "function"
    },
    {
      "inputs": [
        {
          "internalType": "address",
          "name": "to",
          "type": "address"
        },
        {
          "internalType": "uint256",
          "name": "value",
          "type": "uint256"
        }
      ],
      "name": "transfer",
      "outputs": [
        {
          "internalType": "bool",
          "name": "",
          "type": "bool"
        }
      ],
      "stateMutability": "nonpayable",
      "type": "function"
    },
    {
      "inputs": [
        {
          "internalType": "address",
          "name": "from",
          "type": "address"
        },
        {
          "internalType": "address",
          "name": "to",
          "type": "address"
        },
        {
          "internalType": "uint256",
          "name": "value",
          "type": "uint256"
        }
      ],
      "name": "transferFrom",
      "outputs": [
        {
          "internalType": "bool",
          "name": "",
          "type": "bool"
        }
      ],
      "stateMutability": "nonpayable",
      "type": "function"
    },
    {
      "inputs": [
        {
          "internalType": "address",
          "name": "_to",
          "type": "address"
        }
      ],
      "name": "withdrawMintFeeBalance",
      "outputs": [],
      "stateMutability": "nonpayable",
      "type": "function"
    },
    {
      "inputs": [
        {
          "internalType": "address",
          "name": "_to",
          "type": "address"
        }
      ],
      "name": "withdrawProtocolFeeBalance",
      "outputs": [],
      "stateMutability": "nonpayable",
      "type": "function"
    }
  ],
  "bytecode": {
    "object": "0x61010060409080825234620006fb57620043de803803809162000023828562000700565b833981019061010081830312620006fb57805191620000456020830162000724565b6200005285840162000724565b6060840151916080850151936200006c60a0870162000724565b60c08701519096906001600160401b038111620006fb57826200009191830162000739565b60e08201519092906001600160401b038111620006fb57620000b4920162000739565b815190916001600160401b038211620004a5578190620000d6600054620007b0565b601f811162000698575b50602090601f8311600114620006205760009262000614575b50508160011b916000199060031b1c1916176000555b8051906001600160401b038211620004a557819062000130600154620007b0565b601f8111620005b0575b50602090601f831160011462000536576000926200052a575b50508160011b916000199060031b1c1916176001555b865160009060005491816200017e84620007b0565b9182825260208201946001811690816000146200050c5750600114620004bb575b620001ad9250038262000700565b51902087519096908089016001600160401b03811182821017620004a557895260018152603160f81b60209182015288517f8b73c3c69bb8fe3d512ecc4cf759cc79239f7b179b0ffacaa9a75d522b39400f918101918252808a01989098527fc89efdaa54c0f20c7adf612882df0950f5a951637e0307cdcb4c672f298b8bc660608901524660808901523060a0808a0191909152885260c08801906001600160401b03821189831017620004a557818a528851902060025560016008556001600160a01b03978489161562000461575050868216156200041d5760805260e05260c05280600b5560ff811660035581600c5581039081116200040757604d81116200040757600a0a60a0526000600f551660018060a01b031960145416176014556201010062ffffff19601654161760165551613bb09081620007ee82396080518181816121a30152612739015260a0518181816102d5015281816103dd015281816109de01528181610c6f01528181610ce301528181611be701528181611f340152818161201e015281816126e50152612d10015260c05181818161031301528181610a1001528181610c970152818161194f01528181611f660152612d38015260e05181818161037601528181610495015281816105e40152818161097e01528181610ad301528181610bf701528181610f31015281816112e10152818161139601528181611897015281816119e101528181611ac001528181611b9b01528181611cbc01528181611df201528181611ed401528181611fc6015281816123b30152818161269001528181612c6b0152612e800152f35b634e487b7160e01b600052601160045260246000fd5b875162461bcd60e51b815260206004820152601f60248201527f53746172676174653a205f726f757465722063616e6e6f7420626520307830006044820152606490fd5b62461bcd60e51b8252602060c4820152601e60e48201527f53746172676174653a205f746f6b656e2063616e6e6f7420626520307830000061010490910152606490fd5b634e487b7160e01b600052604160045260246000fd5b50600080805290916000805160206200439e8339815191525b818310620004ef575050906020620001ad928201016200019f565b6020919350806001915483858801015201910190918392620004d4565b60ff1916865250620001ad92151560051b820160200190506200019f565b01519050388062000153565b60016000908152600080516020620043be8339815191529350601f198516905b8181106200059757509084600195949392106200057d575b505050811b0160015562000169565b015160001960f88460031b161c191690553880806200056e565b9293602060018192878601518155019501930162000556565b6001600052909150600080516020620043be833981519152601f840160051c8101916020851062000609575b90601f859493920160051c01905b818110620005f957506200013a565b60008155849350600101620005ea565b9091508190620005dc565b015190503880620000f9565b60008080526000805160206200439e8339815191529350601f198516905b8181106200067f575090846001959493921062000665575b505050811b016000556200010f565b015160001960f88460031b161c1916905538808062000656565b929360206001819287860151815501950193016200063e565b600080529091506000805160206200439e833981519152601f840160051c81019160208510620006f0575b90601f859493920160051c01905b818110620006e05750620000e0565b60008155849350600101620006d1565b9091508190620006c3565b600080fd5b601f909101601f19168101906001600160401b03821190821017620004a557604052565b51906001600160a01b0382168203620006fb57565b919080601f84011215620006fb578251906001600160401b038211620004a5576040519160209162000775601f8301601f191684018562000700565b818452828287010111620006fb5760005b8181106200079c57508260009394955001015290565b858101830151848201840152820162000786565b90600182811c92168015620007e2575b6020831014620007cc57565b634e487b7160e01b600052602260045260246000fd5b91607f1691620007c056fe608080604052600436101561001357600080fd5b60003560e01c9081621edfab146130075750806306fdde0314612f4b57806308e9d8c214612e0e578063095ea7b314612de85780630986b61a14612c245780630a22d68c14612c0657806315770f9214612be8578063159f6add14612aed578063163ef49014612acf57806318160ddd14612ab15780631b7319b6146126115780631e8e51da146125f357806320d6bc751461239c57806323b872dd146122f557806327f92376146122d257806328f079c2146122ac57806330adf81f14612271578063313ce5671461225357806336448777146122355780633644e5151461221757806339509351146121c65780633e0dc34e1461218b57806340c10f1914611f8a578063476efe4014611eb55780634b5cacbc14611dca57806364c5f02d14611d8757806365152f2b14611d6957806369fe0e2d14611ca257806370a0823114611c685780637298a5dc14611b2d5780637ecebe0014611af35780637fb6526514611a9e578063857749b014611a805780638bd86d0a146119bf578063902b8ab7146117ca57806395d89b41146116c757806396c82e57146116a957806399a22d68146116835780639bb8111914611665578063a138ed6b14611503578063a457c2d71461143a578063a9059cbb14611409578063a985565f14611346578063abe685cd14611329578063ac2cc36b1461129f578063b0fab0bc14610ea8578063b30daeac14610bad578063b633b36414610b8a578063b6addec714610a51578063be3102941461095f578063cdfed0ab14610941578063d505accf1461073a578063dd62ed3e146106e9578063e065608b146105a2578063e46e705814610584578063ea89e2aa1461046b578063f6cd35ee146103a5578063f887ea4014610360578063faa24f0714610342578063fc0c546a146102fd5763feb56b15146102bd57600080fd5b346102f85760003660031901126102f85760206040517f00000000000000000000000000000000000000000000000000000000000000008152f35b600080fd5b346102f85760003660031901126102f8576040517f00000000000000000000000000000000000000000000000000000000000000006001600160a01b03168152602090f35b346102f85760003660031901126102f8576020601054604051908152f35b346102f85760003660031901126102f8576040517f00000000000000000000000000000000000000000000000000000000000000006001600160a01b03168152602090f35b346102f85760203660031901126102f857600454801561040a576104026103db6020926103d6600e54600435613b07565b613b1a565b7f000000000000000000000000000000000000000000000000000000000000000090613b07565b604051908152f35b60405162461bcd60e51b815260206004820152603360248201527f53746172676174653a2063616e7420636f6e76657274204c50746f53442077686044820152720656e20746f74616c537570706c79203d3d203606c1b6064820152608490fd5b346102f857604061047b3661315e565b61048a600260085414156132ba565b60026008556104c3337f00000000000000000000000000000000000000000000000000000000000000006001600160a01b031614613306565b60036104cf83856134de565b019182549384831160001461054b5783945060006105117f44d3575fd94f9e0a41d7ebbc7e952f9b615c3f8d1faf924e1e9e98c0edf0d3809495548096613412565b9495555b855161ffff91909116815260208101919091526040810184905260608101839052608090a1600160085582519182526020820152f35b92610579837f44d3575fd94f9e0a41d7ebbc7e952f9b615c3f8d1faf924e1e9e98c0edf0d380949396613412565b905592600092610515565b346102f85760003660031901126102f8576020600c54604051908152f35b346102f85760a03660031901126102f8576105bb61314f565b60243590604435916064358015158091036102f857608435908115158092036102f857610612337f00000000000000000000000000000000000000000000000000000000000000006001600160a01b031614613306565b6127108084111590816106de575b5015610699577f7cc11124872dc29ed41dd447ee7ab07d9eee5d8ebb55f65dd92bce19bb20224a9460a094151593601654816017558260185562ff00008560101b169060ff87169062ffffff19161761ff008560081b1617176016556040519485526020850152604084015260608301526080820152a1005b60405162461bcd60e51b815260206004820152601b60248201527f53746172676174653a2077726f6e672044656c746120706172616d00000000006044820152606490fd5b905085111586610620565b346102f85760403660031901126102f85761070261310d565b61070a613139565b9060018060a01b038091166000526006602052604060002091166000526020526020604060002054604051908152f35b346102f85760e03660031901126102f85761075361310d565b61075b613139565b6044359060643560843560ff81168091036102f85742821061090a576002549060018060a01b03918287169384600052600760205260406000208054906107a182613295565b90556040519160208301917f6e71edae12b1b97f4d1f60370fef10105fa2faae0126114a169c64845d6126c98352876040850152868916606085015289608085015260a084015260c083015260c0825260e082019167ffffffffffffffff91818410838511176108f457836040528151902061010082019461190160f01b865261010283015261012282015260428352610160810191838310908311176108f45760209460009460809484604052519020835261018082015260a4356101a08201526101c060c43591015282805260015afa156108e857600051169081151591826108de575b50501561089957610897926131d4565b005b60405162461bcd60e51b815260206004820152601960248201527f4272696467653a20494e56414c49445f5349474e4154555245000000000000006044820152606490fd5b1490508480610887565b6040513d6000823e3d90fd5b634e487b7160e01b600052604160045260246000fd5b60405162461bcd60e51b815260206004820152600f60248201526e109c9a5919d94e8811561412549151608a1b6044820152606490fd5b346102f85760003660031901126102f8576020601754604051908152f35b346102f85760203660031901126102f85761097861310d565b6109ac337f00000000000000000000000000000000000000000000000000000000000000006001600160a01b031614613306565b60115490816109b757005b610a037f70dc5a44816033bea80f836440f4b1fe1b3bb06b568c8dc2301901f03bf237c7927f000000000000000000000000000000000000000000000000000000000000000090613b07565b906000601155610a3482827f0000000000000000000000000000000000000000000000000000000000000000613980565b604080516001600160a01b039290921682526020820192909252a1005b346102f85760803660031901126102f857610a6a6130eb565b60243560403660431901126102f8577fdbdd25248751feb2f3b66721dfdd11662a68bc155af3771e661aabec92fba81491610b78604051610aaa8161302b565b604435815260208101906064358252610ac8600260085414156132ba565b6002600855610b01337f00000000000000000000000000000000000000000000000000000000000000006001600160a01b031614613306565b61ffff8416600052600a6020526040600020856000526020526006610b2a604060002054613183565b5060038101610b3c8154855190613afa565b90550191825490519283809203610b82575b505051604051948594859094939260609261ffff6080840197168352602083015260408201520152565b0390a16001600855005b558187610b4e565b346102f85760003660031901126102f857602060ff600d54166040519015158152f35b346102f85760a03660031901126102f857610bc66130eb565b610bce613123565b60643590608435610be4600260085414156132ba565b60026008556001600160a01b03610c1e337f0000000000000000000000000000000000000000000000000000000000000000831614613306565b81610ce0575b50610b78906004610c597fa97166013ecf5305dd9a58d6d867f05e646d4275f52d2bd52a5c7f00a690ad1b96602435906134de565b01610c65858254613412565b9055610cbb610c947f000000000000000000000000000000000000000000000000000000000000000086613b07565b847f0000000000000000000000000000000000000000000000000000000000000000613980565b60405193849384604091949392606082019560018060a01b0316825260208201520152565b907f0000000000000000000000000000000000000000000000000000000000000000610d0c8183613b07565b92600f5415610e63577fa97166013ecf5305dd9a58d6d867f05e646d4275f52d2bd52a5c7f00a690ad1b967fb4c03061fb5b7fed76389d5af8f2e0ddb09f8c70d1333abbb62582835e10accb6080610c5993610d6d600496610b7899613b1a565b908190875480610e41575b83610d9191610d8985600e54613afa565b600e55613afa565b88558a1691826000526005602052610dae81604060002054613afa565b836000526005602052604060002055826000600080516020613b3b8339815191526020604051858152a36040519283526020830152604082015260006060820152a160165460ff8116158015610e24575b610e0f575b509650505090610c24565b60ff610e1e9160101c1661373b565b88610e04565b50601554612710610e3a600e5460185490613b07565b0410610dff565b92610e5b610e5285610d9193613b07565b600e5490613b1a565b939050610d78565b60405162461bcd60e51b815260206004820152601d60248201527f53746172676174653a204e6f20436861696e50617468732065786973740000006044820152606490fd5b346102f85760a03660031901126102f857610ec161310d565b60243590610ecd6130fc565b67ffffffffffffffff6084356064358282116102f857366023830112156102f85781600401359283116102f85736602484840101116102f857600294610f178660085414156132ba565b6008869055610fa28761ffff6001600160a01b03610f58337f0000000000000000000000000000000000000000000000000000000000000000831614613306565b841697610f668915156133c6565b169283600052600a602052604060002085600052602052610f9d600160ff610f92604060002054613183565b505416151514613369565b61357f565b9560ff60165416158015611282575b611023575b509280602460e094600080516020613b5b833981519152979460209a9760405198899788528c8801528a60408801526060870152608086015260c060a08601528260c086015201848401376000828201840152601f01601f19168101030190a16001600855604051908152f35b60159081549081151580611277575b61103e575b5050610fb6565b6009549061104b8261370f565b906110596040519283613080565b828252601f196110688461370f565b01366020840137600e54600f5460009290835b8681106111f95750505050600093816110ca575b5050505060e094600080516020613b5b83398151915297948794846110bb60249560209e9b9754613412565b905594979a5094975094611037565b8111611168575060005b8281106111155750505060e094600080516020613b5b8339815191529794879460209b98946110bb6024955b95505094989b82979a5083985081965061108f565b8061112361112d9284613727565b5161113257613295565b6110d4565b61113b81613183565b5094611161600561115761114f8588613727565b518094613afa565b9701918254613afa565b9055613295565b9060005b83811061119d575050505060e094600080516020613b5b8339815191529794879460209b98946110bb602495611100565b806111ab6111b59284613727565b516111ba57613295565b61116c565b6111c381613183565b509561116160056111ef6111e8886103d68d6111df898c613727565b51905490613b07565b8094613afa565b9801918254613afa565b61120281613183565b50611228611217846103d68785015489613b07565b916005600482015491015490613afa565b90818111611241575b505061123c90613295565b61107b565b9561125361126f9261123c9498613412565b61125d888a613727565b526112688789613727565b5190613afa565b949038611231565b50600f541515611032565b50601554612710611298600e5460185490613b07565b0410610fb1565b346102f85760203660031901126102f8577f59a9350977452c5240699f57f18b5915cd0440a56f08820a38b9f2432a82ba3e60206112db61314f565b61130f337f00000000000000000000000000000000000000000000000000000000000000006001600160a01b031614613306565b151560ff19600d541660ff821617600d55604051908152a1005b346102f85760003660031901126102f85760206040516127108152f35b346102f85760603660031901126102f8577f8fb3b21a941c2361df46475f9ae2f7b5dac5de7bd085fa22415ec0bb30c77e2260606113826130eb565b6113f16024356113906130fc565b6113c4337f00000000000000000000000000000000000000000000000000000000000000006001600160a01b031614613306565b6113ce82856134de565b6113e16002600f54920191825490613412565b9061ffff80931694858093613afa565b600f55556040519316835260208301526040820152a1005b346102f85760403660031901126102f85761142f61142561310d565b602435903361322b565b602060405160018152f35b346102f85760403660031901126102f85761145361310d565b60243590336000526006602052604060002060018060a01b03821660005260205260406000205491604051926060840184811067ffffffffffffffff8211176108f457604052602584527f45524332303a2064656372656173656420616c6c6f77616e63652062656c6f77602085015264207a65726f60d81b60408501528082116114e55761142f93500390336131d4565b60405162461bcd60e51b8152806114ff86600483016130a2565b0390fd5b346102f85760203660031901126102f8576004356009548110156102f857600761010091600960005202807f6e1540171b6c0c960b71a7020d9f60077f6af931a8bbf590da0223dacf75c7af0154907f6e1540171b6c0c960b71a7020d9f60077f6af931a8bbf590da0223dacf75c7b0810154907f6e1540171b6c0c960b71a7020d9f60077f6af931a8bbf590da0223dacf75c7b18101547f6e1540171b6c0c960b71a7020d9f60077f6af931a8bbf590da0223dacf75c7b28201547f6e1540171b6c0c960b71a7020d9f60077f6af931a8bbf590da0223dacf75c7b3830154917f6e1540171b6c0c960b71a7020d9f60077f6af931a8bbf590da0223dacf75c7b57f6e1540171b6c0c960b71a7020d9f60077f6af931a8bbf590da0223dacf75c7b48501549401549461ffff6040519760ff81161515895260081c16602088015260408701526060860152608085015260a084015260c083015260e0820152f35b346102f85760003660031901126102f8576020601354604051908152f35b346102f85760003660031901126102f857602060ff60165460081c166040519015158152f35b346102f85760003660031901126102f8576020600f54604051908152f35b346102f85760003660031901126102f857604051600090600180549081811c908083169283156117c0575b60209384841081146117aa5783865290811561178a5750600114611731575b61172d8461172181880382613080565b604051918291826130a2565b0390f35b60008181529294507fb10e2d527612073b26eecdfd717e6a320cf44b4afac2b0732d9fcbe2b7fa0cf65b828410611777575050508161172d936117219282010193611711565b805485850187015292850192810161175b565b60ff1916858501525050151560051b82010191506117218161172d611711565b634e487b7160e01b600052602260045260246000fd5b91607f16916116f2565b346102f8576101203660031901126102f8576117e46130eb565b6117ec613123565b9060c03660631901126102f8576040519060c082019082821067ffffffffffffffff8311176108f4576020937ffb2b592367452f1c437675bed47f5e1e6c25188c17d7ba01a12eb030bc41ccef9260405260643584526119af858501608435815261197c6040870160a43581526060880160c435815261ffff60808a019760e43589526118d060a08c019361010435855261188c600260085414156132ba565b60026008556118c5337f00000000000000000000000000000000000000000000000000000000000000006001600160a01b031614613306565b600e54905190613afa565b600e556118e1601354875190613afa565b6013556118f26011548a5190613afa565b60115516600052600a8a5260406000206024356000528a52600461193461192e604060002054938361192386613183565b500154905190613412565b92613183565b5001556119476103db8951835190613afa565b9761197389877f0000000000000000000000000000000000000000000000000000000000000000613980565b51905190613afa565b93519051604080516001600160a01b03909516855260208501959095529383015260608201929092529081906080820190565b0390a16001600855604051908152f35b346102f85760403660031901126102f857611a186119db6130eb565b611a0f337f00000000000000000000000000000000000000000000000000000000000000006001600160a01b031614613306565b602435906134de565b805460ff8116611a2d5760ff19166001179055005b60405162461bcd60e51b815260206004820152602560248201527f53746172676174653a20636861696e5061746820697320616c72656164792061604482015264637469766560d81b6064820152608490fd5b346102f85760003660031901126102f8576020600b54604051908152f35b346102f85760203660031901126102f857610897611aba61314f565b611aee337f00000000000000000000000000000000000000000000000000000000000000006001600160a01b031614613306565b61373b565b346102f85760203660031901126102f8576001600160a01b03611b1461310d565b1660005260076020526020604060002054604051908152f35b346102f85760803660031901126102f8577fa33f5c0b76f00f6737b1780a8a7f18e19c3fe8fe9ee01a6c1b8ce1eae5ed54f960a0611b696130eb565b611b71613123565b606435611b83600260085414156132ba565b6002600855611c0c611bd082600180881b03611bc2817f0000000000000000000000000000000000000000000000000000000000000000163314613306565b851694610f9d8615156133c6565b60165460ff8116158015611c4b575b611c36575b507f000000000000000000000000000000000000000000000000000000000000000090613b07565b9161ffff604051941684526024356020850152604084015260608301526080820152a16001600855005b60ff611c459160101c1661373b565b87611be4565b50601554612710611c61600e5460185490613b07565b0410611bdf565b346102f85760203660031901126102f8576001600160a01b03611c8961310d565b1660005260056020526020604060002054604051908152f35b346102f85760203660031901126102f857600435611cea337f00000000000000000000000000000000000000000000000000000000000000006001600160a01b031614613306565b6127108111611d24576020817f9fe6eeb0f0541c644a56c67efeb872dbadd803a60b909d7dde1b35a3fe230b0e92601055604051908152a1005b60405162461bcd60e51b815260206004820152601760248201527f4272696467653a2063756d2066656573203e20313030250000000000000000006044820152606490fd5b346102f85760003660031901126102f8576020601254604051908152f35b346102f85760403660031901126102f85761ffff611da36130eb565b16600052600a60205260406000206024356000526020526020604060002054604051908152f35b346102f85760203660031901126102f857611de361310d565b6001600160a01b0390611e19337f0000000000000000000000000000000000000000000000000000000000000000841614613306565b168015611e66576020817f5138b884a20454b6db937b9e11c8534e02e708750e0c465df6cd9701622952ce926bffffffffffffffffffffffff60a01b6014541617601455604051908152a1005b60405162461bcd60e51b815260206004820152602160248201527f53746172676174653a20666565206c6962726172792063616e742062652030786044820152600360fc1b6064820152608490fd5b346102f85760203660031901126102f857611ece61310d565b611f02337f00000000000000000000000000000000000000000000000000000000000000006001600160a01b031614613306565b6012549081611f0d57005b611f597f87b3b2749102aa96f2d08396e34cd47673e57148af9cfff965d99bc0378a87dc927f000000000000000000000000000000000000000000000000000000000000000090613b07565b906000601255610a3482827f0000000000000000000000000000000000000000000000000000000000000000613980565b346102f85760403660031901126102f857611fa361310d565b611fb2600260085414156132ba565b60026008556001600160a01b0390611fed337f0000000000000000000000000000000000000000000000000000000000000000841614613306565b600f5415610e63576020917fb4c03061fb5b7fed76389d5af8f2e0ddb09f8c70d1333abbb62582835e10accb6120457f0000000000000000000000000000000000000000000000000000000000000000602435613b1a565b91612710926120628461205a60105484613b07565b048092613412565b9461206f82601254613afa565b60125561207e86601554613afa565b6015558591600454938461216c575b6120a384612112949596610d898b600e54613afa565b600455831680600052600589526120bf85604060002054613afa565b8160005260058a526040600020556000600080516020613b3b8339815191528a604051888152a3866040519485948590949392606092608083019660018060a01b03168352602083015260408201520152565b0390a16016549060ff82161590811561214f575b5061213a575b506001600855604051908152f35b60ff6121499160101c1661373b565b8261212c565b905060155490612164600e5460185490613b07565b041084612126565b6121129293506120a3612182610e52878b613b07565b9493505061208d565b346102f85760003660031901126102f85760206040517f00000000000000000000000000000000000000000000000000000000000000008152f35b346102f85760403660031901126102f85761142f6121e261310d565b336000526006602052604060002060018060a01b038216600052602052612210602435604060002054613afa565b90336131d4565b346102f85760003660031901126102f8576020600254604051908152f35b346102f85760003660031901126102f8576020601854604051908152f35b346102f85760003660031901126102f8576020600354604051908152f35b346102f85760003660031901126102f85760206040517f6e71edae12b1b97f4d1f60370fef10105fa2faae0126114a169c64845d6126c98152f35b346102f85760003660031901126102f857602060ff60165460101c166040519015158152f35b346102f85760003660031901126102f857602060ff601654166040519015158152f35b346102f85760603660031901126102f85761230e61310d565b612352612319613139565b6044359060018060a01b03841693846000526020946006865260406000203360005286526000196040600020540361235b575b5061322b565b60405160018152f35b8060005260068652604060002033600052865261237d84604060002054613412565b906000526006865260406000203360005286526040600020558561234c565b346102f8576123aa3661315e565b9091906123e1337f00000000000000000000000000000000000000000000000000000000000000006001600160a01b031614613306565b6009549160005b83811061252f575061ffff9061240083600f54613afa565b600f55169081600052600a602052604060002084600052602052826040600020556040519361242e85613047565b60008552602085019383855260408601958287526060810191848352608082016000815260a083016000815260c08401916000835260e085019360008552680100000000000000008110156108f45780600161248d9201600955613183565b969096612519577f8fb3b21a941c2361df46475f9ae2f7b5dac5de7bd085fa22415ec0bb30c77e229b60609b6006975115159062ffff0060ff8b549316918260ff198516178c555160081b169162ffffff1916171788555160018801555160028701555160038601555160048501555160058401555191015560405192835260208301526040820152a1005b634e487b7160e01b600052600060045260246000fd5b61254161253b82613183565b5061341f565b61ffff90866020928084840151169086161491826125e5575b505061256f575061256a90613295565b6123e8565b60a4906040519062461bcd60e51b825260048201527f53746172676174653a2063616e7420637265617465436861696e50617468206f60448060248401528201527f66206578697374696e6720647374436861696e496420616e64205f647374506f6064820152631bdb125960e21b6084820152fd5b60400151149050868861255a565b346102f85760003660031901126102f8576020601554604051908152f35b346102f85760c03660031901126102f85761262a6130eb565b612632613123565b9060a435151560a435036102f857600060a060405161265081613064565b828152826020820152826040820152826060820152826080820152015261267c600260085414156132ba565b60026008556001600160a01b03906126b7337f0000000000000000000000000000000000000000000000000000000000000000841614613306565b60ff600d5416612a6c576000916126d0602435836134de565b916126e3600160ff855416151514613369565b7f00000000000000000000000000000000000000000000000000000000000000009461271d61271487606435613b1a565b96608435613b1a565b60c0846014541660a4604051809981936301ab624360e41b83527f00000000000000000000000000000000000000000000000000000000000000006004840152602435602484015261ffff8916604484015289881660648401528c60848401525af19586156108e8576000966129f7575b506127a0601354604088015190613412565b6013556127de6127d06127c56127ba60208a01518b613412565b60808a015190613412565b606089015190613412565b808852604088015190613afa565b106129b2576127ff6127f4606087015188613412565b604087015190613afa565b928360a0870152600385015493841061296d5760c0967f34660fc8af304464529f48a778e03d03e4d34bcd5f9b6f0cfbf3cd238c642f7f95600361284b6101009760a08b015190613412565b91015560a435156129465761286561287091601554613afa565b604088015190613afa565b6015555b60165460ff8116158015612928575b612913575b508551604087015160208801519160808901519360608a01519561ffff6040519816885260243560208901521660408701526060860152608085015260a08401528683015260e0820152a1600160085560a0604051918051835260208101516020840152604081015160408401526060810151606084015260808101516080840152015160a0820152f35b60ff6129229160081c1661373b565b87612888565b5060155461271061293e600e5460175490613b07565b041115612883565b50604086015180612958575b50612874565b61296490601554613afa565b60155587612952565b60405162461bcd60e51b815260206004820152601d60248201527f53746172676174653a206473742062616c616e636520746f6f206c6f770000006044820152606490fd5b60405162461bcd60e51b815260206004820152601b60248201527f53746172676174653a20736c69707061676520746f6f206869676800000000006044820152606490fd5b90955060c0813d60c011612a64575b81612a1360c09383613080565b810103126102f85760a060405191612a2a83613064565b8051835260208101516020840152604081015160408401526060810151606084015260808101516080840152015160a0820152948761278e565b3d9150612a06565b60405162461bcd60e51b815260206004820152601b60248201527f53746172676174653a20737761702066756e632073746f7070656400000000006044820152606490fd5b346102f85760003660031901126102f8576020600454604051908152f35b346102f85760003660031901126102f8576020600954604051908152f35b346102f85760403660031901126102f857610100612b096130eb565b60e0602435600082604051612b1d81613047565b8281528260208201528260408201528260608201528260808201528260a08201528260c0820152015261ffff8093169283600052600a602052604060002082600052602052612b8e612b7661253b604060002054613183565b92602084019583875116149081612bda575b50613481565b604051938251151585525116602084015260408101516040840152606081015160608401526080810151608084015260a081015160a084015260c081015160c0840152015160e0820152f35b905060408401511487612b88565b346102f85760003660031901126102f8576020600e54604051908152f35b346102f85760003660031901126102f8576020601154604051908152f35b346102f85760603660031901126102f857612c3d61310d565b602435612c48613123565b90612c58600260085414156132ba565b60026008556001600160a01b03612c92337f0000000000000000000000000000000000000000000000000000000000000000831614613306565b819080851690612ca38215156133c6565b60155494600e54938415612d8a576020977f2125a70154569bd1686edd3cf981bb23dea7c1fa1637909dbb3c9a967cb0c2f296612ce86080976103d66004548c613b07565b809111612d80575b50612cfe82612d059261357f565b8098613412565b601555612d5c612d357f000000000000000000000000000000000000000000000000000000000000000089613b07565b837f0000000000000000000000000000000000000000000000000000000000000000613980565b60405193845287840152856040840152166060820152a16001600855604051908152f35b9150612cfe612cf0565b60405162461bcd60e51b815260206004820152603060248201527f53746172676174653a2063616e7420636f6e76657274205344746f4c5020776860448201526f0656e20746f74616c4c6971203d3d20360841b6064820152608490fd5b346102f85760403660031901126102f85761142f612e0461310d565b60243590336131d4565b346102f85760403660031901126102f8576040612e296130eb565b8151907f6939f93e3f21cf1362eb17155b740277de5687dae9a83a85909fd71da95944e7602435612e598461302b565b60008452602084019260008452612e75600260085414156132ba565b6002600855612eae337f00000000000000000000000000000000000000000000000000000000000000006001600160a01b031614613306565b612f35612ebb83836134de565b612ecd600160ff835416151514613369565b60048101906000612f07612efe8454936005810195612eee87548097613afa565b90556002600e5491015490613b07565b600f5490613b1a565b92838952828a52558851948594859094939260609261ffff6080840197168352602083015260408201520152565b0390a16001600855825191518252516020820152f35b346102f85760003660031901126102f857604051600090600054600181811c90808316928315612ffd575b60209384841081146117aa5783865290811561178a5750600114612fa45761172d8461172181880382613080565b60008080529294507f290decd9548b62a8d60345a988386fc84ba6bc95484008f6362f93160ef3e5635b828410612fea575050508161172d936117219282010193611711565b8054858501870152928501928101612fce565b91607f1691612f76565b346102f85760003660031901126102f8576014546001600160a01b03168152602090f35b6040810190811067ffffffffffffffff8211176108f457604052565b610100810190811067ffffffffffffffff8211176108f457604052565b60c0810190811067ffffffffffffffff8211176108f457604052565b90601f8019910116810190811067ffffffffffffffff8211176108f457604052565b6020808252825181830181905290939260005b8281106130d757505060409293506000838284010152601f8019910116010190565b8181018601518482016040015285016130b5565b6004359061ffff821682036102f857565b6044359061ffff821682036102f857565b600435906001600160a01b03821682036102f857565b604435906001600160a01b03821682036102f857565b602435906001600160a01b03821682036102f857565b6004359081151582036102f857565b60609060031901126102f85760043561ffff811681036102f857906024359060443590565b6009548110156131be576007906009600052027f6e1540171b6c0c960b71a7020d9f60077f6af931a8bbf590da0223dacf75c7af0190600090565b634e487b7160e01b600052603260045260246000fd5b909160207f8c5be1e5ebec7d5bd14f71427d1e84f3dd0314c0f7b2291e5b200ac8c7c3b9259160018060a01b03809416938460005260068352604060002095169485600052825280604060002055604051908152a3565b90916020600080516020613b3b8339815191529160018060a01b038094169360009585875260058452613262836040892054613412565b868852600585526040882055169485815260406132828382842054613afa565b91878152600585522055604051908152a3565b60001981146132a45760010190565b634e487b7160e01b600052601160045260246000fd5b156132c157565b60405162461bcd60e51b815260206004820152601f60248201527f5265656e7472616e637947756172643a207265656e7472616e742063616c6c006044820152606490fd5b1561330d57565b60405162461bcd60e51b815260206004820152602e60248201527f53746172676174653a206f6e6c792074686520726f757465722063616e20636160448201526d1b1b081d1a1a5cc81b595d1a1bd960921b6064820152608490fd5b1561337057565b60405162461bcd60e51b815260206004820152602860248201527f53746172676174653a20636f756e74657220636861696e50617468206973206e6044820152676f7420726561647960c01b6064820152608490fd5b156133cd57565b60405162461bcd60e51b815260206004820152601d60248201527f53746172676174653a205f66726f6d2063616e6e6f74206265203078300000006044820152606490fd5b919082039182116132a457565b9060405161342c81613047565b60e06006829461ffff815460ff81161515865260081c166020850152600181015460408501526002810154606085015260038101546080850152600481015460a0850152600581015460c08501520154910152565b1561348857565b60405162461bcd60e51b815260206004820152602860248201527f53746172676174653a206c6f63616c20636861696e5061746820646f6573206e6044820152671bdd08195e1a5cdd60c21b6064820152608490fd5b906009541561353a576135299061ffff80931680600052600a602052604060002082600052602052613514604060002054613183565b5093845460081c1614908161352c5750613481565b90565b905060018301541438612b88565b60405162461bcd60e51b815260206004820152601d60248201527f53746172676174653a206e6f20636861696e70617468732065786973740000006044820152606490fd5b60045480156136b8576001600160a01b03821660008181526005602052604080822054909290861161366557927f49995e5dd6158cf69ad3e9777c46755a1a826a446c6416992167462dad033b2a949261365f926135f297956135e9600e54946103d6868a613b07565b98898095613412565b600e55808252600560205261360a8784842054613412565b81835260056020528383205561362287600454613412565b600455600080516020613b3b83398151915260208451898152a35193849384604091949392606082019560018060a01b0316825260208201520152565b0390a190565b825162461bcd60e51b815260206004820152602660248201527f53746172676174653a206e6f7420656e6f756768204c5020746f6b656e7320746044820152653790313ab93760d11b6064820152608490fd5b60405162461bcd60e51b815260206004820152602960248201527f53746172676174653a2063616e74206275726e207768656e20746f74616c5375604482015268070706c79203d3d20360bc1b6064820152608490fd5b67ffffffffffffffff81116108f45760051b60200190565b80518210156131be5760209160051b010190565b60159081549081151580613975575b61375357505050565b600954906137608261370f565b9061376e6040519283613080565b828252601f1961377d8461370f565b0136602084013760009182600e5493600f948554915b87811061390e57505050600095811560001461381a5750505080613810575b6137c9575b50506137c5905b8254613412565b9055565b60005b8281106137d957506137b7565b806137e661380b92613183565b509461116160056111576111e86138038b5460028c015490613b07565b885490613b1a565b6137cc565b50835415156137b2565b919392909182116138e157156138b657613835908654613412565b9160005b84811061384e5750505050506137c5906137be565b8061385c6138669284613727565b5161386b57613295565b613839565b61387481613183565b509661116160056138ac6111e88b6138a661389e60026138948a8d613727565b519301548d613b07565b8b5490613b1a565b90613afa565b9901918254613afa565b505060005b8281106138ce575050506137c5906137be565b806111236138dc9284613727565b6138bb565b50919050835b8381106138fb57505050506137c5906137be565b806111ab6139099284613727565b6138e7565b61391781613183565b5061392d611217856103d6600285015487613b07565b90818111613946575b505061394190613295565b613793565b9461395861396d926139419497613412565b6139628789613727565b526112688688613727565b939038613936565b50600f54151561374a565b6139ef91604051936139918561302b565b601985527f7472616e7366657228616464726573732c75696e74323536290000000000000060209586015260405163a9059cbb60e01b8187019081526001600160a01b03909316602482015260448101919091529283906064820190565b0392613a03601f1994858101835282613080565b600092839283809351925af1913d15613af2573d67ffffffffffffffff8111613ade57613a3a8560405193601f8401160183613080565b81523d828583013e5b82613a97575b505015613a535750565b6064906040519062461bcd60e51b82526004820152601960248201527f53746172676174653a205452414e534645525f4641494c4544000000000000006044820152fd5b8051925082159190848315613ab3575b50505090503880613a49565b919381809450010312613ada57820151908115158203613ad7575080388084613aa7565b80fd5b5080fd5b634e487b7160e01b83526041600452602483fd5b506060613a43565b919082018092116132a457565b818102929181159184041417156132a457565b8115613b24570490565b634e487b7160e01b600052601260045260246000fdfeddf252ad1be2c89b69c2b068fc378daa952ba7f163c4a11628f55a4df523b3ef53c03ee0722b52efeb42444f48d90173854501b3de3c590fcb445743377115c2a2646970667358221220fb60deff61f19243ed5eb2cc5de8a5909f7fad0f3a99a7be33dcc80438ce3f0764736f6c63430008110033290decd9548b62a8d60345a988386fc84ba6bc95484008f6362f93160ef3e563b10e2d527612073b26eecdfd717e6a320cf44b4afac2b0732d9fcbe2b7fa0cf6",
    "linkReferences": {}
  },
  "methodIdentifiers": {
    "BP_DENOMINATOR()": "abe685cd",
    "DOMAIN_SEPARATOR()": "3644e515",
    "PERMIT_TYPEHASH()": "30adf81f",
    "activateChainPath(uint16,uint256)": "8bd86d0a",
    "allowance(address,address)": "dd62ed3e",
    "amountLPtoLD(uint256)": "f6cd35ee",
    "approve(address,uint256)": "095ea7b3",
    "balanceOf(address)": "70a08231",
    "batched()": "27f92376",
    "callDelta(bool)": "7fb65265",
    "chainPathIndexLookup(uint16,uint256)": "64c5f02d",
    "chainPaths(uint256)": "a138ed6b",
    "convertRate()": "feb56b15",
    "createChainPath(uint16,uint256,uint256)": "20d6bc75",
    "creditChainPath(uint16,uint256,(uint256,uint256))": "b6addec7",
    "decimals()": "313ce567",
    "decreaseAllowance(address,uint256)": "a457c2d7",
    "defaultLPMode()": "28f079c2",
    "defaultSwapMode()": "99a22d68",
    "deltaCredit()": "1e8e51da",
    "eqFeePool()": "9bb81119",
    "feeLibrary()": "001edfab",
    "getChainPath(uint16,uint256)": "159f6add",
    "getChainPathsLength()": "163ef490",
    "increaseAllowance(address,uint256)": "39509351",
    "instantRedeemLocal(address,uint256,address)": "0986b61a",
    "localDecimals()": "e46e7058",
    "lpDeltaBP()": "36448777",
    "mint(address,uint256)": "40c10f19",
    "mintFeeBP()": "faa24f07",
    "mintFeeBalance()": "65152f2b",
    "name()": "06fdde03",
    "nonces(address)": "7ecebe00",
    "permit(address,address,uint256,uint256,uint8,bytes32,bytes32)": "d505accf",
    "poolId()": "3e0dc34e",
    "protocolFeeBalance()": "0a22d68c",
    "redeemLocal(address,uint256,uint16,uint256,bytes)": "b0fab0bc",
    "redeemLocalCallback(uint16,uint256,address,uint256,uint256)": "b30daeac",
    "redeemLocalCheckOnRemote(uint16,uint256,uint256)": "ea89e2aa",
    "redeemRemote(uint16,uint256,address,uint256)": "7298a5dc",
    "router()": "f887ea40",
    "sendCredits(uint16,uint256)": "08e9d8c2",
    "setDeltaParam(bool,uint256,uint256,bool,bool)": "e065608b",
    "setFee(uint256)": "69fe0e2d",
    "setFeeLibrary(address)": "4b5cacbc",
    "setSwapStop(bool)": "ac2cc36b",
    "setWeightForChainPath(uint16,uint256,uint16)": "a985565f",
    "sharedDecimals()": "857749b0",
    "stopSwap()": "b633b364",
    "swap(uint16,uint256,address,uint256,uint256,bool)": "1b7319b6",
    "swapDeltaBP()": "cdfed0ab",
    "swapRemote(uint16,uint256,address,(uint256,uint256,uint256,uint256,uint256,uint256))": "902b8ab7",
    "symbol()": "95d89b41",
    "token()": "fc0c546a",
    "totalLiquidity()": "15770f92",
    "totalSupply()": "18160ddd",
    "totalWeight()": "96c82e57",
    "transfer(address,uint256)": "a9059cbb",
    "transferFrom(address,address,uint256)": "23b872dd",
    "withdrawMintFeeBalance(address)": "476efe40",
    "withdrawProtocolFeeBalance(address)": "be310294"
  },
  "id": 143
}