{
  "address": "0xDEEDBbE1EFda491193A64f3169a388AD7af3E364",
  "abi": [
    {
      "inputs": [
        {
          "internalType": "address",
          "name": "_lzEndpoint",
          "type": "address"
        }
      ],
      "stateMutability": "nonpayable",
      "type": "constructor"
    },
    {
      "inputs": [],
      "name": "NoZeroAddress",
      "type": "error"
    },
    {
      "anonymous": false,
      "inputs": [
        {
          "indexed": false,
          "internalType": "address",
          "name": "ercAddress",
          "type": "address"
        },
        {
          "indexed": false,
          "internalType": "address",
          "name": "toAddress",
          "type": "address"
        },
        {
          "indexed": false,
          "internalType": "uint256",
          "name": "tokenId",
          "type": "uint256"
        },
        {
          "indexed": false,
          "internalType": "bytes",
          "name": "payload",
          "type": "bytes"
        },
        {
          "indexed": false,
          "internalType": "address",
          "name": "onftaddress",
          "type": "address"
        }
      ],
      "name": "LzReceive",
      "type": "event"
    },
    {
      "anonymous": false,
      "inputs": [
        {
          "indexed": false,
          "internalType": "uint16",
          "name": "_srcChainId",
          "type": "uint16"
        },
        {
          "indexed": false,
          "internalType": "bytes",
          "name": "_srcAddress",
          "type": "bytes"
        },
        {
          "indexed": false,
          "internalType": "uint64",
          "name": "_nonce",
          "type": "uint64"
        },
        {
          "indexed": false,
          "internalType": "bytes",
          "name": "_payload",
          "type": "bytes"
        }
      ],
      "name": "MessageFailed",
      "type": "event"
    },
    {
      "anonymous": false,
      "inputs": [
        {
          "indexed": true,
          "internalType": "address",
          "name": "previousOwner",
          "type": "address"
        },
        {
          "indexed": true,
          "internalType": "address",
          "name": "newOwner",
          "type": "address"
        }
      ],
      "name": "OwnershipTransferred",
      "type": "event"
    },
    {
      "anonymous": false,
      "inputs": [
        {
          "indexed": false,
          "internalType": "address",
          "name": "account",
          "type": "address"
        }
      ],
      "name": "Paused",
      "type": "event"
    },
    {
      "anonymous": false,
      "inputs": [
        {
          "indexed": true,
          "internalType": "uint16",
          "name": "_srcChainId",
          "type": "uint16"
        },
        {
          "indexed": true,
          "internalType": "bytes",
          "name": "_srcAddress",
          "type": "bytes"
        },
        {
          "indexed": true,
          "internalType": "address",
          "name": "_toAddress",
          "type": "address"
        },
        {
          "indexed": false,
          "internalType": "uint256",
          "name": "_tokenId",
          "type": "uint256"
        },
        {
          "indexed": false,
          "internalType": "uint64",
          "name": "_nonce",
          "type": "uint64"
        }
      ],
      "name": "ReceiveFromChain",
      "type": "event"
    },
    {
      "anonymous": false,
      "inputs": [
        {
          "indexed": true,
          "internalType": "address",
          "name": "_sender",
          "type": "address"
        },
        {
          "indexed": true,
          "internalType": "uint16",
          "name": "_dstChainId",
          "type": "uint16"
        },
        {
          "indexed": true,
          "internalType": "bytes",
          "name": "_toAddress",
          "type": "bytes"
        },
        {
          "indexed": false,
          "internalType": "uint256",
          "name": "_tokenId",
          "type": "uint256"
        },
        {
          "indexed": false,
          "internalType": "uint64",
          "name": "_nonce",
          "type": "uint64"
        }
      ],
      "name": "SendToChain",
      "type": "event"
    },
    {
      "anonymous": false,
      "inputs": [
        {
          "indexed": false,
          "internalType": "uint16",
          "name": "_srcChainId",
          "type": "uint16"
        },
        {
          "indexed": false,
          "internalType": "bytes",
          "name": "_srcAddress",
          "type": "bytes"
        }
      ],
      "name": "SetTrustedRemote",
      "type": "event"
    },
    {
      "anonymous": false,
      "inputs": [
        {
          "indexed": false,
          "internalType": "address",
          "name": "account",
          "type": "address"
        }
      ],
      "name": "Unpaused",
      "type": "event"
    },
    {
      "inputs": [
        {
          "internalType": "address",
          "name": "",
          "type": "address"
        }
      ],
      "name": "collectionLockedCounter",
      "outputs": [
        {
          "internalType": "uint256",
          "name": "",
          "type": "uint256"
        }
      ],
      "stateMutability": "view",
      "type": "function"
    },
    {
      "inputs": [
        {
          "internalType": "uint16",
          "name": "",
          "type": "uint16"
        },
        {
          "internalType": "bytes",
          "name": "",
          "type": "bytes"
        },
        {
          "internalType": "uint256",
          "name": "",
          "type": "uint256"
        }
      ],
      "name": "failedMessages",
      "outputs": [
        {
          "internalType": "bytes32",
          "name": "",
          "type": "bytes32"
        }
      ],
      "stateMutability": "view",
      "type": "function"
    },
    {
      "inputs": [
        {
          "internalType": "uint16",
          "name": "_srcChainId",
          "type": "uint16"
        },
        {
          "internalType": "bytes",
          "name": "_srcAddress",
          "type": "bytes"
        }
      ],
      "name": "forceResumeReceive",
      "outputs": [],
      "stateMutability": "nonpayable",
      "type": "function"
    },
    {
      "inputs": [
        {
          "internalType": "uint16",
          "name": "",
          "type": "uint16"
        },
        {
          "internalType": "uint16",
          "name": "_chainId",
          "type": "uint16"
        },
        {
          "internalType": "address",
          "name": "",
          "type": "address"
        },
        {
          "internalType": "uint256",
          "name": "_configType",
          "type": "uint256"
        }
      ],
      "name": "getConfig",
      "outputs": [
        {
          "internalType": "bytes",
          "name": "",
          "type": "bytes"
        }
      ],
      "stateMutability": "view",
      "type": "function"
    },
    {
      "inputs": [],
      "name": "getLzEndpoint",
      "outputs": [
        {
          "internalType": "address",
          "name": "",
          "type": "address"
        }
      ],
      "stateMutability": "view",
      "type": "function"
    },
    {
      "inputs": [
        {
          "internalType": "uint16",
          "name": "_chainId",
          "type": "uint16"
        }
      ],
      "name": "getTrustedRemote",
      "outputs": [
        {
          "internalType": "bytes",
          "name": "",
          "type": "bytes"
        }
      ],
      "stateMutability": "view",
      "type": "function"
    },
    {
      "inputs": [
        {
          "internalType": "uint16",
          "name": "_srcChainId",
          "type": "uint16"
        },
        {
          "internalType": "bytes",
          "name": "_srcAddress",
          "type": "bytes"
        }
      ],
      "name": "isTrustedRemote",
      "outputs": [
        {
          "internalType": "bool",
          "name": "",
          "type": "bool"
        }
      ],
      "stateMutability": "view",
      "type": "function"
    },
    {
      "inputs": [
        {
          "internalType": "uint16",
          "name": "_srcChainId",
          "type": "uint16"
        },
        {
          "internalType": "bytes",
          "name": "_srcAddress",
          "type": "bytes"
        },
        {
          "internalType": "uint64",
          "name": "_nonce",
          "type": "uint64"
        },
        {
          "internalType": "bytes",
          "name": "_payload",
          "type": "bytes"
        }
      ],
      "name": "lzReceive",
      "outputs": [],
      "stateMutability": "nonpayable",
      "type": "function"
    },
    {
      "inputs": [
        {
          "internalType": "uint16",
          "name": "_srcChainId",
          "type": "uint16"
        },
        {
          "internalType": "bytes",
          "name": "_srcAddress",
          "type": "bytes"
        },
        {
          "internalType": "uint64",
          "name": "_nonce",
          "type": "uint64"
        },
        {
          "internalType": "bytes",
          "name": "_payload",
          "type": "bytes"
        }
      ],
      "name": "nonblockingLzReceive",
      "outputs": [],
      "stateMutability": "nonpayable",
      "type": "function"
    },
    {
      "inputs": [
        {
          "internalType": "address",
          "name": "",
          "type": "address"
        },
        {
          "internalType": "address",
          "name": "",
          "type": "address"
        },
        {
          "internalType": "uint256[]",
          "name": "",
          "type": "uint256[]"
        },
        {
          "internalType": "uint256[]",
          "name": "",
          "type": "uint256[]"
        },
        {
          "internalType": "bytes",
          "name": "",
          "type": "bytes"
        }
      ],
      "name": "onERC1155BatchReceived",
      "outputs": [
        {
          "internalType": "bytes4",
          "name": "",
          "type": "bytes4"
        }
      ],
      "stateMutability": "nonpayable",
      "type": "function"
    },
    {
      "inputs": [
        {
          "internalType": "address",
          "name": "",
          "type": "address"
        },
        {
          "internalType": "address",
          "name": "",
          "type": "address"
        },
        {
          "internalType": "uint256",
          "name": "",
          "type": "uint256"
        },
        {
          "internalType": "uint256",
          "name": "",
          "type": "uint256"
        },
        {
          "internalType": "bytes",
          "name": "",
          "type": "bytes"
        }
      ],
      "name": "onERC1155Received",
      "outputs": [
        {
          "internalType": "bytes4",
          "name": "",
          "type": "bytes4"
        }
      ],
      "stateMutability": "nonpayable",
      "type": "function"
    },
    {
      "inputs": [
        {
          "internalType": "address",
          "name": "",
          "type": "address"
        }
      ],
      "name": "originAddresses",
      "outputs": [
        {
          "internalType": "address",
          "name": "",
          "type": "address"
        }
      ],
      "stateMutability": "view",
      "type": "function"
    },
    {
      "inputs": [],
      "name": "owner",
      "outputs": [
        {
          "internalType": "address",
          "name": "",
          "type": "address"
        }
      ],
      "stateMutability": "view",
      "type": "function"
    },
    {
      "inputs": [],
      "name": "paused",
      "outputs": [
        {
          "internalType": "bool",
          "name": "",
          "type": "bool"
        }
      ],
      "stateMutability": "view",
      "type": "function"
    },
    {
      "inputs": [
        {
          "internalType": "address",
          "name": "",
          "type": "address"
        }
      ],
      "name": "persistentAddresses",
      "outputs": [
        {
          "internalType": "address",
          "name": "",
          "type": "address"
        }
      ],
      "stateMutability": "view",
      "type": "function"
    },
    {
      "inputs": [],
      "name": "renounceOwnership",
      "outputs": [],
      "stateMutability": "nonpayable",
      "type": "function"
    },
    {
      "inputs": [
        {
          "internalType": "uint16",
          "name": "_srcChainId",
          "type": "uint16"
        },
        {
          "internalType": "bytes",
          "name": "_srcAddress",
          "type": "bytes"
        },
        {
          "internalType": "uint64",
          "name": "_nonce",
          "type": "uint64"
        },
        {
          "internalType": "bytes",
          "name": "_payload",
          "type": "bytes"
        }
      ],
      "name": "retryMessage",
      "outputs": [],
      "stateMutability": "payable",
      "type": "function"
    },
    {
      "inputs": [
        {
          "internalType": "uint16",
          "name": "_version",
          "type": "uint16"
        },
        {
          "internalType": "uint16",
          "name": "_chainId",
          "type": "uint16"
        },
        {
          "internalType": "uint256",
          "name": "_configType",
          "type": "uint256"
        },
        {
          "internalType": "bytes",
          "name": "_config",
          "type": "bytes"
        }
      ],
      "name": "setConfig",
      "outputs": [],
      "stateMutability": "nonpayable",
      "type": "function"
    },
    {
      "inputs": [
        {
          "internalType": "uint16",
          "name": "_version",
          "type": "uint16"
        }
      ],
      "name": "setReceiveVersion",
      "outputs": [],
      "stateMutability": "nonpayable",
      "type": "function"
    },
    {
      "inputs": [
        {
          "internalType": "uint16",
          "name": "_version",
          "type": "uint16"
        }
      ],
      "name": "setSendVersion",
      "outputs": [],
      "stateMutability": "nonpayable",
      "type": "function"
    },
    {
      "inputs": [
        {
          "internalType": "uint16",
          "name": "_srcChainId",
          "type": "uint16"
        },
        {
          "internalType": "bytes",
          "name": "_srcAddress",
          "type": "bytes"
        }
      ],
      "name": "setTrustedRemote",
      "outputs": [],
      "stateMutability": "nonpayable",
      "type": "function"
    },
    {
      "inputs": [
        {
          "internalType": "bytes4",
          "name": "interfaceId",
          "type": "bytes4"
        }
      ],
      "name": "supportsInterface",
      "outputs": [
        {
          "internalType": "bool",
          "name": "",
          "type": "bool"
        }
      ],
      "stateMutability": "view",
      "type": "function"
    },
    {
      "inputs": [
        {
          "internalType": "address",
          "name": "newOwner",
          "type": "address"
        }
      ],
      "name": "transferOwnership",
      "outputs": [],
      "stateMutability": "nonpayable",
      "type": "function"
    },
    {
      "inputs": [
        {
          "internalType": "address",
          "name": "_persistentAddress",
          "type": "address"
        },
        {
          "internalType": "uint256",
          "name": "_tokenId",
          "type": "uint256"
        },
        {
          "internalType": "uint256",
          "name": "_amount",
          "type": "uint256"
        }
      ],
      "name": "withdraw",
      "outputs": [],
      "stateMutability": "nonpayable",
      "type": "function"
    },
    {
      "inputs": [
        {
          "internalType": "uint16",
          "name": "_dstChainId",
          "type": "uint16"
        },
        {
          "internalType": "address",
          "name": "_erc1155Address",
          "type": "address"
        },
        {
          "internalType": "uint256",
          "name": "_tokenId",
          "type": "uint256"
        },
        {
          "internalType": "uint256",
          "name": "_amount",
          "type": "uint256"
        },
        {
          "internalType": "bytes",
          "name": "_adapterParams",
          "type": "bytes"
        }
      ],
      "name": "wrap",
      "outputs": [],
      "stateMutability": "payable",
      "type": "function"
    }
  ],
  "transactionHash": "0x01248921ce5b2ee8df75db6ce4f7820a3f140f2dc7f588125599cadef422792d",
  "args": [
    "0xbfD2135BFfbb0B5378b56643c2Df8a87552Bfa23"
  ],
  "numDeployments": 1,
  "solcInputHash": "93485ec91ff11af20b37a5769300313a",
  "bytecode": "0x60a06040523480156200001157600080fd5b50604051620046a9380380620046a98339810160408190526200003491620000b3565b8080620000413362000063565b60601b6001600160601b03191660805250506003805460ff19169055620000e3565b600080546001600160a01b038381166001600160a01b0319831681178455604051919092169283917f8be0079c531659141344cd1fd0a4f28419497f9722a3daafe3b4186f6b6457e09190a35050565b600060208284031215620000c5578081fd5b81516001600160a01b0381168114620000dc578182fd5b9392505050565b60805160601c61456f6200013a6000396000818161051a015281816105e101528181610764015281816108140152818161096701528181610cbe01528181610fd40152818161134101526119a9015261456f6000f3fe608060405260043610620001835760003560e01c8063715018a611620000e2578063cbed8b9c1162000095578063eb8d72b7116200006c578063eb8d72b7146200053f578063f23a6e611462000564578063f2fde38b1462000594578063f5ecbdbc14620005b957600080fd5b8063cbed8b9c14620004ce578063d1deba1f14620004f3578063dacbcbe2146200050a57600080fd5b8063715018a6146200039a5780638da5cb5b14620003b25780638ee7491214620003d2578063b5c5f6721462000425578063bc197c81146200044a578063c7fb871e146200049457600080fd5b80633d8b38f6116200013b5780633d8b38f614620002c657806342d65a8d14620002eb5780635c975abb146200031057806366ad5c8a146200032a578063681aa12b146200034f57806369b41f95146200036657600080fd5b80621d3567146200018857806301ffc9a714620001af57806307e0db1714620001e957806310ddb137146200020e57806315d4901e1462000233578063227fecb01462000273575b600080fd5b3480156200019557600080fd5b50620001ad620001a7366004620020fe565b620005de565b005b348015620001bc57600080fd5b50620001d4620001ce36600462001ea0565b620006f0565b60405190151581526020015b60405180910390f35b348015620001f657600080fd5b50620001ad6200020836600462001f52565b6200071e565b3480156200021b57600080fd5b50620001ad6200022d36600462001f52565b620007ce565b3480156200024057600080fd5b50620002646200025236600462001ca9565b60066020526000908152604090205481565b604051908152602001620001e0565b3480156200028057600080fd5b50620002ad6200029236600462001ca9565b6004602052600090815260409020546001600160a01b031681565b6040516001600160a01b039091168152602001620001e0565b348015620002d357600080fd5b50620001d4620002e536600462001fb5565b6200084c565b348015620002f857600080fd5b50620001ad6200030a36600462001fb5565b62000923565b3480156200031d57600080fd5b5060035460ff16620001d4565b3480156200033757600080fd5b50620001ad62000349366004620020fe565b620009db565b620001ad6200036036600462001f90565b62000a3a565b3480156200037357600080fd5b506200038b6200038536600462001f52565b62000dc0565b604051620001e091906200244c565b348015620003a757600080fd5b50620001ad62000e6f565b348015620003bf57600080fd5b506000546001600160a01b0316620002ad565b348015620003df57600080fd5b5062000264620003f13660046200200d565b6002602090815260009384526040808520845180860184018051928152908401958401959095209452929052825290205481565b3480156200043257600080fd5b50620001ad6200044436600462001e69565b62000eaa565b3480156200045757600080fd5b506200047a6200046936600462001d44565b63bc197c8160e01b95945050505050565b6040516001600160e01b03199091168152602001620001e0565b348015620004a157600080fd5b50620002ad620004b336600462001ca9565b6005602052600090815260409020546001600160a01b031681565b348015620004db57600080fd5b50620001ad620004ed366004620021e3565b62000f90565b620001ad6200050436600462002069565b62001043565b3480156200051757600080fd5b507f0000000000000000000000000000000000000000000000000000000000000000620002ad565b3480156200054c57600080fd5b50620001ad6200055e36600462001fb5565b620011f7565b3480156200057157600080fd5b506200047a6200058336600462001dfb565b63f23a6e6160e01b95945050505050565b348015620005a157600080fd5b50620001ad620005b336600462001ca9565b62001287565b348015620005c657600080fd5b506200038b620005d83660046200218c565b62001329565b337f00000000000000000000000000000000000000000000000000000000000000006001600160a01b0316146200061457600080fd5b61ffff841660009081526001602052604090208054620006349062002783565b9050835114801562000676575061ffff8416600090815260016020526040908190209051620006649190620022f3565b60405180910390208380519060200120145b620006dc5760405162461bcd60e51b815260206004820152602b60248201527f4c7a52656365697665723a20696e76616c696420736f757263652073656e646960448201526a1b99c818dbdb9d1c9858dd60aa1b60648201526084015b60405180910390fd5b620006ea8484848462001467565b50505050565b60006001600160e01b0319821663dddf575960e01b1480620007185750620007188262001562565b92915050565b6000546001600160a01b031633146200074b5760405162461bcd60e51b8152600401620006d39062002461565b6040516307e0db1760e01b815261ffff821660048201527f00000000000000000000000000000000000000000000000000000000000000006001600160a01b0316906307e0db17906024015b600060405180830381600087803b158015620007b257600080fd5b505af1158015620007c7573d6000803e3d6000fd5b5050505050565b6000546001600160a01b03163314620007fb5760405162461bcd60e51b8152600401620006d39062002461565b6040516310ddb13760e01b815261ffff821660048201527f00000000000000000000000000000000000000000000000000000000000000006001600160a01b0316906310ddb1379060240162000797565b61ffff8316600090815260016020526040812080548291906200086f9062002783565b80601f01602080910402602001604051908101604052809291908181526020018280546200089d9062002783565b8015620008ee5780601f10620008c257610100808354040283529160200191620008ee565b820191906000526020600020905b815481529060010190602001808311620008d057829003601f168201915b50505050509050838360405162000907929190620022c5565b60405180910390208180519060200120149150505b9392505050565b6000546001600160a01b03163314620009505760405162461bcd60e51b8152600401620006d39062002461565b6040516342d65a8d60e01b81526001600160a01b037f000000000000000000000000000000000000000000000000000000000000000016906342d65a8d90620009a290869086908690600401620024ee565b600060405180830381600087803b158015620009bd57600080fd5b505af1158015620009d2573d6000803e3d6000fd5b50505050505050565b33301462000a2c5760405162461bcd60e51b815260206004820181905260248201527f4c7a52656365697665723a2063616c6c6572206d757374206265204c7a4170706044820152606401620006d3565b620006ea8484848462001599565b6001600160a01b03841662000a625760405163ddbadd5f60e01b815260040160405180910390fd5b6001600160a01b03848116600090815260056020526040812054606092161562000b8957506001600160a01b03858116600081815260056020526040908190205490516303a24d0760e21b815260048101889052921691630e89341c9060240160006040518083038186803b15801562000adb57600080fd5b505afa15801562000af0573d6000803e3d6000fd5b505050506040513d6000823e601f3d908101601f1916820160405262000b1a919081019062001f1c565b604051637a94c56560e11b81529092506001600160a01b0387169063f5298aca9062000b4f903390899089906004016200242b565b600060405180830381600087803b15801562000b6a57600080fd5b505af115801562000b7f573d6000803e3d6000fd5b5050505062000c77565b50604051637921219560e11b815285906001600160a01b0382169063f242432a9062000bc090339030908a908a90600401620023f3565b600060405180830381600087803b15801562000bdb57600080fd5b505af115801562000bf0573d6000803e3d6000fd5b50506040516303a24d0760e21b8152600481018890526001600160a01b0389169250630e89341c915060240160006040518083038186803b15801562000c3557600080fd5b505afa15801562000c4a573d6000803e3d6000fd5b505050506040513d6000823e601f3d908101601f1916820160405262000c74919081019062001f1c565b91505b6000813384888860405160200162000c949594939291906200236a565b60408051601f198184030181529082905263040a7bb160e41b825291506000906001600160a01b037f000000000000000000000000000000000000000000000000000000000000000016906340a7bb109062000cfd908c903090879087908c9060040162002496565b604080518083038186803b15801562000d1557600080fd5b505afa15801562000d2a573d6000803e3d6000fd5b505050506040513d601f19601f8201168201806040525081019062000d5091906200224a565b5090508034101562000da55760405162461bcd60e51b815260206004820152601760248201527f496e73756666696369656e742066656520616d6f756e740000000000000000006044820152606401620006d3565b62000db5898333600089620018f2565b505050505050505050565b61ffff8116600090815260016020526040902080546060919062000de49062002783565b80601f016020809104026020016040519081016040528092919081815260200182805462000e129062002783565b801562000e635780601f1062000e375761010080835404028352916020019162000e63565b820191906000526020600020905b81548152906001019060200180831162000e4557829003601f168201915b50505050509050919050565b6000546001600160a01b0316331462000e9c5760405162461bcd60e51b8152600401620006d39062002461565b62000ea8600062001a05565b565b6001600160a01b038381166000908152600560205260409020541662000ee35760405163ddbadd5f60e01b815260040160405180910390fd5b604051637a94c56560e11b81526001600160a01b0384169063f5298aca9062000f15903390869086906004016200242b565b600060405180830381600087803b15801562000f3057600080fd5b505af115801562000f45573d6000803e3d6000fd5b5050506001600160a01b0380851660009081526005602052604090819020549051637921219560e11b81529116915063f242432a90620009a2903090339087908790600401620023f3565b6000546001600160a01b0316331462000fbd5760405162461bcd60e51b8152600401620006d39062002461565b6040516332fb62e760e21b81526001600160a01b037f0000000000000000000000000000000000000000000000000000000000000000169063cbed8b9c9062001013908890889088908890889060040162002687565b600060405180830381600087803b1580156200102e57600080fd5b505af115801562000db5573d6000803e3d6000fd5b61ffff8516600090815260026020526040808220905162001066908790620022d5565b90815260408051602092819003830190206001600160401b03871660009081529252902054905080620010dc5760405162461bcd60e51b815260206004820152601d60248201527f4c7a52656365697665723a206e6f2073746f726564206d6573736167650000006044820152606401620006d3565b808383604051620010ef929190620022c5565b604051809103902014620011465760405162461bcd60e51b815260206004820152601b60248201527f4c7a52656365697665723a20696e76616c6964207061796c6f616400000000006044820152606401620006d3565b61ffff8616600090815260026020526040808220905162001169908890620022d5565b9081526040805191829003602090810183206001600160401b038916600090815291522091909155633356ae4560e11b815230906366ad5c8a90620011bb90899089908990899089906004016200250e565b600060405180830381600087803b158015620011d657600080fd5b505af1158015620011eb573d6000803e3d6000fd5b50505050505050505050565b6000546001600160a01b03163314620012245760405162461bcd60e51b8152600401620006d39062002461565b61ffff831660009081526001602052604090206200124490838362001a55565b507ffa41487ad5d6728f0b19276fa1eddc16558578f5109fc39d2dc33c3230470dab8383836040516200127a93929190620024ee565b60405180910390a1505050565b6000546001600160a01b03163314620012b45760405162461bcd60e51b8152600401620006d39062002461565b6001600160a01b0381166200131b5760405162461bcd60e51b815260206004820152602660248201527f4f776e61626c653a206e6577206f776e657220697320746865207a65726f206160448201526564647265737360d01b6064820152608401620006d3565b620013268162001a05565b50565b6040516304b2b47b60e11b81523060048201526060907f00000000000000000000000000000000000000000000000000000000000000006001600160a01b03169063f5ecbdbc90829063096568f69060240160206040518083038186803b1580156200139457600080fd5b505afa158015620013a9573d6000803e3d6000fd5b505050506040513d601f19601f82011682018060405250810190620013cf919062001f71565b6040516001600160e01b031960e084901b16815261ffff918216600482015290871660248201523060448201526064810185905260840160006040518083038186803b1580156200141f57600080fd5b505afa15801562001434573d6000803e3d6000fd5b505050506040513d6000823e601f3d908101601f191682016040526200145e919081019062001eca565b95945050505050565b604051633356ae4560e11b815230906366ad5c8a906200149290879087908790879060040162002551565b600060405180830381600087803b158015620014ad57600080fd5b505af1925050508015620014bf575060015b620006ea578080519060200120600260008661ffff1661ffff16815260200190815260200160002084604051620014f79190620022d5565b9081526040805191829003602090810183206001600160401b0387166000908152915220919091557fe6f254030bcb01ffd20558175c13fcaed6d1520be7becee4c961b65f79243b0d906200155490869086908690869062002551565b60405180910390a1620006ea565b60006001600160e01b03198216630271189760e51b14806200071857506301ffc9a760e01b6001600160e01b031983161462000718565b600080600080600085806020019051810190620015b7919062001cc8565b6001600160a01b03808616600090815260046020526040812054969b50949950929750909550935090911662001753576000604051620015f79062001ae4565b604051809103906000f08015801562001614573d6000803e3d6000fd5b50604051630ab714fb60e11b81529091506001600160a01b0382169063156e29f6906200164a908990889088906004016200242b565b600060405180830381600087803b1580156200166557600080fd5b505af11580156200167a573d6000803e3d6000fd5b5050604051634312207160e11b81526001600160a01b038416925063862440e29150620016ae9087908990600401620026b7565b600060405180830381600087803b158015620016c957600080fd5b505af1158015620016de573d6000803e3d6000fd5b5050506001600160a01b03808916600081815260046020908152604080832080549588166001600160a01b03199687168117909155835260058252808320805490951690931790935560069092528120805460019350909190620017449084906200272f565b90915550909150620018a59050565b6001600160a01b03808716600090815260046020819052604091829020549151630ab714fb60e11b8152919092169163156e29f6916200179a91899188918891016200242b565b600060405180830381600087803b158015620017b557600080fd5b505af1158015620017ca573d6000803e3d6000fd5b5050506001600160a01b03808816600090815260046020819052604091829020549151634312207160e11b815291909216925063862440e29162001813918791899101620026b7565b600060405180830381600087803b1580156200182e57600080fd5b505af115801562001843573d6000803e3d6000fd5b505050506001600160a01b03868116600090815260046020908152604080832054909316825260069052908120805460019290620018839084906200272f565b9091555050506001600160a01b03808616600090815260046020526040902054165b7f227df926aae3e96d57f2da8cdc461944f079e5992190abf470acc8ad5c8571d98686858a85604051620018de959493929190620023ac565b60405180910390a150505050505050505050565b61ffff851660009081526001602052604090208054620019129062002783565b151590506200197f5760405162461bcd60e51b815260206004820152603260248201527f4c7a53656e643a2064657374696e6174696f6e20636861696e206973206e6f746044820152711030903a393ab9ba32b21039b7bab931b29760711b6064820152608401620006d3565b61ffff851660009081526001602052604090819020905162c5803160e81b81526001600160a01b037f0000000000000000000000000000000000000000000000000000000000000000169163c5803100913491620019eb918a91908a908a908a908a906004016200259e565b6000604051808303818588803b158015620011d657600080fd5b600080546001600160a01b038381166001600160a01b0319831681178455604051919092169283917f8be0079c531659141344cd1fd0a4f28419497f9722a3daafe3b4186f6b6457e09190a35050565b82805462001a639062002783565b90600052602060002090601f01602090048101928262001a87576000855562001ad2565b82601f1062001aa25782800160ff1982351617855562001ad2565b8280016001018555821562001ad2579182015b8281111562001ad257823582559160200191906001019062001ab5565b5062001ae092915062001af2565b5090565b611d3c80620027fe83390190565b5b8082111562001ae0576000815560010162001af3565b600062001b2062001b1a8462002705565b620026d2565b905082815283838301111562001b3557600080fd5b6200091c83602083018462002754565b600082601f83011262001b56578081fd5b813560206001600160401b0382111562001b745762001b74620027c0565b8160051b62001b85828201620026d2565b83815282810190868401838801850189101562001ba0578687fd5b8693505b8584101562001bc457803583526001939093019291840191840162001ba4565b50979650505050505050565b60008083601f84011262001be2578182fd5b5081356001600160401b0381111562001bf9578182fd5b60208301915083602082850101111562001c1257600080fd5b9250929050565b600082601f83011262001c2a578081fd5b813562001c3b62001b1a8262002705565b81815284602083860101111562001c50578283fd5b816020850160208301379081016020019190915292915050565b600082601f83011262001c7b578081fd5b6200091c8383516020850162001b09565b80356001600160401b038116811462001ca457600080fd5b919050565b60006020828403121562001cbb578081fd5b81356200091c81620027d6565b600080600080600060a0868803121562001ce0578081fd5b855162001ced81620027d6565b602087015190955062001d0081620027d6565b60408701519094506001600160401b0381111562001d1c578182fd5b62001d2a8882890162001c6a565b606088015160809098015196999598509695949350505050565b600080600080600060a0868803121562001d5c578081fd5b853562001d6981620027d6565b9450602086013562001d7b81620027d6565b935060408601356001600160401b038082111562001d97578283fd5b62001da589838a0162001b45565b9450606088013591508082111562001dbb578283fd5b62001dc989838a0162001b45565b9350608088013591508082111562001ddf578283fd5b5062001dee8882890162001c19565b9150509295509295909350565b600080600080600060a0868803121562001e13578081fd5b853562001e2081620027d6565b9450602086013562001e3281620027d6565b9350604086013592506060860135915060808601356001600160401b0381111562001e5b578182fd5b62001dee8882890162001c19565b60008060006060848603121562001e7e578283fd5b833562001e8b81620027d6565b95602085013595506040909401359392505050565b60006020828403121562001eb2578081fd5b81356001600160e01b0319811681146200091c578182fd5b60006020828403121562001edc578081fd5b81516001600160401b0381111562001ef2578182fd5b8201601f8101841362001f03578182fd5b62001f148482516020840162001b09565b949350505050565b60006020828403121562001f2e578081fd5b81516001600160401b0381111562001f44578182fd5b62001f148482850162001c6a565b60006020828403121562001f64578081fd5b81356200091c81620027ec565b60006020828403121562001f83578081fd5b81516200091c81620027ec565b600080600080600060a0868803121562001fa8578283fd5b853562001e2081620027ec565b60008060006040848603121562001fca578081fd5b833562001fd781620027ec565b925060208401356001600160401b0381111562001ff2578182fd5b620020008682870162001bd0565b9497909650939450505050565b60008060006060848603121562002022578081fd5b83356200202f81620027ec565b925060208401356001600160401b038111156200204a578182fd5b620020588682870162001c19565b925050604084013590509250925092565b60008060008060006080868803121562002081578283fd5b85356200208e81620027ec565b945060208601356001600160401b0380821115620020aa578485fd5b620020b889838a0162001c19565b9550620020c86040890162001c8c565b94506060880135915080821115620020de578283fd5b50620020ed8882890162001bd0565b969995985093965092949392505050565b6000806000806080858703121562002114578182fd5b84356200212181620027ec565b935060208501356001600160401b03808211156200213d578384fd5b6200214b8883890162001c19565b94506200215b6040880162001c8c565b9350606087013591508082111562002171578283fd5b50620021808782880162001c19565b91505092959194509250565b60008060008060808587031215620021a2578182fd5b8435620021af81620027ec565b93506020850135620021c181620027ec565b92506040850135620021d381620027d6565b9396929550929360600135925050565b600080600080600060808688031215620021fb578283fd5b85356200220881620027ec565b945060208601356200221a81620027ec565b93506040860135925060608601356001600160401b038111156200223c578182fd5b620020ed8882890162001bd0565b600080604083850312156200225d578182fd5b505080516020909101519092909150565b81835281816020850137506000828201602090810191909152601f909101601f19169091010190565b60008151808452620022b181602086016020860162002754565b601f01601f19169290920160200192915050565b8183823760009101908152919050565b60008251620022e981846020870162002754565b9190910192915050565b6000808354620023038162002783565b600182811680156200231e576001811462002330576200235e565b60ff198416875282870194506200235e565b8786526020808720875b85811015620023555781548a8201529084019082016200233a565b50505082870194505b50929695505050505050565b6001600160a01b0386811682528516602082015260a060408201819052600090620023989083018662002297565b606083019490945250608001529392505050565b600060018060a01b038088168352808716602084015285604084015260a06060840152620023de60a084018662002297565b91508084166080840152509695505050505050565b6001600160a01b0394851681529290931660208301526040820152606081019190915260a06080820181905260009082015260c00190565b6001600160a01b039390931683526020830191909152604082015260600190565b6020815260006200091c602083018462002297565b6020808252818101527f4f776e61626c653a2063616c6c6572206973206e6f7420746865206f776e6572604082015260600190565b61ffff861681526001600160a01b038516602082015260a060408201819052600090620024c69083018662002297565b84151560608401528281036080840152620024e2818562002297565b98975050505050505050565b61ffff841681526040602082015260006200145e6040830184866200226e565b61ffff861681526080602082015260006200252d608083018762002297565b6001600160401b03861660408401528281036060840152620024e28185876200226e565b61ffff8516815260806020820152600062002570608083018662002297565b6001600160401b0385166040840152828103606084015262002593818562002297565b979650505050505050565b61ffff871681526000602060c081840152818854620025bd8162002783565b8060c087015260e0600180841660008114620025e25760018114620025f85762002625565b60ff198516898401526101008901955062002625565b8d8852868820885b858110156200261d5781548b820186015290830190880162002600565b8a0184019650505b505050505083810360408501526200263e818962002297565b9150506200265760608401876001600160a01b03169052565b6001600160a01b038516608084015282810360a08401526200267a818562002297565b9998505050505050505050565b600061ffff808816835280871660208401525084604083015260806060830152620025936080830184866200226e565b82815260406020820152600062001f14604083018462002297565b604051601f8201601f191681016001600160401b0381118282101715620026fd57620026fd620027c0565b604052919050565b60006001600160401b03821115620027215762002721620027c0565b50601f01601f191660200190565b600082198211156200274f57634e487b7160e01b81526011600452602481fd5b500190565b60005b838110156200277157818101518382015260200162002757565b83811115620006ea5750506000910152565b600181811c908216806200279857607f821691505b60208210811415620027ba57634e487b7160e01b600052602260045260246000fd5b50919050565b634e487b7160e01b600052604160045260246000fd5b6001600160a01b03811681146200132657600080fd5b61ffff811681146200132657600080fdfe60806040523480156200001157600080fd5b506040805160208101909152600081526200002c816200003e565b50620000383362000057565b6200018c565b805162000053906002906020840190620000a9565b5050565b600380546001600160a01b038381166001600160a01b0319831681179093556040519116919082907f8be0079c531659141344cd1fd0a4f28419497f9722a3daafe3b4186f6b6457e090600090a35050565b828054620000b7906200014f565b90600052602060002090601f016020900481019282620000db576000855562000126565b82601f10620000f657805160ff191683800117855562000126565b8280016001018555821562000126579182015b828111156200012657825182559160200191906001019062000109565b506200013492915062000138565b5090565b5b8082111562000134576000815560010162000139565b600181811c908216806200016457607f821691505b602082108114156200018657634e487b7160e01b600052602260045260246000fd5b50919050565b611ba0806200019c6000396000f3fe608060405234801561001057600080fd5b50600436106100f45760003560e01c8063715018a611610097578063e985e9c511610066578063e985e9c514610206578063f242432a14610242578063f2fde38b14610255578063f5298aca1461026857600080fd5b8063715018a6146101bd578063862440e2146101c55780638da5cb5b146101d8578063a22cb465146101f357600080fd5b80631233ce8d116100d35780631233ce8d14610162578063156e29f6146101755780632eb2c2d61461018a5780634e1273f41461019d57600080fd5b8062fdd58e146100f957806301ffc9a71461011f5780630e89341c14610142575b600080fd5b61010c61010736600461157b565b61027b565b6040519081526020015b60405180910390f35b61013261012d3660046116a1565b610312565b6040519015158152602001610116565b6101556101503660046116d9565b610364565b60405161011691906118a8565b6101556101703660046116d9565b610406565b6101886101833660046115a4565b6104a0565b005b610188610198366004611438565b6104ea565b6101b06101ab3660046115d6565b610581565b6040516101169190611867565b6101886106e3565b6101886101d33660046116f1565b610719565b6003546040516001600160a01b039091168152602001610116565b610188610201366004611541565b61076b565b610132610214366004611406565b6001600160a01b03918216600090815260016020908152604080832093909416825291909152205460ff1690565b6101886102503660046114de565b61077a565b6101886102633660046113ec565b610801565b6101886102763660046115a4565b61089c565b60006001600160a01b0383166102ec5760405162461bcd60e51b815260206004820152602b60248201527f455243313135353a2062616c616e636520717565727920666f7220746865207a60448201526a65726f206164647265737360a81b60648201526084015b60405180910390fd5b506000908152602081815260408083206001600160a01b03949094168352929052205490565b60006001600160e01b03198216636cdb3d1360e11b148061034357506001600160e01b031982166303a24d0760e21b145b8061035e57506301ffc9a760e01b6001600160e01b03198316145b92915050565b600081815260046020526040902080546060919061038190611a03565b80601f01602080910402602001604051908101604052809291908181526020018280546103ad90611a03565b80156103fa5780601f106103cf576101008083540402835291602001916103fa565b820191906000526020600020905b8154815290600101906020018083116103dd57829003601f168201915b50505050509050919050565b6004602052600090815260409020805461041f90611a03565b80601f016020809104026020016040519081016040528092919081815260200182805461044b90611a03565b80156104985780601f1061046d57610100808354040283529160200191610498565b820191906000526020600020905b81548152906001019060200180831161047b57829003601f168201915b505050505081565b6003546001600160a01b031633146104ca5760405162461bcd60e51b81526004016102e390611992565b6104e5838383604051806020016040528060008152506108d1565b505050565b6001600160a01b03851633148061050657506105068533610214565b61056d5760405162461bcd60e51b815260206004820152603260248201527f455243313135353a207472616e736665722063616c6c6572206973206e6f74206044820152711bdddb995c881b9bdc88185c1c1c9bdd995960721b60648201526084016102e3565b61057a85858585856109db565b5050505050565b606081518351146105e65760405162461bcd60e51b815260206004820152602960248201527f455243313135353a206163636f756e747320616e6420696473206c656e677468604482015268040dad2e6dac2e8c6d60bb1b60648201526084016102e3565b6000835167ffffffffffffffff81111561061057634e487b7160e01b600052604160045260246000fd5b604051908082528060200260200182016040528015610639578160200160208202803683370190505b50905060005b84518110156106db576106a085828151811061066b57634e487b7160e01b600052603260045260246000fd5b602002602001015185838151811061069357634e487b7160e01b600052603260045260246000fd5b602002602001015161027b565b8282815181106106c057634e487b7160e01b600052603260045260246000fd5b60209081029190910101526106d481611a6b565b905061063f565b509392505050565b6003546001600160a01b0316331461070d5760405162461bcd60e51b81526004016102e390611992565b6107176000610bd4565b565b6003546001600160a01b031633146107435760405162461bcd60e51b81526004016102e390611992565b61074c81610c26565b600082815260046020908152604090912082516104e59284019061123f565b610776338383610c39565b5050565b6001600160a01b03851633148061079657506107968533610214565b6107f45760405162461bcd60e51b815260206004820152602960248201527f455243313135353a2063616c6c6572206973206e6f74206f776e6572206e6f7260448201526808185c1c1c9bdd995960ba1b60648201526084016102e3565b61057a8585858585610d1a565b6003546001600160a01b0316331461082b5760405162461bcd60e51b81526004016102e390611992565b6001600160a01b0381166108905760405162461bcd60e51b815260206004820152602660248201527f4f776e61626c653a206e6577206f776e657220697320746865207a65726f206160448201526564647265737360d01b60648201526084016102e3565b61089981610bd4565b50565b6003546001600160a01b031633146108c65760405162461bcd60e51b81526004016102e390611992565b6104e5838383610e37565b6001600160a01b0384166109315760405162461bcd60e51b815260206004820152602160248201527f455243313135353a206d696e7420746f20746865207a65726f206164647265736044820152607360f81b60648201526084016102e3565b3361094b8160008761094288610fb1565b61057a88610fb1565b6000848152602081815260408083206001600160a01b03891684529091528120805485929061097b9084906119eb565b909155505060408051858152602081018590526001600160a01b0380881692600092918516917fc3d58168c5ae7397731d063d5bbf3d657854427343f4c083240f7aacaa2d0f62910160405180910390a461057a8160008787878761100a565b8151835114610a3d5760405162461bcd60e51b815260206004820152602860248201527f455243313135353a2069647320616e6420616d6f756e7473206c656e677468206044820152670dad2e6dac2e8c6d60c31b60648201526084016102e3565b6001600160a01b038416610a635760405162461bcd60e51b81526004016102e390611903565b3360005b8451811015610b66576000858281518110610a9257634e487b7160e01b600052603260045260246000fd5b602002602001015190506000858381518110610abe57634e487b7160e01b600052603260045260246000fd5b602090810291909101810151600084815280835260408082206001600160a01b038e168352909352919091205490915081811015610b0e5760405162461bcd60e51b81526004016102e390611948565b6000838152602081815260408083206001600160a01b038e8116855292528083208585039055908b16825281208054849290610b4b9084906119eb565b9250508190555050505080610b5f90611a6b565b9050610a67565b50846001600160a01b0316866001600160a01b0316826001600160a01b03167f4a39dc06d4c0dbc64b70af90fd698a233a518aa5d07e595d983b8c0526c8f7fb8787604051610bb692919061187a565b60405180910390a4610bcc818787878787611175565b505050505050565b600380546001600160a01b038381166001600160a01b0319831681179093556040519116919082907f8be0079c531659141344cd1fd0a4f28419497f9722a3daafe3b4186f6b6457e090600090a35050565b805161077690600290602084019061123f565b816001600160a01b0316836001600160a01b03161415610cad5760405162461bcd60e51b815260206004820152602960248201527f455243313135353a2073657474696e6720617070726f76616c20737461747573604482015268103337b91039b2b63360b91b60648201526084016102e3565b6001600160a01b03838116600081815260016020908152604080832094871680845294825291829020805460ff191686151590811790915591519182527f17307eab39ab6107e8899845ad3d59bd9653f200f220920489ca2b5937696c31910160405180910390a3505050565b6001600160a01b038416610d405760405162461bcd60e51b81526004016102e390611903565b33610d5081878761094288610fb1565b6000848152602081815260408083206001600160a01b038a16845290915290205483811015610d915760405162461bcd60e51b81526004016102e390611948565b6000858152602081815260408083206001600160a01b038b8116855292528083208785039055908816825281208054869290610dce9084906119eb565b909155505060408051868152602081018690526001600160a01b03808916928a821692918616917fc3d58168c5ae7397731d063d5bbf3d657854427343f4c083240f7aacaa2d0f62910160405180910390a4610e2e82888888888861100a565b50505050505050565b6001600160a01b038316610e995760405162461bcd60e51b815260206004820152602360248201527f455243313135353a206275726e2066726f6d20746865207a65726f206164647260448201526265737360e81b60648201526084016102e3565b33610ec981856000610eaa87610fb1565b610eb387610fb1565b5050604080516020810190915260009052505050565b6000838152602081815260408083206001600160a01b038816845290915290205482811015610f465760405162461bcd60e51b8152602060048201526024808201527f455243313135353a206275726e20616d6f756e7420657863656564732062616c604482015263616e636560e01b60648201526084016102e3565b6000848152602081815260408083206001600160a01b03898116808652918452828520888703905582518981529384018890529092908616917fc3d58168c5ae7397731d063d5bbf3d657854427343f4c083240f7aacaa2d0f62910160405180910390a45050505050565b60408051600180825281830190925260609160009190602080830190803683370190505090508281600081518110610ff957634e487b7160e01b600052603260045260246000fd5b602090810291909101015292915050565b6001600160a01b0384163b15610bcc5760405163f23a6e6160e01b81526001600160a01b0385169063f23a6e619061104e9089908990889088908890600401611822565b602060405180830381600087803b15801561106857600080fd5b505af1925050508015611098575060408051601f3d908101601f19168201909252611095918101906116bd565b60015b611145576110a4611ab2565b806308c379a014156110de57506110b9611aca565b806110c457506110e0565b8060405162461bcd60e51b81526004016102e391906118a8565b505b60405162461bcd60e51b815260206004820152603460248201527f455243313135353a207472616e7366657220746f206e6f6e20455243313135356044820152732932b1b2b4bb32b91034b6b83632b6b2b73a32b960611b60648201526084016102e3565b6001600160e01b0319811663f23a6e6160e01b14610e2e5760405162461bcd60e51b81526004016102e3906118bb565b6001600160a01b0384163b15610bcc5760405163bc197c8160e01b81526001600160a01b0385169063bc197c81906111b990899089908890889088906004016117c4565b602060405180830381600087803b1580156111d357600080fd5b505af1925050508015611203575060408051601f3d908101601f19168201909252611200918101906116bd565b60015b61120f576110a4611ab2565b6001600160e01b0319811663bc197c8160e01b14610e2e5760405162461bcd60e51b81526004016102e3906118bb565b82805461124b90611a03565b90600052602060002090601f01602090048101928261126d57600085556112b3565b82601f1061128657805160ff19168380011785556112b3565b828001600101855582156112b3579182015b828111156112b3578251825591602001919060010190611298565b506112bf9291506112c3565b5090565b5b808211156112bf57600081556001016112c4565b600067ffffffffffffffff8311156112f2576112f2611a9c565b604051611309601f8501601f191660200182611a3e565b80915083815284848401111561131e57600080fd5b83836020830137600060208583010152509392505050565b80356001600160a01b038116811461134d57600080fd5b919050565b600082601f830112611362578081fd5b8135602061136f826119c7565b60405161137c8282611a3e565b8381528281019150858301600585901b8701840188101561139b578586fd5b855b858110156113b95781358452928401929084019060010161139d565b5090979650505050505050565b600082601f8301126113d6578081fd5b6113e5838335602085016112d8565b9392505050565b6000602082840312156113fd578081fd5b6113e582611336565b60008060408385031215611418578081fd5b61142183611336565b915061142f60208401611336565b90509250929050565b600080600080600060a0868803121561144f578081fd5b61145886611336565b945061146660208701611336565b9350604086013567ffffffffffffffff80821115611482578283fd5b61148e89838a01611352565b945060608801359150808211156114a3578283fd5b6114af89838a01611352565b935060808801359150808211156114c4578283fd5b506114d1888289016113c6565b9150509295509295909350565b600080600080600060a086880312156114f5578081fd5b6114fe86611336565b945061150c60208701611336565b93506040860135925060608601359150608086013567ffffffffffffffff811115611535578182fd5b6114d1888289016113c6565b60008060408385031215611553578182fd5b61155c83611336565b915060208301358015158114611570578182fd5b809150509250929050565b6000806040838503121561158d578182fd5b61159683611336565b946020939093013593505050565b6000806000606084860312156115b8578283fd5b6115c184611336565b95602085013595506040909401359392505050565b600080604083850312156115e8578182fd5b823567ffffffffffffffff808211156115ff578384fd5b818501915085601f830112611612578384fd5b8135602061161f826119c7565b60405161162c8282611a3e565b8381528281019150858301600585901b870184018b101561164b578889fd5b8896505b848710156116745761166081611336565b83526001969096019591830191830161164f565b509650508601359250508082111561168a578283fd5b5061169785828601611352565b9150509250929050565b6000602082840312156116b2578081fd5b81356113e581611b54565b6000602082840312156116ce578081fd5b81516113e581611b54565b6000602082840312156116ea578081fd5b5035919050565b60008060408385031215611703578182fd5b82359150602083013567ffffffffffffffff811115611720578182fd5b8301601f81018513611730578182fd5b611697858235602084016112d8565b6000815180845260208085019450808401835b8381101561176e57815187529582019590820190600101611752565b509495945050505050565b60008151808452815b8181101561179e57602081850181015186830182015201611782565b818111156117af5782602083870101525b50601f01601f19169290920160200192915050565b6001600160a01b0386811682528516602082015260a0604082018190526000906117f09083018661173f565b8281036060840152611802818661173f565b905082810360808401526118168185611779565b98975050505050505050565b6001600160a01b03868116825285166020820152604081018490526060810183905260a06080820181905260009061185c90830184611779565b979650505050505050565b6020815260006113e5602083018461173f565b60408152600061188d604083018561173f565b828103602084015261189f818561173f565b95945050505050565b6020815260006113e56020830184611779565b60208082526028908201527f455243313135353a204552433131353552656365697665722072656a656374656040820152676420746f6b656e7360c01b606082015260800190565b60208082526025908201527f455243313135353a207472616e7366657220746f20746865207a65726f206164604082015264647265737360d81b606082015260800190565b6020808252602a908201527f455243313135353a20696e73756666696369656e742062616c616e636520666f60408201526939103a3930b739b332b960b11b606082015260800190565b6020808252818101527f4f776e61626c653a2063616c6c6572206973206e6f7420746865206f776e6572604082015260600190565b600067ffffffffffffffff8211156119e1576119e1611a9c565b5060051b60200190565b600082198211156119fe576119fe611a86565b500190565b600181811c90821680611a1757607f821691505b60208210811415611a3857634e487b7160e01b600052602260045260246000fd5b50919050565b601f8201601f1916810167ffffffffffffffff81118282101715611a6457611a64611a9c565b6040525050565b6000600019821415611a7f57611a7f611a86565b5060010190565b634e487b7160e01b600052601160045260246000fd5b634e487b7160e01b600052604160045260246000fd5b600060033d1115611ac757600481823e5160e01c5b90565b600060443d1015611ad85790565b6040516003193d81016004833e81513d67ffffffffffffffff8160248401118184111715611b0857505050505090565b8285019150815181811115611b205750505050505090565b843d8701016020828501011115611b3a5750505050505090565b611b4960208286010187611a3e565b509095945050505050565b6001600160e01b03198116811461089957600080fdfea26469706673582212201752403cb77680d85f7aa2fc1b00d335f10fc1336b27a948004266f41261d5d364736f6c63430008040033a2646970667358221220ef0c0866309c0953aad3291792c1b3a2400f433fd1593aea3662e085f7b31f0564736f6c63430008040033",
  "devdoc": {
    "kind": "dev",
    "methods": {
      "owner()": {
        "details": "Returns the address of the current owner."
      },
      "paused()": {
        "details": "Returns true if the contract is paused, and false otherwise."
      },
      "renounceOwnership()": {
        "details": "Leaves the contract without owner. It will not be possible to call `onlyOwner` functions anymore. Can only be called by the current owner. NOTE: Renouncing ownership will leave the contract without an owner, thereby removing any functionality that is only available to the owner."
      },
      "supportsInterface(bytes4)": {
        "details": "See {IERC165-supportsInterface}."
      },
      "transferOwnership(address)": {
        "details": "Transfers ownership of the contract to a new account (`newOwner`). Can only be called by the current owner."
      }
    },
    "version": 1
  },
  "userdoc": {
    "kind": "user",
    "methods": {},
    "version": 1
  },
  "storageLayout": {
    "storage": [
      {
        "astId": 7,
        "contract": "contracts/OmniBridge1155.sol:OmniBridge1155",
        "label": "_owner",
        "offset": 0,
        "slot": "0",
        "type": "t_address"
      },
      {
        "astId": 13524,
        "contract": "contracts/OmniBridge1155.sol:OmniBridge1155",
        "label": "trustedRemoteLookup",
        "offset": 0,
        "slot": "1",
        "type": "t_mapping(t_uint16,t_bytes_storage)"
      },
      {
        "astId": 13838,
        "contract": "contracts/OmniBridge1155.sol:OmniBridge1155",
        "label": "failedMessages",
        "offset": 0,
        "slot": "2",
        "type": "t_mapping(t_uint16,t_mapping(t_bytes_memory_ptr,t_mapping(t_uint256,t_bytes32)))"
      },
      {
        "astId": 158,
        "contract": "contracts/OmniBridge1155.sol:OmniBridge1155",
        "label": "_paused",
        "offset": 0,
        "slot": "3",
        "type": "t_bool"
      },
      {
        "astId": 5914,
        "contract": "contracts/OmniBridge1155.sol:OmniBridge1155",
        "label": "persistentAddresses",
        "offset": 0,
        "slot": "4",
        "type": "t_mapping(t_address,t_address)"
      },
      {
        "astId": 5918,
        "contract": "contracts/OmniBridge1155.sol:OmniBridge1155",
        "label": "originAddresses",
        "offset": 0,
        "slot": "5",
        "type": "t_mapping(t_address,t_address)"
      },
      {
        "astId": 5922,
        "contract": "contracts/OmniBridge1155.sol:OmniBridge1155",
        "label": "collectionLockedCounter",
        "offset": 0,
        "slot": "6",
        "type": "t_mapping(t_address,t_uint256)"
      }
    ],
    "types": {
      "t_address": {
        "encoding": "inplace",
        "label": "address",
        "numberOfBytes": "20"
      },
      "t_bool": {
        "encoding": "inplace",
        "label": "bool",
        "numberOfBytes": "1"
      },
      "t_bytes32": {
        "encoding": "inplace",
        "label": "bytes32",
        "numberOfBytes": "32"
      },
      "t_bytes_memory_ptr": {
        "encoding": "bytes",
        "label": "bytes",
        "numberOfBytes": "32"
      },
      "t_bytes_storage": {
        "encoding": "bytes",
        "label": "bytes",
        "numberOfBytes": "32"
      },
      "t_mapping(t_address,t_address)": {
        "encoding": "mapping",
        "key": "t_address",
        "label": "mapping(address => address)",
        "numberOfBytes": "32",
        "value": "t_address"
      },
      "t_mapping(t_address,t_uint256)": {
        "encoding": "mapping",
        "key": "t_address",
        "label": "mapping(address => uint256)",
        "numberOfBytes": "32",
        "value": "t_uint256"
      },
      "t_mapping(t_bytes_memory_ptr,t_mapping(t_uint256,t_bytes32))": {
        "encoding": "mapping",
        "key": "t_bytes_memory_ptr",
        "label": "mapping(bytes => mapping(uint256 => bytes32))",
        "numberOfBytes": "32",
        "value": "t_mapping(t_uint256,t_bytes32)"
      },
      "t_mapping(t_uint16,t_bytes_storage)": {
        "encoding": "mapping",
        "key": "t_uint16",
        "label": "mapping(uint16 => bytes)",
        "numberOfBytes": "32",
        "value": "t_bytes_storage"
      },
      "t_mapping(t_uint16,t_mapping(t_bytes_memory_ptr,t_mapping(t_uint256,t_bytes32)))": {
        "encoding": "mapping",
        "key": "t_uint16",
        "label": "mapping(uint16 => mapping(bytes => mapping(uint256 => bytes32)))",
        "numberOfBytes": "32",
        "value": "t_mapping(t_bytes_memory_ptr,t_mapping(t_uint256,t_bytes32))"
      },
      "t_mapping(t_uint256,t_bytes32)": {
        "encoding": "mapping",
        "key": "t_uint256",
        "label": "mapping(uint256 => bytes32)",
        "numberOfBytes": "32",
        "value": "t_bytes32"
      },
      "t_uint16": {
        "encoding": "inplace",
        "label": "uint16",
        "numberOfBytes": "2"
      },
      "t_uint256": {
        "encoding": "inplace",
        "label": "uint256",
        "numberOfBytes": "32"
      }
    }
  }
}