{
  "abi": [
    {
      "inputs": [
        {
          "internalType": "string",
          "name": "_name",
          "type": "string"
        },
        {
          "internalType": "string",
          "name": "_symbol",
          "type": "string"
        },
        {
          "internalType": "address",
          "name": "_lzEndpoint",
          "type": "address"
        },
        {
          "internalType": "uint256",
          "name": "_minGasToTransferAndStore",
          "type": "uint256"
        }
      ],
      "stateMutability": "nonpayable",
      "type": "constructor"
    },
    {
      "inputs": [
        {
          "internalType": "address",
          "name": "operator",
          "type": "address"
        }
      ],
      "name": "OperatorNotAllowed",
      "type": "error"
    },
    {
      "anonymous": false,
      "inputs": [
        {
          "indexed": true,
          "internalType": "address",
          "name": "owner",
          "type": "address"
        },
        {
          "indexed": true,
          "internalType": "address",
          "name": "approved",
          "type": "address"
        },
        {
          "indexed": true,
          "internalType": "uint256",
          "name": "tokenId",
          "type": "uint256"
        }
      ],
      "name": "Approval",
      "type": "event"
    },
    {
      "anonymous": false,
      "inputs": [
        {
          "indexed": true,
          "internalType": "address",
          "name": "owner",
          "type": "address"
        },
        {
          "indexed": true,
          "internalType": "address",
          "name": "operator",
          "type": "address"
        },
        {
          "indexed": false,
          "internalType": "bool",
          "name": "approved",
          "type": "bool"
        }
      ],
      "name": "ApprovalForAll",
      "type": "event"
    },
    {
      "anonymous": false,
      "inputs": [
        {
          "indexed": false,
          "internalType": "bytes32",
          "name": "_hashedPayload",
          "type": "bytes32"
        }
      ],
      "name": "CreditCleared",
      "type": "event"
    },
    {
      "anonymous": false,
      "inputs": [
        {
          "indexed": false,
          "internalType": "bytes32",
          "name": "_hashedPayload",
          "type": "bytes32"
        },
        {
          "indexed": false,
          "internalType": "bytes",
          "name": "_payload",
          "type": "bytes"
        }
      ],
      "name": "CreditStored",
      "type": "event"
    },
    {
      "anonymous": false,
      "inputs": [
        {
          "indexed": false,
          "internalType": "uint16",
          "name": "_srcChainId",
          "type": "uint16"
        },
        {
          "indexed": false,
          "internalType": "bytes",
          "name": "_srcAddress",
          "type": "bytes"
        },
        {
          "indexed": false,
          "internalType": "uint64",
          "name": "_nonce",
          "type": "uint64"
        },
        {
          "indexed": false,
          "internalType": "bytes",
          "name": "_payload",
          "type": "bytes"
        },
        {
          "indexed": false,
          "internalType": "bytes",
          "name": "_reason",
          "type": "bytes"
        }
      ],
      "name": "MessageFailed",
      "type": "event"
    },
    {
      "anonymous": false,
      "inputs": [
        {
          "indexed": true,
          "internalType": "address",
          "name": "previousOwner",
          "type": "address"
        },
        {
          "indexed": true,
          "internalType": "address",
          "name": "newOwner",
          "type": "address"
        }
      ],
      "name": "OwnershipTransferred",
      "type": "event"
    },
    {
      "anonymous": false,
      "inputs": [
        {
          "indexed": true,
          "internalType": "uint16",
          "name": "_srcChainId",
          "type": "uint16"
        },
        {
          "indexed": true,
          "internalType": "bytes",
          "name": "_srcAddress",
          "type": "bytes"
        },
        {
          "indexed": true,
          "internalType": "address",
          "name": "_toAddress",
          "type": "address"
        },
        {
          "indexed": false,
          "internalType": "uint256[]",
          "name": "_tokenIds",
          "type": "uint256[]"
        }
      ],
      "name": "ReceiveFromChain",
      "type": "event"
    },
    {
      "anonymous": false,
      "inputs": [
        {
          "indexed": false,
          "internalType": "uint16",
          "name": "_srcChainId",
          "type": "uint16"
        },
        {
          "indexed": false,
          "internalType": "bytes",
          "name": "_srcAddress",
          "type": "bytes"
        },
        {
          "indexed": false,
          "internalType": "uint64",
          "name": "_nonce",
          "type": "uint64"
        },
        {
          "indexed": false,
          "internalType": "bytes32",
          "name": "_payloadHash",
          "type": "bytes32"
        }
      ],
      "name": "RetryMessageSuccess",
      "type": "event"
    },
    {
      "anonymous": false,
      "inputs": [
        {
          "indexed": true,
          "internalType": "uint16",
          "name": "_dstChainId",
          "type": "uint16"
        },
        {
          "indexed": true,
          "internalType": "address",
          "name": "_from",
          "type": "address"
        },
        {
          "indexed": true,
          "internalType": "bytes",
          "name": "_toAddress",
          "type": "bytes"
        },
        {
          "indexed": false,
          "internalType": "uint256[]",
          "name": "_tokenIds",
          "type": "uint256[]"
        }
      ],
      "name": "SendToChain",
      "type": "event"
    },
    {
      "anonymous": false,
      "inputs": [
        {
          "indexed": false,
          "internalType": "uint16",
          "name": "_dstChainId",
          "type": "uint16"
        },
        {
          "indexed": false,
          "internalType": "uint16",
          "name": "_type",
          "type": "uint16"
        },
        {
          "indexed": false,
          "internalType": "uint256",
          "name": "_minDstGas",
          "type": "uint256"
        }
      ],
      "name": "SetMinDstGas",
      "type": "event"
    },
    {
      "anonymous": false,
      "inputs": [
        {
          "indexed": false,
          "internalType": "address",
          "name": "precrime",
          "type": "address"
        }
      ],
      "name": "SetPrecrime",
      "type": "event"
    },
    {
      "anonymous": false,
      "inputs": [
        {
          "indexed": false,
          "internalType": "uint16",
          "name": "_remoteChainId",
          "type": "uint16"
        },
        {
          "indexed": false,
          "internalType": "bytes",
          "name": "_path",
          "type": "bytes"
        }
      ],
      "name": "SetTrustedRemote",
      "type": "event"
    },
    {
      "anonymous": false,
      "inputs": [
        {
          "indexed": false,
          "internalType": "uint16",
          "name": "_remoteChainId",
          "type": "uint16"
        },
        {
          "indexed": false,
          "internalType": "bytes",
          "name": "_remoteAddress",
          "type": "bytes"
        }
      ],
      "name": "SetTrustedRemoteAddress",
      "type": "event"
    },
    {
      "anonymous": false,
      "inputs": [
        {
          "indexed": true,
          "internalType": "address",
          "name": "from",
          "type": "address"
        },
        {
          "indexed": true,
          "internalType": "address",
          "name": "to",
          "type": "address"
        },
        {
          "indexed": true,
          "internalType": "uint256",
          "name": "tokenId",
          "type": "uint256"
        }
      ],
      "name": "Transfer",
      "type": "event"
    },
    {
      "inputs": [],
      "name": "DEFAULT_PAYLOAD_SIZE_LIMIT",
      "outputs": [
        {
          "internalType": "uint256",
          "name": "",
          "type": "uint256"
        }
      ],
      "stateMutability": "view",
      "type": "function"
    },
    {
      "inputs": [],
      "name": "FUNCTION_TYPE_SEND",
      "outputs": [
        {
          "internalType": "uint16",
          "name": "",
          "type": "uint16"
        }
      ],
      "stateMutability": "view",
      "type": "function"
    },
    {
      "inputs": [],
      "name": "OPERATOR_FILTER_REGISTRY",
      "outputs": [
        {
          "internalType": "contract IOperatorFilterRegistry",
          "name": "",
          "type": "address"
        }
      ],
      "stateMutability": "view",
      "type": "function"
    },
    {
      "inputs": [
        {
          "internalType": "address",
          "name": "operator",
          "type": "address"
        },
        {
          "internalType": "uint256",
          "name": "tokenId",
          "type": "uint256"
        }
      ],
      "name": "approve",
      "outputs": [],
      "stateMutability": "nonpayable",
      "type": "function"
    },
    {
      "inputs": [
        {
          "internalType": "address",
          "name": "owner",
          "type": "address"
        }
      ],
      "name": "balanceOf",
      "outputs": [
        {
          "internalType": "uint256",
          "name": "",
          "type": "uint256"
        }
      ],
      "stateMutability": "view",
      "type": "function"
    },
    {
      "inputs": [
        {
          "internalType": "bytes",
          "name": "_payload",
          "type": "bytes"
        }
      ],
      "name": "clearCredits",
      "outputs": [],
      "stateMutability": "nonpayable",
      "type": "function"
    },
    {
      "inputs": [
        {
          "internalType": "uint16",
          "name": "",
          "type": "uint16"
        }
      ],
      "name": "dstChainIdToBatchLimit",
      "outputs": [
        {
          "internalType": "uint256",
          "name": "",
          "type": "uint256"
        }
      ],
      "stateMutability": "view",
      "type": "function"
    },
    {
      "inputs": [
        {
          "internalType": "uint16",
          "name": "",
          "type": "uint16"
        }
      ],
      "name": "dstChainIdToTransferGas",
      "outputs": [
        {
          "internalType": "uint256",
          "name": "",
          "type": "uint256"
        }
      ],
      "stateMutability": "view",
      "type": "function"
    },
    {
      "inputs": [
        {
          "internalType": "uint16",
          "name": "_dstChainId",
          "type": "uint16"
        },
        {
          "internalType": "bytes",
          "name": "_toAddress",
          "type": "bytes"
        },
        {
          "internalType": "uint256[]",
          "name": "_tokenIds",
          "type": "uint256[]"
        },
        {
          "internalType": "bool",
          "name": "_useZro",
          "type": "bool"
        },
        {
          "internalType": "bytes",
          "name": "_adapterParams",
          "type": "bytes"
        }
      ],
      "name": "estimateSendBatchFee",
      "outputs": [
        {
          "internalType": "uint256",
          "name": "nativeFee",
          "type": "uint256"
        },
        {
          "internalType": "uint256",
          "name": "zroFee",
          "type": "uint256"
        }
      ],
      "stateMutability": "view",
      "type": "function"
    },
    {
      "inputs": [
        {
          "internalType": "uint16",
          "name": "_dstChainId",
          "type": "uint16"
        },
        {
          "internalType": "bytes",
          "name": "_toAddress",
          "type": "bytes"
        },
        {
          "internalType": "uint256",
          "name": "_tokenId",
          "type": "uint256"
        },
        {
          "internalType": "bool",
          "name": "_useZro",
          "type": "bool"
        },
        {
          "internalType": "bytes",
          "name": "_adapterParams",
          "type": "bytes"
        }
      ],
      "name": "estimateSendFee",
      "outputs": [
        {
          "internalType": "uint256",
          "name": "nativeFee",
          "type": "uint256"
        },
        {
          "internalType": "uint256",
          "name": "zroFee",
          "type": "uint256"
        }
      ],
      "stateMutability": "view",
      "type": "function"
    },
    {
      "inputs": [
        {
          "internalType": "uint16",
          "name": "",
          "type": "uint16"
        },
        {
          "internalType": "bytes",
          "name": "",
          "type": "bytes"
        },
        {
          "internalType": "uint64",
          "name": "",
          "type": "uint64"
        }
      ],
      "name": "failedMessages",
      "outputs": [
        {
          "internalType": "bytes32",
          "name": "",
          "type": "bytes32"
        }
      ],
      "stateMutability": "view",
      "type": "function"
    },
    {
      "inputs": [
        {
          "internalType": "uint16",
          "name": "_srcChainId",
          "type": "uint16"
        },
        {
          "internalType": "bytes",
          "name": "_srcAddress",
          "type": "bytes"
        }
      ],
      "name": "forceResumeReceive",
      "outputs": [],
      "stateMutability": "nonpayable",
      "type": "function"
    },
    {
      "inputs": [
        {
          "internalType": "uint256",
          "name": "tokenId",
          "type": "uint256"
        }
      ],
      "name": "getApproved",
      "outputs": [
        {
          "internalType": "address",
          "name": "",
          "type": "address"
        }
      ],
      "stateMutability": "view",
      "type": "function"
    },
    {
      "inputs": [
        {
          "internalType": "uint16",
          "name": "_version",
          "type": "uint16"
        },
        {
          "internalType": "uint16",
          "name": "_chainId",
          "type": "uint16"
        },
        {
          "internalType": "address",
          "name": "",
          "type": "address"
        },
        {
          "internalType": "uint256",
          "name": "_configType",
          "type": "uint256"
        }
      ],
      "name": "getConfig",
      "outputs": [
        {
          "internalType": "bytes",
          "name": "",
          "type": "bytes"
        }
      ],
      "stateMutability": "view",
      "type": "function"
    },
    {
      "inputs": [
        {
          "internalType": "uint16",
          "name": "_remoteChainId",
          "type": "uint16"
        }
      ],
      "name": "getTrustedRemoteAddress",
      "outputs": [
        {
          "internalType": "bytes",
          "name": "",
          "type": "bytes"
        }
      ],
      "stateMutability": "view",
      "type": "function"
    },
    {
      "inputs": [
        {
          "internalType": "address",
          "name": "owner",
          "type": "address"
        },
        {
          "internalType": "address",
          "name": "operator",
          "type": "address"
        }
      ],
      "name": "isApprovedForAll",
      "outputs": [
        {
          "internalType": "bool",
          "name": "",
          "type": "bool"
        }
      ],
      "stateMutability": "view",
      "type": "function"
    },
    {
      "inputs": [
        {
          "internalType": "uint16",
          "name": "_srcChainId",
          "type": "uint16"
        },
        {
          "internalType": "bytes",
          "name": "_srcAddress",
          "type": "bytes"
        }
      ],
      "name": "isTrustedRemote",
      "outputs": [
        {
          "internalType": "bool",
          "name": "",
          "type": "bool"
        }
      ],
      "stateMutability": "view",
      "type": "function"
    },
    {
      "inputs": [],
      "name": "lzEndpoint",
      "outputs": [
        {
          "internalType": "contract ILayerZeroEndpoint",
          "name": "",
          "type": "address"
        }
      ],
      "stateMutability": "view",
      "type": "function"
    },
    {
      "inputs": [
        {
          "internalType": "uint16",
          "name": "_srcChainId",
          "type": "uint16"
        },
        {
          "internalType": "bytes",
          "name": "_srcAddress",
          "type": "bytes"
        },
        {
          "internalType": "uint64",
          "name": "_nonce",
          "type": "uint64"
        },
        {
          "internalType": "bytes",
          "name": "_payload",
          "type": "bytes"
        }
      ],
      "name": "lzReceive",
      "outputs": [],
      "stateMutability": "nonpayable",
      "type": "function"
    },
    {
      "inputs": [
        {
          "internalType": "uint16",
          "name": "",
          "type": "uint16"
        },
        {
          "internalType": "uint16",
          "name": "",
          "type": "uint16"
        }
      ],
      "name": "minDstGasLookup",
      "outputs": [
        {
          "internalType": "uint256",
          "name": "",
          "type": "uint256"
        }
      ],
      "stateMutability": "view",
      "type": "function"
    },
    {
      "inputs": [],
      "name": "minGasToTransferAndStore",
      "outputs": [
        {
          "internalType": "uint256",
          "name": "",
          "type": "uint256"
        }
      ],
      "stateMutability": "view",
      "type": "function"
    },
    {
      "inputs": [],
      "name": "name",
      "outputs": [
        {
          "internalType": "string",
          "name": "",
          "type": "string"
        }
      ],
      "stateMutability": "view",
      "type": "function"
    },
    {
      "inputs": [
        {
          "internalType": "uint16",
          "name": "_srcChainId",
          "type": "uint16"
        },
        {
          "internalType": "bytes",
          "name": "_srcAddress",
          "type": "bytes"
        },
        {
          "internalType": "uint64",
          "name": "_nonce",
          "type": "uint64"
        },
        {
          "internalType": "bytes",
          "name": "_payload",
          "type": "bytes"
        }
      ],
      "name": "nonblockingLzReceive",
      "outputs": [],
      "stateMutability": "nonpayable",
      "type": "function"
    },
    {
      "inputs": [],
      "name": "owner",
      "outputs": [
        {
          "internalType": "address",
          "name": "",
          "type": "address"
        }
      ],
      "stateMutability": "view",
      "type": "function"
    },
    {
      "inputs": [
        {
          "internalType": "uint256",
          "name": "tokenId",
          "type": "uint256"
        }
      ],
      "name": "ownerOf",
      "outputs": [
        {
          "internalType": "address",
          "name": "",
          "type": "address"
        }
      ],
      "stateMutability": "view",
      "type": "function"
    },
    {
      "inputs": [
        {
          "internalType": "uint16",
          "name": "",
          "type": "uint16"
        }
      ],
      "name": "payloadSizeLimitLookup",
      "outputs": [
        {
          "internalType": "uint256",
          "name": "",
          "type": "uint256"
        }
      ],
      "stateMutability": "view",
      "type": "function"
    },
    {
      "inputs": [],
      "name": "precrime",
      "outputs": [
        {
          "internalType": "address",
          "name": "",
          "type": "address"
        }
      ],
      "stateMutability": "view",
      "type": "function"
    },
    {
      "inputs": [],
      "name": "renounceOwnership",
      "outputs": [],
      "stateMutability": "nonpayable",
      "type": "function"
    },
    {
      "inputs": [
        {
          "internalType": "uint16",
          "name": "_srcChainId",
          "type": "uint16"
        },
        {
          "internalType": "bytes",
          "name": "_srcAddress",
          "type": "bytes"
        },
        {
          "internalType": "uint64",
          "name": "_nonce",
          "type": "uint64"
        },
        {
          "internalType": "bytes",
          "name": "_payload",
          "type": "bytes"
        }
      ],
      "name": "retryMessage",
      "outputs": [],
      "stateMutability": "payable",
      "type": "function"
    },
    {
      "inputs": [
        {
          "internalType": "address",
          "name": "from",
          "type": "address"
        },
        {
          "internalType": "address",
          "name": "to",
          "type": "address"
        },
        {
          "internalType": "uint256",
          "name": "tokenId",
          "type": "uint256"
        }
      ],
      "name": "safeTransferFrom",
      "outputs": [],
      "stateMutability": "nonpayable",
      "type": "function"
    },
    {
      "inputs": [
        {
          "internalType": "address",
          "name": "from",
          "type": "address"
        },
        {
          "internalType": "address",
          "name": "to",
          "type": "address"
        },
        {
          "internalType": "uint256",
          "name": "tokenId",
          "type": "uint256"
        },
        {
          "internalType": "bytes",
          "name": "data",
          "type": "bytes"
        }
      ],
      "name": "safeTransferFrom",
      "outputs": [],
      "stateMutability": "nonpayable",
      "type": "function"
    },
    {
      "inputs": [
        {
          "internalType": "address",
          "name": "_from",
          "type": "address"
        },
        {
          "internalType": "uint16",
          "name": "_dstChainId",
          "type": "uint16"
        },
        {
          "internalType": "bytes",
          "name": "_toAddress",
          "type": "bytes"
        },
        {
          "internalType": "uint256[]",
          "name": "_tokenIds",
          "type": "uint256[]"
        },
        {
          "internalType": "address payable",
          "name": "_refundAddress",
          "type": "address"
        },
        {
          "internalType": "address",
          "name": "_zroPaymentAddress",
          "type": "address"
        },
        {
          "internalType": "bytes",
          "name": "_adapterParams",
          "type": "bytes"
        }
      ],
      "name": "sendBatchFrom",
      "outputs": [],
      "stateMutability": "payable",
      "type": "function"
    },
    {
      "inputs": [
        {
          "internalType": "address",
          "name": "_from",
          "type": "address"
        },
        {
          "internalType": "uint16",
          "name": "_dstChainId",
          "type": "uint16"
        },
        {
          "internalType": "bytes",
          "name": "_toAddress",
          "type": "bytes"
        },
        {
          "internalType": "uint256",
          "name": "_tokenId",
          "type": "uint256"
        },
        {
          "internalType": "address payable",
          "name": "_refundAddress",
          "type": "address"
        },
        {
          "internalType": "address",
          "name": "_zroPaymentAddress",
          "type": "address"
        },
        {
          "internalType": "bytes",
          "name": "_adapterParams",
          "type": "bytes"
        }
      ],
      "name": "sendFrom",
      "outputs": [],
      "stateMutability": "payable",
      "type": "function"
    },
    {
      "inputs": [
        {
          "internalType": "address",
          "name": "operator",
          "type": "address"
        },
        {
          "internalType": "bool",
          "name": "approved",
          "type": "bool"
        }
      ],
      "name": "setApprovalForAll",
      "outputs": [],
      "stateMutability": "nonpayable",
      "type": "function"
    },
    {
      "inputs": [
        {
          "internalType": "uint16",
          "name": "_version",
          "type": "uint16"
        },
        {
          "internalType": "uint16",
          "name": "_chainId",
          "type": "uint16"
        },
        {
          "internalType": "uint256",
          "name": "_configType",
          "type": "uint256"
        },
        {
          "internalType": "bytes",
          "name": "_config",
          "type": "bytes"
        }
      ],
      "name": "setConfig",
      "outputs": [],
      "stateMutability": "nonpayable",
      "type": "function"
    },
    {
      "inputs": [
        {
          "internalType": "uint16",
          "name": "_dstChainId",
          "type": "uint16"
        },
        {
          "internalType": "uint256",
          "name": "_dstChainIdToBatchLimit",
          "type": "uint256"
        }
      ],
      "name": "setDstChainIdToBatchLimit",
      "outputs": [],
      "stateMutability": "nonpayable",
      "type": "function"
    },
    {
      "inputs": [
        {
          "internalType": "uint16",
          "name": "_dstChainId",
          "type": "uint16"
        },
        {
          "internalType": "uint256",
          "name": "_dstChainIdToTransferGas",
          "type": "uint256"
        }
      ],
      "name": "setDstChainIdToTransferGas",
      "outputs": [],
      "stateMutability": "nonpayable",
      "type": "function"
    },
    {
      "inputs": [
        {
          "internalType": "uint16",
          "name": "_dstChainId",
          "type": "uint16"
        },
        {
          "internalType": "uint16",
          "name": "_packetType",
          "type": "uint16"
        },
        {
          "internalType": "uint256",
          "name": "_minGas",
          "type": "uint256"
        }
      ],
      "name": "setMinDstGas",
      "outputs": [],
      "stateMutability": "nonpayable",
      "type": "function"
    },
    {
      "inputs": [
        {
          "internalType": "uint256",
          "name": "_minGasToTransferAndStore",
          "type": "uint256"
        }
      ],
      "name": "setMinGasToTransferAndStore",
      "outputs": [],
      "stateMutability": "nonpayable",
      "type": "function"
    },
    {
      "inputs": [
        {
          "internalType": "uint16",
          "name": "_dstChainId",
          "type": "uint16"
        },
        {
          "internalType": "uint256",
          "name": "_size",
          "type": "uint256"
        }
      ],
      "name": "setPayloadSizeLimit",
      "outputs": [],
      "stateMutability": "nonpayable",
      "type": "function"
    },
    {
      "inputs": [
        {
          "internalType": "address",
          "name": "_precrime",
          "type": "address"
        }
      ],
      "name": "setPrecrime",
      "outputs": [],
      "stateMutability": "nonpayable",
      "type": "function"
    },
    {
      "inputs": [
        {
          "internalType": "uint16",
          "name": "_version",
          "type": "uint16"
        }
      ],
      "name": "setReceiveVersion",
      "outputs": [],
      "stateMutability": "nonpayable",
      "type": "function"
    },
    {
      "inputs": [
        {
          "internalType": "uint16",
          "name": "_version",
          "type": "uint16"
        }
      ],
      "name": "setSendVersion",
      "outputs": [],
      "stateMutability": "nonpayable",
      "type": "function"
    },
    {
      "inputs": [
        {
          "internalType": "uint16",
          "name": "_srcChainId",
          "type": "uint16"
        },
        {
          "internalType": "bytes",
          "name": "_path",
          "type": "bytes"
        }
      ],
      "name": "setTrustedRemote",
      "outputs": [],
      "stateMutability": "nonpayable",
      "type": "function"
    },
    {
      "inputs": [
        {
          "internalType": "uint16",
          "name": "_remoteChainId",
          "type": "uint16"
        },
        {
          "internalType": "bytes",
          "name": "_remoteAddress",
          "type": "bytes"
        }
      ],
      "name": "setTrustedRemoteAddress",
      "outputs": [],
      "stateMutability": "nonpayable",
      "type": "function"
    },
    {
      "inputs": [
        {
          "internalType": "bytes32",
          "name": "",
          "type": "bytes32"
        }
      ],
      "name": "storedCredits",
      "outputs": [
        {
          "internalType": "uint16",
          "name": "srcChainId",
          "type": "uint16"
        },
        {
          "internalType": "address",
          "name": "toAddress",
          "type": "address"
        },
        {
          "internalType": "uint256",
          "name": "index",
          "type": "uint256"
        },
        {
          "internalType": "bool",
          "name": "creditsRemain",
          "type": "bool"
        }
      ],
      "stateMutability": "view",
      "type": "function"
    },
    {
      "inputs": [
        {
          "internalType": "bytes4",
          "name": "interfaceId",
          "type": "bytes4"
        }
      ],
      "name": "supportsInterface",
      "outputs": [
        {
          "internalType": "bool",
          "name": "",
          "type": "bool"
        }
      ],
      "stateMutability": "view",
      "type": "function"
    },
    {
      "inputs": [],
      "name": "symbol",
      "outputs": [
        {
          "internalType": "string",
          "name": "",
          "type": "string"
        }
      ],
      "stateMutability": "view",
      "type": "function"
    },
    {
      "inputs": [
        {
          "internalType": "uint256",
          "name": "tokenId",
          "type": "uint256"
        }
      ],
      "name": "tokenURI",
      "outputs": [
        {
          "internalType": "string",
          "name": "",
          "type": "string"
        }
      ],
      "stateMutability": "view",
      "type": "function"
    },
    {
      "inputs": [
        {
          "internalType": "address",
          "name": "from",
          "type": "address"
        },
        {
          "internalType": "address",
          "name": "to",
          "type": "address"
        },
        {
          "internalType": "uint256",
          "name": "tokenId",
          "type": "uint256"
        }
      ],
      "name": "transferFrom",
      "outputs": [],
      "stateMutability": "nonpayable",
      "type": "function"
    },
    {
      "inputs": [
        {
          "internalType": "address",
          "name": "newOwner",
          "type": "address"
        }
      ],
      "name": "transferOwnership",
      "outputs": [],
      "stateMutability": "nonpayable",
      "type": "function"
    },
    {
      "inputs": [
        {
          "internalType": "uint16",
          "name": "",
          "type": "uint16"
        }
      ],
      "name": "trustedRemoteLookup",
      "outputs": [
        {
          "internalType": "bytes",
          "name": "",
          "type": "bytes"
        }
      ],
      "stateMutability": "view",
      "type": "function"
    }
  ],
  "bytecode": {
    "object": "0x60a06040523480156200001157600080fd5b5060405162004d1238038062004d1283398101604081905262000034916200035b565b733cc6cdda760b79bafa08df41ecfa224f810dceb660018585848680806200005c3362000246565b6001600160a01b03166080525081620000d15760405162461bcd60e51b815260206004820152602d60248201527f4f4e46543732313a206d696e476173546f5472616e73666572416e6453746f7260448201526c065206d757374206265203e203609c1b606482015260840160405180910390fd5b50600655600a620000e383826200047d565b50600b620000f282826200047d565b5050506daaeb6d7670e522a718067333cd4e3b156200023a5780156200018857604051633e9f1edf60e11b81523060048201526001600160a01b03831660248201526daaeb6d7670e522a718067333cd4e90637d3e3dbe906044015b600060405180830381600087803b1580156200016957600080fd5b505af11580156200017e573d6000803e3d6000fd5b505050506200023a565b6001600160a01b03821615620001d95760405163a0af290360e01b81523060048201526001600160a01b03831660248201526daaeb6d7670e522a718067333cd4e9063a0af2903906044016200014e565b604051632210724360e11b81523060048201526daaeb6d7670e522a718067333cd4e90634420e48690602401600060405180830381600087803b1580156200022057600080fd5b505af115801562000235573d6000803e3d6000fd5b505050505b50505050505062000549565b600080546001600160a01b038381166001600160a01b0319831681178455604051919092169283917f8be0079c531659141344cd1fd0a4f28419497f9722a3daafe3b4186f6b6457e09190a35050565b634e487b7160e01b600052604160045260246000fd5b600082601f830112620002be57600080fd5b81516001600160401b0380821115620002db57620002db62000296565b604051601f8301601f19908116603f0116810190828211818310171562000306576200030662000296565b816040528381526020925086838588010111156200032357600080fd5b600091505b8382101562000347578582018301518183018401529082019062000328565b600093810190920192909252949350505050565b600080600080608085870312156200037257600080fd5b84516001600160401b03808211156200038a57600080fd5b6200039888838901620002ac565b95506020870151915080821115620003af57600080fd5b50620003be87828801620002ac565b604087015190945090506001600160a01b0381168114620003de57600080fd5b6060959095015193969295505050565b600181811c908216806200040357607f821691505b6020821081036200042457634e487b7160e01b600052602260045260246000fd5b50919050565b601f8211156200047857600081815260208120601f850160051c81016020861015620004535750805b601f850160051c820191505b8181101562000474578281556001016200045f565b5050505b505050565b81516001600160401b0381111562000499576200049962000296565b620004b181620004aa8454620003ee565b846200042a565b602080601f831160018114620004e95760008415620004d05750858301515b600019600386901b1c1916600185901b17855562000474565b600085815260208120601f198616915b828110156200051a57888601518255948401946001909101908401620004f9565b5085821015620005395787850151600019600388901b60f8161c191681555b5050505050600190811b01905550565b6080516147756200059d6000396000818161089b01528181610a7601528181610d7a01528181610ed50152818161106d0152818161190d01528181611d9601528181611ecc0152612f6801526147756000f3fe6080604052600436106102fe5760003560e01c80638cfd8f5c11610190578063baf3292d116100dc578063df2a5b3b11610095578063f23536411161006f578063f2353641146109e6578063f2fde38b14610a06578063f5ecbdbc14610a26578063fa25f9b614610a4657600080fd5b8063df2a5b3b14610986578063e985e9c5146109a6578063eb8d72b7146109c657600080fd5b8063baf3292d146108dd578063c4461834146108fd578063c87b56dd14610913578063cbed8b9c14610933578063d12473a514610953578063d1deba1f1461097357600080fd5b80639f38369a11610149578063ab3ffb9311610123578063ab3ffb931461084e578063af3fb21c14610861578063b353aaa714610889578063b88d4fde146108bd57600080fd5b80639f38369a146107ee578063a22cb4651461080e578063a6c3d1651461082e57600080fd5b80638cfd8f5c146107235780638da5cb5b1461075b5780638ffa1f2a14610779578063950c8a741461079957806395d89b41146107b95780639ea5d6b1146107ce57600080fd5b80633f1f4fa41161024f578063519056361161020857806366ad5c8a116101e257806366ad5c8a146106ae57806370a08231146106ce578063715018a6146106ee5780637533d7881461070357600080fd5b8063519056361461062c5780635b8c41e61461063f5780636352211e1461068e57600080fd5b80633f1f4fa41461054c57806341f434341461058757806342842e0e146105a957806342d65a8d146105c957806348288190146105e95780634ac3f4ff146105ff57600080fd5b80630b4cad4c116102bc57806322a3ecf91161029657806322a3ecf91461045457806323b872dd146104d75780632a205e3d146104f75780633d8b38f61461052c57600080fd5b80630b4cad4c146103f45780630df374831461041457806310ddb1371461043457600080fd5b80621d35671461030357806301ffc9a71461032557806306fdde031461035a57806307e0db171461037c578063081812fc1461039c578063095ea7b3146103d4575b600080fd5b34801561030f57600080fd5b5061032361031e366004613618565b610a73565b005b34801561033157600080fd5b506103456103403660046136c1565b610ca4565b60405190151581526020015b60405180910390f35b34801561036657600080fd5b5061036f610cc7565b604051610351919061372e565b34801561038857600080fd5b50610323610397366004613741565b610d59565b3480156103a857600080fd5b506103bc6103b736600461375c565b610de2565b6040516001600160a01b039091168152602001610351565b3480156103e057600080fd5b506103236103ef366004613795565b610e09565b34801561040057600080fd5b5061032361040f36600461375c565b610e22565b34801561042057600080fd5b5061032361042f3660046137c1565b610e95565b34801561044057600080fd5b5061032361044f366004613741565b610eb4565b34801561046057600080fd5b506104a861046f36600461375c565b60096020526000908152604090208054600182015460029092015461ffff821692620100009092046001600160a01b0316919060ff1684565b6040805161ffff90951685526001600160a01b0390931660208501529183015215156060820152608001610351565b3480156104e357600080fd5b506103236104f23660046137dd565b610f0c565b34801561050357600080fd5b506105176105123660046138ef565b610f37565b60408051928352602083019190915201610351565b34801561053857600080fd5b50610345610547366004613981565b610f5d565b34801561055857600080fd5b50610579610567366004613741565b60036020526000908152604090205481565b604051908152602001610351565b34801561059357600080fd5b506103bc6daaeb6d7670e522a718067333cd4e81565b3480156105b557600080fd5b506103236105c43660046137dd565b611029565b3480156105d557600080fd5b506103236105e4366004613981565b61104e565b3480156105f557600080fd5b5061057960065481565b34801561060b57600080fd5b5061057961061a366004613741565b60076020526000908152604090205481565b61032361063a3660046139d3565b6110d4565b34801561064b57600080fd5b5061057961065a366004613a8c565b6005602090815260009384526040808520845180860184018051928152908401958401959095209452929052825290205481565b34801561069a57600080fd5b506103bc6106a936600461375c565b6110eb565b3480156106ba57600080fd5b506103236106c9366004613618565b61114b565b3480156106da57600080fd5b506105796106e9366004613ae9565b611227565b3480156106fa57600080fd5b506103236112ad565b34801561070f57600080fd5b5061036f61071e366004613741565b6112c1565b34801561072f57600080fd5b5061057961073e366004613b06565b600260209081526000928352604080842090915290825290205481565b34801561076757600080fd5b506000546001600160a01b03166103bc565b34801561078557600080fd5b50610323610794366004613b39565b61135b565b3480156107a557600080fd5b506004546103bc906001600160a01b031681565b3480156107c557600080fd5b5061036f6115a5565b3480156107da57600080fd5b506103236107e93660046137c1565b6115b4565b3480156107fa57600080fd5b5061036f610809366004613741565b611637565b34801561081a57600080fd5b50610323610829366004613b6d565b61174d565b34801561083a57600080fd5b50610323610849366004613981565b611761565b61032361085c366004613c2f565b6117ea565b34801561086d57600080fd5b50610876600181565b60405161ffff9091168152602001610351565b34801561089557600080fd5b506103bc7f000000000000000000000000000000000000000000000000000000000000000081565b3480156108c957600080fd5b506103236108d8366004613ce4565b6117f9565b3480156108e957600080fd5b506103236108f8366004613ae9565b61181f565b34801561090957600080fd5b5061057961271081565b34801561091f57600080fd5b5061036f61092e36600461375c565b61187b565b34801561093f57600080fd5b5061032361094e366004613d4f565b6118ee565b34801561095f57600080fd5b5061032361096e3660046137c1565b611983565b610323610981366004613618565b611a07565b34801561099257600080fd5b506103236109a1366004613dbd565b611c1d565b3480156109b257600080fd5b506103456109c1366004613df9565b611ccf565b3480156109d257600080fd5b506103236109e1366004613981565b611cfd565b3480156109f257600080fd5b50610517610a01366004613e27565b611d57565b348015610a1257600080fd5b50610323610a21366004613ae9565b611e22565b348015610a3257600080fd5b5061036f610a41366004613ea4565b611e9b565b348015610a5257600080fd5b50610579610a61366004613741565b60086020526000908152604090205481565b337f00000000000000000000000000000000000000000000000000000000000000006001600160a01b031614610af05760405162461bcd60e51b815260206004820152601e60248201527f4c7a4170703a20696e76616c696420656e64706f696e742063616c6c6572000060448201526064015b60405180910390fd5b61ffff861660009081526001602052604081208054610b0e90613ef1565b80601f0160208091040260200160405190810160405280929190818152602001828054610b3a90613ef1565b8015610b875780601f10610b5c57610100808354040283529160200191610b87565b820191906000526020600020905b815481529060010190602001808311610b6a57829003601f168201915b50505050509050805186869050148015610ba2575060008151115b8015610bca575080516020820120604051610bc09088908890613f2b565b6040518091039020145b610c255760405162461bcd60e51b815260206004820152602660248201527f4c7a4170703a20696e76616c696420736f757263652073656e64696e6720636f6044820152651b9d1c9858dd60d21b6064820152608401610ae7565b610c9b8787878080601f01602080910402602001604051908101604052809392919081815260200183838082843760009201919091525050604080516020601f8a018190048102820181019092528881528a935091508890889081908401838280828437600092019190915250611f4e92505050565b50505050505050565b60006001600160e01b031982161580610cc15750610cc182611fc7565b92915050565b6060600a8054610cd690613ef1565b80601f0160208091040260200160405190810160405280929190818152602001828054610d0290613ef1565b8015610d4f5780601f10610d2457610100808354040283529160200191610d4f565b820191906000526020600020905b815481529060010190602001808311610d3257829003601f168201915b5050505050905090565b610d61612007565b6040516307e0db1760e01b815261ffff821660048201527f00000000000000000000000000000000000000000000000000000000000000006001600160a01b0316906307e0db17906024015b600060405180830381600087803b158015610dc757600080fd5b505af1158015610ddb573d6000803e3d6000fd5b5050505050565b6000610ded82612061565b506000908152600e60205260409020546001600160a01b031690565b81610e13816120b1565b610e1d838361216a565b505050565b610e2a612007565b60008111610e905760405162461bcd60e51b815260206004820152602d60248201527f4f4e46543732313a206d696e476173546f5472616e73666572416e6453746f7260448201526c065206d757374206265203e203609c1b6064820152608401610ae7565b600655565b610e9d612007565b61ffff909116600090815260036020526040902055565b610ebc612007565b6040516310ddb13760e01b815261ffff821660048201527f00000000000000000000000000000000000000000000000000000000000000006001600160a01b0316906310ddb13790602401610dad565b826001600160a01b0381163314610f2657610f26336120b1565b610f3184848461227a565b50505050565b600080610f4f8787610f48886122ac565b8787611d57565b915091509550959350505050565b61ffff831660009081526001602052604081208054829190610f7e90613ef1565b80601f0160208091040260200160405190810160405280929190818152602001828054610faa90613ef1565b8015610ff75780601f10610fcc57610100808354040283529160200191610ff7565b820191906000526020600020905b815481529060010190602001808311610fda57829003601f168201915b50505050509050838360405161100e929190613f2b565b60405180910390208180519060200120149150509392505050565b826001600160a01b038116331461104357611043336120b1565b610f318484846122f7565b611056612007565b6040516342d65a8d60e01b81526001600160a01b037f000000000000000000000000000000000000000000000000000000000000000016906342d65a8d906110a690869086908690600401613f64565b600060405180830381600087803b1580156110c057600080fd5b505af1158015610c9b573d6000803e3d6000fd5b610c9b8787876110e3886122ac565b878787612312565b6000818152600c60205260408120546001600160a01b031680610cc15760405162461bcd60e51b8152602060048201526018602482015277115490cdcc8c4e881a5b9d985b1a59081d1bdad95b88125160421b6044820152606401610ae7565b3330146111a95760405162461bcd60e51b815260206004820152602660248201527f4e6f6e626c6f636b696e674c7a4170703a2063616c6c6572206d7573742062656044820152650204c7a4170760d41b6064820152608401610ae7565b61121f8686868080601f01602080910402602001604051908101604052809392919081815260200183838082843760009201919091525050604080516020601f8901819004810282018101909252878152899350915087908790819084018382808284376000920191909152506124f992505050565b505050505050565b60006001600160a01b0382166112915760405162461bcd60e51b815260206004820152602960248201527f4552433732313a2061646472657373207a65726f206973206e6f7420612076616044820152683634b21037bbb732b960b91b6064820152608401610ae7565b506001600160a01b03166000908152600d602052604090205490565b6112b5612007565b6112bf6000612650565b565b600160205260009081526040902080546112da90613ef1565b80601f016020809104026020016040519081016040528092919081815260200182805461130690613ef1565b80156113535780601f1061132857610100808354040283529160200191611353565b820191906000526020600020905b81548152906001019060200180831161133657829003601f168201915b505050505081565b80516020808301919091206000818152600990925260409091206002015460ff166113c85760405162461bcd60e51b815260206004820152601a60248201527f4f4e46543732313a206e6f20637265646974732073746f7265640000000000006044820152606401610ae7565b6000828060200190518101906113de9190613fc7565b6000848152600960205260408120805460019091015492945090925061141a9161ffff8216916201000090046001600160a01b031690856126a0565b60008481526009602052604090206001015490915081116114985760405162461bcd60e51b815260206004820152603260248201527f4f4e46543732313a206e6f7420656e6f7567682067617320746f2070726f636560448201527139b99031b932b234ba103a3930b739b332b960711b6064820152608401610ae7565b8151810361150f5760008381526009602052604080822080546001600160b01b031916815560018101929092556002909101805460ff19169055517fd7be02b8dd0d27bd0517a9cb4d7469ce27df4313821ae5ec1ff69acc594ba233906115029085815260200190565b60405180910390a1610f31565b60408051608081018252600085815260096020818152848320805461ffff8082168752620100008083046001600160a01b03908116868a019081529989019a8b52600160608a018181529d9098529590945295519651969095166001600160b01b031990951694909417949091160292909217815591519082015591516002909201805460ff1916921515929092179091555050565b6060600b8054610cd690613ef1565b6115bc612007565b600081116116205760405162461bcd60e51b815260206004820152602b60248201527f4f4e46543732313a20647374436861696e4964546f42617463684c696d69742060448201526a06d757374206265203e20360ac1b6064820152608401610ae7565b61ffff909116600090815260076020526040902055565b61ffff811660009081526001602052604081208054606092919061165a90613ef1565b80601f016020809104026020016040519081016040528092919081815260200182805461168690613ef1565b80156116d35780601f106116a8576101008083540402835291602001916116d3565b820191906000526020600020905b8154815290600101906020018083116116b657829003601f168201915b50505050509050805160000361172b5760405162461bcd60e51b815260206004820152601d60248201527f4c7a4170703a206e6f20747275737465642070617468207265636f72640000006044820152606401610ae7565b61174660006014835161173e9190614097565b8391906126ec565b9392505050565b81611757816120b1565b610e1d83836127f9565b611769612007565b81813060405160200161177e939291906140aa565b60408051601f1981840301815291815261ffff85166000908152600160205220906117a99082614116565b507f8c0400cfe2d1199b1a725c78960bcc2a344d869b80590d0f2bd005db15a572ce8383836040516117dd93929190613f64565b60405180910390a1505050565b610c9b87878787878787612312565b836001600160a01b038116331461181357611813336120b1565b610ddb85858585612808565b611827612007565b600480546001600160a01b0319166001600160a01b0383169081179091556040519081527f5db758e995a17ec1ad84bdef7e8c3293a0bd6179bcce400dff5d4c3d87db726b9060200160405180910390a150565b606061188682612061565b600061189d60408051602081019091526000815290565b905060008151116118bd5760405180602001604052806000815250611746565b806118c78461283a565b6040516020016118d89291906141d5565b6040516020818303038152906040529392505050565b6118f6612007565b6040516332fb62e760e21b81526001600160a01b037f0000000000000000000000000000000000000000000000000000000000000000169063cbed8b9c9061194a9088908890889088908890600401614204565b600060405180830381600087803b15801561196457600080fd5b505af1158015611978573d6000803e3d6000fd5b505050505050505050565b61198b612007565b600081116119f05760405162461bcd60e51b815260206004820152602c60248201527f4f4e46543732313a20647374436861696e4964546f5472616e7366657247617360448201526b0206d757374206265203e20360a41b6064820152608401610ae7565b61ffff909116600090815260086020526040902055565b61ffff86166000908152600560205260408082209051611a2a9088908890613f2b565b90815260408051602092819003830190206001600160401b03871660009081529252902054905080611aaa5760405162461bcd60e51b815260206004820152602360248201527f4e6f6e626c6f636b696e674c7a4170703a206e6f2073746f726564206d65737360448201526261676560e81b6064820152608401610ae7565b808383604051611abb929190613f2b565b604051809103902014611b1a5760405162461bcd60e51b815260206004820152602160248201527f4e6f6e626c6f636b696e674c7a4170703a20696e76616c6964207061796c6f616044820152601960fa1b6064820152608401610ae7565b61ffff87166000908152600560205260408082209051611b3d9089908990613f2b565b90815260408051602092819003830181206001600160401b038916600090815290845282902093909355601f88018290048202830182019052868252611bd5918991899089908190840183828082843760009201919091525050604080516020601f8a018190048102820181019092528881528a9350915088908890819084018382808284376000920191909152506124f992505050565b7fc264d91f3adc5588250e1551f547752ca0cfa8f6b530d243b9f9f4cab10ea8e58787878785604051611c0c95949392919061423d565b60405180910390a150505050505050565b611c25612007565b60008111611c6d5760405162461bcd60e51b81526020600482015260156024820152744c7a4170703a20696e76616c6964206d696e47617360581b6044820152606401610ae7565b61ffff83811660008181526002602090815260408083209487168084529482529182902085905581519283528201929092529081018290527f9d5c7c0b934da8fefa9c7760c98383778a12dfbfc0c3b3106518f43fb9508ac0906060016117dd565b6001600160a01b039182166000908152600f6020908152604080832093909416825291909152205460ff1690565b611d05612007565b61ffff83166000908152600160205260409020611d23828483614278565b507ffa41487ad5d6728f0b19276fa1eddc16558578f5109fc39d2dc33c3230470dab8383836040516117dd93929190613f64565b60008060008686604051602001611d6f929190614372565b60408051601f198184030181529082905263040a7bb160e41b825291506001600160a01b037f000000000000000000000000000000000000000000000000000000000000000016906340a7bb1090611dd3908b90309086908b908b906004016143a0565b6040805180830381865afa158015611def573d6000803e3d6000fd5b505050506040513d601f19601f82011682018060405250810190611e1391906143f4565b92509250509550959350505050565b611e2a612007565b6001600160a01b038116611e8f5760405162461bcd60e51b815260206004820152602660248201527f4f776e61626c653a206e6577206f776e657220697320746865207a65726f206160448201526564647265737360d01b6064820152608401610ae7565b611e9881612650565b50565b604051633d7b2f6f60e21b815261ffff808616600483015284166024820152306044820152606481018290526060907f00000000000000000000000000000000000000000000000000000000000000006001600160a01b03169063f5ecbdbc90608401600060405180830381865afa158015611f1b573d6000803e3d6000fd5b505050506040513d6000823e601f3d908101601f19168201604052611f439190810190614418565b90505b949350505050565b600080611fb15a60966366ad5c8a60e01b89898989604051602401611f76949392919061444c565b60408051601f198184030181529190526020810180516001600160e01b03166001600160e01b031990931692909217909152309291906128cc565b915091508161121f5761121f8686868685612956565b60006001600160e01b031982166380ac58cd60e01b1480611ff857506001600160e01b03198216635b5e139f60e01b145b80610cc15750610cc1826129f3565b6000546001600160a01b031633146112bf5760405162461bcd60e51b815260206004820181905260248201527f4f776e61626c653a2063616c6c6572206973206e6f7420746865206f776e65726044820152606401610ae7565b61206a81612a28565b611e985760405162461bcd60e51b8152602060048201526018602482015277115490cdcc8c4e881a5b9d985b1a59081d1bdad95b88125160421b6044820152606401610ae7565b6daaeb6d7670e522a718067333cd4e3b15611e9857604051633185c44d60e21b81523060048201526001600160a01b03821660248201526daaeb6d7670e522a718067333cd4e9063c617113490604401602060405180830381865afa15801561211e573d6000803e3d6000fd5b505050506040513d601f19601f82011682018060405250810190612142919061448a565b611e9857604051633b79c77360e21b81526001600160a01b0382166004820152602401610ae7565b6000612175826110eb565b9050806001600160a01b0316836001600160a01b0316036121e25760405162461bcd60e51b815260206004820152602160248201527f4552433732313a20617070726f76616c20746f2063757272656e74206f776e656044820152603960f91b6064820152608401610ae7565b336001600160a01b03821614806121fe57506121fe8133611ccf565b6122705760405162461bcd60e51b815260206004820152603d60248201527f4552433732313a20617070726f76652063616c6c6572206973206e6f7420746f60448201527f6b656e206f776e6572206f7220617070726f76656420666f7220616c6c0000006064820152608401610ae7565b610e1d8383612a45565b612285335b82612ab3565b6122a15760405162461bcd60e51b8152600401610ae7906144a7565b610e1d838383612b11565b604080516001808252818301909252606091600091906020808301908036833701905050905082816000815181106122e6576122e66144f4565b602090810291909101015292915050565b610e1d838383604051806020016040528060008152506117f9565b60008451116123635760405162461bcd60e51b815260206004820152601a60248201527f4c7a4170703a20746f6b656e4964735b5d20697320656d7074790000000000006044820152606401610ae7565b835160011480612387575061ffff8616600090815260076020526040902054845111155b6123e75760405162461bcd60e51b815260206004820152602b60248201527f4f4e46543732313a2062617463682073697a652065786365656473206473742060448201526a18985d18da081b1a5b5a5d60aa1b6064820152608401610ae7565b60005b845181101561242a5761241888888888858151811061240b5761240b6144f4565b6020026020010151612c75565b806124228161450a565b9150506123ea565b5060008585604051602001612440929190614372565b6040516020818303038152906040529050612485876001848851600860008d61ffff1661ffff168152602001908152602001600020546124809190614523565b612d60565b612493878286868634612e3f565b856040516124a1919061453a565b6040518091039020886001600160a01b03168861ffff167fe1b87c47fdeb4f9cbadbca9df3af7aba453bb6e501075d0440d88125b711522a886040516124e79190614556565b60405180910390a45050505050505050565b600080828060200190518101906125109190613fc7565b601482015191935091506000612528888383866126a0565b905082518110156125fc5784516020808701919091206040805160808101825261ffff808d1682526001600160a01b0380881683870190815283850188815260016060860181815260008981526009909a529887902095518654935190941662010000026001600160b01b03199093169390941692909217178355519082015592516002909301805493151560ff199094169390931790925590517f10e0b70d256bccc84b7027506978bd8b68984a870788b93b479def144c839ad7906125f29083908990614569565b60405180910390a1505b816001600160a01b031687604051612614919061453a565b60405180910390208961ffff167f5b821db8a46f8ecbe1941ba2f51cfeea9643268b56631f70d45e2a745d990265866040516124e79190614556565b600080546001600160a01b038381166001600160a01b0319831681178455604051919092169283917f8be0079c531659141344cd1fd0a4f28419497f9722a3daafe3b4186f6b6457e09190a35050565b6000825b8251811015611f43576006545a10611f43576126da86868584815181106126cd576126cd6144f4565b6020026020010151612fe4565b806126e48161450a565b9150506126a4565b6060816126fa81601f614582565b10156127395760405162461bcd60e51b815260206004820152600e60248201526d736c6963655f6f766572666c6f7760901b6044820152606401610ae7565b6127438284614582565b845110156127875760405162461bcd60e51b8152602060048201526011602482015270736c6963655f6f75744f66426f756e647360781b6044820152606401610ae7565b6060821580156127a657604051915060008252602082016040526127f0565b6040519150601f8416801560200281840101858101878315602002848b0101015b818310156127df5780518352602092830192016127c7565b5050858452601f01601f1916604052505b50949350505050565b612804338383613044565b5050565b6128123383612ab3565b61282e5760405162461bcd60e51b8152600401610ae7906144a7565b610f3184848484613112565b6060600061284783613145565b60010190506000816001600160401b038111156128665761286661381e565b6040519080825280601f01601f191660200182016040528015612890576020820181803683370190505b5090508181016020015b600019016f181899199a1a9b1b9c1cb0b131b232b360811b600a86061a8153600a850494508461289a57509392505050565b6000606060008060008661ffff166001600160401b038111156128f1576128f161381e565b6040519080825280601f01601f19166020018201604052801561291b576020820181803683370190505b50905060008087516020890160008d8df191503d92508683111561293d578692505b828152826000602083013e909890975095505050505050565b8180519060200120600560008761ffff1661ffff16815260200190815260200160002085604051612987919061453a565b9081526040805191829003602090810183206001600160401b0388166000908152915220919091557fe183f33de2837795525b4792ca4cd60535bd77c53b7e7030060bfcf5734d6b0c906129e49087908790879087908790614595565b60405180910390a15050505050565b60006001600160e01b031982166322bac5d960e01b1480610cc157506301ffc9a760e01b6001600160e01b0319831614610cc1565b6000908152600c60205260409020546001600160a01b0316151590565b6000818152600e6020526040902080546001600160a01b0319166001600160a01b0384169081179091558190612a7a826110eb565b6001600160a01b03167f8c5be1e5ebec7d5bd14f71427d1e84f3dd0314c0f7b2291e5b200ac8c7c3b92560405160405180910390a45050565b600080612abf836110eb565b9050806001600160a01b0316846001600160a01b03161480612ae65750612ae68185611ccf565b80611f465750836001600160a01b0316612aff84610de2565b6001600160a01b031614949350505050565b826001600160a01b0316612b24826110eb565b6001600160a01b031614612b4a5760405162461bcd60e51b8152600401610ae7906145e7565b6001600160a01b038216612bac5760405162461bcd60e51b8152602060048201526024808201527f4552433732313a207472616e7366657220746f20746865207a65726f206164646044820152637265737360e01b6064820152608401610ae7565b826001600160a01b0316612bbf826110eb565b6001600160a01b031614612be55760405162461bcd60e51b8152600401610ae7906145e7565b6000818152600e6020908152604080832080546001600160a01b03199081169091556001600160a01b03878116808652600d8552838620805460001901905590871680865283862080546001019055868652600c90945282852080549092168417909155905184937fddf252ad1be2c89b69c2b068fc378daa952ba7f163c4a11628f55a4df523b3ef91a4505050565b612c7e3361227f565b612ce15760405162461bcd60e51b815260206004820152602e60248201527f4f4e46543732313a2073656e642063616c6c6572206973206e6f74206f776e6560448201526d1c881b9bdc88185c1c1c9bdd995960921b6064820152608401610ae7565b836001600160a01b0316612cf4826110eb565b6001600160a01b031614612d555760405162461bcd60e51b815260206004820152602260248201527f4f4e46543732313a2073656e642066726f6d20696e636f7272656374206f776e60448201526132b960f11b6064820152608401610ae7565b610f31843083612b11565b6000612d6b8361321d565b61ffff808716600090815260026020908152604080832093891683529290529081205491925090612d9d908490614582565b905060008111612def5760405162461bcd60e51b815260206004820152601a60248201527f4c7a4170703a206d696e4761734c696d6974206e6f74207365740000000000006044820152606401610ae7565b8082101561121f5760405162461bcd60e51b815260206004820152601b60248201527f4c7a4170703a20676173206c696d697420697320746f6f206c6f7700000000006044820152606401610ae7565b61ffff861660009081526001602052604081208054612e5d90613ef1565b80601f0160208091040260200160405190810160405280929190818152602001828054612e8990613ef1565b8015612ed65780601f10612eab57610100808354040283529160200191612ed6565b820191906000526020600020905b815481529060010190602001808311612eb957829003601f168201915b505050505090508051600003612f475760405162461bcd60e51b815260206004820152603060248201527f4c7a4170703a2064657374696e6174696f6e20636861696e206973206e6f742060448201526f61207472757374656420736f7572636560801b6064820152608401610ae7565b612f52878751613279565b60405162c5803160e81b81526001600160a01b037f0000000000000000000000000000000000000000000000000000000000000000169063c5803100908490612fa9908b9086908c908c908c908c9060040161462c565b6000604051808303818588803b158015612fc257600080fd5b505af1158015612fd6573d6000803e3d6000fd5b505050505050505050505050565b612fed81612a28565b15806130195750612ffd81612a28565b801561301957503061300e826110eb565b6001600160a01b0316145b61302257600080fd5b61302b81612a28565b61303957610e1d82826132ea565b610e1d308383612b11565b816001600160a01b0316836001600160a01b0316036130a55760405162461bcd60e51b815260206004820152601960248201527f4552433732313a20617070726f766520746f2063616c6c6572000000000000006044820152606401610ae7565b6001600160a01b038381166000818152600f6020908152604080832094871680845294825291829020805460ff191686151590811790915591519182527f17307eab39ab6107e8899845ad3d59bd9653f200f220920489ca2b5937696c31910160405180910390a3505050565b61311d848484612b11565b61312984848484613304565b610f315760405162461bcd60e51b8152600401610ae790614693565b60008072184f03e93ff9f4daa797ed6e38ed64bf6a1f0160401b83106131845772184f03e93ff9f4daa797ed6e38ed64bf6a1f0160401b830492506040015b6d04ee2d6d415b85acef810000000083106131b0576d04ee2d6d415b85acef8100000000830492506020015b662386f26fc1000083106131ce57662386f26fc10000830492506010015b6305f5e10083106131e6576305f5e100830492506008015b61271083106131fa57612710830492506004015b6064831061320c576064830492506002015b600a8310610cc15760010192915050565b60006022825110156132715760405162461bcd60e51b815260206004820152601c60248201527f4c7a4170703a20696e76616c69642061646170746572506172616d73000000006044820152606401610ae7565b506022015190565b61ffff82166000908152600360205260408120549081900361329a57506127105b80821115610e1d5760405162461bcd60e51b815260206004820181905260248201527f4c7a4170703a207061796c6f61642073697a6520697320746f6f206c617267656044820152606401610ae7565b612804828260405180602001604052806000815250613402565b60006001600160a01b0384163b156133fa57604051630a85bd0160e11b81526001600160a01b0385169063150b7a02906133489033908990889088906004016146e5565b6020604051808303816000875af1925050508015613383575060408051601f3d908101601f1916820190925261338091810190614722565b60015b6133e0573d8080156133b1576040519150601f19603f3d011682016040523d82523d6000602084013e6133b6565b606091505b5080516000036133d85760405162461bcd60e51b8152600401610ae790614693565b805181602001fd5b6001600160e01b031916630a85bd0160e11b149050611f46565b506001611f46565b61340c8383613435565b6134196000848484613304565b610e1d5760405162461bcd60e51b8152600401610ae790614693565b6001600160a01b03821661348b5760405162461bcd60e51b815260206004820181905260248201527f4552433732313a206d696e7420746f20746865207a65726f20616464726573736044820152606401610ae7565b61349481612a28565b156134e15760405162461bcd60e51b815260206004820152601c60248201527f4552433732313a20746f6b656e20616c7265616479206d696e746564000000006044820152606401610ae7565b6134ea81612a28565b156135375760405162461bcd60e51b815260206004820152601c60248201527f4552433732313a20746f6b656e20616c7265616479206d696e746564000000006044820152606401610ae7565b6001600160a01b0382166000818152600d6020908152604080832080546001019055848352600c90915280822080546001600160a01b0319168417905551839291907fddf252ad1be2c89b69c2b068fc378daa952ba7f163c4a11628f55a4df523b3ef908290a45050565b803561ffff811681146135b457600080fd5b919050565b60008083601f8401126135cb57600080fd5b5081356001600160401b038111156135e257600080fd5b6020830191508360208285010111156135fa57600080fd5b9250929050565b80356001600160401b03811681146135b457600080fd5b6000806000806000806080878903121561363157600080fd5b61363a876135a2565b955060208701356001600160401b038082111561365657600080fd5b6136628a838b016135b9565b909750955085915061367660408a01613601565b9450606089013591508082111561368c57600080fd5b5061369989828a016135b9565b979a9699509497509295939492505050565b6001600160e01b031981168114611e9857600080fd5b6000602082840312156136d357600080fd5b8135611746816136ab565b60005b838110156136f95781810151838201526020016136e1565b50506000910152565b6000815180845261371a8160208601602086016136de565b601f01601f19169290920160200192915050565b6020815260006117466020830184613702565b60006020828403121561375357600080fd5b611746826135a2565b60006020828403121561376e57600080fd5b5035919050565b6001600160a01b0381168114611e9857600080fd5b80356135b481613775565b600080604083850312156137a857600080fd5b82356137b381613775565b946020939093013593505050565b600080604083850312156137d457600080fd5b6137b3836135a2565b6000806000606084860312156137f257600080fd5b83356137fd81613775565b9250602084013561380d81613775565b929592945050506040919091013590565b634e487b7160e01b600052604160045260246000fd5b604051601f8201601f191681016001600160401b038111828210171561385c5761385c61381e565b604052919050565b60006001600160401b0382111561387d5761387d61381e565b50601f01601f191660200190565b600082601f83011261389c57600080fd5b81356138af6138aa82613864565b613834565b8181528460208386010111156138c457600080fd5b816020850160208301376000918101602001919091529392505050565b8015158114611e9857600080fd5b600080600080600060a0868803121561390757600080fd5b613910866135a2565b945060208601356001600160401b038082111561392c57600080fd5b61393889838a0161388b565b95506040880135945060608801359150613951826138e1565b9092506080870135908082111561396757600080fd5b506139748882890161388b565b9150509295509295909350565b60008060006040848603121561399657600080fd5b61399f846135a2565b925060208401356001600160401b038111156139ba57600080fd5b6139c6868287016135b9565b9497909650939450505050565b600080600080600080600060e0888a0312156139ee57600080fd5b87356139f981613775565b9650613a07602089016135a2565b955060408801356001600160401b0380821115613a2357600080fd5b613a2f8b838c0161388b565b965060608a0135955060808a01359150613a4882613775565b90935060a089013590613a5a82613775565b90925060c08901359080821115613a7057600080fd5b50613a7d8a828b0161388b565b91505092959891949750929550565b600080600060608486031215613aa157600080fd5b613aaa846135a2565b925060208401356001600160401b03811115613ac557600080fd5b613ad18682870161388b565b925050613ae060408501613601565b90509250925092565b600060208284031215613afb57600080fd5b813561174681613775565b60008060408385031215613b1957600080fd5b613b22836135a2565b9150613b30602084016135a2565b90509250929050565b600060208284031215613b4b57600080fd5b81356001600160401b03811115613b6157600080fd5b611f468482850161388b565b60008060408385031215613b8057600080fd5b8235613b8b81613775565b91506020830135613b9b816138e1565b809150509250929050565b60006001600160401b03821115613bbf57613bbf61381e565b5060051b60200190565b600082601f830112613bda57600080fd5b81356020613bea6138aa83613ba6565b82815260059290921b84018101918181019086841115613c0957600080fd5b8286015b84811015613c245780358352918301918301613c0d565b509695505050505050565b600080600080600080600060e0888a031215613c4a57600080fd5b8735613c5581613775565b9650613c63602089016135a2565b955060408801356001600160401b0380821115613c7f57600080fd5b613c8b8b838c0161388b565b965060608a0135915080821115613ca157600080fd5b613cad8b838c01613bc9565b955060808a01359150613cbf82613775565b819450613cce60a08b0161378a565b935060c08a0135915080821115613a7057600080fd5b60008060008060808587031215613cfa57600080fd5b8435613d0581613775565b93506020850135613d1581613775565b92506040850135915060608501356001600160401b03811115613d3757600080fd5b613d438782880161388b565b91505092959194509250565b600080600080600060808688031215613d6757600080fd5b613d70866135a2565b9450613d7e602087016135a2565b93506040860135925060608601356001600160401b03811115613da057600080fd5b613dac888289016135b9565b969995985093965092949392505050565b600080600060608486031215613dd257600080fd5b613ddb846135a2565b9250613de9602085016135a2565b9150604084013590509250925092565b60008060408385031215613e0c57600080fd5b8235613e1781613775565b91506020830135613b9b81613775565b600080600080600060a08688031215613e3f57600080fd5b613e48866135a2565b945060208601356001600160401b0380821115613e6457600080fd5b613e7089838a0161388b565b95506040880135915080821115613e8657600080fd5b613e9289838a01613bc9565b945060608801359150613951826138e1565b60008060008060808587031215613eba57600080fd5b613ec3856135a2565b9350613ed1602086016135a2565b92506040850135613ee181613775565b9396929550929360600135925050565b600181811c90821680613f0557607f821691505b602082108103613f2557634e487b7160e01b600052602260045260246000fd5b50919050565b8183823760009101908152919050565b81835281816020850137506000828201602090810191909152601f909101601f19169091010190565b61ffff84168152604060208201526000611f43604083018486613f3b565b600082601f830112613f9357600080fd5b8151613fa16138aa82613864565b818152846020838601011115613fb657600080fd5b611f468260208301602087016136de565b60008060408385031215613fda57600080fd5b82516001600160401b0380821115613ff157600080fd5b613ffd86838701613f82565b935060209150818501518181111561401457600080fd5b85019050601f8101861361402757600080fd5b80516140356138aa82613ba6565b81815260059190911b8201830190838101908883111561405457600080fd5b928401925b8284101561407257835182529284019290840190614059565b80955050505050509250929050565b634e487b7160e01b600052601160045260246000fd5b81810381811115610cc157610cc1614081565b8284823760609190911b6bffffffffffffffffffffffff19169101908152601401919050565b601f821115610e1d57600081815260208120601f850160051c810160208610156140f75750805b601f850160051c820191505b8181101561121f57828155600101614103565b81516001600160401b0381111561412f5761412f61381e565b6141438161413d8454613ef1565b846140d0565b602080601f83116001811461417857600084156141605750858301515b600019600386901b1c1916600185901b17855561121f565b600085815260208120601f198616915b828110156141a757888601518255948401946001909101908401614188565b50858210156141c55787850151600019600388901b60f8161c191681555b5050505050600190811b01905550565b600083516141e78184602088016136de565b8351908301906141fb8183602088016136de565b01949350505050565b600061ffff808816835280871660208401525084604083015260806060830152614232608083018486613f3b565b979650505050505050565b61ffff8616815260806020820152600061425b608083018688613f3b565b6001600160401b0394909416604083015250606001529392505050565b6001600160401b0383111561428f5761428f61381e565b6142a38361429d8354613ef1565b836140d0565b6000601f8411600181146142d757600085156142bf5750838201355b600019600387901b1c1916600186901b178355610ddb565b600083815260209020601f19861690835b8281101561430857868501358255602094850194600190920191016142e8565b50868210156143255760001960f88860031b161c19848701351681555b505060018560011b0183555050505050565b600081518084526020808501945080840160005b838110156143675781518752958201959082019060010161434b565b509495945050505050565b6040815260006143856040830185613702565b82810360208401526143978185614337565b95945050505050565b61ffff861681526001600160a01b038516602082015260a0604082018190526000906143ce90830186613702565b841515606084015282810360808401526143e88185613702565b98975050505050505050565b6000806040838503121561440757600080fd5b505080516020909101519092909150565b60006020828403121561442a57600080fd5b81516001600160401b0381111561444057600080fd5b611f4684828501613f82565b61ffff851681526080602082015260006144696080830186613702565b6001600160401b038516604084015282810360608401526142328185613702565b60006020828403121561449c57600080fd5b8151611746816138e1565b6020808252602d908201527f4552433732313a2063616c6c6572206973206e6f7420746f6b656e206f776e6560408201526c1c881bdc88185c1c1c9bdd9959609a1b606082015260800190565b634e487b7160e01b600052603260045260246000fd5b60006001820161451c5761451c614081565b5060010190565b8082028115828204841417610cc157610cc1614081565b6000825161454c8184602087016136de565b9190910192915050565b6020815260006117466020830184614337565b828152604060208201526000611f466040830184613702565b80820180821115610cc157610cc1614081565b61ffff8616815260a0602082015260006145b260a0830187613702565b6001600160401b038616604084015282810360608401526145d38186613702565b905082810360808401526143e88185613702565b60208082526025908201527f4552433732313a207472616e736665722066726f6d20696e636f72726563742060408201526437bbb732b960d91b606082015260800190565b61ffff8716815260c06020820152600061464960c0830188613702565b828103604084015261465b8188613702565b6001600160a01b0387811660608601528616608085015283810360a085015290506146868185613702565b9998505050505050505050565b60208082526032908201527f4552433732313a207472616e7366657220746f206e6f6e20455243373231526560408201527131b2b4bb32b91034b6b83632b6b2b73a32b960711b606082015260800190565b6001600160a01b038581168252841660208201526040810183905260806060820181905260009061471890830184613702565b9695505050505050565b60006020828403121561473457600080fd5b8151611746816136ab56fea26469706673582212209271eeaedd05d1f6ee9f44eb1dab1749102e76199a1f53903c61cd0563e063c164736f6c63430008110033",
    "linkReferences": {}
  },
  "methodIdentifiers": {
    "DEFAULT_PAYLOAD_SIZE_LIMIT()": "c4461834",
    "FUNCTION_TYPE_SEND()": "af3fb21c",
    "OPERATOR_FILTER_REGISTRY()": "41f43434",
    "approve(address,uint256)": "095ea7b3",
    "balanceOf(address)": "70a08231",
    "clearCredits(bytes)": "8ffa1f2a",
    "dstChainIdToBatchLimit(uint16)": "4ac3f4ff",
    "dstChainIdToTransferGas(uint16)": "fa25f9b6",
    "estimateSendBatchFee(uint16,bytes,uint256[],bool,bytes)": "f2353641",
    "estimateSendFee(uint16,bytes,uint256,bool,bytes)": "2a205e3d",
    "failedMessages(uint16,bytes,uint64)": "5b8c41e6",
    "forceResumeReceive(uint16,bytes)": "42d65a8d",
    "getApproved(uint256)": "081812fc",
    "getConfig(uint16,uint16,address,uint256)": "f5ecbdbc",
    "getTrustedRemoteAddress(uint16)": "9f38369a",
    "isApprovedForAll(address,address)": "e985e9c5",
    "isTrustedRemote(uint16,bytes)": "3d8b38f6",
    "lzEndpoint()": "b353aaa7",
    "lzReceive(uint16,bytes,uint64,bytes)": "001d3567",
    "minDstGasLookup(uint16,uint16)": "8cfd8f5c",
    "minGasToTransferAndStore()": "48288190",
    "name()": "06fdde03",
    "nonblockingLzReceive(uint16,bytes,uint64,bytes)": "66ad5c8a",
    "owner()": "8da5cb5b",
    "ownerOf(uint256)": "6352211e",
    "payloadSizeLimitLookup(uint16)": "3f1f4fa4",
    "precrime()": "950c8a74",
    "renounceOwnership()": "715018a6",
    "retryMessage(uint16,bytes,uint64,bytes)": "d1deba1f",
    "safeTransferFrom(address,address,uint256)": "42842e0e",
    "safeTransferFrom(address,address,uint256,bytes)": "b88d4fde",
    "sendBatchFrom(address,uint16,bytes,uint256[],address,address,bytes)": "ab3ffb93",
    "sendFrom(address,uint16,bytes,uint256,address,address,bytes)": "51905636",
    "setApprovalForAll(address,bool)": "a22cb465",
    "setConfig(uint16,uint16,uint256,bytes)": "cbed8b9c",
    "setDstChainIdToBatchLimit(uint16,uint256)": "9ea5d6b1",
    "setDstChainIdToTransferGas(uint16,uint256)": "d12473a5",
    "setMinDstGas(uint16,uint16,uint256)": "df2a5b3b",
    "setMinGasToTransferAndStore(uint256)": "0b4cad4c",
    "setPayloadSizeLimit(uint16,uint256)": "0df37483",
    "setPrecrime(address)": "baf3292d",
    "setReceiveVersion(uint16)": "10ddb137",
    "setSendVersion(uint16)": "07e0db17",
    "setTrustedRemote(uint16,bytes)": "eb8d72b7",
    "setTrustedRemoteAddress(uint16,bytes)": "a6c3d165",
    "storedCredits(bytes32)": "22a3ecf9",
    "supportsInterface(bytes4)": "01ffc9a7",
    "symbol()": "95d89b41",
    "tokenURI(uint256)": "c87b56dd",
    "transferFrom(address,address,uint256)": "23b872dd",
    "transferOwnership(address)": "f2fde38b",
    "trustedRemoteLookup(uint16)": "7533d788"
  },
  "id": 93
}