{
  "abi": [
    {
      "inputs": [
        {
          "internalType": "string",
          "name": "_name",
          "type": "string"
        },
        {
          "internalType": "string",
          "name": "_symbol",
          "type": "string"
        },
        {
          "internalType": "address",
          "name": "_lzEndpoint",
          "type": "address"
        }
      ],
      "stateMutability": "nonpayable",
      "type": "constructor"
    },
    {
      "inputs": [
        {
          "internalType": "address",
          "name": "operator",
          "type": "address"
        }
      ],
      "name": "OperatorNotAllowed",
      "type": "error"
    },
    {
      "anonymous": false,
      "inputs": [
        {
          "indexed": true,
          "internalType": "address",
          "name": "owner",
          "type": "address"
        },
        {
          "indexed": true,
          "internalType": "address",
          "name": "approved",
          "type": "address"
        },
        {
          "indexed": true,
          "internalType": "uint256",
          "name": "tokenId",
          "type": "uint256"
        }
      ],
      "name": "Approval",
      "type": "event"
    },
    {
      "anonymous": false,
      "inputs": [
        {
          "indexed": true,
          "internalType": "address",
          "name": "owner",
          "type": "address"
        },
        {
          "indexed": true,
          "internalType": "address",
          "name": "operator",
          "type": "address"
        },
        {
          "indexed": false,
          "internalType": "bool",
          "name": "approved",
          "type": "bool"
        }
      ],
      "name": "ApprovalForAll",
      "type": "event"
    },
    {
      "anonymous": false,
      "inputs": [
        {
          "indexed": false,
          "internalType": "uint16",
          "name": "_srcChainId",
          "type": "uint16"
        },
        {
          "indexed": false,
          "internalType": "bytes",
          "name": "_srcAddress",
          "type": "bytes"
        },
        {
          "indexed": false,
          "internalType": "uint64",
          "name": "_nonce",
          "type": "uint64"
        },
        {
          "indexed": false,
          "internalType": "bytes",
          "name": "_payload",
          "type": "bytes"
        },
        {
          "indexed": false,
          "internalType": "bytes",
          "name": "_reason",
          "type": "bytes"
        }
      ],
      "name": "MessageFailed",
      "type": "event"
    },
    {
      "anonymous": false,
      "inputs": [
        {
          "indexed": true,
          "internalType": "address",
          "name": "previousOwner",
          "type": "address"
        },
        {
          "indexed": true,
          "internalType": "address",
          "name": "newOwner",
          "type": "address"
        }
      ],
      "name": "OwnershipTransferred",
      "type": "event"
    },
    {
      "anonymous": false,
      "inputs": [
        {
          "indexed": true,
          "internalType": "uint16",
          "name": "_srcChainId",
          "type": "uint16"
        },
        {
          "indexed": true,
          "internalType": "bytes",
          "name": "_srcAddress",
          "type": "bytes"
        },
        {
          "indexed": true,
          "internalType": "address",
          "name": "_toAddress",
          "type": "address"
        },
        {
          "indexed": false,
          "internalType": "uint256",
          "name": "_tokenId",
          "type": "uint256"
        },
        {
          "indexed": false,
          "internalType": "uint64",
          "name": "_nonce",
          "type": "uint64"
        }
      ],
      "name": "ReceiveFromChain",
      "type": "event"
    },
    {
      "anonymous": false,
      "inputs": [
        {
          "indexed": false,
          "internalType": "uint16",
          "name": "_srcChainId",
          "type": "uint16"
        },
        {
          "indexed": false,
          "internalType": "bytes",
          "name": "_srcAddress",
          "type": "bytes"
        },
        {
          "indexed": false,
          "internalType": "uint64",
          "name": "_nonce",
          "type": "uint64"
        },
        {
          "indexed": false,
          "internalType": "bytes32",
          "name": "_payloadHash",
          "type": "bytes32"
        }
      ],
      "name": "RetryMessageSuccess",
      "type": "event"
    },
    {
      "anonymous": false,
      "inputs": [
        {
          "indexed": true,
          "internalType": "address",
          "name": "_sender",
          "type": "address"
        },
        {
          "indexed": true,
          "internalType": "uint16",
          "name": "_dstChainId",
          "type": "uint16"
        },
        {
          "indexed": true,
          "internalType": "bytes",
          "name": "_toAddress",
          "type": "bytes"
        },
        {
          "indexed": false,
          "internalType": "uint256",
          "name": "_tokenId",
          "type": "uint256"
        },
        {
          "indexed": false,
          "internalType": "uint64",
          "name": "_nonce",
          "type": "uint64"
        }
      ],
      "name": "SendToChain",
      "type": "event"
    },
    {
      "anonymous": false,
      "inputs": [
        {
          "indexed": false,
          "internalType": "uint16",
          "name": "_dstChainId",
          "type": "uint16"
        },
        {
          "indexed": false,
          "internalType": "uint16",
          "name": "_type",
          "type": "uint16"
        },
        {
          "indexed": false,
          "internalType": "uint256",
          "name": "_minDstGas",
          "type": "uint256"
        }
      ],
      "name": "SetMinDstGas",
      "type": "event"
    },
    {
      "anonymous": false,
      "inputs": [
        {
          "indexed": false,
          "internalType": "address",
          "name": "precrime",
          "type": "address"
        }
      ],
      "name": "SetPrecrime",
      "type": "event"
    },
    {
      "anonymous": false,
      "inputs": [
        {
          "indexed": false,
          "internalType": "uint16",
          "name": "_remoteChainId",
          "type": "uint16"
        },
        {
          "indexed": false,
          "internalType": "bytes",
          "name": "_path",
          "type": "bytes"
        }
      ],
      "name": "SetTrustedRemote",
      "type": "event"
    },
    {
      "anonymous": false,
      "inputs": [
        {
          "indexed": false,
          "internalType": "uint16",
          "name": "_remoteChainId",
          "type": "uint16"
        },
        {
          "indexed": false,
          "internalType": "bytes",
          "name": "_remoteAddress",
          "type": "bytes"
        }
      ],
      "name": "SetTrustedRemoteAddress",
      "type": "event"
    },
    {
      "anonymous": false,
      "inputs": [
        {
          "indexed": true,
          "internalType": "address",
          "name": "from",
          "type": "address"
        },
        {
          "indexed": true,
          "internalType": "address",
          "name": "to",
          "type": "address"
        },
        {
          "indexed": true,
          "internalType": "uint256",
          "name": "tokenId",
          "type": "uint256"
        }
      ],
      "name": "Transfer",
      "type": "event"
    },
    {
      "inputs": [],
      "name": "DEFAULT_PAYLOAD_SIZE_LIMIT",
      "outputs": [
        {
          "internalType": "uint256",
          "name": "",
          "type": "uint256"
        }
      ],
      "stateMutability": "view",
      "type": "function"
    },
    {
      "inputs": [],
      "name": "OPERATOR_FILTER_REGISTRY",
      "outputs": [
        {
          "internalType": "contract IOperatorFilterRegistry",
          "name": "",
          "type": "address"
        }
      ],
      "stateMutability": "view",
      "type": "function"
    },
    {
      "inputs": [
        {
          "internalType": "address",
          "name": "operator",
          "type": "address"
        },
        {
          "internalType": "uint256",
          "name": "tokenId",
          "type": "uint256"
        }
      ],
      "name": "approve",
      "outputs": [],
      "stateMutability": "nonpayable",
      "type": "function"
    },
    {
      "inputs": [
        {
          "internalType": "address",
          "name": "owner",
          "type": "address"
        }
      ],
      "name": "balanceOf",
      "outputs": [
        {
          "internalType": "uint256",
          "name": "",
          "type": "uint256"
        }
      ],
      "stateMutability": "view",
      "type": "function"
    },
    {
      "inputs": [
        {
          "internalType": "uint16",
          "name": "_dstChainId",
          "type": "uint16"
        },
        {
          "internalType": "bytes",
          "name": "_toAddress",
          "type": "bytes"
        },
        {
          "internalType": "uint256",
          "name": "_tokenId",
          "type": "uint256"
        },
        {
          "internalType": "bool",
          "name": "_useZro",
          "type": "bool"
        },
        {
          "internalType": "bytes",
          "name": "_adapterParams",
          "type": "bytes"
        }
      ],
      "name": "estimateSendFee",
      "outputs": [
        {
          "internalType": "uint256",
          "name": "nativeFee",
          "type": "uint256"
        },
        {
          "internalType": "uint256",
          "name": "zroFee",
          "type": "uint256"
        }
      ],
      "stateMutability": "view",
      "type": "function"
    },
    {
      "inputs": [
        {
          "internalType": "uint16",
          "name": "",
          "type": "uint16"
        },
        {
          "internalType": "bytes",
          "name": "",
          "type": "bytes"
        },
        {
          "internalType": "uint64",
          "name": "",
          "type": "uint64"
        }
      ],
      "name": "failedMessages",
      "outputs": [
        {
          "internalType": "bytes32",
          "name": "",
          "type": "bytes32"
        }
      ],
      "stateMutability": "view",
      "type": "function"
    },
    {
      "inputs": [
        {
          "internalType": "uint16",
          "name": "_srcChainId",
          "type": "uint16"
        },
        {
          "internalType": "bytes",
          "name": "_srcAddress",
          "type": "bytes"
        }
      ],
      "name": "forceResumeReceive",
      "outputs": [],
      "stateMutability": "nonpayable",
      "type": "function"
    },
    {
      "inputs": [
        {
          "internalType": "uint256",
          "name": "tokenId",
          "type": "uint256"
        }
      ],
      "name": "getApproved",
      "outputs": [
        {
          "internalType": "address",
          "name": "",
          "type": "address"
        }
      ],
      "stateMutability": "view",
      "type": "function"
    },
    {
      "inputs": [
        {
          "internalType": "uint16",
          "name": "_version",
          "type": "uint16"
        },
        {
          "internalType": "uint16",
          "name": "_chainId",
          "type": "uint16"
        },
        {
          "internalType": "address",
          "name": "",
          "type": "address"
        },
        {
          "internalType": "uint256",
          "name": "_configType",
          "type": "uint256"
        }
      ],
      "name": "getConfig",
      "outputs": [
        {
          "internalType": "bytes",
          "name": "",
          "type": "bytes"
        }
      ],
      "stateMutability": "view",
      "type": "function"
    },
    {
      "inputs": [
        {
          "internalType": "uint16",
          "name": "_remoteChainId",
          "type": "uint16"
        }
      ],
      "name": "getTrustedRemoteAddress",
      "outputs": [
        {
          "internalType": "bytes",
          "name": "",
          "type": "bytes"
        }
      ],
      "stateMutability": "view",
      "type": "function"
    },
    {
      "inputs": [
        {
          "internalType": "address",
          "name": "owner",
          "type": "address"
        },
        {
          "internalType": "address",
          "name": "operator",
          "type": "address"
        }
      ],
      "name": "isApprovedForAll",
      "outputs": [
        {
          "internalType": "bool",
          "name": "",
          "type": "bool"
        }
      ],
      "stateMutability": "view",
      "type": "function"
    },
    {
      "inputs": [
        {
          "internalType": "uint16",
          "name": "_srcChainId",
          "type": "uint16"
        },
        {
          "internalType": "bytes",
          "name": "_srcAddress",
          "type": "bytes"
        }
      ],
      "name": "isTrustedRemote",
      "outputs": [
        {
          "internalType": "bool",
          "name": "",
          "type": "bool"
        }
      ],
      "stateMutability": "view",
      "type": "function"
    },
    {
      "inputs": [],
      "name": "lzEndpoint",
      "outputs": [
        {
          "internalType": "contract ILayerZeroEndpoint",
          "name": "",
          "type": "address"
        }
      ],
      "stateMutability": "view",
      "type": "function"
    },
    {
      "inputs": [
        {
          "internalType": "uint16",
          "name": "_srcChainId",
          "type": "uint16"
        },
        {
          "internalType": "bytes",
          "name": "_srcAddress",
          "type": "bytes"
        },
        {
          "internalType": "uint64",
          "name": "_nonce",
          "type": "uint64"
        },
        {
          "internalType": "bytes",
          "name": "_payload",
          "type": "bytes"
        }
      ],
      "name": "lzReceive",
      "outputs": [],
      "stateMutability": "nonpayable",
      "type": "function"
    },
    {
      "inputs": [
        {
          "internalType": "uint16",
          "name": "",
          "type": "uint16"
        },
        {
          "internalType": "uint16",
          "name": "",
          "type": "uint16"
        }
      ],
      "name": "minDstGasLookup",
      "outputs": [
        {
          "internalType": "uint256",
          "name": "",
          "type": "uint256"
        }
      ],
      "stateMutability": "view",
      "type": "function"
    },
    {
      "inputs": [],
      "name": "name",
      "outputs": [
        {
          "internalType": "string",
          "name": "",
          "type": "string"
        }
      ],
      "stateMutability": "view",
      "type": "function"
    },
    {
      "inputs": [
        {
          "internalType": "uint16",
          "name": "_srcChainId",
          "type": "uint16"
        },
        {
          "internalType": "bytes",
          "name": "_srcAddress",
          "type": "bytes"
        },
        {
          "internalType": "uint64",
          "name": "_nonce",
          "type": "uint64"
        },
        {
          "internalType": "bytes",
          "name": "_payload",
          "type": "bytes"
        }
      ],
      "name": "nonblockingLzReceive",
      "outputs": [],
      "stateMutability": "nonpayable",
      "type": "function"
    },
    {
      "inputs": [],
      "name": "owner",
      "outputs": [
        {
          "internalType": "address",
          "name": "",
          "type": "address"
        }
      ],
      "stateMutability": "view",
      "type": "function"
    },
    {
      "inputs": [
        {
          "internalType": "uint256",
          "name": "tokenId",
          "type": "uint256"
        }
      ],
      "name": "ownerOf",
      "outputs": [
        {
          "internalType": "address",
          "name": "",
          "type": "address"
        }
      ],
      "stateMutability": "view",
      "type": "function"
    },
    {
      "inputs": [
        {
          "internalType": "uint16",
          "name": "",
          "type": "uint16"
        }
      ],
      "name": "payloadSizeLimitLookup",
      "outputs": [
        {
          "internalType": "uint256",
          "name": "",
          "type": "uint256"
        }
      ],
      "stateMutability": "view",
      "type": "function"
    },
    {
      "inputs": [],
      "name": "precrime",
      "outputs": [
        {
          "internalType": "address",
          "name": "",
          "type": "address"
        }
      ],
      "stateMutability": "view",
      "type": "function"
    },
    {
      "inputs": [],
      "name": "renounceOwnership",
      "outputs": [],
      "stateMutability": "nonpayable",
      "type": "function"
    },
    {
      "inputs": [
        {
          "internalType": "uint16",
          "name": "_srcChainId",
          "type": "uint16"
        },
        {
          "internalType": "bytes",
          "name": "_srcAddress",
          "type": "bytes"
        },
        {
          "internalType": "uint64",
          "name": "_nonce",
          "type": "uint64"
        },
        {
          "internalType": "bytes",
          "name": "_payload",
          "type": "bytes"
        }
      ],
      "name": "retryMessage",
      "outputs": [],
      "stateMutability": "payable",
      "type": "function"
    },
    {
      "inputs": [
        {
          "internalType": "address",
          "name": "from",
          "type": "address"
        },
        {
          "internalType": "address",
          "name": "to",
          "type": "address"
        },
        {
          "internalType": "uint256",
          "name": "tokenId",
          "type": "uint256"
        }
      ],
      "name": "safeTransferFrom",
      "outputs": [],
      "stateMutability": "nonpayable",
      "type": "function"
    },
    {
      "inputs": [
        {
          "internalType": "address",
          "name": "from",
          "type": "address"
        },
        {
          "internalType": "address",
          "name": "to",
          "type": "address"
        },
        {
          "internalType": "uint256",
          "name": "tokenId",
          "type": "uint256"
        },
        {
          "internalType": "bytes",
          "name": "data",
          "type": "bytes"
        }
      ],
      "name": "safeTransferFrom",
      "outputs": [],
      "stateMutability": "nonpayable",
      "type": "function"
    },
    {
      "inputs": [
        {
          "internalType": "address",
          "name": "_from",
          "type": "address"
        },
        {
          "internalType": "uint16",
          "name": "_dstChainId",
          "type": "uint16"
        },
        {
          "internalType": "bytes",
          "name": "_toAddress",
          "type": "bytes"
        },
        {
          "internalType": "uint256",
          "name": "_tokenId",
          "type": "uint256"
        },
        {
          "internalType": "address payable",
          "name": "_refundAddress",
          "type": "address"
        },
        {
          "internalType": "address",
          "name": "_zroPaymentAddress",
          "type": "address"
        },
        {
          "internalType": "bytes",
          "name": "_adapterParams",
          "type": "bytes"
        }
      ],
      "name": "sendFrom",
      "outputs": [],
      "stateMutability": "payable",
      "type": "function"
    },
    {
      "inputs": [
        {
          "internalType": "address",
          "name": "operator",
          "type": "address"
        },
        {
          "internalType": "bool",
          "name": "approved",
          "type": "bool"
        }
      ],
      "name": "setApprovalForAll",
      "outputs": [],
      "stateMutability": "nonpayable",
      "type": "function"
    },
    {
      "inputs": [
        {
          "internalType": "uint16",
          "name": "_version",
          "type": "uint16"
        },
        {
          "internalType": "uint16",
          "name": "_chainId",
          "type": "uint16"
        },
        {
          "internalType": "uint256",
          "name": "_configType",
          "type": "uint256"
        },
        {
          "internalType": "bytes",
          "name": "_config",
          "type": "bytes"
        }
      ],
      "name": "setConfig",
      "outputs": [],
      "stateMutability": "nonpayable",
      "type": "function"
    },
    {
      "inputs": [
        {
          "internalType": "uint16",
          "name": "_dstChainId",
          "type": "uint16"
        },
        {
          "internalType": "uint16",
          "name": "_packetType",
          "type": "uint16"
        },
        {
          "internalType": "uint256",
          "name": "_minGas",
          "type": "uint256"
        }
      ],
      "name": "setMinDstGas",
      "outputs": [],
      "stateMutability": "nonpayable",
      "type": "function"
    },
    {
      "inputs": [
        {
          "internalType": "uint16",
          "name": "_dstChainId",
          "type": "uint16"
        },
        {
          "internalType": "uint256",
          "name": "_size",
          "type": "uint256"
        }
      ],
      "name": "setPayloadSizeLimit",
      "outputs": [],
      "stateMutability": "nonpayable",
      "type": "function"
    },
    {
      "inputs": [
        {
          "internalType": "address",
          "name": "_precrime",
          "type": "address"
        }
      ],
      "name": "setPrecrime",
      "outputs": [],
      "stateMutability": "nonpayable",
      "type": "function"
    },
    {
      "inputs": [
        {
          "internalType": "uint16",
          "name": "_version",
          "type": "uint16"
        }
      ],
      "name": "setReceiveVersion",
      "outputs": [],
      "stateMutability": "nonpayable",
      "type": "function"
    },
    {
      "inputs": [
        {
          "internalType": "uint16",
          "name": "_version",
          "type": "uint16"
        }
      ],
      "name": "setSendVersion",
      "outputs": [],
      "stateMutability": "nonpayable",
      "type": "function"
    },
    {
      "inputs": [
        {
          "internalType": "uint16",
          "name": "_srcChainId",
          "type": "uint16"
        },
        {
          "internalType": "bytes",
          "name": "_path",
          "type": "bytes"
        }
      ],
      "name": "setTrustedRemote",
      "outputs": [],
      "stateMutability": "nonpayable",
      "type": "function"
    },
    {
      "inputs": [
        {
          "internalType": "uint16",
          "name": "_remoteChainId",
          "type": "uint16"
        },
        {
          "internalType": "bytes",
          "name": "_remoteAddress",
          "type": "bytes"
        }
      ],
      "name": "setTrustedRemoteAddress",
      "outputs": [],
      "stateMutability": "nonpayable",
      "type": "function"
    },
    {
      "inputs": [
        {
          "internalType": "bytes4",
          "name": "interfaceId",
          "type": "bytes4"
        }
      ],
      "name": "supportsInterface",
      "outputs": [
        {
          "internalType": "bool",
          "name": "",
          "type": "bool"
        }
      ],
      "stateMutability": "view",
      "type": "function"
    },
    {
      "inputs": [],
      "name": "symbol",
      "outputs": [
        {
          "internalType": "string",
          "name": "",
          "type": "string"
        }
      ],
      "stateMutability": "view",
      "type": "function"
    },
    {
      "inputs": [
        {
          "internalType": "uint256",
          "name": "tokenId",
          "type": "uint256"
        }
      ],
      "name": "tokenURI",
      "outputs": [
        {
          "internalType": "string",
          "name": "",
          "type": "string"
        }
      ],
      "stateMutability": "view",
      "type": "function"
    },
    {
      "inputs": [
        {
          "internalType": "address",
          "name": "from",
          "type": "address"
        },
        {
          "internalType": "address",
          "name": "to",
          "type": "address"
        },
        {
          "internalType": "uint256",
          "name": "tokenId",
          "type": "uint256"
        }
      ],
      "name": "transferFrom",
      "outputs": [],
      "stateMutability": "nonpayable",
      "type": "function"
    },
    {
      "inputs": [
        {
          "internalType": "address",
          "name": "newOwner",
          "type": "address"
        }
      ],
      "name": "transferOwnership",
      "outputs": [],
      "stateMutability": "nonpayable",
      "type": "function"
    },
    {
      "inputs": [
        {
          "internalType": "uint16",
          "name": "",
          "type": "uint16"
        }
      ],
      "name": "trustedRemoteLookup",
      "outputs": [
        {
          "internalType": "bytes",
          "name": "",
          "type": "bytes"
        }
      ],
      "stateMutability": "view",
      "type": "function"
    }
  ],
  "bytecode": {
    "object": "0x60a0604090808252346200044f5762003b68803803809162000022828562000454565b833981016060828203126200044f5781516001600160401b0391908281116200044f5781620000539185016200048e565b90602090818501518481116200044f578691620000729187016200048e565b9401516001600160a01b039490858116908190036200044f5760008054336001600160a01b03198216811783559197167f8be0079c531659141344cd1fd0a4f28419497f9722a3daafe3b4186f6b6457e08880a36080528251908482116200043b57600654916001948584811c9416801562000430575b8585101462000337578190601f94858111620003dc575b508590858311600114620003765789926200036a575b5050600019600383901b1c191690851b176006555b80519285841162000356576007548581811c911680156200034b575b828210146200033757838111620002ee575b5080928411600114620002845750928293918392879462000278575b50501b916000199060031b1c1916176007555b6daaeb6d7670e522a718067333cd4e803b620001f6575b8351613662908162000506823960805181818161042e0152818161075c0152818161098b01528181610c3101528181610e8301528181610ff0015281816118e501528181611b6e0152818161213601526123f50152f35b803b156200027457908280926044865180968193633e9f1edf60e11b8352306004840152733cc6cdda760b79bafa08df41ecfa224f810dceb660248401525af180156200026a57156200019f57821162000256575081523880806200019f565b634e487b7160e01b81526041600452602490fd5b84513d84823e3d90fd5b8280fd5b01519250388062000175565b919083601f198116600789528489209489905b88838310620002d35750505010620002b9575b505050811b0160075562000188565b015160001960f88460031b161c19169055388080620002aa565b85870151885590960195948501948793509081019062000297565b600788528188208480870160051c8201928488106200032d575b0160051c019086905b8281106200032157505062000159565b89815501869062000311565b9250819262000308565b634e487b7160e01b88526022600452602488fd5b90607f169062000147565b634e487b7160e01b87526041600452602487fd5b01519050388062000116565b60068a52868a208894509190601f1984168b5b89828210620003c55750508411620003ab575b505050811b016006556200012b565b015160001960f88460031b161c191690553880806200039c565b8385015186558b9790950194938401930162000389565b909150600689528589208580850160051c82019288861062000426575b918991869594930160051c01915b8281106200041757505062000100565b8b815585945089910162000407565b92508192620003f9565b93607f1693620000e9565b634e487b7160e01b86526041600452602486fd5b600080fd5b601f909101601f19168101906001600160401b038211908210176200047857604052565b634e487b7160e01b600052604160045260246000fd5b919080601f840112156200044f578251906001600160401b038211620004785760405191602091620004ca601f8301601f191684018562000454565b8184528282870101116200044f5760005b818110620004f157508260009394955001015290565b8581018301518482018401528201620004db56fe60806040526004361015610013575b600080fd5b60003560e01c80621d35671461034657806301ffc9a71461033d57806306fdde031461033457806307e0db171461032b578063081812fc14610322578063095ea7b3146103195780630df374831461031057806310ddb1371461030757806323b872dd146102fe5780632a205e3d146102f55780633d8b38f6146102ec5780633f1f4fa4146102e357806341f43434146102da57806342842e0e146102d157806342d65a8d146102c857806351905636146102bf5780635b8c41e6146102b65780636352211e146102ad57806366ad5c8a146102a457806370a082311461029b578063715018a6146102925780637533d788146102895780638cfd8f5c146102805780638da5cb5b14610277578063950c8a741461026e57806395d89b41146102655780639f38369a1461025c578063a22cb46514610253578063a6c3d1651461024a578063b353aaa714610241578063b88d4fde14610238578063baf3292d1461022f578063c446183414610226578063c87b56dd1461021d578063cbed8b9c14610214578063d1deba1f1461020b578063df2a5b3b14610202578063e985e9c5146101f9578063eb8d72b7146101f0578063f2fde38b146101e75763f5ecbdbc146101df57600080fd5b61000e6120d0565b5061000e612035565b5061000e611ed0565b5061000e611e67565b5061000e611d74565b5061000e611c10565b5061000e611b0d565b5061000e611a23565b5061000e611a05565b5061000e611987565b5061000e611914565b5061000e6118ce565b5061000e611730565b5061000e611636565b5061000e611596565b5061000e6114ee565b5061000e6114c4565b5061000e61149a565b5061000e611446565b5061000e6113f2565b5061000e6112a5565b5061000e6111fe565b5061000e611177565b5061000e611158565b5061000e6110b1565b5061000e610ee3565b5061000e610e56565b5061000e610db8565b5061000e610d8e565b5061000e610d58565b5061000e610cfb565b5061000e610b50565b5061000e610a0e565b5061000e610957565b5061000e61090e565b5061000e610813565b5061000e6107d1565b5061000e610728565b5061000e610642565b5061000e61053f565b5061000e610416565b6004359061ffff8216820361000e57565b6024359061ffff8216820361000e57565b9181601f8401121561000e578235916001600160401b03831161000e576020838186019501011161000e57565b6001600160401b0381160361000e57565b90608060031983011261000e5760043561ffff8116810361000e57916001600160401b039060243582811161000e57816103eb91600401610371565b939093926044356103fb8161039e565b9260643591821161000e5761041291600401610371565b9091565b503461000e57610425366103af565b929493919291907f00000000000000000000000000000000000000000000000000000000000000006001600160a01b031633036104e8576104ab6104b3926104b9976104a461048a6104858a61ffff166000526001602052604060002090565b6113d5565b80519081841491826104de575b50816104bb575b506122fe565b3691610af4565b923691610af4565b926126c0565b005b90506104c8368486610af4565b602081519101209060208151910120143861049e565b1515915038610497565b60405162461bcd60e51b815260206004820152601e60248201527f4c7a4170703a20696e76616c696420656e64706f696e742063616c6c657200006044820152606490fd5b6001600160e01b031981160361000e57565b503461000e57602036600319011261000e57602060043561055f8161052d565b6001600160e01b031916801590811561057e575b506040519015158152f35b6380ac58cd60e01b8114915081156105ca575b811561059f575b5038610573565b637bb0080b60e01b8114915081156105b9575b5038610598565b6301ffc9a760e01b149050386105b2565b635b5e139f60e01b81149150610591565b600091031261000e57565b60005b8381106105f95750506000910152565b81810151838201526020016105e9565b90602091610622815180928185528580860191016105e6565b601f01601f1916010190565b90602061063f928181520190610609565b90565b503461000e5760008060031936011261072557604051908060065461066681611305565b808552916001918083169081156106fb57506001146106a0575b61069c8561069081870382610aa9565b6040519182918261062e565b0390f35b9250600683527ff652222313e28459528d920b65115c16c04f3efc82aaedc97be59f3f377c0d3f5b8284106106e35750505081016020016106908261069c610680565b805460208587018101919091529093019281016106c8565b86955061069c9693506020925061069094915060ff191682840152151560051b8201019293610680565b80fd5b503461000e57600060203660031901126107255761074461034f565b8160018060a01b0361075a8183541633146125a8565b7f00000000000000000000000000000000000000000000000000000000000000001691823b156107cd57602461ffff918360405195869485936307e0db1760e01b85521660048401525af180156107c0575b6107b4575080f35b6107bd90610a6e565b80f35b6107c86121dd565b6107ac565b5080fd5b503461000e57602036600319011261000e5760206107f0600435612d66565b6040516001600160a01b039091168152f35b6001600160a01b0381160361000e57565b503461000e57604036600319011261000e5760043561083181610802565b60243561083d8261356d565b61084681612c7c565b916001600160a01b0380841690821681146108bf576104b993610873913314908115610878575b50612cf4565b613259565b6001600160a01b03166000908152600b602052604090206108b991506108b29033905b9060018060a01b0316600052602052604060002090565b5460ff1690565b3861086d565b60405162461bcd60e51b815260206004820152602160248201527f4552433732313a20617070726f76616c20746f2063757272656e74206f776e656044820152603960f91b6064820152608490fd5b503461000e57604036600319011261000e5761ffff61092b61034f565b61094060018060a01b036000541633146125a8565b166000526003602052602435604060002055600080f35b503461000e57600060203660031901126107255761097361034f565b8160018060a01b036109898183541633146125a8565b7f00000000000000000000000000000000000000000000000000000000000000001691823b156107cd57602461ffff918360405195869485936310ddb13760e01b85521660048401525af180156107c0576107b4575080f35b606090600319011261000e576004356109fa81610802565b90602435610a0781610802565b9060443590565b503461000e576104b9610a20366109e2565b91336001600160a01b03821603610a49575b610a44610a3f8433612ed5565b612df8565b6130ee565b610a523361356d565b610a32565b50634e487b7160e01b600052604160045260246000fd5b6001600160401b038111610a8157604052565b610a89610a57565b604052565b602081019081106001600160401b03821117610a8157604052565b90601f801991011681019081106001600160401b03821117610a8157604052565b6020906001600160401b038111610ae7575b601f01601f19160190565b610aef610a57565b610adc565b929192610b0082610aca565b91610b0e6040519384610aa9565b82948184528183011161000e578281602093846000960137010152565b9080601f8301121561000e5781602061063f93359101610af4565b8015150361000e57565b503461000e5760031960a03682011261000e57610b6b61034f565b6001600160401b039160243583811161000e57610b8c903690600401610b2b565b9060643592610b9a84610b46565b60843594851161000e57610c2d610bd89461ffff93610bc0610be6983690600401610b2b565b9060409889978851998a9160443590602084016121ab565b03601f1981018a5289610aa9565b610c178751988997889763040a7bb160e41b895216600488015230602488015260a0604488015260a4870190610609565b9215156064860152848303016084850152610609565b03817f00000000000000000000000000000000000000000000000000000000000000006001600160a01b03165afa918215610cb4575b6000918293610c7f575b50519081526020810191909152604090f35b81610ca592945061069c93503d8511610cad575b610c9d8183610aa9565b8101906121c7565b929091610c6d565b503d610c93565b610cbc6121dd565b610c63565b90604060031983011261000e5760043561ffff8116810361000e5791602435906001600160401b03821161000e5761041291600401610371565b503461000e57602061ffff610d49610d1236610cc1565b9390911660005260018452610d34610d3b60406000206040519283809261133f565b0382610aa9565b848151910120923691610af4565b82815191012014604051908152f35b503461000e57602036600319011261000e5761ffff610d7561034f565b1660005260036020526020604060002054604051908152f35b503461000e57600036600319011261000e5760206040516daaeb6d7670e522a718067333cd4e8152f35b503461000e576104b9610e28610dcd366109e2565b6001600160a01b0383163314159290919083610e48575b60405193602085018581106001600160401b03821117610e3b575b60405260008552610e2d575b610e18610a3f8433612ed5565b610e238383836130ee565b61341f565b612eb1565b610e363361356d565b610e0b565b610e43610a57565b610dff565b610e513361356d565b610de4565b503461000e57610e6536610cc1565b9190600092839160018060a01b03610e818185541633146125a8565b7f00000000000000000000000000000000000000000000000000000000000000001690813b15610edf5783610ecd95604051968795869485936342d65a8d60e01b855260048501612614565b03925af180156107c0576107b4575080f35b8380fd5b5060e036600319011261000e57600435610efc81610802565b610f04610360565b6001600160401b03919060443583811161000e57610f26903690600401610b2b565b926064359160843590610f3882610802565b60a435610f4481610802565b60c43593841161000e578461ffff93610fbd92610f867f024797cc77ce15dc717112d54fb1df125fdfd8c81344fb046c5e074427ce1543973690600401610b2b565b91610f91848b61221f565b610fb58b610fa7604051968792602084016121ab565b03601f198101865285610aa9565b3493866123b1565b604051630f428ae960e31b815261ffff821660048201523060248201526001600160a01b039661105491906020826044817f00000000000000000000000000000000000000000000000000000000000000008d165afa91821561108d575b600092611059575b5061102d906121ff565b9760405194859416971695839092916001600160401b036020916040840195845216910152565b0390a4005b61102d91925061107f9060203d8111611086575b6110778183610aa9565b8101906121ea565b9190611023565b503d61106d565b6110956121dd565b61101b565b906110ad602092828151948592016105e6565b0190565b503461000e57606036600319011261000e576110cb61034f565b6024356001600160401b03811161000e5761069c9161112660206110f6611147943690600401610b2b565b61ffff604435946111068661039e565b1660005260058252604060002082604051948386809551938492016105e6565b820190815203019020906001600160401b0316600052602052604060002090565b546040519081529081906020820190565b503461000e57602036600319011261000e5760206107f0600435612c7c565b503461000e57611186366103af565b91929493903033036111aa576104ab6111a4926104b9973691610af4565b9261282b565b60405162461bcd60e51b815260206004820152602660248201527f4e6f6e626c6f636b696e674c7a4170703a2063616c6c6572206d7573742062656044820152650204c7a4170760d41b6064820152608490fd5b503461000e57602036600319011261000e5760043561121c81610802565b6001600160a01b0316801561124d57600052600960205261069c604060002054604051918291829190602083019252565b60405162461bcd60e51b815260206004820152602a60248201527f4552433732313a2062616c616e636520717565727920666f7220746865207a65604482015269726f206164647265737360b01b6064820152608490fd5b503461000e5760008060031936011261072557805481906001600160a01b038116906112d23383146125a8565b6001600160a01b03191682557f8be0079c531659141344cd1fd0a4f28419497f9722a3daafe3b4186f6b6457e08280a380f35b90600182811c92168015611335575b602083101461131f57565b634e487b7160e01b600052602260045260246000fd5b91607f1691611314565b906000929180549161135083611305565b9182825260019384811690816000146113b25750600114611372575b50505050565b90919394506000526020928360002092846000945b83861061139e57505050500101903880808061136c565b805485870183015294019385908201611387565b9294505050602093945060ff191683830152151560051b0101903880808061136c565b906113f06113e9926040519384809261133f565b0383610aa9565b565b503461000e57602036600319011261000e5761ffff61140f61034f565b16600052600160205261069c610d3461143260406000206040519283809261133f565b604051918291602083526020830190610609565b503461000e57604036600319011261000e57602061149161146561034f565b61ffff611470610360565b91166000526002835260406000209061ffff16600052602052604060002090565b54604051908152f35b503461000e57600036600319011261000e576000546040516001600160a01b039091168152602090f35b503461000e57600036600319011261000e576004546040516001600160a01b039091168152602090f35b503461000e5760008060031936011261072557604051908060075461151281611305565b808552916001918083169081156106fb575060011461153b5761069c8561069081870382610aa9565b9250600783527fa66cc928b5edb82af9bd49922954155ab7b0942694bea4ce44661d9a8736c6885b82841061157e5750505081016020016106908261069c610680565b80546020858701810191909152909301928101611563565b503461000e57602036600319011261000e5761ffff6115b361034f565b166000526001602052610d346115d360406000206040519283809261133f565b8051156115f157610690816115eb61069c935161269a565b90612b37565b60405162461bcd60e51b815260206004820152601d60248201527f4c7a4170703a206e6f20747275737465642070617468207265636f72640000006044820152606490fd5b503461000e57604036600319011261000e5760043561165481610802565b60243561166081610b46565b6116698261356d565b6001600160a01b038216913383146116eb57816116a86116b99233600052600b60205260406000209060018060a01b0316600052602052604060002090565b9060ff801983541691151516179055565b604051901515815233907f17307eab39ab6107e8899845ad3d59bd9653f200f220920489ca2b5937696c3190602090a3005b60405162461bcd60e51b815260206004820152601960248201527f4552433732313a20617070726f766520746f2063616c6c6572000000000000006044820152606490fd5b503461000e5761173f36610cc1565b919060009161175860018060a01b0384541633146125a8565b6040519360208184828801376117836034878481013060601b85820152036014810189520187610aa9565b61ffff8316855260019081815260408620918751916001600160401b0383116118c1575b6117bb836117b58654611305565b8661262f565b80601f841160011461182b57509180809261181a9695948a9b7f8c0400cfe2d1199b1a725c78960bcc2a344d869b80590d0f2bd005db15a572ce9b94611820575b50501b916000199060031b1c19161790555b60405193849384612614565b0390a180f35b0151925038806117fc565b91939498601f19841661184387600052602060002090565b938a905b8282106118aa575050917f8c0400cfe2d1199b1a725c78960bcc2a344d869b80590d0f2bd005db15a572ce999a9593918561181a98969410611891575b505050811b01905561180e565b015160001960f88460031b161c19169055388080611884565b808886978294978701518155019601940190611847565b6118c9610a57565b6117a7565b503461000e57600036600319011261000e576040517f00000000000000000000000000000000000000000000000000000000000000006001600160a01b03168152602090f35b503461000e57608036600319011261000e5760043561193281610802565b6024359061193f82610802565b606435906044356001600160401b03831161000e576104b993611969610e28943690600401610b2b565b92336001600160a01b03821603610e2d57610e18610a3f8433612ed5565b503461000e57602036600319011261000e577f5db758e995a17ec1ad84bdef7e8c3293a0bd6179bcce400dff5d4c3d87db726b60206004356119c881610802565b6000546001600160a01b0391906119e290831633146125a8565b16806bffffffffffffffffffffffff60a01b6004541617600455604051908152a1005b503461000e57600036600319011261000e5760206040516127108152f35b503461000e57602036600319011261000e576004356000818152600860205260409020546001600160a01b031615611ab057611a5d612bb7565b805115611a9e57610690611a8a91611a90611a7a61069c95613482565b604051948593602085019061109a565b9061109a565b03601f198101835282610aa9565b505061069c611aab612bb7565b610690565b60405162461bcd60e51b815260206004820152602f60248201527f4552433732314d657461646174613a2055524920717565727920666f72206e6f60448201526e3732bc34b9ba32b73a103a37b5b2b760891b6064820152608490fd5b503461000e57608036600319011261000e57611b2761034f565b611b2f610360565b6064356001600160401b03811161000e57611b4e903690600401610371565b60018060a09493941b039160009483611b6c879586541633146125a8565b7f00000000000000000000000000000000000000000000000000000000000000001691823b15611c0c578490611bd9604051978896879586946332fb62e760e21b865261ffff809216600487015216602485015260443560448501526080606485015260848401916125f3565b03925af18015611bff575b611bec575080f35b80611bf96107bd92610a6e565b806105db565b611c076121dd565b611be4565b8480fd5b50611c1a366103af565b9161ffff86949296166000526005602052611c6181604060002060206040518092878b833787820190815203019020906001600160401b0316600052602052604060002090565b54918215611d2357611d128483611d0b7fc264d91f3adc5588250e1551f547752ca0cfa8f6b530d243b9f9f4cab10ea8e59a6000611cf784611cdf8e8a8f611d1e9f908f611cc590611cb8611cd99436908d610af4565b6020815191012014612a03565b61ffff166000526005602052604060002090565b916129ea565b906001600160401b0316600052602052604060002090565b55611d0336878d610af4565b933691610af4565b918861282b565b60405195869586612a59565b0390a1005b60405162461bcd60e51b815260206004820152602360248201527f4e6f6e626c6f636b696e674c7a4170703a206e6f2073746f726564206d65737360448201526261676560e81b6064820152608490fd5b503461000e57606036600319011261000e57611d8e61034f565b611d96610360565b60443591611daf60018060a01b036000541633146125a8565b8215611e2a57611d1e7f9d5c7c0b934da8fefa9c7760c98383778a12dfbfc0c3b3106518f43fb9508ac09361ffff8316600052600260205280611e048560406000209061ffff16600052602052604060002090565b556040519384938460409194939294606082019561ffff80921683521660208201520152565b60405162461bcd60e51b81526020600482015260156024820152744c7a4170703a20696e76616c6964206d696e47617360581b6044820152606490fd5b503461000e57604036600319011261000e57602060ff611ec4600435611e8c81610802565b60243590611e9982610802565b60018060a01b0316600052600b845260406000209060018060a01b0316600052602052604060002090565b54166040519015158152f35b503461000e57611edf36610cc1565b9190600091611ef860018060a01b0384541633146125a8565b61ffff81168352600160209080825260408520916001600160401b038711612028575b611f2f87611f298554611305565b8561262f565b8590601f8811600114611f96575091868087989361181a957ffa41487ad5d6728f0b19276fa1eddc16558578f5109fc39d2dc33c3230470dab9993611f8b575b501b906000198460031b1c191617905560405193849384612614565b880135925038611f6f565b90601f198816611fab85600052602060002090565b9288905b828210612011575050918893917ffa41487ad5d6728f0b19276fa1eddc16558578f5109fc39d2dc33c3230470dab989961181a969410611ff7575b505082811b01905561180e565b870135600019600386901b60f8161c191690553880611fea565b808685968294968c01358155019501930190611faf565b612030610a57565b611f1b565b503461000e57602036600319011261000e5760043561205381610802565b6000546001600160a01b039061206c90821633146125a8565b81161561207c576104b990612c35565b60405162461bcd60e51b815260206004820152602660248201527f4f776e61626c653a206e6577206f776e657220697320746865207a65726f206160448201526564647265737360d01b6064820152608490fd5b503461000e57608036600319011261000e5761069c6120ed61034f565b6120f5610360565b90612101604435610802565b604051633d7b2f6f60e21b815261ffff91821660048201529116602482015230604482015260648035908201526000816084817f00000000000000000000000000000000000000000000000000000000000000006001600160a01b03165afa90811561219e575b60009161217d575b506040519182918261062e565b612198913d8091833e6121908183610aa9565b810190612583565b38612170565b6121a66121dd565b612168565b9291906121c2602091604086526040860190610609565b930152565b919082604091031261000e576020825192015190565b506040513d6000823e3d90fd5b9081602091031261000e575161063f8161039e565b612217906020604051928284809451938492016105e6565b810103902090565b6122298233612ed5565b156122a25761223782612c7c565b6001600160a01b03918216911603612252576113f09061300c565b60405162461bcd60e51b815260206004820152602260248201527f4f4e46543732313a2073656e642066726f6d20696e636f7272656374206f776e60448201526132b960f11b6064820152608490fd5b60405162461bcd60e51b815260206004820152602e60248201527f4f4e46543732313a2073656e642063616c6c6572206973206e6f74206f776e6560448201526d1c881b9bdc88185c1c1c9bdd995960921b6064820152608490fd5b1561230557565b60405162461bcd60e51b815260206004820152602660248201527f4c7a4170703a20696e76616c696420736f757263652073656e64696e6720636f6044820152651b9d1c9858dd60d21b6064820152608490fd5b9261237e61063f97959361ffff61238c9416865260c0602087015260c0860190610609565b908482036040860152610609565b6001600160a01b0391821660608401529316608082015280830360a090910152610609565b946123da9193929561ffff811660005260016020526123e160406000206040519485809261133f565b0384610aa9565b825115612474576123f38551826124d2565b7f00000000000000000000000000000000000000000000000000000000000000006001600160a01b031693843b1561000e5760009661244891604051998a988997889662c5803160e81b885260048801612359565b03925af18015612467575b61245a5750565b80611bf96113f092610a6e565b61246f6121dd565b612453565b60405162461bcd60e51b815260206004820152603060248201527f4c7a4170703a2064657374696e6174696f6e20636861696e206973206e6f742060448201526f61207472757374656420736f7572636560801b6064820152608490fd5b61ffff166000526003602052604060002054908115612537575b116124f357565b606460405162461bcd60e51b815260206004820152602060248201527f4c7a4170703a207061796c6f61642073697a6520697320746f6f206c617267656044820152fd5b61271091506124ec565b81601f8201121561000e57805161255781610aca565b926125656040519485610aa9565b8184526020828401011161000e5761063f91602080850191016105e6565b9060208282031261000e5781516001600160401b03811161000e5761063f9201612541565b156125af57565b606460405162461bcd60e51b815260206004820152602060248201527f4f776e61626c653a2063616c6c6572206973206e6f7420746865206f776e65726044820152fd5b908060209392818452848401376000828201840152601f01601f1916010190565b60409061ffff61063f959316815281602082015201916125f3565b90601f811161263d57505050565b600091825260208220906020601f850160051c83019410612679575b601f0160051c01915b82811061266e57505050565b818155600101612662565b9092508290612659565b50634e487b7160e01b600052601160045260246000fd5b6013198101919082116126a957565b6113f0612683565b6000198101919082116126a957565b9290915a926040519360208501633356ae4560e11b815261ffff871660248701526080604487015261272b8661271d6126fc60a4830187610609565b6001600160401b038816606484015282810360231901608484015288610609565b03601f198101885287610aa9565b600091829182612739612bca565b9851923090f13d60968111612773575b8086526000602087013e15612760575b5050505050565b6127699461277b565b3880808080612759565b506096612749565b91936128187fe183f33de2837795525b4792ca4cd60535bd77c53b7e7030060bfcf5734d6b0c95612826939561ffff815160208301209616958660005260056020526127df8361112660208b604060002082604051948386809551938492016105e6565b556001600160401b03612804604051988998895260a060208a015260a0890190610609565b921660408701528582036060870152610609565b908382036080850152610609565b0390a1565b92908151820160408382031261000e5760208301516001600160401b03811161000e576128646040916020806014950191870101612541565b930151920151906040519461287886610a8e565b600086526001600160a01b0383169586156129a65761297c61ffff93612977610e286129a194897f64e10c37f404d128982dce114f5d233c14c5c7f6d8db93099e3d99dacb9e27ba99818e6128f16128ec6128e884600052600860205260018060a01b0360406000205416151590565b1590565b612fc0565b6001600160a01b03831660009081526009602052604090206129138154612a90565b905561294c8361292d846000526008602052604060002090565b80546001600160a01b0319166001600160a01b03909216919091179055565b60007fddf252ad1be2c89b69c2b068fc378daa952ba7f163c4a11628f55a4df523b3ef8180a461335e565b6121ff565b956040519384931695839092916001600160401b036020916040840195845216910152565b0390a4565b606460405162461bcd60e51b815260206004820152602060248201527f4552433732313a206d696e7420746f20746865207a65726f20616464726573736044820152fd5b6020919283604051948593843782019081520301902090565b15612a0a57565b60405162461bcd60e51b815260206004820152602160248201527f4e6f6e626c6f636b696e674c7a4170703a20696e76616c6964207061796c6f616044820152601960fa1b6064820152608490fd5b91612a859060609461ffff6001600160401b0394999897991685526080602086015260808501916125f3565b951660408201520152565b90600182018092116126a957565b90601f82018092116126a957565b60300190816030116126a957565b15612ac157565b60405162461bcd60e51b815260206004820152600e60248201526d736c6963655f6f766572666c6f7760901b6044820152606490fd5b15612afe57565b60405162461bcd60e51b8152602060048201526011602482015270736c6963655f6f75744f66426f756e647360781b6044820152606490fd5b612b4b82612b4481612a9e565b1015612aba565b612b588282511015612af7565b81612b70575050604051600081526020810160405290565b60405191601f811691821560051b808486010193838501920101905b808410612ba45750508252601f01601f191660405290565b9092835181526020809101930190612b8c565b60405190612bc482610a8e565b60008252565b6040519060c082018281106001600160401b03821117612bf6575b6040526096825260a0366020840137565b612bfe610a57565b612be5565b90612c0d82610aca565b612c1a6040519182610aa9565b8281528092612c2b601f1991610aca565b0190602036910137565b600080546001600160a01b039283166001600160a01b03198216811783559216907f8be0079c531659141344cd1fd0a4f28419497f9722a3daafe3b4186f6b6457e09080a3565b6000908152600860205260409020546001600160a01b03168015612c9d5790565b60405162461bcd60e51b815260206004820152602960248201527f4552433732313a206f776e657220717565727920666f72206e6f6e657869737460448201526832b73a103a37b5b2b760b91b6064820152608490fd5b15612cfb57565b60405162461bcd60e51b815260206004820152603860248201527f4552433732313a20617070726f76652063616c6c6572206973206e6f74206f7760448201527f6e6572206e6f7220617070726f76656420666f7220616c6c00000000000000006064820152608490fd5b6000818152600860205260409020546001600160a01b031615612d9e576000908152600a60205260409020546001600160a01b031690565b60405162461bcd60e51b815260206004820152602c60248201527f4552433732313a20617070726f76656420717565727920666f72206e6f6e657860448201526b34b9ba32b73a103a37b5b2b760a11b6064820152608490fd5b15612dff57565b60405162461bcd60e51b815260206004820152603160248201527f4552433732313a207472616e736665722063616c6c6572206973206e6f74206f6044820152701ddb995c881b9bdc88185c1c1c9bdd9959607a1b6064820152608490fd5b60809060208152603260208201527f4552433732313a207472616e7366657220746f206e6f6e20455243373231526560408201527131b2b4bb32b91034b6b83632b6b2b73a32b960711b60608201520190565b15612eb857565b60405162461bcd60e51b815280612ed160048201612e5e565b0390fd5b6000828152600860205260409020546001600160a01b031615612f6657612efb82612c7c565b6001600160a01b038281168282168114949091908515612f4e575b5050508215612f2457505090565b6001600160a01b03166000908152600b6020526040902060ff9250612f49919061089b565b541690565b612f5b9192939550612d66565b161491388080612f16565b60405162461bcd60e51b815260206004820152602c60248201527f4552433732313a206f70657261746f7220717565727920666f72206e6f6e657860448201526b34b9ba32b73a103a37b5b2b760a11b6064820152608490fd5b15612fc757565b60405162461bcd60e51b815260206004820152601c60248201527f4552433732313a20746f6b656e20616c7265616479206d696e746564000000006044820152606490fd5b61301581612c7c565b61301e82613205565b6001600160a01b031660008181526009602052604081208054919291600019810191908211613089575b5582825260086020526040822080546001600160a01b03191690557fddf252ad1be2c89b69c2b068fc378daa952ba7f163c4a11628f55a4df523b3ef8280a4565b613091612683565b613048565b1561309d57565b60405162461bcd60e51b8152602060048201526024808201527f4552433732313a207472616e7366657220746f20746865207a65726f206164646044820152637265737360e01b6064820152608490fd5b906130f883612c7c565b6001600160a01b0383811692909182168390036131b25761314761318b92821694613124861515613096565b61312d87613205565b6001600160a01b0316600090815260096020526040902090565b61315181546126b1565b90556001600160a01b03811660009081526009602052604090206131758154612a90565b905561292d856000526008602052604060002090565b7fddf252ad1be2c89b69c2b068fc378daa952ba7f163c4a11628f55a4df523b3ef600080a4565b60405162461bcd60e51b815260206004820152602560248201527f4552433732313a207472616e736665722066726f6d20696e636f72726563742060448201526437bbb732b960d91b6064820152608490fd5b6000818152600a6020526040812080546001600160a01b03191690556001600160a01b0361323283612c7c565b167f8c5be1e5ebec7d5bd14f71427d1e84f3dd0314c0f7b2291e5b200ac8c7c3b9258280a4565b6000828152600a6020526040902080546001600160a01b0319166001600160a01b0383161790556001600160a01b038061329284612c7c565b169116907f8c5be1e5ebec7d5bd14f71427d1e84f3dd0314c0f7b2291e5b200ac8c7c3b925600080a4565b9081602091031261000e575161063f8161052d565b61063f939260809260018060a01b031682526000602083015260408201528160608201520190610609565b6001600160a01b03918216815291166020820152604081019190915260806060820181905261063f92910190610609565b3d15613359573d9061333f82610aca565b9161334d6040519384610aa9565b82523d6000602084013e565b606090565b909190803b1561341757613390602091600093604051948580948193630a85bd0160e11b998a845233600485016132d2565b03926001600160a01b03165af1600091816133e7575b506133d9576133b361332e565b805190816133d45760405162461bcd60e51b815280612ed160048201612e5e565b602001fd5b6001600160e01b0319161490565b61340991925060203d8111613410575b6134018183610aa9565b8101906132bd565b90386133a6565b503d6133f7565b505050600190565b92909190823b1561345257613390926020926000604051809681958294630a85bd0160e11b9a8b855233600486016132fd565b50505050600190565b90815181101561346c570160200190565b634e487b7160e01b600052603260045260246000fd5b801561351c576000818181805b6134f2575061349d81612c03565b935b6134a95750505090565b6134b2906126b1565b90600a906134dd6134cd6134c7848406612aac565b60ff1690565b60f81b6001600160f81b03191690565b841a6134e9848761345b565b5304908161349f565b91506001600a91600019811461350f575b0191048084929161348f565b613517612683565b613503565b50604051604081018181106001600160401b0382111761354b575b60405260018152600360fc1b602082015290565b613553610a57565b613537565b9081602091031261000e575161063f81610b46565b6daaeb6d7670e522a718067333cd4e803b613586575050565b604051633185c44d60e21b81523060048201526001600160a01b038316602482015290602090829060449082905afa90811561361f575b6000916135f1575b50156135ce5750565b604051633b79c77360e21b81526001600160a01b03919091166004820152602490fd5b613612915060203d8111613618575b61360a8183610aa9565b810190613558565b386135c5565b503d613600565b6136276121dd565b6135bd56fea2646970667358221220229ba0834ab303d1933027c4198b1e25bf33d2ac715b716895e1a2387cd5434164736f6c63430008110033",
    "linkReferences": {}
  },
  "methodIdentifiers": {
    "DEFAULT_PAYLOAD_SIZE_LIMIT()": "c4461834",
    "OPERATOR_FILTER_REGISTRY()": "41f43434",
    "approve(address,uint256)": "095ea7b3",
    "balanceOf(address)": "70a08231",
    "estimateSendFee(uint16,bytes,uint256,bool,bytes)": "2a205e3d",
    "failedMessages(uint16,bytes,uint64)": "5b8c41e6",
    "forceResumeReceive(uint16,bytes)": "42d65a8d",
    "getApproved(uint256)": "081812fc",
    "getConfig(uint16,uint16,address,uint256)": "f5ecbdbc",
    "getTrustedRemoteAddress(uint16)": "9f38369a",
    "isApprovedForAll(address,address)": "e985e9c5",
    "isTrustedRemote(uint16,bytes)": "3d8b38f6",
    "lzEndpoint()": "b353aaa7",
    "lzReceive(uint16,bytes,uint64,bytes)": "001d3567",
    "minDstGasLookup(uint16,uint16)": "8cfd8f5c",
    "name()": "06fdde03",
    "nonblockingLzReceive(uint16,bytes,uint64,bytes)": "66ad5c8a",
    "owner()": "8da5cb5b",
    "ownerOf(uint256)": "6352211e",
    "payloadSizeLimitLookup(uint16)": "3f1f4fa4",
    "precrime()": "950c8a74",
    "renounceOwnership()": "715018a6",
    "retryMessage(uint16,bytes,uint64,bytes)": "d1deba1f",
    "safeTransferFrom(address,address,uint256)": "42842e0e",
    "safeTransferFrom(address,address,uint256,bytes)": "b88d4fde",
    "sendFrom(address,uint16,bytes,uint256,address,address,bytes)": "51905636",
    "setApprovalForAll(address,bool)": "a22cb465",
    "setConfig(uint16,uint16,uint256,bytes)": "cbed8b9c",
    "setMinDstGas(uint16,uint16,uint256)": "df2a5b3b",
    "setPayloadSizeLimit(uint16,uint256)": "0df37483",
    "setPrecrime(address)": "baf3292d",
    "setReceiveVersion(uint16)": "10ddb137",
    "setSendVersion(uint16)": "07e0db17",
    "setTrustedRemote(uint16,bytes)": "eb8d72b7",
    "setTrustedRemoteAddress(uint16,bytes)": "a6c3d165",
    "supportsInterface(bytes4)": "01ffc9a7",
    "symbol()": "95d89b41",
    "tokenURI(uint256)": "c87b56dd",
    "transferFrom(address,address,uint256)": "23b872dd",
    "transferOwnership(address)": "f2fde38b",
    "trustedRemoteLookup(uint16)": "7533d788"
  },
  "id": 170
}