{
  "abi": [
    {
      "inputs": [
        {
          "internalType": "address",
          "name": "_omnixExchange",
          "type": "address"
        }
      ],
      "stateMutability": "nonpayable",
      "type": "constructor"
    },
    {
      "anonymous": false,
      "inputs": [
        {
          "indexed": true,
          "internalType": "address",
          "name": "previousOwner",
          "type": "address"
        },
        {
          "indexed": true,
          "internalType": "address",
          "name": "newOwner",
          "type": "address"
        }
      ],
      "name": "OwnershipTransferred",
      "type": "event"
    },
    {
      "anonymous": false,
      "inputs": [
        {
          "indexed": true,
          "internalType": "address",
          "name": "royaltyRecipient",
          "type": "address"
        },
        {
          "indexed": false,
          "internalType": "address",
          "name": "currency",
          "type": "address"
        },
        {
          "indexed": false,
          "internalType": "uint256",
          "name": "amount",
          "type": "uint256"
        }
      ],
      "name": "RoyaltyPayment",
      "type": "event"
    },
    {
      "anonymous": false,
      "inputs": [
        {
          "indexed": true,
          "internalType": "address",
          "name": "royaltyRecipient",
          "type": "address"
        },
        {
          "indexed": false,
          "internalType": "uint256",
          "name": "amount",
          "type": "uint256"
        }
      ],
      "name": "RoyaltyPaymentETH",
      "type": "event"
    },
    {
      "inputs": [],
      "name": "DIRECT_TRANSFER",
      "outputs": [
        {
          "internalType": "uint16",
          "name": "",
          "type": "uint16"
        }
      ],
      "stateMutability": "view",
      "type": "function"
    },
    {
      "inputs": [],
      "name": "PROXY_TRANSFER",
      "outputs": [
        {
          "internalType": "uint16",
          "name": "",
          "type": "uint16"
        }
      ],
      "stateMutability": "view",
      "type": "function"
    },
    {
      "inputs": [],
      "name": "REVERT_TRANSFER",
      "outputs": [
        {
          "internalType": "uint16",
          "name": "",
          "type": "uint16"
        }
      ],
      "stateMutability": "view",
      "type": "function"
    },
    {
      "inputs": [
        {
          "internalType": "address",
          "name": "executionStrategy",
          "type": "address"
        },
        {
          "internalType": "uint256",
          "name": "amount",
          "type": "uint256"
        }
      ],
      "name": "calculateProtocolFee",
      "outputs": [
        {
          "internalType": "uint256",
          "name": "",
          "type": "uint256"
        }
      ],
      "stateMutability": "view",
      "type": "function"
    },
    {
      "inputs": [],
      "name": "gasForOmniLzReceive",
      "outputs": [
        {
          "internalType": "uint256",
          "name": "",
          "type": "uint256"
        }
      ],
      "stateMutability": "view",
      "type": "function"
    },
    {
      "inputs": [
        {
          "internalType": "address",
          "name": "strategy",
          "type": "address"
        },
        {
          "internalType": "uint256",
          "name": "amount",
          "type": "uint256"
        },
        {
          "internalType": "bytes",
          "name": "royaltyInfo",
          "type": "bytes"
        }
      ],
      "name": "getFeesAndFunds",
      "outputs": [
        {
          "internalType": "uint256",
          "name": "",
          "type": "uint256"
        },
        {
          "internalType": "uint256",
          "name": "",
          "type": "uint256"
        },
        {
          "internalType": "uint256",
          "name": "",
          "type": "uint256"
        },
        {
          "internalType": "address",
          "name": "",
          "type": "address"
        }
      ],
      "stateMutability": "view",
      "type": "function"
    },
    {
      "inputs": [
        {
          "internalType": "address",
          "name": "currency",
          "type": "address"
        },
        {
          "internalType": "address",
          "name": "to",
          "type": "address"
        },
        {
          "internalType": "uint256",
          "name": "amount",
          "type": "uint256"
        },
        {
          "internalType": "uint16",
          "name": "fromChainId",
          "type": "uint16"
        },
        {
          "internalType": "uint16",
          "name": "toChainId",
          "type": "uint16"
        },
        {
          "internalType": "bytes",
          "name": "payload",
          "type": "bytes"
        }
      ],
      "name": "lzFeeTransferCurrency",
      "outputs": [
        {
          "internalType": "uint256",
          "name": "",
          "type": "uint256"
        }
      ],
      "stateMutability": "view",
      "type": "function"
    },
    {
      "inputs": [],
      "name": "omnixExchange",
      "outputs": [
        {
          "internalType": "contract OmniXExchange",
          "name": "",
          "type": "address"
        }
      ],
      "stateMutability": "view",
      "type": "function"
    },
    {
      "inputs": [],
      "name": "owner",
      "outputs": [
        {
          "internalType": "address",
          "name": "",
          "type": "address"
        }
      ],
      "stateMutability": "view",
      "type": "function"
    },
    {
      "inputs": [
        {
          "internalType": "address",
          "name": "currency",
          "type": "address"
        },
        {
          "internalType": "address",
          "name": "buyer",
          "type": "address"
        },
        {
          "internalType": "address",
          "name": "seller",
          "type": "address"
        },
        {
          "internalType": "address",
          "name": "strategy",
          "type": "address"
        },
        {
          "internalType": "uint256",
          "name": "price",
          "type": "uint256"
        },
        {
          "internalType": "bytes",
          "name": "royaltyInfo",
          "type": "bytes"
        },
        {
          "internalType": "uint16",
          "name": "transferType",
          "type": "uint16"
        }
      ],
      "name": "processFeesAndFunds",
      "outputs": [],
      "stateMutability": "nonpayable",
      "type": "function"
    },
    {
      "inputs": [],
      "name": "renounceOwnership",
      "outputs": [],
      "stateMutability": "nonpayable",
      "type": "function"
    },
    {
      "inputs": [
        {
          "internalType": "uint256",
          "name": "gas",
          "type": "uint256"
        }
      ],
      "name": "setGasForOmniLZReceive",
      "outputs": [],
      "stateMutability": "nonpayable",
      "type": "function"
    },
    {
      "inputs": [
        {
          "internalType": "address",
          "name": "_omnixExchange",
          "type": "address"
        }
      ],
      "name": "setOmnixExchange",
      "outputs": [],
      "stateMutability": "nonpayable",
      "type": "function"
    },
    {
      "inputs": [
        {
          "internalType": "address",
          "name": "strategy",
          "type": "address"
        },
        {
          "internalType": "address",
          "name": "currency",
          "type": "address"
        },
        {
          "internalType": "uint256",
          "name": "price",
          "type": "uint256"
        },
        {
          "internalType": "address",
          "name": "from",
          "type": "address"
        },
        {
          "internalType": "address",
          "name": "to",
          "type": "address"
        },
        {
          "internalType": "bytes",
          "name": "royaltyInfo",
          "type": "bytes"
        }
      ],
      "name": "transferFeesAndFunds",
      "outputs": [],
      "stateMutability": "payable",
      "type": "function"
    },
    {
      "inputs": [
        {
          "internalType": "address",
          "name": "strategy",
          "type": "address"
        },
        {
          "internalType": "address",
          "name": "to",
          "type": "address"
        },
        {
          "internalType": "uint256",
          "name": "price",
          "type": "uint256"
        },
        {
          "internalType": "bytes",
          "name": "royaltyInfo",
          "type": "bytes"
        }
      ],
      "name": "transferFeesAndFundsWithWETH",
      "outputs": [],
      "stateMutability": "payable",
      "type": "function"
    },
    {
      "inputs": [
        {
          "internalType": "address",
          "name": "newOwner",
          "type": "address"
        }
      ],
      "name": "transferOwnership",
      "outputs": [],
      "stateMutability": "nonpayable",
      "type": "function"
    },
    {
      "inputs": [
        {
          "internalType": "address",
          "name": "currency",
          "type": "address"
        },
        {
          "internalType": "address",
          "name": "from",
          "type": "address"
        },
        {
          "internalType": "uint256",
          "name": "price",
          "type": "uint256"
        },
        {
          "internalType": "uint16",
          "name": "fromChainId",
          "type": "uint16"
        },
        {
          "internalType": "uint16",
          "name": "toChainId",
          "type": "uint16"
        },
        {
          "internalType": "bytes",
          "name": "payload",
          "type": "bytes"
        }
      ],
      "name": "transferProxyFunds",
      "outputs": [],
      "stateMutability": "payable",
      "type": "function"
    }
  ],
  "bytecode": {
    "object": "0x6080604052620557306001553480156200001857600080fd5b5060405162002291380380620022918339810160408190526200003b91620000bc565b62000046336200006c565b600280546001600160a01b0319166001600160a01b0392909216919091179055620000ee565b600080546001600160a01b038381166001600160a01b0319831681178455604051919092169283917f8be0079c531659141344cd1fd0a4f28419497f9722a3daafe3b4186f6b6457e09190a35050565b600060208284031215620000cf57600080fd5b81516001600160a01b0381168114620000e757600080fd5b9392505050565b61219380620000fe6000396000f3fe6080604052600436106100fe5760003560e01c80636d8cfc3c11610095578063c68cc68611610064578063c68cc686146102b0578063cc72d03b146102c3578063e21d2533146102d6578063f2fde38b146102e9578063f41b02821461030957600080fd5b80636d8cfc3c14610229578063715018a6146102495780638da5cb5b1461025e578063aaaebc951461029057600080fd5b80635b8b3166116100d15780635b8b3166146101945780635fddebef146101dd5780636035b952146101ff57806361a67ebb1461021457600080fd5b8063044c601d146101035780633e46fc651461013657806351039b4e1461015e57806352c5f1f514610174575b600080fd5b34801561010f57600080fd5b5061012361011e366004611abc565b610329565b6040519081526020015b60405180910390f35b34801561014257600080fd5b5061014b600281565b60405161ffff909116815260200161012d565b34801561016a57600080fd5b5061012360015481565b34801561018057600080fd5b5061012361018f366004611b48565b6106c1565b3480156101a057600080fd5b506101b46101af366004611b74565b610749565b604080519485526020850193909352918301526001600160a01b0316606082015260800161012d565b3480156101e957600080fd5b506101fd6101f8366004611bcd565b610875565b005b34801561020b57600080fd5b5061014b600081565b34801561022057600080fd5b5061014b600181565b34801561023557600080fd5b506101fd610244366004611bf1565b61089f565b34801561025557600080fd5b506101fd610923565b34801561026a57600080fd5b506000546001600160a01b03165b6040516001600160a01b03909116815260200161012d565b34801561029c57600080fd5b50600254610278906001600160a01b031681565b6101fd6102be366004611c93565b610937565b6101fd6102d1366004611abc565b610977565b6101fd6102e4366004611cee565b610b1b565b3480156102f557600080fd5b506101fd610304366004611bcd565b610b57565b34801561031557600080fd5b506101fd610324366004611d5a565b610bd0565b60006001600160a01b038716610341575060006106b7565b600254604080516303dd1f5d60e21b815290516000926001600160a01b031691630f747d749160048083019260209291908290030181865afa15801561038b573d6000803e3d6000fd5b505050506040513d601f19601f820116820180604052508101906103af9190611d73565b90506000600260009054906101000a90046001600160a01b03166001600160a01b0316633d25e5616040518163ffffffff1660e01b8152600401602060405180830381865afa158015610406573d6000803e3d6000fd5b505050506040513d601f19601f8201168201806040525081019061042a9190611d73565b60405163748644c360e01b81526001600160a01b038b811660048301529192509083169063748644c390602401602060405180830381865afa158015610474573d6000803e3d6000fd5b505050506040513d601f19601f820116820180604052508101906104989190611d90565b15610591578461ffff168661ffff16036104b7576000925050506106b7565b60015460408051600160f01b60208201526022808201939093528151808203909301835260428101825260608b901b6bffffffffffffffffffffffff191660628201528151605681830301815260768201928390526306f7707960e41b9092526000906001600160a01b038d1690636f77079090610543908b9086908f9087908a908f90607a01611e02565b6040805180830381865afa15801561055f573d6000803e3d6000fd5b505050506040513d601f19601f820116820180604052508101906105839190611e60565b5095506106b7945050505050565b8461ffff168661ffff16141580156105b157506001600160a01b03811615155b801561062c575060405163a4b2b31d60e01b81526001600160a01b038a8116600483015261ffff8716602483015282169063a4b2b31d90604401602060405180830381865afa158015610608573d6000803e3d6000fd5b505050506040513d601f19601f8201168201806040525081019061062c9190611d90565b156106b057604051631591f74960e11b81526000906001600160a01b03831690632b23ee92906106649089908d908a90600401611e84565b6040805180830381865afa158015610680573d6000803e3d6000fd5b505050506040513d601f19601f820116820180604052508101906106a49190611e60565b5093506106b792505050565b6000925050505b9695505050505050565b600080836001600160a01b0316639dd1cda66040518163ffffffff1660e01b8152600401602060405180830381865afa158015610702573d6000803e3d6000fd5b505050506040513d601f19601f820116820180604052508101906107269190611ebb565b90506127106107358483611eea565b61073f9190611f01565b9150505b92915050565b6000806000806000600260009054906101000a90046001600160a01b03166001600160a01b03166364df049e6040518163ffffffff1660e01b8152600401602060405180830381865afa1580156107a4573d6000803e3d6000fd5b505050506040513d601f19601f820116820180604052508101906107c89190611d73565b90508660006107d78a836106c1565b90506001600160a01b038316158015906107f057508015155b15610802576107ff8183611f23565b91505b600080898060200190518101906108199190611f36565b9092509050600061271061082d838e611eea565b6108379190611f01565b90506001600160a01b0383161580159061085057508015155b156108625761085f8186611f23565b94505b929c929b50929950975095505050505050565b61087d610bdd565b600280546001600160a01b0319166001600160a01b0392909216919091179055565b6002546001600160a01b031633146108d25760405162461bcd60e51b81526004016108c990611f64565b60405180910390fd5b60011961ffff8216016108fd576002546108f89088906001600160a01b03168886610c37565b61091a565b60025461091a908590899086906001600160a01b03168987610c75565b50505050505050565b61092b610bdd565b6109356000610e16565b565b6002546001600160a01b031633146109615760405162461bcd60e51b81526004016108c990611f64565b61096f868686868686610c75565b505050505050565b6002546001600160a01b031633146109a15760405162461bcd60e51b81526004016108c990611f64565b600260009054906101000a90046001600160a01b03166001600160a01b031663ad5c46486040518163ffffffff1660e01b8152600401602060405180830381865afa1580156109f4573d6000803e3d6000fd5b505050506040513d601f19601f82011682018060405250810190610a189190611d73565b6001600160a01b0316866001600160a01b031603610ad057600254604051634f9c1b4d60e11b815261ffff84166004820152610acb918791610ab8916000916001600160a01b0390911690639f38369a906024015b600060405180830381865afa158015610a8a573d6000803e3d6000fd5b505050506040513d6000823e601f3d908101601f19168201604052610ab29190810190611fa5565b90610e66565b868686610ac58334611f23565b87610ecb565b61096f565b600254604051634f9c1b4d60e11b815261ffff8416600482015261096f9188918891610b11916000916001600160a01b031690639f38369a90602401610a6d565b8787873488611116565b6002546001600160a01b03163314610b455760405162461bcd60e51b81526004016108c990611f64565b610b51848484846114b7565b50505050565b610b5f610bdd565b6001600160a01b038116610bc45760405162461bcd60e51b815260206004820152602660248201527f4f776e61626c653a206e6577206f776e657220697320746865207a65726f206160448201526564647265737360d01b60648201526084016108c9565b610bcd81610e16565b50565b610bd8610bdd565b600155565b6000546001600160a01b031633146109355760405162461bcd60e51b815260206004820181905260248201527f4f776e61626c653a2063616c6c6572206973206e6f7420746865206f776e657260448201526064016108c9565b306001600160a01b03841603610c6057610c5b6001600160a01b03851683836116c9565b610b51565b610b516001600160a01b038516848484611731565b6002546040805163326f824f60e11b815290516000926001600160a01b0316916364df049e9160048083019260209291908290030181865afa158015610cbf573d6000803e3d6000fd5b505050506040513d601f19601f82011682018060405250810190610ce39190611d73565b9050600080600080610cf68b8a88610749565b929650909450925090506001600160a01b03851615801590610d1757508315155b15610d2857610d288a898787610c37565b6001600160a01b03811615801590610d3f57508215155b15610d9757610d508a898386610c37565b604080516001600160a01b038c81168252602082018690528316917f0bcb4ccec07b71bfc6f01ca7d80a3a1a869f32e66370abf1baccb93e742f703d910160405180910390a25b610da389610320611eea565b610daf83612710611eea565b1015610dfd5760405162461bcd60e51b815260206004820152601a60248201527f466565733a20486967686572207468616e20657870656374656400000000000060448201526064016108c9565b610e098a898985610c37565b5050505050505050505050565b600080546001600160a01b038381166001600160a01b0319831681178455604051919092169283917f8be0079c531659141344cd1fd0a4f28419497f9722a3daafe3b4186f6b6457e09190a35050565b6000610e73826014612013565b83511015610ebb5760405162461bcd60e51b8152602060048201526015602482015274746f416464726573735f6f75744f66426f756e647360581b60448201526064016108c9565b500160200151600160601b900490565b60025460408051633d25e56160e01b815290516000926001600160a01b031691633d25e5619160048083019260209291908290030181865afa158015610f15573d6000803e3d6000fd5b505050506040513d601f19601f82011682018060405250810190610f399190611d73565b90508361ffff168561ffff1614158015610f5b57506001600160a01b03811615155b801561105a5750806001600160a01b031663a4b2b31d600260009054906101000a90046001600160a01b03166001600160a01b031663ad5c46486040518163ffffffff1660e01b8152600401602060405180830381865afa158015610fc4573d6000803e3d6000fd5b505050506040513d601f19601f82011682018060405250810190610fe89190611d73565b6040516001600160e01b031960e084901b1681526001600160a01b03909116600482015261ffff87166024820152604401602060405180830381865afa158015611036573d6000803e3d6000fd5b505050506040513d601f19601f8201168201806040525081019061105a9190611d90565b156110d4576001600160a01b038116635fa7a7ff6110788886612013565b868b8a8c886040518763ffffffff1660e01b815260040161109d959493929190612026565b6000604051808303818588803b1580156110b657600080fd5b505af11580156110ca573d6000803e3d6000fd5b505050505061110c565b6040516001600160a01b0388169087156108fc029088906000818181858888f1935050505015801561110a573d6000803e3d6000fd5b505b5050505050505050565b600254604080516303dd1f5d60e21b815290516000926001600160a01b031691630f747d749160048083019260209291908290030181865afa158015611160573d6000803e3d6000fd5b505050506040513d601f19601f820116820180604052508101906111849190611d73565b90506000600260009054906101000a90046001600160a01b03166001600160a01b0316633d25e5616040518163ffffffff1660e01b8152600401602060405180830381865afa1580156111db573d6000803e3d6000fd5b505050506040513d601f19601f820116820180604052508101906111ff9190611d73565b60405163748644c360e01b81526001600160a01b038c811660048301529192509083169063748644c390602401602060405180830381865afa158015611249573d6000803e3d6000fd5b505050506040513d601f19601f8201168201806040525081019061126d9190611d90565b1561137a578461ffff168661ffff16036112925761128d8a8a8a8a610c37565b6114ab565b6040516bffffffffffffffffffffffff1960608a901b16602082015260009060340160408051601f1981840301815290829052600154600160f01b60208401526022830152915060009060420160405160208183030381529060405290508b6001600160a01b0316630e506192878d8a868e600260009054906101000a90046001600160a01b03166000898e6040518a63ffffffff1660e01b8152600401611341989796959493929190612063565b6000604051808303818588803b15801561135a57600080fd5b505af115801561136e573d6000803e3d6000fd5b505050505050506114ab565b8461ffff168661ffff161415801561139a57506001600160a01b03811615155b8015611415575060405163a4b2b31d60e01b81526001600160a01b038b8116600483015261ffff8716602483015282169063a4b2b31d90604401602060405180830381865afa1580156113f1573d6000803e3d6000fd5b505050506040513d601f19601f820116820180604052508101906114159190611d90565b1561149f57806001600160a01b031663d065a125858c88600260009054906101000a90046001600160a01b03168c8f8f8b6040518963ffffffff1660e01b815260040161146897969594939291906120e1565b6000604051808303818588803b15801561148157600080fd5b505af1158015611495573d6000803e3d6000fd5b50505050506114ab565b6114ab8a8a8a8a610c37565b50505050505050505050565b6002546040805163326f824f60e11b815290516000926001600160a01b0316916364df049e9160048083019260209291908290030181865afa158015611501573d6000803e3d6000fd5b505050506040513d601f19601f820116820180604052508101906115259190611d73565b9050600080600080611538898888610749565b929650909450925090506001600160a01b0385161580159061155957508315155b15611596576040516001600160a01b0386169085156108fc029086906000818181858888f19350505050158015611594573d6000803e3d6000fd5b505b6001600160a01b038116158015906115ad57508215155b1561162d576040516001600160a01b0382169084156108fc029085906000818181858888f193505050501580156115e8573d6000803e3d6000fd5b50806001600160a01b03167f0294c65b8148d9a032dca74f3f8cd8877f1b7196d14773f2358cc1075e1ecd648460405161162491815260200190565b60405180910390a25b61163987610320611eea565b61164583612710611eea565b10156116935760405162461bcd60e51b815260206004820152601a60248201527f466565733a20486967686572207468616e20657870656374656400000000000060448201526064016108c9565b6040516001600160a01b0389169083156108fc029084906000818181858888f193505050501580156114ab573d6000803e3d6000fd5b6040516001600160a01b03831660248201526044810182905261172c90849063a9059cbb60e01b906064015b60408051601f198184030181529190526020810180516001600160e01b03166001600160e01b031990931692909217909152611769565b505050565b6040516001600160a01b0380851660248301528316604482015260648101829052610b519085906323b872dd60e01b906084016116f5565b60006117be826040518060400160405280602081526020017f5361666545524332303a206c6f772d6c6576656c2063616c6c206661696c6564815250856001600160a01b031661183b9092919063ffffffff16565b80519091501561172c57808060200190518101906117dc9190611d90565b61172c5760405162461bcd60e51b815260206004820152602a60248201527f5361666545524332303a204552433230206f7065726174696f6e20646964206e6044820152691bdd081cdd58d8d9595960b21b60648201526084016108c9565b606061184a8484600085611852565b949350505050565b6060824710156118b35760405162461bcd60e51b815260206004820152602660248201527f416464726573733a20696e73756666696369656e742062616c616e636520666f6044820152651c8818d85b1b60d21b60648201526084016108c9565b600080866001600160a01b031685876040516118cf919061212e565b60006040518083038185875af1925050503d806000811461190c576040519150601f19603f3d011682016040523d82523d6000602084013e611911565b606091505b50915091506119228783838761192d565b979650505050505050565b6060831561199c578251600003611995576001600160a01b0385163b6119955760405162461bcd60e51b815260206004820152601d60248201527f416464726573733a2063616c6c20746f206e6f6e2d636f6e747261637400000060448201526064016108c9565b508161184a565b61184a83838151156119b15781518083602001fd5b8060405162461bcd60e51b81526004016108c9919061214a565b6001600160a01b0381168114610bcd57600080fd5b803561ffff811681146119f257600080fd5b919050565b634e487b7160e01b600052604160045260246000fd5b604051601f8201601f1916810167ffffffffffffffff81118282101715611a3657611a366119f7565b604052919050565b600067ffffffffffffffff821115611a5857611a586119f7565b50601f01601f191660200190565b600082601f830112611a7757600080fd5b8135611a8a611a8582611a3e565b611a0d565b818152846020838601011115611a9f57600080fd5b816020850160208301376000918101602001919091529392505050565b60008060008060008060c08789031215611ad557600080fd5b8635611ae0816119cb565b95506020870135611af0816119cb565b945060408701359350611b05606088016119e0565b9250611b13608088016119e0565b915060a087013567ffffffffffffffff811115611b2f57600080fd5b611b3b89828a01611a66565b9150509295509295509295565b60008060408385031215611b5b57600080fd5b8235611b66816119cb565b946020939093013593505050565b600080600060608486031215611b8957600080fd5b8335611b94816119cb565b925060208401359150604084013567ffffffffffffffff811115611bb757600080fd5b611bc386828701611a66565b9150509250925092565b600060208284031215611bdf57600080fd5b8135611bea816119cb565b9392505050565b600080600080600080600060e0888a031215611c0c57600080fd5b8735611c17816119cb565b96506020880135611c27816119cb565b95506040880135611c37816119cb565b94506060880135611c47816119cb565b93506080880135925060a088013567ffffffffffffffff811115611c6a57600080fd5b611c768a828b01611a66565b925050611c8560c089016119e0565b905092959891949750929550565b60008060008060008060c08789031215611cac57600080fd5b8635611cb7816119cb565b95506020870135611cc7816119cb565b9450604087013593506060870135611cde816119cb565b92506080870135611b13816119cb565b60008060008060808587031215611d0457600080fd5b8435611d0f816119cb565b93506020850135611d1f816119cb565b925060408501359150606085013567ffffffffffffffff811115611d4257600080fd5b611d4e87828801611a66565b91505092959194509250565b600060208284031215611d6c57600080fd5b5035919050565b600060208284031215611d8557600080fd5b8151611bea816119cb565b600060208284031215611da257600080fd5b81518015158114611bea57600080fd5b60005b83811015611dcd578181015183820152602001611db5565b50506000910152565b60008151808452611dee816020860160208601611db2565b601f01601f19169290920160200192915050565b61ffff8716815260c060208201526000611e1f60c0830188611dd6565b86604084015285151560608401528281036080840152611e3f8186611dd6565b905082810360a0840152611e538185611dd6565b9998505050505050505050565b60008060408385031215611e7357600080fd5b505080516020909101519092909150565b61ffff841681526001600160a01b0383166020820152606060408201819052600090611eb290830184611dd6565b95945050505050565b600060208284031215611ecd57600080fd5b5051919050565b634e487b7160e01b600052601160045260246000fd5b808202811582820484141761074357610743611ed4565b600082611f1e57634e487b7160e01b600052601260045260246000fd5b500490565b8181038181111561074357610743611ed4565b60008060408385031215611f4957600080fd5b8251611f54816119cb565b6020939093015192949293505050565b60208082526021908201527f4f6e6c7920617661696c61626c652066726f6d204f6d6e695845786368616e676040820152606560f81b606082015260800190565b600060208284031215611fb757600080fd5b815167ffffffffffffffff811115611fce57600080fd5b8201601f81018413611fdf57600080fd5b8051611fed611a8582611a3e565b81815285602083850101111561200257600080fd5b611eb2826020830160208601611db2565b8082018082111561074357610743611ed4565b61ffff861681526001600160a01b038581166020830152604082018590528316606082015260a06080820181905260009061192290830184611dd6565b6001600160a01b03898116825261ffff89166020830152610100604083018190526000916120938483018b611dd6565b9150886060850152808816608085015280871660a08501525082810360c08401526120be8186611dd6565b905082810360e08401526120d28185611dd6565b9b9a5050505050505050505050565b6001600160a01b03888116825261ffff881660208301528681166040830152606082018690528481166080830152831660a082015260e060c08201819052600090611e5390830184611dd6565b60008251612140818460208701611db2565b9190910192915050565b602081526000611bea6020830184611dd656fea26469706673582212207a4e4d538c9cb4ac8e322e517fdc440cb52a9f561001e346cabf6090a9383baa64736f6c63430008110033",
    "linkReferences": {}
  },
  "methodIdentifiers": {
    "DIRECT_TRANSFER()": "6035b952",
    "PROXY_TRANSFER()": "61a67ebb",
    "REVERT_TRANSFER()": "3e46fc65",
    "calculateProtocolFee(address,uint256)": "52c5f1f5",
    "gasForOmniLzReceive()": "51039b4e",
    "getFeesAndFunds(address,uint256,bytes)": "5b8b3166",
    "lzFeeTransferCurrency(address,address,uint256,uint16,uint16,bytes)": "044c601d",
    "omnixExchange()": "aaaebc95",
    "owner()": "8da5cb5b",
    "processFeesAndFunds(address,address,address,address,uint256,bytes,uint16)": "6d8cfc3c",
    "renounceOwnership()": "715018a6",
    "setGasForOmniLZReceive(uint256)": "f41b0282",
    "setOmnixExchange(address)": "5fddebef",
    "transferFeesAndFunds(address,address,uint256,address,address,bytes)": "c68cc686",
    "transferFeesAndFundsWithWETH(address,address,uint256,bytes)": "e21d2533",
    "transferOwnership(address)": "f2fde38b",
    "transferProxyFunds(address,address,uint256,uint16,uint16,bytes)": "cc72d03b"
  },
  "id": 5
}