{
  "abi": [
    {
      "inputs": [],
      "stateMutability": "nonpayable",
      "type": "constructor"
    },
    {
      "anonymous": false,
      "inputs": [
        {
          "indexed": true,
          "internalType": "address",
          "name": "account",
          "type": "address"
        },
        {
          "indexed": true,
          "internalType": "address",
          "name": "operator",
          "type": "address"
        },
        {
          "indexed": false,
          "internalType": "bool",
          "name": "approved",
          "type": "bool"
        }
      ],
      "name": "ApprovalForAll",
      "type": "event"
    },
    {
      "anonymous": false,
      "inputs": [
        {
          "indexed": true,
          "internalType": "address",
          "name": "previousOwner",
          "type": "address"
        },
        {
          "indexed": true,
          "internalType": "address",
          "name": "newOwner",
          "type": "address"
        }
      ],
      "name": "OwnershipTransferred",
      "type": "event"
    },
    {
      "anonymous": false,
      "inputs": [
        {
          "indexed": true,
          "internalType": "address",
          "name": "operator",
          "type": "address"
        },
        {
          "indexed": true,
          "internalType": "address",
          "name": "from",
          "type": "address"
        },
        {
          "indexed": true,
          "internalType": "address",
          "name": "to",
          "type": "address"
        },
        {
          "indexed": false,
          "internalType": "uint256[]",
          "name": "ids",
          "type": "uint256[]"
        },
        {
          "indexed": false,
          "internalType": "uint256[]",
          "name": "values",
          "type": "uint256[]"
        }
      ],
      "name": "TransferBatch",
      "type": "event"
    },
    {
      "anonymous": false,
      "inputs": [
        {
          "indexed": true,
          "internalType": "address",
          "name": "operator",
          "type": "address"
        },
        {
          "indexed": true,
          "internalType": "address",
          "name": "from",
          "type": "address"
        },
        {
          "indexed": true,
          "internalType": "address",
          "name": "to",
          "type": "address"
        },
        {
          "indexed": false,
          "internalType": "uint256",
          "name": "id",
          "type": "uint256"
        },
        {
          "indexed": false,
          "internalType": "uint256",
          "name": "value",
          "type": "uint256"
        }
      ],
      "name": "TransferSingle",
      "type": "event"
    },
    {
      "anonymous": false,
      "inputs": [
        {
          "indexed": false,
          "internalType": "string",
          "name": "value",
          "type": "string"
        },
        {
          "indexed": true,
          "internalType": "uint256",
          "name": "id",
          "type": "uint256"
        }
      ],
      "name": "URI",
      "type": "event"
    },
    {
      "inputs": [
        {
          "internalType": "address",
          "name": "account",
          "type": "address"
        },
        {
          "internalType": "uint256",
          "name": "id",
          "type": "uint256"
        }
      ],
      "name": "balanceOf",
      "outputs": [
        {
          "internalType": "uint256",
          "name": "",
          "type": "uint256"
        }
      ],
      "stateMutability": "view",
      "type": "function"
    },
    {
      "inputs": [
        {
          "internalType": "address[]",
          "name": "accounts",
          "type": "address[]"
        },
        {
          "internalType": "uint256[]",
          "name": "ids",
          "type": "uint256[]"
        }
      ],
      "name": "balanceOfBatch",
      "outputs": [
        {
          "internalType": "uint256[]",
          "name": "",
          "type": "uint256[]"
        }
      ],
      "stateMutability": "view",
      "type": "function"
    },
    {
      "inputs": [
        {
          "internalType": "address",
          "name": "account",
          "type": "address"
        },
        {
          "internalType": "uint256",
          "name": "id",
          "type": "uint256"
        },
        {
          "internalType": "uint256",
          "name": "value",
          "type": "uint256"
        }
      ],
      "name": "burn",
      "outputs": [],
      "stateMutability": "nonpayable",
      "type": "function"
    },
    {
      "inputs": [
        {
          "internalType": "address",
          "name": "account",
          "type": "address"
        },
        {
          "internalType": "uint256[]",
          "name": "ids",
          "type": "uint256[]"
        },
        {
          "internalType": "uint256[]",
          "name": "values",
          "type": "uint256[]"
        }
      ],
      "name": "burnBatch",
      "outputs": [],
      "stateMutability": "nonpayable",
      "type": "function"
    },
    {
      "inputs": [
        {
          "internalType": "address",
          "name": "account",
          "type": "address"
        },
        {
          "internalType": "address",
          "name": "operator",
          "type": "address"
        }
      ],
      "name": "isApprovedForAll",
      "outputs": [
        {
          "internalType": "bool",
          "name": "",
          "type": "bool"
        }
      ],
      "stateMutability": "view",
      "type": "function"
    },
    {
      "inputs": [
        {
          "internalType": "uint256",
          "name": "id",
          "type": "uint256"
        },
        {
          "internalType": "uint256",
          "name": "amount",
          "type": "uint256"
        }
      ],
      "name": "mint",
      "outputs": [],
      "stateMutability": "nonpayable",
      "type": "function"
    },
    {
      "inputs": [],
      "name": "owner",
      "outputs": [
        {
          "internalType": "address",
          "name": "",
          "type": "address"
        }
      ],
      "stateMutability": "view",
      "type": "function"
    },
    {
      "inputs": [],
      "name": "renounceOwnership",
      "outputs": [],
      "stateMutability": "nonpayable",
      "type": "function"
    },
    {
      "inputs": [
        {
          "internalType": "address",
          "name": "from",
          "type": "address"
        },
        {
          "internalType": "address",
          "name": "to",
          "type": "address"
        },
        {
          "internalType": "uint256[]",
          "name": "ids",
          "type": "uint256[]"
        },
        {
          "internalType": "uint256[]",
          "name": "amounts",
          "type": "uint256[]"
        },
        {
          "internalType": "bytes",
          "name": "data",
          "type": "bytes"
        }
      ],
      "name": "safeBatchTransferFrom",
      "outputs": [],
      "stateMutability": "nonpayable",
      "type": "function"
    },
    {
      "inputs": [
        {
          "internalType": "address",
          "name": "from",
          "type": "address"
        },
        {
          "internalType": "address",
          "name": "to",
          "type": "address"
        },
        {
          "internalType": "uint256",
          "name": "id",
          "type": "uint256"
        },
        {
          "internalType": "uint256",
          "name": "amount",
          "type": "uint256"
        },
        {
          "internalType": "bytes",
          "name": "data",
          "type": "bytes"
        }
      ],
      "name": "safeTransferFrom",
      "outputs": [],
      "stateMutability": "nonpayable",
      "type": "function"
    },
    {
      "inputs": [
        {
          "internalType": "address",
          "name": "operator",
          "type": "address"
        },
        {
          "internalType": "bool",
          "name": "approved",
          "type": "bool"
        }
      ],
      "name": "setApprovalForAll",
      "outputs": [],
      "stateMutability": "nonpayable",
      "type": "function"
    },
    {
      "inputs": [
        {
          "internalType": "string",
          "name": "newuri",
          "type": "string"
        }
      ],
      "name": "setURI",
      "outputs": [],
      "stateMutability": "nonpayable",
      "type": "function"
    },
    {
      "inputs": [
        {
          "internalType": "bytes4",
          "name": "interfaceId",
          "type": "bytes4"
        }
      ],
      "name": "supportsInterface",
      "outputs": [
        {
          "internalType": "bool",
          "name": "",
          "type": "bool"
        }
      ],
      "stateMutability": "view",
      "type": "function"
    },
    {
      "inputs": [
        {
          "internalType": "address",
          "name": "newOwner",
          "type": "address"
        }
      ],
      "name": "transferOwnership",
      "outputs": [],
      "stateMutability": "nonpayable",
      "type": "function"
    },
    {
      "inputs": [
        {
          "internalType": "uint256",
          "name": "",
          "type": "uint256"
        }
      ],
      "name": "uri",
      "outputs": [
        {
          "internalType": "string",
          "name": "",
          "type": "string"
        }
      ],
      "stateMutability": "view",
      "type": "function"
    }
  ],
  "bytecode": {
    "object": "0x60803461011d57602081016001600160401b038111828210176101075760405260008091526002546001908181811c911680156100fd575b60208210146100e957601f81116100a2575b600283905560038054336001600160a01b03198216811790925560405191906001600160a01b03167f8be0079c531659141344cd1fd0a4f28419497f9722a3daafe3b4186f6b6457e08680a36118c29081620001238239f35b60028352601f0160051c7f405787fa12a823e0f2b7631cc41b3ba8828b3321ca811111fa75cd3aa3bb5ace908101905b8181106100df5750610049565b83815582016100d2565b634e487b7160e01b83526022600452602483fd5b90607f1690610037565b634e487b7160e01b600052604160045260246000fd5b600080fdfe6040608081526004908136101561001557600080fd5b600091823560e01c908162fdd58e146111f557816301ffc9a71461118757816302fe530514610fde5781630e89341c14610ef45781631b2ef1ca14610d435781632eb2c2d614610a405781634e1273f41461089e5781636b20c45414610746578163715018a6146106e35781638da5cb5b146106ba578163a22cb465146105dc578163e985e9c51461058a578163f242432a14610289578163f2fde38b146101bc575063f5298aca146100c757600080fd5b8190346101b95760603660031901126101b9576100e2611225565b6001600160a01b031690602435907fc3d58168c5ae7397731d063d5bbf3d657854427343f4c083240f7aacaa2d0f6290604435338514801561019a575b61012890611553565b6101338515156117dc565b61013c846117a6565b50610146816117a6565b5085825161015381611256565b5283865285602052818620858752602052808287205461017582821015611834565b858852876020528388208789526020520382872055815193845260208401523392a480f35b508486526001602090815282872033885290528186205460ff1661011f565b50fd5b905034610285576020366003190112610285576101d7611225565b6003546001600160a01b038082169391926101f33386146113f9565b169384156102335750506001600160a01b03191682176003557f8be0079c531659141344cd1fd0a4f28419497f9722a3daafe3b4186f6b6457e08380a380f35b906020608492519162461bcd60e51b8352820152602660248201527f4f776e61626c653a206e6577206f776e657220697320746865207a65726f206160448201526564647265737360d01b6064820152fd5b8280fd5b919050346102855760a0366003190112610285576102a5611225565b836102ae611240565b916044359060643560843567ffffffffffffffff8111610586576102d590369089016113a7565b926001600160a01b03928316923384148015610567575b6102f590611553565b8616906103038215156115b1565b61030c816117a6565b50610316836117a6565b50808652602096868852888720858852885283898820546103398282101561160b565b838952888a528a8920878a528a520389882055818752868852888720838852885288872061036885825461166a565b905582858a51848152868b8201527fc3d58168c5ae7397731d063d5bbf3d657854427343f4c083240f7aacaa2d0f628c3392a43b6103a4578580f35b889587946103e58a519788968795869463f23a6e6160e01b9c8d8752339087015260248601526044850152606484015260a0608484015260a48301906112f1565b03925af1869181610538575b506104c3575050600190610403611719565b6308c379a014610490575b506104235750505b3880808381808080808580f35b5162461bcd60e51b81529150819061048c90820160809060208152603460208201527f455243313135353a207472616e7366657220746f206e6f6e20455243313135356040820152732932b1b2b4bb32b91034b6b83632b6b2b73a32b960611b60608201520190565b0390fd5b610498611737565b806104a3575061040e565b61048c8591855193849362461bcd60e51b855284015260248301906112f1565b6001600160e01b0319160390506104db575050610416565b5162461bcd60e51b81529150819061048c90820160809060208152602860208201527f455243313135353a204552433131353552656365697665722072656a656374656040820152676420746f6b656e7360c01b60608201520190565b610559919250843d8611610560575b6105518183611288565b8101906116f9565b90386103f1565b503d610547565b508386526001602090815288872033885290528786205460ff166102ec565b8480fd5b5050346105d857806003193601126105d85760ff816020936105aa611225565b6105b2611240565b6001600160a01b0391821683526001875283832091168252855220549151911615158152f35b5080fd5b919050346102855780600319360112610285576105f7611225565b9060243591821515809303610586576001600160a01b0316923384146106665750338452600160205280842083855260205280842060ff1981541660ff8416179055519081527f17307eab39ab6107e8899845ad3d59bd9653f200f220920489ca2b5937696c3160203392a380f35b6020608492519162461bcd60e51b8352820152602960248201527f455243313135353a2073657474696e6720617070726f76616c20737461747573604482015268103337b91039b2b63360b91b6064820152fd5b5050346105d857816003193601126105d85760035490516001600160a01b039091168152602090f35b833461074357806003193601126107435760035481906001600160a01b0381169061070f3383146113f9565b6001600160a01b0319166003557f8be0079c531659141344cd1fd0a4f28419497f9722a3daafe3b4186f6b6457e08280a380f35b80fd5b9050823461074357606036600319011261074357610762611225565b9267ffffffffffffffff9260243584811161089a576107849036908301611349565b9360443590811161089a5761079b91369101611349565b936001600160a01b0316338114801561087b575b6107b890611553565b6107c38115156117dc565b6107d08451865114611677565b8282516107dc81611256565b52825b845181101561084057806107f661083b9287611529565b516108018289611529565b519080875260208781528688208689528152868820549161082484841015611834565b885287815286882090868952520384862055611504565b6107df565b50837f4a39dc06d4c0dbc64b70af90fd698a233a518aa5d07e595d983b8c0526c8f7fb610875878695519182913395836116d4565b0390a480f35b508083526001602090815282842033855290528183205460ff166107af565b8380fd5b905034610285578160031936011261028557803567ffffffffffffffff80821161058657366023830112156105865781830135906108db82611331565b926108e886519485611288565b82845260209260248486019160051b83010191368311610a3c57602401905b828210610a1957505050602435908111610a15576109289036908501611349565b9282518451036109c2575081519461093f86611331565b9561094c86519788611288565b80875261095b601f1991611331565b0136838801375b82518110156109ac576109a7906109976001600160a01b036109848387611529565b51166109908388611529565b519061147e565b6109a18289611529565b52611504565b610962565b8451828152806109be818501896113c5565b0390f35b60849185519162461bcd60e51b8352820152602960248201527f455243313135353a206163636f756e747320616e6420696473206c656e677468604482015268040dad2e6dac2e8c6d60bb1b6064820152fd5b8580fd5b81356001600160a01b0381168103610a38578152908401908401610907565b8980fd5b8880fd5b905034610285576003199160a03684011261089a57610a5d611225565b92610a66611240565b9367ffffffffffffffff93604435858111610d3f57610a889036908301611349565b90606435868111610a3c57610aa09036908301611349565b95608435908111610a3c57610ab890369083016113a7565b936001600160a01b03938416933385148015610d21575b15610cc357610ae18451895114611677565b881694610aef8615156115b1565b895b8a8551821015610b75579089610b698a610b7094610b1a85610b13818d611529565b5195611529565b51938082526020908282528383208d84528252858d8585205490610b408383101561160b565b838652858552868620908652845203848420558252818152828220908d8352522091825461166a565b9055611504565b610af1565b50509094939596929197848789517f4a39dc06d4c0dbc64b70af90fd698a233a518aa5d07e595d983b8c0526c8f7fb339180610bb28a8a836116d4565b0390a43b610bbe578880f35b8651948593849363bc197c8160e01b98898652338c87015260248601526044850160a0905260a48501610bf0916113c5565b82858203016064860152610c03916113c5565b90838203016084840152610c16916112f1565b0381885a94602095f1859181610ca3575b50610c8d5750506001610c38611719565b6308c379a014610c56575b6104235750505b38808080808080808880f35b610c5e611737565b80610c695750610c43565b905061048c91602094505193849362461bcd60e51b855284015260248301906112f1565b6001600160e01b031916036104db575050610c4a565b610cbc91925060203d8111610560576105518183611288565b9038610c27565b865162461bcd60e51b8152602081850152603260248201527f455243313135353a207472616e736665722063616c6c6572206973206e6f74206044820152711bdddb995c881b9bdc88185c1c1c9bdd995960721b6064820152608490fd5b50848a526001602052868a20338b5260205260ff878b205416610acf565b8780fd5b919050346102855780600319360112610285578135602435908251610d6781611256565b8581523315610ea757610d79826117a6565b50610d83836117a6565b508186526020928684528487203388528452848720610da382825461166a565b9055845183815281858201528733917fc3d58168c5ae7397731d063d5bbf3d657854427343f4c083240f7aacaa2d0f62883392a4333b610de1578680f35b610e209184918651938492839263f23a6e6160e01b97888552338c8601528c60248601526044850152606484015260a0608484015260a48301906112f1565b038189335af1869181610e88575b50610e70575050600190610e40611719565b6308c379a014610e5d575b506104235750505b3880808080808680f35b610e65611737565b806104a35750610e4b565b6001600160e01b0319160390506104db575050610e53565b610ea0919250843d8611610560576105518183611288565b9038610e2e565b835162461bcd60e51b8152602081870152602160248201527f455243313135353a206d696e7420746f20746865207a65726f206164647265736044820152607360f81b6064820152608490fd5b5050346105d8576020908160031936011261028557805183819490600254610f1b81611444565b91828552600191878382169182600014610fb7575050600114610f5b575b5050506109be9291610f4c910385611288565b519282849384528301906112f1565b9190869350600283527f405787fa12a823e0f2b7631cc41b3ba8828b3321ca811111fa75cd3aa3bb5ace5b828410610f9f5750505082010181610f4c6109be610f39565b8054848a018601528895508794909301928101610f86565b60ff19168782015293151560051b86019093019350849250610f4c91506109be9050610f39565b8334610743576020806003193601126105d85767ffffffffffffffff90833582811161089a573660238201121561089a5761102290369060248188013591016112aa565b9361103860018060a01b036003541633146113f9565b8451928311611174575061104d600254611444565b601f8111611112575b5080601f831160011461109157508293829392611086575b50508160011b916000199060031b1c19161760025580f35b01519050838061106e565b60028452601f198316947f405787fa12a823e0f2b7631cc41b3ba8828b3321ca811111fa75cd3aa3bb5ace929185905b8782106110fa5750508360019596106110e1575b505050811b0160025580f35b015160001960f88460031b161c191690558380806110d5565b806001859682949686015181550195019301906110c1565b600284527f405787fa12a823e0f2b7631cc41b3ba8828b3321ca811111fa75cd3aa3bb5ace601f840160051c81019183851061116a575b601f0160051c01905b81811061115f5750611056565b848155600101611152565b9091508190611149565b634e487b7160e01b845260419052602483fd5b90503461028557602036600319011261028557359063ffffffff60e01b82168092036102855760209250636cdb3d1360e11b82149182156111e4575b82156111d3575b50519015158152f35b6301ffc9a760e01b149150386111ca565b6303a24d0760e21b811492506111c3565b5050346105d857806003193601126105d85760209061121e611215611225565b6024359061147e565b9051908152f35b600435906001600160a01b038216820361123b57565b600080fd5b602435906001600160a01b038216820361123b57565b6020810190811067ffffffffffffffff82111761127257604052565b634e487b7160e01b600052604160045260246000fd5b90601f8019910116810190811067ffffffffffffffff82111761127257604052565b92919267ffffffffffffffff821161127257604051916112d4601f8201601f191660200184611288565b82948184528183011161123b578281602093846000960137010152565b919082519283825260005b84811061131d575050826000602080949584010152601f8019910116010190565b6020818301810151848301820152016112fc565b67ffffffffffffffff81116112725760051b60200190565b81601f8201121561123b5780359161136083611331565b9261136e6040519485611288565b808452602092838086019260051b82010192831161123b578301905b828210611398575050505090565b8135815290830190830161138a565b9080601f8301121561123b578160206113c2933591016112aa565b90565b90815180825260208080930193019160005b8281106113e5575050505090565b8351855293810193928101926001016113d7565b1561140057565b606460405162461bcd60e51b815260206004820152602060248201527f4f776e61626c653a2063616c6c6572206973206e6f7420746865206f776e65726044820152fd5b90600182811c92168015611474575b602083101461145e57565b634e487b7160e01b600052602260045260246000fd5b91607f1691611453565b6001600160a01b03169081156114ab57600052600060205260406000209060005260205260406000205490565b60405162461bcd60e51b815260206004820152602b60248201527f455243313135353a2062616c616e636520717565727920666f7220746865207a60448201526a65726f206164647265737360a81b6064820152608490fd5b60001981146115135760010190565b634e487b7160e01b600052601160045260246000fd5b805182101561153d5760209160051b010190565b634e487b7160e01b600052603260045260246000fd5b1561155a57565b60405162461bcd60e51b815260206004820152602960248201527f455243313135353a2063616c6c6572206973206e6f74206f776e6572206e6f7260448201526808185c1c1c9bdd995960ba1b6064820152608490fd5b156115b857565b60405162461bcd60e51b815260206004820152602560248201527f455243313135353a207472616e7366657220746f20746865207a65726f206164604482015264647265737360d81b6064820152608490fd5b1561161257565b60405162461bcd60e51b815260206004820152602a60248201527f455243313135353a20696e73756666696369656e742062616c616e636520666f60448201526939103a3930b739b332b960b11b6064820152608490fd5b9190820180921161151357565b1561167e57565b60405162461bcd60e51b815260206004820152602860248201527f455243313135353a2069647320616e6420616d6f756e7473206c656e677468206044820152670dad2e6dac2e8c6d60c31b6064820152608490fd5b90916116eb6113c2936040845260408401906113c5565b9160208184039101526113c5565b9081602091031261123b57516001600160e01b03198116810361123b5790565b60009060033d1161172657565b905060046000803e60005160e01c90565b600060443d106113c257604051600319913d83016004833e815167ffffffffffffffff918282113d6024840111176117955781840194855193841161179d573d8501016020848701011161179557506113c292910160200190611288565b949350505050565b50949350505050565b604051906040820182811067ffffffffffffffff821117611272576040526001825260208201602036823782511561153d575290565b156117e357565b60405162461bcd60e51b815260206004820152602360248201527f455243313135353a206275726e2066726f6d20746865207a65726f206164647260448201526265737360e81b6064820152608490fd5b1561183b57565b60405162461bcd60e51b8152602060048201526024808201527f455243313135353a206275726e20616d6f756e7420657863656564732062616c604482015263616e636560e01b6064820152608490fdfea2646970667358221220e74ad446d022fad72136e6378266f3b4a02900610c63407f972c1606f8c09cb264736f6c63430008110033",
    "linkReferences": {}
  },
  "methodIdentifiers": {
    "balanceOf(address,uint256)": "00fdd58e",
    "balanceOfBatch(address[],uint256[])": "4e1273f4",
    "burn(address,uint256,uint256)": "f5298aca",
    "burnBatch(address,uint256[],uint256[])": "6b20c454",
    "isApprovedForAll(address,address)": "e985e9c5",
    "mint(uint256,uint256)": "1b2ef1ca",
    "owner()": "8da5cb5b",
    "renounceOwnership()": "715018a6",
    "safeBatchTransferFrom(address,address,uint256[],uint256[],bytes)": "2eb2c2d6",
    "safeTransferFrom(address,address,uint256,uint256,bytes)": "f242432a",
    "setApprovalForAll(address,bool)": "a22cb465",
    "setURI(string)": "02fe5305",
    "supportsInterface(bytes4)": "01ffc9a7",
    "transferOwnership(address)": "f2fde38b",
    "uri(uint256)": "0e89341c"
  },
  "id": 85
}