{
  "abi": [
    {
      "inputs": [],
      "stateMutability": "nonpayable",
      "type": "constructor"
    },
    {
      "anonymous": false,
      "inputs": [
        {
          "indexed": true,
          "internalType": "address",
          "name": "account",
          "type": "address"
        },
        {
          "indexed": true,
          "internalType": "address",
          "name": "operator",
          "type": "address"
        },
        {
          "indexed": false,
          "internalType": "bool",
          "name": "approved",
          "type": "bool"
        }
      ],
      "name": "ApprovalForAll",
      "type": "event"
    },
    {
      "anonymous": false,
      "inputs": [
        {
          "indexed": true,
          "internalType": "address",
          "name": "previousOwner",
          "type": "address"
        },
        {
          "indexed": true,
          "internalType": "address",
          "name": "newOwner",
          "type": "address"
        }
      ],
      "name": "OwnershipTransferred",
      "type": "event"
    },
    {
      "anonymous": false,
      "inputs": [
        {
          "indexed": true,
          "internalType": "address",
          "name": "operator",
          "type": "address"
        },
        {
          "indexed": true,
          "internalType": "address",
          "name": "from",
          "type": "address"
        },
        {
          "indexed": true,
          "internalType": "address",
          "name": "to",
          "type": "address"
        },
        {
          "indexed": false,
          "internalType": "uint256[]",
          "name": "ids",
          "type": "uint256[]"
        },
        {
          "indexed": false,
          "internalType": "uint256[]",
          "name": "values",
          "type": "uint256[]"
        }
      ],
      "name": "TransferBatch",
      "type": "event"
    },
    {
      "anonymous": false,
      "inputs": [
        {
          "indexed": true,
          "internalType": "address",
          "name": "operator",
          "type": "address"
        },
        {
          "indexed": true,
          "internalType": "address",
          "name": "from",
          "type": "address"
        },
        {
          "indexed": true,
          "internalType": "address",
          "name": "to",
          "type": "address"
        },
        {
          "indexed": false,
          "internalType": "uint256",
          "name": "id",
          "type": "uint256"
        },
        {
          "indexed": false,
          "internalType": "uint256",
          "name": "value",
          "type": "uint256"
        }
      ],
      "name": "TransferSingle",
      "type": "event"
    },
    {
      "anonymous": false,
      "inputs": [
        {
          "indexed": false,
          "internalType": "string",
          "name": "value",
          "type": "string"
        },
        {
          "indexed": true,
          "internalType": "uint256",
          "name": "id",
          "type": "uint256"
        }
      ],
      "name": "URI",
      "type": "event"
    },
    {
      "inputs": [
        {
          "internalType": "address",
          "name": "account",
          "type": "address"
        },
        {
          "internalType": "uint256",
          "name": "id",
          "type": "uint256"
        }
      ],
      "name": "balanceOf",
      "outputs": [
        {
          "internalType": "uint256",
          "name": "",
          "type": "uint256"
        }
      ],
      "stateMutability": "view",
      "type": "function"
    },
    {
      "inputs": [
        {
          "internalType": "address[]",
          "name": "accounts",
          "type": "address[]"
        },
        {
          "internalType": "uint256[]",
          "name": "ids",
          "type": "uint256[]"
        }
      ],
      "name": "balanceOfBatch",
      "outputs": [
        {
          "internalType": "uint256[]",
          "name": "",
          "type": "uint256[]"
        }
      ],
      "stateMutability": "view",
      "type": "function"
    },
    {
      "inputs": [
        {
          "internalType": "address",
          "name": "account",
          "type": "address"
        },
        {
          "internalType": "uint256",
          "name": "id",
          "type": "uint256"
        },
        {
          "internalType": "uint256",
          "name": "value",
          "type": "uint256"
        }
      ],
      "name": "burn",
      "outputs": [],
      "stateMutability": "nonpayable",
      "type": "function"
    },
    {
      "inputs": [
        {
          "internalType": "address",
          "name": "account",
          "type": "address"
        },
        {
          "internalType": "uint256[]",
          "name": "ids",
          "type": "uint256[]"
        },
        {
          "internalType": "uint256[]",
          "name": "values",
          "type": "uint256[]"
        }
      ],
      "name": "burnBatch",
      "outputs": [],
      "stateMutability": "nonpayable",
      "type": "function"
    },
    {
      "inputs": [
        {
          "internalType": "address",
          "name": "account",
          "type": "address"
        },
        {
          "internalType": "address",
          "name": "operator",
          "type": "address"
        }
      ],
      "name": "isApprovedForAll",
      "outputs": [
        {
          "internalType": "bool",
          "name": "",
          "type": "bool"
        }
      ],
      "stateMutability": "view",
      "type": "function"
    },
    {
      "inputs": [
        {
          "internalType": "uint256",
          "name": "id",
          "type": "uint256"
        },
        {
          "internalType": "uint256",
          "name": "amount",
          "type": "uint256"
        }
      ],
      "name": "mint",
      "outputs": [],
      "stateMutability": "nonpayable",
      "type": "function"
    },
    {
      "inputs": [],
      "name": "owner",
      "outputs": [
        {
          "internalType": "address",
          "name": "",
          "type": "address"
        }
      ],
      "stateMutability": "view",
      "type": "function"
    },
    {
      "inputs": [],
      "name": "renounceOwnership",
      "outputs": [],
      "stateMutability": "nonpayable",
      "type": "function"
    },
    {
      "inputs": [
        {
          "internalType": "address",
          "name": "from",
          "type": "address"
        },
        {
          "internalType": "address",
          "name": "to",
          "type": "address"
        },
        {
          "internalType": "uint256[]",
          "name": "ids",
          "type": "uint256[]"
        },
        {
          "internalType": "uint256[]",
          "name": "amounts",
          "type": "uint256[]"
        },
        {
          "internalType": "bytes",
          "name": "data",
          "type": "bytes"
        }
      ],
      "name": "safeBatchTransferFrom",
      "outputs": [],
      "stateMutability": "nonpayable",
      "type": "function"
    },
    {
      "inputs": [
        {
          "internalType": "address",
          "name": "from",
          "type": "address"
        },
        {
          "internalType": "address",
          "name": "to",
          "type": "address"
        },
        {
          "internalType": "uint256",
          "name": "id",
          "type": "uint256"
        },
        {
          "internalType": "uint256",
          "name": "amount",
          "type": "uint256"
        },
        {
          "internalType": "bytes",
          "name": "data",
          "type": "bytes"
        }
      ],
      "name": "safeTransferFrom",
      "outputs": [],
      "stateMutability": "nonpayable",
      "type": "function"
    },
    {
      "inputs": [
        {
          "internalType": "address",
          "name": "operator",
          "type": "address"
        },
        {
          "internalType": "bool",
          "name": "approved",
          "type": "bool"
        }
      ],
      "name": "setApprovalForAll",
      "outputs": [],
      "stateMutability": "nonpayable",
      "type": "function"
    },
    {
      "inputs": [
        {
          "internalType": "string",
          "name": "newuri",
          "type": "string"
        }
      ],
      "name": "setURI",
      "outputs": [],
      "stateMutability": "nonpayable",
      "type": "function"
    },
    {
      "inputs": [
        {
          "internalType": "bytes4",
          "name": "interfaceId",
          "type": "bytes4"
        }
      ],
      "name": "supportsInterface",
      "outputs": [
        {
          "internalType": "bool",
          "name": "",
          "type": "bool"
        }
      ],
      "stateMutability": "view",
      "type": "function"
    },
    {
      "inputs": [
        {
          "internalType": "address",
          "name": "newOwner",
          "type": "address"
        }
      ],
      "name": "transferOwnership",
      "outputs": [],
      "stateMutability": "nonpayable",
      "type": "function"
    },
    {
      "inputs": [
        {
          "internalType": "uint256",
          "name": "",
          "type": "uint256"
        }
      ],
      "name": "uri",
      "outputs": [
        {
          "internalType": "string",
          "name": "",
          "type": "string"
        }
      ],
      "stateMutability": "view",
      "type": "function"
    }
  ],
  "bytecode": {
    "object": "0x60806040523480156200001157600080fd5b506040805160208101909152600081526200002c816200003e565b50620000383362000050565b62000213565b60026200004c828262000147565b5050565b600380546001600160a01b038381166001600160a01b0319831681179093556040519116919082907f8be0079c531659141344cd1fd0a4f28419497f9722a3daafe3b4186f6b6457e090600090a35050565b634e487b7160e01b600052604160045260246000fd5b600181811c90821680620000cd57607f821691505b602082108103620000ee57634e487b7160e01b600052602260045260246000fd5b50919050565b601f8211156200014257600081815260208120601f850160051c810160208610156200011d5750805b601f850160051c820191505b818110156200013e5782815560010162000129565b5050505b505050565b81516001600160401b03811115620001635762000163620000a2565b6200017b81620001748454620000b8565b84620000f4565b602080601f831160018114620001b357600084156200019a5750858301515b600019600386901b1c1916600185901b1785556200013e565b600085815260208120601f198616915b82811015620001e457888601518255948401946001909101908401620001c3565b5085821015620002035787850151600019600388901b60f8161c191681555b5050505050600190811b01905550565b611cd280620002236000396000f3fe608060405234801561001057600080fd5b50600436106100f45760003560e01c80636b20c45411610097578063e985e9c511610066578063e985e9c514610206578063f242432a14610242578063f2fde38b14610255578063f5298aca1461026857600080fd5b80636b20c454146101bd578063715018a6146101d05780638da5cb5b146101d8578063a22cb465146101f357600080fd5b80630e89341c116100d35780630e89341c146101575780631b2ef1ca146101775780632eb2c2d61461018a5780634e1273f41461019d57600080fd5b8062fdd58e146100f957806301ffc9a71461011f57806302fe530514610142575b600080fd5b61010c610107366004611184565b61027b565b6040519081526020015b60405180910390f35b61013261012d3660046111c4565b610314565b6040519015158152602001610116565b610155610150366004611289565b610364565b005b61016a6101653660046112da565b610378565b6040516101169190611339565b61015561018536600461134c565b61040c565b610155610198366004611423565b61042b565b6101b06101ab3660046114cd565b610477565b60405161011691906115d3565b6101556101cb3660046115e6565b6105a1565b6101556105e9565b6003546040516001600160a01b039091168152602001610116565b61015561020136600461165a565b6105fd565b610132610214366004611696565b6001600160a01b03918216600090815260016020908152604080832093909416825291909152205460ff1690565b6101556102503660046116c9565b610608565b61015561026336600461172e565b61064d565b610155610276366004611749565b6106c3565b60006001600160a01b0383166102eb5760405162461bcd60e51b815260206004820152602a60248201527f455243313135353a2061646472657373207a65726f206973206e6f742061207660448201526930b634b21037bbb732b960b11b60648201526084015b60405180910390fd5b506000818152602081815260408083206001600160a01b03861684529091529020545b92915050565b60006001600160e01b03198216636cdb3d1360e11b148061034557506001600160e01b031982166303a24d0760e21b145b8061030e57506301ffc9a760e01b6001600160e01b031983161461030e565b61036c610706565b61037581610760565b50565b6060600280546103879061177c565b80601f01602080910402602001604051908101604052809291908181526020018280546103b39061177c565b80156104005780601f106103d557610100808354040283529160200191610400565b820191906000526020600020905b8154815290600101906020018083116103e357829003601f168201915b50505050509050919050565b6104273383836040518060200160405280600081525061076c565b5050565b6001600160a01b03851633148061044757506104478533610214565b6104635760405162461bcd60e51b81526004016102e2906117b6565b6104708585858585610880565b5050505050565b606081518351146104dc5760405162461bcd60e51b815260206004820152602960248201527f455243313135353a206163636f756e747320616e6420696473206c656e677468604482015268040dad2e6dac2e8c6d60bb1b60648201526084016102e2565b6000835167ffffffffffffffff8111156104f8576104f86111e8565b604051908082528060200260200182016040528015610521578160200160208202803683370190505b50905060005b84518110156105995761056c85828151811061054557610545611804565b602002602001015185838151811061055f5761055f611804565b602002602001015161027b565b82828151811061057e5761057e611804565b602090810291909101015261059281611830565b9050610527565b509392505050565b6001600160a01b0383163314806105bd57506105bd8333610214565b6105d95760405162461bcd60e51b81526004016102e2906117b6565b6105e4838383610a1c565b505050565b6105f1610706565b6105fb6000610ba7565b565b610427338383610bf9565b6001600160a01b03851633148061062457506106248533610214565b6106405760405162461bcd60e51b81526004016102e2906117b6565b6104708585858585610cd9565b610655610706565b6001600160a01b0381166106ba5760405162461bcd60e51b815260206004820152602660248201527f4f776e61626c653a206e6577206f776e657220697320746865207a65726f206160448201526564647265737360d01b60648201526084016102e2565b61037581610ba7565b6001600160a01b0383163314806106df57506106df8333610214565b6106fb5760405162461bcd60e51b81526004016102e2906117b6565b6105e4838383610e03565b6003546001600160a01b031633146105fb5760405162461bcd60e51b815260206004820181905260248201527f4f776e61626c653a2063616c6c6572206973206e6f7420746865206f776e657260448201526064016102e2565b6002610427828261188f565b6001600160a01b0384166107cc5760405162461bcd60e51b815260206004820152602160248201527f455243313135353a206d696e7420746f20746865207a65726f206164647265736044820152607360f81b60648201526084016102e2565b3360006107d885610f07565b905060006107e585610f07565b90506000868152602081815260408083206001600160a01b038b1684529091528120805487929061081790849061194f565b909155505060408051878152602081018790526001600160a01b03808a1692600092918716917fc3d58168c5ae7397731d063d5bbf3d657854427343f4c083240f7aacaa2d0f62910160405180910390a461087783600089898989610f52565b50505050505050565b81518351146108a15760405162461bcd60e51b81526004016102e290611962565b6001600160a01b0384166108c75760405162461bcd60e51b81526004016102e2906119aa565b3360005b84518110156109ae5760008582815181106108e8576108e8611804565b60200260200101519050600085838151811061090657610906611804565b602090810291909101810151600084815280835260408082206001600160a01b038e1683529093529190912054909150818110156109565760405162461bcd60e51b81526004016102e2906119ef565b6000838152602081815260408083206001600160a01b038e8116855292528083208585039055908b1682528120805484929061099390849061194f565b92505081905550505050806109a790611830565b90506108cb565b50846001600160a01b0316866001600160a01b0316826001600160a01b03167f4a39dc06d4c0dbc64b70af90fd698a233a518aa5d07e595d983b8c0526c8f7fb87876040516109fe929190611a39565b60405180910390a4610a148187878787876110ad565b505050505050565b6001600160a01b038316610a425760405162461bcd60e51b81526004016102e290611a67565b8051825114610a635760405162461bcd60e51b81526004016102e290611962565b604080516020810190915260009081905233905b8351811015610b39576000848281518110610a9457610a94611804565b602002602001015190506000848381518110610ab257610ab2611804565b602090810291909101810151600084815280835260408082206001600160a01b038c168352909352919091205490915081811015610b025760405162461bcd60e51b81526004016102e290611aaa565b6000928352602083815260408085206001600160a01b038b1686529091529092209103905580610b3181611830565b915050610a77565b5060006001600160a01b0316846001600160a01b0316826001600160a01b03167f4a39dc06d4c0dbc64b70af90fd698a233a518aa5d07e595d983b8c0526c8f7fb8686604051610b8a929190611a39565b60405180910390a460408051602081019091526000905250505050565b600380546001600160a01b038381166001600160a01b0319831681179093556040519116919082907f8be0079c531659141344cd1fd0a4f28419497f9722a3daafe3b4186f6b6457e090600090a35050565b816001600160a01b0316836001600160a01b031603610c6c5760405162461bcd60e51b815260206004820152602960248201527f455243313135353a2073657474696e6720617070726f76616c20737461747573604482015268103337b91039b2b63360b91b60648201526084016102e2565b6001600160a01b03838116600081815260016020908152604080832094871680845294825291829020805460ff191686151590811790915591519182527f17307eab39ab6107e8899845ad3d59bd9653f200f220920489ca2b5937696c31910160405180910390a3505050565b6001600160a01b038416610cff5760405162461bcd60e51b81526004016102e2906119aa565b336000610d0b85610f07565b90506000610d1885610f07565b90506000868152602081815260408083206001600160a01b038c16845290915290205485811015610d5b5760405162461bcd60e51b81526004016102e2906119ef565b6000878152602081815260408083206001600160a01b038d8116855292528083208985039055908a16825281208054889290610d9890849061194f565b909155505060408051888152602081018890526001600160a01b03808b16928c821692918816917fc3d58168c5ae7397731d063d5bbf3d657854427343f4c083240f7aacaa2d0f62910160405180910390a4610df8848a8a8a8a8a610f52565b505050505050505050565b6001600160a01b038316610e295760405162461bcd60e51b81526004016102e290611a67565b336000610e3584610f07565b90506000610e4284610f07565b60408051602080820183526000918290528882528181528282206001600160a01b038b1683529052205490915084811015610e8f5760405162461bcd60e51b81526004016102e290611aaa565b6000868152602081815260408083206001600160a01b038b81168086529184528285208a8703905582518b81529384018a90529092908816917fc3d58168c5ae7397731d063d5bbf3d657854427343f4c083240f7aacaa2d0f62910160405180910390a4604080516020810190915260009052610877565b60408051600180825281830190925260609160009190602080830190803683370190505090508281600081518110610f4157610f41611804565b602090810291909101015292915050565b6001600160a01b0384163b15610a145760405163f23a6e6160e01b81526001600160a01b0385169063f23a6e6190610f969089908990889088908890600401611aee565b6020604051808303816000875af1925050508015610fd1575060408051601f3d908101601f19168201909252610fce91810190611b33565b60015b61107d57610fdd611b50565b806308c379a0036110165750610ff1611b6c565b80610ffc5750611018565b8060405162461bcd60e51b81526004016102e29190611339565b505b60405162461bcd60e51b815260206004820152603460248201527f455243313135353a207472616e7366657220746f206e6f6e2d455243313135356044820152732932b1b2b4bb32b91034b6b83632b6b2b73a32b960611b60648201526084016102e2565b6001600160e01b0319811663f23a6e6160e01b146108775760405162461bcd60e51b81526004016102e290611bf6565b6001600160a01b0384163b15610a145760405163bc197c8160e01b81526001600160a01b0385169063bc197c81906110f19089908990889088908890600401611c3e565b6020604051808303816000875af192505050801561112c575060408051601f3d908101601f1916820190925261112991810190611b33565b60015b61113857610fdd611b50565b6001600160e01b0319811663bc197c8160e01b146108775760405162461bcd60e51b81526004016102e290611bf6565b80356001600160a01b038116811461117f57600080fd5b919050565b6000806040838503121561119757600080fd5b6111a083611168565b946020939093013593505050565b6001600160e01b03198116811461037557600080fd5b6000602082840312156111d657600080fd5b81356111e1816111ae565b9392505050565b634e487b7160e01b600052604160045260246000fd5b601f8201601f1916810167ffffffffffffffff81118282101715611224576112246111e8565b6040525050565b600067ffffffffffffffff831115611245576112456111e8565b60405161125c601f8501601f1916602001826111fe565b80915083815284848401111561127157600080fd5b83836020830137600060208583010152509392505050565b60006020828403121561129b57600080fd5b813567ffffffffffffffff8111156112b257600080fd5b8201601f810184136112c357600080fd5b6112d28482356020840161122b565b949350505050565b6000602082840312156112ec57600080fd5b5035919050565b6000815180845260005b81811015611319576020818501810151868301820152016112fd565b506000602082860101526020601f19601f83011685010191505092915050565b6020815260006111e160208301846112f3565b6000806040838503121561135f57600080fd5b50508035926020909101359150565b600067ffffffffffffffff821115611388576113886111e8565b5060051b60200190565b600082601f8301126113a357600080fd5b813560206113b08261136e565b6040516113bd82826111fe565b83815260059390931b85018201928281019150868411156113dd57600080fd5b8286015b848110156113f857803583529183019183016113e1565b509695505050505050565b600082601f83011261141457600080fd5b6111e18383356020850161122b565b600080600080600060a0868803121561143b57600080fd5b61144486611168565b945061145260208701611168565b9350604086013567ffffffffffffffff8082111561146f57600080fd5b61147b89838a01611392565b9450606088013591508082111561149157600080fd5b61149d89838a01611392565b935060808801359150808211156114b357600080fd5b506114c088828901611403565b9150509295509295909350565b600080604083850312156114e057600080fd5b823567ffffffffffffffff808211156114f857600080fd5b818501915085601f83011261150c57600080fd5b813560206115198261136e565b60405161152682826111fe565b83815260059390931b850182019282810191508984111561154657600080fd5b948201945b8386101561156b5761155c86611168565b8252948201949082019061154b565b9650508601359250508082111561158157600080fd5b5061158e85828601611392565b9150509250929050565b600081518084526020808501945080840160005b838110156115c8578151875295820195908201906001016115ac565b509495945050505050565b6020815260006111e16020830184611598565b6000806000606084860312156115fb57600080fd5b61160484611168565b9250602084013567ffffffffffffffff8082111561162157600080fd5b61162d87838801611392565b9350604086013591508082111561164357600080fd5b5061165086828701611392565b9150509250925092565b6000806040838503121561166d57600080fd5b61167683611168565b91506020830135801515811461168b57600080fd5b809150509250929050565b600080604083850312156116a957600080fd5b6116b283611168565b91506116c060208401611168565b90509250929050565b600080600080600060a086880312156116e157600080fd5b6116ea86611168565b94506116f860208701611168565b93506040860135925060608601359150608086013567ffffffffffffffff81111561172257600080fd5b6114c088828901611403565b60006020828403121561174057600080fd5b6111e182611168565b60008060006060848603121561175e57600080fd5b61176784611168565b95602085013595506040909401359392505050565b600181811c9082168061179057607f821691505b6020821081036117b057634e487b7160e01b600052602260045260246000fd5b50919050565b6020808252602e908201527f455243313135353a2063616c6c6572206973206e6f7420746f6b656e206f776e60408201526d195c881bdc88185c1c1c9bdd995960921b606082015260800190565b634e487b7160e01b600052603260045260246000fd5b634e487b7160e01b600052601160045260246000fd5b6000600182016118425761184261181a565b5060010190565b601f8211156105e457600081815260208120601f850160051c810160208610156118705750805b601f850160051c820191505b81811015610a145782815560010161187c565b815167ffffffffffffffff8111156118a9576118a96111e8565b6118bd816118b7845461177c565b84611849565b602080601f8311600181146118f257600084156118da5750858301515b600019600386901b1c1916600185901b178555610a14565b600085815260208120601f198616915b8281101561192157888601518255948401946001909101908401611902565b508582101561193f5787850151600019600388901b60f8161c191681555b5050505050600190811b01905550565b8082018082111561030e5761030e61181a565b60208082526028908201527f455243313135353a2069647320616e6420616d6f756e7473206c656e677468206040820152670dad2e6dac2e8c6d60c31b606082015260800190565b60208082526025908201527f455243313135353a207472616e7366657220746f20746865207a65726f206164604082015264647265737360d81b606082015260800190565b6020808252602a908201527f455243313135353a20696e73756666696369656e742062616c616e636520666f60408201526939103a3930b739b332b960b11b606082015260800190565b604081526000611a4c6040830185611598565b8281036020840152611a5e8185611598565b95945050505050565b60208082526023908201527f455243313135353a206275726e2066726f6d20746865207a65726f206164647260408201526265737360e81b606082015260800190565b60208082526024908201527f455243313135353a206275726e20616d6f756e7420657863656564732062616c604082015263616e636560e01b606082015260800190565b6001600160a01b03868116825285166020820152604081018490526060810183905260a060808201819052600090611b28908301846112f3565b979650505050505050565b600060208284031215611b4557600080fd5b81516111e1816111ae565b600060033d1115611b695760046000803e5060005160e01c5b90565b600060443d1015611b7a5790565b6040516003193d81016004833e81513d67ffffffffffffffff8160248401118184111715611baa57505050505090565b8285019150815181811115611bc25750505050505090565b843d8701016020828501011115611bdc5750505050505090565b611beb602082860101876111fe565b509095945050505050565b60208082526028908201527f455243313135353a204552433131353552656365697665722072656a656374656040820152676420746f6b656e7360c01b606082015260800190565b6001600160a01b0386811682528516602082015260a060408201819052600090611c6a90830186611598565b8281036060840152611c7c8186611598565b90508281036080840152611c9081856112f3565b9897505050505050505056fea264697066735822122053139a3c1f5113179205094dc8f4ca18b0947d9b6e74e3065ab2c405c12ad05264736f6c63430008110033",
    "linkReferences": {}
  },
  "methodIdentifiers": {
    "balanceOf(address,uint256)": "00fdd58e",
    "balanceOfBatch(address[],uint256[])": "4e1273f4",
    "burn(address,uint256,uint256)": "f5298aca",
    "burnBatch(address,uint256[],uint256[])": "6b20c454",
    "isApprovedForAll(address,address)": "e985e9c5",
    "mint(uint256,uint256)": "1b2ef1ca",
    "owner()": "8da5cb5b",
    "renounceOwnership()": "715018a6",
    "safeBatchTransferFrom(address,address,uint256[],uint256[],bytes)": "2eb2c2d6",
    "safeTransferFrom(address,address,uint256,uint256,bytes)": "f242432a",
    "setApprovalForAll(address,bool)": "a22cb465",
    "setURI(string)": "02fe5305",
    "supportsInterface(bytes4)": "01ffc9a7",
    "transferOwnership(address)": "f2fde38b",
    "uri(uint256)": "0e89341c"
  },
  "id": 43
}