{
  "abi": [
    {
      "inputs": [
        {
          "internalType": "string",
          "name": "_name",
          "type": "string"
        },
        {
          "internalType": "string",
          "name": "_symbol",
          "type": "string"
        },
        {
          "internalType": "address",
          "name": "_lzEndpoint",
          "type": "address"
        }
      ],
      "stateMutability": "nonpayable",
      "type": "constructor"
    },
    {
      "anonymous": false,
      "inputs": [
        {
          "indexed": true,
          "internalType": "address",
          "name": "owner",
          "type": "address"
        },
        {
          "indexed": true,
          "internalType": "address",
          "name": "spender",
          "type": "address"
        },
        {
          "indexed": false,
          "internalType": "uint256",
          "name": "value",
          "type": "uint256"
        }
      ],
      "name": "Approval",
      "type": "event"
    },
    {
      "anonymous": false,
      "inputs": [
        {
          "indexed": false,
          "internalType": "uint16",
          "name": "_srcChainId",
          "type": "uint16"
        },
        {
          "indexed": false,
          "internalType": "bytes",
          "name": "_srcAddress",
          "type": "bytes"
        },
        {
          "indexed": false,
          "internalType": "uint64",
          "name": "_nonce",
          "type": "uint64"
        },
        {
          "indexed": false,
          "internalType": "bytes",
          "name": "_payload",
          "type": "bytes"
        }
      ],
      "name": "MessageFailed",
      "type": "event"
    },
    {
      "anonymous": false,
      "inputs": [
        {
          "indexed": true,
          "internalType": "address",
          "name": "previousOwner",
          "type": "address"
        },
        {
          "indexed": true,
          "internalType": "address",
          "name": "newOwner",
          "type": "address"
        }
      ],
      "name": "OwnershipTransferred",
      "type": "event"
    },
    {
      "anonymous": false,
      "inputs": [
        {
          "indexed": false,
          "internalType": "address",
          "name": "account",
          "type": "address"
        }
      ],
      "name": "Paused",
      "type": "event"
    },
    {
      "anonymous": false,
      "inputs": [
        {
          "indexed": true,
          "internalType": "uint16",
          "name": "_srcChainId",
          "type": "uint16"
        },
        {
          "indexed": true,
          "internalType": "bytes",
          "name": "_srcAddress",
          "type": "bytes"
        },
        {
          "indexed": true,
          "internalType": "address",
          "name": "_toAddress",
          "type": "address"
        },
        {
          "indexed": false,
          "internalType": "uint256",
          "name": "_amount",
          "type": "uint256"
        },
        {
          "indexed": false,
          "internalType": "uint64",
          "name": "_nonce",
          "type": "uint64"
        }
      ],
      "name": "ReceiveFromChain",
      "type": "event"
    },
    {
      "anonymous": false,
      "inputs": [
        {
          "indexed": true,
          "internalType": "address",
          "name": "_sender",
          "type": "address"
        },
        {
          "indexed": true,
          "internalType": "uint16",
          "name": "_dstChainId",
          "type": "uint16"
        },
        {
          "indexed": true,
          "internalType": "bytes",
          "name": "_toAddress",
          "type": "bytes"
        },
        {
          "indexed": false,
          "internalType": "uint256",
          "name": "_amount",
          "type": "uint256"
        },
        {
          "indexed": false,
          "internalType": "uint64",
          "name": "_nonce",
          "type": "uint64"
        }
      ],
      "name": "SendToChain",
      "type": "event"
    },
    {
      "anonymous": false,
      "inputs": [
        {
          "indexed": false,
          "internalType": "uint16",
          "name": "_dstChainId",
          "type": "uint16"
        },
        {
          "indexed": false,
          "internalType": "uint16",
          "name": "_type",
          "type": "uint16"
        },
        {
          "indexed": false,
          "internalType": "uint256",
          "name": "_minDstGas",
          "type": "uint256"
        }
      ],
      "name": "SetMinDstGas",
      "type": "event"
    },
    {
      "anonymous": false,
      "inputs": [
        {
          "indexed": false,
          "internalType": "address",
          "name": "precrime",
          "type": "address"
        }
      ],
      "name": "SetPrecrime",
      "type": "event"
    },
    {
      "anonymous": false,
      "inputs": [
        {
          "indexed": false,
          "internalType": "uint16",
          "name": "_remoteChainId",
          "type": "uint16"
        },
        {
          "indexed": false,
          "internalType": "bytes",
          "name": "_path",
          "type": "bytes"
        }
      ],
      "name": "SetTrustedRemote",
      "type": "event"
    },
    {
      "anonymous": false,
      "inputs": [
        {
          "indexed": false,
          "internalType": "uint16",
          "name": "_remoteChainId",
          "type": "uint16"
        },
        {
          "indexed": false,
          "internalType": "bytes",
          "name": "_remoteAddress",
          "type": "bytes"
        }
      ],
      "name": "SetTrustedRemoteAddress",
      "type": "event"
    },
    {
      "anonymous": false,
      "inputs": [
        {
          "indexed": true,
          "internalType": "address",
          "name": "from",
          "type": "address"
        },
        {
          "indexed": true,
          "internalType": "address",
          "name": "to",
          "type": "address"
        },
        {
          "indexed": false,
          "internalType": "uint256",
          "name": "value",
          "type": "uint256"
        }
      ],
      "name": "Transfer",
      "type": "event"
    },
    {
      "anonymous": false,
      "inputs": [
        {
          "indexed": false,
          "internalType": "address",
          "name": "account",
          "type": "address"
        }
      ],
      "name": "Unpaused",
      "type": "event"
    },
    {
      "inputs": [
        {
          "internalType": "address",
          "name": "owner",
          "type": "address"
        },
        {
          "internalType": "address",
          "name": "spender",
          "type": "address"
        }
      ],
      "name": "allowance",
      "outputs": [
        {
          "internalType": "uint256",
          "name": "",
          "type": "uint256"
        }
      ],
      "stateMutability": "view",
      "type": "function"
    },
    {
      "inputs": [
        {
          "internalType": "address",
          "name": "spender",
          "type": "address"
        },
        {
          "internalType": "uint256",
          "name": "amount",
          "type": "uint256"
        }
      ],
      "name": "approve",
      "outputs": [
        {
          "internalType": "bool",
          "name": "",
          "type": "bool"
        }
      ],
      "stateMutability": "nonpayable",
      "type": "function"
    },
    {
      "inputs": [
        {
          "internalType": "address",
          "name": "account",
          "type": "address"
        }
      ],
      "name": "balanceOf",
      "outputs": [
        {
          "internalType": "uint256",
          "name": "",
          "type": "uint256"
        }
      ],
      "stateMutability": "view",
      "type": "function"
    },
    {
      "inputs": [],
      "name": "circulatingSupply",
      "outputs": [
        {
          "internalType": "uint256",
          "name": "",
          "type": "uint256"
        }
      ],
      "stateMutability": "view",
      "type": "function"
    },
    {
      "inputs": [],
      "name": "decimals",
      "outputs": [
        {
          "internalType": "uint8",
          "name": "",
          "type": "uint8"
        }
      ],
      "stateMutability": "view",
      "type": "function"
    },
    {
      "inputs": [
        {
          "internalType": "address",
          "name": "spender",
          "type": "address"
        },
        {
          "internalType": "uint256",
          "name": "subtractedValue",
          "type": "uint256"
        }
      ],
      "name": "decreaseAllowance",
      "outputs": [
        {
          "internalType": "bool",
          "name": "",
          "type": "bool"
        }
      ],
      "stateMutability": "nonpayable",
      "type": "function"
    },
    {
      "inputs": [
        {
          "internalType": "uint16",
          "name": "_dstChainId",
          "type": "uint16"
        },
        {
          "internalType": "bytes",
          "name": "_toAddress",
          "type": "bytes"
        },
        {
          "internalType": "uint256",
          "name": "_amount",
          "type": "uint256"
        },
        {
          "internalType": "bool",
          "name": "_useZro",
          "type": "bool"
        },
        {
          "internalType": "bytes",
          "name": "_adapterParams",
          "type": "bytes"
        },
        {
          "internalType": "bytes",
          "name": "_payload",
          "type": "bytes"
        }
      ],
      "name": "estimateSendFee",
      "outputs": [
        {
          "internalType": "uint256",
          "name": "nativeFee",
          "type": "uint256"
        },
        {
          "internalType": "uint256",
          "name": "zroFee",
          "type": "uint256"
        }
      ],
      "stateMutability": "view",
      "type": "function"
    },
    {
      "inputs": [
        {
          "internalType": "uint16",
          "name": "",
          "type": "uint16"
        },
        {
          "internalType": "bytes",
          "name": "",
          "type": "bytes"
        },
        {
          "internalType": "uint256",
          "name": "",
          "type": "uint256"
        }
      ],
      "name": "failedMessages",
      "outputs": [
        {
          "internalType": "bytes32",
          "name": "",
          "type": "bytes32"
        }
      ],
      "stateMutability": "view",
      "type": "function"
    },
    {
      "inputs": [
        {
          "internalType": "uint16",
          "name": "_srcChainId",
          "type": "uint16"
        },
        {
          "internalType": "bytes",
          "name": "_srcAddress",
          "type": "bytes"
        }
      ],
      "name": "forceResumeReceive",
      "outputs": [],
      "stateMutability": "nonpayable",
      "type": "function"
    },
    {
      "inputs": [
        {
          "internalType": "uint16",
          "name": "_version",
          "type": "uint16"
        },
        {
          "internalType": "uint16",
          "name": "_chainId",
          "type": "uint16"
        },
        {
          "internalType": "address",
          "name": "",
          "type": "address"
        },
        {
          "internalType": "uint256",
          "name": "_configType",
          "type": "uint256"
        }
      ],
      "name": "getConfig",
      "outputs": [
        {
          "internalType": "bytes",
          "name": "",
          "type": "bytes"
        }
      ],
      "stateMutability": "view",
      "type": "function"
    },
    {
      "inputs": [
        {
          "internalType": "uint16",
          "name": "_remoteChainId",
          "type": "uint16"
        }
      ],
      "name": "getTrustedRemoteAddress",
      "outputs": [
        {
          "internalType": "bytes",
          "name": "",
          "type": "bytes"
        }
      ],
      "stateMutability": "view",
      "type": "function"
    },
    {
      "inputs": [
        {
          "internalType": "address",
          "name": "spender",
          "type": "address"
        },
        {
          "internalType": "uint256",
          "name": "addedValue",
          "type": "uint256"
        }
      ],
      "name": "increaseAllowance",
      "outputs": [
        {
          "internalType": "bool",
          "name": "",
          "type": "bool"
        }
      ],
      "stateMutability": "nonpayable",
      "type": "function"
    },
    {
      "inputs": [
        {
          "internalType": "uint16",
          "name": "_srcChainId",
          "type": "uint16"
        },
        {
          "internalType": "bytes",
          "name": "_srcAddress",
          "type": "bytes"
        }
      ],
      "name": "isTrustedRemote",
      "outputs": [
        {
          "internalType": "bool",
          "name": "",
          "type": "bool"
        }
      ],
      "stateMutability": "view",
      "type": "function"
    },
    {
      "inputs": [],
      "name": "lzEndpoint",
      "outputs": [
        {
          "internalType": "contract ILayerZeroEndpoint",
          "name": "",
          "type": "address"
        }
      ],
      "stateMutability": "view",
      "type": "function"
    },
    {
      "inputs": [
        {
          "internalType": "uint16",
          "name": "_srcChainId",
          "type": "uint16"
        },
        {
          "internalType": "bytes",
          "name": "_srcAddress",
          "type": "bytes"
        },
        {
          "internalType": "uint64",
          "name": "_nonce",
          "type": "uint64"
        },
        {
          "internalType": "bytes",
          "name": "_payload",
          "type": "bytes"
        }
      ],
      "name": "lzReceive",
      "outputs": [],
      "stateMutability": "nonpayable",
      "type": "function"
    },
    {
      "inputs": [
        {
          "internalType": "uint16",
          "name": "",
          "type": "uint16"
        },
        {
          "internalType": "uint16",
          "name": "",
          "type": "uint16"
        }
      ],
      "name": "minDstGasLookup",
      "outputs": [
        {
          "internalType": "uint256",
          "name": "",
          "type": "uint256"
        }
      ],
      "stateMutability": "view",
      "type": "function"
    },
    {
      "inputs": [],
      "name": "name",
      "outputs": [
        {
          "internalType": "string",
          "name": "",
          "type": "string"
        }
      ],
      "stateMutability": "view",
      "type": "function"
    },
    {
      "inputs": [
        {
          "internalType": "uint16",
          "name": "_srcChainId",
          "type": "uint16"
        },
        {
          "internalType": "bytes",
          "name": "_srcAddress",
          "type": "bytes"
        },
        {
          "internalType": "uint64",
          "name": "_nonce",
          "type": "uint64"
        },
        {
          "internalType": "bytes",
          "name": "_payload",
          "type": "bytes"
        }
      ],
      "name": "nonblockingLzReceive",
      "outputs": [],
      "stateMutability": "nonpayable",
      "type": "function"
    },
    {
      "inputs": [],
      "name": "owner",
      "outputs": [
        {
          "internalType": "address",
          "name": "",
          "type": "address"
        }
      ],
      "stateMutability": "view",
      "type": "function"
    },
    {
      "inputs": [
        {
          "internalType": "bool",
          "name": "pause",
          "type": "bool"
        }
      ],
      "name": "pauseSendTokens",
      "outputs": [],
      "stateMutability": "nonpayable",
      "type": "function"
    },
    {
      "inputs": [],
      "name": "paused",
      "outputs": [
        {
          "internalType": "bool",
          "name": "",
          "type": "bool"
        }
      ],
      "stateMutability": "view",
      "type": "function"
    },
    {
      "inputs": [],
      "name": "precrime",
      "outputs": [
        {
          "internalType": "address",
          "name": "",
          "type": "address"
        }
      ],
      "stateMutability": "view",
      "type": "function"
    },
    {
      "inputs": [],
      "name": "renounceOwnership",
      "outputs": [],
      "stateMutability": "nonpayable",
      "type": "function"
    },
    {
      "inputs": [
        {
          "internalType": "uint16",
          "name": "_srcChainId",
          "type": "uint16"
        },
        {
          "internalType": "bytes",
          "name": "_srcAddress",
          "type": "bytes"
        },
        {
          "internalType": "uint64",
          "name": "_nonce",
          "type": "uint64"
        },
        {
          "internalType": "bytes",
          "name": "_payload",
          "type": "bytes"
        }
      ],
      "name": "retryMessage",
      "outputs": [],
      "stateMutability": "payable",
      "type": "function"
    },
    {
      "inputs": [
        {
          "internalType": "address",
          "name": "_from",
          "type": "address"
        },
        {
          "internalType": "uint16",
          "name": "_dstChainId",
          "type": "uint16"
        },
        {
          "internalType": "bytes",
          "name": "_toAddress",
          "type": "bytes"
        },
        {
          "internalType": "uint256",
          "name": "_amount",
          "type": "uint256"
        },
        {
          "internalType": "address payable",
          "name": "_refundAddress",
          "type": "address"
        },
        {
          "internalType": "address",
          "name": "_zroPaymentAddress",
          "type": "address"
        },
        {
          "internalType": "bytes",
          "name": "_adapterParams",
          "type": "bytes"
        },
        {
          "internalType": "bytes",
          "name": "_payload",
          "type": "bytes"
        }
      ],
      "name": "sendFrom",
      "outputs": [],
      "stateMutability": "payable",
      "type": "function"
    },
    {
      "inputs": [
        {
          "internalType": "uint16",
          "name": "_version",
          "type": "uint16"
        },
        {
          "internalType": "uint16",
          "name": "_chainId",
          "type": "uint16"
        },
        {
          "internalType": "uint256",
          "name": "_configType",
          "type": "uint256"
        },
        {
          "internalType": "bytes",
          "name": "_config",
          "type": "bytes"
        }
      ],
      "name": "setConfig",
      "outputs": [],
      "stateMutability": "nonpayable",
      "type": "function"
    },
    {
      "inputs": [
        {
          "internalType": "uint16",
          "name": "_dstChainId",
          "type": "uint16"
        },
        {
          "internalType": "uint16",
          "name": "_packetType",
          "type": "uint16"
        },
        {
          "internalType": "uint256",
          "name": "_minGas",
          "type": "uint256"
        }
      ],
      "name": "setMinDstGas",
      "outputs": [],
      "stateMutability": "nonpayable",
      "type": "function"
    },
    {
      "inputs": [
        {
          "internalType": "address",
          "name": "_precrime",
          "type": "address"
        }
      ],
      "name": "setPrecrime",
      "outputs": [],
      "stateMutability": "nonpayable",
      "type": "function"
    },
    {
      "inputs": [
        {
          "internalType": "uint16",
          "name": "_version",
          "type": "uint16"
        }
      ],
      "name": "setReceiveVersion",
      "outputs": [],
      "stateMutability": "nonpayable",
      "type": "function"
    },
    {
      "inputs": [
        {
          "internalType": "uint16",
          "name": "_version",
          "type": "uint16"
        }
      ],
      "name": "setSendVersion",
      "outputs": [],
      "stateMutability": "nonpayable",
      "type": "function"
    },
    {
      "inputs": [
        {
          "internalType": "uint16",
          "name": "_srcChainId",
          "type": "uint16"
        },
        {
          "internalType": "bytes",
          "name": "_path",
          "type": "bytes"
        }
      ],
      "name": "setTrustedRemote",
      "outputs": [],
      "stateMutability": "nonpayable",
      "type": "function"
    },
    {
      "inputs": [
        {
          "internalType": "uint16",
          "name": "_remoteChainId",
          "type": "uint16"
        },
        {
          "internalType": "bytes",
          "name": "_remoteAddress",
          "type": "bytes"
        }
      ],
      "name": "setTrustedRemoteAddress",
      "outputs": [],
      "stateMutability": "nonpayable",
      "type": "function"
    },
    {
      "inputs": [
        {
          "internalType": "bytes4",
          "name": "interfaceId",
          "type": "bytes4"
        }
      ],
      "name": "supportsInterface",
      "outputs": [
        {
          "internalType": "bool",
          "name": "",
          "type": "bool"
        }
      ],
      "stateMutability": "view",
      "type": "function"
    },
    {
      "inputs": [],
      "name": "symbol",
      "outputs": [
        {
          "internalType": "string",
          "name": "",
          "type": "string"
        }
      ],
      "stateMutability": "view",
      "type": "function"
    },
    {
      "inputs": [],
      "name": "totalSupply",
      "outputs": [
        {
          "internalType": "uint256",
          "name": "",
          "type": "uint256"
        }
      ],
      "stateMutability": "view",
      "type": "function"
    },
    {
      "inputs": [
        {
          "internalType": "address",
          "name": "to",
          "type": "address"
        },
        {
          "internalType": "uint256",
          "name": "amount",
          "type": "uint256"
        }
      ],
      "name": "transfer",
      "outputs": [
        {
          "internalType": "bool",
          "name": "",
          "type": "bool"
        }
      ],
      "stateMutability": "nonpayable",
      "type": "function"
    },
    {
      "inputs": [
        {
          "internalType": "address",
          "name": "from",
          "type": "address"
        },
        {
          "internalType": "address",
          "name": "to",
          "type": "address"
        },
        {
          "internalType": "uint256",
          "name": "amount",
          "type": "uint256"
        }
      ],
      "name": "transferFrom",
      "outputs": [
        {
          "internalType": "bool",
          "name": "",
          "type": "bool"
        }
      ],
      "stateMutability": "nonpayable",
      "type": "function"
    },
    {
      "inputs": [
        {
          "internalType": "address",
          "name": "newOwner",
          "type": "address"
        }
      ],
      "name": "transferOwnership",
      "outputs": [],
      "stateMutability": "nonpayable",
      "type": "function"
    },
    {
      "inputs": [
        {
          "internalType": "uint16",
          "name": "",
          "type": "uint16"
        }
      ],
      "name": "trustedRemoteLookup",
      "outputs": [
        {
          "internalType": "bytes",
          "name": "",
          "type": "bytes"
        }
      ],
      "stateMutability": "view",
      "type": "function"
    }
  ],
  "bytecode": {
    "object": "0x60a060405234620003bc576200318c803803806200001d81620003c1565b928339810190606081830312620003bc5780516001600160401b039190828111620003bc578362000050918301620003fd565b9060209384820151848111620003bc5760409162000070918401620003fd565b9101516001600160a01b03919082811690819003620003bc5760008054336001600160a01b03198216811783559194167f8be0079c531659141344cd1fd0a4f28419497f9722a3daafe3b4186f6b6457e08580a3608052825191848311620002c357600854926001948585811c95168015620003b1575b888610146200039d578190601f9586811162000349575b508890868311600114620002e3578492620002d7575b5050600019600383901b1c191690851b176008555b8151948511620002c3576009548481811c91168015620002b8575b87821014620002a4578381116200025b575b5085928511600114620001f2579394508492919083620001e6575b50501b916000199060031b1c1916176009555b60ff19600a5416600a55604051612d1c90816200047082396080518181816103e4015281816106e50152818161094401528181610b460152818161152f0152818161163d01528181611c70015281816122630152818161237401526125700152f35b01519250388062000171565b6009815285812093958591601f198316915b8883831062000240575050501062000226575b505050811b0160095562000184565b015160001960f88460031b161c1916905538808062000217565b85870151885590960195948501948793509081019062000204565b600982528682208480880160051c8201928989106200029a575b0160051c019085905b8281106200028e57505062000156565b8381550185906200027e565b9250819262000275565b634e487b7160e01b82526022600452602482fd5b90607f169062000144565b634e487b7160e01b81526041600452602490fd5b01519050388062000114565b600885528985208894509190601f198416865b8c82821062000332575050841162000318575b505050811b0160085562000129565b015160001960f88460031b161c1916905538808062000309565b8385015186558b97909501949384019301620002f6565b909150600884528884208680850160051c8201928b861062000393575b918991869594930160051c01915b82811062000384575050620000fe565b86815585945089910162000374565b9250819262000366565b634e487b7160e01b83526022600452602483fd5b94607f1694620000e7565b600080fd5b6040519190601f01601f191682016001600160401b03811183821017620003e757604052565b634e487b7160e01b600052604160045260246000fd5b919080601f84011215620003bc5782516001600160401b038111620003e75760209062000433601f8201601f19168301620003c1565b92818452828287010111620003bc5760005b8181106200045b57508260009394955001015290565b85810183015184820184015282016200044556fe60806040526004361015610013575b600080fd5b60003560e01c80621d35671461031557806301ffc9a71461030c57806306fdde031461030357806307e0db17146102fa578063095ea7b3146102f15780630e506192146102e857806310ddb137146102df57806318160ddd1461025857806323b872dd146102d6578063313ce567146102cd57806339509351146102c45780633d8b38f6146102bb57806342d65a8d146102b25780635c975abb146102a957806366ad5c8a146102a05780636f7707901461029757806370a082311461028e578063715018a6146102855780637533d7881461027c5780638cfd8f5c146102735780638da5cb5b1461026a5780638ee74912146102615780639358928b14610258578063950c8a741461024f57806395d89b41146102465780639f38369a1461023d578063a457c2d714610234578063a6c3d1651461022b578063a9059cbb14610222578063b353aaa714610219578063baf3292d14610210578063cbed8b9c14610207578063d1deba1f146101fe578063dd62ed3e146101f5578063df2a5b3b146101ec578063eb8d72b7146101e3578063f1878922146101da578063f2fde38b146101d15763f5ecbdbc146101c957600080fd5b61000e611c0a565b5061000e611b6f565b5061000e611ab8565b5061000e611953565b5061000e61185b565b5061000e611800565b5061000e6116d9565b5061000e6115dc565b5061000e61155e565b5061000e611518565b5061000e6114ed565b5061000e61134f565b5061000e611290565b5061000e6111f0565b5061000e611148565b5061000e61111e565b5061000e61099b565b5061000e611086565b5061000e611036565b5061000e610fe2565b5061000e610f8e565b5061000e610e41565b5061000e610e03565b5061000e610d6f565b5061000e610bca565b5061000e610ba6565b5061000e610b19565b5061000e610abc565b5061000e610a18565b5061000e6109fb565b5061000e6109ba565b5061000e610910565b5061000e610875565b5061000e61076b565b5061000e6106b1565b5061000e6105cb565b5061000e6104e3565b5061000e61037e565b6004359061ffff8216820361000e57565b6024359061ffff8216820361000e57565b9181601f8401121561000e578235916001600160401b03831161000e576020838186019501011161000e57565b6001600160401b0381160361000e57565b503461000e57608036600319011261000e5761039861031e565b6001600160401b039060243582811161000e576103b9903690600401610340565b9290604435916103c88361036d565b60643590811161000e576103e0903690600401610340565b91907f00000000000000000000000000000000000000000000000000000000000000006001600160a01b0316330361049e576104616104699261046f9761045a61044061043b8a61ffff166000526001602052604060002090565b610f71565b8051908184149182610494575b5081610471575b50611ce5565b3691610823565b923691610823565b9261201f565b005b905061047e368486610823565b6020815191012090602081519101201438610454565b151591503861044d565b60405162461bcd60e51b815260206004820152601e60248201527f4c7a4170703a20696e76616c696420656e64706f696e742063616c6c657200006044820152606490fd5b503461000e57602036600319011261000e5760043563ffffffff60e01b811680910361000e578060209115908115610553575b8115610528575b506040519015158152f35b63f27ff48960e01b811491508115610542575b503861051d565b6301ffc9a760e01b1490503861053b565b6336372b0760e01b81149150610516565b600091031261000e57565b60005b8381106105825750506000910152565b8181015183820152602001610572565b906020916105ab8151809281855285808601910161056f565b601f01601f1916010190565b9060206105c8928181520190610592565b90565b503461000e576000806003193601126106ae5760405190806008546105ef81610ea1565b808552916001918083169081156106845750600114610629575b61062585610619818703826107d8565b604051918291826105b7565b0390f35b9250600883527ff3f7a9fe364faab93b216da50a3214154f22a0a2b415b23a84c8169e8b636ee35b82841061066c57505050810160200161061982610625610609565b80546020858701810191909152909301928101610651565b8695506106259693506020925061061994915060ff191682840152151560051b8201019293610609565b80fd5b503461000e57600060203660031901126106ae576106cd61031e565b8160018060a01b036106e3818354163314611db4565b7f00000000000000000000000000000000000000000000000000000000000000001691823b1561075657602461ffff918360405195869485936307e0db1760e01b85521660048401525af18015610749575b61073d575080f35b610746906107b8565b80f35b610751611da7565b610735565b5080fd5b6001600160a01b0381160361000e57565b503461000e57604036600319011261000e5761079660043561078c8161075a565b6024359033612b23565b602060405160018152f35b50634e487b7160e01b600052604160045260246000fd5b6001600160401b0381116107cb57604052565b6107d36107a1565b604052565b90601f801991011681019081106001600160401b038211176107cb57604052565b6020906001600160401b038111610816575b601f01601f19160190565b61081e6107a1565b61080b565b92919261082f826107f9565b9161083d60405193846107d8565b82948184528183011161000e578281602093846000960137010152565b9080601f8301121561000e578160206105c893359101610823565b5061010036600319011261000e5760043561088f8161075a565b61089761032f565b6001600160401b039160443583811161000e576108b890369060040161085a565b906084356108c58161075a565b60a435916108d28361075a565b60c43586811161000e576108ea90369060040161085a565b9360e43596871161000e5761090661046f97369060040161085a565b95606435926122db565b503461000e57600060203660031901126106ae5761092c61031e565b8160018060a01b03610942818354163314611db4565b7f00000000000000000000000000000000000000000000000000000000000000001691823b1561075657602461ffff918360405195869485936310ddb13760e01b85521660048401525af180156107495761073d575080f35b503461000e57600036600319011261000e576020600754604051908152f35b503461000e57606036600319011261000e576107966004356109db8161075a565b6024356109e78161075a565b604435916109f6833383612c4e565b6128ed565b503461000e57600036600319011261000e57602060405160128152f35b503461000e57604036600319011261000e57610796600435610a398161075a565b3360009081526006602090815260408083206001600160a01b0385168452909152902054906024358201809211610a71575b33612b23565b610a79611e8f565b610a6b565b90604060031983011261000e5760043561ffff8116810361000e5791602435906001600160401b03821161000e57610ab891600401610340565b9091565b503461000e57602061ffff610b0a610ad336610a7e565b9390911660005260018452610af5610afc604060002060405192838092610edb565b03826107d8565b848151910120923691610823565b82815191012014604051908152f35b503461000e57610b2836610a7e565b9190600092839160018060a01b03610b44818554163314611db4565b7f00000000000000000000000000000000000000000000000000000000000000001690813b15610ba25783610b9095604051968795869485936342d65a8d60e01b855260048501611e20565b03925af180156107495761073d575080f35b8380fd5b503461000e57600036600319011261000e57602060ff600a54166040519015158152f35b503461000e57608036600319011261000e57610be461031e565b6001600160401b0360243581811161000e57610c0490369060040161085a565b60443591610c118361036d565b60643590811161000e57610c2990369060040161085a565b90303303610d0d57610c468260208060149551830101910161241e565b919390930151610c5684826129ef565b6001600160a01b031694853b1561000e57610cef610cca84866000898b7f64e10c37f404d128982dce114f5d233c14c5c7f6d8db93099e3d99dacb9e27ba998389610cbb61ffff9c604051988997889687956331d97a6560e21b875260048701612466565b03925af1610cf4575b506124aa565b956040519384931695839092916001600160401b036020916040840195845216910152565b0390a4005b80610d01610d07926107b8565b80610564565b38610cc4565b606460405162461bcd60e51b815260206004820152602060248201527f4c7a52656365697665723a2063616c6c6572206d757374206265204c7a4170706044820152fd5b60643590811515820361000e57565b60043590811515820361000e57565b503461000e5760c036600319011261000e57610d8961031e565b6001600160401b039060243582811161000e57610daa90369060040161085a565b90610db3610d51565b60843584811161000e57610dcb90369060040161085a565b9160a43594851161000e57610de7610df195369060040161085a565b93604435916121e4565b60408051928352602083019190915290f35b503461000e57602036600319011261000e57600435610e218161075a565b60018060a01b031660005260056020526020604060002054604051908152f35b503461000e576000806003193601126106ae57805481906001600160a01b03811690610e6e338314611db4565b6001600160a01b03191682557f8be0079c531659141344cd1fd0a4f28419497f9722a3daafe3b4186f6b6457e08280a380f35b90600182811c92168015610ed1575b6020831014610ebb57565b634e487b7160e01b600052602260045260246000fd5b91607f1691610eb0565b9060009291805491610eec83610ea1565b918282526001938481169081600014610f4e5750600114610f0e575b50505050565b90919394506000526020928360002092846000945b838610610f3a575050505001019038808080610f08565b805485870183015294019385908201610f23565b9294505050602093945060ff191683830152151560051b01019038808080610f08565b90610f8c610f859260405193848092610edb565b03836107d8565b565b503461000e57602036600319011261000e5761ffff610fab61031e565b166000526001602052610625610af5610fce604060002060405192838092610edb565b604051918291602083526020830190610592565b503461000e57604036600319011261000e57602061102d61100161031e565b61ffff61100c61032f565b91166000526002835260406000209061ffff16600052602052604060002090565b54604051908152f35b503461000e57600036600319011261000e576000546040516001600160a01b039091168152602090f35b60209061107a92826040519483868095519384920161056f565b82019081520301902090565b503461000e57606036600319011261000e576110a061031e565b6024356001600160401b03811161000e576106259161ffff6110c961110d93369060040161085a565b9116600052600460205260406000209060206110ee604051928381519384920161056f565b8101918252602081604435930301902090600052602052604060002090565b546040519081529081906020820190565b503461000e57600036600319011261000e576003546040516001600160a01b039091168152602090f35b503461000e576000806003193601126106ae57604051908060095461116c81610ea1565b8085529160019180831690811561068457506001146111955761062585610619818703826107d8565b9250600983527f6e1540171b6c0c960b71a7020d9f60077f6af931a8bbf590da0223dacf75c7af5b8284106111d857505050810160200161061982610625610609565b805460208587018101919091529093019281016111bd565b503461000e57602036600319011261000e5761ffff61120d61031e565b166000526001602052610af561122d604060002060405192838092610edb565b80511561124b57610619816112456106259351611ea6565b90611f62565b60405162461bcd60e51b815260206004820152601d60248201527f4c7a4170703a206e6f20747275737465642070617468207265636f72640000006044820152606490fd5b503461000e57604036600319011261000e576004356112ae8161075a565b602435903360005260066020526112db8160406000209060018060a01b0316600052602052604060002090565b54918083106112fc576112f092039033612b23565b60405160018152602090f35b60405162461bcd60e51b815260206004820152602560248201527f45524332303a2064656372656173656420616c6c6f77616e63652062656c6f77604482015264207a65726f60d81b6064820152608490fd5b503461000e5761135e36610a7e565b919060009161137760018060a01b038454163314611db4565b6040519360208184828801376113a26034878481013060601b858201520360148101895201876107d8565b61ffff8316855260019081815260408620918751916001600160401b0383116114e0575b6113da836113d48654610ea1565b86611e3b565b80601f841160011461144a5750918080926114399695948a9b7f8c0400cfe2d1199b1a725c78960bcc2a344d869b80590d0f2bd005db15a572ce9b9461143f575b50501b916000199060031b1c19161790555b60405193849384611e20565b0390a180f35b01519250388061141b565b91939498601f19841661146287600052602060002090565b938a905b8282106114c9575050917f8c0400cfe2d1199b1a725c78960bcc2a344d869b80590d0f2bd005db15a572ce999a95939185611439989694106114b0575b505050811b01905561142d565b015160001960f88460031b161c191690553880806114a3565b808886978294978701518155019601940190611466565b6114e86107a1565b6113c6565b503461000e57604036600319011261000e5761079660043561150e8161075a565b60243590336128ed565b503461000e57600036600319011261000e576040517f00000000000000000000000000000000000000000000000000000000000000006001600160a01b03168152602090f35b503461000e57602036600319011261000e577f5db758e995a17ec1ad84bdef7e8c3293a0bd6179bcce400dff5d4c3d87db726b602060043561159f8161075a565b6000546001600160a01b0391906115b99083163314611db4565b16806bffffffffffffffffffffffff60a01b6003541617600355604051908152a1005b503461000e57608036600319011261000e576115f661031e565b6115fe61032f565b6064356001600160401b03811161000e5761161d903690600401610340565b60018060a09493941b03916000948361163b87958654163314611db4565b7f00000000000000000000000000000000000000000000000000000000000000001691823b156116d55784906116a8604051978896879586946332fb62e760e21b865261ffff80921660048701521660248501526044356044850152608060648501526084840191611dff565b03925af180156116c8575b6116bb575080f35b80610d01610746926107b8565b6116d0611da7565b6116b3565b8480fd5b50608036600319011261000e576116ee61031e565b6001600160401b0360243581811161000e5761170e90369060040161085a565b6044359161171b8361036d565b60643590811161000e57611733903690600401610340565b91909361179a6117768561175e6117588561ffff166000526004602052604060002090565b86611060565b906001600160401b0316600052602052604060002090565b546117828115156120ce565b61178d368689610823565b602081519101201461211a565b6000948593846117c58761175e6117bf8761ffff166000526004602052604060002090565b88611060565b55303b156116d5576117ec916040519687958695633356ae4560e11b875260048701612166565b038183305af180156116c8576116bb575080f35b503461000e57604036600319011261000e57602061102d6004356118238161075a565b602435906118308261075a565b60018060a01b03166000526006835260406000209060018060a01b0316600052602052604060002090565b503461000e57606036600319011261000e5761187561031e565b61187d61032f565b6044359161189660018060a01b03600054163314611db4565b8215611916576119117f9d5c7c0b934da8fefa9c7760c98383778a12dfbfc0c3b3106518f43fb9508ac09361ffff83166000526002602052806118eb8560406000209061ffff16600052602052604060002090565b556040519384938460409194939294606082019561ffff80921683521660208201520152565b0390a1005b60405162461bcd60e51b81526020600482015260156024820152744c7a4170703a20696e76616c6964206d696e47617360581b6044820152606490fd5b503461000e5761196236610a7e565b919060009161197b60018060a01b038454163314611db4565b61ffff81168352600160209080825260408520916001600160401b038711611aab575b6119b2876119ac8554610ea1565b85611e3b565b8590601f8811600114611a195750918680879893611439957ffa41487ad5d6728f0b19276fa1eddc16558578f5109fc39d2dc33c3230470dab9993611a0e575b501b906000198460031b1c191617905560405193849384611e20565b8801359250386119f2565b90601f198816611a2e85600052602060002090565b9288905b828210611a94575050918893917ffa41487ad5d6728f0b19276fa1eddc16558578f5109fc39d2dc33c3230470dab9899611439969410611a7a575b505082811b01905561142d565b870135600019600386901b60f8161c191690553880611a6d565b808685968294968c01358155019501930190611a32565b611ab36107a1565b61199e565b503461000e57602036600319011261000e57611ad2610d60565b611ae760018060a01b03600054163314611db4565b15611af45761046f6127f4565b600a5460ff811615611b335760ff1916600a557f5db9ee0a495bf2e6ff9c91a7834c1ba4fdd244a5e8aa4e537bd38aeae4b073aa6020604051338152a1005b60405162461bcd60e51b815260206004820152601460248201527314185d5cd8589b194e881b9bdd081c185d5cd95960621b6044820152606490fd5b503461000e57602036600319011261000e57600435611b8d8161075a565b6000546001600160a01b0390611ba69082163314611db4565b811615611bb65761046f906127ad565b60405162461bcd60e51b815260206004820152602660248201527f4f776e61626c653a206e6577206f776e657220697320746865207a65726f206160448201526564647265737360d01b6064820152608490fd5b503461000e57608036600319011261000e57610625611c2761031e565b611c2f61032f565b90611c3b60443561075a565b604051633d7b2f6f60e21b815261ffff91821660048201529116602482015230604482015260648035908201526000816084817f00000000000000000000000000000000000000000000000000000000000000006001600160a01b03165afa908115611cd8575b600091611cb7575b50604051918291826105b7565b611cd2913d8091833e611cca81836107d8565b810190611d82565b38611caa565b611ce0611da7565b611ca2565b15611cec57565b60405162461bcd60e51b815260206004820152602660248201527f4c7a4170703a20696e76616c696420736f757263652073656e64696e6720636f6044820152651b9d1c9858dd60d21b6064820152608490fd5b81601f8201121561000e578051611d56816107f9565b92611d6460405194856107d8565b8184526020828401011161000e576105c8916020808501910161056f565b9060208282031261000e5781516001600160401b03811161000e576105c89201611d40565b506040513d6000823e3d90fd5b15611dbb57565b606460405162461bcd60e51b815260206004820152602060248201527f4f776e61626c653a2063616c6c6572206973206e6f7420746865206f776e65726044820152fd5b908060209392818452848401376000828201840152601f01601f1916010190565b60409061ffff6105c895931681528160208201520191611dff565b90601f8111611e4957505050565b600091825260208220906020601f850160051c83019410611e85575b601f0160051c01915b828110611e7a57505050565b818155600101611e6e565b9092508290611e65565b50634e487b7160e01b600052601160045260246000fd5b601319810191908211611eb557565b610f8c611e8f565b91908203918211611eb557565b90601f8201809211611eb557565b91908201809211611eb557565b15611eec57565b60405162461bcd60e51b815260206004820152600e60248201526d736c6963655f6f766572666c6f7760901b6044820152606490fd5b15611f2957565b60405162461bcd60e51b8152602060048201526011602482015270736c6963655f6f75744f66426f756e647360781b6044820152606490fd5b611f7682611f6f81611eca565b1015611ee5565b611f838282511015611f22565b81611f9b575050604051600081526020810160405290565b60405191601f811691821560051b808486010193838501920101905b808410611fcf5750508252601f01601f191660405290565b9092835181526020809101930190611fb7565b9061200b6105c8959361ffff6001600160401b0393168452608060208501526080840190610592565b931660408201526060818403910152610592565b9091303b1561000e57604051633356ae4560e11b8152600081806120498886898960048601611fe2565b038183305af190816120bf575b50610f0857836120ba917fe6f254030bcb01ffd20558175c13fcaed6d1520be7becee4c961b65f79243b0d955160208301206120ad8261175e6120a78861ffff166000526004602052604060002090565b89611060565b5560405194859485611fe2565b0390a1565b6120c8906107b8565b38612056565b156120d557565b60405162461bcd60e51b815260206004820152601d60248201527f4c7a52656365697665723a206e6f2073746f726564206d6573736167650000006044820152606490fd5b1561212157565b60405162461bcd60e51b815260206004820152601b60248201527f4c7a52656365697665723a20696e76616c6964207061796c6f616400000000006044820152606490fd5b906121916105c89694959361ffff6001600160401b0393168452608060208501526080840190610592565b941660408201526060818503910152611dff565b6121bb6105c89492606083526060830190610592565b9260208201526040818403910152610592565b919082604091031261000e576020825192015190565b9195949260409461221561225f9361220761ffff9789519b8c93602085016121a5565b03601f1981018a52896107d8565b6122468651988996879663040a7bb160e41b885216600487015230602487015260a0604487015260a4860190610592565b9115156064850152838203600319016084850152610592565b03817f00000000000000000000000000000000000000000000000000000000000000006001600160a01b03165afa9182156122ce575b60009081936122a357509190565b9050610ab891925060403d81116122c7575b6122bf81836107d8565b8101906121ce565b503d6122b5565b6122d6611da7565b612295565b959261ffff9381967f024797cc77ce15dc717112d54fb1df125fdfd8c81344fb046c5e074427ce1543966123398661232b61234197989d61231c888f61268c565b604051978893602085016121a5565b03601f1981018652856107d8565b349386612537565b604051630f428ae960e31b815261ffff821660048201523060248201526001600160a01b03966123d891906020826044817f00000000000000000000000000000000000000000000000000000000000000008d165afa918215612411575b6000926123dd575b506123b1906124aa565b9760405194859416971695839092916001600160401b036020916040840195845216910152565b0390a4565b6123b19192506124039060203d811161240a575b6123fb81836107d8565b8101906124ca565b91906123a7565b503d6123f1565b612419611da7565b61239f565b909160608284031261000e578151916001600160401b039283811161000e5784612449918301611d40565b93602082015193604083015190811161000e576105c89201611d40565b916124916001600160401b039161ffff6105c89896979416855260a0602086015260a0850190610592565b9416604083015260608201526080818403910152610592565b6124c29060206040519282848094519384920161056f565b810103902090565b9081602091031261000e57516105c88161036d565b926125046105c897959361ffff6125129416865260c0602087015260c0860190610592565b908482036040860152610592565b6001600160a01b0391821660608401529316608082015280830360a090910152610592565b946125609193929561ffff81166000526001602052612567604060002060405194858092610edb565b03846107d8565b8251156125ef577f00000000000000000000000000000000000000000000000000000000000000006001600160a01b031693843b1561000e576000966125c391604051998a988997889662c5803160e81b8852600488016124df565b03925af180156125e2575b6125d55750565b80610d01610f8c926107b8565b6125ea611da7565b6125ce565b60405162461bcd60e51b815260206004820152603060248201527f4c7a4170703a2064657374696e6174696f6e20636861696e206973206e6f742060448201526f61207472757374656420736f7572636560801b6064820152608490fd5b1561265457565b60405162461bcd60e51b815260206004820152601060248201526f14185d5cd8589b194e881c185d5cd95960821b6044820152606490fd5b9061269c60ff600a54161561264d565b6001600160a01b0382169033820361279d575b811561274e5761274981846127247fddf252ad1be2c89b69c2b068fc378daa952ba7f163c4a11628f55a4df523b3ef946126fd60009860018060a01b03166000526005602052604060002090565b5461270a82821015612acc565b039160018060a01b03166000526005602052604060002090565b5561273961273482600754611ebd565b600755565b6040519081529081906020820190565b0390a3565b60405162461bcd60e51b815260206004820152602160248201527f45524332303a206275726e2066726f6d20746865207a65726f206164647265736044820152607360f81b6064820152608490fd5b6127a8813385612c4e565b6126af565b600080546001600160a01b039283166001600160a01b03198216811783559216907f8be0079c531659141344cd1fd0a4f28419497f9722a3daafe3b4186f6b6457e09080a3565b6001600a5461280660ff82161561264d565b60ff191617600a557f62e78cea01bee320cd4e420270b5ea74000d11b0c9f74754ebdbfc544b05a2586020604051338152a1565b1561284157565b60405162461bcd60e51b815260206004820152602360248201527f45524332303a207472616e7366657220746f20746865207a65726f206164647260448201526265737360e81b6064820152608490fd5b1561289957565b60405162461bcd60e51b815260206004820152602660248201527f45524332303a207472616e7366657220616d6f756e7420657863656564732062604482015265616c616e636560d01b6064820152608490fd5b916001600160a01b03808416929091831561299c5761297f827fddf252ad1be2c89b69c2b068fc378daa952ba7f163c4a11628f55a4df523b3ef9461274994169661293988151561283a565b6001600160a01b03811660009081526005602052604090206129649085905461270a82821015612892565b556001600160a01b0316600090815260056020526040902090565b61298a828254611ed8565b90556040519081529081906020820190565b60405162461bcd60e51b815260206004820152602560248201527f45524332303a207472616e736665722066726f6d20746865207a65726f206164604482015264647265737360d81b6064820152608490fd5b6001600160a01b038116918215612a875760207fddf252ad1be2c89b69c2b068fc378daa952ba7f163c4a11628f55a4df523b3ef91612a55600094600754838101809111612a7a575b6007556001600160a01b0316600090815260056020526040902090565b805490828201809211612a6d575b55604051908152a3565b612a75611e8f565b612a63565b612a82611e8f565b612a38565b60405162461bcd60e51b815260206004820152601f60248201527f45524332303a206d696e7420746f20746865207a65726f2061646472657373006044820152606490fd5b15612ad357565b60405162461bcd60e51b815260206004820152602260248201527f45524332303a206275726e20616d6f756e7420657863656564732062616c616e604482015261636560f01b6064820152608490fd5b6001600160a01b038082169291908315612bfd578216938415612bad5780612b9c7f8c5be1e5ebec7d5bd14f71427d1e84f3dd0314c0f7b2291e5b200ac8c7c3b92594612b856127499560018060a01b03166000526006602052604060002090565b9060018060a01b0316600052602052604060002090565b556040519081529081906020820190565b60405162461bcd60e51b815260206004820152602260248201527f45524332303a20617070726f766520746f20746865207a65726f206164647265604482015261737360f01b6064820152608490fd5b60405162461bcd60e51b8152602060048201526024808201527f45524332303a20617070726f76652066726f6d20746865207a65726f206164646044820152637265737360e01b6064820152608490fd5b6001600160a01b038082166000908152600660209081526040808320938616835292905220909190549260018401612c865750505050565b808410612ca157612c98930391612b23565b38808080610f08565b60405162461bcd60e51b815260206004820152601d60248201527f45524332303a20696e73756666696369656e7420616c6c6f77616e63650000006044820152606490fdfea264697066735822122022de142cc2d9902f02fb8f0e148353a0915f0f1e32739d8ae691f82f56f3756f64736f6c63430008110033",
    "linkReferences": {}
  },
  "methodIdentifiers": {
    "allowance(address,address)": "dd62ed3e",
    "approve(address,uint256)": "095ea7b3",
    "balanceOf(address)": "70a08231",
    "circulatingSupply()": "9358928b",
    "decimals()": "313ce567",
    "decreaseAllowance(address,uint256)": "a457c2d7",
    "estimateSendFee(uint16,bytes,uint256,bool,bytes,bytes)": "6f770790",
    "failedMessages(uint16,bytes,uint256)": "8ee74912",
    "forceResumeReceive(uint16,bytes)": "42d65a8d",
    "getConfig(uint16,uint16,address,uint256)": "f5ecbdbc",
    "getTrustedRemoteAddress(uint16)": "9f38369a",
    "increaseAllowance(address,uint256)": "39509351",
    "isTrustedRemote(uint16,bytes)": "3d8b38f6",
    "lzEndpoint()": "b353aaa7",
    "lzReceive(uint16,bytes,uint64,bytes)": "001d3567",
    "minDstGasLookup(uint16,uint16)": "8cfd8f5c",
    "name()": "06fdde03",
    "nonblockingLzReceive(uint16,bytes,uint64,bytes)": "66ad5c8a",
    "owner()": "8da5cb5b",
    "pauseSendTokens(bool)": "f1878922",
    "paused()": "5c975abb",
    "precrime()": "950c8a74",
    "renounceOwnership()": "715018a6",
    "retryMessage(uint16,bytes,uint64,bytes)": "d1deba1f",
    "sendFrom(address,uint16,bytes,uint256,address,address,bytes,bytes)": "0e506192",
    "setConfig(uint16,uint16,uint256,bytes)": "cbed8b9c",
    "setMinDstGas(uint16,uint16,uint256)": "df2a5b3b",
    "setPrecrime(address)": "baf3292d",
    "setReceiveVersion(uint16)": "10ddb137",
    "setSendVersion(uint16)": "07e0db17",
    "setTrustedRemote(uint16,bytes)": "eb8d72b7",
    "setTrustedRemoteAddress(uint16,bytes)": "a6c3d165",
    "supportsInterface(bytes4)": "01ffc9a7",
    "symbol()": "95d89b41",
    "totalSupply()": "18160ddd",
    "transfer(address,uint256)": "a9059cbb",
    "transferFrom(address,address,uint256)": "23b872dd",
    "transferOwnership(address)": "f2fde38b",
    "trustedRemoteLookup(uint16)": "7533d788"
  },
  "id": 156
}