{
  "abi": [
    {
      "inputs": [
        {
          "internalType": "string",
          "name": "_name",
          "type": "string"
        },
        {
          "internalType": "string",
          "name": "_symbol",
          "type": "string"
        },
        {
          "internalType": "address",
          "name": "_lzEndpoint",
          "type": "address"
        }
      ],
      "stateMutability": "nonpayable",
      "type": "constructor"
    },
    {
      "anonymous": false,
      "inputs": [
        {
          "indexed": true,
          "internalType": "address",
          "name": "owner",
          "type": "address"
        },
        {
          "indexed": true,
          "internalType": "address",
          "name": "spender",
          "type": "address"
        },
        {
          "indexed": false,
          "internalType": "uint256",
          "name": "value",
          "type": "uint256"
        }
      ],
      "name": "Approval",
      "type": "event"
    },
    {
      "anonymous": false,
      "inputs": [
        {
          "indexed": false,
          "internalType": "uint16",
          "name": "_srcChainId",
          "type": "uint16"
        },
        {
          "indexed": false,
          "internalType": "bytes",
          "name": "_srcAddress",
          "type": "bytes"
        },
        {
          "indexed": false,
          "internalType": "uint64",
          "name": "_nonce",
          "type": "uint64"
        },
        {
          "indexed": false,
          "internalType": "bytes",
          "name": "_payload",
          "type": "bytes"
        }
      ],
      "name": "MessageFailed",
      "type": "event"
    },
    {
      "anonymous": false,
      "inputs": [
        {
          "indexed": true,
          "internalType": "address",
          "name": "previousOwner",
          "type": "address"
        },
        {
          "indexed": true,
          "internalType": "address",
          "name": "newOwner",
          "type": "address"
        }
      ],
      "name": "OwnershipTransferred",
      "type": "event"
    },
    {
      "anonymous": false,
      "inputs": [
        {
          "indexed": false,
          "internalType": "address",
          "name": "account",
          "type": "address"
        }
      ],
      "name": "Paused",
      "type": "event"
    },
    {
      "anonymous": false,
      "inputs": [
        {
          "indexed": true,
          "internalType": "uint16",
          "name": "_srcChainId",
          "type": "uint16"
        },
        {
          "indexed": true,
          "internalType": "bytes",
          "name": "_srcAddress",
          "type": "bytes"
        },
        {
          "indexed": true,
          "internalType": "address",
          "name": "_toAddress",
          "type": "address"
        },
        {
          "indexed": false,
          "internalType": "uint256",
          "name": "_amount",
          "type": "uint256"
        },
        {
          "indexed": false,
          "internalType": "uint64",
          "name": "_nonce",
          "type": "uint64"
        }
      ],
      "name": "ReceiveFromChain",
      "type": "event"
    },
    {
      "anonymous": false,
      "inputs": [
        {
          "indexed": true,
          "internalType": "address",
          "name": "_sender",
          "type": "address"
        },
        {
          "indexed": true,
          "internalType": "uint16",
          "name": "_dstChainId",
          "type": "uint16"
        },
        {
          "indexed": true,
          "internalType": "bytes",
          "name": "_toAddress",
          "type": "bytes"
        },
        {
          "indexed": false,
          "internalType": "uint256",
          "name": "_amount",
          "type": "uint256"
        },
        {
          "indexed": false,
          "internalType": "uint64",
          "name": "_nonce",
          "type": "uint64"
        }
      ],
      "name": "SendToChain",
      "type": "event"
    },
    {
      "anonymous": false,
      "inputs": [
        {
          "indexed": false,
          "internalType": "uint16",
          "name": "_dstChainId",
          "type": "uint16"
        },
        {
          "indexed": false,
          "internalType": "uint16",
          "name": "_type",
          "type": "uint16"
        },
        {
          "indexed": false,
          "internalType": "uint256",
          "name": "_minDstGas",
          "type": "uint256"
        }
      ],
      "name": "SetMinDstGas",
      "type": "event"
    },
    {
      "anonymous": false,
      "inputs": [
        {
          "indexed": false,
          "internalType": "address",
          "name": "precrime",
          "type": "address"
        }
      ],
      "name": "SetPrecrime",
      "type": "event"
    },
    {
      "anonymous": false,
      "inputs": [
        {
          "indexed": false,
          "internalType": "uint16",
          "name": "_remoteChainId",
          "type": "uint16"
        },
        {
          "indexed": false,
          "internalType": "bytes",
          "name": "_path",
          "type": "bytes"
        }
      ],
      "name": "SetTrustedRemote",
      "type": "event"
    },
    {
      "anonymous": false,
      "inputs": [
        {
          "indexed": false,
          "internalType": "uint16",
          "name": "_remoteChainId",
          "type": "uint16"
        },
        {
          "indexed": false,
          "internalType": "bytes",
          "name": "_remoteAddress",
          "type": "bytes"
        }
      ],
      "name": "SetTrustedRemoteAddress",
      "type": "event"
    },
    {
      "anonymous": false,
      "inputs": [
        {
          "indexed": true,
          "internalType": "address",
          "name": "from",
          "type": "address"
        },
        {
          "indexed": true,
          "internalType": "address",
          "name": "to",
          "type": "address"
        },
        {
          "indexed": false,
          "internalType": "uint256",
          "name": "value",
          "type": "uint256"
        }
      ],
      "name": "Transfer",
      "type": "event"
    },
    {
      "anonymous": false,
      "inputs": [
        {
          "indexed": false,
          "internalType": "address",
          "name": "account",
          "type": "address"
        }
      ],
      "name": "Unpaused",
      "type": "event"
    },
    {
      "inputs": [
        {
          "internalType": "address",
          "name": "owner",
          "type": "address"
        },
        {
          "internalType": "address",
          "name": "spender",
          "type": "address"
        }
      ],
      "name": "allowance",
      "outputs": [
        {
          "internalType": "uint256",
          "name": "",
          "type": "uint256"
        }
      ],
      "stateMutability": "view",
      "type": "function"
    },
    {
      "inputs": [
        {
          "internalType": "address",
          "name": "spender",
          "type": "address"
        },
        {
          "internalType": "uint256",
          "name": "amount",
          "type": "uint256"
        }
      ],
      "name": "approve",
      "outputs": [
        {
          "internalType": "bool",
          "name": "",
          "type": "bool"
        }
      ],
      "stateMutability": "nonpayable",
      "type": "function"
    },
    {
      "inputs": [
        {
          "internalType": "address",
          "name": "account",
          "type": "address"
        }
      ],
      "name": "balanceOf",
      "outputs": [
        {
          "internalType": "uint256",
          "name": "",
          "type": "uint256"
        }
      ],
      "stateMutability": "view",
      "type": "function"
    },
    {
      "inputs": [],
      "name": "circulatingSupply",
      "outputs": [
        {
          "internalType": "uint256",
          "name": "",
          "type": "uint256"
        }
      ],
      "stateMutability": "view",
      "type": "function"
    },
    {
      "inputs": [],
      "name": "decimals",
      "outputs": [
        {
          "internalType": "uint8",
          "name": "",
          "type": "uint8"
        }
      ],
      "stateMutability": "view",
      "type": "function"
    },
    {
      "inputs": [
        {
          "internalType": "address",
          "name": "spender",
          "type": "address"
        },
        {
          "internalType": "uint256",
          "name": "subtractedValue",
          "type": "uint256"
        }
      ],
      "name": "decreaseAllowance",
      "outputs": [
        {
          "internalType": "bool",
          "name": "",
          "type": "bool"
        }
      ],
      "stateMutability": "nonpayable",
      "type": "function"
    },
    {
      "inputs": [
        {
          "internalType": "uint16",
          "name": "_dstChainId",
          "type": "uint16"
        },
        {
          "internalType": "bytes",
          "name": "_toAddress",
          "type": "bytes"
        },
        {
          "internalType": "uint256",
          "name": "_amount",
          "type": "uint256"
        },
        {
          "internalType": "bool",
          "name": "_useZro",
          "type": "bool"
        },
        {
          "internalType": "bytes",
          "name": "_adapterParams",
          "type": "bytes"
        },
        {
          "internalType": "bytes",
          "name": "_payload",
          "type": "bytes"
        }
      ],
      "name": "estimateSendFee",
      "outputs": [
        {
          "internalType": "uint256",
          "name": "nativeFee",
          "type": "uint256"
        },
        {
          "internalType": "uint256",
          "name": "zroFee",
          "type": "uint256"
        }
      ],
      "stateMutability": "view",
      "type": "function"
    },
    {
      "inputs": [
        {
          "internalType": "uint16",
          "name": "",
          "type": "uint16"
        },
        {
          "internalType": "bytes",
          "name": "",
          "type": "bytes"
        },
        {
          "internalType": "uint256",
          "name": "",
          "type": "uint256"
        }
      ],
      "name": "failedMessages",
      "outputs": [
        {
          "internalType": "bytes32",
          "name": "",
          "type": "bytes32"
        }
      ],
      "stateMutability": "view",
      "type": "function"
    },
    {
      "inputs": [
        {
          "internalType": "uint16",
          "name": "_srcChainId",
          "type": "uint16"
        },
        {
          "internalType": "bytes",
          "name": "_srcAddress",
          "type": "bytes"
        }
      ],
      "name": "forceResumeReceive",
      "outputs": [],
      "stateMutability": "nonpayable",
      "type": "function"
    },
    {
      "inputs": [
        {
          "internalType": "uint16",
          "name": "_version",
          "type": "uint16"
        },
        {
          "internalType": "uint16",
          "name": "_chainId",
          "type": "uint16"
        },
        {
          "internalType": "address",
          "name": "",
          "type": "address"
        },
        {
          "internalType": "uint256",
          "name": "_configType",
          "type": "uint256"
        }
      ],
      "name": "getConfig",
      "outputs": [
        {
          "internalType": "bytes",
          "name": "",
          "type": "bytes"
        }
      ],
      "stateMutability": "view",
      "type": "function"
    },
    {
      "inputs": [
        {
          "internalType": "uint16",
          "name": "_remoteChainId",
          "type": "uint16"
        }
      ],
      "name": "getTrustedRemoteAddress",
      "outputs": [
        {
          "internalType": "bytes",
          "name": "",
          "type": "bytes"
        }
      ],
      "stateMutability": "view",
      "type": "function"
    },
    {
      "inputs": [
        {
          "internalType": "address",
          "name": "spender",
          "type": "address"
        },
        {
          "internalType": "uint256",
          "name": "addedValue",
          "type": "uint256"
        }
      ],
      "name": "increaseAllowance",
      "outputs": [
        {
          "internalType": "bool",
          "name": "",
          "type": "bool"
        }
      ],
      "stateMutability": "nonpayable",
      "type": "function"
    },
    {
      "inputs": [
        {
          "internalType": "uint16",
          "name": "_srcChainId",
          "type": "uint16"
        },
        {
          "internalType": "bytes",
          "name": "_srcAddress",
          "type": "bytes"
        }
      ],
      "name": "isTrustedRemote",
      "outputs": [
        {
          "internalType": "bool",
          "name": "",
          "type": "bool"
        }
      ],
      "stateMutability": "view",
      "type": "function"
    },
    {
      "inputs": [],
      "name": "lzEndpoint",
      "outputs": [
        {
          "internalType": "contract ILayerZeroEndpoint",
          "name": "",
          "type": "address"
        }
      ],
      "stateMutability": "view",
      "type": "function"
    },
    {
      "inputs": [
        {
          "internalType": "uint16",
          "name": "_srcChainId",
          "type": "uint16"
        },
        {
          "internalType": "bytes",
          "name": "_srcAddress",
          "type": "bytes"
        },
        {
          "internalType": "uint64",
          "name": "_nonce",
          "type": "uint64"
        },
        {
          "internalType": "bytes",
          "name": "_payload",
          "type": "bytes"
        }
      ],
      "name": "lzReceive",
      "outputs": [],
      "stateMutability": "nonpayable",
      "type": "function"
    },
    {
      "inputs": [
        {
          "internalType": "uint16",
          "name": "",
          "type": "uint16"
        },
        {
          "internalType": "uint16",
          "name": "",
          "type": "uint16"
        }
      ],
      "name": "minDstGasLookup",
      "outputs": [
        {
          "internalType": "uint256",
          "name": "",
          "type": "uint256"
        }
      ],
      "stateMutability": "view",
      "type": "function"
    },
    {
      "inputs": [],
      "name": "name",
      "outputs": [
        {
          "internalType": "string",
          "name": "",
          "type": "string"
        }
      ],
      "stateMutability": "view",
      "type": "function"
    },
    {
      "inputs": [
        {
          "internalType": "uint16",
          "name": "_srcChainId",
          "type": "uint16"
        },
        {
          "internalType": "bytes",
          "name": "_srcAddress",
          "type": "bytes"
        },
        {
          "internalType": "uint64",
          "name": "_nonce",
          "type": "uint64"
        },
        {
          "internalType": "bytes",
          "name": "_payload",
          "type": "bytes"
        }
      ],
      "name": "nonblockingLzReceive",
      "outputs": [],
      "stateMutability": "nonpayable",
      "type": "function"
    },
    {
      "inputs": [],
      "name": "owner",
      "outputs": [
        {
          "internalType": "address",
          "name": "",
          "type": "address"
        }
      ],
      "stateMutability": "view",
      "type": "function"
    },
    {
      "inputs": [
        {
          "internalType": "bool",
          "name": "pause",
          "type": "bool"
        }
      ],
      "name": "pauseSendTokens",
      "outputs": [],
      "stateMutability": "nonpayable",
      "type": "function"
    },
    {
      "inputs": [],
      "name": "paused",
      "outputs": [
        {
          "internalType": "bool",
          "name": "",
          "type": "bool"
        }
      ],
      "stateMutability": "view",
      "type": "function"
    },
    {
      "inputs": [],
      "name": "precrime",
      "outputs": [
        {
          "internalType": "address",
          "name": "",
          "type": "address"
        }
      ],
      "stateMutability": "view",
      "type": "function"
    },
    {
      "inputs": [],
      "name": "renounceOwnership",
      "outputs": [],
      "stateMutability": "nonpayable",
      "type": "function"
    },
    {
      "inputs": [
        {
          "internalType": "uint16",
          "name": "_srcChainId",
          "type": "uint16"
        },
        {
          "internalType": "bytes",
          "name": "_srcAddress",
          "type": "bytes"
        },
        {
          "internalType": "uint64",
          "name": "_nonce",
          "type": "uint64"
        },
        {
          "internalType": "bytes",
          "name": "_payload",
          "type": "bytes"
        }
      ],
      "name": "retryMessage",
      "outputs": [],
      "stateMutability": "payable",
      "type": "function"
    },
    {
      "inputs": [
        {
          "internalType": "address",
          "name": "_from",
          "type": "address"
        },
        {
          "internalType": "uint16",
          "name": "_dstChainId",
          "type": "uint16"
        },
        {
          "internalType": "bytes",
          "name": "_toAddress",
          "type": "bytes"
        },
        {
          "internalType": "uint256",
          "name": "_amount",
          "type": "uint256"
        },
        {
          "internalType": "address payable",
          "name": "_refundAddress",
          "type": "address"
        },
        {
          "internalType": "address",
          "name": "_zroPaymentAddress",
          "type": "address"
        },
        {
          "internalType": "bytes",
          "name": "_adapterParams",
          "type": "bytes"
        },
        {
          "internalType": "bytes",
          "name": "_payload",
          "type": "bytes"
        }
      ],
      "name": "sendFrom",
      "outputs": [],
      "stateMutability": "payable",
      "type": "function"
    },
    {
      "inputs": [
        {
          "internalType": "uint16",
          "name": "_version",
          "type": "uint16"
        },
        {
          "internalType": "uint16",
          "name": "_chainId",
          "type": "uint16"
        },
        {
          "internalType": "uint256",
          "name": "_configType",
          "type": "uint256"
        },
        {
          "internalType": "bytes",
          "name": "_config",
          "type": "bytes"
        }
      ],
      "name": "setConfig",
      "outputs": [],
      "stateMutability": "nonpayable",
      "type": "function"
    },
    {
      "inputs": [
        {
          "internalType": "uint16",
          "name": "_dstChainId",
          "type": "uint16"
        },
        {
          "internalType": "uint16",
          "name": "_packetType",
          "type": "uint16"
        },
        {
          "internalType": "uint256",
          "name": "_minGas",
          "type": "uint256"
        }
      ],
      "name": "setMinDstGas",
      "outputs": [],
      "stateMutability": "nonpayable",
      "type": "function"
    },
    {
      "inputs": [
        {
          "internalType": "address",
          "name": "_precrime",
          "type": "address"
        }
      ],
      "name": "setPrecrime",
      "outputs": [],
      "stateMutability": "nonpayable",
      "type": "function"
    },
    {
      "inputs": [
        {
          "internalType": "uint16",
          "name": "_version",
          "type": "uint16"
        }
      ],
      "name": "setReceiveVersion",
      "outputs": [],
      "stateMutability": "nonpayable",
      "type": "function"
    },
    {
      "inputs": [
        {
          "internalType": "uint16",
          "name": "_version",
          "type": "uint16"
        }
      ],
      "name": "setSendVersion",
      "outputs": [],
      "stateMutability": "nonpayable",
      "type": "function"
    },
    {
      "inputs": [
        {
          "internalType": "uint16",
          "name": "_srcChainId",
          "type": "uint16"
        },
        {
          "internalType": "bytes",
          "name": "_path",
          "type": "bytes"
        }
      ],
      "name": "setTrustedRemote",
      "outputs": [],
      "stateMutability": "nonpayable",
      "type": "function"
    },
    {
      "inputs": [
        {
          "internalType": "uint16",
          "name": "_remoteChainId",
          "type": "uint16"
        },
        {
          "internalType": "bytes",
          "name": "_remoteAddress",
          "type": "bytes"
        }
      ],
      "name": "setTrustedRemoteAddress",
      "outputs": [],
      "stateMutability": "nonpayable",
      "type": "function"
    },
    {
      "inputs": [
        {
          "internalType": "bytes4",
          "name": "interfaceId",
          "type": "bytes4"
        }
      ],
      "name": "supportsInterface",
      "outputs": [
        {
          "internalType": "bool",
          "name": "",
          "type": "bool"
        }
      ],
      "stateMutability": "view",
      "type": "function"
    },
    {
      "inputs": [],
      "name": "symbol",
      "outputs": [
        {
          "internalType": "string",
          "name": "",
          "type": "string"
        }
      ],
      "stateMutability": "view",
      "type": "function"
    },
    {
      "inputs": [],
      "name": "totalSupply",
      "outputs": [
        {
          "internalType": "uint256",
          "name": "",
          "type": "uint256"
        }
      ],
      "stateMutability": "view",
      "type": "function"
    },
    {
      "inputs": [
        {
          "internalType": "address",
          "name": "to",
          "type": "address"
        },
        {
          "internalType": "uint256",
          "name": "amount",
          "type": "uint256"
        }
      ],
      "name": "transfer",
      "outputs": [
        {
          "internalType": "bool",
          "name": "",
          "type": "bool"
        }
      ],
      "stateMutability": "nonpayable",
      "type": "function"
    },
    {
      "inputs": [
        {
          "internalType": "address",
          "name": "from",
          "type": "address"
        },
        {
          "internalType": "address",
          "name": "to",
          "type": "address"
        },
        {
          "internalType": "uint256",
          "name": "amount",
          "type": "uint256"
        }
      ],
      "name": "transferFrom",
      "outputs": [
        {
          "internalType": "bool",
          "name": "",
          "type": "bool"
        }
      ],
      "stateMutability": "nonpayable",
      "type": "function"
    },
    {
      "inputs": [
        {
          "internalType": "address",
          "name": "newOwner",
          "type": "address"
        }
      ],
      "name": "transferOwnership",
      "outputs": [],
      "stateMutability": "nonpayable",
      "type": "function"
    },
    {
      "inputs": [
        {
          "internalType": "uint16",
          "name": "",
          "type": "uint16"
        }
      ],
      "name": "trustedRemoteLookup",
      "outputs": [
        {
          "internalType": "bytes",
          "name": "",
          "type": "bytes"
        }
      ],
      "stateMutability": "view",
      "type": "function"
    }
  ],
  "bytecode": {
    "object": "0x60a06040523480156200001157600080fd5b50604051620035b3380380620035b38339810160408190526200003491620001a2565b828282828282808062000047336200008d565b6001600160a01b03166080525060089050620000648382620002be565b506009620000738282620002be565b5050600a805460ff19169055506200038a95505050505050565b600080546001600160a01b038381166001600160a01b0319831681178455604051919092169283917f8be0079c531659141344cd1fd0a4f28419497f9722a3daafe3b4186f6b6457e09190a35050565b634e487b7160e01b600052604160045260246000fd5b600082601f8301126200010557600080fd5b81516001600160401b0380821115620001225762000122620000dd565b604051601f8301601f19908116603f011681019082821181831017156200014d576200014d620000dd565b816040528381526020925086838588010111156200016a57600080fd5b600091505b838210156200018e57858201830151818301840152908201906200016f565b600093810190920192909252949350505050565b600080600060608486031215620001b857600080fd5b83516001600160401b0380821115620001d057600080fd5b620001de87838801620000f3565b94506020860151915080821115620001f557600080fd5b506200020486828701620000f3565b604086015190935090506001600160a01b03811681146200022457600080fd5b809150509250925092565b600181811c908216806200024457607f821691505b6020821081036200026557634e487b7160e01b600052602260045260246000fd5b50919050565b601f821115620002b957600081815260208120601f850160051c81016020861015620002945750805b601f850160051c820191505b81811015620002b557828155600101620002a0565b5050505b505050565b81516001600160401b03811115620002da57620002da620000dd565b620002f281620002eb84546200022f565b846200026b565b602080601f8311600181146200032a5760008415620003115750858301515b600019600386901b1c1916600185901b178555620002b5565b600085815260208120601f198616915b828110156200035b578886015182559484019460019091019084016200033a565b50858210156200037a5787850151600019600388901b60f8161c191681555b5050505050600190811b01905550565b6080516131ce620003e5600039600081816106480152818161078001528181610a9f01528181610b5b01528181610cc301528181610dcc015281816111c9015281816115e30152818161196b015261209201526131ce6000f3fe60806040526004361061022f5760003560e01c80638cfd8f5c1161012e578063b353aaa7116100ab578063df2a5b3b1161006f578063df2a5b3b146106dd578063eb8d72b7146106fd578063f18789221461071d578063f2fde38b1461073d578063f5ecbdbc1461075d57600080fd5b8063b353aaa714610636578063baf3292d1461066a578063cbed8b9c1461068a578063d1deba1f146106aa578063dd62ed3e146106bd57600080fd5b806395d89b41116100f257806395d89b41146105a15780639f38369a146105b6578063a457c2d7146105d6578063a6c3d165146105f6578063a9059cbb1461061657600080fd5b80638cfd8f5c146104b35780638da5cb5b146104eb5780638ee749121461051d5780639358928b1461056c578063950c8a741461058157600080fd5b8063313ce567116101bc57806366ad5c8a1161018057806366ad5c8a146103f35780636f7707901461041357806370a0823114610448578063715018a61461047e5780637533d7881461049357600080fd5b8063313ce5671461035f578063395093511461037b5780633d8b38f61461039b57806342d65a8d146103bb5780635c975abb146103db57600080fd5b8063095ea7b311610203578063095ea7b3146102cd5780630e506192146102ed57806310ddb1371461030057806318160ddd1461032057806323b872dd1461033f57600080fd5b80621d35671461023457806301ffc9a71461025657806306fdde031461028b57806307e0db17146102ad575b600080fd5b34801561024057600080fd5b5061025461024f36600461243b565b61077d565b005b34801561026257600080fd5b506102766102713660046124cf565b6109ae565b60405190151581526020015b60405180910390f35b34801561029757600080fd5b506102a06109ec565b6040516102829190612549565b3480156102b957600080fd5b506102546102c836600461255c565b610a7e565b3480156102d957600080fd5b506102766102e8366004612597565b610b07565b6102546102fb366004612686565b610b1f565b34801561030c57600080fd5b5061025461031b36600461255c565b610b3a565b34801561032c57600080fd5b506007545b604051908152602001610282565b34801561034b57600080fd5b5061027661035a36600461275a565b610b92565b34801561036b57600080fd5b5060405160128152602001610282565b34801561038757600080fd5b50610276610396366004612597565b610bb6565b3480156103a757600080fd5b506102766103b636600461279b565b610bd8565b3480156103c757600080fd5b506102546103d636600461279b565b610ca4565b3480156103e757600080fd5b50600a5460ff16610276565b3480156103ff57600080fd5b5061025461040e3660046127ed565b610d2a565b34801561041f57600080fd5b5061043361042e366004612885565b610d8b565b60408051928352602083019190915201610282565b34801561045457600080fd5b50610331610463366004612936565b6001600160a01b031660009081526005602052604090205490565b34801561048a57600080fd5b50610254610e59565b34801561049f57600080fd5b506102a06104ae36600461255c565b610e6d565b3480156104bf57600080fd5b506103316104ce366004612953565b600260209081526000928352604080842090915290825290205481565b3480156104f757600080fd5b506000546001600160a01b03165b6040516001600160a01b039091168152602001610282565b34801561052957600080fd5b50610331610538366004612986565b6004602090815260009384526040808520845180860184018051928152908401958401959095209452929052825290205481565b34801561057857600080fd5b50610331610f07565b34801561058d57600080fd5b50600354610505906001600160a01b031681565b3480156105ad57600080fd5b506102a0610f17565b3480156105c257600080fd5b506102a06105d136600461255c565b610f26565b3480156105e257600080fd5b506102766105f1366004612597565b61103c565b34801561060257600080fd5b5061025461061136600461279b565b6110b7565b34801561062257600080fd5b50610276610631366004612597565b611140565b34801561064257600080fd5b506105057f000000000000000000000000000000000000000000000000000000000000000081565b34801561067657600080fd5b50610254610685366004612936565b61114e565b34801561069657600080fd5b506102546106a53660046129dc565b6111aa565b6102546106b8366004612a4a565b61123f565b3480156106c957600080fd5b506103316106d8366004612ac8565b6113e5565b3480156106e957600080fd5b506102546106f8366004612b01565b611410565b34801561070957600080fd5b5061025461071836600461279b565b6114c2565b34801561072957600080fd5b50610254610738366004612b3d565b61151c565b34801561074957600080fd5b50610254610758366004612936565b61153c565b34801561076957600080fd5b506102a0610778366004612b58565b6115b2565b337f00000000000000000000000000000000000000000000000000000000000000006001600160a01b0316146107fa5760405162461bcd60e51b815260206004820152601e60248201527f4c7a4170703a20696e76616c696420656e64706f696e742063616c6c6572000060448201526064015b60405180910390fd5b61ffff86166000908152600160205260408120805461081890612ba5565b80601f016020809104026020016040519081016040528092919081815260200182805461084490612ba5565b80156108915780601f1061086657610100808354040283529160200191610891565b820191906000526020600020905b81548152906001019060200180831161087457829003601f168201915b505050505090508051868690501480156108ac575060008151115b80156108d45750805160208201206040516108ca9088908890612bdf565b6040518091039020145b61092f5760405162461bcd60e51b815260206004820152602660248201527f4c7a4170703a20696e76616c696420736f757263652073656e64696e6720636f6044820152651b9d1c9858dd60d21b60648201526084016107f1565b6109a58787878080601f01602080910402602001604051908101604052809392919081815260200183838082843760009201919091525050604080516020601f8a018190048102820181019092528881528a93509150889088908190840183828082843760009201919091525061166392505050565b50505050505050565b60006001600160e01b0319821615806109d757506001600160e01b031982166336372b0760e01b145b806109e657506109e682611754565b92915050565b6060600880546109fb90612ba5565b80601f0160208091040260200160405190810160405280929190818152602001828054610a2790612ba5565b8015610a745780601f10610a4957610100808354040283529160200191610a74565b820191906000526020600020905b815481529060010190602001808311610a5757829003601f168201915b5050505050905090565b610a86611789565b6040516307e0db1760e01b815261ffff821660048201527f00000000000000000000000000000000000000000000000000000000000000006001600160a01b0316906307e0db17906024015b600060405180830381600087803b158015610aec57600080fd5b505af1158015610b00573d6000803e3d6000fd5b5050505050565b600033610b158185856117e3565b5060019392505050565b610b30888888888888888834611907565b5050505050505050565b610b42611789565b6040516310ddb13760e01b815261ffff821660048201527f00000000000000000000000000000000000000000000000000000000000000006001600160a01b0316906310ddb13790602401610ad2565b600033610ba0858285611a54565b610bab858585611ac8565b506001949350505050565b600033610b15818585610bc983836113e5565b610bd39190612c05565b6117e3565b61ffff831660009081526001602052604081208054829190610bf990612ba5565b80601f0160208091040260200160405190810160405280929190818152602001828054610c2590612ba5565b8015610c725780601f10610c4757610100808354040283529160200191610c72565b820191906000526020600020905b815481529060010190602001808311610c5557829003601f168201915b505050505090508383604051610c89929190612bdf565b60405180910390208180519060200120149150509392505050565b610cac611789565b6040516342d65a8d60e01b81526001600160a01b037f000000000000000000000000000000000000000000000000000000000000000016906342d65a8d90610cfc90869086908690600401612c41565b600060405180830381600087803b158015610d1657600080fd5b505af11580156109a5573d6000803e3d6000fd5b333014610d795760405162461bcd60e51b815260206004820181905260248201527f4c7a52656365697665723a2063616c6c6572206d757374206265204c7a41707060448201526064016107f1565b610d8584848484611c73565b50505050565b6000806000878785604051602001610da593929190612c5f565b60408051601f198184030181529082905263040a7bb160e41b825291506001600160a01b037f000000000000000000000000000000000000000000000000000000000000000016906340a7bb1090610e09908c90309086908c908c90600401612c94565b6040805180830381865afa158015610e25573d6000803e3d6000fd5b505050506040513d601f19601f82011682018060405250810190610e499190612ce8565b9250925050965096945050505050565b610e61611789565b610e6b6000611d74565b565b60016020526000908152604090208054610e8690612ba5565b80601f0160208091040260200160405190810160405280929190818152602001828054610eb290612ba5565b8015610eff5780601f10610ed457610100808354040283529160200191610eff565b820191906000526020600020905b815481529060010190602001808311610ee257829003601f168201915b505050505081565b6000610f1260075490565b905090565b6060600980546109fb90612ba5565b61ffff8116600090815260016020526040812080546060929190610f4990612ba5565b80601f0160208091040260200160405190810160405280929190818152602001828054610f7590612ba5565b8015610fc25780601f10610f9757610100808354040283529160200191610fc2565b820191906000526020600020905b815481529060010190602001808311610fa557829003601f168201915b50505050509050805160000361101a5760405162461bcd60e51b815260206004820152601d60248201527f4c7a4170703a206e6f20747275737465642070617468207265636f726400000060448201526064016107f1565b61103560006014835161102d9190612d0c565b839190611dc4565b9392505050565b6000338161104a82866113e5565b9050838110156110aa5760405162461bcd60e51b815260206004820152602560248201527f45524332303a2064656372656173656420616c6c6f77616e63652062656c6f77604482015264207a65726f60d81b60648201526084016107f1565b610bab82868684036117e3565b6110bf611789565b8181306040516020016110d493929190612d1f565b60408051601f1981840301815291815261ffff85166000908152600160205220906110ff9082612d93565b507f8c0400cfe2d1199b1a725c78960bcc2a344d869b80590d0f2bd005db15a572ce83838360405161113393929190612c41565b60405180910390a1505050565b600033610b15818585611ac8565b611156611789565b600380546001600160a01b0319166001600160a01b0383169081179091556040519081527f5db758e995a17ec1ad84bdef7e8c3293a0bd6179bcce400dff5d4c3d87db726b9060200160405180910390a150565b6111b2611789565b6040516332fb62e760e21b81526001600160a01b037f0000000000000000000000000000000000000000000000000000000000000000169063cbed8b9c906112069088908890889088908890600401612e52565b600060405180830381600087803b15801561122057600080fd5b505af1158015611234573d6000803e3d6000fd5b505050505050505050565b61ffff85166000908152600460205260408082209051611260908790612e8b565b90815260408051602092819003830190206001600160401b038716600090815292529020549050806112d45760405162461bcd60e51b815260206004820152601d60248201527f4c7a52656365697665723a206e6f2073746f726564206d65737361676500000060448201526064016107f1565b8083836040516112e5929190612bdf565b60405180910390201461133a5760405162461bcd60e51b815260206004820152601b60248201527f4c7a52656365697665723a20696e76616c6964207061796c6f6164000000000060448201526064016107f1565b61ffff8616600090815260046020526040808220905161135b908890612e8b565b9081526040805191829003602090810183206001600160401b038916600090815291522091909155633356ae4560e11b815230906366ad5c8a906113ab9089908990899089908990600401612ea7565b600060405180830381600087803b1580156113c557600080fd5b505af11580156113d9573d6000803e3d6000fd5b50505050505050505050565b6001600160a01b03918216600090815260066020908152604080832093909416825291909152205490565b611418611789565b600081116114605760405162461bcd60e51b81526020600482015260156024820152744c7a4170703a20696e76616c6964206d696e47617360581b60448201526064016107f1565b61ffff83811660008181526002602090815260408083209487168084529482529182902085905581519283528201929092529081018290527f9d5c7c0b934da8fefa9c7760c98383778a12dfbfc0c3b3106518f43fb9508ac090606001611133565b6114ca611789565b61ffff831660009081526001602052604090206114e8828483612ee6565b507ffa41487ad5d6728f0b19276fa1eddc16558578f5109fc39d2dc33c3230470dab83838360405161113393929190612c41565b611524611789565b8061153457611531611ed1565b50565b611531611f23565b611544611789565b6001600160a01b0381166115a95760405162461bcd60e51b815260206004820152602660248201527f4f776e61626c653a206e6577206f776e657220697320746865207a65726f206160448201526564647265737360d01b60648201526084016107f1565b61153181611d74565b604051633d7b2f6f60e21b815261ffff808616600483015284166024820152306044820152606481018290526060907f00000000000000000000000000000000000000000000000000000000000000006001600160a01b03169063f5ecbdbc90608401600060405180830381865afa158015611632573d6000803e3d6000fd5b505050506040513d6000823e601f3d908101601f1916820160405261165a9190810190612ff2565b95945050505050565b604051633356ae4560e11b815230906366ad5c8a9061168c908790879087908790600401613026565b600060405180830381600087803b1580156116a657600080fd5b505af19250505080156116b7575060015b610d85578080519060200120600460008661ffff1661ffff168152602001908152602001600020846040516116ec9190612e8b565b9081526040805191829003602090810183206001600160401b0387166000908152915220919091557fe6f254030bcb01ffd20558175c13fcaed6d1520be7becee4c961b65f79243b0d90611747908690869086908690613026565b60405180910390a1610d85565b60006001600160e01b0319821663f27ff48960e01b14806109e657506301ffc9a760e01b6001600160e01b03198316146109e6565b6000546001600160a01b03163314610e6b5760405162461bcd60e51b815260206004820181905260248201527f4f776e61626c653a2063616c6c6572206973206e6f7420746865206f776e657260448201526064016107f1565b6001600160a01b0383166118455760405162461bcd60e51b8152602060048201526024808201527f45524332303a20617070726f76652066726f6d20746865207a65726f206164646044820152637265737360e01b60648201526084016107f1565b6001600160a01b0382166118a65760405162461bcd60e51b815260206004820152602260248201527f45524332303a20617070726f766520746f20746865207a65726f206164647265604482015261737360f01b60648201526084016107f1565b6001600160a01b0383811660008181526006602090815260408083209487168084529482529182902085905590518481527f8c5be1e5ebec7d5bd14f71427d1e84f3dd0314c0f7b2291e5b200ac8c7c3b925910160405180910390a3505050565b61191389898989611f60565b600087878460405160200161192a93929190612c5f565b6040516020818303038152906040529050611949898288888887611f74565b604051630f428ae960e31b815261ffff8a1660048201523060248201526000907f00000000000000000000000000000000000000000000000000000000000000006001600160a01b031690637a14574890604401602060405180830381865afa1580156119ba573d6000803e3d6000fd5b505050506040513d601f19601f820116820180604052508101906119de9190613064565b9050886040516119ee9190612e8b565b604080519182900382208a83526001600160401b03841660208401529161ffff8d16916001600160a01b038f16917f024797cc77ce15dc717112d54fb1df125fdfd8c81344fb046c5e074427ce1543910160405180910390a45050505050505050505050565b6000611a6084846113e5565b90506000198114610d855781811015611abb5760405162461bcd60e51b815260206004820152601d60248201527f45524332303a20696e73756666696369656e7420616c6c6f77616e636500000060448201526064016107f1565b610d8584848484036117e3565b6001600160a01b038316611b2c5760405162461bcd60e51b815260206004820152602560248201527f45524332303a207472616e736665722066726f6d20746865207a65726f206164604482015264647265737360d81b60648201526084016107f1565b6001600160a01b038216611b8e5760405162461bcd60e51b815260206004820152602360248201527f45524332303a207472616e7366657220746f20746865207a65726f206164647260448201526265737360e81b60648201526084016107f1565b6001600160a01b03831660009081526005602052604090205481811015611c065760405162461bcd60e51b815260206004820152602660248201527f45524332303a207472616e7366657220616d6f756e7420657863656564732062604482015265616c616e636560d01b60648201526084016107f1565b6001600160a01b0380851660008181526005602052604080822086860390559286168082529083902080548601905591517fddf252ad1be2c89b69c2b068fc378daa952ba7f163c4a11628f55a4df523b3ef90611c669086815260200190565b60405180910390a3610d85565b600080600083806020019051810190611c8c9190613081565b60148301519295509093509150611ca4888285612113565b6040516331d97a6560e21b81526001600160a01b0382169063c765e99490611cd8908b908b908b90899089906004016130ed565b600060405180830381600087803b158015611cf257600080fd5b505af1925050508015611d03575060015b50806001600160a01b031687604051611d1c9190612e8b565b604080519182900382208683526001600160401b038a1660208401529161ffff8c16917f64e10c37f404d128982dce114f5d233c14c5c7f6d8db93099e3d99dacb9e27ba910160405180910390a45050505050505050565b600080546001600160a01b038381166001600160a01b0319831681178455604051919092169283917f8be0079c531659141344cd1fd0a4f28419497f9722a3daafe3b4186f6b6457e09190a35050565b606081611dd281601f612c05565b1015611e115760405162461bcd60e51b815260206004820152600e60248201526d736c6963655f6f766572666c6f7760901b60448201526064016107f1565b611e1b8284612c05565b84511015611e5f5760405162461bcd60e51b8152602060048201526011602482015270736c6963655f6f75744f66426f756e647360781b60448201526064016107f1565b606082158015611e7e5760405191506000825260208201604052611ec8565b6040519150601f8416801560200281840101858101878315602002848b0101015b81831015611eb7578051835260209283019201611e9f565b5050858452601f01601f1916604052505b50949350505050565b611ed961211d565b600a805460ff191690557f5db9ee0a495bf2e6ff9c91a7834c1ba4fdd244a5e8aa4e537bd38aeae4b073aa335b6040516001600160a01b03909116815260200160405180910390a1565b611f2b612166565b600a805460ff191660011790557f62e78cea01bee320cd4e420270b5ea74000d11b0c9f74754ebdbfc544b05a258611f063390565b611f68612166565b610d85848484846121ac565b61ffff861660009081526001602052604081208054611f9290612ba5565b80601f0160208091040260200160405190810160405280929190818152602001828054611fbe90612ba5565b801561200b5780601f10611fe05761010080835404028352916020019161200b565b820191906000526020600020905b815481529060010190602001808311611fee57829003601f168201915b50505050509050805160000361207c5760405162461bcd60e51b815260206004820152603060248201527f4c7a4170703a2064657374696e6174696f6e20636861696e206973206e6f742060448201526f61207472757374656420736f7572636560801b60648201526084016107f1565b60405162c5803160e81b81526001600160a01b037f0000000000000000000000000000000000000000000000000000000000000000169063c58031009084906120d3908b9086908c908c908c908c90600401613131565b6000604051808303818588803b1580156120ec57600080fd5b505af1158015612100573d6000803e3d6000fd5b505050505050505050505050565b505050565b61210e82826121d2565b600a5460ff16610e6b5760405162461bcd60e51b815260206004820152601460248201527314185d5cd8589b194e881b9bdd081c185d5cd95960621b60448201526064016107f1565b600a5460ff1615610e6b5760405162461bcd60e51b815260206004820152601060248201526f14185d5cd8589b194e881c185d5cd95960821b60448201526064016107f1565b336001600160a01b03851681146121c8576121c8858284611a54565b610b008583612293565b6001600160a01b0382166122285760405162461bcd60e51b815260206004820152601f60248201527f45524332303a206d696e7420746f20746865207a65726f20616464726573730060448201526064016107f1565b806007600082825461223a9190612c05565b90915550506001600160a01b0382166000818152600560209081526040808320805486019055518481527fddf252ad1be2c89b69c2b068fc378daa952ba7f163c4a11628f55a4df523b3ef910160405180910390a35050565b6001600160a01b0382166122f35760405162461bcd60e51b815260206004820152602160248201527f45524332303a206275726e2066726f6d20746865207a65726f206164647265736044820152607360f81b60648201526084016107f1565b6001600160a01b038216600090815260056020526040902054818110156123675760405162461bcd60e51b815260206004820152602260248201527f45524332303a206275726e20616d6f756e7420657863656564732062616c616e604482015261636560f01b60648201526084016107f1565b6001600160a01b03831660008181526005602090815260408083208686039055600780548790039055518581529192917fddf252ad1be2c89b69c2b068fc378daa952ba7f163c4a11628f55a4df523b3ef910160405180910390a3505050565b803561ffff811681146123d957600080fd5b919050565b60008083601f8401126123f057600080fd5b5081356001600160401b0381111561240757600080fd5b60208301915083602082850101111561241f57600080fd5b9250929050565b6001600160401b038116811461153157600080fd5b6000806000806000806080878903121561245457600080fd5b61245d876123c7565b955060208701356001600160401b038082111561247957600080fd5b6124858a838b016123de565b90975095506040890135915061249a82612426565b909350606088013590808211156124b057600080fd5b506124bd89828a016123de565b979a9699509497509295939492505050565b6000602082840312156124e157600080fd5b81356001600160e01b03198116811461103557600080fd5b60005b838110156125145781810151838201526020016124fc565b50506000910152565b600081518084526125358160208601602086016124f9565b601f01601f19169290920160200192915050565b602081526000611035602083018461251d565b60006020828403121561256e57600080fd5b611035826123c7565b6001600160a01b038116811461153157600080fd5b80356123d981612577565b600080604083850312156125aa57600080fd5b82356125b581612577565b946020939093013593505050565b634e487b7160e01b600052604160045260246000fd5b604051601f8201601f191681016001600160401b0381118282101715612601576126016125c3565b604052919050565b60006001600160401b03821115612622576126226125c3565b50601f01601f191660200190565b600082601f83011261264157600080fd5b813561265461264f82612609565b6125d9565b81815284602083860101111561266957600080fd5b816020850160208301376000918101602001919091529392505050565b600080600080600080600080610100898b0312156126a357600080fd5b6126ac8961258c565b97506126ba60208a016123c7565b965060408901356001600160401b03808211156126d657600080fd5b6126e28c838d01612630565b975060608b013596506126f760808c0161258c565b955061270560a08c0161258c565b945060c08b013591508082111561271b57600080fd5b6127278c838d01612630565b935060e08b013591508082111561273d57600080fd5b5061274a8b828c01612630565b9150509295985092959890939650565b60008060006060848603121561276f57600080fd5b833561277a81612577565b9250602084013561278a81612577565b929592945050506040919091013590565b6000806000604084860312156127b057600080fd5b6127b9846123c7565b925060208401356001600160401b038111156127d457600080fd5b6127e0868287016123de565b9497909650939450505050565b6000806000806080858703121561280357600080fd5b61280c856123c7565b935060208501356001600160401b038082111561282857600080fd5b61283488838901612630565b94506040870135915061284682612426565b9092506060860135908082111561285c57600080fd5b5061286987828801612630565b91505092959194509250565b803580151581146123d957600080fd5b60008060008060008060c0878903121561289e57600080fd5b6128a7876123c7565b955060208701356001600160401b03808211156128c357600080fd5b6128cf8a838b01612630565b9650604089013595506128e460608a01612875565b945060808901359150808211156128fa57600080fd5b6129068a838b01612630565b935060a089013591508082111561291c57600080fd5b5061292989828a01612630565b9150509295509295509295565b60006020828403121561294857600080fd5b813561103581612577565b6000806040838503121561296657600080fd5b61296f836123c7565b915061297d602084016123c7565b90509250929050565b60008060006060848603121561299b57600080fd5b6129a4846123c7565b925060208401356001600160401b038111156129bf57600080fd5b6129cb86828701612630565b925050604084013590509250925092565b6000806000806000608086880312156129f457600080fd5b6129fd866123c7565b9450612a0b602087016123c7565b93506040860135925060608601356001600160401b03811115612a2d57600080fd5b612a39888289016123de565b969995985093965092949392505050565b600080600080600060808688031215612a6257600080fd5b612a6b866123c7565b945060208601356001600160401b0380821115612a8757600080fd5b612a9389838a01612630565b955060408801359150612aa582612426565b90935060608701359080821115612abb57600080fd5b50612a39888289016123de565b60008060408385031215612adb57600080fd5b8235612ae681612577565b91506020830135612af681612577565b809150509250929050565b600080600060608486031215612b1657600080fd5b612b1f846123c7565b9250612b2d602085016123c7565b9150604084013590509250925092565b600060208284031215612b4f57600080fd5b61103582612875565b60008060008060808587031215612b6e57600080fd5b612b77856123c7565b9350612b85602086016123c7565b92506040850135612b9581612577565b9396929550929360600135925050565b600181811c90821680612bb957607f821691505b602082108103612bd957634e487b7160e01b600052602260045260246000fd5b50919050565b8183823760009101908152919050565b634e487b7160e01b600052601160045260246000fd5b808201808211156109e6576109e6612bef565b81835281816020850137506000828201602090810191909152601f909101601f19169091010190565b61ffff8416815260406020820152600061165a604083018486612c18565b606081526000612c72606083018661251d565b8460208401528281036040840152612c8a818561251d565b9695505050505050565b61ffff861681526001600160a01b038516602082015260a060408201819052600090612cc29083018661251d565b84151560608401528281036080840152612cdc818561251d565b98975050505050505050565b60008060408385031215612cfb57600080fd5b505080516020909101519092909150565b818103818111156109e6576109e6612bef565b8284823760609190911b6bffffffffffffffffffffffff19169101908152601401919050565b601f82111561210e57600081815260208120601f850160051c81016020861015612d6c5750805b601f850160051c820191505b81811015612d8b57828155600101612d78565b505050505050565b81516001600160401b03811115612dac57612dac6125c3565b612dc081612dba8454612ba5565b84612d45565b602080601f831160018114612df55760008415612ddd5750858301515b600019600386901b1c1916600185901b178555612d8b565b600085815260208120601f198616915b82811015612e2457888601518255948401946001909101908401612e05565b5085821015612e425787850151600019600388901b60f8161c191681555b5050505050600190811b01905550565b600061ffff808816835280871660208401525084604083015260806060830152612e80608083018486612c18565b979650505050505050565b60008251612e9d8184602087016124f9565b9190910192915050565b61ffff86168152608060208201526000612ec4608083018761251d565b6001600160401b03861660408401528281036060840152612cdc818587612c18565b6001600160401b03831115612efd57612efd6125c3565b612f1183612f0b8354612ba5565b83612d45565b6000601f841160018114612f455760008515612f2d5750838201355b600019600387901b1c1916600186901b178355610b00565b600083815260209020601f19861690835b82811015612f765786850135825560209485019460019092019101612f56565b5086821015612f935760001960f88860031b161c19848701351681555b505060018560011b0183555050505050565b600082601f830112612fb657600080fd5b8151612fc461264f82612609565b818152846020838601011115612fd957600080fd5b612fea8260208301602087016124f9565b949350505050565b60006020828403121561300457600080fd5b81516001600160401b0381111561301a57600080fd5b612fea84828501612fa5565b61ffff85168152608060208201526000613043608083018661251d565b6001600160401b03851660408401528281036060840152612e80818561251d565b60006020828403121561307657600080fd5b815161103581612426565b60008060006060848603121561309657600080fd5b83516001600160401b03808211156130ad57600080fd5b6130b987838801612fa5565b94506020860151935060408601519150808211156130d657600080fd5b506130e386828701612fa5565b9150509250925092565b61ffff8616815260a06020820152600061310a60a083018761251d565b6001600160401b03861660408401528460608401528281036080840152612cdc818561251d565b61ffff8716815260c06020820152600061314e60c083018861251d565b8281036040840152613160818861251d565b6001600160a01b0387811660608601528616608085015283810360a0850152905061318b818561251d565b999850505050505050505056fea26469706673582212202376b87fbcb38352d5cae65201b2f9a7de25a7c8ddca5eb0b5f2c9b52d39e84764736f6c63430008110033",
    "linkReferences": {}
  },
  "methodIdentifiers": {
    "allowance(address,address)": "dd62ed3e",
    "approve(address,uint256)": "095ea7b3",
    "balanceOf(address)": "70a08231",
    "circulatingSupply()": "9358928b",
    "decimals()": "313ce567",
    "decreaseAllowance(address,uint256)": "a457c2d7",
    "estimateSendFee(uint16,bytes,uint256,bool,bytes,bytes)": "6f770790",
    "failedMessages(uint16,bytes,uint256)": "8ee74912",
    "forceResumeReceive(uint16,bytes)": "42d65a8d",
    "getConfig(uint16,uint16,address,uint256)": "f5ecbdbc",
    "getTrustedRemoteAddress(uint16)": "9f38369a",
    "increaseAllowance(address,uint256)": "39509351",
    "isTrustedRemote(uint16,bytes)": "3d8b38f6",
    "lzEndpoint()": "b353aaa7",
    "lzReceive(uint16,bytes,uint64,bytes)": "001d3567",
    "minDstGasLookup(uint16,uint16)": "8cfd8f5c",
    "name()": "06fdde03",
    "nonblockingLzReceive(uint16,bytes,uint64,bytes)": "66ad5c8a",
    "owner()": "8da5cb5b",
    "pauseSendTokens(bool)": "f1878922",
    "paused()": "5c975abb",
    "precrime()": "950c8a74",
    "renounceOwnership()": "715018a6",
    "retryMessage(uint16,bytes,uint64,bytes)": "d1deba1f",
    "sendFrom(address,uint16,bytes,uint256,address,address,bytes,bytes)": "0e506192",
    "setConfig(uint16,uint16,uint256,bytes)": "cbed8b9c",
    "setMinDstGas(uint16,uint16,uint256)": "df2a5b3b",
    "setPrecrime(address)": "baf3292d",
    "setReceiveVersion(uint16)": "10ddb137",
    "setSendVersion(uint16)": "07e0db17",
    "setTrustedRemote(uint16,bytes)": "eb8d72b7",
    "setTrustedRemoteAddress(uint16,bytes)": "a6c3d165",
    "supportsInterface(bytes4)": "01ffc9a7",
    "symbol()": "95d89b41",
    "totalSupply()": "18160ddd",
    "transfer(address,uint256)": "a9059cbb",
    "transferFrom(address,address,uint256)": "23b872dd",
    "transferOwnership(address)": "f2fde38b",
    "trustedRemoteLookup(uint16)": "7533d788"
  },
  "id": 82
}