{
  "abi": [
    {
      "inputs": [
        {
          "internalType": "string",
          "name": "_name",
          "type": "string"
        },
        {
          "internalType": "string",
          "name": "_symbol",
          "type": "string"
        },
        {
          "internalType": "address",
          "name": "_layerZeroEndpoint",
          "type": "address"
        },
        {
          "internalType": "uint256",
          "name": "_startMintId",
          "type": "uint256"
        },
        {
          "internalType": "uint256",
          "name": "_endMintId",
          "type": "uint256"
        },
        {
          "internalType": "uint256",
          "name": "_maxTokensPerMint",
          "type": "uint256"
        },
        {
          "internalType": "string",
          "name": "_baseTokenURI",
          "type": "string"
        },
        {
          "internalType": "string",
          "name": "_hiddenURI",
          "type": "string"
        },
        {
          "internalType": "address",
          "name": "_stableToken",
          "type": "address"
        },
        {
          "internalType": "uint256",
          "name": "_tax",
          "type": "uint256"
        },
        {
          "internalType": "address",
          "name": "_taxRecipient",
          "type": "address"
        }
      ],
      "stateMutability": "nonpayable",
      "type": "constructor"
    },
    {
      "inputs": [
        {
          "internalType": "address",
          "name": "operator",
          "type": "address"
        }
      ],
      "name": "OperatorNotAllowed",
      "type": "error"
    },
    {
      "anonymous": false,
      "inputs": [
        {
          "indexed": true,
          "internalType": "address",
          "name": "owner",
          "type": "address"
        },
        {
          "indexed": true,
          "internalType": "address",
          "name": "approved",
          "type": "address"
        },
        {
          "indexed": true,
          "internalType": "uint256",
          "name": "tokenId",
          "type": "uint256"
        }
      ],
      "name": "Approval",
      "type": "event"
    },
    {
      "anonymous": false,
      "inputs": [
        {
          "indexed": true,
          "internalType": "address",
          "name": "owner",
          "type": "address"
        },
        {
          "indexed": true,
          "internalType": "address",
          "name": "operator",
          "type": "address"
        },
        {
          "indexed": false,
          "internalType": "bool",
          "name": "approved",
          "type": "bool"
        }
      ],
      "name": "ApprovalForAll",
      "type": "event"
    },
    {
      "anonymous": false,
      "inputs": [
        {
          "indexed": false,
          "internalType": "bytes32",
          "name": "_hashedPayload",
          "type": "bytes32"
        }
      ],
      "name": "CreditCleared",
      "type": "event"
    },
    {
      "anonymous": false,
      "inputs": [
        {
          "indexed": false,
          "internalType": "bytes32",
          "name": "_hashedPayload",
          "type": "bytes32"
        },
        {
          "indexed": false,
          "internalType": "bytes",
          "name": "_payload",
          "type": "bytes"
        }
      ],
      "name": "CreditStored",
      "type": "event"
    },
    {
      "anonymous": false,
      "inputs": [
        {
          "indexed": false,
          "internalType": "uint16",
          "name": "_srcChainId",
          "type": "uint16"
        },
        {
          "indexed": false,
          "internalType": "bytes",
          "name": "_srcAddress",
          "type": "bytes"
        },
        {
          "indexed": false,
          "internalType": "uint64",
          "name": "_nonce",
          "type": "uint64"
        },
        {
          "indexed": false,
          "internalType": "bytes",
          "name": "_payload",
          "type": "bytes"
        },
        {
          "indexed": false,
          "internalType": "bytes",
          "name": "_reason",
          "type": "bytes"
        }
      ],
      "name": "MessageFailed",
      "type": "event"
    },
    {
      "anonymous": false,
      "inputs": [
        {
          "indexed": true,
          "internalType": "address",
          "name": "previousOwner",
          "type": "address"
        },
        {
          "indexed": true,
          "internalType": "address",
          "name": "newOwner",
          "type": "address"
        }
      ],
      "name": "OwnershipTransferred",
      "type": "event"
    },
    {
      "anonymous": false,
      "inputs": [
        {
          "indexed": true,
          "internalType": "uint16",
          "name": "_srcChainId",
          "type": "uint16"
        },
        {
          "indexed": true,
          "internalType": "bytes",
          "name": "_srcAddress",
          "type": "bytes"
        },
        {
          "indexed": true,
          "internalType": "address",
          "name": "_toAddress",
          "type": "address"
        },
        {
          "indexed": false,
          "internalType": "uint256[]",
          "name": "_tokenIds",
          "type": "uint256[]"
        }
      ],
      "name": "ReceiveFromChain",
      "type": "event"
    },
    {
      "anonymous": false,
      "inputs": [
        {
          "indexed": false,
          "internalType": "uint16",
          "name": "_srcChainId",
          "type": "uint16"
        },
        {
          "indexed": false,
          "internalType": "bytes",
          "name": "_srcAddress",
          "type": "bytes"
        },
        {
          "indexed": false,
          "internalType": "uint64",
          "name": "_nonce",
          "type": "uint64"
        },
        {
          "indexed": false,
          "internalType": "bytes32",
          "name": "_payloadHash",
          "type": "bytes32"
        }
      ],
      "name": "RetryMessageSuccess",
      "type": "event"
    },
    {
      "anonymous": false,
      "inputs": [
        {
          "indexed": true,
          "internalType": "uint16",
          "name": "_dstChainId",
          "type": "uint16"
        },
        {
          "indexed": true,
          "internalType": "address",
          "name": "_from",
          "type": "address"
        },
        {
          "indexed": true,
          "internalType": "bytes",
          "name": "_toAddress",
          "type": "bytes"
        },
        {
          "indexed": false,
          "internalType": "uint256[]",
          "name": "_tokenIds",
          "type": "uint256[]"
        }
      ],
      "name": "SendToChain",
      "type": "event"
    },
    {
      "anonymous": false,
      "inputs": [
        {
          "indexed": false,
          "internalType": "uint16",
          "name": "_dstChainId",
          "type": "uint16"
        },
        {
          "indexed": false,
          "internalType": "uint16",
          "name": "_type",
          "type": "uint16"
        },
        {
          "indexed": false,
          "internalType": "uint256",
          "name": "_minDstGas",
          "type": "uint256"
        }
      ],
      "name": "SetMinDstGas",
      "type": "event"
    },
    {
      "anonymous": false,
      "inputs": [
        {
          "indexed": false,
          "internalType": "address",
          "name": "precrime",
          "type": "address"
        }
      ],
      "name": "SetPrecrime",
      "type": "event"
    },
    {
      "anonymous": false,
      "inputs": [
        {
          "indexed": false,
          "internalType": "uint16",
          "name": "_remoteChainId",
          "type": "uint16"
        },
        {
          "indexed": false,
          "internalType": "bytes",
          "name": "_path",
          "type": "bytes"
        }
      ],
      "name": "SetTrustedRemote",
      "type": "event"
    },
    {
      "anonymous": false,
      "inputs": [
        {
          "indexed": false,
          "internalType": "uint16",
          "name": "_remoteChainId",
          "type": "uint16"
        },
        {
          "indexed": false,
          "internalType": "bytes",
          "name": "_remoteAddress",
          "type": "bytes"
        }
      ],
      "name": "SetTrustedRemoteAddress",
      "type": "event"
    },
    {
      "anonymous": false,
      "inputs": [
        {
          "indexed": true,
          "internalType": "address",
          "name": "from",
          "type": "address"
        },
        {
          "indexed": true,
          "internalType": "address",
          "name": "to",
          "type": "address"
        },
        {
          "indexed": true,
          "internalType": "uint256",
          "name": "tokenId",
          "type": "uint256"
        }
      ],
      "name": "Transfer",
      "type": "event"
    },
    {
      "inputs": [],
      "name": "DEFAULT_PAYLOAD_SIZE_LIMIT",
      "outputs": [
        {
          "internalType": "uint256",
          "name": "",
          "type": "uint256"
        }
      ],
      "stateMutability": "view",
      "type": "function"
    },
    {
      "inputs": [],
      "name": "FUNCTION_TYPE_SEND",
      "outputs": [
        {
          "internalType": "uint16",
          "name": "",
          "type": "uint16"
        }
      ],
      "stateMutability": "view",
      "type": "function"
    },
    {
      "inputs": [],
      "name": "OPERATOR_FILTER_REGISTRY",
      "outputs": [
        {
          "internalType": "contract IOperatorFilterRegistry",
          "name": "",
          "type": "address"
        }
      ],
      "stateMutability": "view",
      "type": "function"
    },
    {
      "inputs": [],
      "name": "_publicSaleStarted",
      "outputs": [
        {
          "internalType": "bool",
          "name": "",
          "type": "bool"
        }
      ],
      "stateMutability": "view",
      "type": "function"
    },
    {
      "inputs": [],
      "name": "_saleStarted",
      "outputs": [
        {
          "internalType": "bool",
          "name": "",
          "type": "bool"
        }
      ],
      "stateMutability": "view",
      "type": "function"
    },
    {
      "inputs": [
        {
          "internalType": "address",
          "name": "operator",
          "type": "address"
        },
        {
          "internalType": "uint256",
          "name": "tokenId",
          "type": "uint256"
        }
      ],
      "name": "approve",
      "outputs": [],
      "stateMutability": "nonpayable",
      "type": "function"
    },
    {
      "inputs": [
        {
          "internalType": "address",
          "name": "owner",
          "type": "address"
        }
      ],
      "name": "balanceOf",
      "outputs": [
        {
          "internalType": "uint256",
          "name": "",
          "type": "uint256"
        }
      ],
      "stateMutability": "view",
      "type": "function"
    },
    {
      "inputs": [
        {
          "internalType": "bytes",
          "name": "_payload",
          "type": "bytes"
        }
      ],
      "name": "clearCredits",
      "outputs": [],
      "stateMutability": "nonpayable",
      "type": "function"
    },
    {
      "inputs": [],
      "name": "contractURI",
      "outputs": [
        {
          "internalType": "string",
          "name": "",
          "type": "string"
        }
      ],
      "stateMutability": "view",
      "type": "function"
    },
    {
      "inputs": [
        {
          "internalType": "uint16",
          "name": "",
          "type": "uint16"
        }
      ],
      "name": "dstChainIdToBatchLimit",
      "outputs": [
        {
          "internalType": "uint256",
          "name": "",
          "type": "uint256"
        }
      ],
      "stateMutability": "view",
      "type": "function"
    },
    {
      "inputs": [
        {
          "internalType": "uint16",
          "name": "",
          "type": "uint16"
        }
      ],
      "name": "dstChainIdToTransferGas",
      "outputs": [
        {
          "internalType": "uint256",
          "name": "",
          "type": "uint256"
        }
      ],
      "stateMutability": "view",
      "type": "function"
    },
    {
      "inputs": [
        {
          "internalType": "uint16",
          "name": "_dstChainId",
          "type": "uint16"
        },
        {
          "internalType": "bytes",
          "name": "_toAddress",
          "type": "bytes"
        },
        {
          "internalType": "uint256[]",
          "name": "_tokenIds",
          "type": "uint256[]"
        },
        {
          "internalType": "bool",
          "name": "_useZro",
          "type": "bool"
        },
        {
          "internalType": "bytes",
          "name": "_adapterParams",
          "type": "bytes"
        }
      ],
      "name": "estimateSendBatchFee",
      "outputs": [
        {
          "internalType": "uint256",
          "name": "nativeFee",
          "type": "uint256"
        },
        {
          "internalType": "uint256",
          "name": "zroFee",
          "type": "uint256"
        }
      ],
      "stateMutability": "view",
      "type": "function"
    },
    {
      "inputs": [
        {
          "internalType": "uint16",
          "name": "_dstChainId",
          "type": "uint16"
        },
        {
          "internalType": "bytes",
          "name": "_toAddress",
          "type": "bytes"
        },
        {
          "internalType": "uint256",
          "name": "_tokenId",
          "type": "uint256"
        },
        {
          "internalType": "bool",
          "name": "_useZro",
          "type": "bool"
        },
        {
          "internalType": "bytes",
          "name": "_adapterParams",
          "type": "bytes"
        }
      ],
      "name": "estimateSendFee",
      "outputs": [
        {
          "internalType": "uint256",
          "name": "nativeFee",
          "type": "uint256"
        },
        {
          "internalType": "uint256",
          "name": "zroFee",
          "type": "uint256"
        }
      ],
      "stateMutability": "view",
      "type": "function"
    },
    {
      "inputs": [
        {
          "internalType": "uint16",
          "name": "",
          "type": "uint16"
        },
        {
          "internalType": "bytes",
          "name": "",
          "type": "bytes"
        },
        {
          "internalType": "uint64",
          "name": "",
          "type": "uint64"
        }
      ],
      "name": "failedMessages",
      "outputs": [
        {
          "internalType": "bytes32",
          "name": "",
          "type": "bytes32"
        }
      ],
      "stateMutability": "view",
      "type": "function"
    },
    {
      "inputs": [],
      "name": "flipLinearPriceIncreaseActive",
      "outputs": [],
      "stateMutability": "nonpayable",
      "type": "function"
    },
    {
      "inputs": [],
      "name": "flipPublicSaleStarted",
      "outputs": [],
      "stateMutability": "nonpayable",
      "type": "function"
    },
    {
      "inputs": [],
      "name": "flipRevealed",
      "outputs": [],
      "stateMutability": "nonpayable",
      "type": "function"
    },
    {
      "inputs": [],
      "name": "flipSaleStarted",
      "outputs": [],
      "stateMutability": "nonpayable",
      "type": "function"
    },
    {
      "inputs": [
        {
          "internalType": "uint16",
          "name": "_srcChainId",
          "type": "uint16"
        },
        {
          "internalType": "bytes",
          "name": "_srcAddress",
          "type": "bytes"
        }
      ],
      "name": "forceResumeReceive",
      "outputs": [],
      "stateMutability": "nonpayable",
      "type": "function"
    },
    {
      "inputs": [
        {
          "internalType": "uint256",
          "name": "tokenId",
          "type": "uint256"
        }
      ],
      "name": "getApproved",
      "outputs": [
        {
          "internalType": "address",
          "name": "",
          "type": "address"
        }
      ],
      "stateMutability": "view",
      "type": "function"
    },
    {
      "inputs": [
        {
          "internalType": "uint16",
          "name": "_version",
          "type": "uint16"
        },
        {
          "internalType": "uint16",
          "name": "_chainId",
          "type": "uint16"
        },
        {
          "internalType": "address",
          "name": "",
          "type": "address"
        },
        {
          "internalType": "uint256",
          "name": "_configType",
          "type": "uint256"
        }
      ],
      "name": "getConfig",
      "outputs": [
        {
          "internalType": "bytes",
          "name": "",
          "type": "bytes"
        }
      ],
      "stateMutability": "view",
      "type": "function"
    },
    {
      "inputs": [
        {
          "internalType": "uint16",
          "name": "_remoteChainId",
          "type": "uint16"
        }
      ],
      "name": "getTrustedRemoteAddress",
      "outputs": [
        {
          "internalType": "bytes",
          "name": "",
          "type": "bytes"
        }
      ],
      "stateMutability": "view",
      "type": "function"
    },
    {
      "inputs": [
        {
          "internalType": "address",
          "name": "owner",
          "type": "address"
        },
        {
          "internalType": "address",
          "name": "operator",
          "type": "address"
        }
      ],
      "name": "isApprovedForAll",
      "outputs": [
        {
          "internalType": "bool",
          "name": "",
          "type": "bool"
        }
      ],
      "stateMutability": "view",
      "type": "function"
    },
    {
      "inputs": [
        {
          "internalType": "uint16",
          "name": "_srcChainId",
          "type": "uint16"
        },
        {
          "internalType": "bytes",
          "name": "_srcAddress",
          "type": "bytes"
        }
      ],
      "name": "isTrustedRemote",
      "outputs": [
        {
          "internalType": "bool",
          "name": "",
          "type": "bool"
        }
      ],
      "stateMutability": "view",
      "type": "function"
    },
    {
      "inputs": [],
      "name": "lzEndpoint",
      "outputs": [
        {
          "internalType": "contract ILayerZeroEndpoint",
          "name": "",
          "type": "address"
        }
      ],
      "stateMutability": "view",
      "type": "function"
    },
    {
      "inputs": [
        {
          "internalType": "uint16",
          "name": "_srcChainId",
          "type": "uint16"
        },
        {
          "internalType": "bytes",
          "name": "_srcAddress",
          "type": "bytes"
        },
        {
          "internalType": "uint64",
          "name": "_nonce",
          "type": "uint64"
        },
        {
          "internalType": "bytes",
          "name": "_payload",
          "type": "bytes"
        }
      ],
      "name": "lzReceive",
      "outputs": [],
      "stateMutability": "nonpayable",
      "type": "function"
    },
    {
      "inputs": [],
      "name": "maxMintId",
      "outputs": [
        {
          "internalType": "uint256",
          "name": "",
          "type": "uint256"
        }
      ],
      "stateMutability": "view",
      "type": "function"
    },
    {
      "inputs": [],
      "name": "maxTokensPerMint",
      "outputs": [
        {
          "internalType": "uint256",
          "name": "",
          "type": "uint256"
        }
      ],
      "stateMutability": "view",
      "type": "function"
    },
    {
      "inputs": [],
      "name": "merkleRoot",
      "outputs": [
        {
          "internalType": "bytes32",
          "name": "",
          "type": "bytes32"
        }
      ],
      "stateMutability": "view",
      "type": "function"
    },
    {
      "inputs": [
        {
          "internalType": "uint16",
          "name": "",
          "type": "uint16"
        },
        {
          "internalType": "uint16",
          "name": "",
          "type": "uint16"
        }
      ],
      "name": "minDstGasLookup",
      "outputs": [
        {
          "internalType": "uint256",
          "name": "",
          "type": "uint256"
        }
      ],
      "stateMutability": "view",
      "type": "function"
    },
    {
      "inputs": [],
      "name": "minGasToTransferAndStore",
      "outputs": [
        {
          "internalType": "uint256",
          "name": "",
          "type": "uint256"
        }
      ],
      "stateMutability": "view",
      "type": "function"
    },
    {
      "inputs": [
        {
          "internalType": "uint256",
          "name": "_nbTokens",
          "type": "uint256"
        },
        {
          "internalType": "address",
          "name": "minter",
          "type": "address"
        },
        {
          "internalType": "bytes32[]",
          "name": "_merkleProof",
          "type": "bytes32[]"
        },
        {
          "internalType": "uint256",
          "name": "wlTokenCount",
          "type": "uint256"
        }
      ],
      "name": "mintGasless",
      "outputs": [],
      "stateMutability": "nonpayable",
      "type": "function"
    },
    {
      "inputs": [],
      "name": "name",
      "outputs": [
        {
          "internalType": "string",
          "name": "",
          "type": "string"
        }
      ],
      "stateMutability": "view",
      "type": "function"
    },
    {
      "inputs": [],
      "name": "nextMintId",
      "outputs": [
        {
          "internalType": "uint256",
          "name": "",
          "type": "uint256"
        }
      ],
      "stateMutability": "view",
      "type": "function"
    },
    {
      "inputs": [
        {
          "internalType": "uint16",
          "name": "_srcChainId",
          "type": "uint16"
        },
        {
          "internalType": "bytes",
          "name": "_srcAddress",
          "type": "bytes"
        },
        {
          "internalType": "uint64",
          "name": "_nonce",
          "type": "uint64"
        },
        {
          "internalType": "bytes",
          "name": "_payload",
          "type": "bytes"
        }
      ],
      "name": "nonblockingLzReceive",
      "outputs": [],
      "stateMutability": "nonpayable",
      "type": "function"
    },
    {
      "inputs": [],
      "name": "owner",
      "outputs": [
        {
          "internalType": "address",
          "name": "",
          "type": "address"
        }
      ],
      "stateMutability": "view",
      "type": "function"
    },
    {
      "inputs": [
        {
          "internalType": "uint256",
          "name": "tokenId",
          "type": "uint256"
        }
      ],
      "name": "ownerOf",
      "outputs": [
        {
          "internalType": "address",
          "name": "",
          "type": "address"
        }
      ],
      "stateMutability": "view",
      "type": "function"
    },
    {
      "inputs": [
        {
          "internalType": "uint16",
          "name": "",
          "type": "uint16"
        }
      ],
      "name": "payloadSizeLimitLookup",
      "outputs": [
        {
          "internalType": "uint256",
          "name": "",
          "type": "uint256"
        }
      ],
      "stateMutability": "view",
      "type": "function"
    },
    {
      "inputs": [],
      "name": "precrime",
      "outputs": [
        {
          "internalType": "address",
          "name": "",
          "type": "address"
        }
      ],
      "stateMutability": "view",
      "type": "function"
    },
    {
      "inputs": [],
      "name": "price",
      "outputs": [
        {
          "internalType": "uint256",
          "name": "",
          "type": "uint256"
        }
      ],
      "stateMutability": "view",
      "type": "function"
    },
    {
      "inputs": [
        {
          "internalType": "uint256",
          "name": "_nbTokens",
          "type": "uint256"
        },
        {
          "internalType": "address",
          "name": "minter",
          "type": "address"
        }
      ],
      "name": "publicMintGasless",
      "outputs": [],
      "stateMutability": "nonpayable",
      "type": "function"
    },
    {
      "inputs": [],
      "name": "renounceOwnership",
      "outputs": [],
      "stateMutability": "nonpayable",
      "type": "function"
    },
    {
      "inputs": [
        {
          "internalType": "uint16",
          "name": "_srcChainId",
          "type": "uint16"
        },
        {
          "internalType": "bytes",
          "name": "_srcAddress",
          "type": "bytes"
        },
        {
          "internalType": "uint64",
          "name": "_nonce",
          "type": "uint64"
        },
        {
          "internalType": "bytes",
          "name": "_payload",
          "type": "bytes"
        }
      ],
      "name": "retryMessage",
      "outputs": [],
      "stateMutability": "payable",
      "type": "function"
    },
    {
      "inputs": [
        {
          "internalType": "address",
          "name": "from",
          "type": "address"
        },
        {
          "internalType": "address",
          "name": "to",
          "type": "address"
        },
        {
          "internalType": "uint256",
          "name": "tokenId",
          "type": "uint256"
        }
      ],
      "name": "safeTransferFrom",
      "outputs": [],
      "stateMutability": "nonpayable",
      "type": "function"
    },
    {
      "inputs": [
        {
          "internalType": "address",
          "name": "from",
          "type": "address"
        },
        {
          "internalType": "address",
          "name": "to",
          "type": "address"
        },
        {
          "internalType": "uint256",
          "name": "tokenId",
          "type": "uint256"
        },
        {
          "internalType": "bytes",
          "name": "data",
          "type": "bytes"
        }
      ],
      "name": "safeTransferFrom",
      "outputs": [],
      "stateMutability": "nonpayable",
      "type": "function"
    },
    {
      "inputs": [
        {
          "internalType": "address",
          "name": "_from",
          "type": "address"
        },
        {
          "internalType": "uint16",
          "name": "_dstChainId",
          "type": "uint16"
        },
        {
          "internalType": "bytes",
          "name": "_toAddress",
          "type": "bytes"
        },
        {
          "internalType": "uint256[]",
          "name": "_tokenIds",
          "type": "uint256[]"
        },
        {
          "internalType": "address payable",
          "name": "_refundAddress",
          "type": "address"
        },
        {
          "internalType": "address",
          "name": "_zroPaymentAddress",
          "type": "address"
        },
        {
          "internalType": "bytes",
          "name": "_adapterParams",
          "type": "bytes"
        }
      ],
      "name": "sendBatchFrom",
      "outputs": [],
      "stateMutability": "payable",
      "type": "function"
    },
    {
      "inputs": [
        {
          "internalType": "address",
          "name": "_from",
          "type": "address"
        },
        {
          "internalType": "uint16",
          "name": "_dstChainId",
          "type": "uint16"
        },
        {
          "internalType": "bytes",
          "name": "_toAddress",
          "type": "bytes"
        },
        {
          "internalType": "uint256",
          "name": "_tokenId",
          "type": "uint256"
        },
        {
          "internalType": "address payable",
          "name": "_refundAddress",
          "type": "address"
        },
        {
          "internalType": "address",
          "name": "_zroPaymentAddress",
          "type": "address"
        },
        {
          "internalType": "bytes",
          "name": "_adapterParams",
          "type": "bytes"
        }
      ],
      "name": "sendFrom",
      "outputs": [],
      "stateMutability": "payable",
      "type": "function"
    },
    {
      "inputs": [
        {
          "internalType": "address",
          "name": "operator",
          "type": "address"
        },
        {
          "internalType": "bool",
          "name": "approved",
          "type": "bool"
        }
      ],
      "name": "setApprovalForAll",
      "outputs": [],
      "stateMutability": "nonpayable",
      "type": "function"
    },
    {
      "inputs": [
        {
          "internalType": "string",
          "name": "uri",
          "type": "string"
        }
      ],
      "name": "setBaseURI",
      "outputs": [],
      "stateMutability": "nonpayable",
      "type": "function"
    },
    {
      "inputs": [
        {
          "internalType": "address payable",
          "name": "_beneficiary",
          "type": "address"
        }
      ],
      "name": "setBeneficiary",
      "outputs": [],
      "stateMutability": "nonpayable",
      "type": "function"
    },
    {
      "inputs": [
        {
          "internalType": "uint16",
          "name": "_version",
          "type": "uint16"
        },
        {
          "internalType": "uint16",
          "name": "_chainId",
          "type": "uint16"
        },
        {
          "internalType": "uint256",
          "name": "_configType",
          "type": "uint256"
        },
        {
          "internalType": "bytes",
          "name": "_config",
          "type": "bytes"
        }
      ],
      "name": "setConfig",
      "outputs": [],
      "stateMutability": "nonpayable",
      "type": "function"
    },
    {
      "inputs": [
        {
          "internalType": "string",
          "name": "_contractURI",
          "type": "string"
        }
      ],
      "name": "setContractURI",
      "outputs": [],
      "stateMutability": "nonpayable",
      "type": "function"
    },
    {
      "inputs": [
        {
          "internalType": "uint16",
          "name": "_dstChainId",
          "type": "uint16"
        },
        {
          "internalType": "uint256",
          "name": "_dstChainIdToBatchLimit",
          "type": "uint256"
        }
      ],
      "name": "setDstChainIdToBatchLimit",
      "outputs": [],
      "stateMutability": "nonpayable",
      "type": "function"
    },
    {
      "inputs": [
        {
          "internalType": "uint16",
          "name": "_dstChainId",
          "type": "uint16"
        },
        {
          "internalType": "uint256",
          "name": "_dstChainIdToTransferGas",
          "type": "uint256"
        }
      ],
      "name": "setDstChainIdToTransferGas",
      "outputs": [],
      "stateMutability": "nonpayable",
      "type": "function"
    },
    {
      "inputs": [
        {
          "internalType": "string",
          "name": "_hiddenMetadataUri",
          "type": "string"
        }
      ],
      "name": "setHiddenMetadataUri",
      "outputs": [],
      "stateMutability": "nonpayable",
      "type": "function"
    },
    {
      "inputs": [
        {
          "internalType": "bytes32",
          "name": "_merkleRoot",
          "type": "bytes32"
        }
      ],
      "name": "setMerkleRoot",
      "outputs": [],
      "stateMutability": "nonpayable",
      "type": "function"
    },
    {
      "inputs": [
        {
          "internalType": "uint16",
          "name": "_dstChainId",
          "type": "uint16"
        },
        {
          "internalType": "uint16",
          "name": "_packetType",
          "type": "uint16"
        },
        {
          "internalType": "uint256",
          "name": "_minGas",
          "type": "uint256"
        }
      ],
      "name": "setMinDstGas",
      "outputs": [],
      "stateMutability": "nonpayable",
      "type": "function"
    },
    {
      "inputs": [
        {
          "internalType": "uint256",
          "name": "_minGasToTransferAndStore",
          "type": "uint256"
        }
      ],
      "name": "setMinGasToTransferAndStore",
      "outputs": [],
      "stateMutability": "nonpayable",
      "type": "function"
    },
    {
      "inputs": [
        {
          "internalType": "uint256",
          "name": "_startMintId",
          "type": "uint256"
        },
        {
          "internalType": "uint256",
          "name": "_endMintId",
          "type": "uint256"
        },
        {
          "internalType": "uint256",
          "name": "_maxTokensPerMint",
          "type": "uint256"
        }
      ],
      "name": "setMintRange",
      "outputs": [],
      "stateMutability": "nonpayable",
      "type": "function"
    },
    {
      "inputs": [
        {
          "internalType": "uint16",
          "name": "_dstChainId",
          "type": "uint16"
        },
        {
          "internalType": "uint256",
          "name": "_size",
          "type": "uint256"
        }
      ],
      "name": "setPayloadSizeLimit",
      "outputs": [],
      "stateMutability": "nonpayable",
      "type": "function"
    },
    {
      "inputs": [
        {
          "internalType": "address",
          "name": "_precrime",
          "type": "address"
        }
      ],
      "name": "setPrecrime",
      "outputs": [],
      "stateMutability": "nonpayable",
      "type": "function"
    },
    {
      "inputs": [
        {
          "internalType": "uint256",
          "name": "newPrice",
          "type": "uint256"
        }
      ],
      "name": "setPrice",
      "outputs": [],
      "stateMutability": "nonpayable",
      "type": "function"
    },
    {
      "inputs": [
        {
          "internalType": "uint16",
          "name": "_version",
          "type": "uint16"
        }
      ],
      "name": "setReceiveVersion",
      "outputs": [],
      "stateMutability": "nonpayable",
      "type": "function"
    },
    {
      "inputs": [
        {
          "internalType": "uint16",
          "name": "_version",
          "type": "uint16"
        }
      ],
      "name": "setSendVersion",
      "outputs": [],
      "stateMutability": "nonpayable",
      "type": "function"
    },
    {
      "inputs": [
        {
          "internalType": "address",
          "name": "_stableToken",
          "type": "address"
        }
      ],
      "name": "setStableToken",
      "outputs": [],
      "stateMutability": "nonpayable",
      "type": "function"
    },
    {
      "inputs": [
        {
          "internalType": "uint256",
          "name": "_tax",
          "type": "uint256"
        }
      ],
      "name": "setTax",
      "outputs": [],
      "stateMutability": "nonpayable",
      "type": "function"
    },
    {
      "inputs": [
        {
          "internalType": "address payable",
          "name": "_taxRecipient",
          "type": "address"
        }
      ],
      "name": "setTaxRecipient",
      "outputs": [],
      "stateMutability": "nonpayable",
      "type": "function"
    },
    {
      "inputs": [
        {
          "internalType": "uint16",
          "name": "_srcChainId",
          "type": "uint16"
        },
        {
          "internalType": "bytes",
          "name": "_path",
          "type": "bytes"
        }
      ],
      "name": "setTrustedRemote",
      "outputs": [],
      "stateMutability": "nonpayable",
      "type": "function"
    },
    {
      "inputs": [
        {
          "internalType": "uint16",
          "name": "_remoteChainId",
          "type": "uint16"
        },
        {
          "internalType": "bytes",
          "name": "_remoteAddress",
          "type": "bytes"
        }
      ],
      "name": "setTrustedRemoteAddress",
      "outputs": [],
      "stateMutability": "nonpayable",
      "type": "function"
    },
    {
      "inputs": [],
      "name": "stableToken",
      "outputs": [
        {
          "internalType": "contract IERC20",
          "name": "",
          "type": "address"
        }
      ],
      "stateMutability": "view",
      "type": "function"
    },
    {
      "inputs": [
        {
          "internalType": "bytes32",
          "name": "",
          "type": "bytes32"
        }
      ],
      "name": "storedCredits",
      "outputs": [
        {
          "internalType": "uint16",
          "name": "srcChainId",
          "type": "uint16"
        },
        {
          "internalType": "address",
          "name": "toAddress",
          "type": "address"
        },
        {
          "internalType": "uint256",
          "name": "index",
          "type": "uint256"
        },
        {
          "internalType": "bool",
          "name": "creditsRemain",
          "type": "bool"
        }
      ],
      "stateMutability": "view",
      "type": "function"
    },
    {
      "inputs": [
        {
          "internalType": "bytes4",
          "name": "interfaceId",
          "type": "bytes4"
        }
      ],
      "name": "supportsInterface",
      "outputs": [
        {
          "internalType": "bool",
          "name": "",
          "type": "bool"
        }
      ],
      "stateMutability": "view",
      "type": "function"
    },
    {
      "inputs": [],
      "name": "symbol",
      "outputs": [
        {
          "internalType": "string",
          "name": "",
          "type": "string"
        }
      ],
      "stateMutability": "view",
      "type": "function"
    },
    {
      "inputs": [],
      "name": "tax",
      "outputs": [
        {
          "internalType": "uint256",
          "name": "",
          "type": "uint256"
        }
      ],
      "stateMutability": "view",
      "type": "function"
    },
    {
      "inputs": [
        {
          "internalType": "uint256",
          "name": "tokenId",
          "type": "uint256"
        }
      ],
      "name": "tokenURI",
      "outputs": [
        {
          "internalType": "string",
          "name": "",
          "type": "string"
        }
      ],
      "stateMutability": "view",
      "type": "function"
    },
    {
      "inputs": [
        {
          "internalType": "address",
          "name": "from",
          "type": "address"
        },
        {
          "internalType": "address",
          "name": "to",
          "type": "address"
        },
        {
          "internalType": "uint256",
          "name": "tokenId",
          "type": "uint256"
        }
      ],
      "name": "transferFrom",
      "outputs": [],
      "stateMutability": "nonpayable",
      "type": "function"
    },
    {
      "inputs": [
        {
          "internalType": "address",
          "name": "newOwner",
          "type": "address"
        }
      ],
      "name": "transferOwnership",
      "outputs": [],
      "stateMutability": "nonpayable",
      "type": "function"
    },
    {
      "inputs": [
        {
          "internalType": "uint16",
          "name": "",
          "type": "uint16"
        }
      ],
      "name": "trustedRemoteLookup",
      "outputs": [
        {
          "internalType": "bytes",
          "name": "",
          "type": "bytes"
        }
      ],
      "stateMutability": "view",
      "type": "function"
    },
    {
      "inputs": [],
      "name": "withdraw",
      "outputs": [],
      "stateMutability": "nonpayable",
      "type": "function"
    },
    {
      "stateMutability": "payable",
      "type": "receive"
    }
  ],
  "bytecode": {
    "object": "0x60a06040526103e860115560006012553480156200001c57600080fd5b50604051620064d5380380620064d58339810160408190526200003f9162000409565b8a8a8a62030d40733cc6cdda760b79bafa08df41ecfa224f810dceb660018585848680806200006e33620002d7565b6001600160a01b03166080525081620000e35760405162461bcd60e51b815260206004820152602d60248201527f4f4e46543732313a206d696e476173546f5472616e73666572416e6453746f7260448201526c065206d757374206265203e203609c1b606482015260840160405180910390fd5b50600655600a620000f58382620005c6565b50600b620001048282620005c6565b5050506daaeb6d7670e522a718067333cd4e3b156200024c5780156200019a57604051633e9f1edf60e11b81523060048201526001600160a01b03831660248201526daaeb6d7670e522a718067333cd4e90637d3e3dbe906044015b600060405180830381600087803b1580156200017b57600080fd5b505af115801562000190573d6000803e3d6000fd5b505050506200024c565b6001600160a01b03821615620001eb5760405163a0af290360e01b81523060048201526001600160a01b03831660248201526daaeb6d7670e522a718067333cd4e9063a0af29039060440162000160565b604051632210724360e11b81523060048201526daaeb6d7670e522a718067333cd4e90634420e48690602401600060405180830381600087803b1580156200023257600080fd5b505af115801562000247573d6000803e3d6000fd5b505050505b5050600160105550505060138990555060148790556015869055601680546001600160a01b03191633179055601a620002868682620005c6565b50601b620002958582620005c6565b50601e80546001600160a01b039485166001600160a01b0319918216179091556011929092556017805491909316911617905550620006929650505050505050565b600080546001600160a01b038381166001600160a01b0319831681178455604051919092169283917f8be0079c531659141344cd1fd0a4f28419497f9722a3daafe3b4186f6b6457e09190a35050565b634e487b7160e01b600052604160045260246000fd5b600082601f8301126200034f57600080fd5b81516001600160401b03808211156200036c576200036c62000327565b604051601f8301601f19908116603f0116810190828211818310171562000397576200039762000327565b81604052838152602092508683858801011115620003b457600080fd5b600091505b83821015620003d85785820183015181830184015290820190620003b9565b600093810190920192909252949350505050565b80516001600160a01b03811681146200040457600080fd5b919050565b60008060008060008060008060008060006101608c8e0312156200042c57600080fd5b8b516001600160401b038111156200044357600080fd5b620004518e828f016200033d565b60208e0151909c5090506001600160401b038111156200047057600080fd5b6200047e8e828f016200033d565b9a50506200048f60408d01620003ec565b985060608c0151975060808c0151965060a08c0151955060c08c015160018060401b03811115620004bf57600080fd5b620004cd8e828f016200033d565b60e08e015190965090506001600160401b03811115620004ec57600080fd5b620004fa8e828f016200033d565b9450506200050c6101008d01620003ec565b92506101208c01519150620005256101408d01620003ec565b90509295989b509295989b9093969950565b600181811c908216806200054c57607f821691505b6020821081036200056d57634e487b7160e01b600052602260045260246000fd5b50919050565b601f821115620005c157600081815260208120601f850160051c810160208610156200059c5750805b601f850160051c820191505b81811015620005bd57828155600101620005a8565b5050505b505050565b81516001600160401b03811115620005e257620005e262000327565b620005fa81620005f3845462000537565b8462000573565b602080601f831160018114620006325760008415620006195750858301515b600019600386901b1c1916600185901b178555620005bd565b600085815260208120601f198616915b82811015620006635788860151825594840194600190910190840162000642565b5085821015620006825787850151600019600388901b60f8161c191681555b5050505050600190811b01905550565b608051615def620006e660003960008181610c6a01528181610ec5015281816111c901528181611324015281816119ae015281816123df015281816128c801528181612d1d015261416b0152615def6000f3fe60806040526004361061046b5760003560e01c80637cb647591161024a578063b353aaa711610139578063df2a5b3b116100b6578063f23536411161007a578063f235364114610e15578063f2e5b1c114610e35578063f2fde38b14610e55578063f5ecbdbc14610e75578063fa25f9b614610e9557600080fd5b8063df2a5b3b14610d8a578063e1d4c87014610daa578063e8a3d48514610dc0578063e985e9c514610dd5578063eb8d72b714610df557600080fd5b8063cbed8b9c116100fd578063cbed8b9c14610d02578063d12473a514610d22578063d1deba1f14610d42578063da323b7914610d55578063db1bc87b14610d6a57600080fd5b8063b353aaa714610c58578063b88d4fde14610c8c578063baf3292d14610cac578063c446183414610ccc578063c87b56dd14610ce257600080fd5b806399c8d556116101c7578063a6c3d1651161018b578063a6c3d16514610bbd578063a7afd9c614610bdd578063a9d75b2b14610bfd578063ab3ffb9314610c1d578063af3fb21c14610c3057600080fd5b806399c8d55614610b315780639ea5d6b114610b475780639f38369a14610b67578063a035b1fe14610b87578063a22cb46514610b9d57600080fd5b80638ffa1f2a1161020e5780638ffa1f2a14610a9c57806391b7f5ed14610abc578063938e3d7b14610adc578063950c8a7414610afc57806395d89b4114610b1c57600080fd5b80637cb64759146109f257806387c348bf14610a12578063899d7b3814610a315780638cfd8f5c14610a465780638da5cb5b14610a7e57600080fd5b80633ccfd60b1161036657806355f804b3116102e35780636aa99da3116102a75780636aa99da31461096757806370a082311461097d578063715018a61461099d5780637533d788146109b257806378e3079e146109d257600080fd5b806355f804b31461089e5780635b8c41e6146108be578063600e97f61461090d5780636352211e1461092757806366ad5c8a1461094757600080fd5b806342d65a8d1161032a57806342d65a8d1461080857806348288190146108285780634ac3f4ff1461083e5780634fdd43cb1461086b578063519056361461088b57600080fd5b80633ccfd60b146107645780633d8b38f6146107795780633f1f4fa41461079957806341f43434146107c657806342842e0e146107e857600080fd5b80631291e33e116103f457806323b872dd116103b857806323b872dd146106c45780632a205e3d146106e45780632e5bb6ff146107195780632eb4a7ab146107395780633b2c3fb61461074f57600080fd5b80631291e33e146105c8578063129559e6146105dd57806317465471146105fd5780631c31f7101461062157806322a3ecf91461064157600080fd5b8063081812fc1161043b578063081812fc14610510578063095ea7b3146105485780630b4cad4c146105685780630df374831461058857806310ddb137146105a857600080fd5b80621d35671461047757806301ffc9a71461049957806306fdde03146104ce57806307e0db17146104f057600080fd5b3661047257005b600080fd5b34801561048357600080fd5b506104976104923660046149c8565b610ec2565b005b3480156104a557600080fd5b506104b96104b4366004614a71565b6110f3565b60405190151581526020015b60405180910390f35b3480156104da57600080fd5b506104e3611116565b6040516104c59190614ade565b3480156104fc57600080fd5b5061049761050b366004614af1565b6111a8565b34801561051c57600080fd5b5061053061052b366004614b0c565b611231565b6040516001600160a01b0390911681526020016104c5565b34801561055457600080fd5b50610497610563366004614b45565b611258565b34801561057457600080fd5b50610497610583366004614b0c565b611271565b34801561059457600080fd5b506104976105a3366004614b71565b6112e4565b3480156105b457600080fd5b506104976105c3366004614af1565b611303565b3480156105d457600080fd5b5061049761135b565b3480156105e957600080fd5b506104976105f8366004614b8d565b611377565b34801561060957600080fd5b5061061360155481565b6040519081526020016104c5565b34801561062d57600080fd5b5061049761063c366004614bbd565b611623565b34801561064d57600080fd5b5061069561065c366004614b0c565b60096020526000908152604090208054600182015460029092015461ffff821692620100009092046001600160a01b0316919060ff1684565b6040805161ffff90951685526001600160a01b03909316602085015291830152151560608201526080016104c5565b3480156106d057600080fd5b506104976106df366004614bda565b61164d565b3480156106f057600080fd5b506107046106ff366004614cf4565b611678565b604080519283526020830191909152016104c5565b34801561072557600080fd5b50610497610734366004614b0c565b61169e565b34801561074557600080fd5b5061061360185481565b34801561075b57600080fd5b506104976116ab565b34801561077057600080fd5b506104976116d2565b34801561078557600080fd5b506104b9610794366004614d86565b61189e565b3480156107a557600080fd5b506106136107b4366004614af1565b60036020526000908152604090205481565b3480156107d257600080fd5b506105306daaeb6d7670e522a718067333cd4e81565b3480156107f457600080fd5b50610497610803366004614bda565b61196a565b34801561081457600080fd5b50610497610823366004614d86565b61198f565b34801561083457600080fd5b5061061360065481565b34801561084a57600080fd5b50610613610859366004614af1565b60076020526000908152604090205481565b34801561087757600080fd5b50610497610886366004614dd8565b611a15565b610497610899366004614e20565b611a29565b3480156108aa57600080fd5b506104976108b9366004614dd8565b611a40565b3480156108ca57600080fd5b506106136108d9366004614ed9565b6005602090815260009384526040808520845180860184018051928152908401958401959095209452929052825290205481565b34801561091957600080fd5b50601c546104b99060ff1681565b34801561093357600080fd5b50610530610942366004614b0c565b611a54565b34801561095357600080fd5b506104976109623660046149c8565b611ab4565b34801561097357600080fd5b5061061360135481565b34801561098957600080fd5b50610613610998366004614bbd565b611b90565b3480156109a957600080fd5b50610497611c16565b3480156109be57600080fd5b506104e36109cd366004614af1565b611c2a565b3480156109de57600080fd5b506104976109ed366004614bbd565b611cc4565b3480156109fe57600080fd5b50610497610a0d366004614b0c565b611cee565b348015610a1e57600080fd5b50601c546104b990610100900460ff1681565b348015610a3d57600080fd5b50610497611cfb565b348015610a5257600080fd5b50610613610a61366004614f36565b600260209081526000928352604080842090915290825290205481565b348015610a8a57600080fd5b506000546001600160a01b0316610530565b348015610aa857600080fd5b50610497610ab7366004614f69565b611d20565b348015610ac857600080fd5b50610497610ad7366004614b0c565b611f6a565b348015610ae857600080fd5b50610497610af7366004614dd8565b611f77565b348015610b0857600080fd5b50600454610530906001600160a01b031681565b348015610b2857600080fd5b506104e3611f8b565b348015610b3d57600080fd5b5061061360115481565b348015610b5357600080fd5b50610497610b62366004614b71565b611f9a565b348015610b7357600080fd5b506104e3610b82366004614af1565b61201d565b348015610b9357600080fd5b5061061360125481565b348015610ba957600080fd5b50610497610bb8366004614f9d565b612133565b348015610bc957600080fd5b50610497610bd8366004614d86565b612147565b348015610be957600080fd5b50610497610bf8366004614fcb565b6121d0565b348015610c0957600080fd5b50601e54610530906001600160a01b031681565b610497610c2b366004615080565b6121e6565b348015610c3c57600080fd5b50610c45600181565b60405161ffff90911681526020016104c5565b348015610c6457600080fd5b506105307f000000000000000000000000000000000000000000000000000000000000000081565b348015610c9857600080fd5b50610497610ca7366004615135565b6121f5565b348015610cb857600080fd5b50610497610cc7366004614bbd565b61221b565b348015610cd857600080fd5b5061061361271081565b348015610cee57600080fd5b506104e3610cfd366004614b0c565b612277565b348015610d0e57600080fd5b50610497610d1d3660046151a0565b6123c0565b348015610d2e57600080fd5b50610497610d3d366004614b71565b612455565b610497610d503660046149c8565b6124d9565b348015610d6157600080fd5b506104976126ef565b348015610d7657600080fd5b50610497610d85366004614bbd565b612718565b348015610d9657600080fd5b50610497610da536600461520e565b612742565b348015610db657600080fd5b5061061360145481565b348015610dcc57600080fd5b506104e36127f4565b348015610de157600080fd5b506104b9610df036600461524a565b612801565b348015610e0157600080fd5b50610497610e10366004614d86565b61282f565b348015610e2157600080fd5b50610704610e30366004615278565b612889565b348015610e4157600080fd5b50610497610e503660046152f5565b612954565b348015610e6157600080fd5b50610497610e70366004614bbd565b612c73565b348015610e8157600080fd5b506104e3610e90366004615388565b612cec565b348015610ea157600080fd5b50610613610eb0366004614af1565b60086020526000908152604090205481565b337f00000000000000000000000000000000000000000000000000000000000000006001600160a01b031614610f3f5760405162461bcd60e51b815260206004820152601e60248201527f4c7a4170703a20696e76616c696420656e64706f696e742063616c6c6572000060448201526064015b60405180910390fd5b61ffff861660009081526001602052604081208054610f5d906153d5565b80601f0160208091040260200160405190810160405280929190818152602001828054610f89906153d5565b8015610fd65780601f10610fab57610100808354040283529160200191610fd6565b820191906000526020600020905b815481529060010190602001808311610fb957829003601f168201915b50505050509050805186869050148015610ff1575060008151115b801561101957508051602082012060405161100f908890889061540f565b6040518091039020145b6110745760405162461bcd60e51b815260206004820152602660248201527f4c7a4170703a20696e76616c696420736f757263652073656e64696e6720636f6044820152651b9d1c9858dd60d21b6064820152608401610f36565b6110ea8787878080601f01602080910402602001604051908101604052809392919081815260200183838082843760009201919091525050604080516020601f8a018190048102820181019092528881528a935091508890889081908401838280828437600092019190915250612d9f92505050565b50505050505050565b60006001600160e01b031982161580611110575061111082612e18565b92915050565b6060600a8054611125906153d5565b80601f0160208091040260200160405190810160405280929190818152602001828054611151906153d5565b801561119e5780601f106111735761010080835404028352916020019161119e565b820191906000526020600020905b81548152906001019060200180831161118157829003601f168201915b5050505050905090565b6111b0612e58565b6040516307e0db1760e01b815261ffff821660048201527f00000000000000000000000000000000000000000000000000000000000000006001600160a01b0316906307e0db17906024015b600060405180830381600087803b15801561121657600080fd5b505af115801561122a573d6000803e3d6000fd5b5050505050565b600061123c82612eb2565b506000908152600e60205260409020546001600160a01b031690565b8161126281612f02565b61126c8383612fbb565b505050565b611279612e58565b600081116112df5760405162461bcd60e51b815260206004820152602d60248201527f4f4e46543732313a206d696e476173546f5472616e73666572416e6453746f7260448201526c065206d757374206265203e203609c1b6064820152608401610f36565b600655565b6112ec612e58565b61ffff909116600090815260036020526040902055565b61130b612e58565b6040516310ddb13760e01b815261ffff821660048201527f00000000000000000000000000000000000000000000000000000000000000006001600160a01b0316906310ddb137906024016111fc565b611363612e58565b601c805460ff19811660ff90911615179055565b73abcc9b596420a9e9172fd5938620e265a0f9df9233146113cc5760405162461bcd60e51b815260206004820152600f60248201526e6f6e6c7947656c61746f52656c617960881b6044820152606401610f36565b601c5460ff16151560011461143c5760405162461bcd60e51b815260206004820152603060248201527f4f4e46543732314761736c6573733a205075626c69632073616c65206861732060448201526f6e6f742073746172746564207965742160801b6064820152608401610f36565b601c5460ff6101009091041615156001146114695760405162461bcd60e51b8152600401610f369061541f565b816000036114895760405162461bcd60e51b8152600401610f3690615468565b6015548211156114ab5760405162461bcd60e51b8152600401610f36906154ad565b601454826013546114bc9190615533565b11156114da5760405162461bcd60e51b8152600401610f3690615546565b6000601254116115415760405162461bcd60e51b815260206004820152602c60248201527f4f4e46543732314761736c6573733a20796f75206e65656420746f207365742060448201526b737461626c6520707269636560a01b6064820152608401610f36565b601e546001600160a01b03166115aa5760405162461bcd60e51b815260206004820152602860248201527f4f4e46543732314761736c6573733a206e6f7420737570706f727420737461626044820152673632903a37b5b2b760c11b6064820152608401610f36565b6115b26130cb565b6004821080156115d05750601c546301000000900460ff1615156001145b15611602576115fd813060125460036115e9919061558c565b601e546001600160a01b03169291906130f6565b611615565b6116158130846012546115e9919061558c565b61161f8183613161565b5050565b61162b612e58565b601680546001600160a01b0319166001600160a01b0392909216919091179055565b826001600160a01b03811633146116675761166733612f02565b61167284848461319e565b50505050565b6000806116908787611689886131d0565b8787612889565b915091509550959350505050565b6116a6612e58565b601155565b6116b3612e58565b601c805462ff0000198116620100009182900460ff1615909102179055565b6016546001600160a01b03163314806116f557506000546001600160a01b031633145b61175f5760405162461bcd60e51b815260206004820152603560248201527f416476616e6365644f4e46543732314761736c6573733a2063616c6c6572206960448201527473206e6f74207468652062656e656669636961727960581b6064820152608401610f36565b6016546001600160a01b03166117c55760405162461bcd60e51b815260206004820152602560248201527f416476616e6365644f4e46543732313a2042656e6566696369617279206e6f74604482015264207365742160d81b6064820152608401610f36565b601e546040516370a0823160e01b81523060048201526000916001600160a01b0316906370a0823190602401602060405180830381865afa15801561180e573d6000803e3d6000fd5b505050506040513d601f19601f8201168201806040525081019061183291906155a3565b9050600061271060115483611847919061558c565b61185191906155bc565b601754601e54919250611871916001600160a01b0390811691168361321b565b60165461161f906001600160a01b031661188b83856155de565b601e546001600160a01b0316919061321b565b61ffff8316600090815260016020526040812080548291906118bf906153d5565b80601f01602080910402602001604051908101604052809291908181526020018280546118eb906153d5565b80156119385780601f1061190d57610100808354040283529160200191611938565b820191906000526020600020905b81548152906001019060200180831161191b57829003601f168201915b50505050509050838360405161194f92919061540f565b60405180910390208180519060200120149150509392505050565b826001600160a01b03811633146119845761198433612f02565b61167284848461324b565b611997612e58565b6040516342d65a8d60e01b81526001600160a01b037f000000000000000000000000000000000000000000000000000000000000000016906342d65a8d906119e79086908690869060040161561a565b600060405180830381600087803b158015611a0157600080fd5b505af11580156110ea573d6000803e3d6000fd5b611a1d612e58565b601b61161f828261567e565b6110ea878787611a38886131d0565b878787613266565b611a48612e58565b601a61161f828261567e565b6000818152600c60205260408120546001600160a01b0316806111105760405162461bcd60e51b8152602060048201526018602482015277115490cdcc8c4e881a5b9d985b1a59081d1bdad95b88125160421b6044820152606401610f36565b333014611b125760405162461bcd60e51b815260206004820152602660248201527f4e6f6e626c6f636b696e674c7a4170703a2063616c6c6572206d7573742062656044820152650204c7a4170760d41b6064820152608401610f36565b611b888686868080601f01602080910402602001604051908101604052809392919081815260200183838082843760009201919091525050604080516020601f89018190048102820181019092528781528993509150879087908190840183828082843760009201919091525061344d92505050565b505050505050565b60006001600160a01b038216611bfa5760405162461bcd60e51b815260206004820152602960248201527f4552433732313a2061646472657373207a65726f206973206e6f7420612076616044820152683634b21037bbb732b960b91b6064820152608401610f36565b506001600160a01b03166000908152600d602052604090205490565b611c1e612e58565b611c2860006135a4565b565b60016020526000908152604090208054611c43906153d5565b80601f0160208091040260200160405190810160405280929190818152602001828054611c6f906153d5565b8015611cbc5780601f10611c9157610100808354040283529160200191611cbc565b820191906000526020600020905b815481529060010190602001808311611c9f57829003601f168201915b505050505081565b611ccc612e58565b601780546001600160a01b0319166001600160a01b0392909216919091179055565b611cf6612e58565b601855565b611d03612e58565b601c805461ff001981166101009182900460ff1615909102179055565b80516020808301919091206000818152600990925260409091206002015460ff16611d8d5760405162461bcd60e51b815260206004820152601a60248201527f4f4e46543732313a206e6f20637265646974732073746f7265640000000000006044820152606401610f36565b600082806020019051810190611da39190615782565b60008481526009602052604081208054600190910154929450909250611ddf9161ffff8216916201000090046001600160a01b031690856135f4565b6000848152600960205260409020600101549091508111611e5d5760405162461bcd60e51b815260206004820152603260248201527f4f4e46543732313a206e6f7420656e6f7567682067617320746f2070726f636560448201527139b99031b932b234ba103a3930b739b332b960711b6064820152608401610f36565b81518103611ed45760008381526009602052604080822080546001600160b01b031916815560018101929092556002909101805460ff19169055517fd7be02b8dd0d27bd0517a9cb4d7469ce27df4313821ae5ec1ff69acc594ba23390611ec79085815260200190565b60405180910390a1611672565b60408051608081018252600085815260096020818152848320805461ffff8082168752620100008083046001600160a01b03908116868a019081529989019a8b52600160608a018181529d9098529590945295519651969095166001600160b01b031990951694909417949091160292909217815591519082015591516002909201805460ff1916921515929092179091555050565b611f72612e58565b601255565b611f7f612e58565b601961161f828261567e565b6060600b8054611125906153d5565b611fa2612e58565b600081116120065760405162461bcd60e51b815260206004820152602b60248201527f4f4e46543732313a20647374436861696e4964546f42617463684c696d69742060448201526a06d757374206265203e20360ac1b6064820152608401610f36565b61ffff909116600090815260076020526040902055565b61ffff8116600090815260016020526040812080546060929190612040906153d5565b80601f016020809104026020016040519081016040528092919081815260200182805461206c906153d5565b80156120b95780601f1061208e576101008083540402835291602001916120b9565b820191906000526020600020905b81548152906001019060200180831161209c57829003601f168201915b5050505050905080516000036121115760405162461bcd60e51b815260206004820152601d60248201527f4c7a4170703a206e6f20747275737465642070617468207265636f72640000006044820152606401610f36565b61212c60006014835161212491906155de565b839190613640565b9392505050565b8161213d81612f02565b61126c838361374d565b61214f612e58565b8181306040516020016121649392919061583c565b60408051601f1981840301815291815261ffff851660009081526001602052209061218f908261567e565b507f8c0400cfe2d1199b1a725c78960bcc2a344d869b80590d0f2bd005db15a572ce8383836040516121c39392919061561a565b60405180910390a1505050565b6121d8612e58565b601392909255601455601555565b6110ea87878787878787613266565b836001600160a01b038116331461220f5761220f33612f02565b61122a85858585613758565b612223612e58565b600480546001600160a01b0319166001600160a01b0383169081179091556040519081527f5db758e995a17ec1ad84bdef7e8c3293a0bd6179bcce400dff5d4c3d87db726b9060200160405180910390a150565b60606122828261378a565b6122e65760405162461bcd60e51b815260206004820152602f60248201527f4552433732314d657461646174613a2055524920717565727920666f72206e6f60448201526e3732bc34b9ba32b73a103a37b5b2b760891b6064820152608401610f36565b601c5462010000900460ff1661238857601b8054612303906153d5565b80601f016020809104026020016040519081016040528092919081815260200182805461232f906153d5565b801561237c5780601f106123515761010080835404028352916020019161237c565b820191906000526020600020905b81548152906001019060200180831161235f57829003601f168201915b50505050509050919050565b6123906137a7565b612399836137b6565b6040516020016123aa929190615862565b6040516020818303038152906040529050919050565b6123c8612e58565b6040516332fb62e760e21b81526001600160a01b037f0000000000000000000000000000000000000000000000000000000000000000169063cbed8b9c9061241c9088908890889088908890600401615891565b600060405180830381600087803b15801561243657600080fd5b505af115801561244a573d6000803e3d6000fd5b505050505050505050565b61245d612e58565b600081116124c25760405162461bcd60e51b815260206004820152602c60248201527f4f4e46543732313a20647374436861696e4964546f5472616e7366657247617360448201526b0206d757374206265203e20360a41b6064820152608401610f36565b61ffff909116600090815260086020526040902055565b61ffff861660009081526005602052604080822090516124fc908890889061540f565b90815260408051602092819003830190206001600160401b0387166000908152925290205490508061257c5760405162461bcd60e51b815260206004820152602360248201527f4e6f6e626c6f636b696e674c7a4170703a206e6f2073746f726564206d65737360448201526261676560e81b6064820152608401610f36565b80838360405161258d92919061540f565b6040518091039020146125ec5760405162461bcd60e51b815260206004820152602160248201527f4e6f6e626c6f636b696e674c7a4170703a20696e76616c6964207061796c6f616044820152601960fa1b6064820152608401610f36565b61ffff8716600090815260056020526040808220905161260f908990899061540f565b90815260408051602092819003830181206001600160401b038916600090815290845282902093909355601f880182900482028301820190528682526126a7918991899089908190840183828082843760009201919091525050604080516020601f8a018190048102820181019092528881528a93509150889088908190840183828082843760009201919091525061344d92505050565b7fc264d91f3adc5588250e1551f547752ca0cfa8f6b530d243b9f9f4cab10ea8e587878787856040516126de9594939291906158bf565b60405180910390a150505050505050565b6126f7612e58565b601c805463ff00000019811663010000009182900460ff1615909102179055565b612720612e58565b601e80546001600160a01b0319166001600160a01b0392909216919091179055565b61274a612e58565b600081116127925760405162461bcd60e51b81526020600482015260156024820152744c7a4170703a20696e76616c6964206d696e47617360581b6044820152606401610f36565b61ffff83811660008181526002602090815260408083209487168084529482529182902085905581519283528201929092529081018290527f9d5c7c0b934da8fefa9c7760c98383778a12dfbfc0c3b3106518f43fb9508ac0906060016121c3565b60198054611c43906153d5565b6001600160a01b039182166000908152600f6020908152604080832093909416825291909152205460ff1690565b612837612e58565b61ffff831660009081526001602052604090206128558284836158fa565b507ffa41487ad5d6728f0b19276fa1eddc16558578f5109fc39d2dc33c3230470dab8383836040516121c39392919061561a565b600080600086866040516020016128a19291906159f4565b60408051601f198184030181529082905263040a7bb160e41b825291506001600160a01b037f000000000000000000000000000000000000000000000000000000000000000016906340a7bb1090612905908b90309086908b908b90600401615a22565b6040805180830381865afa158015612921573d6000803e3d6000fd5b505050506040513d601f19601f820116820180604052508101906129459190615a76565b92509250509550959350505050565b73abcc9b596420a9e9172fd5938620e265a0f9df9233146129a95760405162461bcd60e51b815260206004820152600f60248201526e6f6e6c7947656c61746f52656c617960881b6044820152606401610f36565b601c5460ff6101009091041615156001146129d65760405162461bcd60e51b8152600401610f369061541f565b846000036129f65760405162461bcd60e51b8152600401610f3690615468565b601554851115612a185760405162461bcd60e51b8152600401610f36906154ad565b60145485601354612a299190615533565b1115612a475760405162461bcd60e51b8152600401610f3690615546565b6001600160a01b0384166000908152601d60205260409020548190612a7190879061ffff16615533565b1115612ae55760405162461bcd60e51b815260206004820152603d60248201527f4f4e46543732314761736c6573733a2063616e6e6f74206d696e74206d6f726560448201527f207468616e20796f75722077686974656c697374656420616d6f756e740000006064820152608401610f36565b6000612b64848480806020026020016040519081016040528093929190818152602001838360200280828437600092019190915250506018546040516bffffffffffffffffffffffff1960608c901b16602082015260348101889052909250605401905060405160208183030381529060405280519060200120613848565b9050600181151514612bc45760405162461bcd60e51b8152602060048201526024808201527f4f4e46543732314761736c6573733a20496e76616c6964204d65726b6c6520506044820152633937b7b360e11b6064820152608401610f36565b612bcc6130cb565b600486108015612bea5750601c546301000000900460ff1615156001145b15612c0857612c03853060125460036115e9919061558c565b612c1b565b612c1b8530886012546115e9919061558c565b612c258587613161565b6001600160a01b0385166000908152601d602052604081208054889290612c5190849061ffff16615a9a565b92506101000a81548161ffff021916908361ffff160217905550505050505050565b612c7b612e58565b6001600160a01b038116612ce05760405162461bcd60e51b815260206004820152602660248201527f4f776e61626c653a206e6577206f776e657220697320746865207a65726f206160448201526564647265737360d01b6064820152608401610f36565b612ce9816135a4565b50565b604051633d7b2f6f60e21b815261ffff808616600483015284166024820152306044820152606481018290526060907f00000000000000000000000000000000000000000000000000000000000000006001600160a01b03169063f5ecbdbc90608401600060405180830381865afa158015612d6c573d6000803e3d6000fd5b505050506040513d6000823e601f3d908101601f19168201604052612d949190810190615abc565b90505b949350505050565b600080612e025a60966366ad5c8a60e01b89898989604051602401612dc79493929190615af0565b60408051601f198184030181529190526020810180516001600160e01b03166001600160e01b0319909316929092179091523092919061385e565b9150915081611b8857611b8886868686856138e8565b60006001600160e01b031982166380ac58cd60e01b1480612e4957506001600160e01b03198216635b5e139f60e01b145b80611110575061111082613985565b6000546001600160a01b03163314611c285760405162461bcd60e51b815260206004820181905260248201527f4f776e61626c653a2063616c6c6572206973206e6f7420746865206f776e65726044820152606401610f36565b612ebb8161378a565b612ce95760405162461bcd60e51b8152602060048201526018602482015277115490cdcc8c4e881a5b9d985b1a59081d1bdad95b88125160421b6044820152606401610f36565b6daaeb6d7670e522a718067333cd4e3b15612ce957604051633185c44d60e21b81523060048201526001600160a01b03821660248201526daaeb6d7670e522a718067333cd4e9063c617113490604401602060405180830381865afa158015612f6f573d6000803e3d6000fd5b505050506040513d601f19601f82011682018060405250810190612f939190615b2e565b612ce957604051633b79c77360e21b81526001600160a01b0382166004820152602401610f36565b6000612fc682611a54565b9050806001600160a01b0316836001600160a01b0316036130335760405162461bcd60e51b815260206004820152602160248201527f4552433732313a20617070726f76616c20746f2063757272656e74206f776e656044820152603960f91b6064820152608401610f36565b336001600160a01b038216148061304f575061304f8133612801565b6130c15760405162461bcd60e51b815260206004820152603d60248201527f4552433732313a20617070726f76652063616c6c6572206973206e6f7420746f60448201527f6b656e206f776e6572206f7220617070726f76656420666f7220616c6c0000006064820152608401610f36565b61126c83836139ba565b611c2836604719013560601c36601f19013536603319013560601c6001600160a01b03169190613a28565b6040516001600160a01b03808516602483015283166044820152606481018290526116729085906323b872dd60e01b906084015b60408051601f198184030181529190526020810180516001600160e01b03166001600160e01b031990931692909217909152613a77565b60135460005b82811015613196576131848461317c84615b4b565b935083613b49565b8061318e81615b4b565b915050613167565b506013555050565b6131a9335b82613cb6565b6131c55760405162461bcd60e51b8152600401610f3690615b64565b61126c838383613d14565b6040805160018082528183019092526060916000919060208083019080368337019050509050828160008151811061320a5761320a615bb1565b602090810291909101015292915050565b6040516001600160a01b03831660248201526044810182905261126c90849063a9059cbb60e01b9060640161312a565b61126c838383604051806020016040528060008152506121f5565b60008451116132b75760405162461bcd60e51b815260206004820152601a60248201527f4c7a4170703a20746f6b656e4964735b5d20697320656d7074790000000000006044820152606401610f36565b8351600114806132db575061ffff8616600090815260076020526040902054845111155b61333b5760405162461bcd60e51b815260206004820152602b60248201527f4f4e46543732313a2062617463682073697a652065786365656473206473742060448201526a18985d18da081b1a5b5a5d60aa1b6064820152608401610f36565b60005b845181101561337e5761336c88888888858151811061335f5761335f615bb1565b6020026020010151613e78565b8061337681615b4b565b91505061333e565b50600085856040516020016133949291906159f4565b60405160208183030381529060405290506133d9876001848851600860008d61ffff1661ffff168152602001908152602001600020546133d4919061558c565b613f63565b6133e7878286868634614042565b856040516133f59190615bc7565b6040518091039020886001600160a01b03168861ffff167fe1b87c47fdeb4f9cbadbca9df3af7aba453bb6e501075d0440d88125b711522a8860405161343b9190615be3565b60405180910390a45050505050505050565b600080828060200190518101906134649190615782565b60148201519193509150600061347c888383866135f4565b905082518110156135505784516020808701919091206040805160808101825261ffff808d1682526001600160a01b0380881683870190815283850188815260016060860181815260008981526009909a529887902095518654935190941662010000026001600160b01b03199093169390941692909217178355519082015592516002909301805493151560ff199094169390931790925590517f10e0b70d256bccc84b7027506978bd8b68984a870788b93b479def144c839ad7906135469083908990615bf6565b60405180910390a1505b816001600160a01b0316876040516135689190615bc7565b60405180910390208961ffff167f5b821db8a46f8ecbe1941ba2f51cfeea9643268b56631f70d45e2a745d9902658660405161343b9190615be3565b600080546001600160a01b038381166001600160a01b0319831681178455604051919092169283917f8be0079c531659141344cd1fd0a4f28419497f9722a3daafe3b4186f6b6457e09190a35050565b6000825b8251811015612d94576006545a10612d945761362e868685848151811061362157613621615bb1565b60200260200101516141e7565b8061363881615b4b565b9150506135f8565b60608161364e81601f615533565b101561368d5760405162461bcd60e51b815260206004820152600e60248201526d736c6963655f6f766572666c6f7760901b6044820152606401610f36565b6136978284615533565b845110156136db5760405162461bcd60e51b8152602060048201526011602482015270736c6963655f6f75744f66426f756e647360781b6044820152606401610f36565b6060821580156136fa5760405191506000825260208201604052613744565b6040519150601f8416801560200281840101858101878315602002848b0101015b8183101561373357805183526020928301920161371b565b5050858452601f01601f1916604052505b50949350505050565b61161f338383614247565b6137623383613cb6565b61377e5760405162461bcd60e51b8152600401610f3690615b64565b61167284848484614315565b6000908152600c60205260409020546001600160a01b0316151590565b6060601a8054611125906153d5565b606060006137c383614348565b60010190506000816001600160401b038111156137e2576137e2614c1b565b6040519080825280601f01601f19166020018201604052801561380c576020820181803683370190505b5090508181016020015b600019016f181899199a1a9b1b9c1cb0b131b232b360811b600a86061a8153600a850494508461381657509392505050565b6000826138558584614420565b14949350505050565b6000606060008060008661ffff166001600160401b0381111561388357613883614c1b565b6040519080825280601f01601f1916602001820160405280156138ad576020820181803683370190505b50905060008087516020890160008d8df191503d9250868311156138cf578692505b828152826000602083013e909890975095505050505050565b8180519060200120600560008761ffff1661ffff168152602001908152602001600020856040516139199190615bc7565b9081526040805191829003602090810183206001600160401b0388166000908152915220919091557fe183f33de2837795525b4792ca4cd60535bd77c53b7e7030060bfcf5734d6b0c906139769087908790879087908790615c0f565b60405180910390a15050505050565b60006001600160e01b031982166322bac5d960e01b148061111057506301ffc9a760e01b6001600160e01b0319831614611110565b6000818152600e6020526040902080546001600160a01b0319166001600160a01b03841690811790915581906139ef82611a54565b6001600160a01b03167f8c5be1e5ebec7d5bd14f71427d1e84f3dd0314c0f7b2291e5b200ac8c7c3b92560405160405180910390a45050565b80600003613a3557505050565b6001600160a01b03831673eeeeeeeeeeeeeeeeeeeeeeeeeeeeeeeeeeeeeeee14613a6d5761126c6001600160a01b038416838361321b565b61126c828261446d565b6000613acc826040518060400160405280602081526020017f5361666545524332303a206c6f772d6c6576656c2063616c6c206661696c6564815250856001600160a01b03166145869092919063ffffffff16565b80519091501561126c5780806020019051810190613aea9190615b2e565b61126c5760405162461bcd60e51b815260206004820152602a60248201527f5361666545524332303a204552433230206f7065726174696f6e20646964206e6044820152691bdd081cdd58d8d9595960b21b6064820152608401610f36565b6001600160a01b038216613b9f5760405162461bcd60e51b815260206004820181905260248201527f4552433732313a206d696e7420746f20746865207a65726f20616464726573736044820152606401610f36565b613ba88161378a565b15613bf55760405162461bcd60e51b815260206004820152601c60248201527f4552433732313a20746f6b656e20616c7265616479206d696e746564000000006044820152606401610f36565b613bfe8161378a565b15613c4b5760405162461bcd60e51b815260206004820152601c60248201527f4552433732313a20746f6b656e20616c7265616479206d696e746564000000006044820152606401610f36565b6001600160a01b0382166000818152600d6020908152604080832080546001019055848352600c90915280822080546001600160a01b0319168417905551839291907fddf252ad1be2c89b69c2b068fc378daa952ba7f163c4a11628f55a4df523b3ef908290a45050565b600080613cc283611a54565b9050806001600160a01b0316846001600160a01b03161480613ce95750613ce98185612801565b80612d975750836001600160a01b0316613d0284611231565b6001600160a01b031614949350505050565b826001600160a01b0316613d2782611a54565b6001600160a01b031614613d4d5760405162461bcd60e51b8152600401610f3690615c61565b6001600160a01b038216613daf5760405162461bcd60e51b8152602060048201526024808201527f4552433732313a207472616e7366657220746f20746865207a65726f206164646044820152637265737360e01b6064820152608401610f36565b826001600160a01b0316613dc282611a54565b6001600160a01b031614613de85760405162461bcd60e51b8152600401610f3690615c61565b6000818152600e6020908152604080832080546001600160a01b03199081169091556001600160a01b03878116808652600d8552838620805460001901905590871680865283862080546001019055868652600c90945282852080549092168417909155905184937fddf252ad1be2c89b69c2b068fc378daa952ba7f163c4a11628f55a4df523b3ef91a4505050565b613e81336131a3565b613ee45760405162461bcd60e51b815260206004820152602e60248201527f4f4e46543732313a2073656e642063616c6c6572206973206e6f74206f776e6560448201526d1c881b9bdc88185c1c1c9bdd995960921b6064820152608401610f36565b836001600160a01b0316613ef782611a54565b6001600160a01b031614613f585760405162461bcd60e51b815260206004820152602260248201527f4f4e46543732313a2073656e642066726f6d20696e636f7272656374206f776e60448201526132b960f11b6064820152608401610f36565b611672843083613d14565b6000613f6e83614595565b61ffff808716600090815260026020908152604080832093891683529290529081205491925090613fa0908490615533565b905060008111613ff25760405162461bcd60e51b815260206004820152601a60248201527f4c7a4170703a206d696e4761734c696d6974206e6f74207365740000000000006044820152606401610f36565b80821015611b885760405162461bcd60e51b815260206004820152601b60248201527f4c7a4170703a20676173206c696d697420697320746f6f206c6f7700000000006044820152606401610f36565b61ffff861660009081526001602052604081208054614060906153d5565b80601f016020809104026020016040519081016040528092919081815260200182805461408c906153d5565b80156140d95780601f106140ae576101008083540402835291602001916140d9565b820191906000526020600020905b8154815290600101906020018083116140bc57829003601f168201915b50505050509050805160000361414a5760405162461bcd60e51b815260206004820152603060248201527f4c7a4170703a2064657374696e6174696f6e20636861696e206973206e6f742060448201526f61207472757374656420736f7572636560801b6064820152608401610f36565b6141558787516145f1565b60405162c5803160e81b81526001600160a01b037f0000000000000000000000000000000000000000000000000000000000000000169063c58031009084906141ac908b9086908c908c908c908c90600401615ca6565b6000604051808303818588803b1580156141c557600080fd5b505af11580156141d9573d6000803e3d6000fd5b505050505050505050505050565b6141f08161378a565b158061421c57506142008161378a565b801561421c57503061421182611a54565b6001600160a01b0316145b61422557600080fd5b61422e8161378a565b61423c5761126c8282614662565b61126c308383613d14565b816001600160a01b0316836001600160a01b0316036142a85760405162461bcd60e51b815260206004820152601960248201527f4552433732313a20617070726f766520746f2063616c6c6572000000000000006044820152606401610f36565b6001600160a01b038381166000818152600f6020908152604080832094871680845294825291829020805460ff191686151590811790915591519182527f17307eab39ab6107e8899845ad3d59bd9653f200f220920489ca2b5937696c31910160405180910390a3505050565b614320848484613d14565b61432c8484848461467c565b6116725760405162461bcd60e51b8152600401610f3690615d0d565b60008072184f03e93ff9f4daa797ed6e38ed64bf6a1f0160401b83106143875772184f03e93ff9f4daa797ed6e38ed64bf6a1f0160401b830492506040015b6d04ee2d6d415b85acef810000000083106143b3576d04ee2d6d415b85acef8100000000830492506020015b662386f26fc1000083106143d157662386f26fc10000830492506010015b6305f5e10083106143e9576305f5e100830492506008015b61271083106143fd57612710830492506004015b6064831061440f576064830492506002015b600a83106111105760010192915050565b600081815b8451811015614465576144518286838151811061444457614444615bb1565b602002602001015161477a565b91508061445d81615b4b565b915050614425565b509392505050565b804710156144bd5760405162461bcd60e51b815260206004820152601d60248201527f416464726573733a20696e73756666696369656e742062616c616e63650000006044820152606401610f36565b6000826001600160a01b03168260405160006040518083038185875af1925050503d806000811461450a576040519150601f19603f3d011682016040523d82523d6000602084013e61450f565b606091505b505090508061126c5760405162461bcd60e51b815260206004820152603a60248201527f416464726573733a20756e61626c6520746f2073656e642076616c75652c207260448201527f6563697069656e74206d617920686176652072657665727465640000000000006064820152608401610f36565b6060612d9784846000856147a6565b60006022825110156145e95760405162461bcd60e51b815260206004820152601c60248201527f4c7a4170703a20696e76616c69642061646170746572506172616d73000000006044820152606401610f36565b506022015190565b61ffff82166000908152600360205260408120549081900361461257506127105b8082111561126c5760405162461bcd60e51b815260206004820181905260248201527f4c7a4170703a207061796c6f61642073697a6520697320746f6f206c617267656044820152606401610f36565b61161f828260405180602001604052806000815250614881565b60006001600160a01b0384163b1561477257604051630a85bd0160e11b81526001600160a01b0385169063150b7a02906146c0903390899088908890600401615d5f565b6020604051808303816000875af19250505080156146fb575060408051601f3d908101601f191682019092526146f891810190615d9c565b60015b614758573d808015614729576040519150601f19603f3d011682016040523d82523d6000602084013e61472e565b606091505b5080516000036147505760405162461bcd60e51b8152600401610f3690615d0d565b805181602001fd5b6001600160e01b031916630a85bd0160e11b149050612d97565b506001612d97565b600081831061479657600082815260208490526040902061212c565b5060009182526020526040902090565b6060824710156148075760405162461bcd60e51b815260206004820152602660248201527f416464726573733a20696e73756666696369656e742062616c616e636520666f6044820152651c8818d85b1b60d21b6064820152608401610f36565b600080866001600160a01b031685876040516148239190615bc7565b60006040518083038185875af1925050503d8060008114614860576040519150601f19603f3d011682016040523d82523d6000602084013e614865565b606091505b5091509150614876878383876148b4565b979650505050505050565b61488b8383613b49565b614898600084848461467c565b61126c5760405162461bcd60e51b8152600401610f3690615d0d565b6060831561492357825160000361491c576001600160a01b0385163b61491c5760405162461bcd60e51b815260206004820152601d60248201527f416464726573733a2063616c6c20746f206e6f6e2d636f6e74726163740000006044820152606401610f36565b5081612d97565b612d9783838151156149385781518083602001fd5b8060405162461bcd60e51b8152600401610f369190614ade565b803561ffff8116811461496457600080fd5b919050565b60008083601f84011261497b57600080fd5b5081356001600160401b0381111561499257600080fd5b6020830191508360208285010111156149aa57600080fd5b9250929050565b80356001600160401b038116811461496457600080fd5b600080600080600080608087890312156149e157600080fd5b6149ea87614952565b955060208701356001600160401b0380821115614a0657600080fd5b614a128a838b01614969565b9097509550859150614a2660408a016149b1565b94506060890135915080821115614a3c57600080fd5b50614a4989828a01614969565b979a9699509497509295939492505050565b6001600160e01b031981168114612ce957600080fd5b600060208284031215614a8357600080fd5b813561212c81614a5b565b60005b83811015614aa9578181015183820152602001614a91565b50506000910152565b60008151808452614aca816020860160208601614a8e565b601f01601f19169290920160200192915050565b60208152600061212c6020830184614ab2565b600060208284031215614b0357600080fd5b61212c82614952565b600060208284031215614b1e57600080fd5b5035919050565b6001600160a01b0381168114612ce957600080fd5b803561496481614b25565b60008060408385031215614b5857600080fd5b8235614b6381614b25565b946020939093013593505050565b60008060408385031215614b8457600080fd5b614b6383614952565b60008060408385031215614ba057600080fd5b823591506020830135614bb281614b25565b809150509250929050565b600060208284031215614bcf57600080fd5b813561212c81614b25565b600080600060608486031215614bef57600080fd5b8335614bfa81614b25565b92506020840135614c0a81614b25565b929592945050506040919091013590565b634e487b7160e01b600052604160045260246000fd5b604051601f8201601f191681016001600160401b0381118282101715614c5957614c59614c1b565b604052919050565b60006001600160401b03821115614c7a57614c7a614c1b565b50601f01601f191660200190565b6000614c9b614c9684614c61565b614c31565b9050828152838383011115614caf57600080fd5b828260208301376000602084830101529392505050565b600082601f830112614cd757600080fd5b61212c83833560208501614c88565b8015158114612ce957600080fd5b600080600080600060a08688031215614d0c57600080fd5b614d1586614952565b945060208601356001600160401b0380821115614d3157600080fd5b614d3d89838a01614cc6565b95506040880135945060608801359150614d5682614ce6565b90925060808701359080821115614d6c57600080fd5b50614d7988828901614cc6565b9150509295509295909350565b600080600060408486031215614d9b57600080fd5b614da484614952565b925060208401356001600160401b03811115614dbf57600080fd5b614dcb86828701614969565b9497909650939450505050565b600060208284031215614dea57600080fd5b81356001600160401b03811115614e0057600080fd5b8201601f81018413614e1157600080fd5b612d9784823560208401614c88565b600080600080600080600060e0888a031215614e3b57600080fd5b8735614e4681614b25565b9650614e5460208901614952565b955060408801356001600160401b0380821115614e7057600080fd5b614e7c8b838c01614cc6565b965060608a0135955060808a01359150614e9582614b25565b90935060a089013590614ea782614b25565b90925060c08901359080821115614ebd57600080fd5b50614eca8a828b01614cc6565b91505092959891949750929550565b600080600060608486031215614eee57600080fd5b614ef784614952565b925060208401356001600160401b03811115614f1257600080fd5b614f1e86828701614cc6565b925050614f2d604085016149b1565b90509250925092565b60008060408385031215614f4957600080fd5b614f5283614952565b9150614f6060208401614952565b90509250929050565b600060208284031215614f7b57600080fd5b81356001600160401b03811115614f9157600080fd5b612d9784828501614cc6565b60008060408385031215614fb057600080fd5b8235614fbb81614b25565b91506020830135614bb281614ce6565b600080600060608486031215614fe057600080fd5b505081359360208301359350604090920135919050565b60006001600160401b0382111561501057615010614c1b565b5060051b60200190565b600082601f83011261502b57600080fd5b8135602061503b614c9683614ff7565b82815260059290921b8401810191818101908684111561505a57600080fd5b8286015b84811015615075578035835291830191830161505e565b509695505050505050565b600080600080600080600060e0888a03121561509b57600080fd5b87356150a681614b25565b96506150b460208901614952565b955060408801356001600160401b03808211156150d057600080fd5b6150dc8b838c01614cc6565b965060608a01359150808211156150f257600080fd5b6150fe8b838c0161501a565b955060808a0135915061511082614b25565b81945061511f60a08b01614b3a565b935060c08a0135915080821115614ebd57600080fd5b6000806000806080858703121561514b57600080fd5b843561515681614b25565b9350602085013561516681614b25565b92506040850135915060608501356001600160401b0381111561518857600080fd5b61519487828801614cc6565b91505092959194509250565b6000806000806000608086880312156151b857600080fd5b6151c186614952565b94506151cf60208701614952565b93506040860135925060608601356001600160401b038111156151f157600080fd5b6151fd88828901614969565b969995985093965092949392505050565b60008060006060848603121561522357600080fd5b61522c84614952565b925061523a60208501614952565b9150604084013590509250925092565b6000806040838503121561525d57600080fd5b823561526881614b25565b91506020830135614bb281614b25565b600080600080600060a0868803121561529057600080fd5b61529986614952565b945060208601356001600160401b03808211156152b557600080fd5b6152c189838a01614cc6565b955060408801359150808211156152d757600080fd5b6152e389838a0161501a565b945060608801359150614d5682614ce6565b60008060008060006080868803121561530d57600080fd5b85359450602086013561531f81614b25565b935060408601356001600160401b038082111561533b57600080fd5b818801915088601f83011261534f57600080fd5b81358181111561535e57600080fd5b8960208260051b850101111561537357600080fd5b96999598505060200195606001359392505050565b6000806000806080858703121561539e57600080fd5b6153a785614952565b93506153b560208601614952565b925060408501356153c581614b25565b9396929550929360600135925050565b600181811c908216806153e957607f821691505b60208210810361540957634e487b7160e01b600052602260045260246000fd5b50919050565b8183823760009101908152919050565b60208082526029908201527f4f4e46543732314761736c6573733a2053616c6520686173206e6f742073746160408201526872746564207965742160b81b606082015260800190565b60208082526025908201527f4f4e46543732314761736c6573733a2043616e6e6f74206d696e74203020746f6040820152646b656e732160d81b606082015260800190565b6020808252604a908201527f4f4e46543732314761736c6573733a20596f752063616e6e6f74206d696e742060408201527f6d6f7265207468616e206d6178546f6b656e735065724d696e7420746f6b656e60608201526973206174206f6e63652160b01b608082015260a00190565b634e487b7160e01b600052601160045260246000fd5b808201808211156111105761111061551d565b60208082526026908201527f4f4e46543732314761736c6573733a206d6178206d696e74206c696d69742072604082015265195858da195960d21b606082015260800190565b80820281158282048414176111105761111061551d565b6000602082840312156155b557600080fd5b5051919050565b6000826155d957634e487b7160e01b600052601260045260246000fd5b500490565b818103818111156111105761111061551d565b81835281816020850137506000828201602090810191909152601f909101601f19169091010190565b61ffff84168152604060208201526000612d946040830184866155f1565b601f82111561126c57600081815260208120601f850160051c8101602086101561565f5750805b601f850160051c820191505b81811015611b885782815560010161566b565b81516001600160401b0381111561569757615697614c1b565b6156ab816156a584546153d5565b84615638565b602080601f8311600181146156e057600084156156c85750858301515b600019600386901b1c1916600185901b178555611b88565b600085815260208120601f198616915b8281101561570f578886015182559484019460019091019084016156f0565b508582101561572d5787850151600019600388901b60f8161c191681555b5050505050600190811b01905550565b600082601f83011261574e57600080fd5b815161575c614c9682614c61565b81815284602083860101111561577157600080fd5b612d97826020830160208701614a8e565b6000806040838503121561579557600080fd5b82516001600160401b03808211156157ac57600080fd5b6157b88683870161573d565b93506020915081850151818111156157cf57600080fd5b85019050601f810186136157e257600080fd5b80516157f0614c9682614ff7565b81815260059190911b8201830190838101908883111561580f57600080fd5b928401925b8284101561582d57835182529284019290840190615814565b80955050505050509250929050565b8284823760609190911b6bffffffffffffffffffffffff19169101908152601401919050565b60008351615874818460208801614a8e565b835190830190615888818360208801614a8e565b01949350505050565b600061ffff8088168352808716602084015250846040830152608060608301526148766080830184866155f1565b61ffff861681526080602082015260006158dd6080830186886155f1565b6001600160401b0394909416604083015250606001529392505050565b6001600160401b0383111561591157615911614c1b565b6159258361591f83546153d5565b83615638565b6000601f84116001811461595957600085156159415750838201355b600019600387901b1c1916600186901b17835561122a565b600083815260209020601f19861690835b8281101561598a578685013582556020948501946001909201910161596a565b50868210156159a75760001960f88860031b161c19848701351681555b505060018560011b0183555050505050565b600081518084526020808501945080840160005b838110156159e9578151875295820195908201906001016159cd565b509495945050505050565b604081526000615a076040830185614ab2565b8281036020840152615a1981856159b9565b95945050505050565b61ffff861681526001600160a01b038516602082015260a060408201819052600090615a5090830186614ab2565b84151560608401528281036080840152615a6a8185614ab2565b98975050505050505050565b60008060408385031215615a8957600080fd5b505080516020909101519092909150565b61ffff818116838216019080821115615ab557615ab561551d565b5092915050565b600060208284031215615ace57600080fd5b81516001600160401b03811115615ae457600080fd5b612d978482850161573d565b61ffff85168152608060208201526000615b0d6080830186614ab2565b6001600160401b038516604084015282810360608401526148768185614ab2565b600060208284031215615b4057600080fd5b815161212c81614ce6565b600060018201615b5d57615b5d61551d565b5060010190565b6020808252602d908201527f4552433732313a2063616c6c6572206973206e6f7420746f6b656e206f776e6560408201526c1c881bdc88185c1c1c9bdd9959609a1b606082015260800190565b634e487b7160e01b600052603260045260246000fd5b60008251615bd9818460208701614a8e565b9190910192915050565b60208152600061212c60208301846159b9565b828152604060208201526000612d976040830184614ab2565b61ffff8616815260a060208201526000615c2c60a0830187614ab2565b6001600160401b03861660408401528281036060840152615c4d8186614ab2565b90508281036080840152615a6a8185614ab2565b60208082526025908201527f4552433732313a207472616e736665722066726f6d20696e636f72726563742060408201526437bbb732b960d91b606082015260800190565b61ffff8716815260c060208201526000615cc360c0830188614ab2565b8281036040840152615cd58188614ab2565b6001600160a01b0387811660608601528616608085015283810360a08501529050615d008185614ab2565b9998505050505050505050565b60208082526032908201527f4552433732313a207472616e7366657220746f206e6f6e20455243373231526560408201527131b2b4bb32b91034b6b83632b6b2b73a32b960711b606082015260800190565b6001600160a01b0385811682528416602082015260408101839052608060608201819052600090615d9290830184614ab2565b9695505050505050565b600060208284031215615dae57600080fd5b815161212c81614a5b56fea26469706673582212208a5a1cb0ac0780d80c83d8d31d200e5c9f060bf47c33f74580e0b687e98c789264736f6c63430008110033",
    "linkReferences": {}
  },
  "methodIdentifiers": {
    "DEFAULT_PAYLOAD_SIZE_LIMIT()": "c4461834",
    "FUNCTION_TYPE_SEND()": "af3fb21c",
    "OPERATOR_FILTER_REGISTRY()": "41f43434",
    "_publicSaleStarted()": "600e97f6",
    "_saleStarted()": "87c348bf",
    "approve(address,uint256)": "095ea7b3",
    "balanceOf(address)": "70a08231",
    "clearCredits(bytes)": "8ffa1f2a",
    "contractURI()": "e8a3d485",
    "dstChainIdToBatchLimit(uint16)": "4ac3f4ff",
    "dstChainIdToTransferGas(uint16)": "fa25f9b6",
    "estimateSendBatchFee(uint16,bytes,uint256[],bool,bytes)": "f2353641",
    "estimateSendFee(uint16,bytes,uint256,bool,bytes)": "2a205e3d",
    "failedMessages(uint16,bytes,uint64)": "5b8c41e6",
    "flipLinearPriceIncreaseActive()": "da323b79",
    "flipPublicSaleStarted()": "1291e33e",
    "flipRevealed()": "3b2c3fb6",
    "flipSaleStarted()": "899d7b38",
    "forceResumeReceive(uint16,bytes)": "42d65a8d",
    "getApproved(uint256)": "081812fc",
    "getConfig(uint16,uint16,address,uint256)": "f5ecbdbc",
    "getTrustedRemoteAddress(uint16)": "9f38369a",
    "isApprovedForAll(address,address)": "e985e9c5",
    "isTrustedRemote(uint16,bytes)": "3d8b38f6",
    "lzEndpoint()": "b353aaa7",
    "lzReceive(uint16,bytes,uint64,bytes)": "001d3567",
    "maxMintId()": "e1d4c870",
    "maxTokensPerMint()": "17465471",
    "merkleRoot()": "2eb4a7ab",
    "minDstGasLookup(uint16,uint16)": "8cfd8f5c",
    "minGasToTransferAndStore()": "48288190",
    "mintGasless(uint256,address,bytes32[],uint256)": "f2e5b1c1",
    "name()": "06fdde03",
    "nextMintId()": "6aa99da3",
    "nonblockingLzReceive(uint16,bytes,uint64,bytes)": "66ad5c8a",
    "owner()": "8da5cb5b",
    "ownerOf(uint256)": "6352211e",
    "payloadSizeLimitLookup(uint16)": "3f1f4fa4",
    "precrime()": "950c8a74",
    "price()": "a035b1fe",
    "publicMintGasless(uint256,address)": "129559e6",
    "renounceOwnership()": "715018a6",
    "retryMessage(uint16,bytes,uint64,bytes)": "d1deba1f",
    "safeTransferFrom(address,address,uint256)": "42842e0e",
    "safeTransferFrom(address,address,uint256,bytes)": "b88d4fde",
    "sendBatchFrom(address,uint16,bytes,uint256[],address,address,bytes)": "ab3ffb93",
    "sendFrom(address,uint16,bytes,uint256,address,address,bytes)": "51905636",
    "setApprovalForAll(address,bool)": "a22cb465",
    "setBaseURI(string)": "55f804b3",
    "setBeneficiary(address)": "1c31f710",
    "setConfig(uint16,uint16,uint256,bytes)": "cbed8b9c",
    "setContractURI(string)": "938e3d7b",
    "setDstChainIdToBatchLimit(uint16,uint256)": "9ea5d6b1",
    "setDstChainIdToTransferGas(uint16,uint256)": "d12473a5",
    "setHiddenMetadataUri(string)": "4fdd43cb",
    "setMerkleRoot(bytes32)": "7cb64759",
    "setMinDstGas(uint16,uint16,uint256)": "df2a5b3b",
    "setMinGasToTransferAndStore(uint256)": "0b4cad4c",
    "setMintRange(uint256,uint256,uint256)": "a7afd9c6",
    "setPayloadSizeLimit(uint16,uint256)": "0df37483",
    "setPrecrime(address)": "baf3292d",
    "setPrice(uint256)": "91b7f5ed",
    "setReceiveVersion(uint16)": "10ddb137",
    "setSendVersion(uint16)": "07e0db17",
    "setStableToken(address)": "db1bc87b",
    "setTax(uint256)": "2e5bb6ff",
    "setTaxRecipient(address)": "78e3079e",
    "setTrustedRemote(uint16,bytes)": "eb8d72b7",
    "setTrustedRemoteAddress(uint16,bytes)": "a6c3d165",
    "stableToken()": "a9d75b2b",
    "storedCredits(bytes32)": "22a3ecf9",
    "supportsInterface(bytes4)": "01ffc9a7",
    "symbol()": "95d89b41",
    "tax()": "99c8d556",
    "tokenURI(uint256)": "c87b56dd",
    "transferFrom(address,address,uint256)": "23b872dd",
    "transferOwnership(address)": "f2fde38b",
    "trustedRemoteLookup(uint16)": "7533d788",
    "withdraw()": "3ccfd60b"
  },
  "id": 99
}