{
  "abi": [
    {
      "inputs": [
        {
          "internalType": "string",
          "name": "_name",
          "type": "string"
        },
        {
          "internalType": "string",
          "name": "_symbol",
          "type": "string"
        },
        {
          "internalType": "address",
          "name": "_layerZeroEndpoint",
          "type": "address"
        },
        {
          "internalType": "uint256",
          "name": "_startMintId",
          "type": "uint256"
        },
        {
          "internalType": "uint256",
          "name": "_endMintId",
          "type": "uint256"
        },
        {
          "internalType": "uint256",
          "name": "_maxTokensPerMint",
          "type": "uint256"
        },
        {
          "internalType": "string",
          "name": "_baseTokenURI",
          "type": "string"
        },
        {
          "internalType": "string",
          "name": "_hiddenURI",
          "type": "string"
        },
        {
          "internalType": "address",
          "name": "_stableToken",
          "type": "address"
        },
        {
          "internalType": "uint256",
          "name": "_tax",
          "type": "uint256"
        },
        {
          "internalType": "address",
          "name": "_taxRecipient",
          "type": "address"
        }
      ],
      "stateMutability": "nonpayable",
      "type": "constructor"
    },
    {
      "inputs": [
        {
          "internalType": "address",
          "name": "operator",
          "type": "address"
        }
      ],
      "name": "OperatorNotAllowed",
      "type": "error"
    },
    {
      "anonymous": false,
      "inputs": [
        {
          "indexed": true,
          "internalType": "address",
          "name": "owner",
          "type": "address"
        },
        {
          "indexed": true,
          "internalType": "address",
          "name": "approved",
          "type": "address"
        },
        {
          "indexed": true,
          "internalType": "uint256",
          "name": "tokenId",
          "type": "uint256"
        }
      ],
      "name": "Approval",
      "type": "event"
    },
    {
      "anonymous": false,
      "inputs": [
        {
          "indexed": true,
          "internalType": "address",
          "name": "owner",
          "type": "address"
        },
        {
          "indexed": true,
          "internalType": "address",
          "name": "operator",
          "type": "address"
        },
        {
          "indexed": false,
          "internalType": "bool",
          "name": "approved",
          "type": "bool"
        }
      ],
      "name": "ApprovalForAll",
      "type": "event"
    },
    {
      "anonymous": false,
      "inputs": [
        {
          "indexed": false,
          "internalType": "uint16",
          "name": "_srcChainId",
          "type": "uint16"
        },
        {
          "indexed": false,
          "internalType": "bytes",
          "name": "_srcAddress",
          "type": "bytes"
        },
        {
          "indexed": false,
          "internalType": "uint64",
          "name": "_nonce",
          "type": "uint64"
        },
        {
          "indexed": false,
          "internalType": "bytes",
          "name": "_payload",
          "type": "bytes"
        },
        {
          "indexed": false,
          "internalType": "bytes",
          "name": "_reason",
          "type": "bytes"
        }
      ],
      "name": "MessageFailed",
      "type": "event"
    },
    {
      "anonymous": false,
      "inputs": [
        {
          "indexed": true,
          "internalType": "address",
          "name": "previousOwner",
          "type": "address"
        },
        {
          "indexed": true,
          "internalType": "address",
          "name": "newOwner",
          "type": "address"
        }
      ],
      "name": "OwnershipTransferred",
      "type": "event"
    },
    {
      "anonymous": false,
      "inputs": [
        {
          "indexed": true,
          "internalType": "uint16",
          "name": "_srcChainId",
          "type": "uint16"
        },
        {
          "indexed": true,
          "internalType": "bytes",
          "name": "_srcAddress",
          "type": "bytes"
        },
        {
          "indexed": true,
          "internalType": "address",
          "name": "_toAddress",
          "type": "address"
        },
        {
          "indexed": false,
          "internalType": "uint256",
          "name": "_tokenId",
          "type": "uint256"
        },
        {
          "indexed": false,
          "internalType": "uint64",
          "name": "_nonce",
          "type": "uint64"
        }
      ],
      "name": "ReceiveFromChain",
      "type": "event"
    },
    {
      "anonymous": false,
      "inputs": [
        {
          "indexed": false,
          "internalType": "uint16",
          "name": "_srcChainId",
          "type": "uint16"
        },
        {
          "indexed": false,
          "internalType": "bytes",
          "name": "_srcAddress",
          "type": "bytes"
        },
        {
          "indexed": false,
          "internalType": "uint64",
          "name": "_nonce",
          "type": "uint64"
        },
        {
          "indexed": false,
          "internalType": "bytes32",
          "name": "_payloadHash",
          "type": "bytes32"
        }
      ],
      "name": "RetryMessageSuccess",
      "type": "event"
    },
    {
      "anonymous": false,
      "inputs": [
        {
          "indexed": true,
          "internalType": "address",
          "name": "_sender",
          "type": "address"
        },
        {
          "indexed": true,
          "internalType": "uint16",
          "name": "_dstChainId",
          "type": "uint16"
        },
        {
          "indexed": true,
          "internalType": "bytes",
          "name": "_toAddress",
          "type": "bytes"
        },
        {
          "indexed": false,
          "internalType": "uint256",
          "name": "_tokenId",
          "type": "uint256"
        },
        {
          "indexed": false,
          "internalType": "uint64",
          "name": "_nonce",
          "type": "uint64"
        }
      ],
      "name": "SendToChain",
      "type": "event"
    },
    {
      "anonymous": false,
      "inputs": [
        {
          "indexed": false,
          "internalType": "uint16",
          "name": "_dstChainId",
          "type": "uint16"
        },
        {
          "indexed": false,
          "internalType": "uint16",
          "name": "_type",
          "type": "uint16"
        },
        {
          "indexed": false,
          "internalType": "uint256",
          "name": "_minDstGas",
          "type": "uint256"
        }
      ],
      "name": "SetMinDstGas",
      "type": "event"
    },
    {
      "anonymous": false,
      "inputs": [
        {
          "indexed": false,
          "internalType": "address",
          "name": "precrime",
          "type": "address"
        }
      ],
      "name": "SetPrecrime",
      "type": "event"
    },
    {
      "anonymous": false,
      "inputs": [
        {
          "indexed": false,
          "internalType": "uint16",
          "name": "_remoteChainId",
          "type": "uint16"
        },
        {
          "indexed": false,
          "internalType": "bytes",
          "name": "_path",
          "type": "bytes"
        }
      ],
      "name": "SetTrustedRemote",
      "type": "event"
    },
    {
      "anonymous": false,
      "inputs": [
        {
          "indexed": false,
          "internalType": "uint16",
          "name": "_remoteChainId",
          "type": "uint16"
        },
        {
          "indexed": false,
          "internalType": "bytes",
          "name": "_remoteAddress",
          "type": "bytes"
        }
      ],
      "name": "SetTrustedRemoteAddress",
      "type": "event"
    },
    {
      "anonymous": false,
      "inputs": [
        {
          "indexed": true,
          "internalType": "address",
          "name": "from",
          "type": "address"
        },
        {
          "indexed": true,
          "internalType": "address",
          "name": "to",
          "type": "address"
        },
        {
          "indexed": true,
          "internalType": "uint256",
          "name": "tokenId",
          "type": "uint256"
        }
      ],
      "name": "Transfer",
      "type": "event"
    },
    {
      "inputs": [],
      "name": "DEFAULT_PAYLOAD_SIZE_LIMIT",
      "outputs": [
        {
          "internalType": "uint256",
          "name": "",
          "type": "uint256"
        }
      ],
      "stateMutability": "view",
      "type": "function"
    },
    {
      "inputs": [],
      "name": "OPERATOR_FILTER_REGISTRY",
      "outputs": [
        {
          "internalType": "contract IOperatorFilterRegistry",
          "name": "",
          "type": "address"
        }
      ],
      "stateMutability": "view",
      "type": "function"
    },
    {
      "inputs": [],
      "name": "_publicSaleStarted",
      "outputs": [
        {
          "internalType": "bool",
          "name": "",
          "type": "bool"
        }
      ],
      "stateMutability": "view",
      "type": "function"
    },
    {
      "inputs": [],
      "name": "_saleStarted",
      "outputs": [
        {
          "internalType": "bool",
          "name": "",
          "type": "bool"
        }
      ],
      "stateMutability": "view",
      "type": "function"
    },
    {
      "inputs": [
        {
          "internalType": "address",
          "name": "operator",
          "type": "address"
        },
        {
          "internalType": "uint256",
          "name": "tokenId",
          "type": "uint256"
        }
      ],
      "name": "approve",
      "outputs": [],
      "stateMutability": "nonpayable",
      "type": "function"
    },
    {
      "inputs": [
        {
          "internalType": "address",
          "name": "owner",
          "type": "address"
        }
      ],
      "name": "balanceOf",
      "outputs": [
        {
          "internalType": "uint256",
          "name": "",
          "type": "uint256"
        }
      ],
      "stateMutability": "view",
      "type": "function"
    },
    {
      "inputs": [],
      "name": "contractURI",
      "outputs": [
        {
          "internalType": "string",
          "name": "",
          "type": "string"
        }
      ],
      "stateMutability": "view",
      "type": "function"
    },
    {
      "inputs": [
        {
          "internalType": "uint16",
          "name": "_dstChainId",
          "type": "uint16"
        },
        {
          "internalType": "bytes",
          "name": "_toAddress",
          "type": "bytes"
        },
        {
          "internalType": "uint256",
          "name": "_tokenId",
          "type": "uint256"
        },
        {
          "internalType": "bool",
          "name": "_useZro",
          "type": "bool"
        },
        {
          "internalType": "bytes",
          "name": "_adapterParams",
          "type": "bytes"
        }
      ],
      "name": "estimateSendFee",
      "outputs": [
        {
          "internalType": "uint256",
          "name": "nativeFee",
          "type": "uint256"
        },
        {
          "internalType": "uint256",
          "name": "zroFee",
          "type": "uint256"
        }
      ],
      "stateMutability": "view",
      "type": "function"
    },
    {
      "inputs": [
        {
          "internalType": "uint16",
          "name": "",
          "type": "uint16"
        },
        {
          "internalType": "bytes",
          "name": "",
          "type": "bytes"
        },
        {
          "internalType": "uint64",
          "name": "",
          "type": "uint64"
        }
      ],
      "name": "failedMessages",
      "outputs": [
        {
          "internalType": "bytes32",
          "name": "",
          "type": "bytes32"
        }
      ],
      "stateMutability": "view",
      "type": "function"
    },
    {
      "inputs": [],
      "name": "flipPublicSaleStarted",
      "outputs": [],
      "stateMutability": "nonpayable",
      "type": "function"
    },
    {
      "inputs": [],
      "name": "flipRevealed",
      "outputs": [],
      "stateMutability": "nonpayable",
      "type": "function"
    },
    {
      "inputs": [],
      "name": "flipSaleStarted",
      "outputs": [],
      "stateMutability": "nonpayable",
      "type": "function"
    },
    {
      "inputs": [
        {
          "internalType": "uint16",
          "name": "_srcChainId",
          "type": "uint16"
        },
        {
          "internalType": "bytes",
          "name": "_srcAddress",
          "type": "bytes"
        }
      ],
      "name": "forceResumeReceive",
      "outputs": [],
      "stateMutability": "nonpayable",
      "type": "function"
    },
    {
      "inputs": [
        {
          "internalType": "uint256",
          "name": "tokenId",
          "type": "uint256"
        }
      ],
      "name": "getApproved",
      "outputs": [
        {
          "internalType": "address",
          "name": "",
          "type": "address"
        }
      ],
      "stateMutability": "view",
      "type": "function"
    },
    {
      "inputs": [
        {
          "internalType": "uint16",
          "name": "_version",
          "type": "uint16"
        },
        {
          "internalType": "uint16",
          "name": "_chainId",
          "type": "uint16"
        },
        {
          "internalType": "address",
          "name": "",
          "type": "address"
        },
        {
          "internalType": "uint256",
          "name": "_configType",
          "type": "uint256"
        }
      ],
      "name": "getConfig",
      "outputs": [
        {
          "internalType": "bytes",
          "name": "",
          "type": "bytes"
        }
      ],
      "stateMutability": "view",
      "type": "function"
    },
    {
      "inputs": [
        {
          "internalType": "uint16",
          "name": "_remoteChainId",
          "type": "uint16"
        }
      ],
      "name": "getTrustedRemoteAddress",
      "outputs": [
        {
          "internalType": "bytes",
          "name": "",
          "type": "bytes"
        }
      ],
      "stateMutability": "view",
      "type": "function"
    },
    {
      "inputs": [
        {
          "internalType": "address",
          "name": "owner",
          "type": "address"
        },
        {
          "internalType": "address",
          "name": "operator",
          "type": "address"
        }
      ],
      "name": "isApprovedForAll",
      "outputs": [
        {
          "internalType": "bool",
          "name": "",
          "type": "bool"
        }
      ],
      "stateMutability": "view",
      "type": "function"
    },
    {
      "inputs": [
        {
          "internalType": "uint16",
          "name": "_srcChainId",
          "type": "uint16"
        },
        {
          "internalType": "bytes",
          "name": "_srcAddress",
          "type": "bytes"
        }
      ],
      "name": "isTrustedRemote",
      "outputs": [
        {
          "internalType": "bool",
          "name": "",
          "type": "bool"
        }
      ],
      "stateMutability": "view",
      "type": "function"
    },
    {
      "inputs": [],
      "name": "lzEndpoint",
      "outputs": [
        {
          "internalType": "contract ILayerZeroEndpoint",
          "name": "",
          "type": "address"
        }
      ],
      "stateMutability": "view",
      "type": "function"
    },
    {
      "inputs": [
        {
          "internalType": "uint16",
          "name": "_srcChainId",
          "type": "uint16"
        },
        {
          "internalType": "bytes",
          "name": "_srcAddress",
          "type": "bytes"
        },
        {
          "internalType": "uint64",
          "name": "_nonce",
          "type": "uint64"
        },
        {
          "internalType": "bytes",
          "name": "_payload",
          "type": "bytes"
        }
      ],
      "name": "lzReceive",
      "outputs": [],
      "stateMutability": "nonpayable",
      "type": "function"
    },
    {
      "inputs": [],
      "name": "maxMintId",
      "outputs": [
        {
          "internalType": "uint256",
          "name": "",
          "type": "uint256"
        }
      ],
      "stateMutability": "view",
      "type": "function"
    },
    {
      "inputs": [],
      "name": "maxTokensPerMint",
      "outputs": [
        {
          "internalType": "uint256",
          "name": "",
          "type": "uint256"
        }
      ],
      "stateMutability": "view",
      "type": "function"
    },
    {
      "inputs": [],
      "name": "merkleRoot",
      "outputs": [
        {
          "internalType": "bytes32",
          "name": "",
          "type": "bytes32"
        }
      ],
      "stateMutability": "view",
      "type": "function"
    },
    {
      "inputs": [
        {
          "internalType": "uint16",
          "name": "",
          "type": "uint16"
        },
        {
          "internalType": "uint16",
          "name": "",
          "type": "uint16"
        }
      ],
      "name": "minDstGasLookup",
      "outputs": [
        {
          "internalType": "uint256",
          "name": "",
          "type": "uint256"
        }
      ],
      "stateMutability": "view",
      "type": "function"
    },
    {
      "inputs": [
        {
          "internalType": "uint256",
          "name": "_nbTokens",
          "type": "uint256"
        },
        {
          "internalType": "address",
          "name": "minter",
          "type": "address"
        },
        {
          "internalType": "bytes32[]",
          "name": "_merkleProof",
          "type": "bytes32[]"
        }
      ],
      "name": "mintGasless",
      "outputs": [],
      "stateMutability": "nonpayable",
      "type": "function"
    },
    {
      "inputs": [],
      "name": "name",
      "outputs": [
        {
          "internalType": "string",
          "name": "",
          "type": "string"
        }
      ],
      "stateMutability": "view",
      "type": "function"
    },
    {
      "inputs": [],
      "name": "nextMintId",
      "outputs": [
        {
          "internalType": "uint256",
          "name": "",
          "type": "uint256"
        }
      ],
      "stateMutability": "view",
      "type": "function"
    },
    {
      "inputs": [
        {
          "internalType": "uint16",
          "name": "_srcChainId",
          "type": "uint16"
        },
        {
          "internalType": "bytes",
          "name": "_srcAddress",
          "type": "bytes"
        },
        {
          "internalType": "uint64",
          "name": "_nonce",
          "type": "uint64"
        },
        {
          "internalType": "bytes",
          "name": "_payload",
          "type": "bytes"
        }
      ],
      "name": "nonblockingLzReceive",
      "outputs": [],
      "stateMutability": "nonpayable",
      "type": "function"
    },
    {
      "inputs": [],
      "name": "owner",
      "outputs": [
        {
          "internalType": "address",
          "name": "",
          "type": "address"
        }
      ],
      "stateMutability": "view",
      "type": "function"
    },
    {
      "inputs": [
        {
          "internalType": "uint256",
          "name": "tokenId",
          "type": "uint256"
        }
      ],
      "name": "ownerOf",
      "outputs": [
        {
          "internalType": "address",
          "name": "",
          "type": "address"
        }
      ],
      "stateMutability": "view",
      "type": "function"
    },
    {
      "inputs": [
        {
          "internalType": "uint16",
          "name": "",
          "type": "uint16"
        }
      ],
      "name": "payloadSizeLimitLookup",
      "outputs": [
        {
          "internalType": "uint256",
          "name": "",
          "type": "uint256"
        }
      ],
      "stateMutability": "view",
      "type": "function"
    },
    {
      "inputs": [],
      "name": "precrime",
      "outputs": [
        {
          "internalType": "address",
          "name": "",
          "type": "address"
        }
      ],
      "stateMutability": "view",
      "type": "function"
    },
    {
      "inputs": [],
      "name": "price",
      "outputs": [
        {
          "internalType": "uint256",
          "name": "",
          "type": "uint256"
        }
      ],
      "stateMutability": "view",
      "type": "function"
    },
    {
      "inputs": [
        {
          "internalType": "uint256",
          "name": "_nbTokens",
          "type": "uint256"
        },
        {
          "internalType": "address",
          "name": "minter",
          "type": "address"
        }
      ],
      "name": "publicMintGasless",
      "outputs": [],
      "stateMutability": "nonpayable",
      "type": "function"
    },
    {
      "inputs": [],
      "name": "renounceOwnership",
      "outputs": [],
      "stateMutability": "nonpayable",
      "type": "function"
    },
    {
      "inputs": [
        {
          "internalType": "uint16",
          "name": "_srcChainId",
          "type": "uint16"
        },
        {
          "internalType": "bytes",
          "name": "_srcAddress",
          "type": "bytes"
        },
        {
          "internalType": "uint64",
          "name": "_nonce",
          "type": "uint64"
        },
        {
          "internalType": "bytes",
          "name": "_payload",
          "type": "bytes"
        }
      ],
      "name": "retryMessage",
      "outputs": [],
      "stateMutability": "payable",
      "type": "function"
    },
    {
      "inputs": [
        {
          "internalType": "address",
          "name": "from",
          "type": "address"
        },
        {
          "internalType": "address",
          "name": "to",
          "type": "address"
        },
        {
          "internalType": "uint256",
          "name": "tokenId",
          "type": "uint256"
        }
      ],
      "name": "safeTransferFrom",
      "outputs": [],
      "stateMutability": "nonpayable",
      "type": "function"
    },
    {
      "inputs": [
        {
          "internalType": "address",
          "name": "from",
          "type": "address"
        },
        {
          "internalType": "address",
          "name": "to",
          "type": "address"
        },
        {
          "internalType": "uint256",
          "name": "tokenId",
          "type": "uint256"
        },
        {
          "internalType": "bytes",
          "name": "data",
          "type": "bytes"
        }
      ],
      "name": "safeTransferFrom",
      "outputs": [],
      "stateMutability": "nonpayable",
      "type": "function"
    },
    {
      "inputs": [
        {
          "internalType": "address",
          "name": "_from",
          "type": "address"
        },
        {
          "internalType": "uint16",
          "name": "_dstChainId",
          "type": "uint16"
        },
        {
          "internalType": "bytes",
          "name": "_toAddress",
          "type": "bytes"
        },
        {
          "internalType": "uint256",
          "name": "_tokenId",
          "type": "uint256"
        },
        {
          "internalType": "address payable",
          "name": "_refundAddress",
          "type": "address"
        },
        {
          "internalType": "address",
          "name": "_zroPaymentAddress",
          "type": "address"
        },
        {
          "internalType": "bytes",
          "name": "_adapterParams",
          "type": "bytes"
        }
      ],
      "name": "sendFrom",
      "outputs": [],
      "stateMutability": "payable",
      "type": "function"
    },
    {
      "inputs": [
        {
          "internalType": "address",
          "name": "operator",
          "type": "address"
        },
        {
          "internalType": "bool",
          "name": "approved",
          "type": "bool"
        }
      ],
      "name": "setApprovalForAll",
      "outputs": [],
      "stateMutability": "nonpayable",
      "type": "function"
    },
    {
      "inputs": [
        {
          "internalType": "string",
          "name": "uri",
          "type": "string"
        }
      ],
      "name": "setBaseURI",
      "outputs": [],
      "stateMutability": "nonpayable",
      "type": "function"
    },
    {
      "inputs": [
        {
          "internalType": "address payable",
          "name": "_beneficiary",
          "type": "address"
        }
      ],
      "name": "setBeneficiary",
      "outputs": [],
      "stateMutability": "nonpayable",
      "type": "function"
    },
    {
      "inputs": [
        {
          "internalType": "uint16",
          "name": "_version",
          "type": "uint16"
        },
        {
          "internalType": "uint16",
          "name": "_chainId",
          "type": "uint16"
        },
        {
          "internalType": "uint256",
          "name": "_configType",
          "type": "uint256"
        },
        {
          "internalType": "bytes",
          "name": "_config",
          "type": "bytes"
        }
      ],
      "name": "setConfig",
      "outputs": [],
      "stateMutability": "nonpayable",
      "type": "function"
    },
    {
      "inputs": [
        {
          "internalType": "string",
          "name": "_contractURI",
          "type": "string"
        }
      ],
      "name": "setContractURI",
      "outputs": [],
      "stateMutability": "nonpayable",
      "type": "function"
    },
    {
      "inputs": [
        {
          "internalType": "string",
          "name": "_hiddenMetadataUri",
          "type": "string"
        }
      ],
      "name": "setHiddenMetadataUri",
      "outputs": [],
      "stateMutability": "nonpayable",
      "type": "function"
    },
    {
      "inputs": [
        {
          "internalType": "bytes32",
          "name": "_merkleRoot",
          "type": "bytes32"
        }
      ],
      "name": "setMerkleRoot",
      "outputs": [],
      "stateMutability": "nonpayable",
      "type": "function"
    },
    {
      "inputs": [
        {
          "internalType": "uint16",
          "name": "_dstChainId",
          "type": "uint16"
        },
        {
          "internalType": "uint16",
          "name": "_packetType",
          "type": "uint16"
        },
        {
          "internalType": "uint256",
          "name": "_minGas",
          "type": "uint256"
        }
      ],
      "name": "setMinDstGas",
      "outputs": [],
      "stateMutability": "nonpayable",
      "type": "function"
    },
    {
      "inputs": [
        {
          "internalType": "uint256",
          "name": "_startMintId",
          "type": "uint256"
        },
        {
          "internalType": "uint256",
          "name": "_endMintId",
          "type": "uint256"
        },
        {
          "internalType": "uint256",
          "name": "_maxTokensPerMint",
          "type": "uint256"
        }
      ],
      "name": "setMintRange",
      "outputs": [],
      "stateMutability": "nonpayable",
      "type": "function"
    },
    {
      "inputs": [
        {
          "internalType": "uint16",
          "name": "_dstChainId",
          "type": "uint16"
        },
        {
          "internalType": "uint256",
          "name": "_size",
          "type": "uint256"
        }
      ],
      "name": "setPayloadSizeLimit",
      "outputs": [],
      "stateMutability": "nonpayable",
      "type": "function"
    },
    {
      "inputs": [
        {
          "internalType": "address",
          "name": "_precrime",
          "type": "address"
        }
      ],
      "name": "setPrecrime",
      "outputs": [],
      "stateMutability": "nonpayable",
      "type": "function"
    },
    {
      "inputs": [
        {
          "internalType": "uint256",
          "name": "newPrice",
          "type": "uint256"
        }
      ],
      "name": "setPrice",
      "outputs": [],
      "stateMutability": "nonpayable",
      "type": "function"
    },
    {
      "inputs": [
        {
          "internalType": "uint16",
          "name": "_version",
          "type": "uint16"
        }
      ],
      "name": "setReceiveVersion",
      "outputs": [],
      "stateMutability": "nonpayable",
      "type": "function"
    },
    {
      "inputs": [
        {
          "internalType": "uint16",
          "name": "_version",
          "type": "uint16"
        }
      ],
      "name": "setSendVersion",
      "outputs": [],
      "stateMutability": "nonpayable",
      "type": "function"
    },
    {
      "inputs": [
        {
          "internalType": "address",
          "name": "_stableToken",
          "type": "address"
        }
      ],
      "name": "setStableToken",
      "outputs": [],
      "stateMutability": "nonpayable",
      "type": "function"
    },
    {
      "inputs": [
        {
          "internalType": "uint256",
          "name": "_tax",
          "type": "uint256"
        }
      ],
      "name": "setTax",
      "outputs": [],
      "stateMutability": "nonpayable",
      "type": "function"
    },
    {
      "inputs": [
        {
          "internalType": "address payable",
          "name": "_taxRecipient",
          "type": "address"
        }
      ],
      "name": "setTaxRecipient",
      "outputs": [],
      "stateMutability": "nonpayable",
      "type": "function"
    },
    {
      "inputs": [
        {
          "internalType": "uint16",
          "name": "_srcChainId",
          "type": "uint16"
        },
        {
          "internalType": "bytes",
          "name": "_path",
          "type": "bytes"
        }
      ],
      "name": "setTrustedRemote",
      "outputs": [],
      "stateMutability": "nonpayable",
      "type": "function"
    },
    {
      "inputs": [
        {
          "internalType": "uint16",
          "name": "_remoteChainId",
          "type": "uint16"
        },
        {
          "internalType": "bytes",
          "name": "_remoteAddress",
          "type": "bytes"
        }
      ],
      "name": "setTrustedRemoteAddress",
      "outputs": [],
      "stateMutability": "nonpayable",
      "type": "function"
    },
    {
      "inputs": [],
      "name": "stableToken",
      "outputs": [
        {
          "internalType": "contract IERC20",
          "name": "",
          "type": "address"
        }
      ],
      "stateMutability": "view",
      "type": "function"
    },
    {
      "inputs": [
        {
          "internalType": "bytes4",
          "name": "interfaceId",
          "type": "bytes4"
        }
      ],
      "name": "supportsInterface",
      "outputs": [
        {
          "internalType": "bool",
          "name": "",
          "type": "bool"
        }
      ],
      "stateMutability": "view",
      "type": "function"
    },
    {
      "inputs": [],
      "name": "symbol",
      "outputs": [
        {
          "internalType": "string",
          "name": "",
          "type": "string"
        }
      ],
      "stateMutability": "view",
      "type": "function"
    },
    {
      "inputs": [],
      "name": "tax",
      "outputs": [
        {
          "internalType": "uint256",
          "name": "",
          "type": "uint256"
        }
      ],
      "stateMutability": "view",
      "type": "function"
    },
    {
      "inputs": [
        {
          "internalType": "uint256",
          "name": "tokenId",
          "type": "uint256"
        }
      ],
      "name": "tokenURI",
      "outputs": [
        {
          "internalType": "string",
          "name": "",
          "type": "string"
        }
      ],
      "stateMutability": "view",
      "type": "function"
    },
    {
      "inputs": [
        {
          "internalType": "address",
          "name": "from",
          "type": "address"
        },
        {
          "internalType": "address",
          "name": "to",
          "type": "address"
        },
        {
          "internalType": "uint256",
          "name": "tokenId",
          "type": "uint256"
        }
      ],
      "name": "transferFrom",
      "outputs": [],
      "stateMutability": "nonpayable",
      "type": "function"
    },
    {
      "inputs": [
        {
          "internalType": "address",
          "name": "newOwner",
          "type": "address"
        }
      ],
      "name": "transferOwnership",
      "outputs": [],
      "stateMutability": "nonpayable",
      "type": "function"
    },
    {
      "inputs": [
        {
          "internalType": "uint16",
          "name": "",
          "type": "uint16"
        }
      ],
      "name": "trustedRemoteLookup",
      "outputs": [
        {
          "internalType": "bytes",
          "name": "",
          "type": "bytes"
        }
      ],
      "stateMutability": "view",
      "type": "function"
    },
    {
      "inputs": [],
      "name": "withdraw",
      "outputs": [],
      "stateMutability": "nonpayable",
      "type": "function"
    },
    {
      "stateMutability": "payable",
      "type": "receive"
    }
  ],
  "bytecode": {
    "object": "0x60a08060405234620008e457600090620058ca8038038091620000238285620008e9565b833981019061016081830312620008e05780516001600160401b038111620008dc57826200005391830162000923565b60208201516001600160401b038111620006a057836200007591840162000923565b9362000084604084016200099a565b936060840151608085015160a08601519160c087015160018060401b038111620008d85784620000b691890162000923565b60e08801519094906001600160401b038111620008d45790620000db91890162000923565b98620000eb61010089016200099a565b96620001016101406101208b01519a016200099a565b8754336001600160a01b0319821681178a55919b91906001600160a01b03167f8be0079c531659141344cd1fd0a4f28419497f9722a3daafe3b4186f6b6457e08a80a36001600160a01b03166080528051906001600160401b038211620008c057600654600181811c91168015620008b5575b6020821014620008a1579081601f8493116200083f575b50602090601f8311600114620007c8578992620007bc575b50508160011b916000199060031b1c1916176006555b8051906001600160401b038211620007a857600754600181811c911680156200079d575b602082101462000789579081601f84931162000727575b50602090601f8311600114620006b0578892620006a4575b50508160011b916000199060031b1c1916176007555b6daaeb6d7670e522a718067333cd4e3b620005f6575b6001600c55600e859055600f55601055601155601280546001600160a01b031916331790558051906001600160401b038211620005e257601654600181811c91168015620005d7575b6020821014620005c3579081601f84931162000561575b50602090601f8311600114620004ea578492620004de575b50508160011b916000199060031b1c1916176016555b8451906001600160401b038211620004ca57601754600181811c91168015620004bf575b6020821014620004ab57601f811162000454575b50602090601f8311600114620003de5795829394959692620003d2575b50508160011b916000199060031b1c1916176017555b601880546301000000600160b81b03191691811b6301000000600160b81b0316919091179055600d55601380546001600160a01b0319166001600160a01b0392909216919091179055604051614e9a9081620009b082396080518181816106430152818161096f01528181610b9e01528181610fe501528181611377015281816116a2015281816123d00152818161258a01528181612dc90152613af30152f35b0151905038806200031b565b60178152601f198316966000805160206200588a83398151915292915b8881106200043b5750836001959697981062000421575b505050811b0160175562000331565b015160001960f88460031b161c1916905538808062000412565b91926020600181928685015181550194019201620003fb565b601782526000805160206200588a833981519152601f840160051c81019160208510620004a0575b601f0160051c01905b818110620004945750620002fe565b82815560010162000485565b90915081906200047c565b634e487b7160e01b82526022600452602482fd5b90607f1690620002ea565b634e487b7160e01b81526041600452602490fd5b015190503880620002b0565b60168552600080516020620058aa8339815191529250601f198416855b8181106200054857509084600195949392106200052e575b505050811b01601655620002c6565b015160001960f88460031b161c191690553880806200051f565b9293602060018192878601518155019501930162000507565b60168552909150600080516020620058aa833981519152601f840160051c81019160208510620005b8575b90601f859493920160051c01905b818110620005a9575062000298565b8581558493506001016200059a565b90915081906200058c565b634e487b7160e01b84526022600452602484fd5b90607f169062000281565b634e487b7160e01b83526041600452602483fd5b6daaeb6d7670e522a718067333cd4e3b15620006a057604051633e9f1edf60e11b8152306004820152733cc6cdda760b79bafa08df41ecfa224f810dceb660248201528581604481836daaeb6d7670e522a718067333cd4e5af18015620006955762000664575b5062000238565b9094906001600160401b038111620006815760405293386200065d565b634e487b7160e01b82526041600452602482fd5b6040513d88823e3d90fd5b8480fd5b0151905038806200020c565b600789526000805160206200584a8339815191529250601f198416895b8181106200070e5750908460019594939210620006f4575b505050811b0160075562000222565b015160001960f88460031b161c19169055388080620006e5565b92936020600181928786015181550195019301620006cd565b600789529091506000805160206200584a833981519152601f840160051c810191602085106200077e575b90601f859493920160051c01905b8181106200076f5750620001f4565b89815584935060010162000760565b909150819062000752565b634e487b7160e01b88526022600452602488fd5b90607f1690620001dd565b634e487b7160e01b87526041600452602487fd5b015190503880620001a3565b60068a526000805160206200586a8339815191529250601f1984168a5b8181106200082657509084600195949392106200080c575b505050811b01600655620001b9565b015160001960f88460031b161c19169055388080620007fd565b92936020600181928786015181550195019301620007e5565b60068a529091506000805160206200586a833981519152601f840160051c8101916020851062000896575b90601f859493920160051c01905b8181106200088757506200018b565b8a815584935060010162000878565b90915081906200086a565b634e487b7160e01b89526022600452602489fd5b90607f169062000174565b634e487b7160e01b88526041600452602488fd5b8680fd5b8580fd5b8380fd5b8280fd5b600080fd5b601f909101601f19168101906001600160401b038211908210176200090d57604052565b634e487b7160e01b600052604160045260246000fd5b919080601f84011215620008e4578251906001600160401b0382116200090d57604051916020916200095f601f8301601f1916840185620008e9565b818452828287010111620008e45760005b8181106200098657508260009394955001015290565b858101830151848201840152820162000970565b51906001600160a01b0382168203620008e45756fe6080604052600436101561001b575b361561001957600080fd5b005b60003560e01c80621d35671461055657806301ffc9a71461054d57806306fdde031461054457806307e0db171461053b578063081812fc14610532578063095ea7b3146105295780630df374831461052057806310ddb137146105175780631291e33e1461050e578063129559e61461050557806317465471146104fc5780631c31f710146104f357806323b872dd146104ea5780632a205e3d146104e15780632e5bb6ff146104d85780632eb4a7ab146104cf5780633b2c3fb6146104c65780633ccfd60b146104bd5780633d8b38f6146104b45780633f1f4fa4146104ab57806341f43434146104a257806342842e0e1461049957806342d65a8d14610490578063450a4b6d146104875780634fdd43cb1461047e578063519056361461047557806355f804b31461046c5780635b8c41e614610463578063600e97f61461045a5780636352211e1461045157806366ad5c8a146104485780636aa99da31461043f57806370a0823114610436578063715018a61461042d5780637533d7881461042457806378e3079e1461041b5780637cb647591461041257806387c348bf14610409578063899d7b38146104005780638cfd8f5c146103f75780638da5cb5b146103ee57806391b7f5ed146103e5578063938e3d7b146103dc578063950c8a74146103d357806395d89b41146103ca57806399c8d556146103c15780639f38369a146103b8578063a035b1fe146103af578063a22cb465146103a6578063a6c3d1651461039d578063a7afd9c614610394578063a9d75b2b1461038b578063b353aaa714610382578063b88d4fde14610379578063baf3292d14610370578063c446183414610367578063c87b56dd1461035e578063cbed8b9c14610355578063d1deba1f1461034c578063db1bc87b14610343578063df2a5b3b1461033a578063e1d4c87014610331578063e8a3d48514610328578063e985e9c51461031f578063eb8d72b714610316578063f2fde38b1461030d5763f5ecbdbc0361000e57610308612d63565b61000e565b50610308612cc8565b50610308612b63565b50610308612afa565b50610308612a52565b506103086128de565b506103086127eb565b50610308612790565b5061030861262c565b50610308612529565b50610308612509565b506103086124eb565b50610308612472565b506103086123ff565b506103086123b9565b5061030861238e565b50610308612353565b506103086121b5565b506103086120bb565b5061030861209c565b50610308611ffc565b50610308611fdd565b50610308611f35565b50610308611f0b565b50610308611df0565b50610308611dc1565b50610308611d97565b50610308611d43565b50610308611cfd565b50610308611cd6565b50610308611ca7565b50610308611c56565b50610308611c02565b50610308611ab5565b50610308611a0e565b506103086119ef565b50610308611968565b50610308611949565b50610308611925565b5061030861187e565b5061030861174c565b50610308611595565b5061030861147a565b506103086113d7565b5061030861134a565b506103086112ac565b50610308611282565b5061030861124c565b506103086111ef565b5061030861110b565b506103086110c3565b506103086110a4565b50610308611075565b50610308610f04565b50610308610dc2565b50610308610d45565b50610308610d26565b50610308610c32565b50610308610bf5565b50610308610b6a565b50610308610b21565b50610308610a26565b506103086109e4565b5061030861093b565b50610308610855565b50610308610752565b5061030861062b565b6004359061ffff8216820361057057565b600080fd5b6024359061ffff8216820361057057565b9181601f84011215610570578235916001600160401b038311610570576020838186019501011161057057565b6001600160401b0381160361057057565b9060806003198301126105705760043561ffff8116810361057057916001600160401b0390602435828111610570578161060091600401610586565b93909392604435610610816105b3565b926064359182116105705761062791600401610586565b9091565b50346105705761063a366105c4565b929493919291907f00000000000000000000000000000000000000000000000000000000000000006001600160a01b031633036106fb576106c06106c892610019976106b961069f61069a8a61ffff166000526001602052604060002090565b611be5565b80519081841491826106f1575b50816106ce575b506139fc565b3691610ea8565b923691610ea8565b92613ce2565b90506106db368486610ea8565b60208151910120906020815191012014386106b3565b15159150386106ac565b60405162461bcd60e51b815260206004820152601e60248201527f4c7a4170703a20696e76616c696420656e64706f696e742063616c6c657200006044820152606490fd5b6001600160e01b031981160361057057565b503461057057602036600319011261057057602060043561077281610740565b6001600160e01b0319168015908115610791575b506040519015158152f35b6380ac58cd60e01b8114915081156107dd575b81156107b2575b5038610786565b637bb0080b60e01b8114915081156107cc575b50386107ab565b6301ffc9a760e01b149050386107c5565b635b5e139f60e01b811491506107a4565b600091031261057057565b60005b83811061080c5750506000910152565b81810151838201526020016107fc565b90602091610835815180928185528580860191016107f9565b601f01601f1916010190565b90602061085292818152019061081c565b90565b50346105705760008060031936011261093857604051908060065461087981611b15565b8085529160019180831690811561090e57506001146108b3575b6108af856108a381870382610e5d565b60405191829182610841565b0390f35b9250600683527ff652222313e28459528d920b65115c16c04f3efc82aaedc97be59f3f377c0d3f5b8284106108f65750505081016020016108a3826108af610893565b805460208587018101919091529093019281016108db565b8695506108af969350602092506108a394915060ff191682840152151560051b8201019293610893565b80fd5b503461057057600060203660031901126109385761095761055f565b8160018060a01b0361096d818354163314612f91565b7f00000000000000000000000000000000000000000000000000000000000000001691823b156109e057602461ffff918360405195869485936307e0db1760e01b85521660048401525af180156109d3575b6109c7575080f35b6109d090610e22565b80f35b6109db612e70565b6109bf565b5080fd5b5034610570576020366003190112610570576020610a0360043561443c565b6040516001600160a01b039091168152f35b6001600160a01b0381160361057057565b503461057057604036600319011261057057600435610a4481610a15565b602435610a5082614da5565b610a5981614352565b916001600160a01b038084169082168114610ad25761001993610a86913314908115610a8b575b506143ca565b614a1d565b6001600160a01b03166000908152600b60205260409020610acc9150610ac59033905b9060018060a01b0316600052602052604060002090565b5460ff1690565b38610a80565b60405162461bcd60e51b815260206004820152602160248201527f4552433732313a20617070726f76616c20746f2063757272656e74206f776e656044820152603960f91b6064820152608490fd5b50346105705760403660031901126105705761ffff610b3e61055f565b610b5360018060a01b03600054163314612f91565b166000526003602052602435604060002055600080f35b5034610570576000602036600319011261093857610b8661055f565b8160018060a01b03610b9c818354163314612f91565b7f00000000000000000000000000000000000000000000000000000000000000001691823b156109e057602461ffff918360405195869485936310ddb13760e01b85521660048401525af180156109d3576109c7575080f35b50346105705760008060031936011261093857610c1c60018060a01b038254163314612f91565b60185460ff80821615169060ff19161760185580f35b503461057057604036600319011261057057610019600435602435610c5681610a15565b610c7573abcc9b596420a9e9172fd5938620e265a0f9df923314612fdc565b610cf2601854610c8c600160ff831615151461301a565b610ca0600160ff8360081c1615151461307f565b610cab8415156130dd565b610cb9601154851115613137565b610cd2610cc885600f546131f7565b6010541015613204565b610cdf600e54151561325f565b60181c6001600160a01b031615156132c0565b610cfa6138ce565b60188054610d21911c6001600160a01b0316610d1884600e5461331d565b908330916141b2565b613348565b5034610570576000366003190112610570576020601154604051908152f35b503461057057602036600319011261057057600435610d6381610a15565b6000546001600160a01b039190610d7d9083163314612f91565b166001600160601b0360a01b6012541617601255600080f35b606090600319011261057057600435610dae81610a15565b90602435610dbb81610a15565b9060443590565b503461057057610019610dd436610d96565b91336001600160a01b03821603610dfd575b610df8610df384336145ab565b6144ce565b6148b2565b610e0633614da5565b610de6565b50634e487b7160e01b600052604160045260246000fd5b6001600160401b038111610e3557604052565b610e3d610e0b565b604052565b604081019081106001600160401b03821117610e3557604052565b90601f801991011681019081106001600160401b03821117610e3557604052565b6020906001600160401b038111610e9b575b601f01601f19160190565b610ea3610e0b565b610e90565b929192610eb482610e7e565b91610ec26040519384610e5d565b829481845281830111610570578281602093846000960137010152565b9080601f830112156105705781602061085293359101610ea8565b8015150361057057565b50346105705760031960a03682011261057057610f1f61055f565b6001600160401b039160243583811161057057610f40903690600401610edf565b9060643592610f4e84610efa565b60843594851161057057610fe1610f8c9461ffff93610f74610f9a983690600401610edf565b9060409889978851998a916044359060208401612e3e565b03601f1981018a5289610e5d565b610fcb8751988997889763040a7bb160e41b895216600488015230602488015260a0604488015260a487019061081c565b921515606486015284830301608485015261081c565b03817f00000000000000000000000000000000000000000000000000000000000000006001600160a01b03165afa918215611068575b6000918293611033575b50519081526020810191909152604090f35b816110599294506108af93503d8511611061575b6110518183610e5d565b810190612e5a565b929091611021565b503d611047565b611070612e70565b611017565b50346105705760203660031901126105705761109c60018060a01b03600054163314612f91565b600435600d55005b5034610570576000366003190112610570576020601454604051908152f35b503461057057600080600319360112610938576110ea60018060a01b038254163314612f91565b60185462ff000060ff8260101c161560101b169062ff000019161760185580f35b50346105705760008060031936011261093857601254336001600160a01b03918216149081156111a8575b5015611144576109d06135ab565b60405162461bcd60e51b815260206004820152603660248201527f416476616e6365644f4e4654313135354761736c6573733a2063616c6c6572206044820152756973206e6f74207468652062656e656669636961727960501b6064820152608490fd5b9050815416331438611136565b9060406003198301126105705760043561ffff811681036105705791602435906001600160401b0382116105705761062791600401610586565b503461057057602061ffff61123d611206366111b5565b939091166000526001845261122861122f604060002060405192838092611b4f565b0382610e5d565b848151910120923691610ea8565b82815191012014604051908152f35b50346105705760203660031901126105705761ffff61126961055f565b1660005260036020526020604060002054604051908152f35b50346105705760003660031901126105705760206040516daaeb6d7670e522a718067333cd4e8152f35b50346105705761001961131c6112c136610d96565b6001600160a01b038316331415929091908361133c575b60405193602085018581106001600160401b0382111761132f575b60405260008552611321575b61130c610df384336145ab565b6113178383836148b2565b614be3565b614587565b61132a33614da5565b6112ff565b611337610e0b565b6112f3565b61134533614da5565b6112d8565b503461057057611359366111b5565b9190600092839160018060a01b03611375818554163314612f91565b7f00000000000000000000000000000000000000000000000000000000000000001690813b156113d357836113c195604051968795869485936342d65a8d60e01b855260048501613cc7565b03925af180156109d3576109c7575080f35b8380fd5b5034610570576060366003190112610570576024356113f581610a15565b604435906001600160401b03908183116105705736602384011215610570578260040135918211610570573660248360051b85010111610570576024610019930190600435613385565b602060031982011261057057600435906001600160401b03821161057057806023830112156105705781602461085293600401359101610ea8565b5034610570576114893661143f565b600061149f60018060a01b038254163314612f91565b81516001600160401b038111611588575b6114c4816114bf601754611b15565b6136be565b602080601f8311600114611500575082938293926114f5575b50508160011b916000199060031b1c19161760175580f35b0151905038806114dd565b90601f1983169461153360176000527fc624b66cc0138b8fabc209247f72d758e1cf3343756d543badbf24212bed8c1590565b9285905b878210611570575050836001959610611557575b505050811b0160175580f35b015160001960f88460031b161c1916905538808061154b565b80600185968294968601518155019501930190611537565b611590610e0b565b6114b0565b5060e0366003190112610570576004356115ae81610a15565b6115b6610575565b6001600160401b039190604435838111610570576115d8903690600401610edf565b9260643591608435906115ea82610a15565b60a4356115f681610a15565b60c435938411610570578461ffff9361166f926116387f024797cc77ce15dc717112d54fb1df125fdfd8c81344fb046c5e074427ce1543973690600401610edf565b91611643848b612eb2565b6116678b61165960405196879260208401612e3e565b03601f198101865285610e5d565b349386613aaf565b604051630f428ae960e31b815261ffff821660048201523060248201526001600160a01b039661170691906020826044817f00000000000000000000000000000000000000000000000000000000000000008d165afa91821561173f575b60009261170b575b506116df90612e92565b9760405194859416971695839092916001600160401b036020916040840195845216910152565b0390a4005b6116df9192506117319060203d8111611738575b6117298183610e5d565b810190612e7d565b91906116d5565b503d61171f565b611747612e70565b6116cd565b50346105705761175b3661143f565b600061177160018060a01b038254163314612f91565b81516001600160401b03811161185a575b61179681611791601654611b15565b61371f565b602080601f83116001146117d2575082938293926117c7575b50508160011b916000199060031b1c19161760165580f35b0151905038806117af565b90601f1983169461180560166000527fd833147d7dc355ba459fc788f669e58cfaf9dc25ddcd0702e87d69c7b512428990565b9285905b878210611842575050836001959610611829575b505050811b0160165580f35b015160001960f88460031b161c1916905538808061181d565b80600185968294968601518155019501930190611809565b611862610e0b565b611782565b9061187a602092828151948592016107f9565b0190565b50346105705760603660031901126105705761189861055f565b6024356001600160401b038111610570576108af916118f360206118c3611914943690600401610edf565b61ffff604435946118d3866105b3565b1660005260058252604060002082604051948386809551938492016107f9565b820190815203019020906001600160401b0316600052602052604060002090565b546040519081529081906020820190565b503461057057600036600319011261057057602060ff601854166040519015158152f35b5034610570576020366003190112610570576020610a03600435614352565b503461057057611977366105c4565b919294939030330361199b576106c061199592610019973691610ea8565b92613e4d565b60405162461bcd60e51b815260206004820152602660248201527f4e6f6e626c6f636b696e674c7a4170703a2063616c6c6572206d7573742062656044820152650204c7a4170760d41b6064820152608490fd5b5034610570576000366003190112610570576020600f54604051908152f35b503461057057602036600319011261057057600435611a2c81610a15565b6001600160a01b03168015611a5d5760005260096020526108af604060002054604051918291829190602083019252565b60405162461bcd60e51b815260206004820152602a60248201527f4552433732313a2062616c616e636520717565727920666f7220746865207a65604482015269726f206164647265737360b01b6064820152608490fd5b50346105705760008060031936011261093857805481906001600160a01b03811690611ae2338314612f91565b6001600160a01b03191682557f8be0079c531659141344cd1fd0a4f28419497f9722a3daafe3b4186f6b6457e08280a380f35b90600182811c92168015611b45575b6020831014611b2f57565b634e487b7160e01b600052602260045260246000fd5b91607f1691611b24565b9060009291805491611b6083611b15565b918282526001938481169081600014611bc25750600114611b82575b50505050565b90919394506000526020928360002092846000945b838610611bae575050505001019038808080611b7c565b805485870183015294019385908201611b97565b9294505050602093945060ff191683830152151560051b01019038808080611b7c565b90611c00611bf99260405193848092611b4f565b0383610e5d565b565b50346105705760203660031901126105705761ffff611c1f61055f565b1660005260016020526108af611228611c42604060002060405192838092611b4f565b60405191829160208352602083019061081c565b503461057057602036600319011261057057600435611c7481610a15565b6000546001600160a01b039190611c8e9083163314612f91565b166001600160601b0360a01b6013541617601355600080f35b503461057057602036600319011261057057611cce60018060a01b03600054163314612f91565b600435601455005b503461057057600036600319011261057057602060ff60185460081c166040519015158152f35b50346105705760008060031936011261093857611d2460018060a01b038254163314612f91565b60185461ff0060ff8260081c161560081b169061ff0019161760185580f35b5034610570576040366003190112610570576020611d8e611d6261055f565b61ffff611d6d610575565b91166000526002835260406000209061ffff16600052602052604060002090565b54604051908152f35b5034610570576000366003190112610570576000546040516001600160a01b039091168152602090f35b503461057057602036600319011261057057611de860018060a01b03600054163314612f91565b600435600e55005b503461057057611dff3661143f565b6000611e1560018060a01b038254163314612f91565b81516001600160401b038111611efe575b611e3a81611e35601554611b15565b613775565b602080601f8311600114611e7657508293829392611e6b575b50508160011b916000199060031b1c19161760155580f35b015190503880611e53565b90601f19831694611ea960156000527f55f448fdea98c4d29eb340757ef0a66cd03dbb9538908a6a81d96026b71ec47590565b9285905b878210611ee6575050836001959610611ecd575b505050811b0160155580f35b015160001960f88460031b161c19169055388080611ec1565b80600185968294968601518155019501930190611ead565b611f06610e0b565b611e26565b5034610570576000366003190112610570576004546040516001600160a01b039091168152602090f35b503461057057600080600319360112610938576040519080600754611f5981611b15565b8085529160019180831690811561090e5750600114611f82576108af856108a381870382610e5d565b9250600783527fa66cc928b5edb82af9bd49922954155ab7b0942694bea4ce44661d9a8736c6885b828410611fc55750505081016020016108a3826108af610893565b80546020858701810191909152909301928101611faa565b5034610570576000366003190112610570576020600d54604051908152f35b50346105705760203660031901126105705761ffff61201961055f565b166000526001602052611228612039604060002060405192838092611b4f565b805115612057576108a3816120516108af9351613580565b90614056565b60405162461bcd60e51b815260206004820152601d60248201527f4c7a4170703a206e6f20747275737465642070617468207265636f72640000006044820152606490fd5b5034610570576000366003190112610570576020600e54604051908152f35b5034610570576040366003190112610570576004356120d981610a15565b6024356120e581610efa565b6120ee82614da5565b6001600160a01b03821691338314612170578161212d61213e9233600052600b60205260406000209060018060a01b0316600052602052604060002090565b9060ff801983541691151516179055565b604051901515815233907f17307eab39ab6107e8899845ad3d59bd9653f200f220920489ca2b5937696c3190602090a3005b60405162461bcd60e51b815260206004820152601960248201527f4552433732313a20617070726f766520746f2063616c6c6572000000000000006044820152606490fd5b5034610570576121c4366111b5565b91906000916121dd60018060a01b038454163314612f91565b6040519360208184828801376122086034878481013060601b85820152036014810189520187610e5d565b61ffff8316855260019081815260408620918751916001600160401b038311612346575b6122408361223a8654611b15565b866137cb565b80601f84116001146122b057509180809261229f9695948a9b7f8c0400cfe2d1199b1a725c78960bcc2a344d869b80590d0f2bd005db15a572ce9b946122a5575b50501b916000199060031b1c19161790555b60405193849384613cc7565b0390a180f35b015192503880612281565b91939498601f1984166122c887600052602060002090565b938a905b82821061232f575050917f8c0400cfe2d1199b1a725c78960bcc2a344d869b80590d0f2bd005db15a572ce999a9593918561229f98969410612316575b505050811b019055612293565b015160001960f88460031b161c19169055388080612309565b8088869782949787015181550196019401906122cc565b61234e610e0b565b61222c565b50346105705760603660031901126105705761237a60018060a01b03600054163314612f91565b600435600f55602435601055604435601155005b50346105705760003660031901126105705760188054604051911c6001600160a01b03168152602090f35b5034610570576000366003190112610570576040517f00000000000000000000000000000000000000000000000000000000000000006001600160a01b03168152602090f35b50346105705760803660031901126105705760043561241d81610a15565b6024359061242a82610a15565b606435906044356001600160401b038311610570576100199361245461131c943690600401610edf565b92336001600160a01b038216036113215761130c610df384336145ab565b5034610570576020366003190112610570577f5db758e995a17ec1ad84bdef7e8c3293a0bd6179bcce400dff5d4c3d87db726b60206004356124b381610a15565b6000546001600160a01b0391906124cd9083163314612f91565b16806001600160601b0360a01b6004541617600455604051908152a1005b50346105705760003660031901126105705760206040516127108152f35b5034610570576020366003190112610570576108af611c42600435613805565b50346105705760803660031901126105705761254361055f565b61254b610575565b6064356001600160401b0381116105705761256a903690600401610586565b60018060a09493941b03916000948361258887958654163314612f91565b7f00000000000000000000000000000000000000000000000000000000000000001691823b156126285784906125f5604051978896879586946332fb62e760e21b865261ffff80921660048701521660248501526044356044850152608060648501526084840191613ca6565b03925af1801561261b575b612608575080f35b806126156109d092610e22565b806107ee565b612623612e70565b612600565b8480fd5b50612636366105c4565b9161ffff8694929616600052600560205261267d81604060002060206040518092878b833787820190815203019020906001600160401b0316600052602052604060002090565b5491821561273f5761272e84836127277fc264d91f3adc5588250e1551f547752ca0cfa8f6b530d243b9f9f4cab10ea8e59a6000612713846126fb8e8a8f61273a9f908f6126e1906126d46126f59436908d610ea8565b6020815191012014613f4c565b61ffff166000526005602052604060002090565b91613f33565b906001600160401b0316600052602052604060002090565b5561271f36878d610ea8565b933691610ea8565b9188613e4d565b60405195869586613fa2565b0390a1005b60405162461bcd60e51b815260206004820152602360248201527f4e6f6e626c6f636b696e674c7a4170703a206e6f2073746f726564206d65737360448201526261676560e81b6064820152608490fd5b5034610570576020366003190112610570576004356127ae81610a15565b6127c360018060a01b03600054163314612f91565b601880546301000000600160b81b03191691811b6301000000600160b81b0316919091179055005b50346105705760603660031901126105705761280561055f565b61280d610575565b6044359161282660018060a01b03600054163314612f91565b82156128a15761273a7f9d5c7c0b934da8fefa9c7760c98383778a12dfbfc0c3b3106518f43fb9508ac09361ffff831660005260026020528061287b8560406000209061ffff16600052602052604060002090565b556040519384938460409194939294606082019561ffff80921683521660208201520152565b60405162461bcd60e51b81526020600482015260156024820152744c7a4170703a20696e76616c6964206d696e47617360581b6044820152606490fd5b5034610570576000366003190112610570576020601054604051908152f35b604051906000826017549161291183611b15565b808352926001908181169081156129975750600114612938575b50611c0092500383610e5d565b6017600090815291507fc624b66cc0138b8fabc209247f72d758e1cf3343756d543badbf24212bed8c155b84831061297c5750611c0093505081016020013861292b565b81935090816020925483858a01015201910190918592612963565b905060209250611c0094915060ff191682840152151560051b8201013861292b565b60405190600082601654916129cd83611b15565b8083529260019081811690811561299757506001146129f35750611c0092500383610e5d565b6016600090815291507fd833147d7dc355ba459fc788f669e58cfaf9dc25ddcd0702e87d69c7b51242895b848310612a375750611c0093505081016020013861292b565b81935090816020925483858a01015201910190918592612a1e565b503461057057600080600319360112610938576040519080601554612a7681611b15565b8085529160019180831690811561090e5750600114612a9f576108af856108a381870382610e5d565b9250601583527f55f448fdea98c4d29eb340757ef0a66cd03dbb9538908a6a81d96026b71ec4755b828410612ae25750505081016020016108a3826108af610893565b80546020858701810191909152909301928101612ac7565b503461057057604036600319011261057057602060ff612b57600435612b1f81610a15565b60243590612b2c82610a15565b60018060a01b0316600052600b845260406000209060018060a01b0316600052602052604060002090565b54166040519015158152f35b503461057057612b72366111b5565b9190600091612b8b60018060a01b038454163314612f91565b61ffff81168352600160209080825260408520916001600160401b038711612cbb575b612bc287612bbc8554611b15565b856137cb565b8590601f8811600114612c29575091868087989361229f957ffa41487ad5d6728f0b19276fa1eddc16558578f5109fc39d2dc33c3230470dab9993612c1e575b501b906000198460031b1c191617905560405193849384613cc7565b880135925038612c02565b90601f198816612c3e85600052602060002090565b9288905b828210612ca4575050918893917ffa41487ad5d6728f0b19276fa1eddc16558578f5109fc39d2dc33c3230470dab989961229f969410612c8a575b505082811b019055612293565b870135600019600386901b60f8161c191690553880612c7d565b808685968294968c01358155019501930190612c42565b612cc3610e0b565b612bae565b503461057057602036600319011261057057600435612ce681610a15565b6000546001600160a01b0390612cff9082163314612f91565b811615612d0f576100199061410f565b60405162461bcd60e51b815260206004820152602660248201527f4f776e61626c653a206e6577206f776e657220697320746865207a65726f206160448201526564647265737360d01b6064820152608490fd5b5034610570576080366003190112610570576108af612d8061055f565b612d88610575565b90612d94604435610a15565b604051633d7b2f6f60e21b815261ffff91821660048201529116602482015230604482015260648035908201526000816084817f00000000000000000000000000000000000000000000000000000000000000006001600160a01b03165afa908115612e31575b600091612e10575b5060405191829182610841565b612e2b913d8091833e612e238183610e5d565b810190613c81565b38612e03565b612e39612e70565b612dfb565b929190612e5560209160408652604086019061081c565b930152565b9190826040910312610570576020825192015190565b506040513d6000823e3d90fd5b908160209103126105705751610852816105b3565b612eaa906020604051928284809451938492016107f9565b810103902090565b612ebc82336145ab565b15612f3557612eca82614352565b6001600160a01b03918216911603612ee557611c00906147d0565b60405162461bcd60e51b815260206004820152602260248201527f4f4e46543732313a2073656e642066726f6d20696e636f7272656374206f776e60448201526132b960f11b6064820152608490fd5b60405162461bcd60e51b815260206004820152602e60248201527f4f4e46543732313a2073656e642063616c6c6572206973206e6f74206f776e6560448201526d1c881b9bdc88185c1c1c9bdd995960921b6064820152608490fd5b15612f9857565b606460405162461bcd60e51b815260206004820152602060248201527f4f776e61626c653a2063616c6c6572206973206e6f7420746865206f776e65726044820152fd5b15612fe357565b60405162461bcd60e51b815260206004820152600f60248201526e6f6e6c7947656c61746f52656c617960881b6044820152606490fd5b1561302157565b60405162461bcd60e51b815260206004820152603060248201527f4f4e46543732314761736c6573733a205075626c69632073616c65206861732060448201526f6e6f742073746172746564207965742160801b6064820152608490fd5b1561308657565b60405162461bcd60e51b815260206004820152602960248201527f4f4e46543732314761736c6573733a2053616c6520686173206e6f742073746160448201526872746564207965742160b81b6064820152608490fd5b156130e457565b60405162461bcd60e51b815260206004820152602560248201527f4f4e46543732314761736c6573733a2043616e6e6f74206d696e74203020746f6044820152646b656e732160d81b6064820152608490fd5b1561313e57565b60405162461bcd60e51b815260206004820152604a60248201527f4f4e46543732314761736c6573733a20596f752063616e6e6f74206d696e742060448201527f6d6f7265207468616e206d6178546f6b656e735065724d696e7420746f6b656e60648201526973206174206f6e63652160b01b608482015260a490fd5b50634e487b7160e01b600052601160045260246000fd5b90601f82018092116131e157565b611c006131bc565b90600182018092116131e157565b919082018092116131e157565b1561320b57565b60405162461bcd60e51b815260206004820152602660248201527f4f4e46543732314761736c6573733a206d6178206d696e74206c696d69742072604482015265195858da195960d21b6064820152608490fd5b1561326657565b60405162461bcd60e51b815260206004820152602c60248201527f4f4e46543732314761736c6573733a20796f75206e65656420746f207365742060448201526b737461626c6520707269636560a01b6064820152608490fd5b156132c757565b60405162461bcd60e51b815260206004820152602860248201527f4f4e46543732314761736c6573733a206e6f7420737570706f727420737461626044820152673632903a37b5b2b760c11b6064820152608490fd5b818102929181159184041417156131e157565b6001906000198114613340570190565b61187a6131bc565b600f54916000915b81831061335f57505050600f55565b90919261336e61337e91613330565b936133798584614696565b613330565b9190613350565b916001613455613450611c0096610cf2946133b573abcc9b596420a9e9172fd5938620e265a0f9df923314612fdc565b6133d1856133c960185460ff9060081c1690565b15151461307f565b6133dc8815156130dd565b6133ea601154891115613137565b6133f9610cc889600f546131f7565b601454604051606089901b6bffffffffffffffffffffffff191660208201908152603482018b9052919261344b92909161344081605481015b03601f198101835282610e5d565b51902093369161345b565b614d4f565b151590565b146134bf565b9092916001600160401b0384116134b2575b8360051b604051926020809461348582850182610e5d565b809781520191810192831161057057905b8282106134a35750505050565b81358152908301908301613496565b6134ba610e0b565b61346d565b156134c657565b60405162461bcd60e51b8152602060048201526024808201527f4f4e46543732314761736c6573733a20496e76616c6964204d65726b6c6520506044820152633937b7b360e11b6064820152608490fd5b1561351e57565b60405162461bcd60e51b815260206004820152602560248201527f416476616e6365644f4e46543732313a2042656e6566696369617279206e6f74604482015264207365742160d81b6064820152608490fd5b90816020910312610570575190565b6013198101919082116131e157565b6000198101919082116131e157565b919082039182116131e157565b601254611c00906001600160a01b03906135c89082161515613517565b60188054901c6001600160a01b03166040516370a0823160e01b815230600482015291602083806024810103818486165afa92831561369a575b60009361366a575b5061363b61362561361d600d548661331d565b612710900490565b601354909384916001600160a01b031690614156565b60188054613662911c6001600160a01b03166012549093906001600160a01b03169461359e565b921690614156565b61368c91935060203d8111613693575b6136848183610e5d565b810190613571565b913861360a565b503d61367a565b6136a2612e70565b613602565b8181106136b2575050565b600081556001016136a7565b90601f82116136cb575050565b611c009160176000527fc624b66cc0138b8fabc209247f72d758e1cf3343756d543badbf24212bed8c15906020601f840160051c83019310613715575b601f0160051c01906136a7565b9091508190613708565b90601f821161372c575050565b611c009160166000527fd833147d7dc355ba459fc788f669e58cfaf9dc25ddcd0702e87d69c7b5124289906020601f840160051c8301931061371557601f0160051c01906136a7565b90601f8211613782575050565b611c009160156000527f55f448fdea98c4d29eb340757ef0a66cd03dbb9538908a6a81d96026b71ec475906020601f840160051c8301931061371557601f0160051c01906136a7565b9190601f81116137da57505050565b611c00926000526020600020906020601f840160051c8301931061371557601f0160051c01906136a7565b6000818152600860205260409020546001600160a01b031615613871576018546138339060101c60ff161590565b613868576108526138629161343261385261384c6129b9565b92614c86565b6040519485936020850190611867565b90611867565b506108526128fd565b60405162461bcd60e51b815260206004820152602f60248201527f4552433732314d657461646174613a2055524920717565727920666f72206e6f60448201526e3732bc34b9ba32b73a103a37b5b2b760891b6064820152608490fd5b611c00601f1936013560471936013560601c60331936013560601c91909181156139f7576001600160a01b0390811673eeeeeeeeeeeeeeeeeeeeeeeeeeeeeeeeeeeeeeee81036139ec57508147106139a757600092839283928392165af1613934614af2565b501561393c57565b60405162461bcd60e51b815260206004820152603a60248201527f416464726573733a20756e61626c6520746f2073656e642076616c75652c207260448201527f6563697069656e74206d617920686176652072657665727465640000000000006064820152608490fd5b60405162461bcd60e51b815260206004820152601d60248201527f416464726573733a20696e73756666696369656e742062616c616e63650000006044820152606490fd5b611c00939150614156565b505050565b15613a0357565b60405162461bcd60e51b815260206004820152602660248201527f4c7a4170703a20696e76616c696420736f757263652073656e64696e6720636f6044820152651b9d1c9858dd60d21b6064820152608490fd5b92613a7c61085297959361ffff613a8a9416865260c0602087015260c086019061081c565b90848203604086015261081c565b6001600160a01b0391821660608401529316608082015280830360a09091015261081c565b94613ad89193929561ffff81166000526001602052613adf604060002060405194858092611b4f565b0384610e5d565b825115613b7257613af1855182613bd0565b7f00000000000000000000000000000000000000000000000000000000000000006001600160a01b031693843b1561057057600096613b4691604051998a988997889662c5803160e81b885260048801613a57565b03925af18015613b65575b613b585750565b80612615611c0092610e22565b613b6d612e70565b613b51565b60405162461bcd60e51b815260206004820152603060248201527f4c7a4170703a2064657374696e6174696f6e20636861696e206973206e6f742060448201526f61207472757374656420736f7572636560801b6064820152608490fd5b61ffff166000526003602052604060002054908115613c35575b11613bf157565b606460405162461bcd60e51b815260206004820152602060248201527f4c7a4170703a207061796c6f61642073697a6520697320746f6f206c617267656044820152fd5b6127109150613bea565b81601f82011215610570578051613c5581610e7e565b92613c636040519485610e5d565b818452602082840101116105705761085291602080850191016107f9565b906020828203126105705781516001600160401b038111610570576108529201613c3f565b908060209392818452848401376000828201840152601f01601f1916010190565b60409061ffff61085295931681528160208201520191613ca6565b9290915a926040519360208501633356ae4560e11b815261ffff8716602487015260806044870152613d4d86613d3f613d1e60a483018761081c565b6001600160401b03881660648401528281036023190160848401528861081c565b03601f198101885287610e5d565b600091829182613d5b6140d6565b9851923090f13d60968111613d95575b8086526000602087013e15613d82575b5050505050565b613d8b94613d9d565b3880808080613d7b565b506096613d6b565b9193613e3a7fe183f33de2837795525b4792ca4cd60535bd77c53b7e7030060bfcf5734d6b0c95613e48939561ffff81516020830120961695866000526005602052613e01836118f360208b604060002082604051948386809551938492016107f9565b556001600160401b03613e26604051988998895260a060208a015260a089019061081c565b92166040870152858203606087015261081c565b90838203608085015261081c565b0390a1565b92908151820190604083830312610570576020830151916001600160401b039081841161057057613ef361ffff93613eee61131c60146040613ebb8b60207f64e10c37f404d128982dce114f5d233c14c5c7f6d8db93099e3d99dacb9e27ba9c81613f219b01920101613c3f565b9a015199015160405190966020820190811182821017613f26575b60405260008152613ee78a88614696565b8987614b22565b612e92565b9560405193849360018060a01b0316981695839092916001600160401b036020916040840195845216910152565b0390a4565b613f2e610e0b565b613ed6565b6020919283604051948593843782019081520301902090565b15613f5357565b60405162461bcd60e51b815260206004820152602160248201527f4e6f6e626c6f636b696e674c7a4170703a20696e76616c6964207061796c6f616044820152601960fa1b6064820152608490fd5b91613fce9060609461ffff6001600160401b039499989799168552608060208601526080850191613ca6565b951660408201520152565b15613fe057565b60405162461bcd60e51b815260206004820152600e60248201526d736c6963655f6f766572666c6f7760901b6044820152606490fd5b1561401d57565b60405162461bcd60e51b8152602060048201526011602482015270736c6963655f6f75744f66426f756e647360781b6044820152606490fd5b61406a82614063816131d3565b1015613fd9565b6140778282511015614016565b8161408f575050604051600081526020810160405290565b60405191601f811691821560051b808486010193838501920101905b8084106140c35750508252601f01601f191660405290565b90928351815260208091019301906140ab565b6040519060c082018281106001600160401b03821117614102575b6040526096825260a0366020840137565b61410a610e0b565b6140f1565b600080546001600160a01b039283166001600160a01b03198216811783559216907f8be0079c531659141344cd1fd0a4f28419497f9722a3daafe3b4186f6b6457e09080a3565b60405163a9059cbb60e01b60208201526001600160a01b039092166024830152604480830193909352918152611c0091608082016001600160401b038111838210176141a5575b60405261427d565b6141ad610e0b565b61419d565b6040516323b872dd60e01b60208201526001600160a01b039283166024820152929091166044830152606480830193909352918152611c009160a082018281106001600160401b038211176141a55760405261427d565b90816020910312610570575161085281610efa565b1561422557565b60405162461bcd60e51b815260206004820152602a60248201527f5361666545524332303a204552433230206f7065726174696f6e20646964206e6044820152691bdd081cdd58d8d9595960b21b6064820152608490fd5b6040516001600160a01b03919091169161429682610e42565b6020928383527f5361666545524332303a206c6f772d6c6576656c2063616c6c206661696c656484840152803b1561430d57600082819282876142e89796519301915af16142e2614af2565b90614c1f565b805190816142f557505050565b82611c0093614308938301019101614209565b61421e565b60405162461bcd60e51b815260048101859052601d60248201527f416464726573733a2063616c6c20746f206e6f6e2d636f6e74726163740000006044820152606490fd5b6000908152600860205260409020546001600160a01b031680156143735790565b60405162461bcd60e51b815260206004820152602960248201527f4552433732313a206f776e657220717565727920666f72206e6f6e657869737460448201526832b73a103a37b5b2b760b91b6064820152608490fd5b156143d157565b60405162461bcd60e51b815260206004820152603860248201527f4552433732313a20617070726f76652063616c6c6572206973206e6f74206f7760448201527f6e6572206e6f7220617070726f76656420666f7220616c6c00000000000000006064820152608490fd5b6000818152600860205260409020546001600160a01b031615614474576000908152600a60205260409020546001600160a01b031690565b60405162461bcd60e51b815260206004820152602c60248201527f4552433732313a20617070726f76656420717565727920666f72206e6f6e657860448201526b34b9ba32b73a103a37b5b2b760a11b6064820152608490fd5b156144d557565b60405162461bcd60e51b815260206004820152603160248201527f4552433732313a207472616e736665722063616c6c6572206973206e6f74206f6044820152701ddb995c881b9bdc88185c1c1c9bdd9959607a1b6064820152608490fd5b60809060208152603260208201527f4552433732313a207472616e7366657220746f206e6f6e20455243373231526560408201527131b2b4bb32b91034b6b83632b6b2b73a32b960711b60608201520190565b1561458e57565b60405162461bcd60e51b8152806145a760048201614534565b0390fd5b6000828152600860205260409020546001600160a01b03161561463c576145d182614352565b6001600160a01b038281168282168114949091908515614624575b50505082156145fa57505090565b6001600160a01b03166000908152600b6020526040902060ff925061461f9190610aae565b541690565b614631919293955061443c565b1614913880806145ec565b60405162461bcd60e51b815260206004820152602c60248201527f4552433732313a206f70657261746f7220717565727920666f72206e6f6e657860448201526b34b9ba32b73a103a37b5b2b760a11b6064820152608490fd5b6001600160a01b03811690811561478c576000838152600860205260409020546001600160a01b0316614747576001600160a01b038116600090815260096020526040902061471f91906146ea81546131e9565b9055614700846000526008602052604060002090565b80546001600160a01b0319166001600160a01b03909216919091179055565b60007fddf252ad1be2c89b69c2b068fc378daa952ba7f163c4a11628f55a4df523b3ef8180a4565b60405162461bcd60e51b815260206004820152601c60248201527f4552433732313a20746f6b656e20616c7265616479206d696e746564000000006044820152606490fd5b606460405162461bcd60e51b815260206004820152602060248201527f4552433732313a206d696e7420746f20746865207a65726f20616464726573736044820152fd5b6147d981614352565b6147e2826149c9565b6001600160a01b03166000818152600960205260408120805491929160001981019190821161484d575b5582825260086020526040822080546001600160a01b03191690557fddf252ad1be2c89b69c2b068fc378daa952ba7f163c4a11628f55a4df523b3ef8280a4565b6148556131bc565b61480c565b1561486157565b60405162461bcd60e51b8152602060048201526024808201527f4552433732313a207472616e7366657220746f20746865207a65726f206164646044820152637265737360e01b6064820152608490fd5b906148bc83614352565b6001600160a01b0383811692909182168390036149765761490b61494f928216946148e886151561485a565b6148f1876149c9565b6001600160a01b0316600090815260096020526040902090565b614915815461358f565b90556001600160a01b038116600090815260096020526040902061493981546131e9565b9055614700856000526008602052604060002090565b7fddf252ad1be2c89b69c2b068fc378daa952ba7f163c4a11628f55a4df523b3ef600080a4565b60405162461bcd60e51b815260206004820152602560248201527f4552433732313a207472616e736665722066726f6d20696e636f72726563742060448201526437bbb732b960d91b6064820152608490fd5b6000818152600a6020526040812080546001600160a01b03191690556001600160a01b036149f683614352565b167f8c5be1e5ebec7d5bd14f71427d1e84f3dd0314c0f7b2291e5b200ac8c7c3b9258280a4565b6000828152600a6020526040902080546001600160a01b0319166001600160a01b0383161790556001600160a01b0380614a5684614352565b169116907f8c5be1e5ebec7d5bd14f71427d1e84f3dd0314c0f7b2291e5b200ac8c7c3b925600080a4565b90816020910312610570575161085281610740565b610852939260809260018060a01b03168252600060208301526040820152816060820152019061081c565b6001600160a01b0391821681529116602082015260408101919091526080606082018190526108529291019061081c565b3d15614b1d573d90614b0382610e7e565b91614b116040519384610e5d565b82523d6000602084013e565b606090565b909190803b15614bdb57614b54602091600093604051948580948193630a85bd0160e11b998a84523360048501614a96565b03926001600160a01b03165af160009181614bab575b50614b9d57614b77614af2565b80519081614b985760405162461bcd60e51b8152806145a760048201614534565b602001fd5b6001600160e01b0319161490565b614bcd91925060203d8111614bd4575b614bc58183610e5d565b810190614a81565b9038614b6a565b503d614bbb565b505050600190565b92909190823b15614c1657614b54926020926000604051809681958294630a85bd0160e11b9a8b85523360048601614ac1565b50505050600190565b90919015614c2b575090565b815115614c3b5750805190602001fd5b60405162461bcd60e51b8152602060048201529081906145a790602483019061081c565b908151811015614c70570160200190565b634e487b7160e01b600052603260045260246000fd5b8015614d3157806000908282935b614d1d5750614ca283610e7e565b92614cb06040519485610e5d565b80845281601f19614cc083610e7e565b013660208701375b614cd25750505090565b614cdb9061358f565b90600a9060308282068101809111614d10575b60f81b6001600160f81b031916841a614d078487614c5f565b53049081614cc8565b614d186131bc565b614cee565b92614d29600a91613330565b930480614c94565b50604051614d3e81610e42565b60018152600360fc1b602082015290565b9091906000915b8151831015614d9e576020600584901b830181015191828111614d8b5760005252614d85604060002092613330565b91614d56565b9160005252614d85604060002092613330565b9150501490565b6daaeb6d7670e522a718067333cd4e803b614dbe575050565b604051633185c44d60e21b81523060048201526001600160a01b038316602482015290602090829060449082905afa908115614e57575b600091614e29575b5015614e065750565b604051633b79c77360e21b81526001600160a01b03919091166004820152602490fd5b614e4a915060203d8111614e50575b614e428183610e5d565b810190614209565b38614dfd565b503d614e38565b614e5f612e70565b614df556fea2646970667358221220f255e3468a949945e5950a6d406e209d4beadce7631d3770ea565faede2eacc164736f6c63430008110033a66cc928b5edb82af9bd49922954155ab7b0942694bea4ce44661d9a8736c688f652222313e28459528d920b65115c16c04f3efc82aaedc97be59f3f377c0d3fc624b66cc0138b8fabc209247f72d758e1cf3343756d543badbf24212bed8c15d833147d7dc355ba459fc788f669e58cfaf9dc25ddcd0702e87d69c7b5124289",
    "linkReferences": {}
  },
  "methodIdentifiers": {
    "DEFAULT_PAYLOAD_SIZE_LIMIT()": "c4461834",
    "OPERATOR_FILTER_REGISTRY()": "41f43434",
    "_publicSaleStarted()": "600e97f6",
    "_saleStarted()": "87c348bf",
    "approve(address,uint256)": "095ea7b3",
    "balanceOf(address)": "70a08231",
    "contractURI()": "e8a3d485",
    "estimateSendFee(uint16,bytes,uint256,bool,bytes)": "2a205e3d",
    "failedMessages(uint16,bytes,uint64)": "5b8c41e6",
    "flipPublicSaleStarted()": "1291e33e",
    "flipRevealed()": "3b2c3fb6",
    "flipSaleStarted()": "899d7b38",
    "forceResumeReceive(uint16,bytes)": "42d65a8d",
    "getApproved(uint256)": "081812fc",
    "getConfig(uint16,uint16,address,uint256)": "f5ecbdbc",
    "getTrustedRemoteAddress(uint16)": "9f38369a",
    "isApprovedForAll(address,address)": "e985e9c5",
    "isTrustedRemote(uint16,bytes)": "3d8b38f6",
    "lzEndpoint()": "b353aaa7",
    "lzReceive(uint16,bytes,uint64,bytes)": "001d3567",
    "maxMintId()": "e1d4c870",
    "maxTokensPerMint()": "17465471",
    "merkleRoot()": "2eb4a7ab",
    "minDstGasLookup(uint16,uint16)": "8cfd8f5c",
    "mintGasless(uint256,address,bytes32[])": "450a4b6d",
    "name()": "06fdde03",
    "nextMintId()": "6aa99da3",
    "nonblockingLzReceive(uint16,bytes,uint64,bytes)": "66ad5c8a",
    "owner()": "8da5cb5b",
    "ownerOf(uint256)": "6352211e",
    "payloadSizeLimitLookup(uint16)": "3f1f4fa4",
    "precrime()": "950c8a74",
    "price()": "a035b1fe",
    "publicMintGasless(uint256,address)": "129559e6",
    "renounceOwnership()": "715018a6",
    "retryMessage(uint16,bytes,uint64,bytes)": "d1deba1f",
    "safeTransferFrom(address,address,uint256)": "42842e0e",
    "safeTransferFrom(address,address,uint256,bytes)": "b88d4fde",
    "sendFrom(address,uint16,bytes,uint256,address,address,bytes)": "51905636",
    "setApprovalForAll(address,bool)": "a22cb465",
    "setBaseURI(string)": "55f804b3",
    "setBeneficiary(address)": "1c31f710",
    "setConfig(uint16,uint16,uint256,bytes)": "cbed8b9c",
    "setContractURI(string)": "938e3d7b",
    "setHiddenMetadataUri(string)": "4fdd43cb",
    "setMerkleRoot(bytes32)": "7cb64759",
    "setMinDstGas(uint16,uint16,uint256)": "df2a5b3b",
    "setMintRange(uint256,uint256,uint256)": "a7afd9c6",
    "setPayloadSizeLimit(uint16,uint256)": "0df37483",
    "setPrecrime(address)": "baf3292d",
    "setPrice(uint256)": "91b7f5ed",
    "setReceiveVersion(uint16)": "10ddb137",
    "setSendVersion(uint16)": "07e0db17",
    "setStableToken(address)": "db1bc87b",
    "setTax(uint256)": "2e5bb6ff",
    "setTaxRecipient(address)": "78e3079e",
    "setTrustedRemote(uint16,bytes)": "eb8d72b7",
    "setTrustedRemoteAddress(uint16,bytes)": "a6c3d165",
    "stableToken()": "a9d75b2b",
    "supportsInterface(bytes4)": "01ffc9a7",
    "symbol()": "95d89b41",
    "tax()": "99c8d556",
    "tokenURI(uint256)": "c87b56dd",
    "transferFrom(address,address,uint256)": "23b872dd",
    "transferOwnership(address)": "f2fde38b",
    "trustedRemoteLookup(uint16)": "7533d788",
    "withdraw()": "3ccfd60b"
  },
  "id": 172
}