{
  "abi": [
    {
      "inputs": [],
      "stateMutability": "nonpayable",
      "type": "constructor"
    },
    {
      "inputs": [
        {
          "internalType": "address",
          "name": "collection",
          "type": "address"
        },
        {
          "internalType": "address",
          "name": "from",
          "type": "address"
        },
        {
          "internalType": "address",
          "name": "to",
          "type": "address"
        },
        {
          "internalType": "uint256",
          "name": "tokenId",
          "type": "uint256"
        },
        {
          "internalType": "uint256",
          "name": "amount",
          "type": "uint256"
        }
      ],
      "name": "transferNFT",
      "outputs": [],
      "stateMutability": "nonpayable",
      "type": "function"
    }
  ],
  "bytecode": {
    "object": "0x608060405234801561001057600080fd5b50610171806100206000396000f3fe608060405234801561001057600080fd5b506004361061002b5760003560e01c8063c4d6866f14610030575b600080fd5b61004361003e3660046100e6565b610045565b005b6100528585858585610059565b5050505050565b604051632142170760e11b81526001600160a01b0385811660048301528481166024830152604482018490528616906342842e0e90606401600060405180830381600087803b1580156100ab57600080fd5b505af11580156100bf573d6000803e3d6000fd5b505050505050505050565b80356001600160a01b03811681146100e157600080fd5b919050565b600080600080600060a086880312156100fe57600080fd5b610107866100ca565b9450610115602087016100ca565b9350610123604087016100ca565b9497939650939460608101359450608001359291505056fea2646970667358221220d5d37d05509f0f0ce152036d5c2538af6ac815b6faa8e27537c57e59a2bd03db64736f6c63430008110033",
    "linkReferences": {}
  },
  "methodIdentifiers": {
    "transferNFT(address,address,address,uint256,uint256)": "c4d6866f"
  },
  "id": 106
}